{
	"data": {
		"bytecode": {
			"linkReferences": {},
			"object": "60806040523480156200001157600080fd5b506040518060200160405280600081525062000033816200005a60201b60201c565b5062000054620000486200007660201b60201c565b6200007e60201b60201c565b62000259565b80600290805190602001906200007292919062000144565b5050565b600033905090565b6000600460009054906101000a900473ffffffffffffffffffffffffffffffffffffffff16905081600460006101000a81548173ffffffffffffffffffffffffffffffffffffffff021916908373ffffffffffffffffffffffffffffffffffffffff1602179055508173ffffffffffffffffffffffffffffffffffffffff168173ffffffffffffffffffffffffffffffffffffffff167f8be0079c531659141344cd1fd0a4f28419497f9722a3daafe3b4186f6b6457e060405160405180910390a35050565b828054620001529062000223565b90600052602060002090601f016020900481019282620001765760008555620001c2565b82601f106200019157805160ff1916838001178555620001c2565b82800160010185558215620001c2579182015b82811115620001c1578251825591602001919060010190620001a4565b5b509050620001d19190620001d5565b5090565b5b80821115620001f0576000816000905550600101620001d6565b5090565b7f4e487b7100000000000000000000000000000000000000000000000000000000600052602260045260246000fd5b600060028204905060018216806200023c57607f821691505b60208210811415620002535762000252620001f4565b5b50919050565b61439380620002696000396000f3fe608060405234801561001057600080fd5b506004361061012b5760003560e01c8063715018a6116100ad578063bd85b03911610071578063bd85b0391461032a578063e985e9c51461035a578063f242432a1461038a578063f2fde38b146103a6578063f5298aca146103c25761012b565b8063715018a6146102ac578063731133e9146102b65780638da5cb5b146102d2578063a168d873146102f0578063a22cb4651461030e5761012b565b80634e1273f4116100f45780634e1273f4146101f85780634f558e791461022857806357f7789e146102585780636b20c45414610274578063711953ef146102905761012b565b8062fdd58e1461013057806301ffc9a7146101605780630e89341c146101905780631f7fdffa146101c05780632eb2c2d6146101dc575b600080fd5b61014a600480360381019061014591906129c2565b6103de565b6040516101579190612a11565b60405180910390f35b61017a60048036038101906101759190612a84565b6104a7565b6040516101879190612acc565b60405180910390f35b6101aa60048036038101906101a59190612ae7565b610589565b6040516101b79190612bad565b60405180910390f35b6101da60048036038101906101d59190612dcc565b61062e565b005b6101f660048036038101906101f19190612e87565b610762565b005b610212600480360381019061020d9190613019565b610803565b60405161021f919061314f565b60405180910390f35b610242600480360381019061023d9190612ae7565b61091c565b60405161024f9190612acc565b60405180910390f35b610272600480360381019061026d9190613212565b610930565b005b61028e6004803603810190610289919061326e565b610964565b005b6102aa60048036038101906102a591906132f9565b610a04565b005b6102b4610ae1565b005b6102d060048036038101906102cb9190613326565b610af5565b005b6102da610c29565b6040516102e791906133b8565b60405180910390f35b6102f8610c53565b60405161030591906133b8565b60405180910390f35b610328600480360381019061032391906133ff565b610c79565b005b610344600480360381019061033f9190612ae7565b610c8f565b6040516103519190612a11565b60405180910390f35b610374600480360381019061036f919061343f565b610cac565b6040516103819190612acc565b60405180910390f35b6103a4600480360381019061039f919061347f565b610d40565b005b6103c060048036038101906103bb91906132f9565b610de1565b005b6103dc60048036038101906103d79190613516565b610e65565b005b60008073ffffffffffffffffffffffffffffffffffffffff168373ffffffffffffffffffffffffffffffffffffffff16141561044f576040517f08c379a0000000000000000000000000000000000000000000000000000000008152600401610446906135db565b60405180910390fd5b60008083815260200190815260200160002060008473ffffffffffffffffffffffffffffffffffffffff1673ffffffffffffffffffffffffffffffffffffffff16815260200190815260200160002054905092915050565b60007fd9b67a26000000000000000000000000000000000000000000000000000000007bffffffffffffffffffffffffffffffffffffffffffffffffffffffff1916827bffffffffffffffffffffffffffffffffffffffffffffffffffffffff1916148061057257507f0e89341c000000000000000000000000000000000000000000000000000000007bffffffffffffffffffffffffffffffffffffffffffffffffffffffff1916827bffffffffffffffffffffffffffffffffffffffffffffffffffffffff1916145b80610582575061058182610f05565b5b9050919050565b60606006600083815260200190815260200160002080546105a99061362a565b80601f01602080910402602001604051908101604052809291908181526020018280546105d59061362a565b80156106225780601f106105f757610100808354040283529160200191610622565b820191906000526020600020905b81548152906001019060200180831161060557829003601f168201915b50505050509050919050565b600073ffffffffffffffffffffffffffffffffffffffff16600560009054906101000a900473ffffffffffffffffffffffffffffffffffffffff1673ffffffffffffffffffffffffffffffffffffffff1614156106c0576040517f08c379a00000000000000000000000000000000000000000000000000000000081526004016106b7906136a8565b60405180910390fd5b600560009054906101000a900473ffffffffffffffffffffffffffffffffffffffff1673ffffffffffffffffffffffffffffffffffffffff163373ffffffffffffffffffffffffffffffffffffffff1614610750576040517f08c379a000000000000000000000000000000000000000000000000000000000815260040161074790613714565b60405180910390fd5b61075c84848484610f6f565b50505050565b61076a61119c565b73ffffffffffffffffffffffffffffffffffffffff168573ffffffffffffffffffffffffffffffffffffffff1614806107b057506107af856107aa61119c565b610cac565b5b6107ef576040517f08c379a00000000000000000000000000000000000000000000000000000000081526004016107e6906137a6565b60405180910390fd5b6107fc85858585856111a4565b5050505050565b60608151835114610849576040517f08c379a000000000000000000000000000000000000000000000000000000000815260040161084090613838565b60405180910390fd5b6000835167ffffffffffffffff81111561086657610865612bd4565b5b6040519080825280602002602001820160405280156108945781602001602082028036833780820191505090505b50905060005b8451811015610911576108e18582815181106108b9576108b8613858565b5b60200260200101518583815181106108d4576108d3613858565b5b60200260200101516103de565b8282815181106108f4576108f3613858565b5b6020026020010181815250508061090a906138b6565b905061089a565b508091505092915050565b60008061092883610c8f565b119050919050565b6109386114c6565b8060066000848152602001908152602001600020908051906020019061095f929190612877565b505050565b600560009054906101000a900473ffffffffffffffffffffffffffffffffffffffff1673ffffffffffffffffffffffffffffffffffffffff163373ffffffffffffffffffffffffffffffffffffffff16146109f4576040517f08c379a00000000000000000000000000000000000000000000000000000000081526004016109eb9061394b565b60405180910390fd5b6109ff838383611544565b505050565b610a0c6114c6565b600073ffffffffffffffffffffffffffffffffffffffff16600560009054906101000a900473ffffffffffffffffffffffffffffffffffffffff1673ffffffffffffffffffffffffffffffffffffffff1614610a9d576040517f08c379a0000000000000000000000000000000000000000000000000000000008152600401610a94906139b7565b60405180910390fd5b80600560006101000a81548173ffffffffffffffffffffffffffffffffffffffff021916908373ffffffffffffffffffffffffffffffffffffffff16021790555050565b610ae96114c6565b610af360006115e1565b565b600073ffffffffffffffffffffffffffffffffffffffff16600560009054906101000a900473ffffffffffffffffffffffffffffffffffffffff1673ffffffffffffffffffffffffffffffffffffffff161415610b87576040517f08c379a0000000000000000000000000000000000000000000000000000000008152600401610b7e906136a8565b60405180910390fd5b600560009054906101000a900473ffffffffffffffffffffffffffffffffffffffff1673ffffffffffffffffffffffffffffffffffffffff163373ffffffffffffffffffffffffffffffffffffffff1614610c17576040517f08c379a0000000000000000000000000000000000000000000000000000000008152600401610c0e90613714565b60405180910390fd5b610c23848484846116a7565b50505050565b6000600460009054906101000a900473ffffffffffffffffffffffffffffffffffffffff16905090565b600560009054906101000a900473ffffffffffffffffffffffffffffffffffffffff1681565b610c8b610c8461119c565b8383611858565b5050565b600060036000838152602001908152602001600020549050919050565b6000600160008473ffffffffffffffffffffffffffffffffffffffff1673ffffffffffffffffffffffffffffffffffffffff16815260200190815260200160002060008373ffffffffffffffffffffffffffffffffffffffff1673ffffffffffffffffffffffffffffffffffffffff16815260200190815260200160002060009054906101000a900460ff16905092915050565b610d4861119c565b73ffffffffffffffffffffffffffffffffffffffff168573ffffffffffffffffffffffffffffffffffffffff161480610d8e5750610d8d85610d8861119c565b610cac565b5b610dcd576040517f08c379a0000000000000000000000000000000000000000000000000000000008152600401610dc4906137a6565b60405180910390fd5b610dda85858585856119c5565b5050505050565b610de96114c6565b600073ffffffffffffffffffffffffffffffffffffffff168173ffffffffffffffffffffffffffffffffffffffff161415610e59576040517f08c379a0000000000000000000000000000000000000000000000000000000008152600401610e5090613a49565b60405180910390fd5b610e62816115e1565b50565b600560009054906101000a900473ffffffffffffffffffffffffffffffffffffffff1673ffffffffffffffffffffffffffffffffffffffff163373ffffffffffffffffffffffffffffffffffffffff1614610ef5576040517f08c379a0000000000000000000000000000000000000000000000000000000008152600401610eec9061394b565b60405180910390fd5b610f00838383611c61565b505050565b60007f01ffc9a7000000000000000000000000000000000000000000000000000000007bffffffffffffffffffffffffffffffffffffffffffffffffffffffff1916827bffffffffffffffffffffffffffffffffffffffffffffffffffffffff1916149050919050565b600073ffffffffffffffffffffffffffffffffffffffff168473ffffffffffffffffffffffffffffffffffffffff161415610fdf576040517f08c379a0000000000000000000000000000000000000000000000000000000008152600401610fd690613adb565b60405180910390fd5b8151835114611023576040517f08c379a000000000000000000000000000000000000000000000000000000000815260040161101a90613b6d565b60405180910390fd5b600061102d61119c565b905061103e81600087878787611cfe565b60005b84518110156110f75783818151811061105d5761105c613858565b5b602002602001015160008087848151811061107b5761107a613858565b5b6020026020010151815260200190815260200160002060008873ffffffffffffffffffffffffffffffffffffffff1673ffffffffffffffffffffffffffffffffffffffff16815260200190815260200160002060008282546110dd9190613b8d565b9250508190555080806110ef906138b6565b915050611041565b508473ffffffffffffffffffffffffffffffffffffffff16600073ffffffffffffffffffffffffffffffffffffffff168273ffffffffffffffffffffffffffffffffffffffff167f4a39dc06d4c0dbc64b70af90fd698a233a518aa5d07e595d983b8c0526c8f7fb878760405161116f929190613be3565b60405180910390a461118681600087878787611d14565b61119581600087878787611d1c565b5050505050565b600033905090565b81518351146111e8576040517f08c379a00000000000000000000000000000000000000000000000000000000081526004016111df90613b6d565b60405180910390fd5b600073ffffffffffffffffffffffffffffffffffffffff168473ffffffffffffffffffffffffffffffffffffffff161415611258576040517f08c379a000000000000000000000000000000000000000000000000000000000815260040161124f90613c8c565b60405180910390fd5b600061126261119c565b9050611272818787878787611cfe565b60005b845181101561142357600085828151811061129357611292613858565b5b6020026020010151905060008583815181106112b2576112b1613858565b5b60200260200101519050600080600084815260200190815260200160002060008b73ffffffffffffffffffffffffffffffffffffffff1673ffffffffffffffffffffffffffffffffffffffff16815260200190815260200160002054905081811015611353576040517f08c379a000000000000000000000000000000000000000000000000000000000815260040161134a90613d1e565b60405180910390fd5b81810360008085815260200190815260200160002060008c73ffffffffffffffffffffffffffffffffffffffff1673ffffffffffffffffffffffffffffffffffffffff168152602001908152602001600020819055508160008085815260200190815260200160002060008b73ffffffffffffffffffffffffffffffffffffffff1673ffffffffffffffffffffffffffffffffffffffff16815260200190815260200160002060008282546114089190613b8d565b925050819055505050508061141c906138b6565b9050611275565b508473ffffffffffffffffffffffffffffffffffffffff168673ffffffffffffffffffffffffffffffffffffffff168273ffffffffffffffffffffffffffffffffffffffff167f4a39dc06d4c0dbc64b70af90fd698a233a518aa5d07e595d983b8c0526c8f7fb878760405161149a929190613be3565b60405180910390a46114b0818787878787611d14565b6114be818787878787611d1c565b505050505050565b6114ce61119c565b73ffffffffffffffffffffffffffffffffffffffff166114ec610c29565b73ffffffffffffffffffffffffffffffffffffffff1614611542576040517f08c379a000000000000000000000000000000000000000000000000000000000815260040161153990613d8a565b60405180910390fd5b565b61154c61119c565b73ffffffffffffffffffffffffffffffffffffffff168373ffffffffffffffffffffffffffffffffffffffff16148061159257506115918361158c61119c565b610cac565b5b6115d1576040517f08c379a00000000000000000000000000000000000000000000000000000000081526004016115c8906137a6565b60405180910390fd5b6115dc838383611f03565b505050565b6000600460009054906101000a900473ffffffffffffffffffffffffffffffffffffffff16905081600460006101000a81548173ffffffffffffffffffffffffffffffffffffffff021916908373ffffffffffffffffffffffffffffffffffffffff1602179055508173ffffffffffffffffffffffffffffffffffffffff168173ffffffffffffffffffffffffffffffffffffffff167f8be0079c531659141344cd1fd0a4f28419497f9722a3daafe3b4186f6b6457e060405160405180910390a35050565b600073ffffffffffffffffffffffffffffffffffffffff168473ffffffffffffffffffffffffffffffffffffffff161415611717576040517f08c379a000000000000000000000000000000000000000000000000000000000815260040161170e90613adb565b60405180910390fd5b600061172161119c565b9050600061172e856121d2565b9050600061173b856121d2565b905061174c83600089858589611cfe565b8460008088815260200190815260200160002060008973ffffffffffffffffffffffffffffffffffffffff1673ffffffffffffffffffffffffffffffffffffffff16815260200190815260200160002060008282546117ab9190613b8d565b925050819055508673ffffffffffffffffffffffffffffffffffffffff16600073ffffffffffffffffffffffffffffffffffffffff168473ffffffffffffffffffffffffffffffffffffffff167fc3d58168c5ae7397731d063d5bbf3d657854427343f4c083240f7aacaa2d0f628989604051611829929190613daa565b60405180910390a461184083600089858589611d14565b61184f8360008989898961224c565b50505050505050565b8173ffffffffffffffffffffffffffffffffffffffff168373ffffffffffffffffffffffffffffffffffffffff1614156118c7576040517f08c379a00000000000000000000000000000000000000000000000000000000081526004016118be90613e45565b60405180910390fd5b80600160008573ffffffffffffffffffffffffffffffffffffffff1673ffffffffffffffffffffffffffffffffffffffff16815260200190815260200160002060008473ffffffffffffffffffffffffffffffffffffffff1673ffffffffffffffffffffffffffffffffffffffff16815260200190815260200160002060006101000a81548160ff0219169083151502179055508173ffffffffffffffffffffffffffffffffffffffff168373ffffffffffffffffffffffffffffffffffffffff167f17307eab39ab6107e8899845ad3d59bd9653f200f220920489ca2b5937696c31836040516119b89190612acc565b60405180910390a3505050565b600073ffffffffffffffffffffffffffffffffffffffff168473ffffffffffffffffffffffffffffffffffffffff161415611a35576040517f08c379a0000000000000000000000000000000000000000000000000000000008152600401611a2c90613c8c565b60405180910390fd5b6000611a3f61119c565b90506000611a4c856121d2565b90506000611a59856121d2565b9050611a69838989858589611cfe565b600080600088815260200190815260200160002060008a73ffffffffffffffffffffffffffffffffffffffff1673ffffffffffffffffffffffffffffffffffffffff16815260200190815260200160002054905085811015611b00576040517f08c379a0000000000000000000000000000000000000000000000000000000008152600401611af790613d1e565b60405180910390fd5b85810360008089815260200190815260200160002060008b73ffffffffffffffffffffffffffffffffffffffff1673ffffffffffffffffffffffffffffffffffffffff168152602001908152602001600020819055508560008089815260200190815260200160002060008a73ffffffffffffffffffffffffffffffffffffffff1673ffffffffffffffffffffffffffffffffffffffff1681526020019081526020016000206000828254611bb59190613b8d565b925050819055508773ffffffffffffffffffffffffffffffffffffffff168973ffffffffffffffffffffffffffffffffffffffff168573ffffffffffffffffffffffffffffffffffffffff167fc3d58168c5ae7397731d063d5bbf3d657854427343f4c083240f7aacaa2d0f628a8a604051611c32929190613daa565b60405180910390a4611c48848a8a86868a611d14565b611c56848a8a8a8a8a61224c565b505050505050505050565b611c6961119c565b73ffffffffffffffffffffffffffffffffffffffff168373ffffffffffffffffffffffffffffffffffffffff161480611caf5750611cae83611ca961119c565b610cac565b5b611cee576040517f08c379a0000000000000000000000000000000000000000000000000000000008152600401611ce5906137a6565b60405180910390fd5b611cf9838383612433565b505050565b611d0c86868686868661267a565b505050505050565b505050505050565b611d3b8473ffffffffffffffffffffffffffffffffffffffff1661284c565b15611efb578373ffffffffffffffffffffffffffffffffffffffff1663bc197c8187878686866040518663ffffffff1660e01b8152600401611d81959493929190613eba565b602060405180830381600087803b158015611d9b57600080fd5b505af1925050508015611dcc57506040513d601f19601f82011682018060405250810190611dc99190613f37565b60015b611e7257611dd8613f71565b806308c379a01415611e355750611ded613f93565b80611df85750611e37565b806040517f08c379a0000000000000000000000000000000000000000000000000000000008152600401611e2c9190612bad565b60405180910390fd5b505b6040517f08c379a0000000000000000000000000000000000000000000000000000000008152600401611e699061409b565b60405180910390fd5b63bc197c8160e01b7bffffffffffffffffffffffffffffffffffffffffffffffffffffffff1916817bffffffffffffffffffffffffffffffffffffffffffffffffffffffff191614611ef9576040517f08c379a0000000000000000000000000000000000000000000000000000000008152600401611ef09061412d565b60405180910390fd5b505b505050505050565b600073ffffffffffffffffffffffffffffffffffffffff168373ffffffffffffffffffffffffffffffffffffffff161415611f73576040517f08c379a0000000000000000000000000000000000000000000000000000000008152600401611f6a906141bf565b60405180910390fd5b8051825114611fb7576040517f08c379a0000000000000000000000000000000000000000000000000000000008152600401611fae90613b6d565b60405180910390fd5b6000611fc161119c565b9050611fe181856000868660405180602001604052806000815250611cfe565b60005b835181101561212e57600084828151811061200257612001613858565b5b60200260200101519050600084838151811061202157612020613858565b5b60200260200101519050600080600084815260200190815260200160002060008973ffffffffffffffffffffffffffffffffffffffff1673ffffffffffffffffffffffffffffffffffffffff168152602001908152602001600020549050818110156120c2576040517f08c379a00000000000000000000000000000000000000000000000000000000081526004016120b990614251565b60405180910390fd5b81810360008085815260200190815260200160002060008a73ffffffffffffffffffffffffffffffffffffffff1673ffffffffffffffffffffffffffffffffffffffff168152602001908152602001600020819055505050508080612126906138b6565b915050611fe4565b50600073ffffffffffffffffffffffffffffffffffffffff168473ffffffffffffffffffffffffffffffffffffffff168273ffffffffffffffffffffffffffffffffffffffff167f4a39dc06d4c0dbc64b70af90fd698a233a518aa5d07e595d983b8c0526c8f7fb86866040516121a6929190613be3565b60405180910390a46121cc81856000868660405180602001604052806000815250611d14565b50505050565b60606000600167ffffffffffffffff8111156121f1576121f0612bd4565b5b60405190808252806020026020018201604052801561221f5781602001602082028036833780820191505090505b509050828160008151811061223757612236613858565b5b60200260200101818152505080915050919050565b61226b8473ffffffffffffffffffffffffffffffffffffffff1661284c565b1561242b578373ffffffffffffffffffffffffffffffffffffffff1663f23a6e6187878686866040518663ffffffff1660e01b81526004016122b1959493929190614271565b602060405180830381600087803b1580156122cb57600080fd5b505af19250505080156122fc57506040513d601f19601f820116820180604052508101906122f99190613f37565b60015b6123a257612308613f71565b806308c379a01415612365575061231d613f93565b806123285750612367565b806040517f08c379a000000000000000000000000000000000000000000000000000000000815260040161235c9190612bad565b60405180910390fd5b505b6040517f08c379a00000000000000000000000000000000000000000000000000000000081526004016123999061409b565b60405180910390fd5b63f23a6e6160e01b7bffffffffffffffffffffffffffffffffffffffffffffffffffffffff1916817bffffffffffffffffffffffffffffffffffffffffffffffffffffffff191614612429576040517f08c379a00000000000000000000000000000000000000000000000000000000081526004016124209061412d565b60405180910390fd5b505b505050505050565b600073ffffffffffffffffffffffffffffffffffffffff168373ffffffffffffffffffffffffffffffffffffffff1614156124a3576040517f08c379a000000000000000000000000000000000000000000000000000000000815260040161249a906141bf565b60405180910390fd5b60006124ad61119c565b905060006124ba846121d2565b905060006124c7846121d2565b90506124e783876000858560405180602001604052806000815250611cfe565b600080600087815260200190815260200160002060008873ffffffffffffffffffffffffffffffffffffffff1673ffffffffffffffffffffffffffffffffffffffff1681526020019081526020016000205490508481101561257e576040517f08c379a000000000000000000000000000000000000000000000000000000000815260040161257590614251565b60405180910390fd5b84810360008088815260200190815260200160002060008973ffffffffffffffffffffffffffffffffffffffff1673ffffffffffffffffffffffffffffffffffffffff16815260200190815260200160002081905550600073ffffffffffffffffffffffffffffffffffffffff168773ffffffffffffffffffffffffffffffffffffffff168573ffffffffffffffffffffffffffffffffffffffff167fc3d58168c5ae7397731d063d5bbf3d657854427343f4c083240f7aacaa2d0f62898960405161264b929190613daa565b60405180910390a461267184886000868660405180602001604052806000815250611d14565b50505050505050565b61268886868686868661286f565b600073ffffffffffffffffffffffffffffffffffffffff168573ffffffffffffffffffffffffffffffffffffffff16141561273a5760005b8351811015612738578281815181106126dc576126db613858565b5b6020026020010151600360008684815181106126fb576126fa613858565b5b6020026020010151815260200190815260200160002060008282546127209190613b8d565b9250508190555080612731906138b6565b90506126c0565b505b600073ffffffffffffffffffffffffffffffffffffffff168473ffffffffffffffffffffffffffffffffffffffff1614156128445760005b83518110156128425760008482815181106127905761278f613858565b5b6020026020010151905060008483815181106127af576127ae613858565b5b6020026020010151905060006003600084815260200190815260200160002054905081811015612814576040517f08c379a000000000000000000000000000000000000000000000000000000000815260040161280b9061433d565b60405180910390fd5b81810360036000858152602001908152602001600020819055505050508061283b906138b6565b9050612772565b505b505050505050565b6000808273ffffffffffffffffffffffffffffffffffffffff163b119050919050565b505050505050565b8280546128839061362a565b90600052602060002090601f0160209004810192826128a557600085556128ec565b82601f106128be57805160ff19168380011785556128ec565b828001600101855582156128ec579182015b828111156128eb5782518255916020019190600101906128d0565b5b5090506128f991906128fd565b5090565b5b808211156129165760008160009055506001016128fe565b5090565b6000604051905090565b600080fd5b600080fd5b600073ffffffffffffffffffffffffffffffffffffffff82169050919050565b60006129598261292e565b9050919050565b6129698161294e565b811461297457600080fd5b50565b60008135905061298681612960565b92915050565b6000819050919050565b61299f8161298c565b81146129aa57600080fd5b50565b6000813590506129bc81612996565b92915050565b600080604083850312156129d9576129d8612924565b5b60006129e785828601612977565b92505060206129f8858286016129ad565b9150509250929050565b612a0b8161298c565b82525050565b6000602082019050612a266000830184612a02565b92915050565b60007fffffffff0000000000000000000000000000000000000000000000000000000082169050919050565b612a6181612a2c565b8114612a6c57600080fd5b50565b600081359050612a7e81612a58565b92915050565b600060208284031215612a9a57612a99612924565b5b6000612aa884828501612a6f565b91505092915050565b60008115159050919050565b612ac681612ab1565b82525050565b6000602082019050612ae16000830184612abd565b92915050565b600060208284031215612afd57612afc612924565b5b6000612b0b848285016129ad565b91505092915050565b600081519050919050565b600082825260208201905092915050565b60005b83811015612b4e578082015181840152602081019050612b33565b83811115612b5d576000848401525b50505050565b6000601f19601f8301169050919050565b6000612b7f82612b14565b612b898185612b1f565b9350612b99818560208601612b30565b612ba281612b63565b840191505092915050565b60006020820190508181036000830152612bc78184612b74565b905092915050565b600080fd5b7f4e487b7100000000000000000000000000000000000000000000000000000000600052604160045260246000fd5b612c0c82612b63565b810181811067ffffffffffffffff82111715612c2b57612c2a612bd4565b5b80604052505050565b6000612c3e61291a565b9050612c4a8282612c03565b919050565b600067ffffffffffffffff821115612c6a57612c69612bd4565b5b602082029050602081019050919050565b600080fd5b6000612c93612c8e84612c4f565b612c34565b90508083825260208201905060208402830185811115612cb657612cb5612c7b565b5b835b81811015612cdf5780612ccb88826129ad565b845260208401935050602081019050612cb8565b5050509392505050565b600082601f830112612cfe57612cfd612bcf565b5b8135612d0e848260208601612c80565b91505092915050565b600080fd5b600067ffffffffffffffff821115612d3757612d36612bd4565b5b612d4082612b63565b9050602081019050919050565b82818337600083830152505050565b6000612d6f612d6a84612d1c565b612c34565b905082815260208101848484011115612d8b57612d8a612d17565b5b612d96848285612d4d565b509392505050565b600082601f830112612db357612db2612bcf565b5b8135612dc3848260208601612d5c565b91505092915050565b60008060008060808587031215612de657612de5612924565b5b6000612df487828801612977565b945050602085013567ffffffffffffffff811115612e1557612e14612929565b5b612e2187828801612ce9565b935050604085013567ffffffffffffffff811115612e4257612e41612929565b5b612e4e87828801612ce9565b925050606085013567ffffffffffffffff811115612e6f57612e6e612929565b5b612e7b87828801612d9e565b91505092959194509250565b600080600080600060a08688031215612ea357612ea2612924565b5b6000612eb188828901612977565b9550506020612ec288828901612977565b945050604086013567ffffffffffffffff811115612ee357612ee2612929565b5b612eef88828901612ce9565b935050606086013567ffffffffffffffff811115612f1057612f0f612929565b5b612f1c88828901612ce9565b925050608086013567ffffffffffffffff811115612f3d57612f3c612929565b5b612f4988828901612d9e565b9150509295509295909350565b600067ffffffffffffffff821115612f7157612f70612bd4565b5b602082029050602081019050919050565b6000612f95612f9084612f56565b612c34565b90508083825260208201905060208402830185811115612fb857612fb7612c7b565b5b835b81811015612fe15780612fcd8882612977565b845260208401935050602081019050612fba565b5050509392505050565b600082601f83011261300057612fff612bcf565b5b8135613010848260208601612f82565b91505092915050565b600080604083850312156130305761302f612924565b5b600083013567ffffffffffffffff81111561304e5761304d612929565b5b61305a85828601612feb565b925050602083013567ffffffffffffffff81111561307b5761307a612929565b5b61308785828601612ce9565b9150509250929050565b600081519050919050565b600082825260208201905092915050565b6000819050602082019050919050565b6130c68161298c565b82525050565b60006130d883836130bd565b60208301905092915050565b6000602082019050919050565b60006130fc82613091565b613106818561309c565b9350613111836130ad565b8060005b8381101561314257815161312988826130cc565b9750613134836130e4565b925050600181019050613115565b5085935050505092915050565b6000602082019050818103600083015261316981846130f1565b905092915050565b600067ffffffffffffffff82111561318c5761318b612bd4565b5b61319582612b63565b9050602081019050919050565b60006131b56131b084613171565b612c34565b9050828152602081018484840111156131d1576131d0612d17565b5b6131dc848285612d4d565b509392505050565b600082601f8301126131f9576131f8612bcf565b5b81356132098482602086016131a2565b91505092915050565b6000806040838503121561322957613228612924565b5b6000613237858286016129ad565b925050602083013567ffffffffffffffff81111561325857613257612929565b5b613264858286016131e4565b9150509250929050565b60008060006060848603121561328757613286612924565b5b600061329586828701612977565b935050602084013567ffffffffffffffff8111156132b6576132b5612929565b5b6132c286828701612ce9565b925050604084013567ffffffffffffffff8111156132e3576132e2612929565b5b6132ef86828701612ce9565b9150509250925092565b60006020828403121561330f5761330e612924565b5b600061331d84828501612977565b91505092915050565b600080600080608085870312156133405761333f612924565b5b600061334e87828801612977565b945050602061335f878288016129ad565b9350506040613370878288016129ad565b925050606085013567ffffffffffffffff81111561339157613390612929565b5b61339d87828801612d9e565b91505092959194509250565b6133b28161294e565b82525050565b60006020820190506133cd60008301846133a9565b92915050565b6133dc81612ab1565b81146133e757600080fd5b50565b6000813590506133f9816133d3565b92915050565b6000806040838503121561341657613415612924565b5b600061342485828601612977565b9250506020613435858286016133ea565b9150509250929050565b6000806040838503121561345657613455612924565b5b600061346485828601612977565b925050602061347585828601612977565b9150509250929050565b600080600080600060a0868803121561349b5761349a612924565b5b60006134a988828901612977565b95505060206134ba88828901612977565b94505060406134cb888289016129ad565b93505060606134dc888289016129ad565b925050608086013567ffffffffffffffff8111156134fd576134fc612929565b5b61350988828901612d9e565b9150509295509295909350565b60008060006060848603121561352f5761352e612924565b5b600061353d86828701612977565b935050602061354e868287016129ad565b925050604061355f868287016129ad565b9150509250925092565b7f455243313135353a2061646472657373207a65726f206973206e6f742061207660008201527f616c6964206f776e657200000000000000000000000000000000000000000000602082015250565b60006135c5602a83612b1f565b91506135d082613569565b604082019050919050565b600060208201905081810360008301526135f4816135b8565b9050919050565b7f4e487b7100000000000000000000000000000000000000000000000000000000600052602260045260246000fd5b6000600282049050600182168061364257607f821691505b60208210811415613656576136556135fb565b5b50919050565b7f47616d652061646472657373206e6f74207365742e0000000000000000000000600082015250565b6000613692601583612b1f565b915061369d8261365c565b602082019050919050565b600060208201905081810360008301526136c181613685565b9050919050565b7f4f6e6c792067616d6520636f6e74726163742063616e206d696e742e00000000600082015250565b60006136fe601c83612b1f565b9150613709826136c8565b602082019050919050565b6000602082019050818103600083015261372d816136f1565b9050919050565b7f455243313135353a2063616c6c6572206973206e6f7420746f6b656e206f776e60008201527f6572206f7220617070726f766564000000000000000000000000000000000000602082015250565b6000613790602e83612b1f565b915061379b82613734565b604082019050919050565b600060208201905081810360008301526137bf81613783565b9050919050565b7f455243313135353a206163636f756e747320616e6420696473206c656e67746860008201527f206d69736d617463680000000000000000000000000000000000000000000000602082015250565b6000613822602983612b1f565b915061382d826137c6565b604082019050919050565b6000602082019050818103600083015261385181613815565b9050919050565b7f4e487b7100000000000000000000000000000000000000000000000000000000600052603260045260246000fd5b7f4e487b7100000000000000000000000000000000000000000000000000000000600052601160045260246000fd5b60006138c18261298c565b91507fffffffffffffffffffffffffffffffffffffffffffffffffffffffffffffffff8214156138f4576138f3613887565b5b600182019050919050565b7f4f6e6c792067616d6520636f6e74726163742063616e206275726e2e00000000600082015250565b6000613935601c83612b1f565b9150613940826138ff565b602082019050919050565b6000602082019050818103600083015261396481613928565b9050919050565b7f47616d65206164647265737320697320616c7265616479207365742e00000000600082015250565b60006139a1601c83612b1f565b91506139ac8261396b565b602082019050919050565b600060208201905081810360008301526139d081613994565b9050919050565b7f4f776e61626c653a206e6577206f776e657220697320746865207a65726f206160008201527f6464726573730000000000000000000000000000000000000000000000000000602082015250565b6000613a33602683612b1f565b9150613a3e826139d7565b604082019050919050565b60006020820190508181036000830152613a6281613a26565b9050919050565b7f455243313135353a206d696e7420746f20746865207a65726f2061646472657360008201527f7300000000000000000000000000000000000000000000000000000000000000602082015250565b6000613ac5602183612b1f565b9150613ad082613a69565b604082019050919050565b60006020820190508181036000830152613af481613ab8565b9050919050565b7f455243313135353a2069647320616e6420616d6f756e7473206c656e6774682060008201527f6d69736d61746368000000000000000000000000000000000000000000000000602082015250565b6000613b57602883612b1f565b9150613b6282613afb565b604082019050919050565b60006020820190508181036000830152613b8681613b4a565b9050919050565b6000613b988261298c565b9150613ba38361298c565b9250827fffffffffffffffffffffffffffffffffffffffffffffffffffffffffffffffff03821115613bd857613bd7613887565b5b828201905092915050565b60006040820190508181036000830152613bfd81856130f1565b90508181036020830152613c1181846130f1565b90509392505050565b7f455243313135353a207472616e7366657220746f20746865207a65726f20616460008201527f6472657373000000000000000000000000000000000000000000000000000000602082015250565b6000613c76602583612b1f565b9150613c8182613c1a565b604082019050919050565b60006020820190508181036000830152613ca581613c69565b9050919050565b7f455243313135353a20696e73756666696369656e742062616c616e636520666f60008201527f72207472616e7366657200000000000000000000000000000000000000000000602082015250565b6000613d08602a83612b1f565b9150613d1382613cac565b604082019050919050565b60006020820190508181036000830152613d3781613cfb565b9050919050565b7f4f776e61626c653a2063616c6c6572206973206e6f7420746865206f776e6572600082015250565b6000613d74602083612b1f565b9150613d7f82613d3e565b602082019050919050565b60006020820190508181036000830152613da381613d67565b9050919050565b6000604082019050613dbf6000830185612a02565b613dcc6020830184612a02565b9392505050565b7f455243313135353a2073657474696e6720617070726f76616c2073746174757360008201527f20666f722073656c660000000000000000000000000000000000000000000000602082015250565b6000613e2f602983612b1f565b9150613e3a82613dd3565b604082019050919050565b60006020820190508181036000830152613e5e81613e22565b9050919050565b600081519050919050565b600082825260208201905092915050565b6000613e8c82613e65565b613e968185613e70565b9350613ea6818560208601612b30565b613eaf81612b63565b840191505092915050565b600060a082019050613ecf60008301886133a9565b613edc60208301876133a9565b8181036040830152613eee81866130f1565b90508181036060830152613f0281856130f1565b90508181036080830152613f168184613e81565b90509695505050505050565b600081519050613f3181612a58565b92915050565b600060208284031215613f4d57613f4c612924565b5b6000613f5b84828501613f22565b91505092915050565b60008160e01c9050919050565b600060033d1115613f905760046000803e613f8d600051613f64565b90505b90565b600060443d1015613fa357614026565b613fab61291a565b60043d036004823e80513d602482011167ffffffffffffffff82111715613fd3575050614026565b808201805167ffffffffffffffff811115613ff15750505050614026565b80602083010160043d03850181111561400e575050505050614026565b61401d82602001850186612c03565b82955050505050505b90565b7f455243313135353a207472616e7366657220746f206e6f6e2d4552433131353560008201527f526563656976657220696d706c656d656e746572000000000000000000000000602082015250565b6000614085603483612b1f565b915061409082614029565b604082019050919050565b600060208201905081810360008301526140b481614078565b9050919050565b7f455243313135353a204552433131353552656365697665722072656a6563746560008201527f6420746f6b656e73000000000000000000000000000000000000000000000000602082015250565b6000614117602883612b1f565b9150614122826140bb565b604082019050919050565b600060208201905081810360008301526141468161410a565b9050919050565b7f455243313135353a206275726e2066726f6d20746865207a65726f206164647260008201527f6573730000000000000000000000000000000000000000000000000000000000602082015250565b60006141a9602383612b1f565b91506141b48261414d565b604082019050919050565b600060208201905081810360008301526141d88161419c565b9050919050565b7f455243313135353a206275726e20616d6f756e7420657863656564732062616c60008201527f616e636500000000000000000000000000000000000000000000000000000000602082015250565b600061423b602483612b1f565b9150614246826141df565b604082019050919050565b6000602082019050818103600083015261426a8161422e565b9050919050565b600060a08201905061428660008301886133a9565b61429360208301876133a9565b6142a06040830186612a02565b6142ad6060830185612a02565b81810360808301526142bf8184613e81565b90509695505050505050565b7f455243313135353a206275726e20616d6f756e74206578636565647320746f7460008201527f616c537570706c79000000000000000000000000000000000000000000000000602082015250565b6000614327602883612b1f565b9150614332826142cb565b604082019050919050565b600060208201905081810360008301526143568161431a565b905091905056fea26469706673582212203093703ed062343f0ac2fa24cc734035082621a734ac87cd1efca3e56ab607a164736f6c63430008090033",
			"opcodes": "PUSH1 0x80 PUSH1 0x40 MSTORE CALLVALUE DUP1 ISZERO PUSH3 0x11 JUMPI PUSH1 0x0 DUP1 REVERT JUMPDEST POP PUSH1 0x40 MLOAD DUP1 PUSH1 0x20 ADD PUSH1 0x40 MSTORE DUP1 PUSH1 0x0 DUP2 MSTORE POP PUSH3 0x33 DUP2 PUSH3 0x5A PUSH1 0x20 SHL PUSH1 0x20 SHR JUMP JUMPDEST POP PUSH3 0x54 PUSH3 0x48 PUSH3 0x76 PUSH1 0x20 SHL PUSH1 0x20 SHR JUMP JUMPDEST PUSH3 0x7E PUSH1 0x20 SHL PUSH1 0x20 SHR JUMP JUMPDEST PUSH3 0x259 JUMP JUMPDEST DUP1 PUSH1 0x2 SWAP1 DUP1 MLOAD SWAP1 PUSH1 0x20 ADD SWAP1 PUSH3 0x72 SWAP3 SWAP2 SWAP1 PUSH3 0x144 JUMP JUMPDEST POP POP JUMP JUMPDEST PUSH1 0x0 CALLER SWAP1 POP SWAP1 JUMP JUMPDEST PUSH1 0x0 PUSH1 0x4 PUSH1 0x0 SWAP1 SLOAD SWAP1 PUSH2 0x100 EXP SWAP1 DIV PUSH20 0xFFFFFFFFFFFFFFFFFFFFFFFFFFFFFFFFFFFFFFFF AND SWAP1 POP DUP2 PUSH1 0x4 PUSH1 0x0 PUSH2 0x100 EXP DUP2 SLOAD DUP2 PUSH20 0xFFFFFFFFFFFFFFFFFFFFFFFFFFFFFFFFFFFFFFFF MUL NOT AND SWAP1 DUP4 PUSH20 0xFFFFFFFFFFFFFFFFFFFFFFFFFFFFFFFFFFFFFFFF AND MUL OR SWAP1 SSTORE POP DUP2 PUSH20 0xFFFFFFFFFFFFFFFFFFFFFFFFFFFFFFFFFFFFFFFF AND DUP2 PUSH20 0xFFFFFFFFFFFFFFFFFFFFFFFFFFFFFFFFFFFFFFFF AND PUSH32 0x8BE0079C531659141344CD1FD0A4F28419497F9722A3DAAFE3B4186F6B6457E0 PUSH1 0x40 MLOAD PUSH1 0x40 MLOAD DUP1 SWAP2 SUB SWAP1 LOG3 POP POP JUMP JUMPDEST DUP3 DUP1 SLOAD PUSH3 0x152 SWAP1 PUSH3 0x223 JUMP JUMPDEST SWAP1 PUSH1 0x0 MSTORE PUSH1 0x20 PUSH1 0x0 KECCAK256 SWAP1 PUSH1 0x1F ADD PUSH1 0x20 SWAP1 DIV DUP2 ADD SWAP3 DUP3 PUSH3 0x176 JUMPI PUSH1 0x0 DUP6 SSTORE PUSH3 0x1C2 JUMP JUMPDEST DUP3 PUSH1 0x1F LT PUSH3 0x191 JUMPI DUP1 MLOAD PUSH1 0xFF NOT AND DUP4 DUP1 ADD OR DUP6 SSTORE PUSH3 0x1C2 JUMP JUMPDEST DUP3 DUP1 ADD PUSH1 0x1 ADD DUP6 SSTORE DUP3 ISZERO PUSH3 0x1C2 JUMPI SWAP2 DUP3 ADD JUMPDEST DUP3 DUP2 GT ISZERO PUSH3 0x1C1 JUMPI DUP3 MLOAD DUP3 SSTORE SWAP2 PUSH1 0x20 ADD SWAP2 SWAP1 PUSH1 0x1 ADD SWAP1 PUSH3 0x1A4 JUMP JUMPDEST JUMPDEST POP SWAP1 POP PUSH3 0x1D1 SWAP2 SWAP1 PUSH3 0x1D5 JUMP JUMPDEST POP SWAP1 JUMP JUMPDEST JUMPDEST DUP1 DUP3 GT ISZERO PUSH3 0x1F0 JUMPI PUSH1 0x0 DUP2 PUSH1 0x0 SWAP1 SSTORE POP PUSH1 0x1 ADD PUSH3 0x1D6 JUMP JUMPDEST POP SWAP1 JUMP JUMPDEST PUSH32 0x4E487B7100000000000000000000000000000000000000000000000000000000 PUSH1 0x0 MSTORE PUSH1 0x22 PUSH1 0x4 MSTORE PUSH1 0x24 PUSH1 0x0 REVERT JUMPDEST PUSH1 0x0 PUSH1 0x2 DUP3 DIV SWAP1 POP PUSH1 0x1 DUP3 AND DUP1 PUSH3 0x23C JUMPI PUSH1 0x7F DUP3 AND SWAP2 POP JUMPDEST PUSH1 0x20 DUP3 LT DUP2 EQ ISZERO PUSH3 0x253 JUMPI PUSH3 0x252 PUSH3 0x1F4 JUMP JUMPDEST JUMPDEST POP SWAP2 SWAP1 POP JUMP JUMPDEST PUSH2 0x4393 DUP1 PUSH3 0x269 PUSH1 0x0 CODECOPY PUSH1 0x0 RETURN INVALID PUSH1 0x80 PUSH1 0x40 MSTORE CALLVALUE DUP1 ISZERO PUSH2 0x10 JUMPI PUSH1 0x0 DUP1 REVERT JUMPDEST POP PUSH1 0x4 CALLDATASIZE LT PUSH2 0x12B JUMPI PUSH1 0x0 CALLDATALOAD PUSH1 0xE0 SHR DUP1 PUSH4 0x715018A6 GT PUSH2 0xAD JUMPI DUP1 PUSH4 0xBD85B039 GT PUSH2 0x71 JUMPI DUP1 PUSH4 0xBD85B039 EQ PUSH2 0x32A JUMPI DUP1 PUSH4 0xE985E9C5 EQ PUSH2 0x35A JUMPI DUP1 PUSH4 0xF242432A EQ PUSH2 0x38A JUMPI DUP1 PUSH4 0xF2FDE38B EQ PUSH2 0x3A6 JUMPI DUP1 PUSH4 0xF5298ACA EQ PUSH2 0x3C2 JUMPI PUSH2 0x12B JUMP JUMPDEST DUP1 PUSH4 0x715018A6 EQ PUSH2 0x2AC JUMPI DUP1 PUSH4 0x731133E9 EQ PUSH2 0x2B6 JUMPI DUP1 PUSH4 0x8DA5CB5B EQ PUSH2 0x2D2 JUMPI DUP1 PUSH4 0xA168D873 EQ PUSH2 0x2F0 JUMPI DUP1 PUSH4 0xA22CB465 EQ PUSH2 0x30E JUMPI PUSH2 0x12B JUMP JUMPDEST DUP1 PUSH4 0x4E1273F4 GT PUSH2 0xF4 JUMPI DUP1 PUSH4 0x4E1273F4 EQ PUSH2 0x1F8 JUMPI DUP1 PUSH4 0x4F558E79 EQ PUSH2 0x228 JUMPI DUP1 PUSH4 0x57F7789E EQ PUSH2 0x258 JUMPI DUP1 PUSH4 0x6B20C454 EQ PUSH2 0x274 JUMPI DUP1 PUSH4 0x711953EF EQ PUSH2 0x290 JUMPI PUSH2 0x12B JUMP JUMPDEST DUP1 PUSH3 0xFDD58E EQ PUSH2 0x130 JUMPI DUP1 PUSH4 0x1FFC9A7 EQ PUSH2 0x160 JUMPI DUP1 PUSH4 0xE89341C EQ PUSH2 0x190 JUMPI DUP1 PUSH4 0x1F7FDFFA EQ PUSH2 0x1C0 JUMPI DUP1 PUSH4 0x2EB2C2D6 EQ PUSH2 0x1DC JUMPI JUMPDEST PUSH1 0x0 DUP1 REVERT JUMPDEST PUSH2 0x14A PUSH1 0x4 DUP1 CALLDATASIZE SUB DUP2 ADD SWAP1 PUSH2 0x145 SWAP2 SWAP1 PUSH2 0x29C2 JUMP JUMPDEST PUSH2 0x3DE JUMP JUMPDEST PUSH1 0x40 MLOAD PUSH2 0x157 SWAP2 SWAP1 PUSH2 0x2A11 JUMP JUMPDEST PUSH1 0x40 MLOAD DUP1 SWAP2 SUB SWAP1 RETURN JUMPDEST PUSH2 0x17A PUSH1 0x4 DUP1 CALLDATASIZE SUB DUP2 ADD SWAP1 PUSH2 0x175 SWAP2 SWAP1 PUSH2 0x2A84 JUMP JUMPDEST PUSH2 0x4A7 JUMP JUMPDEST PUSH1 0x40 MLOAD PUSH2 0x187 SWAP2 SWAP1 PUSH2 0x2ACC JUMP JUMPDEST PUSH1 0x40 MLOAD DUP1 SWAP2 SUB SWAP1 RETURN JUMPDEST PUSH2 0x1AA PUSH1 0x4 DUP1 CALLDATASIZE SUB DUP2 ADD SWAP1 PUSH2 0x1A5 SWAP2 SWAP1 PUSH2 0x2AE7 JUMP JUMPDEST PUSH2 0x589 JUMP JUMPDEST PUSH1 0x40 MLOAD PUSH2 0x1B7 SWAP2 SWAP1 PUSH2 0x2BAD JUMP JUMPDEST PUSH1 0x40 MLOAD DUP1 SWAP2 SUB SWAP1 RETURN JUMPDEST PUSH2 0x1DA PUSH1 0x4 DUP1 CALLDATASIZE SUB DUP2 ADD SWAP1 PUSH2 0x1D5 SWAP2 SWAP1 PUSH2 0x2DCC JUMP JUMPDEST PUSH2 0x62E JUMP JUMPDEST STOP JUMPDEST PUSH2 0x1F6 PUSH1 0x4 DUP1 CALLDATASIZE SUB DUP2 ADD SWAP1 PUSH2 0x1F1 SWAP2 SWAP1 PUSH2 0x2E87 JUMP JUMPDEST PUSH2 0x762 JUMP JUMPDEST STOP JUMPDEST PUSH2 0x212 PUSH1 0x4 DUP1 CALLDATASIZE SUB DUP2 ADD SWAP1 PUSH2 0x20D SWAP2 SWAP1 PUSH2 0x3019 JUMP JUMPDEST PUSH2 0x803 JUMP JUMPDEST PUSH1 0x40 MLOAD PUSH2 0x21F SWAP2 SWAP1 PUSH2 0x314F JUMP JUMPDEST PUSH1 0x40 MLOAD DUP1 SWAP2 SUB SWAP1 RETURN JUMPDEST PUSH2 0x242 PUSH1 0x4 DUP1 CALLDATASIZE SUB DUP2 ADD SWAP1 PUSH2 0x23D SWAP2 SWAP1 PUSH2 0x2AE7 JUMP JUMPDEST PUSH2 0x91C JUMP JUMPDEST PUSH1 0x40 MLOAD PUSH2 0x24F SWAP2 SWAP1 PUSH2 0x2ACC JUMP JUMPDEST PUSH1 0x40 MLOAD DUP1 SWAP2 SUB SWAP1 RETURN JUMPDEST PUSH2 0x272 PUSH1 0x4 DUP1 CALLDATASIZE SUB DUP2 ADD SWAP1 PUSH2 0x26D SWAP2 SWAP1 PUSH2 0x3212 JUMP JUMPDEST PUSH2 0x930 JUMP JUMPDEST STOP JUMPDEST PUSH2 0x28E PUSH1 0x4 DUP1 CALLDATASIZE SUB DUP2 ADD SWAP1 PUSH2 0x289 SWAP2 SWAP1 PUSH2 0x326E JUMP JUMPDEST PUSH2 0x964 JUMP JUMPDEST STOP JUMPDEST PUSH2 0x2AA PUSH1 0x4 DUP1 CALLDATASIZE SUB DUP2 ADD SWAP1 PUSH2 0x2A5 SWAP2 SWAP1 PUSH2 0x32F9 JUMP JUMPDEST PUSH2 0xA04 JUMP JUMPDEST STOP JUMPDEST PUSH2 0x2B4 PUSH2 0xAE1 JUMP JUMPDEST STOP JUMPDEST PUSH2 0x2D0 PUSH1 0x4 DUP1 CALLDATASIZE SUB DUP2 ADD SWAP1 PUSH2 0x2CB SWAP2 SWAP1 PUSH2 0x3326 JUMP JUMPDEST PUSH2 0xAF5 JUMP JUMPDEST STOP JUMPDEST PUSH2 0x2DA PUSH2 0xC29 JUMP JUMPDEST PUSH1 0x40 MLOAD PUSH2 0x2E7 SWAP2 SWAP1 PUSH2 0x33B8 JUMP JUMPDEST PUSH1 0x40 MLOAD DUP1 SWAP2 SUB SWAP1 RETURN JUMPDEST PUSH2 0x2F8 PUSH2 0xC53 JUMP JUMPDEST PUSH1 0x40 MLOAD PUSH2 0x305 SWAP2 SWAP1 PUSH2 0x33B8 JUMP JUMPDEST PUSH1 0x40 MLOAD DUP1 SWAP2 SUB SWAP1 RETURN JUMPDEST PUSH2 0x328 PUSH1 0x4 DUP1 CALLDATASIZE SUB DUP2 ADD SWAP1 PUSH2 0x323 SWAP2 SWAP1 PUSH2 0x33FF JUMP JUMPDEST PUSH2 0xC79 JUMP JUMPDEST STOP JUMPDEST PUSH2 0x344 PUSH1 0x4 DUP1 CALLDATASIZE SUB DUP2 ADD SWAP1 PUSH2 0x33F SWAP2 SWAP1 PUSH2 0x2AE7 JUMP JUMPDEST PUSH2 0xC8F JUMP JUMPDEST PUSH1 0x40 MLOAD PUSH2 0x351 SWAP2 SWAP1 PUSH2 0x2A11 JUMP JUMPDEST PUSH1 0x40 MLOAD DUP1 SWAP2 SUB SWAP1 RETURN JUMPDEST PUSH2 0x374 PUSH1 0x4 DUP1 CALLDATASIZE SUB DUP2 ADD SWAP1 PUSH2 0x36F SWAP2 SWAP1 PUSH2 0x343F JUMP JUMPDEST PUSH2 0xCAC JUMP JUMPDEST PUSH1 0x40 MLOAD PUSH2 0x381 SWAP2 SWAP1 PUSH2 0x2ACC JUMP JUMPDEST PUSH1 0x40 MLOAD DUP1 SWAP2 SUB SWAP1 RETURN JUMPDEST PUSH2 0x3A4 PUSH1 0x4 DUP1 CALLDATASIZE SUB DUP2 ADD SWAP1 PUSH2 0x39F SWAP2 SWAP1 PUSH2 0x347F JUMP JUMPDEST PUSH2 0xD40 JUMP JUMPDEST STOP JUMPDEST PUSH2 0x3C0 PUSH1 0x4 DUP1 CALLDATASIZE SUB DUP2 ADD SWAP1 PUSH2 0x3BB SWAP2 SWAP1 PUSH2 0x32F9 JUMP JUMPDEST PUSH2 0xDE1 JUMP JUMPDEST STOP JUMPDEST PUSH2 0x3DC PUSH1 0x4 DUP1 CALLDATASIZE SUB DUP2 ADD SWAP1 PUSH2 0x3D7 SWAP2 SWAP1 PUSH2 0x3516 JUMP JUMPDEST PUSH2 0xE65 JUMP JUMPDEST STOP JUMPDEST PUSH1 0x0 DUP1 PUSH20 0xFFFFFFFFFFFFFFFFFFFFFFFFFFFFFFFFFFFFFFFF AND DUP4 PUSH20 0xFFFFFFFFFFFFFFFFFFFFFFFFFFFFFFFFFFFFFFFF AND EQ ISZERO PUSH2 0x44F JUMPI PUSH1 0x40 MLOAD PUSH32 0x8C379A000000000000000000000000000000000000000000000000000000000 DUP2 MSTORE PUSH1 0x4 ADD PUSH2 0x446 SWAP1 PUSH2 0x35DB JUMP JUMPDEST PUSH1 0x40 MLOAD DUP1 SWAP2 SUB SWAP1 REVERT JUMPDEST PUSH1 0x0 DUP1 DUP4 DUP2 MSTORE PUSH1 0x20 ADD SWAP1 DUP2 MSTORE PUSH1 0x20 ADD PUSH1 0x0 KECCAK256 PUSH1 0x0 DUP5 PUSH20 0xFFFFFFFFFFFFFFFFFFFFFFFFFFFFFFFFFFFFFFFF AND PUSH20 0xFFFFFFFFFFFFFFFFFFFFFFFFFFFFFFFFFFFFFFFF AND DUP2 MSTORE PUSH1 0x20 ADD SWAP1 DUP2 MSTORE PUSH1 0x20 ADD PUSH1 0x0 KECCAK256 SLOAD SWAP1 POP SWAP3 SWAP2 POP POP JUMP JUMPDEST PUSH1 0x0 PUSH32 0xD9B67A2600000000000000000000000000000000000000000000000000000000 PUSH28 0xFFFFFFFFFFFFFFFFFFFFFFFFFFFFFFFFFFFFFFFFFFFFFFFFFFFFFFFF NOT AND DUP3 PUSH28 0xFFFFFFFFFFFFFFFFFFFFFFFFFFFFFFFFFFFFFFFFFFFFFFFFFFFFFFFF NOT AND EQ DUP1 PUSH2 0x572 JUMPI POP PUSH32 0xE89341C00000000000000000000000000000000000000000000000000000000 PUSH28 0xFFFFFFFFFFFFFFFFFFFFFFFFFFFFFFFFFFFFFFFFFFFFFFFFFFFFFFFF NOT AND DUP3 PUSH28 0xFFFFFFFFFFFFFFFFFFFFFFFFFFFFFFFFFFFFFFFFFFFFFFFFFFFFFFFF NOT AND EQ JUMPDEST DUP1 PUSH2 0x582 JUMPI POP PUSH2 0x581 DUP3 PUSH2 0xF05 JUMP JUMPDEST JUMPDEST SWAP1 POP SWAP2 SWAP1 POP JUMP JUMPDEST PUSH1 0x60 PUSH1 0x6 PUSH1 0x0 DUP4 DUP2 MSTORE PUSH1 0x20 ADD SWAP1 DUP2 MSTORE PUSH1 0x20 ADD PUSH1 0x0 KECCAK256 DUP1 SLOAD PUSH2 0x5A9 SWAP1 PUSH2 0x362A JUMP JUMPDEST DUP1 PUSH1 0x1F ADD PUSH1 0x20 DUP1 SWAP2 DIV MUL PUSH1 0x20 ADD PUSH1 0x40 MLOAD SWAP1 DUP2 ADD PUSH1 0x40 MSTORE DUP1 SWAP3 SWAP2 SWAP1 DUP2 DUP2 MSTORE PUSH1 0x20 ADD DUP3 DUP1 SLOAD PUSH2 0x5D5 SWAP1 PUSH2 0x362A JUMP JUMPDEST DUP1 ISZERO PUSH2 0x622 JUMPI DUP1 PUSH1 0x1F LT PUSH2 0x5F7 JUMPI PUSH2 0x100 DUP1 DUP4 SLOAD DIV MUL DUP4 MSTORE SWAP2 PUSH1 0x20 ADD SWAP2 PUSH2 0x622 JUMP JUMPDEST DUP3 ADD SWAP2 SWAP1 PUSH1 0x0 MSTORE PUSH1 0x20 PUSH1 0x0 KECCAK256 SWAP1 JUMPDEST DUP2 SLOAD DUP2 MSTORE SWAP1 PUSH1 0x1 ADD SWAP1 PUSH1 0x20 ADD DUP1 DUP4 GT PUSH2 0x605 JUMPI DUP3 SWAP1 SUB PUSH1 0x1F AND DUP3 ADD SWAP2 JUMPDEST POP POP POP POP POP SWAP1 POP SWAP2 SWAP1 POP JUMP JUMPDEST PUSH1 0x0 PUSH20 0xFFFFFFFFFFFFFFFFFFFFFFFFFFFFFFFFFFFFFFFF AND PUSH1 0x5 PUSH1 0x0 SWAP1 SLOAD SWAP1 PUSH2 0x100 EXP SWAP1 DIV PUSH20 0xFFFFFFFFFFFFFFFFFFFFFFFFFFFFFFFFFFFFFFFF AND PUSH20 0xFFFFFFFFFFFFFFFFFFFFFFFFFFFFFFFFFFFFFFFF AND EQ ISZERO PUSH2 0x6C0 JUMPI PUSH1 0x40 MLOAD PUSH32 0x8C379A000000000000000000000000000000000000000000000000000000000 DUP2 MSTORE PUSH1 0x4 ADD PUSH2 0x6B7 SWAP1 PUSH2 0x36A8 JUMP JUMPDEST PUSH1 0x40 MLOAD DUP1 SWAP2 SUB SWAP1 REVERT JUMPDEST PUSH1 0x5 PUSH1 0x0 SWAP1 SLOAD SWAP1 PUSH2 0x100 EXP SWAP1 DIV PUSH20 0xFFFFFFFFFFFFFFFFFFFFFFFFFFFFFFFFFFFFFFFF AND PUSH20 0xFFFFFFFFFFFFFFFFFFFFFFFFFFFFFFFFFFFFFFFF AND CALLER PUSH20 0xFFFFFFFFFFFFFFFFFFFFFFFFFFFFFFFFFFFFFFFF AND EQ PUSH2 0x750 JUMPI PUSH1 0x40 MLOAD PUSH32 0x8C379A000000000000000000000000000000000000000000000000000000000 DUP2 MSTORE PUSH1 0x4 ADD PUSH2 0x747 SWAP1 PUSH2 0x3714 JUMP JUMPDEST PUSH1 0x40 MLOAD DUP1 SWAP2 SUB SWAP1 REVERT JUMPDEST PUSH2 0x75C DUP5 DUP5 DUP5 DUP5 PUSH2 0xF6F JUMP JUMPDEST POP POP POP POP JUMP JUMPDEST PUSH2 0x76A PUSH2 0x119C JUMP JUMPDEST PUSH20 0xFFFFFFFFFFFFFFFFFFFFFFFFFFFFFFFFFFFFFFFF AND DUP6 PUSH20 0xFFFFFFFFFFFFFFFFFFFFFFFFFFFFFFFFFFFFFFFF AND EQ DUP1 PUSH2 0x7B0 JUMPI POP PUSH2 0x7AF DUP6 PUSH2 0x7AA PUSH2 0x119C JUMP JUMPDEST PUSH2 0xCAC JUMP JUMPDEST JUMPDEST PUSH2 0x7EF JUMPI PUSH1 0x40 MLOAD PUSH32 0x8C379A000000000000000000000000000000000000000000000000000000000 DUP2 MSTORE PUSH1 0x4 ADD PUSH2 0x7E6 SWAP1 PUSH2 0x37A6 JUMP JUMPDEST PUSH1 0x40 MLOAD DUP1 SWAP2 SUB SWAP1 REVERT JUMPDEST PUSH2 0x7FC DUP6 DUP6 DUP6 DUP6 DUP6 PUSH2 0x11A4 JUMP JUMPDEST POP POP POP POP POP JUMP JUMPDEST PUSH1 0x60 DUP2 MLOAD DUP4 MLOAD EQ PUSH2 0x849 JUMPI PUSH1 0x40 MLOAD PUSH32 0x8C379A000000000000000000000000000000000000000000000000000000000 DUP2 MSTORE PUSH1 0x4 ADD PUSH2 0x840 SWAP1 PUSH2 0x3838 JUMP JUMPDEST PUSH1 0x40 MLOAD DUP1 SWAP2 SUB SWAP1 REVERT JUMPDEST PUSH1 0x0 DUP4 MLOAD PUSH8 0xFFFFFFFFFFFFFFFF DUP2 GT ISZERO PUSH2 0x866 JUMPI PUSH2 0x865 PUSH2 0x2BD4 JUMP JUMPDEST JUMPDEST PUSH1 0x40 MLOAD SWAP1 DUP1 DUP3 MSTORE DUP1 PUSH1 0x20 MUL PUSH1 0x20 ADD DUP3 ADD PUSH1 0x40 MSTORE DUP1 ISZERO PUSH2 0x894 JUMPI DUP2 PUSH1 0x20 ADD PUSH1 0x20 DUP3 MUL DUP1 CALLDATASIZE DUP4 CALLDATACOPY DUP1 DUP3 ADD SWAP2 POP POP SWAP1 POP JUMPDEST POP SWAP1 POP PUSH1 0x0 JUMPDEST DUP5 MLOAD DUP2 LT ISZERO PUSH2 0x911 JUMPI PUSH2 0x8E1 DUP6 DUP3 DUP2 MLOAD DUP2 LT PUSH2 0x8B9 JUMPI PUSH2 0x8B8 PUSH2 0x3858 JUMP JUMPDEST JUMPDEST PUSH1 0x20 MUL PUSH1 0x20 ADD ADD MLOAD DUP6 DUP4 DUP2 MLOAD DUP2 LT PUSH2 0x8D4 JUMPI PUSH2 0x8D3 PUSH2 0x3858 JUMP JUMPDEST JUMPDEST PUSH1 0x20 MUL PUSH1 0x20 ADD ADD MLOAD PUSH2 0x3DE JUMP JUMPDEST DUP3 DUP3 DUP2 MLOAD DUP2 LT PUSH2 0x8F4 JUMPI PUSH2 0x8F3 PUSH2 0x3858 JUMP JUMPDEST JUMPDEST PUSH1 0x20 MUL PUSH1 0x20 ADD ADD DUP2 DUP2 MSTORE POP POP DUP1 PUSH2 0x90A SWAP1 PUSH2 0x38B6 JUMP JUMPDEST SWAP1 POP PUSH2 0x89A JUMP JUMPDEST POP DUP1 SWAP2 POP POP SWAP3 SWAP2 POP POP JUMP JUMPDEST PUSH1 0x0 DUP1 PUSH2 0x928 DUP4 PUSH2 0xC8F JUMP JUMPDEST GT SWAP1 POP SWAP2 SWAP1 POP JUMP JUMPDEST PUSH2 0x938 PUSH2 0x14C6 JUMP JUMPDEST DUP1 PUSH1 0x6 PUSH1 0x0 DUP5 DUP2 MSTORE PUSH1 0x20 ADD SWAP1 DUP2 MSTORE PUSH1 0x20 ADD PUSH1 0x0 KECCAK256 SWAP1 DUP1 MLOAD SWAP1 PUSH1 0x20 ADD SWAP1 PUSH2 0x95F SWAP3 SWAP2 SWAP1 PUSH2 0x2877 JUMP JUMPDEST POP POP POP JUMP JUMPDEST PUSH1 0x5 PUSH1 0x0 SWAP1 SLOAD SWAP1 PUSH2 0x100 EXP SWAP1 DIV PUSH20 0xFFFFFFFFFFFFFFFFFFFFFFFFFFFFFFFFFFFFFFFF AND PUSH20 0xFFFFFFFFFFFFFFFFFFFFFFFFFFFFFFFFFFFFFFFF AND CALLER PUSH20 0xFFFFFFFFFFFFFFFFFFFFFFFFFFFFFFFFFFFFFFFF AND EQ PUSH2 0x9F4 JUMPI PUSH1 0x40 MLOAD PUSH32 0x8C379A000000000000000000000000000000000000000000000000000000000 DUP2 MSTORE PUSH1 0x4 ADD PUSH2 0x9EB SWAP1 PUSH2 0x394B JUMP JUMPDEST PUSH1 0x40 MLOAD DUP1 SWAP2 SUB SWAP1 REVERT JUMPDEST PUSH2 0x9FF DUP4 DUP4 DUP4 PUSH2 0x1544 JUMP JUMPDEST POP POP POP JUMP JUMPDEST PUSH2 0xA0C PUSH2 0x14C6 JUMP JUMPDEST PUSH1 0x0 PUSH20 0xFFFFFFFFFFFFFFFFFFFFFFFFFFFFFFFFFFFFFFFF AND PUSH1 0x5 PUSH1 0x0 SWAP1 SLOAD SWAP1 PUSH2 0x100 EXP SWAP1 DIV PUSH20 0xFFFFFFFFFFFFFFFFFFFFFFFFFFFFFFFFFFFFFFFF AND PUSH20 0xFFFFFFFFFFFFFFFFFFFFFFFFFFFFFFFFFFFFFFFF AND EQ PUSH2 0xA9D JUMPI PUSH1 0x40 MLOAD PUSH32 0x8C379A000000000000000000000000000000000000000000000000000000000 DUP2 MSTORE PUSH1 0x4 ADD PUSH2 0xA94 SWAP1 PUSH2 0x39B7 JUMP JUMPDEST PUSH1 0x40 MLOAD DUP1 SWAP2 SUB SWAP1 REVERT JUMPDEST DUP1 PUSH1 0x5 PUSH1 0x0 PUSH2 0x100 EXP DUP2 SLOAD DUP2 PUSH20 0xFFFFFFFFFFFFFFFFFFFFFFFFFFFFFFFFFFFFFFFF MUL NOT AND SWAP1 DUP4 PUSH20 0xFFFFFFFFFFFFFFFFFFFFFFFFFFFFFFFFFFFFFFFF AND MUL OR SWAP1 SSTORE POP POP JUMP JUMPDEST PUSH2 0xAE9 PUSH2 0x14C6 JUMP JUMPDEST PUSH2 0xAF3 PUSH1 0x0 PUSH2 0x15E1 JUMP JUMPDEST JUMP JUMPDEST PUSH1 0x0 PUSH20 0xFFFFFFFFFFFFFFFFFFFFFFFFFFFFFFFFFFFFFFFF AND PUSH1 0x5 PUSH1 0x0 SWAP1 SLOAD SWAP1 PUSH2 0x100 EXP SWAP1 DIV PUSH20 0xFFFFFFFFFFFFFFFFFFFFFFFFFFFFFFFFFFFFFFFF AND PUSH20 0xFFFFFFFFFFFFFFFFFFFFFFFFFFFFFFFFFFFFFFFF AND EQ ISZERO PUSH2 0xB87 JUMPI PUSH1 0x40 MLOAD PUSH32 0x8C379A000000000000000000000000000000000000000000000000000000000 DUP2 MSTORE PUSH1 0x4 ADD PUSH2 0xB7E SWAP1 PUSH2 0x36A8 JUMP JUMPDEST PUSH1 0x40 MLOAD DUP1 SWAP2 SUB SWAP1 REVERT JUMPDEST PUSH1 0x5 PUSH1 0x0 SWAP1 SLOAD SWAP1 PUSH2 0x100 EXP SWAP1 DIV PUSH20 0xFFFFFFFFFFFFFFFFFFFFFFFFFFFFFFFFFFFFFFFF AND PUSH20 0xFFFFFFFFFFFFFFFFFFFFFFFFFFFFFFFFFFFFFFFF AND CALLER PUSH20 0xFFFFFFFFFFFFFFFFFFFFFFFFFFFFFFFFFFFFFFFF AND EQ PUSH2 0xC17 JUMPI PUSH1 0x40 MLOAD PUSH32 0x8C379A000000000000000000000000000000000000000000000000000000000 DUP2 MSTORE PUSH1 0x4 ADD PUSH2 0xC0E SWAP1 PUSH2 0x3714 JUMP JUMPDEST PUSH1 0x40 MLOAD DUP1 SWAP2 SUB SWAP1 REVERT JUMPDEST PUSH2 0xC23 DUP5 DUP5 DUP5 DUP5 PUSH2 0x16A7 JUMP JUMPDEST POP POP POP POP JUMP JUMPDEST PUSH1 0x0 PUSH1 0x4 PUSH1 0x0 SWAP1 SLOAD SWAP1 PUSH2 0x100 EXP SWAP1 DIV PUSH20 0xFFFFFFFFFFFFFFFFFFFFFFFFFFFFFFFFFFFFFFFF AND SWAP1 POP SWAP1 JUMP JUMPDEST PUSH1 0x5 PUSH1 0x0 SWAP1 SLOAD SWAP1 PUSH2 0x100 EXP SWAP1 DIV PUSH20 0xFFFFFFFFFFFFFFFFFFFFFFFFFFFFFFFFFFFFFFFF AND DUP2 JUMP JUMPDEST PUSH2 0xC8B PUSH2 0xC84 PUSH2 0x119C JUMP JUMPDEST DUP4 DUP4 PUSH2 0x1858 JUMP JUMPDEST POP POP JUMP JUMPDEST PUSH1 0x0 PUSH1 0x3 PUSH1 0x0 DUP4 DUP2 MSTORE PUSH1 0x20 ADD SWAP1 DUP2 MSTORE PUSH1 0x20 ADD PUSH1 0x0 KECCAK256 SLOAD SWAP1 POP SWAP2 SWAP1 POP JUMP JUMPDEST PUSH1 0x0 PUSH1 0x1 PUSH1 0x0 DUP5 PUSH20 0xFFFFFFFFFFFFFFFFFFFFFFFFFFFFFFFFFFFFFFFF AND PUSH20 0xFFFFFFFFFFFFFFFFFFFFFFFFFFFFFFFFFFFFFFFF AND DUP2 MSTORE PUSH1 0x20 ADD SWAP1 DUP2 MSTORE PUSH1 0x20 ADD PUSH1 0x0 KECCAK256 PUSH1 0x0 DUP4 PUSH20 0xFFFFFFFFFFFFFFFFFFFFFFFFFFFFFFFFFFFFFFFF AND PUSH20 0xFFFFFFFFFFFFFFFFFFFFFFFFFFFFFFFFFFFFFFFF AND DUP2 MSTORE PUSH1 0x20 ADD SWAP1 DUP2 MSTORE PUSH1 0x20 ADD PUSH1 0x0 KECCAK256 PUSH1 0x0 SWAP1 SLOAD SWAP1 PUSH2 0x100 EXP SWAP1 DIV PUSH1 0xFF AND SWAP1 POP SWAP3 SWAP2 POP POP JUMP JUMPDEST PUSH2 0xD48 PUSH2 0x119C JUMP JUMPDEST PUSH20 0xFFFFFFFFFFFFFFFFFFFFFFFFFFFFFFFFFFFFFFFF AND DUP6 PUSH20 0xFFFFFFFFFFFFFFFFFFFFFFFFFFFFFFFFFFFFFFFF AND EQ DUP1 PUSH2 0xD8E JUMPI POP PUSH2 0xD8D DUP6 PUSH2 0xD88 PUSH2 0x119C JUMP JUMPDEST PUSH2 0xCAC JUMP JUMPDEST JUMPDEST PUSH2 0xDCD JUMPI PUSH1 0x40 MLOAD PUSH32 0x8C379A000000000000000000000000000000000000000000000000000000000 DUP2 MSTORE PUSH1 0x4 ADD PUSH2 0xDC4 SWAP1 PUSH2 0x37A6 JUMP JUMPDEST PUSH1 0x40 MLOAD DUP1 SWAP2 SUB SWAP1 REVERT JUMPDEST PUSH2 0xDDA DUP6 DUP6 DUP6 DUP6 DUP6 PUSH2 0x19C5 JUMP JUMPDEST POP POP POP POP POP JUMP JUMPDEST PUSH2 0xDE9 PUSH2 0x14C6 JUMP JUMPDEST PUSH1 0x0 PUSH20 0xFFFFFFFFFFFFFFFFFFFFFFFFFFFFFFFFFFFFFFFF AND DUP2 PUSH20 0xFFFFFFFFFFFFFFFFFFFFFFFFFFFFFFFFFFFFFFFF AND EQ ISZERO PUSH2 0xE59 JUMPI PUSH1 0x40 MLOAD PUSH32 0x8C379A000000000000000000000000000000000000000000000000000000000 DUP2 MSTORE PUSH1 0x4 ADD PUSH2 0xE50 SWAP1 PUSH2 0x3A49 JUMP JUMPDEST PUSH1 0x40 MLOAD DUP1 SWAP2 SUB SWAP1 REVERT JUMPDEST PUSH2 0xE62 DUP2 PUSH2 0x15E1 JUMP JUMPDEST POP JUMP JUMPDEST PUSH1 0x5 PUSH1 0x0 SWAP1 SLOAD SWAP1 PUSH2 0x100 EXP SWAP1 DIV PUSH20 0xFFFFFFFFFFFFFFFFFFFFFFFFFFFFFFFFFFFFFFFF AND PUSH20 0xFFFFFFFFFFFFFFFFFFFFFFFFFFFFFFFFFFFFFFFF AND CALLER PUSH20 0xFFFFFFFFFFFFFFFFFFFFFFFFFFFFFFFFFFFFFFFF AND EQ PUSH2 0xEF5 JUMPI PUSH1 0x40 MLOAD PUSH32 0x8C379A000000000000000000000000000000000000000000000000000000000 DUP2 MSTORE PUSH1 0x4 ADD PUSH2 0xEEC SWAP1 PUSH2 0x394B JUMP JUMPDEST PUSH1 0x40 MLOAD DUP1 SWAP2 SUB SWAP1 REVERT JUMPDEST PUSH2 0xF00 DUP4 DUP4 DUP4 PUSH2 0x1C61 JUMP JUMPDEST POP POP POP JUMP JUMPDEST PUSH1 0x0 PUSH32 0x1FFC9A700000000000000000000000000000000000000000000000000000000 PUSH28 0xFFFFFFFFFFFFFFFFFFFFFFFFFFFFFFFFFFFFFFFFFFFFFFFFFFFFFFFF NOT AND DUP3 PUSH28 0xFFFFFFFFFFFFFFFFFFFFFFFFFFFFFFFFFFFFFFFFFFFFFFFFFFFFFFFF NOT AND EQ SWAP1 POP SWAP2 SWAP1 POP JUMP JUMPDEST PUSH1 0x0 PUSH20 0xFFFFFFFFFFFFFFFFFFFFFFFFFFFFFFFFFFFFFFFF AND DUP5 PUSH20 0xFFFFFFFFFFFFFFFFFFFFFFFFFFFFFFFFFFFFFFFF AND EQ ISZERO PUSH2 0xFDF JUMPI PUSH1 0x40 MLOAD PUSH32 0x8C379A000000000000000000000000000000000000000000000000000000000 DUP2 MSTORE PUSH1 0x4 ADD PUSH2 0xFD6 SWAP1 PUSH2 0x3ADB JUMP JUMPDEST PUSH1 0x40 MLOAD DUP1 SWAP2 SUB SWAP1 REVERT JUMPDEST DUP2 MLOAD DUP4 MLOAD EQ PUSH2 0x1023 JUMPI PUSH1 0x40 MLOAD PUSH32 0x8C379A000000000000000000000000000000000000000000000000000000000 DUP2 MSTORE PUSH1 0x4 ADD PUSH2 0x101A SWAP1 PUSH2 0x3B6D JUMP JUMPDEST PUSH1 0x40 MLOAD DUP1 SWAP2 SUB SWAP1 REVERT JUMPDEST PUSH1 0x0 PUSH2 0x102D PUSH2 0x119C JUMP JUMPDEST SWAP1 POP PUSH2 0x103E DUP2 PUSH1 0x0 DUP8 DUP8 DUP8 DUP8 PUSH2 0x1CFE JUMP JUMPDEST PUSH1 0x0 JUMPDEST DUP5 MLOAD DUP2 LT ISZERO PUSH2 0x10F7 JUMPI DUP4 DUP2 DUP2 MLOAD DUP2 LT PUSH2 0x105D JUMPI PUSH2 0x105C PUSH2 0x3858 JUMP JUMPDEST JUMPDEST PUSH1 0x20 MUL PUSH1 0x20 ADD ADD MLOAD PUSH1 0x0 DUP1 DUP8 DUP5 DUP2 MLOAD DUP2 LT PUSH2 0x107B JUMPI PUSH2 0x107A PUSH2 0x3858 JUMP JUMPDEST JUMPDEST PUSH1 0x20 MUL PUSH1 0x20 ADD ADD MLOAD DUP2 MSTORE PUSH1 0x20 ADD SWAP1 DUP2 MSTORE PUSH1 0x20 ADD PUSH1 0x0 KECCAK256 PUSH1 0x0 DUP9 PUSH20 0xFFFFFFFFFFFFFFFFFFFFFFFFFFFFFFFFFFFFFFFF AND PUSH20 0xFFFFFFFFFFFFFFFFFFFFFFFFFFFFFFFFFFFFFFFF AND DUP2 MSTORE PUSH1 0x20 ADD SWAP1 DUP2 MSTORE PUSH1 0x20 ADD PUSH1 0x0 KECCAK256 PUSH1 0x0 DUP3 DUP3 SLOAD PUSH2 0x10DD SWAP2 SWAP1 PUSH2 0x3B8D JUMP JUMPDEST SWAP3 POP POP DUP2 SWAP1 SSTORE POP DUP1 DUP1 PUSH2 0x10EF SWAP1 PUSH2 0x38B6 JUMP JUMPDEST SWAP2 POP POP PUSH2 0x1041 JUMP JUMPDEST POP DUP5 PUSH20 0xFFFFFFFFFFFFFFFFFFFFFFFFFFFFFFFFFFFFFFFF AND PUSH1 0x0 PUSH20 0xFFFFFFFFFFFFFFFFFFFFFFFFFFFFFFFFFFFFFFFF AND DUP3 PUSH20 0xFFFFFFFFFFFFFFFFFFFFFFFFFFFFFFFFFFFFFFFF AND PUSH32 0x4A39DC06D4C0DBC64B70AF90FD698A233A518AA5D07E595D983B8C0526C8F7FB DUP8 DUP8 PUSH1 0x40 MLOAD PUSH2 0x116F SWAP3 SWAP2 SWAP1 PUSH2 0x3BE3 JUMP JUMPDEST PUSH1 0x40 MLOAD DUP1 SWAP2 SUB SWAP1 LOG4 PUSH2 0x1186 DUP2 PUSH1 0x0 DUP8 DUP8 DUP8 DUP8 PUSH2 0x1D14 JUMP JUMPDEST PUSH2 0x1195 DUP2 PUSH1 0x0 DUP8 DUP8 DUP8 DUP8 PUSH2 0x1D1C JUMP JUMPDEST POP POP POP POP POP JUMP JUMPDEST PUSH1 0x0 CALLER SWAP1 POP SWAP1 JUMP JUMPDEST DUP2 MLOAD DUP4 MLOAD EQ PUSH2 0x11E8 JUMPI PUSH1 0x40 MLOAD PUSH32 0x8C379A000000000000000000000000000000000000000000000000000000000 DUP2 MSTORE PUSH1 0x4 ADD PUSH2 0x11DF SWAP1 PUSH2 0x3B6D JUMP JUMPDEST PUSH1 0x40 MLOAD DUP1 SWAP2 SUB SWAP1 REVERT JUMPDEST PUSH1 0x0 PUSH20 0xFFFFFFFFFFFFFFFFFFFFFFFFFFFFFFFFFFFFFFFF AND DUP5 PUSH20 0xFFFFFFFFFFFFFFFFFFFFFFFFFFFFFFFFFFFFFFFF AND EQ ISZERO PUSH2 0x1258 JUMPI PUSH1 0x40 MLOAD PUSH32 0x8C379A000000000000000000000000000000000000000000000000000000000 DUP2 MSTORE PUSH1 0x4 ADD PUSH2 0x124F SWAP1 PUSH2 0x3C8C JUMP JUMPDEST PUSH1 0x40 MLOAD DUP1 SWAP2 SUB SWAP1 REVERT JUMPDEST PUSH1 0x0 PUSH2 0x1262 PUSH2 0x119C JUMP JUMPDEST SWAP1 POP PUSH2 0x1272 DUP2 DUP8 DUP8 DUP8 DUP8 DUP8 PUSH2 0x1CFE JUMP JUMPDEST PUSH1 0x0 JUMPDEST DUP5 MLOAD DUP2 LT ISZERO PUSH2 0x1423 JUMPI PUSH1 0x0 DUP6 DUP3 DUP2 MLOAD DUP2 LT PUSH2 0x1293 JUMPI PUSH2 0x1292 PUSH2 0x3858 JUMP JUMPDEST JUMPDEST PUSH1 0x20 MUL PUSH1 0x20 ADD ADD MLOAD SWAP1 POP PUSH1 0x0 DUP6 DUP4 DUP2 MLOAD DUP2 LT PUSH2 0x12B2 JUMPI PUSH2 0x12B1 PUSH2 0x3858 JUMP JUMPDEST JUMPDEST PUSH1 0x20 MUL PUSH1 0x20 ADD ADD MLOAD SWAP1 POP PUSH1 0x0 DUP1 PUSH1 0x0 DUP5 DUP2 MSTORE PUSH1 0x20 ADD SWAP1 DUP2 MSTORE PUSH1 0x20 ADD PUSH1 0x0 KECCAK256 PUSH1 0x0 DUP12 PUSH20 0xFFFFFFFFFFFFFFFFFFFFFFFFFFFFFFFFFFFFFFFF AND PUSH20 0xFFFFFFFFFFFFFFFFFFFFFFFFFFFFFFFFFFFFFFFF AND DUP2 MSTORE PUSH1 0x20 ADD SWAP1 DUP2 MSTORE PUSH1 0x20 ADD PUSH1 0x0 KECCAK256 SLOAD SWAP1 POP DUP2 DUP2 LT ISZERO PUSH2 0x1353 JUMPI PUSH1 0x40 MLOAD PUSH32 0x8C379A000000000000000000000000000000000000000000000000000000000 DUP2 MSTORE PUSH1 0x4 ADD PUSH2 0x134A SWAP1 PUSH2 0x3D1E JUMP JUMPDEST PUSH1 0x40 MLOAD DUP1 SWAP2 SUB SWAP1 REVERT JUMPDEST DUP2 DUP2 SUB PUSH1 0x0 DUP1 DUP6 DUP2 MSTORE PUSH1 0x20 ADD SWAP1 DUP2 MSTORE PUSH1 0x20 ADD PUSH1 0x0 KECCAK256 PUSH1 0x0 DUP13 PUSH20 0xFFFFFFFFFFFFFFFFFFFFFFFFFFFFFFFFFFFFFFFF AND PUSH20 0xFFFFFFFFFFFFFFFFFFFFFFFFFFFFFFFFFFFFFFFF AND DUP2 MSTORE PUSH1 0x20 ADD SWAP1 DUP2 MSTORE PUSH1 0x20 ADD PUSH1 0x0 KECCAK256 DUP2 SWAP1 SSTORE POP DUP2 PUSH1 0x0 DUP1 DUP6 DUP2 MSTORE PUSH1 0x20 ADD SWAP1 DUP2 MSTORE PUSH1 0x20 ADD PUSH1 0x0 KECCAK256 PUSH1 0x0 DUP12 PUSH20 0xFFFFFFFFFFFFFFFFFFFFFFFFFFFFFFFFFFFFFFFF AND PUSH20 0xFFFFFFFFFFFFFFFFFFFFFFFFFFFFFFFFFFFFFFFF AND DUP2 MSTORE PUSH1 0x20 ADD SWAP1 DUP2 MSTORE PUSH1 0x20 ADD PUSH1 0x0 KECCAK256 PUSH1 0x0 DUP3 DUP3 SLOAD PUSH2 0x1408 SWAP2 SWAP1 PUSH2 0x3B8D JUMP JUMPDEST SWAP3 POP POP DUP2 SWAP1 SSTORE POP POP POP POP DUP1 PUSH2 0x141C SWAP1 PUSH2 0x38B6 JUMP JUMPDEST SWAP1 POP PUSH2 0x1275 JUMP JUMPDEST POP DUP5 PUSH20 0xFFFFFFFFFFFFFFFFFFFFFFFFFFFFFFFFFFFFFFFF AND DUP7 PUSH20 0xFFFFFFFFFFFFFFFFFFFFFFFFFFFFFFFFFFFFFFFF AND DUP3 PUSH20 0xFFFFFFFFFFFFFFFFFFFFFFFFFFFFFFFFFFFFFFFF AND PUSH32 0x4A39DC06D4C0DBC64B70AF90FD698A233A518AA5D07E595D983B8C0526C8F7FB DUP8 DUP8 PUSH1 0x40 MLOAD PUSH2 0x149A SWAP3 SWAP2 SWAP1 PUSH2 0x3BE3 JUMP JUMPDEST PUSH1 0x40 MLOAD DUP1 SWAP2 SUB SWAP1 LOG4 PUSH2 0x14B0 DUP2 DUP8 DUP8 DUP8 DUP8 DUP8 PUSH2 0x1D14 JUMP JUMPDEST PUSH2 0x14BE DUP2 DUP8 DUP8 DUP8 DUP8 DUP8 PUSH2 0x1D1C JUMP JUMPDEST POP POP POP POP POP POP JUMP JUMPDEST PUSH2 0x14CE PUSH2 0x119C JUMP JUMPDEST PUSH20 0xFFFFFFFFFFFFFFFFFFFFFFFFFFFFFFFFFFFFFFFF AND PUSH2 0x14EC PUSH2 0xC29 JUMP JUMPDEST PUSH20 0xFFFFFFFFFFFFFFFFFFFFFFFFFFFFFFFFFFFFFFFF AND EQ PUSH2 0x1542 JUMPI PUSH1 0x40 MLOAD PUSH32 0x8C379A000000000000000000000000000000000000000000000000000000000 DUP2 MSTORE PUSH1 0x4 ADD PUSH2 0x1539 SWAP1 PUSH2 0x3D8A JUMP JUMPDEST PUSH1 0x40 MLOAD DUP1 SWAP2 SUB SWAP1 REVERT JUMPDEST JUMP JUMPDEST PUSH2 0x154C PUSH2 0x119C JUMP JUMPDEST PUSH20 0xFFFFFFFFFFFFFFFFFFFFFFFFFFFFFFFFFFFFFFFF AND DUP4 PUSH20 0xFFFFFFFFFFFFFFFFFFFFFFFFFFFFFFFFFFFFFFFF AND EQ DUP1 PUSH2 0x1592 JUMPI POP PUSH2 0x1591 DUP4 PUSH2 0x158C PUSH2 0x119C JUMP JUMPDEST PUSH2 0xCAC JUMP JUMPDEST JUMPDEST PUSH2 0x15D1 JUMPI PUSH1 0x40 MLOAD PUSH32 0x8C379A000000000000000000000000000000000000000000000000000000000 DUP2 MSTORE PUSH1 0x4 ADD PUSH2 0x15C8 SWAP1 PUSH2 0x37A6 JUMP JUMPDEST PUSH1 0x40 MLOAD DUP1 SWAP2 SUB SWAP1 REVERT JUMPDEST PUSH2 0x15DC DUP4 DUP4 DUP4 PUSH2 0x1F03 JUMP JUMPDEST POP POP POP JUMP JUMPDEST PUSH1 0x0 PUSH1 0x4 PUSH1 0x0 SWAP1 SLOAD SWAP1 PUSH2 0x100 EXP SWAP1 DIV PUSH20 0xFFFFFFFFFFFFFFFFFFFFFFFFFFFFFFFFFFFFFFFF AND SWAP1 POP DUP2 PUSH1 0x4 PUSH1 0x0 PUSH2 0x100 EXP DUP2 SLOAD DUP2 PUSH20 0xFFFFFFFFFFFFFFFFFFFFFFFFFFFFFFFFFFFFFFFF MUL NOT AND SWAP1 DUP4 PUSH20 0xFFFFFFFFFFFFFFFFFFFFFFFFFFFFFFFFFFFFFFFF AND MUL OR SWAP1 SSTORE POP DUP2 PUSH20 0xFFFFFFFFFFFFFFFFFFFFFFFFFFFFFFFFFFFFFFFF AND DUP2 PUSH20 0xFFFFFFFFFFFFFFFFFFFFFFFFFFFFFFFFFFFFFFFF AND PUSH32 0x8BE0079C531659141344CD1FD0A4F28419497F9722A3DAAFE3B4186F6B6457E0 PUSH1 0x40 MLOAD PUSH1 0x40 MLOAD DUP1 SWAP2 SUB SWAP1 LOG3 POP POP JUMP JUMPDEST PUSH1 0x0 PUSH20 0xFFFFFFFFFFFFFFFFFFFFFFFFFFFFFFFFFFFFFFFF AND DUP5 PUSH20 0xFFFFFFFFFFFFFFFFFFFFFFFFFFFFFFFFFFFFFFFF AND EQ ISZERO PUSH2 0x1717 JUMPI PUSH1 0x40 MLOAD PUSH32 0x8C379A000000000000000000000000000000000000000000000000000000000 DUP2 MSTORE PUSH1 0x4 ADD PUSH2 0x170E SWAP1 PUSH2 0x3ADB JUMP JUMPDEST PUSH1 0x40 MLOAD DUP1 SWAP2 SUB SWAP1 REVERT JUMPDEST PUSH1 0x0 PUSH2 0x1721 PUSH2 0x119C JUMP JUMPDEST SWAP1 POP PUSH1 0x0 PUSH2 0x172E DUP6 PUSH2 0x21D2 JUMP JUMPDEST SWAP1 POP PUSH1 0x0 PUSH2 0x173B DUP6 PUSH2 0x21D2 JUMP JUMPDEST SWAP1 POP PUSH2 0x174C DUP4 PUSH1 0x0 DUP10 DUP6 DUP6 DUP10 PUSH2 0x1CFE JUMP JUMPDEST DUP5 PUSH1 0x0 DUP1 DUP9 DUP2 MSTORE PUSH1 0x20 ADD SWAP1 DUP2 MSTORE PUSH1 0x20 ADD PUSH1 0x0 KECCAK256 PUSH1 0x0 DUP10 PUSH20 0xFFFFFFFFFFFFFFFFFFFFFFFFFFFFFFFFFFFFFFFF AND PUSH20 0xFFFFFFFFFFFFFFFFFFFFFFFFFFFFFFFFFFFFFFFF AND DUP2 MSTORE PUSH1 0x20 ADD SWAP1 DUP2 MSTORE PUSH1 0x20 ADD PUSH1 0x0 KECCAK256 PUSH1 0x0 DUP3 DUP3 SLOAD PUSH2 0x17AB SWAP2 SWAP1 PUSH2 0x3B8D JUMP JUMPDEST SWAP3 POP POP DUP2 SWAP1 SSTORE POP DUP7 PUSH20 0xFFFFFFFFFFFFFFFFFFFFFFFFFFFFFFFFFFFFFFFF AND PUSH1 0x0 PUSH20 0xFFFFFFFFFFFFFFFFFFFFFFFFFFFFFFFFFFFFFFFF AND DUP5 PUSH20 0xFFFFFFFFFFFFFFFFFFFFFFFFFFFFFFFFFFFFFFFF AND PUSH32 0xC3D58168C5AE7397731D063D5BBF3D657854427343F4C083240F7AACAA2D0F62 DUP10 DUP10 PUSH1 0x40 MLOAD PUSH2 0x1829 SWAP3 SWAP2 SWAP1 PUSH2 0x3DAA JUMP JUMPDEST PUSH1 0x40 MLOAD DUP1 SWAP2 SUB SWAP1 LOG4 PUSH2 0x1840 DUP4 PUSH1 0x0 DUP10 DUP6 DUP6 DUP10 PUSH2 0x1D14 JUMP JUMPDEST PUSH2 0x184F DUP4 PUSH1 0x0 DUP10 DUP10 DUP10 DUP10 PUSH2 0x224C JUMP JUMPDEST POP POP POP POP POP POP POP JUMP JUMPDEST DUP2 PUSH20 0xFFFFFFFFFFFFFFFFFFFFFFFFFFFFFFFFFFFFFFFF AND DUP4 PUSH20 0xFFFFFFFFFFFFFFFFFFFFFFFFFFFFFFFFFFFFFFFF AND EQ ISZERO PUSH2 0x18C7 JUMPI PUSH1 0x40 MLOAD PUSH32 0x8C379A000000000000000000000000000000000000000000000000000000000 DUP2 MSTORE PUSH1 0x4 ADD PUSH2 0x18BE SWAP1 PUSH2 0x3E45 JUMP JUMPDEST PUSH1 0x40 MLOAD DUP1 SWAP2 SUB SWAP1 REVERT JUMPDEST DUP1 PUSH1 0x1 PUSH1 0x0 DUP6 PUSH20 0xFFFFFFFFFFFFFFFFFFFFFFFFFFFFFFFFFFFFFFFF AND PUSH20 0xFFFFFFFFFFFFFFFFFFFFFFFFFFFFFFFFFFFFFFFF AND DUP2 MSTORE PUSH1 0x20 ADD SWAP1 DUP2 MSTORE PUSH1 0x20 ADD PUSH1 0x0 KECCAK256 PUSH1 0x0 DUP5 PUSH20 0xFFFFFFFFFFFFFFFFFFFFFFFFFFFFFFFFFFFFFFFF AND PUSH20 0xFFFFFFFFFFFFFFFFFFFFFFFFFFFFFFFFFFFFFFFF AND DUP2 MSTORE PUSH1 0x20 ADD SWAP1 DUP2 MSTORE PUSH1 0x20 ADD PUSH1 0x0 KECCAK256 PUSH1 0x0 PUSH2 0x100 EXP DUP2 SLOAD DUP2 PUSH1 0xFF MUL NOT AND SWAP1 DUP4 ISZERO ISZERO MUL OR SWAP1 SSTORE POP DUP2 PUSH20 0xFFFFFFFFFFFFFFFFFFFFFFFFFFFFFFFFFFFFFFFF AND DUP4 PUSH20 0xFFFFFFFFFFFFFFFFFFFFFFFFFFFFFFFFFFFFFFFF AND PUSH32 0x17307EAB39AB6107E8899845AD3D59BD9653F200F220920489CA2B5937696C31 DUP4 PUSH1 0x40 MLOAD PUSH2 0x19B8 SWAP2 SWAP1 PUSH2 0x2ACC JUMP JUMPDEST PUSH1 0x40 MLOAD DUP1 SWAP2 SUB SWAP1 LOG3 POP POP POP JUMP JUMPDEST PUSH1 0x0 PUSH20 0xFFFFFFFFFFFFFFFFFFFFFFFFFFFFFFFFFFFFFFFF AND DUP5 PUSH20 0xFFFFFFFFFFFFFFFFFFFFFFFFFFFFFFFFFFFFFFFF AND EQ ISZERO PUSH2 0x1A35 JUMPI PUSH1 0x40 MLOAD PUSH32 0x8C379A000000000000000000000000000000000000000000000000000000000 DUP2 MSTORE PUSH1 0x4 ADD PUSH2 0x1A2C SWAP1 PUSH2 0x3C8C JUMP JUMPDEST PUSH1 0x40 MLOAD DUP1 SWAP2 SUB SWAP1 REVERT JUMPDEST PUSH1 0x0 PUSH2 0x1A3F PUSH2 0x119C JUMP JUMPDEST SWAP1 POP PUSH1 0x0 PUSH2 0x1A4C DUP6 PUSH2 0x21D2 JUMP JUMPDEST SWAP1 POP PUSH1 0x0 PUSH2 0x1A59 DUP6 PUSH2 0x21D2 JUMP JUMPDEST SWAP1 POP PUSH2 0x1A69 DUP4 DUP10 DUP10 DUP6 DUP6 DUP10 PUSH2 0x1CFE JUMP JUMPDEST PUSH1 0x0 DUP1 PUSH1 0x0 DUP9 DUP2 MSTORE PUSH1 0x20 ADD SWAP1 DUP2 MSTORE PUSH1 0x20 ADD PUSH1 0x0 KECCAK256 PUSH1 0x0 DUP11 PUSH20 0xFFFFFFFFFFFFFFFFFFFFFFFFFFFFFFFFFFFFFFFF AND PUSH20 0xFFFFFFFFFFFFFFFFFFFFFFFFFFFFFFFFFFFFFFFF AND DUP2 MSTORE PUSH1 0x20 ADD SWAP1 DUP2 MSTORE PUSH1 0x20 ADD PUSH1 0x0 KECCAK256 SLOAD SWAP1 POP DUP6 DUP2 LT ISZERO PUSH2 0x1B00 JUMPI PUSH1 0x40 MLOAD PUSH32 0x8C379A000000000000000000000000000000000000000000000000000000000 DUP2 MSTORE PUSH1 0x4 ADD PUSH2 0x1AF7 SWAP1 PUSH2 0x3D1E JUMP JUMPDEST PUSH1 0x40 MLOAD DUP1 SWAP2 SUB SWAP1 REVERT JUMPDEST DUP6 DUP2 SUB PUSH1 0x0 DUP1 DUP10 DUP2 MSTORE PUSH1 0x20 ADD SWAP1 DUP2 MSTORE PUSH1 0x20 ADD PUSH1 0x0 KECCAK256 PUSH1 0x0 DUP12 PUSH20 0xFFFFFFFFFFFFFFFFFFFFFFFFFFFFFFFFFFFFFFFF AND PUSH20 0xFFFFFFFFFFFFFFFFFFFFFFFFFFFFFFFFFFFFFFFF AND DUP2 MSTORE PUSH1 0x20 ADD SWAP1 DUP2 MSTORE PUSH1 0x20 ADD PUSH1 0x0 KECCAK256 DUP2 SWAP1 SSTORE POP DUP6 PUSH1 0x0 DUP1 DUP10 DUP2 MSTORE PUSH1 0x20 ADD SWAP1 DUP2 MSTORE PUSH1 0x20 ADD PUSH1 0x0 KECCAK256 PUSH1 0x0 DUP11 PUSH20 0xFFFFFFFFFFFFFFFFFFFFFFFFFFFFFFFFFFFFFFFF AND PUSH20 0xFFFFFFFFFFFFFFFFFFFFFFFFFFFFFFFFFFFFFFFF AND DUP2 MSTORE PUSH1 0x20 ADD SWAP1 DUP2 MSTORE PUSH1 0x20 ADD PUSH1 0x0 KECCAK256 PUSH1 0x0 DUP3 DUP3 SLOAD PUSH2 0x1BB5 SWAP2 SWAP1 PUSH2 0x3B8D JUMP JUMPDEST SWAP3 POP POP DUP2 SWAP1 SSTORE POP DUP8 PUSH20 0xFFFFFFFFFFFFFFFFFFFFFFFFFFFFFFFFFFFFFFFF AND DUP10 PUSH20 0xFFFFFFFFFFFFFFFFFFFFFFFFFFFFFFFFFFFFFFFF AND DUP6 PUSH20 0xFFFFFFFFFFFFFFFFFFFFFFFFFFFFFFFFFFFFFFFF AND PUSH32 0xC3D58168C5AE7397731D063D5BBF3D657854427343F4C083240F7AACAA2D0F62 DUP11 DUP11 PUSH1 0x40 MLOAD PUSH2 0x1C32 SWAP3 SWAP2 SWAP1 PUSH2 0x3DAA JUMP JUMPDEST PUSH1 0x40 MLOAD DUP1 SWAP2 SUB SWAP1 LOG4 PUSH2 0x1C48 DUP5 DUP11 DUP11 DUP7 DUP7 DUP11 PUSH2 0x1D14 JUMP JUMPDEST PUSH2 0x1C56 DUP5 DUP11 DUP11 DUP11 DUP11 DUP11 PUSH2 0x224C JUMP JUMPDEST POP POP POP POP POP POP POP POP POP JUMP JUMPDEST PUSH2 0x1C69 PUSH2 0x119C JUMP JUMPDEST PUSH20 0xFFFFFFFFFFFFFFFFFFFFFFFFFFFFFFFFFFFFFFFF AND DUP4 PUSH20 0xFFFFFFFFFFFFFFFFFFFFFFFFFFFFFFFFFFFFFFFF AND EQ DUP1 PUSH2 0x1CAF JUMPI POP PUSH2 0x1CAE DUP4 PUSH2 0x1CA9 PUSH2 0x119C JUMP JUMPDEST PUSH2 0xCAC JUMP JUMPDEST JUMPDEST PUSH2 0x1CEE JUMPI PUSH1 0x40 MLOAD PUSH32 0x8C379A000000000000000000000000000000000000000000000000000000000 DUP2 MSTORE PUSH1 0x4 ADD PUSH2 0x1CE5 SWAP1 PUSH2 0x37A6 JUMP JUMPDEST PUSH1 0x40 MLOAD DUP1 SWAP2 SUB SWAP1 REVERT JUMPDEST PUSH2 0x1CF9 DUP4 DUP4 DUP4 PUSH2 0x2433 JUMP JUMPDEST POP POP POP JUMP JUMPDEST PUSH2 0x1D0C DUP7 DUP7 DUP7 DUP7 DUP7 DUP7 PUSH2 0x267A JUMP JUMPDEST POP POP POP POP POP POP JUMP JUMPDEST POP POP POP POP POP POP JUMP JUMPDEST PUSH2 0x1D3B DUP5 PUSH20 0xFFFFFFFFFFFFFFFFFFFFFFFFFFFFFFFFFFFFFFFF AND PUSH2 0x284C JUMP JUMPDEST ISZERO PUSH2 0x1EFB JUMPI DUP4 PUSH20 0xFFFFFFFFFFFFFFFFFFFFFFFFFFFFFFFFFFFFFFFF AND PUSH4 0xBC197C81 DUP8 DUP8 DUP7 DUP7 DUP7 PUSH1 0x40 MLOAD DUP7 PUSH4 0xFFFFFFFF AND PUSH1 0xE0 SHL DUP2 MSTORE PUSH1 0x4 ADD PUSH2 0x1D81 SWAP6 SWAP5 SWAP4 SWAP3 SWAP2 SWAP1 PUSH2 0x3EBA JUMP JUMPDEST PUSH1 0x20 PUSH1 0x40 MLOAD DUP1 DUP4 SUB DUP2 PUSH1 0x0 DUP8 DUP1 EXTCODESIZE ISZERO DUP1 ISZERO PUSH2 0x1D9B JUMPI PUSH1 0x0 DUP1 REVERT JUMPDEST POP GAS CALL SWAP3 POP POP POP DUP1 ISZERO PUSH2 0x1DCC JUMPI POP PUSH1 0x40 MLOAD RETURNDATASIZE PUSH1 0x1F NOT PUSH1 0x1F DUP3 ADD AND DUP3 ADD DUP1 PUSH1 0x40 MSTORE POP DUP2 ADD SWAP1 PUSH2 0x1DC9 SWAP2 SWAP1 PUSH2 0x3F37 JUMP JUMPDEST PUSH1 0x1 JUMPDEST PUSH2 0x1E72 JUMPI PUSH2 0x1DD8 PUSH2 0x3F71 JUMP JUMPDEST DUP1 PUSH4 0x8C379A0 EQ ISZERO PUSH2 0x1E35 JUMPI POP PUSH2 0x1DED PUSH2 0x3F93 JUMP JUMPDEST DUP1 PUSH2 0x1DF8 JUMPI POP PUSH2 0x1E37 JUMP JUMPDEST DUP1 PUSH1 0x40 MLOAD PUSH32 0x8C379A000000000000000000000000000000000000000000000000000000000 DUP2 MSTORE PUSH1 0x4 ADD PUSH2 0x1E2C SWAP2 SWAP1 PUSH2 0x2BAD JUMP JUMPDEST PUSH1 0x40 MLOAD DUP1 SWAP2 SUB SWAP1 REVERT JUMPDEST POP JUMPDEST PUSH1 0x40 MLOAD PUSH32 0x8C379A000000000000000000000000000000000000000000000000000000000 DUP2 MSTORE PUSH1 0x4 ADD PUSH2 0x1E69 SWAP1 PUSH2 0x409B JUMP JUMPDEST PUSH1 0x40 MLOAD DUP1 SWAP2 SUB SWAP1 REVERT JUMPDEST PUSH4 0xBC197C81 PUSH1 0xE0 SHL PUSH28 0xFFFFFFFFFFFFFFFFFFFFFFFFFFFFFFFFFFFFFFFFFFFFFFFFFFFFFFFF NOT AND DUP2 PUSH28 0xFFFFFFFFFFFFFFFFFFFFFFFFFFFFFFFFFFFFFFFFFFFFFFFFFFFFFFFF NOT AND EQ PUSH2 0x1EF9 JUMPI PUSH1 0x40 MLOAD PUSH32 0x8C379A000000000000000000000000000000000000000000000000000000000 DUP2 MSTORE PUSH1 0x4 ADD PUSH2 0x1EF0 SWAP1 PUSH2 0x412D JUMP JUMPDEST PUSH1 0x40 MLOAD DUP1 SWAP2 SUB SWAP1 REVERT JUMPDEST POP JUMPDEST POP POP POP POP POP POP JUMP JUMPDEST PUSH1 0x0 PUSH20 0xFFFFFFFFFFFFFFFFFFFFFFFFFFFFFFFFFFFFFFFF AND DUP4 PUSH20 0xFFFFFFFFFFFFFFFFFFFFFFFFFFFFFFFFFFFFFFFF AND EQ ISZERO PUSH2 0x1F73 JUMPI PUSH1 0x40 MLOAD PUSH32 0x8C379A000000000000000000000000000000000000000000000000000000000 DUP2 MSTORE PUSH1 0x4 ADD PUSH2 0x1F6A SWAP1 PUSH2 0x41BF JUMP JUMPDEST PUSH1 0x40 MLOAD DUP1 SWAP2 SUB SWAP1 REVERT JUMPDEST DUP1 MLOAD DUP3 MLOAD EQ PUSH2 0x1FB7 JUMPI PUSH1 0x40 MLOAD PUSH32 0x8C379A000000000000000000000000000000000000000000000000000000000 DUP2 MSTORE PUSH1 0x4 ADD PUSH2 0x1FAE SWAP1 PUSH2 0x3B6D JUMP JUMPDEST PUSH1 0x40 MLOAD DUP1 SWAP2 SUB SWAP1 REVERT JUMPDEST PUSH1 0x0 PUSH2 0x1FC1 PUSH2 0x119C JUMP JUMPDEST SWAP1 POP PUSH2 0x1FE1 DUP2 DUP6 PUSH1 0x0 DUP7 DUP7 PUSH1 0x40 MLOAD DUP1 PUSH1 0x20 ADD PUSH1 0x40 MSTORE DUP1 PUSH1 0x0 DUP2 MSTORE POP PUSH2 0x1CFE JUMP JUMPDEST PUSH1 0x0 JUMPDEST DUP4 MLOAD DUP2 LT ISZERO PUSH2 0x212E JUMPI PUSH1 0x0 DUP5 DUP3 DUP2 MLOAD DUP2 LT PUSH2 0x2002 JUMPI PUSH2 0x2001 PUSH2 0x3858 JUMP JUMPDEST JUMPDEST PUSH1 0x20 MUL PUSH1 0x20 ADD ADD MLOAD SWAP1 POP PUSH1 0x0 DUP5 DUP4 DUP2 MLOAD DUP2 LT PUSH2 0x2021 JUMPI PUSH2 0x2020 PUSH2 0x3858 JUMP JUMPDEST JUMPDEST PUSH1 0x20 MUL PUSH1 0x20 ADD ADD MLOAD SWAP1 POP PUSH1 0x0 DUP1 PUSH1 0x0 DUP5 DUP2 MSTORE PUSH1 0x20 ADD SWAP1 DUP2 MSTORE PUSH1 0x20 ADD PUSH1 0x0 KECCAK256 PUSH1 0x0 DUP10 PUSH20 0xFFFFFFFFFFFFFFFFFFFFFFFFFFFFFFFFFFFFFFFF AND PUSH20 0xFFFFFFFFFFFFFFFFFFFFFFFFFFFFFFFFFFFFFFFF AND DUP2 MSTORE PUSH1 0x20 ADD SWAP1 DUP2 MSTORE PUSH1 0x20 ADD PUSH1 0x0 KECCAK256 SLOAD SWAP1 POP DUP2 DUP2 LT ISZERO PUSH2 0x20C2 JUMPI PUSH1 0x40 MLOAD PUSH32 0x8C379A000000000000000000000000000000000000000000000000000000000 DUP2 MSTORE PUSH1 0x4 ADD PUSH2 0x20B9 SWAP1 PUSH2 0x4251 JUMP JUMPDEST PUSH1 0x40 MLOAD DUP1 SWAP2 SUB SWAP1 REVERT JUMPDEST DUP2 DUP2 SUB PUSH1 0x0 DUP1 DUP6 DUP2 MSTORE PUSH1 0x20 ADD SWAP1 DUP2 MSTORE PUSH1 0x20 ADD PUSH1 0x0 KECCAK256 PUSH1 0x0 DUP11 PUSH20 0xFFFFFFFFFFFFFFFFFFFFFFFFFFFFFFFFFFFFFFFF AND PUSH20 0xFFFFFFFFFFFFFFFFFFFFFFFFFFFFFFFFFFFFFFFF AND DUP2 MSTORE PUSH1 0x20 ADD SWAP1 DUP2 MSTORE PUSH1 0x20 ADD PUSH1 0x0 KECCAK256 DUP2 SWAP1 SSTORE POP POP POP POP DUP1 DUP1 PUSH2 0x2126 SWAP1 PUSH2 0x38B6 JUMP JUMPDEST SWAP2 POP POP PUSH2 0x1FE4 JUMP JUMPDEST POP PUSH1 0x0 PUSH20 0xFFFFFFFFFFFFFFFFFFFFFFFFFFFFFFFFFFFFFFFF AND DUP5 PUSH20 0xFFFFFFFFFFFFFFFFFFFFFFFFFFFFFFFFFFFFFFFF AND DUP3 PUSH20 0xFFFFFFFFFFFFFFFFFFFFFFFFFFFFFFFFFFFFFFFF AND PUSH32 0x4A39DC06D4C0DBC64B70AF90FD698A233A518AA5D07E595D983B8C0526C8F7FB DUP7 DUP7 PUSH1 0x40 MLOAD PUSH2 0x21A6 SWAP3 SWAP2 SWAP1 PUSH2 0x3BE3 JUMP JUMPDEST PUSH1 0x40 MLOAD DUP1 SWAP2 SUB SWAP1 LOG4 PUSH2 0x21CC DUP2 DUP6 PUSH1 0x0 DUP7 DUP7 PUSH1 0x40 MLOAD DUP1 PUSH1 0x20 ADD PUSH1 0x40 MSTORE DUP1 PUSH1 0x0 DUP2 MSTORE POP PUSH2 0x1D14 JUMP JUMPDEST POP POP POP POP JUMP JUMPDEST PUSH1 0x60 PUSH1 0x0 PUSH1 0x1 PUSH8 0xFFFFFFFFFFFFFFFF DUP2 GT ISZERO PUSH2 0x21F1 JUMPI PUSH2 0x21F0 PUSH2 0x2BD4 JUMP JUMPDEST JUMPDEST PUSH1 0x40 MLOAD SWAP1 DUP1 DUP3 MSTORE DUP1 PUSH1 0x20 MUL PUSH1 0x20 ADD DUP3 ADD PUSH1 0x40 MSTORE DUP1 ISZERO PUSH2 0x221F JUMPI DUP2 PUSH1 0x20 ADD PUSH1 0x20 DUP3 MUL DUP1 CALLDATASIZE DUP4 CALLDATACOPY DUP1 DUP3 ADD SWAP2 POP POP SWAP1 POP JUMPDEST POP SWAP1 POP DUP3 DUP2 PUSH1 0x0 DUP2 MLOAD DUP2 LT PUSH2 0x2237 JUMPI PUSH2 0x2236 PUSH2 0x3858 JUMP JUMPDEST JUMPDEST PUSH1 0x20 MUL PUSH1 0x20 ADD ADD DUP2 DUP2 MSTORE POP POP DUP1 SWAP2 POP POP SWAP2 SWAP1 POP JUMP JUMPDEST PUSH2 0x226B DUP5 PUSH20 0xFFFFFFFFFFFFFFFFFFFFFFFFFFFFFFFFFFFFFFFF AND PUSH2 0x284C JUMP JUMPDEST ISZERO PUSH2 0x242B JUMPI DUP4 PUSH20 0xFFFFFFFFFFFFFFFFFFFFFFFFFFFFFFFFFFFFFFFF AND PUSH4 0xF23A6E61 DUP8 DUP8 DUP7 DUP7 DUP7 PUSH1 0x40 MLOAD DUP7 PUSH4 0xFFFFFFFF AND PUSH1 0xE0 SHL DUP2 MSTORE PUSH1 0x4 ADD PUSH2 0x22B1 SWAP6 SWAP5 SWAP4 SWAP3 SWAP2 SWAP1 PUSH2 0x4271 JUMP JUMPDEST PUSH1 0x20 PUSH1 0x40 MLOAD DUP1 DUP4 SUB DUP2 PUSH1 0x0 DUP8 DUP1 EXTCODESIZE ISZERO DUP1 ISZERO PUSH2 0x22CB JUMPI PUSH1 0x0 DUP1 REVERT JUMPDEST POP GAS CALL SWAP3 POP POP POP DUP1 ISZERO PUSH2 0x22FC JUMPI POP PUSH1 0x40 MLOAD RETURNDATASIZE PUSH1 0x1F NOT PUSH1 0x1F DUP3 ADD AND DUP3 ADD DUP1 PUSH1 0x40 MSTORE POP DUP2 ADD SWAP1 PUSH2 0x22F9 SWAP2 SWAP1 PUSH2 0x3F37 JUMP JUMPDEST PUSH1 0x1 JUMPDEST PUSH2 0x23A2 JUMPI PUSH2 0x2308 PUSH2 0x3F71 JUMP JUMPDEST DUP1 PUSH4 0x8C379A0 EQ ISZERO PUSH2 0x2365 JUMPI POP PUSH2 0x231D PUSH2 0x3F93 JUMP JUMPDEST DUP1 PUSH2 0x2328 JUMPI POP PUSH2 0x2367 JUMP JUMPDEST DUP1 PUSH1 0x40 MLOAD PUSH32 0x8C379A000000000000000000000000000000000000000000000000000000000 DUP2 MSTORE PUSH1 0x4 ADD PUSH2 0x235C SWAP2 SWAP1 PUSH2 0x2BAD JUMP JUMPDEST PUSH1 0x40 MLOAD DUP1 SWAP2 SUB SWAP1 REVERT JUMPDEST POP JUMPDEST PUSH1 0x40 MLOAD PUSH32 0x8C379A000000000000000000000000000000000000000000000000000000000 DUP2 MSTORE PUSH1 0x4 ADD PUSH2 0x2399 SWAP1 PUSH2 0x409B JUMP JUMPDEST PUSH1 0x40 MLOAD DUP1 SWAP2 SUB SWAP1 REVERT JUMPDEST PUSH4 0xF23A6E61 PUSH1 0xE0 SHL PUSH28 0xFFFFFFFFFFFFFFFFFFFFFFFFFFFFFFFFFFFFFFFFFFFFFFFFFFFFFFFF NOT AND DUP2 PUSH28 0xFFFFFFFFFFFFFFFFFFFFFFFFFFFFFFFFFFFFFFFFFFFFFFFFFFFFFFFF NOT AND EQ PUSH2 0x2429 JUMPI PUSH1 0x40 MLOAD PUSH32 0x8C379A000000000000000000000000000000000000000000000000000000000 DUP2 MSTORE PUSH1 0x4 ADD PUSH2 0x2420 SWAP1 PUSH2 0x412D JUMP JUMPDEST PUSH1 0x40 MLOAD DUP1 SWAP2 SUB SWAP1 REVERT JUMPDEST POP JUMPDEST POP POP POP POP POP POP JUMP JUMPDEST PUSH1 0x0 PUSH20 0xFFFFFFFFFFFFFFFFFFFFFFFFFFFFFFFFFFFFFFFF AND DUP4 PUSH20 0xFFFFFFFFFFFFFFFFFFFFFFFFFFFFFFFFFFFFFFFF AND EQ ISZERO PUSH2 0x24A3 JUMPI PUSH1 0x40 MLOAD PUSH32 0x8C379A000000000000000000000000000000000000000000000000000000000 DUP2 MSTORE PUSH1 0x4 ADD PUSH2 0x249A SWAP1 PUSH2 0x41BF JUMP JUMPDEST PUSH1 0x40 MLOAD DUP1 SWAP2 SUB SWAP1 REVERT JUMPDEST PUSH1 0x0 PUSH2 0x24AD PUSH2 0x119C JUMP JUMPDEST SWAP1 POP PUSH1 0x0 PUSH2 0x24BA DUP5 PUSH2 0x21D2 JUMP JUMPDEST SWAP1 POP PUSH1 0x0 PUSH2 0x24C7 DUP5 PUSH2 0x21D2 JUMP JUMPDEST SWAP1 POP PUSH2 0x24E7 DUP4 DUP8 PUSH1 0x0 DUP6 DUP6 PUSH1 0x40 MLOAD DUP1 PUSH1 0x20 ADD PUSH1 0x40 MSTORE DUP1 PUSH1 0x0 DUP2 MSTORE POP PUSH2 0x1CFE JUMP JUMPDEST PUSH1 0x0 DUP1 PUSH1 0x0 DUP8 DUP2 MSTORE PUSH1 0x20 ADD SWAP1 DUP2 MSTORE PUSH1 0x20 ADD PUSH1 0x0 KECCAK256 PUSH1 0x0 DUP9 PUSH20 0xFFFFFFFFFFFFFFFFFFFFFFFFFFFFFFFFFFFFFFFF AND PUSH20 0xFFFFFFFFFFFFFFFFFFFFFFFFFFFFFFFFFFFFFFFF AND DUP2 MSTORE PUSH1 0x20 ADD SWAP1 DUP2 MSTORE PUSH1 0x20 ADD PUSH1 0x0 KECCAK256 SLOAD SWAP1 POP DUP5 DUP2 LT ISZERO PUSH2 0x257E JUMPI PUSH1 0x40 MLOAD PUSH32 0x8C379A000000000000000000000000000000000000000000000000000000000 DUP2 MSTORE PUSH1 0x4 ADD PUSH2 0x2575 SWAP1 PUSH2 0x4251 JUMP JUMPDEST PUSH1 0x40 MLOAD DUP1 SWAP2 SUB SWAP1 REVERT JUMPDEST DUP5 DUP2 SUB PUSH1 0x0 DUP1 DUP9 DUP2 MSTORE PUSH1 0x20 ADD SWAP1 DUP2 MSTORE PUSH1 0x20 ADD PUSH1 0x0 KECCAK256 PUSH1 0x0 DUP10 PUSH20 0xFFFFFFFFFFFFFFFFFFFFFFFFFFFFFFFFFFFFFFFF AND PUSH20 0xFFFFFFFFFFFFFFFFFFFFFFFFFFFFFFFFFFFFFFFF AND DUP2 MSTORE PUSH1 0x20 ADD SWAP1 DUP2 MSTORE PUSH1 0x20 ADD PUSH1 0x0 KECCAK256 DUP2 SWAP1 SSTORE POP PUSH1 0x0 PUSH20 0xFFFFFFFFFFFFFFFFFFFFFFFFFFFFFFFFFFFFFFFF AND DUP8 PUSH20 0xFFFFFFFFFFFFFFFFFFFFFFFFFFFFFFFFFFFFFFFF AND DUP6 PUSH20 0xFFFFFFFFFFFFFFFFFFFFFFFFFFFFFFFFFFFFFFFF AND PUSH32 0xC3D58168C5AE7397731D063D5BBF3D657854427343F4C083240F7AACAA2D0F62 DUP10 DUP10 PUSH1 0x40 MLOAD PUSH2 0x264B SWAP3 SWAP2 SWAP1 PUSH2 0x3DAA JUMP JUMPDEST PUSH1 0x40 MLOAD DUP1 SWAP2 SUB SWAP1 LOG4 PUSH2 0x2671 DUP5 DUP9 PUSH1 0x0 DUP7 DUP7 PUSH1 0x40 MLOAD DUP1 PUSH1 0x20 ADD PUSH1 0x40 MSTORE DUP1 PUSH1 0x0 DUP2 MSTORE POP PUSH2 0x1D14 JUMP JUMPDEST POP POP POP POP POP POP POP JUMP JUMPDEST PUSH2 0x2688 DUP7 DUP7 DUP7 DUP7 DUP7 DUP7 PUSH2 0x286F JUMP JUMPDEST PUSH1 0x0 PUSH20 0xFFFFFFFFFFFFFFFFFFFFFFFFFFFFFFFFFFFFFFFF AND DUP6 PUSH20 0xFFFFFFFFFFFFFFFFFFFFFFFFFFFFFFFFFFFFFFFF AND EQ ISZERO PUSH2 0x273A JUMPI PUSH1 0x0 JUMPDEST DUP4 MLOAD DUP2 LT ISZERO PUSH2 0x2738 JUMPI DUP3 DUP2 DUP2 MLOAD DUP2 LT PUSH2 0x26DC JUMPI PUSH2 0x26DB PUSH2 0x3858 JUMP JUMPDEST JUMPDEST PUSH1 0x20 MUL PUSH1 0x20 ADD ADD MLOAD PUSH1 0x3 PUSH1 0x0 DUP7 DUP5 DUP2 MLOAD DUP2 LT PUSH2 0x26FB JUMPI PUSH2 0x26FA PUSH2 0x3858 JUMP JUMPDEST JUMPDEST PUSH1 0x20 MUL PUSH1 0x20 ADD ADD MLOAD DUP2 MSTORE PUSH1 0x20 ADD SWAP1 DUP2 MSTORE PUSH1 0x20 ADD PUSH1 0x0 KECCAK256 PUSH1 0x0 DUP3 DUP3 SLOAD PUSH2 0x2720 SWAP2 SWAP1 PUSH2 0x3B8D JUMP JUMPDEST SWAP3 POP POP DUP2 SWAP1 SSTORE POP DUP1 PUSH2 0x2731 SWAP1 PUSH2 0x38B6 JUMP JUMPDEST SWAP1 POP PUSH2 0x26C0 JUMP JUMPDEST POP JUMPDEST PUSH1 0x0 PUSH20 0xFFFFFFFFFFFFFFFFFFFFFFFFFFFFFFFFFFFFFFFF AND DUP5 PUSH20 0xFFFFFFFFFFFFFFFFFFFFFFFFFFFFFFFFFFFFFFFF AND EQ ISZERO PUSH2 0x2844 JUMPI PUSH1 0x0 JUMPDEST DUP4 MLOAD DUP2 LT ISZERO PUSH2 0x2842 JUMPI PUSH1 0x0 DUP5 DUP3 DUP2 MLOAD DUP2 LT PUSH2 0x2790 JUMPI PUSH2 0x278F PUSH2 0x3858 JUMP JUMPDEST JUMPDEST PUSH1 0x20 MUL PUSH1 0x20 ADD ADD MLOAD SWAP1 POP PUSH1 0x0 DUP5 DUP4 DUP2 MLOAD DUP2 LT PUSH2 0x27AF JUMPI PUSH2 0x27AE PUSH2 0x3858 JUMP JUMPDEST JUMPDEST PUSH1 0x20 MUL PUSH1 0x20 ADD ADD MLOAD SWAP1 POP PUSH1 0x0 PUSH1 0x3 PUSH1 0x0 DUP5 DUP2 MSTORE PUSH1 0x20 ADD SWAP1 DUP2 MSTORE PUSH1 0x20 ADD PUSH1 0x0 KECCAK256 SLOAD SWAP1 POP DUP2 DUP2 LT ISZERO PUSH2 0x2814 JUMPI PUSH1 0x40 MLOAD PUSH32 0x8C379A000000000000000000000000000000000000000000000000000000000 DUP2 MSTORE PUSH1 0x4 ADD PUSH2 0x280B SWAP1 PUSH2 0x433D JUMP JUMPDEST PUSH1 0x40 MLOAD DUP1 SWAP2 SUB SWAP1 REVERT JUMPDEST DUP2 DUP2 SUB PUSH1 0x3 PUSH1 0x0 DUP6 DUP2 MSTORE PUSH1 0x20 ADD SWAP1 DUP2 MSTORE PUSH1 0x20 ADD PUSH1 0x0 KECCAK256 DUP2 SWAP1 SSTORE POP POP POP POP DUP1 PUSH2 0x283B SWAP1 PUSH2 0x38B6 JUMP JUMPDEST SWAP1 POP PUSH2 0x2772 JUMP JUMPDEST POP JUMPDEST POP POP POP POP POP POP JUMP JUMPDEST PUSH1 0x0 DUP1 DUP3 PUSH20 0xFFFFFFFFFFFFFFFFFFFFFFFFFFFFFFFFFFFFFFFF AND EXTCODESIZE GT SWAP1 POP SWAP2 SWAP1 POP JUMP JUMPDEST POP POP POP POP POP POP JUMP JUMPDEST DUP3 DUP1 SLOAD PUSH2 0x2883 SWAP1 PUSH2 0x362A JUMP JUMPDEST SWAP1 PUSH1 0x0 MSTORE PUSH1 0x20 PUSH1 0x0 KECCAK256 SWAP1 PUSH1 0x1F ADD PUSH1 0x20 SWAP1 DIV DUP2 ADD SWAP3 DUP3 PUSH2 0x28A5 JUMPI PUSH1 0x0 DUP6 SSTORE PUSH2 0x28EC JUMP JUMPDEST DUP3 PUSH1 0x1F LT PUSH2 0x28BE JUMPI DUP1 MLOAD PUSH1 0xFF NOT AND DUP4 DUP1 ADD OR DUP6 SSTORE PUSH2 0x28EC JUMP JUMPDEST DUP3 DUP1 ADD PUSH1 0x1 ADD DUP6 SSTORE DUP3 ISZERO PUSH2 0x28EC JUMPI SWAP2 DUP3 ADD JUMPDEST DUP3 DUP2 GT ISZERO PUSH2 0x28EB JUMPI DUP3 MLOAD DUP3 SSTORE SWAP2 PUSH1 0x20 ADD SWAP2 SWAP1 PUSH1 0x1 ADD SWAP1 PUSH2 0x28D0 JUMP JUMPDEST JUMPDEST POP SWAP1 POP PUSH2 0x28F9 SWAP2 SWAP1 PUSH2 0x28FD JUMP JUMPDEST POP SWAP1 JUMP JUMPDEST JUMPDEST DUP1 DUP3 GT ISZERO PUSH2 0x2916 JUMPI PUSH1 0x0 DUP2 PUSH1 0x0 SWAP1 SSTORE POP PUSH1 0x1 ADD PUSH2 0x28FE JUMP JUMPDEST POP SWAP1 JUMP JUMPDEST PUSH1 0x0 PUSH1 0x40 MLOAD SWAP1 POP SWAP1 JUMP JUMPDEST PUSH1 0x0 DUP1 REVERT JUMPDEST PUSH1 0x0 DUP1 REVERT JUMPDEST PUSH1 0x0 PUSH20 0xFFFFFFFFFFFFFFFFFFFFFFFFFFFFFFFFFFFFFFFF DUP3 AND SWAP1 POP SWAP2 SWAP1 POP JUMP JUMPDEST PUSH1 0x0 PUSH2 0x2959 DUP3 PUSH2 0x292E JUMP JUMPDEST SWAP1 POP SWAP2 SWAP1 POP JUMP JUMPDEST PUSH2 0x2969 DUP2 PUSH2 0x294E JUMP JUMPDEST DUP2 EQ PUSH2 0x2974 JUMPI PUSH1 0x0 DUP1 REVERT JUMPDEST POP JUMP JUMPDEST PUSH1 0x0 DUP2 CALLDATALOAD SWAP1 POP PUSH2 0x2986 DUP2 PUSH2 0x2960 JUMP JUMPDEST SWAP3 SWAP2 POP POP JUMP JUMPDEST PUSH1 0x0 DUP2 SWAP1 POP SWAP2 SWAP1 POP JUMP JUMPDEST PUSH2 0x299F DUP2 PUSH2 0x298C JUMP JUMPDEST DUP2 EQ PUSH2 0x29AA JUMPI PUSH1 0x0 DUP1 REVERT JUMPDEST POP JUMP JUMPDEST PUSH1 0x0 DUP2 CALLDATALOAD SWAP1 POP PUSH2 0x29BC DUP2 PUSH2 0x2996 JUMP JUMPDEST SWAP3 SWAP2 POP POP JUMP JUMPDEST PUSH1 0x0 DUP1 PUSH1 0x40 DUP4 DUP6 SUB SLT ISZERO PUSH2 0x29D9 JUMPI PUSH2 0x29D8 PUSH2 0x2924 JUMP JUMPDEST JUMPDEST PUSH1 0x0 PUSH2 0x29E7 DUP6 DUP3 DUP7 ADD PUSH2 0x2977 JUMP JUMPDEST SWAP3 POP POP PUSH1 0x20 PUSH2 0x29F8 DUP6 DUP3 DUP7 ADD PUSH2 0x29AD JUMP JUMPDEST SWAP2 POP POP SWAP3 POP SWAP3 SWAP1 POP JUMP JUMPDEST PUSH2 0x2A0B DUP2 PUSH2 0x298C JUMP JUMPDEST DUP3 MSTORE POP POP JUMP JUMPDEST PUSH1 0x0 PUSH1 0x20 DUP3 ADD SWAP1 POP PUSH2 0x2A26 PUSH1 0x0 DUP4 ADD DUP5 PUSH2 0x2A02 JUMP JUMPDEST SWAP3 SWAP2 POP POP JUMP JUMPDEST PUSH1 0x0 PUSH32 0xFFFFFFFF00000000000000000000000000000000000000000000000000000000 DUP3 AND SWAP1 POP SWAP2 SWAP1 POP JUMP JUMPDEST PUSH2 0x2A61 DUP2 PUSH2 0x2A2C JUMP JUMPDEST DUP2 EQ PUSH2 0x2A6C JUMPI PUSH1 0x0 DUP1 REVERT JUMPDEST POP JUMP JUMPDEST PUSH1 0x0 DUP2 CALLDATALOAD SWAP1 POP PUSH2 0x2A7E DUP2 PUSH2 0x2A58 JUMP JUMPDEST SWAP3 SWAP2 POP POP JUMP JUMPDEST PUSH1 0x0 PUSH1 0x20 DUP3 DUP5 SUB SLT ISZERO PUSH2 0x2A9A JUMPI PUSH2 0x2A99 PUSH2 0x2924 JUMP JUMPDEST JUMPDEST PUSH1 0x0 PUSH2 0x2AA8 DUP5 DUP3 DUP6 ADD PUSH2 0x2A6F JUMP JUMPDEST SWAP2 POP POP SWAP3 SWAP2 POP POP JUMP JUMPDEST PUSH1 0x0 DUP2 ISZERO ISZERO SWAP1 POP SWAP2 SWAP1 POP JUMP JUMPDEST PUSH2 0x2AC6 DUP2 PUSH2 0x2AB1 JUMP JUMPDEST DUP3 MSTORE POP POP JUMP JUMPDEST PUSH1 0x0 PUSH1 0x20 DUP3 ADD SWAP1 POP PUSH2 0x2AE1 PUSH1 0x0 DUP4 ADD DUP5 PUSH2 0x2ABD JUMP JUMPDEST SWAP3 SWAP2 POP POP JUMP JUMPDEST PUSH1 0x0 PUSH1 0x20 DUP3 DUP5 SUB SLT ISZERO PUSH2 0x2AFD JUMPI PUSH2 0x2AFC PUSH2 0x2924 JUMP JUMPDEST JUMPDEST PUSH1 0x0 PUSH2 0x2B0B DUP5 DUP3 DUP6 ADD PUSH2 0x29AD JUMP JUMPDEST SWAP2 POP POP SWAP3 SWAP2 POP POP JUMP JUMPDEST PUSH1 0x0 DUP2 MLOAD SWAP1 POP SWAP2 SWAP1 POP JUMP JUMPDEST PUSH1 0x0 DUP3 DUP3 MSTORE PUSH1 0x20 DUP3 ADD SWAP1 POP SWAP3 SWAP2 POP POP JUMP JUMPDEST PUSH1 0x0 JUMPDEST DUP4 DUP2 LT ISZERO PUSH2 0x2B4E JUMPI DUP1 DUP3 ADD MLOAD DUP2 DUP5 ADD MSTORE PUSH1 0x20 DUP2 ADD SWAP1 POP PUSH2 0x2B33 JUMP JUMPDEST DUP4 DUP2 GT ISZERO PUSH2 0x2B5D JUMPI PUSH1 0x0 DUP5 DUP5 ADD MSTORE JUMPDEST POP POP POP POP JUMP JUMPDEST PUSH1 0x0 PUSH1 0x1F NOT PUSH1 0x1F DUP4 ADD AND SWAP1 POP SWAP2 SWAP1 POP JUMP JUMPDEST PUSH1 0x0 PUSH2 0x2B7F DUP3 PUSH2 0x2B14 JUMP JUMPDEST PUSH2 0x2B89 DUP2 DUP6 PUSH2 0x2B1F JUMP JUMPDEST SWAP4 POP PUSH2 0x2B99 DUP2 DUP6 PUSH1 0x20 DUP7 ADD PUSH2 0x2B30 JUMP JUMPDEST PUSH2 0x2BA2 DUP2 PUSH2 0x2B63 JUMP JUMPDEST DUP5 ADD SWAP2 POP POP SWAP3 SWAP2 POP POP JUMP JUMPDEST PUSH1 0x0 PUSH1 0x20 DUP3 ADD SWAP1 POP DUP2 DUP2 SUB PUSH1 0x0 DUP4 ADD MSTORE PUSH2 0x2BC7 DUP2 DUP5 PUSH2 0x2B74 JUMP JUMPDEST SWAP1 POP SWAP3 SWAP2 POP POP JUMP JUMPDEST PUSH1 0x0 DUP1 REVERT JUMPDEST PUSH32 0x4E487B7100000000000000000000000000000000000000000000000000000000 PUSH1 0x0 MSTORE PUSH1 0x41 PUSH1 0x4 MSTORE PUSH1 0x24 PUSH1 0x0 REVERT JUMPDEST PUSH2 0x2C0C DUP3 PUSH2 0x2B63 JUMP JUMPDEST DUP2 ADD DUP2 DUP2 LT PUSH8 0xFFFFFFFFFFFFFFFF DUP3 GT OR ISZERO PUSH2 0x2C2B JUMPI PUSH2 0x2C2A PUSH2 0x2BD4 JUMP JUMPDEST JUMPDEST DUP1 PUSH1 0x40 MSTORE POP POP POP JUMP JUMPDEST PUSH1 0x0 PUSH2 0x2C3E PUSH2 0x291A JUMP JUMPDEST SWAP1 POP PUSH2 0x2C4A DUP3 DUP3 PUSH2 0x2C03 JUMP JUMPDEST SWAP2 SWAP1 POP JUMP JUMPDEST PUSH1 0x0 PUSH8 0xFFFFFFFFFFFFFFFF DUP3 GT ISZERO PUSH2 0x2C6A JUMPI PUSH2 0x2C69 PUSH2 0x2BD4 JUMP JUMPDEST JUMPDEST PUSH1 0x20 DUP3 MUL SWAP1 POP PUSH1 0x20 DUP2 ADD SWAP1 POP SWAP2 SWAP1 POP JUMP JUMPDEST PUSH1 0x0 DUP1 REVERT JUMPDEST PUSH1 0x0 PUSH2 0x2C93 PUSH2 0x2C8E DUP5 PUSH2 0x2C4F JUMP JUMPDEST PUSH2 0x2C34 JUMP JUMPDEST SWAP1 POP DUP1 DUP4 DUP3 MSTORE PUSH1 0x20 DUP3 ADD SWAP1 POP PUSH1 0x20 DUP5 MUL DUP4 ADD DUP6 DUP2 GT ISZERO PUSH2 0x2CB6 JUMPI PUSH2 0x2CB5 PUSH2 0x2C7B JUMP JUMPDEST JUMPDEST DUP4 JUMPDEST DUP2 DUP2 LT ISZERO PUSH2 0x2CDF JUMPI DUP1 PUSH2 0x2CCB DUP9 DUP3 PUSH2 0x29AD JUMP JUMPDEST DUP5 MSTORE PUSH1 0x20 DUP5 ADD SWAP4 POP POP PUSH1 0x20 DUP2 ADD SWAP1 POP PUSH2 0x2CB8 JUMP JUMPDEST POP POP POP SWAP4 SWAP3 POP POP POP JUMP JUMPDEST PUSH1 0x0 DUP3 PUSH1 0x1F DUP4 ADD SLT PUSH2 0x2CFE JUMPI PUSH2 0x2CFD PUSH2 0x2BCF JUMP JUMPDEST JUMPDEST DUP2 CALLDATALOAD PUSH2 0x2D0E DUP5 DUP3 PUSH1 0x20 DUP7 ADD PUSH2 0x2C80 JUMP JUMPDEST SWAP2 POP POP SWAP3 SWAP2 POP POP JUMP JUMPDEST PUSH1 0x0 DUP1 REVERT JUMPDEST PUSH1 0x0 PUSH8 0xFFFFFFFFFFFFFFFF DUP3 GT ISZERO PUSH2 0x2D37 JUMPI PUSH2 0x2D36 PUSH2 0x2BD4 JUMP JUMPDEST JUMPDEST PUSH2 0x2D40 DUP3 PUSH2 0x2B63 JUMP JUMPDEST SWAP1 POP PUSH1 0x20 DUP2 ADD SWAP1 POP SWAP2 SWAP1 POP JUMP JUMPDEST DUP3 DUP2 DUP4 CALLDATACOPY PUSH1 0x0 DUP4 DUP4 ADD MSTORE POP POP POP JUMP JUMPDEST PUSH1 0x0 PUSH2 0x2D6F PUSH2 0x2D6A DUP5 PUSH2 0x2D1C JUMP JUMPDEST PUSH2 0x2C34 JUMP JUMPDEST SWAP1 POP DUP3 DUP2 MSTORE PUSH1 0x20 DUP2 ADD DUP5 DUP5 DUP5 ADD GT ISZERO PUSH2 0x2D8B JUMPI PUSH2 0x2D8A PUSH2 0x2D17 JUMP JUMPDEST JUMPDEST PUSH2 0x2D96 DUP5 DUP3 DUP6 PUSH2 0x2D4D JUMP JUMPDEST POP SWAP4 SWAP3 POP POP POP JUMP JUMPDEST PUSH1 0x0 DUP3 PUSH1 0x1F DUP4 ADD SLT PUSH2 0x2DB3 JUMPI PUSH2 0x2DB2 PUSH2 0x2BCF JUMP JUMPDEST JUMPDEST DUP2 CALLDATALOAD PUSH2 0x2DC3 DUP5 DUP3 PUSH1 0x20 DUP7 ADD PUSH2 0x2D5C JUMP JUMPDEST SWAP2 POP POP SWAP3 SWAP2 POP POP JUMP JUMPDEST PUSH1 0x0 DUP1 PUSH1 0x0 DUP1 PUSH1 0x80 DUP6 DUP8 SUB SLT ISZERO PUSH2 0x2DE6 JUMPI PUSH2 0x2DE5 PUSH2 0x2924 JUMP JUMPDEST JUMPDEST PUSH1 0x0 PUSH2 0x2DF4 DUP8 DUP3 DUP9 ADD PUSH2 0x2977 JUMP JUMPDEST SWAP5 POP POP PUSH1 0x20 DUP6 ADD CALLDATALOAD PUSH8 0xFFFFFFFFFFFFFFFF DUP2 GT ISZERO PUSH2 0x2E15 JUMPI PUSH2 0x2E14 PUSH2 0x2929 JUMP JUMPDEST JUMPDEST PUSH2 0x2E21 DUP8 DUP3 DUP9 ADD PUSH2 0x2CE9 JUMP JUMPDEST SWAP4 POP POP PUSH1 0x40 DUP6 ADD CALLDATALOAD PUSH8 0xFFFFFFFFFFFFFFFF DUP2 GT ISZERO PUSH2 0x2E42 JUMPI PUSH2 0x2E41 PUSH2 0x2929 JUMP JUMPDEST JUMPDEST PUSH2 0x2E4E DUP8 DUP3 DUP9 ADD PUSH2 0x2CE9 JUMP JUMPDEST SWAP3 POP POP PUSH1 0x60 DUP6 ADD CALLDATALOAD PUSH8 0xFFFFFFFFFFFFFFFF DUP2 GT ISZERO PUSH2 0x2E6F JUMPI PUSH2 0x2E6E PUSH2 0x2929 JUMP JUMPDEST JUMPDEST PUSH2 0x2E7B DUP8 DUP3 DUP9 ADD PUSH2 0x2D9E JUMP JUMPDEST SWAP2 POP POP SWAP3 SWAP6 SWAP2 SWAP5 POP SWAP3 POP JUMP JUMPDEST PUSH1 0x0 DUP1 PUSH1 0x0 DUP1 PUSH1 0x0 PUSH1 0xA0 DUP7 DUP9 SUB SLT ISZERO PUSH2 0x2EA3 JUMPI PUSH2 0x2EA2 PUSH2 0x2924 JUMP JUMPDEST JUMPDEST PUSH1 0x0 PUSH2 0x2EB1 DUP9 DUP3 DUP10 ADD PUSH2 0x2977 JUMP JUMPDEST SWAP6 POP POP PUSH1 0x20 PUSH2 0x2EC2 DUP9 DUP3 DUP10 ADD PUSH2 0x2977 JUMP JUMPDEST SWAP5 POP POP PUSH1 0x40 DUP7 ADD CALLDATALOAD PUSH8 0xFFFFFFFFFFFFFFFF DUP2 GT ISZERO PUSH2 0x2EE3 JUMPI PUSH2 0x2EE2 PUSH2 0x2929 JUMP JUMPDEST JUMPDEST PUSH2 0x2EEF DUP9 DUP3 DUP10 ADD PUSH2 0x2CE9 JUMP JUMPDEST SWAP4 POP POP PUSH1 0x60 DUP7 ADD CALLDATALOAD PUSH8 0xFFFFFFFFFFFFFFFF DUP2 GT ISZERO PUSH2 0x2F10 JUMPI PUSH2 0x2F0F PUSH2 0x2929 JUMP JUMPDEST JUMPDEST PUSH2 0x2F1C DUP9 DUP3 DUP10 ADD PUSH2 0x2CE9 JUMP JUMPDEST SWAP3 POP POP PUSH1 0x80 DUP7 ADD CALLDATALOAD PUSH8 0xFFFFFFFFFFFFFFFF DUP2 GT ISZERO PUSH2 0x2F3D JUMPI PUSH2 0x2F3C PUSH2 0x2929 JUMP JUMPDEST JUMPDEST PUSH2 0x2F49 DUP9 DUP3 DUP10 ADD PUSH2 0x2D9E JUMP JUMPDEST SWAP2 POP POP SWAP3 SWAP6 POP SWAP3 SWAP6 SWAP1 SWAP4 POP JUMP JUMPDEST PUSH1 0x0 PUSH8 0xFFFFFFFFFFFFFFFF DUP3 GT ISZERO PUSH2 0x2F71 JUMPI PUSH2 0x2F70 PUSH2 0x2BD4 JUMP JUMPDEST JUMPDEST PUSH1 0x20 DUP3 MUL SWAP1 POP PUSH1 0x20 DUP2 ADD SWAP1 POP SWAP2 SWAP1 POP JUMP JUMPDEST PUSH1 0x0 PUSH2 0x2F95 PUSH2 0x2F90 DUP5 PUSH2 0x2F56 JUMP JUMPDEST PUSH2 0x2C34 JUMP JUMPDEST SWAP1 POP DUP1 DUP4 DUP3 MSTORE PUSH1 0x20 DUP3 ADD SWAP1 POP PUSH1 0x20 DUP5 MUL DUP4 ADD DUP6 DUP2 GT ISZERO PUSH2 0x2FB8 JUMPI PUSH2 0x2FB7 PUSH2 0x2C7B JUMP JUMPDEST JUMPDEST DUP4 JUMPDEST DUP2 DUP2 LT ISZERO PUSH2 0x2FE1 JUMPI DUP1 PUSH2 0x2FCD DUP9 DUP3 PUSH2 0x2977 JUMP JUMPDEST DUP5 MSTORE PUSH1 0x20 DUP5 ADD SWAP4 POP POP PUSH1 0x20 DUP2 ADD SWAP1 POP PUSH2 0x2FBA JUMP JUMPDEST POP POP POP SWAP4 SWAP3 POP POP POP JUMP JUMPDEST PUSH1 0x0 DUP3 PUSH1 0x1F DUP4 ADD SLT PUSH2 0x3000 JUMPI PUSH2 0x2FFF PUSH2 0x2BCF JUMP JUMPDEST JUMPDEST DUP2 CALLDATALOAD PUSH2 0x3010 DUP5 DUP3 PUSH1 0x20 DUP7 ADD PUSH2 0x2F82 JUMP JUMPDEST SWAP2 POP POP SWAP3 SWAP2 POP POP JUMP JUMPDEST PUSH1 0x0 DUP1 PUSH1 0x40 DUP4 DUP6 SUB SLT ISZERO PUSH2 0x3030 JUMPI PUSH2 0x302F PUSH2 0x2924 JUMP JUMPDEST JUMPDEST PUSH1 0x0 DUP4 ADD CALLDATALOAD PUSH8 0xFFFFFFFFFFFFFFFF DUP2 GT ISZERO PUSH2 0x304E JUMPI PUSH2 0x304D PUSH2 0x2929 JUMP JUMPDEST JUMPDEST PUSH2 0x305A DUP6 DUP3 DUP7 ADD PUSH2 0x2FEB JUMP JUMPDEST SWAP3 POP POP PUSH1 0x20 DUP4 ADD CALLDATALOAD PUSH8 0xFFFFFFFFFFFFFFFF DUP2 GT ISZERO PUSH2 0x307B JUMPI PUSH2 0x307A PUSH2 0x2929 JUMP JUMPDEST JUMPDEST PUSH2 0x3087 DUP6 DUP3 DUP7 ADD PUSH2 0x2CE9 JUMP JUMPDEST SWAP2 POP POP SWAP3 POP SWAP3 SWAP1 POP JUMP JUMPDEST PUSH1 0x0 DUP2 MLOAD SWAP1 POP SWAP2 SWAP1 POP JUMP JUMPDEST PUSH1 0x0 DUP3 DUP3 MSTORE PUSH1 0x20 DUP3 ADD SWAP1 POP SWAP3 SWAP2 POP POP JUMP JUMPDEST PUSH1 0x0 DUP2 SWAP1 POP PUSH1 0x20 DUP3 ADD SWAP1 POP SWAP2 SWAP1 POP JUMP JUMPDEST PUSH2 0x30C6 DUP2 PUSH2 0x298C JUMP JUMPDEST DUP3 MSTORE POP POP JUMP JUMPDEST PUSH1 0x0 PUSH2 0x30D8 DUP4 DUP4 PUSH2 0x30BD JUMP JUMPDEST PUSH1 0x20 DUP4 ADD SWAP1 POP SWAP3 SWAP2 POP POP JUMP JUMPDEST PUSH1 0x0 PUSH1 0x20 DUP3 ADD SWAP1 POP SWAP2 SWAP1 POP JUMP JUMPDEST PUSH1 0x0 PUSH2 0x30FC DUP3 PUSH2 0x3091 JUMP JUMPDEST PUSH2 0x3106 DUP2 DUP6 PUSH2 0x309C JUMP JUMPDEST SWAP4 POP PUSH2 0x3111 DUP4 PUSH2 0x30AD JUMP JUMPDEST DUP1 PUSH1 0x0 JUMPDEST DUP4 DUP2 LT ISZERO PUSH2 0x3142 JUMPI DUP2 MLOAD PUSH2 0x3129 DUP9 DUP3 PUSH2 0x30CC JUMP JUMPDEST SWAP8 POP PUSH2 0x3134 DUP4 PUSH2 0x30E4 JUMP JUMPDEST SWAP3 POP POP PUSH1 0x1 DUP2 ADD SWAP1 POP PUSH2 0x3115 JUMP JUMPDEST POP DUP6 SWAP4 POP POP POP POP SWAP3 SWAP2 POP POP JUMP JUMPDEST PUSH1 0x0 PUSH1 0x20 DUP3 ADD SWAP1 POP DUP2 DUP2 SUB PUSH1 0x0 DUP4 ADD MSTORE PUSH2 0x3169 DUP2 DUP5 PUSH2 0x30F1 JUMP JUMPDEST SWAP1 POP SWAP3 SWAP2 POP POP JUMP JUMPDEST PUSH1 0x0 PUSH8 0xFFFFFFFFFFFFFFFF DUP3 GT ISZERO PUSH2 0x318C JUMPI PUSH2 0x318B PUSH2 0x2BD4 JUMP JUMPDEST JUMPDEST PUSH2 0x3195 DUP3 PUSH2 0x2B63 JUMP JUMPDEST SWAP1 POP PUSH1 0x20 DUP2 ADD SWAP1 POP SWAP2 SWAP1 POP JUMP JUMPDEST PUSH1 0x0 PUSH2 0x31B5 PUSH2 0x31B0 DUP5 PUSH2 0x3171 JUMP JUMPDEST PUSH2 0x2C34 JUMP JUMPDEST SWAP1 POP DUP3 DUP2 MSTORE PUSH1 0x20 DUP2 ADD DUP5 DUP5 DUP5 ADD GT ISZERO PUSH2 0x31D1 JUMPI PUSH2 0x31D0 PUSH2 0x2D17 JUMP JUMPDEST JUMPDEST PUSH2 0x31DC DUP5 DUP3 DUP6 PUSH2 0x2D4D JUMP JUMPDEST POP SWAP4 SWAP3 POP POP POP JUMP JUMPDEST PUSH1 0x0 DUP3 PUSH1 0x1F DUP4 ADD SLT PUSH2 0x31F9 JUMPI PUSH2 0x31F8 PUSH2 0x2BCF JUMP JUMPDEST JUMPDEST DUP2 CALLDATALOAD PUSH2 0x3209 DUP5 DUP3 PUSH1 0x20 DUP7 ADD PUSH2 0x31A2 JUMP JUMPDEST SWAP2 POP POP SWAP3 SWAP2 POP POP JUMP JUMPDEST PUSH1 0x0 DUP1 PUSH1 0x40 DUP4 DUP6 SUB SLT ISZERO PUSH2 0x3229 JUMPI PUSH2 0x3228 PUSH2 0x2924 JUMP JUMPDEST JUMPDEST PUSH1 0x0 PUSH2 0x3237 DUP6 DUP3 DUP7 ADD PUSH2 0x29AD JUMP JUMPDEST SWAP3 POP POP PUSH1 0x20 DUP4 ADD CALLDATALOAD PUSH8 0xFFFFFFFFFFFFFFFF DUP2 GT ISZERO PUSH2 0x3258 JUMPI PUSH2 0x3257 PUSH2 0x2929 JUMP JUMPDEST JUMPDEST PUSH2 0x3264 DUP6 DUP3 DUP7 ADD PUSH2 0x31E4 JUMP JUMPDEST SWAP2 POP POP SWAP3 POP SWAP3 SWAP1 POP JUMP JUMPDEST PUSH1 0x0 DUP1 PUSH1 0x0 PUSH1 0x60 DUP5 DUP7 SUB SLT ISZERO PUSH2 0x3287 JUMPI PUSH2 0x3286 PUSH2 0x2924 JUMP JUMPDEST JUMPDEST PUSH1 0x0 PUSH2 0x3295 DUP7 DUP3 DUP8 ADD PUSH2 0x2977 JUMP JUMPDEST SWAP4 POP POP PUSH1 0x20 DUP5 ADD CALLDATALOAD PUSH8 0xFFFFFFFFFFFFFFFF DUP2 GT ISZERO PUSH2 0x32B6 JUMPI PUSH2 0x32B5 PUSH2 0x2929 JUMP JUMPDEST JUMPDEST PUSH2 0x32C2 DUP7 DUP3 DUP8 ADD PUSH2 0x2CE9 JUMP JUMPDEST SWAP3 POP POP PUSH1 0x40 DUP5 ADD CALLDATALOAD PUSH8 0xFFFFFFFFFFFFFFFF DUP2 GT ISZERO PUSH2 0x32E3 JUMPI PUSH2 0x32E2 PUSH2 0x2929 JUMP JUMPDEST JUMPDEST PUSH2 0x32EF DUP7 DUP3 DUP8 ADD PUSH2 0x2CE9 JUMP JUMPDEST SWAP2 POP POP SWAP3 POP SWAP3 POP SWAP3 JUMP JUMPDEST PUSH1 0x0 PUSH1 0x20 DUP3 DUP5 SUB SLT ISZERO PUSH2 0x330F JUMPI PUSH2 0x330E PUSH2 0x2924 JUMP JUMPDEST JUMPDEST PUSH1 0x0 PUSH2 0x331D DUP5 DUP3 DUP6 ADD PUSH2 0x2977 JUMP JUMPDEST SWAP2 POP POP SWAP3 SWAP2 POP POP JUMP JUMPDEST PUSH1 0x0 DUP1 PUSH1 0x0 DUP1 PUSH1 0x80 DUP6 DUP8 SUB SLT ISZERO PUSH2 0x3340 JUMPI PUSH2 0x333F PUSH2 0x2924 JUMP JUMPDEST JUMPDEST PUSH1 0x0 PUSH2 0x334E DUP8 DUP3 DUP9 ADD PUSH2 0x2977 JUMP JUMPDEST SWAP5 POP POP PUSH1 0x20 PUSH2 0x335F DUP8 DUP3 DUP9 ADD PUSH2 0x29AD JUMP JUMPDEST SWAP4 POP POP PUSH1 0x40 PUSH2 0x3370 DUP8 DUP3 DUP9 ADD PUSH2 0x29AD JUMP JUMPDEST SWAP3 POP POP PUSH1 0x60 DUP6 ADD CALLDATALOAD PUSH8 0xFFFFFFFFFFFFFFFF DUP2 GT ISZERO PUSH2 0x3391 JUMPI PUSH2 0x3390 PUSH2 0x2929 JUMP JUMPDEST JUMPDEST PUSH2 0x339D DUP8 DUP3 DUP9 ADD PUSH2 0x2D9E JUMP JUMPDEST SWAP2 POP POP SWAP3 SWAP6 SWAP2 SWAP5 POP SWAP3 POP JUMP JUMPDEST PUSH2 0x33B2 DUP2 PUSH2 0x294E JUMP JUMPDEST DUP3 MSTORE POP POP JUMP JUMPDEST PUSH1 0x0 PUSH1 0x20 DUP3 ADD SWAP1 POP PUSH2 0x33CD PUSH1 0x0 DUP4 ADD DUP5 PUSH2 0x33A9 JUMP JUMPDEST SWAP3 SWAP2 POP POP JUMP JUMPDEST PUSH2 0x33DC DUP2 PUSH2 0x2AB1 JUMP JUMPDEST DUP2 EQ PUSH2 0x33E7 JUMPI PUSH1 0x0 DUP1 REVERT JUMPDEST POP JUMP JUMPDEST PUSH1 0x0 DUP2 CALLDATALOAD SWAP1 POP PUSH2 0x33F9 DUP2 PUSH2 0x33D3 JUMP JUMPDEST SWAP3 SWAP2 POP POP JUMP JUMPDEST PUSH1 0x0 DUP1 PUSH1 0x40 DUP4 DUP6 SUB SLT ISZERO PUSH2 0x3416 JUMPI PUSH2 0x3415 PUSH2 0x2924 JUMP JUMPDEST JUMPDEST PUSH1 0x0 PUSH2 0x3424 DUP6 DUP3 DUP7 ADD PUSH2 0x2977 JUMP JUMPDEST SWAP3 POP POP PUSH1 0x20 PUSH2 0x3435 DUP6 DUP3 DUP7 ADD PUSH2 0x33EA JUMP JUMPDEST SWAP2 POP POP SWAP3 POP SWAP3 SWAP1 POP JUMP JUMPDEST PUSH1 0x0 DUP1 PUSH1 0x40 DUP4 DUP6 SUB SLT ISZERO PUSH2 0x3456 JUMPI PUSH2 0x3455 PUSH2 0x2924 JUMP JUMPDEST JUMPDEST PUSH1 0x0 PUSH2 0x3464 DUP6 DUP3 DUP7 ADD PUSH2 0x2977 JUMP JUMPDEST SWAP3 POP POP PUSH1 0x20 PUSH2 0x3475 DUP6 DUP3 DUP7 ADD PUSH2 0x2977 JUMP JUMPDEST SWAP2 POP POP SWAP3 POP SWAP3 SWAP1 POP JUMP JUMPDEST PUSH1 0x0 DUP1 PUSH1 0x0 DUP1 PUSH1 0x0 PUSH1 0xA0 DUP7 DUP9 SUB SLT ISZERO PUSH2 0x349B JUMPI PUSH2 0x349A PUSH2 0x2924 JUMP JUMPDEST JUMPDEST PUSH1 0x0 PUSH2 0x34A9 DUP9 DUP3 DUP10 ADD PUSH2 0x2977 JUMP JUMPDEST SWAP6 POP POP PUSH1 0x20 PUSH2 0x34BA DUP9 DUP3 DUP10 ADD PUSH2 0x2977 JUMP JUMPDEST SWAP5 POP POP PUSH1 0x40 PUSH2 0x34CB DUP9 DUP3 DUP10 ADD PUSH2 0x29AD JUMP JUMPDEST SWAP4 POP POP PUSH1 0x60 PUSH2 0x34DC DUP9 DUP3 DUP10 ADD PUSH2 0x29AD JUMP JUMPDEST SWAP3 POP POP PUSH1 0x80 DUP7 ADD CALLDATALOAD PUSH8 0xFFFFFFFFFFFFFFFF DUP2 GT ISZERO PUSH2 0x34FD JUMPI PUSH2 0x34FC PUSH2 0x2929 JUMP JUMPDEST JUMPDEST PUSH2 0x3509 DUP9 DUP3 DUP10 ADD PUSH2 0x2D9E JUMP JUMPDEST SWAP2 POP POP SWAP3 SWAP6 POP SWAP3 SWAP6 SWAP1 SWAP4 POP JUMP JUMPDEST PUSH1 0x0 DUP1 PUSH1 0x0 PUSH1 0x60 DUP5 DUP7 SUB SLT ISZERO PUSH2 0x352F JUMPI PUSH2 0x352E PUSH2 0x2924 JUMP JUMPDEST JUMPDEST PUSH1 0x0 PUSH2 0x353D DUP7 DUP3 DUP8 ADD PUSH2 0x2977 JUMP JUMPDEST SWAP4 POP POP PUSH1 0x20 PUSH2 0x354E DUP7 DUP3 DUP8 ADD PUSH2 0x29AD JUMP JUMPDEST SWAP3 POP POP PUSH1 0x40 PUSH2 0x355F DUP7 DUP3 DUP8 ADD PUSH2 0x29AD JUMP JUMPDEST SWAP2 POP POP SWAP3 POP SWAP3 POP SWAP3 JUMP JUMPDEST PUSH32 0x455243313135353A2061646472657373207A65726F206973206E6F7420612076 PUSH1 0x0 DUP3 ADD MSTORE PUSH32 0x616C6964206F776E657200000000000000000000000000000000000000000000 PUSH1 0x20 DUP3 ADD MSTORE POP JUMP JUMPDEST PUSH1 0x0 PUSH2 0x35C5 PUSH1 0x2A DUP4 PUSH2 0x2B1F JUMP JUMPDEST SWAP2 POP PUSH2 0x35D0 DUP3 PUSH2 0x3569 JUMP JUMPDEST PUSH1 0x40 DUP3 ADD SWAP1 POP SWAP2 SWAP1 POP JUMP JUMPDEST PUSH1 0x0 PUSH1 0x20 DUP3 ADD SWAP1 POP DUP2 DUP2 SUB PUSH1 0x0 DUP4 ADD MSTORE PUSH2 0x35F4 DUP2 PUSH2 0x35B8 JUMP JUMPDEST SWAP1 POP SWAP2 SWAP1 POP JUMP JUMPDEST PUSH32 0x4E487B7100000000000000000000000000000000000000000000000000000000 PUSH1 0x0 MSTORE PUSH1 0x22 PUSH1 0x4 MSTORE PUSH1 0x24 PUSH1 0x0 REVERT JUMPDEST PUSH1 0x0 PUSH1 0x2 DUP3 DIV SWAP1 POP PUSH1 0x1 DUP3 AND DUP1 PUSH2 0x3642 JUMPI PUSH1 0x7F DUP3 AND SWAP2 POP JUMPDEST PUSH1 0x20 DUP3 LT DUP2 EQ ISZERO PUSH2 0x3656 JUMPI PUSH2 0x3655 PUSH2 0x35FB JUMP JUMPDEST JUMPDEST POP SWAP2 SWAP1 POP JUMP JUMPDEST PUSH32 0x47616D652061646472657373206E6F74207365742E0000000000000000000000 PUSH1 0x0 DUP3 ADD MSTORE POP JUMP JUMPDEST PUSH1 0x0 PUSH2 0x3692 PUSH1 0x15 DUP4 PUSH2 0x2B1F JUMP JUMPDEST SWAP2 POP PUSH2 0x369D DUP3 PUSH2 0x365C JUMP JUMPDEST PUSH1 0x20 DUP3 ADD SWAP1 POP SWAP2 SWAP1 POP JUMP JUMPDEST PUSH1 0x0 PUSH1 0x20 DUP3 ADD SWAP1 POP DUP2 DUP2 SUB PUSH1 0x0 DUP4 ADD MSTORE PUSH2 0x36C1 DUP2 PUSH2 0x3685 JUMP JUMPDEST SWAP1 POP SWAP2 SWAP1 POP JUMP JUMPDEST PUSH32 0x4F6E6C792067616D6520636F6E74726163742063616E206D696E742E00000000 PUSH1 0x0 DUP3 ADD MSTORE POP JUMP JUMPDEST PUSH1 0x0 PUSH2 0x36FE PUSH1 0x1C DUP4 PUSH2 0x2B1F JUMP JUMPDEST SWAP2 POP PUSH2 0x3709 DUP3 PUSH2 0x36C8 JUMP JUMPDEST PUSH1 0x20 DUP3 ADD SWAP1 POP SWAP2 SWAP1 POP JUMP JUMPDEST PUSH1 0x0 PUSH1 0x20 DUP3 ADD SWAP1 POP DUP2 DUP2 SUB PUSH1 0x0 DUP4 ADD MSTORE PUSH2 0x372D DUP2 PUSH2 0x36F1 JUMP JUMPDEST SWAP1 POP SWAP2 SWAP1 POP JUMP JUMPDEST PUSH32 0x455243313135353A2063616C6C6572206973206E6F7420746F6B656E206F776E PUSH1 0x0 DUP3 ADD MSTORE PUSH32 0x6572206F7220617070726F766564000000000000000000000000000000000000 PUSH1 0x20 DUP3 ADD MSTORE POP JUMP JUMPDEST PUSH1 0x0 PUSH2 0x3790 PUSH1 0x2E DUP4 PUSH2 0x2B1F JUMP JUMPDEST SWAP2 POP PUSH2 0x379B DUP3 PUSH2 0x3734 JUMP JUMPDEST PUSH1 0x40 DUP3 ADD SWAP1 POP SWAP2 SWAP1 POP JUMP JUMPDEST PUSH1 0x0 PUSH1 0x20 DUP3 ADD SWAP1 POP DUP2 DUP2 SUB PUSH1 0x0 DUP4 ADD MSTORE PUSH2 0x37BF DUP2 PUSH2 0x3783 JUMP JUMPDEST SWAP1 POP SWAP2 SWAP1 POP JUMP JUMPDEST PUSH32 0x455243313135353A206163636F756E747320616E6420696473206C656E677468 PUSH1 0x0 DUP3 ADD MSTORE PUSH32 0x206D69736D617463680000000000000000000000000000000000000000000000 PUSH1 0x20 DUP3 ADD MSTORE POP JUMP JUMPDEST PUSH1 0x0 PUSH2 0x3822 PUSH1 0x29 DUP4 PUSH2 0x2B1F JUMP JUMPDEST SWAP2 POP PUSH2 0x382D DUP3 PUSH2 0x37C6 JUMP JUMPDEST PUSH1 0x40 DUP3 ADD SWAP1 POP SWAP2 SWAP1 POP JUMP JUMPDEST PUSH1 0x0 PUSH1 0x20 DUP3 ADD SWAP1 POP DUP2 DUP2 SUB PUSH1 0x0 DUP4 ADD MSTORE PUSH2 0x3851 DUP2 PUSH2 0x3815 JUMP JUMPDEST SWAP1 POP SWAP2 SWAP1 POP JUMP JUMPDEST PUSH32 0x4E487B7100000000000000000000000000000000000000000000000000000000 PUSH1 0x0 MSTORE PUSH1 0x32 PUSH1 0x4 MSTORE PUSH1 0x24 PUSH1 0x0 REVERT JUMPDEST PUSH32 0x4E487B7100000000000000000000000000000000000000000000000000000000 PUSH1 0x0 MSTORE PUSH1 0x11 PUSH1 0x4 MSTORE PUSH1 0x24 PUSH1 0x0 REVERT JUMPDEST PUSH1 0x0 PUSH2 0x38C1 DUP3 PUSH2 0x298C JUMP JUMPDEST SWAP2 POP PUSH32 0xFFFFFFFFFFFFFFFFFFFFFFFFFFFFFFFFFFFFFFFFFFFFFFFFFFFFFFFFFFFFFFFF DUP3 EQ ISZERO PUSH2 0x38F4 JUMPI PUSH2 0x38F3 PUSH2 0x3887 JUMP JUMPDEST JUMPDEST PUSH1 0x1 DUP3 ADD SWAP1 POP SWAP2 SWAP1 POP JUMP JUMPDEST PUSH32 0x4F6E6C792067616D6520636F6E74726163742063616E206275726E2E00000000 PUSH1 0x0 DUP3 ADD MSTORE POP JUMP JUMPDEST PUSH1 0x0 PUSH2 0x3935 PUSH1 0x1C DUP4 PUSH2 0x2B1F JUMP JUMPDEST SWAP2 POP PUSH2 0x3940 DUP3 PUSH2 0x38FF JUMP JUMPDEST PUSH1 0x20 DUP3 ADD SWAP1 POP SWAP2 SWAP1 POP JUMP JUMPDEST PUSH1 0x0 PUSH1 0x20 DUP3 ADD SWAP1 POP DUP2 DUP2 SUB PUSH1 0x0 DUP4 ADD MSTORE PUSH2 0x3964 DUP2 PUSH2 0x3928 JUMP JUMPDEST SWAP1 POP SWAP2 SWAP1 POP JUMP JUMPDEST PUSH32 0x47616D65206164647265737320697320616C7265616479207365742E00000000 PUSH1 0x0 DUP3 ADD MSTORE POP JUMP JUMPDEST PUSH1 0x0 PUSH2 0x39A1 PUSH1 0x1C DUP4 PUSH2 0x2B1F JUMP JUMPDEST SWAP2 POP PUSH2 0x39AC DUP3 PUSH2 0x396B JUMP JUMPDEST PUSH1 0x20 DUP3 ADD SWAP1 POP SWAP2 SWAP1 POP JUMP JUMPDEST PUSH1 0x0 PUSH1 0x20 DUP3 ADD SWAP1 POP DUP2 DUP2 SUB PUSH1 0x0 DUP4 ADD MSTORE PUSH2 0x39D0 DUP2 PUSH2 0x3994 JUMP JUMPDEST SWAP1 POP SWAP2 SWAP1 POP JUMP JUMPDEST PUSH32 0x4F776E61626C653A206E6577206F776E657220697320746865207A65726F2061 PUSH1 0x0 DUP3 ADD MSTORE PUSH32 0x6464726573730000000000000000000000000000000000000000000000000000 PUSH1 0x20 DUP3 ADD MSTORE POP JUMP JUMPDEST PUSH1 0x0 PUSH2 0x3A33 PUSH1 0x26 DUP4 PUSH2 0x2B1F JUMP JUMPDEST SWAP2 POP PUSH2 0x3A3E DUP3 PUSH2 0x39D7 JUMP JUMPDEST PUSH1 0x40 DUP3 ADD SWAP1 POP SWAP2 SWAP1 POP JUMP JUMPDEST PUSH1 0x0 PUSH1 0x20 DUP3 ADD SWAP1 POP DUP2 DUP2 SUB PUSH1 0x0 DUP4 ADD MSTORE PUSH2 0x3A62 DUP2 PUSH2 0x3A26 JUMP JUMPDEST SWAP1 POP SWAP2 SWAP1 POP JUMP JUMPDEST PUSH32 0x455243313135353A206D696E7420746F20746865207A65726F20616464726573 PUSH1 0x0 DUP3 ADD MSTORE PUSH32 0x7300000000000000000000000000000000000000000000000000000000000000 PUSH1 0x20 DUP3 ADD MSTORE POP JUMP JUMPDEST PUSH1 0x0 PUSH2 0x3AC5 PUSH1 0x21 DUP4 PUSH2 0x2B1F JUMP JUMPDEST SWAP2 POP PUSH2 0x3AD0 DUP3 PUSH2 0x3A69 JUMP JUMPDEST PUSH1 0x40 DUP3 ADD SWAP1 POP SWAP2 SWAP1 POP JUMP JUMPDEST PUSH1 0x0 PUSH1 0x20 DUP3 ADD SWAP1 POP DUP2 DUP2 SUB PUSH1 0x0 DUP4 ADD MSTORE PUSH2 0x3AF4 DUP2 PUSH2 0x3AB8 JUMP JUMPDEST SWAP1 POP SWAP2 SWAP1 POP JUMP JUMPDEST PUSH32 0x455243313135353A2069647320616E6420616D6F756E7473206C656E67746820 PUSH1 0x0 DUP3 ADD MSTORE PUSH32 0x6D69736D61746368000000000000000000000000000000000000000000000000 PUSH1 0x20 DUP3 ADD MSTORE POP JUMP JUMPDEST PUSH1 0x0 PUSH2 0x3B57 PUSH1 0x28 DUP4 PUSH2 0x2B1F JUMP JUMPDEST SWAP2 POP PUSH2 0x3B62 DUP3 PUSH2 0x3AFB JUMP JUMPDEST PUSH1 0x40 DUP3 ADD SWAP1 POP SWAP2 SWAP1 POP JUMP JUMPDEST PUSH1 0x0 PUSH1 0x20 DUP3 ADD SWAP1 POP DUP2 DUP2 SUB PUSH1 0x0 DUP4 ADD MSTORE PUSH2 0x3B86 DUP2 PUSH2 0x3B4A JUMP JUMPDEST SWAP1 POP SWAP2 SWAP1 POP JUMP JUMPDEST PUSH1 0x0 PUSH2 0x3B98 DUP3 PUSH2 0x298C JUMP JUMPDEST SWAP2 POP PUSH2 0x3BA3 DUP4 PUSH2 0x298C JUMP JUMPDEST SWAP3 POP DUP3 PUSH32 0xFFFFFFFFFFFFFFFFFFFFFFFFFFFFFFFFFFFFFFFFFFFFFFFFFFFFFFFFFFFFFFFF SUB DUP3 GT ISZERO PUSH2 0x3BD8 JUMPI PUSH2 0x3BD7 PUSH2 0x3887 JUMP JUMPDEST JUMPDEST DUP3 DUP3 ADD SWAP1 POP SWAP3 SWAP2 POP POP JUMP JUMPDEST PUSH1 0x0 PUSH1 0x40 DUP3 ADD SWAP1 POP DUP2 DUP2 SUB PUSH1 0x0 DUP4 ADD MSTORE PUSH2 0x3BFD DUP2 DUP6 PUSH2 0x30F1 JUMP JUMPDEST SWAP1 POP DUP2 DUP2 SUB PUSH1 0x20 DUP4 ADD MSTORE PUSH2 0x3C11 DUP2 DUP5 PUSH2 0x30F1 JUMP JUMPDEST SWAP1 POP SWAP4 SWAP3 POP POP POP JUMP JUMPDEST PUSH32 0x455243313135353A207472616E7366657220746F20746865207A65726F206164 PUSH1 0x0 DUP3 ADD MSTORE PUSH32 0x6472657373000000000000000000000000000000000000000000000000000000 PUSH1 0x20 DUP3 ADD MSTORE POP JUMP JUMPDEST PUSH1 0x0 PUSH2 0x3C76 PUSH1 0x25 DUP4 PUSH2 0x2B1F JUMP JUMPDEST SWAP2 POP PUSH2 0x3C81 DUP3 PUSH2 0x3C1A JUMP JUMPDEST PUSH1 0x40 DUP3 ADD SWAP1 POP SWAP2 SWAP1 POP JUMP JUMPDEST PUSH1 0x0 PUSH1 0x20 DUP3 ADD SWAP1 POP DUP2 DUP2 SUB PUSH1 0x0 DUP4 ADD MSTORE PUSH2 0x3CA5 DUP2 PUSH2 0x3C69 JUMP JUMPDEST SWAP1 POP SWAP2 SWAP1 POP JUMP JUMPDEST PUSH32 0x455243313135353A20696E73756666696369656E742062616C616E636520666F PUSH1 0x0 DUP3 ADD MSTORE PUSH32 0x72207472616E7366657200000000000000000000000000000000000000000000 PUSH1 0x20 DUP3 ADD MSTORE POP JUMP JUMPDEST PUSH1 0x0 PUSH2 0x3D08 PUSH1 0x2A DUP4 PUSH2 0x2B1F JUMP JUMPDEST SWAP2 POP PUSH2 0x3D13 DUP3 PUSH2 0x3CAC JUMP JUMPDEST PUSH1 0x40 DUP3 ADD SWAP1 POP SWAP2 SWAP1 POP JUMP JUMPDEST PUSH1 0x0 PUSH1 0x20 DUP3 ADD SWAP1 POP DUP2 DUP2 SUB PUSH1 0x0 DUP4 ADD MSTORE PUSH2 0x3D37 DUP2 PUSH2 0x3CFB JUMP JUMPDEST SWAP1 POP SWAP2 SWAP1 POP JUMP JUMPDEST PUSH32 0x4F776E61626C653A2063616C6C6572206973206E6F7420746865206F776E6572 PUSH1 0x0 DUP3 ADD MSTORE POP JUMP JUMPDEST PUSH1 0x0 PUSH2 0x3D74 PUSH1 0x20 DUP4 PUSH2 0x2B1F JUMP JUMPDEST SWAP2 POP PUSH2 0x3D7F DUP3 PUSH2 0x3D3E JUMP JUMPDEST PUSH1 0x20 DUP3 ADD SWAP1 POP SWAP2 SWAP1 POP JUMP JUMPDEST PUSH1 0x0 PUSH1 0x20 DUP3 ADD SWAP1 POP DUP2 DUP2 SUB PUSH1 0x0 DUP4 ADD MSTORE PUSH2 0x3DA3 DUP2 PUSH2 0x3D67 JUMP JUMPDEST SWAP1 POP SWAP2 SWAP1 POP JUMP JUMPDEST PUSH1 0x0 PUSH1 0x40 DUP3 ADD SWAP1 POP PUSH2 0x3DBF PUSH1 0x0 DUP4 ADD DUP6 PUSH2 0x2A02 JUMP JUMPDEST PUSH2 0x3DCC PUSH1 0x20 DUP4 ADD DUP5 PUSH2 0x2A02 JUMP JUMPDEST SWAP4 SWAP3 POP POP POP JUMP JUMPDEST PUSH32 0x455243313135353A2073657474696E6720617070726F76616C20737461747573 PUSH1 0x0 DUP3 ADD MSTORE PUSH32 0x20666F722073656C660000000000000000000000000000000000000000000000 PUSH1 0x20 DUP3 ADD MSTORE POP JUMP JUMPDEST PUSH1 0x0 PUSH2 0x3E2F PUSH1 0x29 DUP4 PUSH2 0x2B1F JUMP JUMPDEST SWAP2 POP PUSH2 0x3E3A DUP3 PUSH2 0x3DD3 JUMP JUMPDEST PUSH1 0x40 DUP3 ADD SWAP1 POP SWAP2 SWAP1 POP JUMP JUMPDEST PUSH1 0x0 PUSH1 0x20 DUP3 ADD SWAP1 POP DUP2 DUP2 SUB PUSH1 0x0 DUP4 ADD MSTORE PUSH2 0x3E5E DUP2 PUSH2 0x3E22 JUMP JUMPDEST SWAP1 POP SWAP2 SWAP1 POP JUMP JUMPDEST PUSH1 0x0 DUP2 MLOAD SWAP1 POP SWAP2 SWAP1 POP JUMP JUMPDEST PUSH1 0x0 DUP3 DUP3 MSTORE PUSH1 0x20 DUP3 ADD SWAP1 POP SWAP3 SWAP2 POP POP JUMP JUMPDEST PUSH1 0x0 PUSH2 0x3E8C DUP3 PUSH2 0x3E65 JUMP JUMPDEST PUSH2 0x3E96 DUP2 DUP6 PUSH2 0x3E70 JUMP JUMPDEST SWAP4 POP PUSH2 0x3EA6 DUP2 DUP6 PUSH1 0x20 DUP7 ADD PUSH2 0x2B30 JUMP JUMPDEST PUSH2 0x3EAF DUP2 PUSH2 0x2B63 JUMP JUMPDEST DUP5 ADD SWAP2 POP POP SWAP3 SWAP2 POP POP JUMP JUMPDEST PUSH1 0x0 PUSH1 0xA0 DUP3 ADD SWAP1 POP PUSH2 0x3ECF PUSH1 0x0 DUP4 ADD DUP9 PUSH2 0x33A9 JUMP JUMPDEST PUSH2 0x3EDC PUSH1 0x20 DUP4 ADD DUP8 PUSH2 0x33A9 JUMP JUMPDEST DUP2 DUP2 SUB PUSH1 0x40 DUP4 ADD MSTORE PUSH2 0x3EEE DUP2 DUP7 PUSH2 0x30F1 JUMP JUMPDEST SWAP1 POP DUP2 DUP2 SUB PUSH1 0x60 DUP4 ADD MSTORE PUSH2 0x3F02 DUP2 DUP6 PUSH2 0x30F1 JUMP JUMPDEST SWAP1 POP DUP2 DUP2 SUB PUSH1 0x80 DUP4 ADD MSTORE PUSH2 0x3F16 DUP2 DUP5 PUSH2 0x3E81 JUMP JUMPDEST SWAP1 POP SWAP7 SWAP6 POP POP POP POP POP POP JUMP JUMPDEST PUSH1 0x0 DUP2 MLOAD SWAP1 POP PUSH2 0x3F31 DUP2 PUSH2 0x2A58 JUMP JUMPDEST SWAP3 SWAP2 POP POP JUMP JUMPDEST PUSH1 0x0 PUSH1 0x20 DUP3 DUP5 SUB SLT ISZERO PUSH2 0x3F4D JUMPI PUSH2 0x3F4C PUSH2 0x2924 JUMP JUMPDEST JUMPDEST PUSH1 0x0 PUSH2 0x3F5B DUP5 DUP3 DUP6 ADD PUSH2 0x3F22 JUMP JUMPDEST SWAP2 POP POP SWAP3 SWAP2 POP POP JUMP JUMPDEST PUSH1 0x0 DUP2 PUSH1 0xE0 SHR SWAP1 POP SWAP2 SWAP1 POP JUMP JUMPDEST PUSH1 0x0 PUSH1 0x3 RETURNDATASIZE GT ISZERO PUSH2 0x3F90 JUMPI PUSH1 0x4 PUSH1 0x0 DUP1 RETURNDATACOPY PUSH2 0x3F8D PUSH1 0x0 MLOAD PUSH2 0x3F64 JUMP JUMPDEST SWAP1 POP JUMPDEST SWAP1 JUMP JUMPDEST PUSH1 0x0 PUSH1 0x44 RETURNDATASIZE LT ISZERO PUSH2 0x3FA3 JUMPI PUSH2 0x4026 JUMP JUMPDEST PUSH2 0x3FAB PUSH2 0x291A JUMP JUMPDEST PUSH1 0x4 RETURNDATASIZE SUB PUSH1 0x4 DUP3 RETURNDATACOPY DUP1 MLOAD RETURNDATASIZE PUSH1 0x24 DUP3 ADD GT PUSH8 0xFFFFFFFFFFFFFFFF DUP3 GT OR ISZERO PUSH2 0x3FD3 JUMPI POP POP PUSH2 0x4026 JUMP JUMPDEST DUP1 DUP3 ADD DUP1 MLOAD PUSH8 0xFFFFFFFFFFFFFFFF DUP2 GT ISZERO PUSH2 0x3FF1 JUMPI POP POP POP POP PUSH2 0x4026 JUMP JUMPDEST DUP1 PUSH1 0x20 DUP4 ADD ADD PUSH1 0x4 RETURNDATASIZE SUB DUP6 ADD DUP2 GT ISZERO PUSH2 0x400E JUMPI POP POP POP POP POP PUSH2 0x4026 JUMP JUMPDEST PUSH2 0x401D DUP3 PUSH1 0x20 ADD DUP6 ADD DUP7 PUSH2 0x2C03 JUMP JUMPDEST DUP3 SWAP6 POP POP POP POP POP POP JUMPDEST SWAP1 JUMP JUMPDEST PUSH32 0x455243313135353A207472616E7366657220746F206E6F6E2D45524331313535 PUSH1 0x0 DUP3 ADD MSTORE PUSH32 0x526563656976657220696D706C656D656E746572000000000000000000000000 PUSH1 0x20 DUP3 ADD MSTORE POP JUMP JUMPDEST PUSH1 0x0 PUSH2 0x4085 PUSH1 0x34 DUP4 PUSH2 0x2B1F JUMP JUMPDEST SWAP2 POP PUSH2 0x4090 DUP3 PUSH2 0x4029 JUMP JUMPDEST PUSH1 0x40 DUP3 ADD SWAP1 POP SWAP2 SWAP1 POP JUMP JUMPDEST PUSH1 0x0 PUSH1 0x20 DUP3 ADD SWAP1 POP DUP2 DUP2 SUB PUSH1 0x0 DUP4 ADD MSTORE PUSH2 0x40B4 DUP2 PUSH2 0x4078 JUMP JUMPDEST SWAP1 POP SWAP2 SWAP1 POP JUMP JUMPDEST PUSH32 0x455243313135353A204552433131353552656365697665722072656A65637465 PUSH1 0x0 DUP3 ADD MSTORE PUSH32 0x6420746F6B656E73000000000000000000000000000000000000000000000000 PUSH1 0x20 DUP3 ADD MSTORE POP JUMP JUMPDEST PUSH1 0x0 PUSH2 0x4117 PUSH1 0x28 DUP4 PUSH2 0x2B1F JUMP JUMPDEST SWAP2 POP PUSH2 0x4122 DUP3 PUSH2 0x40BB JUMP JUMPDEST PUSH1 0x40 DUP3 ADD SWAP1 POP SWAP2 SWAP1 POP JUMP JUMPDEST PUSH1 0x0 PUSH1 0x20 DUP3 ADD SWAP1 POP DUP2 DUP2 SUB PUSH1 0x0 DUP4 ADD MSTORE PUSH2 0x4146 DUP2 PUSH2 0x410A JUMP JUMPDEST SWAP1 POP SWAP2 SWAP1 POP JUMP JUMPDEST PUSH32 0x455243313135353A206275726E2066726F6D20746865207A65726F2061646472 PUSH1 0x0 DUP3 ADD MSTORE PUSH32 0x6573730000000000000000000000000000000000000000000000000000000000 PUSH1 0x20 DUP3 ADD MSTORE POP JUMP JUMPDEST PUSH1 0x0 PUSH2 0x41A9 PUSH1 0x23 DUP4 PUSH2 0x2B1F JUMP JUMPDEST SWAP2 POP PUSH2 0x41B4 DUP3 PUSH2 0x414D JUMP JUMPDEST PUSH1 0x40 DUP3 ADD SWAP1 POP SWAP2 SWAP1 POP JUMP JUMPDEST PUSH1 0x0 PUSH1 0x20 DUP3 ADD SWAP1 POP DUP2 DUP2 SUB PUSH1 0x0 DUP4 ADD MSTORE PUSH2 0x41D8 DUP2 PUSH2 0x419C JUMP JUMPDEST SWAP1 POP SWAP2 SWAP1 POP JUMP JUMPDEST PUSH32 0x455243313135353A206275726E20616D6F756E7420657863656564732062616C PUSH1 0x0 DUP3 ADD MSTORE PUSH32 0x616E636500000000000000000000000000000000000000000000000000000000 PUSH1 0x20 DUP3 ADD MSTORE POP JUMP JUMPDEST PUSH1 0x0 PUSH2 0x423B PUSH1 0x24 DUP4 PUSH2 0x2B1F JUMP JUMPDEST SWAP2 POP PUSH2 0x4246 DUP3 PUSH2 0x41DF JUMP JUMPDEST PUSH1 0x40 DUP3 ADD SWAP1 POP SWAP2 SWAP1 POP JUMP JUMPDEST PUSH1 0x0 PUSH1 0x20 DUP3 ADD SWAP1 POP DUP2 DUP2 SUB PUSH1 0x0 DUP4 ADD MSTORE PUSH2 0x426A DUP2 PUSH2 0x422E JUMP JUMPDEST SWAP1 POP SWAP2 SWAP1 POP JUMP JUMPDEST PUSH1 0x0 PUSH1 0xA0 DUP3 ADD SWAP1 POP PUSH2 0x4286 PUSH1 0x0 DUP4 ADD DUP9 PUSH2 0x33A9 JUMP JUMPDEST PUSH2 0x4293 PUSH1 0x20 DUP4 ADD DUP8 PUSH2 0x33A9 JUMP JUMPDEST PUSH2 0x42A0 PUSH1 0x40 DUP4 ADD DUP7 PUSH2 0x2A02 JUMP JUMPDEST PUSH2 0x42AD PUSH1 0x60 DUP4 ADD DUP6 PUSH2 0x2A02 JUMP JUMPDEST DUP2 DUP2 SUB PUSH1 0x80 DUP4 ADD MSTORE PUSH2 0x42BF DUP2 DUP5 PUSH2 0x3E81 JUMP JUMPDEST SWAP1 POP SWAP7 SWAP6 POP POP POP POP POP POP JUMP JUMPDEST PUSH32 0x455243313135353A206275726E20616D6F756E74206578636565647320746F74 PUSH1 0x0 DUP3 ADD MSTORE PUSH32 0x616C537570706C79000000000000000000000000000000000000000000000000 PUSH1 0x20 DUP3 ADD MSTORE POP JUMP JUMPDEST PUSH1 0x0 PUSH2 0x4327 PUSH1 0x28 DUP4 PUSH2 0x2B1F JUMP JUMPDEST SWAP2 POP PUSH2 0x4332 DUP3 PUSH2 0x42CB JUMP JUMPDEST PUSH1 0x40 DUP3 ADD SWAP1 POP SWAP2 SWAP1 POP JUMP JUMPDEST PUSH1 0x0 PUSH1 0x20 DUP3 ADD SWAP1 POP DUP2 DUP2 SUB PUSH1 0x0 DUP4 ADD MSTORE PUSH2 0x4356 DUP2 PUSH2 0x431A JUMP JUMPDEST SWAP1 POP SWAP2 SWAP1 POP JUMP INVALID LOG2 PUSH5 0x6970667358 0x22 SLT KECCAK256 ADDRESS SWAP4 PUSH17 0x3ED062343F0AC2FA24CC734035082621A7 CALLVALUE 0xAC DUP8 0xCD 0x1E 0xFC LOG3 0xE5 PUSH11 0xB607A164736F6C63430008 MULMOD STOP CALLER "
		},
		"gasEstimates": {
			"creation": {
				"codeDepositCost": "3459800",
				"executionCost": "infinite",
				"totalCost": "infinite"
			},
			"external": {
				"balanceOf(address,uint256)": "infinite",
				"balanceOfBatch(address[],uint256[])": "infinite",
				"burn(address,uint256,uint256)": "infinite",
				"burnBatch(address,uint256[],uint256[])": "infinite",
				"exists(uint256)": "2880",
				"gameAddress()": "2603",
				"isApprovedForAll(address,address)": "infinite",
				"mint(address,uint256,uint256,bytes)": "infinite",
				"mintBatch(address,uint256[],uint256[],bytes)": "infinite",
				"owner()": "2589",
				"renounceOwnership()": "30421",
				"safeBatchTransferFrom(address,address,uint256[],uint256[],bytes)": "infinite",
				"safeTransferFrom(address,address,uint256,uint256,bytes)": "infinite",
				"setApprovalForAll(address,bool)": "infinite",
				"setGameAddress(address)": "29268",
				"setTokenUri(uint256,string)": "infinite",
				"supportsInterface(bytes4)": "819",
				"totalSupply(uint256)": "infinite",
				"transferOwnership(address)": "30835",
				"uri(uint256)": "infinite"
			},
			"internal": {
				"_beforeTokenTransfer(address,address,address,uint256[] memory,uint256[] memory,bytes memory)": "infinite"
			}
		},
		"methodIdentifiers": {
			"balanceOf(address,uint256)": "00fdd58e",
			"balanceOfBatch(address[],uint256[])": "4e1273f4",
			"burn(address,uint256,uint256)": "f5298aca",
			"burnBatch(address,uint256[],uint256[])": "6b20c454",
			"exists(uint256)": "4f558e79",
			"gameAddress()": "a168d873",
			"isApprovedForAll(address,address)": "e985e9c5",
			"mint(address,uint256,uint256,bytes)": "731133e9",
			"mintBatch(address,uint256[],uint256[],bytes)": "1f7fdffa",
			"owner()": "8da5cb5b",
			"renounceOwnership()": "715018a6",
			"safeBatchTransferFrom(address,address,uint256[],uint256[],bytes)": "2eb2c2d6",
			"safeTransferFrom(address,address,uint256,uint256,bytes)": "f242432a",
			"setApprovalForAll(address,bool)": "a22cb465",
			"setGameAddress(address)": "711953ef",
			"setTokenUri(uint256,string)": "57f7789e",
			"supportsInterface(bytes4)": "01ffc9a7",
			"totalSupply(uint256)": "bd85b039",
			"transferOwnership(address)": "f2fde38b",
			"uri(uint256)": "0e89341c"
		}
	},
	"abi": [
		{
			"inputs": [],
			"stateMutability": "nonpayable",
			"type": "constructor"
		},
		{
			"anonymous": false,
			"inputs": [
				{
					"indexed": true,
					"internalType": "address",
					"name": "account",
					"type": "address"
				},
				{
					"indexed": true,
					"internalType": "address",
					"name": "operator",
					"type": "address"
				},
				{
					"indexed": false,
					"internalType": "bool",
					"name": "approved",
					"type": "bool"
				}
			],
			"name": "ApprovalForAll",
			"type": "event"
		},
		{
			"anonymous": false,
			"inputs": [
				{
					"indexed": true,
					"internalType": "address",
					"name": "previousOwner",
					"type": "address"
				},
				{
					"indexed": true,
					"internalType": "address",
					"name": "newOwner",
					"type": "address"
				}
			],
			"name": "OwnershipTransferred",
			"type": "event"
		},
		{
			"anonymous": false,
			"inputs": [
				{
					"indexed": true,
					"internalType": "address",
					"name": "operator",
					"type": "address"
				},
				{
					"indexed": true,
					"internalType": "address",
					"name": "from",
					"type": "address"
				},
				{
					"indexed": true,
					"internalType": "address",
					"name": "to",
					"type": "address"
				},
				{
					"indexed": false,
					"internalType": "uint256[]",
					"name": "ids",
					"type": "uint256[]"
				},
				{
					"indexed": false,
					"internalType": "uint256[]",
					"name": "values",
					"type": "uint256[]"
				}
			],
			"name": "TransferBatch",
			"type": "event"
		},
		{
			"anonymous": false,
			"inputs": [
				{
					"indexed": true,
					"internalType": "address",
					"name": "operator",
					"type": "address"
				},
				{
					"indexed": true,
					"internalType": "address",
					"name": "from",
					"type": "address"
				},
				{
					"indexed": true,
					"internalType": "address",
					"name": "to",
					"type": "address"
				},
				{
					"indexed": false,
					"internalType": "uint256",
					"name": "id",
					"type": "uint256"
				},
				{
					"indexed": false,
					"internalType": "uint256",
					"name": "value",
					"type": "uint256"
				}
			],
			"name": "TransferSingle",
			"type": "event"
		},
		{
			"anonymous": false,
			"inputs": [
				{
					"indexed": false,
					"internalType": "string",
					"name": "value",
					"type": "string"
				},
				{
					"indexed": true,
					"internalType": "uint256",
					"name": "id",
					"type": "uint256"
				}
			],
			"name": "URI",
			"type": "event"
		},
		{
			"inputs": [
				{
					"internalType": "address",
					"name": "account",
					"type": "address"
				},
				{
					"internalType": "uint256",
					"name": "id",
					"type": "uint256"
				}
			],
			"name": "balanceOf",
			"outputs": [
				{
					"internalType": "uint256",
					"name": "",
					"type": "uint256"
				}
			],
			"stateMutability": "view",
			"type": "function"
		},
		{
			"inputs": [
				{
					"internalType": "address[]",
					"name": "accounts",
					"type": "address[]"
				},
				{
					"internalType": "uint256[]",
					"name": "ids",
					"type": "uint256[]"
				}
			],
			"name": "balanceOfBatch",
			"outputs": [
				{
					"internalType": "uint256[]",
					"name": "",
					"type": "uint256[]"
				}
			],
			"stateMutability": "view",
			"type": "function"
		},
		{
			"inputs": [
				{
					"internalType": "address",
					"name": "account",
					"type": "address"
				},
				{
					"internalType": "uint256",
					"name": "id",
					"type": "uint256"
				},
				{
					"internalType": "uint256",
					"name": "value",
					"type": "uint256"
				}
			],
			"name": "burn",
			"outputs": [],
			"stateMutability": "nonpayable",
			"type": "function"
		},
		{
			"inputs": [
				{
					"internalType": "address",
					"name": "account",
					"type": "address"
				},
				{
					"internalType": "uint256[]",
					"name": "ids",
					"type": "uint256[]"
				},
				{
					"internalType": "uint256[]",
					"name": "values",
					"type": "uint256[]"
				}
			],
			"name": "burnBatch",
			"outputs": [],
			"stateMutability": "nonpayable",
			"type": "function"
		},
		{
			"inputs": [
				{
					"internalType": "uint256",
					"name": "id",
					"type": "uint256"
				}
			],
			"name": "exists",
			"outputs": [
				{
					"internalType": "bool",
					"name": "",
					"type": "bool"
				}
			],
			"stateMutability": "view",
			"type": "function"
		},
		{
			"inputs": [],
			"name": "gameAddress",
			"outputs": [
				{
					"internalType": "address",
					"name": "",
					"type": "address"
				}
			],
			"stateMutability": "view",
			"type": "function"
		},
		{
			"inputs": [
				{
					"internalType": "address",
					"name": "account",
					"type": "address"
				},
				{
					"internalType": "address",
					"name": "operator",
					"type": "address"
				}
			],
			"name": "isApprovedForAll",
			"outputs": [
				{
					"internalType": "bool",
					"name": "",
					"type": "bool"
				}
			],
			"stateMutability": "view",
			"type": "function"
		},
		{
			"inputs": [
				{
					"internalType": "address",
					"name": "account",
					"type": "address"
				},
				{
					"internalType": "uint256",
					"name": "id",
					"type": "uint256"
				},
				{
					"internalType": "uint256",
					"name": "amount",
					"type": "uint256"
				},
				{
					"internalType": "bytes",
					"name": "data",
					"type": "bytes"
				}
			],
			"name": "mint",
			"outputs": [],
			"stateMutability": "nonpayable",
			"type": "function"
		},
		{
			"inputs": [
				{
					"internalType": "address",
					"name": "to",
					"type": "address"
				},
				{
					"internalType": "uint256[]",
					"name": "ids",
					"type": "uint256[]"
				},
				{
					"internalType": "uint256[]",
					"name": "amounts",
					"type": "uint256[]"
				},
				{
					"internalType": "bytes",
					"name": "data",
					"type": "bytes"
				}
			],
			"name": "mintBatch",
			"outputs": [],
			"stateMutability": "nonpayable",
			"type": "function"
		},
		{
			"inputs": [],
			"name": "owner",
			"outputs": [
				{
					"internalType": "address",
					"name": "",
					"type": "address"
				}
			],
			"stateMutability": "view",
			"type": "function"
		},
		{
			"inputs": [],
			"name": "renounceOwnership",
			"outputs": [],
			"stateMutability": "nonpayable",
			"type": "function"
		},
		{
			"inputs": [
				{
					"internalType": "address",
					"name": "from",
					"type": "address"
				},
				{
					"internalType": "address",
					"name": "to",
					"type": "address"
				},
				{
					"internalType": "uint256[]",
					"name": "ids",
					"type": "uint256[]"
				},
				{
					"internalType": "uint256[]",
					"name": "amounts",
					"type": "uint256[]"
				},
				{
					"internalType": "bytes",
					"name": "data",
					"type": "bytes"
				}
			],
			"name": "safeBatchTransferFrom",
			"outputs": [],
			"stateMutability": "nonpayable",
			"type": "function"
		},
		{
			"inputs": [
				{
					"internalType": "address",
					"name": "from",
					"type": "address"
				},
				{
					"internalType": "address",
					"name": "to",
					"type": "address"
				},
				{
					"internalType": "uint256",
					"name": "id",
					"type": "uint256"
				},
				{
					"internalType": "uint256",
					"name": "amount",
					"type": "uint256"
				},
				{
					"internalType": "bytes",
					"name": "data",
					"type": "bytes"
				}
			],
			"name": "safeTransferFrom",
			"outputs": [],
			"stateMutability": "nonpayable",
			"type": "function"
		},
		{
			"inputs": [
				{
					"internalType": "address",
					"name": "operator",
					"type": "address"
				},
				{
					"internalType": "bool",
					"name": "approved",
					"type": "bool"
				}
			],
			"name": "setApprovalForAll",
			"outputs": [],
			"stateMutability": "nonpayable",
			"type": "function"
		},
		{
			"inputs": [
				{
					"internalType": "address",
					"name": "account",
					"type": "address"
				}
			],
			"name": "setGameAddress",
			"outputs": [],
			"stateMutability": "nonpayable",
			"type": "function"
		},
		{
			"inputs": [
				{
					"internalType": "uint256",
					"name": "id",
					"type": "uint256"
				},
				{
					"internalType": "string",
					"name": "tokenUri",
					"type": "string"
				}
			],
			"name": "setTokenUri",
			"outputs": [],
			"stateMutability": "nonpayable",
			"type": "function"
		},
		{
			"inputs": [
				{
					"internalType": "bytes4",
					"name": "interfaceId",
					"type": "bytes4"
				}
			],
			"name": "supportsInterface",
			"outputs": [
				{
					"internalType": "bool",
					"name": "",
					"type": "bool"
				}
			],
			"stateMutability": "view",
			"type": "function"
		},
		{
			"inputs": [
				{
					"internalType": "uint256",
					"name": "id",
					"type": "uint256"
				}
			],
			"name": "totalSupply",
			"outputs": [
				{
					"internalType": "uint256",
					"name": "",
					"type": "uint256"
				}
			],
			"stateMutability": "view",
			"type": "function"
		},
		{
			"inputs": [
				{
					"internalType": "address",
					"name": "newOwner",
					"type": "address"
				}
			],
			"name": "transferOwnership",
			"outputs": [],
			"stateMutability": "nonpayable",
			"type": "function"
		},
		{
			"inputs": [
				{
					"internalType": "uint256",
					"name": "id",
					"type": "uint256"
				}
			],
			"name": "uri",
			"outputs": [
				{
					"internalType": "string",
					"name": "",
					"type": "string"
				}
			],
			"stateMutability": "view",
			"type": "function"
		}
	]
}