{
	"contracts/Items/Items.sol": {
		"Items": {
			"abi": [
				{
					"inputs": [
						{
							"internalType": "address",
							"name": "gameAddress",
							"type": "address"
						}
					],
					"stateMutability": "nonpayable",
					"type": "constructor"
				},
				{
					"inputs": [
						{
							"internalType": "address",
							"name": "sender",
							"type": "address"
						},
						{
							"internalType": "uint256",
							"name": "balance",
							"type": "uint256"
						},
						{
							"internalType": "uint256",
							"name": "needed",
							"type": "uint256"
						},
						{
							"internalType": "uint256",
							"name": "tokenId",
							"type": "uint256"
						}
					],
					"name": "ERC1155InsufficientBalance",
					"type": "error"
				},
				{
					"inputs": [
						{
							"internalType": "address",
							"name": "approver",
							"type": "address"
						}
					],
					"name": "ERC1155InvalidApprover",
					"type": "error"
				},
				{
					"inputs": [
						{
							"internalType": "uint256",
							"name": "idsLength",
							"type": "uint256"
						},
						{
							"internalType": "uint256",
							"name": "valuesLength",
							"type": "uint256"
						}
					],
					"name": "ERC1155InvalidArrayLength",
					"type": "error"
				},
				{
					"inputs": [
						{
							"internalType": "address",
							"name": "operator",
							"type": "address"
						}
					],
					"name": "ERC1155InvalidOperator",
					"type": "error"
				},
				{
					"inputs": [
						{
							"internalType": "address",
							"name": "receiver",
							"type": "address"
						}
					],
					"name": "ERC1155InvalidReceiver",
					"type": "error"
				},
				{
					"inputs": [
						{
							"internalType": "address",
							"name": "sender",
							"type": "address"
						}
					],
					"name": "ERC1155InvalidSender",
					"type": "error"
				},
				{
					"inputs": [
						{
							"internalType": "address",
							"name": "operator",
							"type": "address"
						},
						{
							"internalType": "address",
							"name": "owner",
							"type": "address"
						}
					],
					"name": "ERC1155MissingApprovalForAll",
					"type": "error"
				},
				{
					"anonymous": false,
					"inputs": [
						{
							"indexed": true,
							"internalType": "address",
							"name": "account",
							"type": "address"
						},
						{
							"indexed": true,
							"internalType": "address",
							"name": "operator",
							"type": "address"
						},
						{
							"indexed": false,
							"internalType": "bool",
							"name": "approved",
							"type": "bool"
						}
					],
					"name": "ApprovalForAll",
					"type": "event"
				},
				{
					"anonymous": false,
					"inputs": [
						{
							"indexed": true,
							"internalType": "address",
							"name": "operator",
							"type": "address"
						},
						{
							"indexed": true,
							"internalType": "address",
							"name": "from",
							"type": "address"
						},
						{
							"indexed": true,
							"internalType": "address",
							"name": "to",
							"type": "address"
						},
						{
							"indexed": false,
							"internalType": "uint256[]",
							"name": "ids",
							"type": "uint256[]"
						},
						{
							"indexed": false,
							"internalType": "uint256[]",
							"name": "values",
							"type": "uint256[]"
						}
					],
					"name": "TransferBatch",
					"type": "event"
				},
				{
					"anonymous": false,
					"inputs": [
						{
							"indexed": true,
							"internalType": "address",
							"name": "operator",
							"type": "address"
						},
						{
							"indexed": true,
							"internalType": "address",
							"name": "from",
							"type": "address"
						},
						{
							"indexed": true,
							"internalType": "address",
							"name": "to",
							"type": "address"
						},
						{
							"indexed": false,
							"internalType": "uint256",
							"name": "id",
							"type": "uint256"
						},
						{
							"indexed": false,
							"internalType": "uint256",
							"name": "value",
							"type": "uint256"
						}
					],
					"name": "TransferSingle",
					"type": "event"
				},
				{
					"anonymous": false,
					"inputs": [
						{
							"indexed": false,
							"internalType": "string",
							"name": "value",
							"type": "string"
						},
						{
							"indexed": true,
							"internalType": "uint256",
							"name": "id",
							"type": "uint256"
						}
					],
					"name": "URI",
					"type": "event"
				},
				{
					"inputs": [
						{
							"internalType": "address",
							"name": "account",
							"type": "address"
						},
						{
							"internalType": "uint256",
							"name": "id",
							"type": "uint256"
						}
					],
					"name": "balanceOf",
					"outputs": [
						{
							"internalType": "uint256",
							"name": "",
							"type": "uint256"
						}
					],
					"stateMutability": "view",
					"type": "function"
				},
				{
					"inputs": [
						{
							"internalType": "address[]",
							"name": "accounts",
							"type": "address[]"
						},
						{
							"internalType": "uint256[]",
							"name": "ids",
							"type": "uint256[]"
						}
					],
					"name": "balanceOfBatch",
					"outputs": [
						{
							"internalType": "uint256[]",
							"name": "",
							"type": "uint256[]"
						}
					],
					"stateMutability": "view",
					"type": "function"
				},
				{
					"inputs": [
						{
							"internalType": "address",
							"name": "account",
							"type": "address"
						},
						{
							"internalType": "uint256",
							"name": "id",
							"type": "uint256"
						},
						{
							"internalType": "uint256",
							"name": "value",
							"type": "uint256"
						}
					],
					"name": "burn",
					"outputs": [],
					"stateMutability": "nonpayable",
					"type": "function"
				},
				{
					"inputs": [
						{
							"internalType": "address",
							"name": "account",
							"type": "address"
						},
						{
							"internalType": "uint256[]",
							"name": "ids",
							"type": "uint256[]"
						},
						{
							"internalType": "uint256[]",
							"name": "values",
							"type": "uint256[]"
						}
					],
					"name": "burnBatch",
					"outputs": [],
					"stateMutability": "nonpayable",
					"type": "function"
				},
				{
					"inputs": [
						{
							"internalType": "uint256",
							"name": "id",
							"type": "uint256"
						}
					],
					"name": "exists",
					"outputs": [
						{
							"internalType": "bool",
							"name": "",
							"type": "bool"
						}
					],
					"stateMutability": "view",
					"type": "function"
				},
				{
					"inputs": [
						{
							"internalType": "address",
							"name": "account",
							"type": "address"
						},
						{
							"internalType": "address",
							"name": "operator",
							"type": "address"
						}
					],
					"name": "isApprovedForAll",
					"outputs": [
						{
							"internalType": "bool",
							"name": "",
							"type": "bool"
						}
					],
					"stateMutability": "view",
					"type": "function"
				},
				{
					"inputs": [
						{
							"internalType": "address",
							"name": "account",
							"type": "address"
						},
						{
							"internalType": "uint256",
							"name": "id",
							"type": "uint256"
						},
						{
							"internalType": "uint256",
							"name": "amount",
							"type": "uint256"
						},
						{
							"internalType": "bytes",
							"name": "data",
							"type": "bytes"
						}
					],
					"name": "mint",
					"outputs": [],
					"stateMutability": "nonpayable",
					"type": "function"
				},
				{
					"inputs": [
						{
							"internalType": "address",
							"name": "to",
							"type": "address"
						},
						{
							"internalType": "uint256[]",
							"name": "ids",
							"type": "uint256[]"
						},
						{
							"internalType": "uint256[]",
							"name": "amounts",
							"type": "uint256[]"
						},
						{
							"internalType": "bytes",
							"name": "data",
							"type": "bytes"
						}
					],
					"name": "mintBatch",
					"outputs": [],
					"stateMutability": "nonpayable",
					"type": "function"
				},
				{
					"inputs": [
						{
							"internalType": "address",
							"name": "from",
							"type": "address"
						},
						{
							"internalType": "address",
							"name": "to",
							"type": "address"
						},
						{
							"internalType": "uint256[]",
							"name": "ids",
							"type": "uint256[]"
						},
						{
							"internalType": "uint256[]",
							"name": "values",
							"type": "uint256[]"
						},
						{
							"internalType": "bytes",
							"name": "data",
							"type": "bytes"
						}
					],
					"name": "safeBatchTransferFrom",
					"outputs": [],
					"stateMutability": "nonpayable",
					"type": "function"
				},
				{
					"inputs": [
						{
							"internalType": "address",
							"name": "from",
							"type": "address"
						},
						{
							"internalType": "address",
							"name": "to",
							"type": "address"
						},
						{
							"internalType": "uint256",
							"name": "id",
							"type": "uint256"
						},
						{
							"internalType": "uint256",
							"name": "value",
							"type": "uint256"
						},
						{
							"internalType": "bytes",
							"name": "data",
							"type": "bytes"
						}
					],
					"name": "safeTransferFrom",
					"outputs": [],
					"stateMutability": "nonpayable",
					"type": "function"
				},
				{
					"inputs": [
						{
							"internalType": "address",
							"name": "operator",
							"type": "address"
						},
						{
							"internalType": "bool",
							"name": "approved",
							"type": "bool"
						}
					],
					"name": "setApprovalForAll",
					"outputs": [],
					"stateMutability": "nonpayable",
					"type": "function"
				},
				{
					"inputs": [
						{
							"internalType": "bytes4",
							"name": "interfaceId",
							"type": "bytes4"
						}
					],
					"name": "supportsInterface",
					"outputs": [
						{
							"internalType": "bool",
							"name": "",
							"type": "bool"
						}
					],
					"stateMutability": "view",
					"type": "function"
				},
				{
					"inputs": [],
					"name": "totalSupply",
					"outputs": [
						{
							"internalType": "uint256",
							"name": "",
							"type": "uint256"
						}
					],
					"stateMutability": "view",
					"type": "function"
				},
				{
					"inputs": [
						{
							"internalType": "uint256",
							"name": "id",
							"type": "uint256"
						}
					],
					"name": "totalSupply",
					"outputs": [
						{
							"internalType": "uint256",
							"name": "",
							"type": "uint256"
						}
					],
					"stateMutability": "view",
					"type": "function"
				},
				{
					"inputs": [
						{
							"internalType": "uint256",
							"name": "",
							"type": "uint256"
						}
					],
					"name": "uri",
					"outputs": [
						{
							"internalType": "string",
							"name": "",
							"type": "string"
						}
					],
					"stateMutability": "view",
					"type": "function"
				}
			],
			"devdoc": {
				"custom:security-contact": "krlebyte@gmail.com",
				"errors": {
					"ERC1155InsufficientBalance(address,uint256,uint256,uint256)": [
						{
							"details": "Indicates an error related to the current `balance` of a `sender`. Used in transfers.",
							"params": {
								"balance": "Current balance for the interacting account.",
								"needed": "Minimum amount required to perform a transfer.",
								"sender": "Address whose tokens are being transferred.",
								"tokenId": "Identifier number of a token."
							}
						}
					],
					"ERC1155InvalidApprover(address)": [
						{
							"details": "Indicates a failure with the `approver` of a token to be approved. Used in approvals.",
							"params": {
								"approver": "Address initiating an approval operation."
							}
						}
					],
					"ERC1155InvalidArrayLength(uint256,uint256)": [
						{
							"details": "Indicates an array length mismatch between ids and values in a safeBatchTransferFrom operation. Used in batch transfers.",
							"params": {
								"idsLength": "Length of the array of token identifiers",
								"valuesLength": "Length of the array of token amounts"
							}
						}
					],
					"ERC1155InvalidOperator(address)": [
						{
							"details": "Indicates a failure with the `operator` to be approved. Used in approvals.",
							"params": {
								"operator": "Address that may be allowed to operate on tokens without being their owner."
							}
						}
					],
					"ERC1155InvalidReceiver(address)": [
						{
							"details": "Indicates a failure with the token `receiver`. Used in transfers.",
							"params": {
								"receiver": "Address to which tokens are being transferred."
							}
						}
					],
					"ERC1155InvalidSender(address)": [
						{
							"details": "Indicates a failure with the token `sender`. Used in transfers.",
							"params": {
								"sender": "Address whose tokens are being transferred."
							}
						}
					],
					"ERC1155MissingApprovalForAll(address,address)": [
						{
							"details": "Indicates a failure with the `operator`’s approval. Used in transfers.",
							"params": {
								"operator": "Address that may be allowed to operate on tokens without being their owner.",
								"owner": "Address of the current owner of a token."
							}
						}
					]
				},
				"events": {
					"ApprovalForAll(address,address,bool)": {
						"details": "Emitted when `account` grants or revokes permission to `operator` to transfer their tokens, according to `approved`."
					},
					"TransferBatch(address,address,address,uint256[],uint256[])": {
						"details": "Equivalent to multiple {TransferSingle} events, where `operator`, `from` and `to` are the same for all transfers."
					},
					"TransferSingle(address,address,address,uint256,uint256)": {
						"details": "Emitted when `value` amount of tokens of type `id` are transferred from `from` to `to` by `operator`."
					},
					"URI(string,uint256)": {
						"details": "Emitted when the URI for token type `id` changes to `value`, if it is a non-programmatic URI. If an {URI} event was emitted for `id`, the standard https://eips.ethereum.org/EIPS/eip-1155#metadata-extensions[guarantees] that `value` will equal the value returned by {IERC1155MetadataURI-uri}."
					}
				},
				"kind": "dev",
				"methods": {
					"balanceOf(address,uint256)": {
						"details": "See {IERC1155-balanceOf}."
					},
					"balanceOfBatch(address[],uint256[])": {
						"details": "See {IERC1155-balanceOfBatch}. Requirements: - `accounts` and `ids` must have the same length."
					},
					"exists(uint256)": {
						"details": "Indicates whether any token exist with a given id, or not."
					},
					"isApprovedForAll(address,address)": {
						"details": "See {IERC1155-isApprovedForAll}."
					},
					"safeBatchTransferFrom(address,address,uint256[],uint256[],bytes)": {
						"details": "See {IERC1155-safeBatchTransferFrom}."
					},
					"safeTransferFrom(address,address,uint256,uint256,bytes)": {
						"details": "See {IERC1155-safeTransferFrom}."
					},
					"setApprovalForAll(address,bool)": {
						"details": "See {IERC1155-setApprovalForAll}."
					},
					"supportsInterface(bytes4)": {
						"details": "See {IERC165-supportsInterface}."
					},
					"totalSupply()": {
						"details": "Total value of tokens."
					},
					"totalSupply(uint256)": {
						"details": "Total value of tokens in with a given id."
					},
					"uri(uint256)": {
						"details": "See {IERC1155MetadataURI-uri}. This implementation returns the same URI for *all* token types. It relies on the token type ID substitution mechanism https://eips.ethereum.org/EIPS/eip-1155#metadata[defined in the EIP]. Clients calling this function must replace the `\\{id\\}` substring with the actual token type ID."
					}
				},
				"version": 1
			},
			"evm": {
				"assembly": "    /* \"contracts/Items/Items.sol\":323:1199  contract Items is ERC1155, ERC1155Burnable, ERC1155Supply {... */\n  mstore(0x40, 0xa0)\n    /* \"contracts/Items/Items.sol\":428:545  constructor (address gameAddress)... */\n  callvalue\n  dup1\n  iszero\n  tag_1\n  jumpi\n  0x00\n  dup1\n  revert\ntag_1:\n  pop\n  mload(0x40)\n  sub(codesize, bytecodeSize)\n  dup1\n  bytecodeSize\n  dup4\n  codecopy\n  dup2\n  dup2\n  add\n  0x40\n  mstore\n  dup2\n  add\n  swap1\n  tag_2\n  swap2\n  swap1\n  tag_3\n  jump\t// in\ntag_2:\n    /* \"@openzeppelin/contracts/token/ERC1155/ERC1155.sol\":1251:1313  constructor(string memory uri_) {... */\n  mload(0x40)\n  dup1\n  0x40\n  add\n  0x40\n  mstore\n  dup1\n  0x20\n  dup2\n  mstore\n  0x20\n  add\n  0x68747470733a2f2f736f6d2e657465726e697461732e67616d65732f6a736f6e\n  dup2\n  mstore\n  pop\n    /* \"@openzeppelin/contracts/token/ERC1155/ERC1155.sol\":1293:1306  _setURI(uri_) */\n  tag_7\n    /* \"@openzeppelin/contracts/token/ERC1155/ERC1155.sol\":1301:1305  uri_ */\n  dup2\n    /* \"@openzeppelin/contracts/token/ERC1155/ERC1155.sol\":1293:1300  _setURI */\n  shl(0x20, tag_8)\n    /* \"@openzeppelin/contracts/token/ERC1155/ERC1155.sol\":1293:1306  _setURI(uri_) */\n  0x20\n  shr\n  jump\t// in\ntag_7:\n    /* \"@openzeppelin/contracts/token/ERC1155/ERC1155.sol\":1251:1313  constructor(string memory uri_) {... */\n  pop\n    /* \"contracts/Items/Items.sol\":529:540  gameAddress */\n  dup1\n    /* \"contracts/Items/Items.sol\":514:540  _gameAddress = gameAddress */\n  0xffffffffffffffffffffffffffffffffffffffff\n  and\n  0x80\n  dup2\n  0xffffffffffffffffffffffffffffffffffffffff\n  and\n  dup2\n  mstore\n  pop\n  pop\n    /* \"contracts/Items/Items.sol\":428:545  constructor (address gameAddress)... */\n  pop\n    /* \"contracts/Items/Items.sol\":323:1199  contract Items is ERC1155, ERC1155Burnable, ERC1155Supply {... */\n  jump(tag_10)\n    /* \"@openzeppelin/contracts/token/ERC1155/ERC1155.sol\":10282:10368  function _setURI(string memory newuri) internal virtual {... */\ntag_8:\n    /* \"@openzeppelin/contracts/token/ERC1155/ERC1155.sol\":10355:10361  newuri */\n  dup1\n    /* \"@openzeppelin/contracts/token/ERC1155/ERC1155.sol\":10348:10352  _uri */\n  0x02\n    /* \"@openzeppelin/contracts/token/ERC1155/ERC1155.sol\":10348:10361  _uri = newuri */\n  swap1\n  dup2\n  tag_12\n  swap2\n  swap1\n  tag_13\n  jump\t// in\ntag_12:\n  pop\n    /* \"@openzeppelin/contracts/token/ERC1155/ERC1155.sol\":10282:10368  function _setURI(string memory newuri) internal virtual {... */\n  pop\n  jump\t// out\n    /* \"#utility.yul\":88:205   */\ntag_15:\n    /* \"#utility.yul\":197:198   */\n  0x00\n    /* \"#utility.yul\":194:195   */\n  dup1\n    /* \"#utility.yul\":187:199   */\n  revert\n    /* \"#utility.yul\":334:460   */\ntag_17:\n    /* \"#utility.yul\":371:378   */\n  0x00\n    /* \"#utility.yul\":411:453   */\n  0xffffffffffffffffffffffffffffffffffffffff\n    /* \"#utility.yul\":404:409   */\n  dup3\n    /* \"#utility.yul\":400:454   */\n  and\n    /* \"#utility.yul\":389:454   */\n  swap1\n  pop\n    /* \"#utility.yul\":334:460   */\n  swap2\n  swap1\n  pop\n  jump\t// out\n    /* \"#utility.yul\":466:562   */\ntag_18:\n    /* \"#utility.yul\":503:510   */\n  0x00\n    /* \"#utility.yul\":532:556   */\n  tag_47\n    /* \"#utility.yul\":550:555   */\n  dup3\n    /* \"#utility.yul\":532:556   */\n  tag_17\n  jump\t// in\ntag_47:\n    /* \"#utility.yul\":521:556   */\n  swap1\n  pop\n    /* \"#utility.yul\":466:562   */\n  swap2\n  swap1\n  pop\n  jump\t// out\n    /* \"#utility.yul\":568:690   */\ntag_19:\n    /* \"#utility.yul\":641:665   */\n  tag_49\n    /* \"#utility.yul\":659:664   */\n  dup2\n    /* \"#utility.yul\":641:665   */\n  tag_18\n  jump\t// in\ntag_49:\n    /* \"#utility.yul\":634:639   */\n  dup2\n    /* \"#utility.yul\":631:666   */\n  eq\n    /* \"#utility.yul\":621:684   */\n  tag_50\n  jumpi\n    /* \"#utility.yul\":680:681   */\n  0x00\n    /* \"#utility.yul\":677:678   */\n  dup1\n    /* \"#utility.yul\":670:682   */\n  revert\n    /* \"#utility.yul\":621:684   */\ntag_50:\n    /* \"#utility.yul\":568:690   */\n  pop\n  jump\t// out\n    /* \"#utility.yul\":696:839   */\ntag_20:\n    /* \"#utility.yul\":753:758   */\n  0x00\n    /* \"#utility.yul\":784:790   */\n  dup2\n    /* \"#utility.yul\":778:791   */\n  mload\n    /* \"#utility.yul\":769:791   */\n  swap1\n  pop\n    /* \"#utility.yul\":800:833   */\n  tag_52\n    /* \"#utility.yul\":827:832   */\n  dup2\n    /* \"#utility.yul\":800:833   */\n  tag_19\n  jump\t// in\ntag_52:\n    /* \"#utility.yul\":696:839   */\n  swap3\n  swap2\n  pop\n  pop\n  jump\t// out\n    /* \"#utility.yul\":845:1196   */\ntag_3:\n    /* \"#utility.yul\":915:921   */\n  0x00\n    /* \"#utility.yul\":964:966   */\n  0x20\n    /* \"#utility.yul\":952:961   */\n  dup3\n    /* \"#utility.yul\":943:950   */\n  dup5\n    /* \"#utility.yul\":939:962   */\n  sub\n    /* \"#utility.yul\":935:967   */\n  slt\n    /* \"#utility.yul\":932:1051   */\n  iszero\n  tag_54\n  jumpi\n    /* \"#utility.yul\":970:1049   */\n  tag_55\n  tag_15\n  jump\t// in\ntag_55:\n    /* \"#utility.yul\":932:1051   */\ntag_54:\n    /* \"#utility.yul\":1090:1091   */\n  0x00\n    /* \"#utility.yul\":1115:1179   */\n  tag_56\n    /* \"#utility.yul\":1171:1178   */\n  dup5\n    /* \"#utility.yul\":1162:1168   */\n  dup3\n    /* \"#utility.yul\":1151:1160   */\n  dup6\n    /* \"#utility.yul\":1147:1169   */\n  add\n    /* \"#utility.yul\":1115:1179   */\n  tag_20\n  jump\t// in\ntag_56:\n    /* \"#utility.yul\":1105:1179   */\n  swap2\n  pop\n    /* \"#utility.yul\":1061:1189   */\n  pop\n    /* \"#utility.yul\":845:1196   */\n  swap3\n  swap2\n  pop\n  pop\n  jump\t// out\n    /* \"#utility.yul\":1202:1301   */\ntag_21:\n    /* \"#utility.yul\":1254:1260   */\n  0x00\n    /* \"#utility.yul\":1288:1293   */\n  dup2\n    /* \"#utility.yul\":1282:1294   */\n  mload\n    /* \"#utility.yul\":1272:1294   */\n  swap1\n  pop\n    /* \"#utility.yul\":1202:1301   */\n  swap2\n  swap1\n  pop\n  jump\t// out\n    /* \"#utility.yul\":1307:1487   */\ntag_22:\n    /* \"#utility.yul\":1355:1432   */\n  0x4e487b7100000000000000000000000000000000000000000000000000000000\n    /* \"#utility.yul\":1352:1353   */\n  0x00\n    /* \"#utility.yul\":1345:1433   */\n  mstore\n    /* \"#utility.yul\":1452:1456   */\n  0x41\n    /* \"#utility.yul\":1449:1450   */\n  0x04\n    /* \"#utility.yul\":1442:1457   */\n  mstore\n    /* \"#utility.yul\":1476:1480   */\n  0x24\n    /* \"#utility.yul\":1473:1474   */\n  0x00\n    /* \"#utility.yul\":1466:1481   */\n  revert\n    /* \"#utility.yul\":1493:1673   */\ntag_23:\n    /* \"#utility.yul\":1541:1618   */\n  0x4e487b7100000000000000000000000000000000000000000000000000000000\n    /* \"#utility.yul\":1538:1539   */\n  0x00\n    /* \"#utility.yul\":1531:1619   */\n  mstore\n    /* \"#utility.yul\":1638:1642   */\n  0x22\n    /* \"#utility.yul\":1635:1636   */\n  0x04\n    /* \"#utility.yul\":1628:1643   */\n  mstore\n    /* \"#utility.yul\":1662:1666   */\n  0x24\n    /* \"#utility.yul\":1659:1660   */\n  0x00\n    /* \"#utility.yul\":1652:1667   */\n  revert\n    /* \"#utility.yul\":1679:1999   */\ntag_24:\n    /* \"#utility.yul\":1723:1729   */\n  0x00\n    /* \"#utility.yul\":1760:1761   */\n  0x02\n    /* \"#utility.yul\":1754:1758   */\n  dup3\n    /* \"#utility.yul\":1750:1762   */\n  div\n    /* \"#utility.yul\":1740:1762   */\n  swap1\n  pop\n    /* \"#utility.yul\":1807:1808   */\n  0x01\n    /* \"#utility.yul\":1801:1805   */\n  dup3\n    /* \"#utility.yul\":1797:1809   */\n  and\n    /* \"#utility.yul\":1828:1846   */\n  dup1\n    /* \"#utility.yul\":1818:1899   */\n  tag_61\n  jumpi\n    /* \"#utility.yul\":1884:1888   */\n  0x7f\n    /* \"#utility.yul\":1876:1882   */\n  dup3\n    /* \"#utility.yul\":1872:1889   */\n  and\n    /* \"#utility.yul\":1862:1889   */\n  swap2\n  pop\n    /* \"#utility.yul\":1818:1899   */\ntag_61:\n    /* \"#utility.yul\":1946:1948   */\n  0x20\n    /* \"#utility.yul\":1938:1944   */\n  dup3\n    /* \"#utility.yul\":1935:1949   */\n  lt\n    /* \"#utility.yul\":1915:1933   */\n  dup2\n    /* \"#utility.yul\":1912:1950   */\n  sub\n    /* \"#utility.yul\":1909:1993   */\n  tag_62\n  jumpi\n    /* \"#utility.yul\":1965:1983   */\n  tag_63\n  tag_23\n  jump\t// in\ntag_63:\n    /* \"#utility.yul\":1909:1993   */\ntag_62:\n    /* \"#utility.yul\":1730:1999   */\n  pop\n    /* \"#utility.yul\":1679:1999   */\n  swap2\n  swap1\n  pop\n  jump\t// out\n    /* \"#utility.yul\":2005:2146   */\ntag_25:\n    /* \"#utility.yul\":2054:2058   */\n  0x00\n    /* \"#utility.yul\":2077:2080   */\n  dup2\n    /* \"#utility.yul\":2069:2080   */\n  swap1\n  pop\n    /* \"#utility.yul\":2100:2103   */\n  dup2\n    /* \"#utility.yul\":2097:2098   */\n  0x00\n    /* \"#utility.yul\":2090:2104   */\n  mstore\n    /* \"#utility.yul\":2134:2138   */\n  0x20\n    /* \"#utility.yul\":2131:2132   */\n  0x00\n    /* \"#utility.yul\":2121:2139   */\n  keccak256\n    /* \"#utility.yul\":2113:2139   */\n  swap1\n  pop\n    /* \"#utility.yul\":2005:2146   */\n  swap2\n  swap1\n  pop\n  jump\t// out\n    /* \"#utility.yul\":2152:2245   */\ntag_26:\n    /* \"#utility.yul\":2189:2195   */\n  0x00\n    /* \"#utility.yul\":2236:2238   */\n  0x20\n    /* \"#utility.yul\":2231:2233   */\n  0x1f\n    /* \"#utility.yul\":2224:2229   */\n  dup4\n    /* \"#utility.yul\":2220:2234   */\n  add\n    /* \"#utility.yul\":2216:2239   */\n  div\n    /* \"#utility.yul\":2206:2239   */\n  swap1\n  pop\n    /* \"#utility.yul\":2152:2245   */\n  swap2\n  swap1\n  pop\n  jump\t// out\n    /* \"#utility.yul\":2251:2358   */\ntag_27:\n    /* \"#utility.yul\":2295:2303   */\n  0x00\n    /* \"#utility.yul\":2345:2350   */\n  dup3\n    /* \"#utility.yul\":2339:2343   */\n  dup3\n    /* \"#utility.yul\":2335:2351   */\n  shl\n    /* \"#utility.yul\":2314:2351   */\n  swap1\n  pop\n    /* \"#utility.yul\":2251:2358   */\n  swap3\n  swap2\n  pop\n  pop\n  jump\t// out\n    /* \"#utility.yul\":2364:2757   */\ntag_28:\n    /* \"#utility.yul\":2433:2439   */\n  0x00\n    /* \"#utility.yul\":2483:2484   */\n  0x08\n    /* \"#utility.yul\":2471:2481   */\n  dup4\n    /* \"#utility.yul\":2467:2485   */\n  mul\n    /* \"#utility.yul\":2506:2603   */\n  tag_68\n    /* \"#utility.yul\":2536:2602   */\n  0xffffffffffffffffffffffffffffffffffffffffffffffffffffffffffffffff\n    /* \"#utility.yul\":2525:2534   */\n  dup3\n    /* \"#utility.yul\":2506:2603   */\n  tag_27\n  jump\t// in\ntag_68:\n    /* \"#utility.yul\":2624:2663   */\n  tag_69\n    /* \"#utility.yul\":2654:2662   */\n  dup7\n    /* \"#utility.yul\":2643:2652   */\n  dup4\n    /* \"#utility.yul\":2624:2663   */\n  tag_27\n  jump\t// in\ntag_69:\n    /* \"#utility.yul\":2612:2663   */\n  swap6\n  pop\n    /* \"#utility.yul\":2696:2700   */\n  dup1\n    /* \"#utility.yul\":2692:2701   */\n  not\n    /* \"#utility.yul\":2685:2690   */\n  dup5\n    /* \"#utility.yul\":2681:2702   */\n  and\n    /* \"#utility.yul\":2672:2702   */\n  swap4\n  pop\n    /* \"#utility.yul\":2745:2749   */\n  dup1\n    /* \"#utility.yul\":2735:2743   */\n  dup7\n    /* \"#utility.yul\":2731:2750   */\n  and\n    /* \"#utility.yul\":2724:2729   */\n  dup5\n    /* \"#utility.yul\":2721:2751   */\n  or\n    /* \"#utility.yul\":2711:2751   */\n  swap3\n  pop\n    /* \"#utility.yul\":2440:2757   */\n  pop\n  pop\n    /* \"#utility.yul\":2364:2757   */\n  swap4\n  swap3\n  pop\n  pop\n  pop\n  jump\t// out\n    /* \"#utility.yul\":2763:2840   */\ntag_29:\n    /* \"#utility.yul\":2800:2807   */\n  0x00\n    /* \"#utility.yul\":2829:2834   */\n  dup2\n    /* \"#utility.yul\":2818:2834   */\n  swap1\n  pop\n    /* \"#utility.yul\":2763:2840   */\n  swap2\n  swap1\n  pop\n  jump\t// out\n    /* \"#utility.yul\":2846:2906   */\ntag_30:\n    /* \"#utility.yul\":2874:2877   */\n  0x00\n    /* \"#utility.yul\":2895:2900   */\n  dup2\n    /* \"#utility.yul\":2888:2900   */\n  swap1\n  pop\n    /* \"#utility.yul\":2846:2906   */\n  swap2\n  swap1\n  pop\n  jump\t// out\n    /* \"#utility.yul\":2912:3054   */\ntag_31:\n    /* \"#utility.yul\":2962:2971   */\n  0x00\n    /* \"#utility.yul\":2995:3048   */\n  tag_73\n    /* \"#utility.yul\":3013:3047   */\n  tag_74\n    /* \"#utility.yul\":3022:3046   */\n  tag_75\n    /* \"#utility.yul\":3040:3045   */\n  dup5\n    /* \"#utility.yul\":3022:3046   */\n  tag_29\n  jump\t// in\ntag_75:\n    /* \"#utility.yul\":3013:3047   */\n  tag_30\n  jump\t// in\ntag_74:\n    /* \"#utility.yul\":2995:3048   */\n  tag_29\n  jump\t// in\ntag_73:\n    /* \"#utility.yul\":2982:3048   */\n  swap1\n  pop\n    /* \"#utility.yul\":2912:3054   */\n  swap2\n  swap1\n  pop\n  jump\t// out\n    /* \"#utility.yul\":3060:3135   */\ntag_32:\n    /* \"#utility.yul\":3103:3106   */\n  0x00\n    /* \"#utility.yul\":3124:3129   */\n  dup2\n    /* \"#utility.yul\":3117:3129   */\n  swap1\n  pop\n    /* \"#utility.yul\":3060:3135   */\n  swap2\n  swap1\n  pop\n  jump\t// out\n    /* \"#utility.yul\":3141:3410   */\ntag_33:\n    /* \"#utility.yul\":3251:3290   */\n  tag_78\n    /* \"#utility.yul\":3282:3289   */\n  dup4\n    /* \"#utility.yul\":3251:3290   */\n  tag_31\n  jump\t// in\ntag_78:\n    /* \"#utility.yul\":3312:3403   */\n  tag_79\n    /* \"#utility.yul\":3361:3402   */\n  tag_80\n    /* \"#utility.yul\":3385:3401   */\n  dup3\n    /* \"#utility.yul\":3361:3402   */\n  tag_32\n  jump\t// in\ntag_80:\n    /* \"#utility.yul\":3353:3359   */\n  dup5\n    /* \"#utility.yul\":3346:3350   */\n  dup5\n    /* \"#utility.yul\":3340:3351   */\n  sload\n    /* \"#utility.yul\":3312:3403   */\n  tag_28\n  jump\t// in\ntag_79:\n    /* \"#utility.yul\":3306:3310   */\n  dup3\n    /* \"#utility.yul\":3299:3404   */\n  sstore\n    /* \"#utility.yul\":3217:3410   */\n  pop\n    /* \"#utility.yul\":3141:3410   */\n  pop\n  pop\n  pop\n  jump\t// out\n    /* \"#utility.yul\":3416:3489   */\ntag_34:\n    /* \"#utility.yul\":3461:3464   */\n  0x00\n    /* \"#utility.yul\":3416:3489   */\n  swap1\n  jump\t// out\n    /* \"#utility.yul\":3495:3684   */\ntag_35:\n    /* \"#utility.yul\":3572:3604   */\n  tag_83\n  tag_34\n  jump\t// in\ntag_83:\n    /* \"#utility.yul\":3613:3678   */\n  tag_84\n    /* \"#utility.yul\":3671:3677   */\n  dup2\n    /* \"#utility.yul\":3663:3669   */\n  dup5\n    /* \"#utility.yul\":3657:3661   */\n  dup5\n    /* \"#utility.yul\":3613:3678   */\n  tag_33\n  jump\t// in\ntag_84:\n    /* \"#utility.yul\":3548:3684   */\n  pop\n    /* \"#utility.yul\":3495:3684   */\n  pop\n  pop\n  jump\t// out\n    /* \"#utility.yul\":3690:3876   */\ntag_36:\n    /* \"#utility.yul\":3750:3870   */\ntag_86:\n    /* \"#utility.yul\":3767:3770   */\n  dup2\n    /* \"#utility.yul\":3760:3765   */\n  dup2\n    /* \"#utility.yul\":3757:3771   */\n  lt\n    /* \"#utility.yul\":3750:3870   */\n  iszero\n  tag_88\n  jumpi\n    /* \"#utility.yul\":3821:3860   */\n  tag_89\n    /* \"#utility.yul\":3858:3859   */\n  0x00\n    /* \"#utility.yul\":3851:3856   */\n  dup3\n    /* \"#utility.yul\":3821:3860   */\n  tag_35\n  jump\t// in\ntag_89:\n    /* \"#utility.yul\":3794:3795   */\n  0x01\n    /* \"#utility.yul\":3787:3792   */\n  dup2\n    /* \"#utility.yul\":3783:3796   */\n  add\n    /* \"#utility.yul\":3774:3796   */\n  swap1\n  pop\n    /* \"#utility.yul\":3750:3870   */\n  jump(tag_86)\ntag_88:\n    /* \"#utility.yul\":3690:3876   */\n  pop\n  pop\n  jump\t// out\n    /* \"#utility.yul\":3882:4425   */\ntag_37:\n    /* \"#utility.yul\":3983:3985   */\n  0x1f\n    /* \"#utility.yul\":3978:3981   */\n  dup3\n    /* \"#utility.yul\":3975:3986   */\n  gt\n    /* \"#utility.yul\":3972:4418   */\n  iszero\n  tag_91\n  jumpi\n    /* \"#utility.yul\":4017:4055   */\n  tag_92\n    /* \"#utility.yul\":4049:4054   */\n  dup2\n    /* \"#utility.yul\":4017:4055   */\n  tag_25\n  jump\t// in\ntag_92:\n    /* \"#utility.yul\":4101:4130   */\n  tag_93\n    /* \"#utility.yul\":4119:4129   */\n  dup5\n    /* \"#utility.yul\":4101:4130   */\n  tag_26\n  jump\t// in\ntag_93:\n    /* \"#utility.yul\":4091:4099   */\n  dup2\n    /* \"#utility.yul\":4087:4131   */\n  add\n    /* \"#utility.yul\":4284:4286   */\n  0x20\n    /* \"#utility.yul\":4272:4282   */\n  dup6\n    /* \"#utility.yul\":4269:4287   */\n  lt\n    /* \"#utility.yul\":4266:4315   */\n  iszero\n  tag_94\n  jumpi\n    /* \"#utility.yul\":4305:4313   */\n  dup2\n    /* \"#utility.yul\":4290:4313   */\n  swap1\n  pop\n    /* \"#utility.yul\":4266:4315   */\ntag_94:\n    /* \"#utility.yul\":4328:4408   */\n  tag_95\n    /* \"#utility.yul\":4384:4406   */\n  tag_96\n    /* \"#utility.yul\":4402:4405   */\n  dup6\n    /* \"#utility.yul\":4384:4406   */\n  tag_26\n  jump\t// in\ntag_96:\n    /* \"#utility.yul\":4374:4382   */\n  dup4\n    /* \"#utility.yul\":4370:4407   */\n  add\n    /* \"#utility.yul\":4357:4368   */\n  dup3\n    /* \"#utility.yul\":4328:4408   */\n  tag_36\n  jump\t// in\ntag_95:\n    /* \"#utility.yul\":3987:4418   */\n  pop\n  pop\n    /* \"#utility.yul\":3972:4418   */\ntag_91:\n    /* \"#utility.yul\":3882:4425   */\n  pop\n  pop\n  pop\n  jump\t// out\n    /* \"#utility.yul\":4431:4548   */\ntag_38:\n    /* \"#utility.yul\":4485:4493   */\n  0x00\n    /* \"#utility.yul\":4535:4540   */\n  dup3\n    /* \"#utility.yul\":4529:4533   */\n  dup3\n    /* \"#utility.yul\":4525:4541   */\n  shr\n    /* \"#utility.yul\":4504:4541   */\n  swap1\n  pop\n    /* \"#utility.yul\":4431:4548   */\n  swap3\n  swap2\n  pop\n  pop\n  jump\t// out\n    /* \"#utility.yul\":4554:4723   */\ntag_39:\n    /* \"#utility.yul\":4598:4604   */\n  0x00\n    /* \"#utility.yul\":4631:4682   */\n  tag_99\n    /* \"#utility.yul\":4679:4680   */\n  0x00\n    /* \"#utility.yul\":4675:4681   */\n  not\n    /* \"#utility.yul\":4667:4672   */\n  dup5\n    /* \"#utility.yul\":4664:4665   */\n  0x08\n    /* \"#utility.yul\":4660:4673   */\n  mul\n    /* \"#utility.yul\":4631:4682   */\n  tag_38\n  jump\t// in\ntag_99:\n    /* \"#utility.yul\":4627:4683   */\n  not\n    /* \"#utility.yul\":4712:4716   */\n  dup1\n    /* \"#utility.yul\":4706:4710   */\n  dup4\n    /* \"#utility.yul\":4702:4717   */\n  and\n    /* \"#utility.yul\":4692:4717   */\n  swap2\n  pop\n    /* \"#utility.yul\":4605:4723   */\n  pop\n    /* \"#utility.yul\":4554:4723   */\n  swap3\n  swap2\n  pop\n  pop\n  jump\t// out\n    /* \"#utility.yul\":4728:5023   */\ntag_40:\n    /* \"#utility.yul\":4804:4808   */\n  0x00\n    /* \"#utility.yul\":4950:4979   */\n  tag_101\n    /* \"#utility.yul\":4975:4978   */\n  dup4\n    /* \"#utility.yul\":4969:4973   */\n  dup4\n    /* \"#utility.yul\":4950:4979   */\n  tag_39\n  jump\t// in\ntag_101:\n    /* \"#utility.yul\":4942:4979   */\n  swap2\n  pop\n    /* \"#utility.yul\":5012:5015   */\n  dup3\n    /* \"#utility.yul\":5009:5010   */\n  0x02\n    /* \"#utility.yul\":5005:5016   */\n  mul\n    /* \"#utility.yul\":4999:5003   */\n  dup3\n    /* \"#utility.yul\":4996:5017   */\n  or\n    /* \"#utility.yul\":4988:5017   */\n  swap1\n  pop\n    /* \"#utility.yul\":4728:5023   */\n  swap3\n  swap2\n  pop\n  pop\n  jump\t// out\n    /* \"#utility.yul\":5028:6423   */\ntag_13:\n    /* \"#utility.yul\":5145:5182   */\n  tag_103\n    /* \"#utility.yul\":5178:5181   */\n  dup3\n    /* \"#utility.yul\":5145:5182   */\n  tag_21\n  jump\t// in\ntag_103:\n    /* \"#utility.yul\":5247:5265   */\n  0xffffffffffffffff\n    /* \"#utility.yul\":5239:5245   */\n  dup2\n    /* \"#utility.yul\":5236:5266   */\n  gt\n    /* \"#utility.yul\":5233:5289   */\n  iszero\n  tag_104\n  jumpi\n    /* \"#utility.yul\":5269:5287   */\n  tag_105\n  tag_22\n  jump\t// in\ntag_105:\n    /* \"#utility.yul\":5233:5289   */\ntag_104:\n    /* \"#utility.yul\":5313:5351   */\n  tag_106\n    /* \"#utility.yul\":5345:5349   */\n  dup3\n    /* \"#utility.yul\":5339:5350   */\n  sload\n    /* \"#utility.yul\":5313:5351   */\n  tag_24\n  jump\t// in\ntag_106:\n    /* \"#utility.yul\":5398:5465   */\n  tag_107\n    /* \"#utility.yul\":5458:5464   */\n  dup3\n    /* \"#utility.yul\":5450:5456   */\n  dup3\n    /* \"#utility.yul\":5444:5448   */\n  dup6\n    /* \"#utility.yul\":5398:5465   */\n  tag_37\n  jump\t// in\ntag_107:\n    /* \"#utility.yul\":5492:5493   */\n  0x00\n    /* \"#utility.yul\":5516:5520   */\n  0x20\n    /* \"#utility.yul\":5503:5520   */\n  swap1\n  pop\n    /* \"#utility.yul\":5548:5550   */\n  0x1f\n    /* \"#utility.yul\":5540:5546   */\n  dup4\n    /* \"#utility.yul\":5537:5551   */\n  gt\n    /* \"#utility.yul\":5565:5566   */\n  0x01\n    /* \"#utility.yul\":5560:6178   */\n  dup2\n  eq\n  tag_109\n  jumpi\n    /* \"#utility.yul\":6222:6223   */\n  0x00\n    /* \"#utility.yul\":6239:6245   */\n  dup5\n    /* \"#utility.yul\":6236:6313   */\n  iszero\n  tag_110\n  jumpi\n    /* \"#utility.yul\":6288:6297   */\n  dup3\n    /* \"#utility.yul\":6283:6286   */\n  dup8\n    /* \"#utility.yul\":6279:6298   */\n  add\n    /* \"#utility.yul\":6273:6299   */\n  mload\n    /* \"#utility.yul\":6264:6299   */\n  swap1\n  pop\n    /* \"#utility.yul\":6236:6313   */\ntag_110:\n    /* \"#utility.yul\":6339:6406   */\n  tag_111\n    /* \"#utility.yul\":6399:6405   */\n  dup6\n    /* \"#utility.yul\":6392:6397   */\n  dup3\n    /* \"#utility.yul\":6339:6406   */\n  tag_40\n  jump\t// in\ntag_111:\n    /* \"#utility.yul\":6333:6337   */\n  dup7\n    /* \"#utility.yul\":6326:6407   */\n  sstore\n    /* \"#utility.yul\":6195:6417   */\n  pop\n    /* \"#utility.yul\":5530:6417   */\n  jump(tag_108)\n    /* \"#utility.yul\":5560:6178   */\ntag_109:\n    /* \"#utility.yul\":5612:5616   */\n  0x1f\n    /* \"#utility.yul\":5608:5617   */\n  not\n    /* \"#utility.yul\":5600:5606   */\n  dup5\n    /* \"#utility.yul\":5596:5618   */\n  and\n    /* \"#utility.yul\":5646:5683   */\n  tag_112\n    /* \"#utility.yul\":5678:5682   */\n  dup7\n    /* \"#utility.yul\":5646:5683   */\n  tag_25\n  jump\t// in\ntag_112:\n    /* \"#utility.yul\":5705:5706   */\n  0x00\n    /* \"#utility.yul\":5719:5927   */\ntag_113:\n    /* \"#utility.yul\":5733:5740   */\n  dup3\n    /* \"#utility.yul\":5730:5731   */\n  dup2\n    /* \"#utility.yul\":5727:5741   */\n  lt\n    /* \"#utility.yul\":5719:5927   */\n  iszero\n  tag_115\n  jumpi\n    /* \"#utility.yul\":5812:5821   */\n  dup5\n    /* \"#utility.yul\":5807:5810   */\n  dup10\n    /* \"#utility.yul\":5803:5822   */\n  add\n    /* \"#utility.yul\":5797:5823   */\n  mload\n    /* \"#utility.yul\":5789:5795   */\n  dup3\n    /* \"#utility.yul\":5782:5824   */\n  sstore\n    /* \"#utility.yul\":5863:5864   */\n  0x01\n    /* \"#utility.yul\":5855:5861   */\n  dup3\n    /* \"#utility.yul\":5851:5865   */\n  add\n    /* \"#utility.yul\":5841:5865   */\n  swap2\n  pop\n    /* \"#utility.yul\":5910:5912   */\n  0x20\n    /* \"#utility.yul\":5899:5908   */\n  dup6\n    /* \"#utility.yul\":5895:5913   */\n  add\n    /* \"#utility.yul\":5882:5913   */\n  swap5\n  pop\n    /* \"#utility.yul\":5756:5760   */\n  0x20\n    /* \"#utility.yul\":5753:5754   */\n  dup2\n    /* \"#utility.yul\":5749:5761   */\n  add\n    /* \"#utility.yul\":5744:5761   */\n  swap1\n  pop\n    /* \"#utility.yul\":5719:5927   */\n  jump(tag_113)\ntag_115:\n    /* \"#utility.yul\":5955:5961   */\n  dup7\n    /* \"#utility.yul\":5946:5953   */\n  dup4\n    /* \"#utility.yul\":5943:5962   */\n  lt\n    /* \"#utility.yul\":5940:6119   */\n  iszero\n  tag_116\n  jumpi\n    /* \"#utility.yul\":6013:6022   */\n  dup5\n    /* \"#utility.yul\":6008:6011   */\n  dup10\n    /* \"#utility.yul\":6004:6023   */\n  add\n    /* \"#utility.yul\":5998:6024   */\n  mload\n    /* \"#utility.yul\":6056:6104   */\n  tag_117\n    /* \"#utility.yul\":6098:6102   */\n  0x1f\n    /* \"#utility.yul\":6090:6096   */\n  dup10\n    /* \"#utility.yul\":6086:6103   */\n  and\n    /* \"#utility.yul\":6075:6084   */\n  dup3\n    /* \"#utility.yul\":6056:6104   */\n  tag_39\n  jump\t// in\ntag_117:\n    /* \"#utility.yul\":6048:6054   */\n  dup4\n    /* \"#utility.yul\":6041:6105   */\n  sstore\n    /* \"#utility.yul\":5963:6119   */\n  pop\n    /* \"#utility.yul\":5940:6119   */\ntag_116:\n    /* \"#utility.yul\":6165:6166   */\n  0x01\n    /* \"#utility.yul\":6161:6162   */\n  0x02\n    /* \"#utility.yul\":6153:6159   */\n  dup9\n    /* \"#utility.yul\":6149:6163   */\n  mul\n    /* \"#utility.yul\":6145:6167   */\n  add\n    /* \"#utility.yul\":6139:6143   */\n  dup9\n    /* \"#utility.yul\":6132:6168   */\n  sstore\n    /* \"#utility.yul\":5567:6178   */\n  pop\n  pop\n  pop\n    /* \"#utility.yul\":5530:6417   */\ntag_108:\n  pop\n    /* \"#utility.yul\":5120:6423   */\n  pop\n  pop\n  pop\n    /* \"#utility.yul\":5028:6423   */\n  pop\n  pop\n  jump\t// out\n    /* \"contracts/Items/Items.sol\":323:1199  contract Items is ERC1155, ERC1155Burnable, ERC1155Supply {... */\ntag_10:\n  mload(0x80)\n  codecopy(0x00, dataOffset(sub_0), dataSize(sub_0))\n  0x00\n  assignImmutable(\"0x6793c6a9604136a1b6d4ba669c8fd19d062a01f122f4a844e550533940770ef1\")\n  return(0x00, dataSize(sub_0))\nstop\n\nsub_0: assembly {\n        /* \"contracts/Items/Items.sol\":323:1199  contract Items is ERC1155, ERC1155Burnable, ERC1155Supply {... */\n      mstore(0x40, 0x80)\n      callvalue\n      dup1\n      iszero\n      tag_1\n      jumpi\n      0x00\n      dup1\n      revert\n    tag_1:\n      pop\n      jumpi(tag_2, lt(calldatasize, 0x04))\n      shr(0xe0, calldataload(0x00))\n      dup1\n      0x4f558e79\n      gt\n      tag_18\n      jumpi\n      dup1\n      0xbd85b039\n      gt\n      tag_19\n      jumpi\n      dup1\n      0xbd85b039\n      eq\n      tag_14\n      jumpi\n      dup1\n      0xe985e9c5\n      eq\n      tag_15\n      jumpi\n      dup1\n      0xf242432a\n      eq\n      tag_16\n      jumpi\n      dup1\n      0xf5298aca\n      eq\n      tag_17\n      jumpi\n      jump(tag_2)\n    tag_19:\n      dup1\n      0x4f558e79\n      eq\n      tag_10\n      jumpi\n      dup1\n      0x6b20c454\n      eq\n      tag_11\n      jumpi\n      dup1\n      0x731133e9\n      eq\n      tag_12\n      jumpi\n      dup1\n      0xa22cb465\n      eq\n      tag_13\n      jumpi\n      jump(tag_2)\n    tag_18:\n      dup1\n      0x18160ddd\n      gt\n      tag_20\n      jumpi\n      dup1\n      0x18160ddd\n      eq\n      tag_6\n      jumpi\n      dup1\n      0x1f7fdffa\n      eq\n      tag_7\n      jumpi\n      dup1\n      0x2eb2c2d6\n      eq\n      tag_8\n      jumpi\n      dup1\n      0x4e1273f4\n      eq\n      tag_9\n      jumpi\n      jump(tag_2)\n    tag_20:\n      dup1\n      0xfdd58e\n      eq\n      tag_3\n      jumpi\n      dup1\n      0x01ffc9a7\n      eq\n      tag_4\n      jumpi\n      dup1\n      0x0e89341c\n      eq\n      tag_5\n      jumpi\n    tag_2:\n      0x00\n      dup1\n      revert\n        /* \"@openzeppelin/contracts/token/ERC1155/ERC1155.sol\":2247:2379  function balanceOf(address account, uint256 id) public view virtual returns (uint256) {... */\n    tag_3:\n      tag_21\n      0x04\n      dup1\n      calldatasize\n      sub\n      dup2\n      add\n      swap1\n      tag_22\n      swap2\n      swap1\n      tag_23\n      jump\t// in\n    tag_22:\n      tag_24\n      jump\t// in\n    tag_21:\n      mload(0x40)\n      tag_25\n      swap2\n      swap1\n      tag_26\n      jump\t// in\n    tag_25:\n      mload(0x40)\n      dup1\n      swap2\n      sub\n      swap1\n      return\n        /* \"@openzeppelin/contracts/token/ERC1155/ERC1155.sol\":1380:1685  function supportsInterface(bytes4 interfaceId) public view virtual override(ERC165, IERC165) returns (bool) {... */\n    tag_4:\n      tag_27\n      0x04\n      dup1\n      calldatasize\n      sub\n      dup2\n      add\n      swap1\n      tag_28\n      swap2\n      swap1\n      tag_29\n      jump\t// in\n    tag_28:\n      tag_30\n      jump\t// in\n    tag_27:\n      mload(0x40)\n      tag_31\n      swap2\n      swap1\n      tag_32\n      jump\t// in\n    tag_31:\n      mload(0x40)\n      dup1\n      swap2\n      sub\n      swap1\n      return\n        /* \"@openzeppelin/contracts/token/ERC1155/ERC1155.sol\":2084:2187  function uri(uint256 /* id */) public view virtual returns (string memory) {... */\n    tag_5:\n      tag_33\n      0x04\n      dup1\n      calldatasize\n      sub\n      dup2\n      add\n      swap1\n      tag_34\n      swap2\n      swap1\n      tag_35\n      jump\t// in\n    tag_34:\n      tag_36\n      jump\t// in\n    tag_33:\n      mload(0x40)\n      tag_37\n      swap2\n      swap1\n      tag_38\n      jump\t// in\n    tag_37:\n      mload(0x40)\n      dup1\n      swap2\n      sub\n      swap1\n      return\n        /* \"@openzeppelin/contracts/token/ERC1155/extensions/ERC1155Supply.sol\":1127:1227  function totalSupply() public view virtual returns (uint256) {... */\n    tag_6:\n      tag_39\n      tag_40\n      jump\t// in\n    tag_39:\n      mload(0x40)\n      tag_41\n      swap2\n      swap1\n      tag_26\n      jump\t// in\n    tag_41:\n      mload(0x40)\n      dup1\n      swap2\n      sub\n      swap1\n      return\n        /* \"contracts/Items/Items.sol\":813:993  function mintBatch (... */\n    tag_7:\n      tag_42\n      0x04\n      dup1\n      calldatasize\n      sub\n      dup2\n      add\n      swap1\n      tag_43\n      swap2\n      swap1\n      tag_44\n      jump\t// in\n    tag_43:\n      tag_45\n      jump\t// in\n    tag_42:\n      stop\n        /* \"@openzeppelin/contracts/token/ERC1155/ERC1155.sol\":4014:4443  function safeBatchTransferFrom(... */\n    tag_8:\n      tag_46\n      0x04\n      dup1\n      calldatasize\n      sub\n      dup2\n      add\n      swap1\n      tag_47\n      swap2\n      swap1\n      tag_48\n      jump\t// in\n    tag_47:\n      tag_49\n      jump\t// in\n    tag_46:\n      stop\n        /* \"@openzeppelin/contracts/token/ERC1155/ERC1155.sol\":2536:3088  function balanceOfBatch(... */\n    tag_9:\n      tag_50\n      0x04\n      dup1\n      calldatasize\n      sub\n      dup2\n      add\n      swap1\n      tag_51\n      swap2\n      swap1\n      tag_52\n      jump\t// in\n    tag_51:\n      tag_53\n      jump\t// in\n    tag_50:\n      mload(0x40)\n      tag_54\n      swap2\n      swap1\n      tag_55\n      jump\t// in\n    tag_54:\n      mload(0x40)\n      dup1\n      swap2\n      sub\n      swap1\n      return\n        /* \"@openzeppelin/contracts/token/ERC1155/extensions/ERC1155Supply.sol\":1320:1426  function exists(uint256 id) public view virtual returns (bool) {... */\n    tag_10:\n      tag_56\n      0x04\n      dup1\n      calldatasize\n      sub\n      dup2\n      add\n      swap1\n      tag_57\n      swap2\n      swap1\n      tag_35\n      jump\t// in\n    tag_57:\n      tag_58\n      jump\t// in\n    tag_56:\n      mload(0x40)\n      tag_59\n      swap2\n      swap1\n      tag_32\n      jump\t// in\n    tag_59:\n      mload(0x40)\n      dup1\n      swap2\n      sub\n      swap1\n      return\n        /* \"@openzeppelin/contracts/token/ERC1155/extensions/ERC1155Burnable.sol\":681:994  function burnBatch(address account, uint256[] memory ids, uint256[] memory values) public virtual {... */\n    tag_11:\n      tag_60\n      0x04\n      dup1\n      calldatasize\n      sub\n      dup2\n      add\n      swap1\n      tag_61\n      swap2\n      swap1\n      tag_62\n      jump\t// in\n    tag_61:\n      tag_63\n      jump\t// in\n    tag_60:\n      stop\n        /* \"contracts/Items/Items.sol\":651:809  function mint (... */\n    tag_12:\n      tag_64\n      0x04\n      dup1\n      calldatasize\n      sub\n      dup2\n      add\n      swap1\n      tag_65\n      swap2\n      swap1\n      tag_66\n      jump\t// in\n    tag_65:\n      tag_67\n      jump\t// in\n    tag_64:\n      stop\n        /* \"@openzeppelin/contracts/token/ERC1155/ERC1155.sol\":3156:3300  function setApprovalForAll(address operator, bool approved) public virtual {... */\n    tag_13:\n      tag_68\n      0x04\n      dup1\n      calldatasize\n      sub\n      dup2\n      add\n      swap1\n      tag_69\n      swap2\n      swap1\n      tag_70\n      jump\t// in\n    tag_69:\n      tag_71\n      jump\t// in\n    tag_68:\n      stop\n        /* \"@openzeppelin/contracts/token/ERC1155/extensions/ERC1155Supply.sol\":959:1070  function totalSupply(uint256 id) public view virtual returns (uint256) {... */\n    tag_14:\n      tag_72\n      0x04\n      dup1\n      calldatasize\n      sub\n      dup2\n      add\n      swap1\n      tag_73\n      swap2\n      swap1\n      tag_35\n      jump\t// in\n    tag_73:\n      tag_74\n      jump\t// in\n    tag_72:\n      mload(0x40)\n      tag_75\n      swap2\n      swap1\n      tag_26\n      jump\t// in\n    tag_75:\n      mload(0x40)\n      dup1\n      swap2\n      sub\n      swap1\n      return\n        /* \"@openzeppelin/contracts/token/ERC1155/ERC1155.sol\":3367:3524  function isApprovedForAll(address account, address operator) public view virtual returns (bool) {... */\n    tag_15:\n      tag_76\n      0x04\n      dup1\n      calldatasize\n      sub\n      dup2\n      add\n      swap1\n      tag_77\n      swap2\n      swap1\n      tag_78\n      jump\t// in\n    tag_77:\n      tag_79\n      jump\t// in\n    tag_76:\n      mload(0x40)\n      tag_80\n      swap2\n      swap1\n      tag_32\n      jump\t// in\n    tag_80:\n      mload(0x40)\n      dup1\n      swap2\n      sub\n      swap1\n      return\n        /* \"@openzeppelin/contracts/token/ERC1155/ERC1155.sol\":3591:3942  function safeTransferFrom(address from, address to, uint256 id, uint256 value, bytes memory data) public virtual {... */\n    tag_16:\n      tag_81\n      0x04\n      dup1\n      calldatasize\n      sub\n      dup2\n      add\n      swap1\n      tag_82\n      swap2\n      swap1\n      tag_83\n      jump\t// in\n    tag_82:\n      tag_84\n      jump\t// in\n    tag_81:\n      stop\n        /* \"@openzeppelin/contracts/token/ERC1155/extensions/ERC1155Burnable.sol\":394:675  function burn(address account, uint256 id, uint256 value) public virtual {... */\n    tag_17:\n      tag_85\n      0x04\n      dup1\n      calldatasize\n      sub\n      dup2\n      add\n      swap1\n      tag_86\n      swap2\n      swap1\n      tag_87\n      jump\t// in\n    tag_86:\n      tag_88\n      jump\t// in\n    tag_85:\n      stop\n        /* \"@openzeppelin/contracts/token/ERC1155/ERC1155.sol\":2247:2379  function balanceOf(address account, uint256 id) public view virtual returns (uint256) {... */\n    tag_24:\n        /* \"@openzeppelin/contracts/token/ERC1155/ERC1155.sol\":2324:2331  uint256 */\n      0x00\n        /* \"@openzeppelin/contracts/token/ERC1155/ERC1155.sol\":2350:2359  _balances */\n      dup1\n        /* \"@openzeppelin/contracts/token/ERC1155/ERC1155.sol\":2350:2363  _balances[id] */\n      0x00\n        /* \"@openzeppelin/contracts/token/ERC1155/ERC1155.sol\":2360:2362  id */\n      dup4\n        /* \"@openzeppelin/contracts/token/ERC1155/ERC1155.sol\":2350:2363  _balances[id] */\n      dup2\n      mstore\n      0x20\n      add\n      swap1\n      dup2\n      mstore\n      0x20\n      add\n      0x00\n      keccak256\n        /* \"@openzeppelin/contracts/token/ERC1155/ERC1155.sol\":2350:2372  _balances[id][account] */\n      0x00\n        /* \"@openzeppelin/contracts/token/ERC1155/ERC1155.sol\":2364:2371  account */\n      dup5\n        /* \"@openzeppelin/contracts/token/ERC1155/ERC1155.sol\":2350:2372  _balances[id][account] */\n      0xffffffffffffffffffffffffffffffffffffffff\n      and\n      0xffffffffffffffffffffffffffffffffffffffff\n      and\n      dup2\n      mstore\n      0x20\n      add\n      swap1\n      dup2\n      mstore\n      0x20\n      add\n      0x00\n      keccak256\n      sload\n        /* \"@openzeppelin/contracts/token/ERC1155/ERC1155.sol\":2343:2372  return _balances[id][account] */\n      swap1\n      pop\n        /* \"@openzeppelin/contracts/token/ERC1155/ERC1155.sol\":2247:2379  function balanceOf(address account, uint256 id) public view virtual returns (uint256) {... */\n      swap3\n      swap2\n      pop\n      pop\n      jump\t// out\n        /* \"@openzeppelin/contracts/token/ERC1155/ERC1155.sol\":1380:1685  function supportsInterface(bytes4 interfaceId) public view virtual override(ERC165, IERC165) returns (bool) {... */\n    tag_30:\n        /* \"@openzeppelin/contracts/token/ERC1155/ERC1155.sol\":1482:1486  bool */\n      0x00\n        /* \"@openzeppelin/contracts/token/ERC1155/ERC1155.sol\":1532:1558  type(IERC1155).interfaceId */\n      0xd9b67a2600000000000000000000000000000000000000000000000000000000\n        /* \"@openzeppelin/contracts/token/ERC1155/ERC1155.sol\":1517:1558  interfaceId == type(IERC1155).interfaceId */\n      not(0xffffffffffffffffffffffffffffffffffffffffffffffffffffffff)\n      and\n        /* \"@openzeppelin/contracts/token/ERC1155/ERC1155.sol\":1517:1528  interfaceId */\n      dup3\n        /* \"@openzeppelin/contracts/token/ERC1155/ERC1155.sol\":1517:1558  interfaceId == type(IERC1155).interfaceId */\n      not(0xffffffffffffffffffffffffffffffffffffffffffffffffffffffff)\n      and\n      eq\n        /* \"@openzeppelin/contracts/token/ERC1155/ERC1155.sol\":1517:1626  interfaceId == type(IERC1155).interfaceId ||... */\n      dup1\n      tag_91\n      jumpi\n      pop\n        /* \"@openzeppelin/contracts/token/ERC1155/ERC1155.sol\":1589:1626  type(IERC1155MetadataURI).interfaceId */\n      0x0e89341c00000000000000000000000000000000000000000000000000000000\n        /* \"@openzeppelin/contracts/token/ERC1155/ERC1155.sol\":1574:1626  interfaceId == type(IERC1155MetadataURI).interfaceId */\n      not(0xffffffffffffffffffffffffffffffffffffffffffffffffffffffff)\n      and\n        /* \"@openzeppelin/contracts/token/ERC1155/ERC1155.sol\":1574:1585  interfaceId */\n      dup3\n        /* \"@openzeppelin/contracts/token/ERC1155/ERC1155.sol\":1574:1626  interfaceId == type(IERC1155MetadataURI).interfaceId */\n      not(0xffffffffffffffffffffffffffffffffffffffffffffffffffffffff)\n      and\n      eq\n        /* \"@openzeppelin/contracts/token/ERC1155/ERC1155.sol\":1517:1626  interfaceId == type(IERC1155).interfaceId ||... */\n    tag_91:\n        /* \"@openzeppelin/contracts/token/ERC1155/ERC1155.sol\":1517:1678  interfaceId == type(IERC1155).interfaceId ||... */\n      dup1\n      tag_92\n      jumpi\n      pop\n        /* \"@openzeppelin/contracts/token/ERC1155/ERC1155.sol\":1642:1678  super.supportsInterface(interfaceId) */\n      tag_93\n        /* \"@openzeppelin/contracts/token/ERC1155/ERC1155.sol\":1666:1677  interfaceId */\n      dup3\n        /* \"@openzeppelin/contracts/token/ERC1155/ERC1155.sol\":1642:1665  super.supportsInterface */\n      tag_94\n        /* \"@openzeppelin/contracts/token/ERC1155/ERC1155.sol\":1642:1678  super.supportsInterface(interfaceId) */\n      jump\t// in\n    tag_93:\n        /* \"@openzeppelin/contracts/token/ERC1155/ERC1155.sol\":1517:1678  interfaceId == type(IERC1155).interfaceId ||... */\n    tag_92:\n        /* \"@openzeppelin/contracts/token/ERC1155/ERC1155.sol\":1498:1678  return... */\n      swap1\n      pop\n        /* \"@openzeppelin/contracts/token/ERC1155/ERC1155.sol\":1380:1685  function supportsInterface(bytes4 interfaceId) public view virtual override(ERC165, IERC165) returns (bool) {... */\n      swap2\n      swap1\n      pop\n      jump\t// out\n        /* \"@openzeppelin/contracts/token/ERC1155/ERC1155.sol\":2084:2187  function uri(uint256 /* id */) public view virtual returns (string memory) {... */\n    tag_36:\n        /* \"@openzeppelin/contracts/token/ERC1155/ERC1155.sol\":2144:2157  string memory */\n      0x60\n        /* \"@openzeppelin/contracts/token/ERC1155/ERC1155.sol\":2176:2180  _uri */\n      0x02\n        /* \"@openzeppelin/contracts/token/ERC1155/ERC1155.sol\":2169:2180  return _uri */\n      dup1\n      sload\n      tag_96\n      swap1\n      tag_97\n      jump\t// in\n    tag_96:\n      dup1\n      0x1f\n      add\n      0x20\n      dup1\n      swap2\n      div\n      mul\n      0x20\n      add\n      mload(0x40)\n      swap1\n      dup2\n      add\n      0x40\n      mstore\n      dup1\n      swap3\n      swap2\n      swap1\n      dup2\n      dup2\n      mstore\n      0x20\n      add\n      dup3\n      dup1\n      sload\n      tag_98\n      swap1\n      tag_97\n      jump\t// in\n    tag_98:\n      dup1\n      iszero\n      tag_99\n      jumpi\n      dup1\n      0x1f\n      lt\n      tag_100\n      jumpi\n      0x0100\n      dup1\n      dup4\n      sload\n      div\n      mul\n      dup4\n      mstore\n      swap2\n      0x20\n      add\n      swap2\n      jump(tag_99)\n    tag_100:\n      dup3\n      add\n      swap2\n      swap1\n      0x00\n      mstore\n      keccak256(0x00, 0x20)\n      swap1\n    tag_101:\n      dup2\n      sload\n      dup2\n      mstore\n      swap1\n      0x01\n      add\n      swap1\n      0x20\n      add\n      dup1\n      dup4\n      gt\n      tag_101\n      jumpi\n      dup3\n      swap1\n      sub\n      0x1f\n      and\n      dup3\n      add\n      swap2\n    tag_99:\n      pop\n      pop\n      pop\n      pop\n      pop\n      swap1\n      pop\n        /* \"@openzeppelin/contracts/token/ERC1155/ERC1155.sol\":2084:2187  function uri(uint256 /* id */) public view virtual returns (string memory) {... */\n      swap2\n      swap1\n      pop\n      jump\t// out\n        /* \"@openzeppelin/contracts/token/ERC1155/extensions/ERC1155Supply.sol\":1127:1227  function totalSupply() public view virtual returns (uint256) {... */\n    tag_40:\n        /* \"@openzeppelin/contracts/token/ERC1155/extensions/ERC1155Supply.sol\":1179:1186  uint256 */\n      0x00\n        /* \"@openzeppelin/contracts/token/ERC1155/extensions/ERC1155Supply.sol\":1205:1220  _totalSupplyAll */\n      sload(0x04)\n        /* \"@openzeppelin/contracts/token/ERC1155/extensions/ERC1155Supply.sol\":1198:1220  return _totalSupplyAll */\n      swap1\n      pop\n        /* \"@openzeppelin/contracts/token/ERC1155/extensions/ERC1155Supply.sol\":1127:1227  function totalSupply() public view virtual returns (uint256) {... */\n      swap1\n      jump\t// out\n        /* \"contracts/Items/Items.sol\":813:993  function mintBatch (... */\n    tag_45:\n        /* \"contracts/Items/Items.sol\":595:607  _gameAddress */\n      immutable(\"0x6793c6a9604136a1b6d4ba669c8fd19d062a01f122f4a844e550533940770ef1\")\n        /* \"contracts/Items/Items.sol\":581:607  msg.sender == _gameAddress */\n      0xffffffffffffffffffffffffffffffffffffffff\n      and\n        /* \"contracts/Items/Items.sol\":581:591  msg.sender */\n      caller\n        /* \"contracts/Items/Items.sol\":581:607  msg.sender == _gameAddress */\n      0xffffffffffffffffffffffffffffffffffffffff\n      and\n      eq\n        /* \"contracts/Items/Items.sol\":573:640  require(msg.sender == _gameAddress, \"Only game contract can call.\") */\n      tag_104\n      jumpi\n      mload(0x40)\n      0x08c379a000000000000000000000000000000000000000000000000000000000\n      dup2\n      mstore\n      0x04\n      add\n      tag_105\n      swap1\n      tag_106\n      jump\t// in\n    tag_105:\n      mload(0x40)\n      dup1\n      swap2\n      sub\n      swap1\n      revert\n    tag_104:\n        /* \"contracts/Items/Items.sol\":954:988  _mintBatch(to, ids, amounts, data) */\n      tag_108\n        /* \"contracts/Items/Items.sol\":965:967  to */\n      dup5\n        /* \"contracts/Items/Items.sol\":969:972  ids */\n      dup5\n        /* \"contracts/Items/Items.sol\":974:981  amounts */\n      dup5\n        /* \"contracts/Items/Items.sol\":983:987  data */\n      dup5\n        /* \"contracts/Items/Items.sol\":954:964  _mintBatch */\n      tag_109\n        /* \"contracts/Items/Items.sol\":954:988  _mintBatch(to, ids, amounts, data) */\n      jump\t// in\n    tag_108:\n        /* \"contracts/Items/Items.sol\":813:993  function mintBatch (... */\n      pop\n      pop\n      pop\n      pop\n      jump\t// out\n        /* \"@openzeppelin/contracts/token/ERC1155/ERC1155.sol\":4014:4443  function safeBatchTransferFrom(... */\n    tag_49:\n        /* \"@openzeppelin/contracts/token/ERC1155/ERC1155.sol\":4208:4222  address sender */\n      0x00\n        /* \"@openzeppelin/contracts/token/ERC1155/ERC1155.sol\":4225:4237  _msgSender() */\n      tag_111\n        /* \"@openzeppelin/contracts/token/ERC1155/ERC1155.sol\":4225:4235  _msgSender */\n      tag_112\n        /* \"@openzeppelin/contracts/token/ERC1155/ERC1155.sol\":4225:4237  _msgSender() */\n      jump\t// in\n    tag_111:\n        /* \"@openzeppelin/contracts/token/ERC1155/ERC1155.sol\":4208:4237  address sender = _msgSender() */\n      swap1\n      pop\n        /* \"@openzeppelin/contracts/token/ERC1155/ERC1155.sol\":4259:4265  sender */\n      dup1\n        /* \"@openzeppelin/contracts/token/ERC1155/ERC1155.sol\":4251:4265  from != sender */\n      0xffffffffffffffffffffffffffffffffffffffff\n      and\n        /* \"@openzeppelin/contracts/token/ERC1155/ERC1155.sol\":4251:4255  from */\n      dup7\n        /* \"@openzeppelin/contracts/token/ERC1155/ERC1155.sol\":4251:4265  from != sender */\n      0xffffffffffffffffffffffffffffffffffffffff\n      and\n      eq\n      iszero\n        /* \"@openzeppelin/contracts/token/ERC1155/ERC1155.sol\":4251:4300  from != sender && !isApprovedForAll(from, sender) */\n      dup1\n      iszero\n      tag_113\n      jumpi\n      pop\n        /* \"@openzeppelin/contracts/token/ERC1155/ERC1155.sol\":4270:4300  isApprovedForAll(from, sender) */\n      tag_114\n        /* \"@openzeppelin/contracts/token/ERC1155/ERC1155.sol\":4287:4291  from */\n      dup7\n        /* \"@openzeppelin/contracts/token/ERC1155/ERC1155.sol\":4293:4299  sender */\n      dup3\n        /* \"@openzeppelin/contracts/token/ERC1155/ERC1155.sol\":4270:4286  isApprovedForAll */\n      tag_79\n        /* \"@openzeppelin/contracts/token/ERC1155/ERC1155.sol\":4270:4300  isApprovedForAll(from, sender) */\n      jump\t// in\n    tag_114:\n        /* \"@openzeppelin/contracts/token/ERC1155/ERC1155.sol\":4269:4300  !isApprovedForAll(from, sender) */\n      iszero\n        /* \"@openzeppelin/contracts/token/ERC1155/ERC1155.sol\":4251:4300  from != sender && !isApprovedForAll(from, sender) */\n    tag_113:\n        /* \"@openzeppelin/contracts/token/ERC1155/ERC1155.sol\":4247:4376  if (from != sender && !isApprovedForAll(from, sender)) {... */\n      iszero\n      tag_115\n      jumpi\n        /* \"@openzeppelin/contracts/token/ERC1155/ERC1155.sol\":4352:4358  sender */\n      dup1\n        /* \"@openzeppelin/contracts/token/ERC1155/ERC1155.sol\":4360:4364  from */\n      dup7\n        /* \"@openzeppelin/contracts/token/ERC1155/ERC1155.sol\":4323:4365  ERC1155MissingApprovalForAll(sender, from) */\n      mload(0x40)\n      0xe237d92200000000000000000000000000000000000000000000000000000000\n      dup2\n      mstore\n      0x04\n      add\n      tag_116\n      swap3\n      swap2\n      swap1\n      tag_117\n      jump\t// in\n    tag_116:\n      mload(0x40)\n      dup1\n      swap2\n      sub\n      swap1\n      revert\n        /* \"@openzeppelin/contracts/token/ERC1155/ERC1155.sol\":4247:4376  if (from != sender && !isApprovedForAll(from, sender)) {... */\n    tag_115:\n        /* \"@openzeppelin/contracts/token/ERC1155/ERC1155.sol\":4385:4436  _safeBatchTransferFrom(from, to, ids, values, data) */\n      tag_118\n        /* \"@openzeppelin/contracts/token/ERC1155/ERC1155.sol\":4408:4412  from */\n      dup7\n        /* \"@openzeppelin/contracts/token/ERC1155/ERC1155.sol\":4414:4416  to */\n      dup7\n        /* \"@openzeppelin/contracts/token/ERC1155/ERC1155.sol\":4418:4421  ids */\n      dup7\n        /* \"@openzeppelin/contracts/token/ERC1155/ERC1155.sol\":4423:4429  values */\n      dup7\n        /* \"@openzeppelin/contracts/token/ERC1155/ERC1155.sol\":4431:4435  data */\n      dup7\n        /* \"@openzeppelin/contracts/token/ERC1155/ERC1155.sol\":4385:4407  _safeBatchTransferFrom */\n      tag_119\n        /* \"@openzeppelin/contracts/token/ERC1155/ERC1155.sol\":4385:4436  _safeBatchTransferFrom(from, to, ids, values, data) */\n      jump\t// in\n    tag_118:\n        /* \"@openzeppelin/contracts/token/ERC1155/ERC1155.sol\":4198:4443  {... */\n      pop\n        /* \"@openzeppelin/contracts/token/ERC1155/ERC1155.sol\":4014:4443  function safeBatchTransferFrom(... */\n      pop\n      pop\n      pop\n      pop\n      pop\n      jump\t// out\n        /* \"@openzeppelin/contracts/token/ERC1155/ERC1155.sol\":2536:3088  function balanceOfBatch(... */\n    tag_53:\n        /* \"@openzeppelin/contracts/token/ERC1155/ERC1155.sol\":2660:2676  uint256[] memory */\n      0x60\n        /* \"@openzeppelin/contracts/token/ERC1155/ERC1155.sol\":2711:2714  ids */\n      dup2\n        /* \"@openzeppelin/contracts/token/ERC1155/ERC1155.sol\":2711:2721  ids.length */\n      mload\n        /* \"@openzeppelin/contracts/token/ERC1155/ERC1155.sol\":2692:2700  accounts */\n      dup4\n        /* \"@openzeppelin/contracts/token/ERC1155/ERC1155.sol\":2692:2707  accounts.length */\n      mload\n        /* \"@openzeppelin/contracts/token/ERC1155/ERC1155.sol\":2692:2721  accounts.length != ids.length */\n      eq\n        /* \"@openzeppelin/contracts/token/ERC1155/ERC1155.sol\":2688:2809  if (accounts.length != ids.length) {... */\n      tag_121\n      jumpi\n        /* \"@openzeppelin/contracts/token/ERC1155/ERC1155.sol\":2770:2773  ids */\n      dup2\n        /* \"@openzeppelin/contracts/token/ERC1155/ERC1155.sol\":2770:2780  ids.length */\n      mload\n        /* \"@openzeppelin/contracts/token/ERC1155/ERC1155.sol\":2782:2790  accounts */\n      dup4\n        /* \"@openzeppelin/contracts/token/ERC1155/ERC1155.sol\":2782:2797  accounts.length */\n      mload\n        /* \"@openzeppelin/contracts/token/ERC1155/ERC1155.sol\":2744:2798  ERC1155InvalidArrayLength(ids.length, accounts.length) */\n      mload(0x40)\n      0x5b05999100000000000000000000000000000000000000000000000000000000\n      dup2\n      mstore\n      0x04\n      add\n      tag_122\n      swap3\n      swap2\n      swap1\n      tag_123\n      jump\t// in\n    tag_122:\n      mload(0x40)\n      dup1\n      swap2\n      sub\n      swap1\n      revert\n        /* \"@openzeppelin/contracts/token/ERC1155/ERC1155.sol\":2688:2809  if (accounts.length != ids.length) {... */\n    tag_121:\n        /* \"@openzeppelin/contracts/token/ERC1155/ERC1155.sol\":2819:2849  uint256[] memory batchBalances */\n      0x00\n        /* \"@openzeppelin/contracts/token/ERC1155/ERC1155.sol\":2866:2874  accounts */\n      dup4\n        /* \"@openzeppelin/contracts/token/ERC1155/ERC1155.sol\":2866:2881  accounts.length */\n      mload\n        /* \"@openzeppelin/contracts/token/ERC1155/ERC1155.sol\":2852:2882  new uint256[](accounts.length) */\n      0xffffffffffffffff\n      dup2\n      gt\n      iszero\n      tag_124\n      jumpi\n      tag_125\n      tag_126\n      jump\t// in\n    tag_125:\n    tag_124:\n      mload(0x40)\n      swap1\n      dup1\n      dup3\n      mstore\n      dup1\n      0x20\n      mul\n      0x20\n      add\n      dup3\n      add\n      0x40\n      mstore\n      dup1\n      iszero\n      tag_127\n      jumpi\n      dup2\n      0x20\n      add\n      0x20\n      dup3\n      mul\n      dup1\n      calldatasize\n      dup4\n      calldatacopy\n      dup1\n      dup3\n      add\n      swap2\n      pop\n      pop\n      swap1\n      pop\n    tag_127:\n      pop\n        /* \"@openzeppelin/contracts/token/ERC1155/ERC1155.sol\":2819:2882  uint256[] memory batchBalances = new uint256[](accounts.length) */\n      swap1\n      pop\n        /* \"@openzeppelin/contracts/token/ERC1155/ERC1155.sol\":2898:2907  uint256 i */\n      0x00\n        /* \"@openzeppelin/contracts/token/ERC1155/ERC1155.sol\":2893:3051  for (uint256 i = 0; i < accounts.length; ++i) {... */\n    tag_128:\n        /* \"@openzeppelin/contracts/token/ERC1155/ERC1155.sol\":2917:2925  accounts */\n      dup5\n        /* \"@openzeppelin/contracts/token/ERC1155/ERC1155.sol\":2917:2932  accounts.length */\n      mload\n        /* \"@openzeppelin/contracts/token/ERC1155/ERC1155.sol\":2913:2914  i */\n      dup2\n        /* \"@openzeppelin/contracts/token/ERC1155/ERC1155.sol\":2913:2932  i < accounts.length */\n      lt\n        /* \"@openzeppelin/contracts/token/ERC1155/ERC1155.sol\":2893:3051  for (uint256 i = 0; i < accounts.length; ++i) {... */\n      iszero\n      tag_129\n      jumpi\n        /* \"@openzeppelin/contracts/token/ERC1155/ERC1155.sol\":2972:3040  balanceOf(accounts.unsafeMemoryAccess(i), ids.unsafeMemoryAccess(i)) */\n      tag_131\n        /* \"@openzeppelin/contracts/token/ERC1155/ERC1155.sol\":2982:3012  accounts.unsafeMemoryAccess(i) */\n      tag_132\n        /* \"@openzeppelin/contracts/token/ERC1155/ERC1155.sol\":3010:3011  i */\n      dup3\n        /* \"@openzeppelin/contracts/token/ERC1155/ERC1155.sol\":2982:2990  accounts */\n      dup8\n        /* \"@openzeppelin/contracts/token/ERC1155/ERC1155.sol\":2982:3009  accounts.unsafeMemoryAccess */\n      tag_133\n      swap1\n        /* \"@openzeppelin/contracts/token/ERC1155/ERC1155.sol\":2982:3012  accounts.unsafeMemoryAccess(i) */\n      swap2\n      swap1\n      0xffffffff\n      and\n      jump\t// in\n    tag_132:\n        /* \"@openzeppelin/contracts/token/ERC1155/ERC1155.sol\":3014:3039  ids.unsafeMemoryAccess(i) */\n      tag_134\n        /* \"@openzeppelin/contracts/token/ERC1155/ERC1155.sol\":3037:3038  i */\n      dup4\n        /* \"@openzeppelin/contracts/token/ERC1155/ERC1155.sol\":3014:3017  ids */\n      dup8\n        /* \"@openzeppelin/contracts/token/ERC1155/ERC1155.sol\":3014:3036  ids.unsafeMemoryAccess */\n      tag_135\n      swap1\n        /* \"@openzeppelin/contracts/token/ERC1155/ERC1155.sol\":3014:3039  ids.unsafeMemoryAccess(i) */\n      swap2\n      swap1\n      0xffffffff\n      and\n      jump\t// in\n    tag_134:\n        /* \"@openzeppelin/contracts/token/ERC1155/ERC1155.sol\":2972:2981  balanceOf */\n      tag_24\n        /* \"@openzeppelin/contracts/token/ERC1155/ERC1155.sol\":2972:3040  balanceOf(accounts.unsafeMemoryAccess(i), ids.unsafeMemoryAccess(i)) */\n      jump\t// in\n    tag_131:\n        /* \"@openzeppelin/contracts/token/ERC1155/ERC1155.sol\":2953:2966  batchBalances */\n      dup3\n        /* \"@openzeppelin/contracts/token/ERC1155/ERC1155.sol\":2967:2968  i */\n      dup3\n        /* \"@openzeppelin/contracts/token/ERC1155/ERC1155.sol\":2953:2969  batchBalances[i] */\n      dup2\n      mload\n      dup2\n      lt\n      tag_136\n      jumpi\n      tag_137\n      tag_138\n      jump\t// in\n    tag_137:\n    tag_136:\n      0x20\n      mul\n      0x20\n      add\n      add\n        /* \"@openzeppelin/contracts/token/ERC1155/ERC1155.sol\":2953:3040  batchBalances[i] = balanceOf(accounts.unsafeMemoryAccess(i), ids.unsafeMemoryAccess(i)) */\n      dup2\n      dup2\n      mstore\n      pop\n      pop\n        /* \"@openzeppelin/contracts/token/ERC1155/ERC1155.sol\":2934:2937  ++i */\n      dup1\n      tag_139\n      swap1\n      tag_140\n      jump\t// in\n    tag_139:\n      swap1\n      pop\n        /* \"@openzeppelin/contracts/token/ERC1155/ERC1155.sol\":2893:3051  for (uint256 i = 0; i < accounts.length; ++i) {... */\n      jump(tag_128)\n    tag_129:\n      pop\n        /* \"@openzeppelin/contracts/token/ERC1155/ERC1155.sol\":3068:3081  batchBalances */\n      dup1\n        /* \"@openzeppelin/contracts/token/ERC1155/ERC1155.sol\":3061:3081  return batchBalances */\n      swap2\n      pop\n      pop\n        /* \"@openzeppelin/contracts/token/ERC1155/ERC1155.sol\":2536:3088  function balanceOfBatch(... */\n      swap3\n      swap2\n      pop\n      pop\n      jump\t// out\n        /* \"@openzeppelin/contracts/token/ERC1155/extensions/ERC1155Supply.sol\":1320:1426  function exists(uint256 id) public view virtual returns (bool) {... */\n    tag_58:\n        /* \"@openzeppelin/contracts/token/ERC1155/extensions/ERC1155Supply.sol\":1377:1381  bool */\n      0x00\n        /* \"@openzeppelin/contracts/token/ERC1155/extensions/ERC1155Supply.sol\":1418:1419  0 */\n      dup1\n        /* \"@openzeppelin/contracts/token/ERC1155/extensions/ERC1155Supply.sol\":1400:1415  totalSupply(id) */\n      tag_142\n        /* \"@openzeppelin/contracts/token/ERC1155/extensions/ERC1155Supply.sol\":1412:1414  id */\n      dup4\n        /* \"@openzeppelin/contracts/token/ERC1155/extensions/ERC1155Supply.sol\":1400:1411  totalSupply */\n      tag_74\n        /* \"@openzeppelin/contracts/token/ERC1155/extensions/ERC1155Supply.sol\":1400:1415  totalSupply(id) */\n      jump\t// in\n    tag_142:\n        /* \"@openzeppelin/contracts/token/ERC1155/extensions/ERC1155Supply.sol\":1400:1419  totalSupply(id) > 0 */\n      gt\n        /* \"@openzeppelin/contracts/token/ERC1155/extensions/ERC1155Supply.sol\":1393:1419  return totalSupply(id) > 0 */\n      swap1\n      pop\n        /* \"@openzeppelin/contracts/token/ERC1155/extensions/ERC1155Supply.sol\":1320:1426  function exists(uint256 id) public view virtual returns (bool) {... */\n      swap2\n      swap1\n      pop\n      jump\t// out\n        /* \"@openzeppelin/contracts/token/ERC1155/extensions/ERC1155Burnable.sol\":681:994  function burnBatch(address account, uint256[] memory ids, uint256[] memory values) public virtual {... */\n    tag_63:\n        /* \"@openzeppelin/contracts/token/ERC1155/extensions/ERC1155Burnable.sol\":804:816  _msgSender() */\n      tag_144\n        /* \"@openzeppelin/contracts/token/ERC1155/extensions/ERC1155Burnable.sol\":804:814  _msgSender */\n      tag_112\n        /* \"@openzeppelin/contracts/token/ERC1155/extensions/ERC1155Burnable.sol\":804:816  _msgSender() */\n      jump\t// in\n    tag_144:\n        /* \"@openzeppelin/contracts/token/ERC1155/extensions/ERC1155Burnable.sol\":793:816  account != _msgSender() */\n      0xffffffffffffffffffffffffffffffffffffffff\n      and\n        /* \"@openzeppelin/contracts/token/ERC1155/extensions/ERC1155Burnable.sol\":793:800  account */\n      dup4\n        /* \"@openzeppelin/contracts/token/ERC1155/extensions/ERC1155Burnable.sol\":793:816  account != _msgSender() */\n      0xffffffffffffffffffffffffffffffffffffffff\n      and\n      eq\n      iszero\n        /* \"@openzeppelin/contracts/token/ERC1155/extensions/ERC1155Burnable.sol\":793:860  account != _msgSender() && !isApprovedForAll(account, _msgSender()) */\n      dup1\n      iszero\n      tag_145\n      jumpi\n      pop\n        /* \"@openzeppelin/contracts/token/ERC1155/extensions/ERC1155Burnable.sol\":821:860  isApprovedForAll(account, _msgSender()) */\n      tag_146\n        /* \"@openzeppelin/contracts/token/ERC1155/extensions/ERC1155Burnable.sol\":838:845  account */\n      dup4\n        /* \"@openzeppelin/contracts/token/ERC1155/extensions/ERC1155Burnable.sol\":847:859  _msgSender() */\n      tag_147\n        /* \"@openzeppelin/contracts/token/ERC1155/extensions/ERC1155Burnable.sol\":847:857  _msgSender */\n      tag_112\n        /* \"@openzeppelin/contracts/token/ERC1155/extensions/ERC1155Burnable.sol\":847:859  _msgSender() */\n      jump\t// in\n    tag_147:\n        /* \"@openzeppelin/contracts/token/ERC1155/extensions/ERC1155Burnable.sol\":821:837  isApprovedForAll */\n      tag_79\n        /* \"@openzeppelin/contracts/token/ERC1155/extensions/ERC1155Burnable.sol\":821:860  isApprovedForAll(account, _msgSender()) */\n      jump\t// in\n    tag_146:\n        /* \"@openzeppelin/contracts/token/ERC1155/extensions/ERC1155Burnable.sol\":820:860  !isApprovedForAll(account, _msgSender()) */\n      iszero\n        /* \"@openzeppelin/contracts/token/ERC1155/extensions/ERC1155Burnable.sol\":793:860  account != _msgSender() && !isApprovedForAll(account, _msgSender()) */\n    tag_145:\n        /* \"@openzeppelin/contracts/token/ERC1155/extensions/ERC1155Burnable.sol\":789:945  if (account != _msgSender() && !isApprovedForAll(account, _msgSender())) {... */\n      iszero\n      tag_148\n      jumpi\n        /* \"@openzeppelin/contracts/token/ERC1155/extensions/ERC1155Burnable.sol\":912:924  _msgSender() */\n      tag_149\n        /* \"@openzeppelin/contracts/token/ERC1155/extensions/ERC1155Burnable.sol\":912:922  _msgSender */\n      tag_112\n        /* \"@openzeppelin/contracts/token/ERC1155/extensions/ERC1155Burnable.sol\":912:924  _msgSender() */\n      jump\t// in\n    tag_149:\n        /* \"@openzeppelin/contracts/token/ERC1155/extensions/ERC1155Burnable.sol\":926:933  account */\n      dup4\n        /* \"@openzeppelin/contracts/token/ERC1155/extensions/ERC1155Burnable.sol\":883:934  ERC1155MissingApprovalForAll(_msgSender(), account) */\n      mload(0x40)\n      0xe237d92200000000000000000000000000000000000000000000000000000000\n      dup2\n      mstore\n      0x04\n      add\n      tag_150\n      swap3\n      swap2\n      swap1\n      tag_117\n      jump\t// in\n    tag_150:\n      mload(0x40)\n      dup1\n      swap2\n      sub\n      swap1\n      revert\n        /* \"@openzeppelin/contracts/token/ERC1155/extensions/ERC1155Burnable.sol\":789:945  if (account != _msgSender() && !isApprovedForAll(account, _msgSender())) {... */\n    tag_148:\n        /* \"@openzeppelin/contracts/token/ERC1155/extensions/ERC1155Burnable.sol\":955:987  _burnBatch(account, ids, values) */\n      tag_151\n        /* \"@openzeppelin/contracts/token/ERC1155/extensions/ERC1155Burnable.sol\":966:973  account */\n      dup4\n        /* \"@openzeppelin/contracts/token/ERC1155/extensions/ERC1155Burnable.sol\":975:978  ids */\n      dup4\n        /* \"@openzeppelin/contracts/token/ERC1155/extensions/ERC1155Burnable.sol\":980:986  values */\n      dup4\n        /* \"@openzeppelin/contracts/token/ERC1155/extensions/ERC1155Burnable.sol\":955:965  _burnBatch */\n      tag_152\n        /* \"@openzeppelin/contracts/token/ERC1155/extensions/ERC1155Burnable.sol\":955:987  _burnBatch(account, ids, values) */\n      jump\t// in\n    tag_151:\n        /* \"@openzeppelin/contracts/token/ERC1155/extensions/ERC1155Burnable.sol\":681:994  function burnBatch(address account, uint256[] memory ids, uint256[] memory values) public virtual {... */\n      pop\n      pop\n      pop\n      jump\t// out\n        /* \"contracts/Items/Items.sol\":651:809  function mint (... */\n    tag_67:\n        /* \"contracts/Items/Items.sol\":595:607  _gameAddress */\n      immutable(\"0x6793c6a9604136a1b6d4ba669c8fd19d062a01f122f4a844e550533940770ef1\")\n        /* \"contracts/Items/Items.sol\":581:607  msg.sender == _gameAddress */\n      0xffffffffffffffffffffffffffffffffffffffff\n      and\n        /* \"contracts/Items/Items.sol\":581:591  msg.sender */\n      caller\n        /* \"contracts/Items/Items.sol\":581:607  msg.sender == _gameAddress */\n      0xffffffffffffffffffffffffffffffffffffffff\n      and\n      eq\n        /* \"contracts/Items/Items.sol\":573:640  require(msg.sender == _gameAddress, \"Only game contract can call.\") */\n      tag_154\n      jumpi\n      mload(0x40)\n      0x08c379a000000000000000000000000000000000000000000000000000000000\n      dup2\n      mstore\n      0x04\n      add\n      tag_155\n      swap1\n      tag_106\n      jump\t// in\n    tag_155:\n      mload(0x40)\n      dup1\n      swap2\n      sub\n      swap1\n      revert\n    tag_154:\n        /* \"contracts/Items/Items.sol\":772:804  _mint(account, id, amount, data) */\n      tag_157\n        /* \"contracts/Items/Items.sol\":778:785  account */\n      dup5\n        /* \"contracts/Items/Items.sol\":787:789  id */\n      dup5\n        /* \"contracts/Items/Items.sol\":791:797  amount */\n      dup5\n        /* \"contracts/Items/Items.sol\":799:803  data */\n      dup5\n        /* \"contracts/Items/Items.sol\":772:777  _mint */\n      tag_158\n        /* \"contracts/Items/Items.sol\":772:804  _mint(account, id, amount, data) */\n      jump\t// in\n    tag_157:\n        /* \"contracts/Items/Items.sol\":651:809  function mint (... */\n      pop\n      pop\n      pop\n      pop\n      jump\t// out\n        /* \"@openzeppelin/contracts/token/ERC1155/ERC1155.sol\":3156:3300  function setApprovalForAll(address operator, bool approved) public virtual {... */\n    tag_71:\n        /* \"@openzeppelin/contracts/token/ERC1155/ERC1155.sol\":3241:3293  _setApprovalForAll(_msgSender(), operator, approved) */\n      tag_160\n        /* \"@openzeppelin/contracts/token/ERC1155/ERC1155.sol\":3260:3272  _msgSender() */\n      tag_161\n        /* \"@openzeppelin/contracts/token/ERC1155/ERC1155.sol\":3260:3270  _msgSender */\n      tag_112\n        /* \"@openzeppelin/contracts/token/ERC1155/ERC1155.sol\":3260:3272  _msgSender() */\n      jump\t// in\n    tag_161:\n        /* \"@openzeppelin/contracts/token/ERC1155/ERC1155.sol\":3274:3282  operator */\n      dup4\n        /* \"@openzeppelin/contracts/token/ERC1155/ERC1155.sol\":3284:3292  approved */\n      dup4\n        /* \"@openzeppelin/contracts/token/ERC1155/ERC1155.sol\":3241:3259  _setApprovalForAll */\n      tag_162\n        /* \"@openzeppelin/contracts/token/ERC1155/ERC1155.sol\":3241:3293  _setApprovalForAll(_msgSender(), operator, approved) */\n      jump\t// in\n    tag_160:\n        /* \"@openzeppelin/contracts/token/ERC1155/ERC1155.sol\":3156:3300  function setApprovalForAll(address operator, bool approved) public virtual {... */\n      pop\n      pop\n      jump\t// out\n        /* \"@openzeppelin/contracts/token/ERC1155/extensions/ERC1155Supply.sol\":959:1070  function totalSupply(uint256 id) public view virtual returns (uint256) {... */\n    tag_74:\n        /* \"@openzeppelin/contracts/token/ERC1155/extensions/ERC1155Supply.sol\":1021:1028  uint256 */\n      0x00\n        /* \"@openzeppelin/contracts/token/ERC1155/extensions/ERC1155Supply.sol\":1047:1059  _totalSupply */\n      0x03\n        /* \"@openzeppelin/contracts/token/ERC1155/extensions/ERC1155Supply.sol\":1047:1063  _totalSupply[id] */\n      0x00\n        /* \"@openzeppelin/contracts/token/ERC1155/extensions/ERC1155Supply.sol\":1060:1062  id */\n      dup4\n        /* \"@openzeppelin/contracts/token/ERC1155/extensions/ERC1155Supply.sol\":1047:1063  _totalSupply[id] */\n      dup2\n      mstore\n      0x20\n      add\n      swap1\n      dup2\n      mstore\n      0x20\n      add\n      0x00\n      keccak256\n      sload\n        /* \"@openzeppelin/contracts/token/ERC1155/extensions/ERC1155Supply.sol\":1040:1063  return _totalSupply[id] */\n      swap1\n      pop\n        /* \"@openzeppelin/contracts/token/ERC1155/extensions/ERC1155Supply.sol\":959:1070  function totalSupply(uint256 id) public view virtual returns (uint256) {... */\n      swap2\n      swap1\n      pop\n      jump\t// out\n        /* \"@openzeppelin/contracts/token/ERC1155/ERC1155.sol\":3367:3524  function isApprovedForAll(address account, address operator) public view virtual returns (bool) {... */\n    tag_79:\n        /* \"@openzeppelin/contracts/token/ERC1155/ERC1155.sol\":3457:3461  bool */\n      0x00\n        /* \"@openzeppelin/contracts/token/ERC1155/ERC1155.sol\":3480:3498  _operatorApprovals */\n      0x01\n        /* \"@openzeppelin/contracts/token/ERC1155/ERC1155.sol\":3480:3507  _operatorApprovals[account] */\n      0x00\n        /* \"@openzeppelin/contracts/token/ERC1155/ERC1155.sol\":3499:3506  account */\n      dup5\n        /* \"@openzeppelin/contracts/token/ERC1155/ERC1155.sol\":3480:3507  _operatorApprovals[account] */\n      0xffffffffffffffffffffffffffffffffffffffff\n      and\n      0xffffffffffffffffffffffffffffffffffffffff\n      and\n      dup2\n      mstore\n      0x20\n      add\n      swap1\n      dup2\n      mstore\n      0x20\n      add\n      0x00\n      keccak256\n        /* \"@openzeppelin/contracts/token/ERC1155/ERC1155.sol\":3480:3517  _operatorApprovals[account][operator] */\n      0x00\n        /* \"@openzeppelin/contracts/token/ERC1155/ERC1155.sol\":3508:3516  operator */\n      dup4\n        /* \"@openzeppelin/contracts/token/ERC1155/ERC1155.sol\":3480:3517  _operatorApprovals[account][operator] */\n      0xffffffffffffffffffffffffffffffffffffffff\n      and\n      0xffffffffffffffffffffffffffffffffffffffff\n      and\n      dup2\n      mstore\n      0x20\n      add\n      swap1\n      dup2\n      mstore\n      0x20\n      add\n      0x00\n      keccak256\n      0x00\n      swap1\n      sload\n      swap1\n      0x0100\n      exp\n      swap1\n      div\n      0xff\n      and\n        /* \"@openzeppelin/contracts/token/ERC1155/ERC1155.sol\":3473:3517  return _operatorApprovals[account][operator] */\n      swap1\n      pop\n        /* \"@openzeppelin/contracts/token/ERC1155/ERC1155.sol\":3367:3524  function isApprovedForAll(address account, address operator) public view virtual returns (bool) {... */\n      swap3\n      swap2\n      pop\n      pop\n      jump\t// out\n        /* \"@openzeppelin/contracts/token/ERC1155/ERC1155.sol\":3591:3942  function safeTransferFrom(address from, address to, uint256 id, uint256 value, bytes memory data) public virtual {... */\n    tag_84:\n        /* \"@openzeppelin/contracts/token/ERC1155/ERC1155.sol\":3714:3728  address sender */\n      0x00\n        /* \"@openzeppelin/contracts/token/ERC1155/ERC1155.sol\":3731:3743  _msgSender() */\n      tag_166\n        /* \"@openzeppelin/contracts/token/ERC1155/ERC1155.sol\":3731:3741  _msgSender */\n      tag_112\n        /* \"@openzeppelin/contracts/token/ERC1155/ERC1155.sol\":3731:3743  _msgSender() */\n      jump\t// in\n    tag_166:\n        /* \"@openzeppelin/contracts/token/ERC1155/ERC1155.sol\":3714:3743  address sender = _msgSender() */\n      swap1\n      pop\n        /* \"@openzeppelin/contracts/token/ERC1155/ERC1155.sol\":3765:3771  sender */\n      dup1\n        /* \"@openzeppelin/contracts/token/ERC1155/ERC1155.sol\":3757:3771  from != sender */\n      0xffffffffffffffffffffffffffffffffffffffff\n      and\n        /* \"@openzeppelin/contracts/token/ERC1155/ERC1155.sol\":3757:3761  from */\n      dup7\n        /* \"@openzeppelin/contracts/token/ERC1155/ERC1155.sol\":3757:3771  from != sender */\n      0xffffffffffffffffffffffffffffffffffffffff\n      and\n      eq\n      iszero\n        /* \"@openzeppelin/contracts/token/ERC1155/ERC1155.sol\":3757:3806  from != sender && !isApprovedForAll(from, sender) */\n      dup1\n      iszero\n      tag_167\n      jumpi\n      pop\n        /* \"@openzeppelin/contracts/token/ERC1155/ERC1155.sol\":3776:3806  isApprovedForAll(from, sender) */\n      tag_168\n        /* \"@openzeppelin/contracts/token/ERC1155/ERC1155.sol\":3793:3797  from */\n      dup7\n        /* \"@openzeppelin/contracts/token/ERC1155/ERC1155.sol\":3799:3805  sender */\n      dup3\n        /* \"@openzeppelin/contracts/token/ERC1155/ERC1155.sol\":3776:3792  isApprovedForAll */\n      tag_79\n        /* \"@openzeppelin/contracts/token/ERC1155/ERC1155.sol\":3776:3806  isApprovedForAll(from, sender) */\n      jump\t// in\n    tag_168:\n        /* \"@openzeppelin/contracts/token/ERC1155/ERC1155.sol\":3775:3806  !isApprovedForAll(from, sender) */\n      iszero\n        /* \"@openzeppelin/contracts/token/ERC1155/ERC1155.sol\":3757:3806  from != sender && !isApprovedForAll(from, sender) */\n    tag_167:\n        /* \"@openzeppelin/contracts/token/ERC1155/ERC1155.sol\":3753:3882  if (from != sender && !isApprovedForAll(from, sender)) {... */\n      iszero\n      tag_169\n      jumpi\n        /* \"@openzeppelin/contracts/token/ERC1155/ERC1155.sol\":3858:3864  sender */\n      dup1\n        /* \"@openzeppelin/contracts/token/ERC1155/ERC1155.sol\":3866:3870  from */\n      dup7\n        /* \"@openzeppelin/contracts/token/ERC1155/ERC1155.sol\":3829:3871  ERC1155MissingApprovalForAll(sender, from) */\n      mload(0x40)\n      0xe237d92200000000000000000000000000000000000000000000000000000000\n      dup2\n      mstore\n      0x04\n      add\n      tag_170\n      swap3\n      swap2\n      swap1\n      tag_117\n      jump\t// in\n    tag_170:\n      mload(0x40)\n      dup1\n      swap2\n      sub\n      swap1\n      revert\n        /* \"@openzeppelin/contracts/token/ERC1155/ERC1155.sol\":3753:3882  if (from != sender && !isApprovedForAll(from, sender)) {... */\n    tag_169:\n        /* \"@openzeppelin/contracts/token/ERC1155/ERC1155.sol\":3891:3935  _safeTransferFrom(from, to, id, value, data) */\n      tag_171\n        /* \"@openzeppelin/contracts/token/ERC1155/ERC1155.sol\":3909:3913  from */\n      dup7\n        /* \"@openzeppelin/contracts/token/ERC1155/ERC1155.sol\":3915:3917  to */\n      dup7\n        /* \"@openzeppelin/contracts/token/ERC1155/ERC1155.sol\":3919:3921  id */\n      dup7\n        /* \"@openzeppelin/contracts/token/ERC1155/ERC1155.sol\":3923:3928  value */\n      dup7\n        /* \"@openzeppelin/contracts/token/ERC1155/ERC1155.sol\":3930:3934  data */\n      dup7\n        /* \"@openzeppelin/contracts/token/ERC1155/ERC1155.sol\":3891:3908  _safeTransferFrom */\n      tag_172\n        /* \"@openzeppelin/contracts/token/ERC1155/ERC1155.sol\":3891:3935  _safeTransferFrom(from, to, id, value, data) */\n      jump\t// in\n    tag_171:\n        /* \"@openzeppelin/contracts/token/ERC1155/ERC1155.sol\":3704:3942  {... */\n      pop\n        /* \"@openzeppelin/contracts/token/ERC1155/ERC1155.sol\":3591:3942  function safeTransferFrom(address from, address to, uint256 id, uint256 value, bytes memory data) public virtual {... */\n      pop\n      pop\n      pop\n      pop\n      pop\n      jump\t// out\n        /* \"@openzeppelin/contracts/token/ERC1155/extensions/ERC1155Burnable.sol\":394:675  function burn(address account, uint256 id, uint256 value) public virtual {... */\n    tag_88:\n        /* \"@openzeppelin/contracts/token/ERC1155/extensions/ERC1155Burnable.sol\":492:504  _msgSender() */\n      tag_174\n        /* \"@openzeppelin/contracts/token/ERC1155/extensions/ERC1155Burnable.sol\":492:502  _msgSender */\n      tag_112\n        /* \"@openzeppelin/contracts/token/ERC1155/extensions/ERC1155Burnable.sol\":492:504  _msgSender() */\n      jump\t// in\n    tag_174:\n        /* \"@openzeppelin/contracts/token/ERC1155/extensions/ERC1155Burnable.sol\":481:504  account != _msgSender() */\n      0xffffffffffffffffffffffffffffffffffffffff\n      and\n        /* \"@openzeppelin/contracts/token/ERC1155/extensions/ERC1155Burnable.sol\":481:488  account */\n      dup4\n        /* \"@openzeppelin/contracts/token/ERC1155/extensions/ERC1155Burnable.sol\":481:504  account != _msgSender() */\n      0xffffffffffffffffffffffffffffffffffffffff\n      and\n      eq\n      iszero\n        /* \"@openzeppelin/contracts/token/ERC1155/extensions/ERC1155Burnable.sol\":481:548  account != _msgSender() && !isApprovedForAll(account, _msgSender()) */\n      dup1\n      iszero\n      tag_175\n      jumpi\n      pop\n        /* \"@openzeppelin/contracts/token/ERC1155/extensions/ERC1155Burnable.sol\":509:548  isApprovedForAll(account, _msgSender()) */\n      tag_176\n        /* \"@openzeppelin/contracts/token/ERC1155/extensions/ERC1155Burnable.sol\":526:533  account */\n      dup4\n        /* \"@openzeppelin/contracts/token/ERC1155/extensions/ERC1155Burnable.sol\":535:547  _msgSender() */\n      tag_177\n        /* \"@openzeppelin/contracts/token/ERC1155/extensions/ERC1155Burnable.sol\":535:545  _msgSender */\n      tag_112\n        /* \"@openzeppelin/contracts/token/ERC1155/extensions/ERC1155Burnable.sol\":535:547  _msgSender() */\n      jump\t// in\n    tag_177:\n        /* \"@openzeppelin/contracts/token/ERC1155/extensions/ERC1155Burnable.sol\":509:525  isApprovedForAll */\n      tag_79\n        /* \"@openzeppelin/contracts/token/ERC1155/extensions/ERC1155Burnable.sol\":509:548  isApprovedForAll(account, _msgSender()) */\n      jump\t// in\n    tag_176:\n        /* \"@openzeppelin/contracts/token/ERC1155/extensions/ERC1155Burnable.sol\":508:548  !isApprovedForAll(account, _msgSender()) */\n      iszero\n        /* \"@openzeppelin/contracts/token/ERC1155/extensions/ERC1155Burnable.sol\":481:548  account != _msgSender() && !isApprovedForAll(account, _msgSender()) */\n    tag_175:\n        /* \"@openzeppelin/contracts/token/ERC1155/extensions/ERC1155Burnable.sol\":477:633  if (account != _msgSender() && !isApprovedForAll(account, _msgSender())) {... */\n      iszero\n      tag_178\n      jumpi\n        /* \"@openzeppelin/contracts/token/ERC1155/extensions/ERC1155Burnable.sol\":600:612  _msgSender() */\n      tag_179\n        /* \"@openzeppelin/contracts/token/ERC1155/extensions/ERC1155Burnable.sol\":600:610  _msgSender */\n      tag_112\n        /* \"@openzeppelin/contracts/token/ERC1155/extensions/ERC1155Burnable.sol\":600:612  _msgSender() */\n      jump\t// in\n    tag_179:\n        /* \"@openzeppelin/contracts/token/ERC1155/extensions/ERC1155Burnable.sol\":614:621  account */\n      dup4\n        /* \"@openzeppelin/contracts/token/ERC1155/extensions/ERC1155Burnable.sol\":571:622  ERC1155MissingApprovalForAll(_msgSender(), account) */\n      mload(0x40)\n      0xe237d92200000000000000000000000000000000000000000000000000000000\n      dup2\n      mstore\n      0x04\n      add\n      tag_180\n      swap3\n      swap2\n      swap1\n      tag_117\n      jump\t// in\n    tag_180:\n      mload(0x40)\n      dup1\n      swap2\n      sub\n      swap1\n      revert\n        /* \"@openzeppelin/contracts/token/ERC1155/extensions/ERC1155Burnable.sol\":477:633  if (account != _msgSender() && !isApprovedForAll(account, _msgSender())) {... */\n    tag_178:\n        /* \"@openzeppelin/contracts/token/ERC1155/extensions/ERC1155Burnable.sol\":643:668  _burn(account, id, value) */\n      tag_181\n        /* \"@openzeppelin/contracts/token/ERC1155/extensions/ERC1155Burnable.sol\":649:656  account */\n      dup4\n        /* \"@openzeppelin/contracts/token/ERC1155/extensions/ERC1155Burnable.sol\":658:660  id */\n      dup4\n        /* \"@openzeppelin/contracts/token/ERC1155/extensions/ERC1155Burnable.sol\":662:667  value */\n      dup4\n        /* \"@openzeppelin/contracts/token/ERC1155/extensions/ERC1155Burnable.sol\":643:648  _burn */\n      tag_182\n        /* \"@openzeppelin/contracts/token/ERC1155/extensions/ERC1155Burnable.sol\":643:668  _burn(account, id, value) */\n      jump\t// in\n    tag_181:\n        /* \"@openzeppelin/contracts/token/ERC1155/extensions/ERC1155Burnable.sol\":394:675  function burn(address account, uint256 id, uint256 value) public virtual {... */\n      pop\n      pop\n      pop\n      jump\t// out\n        /* \"@openzeppelin/contracts/utils/introspection/ERC165.sol\":762:908  function supportsInterface(bytes4 interfaceId) public view virtual returns (bool) {... */\n    tag_94:\n        /* \"@openzeppelin/contracts/utils/introspection/ERC165.sol\":838:842  bool */\n      0x00\n        /* \"@openzeppelin/contracts/utils/introspection/ERC165.sol\":876:901  type(IERC165).interfaceId */\n      0x01ffc9a700000000000000000000000000000000000000000000000000000000\n        /* \"@openzeppelin/contracts/utils/introspection/ERC165.sol\":861:901  interfaceId == type(IERC165).interfaceId */\n      not(0xffffffffffffffffffffffffffffffffffffffffffffffffffffffff)\n      and\n        /* \"@openzeppelin/contracts/utils/introspection/ERC165.sol\":861:872  interfaceId */\n      dup3\n        /* \"@openzeppelin/contracts/utils/introspection/ERC165.sol\":861:901  interfaceId == type(IERC165).interfaceId */\n      not(0xffffffffffffffffffffffffffffffffffffffffffffffffffffffff)\n      and\n      eq\n        /* \"@openzeppelin/contracts/utils/introspection/ERC165.sol\":854:901  return interfaceId == type(IERC165).interfaceId */\n      swap1\n      pop\n        /* \"@openzeppelin/contracts/utils/introspection/ERC165.sol\":762:908  function supportsInterface(bytes4 interfaceId) public view virtual returns (bool) {... */\n      swap2\n      swap1\n      pop\n      jump\t// out\n        /* \"@openzeppelin/contracts/token/ERC1155/ERC1155.sol\":11523:11805  function _mintBatch(address to, uint256[] memory ids, uint256[] memory values, bytes memory data) internal {... */\n    tag_109:\n        /* \"@openzeppelin/contracts/token/ERC1155/ERC1155.sol\":11658:11659  0 */\n      0x00\n        /* \"@openzeppelin/contracts/token/ERC1155/ERC1155.sol\":11644:11660  to == address(0) */\n      0xffffffffffffffffffffffffffffffffffffffff\n      and\n        /* \"@openzeppelin/contracts/token/ERC1155/ERC1155.sol\":11644:11646  to */\n      dup5\n        /* \"@openzeppelin/contracts/token/ERC1155/ERC1155.sol\":11644:11660  to == address(0) */\n      0xffffffffffffffffffffffffffffffffffffffff\n      and\n      sub\n        /* \"@openzeppelin/contracts/token/ERC1155/ERC1155.sol\":11640:11728  if (to == address(0)) {... */\n      tag_185\n      jumpi\n        /* \"@openzeppelin/contracts/token/ERC1155/ERC1155.sol\":11714:11715  0 */\n      0x00\n        /* \"@openzeppelin/contracts/token/ERC1155/ERC1155.sol\":11683:11717  ERC1155InvalidReceiver(address(0)) */\n      mload(0x40)\n      0x57f447ce00000000000000000000000000000000000000000000000000000000\n      dup2\n      mstore\n      0x04\n      add\n      tag_186\n      swap2\n      swap1\n      tag_187\n      jump\t// in\n    tag_186:\n      mload(0x40)\n      dup1\n      swap2\n      sub\n      swap1\n      revert\n        /* \"@openzeppelin/contracts/token/ERC1155/ERC1155.sol\":11640:11728  if (to == address(0)) {... */\n    tag_185:\n        /* \"@openzeppelin/contracts/token/ERC1155/ERC1155.sol\":11737:11798  _updateWithAcceptanceCheck(address(0), to, ids, values, data) */\n      tag_188\n        /* \"@openzeppelin/contracts/token/ERC1155/ERC1155.sol\":11772:11773  0 */\n      0x00\n        /* \"@openzeppelin/contracts/token/ERC1155/ERC1155.sol\":11776:11778  to */\n      dup6\n        /* \"@openzeppelin/contracts/token/ERC1155/ERC1155.sol\":11780:11783  ids */\n      dup6\n        /* \"@openzeppelin/contracts/token/ERC1155/ERC1155.sol\":11785:11791  values */\n      dup6\n        /* \"@openzeppelin/contracts/token/ERC1155/ERC1155.sol\":11793:11797  data */\n      dup6\n        /* \"@openzeppelin/contracts/token/ERC1155/ERC1155.sol\":11737:11763  _updateWithAcceptanceCheck */\n      tag_189\n        /* \"@openzeppelin/contracts/token/ERC1155/ERC1155.sol\":11737:11798  _updateWithAcceptanceCheck(address(0), to, ids, values, data) */\n      jump\t// in\n    tag_188:\n        /* \"@openzeppelin/contracts/token/ERC1155/ERC1155.sol\":11523:11805  function _mintBatch(address to, uint256[] memory ids, uint256[] memory values, bytes memory data) internal {... */\n      pop\n      pop\n      pop\n      pop\n      jump\t// out\n        /* \"@openzeppelin/contracts/utils/Context.sol\":656:752  function _msgSender() internal view virtual returns (address) {... */\n    tag_112:\n        /* \"@openzeppelin/contracts/utils/Context.sol\":709:716  address */\n      0x00\n        /* \"@openzeppelin/contracts/utils/Context.sol\":735:745  msg.sender */\n      caller\n        /* \"@openzeppelin/contracts/utils/Context.sol\":728:745  return msg.sender */\n      swap1\n      pop\n        /* \"@openzeppelin/contracts/utils/Context.sol\":656:752  function _msgSender() internal view virtual returns (address) {... */\n      swap1\n      jump\t// out\n        /* \"@openzeppelin/contracts/token/ERC1155/ERC1155.sol\":9015:9460  function _safeBatchTransferFrom(... */\n    tag_119:\n        /* \"@openzeppelin/contracts/token/ERC1155/ERC1155.sol\":9222:9223  0 */\n      0x00\n        /* \"@openzeppelin/contracts/token/ERC1155/ERC1155.sol\":9208:9224  to == address(0) */\n      0xffffffffffffffffffffffffffffffffffffffff\n      and\n        /* \"@openzeppelin/contracts/token/ERC1155/ERC1155.sol\":9208:9210  to */\n      dup5\n        /* \"@openzeppelin/contracts/token/ERC1155/ERC1155.sol\":9208:9224  to == address(0) */\n      0xffffffffffffffffffffffffffffffffffffffff\n      and\n      sub\n        /* \"@openzeppelin/contracts/token/ERC1155/ERC1155.sol\":9204:9292  if (to == address(0)) {... */\n      tag_192\n      jumpi\n        /* \"@openzeppelin/contracts/token/ERC1155/ERC1155.sol\":9278:9279  0 */\n      0x00\n        /* \"@openzeppelin/contracts/token/ERC1155/ERC1155.sol\":9247:9281  ERC1155InvalidReceiver(address(0)) */\n      mload(0x40)\n      0x57f447ce00000000000000000000000000000000000000000000000000000000\n      dup2\n      mstore\n      0x04\n      add\n      tag_193\n      swap2\n      swap1\n      tag_187\n      jump\t// in\n    tag_193:\n      mload(0x40)\n      dup1\n      swap2\n      sub\n      swap1\n      revert\n        /* \"@openzeppelin/contracts/token/ERC1155/ERC1155.sol\":9204:9292  if (to == address(0)) {... */\n    tag_192:\n        /* \"@openzeppelin/contracts/token/ERC1155/ERC1155.sol\":9321:9322  0 */\n      0x00\n        /* \"@openzeppelin/contracts/token/ERC1155/ERC1155.sol\":9305:9323  from == address(0) */\n      0xffffffffffffffffffffffffffffffffffffffff\n      and\n        /* \"@openzeppelin/contracts/token/ERC1155/ERC1155.sol\":9305:9309  from */\n      dup6\n        /* \"@openzeppelin/contracts/token/ERC1155/ERC1155.sol\":9305:9323  from == address(0) */\n      0xffffffffffffffffffffffffffffffffffffffff\n      and\n      sub\n        /* \"@openzeppelin/contracts/token/ERC1155/ERC1155.sol\":9301:9389  if (from == address(0)) {... */\n      tag_194\n      jumpi\n        /* \"@openzeppelin/contracts/token/ERC1155/ERC1155.sol\":9375:9376  0 */\n      0x00\n        /* \"@openzeppelin/contracts/token/ERC1155/ERC1155.sol\":9346:9378  ERC1155InvalidSender(address(0)) */\n      mload(0x40)\n      0x01a8351400000000000000000000000000000000000000000000000000000000\n      dup2\n      mstore\n      0x04\n      add\n      tag_195\n      swap2\n      swap1\n      tag_187\n      jump\t// in\n    tag_195:\n      mload(0x40)\n      dup1\n      swap2\n      sub\n      swap1\n      revert\n        /* \"@openzeppelin/contracts/token/ERC1155/ERC1155.sol\":9301:9389  if (from == address(0)) {... */\n    tag_194:\n        /* \"@openzeppelin/contracts/token/ERC1155/ERC1155.sol\":9398:9453  _updateWithAcceptanceCheck(from, to, ids, values, data) */\n      tag_196\n        /* \"@openzeppelin/contracts/token/ERC1155/ERC1155.sol\":9425:9429  from */\n      dup6\n        /* \"@openzeppelin/contracts/token/ERC1155/ERC1155.sol\":9431:9433  to */\n      dup6\n        /* \"@openzeppelin/contracts/token/ERC1155/ERC1155.sol\":9435:9438  ids */\n      dup6\n        /* \"@openzeppelin/contracts/token/ERC1155/ERC1155.sol\":9440:9446  values */\n      dup6\n        /* \"@openzeppelin/contracts/token/ERC1155/ERC1155.sol\":9448:9452  data */\n      dup6\n        /* \"@openzeppelin/contracts/token/ERC1155/ERC1155.sol\":9398:9424  _updateWithAcceptanceCheck */\n      tag_189\n        /* \"@openzeppelin/contracts/token/ERC1155/ERC1155.sol\":9398:9453  _updateWithAcceptanceCheck(from, to, ids, values, data) */\n      jump\t// in\n    tag_196:\n        /* \"@openzeppelin/contracts/token/ERC1155/ERC1155.sol\":9015:9460  function _safeBatchTransferFrom(... */\n      pop\n      pop\n      pop\n      pop\n      pop\n      jump\t// out\n        /* \"@openzeppelin/contracts/utils/Arrays.sol\":4603:4800  function unsafeMemoryAccess(address[] memory arr, uint256 pos) internal pure returns (address res) {... */\n    tag_133:\n        /* \"@openzeppelin/contracts/utils/Arrays.sol\":4689:4700  address res */\n      0x00\n        /* \"@openzeppelin/contracts/utils/Arrays.sol\":4777:4781  0x20 */\n      0x20\n        /* \"@openzeppelin/contracts/utils/Arrays.sol\":4772:4775  pos */\n      dup3\n        /* \"@openzeppelin/contracts/utils/Arrays.sol\":4768:4782  mul(pos, 0x20) */\n      mul\n        /* \"@openzeppelin/contracts/utils/Arrays.sol\":4761:4765  0x20 */\n      0x20\n        /* \"@openzeppelin/contracts/utils/Arrays.sol\":4756:4759  arr */\n      dup5\n        /* \"@openzeppelin/contracts/utils/Arrays.sol\":4752:4766  add(arr, 0x20) */\n      add\n        /* \"@openzeppelin/contracts/utils/Arrays.sol\":4748:4783  add(add(arr, 0x20), mul(pos, 0x20)) */\n      add\n        /* \"@openzeppelin/contracts/utils/Arrays.sol\":4742:4784  mload(add(add(arr, 0x20), mul(pos, 0x20))) */\n      mload\n        /* \"@openzeppelin/contracts/utils/Arrays.sol\":4735:4784  res := mload(add(add(arr, 0x20), mul(pos, 0x20))) */\n      swap1\n      pop\n        /* \"@openzeppelin/contracts/utils/Arrays.sol\":4603:4800  function unsafeMemoryAccess(address[] memory arr, uint256 pos) internal pure returns (address res) {... */\n      swap3\n      swap2\n      pop\n      pop\n      jump\t// out\n        /* \"@openzeppelin/contracts/utils/Arrays.sol\":4204:4401  function unsafeMemoryAccess(uint256[] memory arr, uint256 pos) internal pure returns (uint256 res) {... */\n    tag_135:\n        /* \"@openzeppelin/contracts/utils/Arrays.sol\":4290:4301  uint256 res */\n      0x00\n        /* \"@openzeppelin/contracts/utils/Arrays.sol\":4378:4382  0x20 */\n      0x20\n        /* \"@openzeppelin/contracts/utils/Arrays.sol\":4373:4376  pos */\n      dup3\n        /* \"@openzeppelin/contracts/utils/Arrays.sol\":4369:4383  mul(pos, 0x20) */\n      mul\n        /* \"@openzeppelin/contracts/utils/Arrays.sol\":4362:4366  0x20 */\n      0x20\n        /* \"@openzeppelin/contracts/utils/Arrays.sol\":4357:4360  arr */\n      dup5\n        /* \"@openzeppelin/contracts/utils/Arrays.sol\":4353:4367  add(arr, 0x20) */\n      add\n        /* \"@openzeppelin/contracts/utils/Arrays.sol\":4349:4384  add(add(arr, 0x20), mul(pos, 0x20)) */\n      add\n        /* \"@openzeppelin/contracts/utils/Arrays.sol\":4343:4385  mload(add(add(arr, 0x20), mul(pos, 0x20))) */\n      mload\n        /* \"@openzeppelin/contracts/utils/Arrays.sol\":4336:4385  res := mload(add(add(arr, 0x20), mul(pos, 0x20))) */\n      swap1\n      pop\n        /* \"@openzeppelin/contracts/utils/Arrays.sol\":4204:4401  function unsafeMemoryAccess(uint256[] memory arr, uint256 pos) internal pure returns (uint256 res) {... */\n      swap3\n      swap2\n      pop\n      pop\n      jump\t// out\n        /* \"@openzeppelin/contracts/token/ERC1155/ERC1155.sol\":12784:13049  function _burnBatch(address from, uint256[] memory ids, uint256[] memory values) internal {... */\n    tag_152:\n        /* \"@openzeppelin/contracts/token/ERC1155/ERC1155.sol\":12904:12905  0 */\n      0x00\n        /* \"@openzeppelin/contracts/token/ERC1155/ERC1155.sol\":12888:12906  from == address(0) */\n      0xffffffffffffffffffffffffffffffffffffffff\n      and\n        /* \"@openzeppelin/contracts/token/ERC1155/ERC1155.sol\":12888:12892  from */\n      dup4\n        /* \"@openzeppelin/contracts/token/ERC1155/ERC1155.sol\":12888:12906  from == address(0) */\n      0xffffffffffffffffffffffffffffffffffffffff\n      and\n      sub\n        /* \"@openzeppelin/contracts/token/ERC1155/ERC1155.sol\":12884:12972  if (from == address(0)) {... */\n      tag_200\n      jumpi\n        /* \"@openzeppelin/contracts/token/ERC1155/ERC1155.sol\":12958:12959  0 */\n      0x00\n        /* \"@openzeppelin/contracts/token/ERC1155/ERC1155.sol\":12929:12961  ERC1155InvalidSender(address(0)) */\n      mload(0x40)\n      0x01a8351400000000000000000000000000000000000000000000000000000000\n      dup2\n      mstore\n      0x04\n      add\n      tag_201\n      swap2\n      swap1\n      tag_187\n      jump\t// in\n    tag_201:\n      mload(0x40)\n      dup1\n      swap2\n      sub\n      swap1\n      revert\n        /* \"@openzeppelin/contracts/token/ERC1155/ERC1155.sol\":12884:12972  if (from == address(0)) {... */\n    tag_200:\n        /* \"@openzeppelin/contracts/token/ERC1155/ERC1155.sol\":12981:13042  _updateWithAcceptanceCheck(from, address(0), ids, values, \"\") */\n      tag_202\n        /* \"@openzeppelin/contracts/token/ERC1155/ERC1155.sol\":13008:13012  from */\n      dup4\n        /* \"@openzeppelin/contracts/token/ERC1155/ERC1155.sol\":13022:13023  0 */\n      0x00\n        /* \"@openzeppelin/contracts/token/ERC1155/ERC1155.sol\":13026:13029  ids */\n      dup5\n        /* \"@openzeppelin/contracts/token/ERC1155/ERC1155.sol\":13031:13037  values */\n      dup5\n        /* \"@openzeppelin/contracts/token/ERC1155/ERC1155.sol\":12981:13042  _updateWithAcceptanceCheck(from, address(0), ids, values, \"\") */\n      mload(0x40)\n      dup1\n      0x20\n      add\n      0x40\n      mstore\n      dup1\n      0x00\n      dup2\n      mstore\n      pop\n        /* \"@openzeppelin/contracts/token/ERC1155/ERC1155.sol\":12981:13007  _updateWithAcceptanceCheck */\n      tag_189\n        /* \"@openzeppelin/contracts/token/ERC1155/ERC1155.sol\":12981:13042  _updateWithAcceptanceCheck(from, address(0), ids, values, \"\") */\n      jump\t// in\n    tag_202:\n        /* \"@openzeppelin/contracts/token/ERC1155/ERC1155.sol\":12784:13049  function _burnBatch(address from, uint256[] memory ids, uint256[] memory values) internal {... */\n      pop\n      pop\n      pop\n      jump\t// out\n        /* \"@openzeppelin/contracts/token/ERC1155/ERC1155.sol\":10746:11092  function _mint(address to, uint256 id, uint256 value, bytes memory data) internal {... */\n    tag_158:\n        /* \"@openzeppelin/contracts/token/ERC1155/ERC1155.sol\":10856:10857  0 */\n      0x00\n        /* \"@openzeppelin/contracts/token/ERC1155/ERC1155.sol\":10842:10858  to == address(0) */\n      0xffffffffffffffffffffffffffffffffffffffff\n      and\n        /* \"@openzeppelin/contracts/token/ERC1155/ERC1155.sol\":10842:10844  to */\n      dup5\n        /* \"@openzeppelin/contracts/token/ERC1155/ERC1155.sol\":10842:10858  to == address(0) */\n      0xffffffffffffffffffffffffffffffffffffffff\n      and\n      sub\n        /* \"@openzeppelin/contracts/token/ERC1155/ERC1155.sol\":10838:10926  if (to == address(0)) {... */\n      tag_204\n      jumpi\n        /* \"@openzeppelin/contracts/token/ERC1155/ERC1155.sol\":10912:10913  0 */\n      0x00\n        /* \"@openzeppelin/contracts/token/ERC1155/ERC1155.sol\":10881:10915  ERC1155InvalidReceiver(address(0)) */\n      mload(0x40)\n      0x57f447ce00000000000000000000000000000000000000000000000000000000\n      dup2\n      mstore\n      0x04\n      add\n      tag_205\n      swap2\n      swap1\n      tag_187\n      jump\t// in\n    tag_205:\n      mload(0x40)\n      dup1\n      swap2\n      sub\n      swap1\n      revert\n        /* \"@openzeppelin/contracts/token/ERC1155/ERC1155.sol\":10838:10926  if (to == address(0)) {... */\n    tag_204:\n        /* \"@openzeppelin/contracts/token/ERC1155/ERC1155.sol\":10936:10956  uint256[] memory ids */\n      0x00\n        /* \"@openzeppelin/contracts/token/ERC1155/ERC1155.sol\":10958:10981  uint256[] memory values */\n      dup1\n        /* \"@openzeppelin/contracts/token/ERC1155/ERC1155.sol\":10985:11014  _asSingletonArrays(id, value) */\n      tag_206\n        /* \"@openzeppelin/contracts/token/ERC1155/ERC1155.sol\":11004:11006  id */\n      dup6\n        /* \"@openzeppelin/contracts/token/ERC1155/ERC1155.sol\":11008:11013  value */\n      dup6\n        /* \"@openzeppelin/contracts/token/ERC1155/ERC1155.sol\":10985:11003  _asSingletonArrays */\n      tag_207\n        /* \"@openzeppelin/contracts/token/ERC1155/ERC1155.sol\":10985:11014  _asSingletonArrays(id, value) */\n      jump\t// in\n    tag_206:\n        /* \"@openzeppelin/contracts/token/ERC1155/ERC1155.sol\":10935:11014  (uint256[] memory ids, uint256[] memory values) = _asSingletonArrays(id, value) */\n      swap2\n      pop\n      swap2\n      pop\n        /* \"@openzeppelin/contracts/token/ERC1155/ERC1155.sol\":11024:11085  _updateWithAcceptanceCheck(address(0), to, ids, values, data) */\n      tag_208\n        /* \"@openzeppelin/contracts/token/ERC1155/ERC1155.sol\":11059:11060  0 */\n      0x00\n        /* \"@openzeppelin/contracts/token/ERC1155/ERC1155.sol\":11063:11065  to */\n      dup8\n        /* \"@openzeppelin/contracts/token/ERC1155/ERC1155.sol\":11067:11070  ids */\n      dup5\n        /* \"@openzeppelin/contracts/token/ERC1155/ERC1155.sol\":11072:11078  values */\n      dup5\n        /* \"@openzeppelin/contracts/token/ERC1155/ERC1155.sol\":11080:11084  data */\n      dup8\n        /* \"@openzeppelin/contracts/token/ERC1155/ERC1155.sol\":11024:11050  _updateWithAcceptanceCheck */\n      tag_189\n        /* \"@openzeppelin/contracts/token/ERC1155/ERC1155.sol\":11024:11085  _updateWithAcceptanceCheck(address(0), to, ids, values, data) */\n      jump\t// in\n    tag_208:\n        /* \"@openzeppelin/contracts/token/ERC1155/ERC1155.sol\":10828:11092  {... */\n      pop\n      pop\n        /* \"@openzeppelin/contracts/token/ERC1155/ERC1155.sol\":10746:11092  function _mint(address to, uint256 id, uint256 value, bytes memory data) internal {... */\n      pop\n      pop\n      pop\n      pop\n      jump\t// out\n        /* \"@openzeppelin/contracts/token/ERC1155/ERC1155.sol\":13268:13583  function _setApprovalForAll(address owner, address operator, bool approved) internal virtual {... */\n    tag_162:\n        /* \"@openzeppelin/contracts/token/ERC1155/ERC1155.sol\":13395:13396  0 */\n      0x00\n        /* \"@openzeppelin/contracts/token/ERC1155/ERC1155.sol\":13375:13397  operator == address(0) */\n      0xffffffffffffffffffffffffffffffffffffffff\n      and\n        /* \"@openzeppelin/contracts/token/ERC1155/ERC1155.sol\":13375:13383  operator */\n      dup3\n        /* \"@openzeppelin/contracts/token/ERC1155/ERC1155.sol\":13375:13397  operator == address(0) */\n      0xffffffffffffffffffffffffffffffffffffffff\n      and\n      sub\n        /* \"@openzeppelin/contracts/token/ERC1155/ERC1155.sol\":13371:13465  if (operator == address(0)) {... */\n      tag_210\n      jumpi\n        /* \"@openzeppelin/contracts/token/ERC1155/ERC1155.sol\":13451:13452  0 */\n      0x00\n        /* \"@openzeppelin/contracts/token/ERC1155/ERC1155.sol\":13420:13454  ERC1155InvalidOperator(address(0)) */\n      mload(0x40)\n      0xced3e10000000000000000000000000000000000000000000000000000000000\n      dup2\n      mstore\n      0x04\n      add\n      tag_211\n      swap2\n      swap1\n      tag_187\n      jump\t// in\n    tag_211:\n      mload(0x40)\n      dup1\n      swap2\n      sub\n      swap1\n      revert\n        /* \"@openzeppelin/contracts/token/ERC1155/ERC1155.sol\":13371:13465  if (operator == address(0)) {... */\n    tag_210:\n        /* \"@openzeppelin/contracts/token/ERC1155/ERC1155.sol\":13512:13520  approved */\n      dup1\n        /* \"@openzeppelin/contracts/token/ERC1155/ERC1155.sol\":13474:13492  _operatorApprovals */\n      0x01\n        /* \"@openzeppelin/contracts/token/ERC1155/ERC1155.sol\":13474:13499  _operatorApprovals[owner] */\n      0x00\n        /* \"@openzeppelin/contracts/token/ERC1155/ERC1155.sol\":13493:13498  owner */\n      dup6\n        /* \"@openzeppelin/contracts/token/ERC1155/ERC1155.sol\":13474:13499  _operatorApprovals[owner] */\n      0xffffffffffffffffffffffffffffffffffffffff\n      and\n      0xffffffffffffffffffffffffffffffffffffffff\n      and\n      dup2\n      mstore\n      0x20\n      add\n      swap1\n      dup2\n      mstore\n      0x20\n      add\n      0x00\n      keccak256\n        /* \"@openzeppelin/contracts/token/ERC1155/ERC1155.sol\":13474:13509  _operatorApprovals[owner][operator] */\n      0x00\n        /* \"@openzeppelin/contracts/token/ERC1155/ERC1155.sol\":13500:13508  operator */\n      dup5\n        /* \"@openzeppelin/contracts/token/ERC1155/ERC1155.sol\":13474:13509  _operatorApprovals[owner][operator] */\n      0xffffffffffffffffffffffffffffffffffffffff\n      and\n      0xffffffffffffffffffffffffffffffffffffffff\n      and\n      dup2\n      mstore\n      0x20\n      add\n      swap1\n      dup2\n      mstore\n      0x20\n      add\n      0x00\n      keccak256\n      0x00\n        /* \"@openzeppelin/contracts/token/ERC1155/ERC1155.sol\":13474:13520  _operatorApprovals[owner][operator] = approved */\n      0x0100\n      exp\n      dup2\n      sload\n      dup2\n      0xff\n      mul\n      not\n      and\n      swap1\n      dup4\n      iszero\n      iszero\n      mul\n      or\n      swap1\n      sstore\n      pop\n        /* \"@openzeppelin/contracts/token/ERC1155/ERC1155.sol\":13557:13565  operator */\n      dup2\n        /* \"@openzeppelin/contracts/token/ERC1155/ERC1155.sol\":13535:13576  ApprovalForAll(owner, operator, approved) */\n      0xffffffffffffffffffffffffffffffffffffffff\n      and\n        /* \"@openzeppelin/contracts/token/ERC1155/ERC1155.sol\":13550:13555  owner */\n      dup4\n        /* \"@openzeppelin/contracts/token/ERC1155/ERC1155.sol\":13535:13576  ApprovalForAll(owner, operator, approved) */\n      0xffffffffffffffffffffffffffffffffffffffff\n      and\n      0x17307eab39ab6107e8899845ad3d59bd9653f200f220920489ca2b5937696c31\n        /* \"@openzeppelin/contracts/token/ERC1155/ERC1155.sol\":13567:13575  approved */\n      dup4\n        /* \"@openzeppelin/contracts/token/ERC1155/ERC1155.sol\":13535:13576  ApprovalForAll(owner, operator, approved) */\n      mload(0x40)\n      tag_212\n      swap2\n      swap1\n      tag_32\n      jump\t// in\n    tag_212:\n      mload(0x40)\n      dup1\n      swap2\n      sub\n      swap1\n      log3\n        /* \"@openzeppelin/contracts/token/ERC1155/ERC1155.sol\":13268:13583  function _setApprovalForAll(address owner, address operator, bool approved) internal virtual {... */\n      pop\n      pop\n      pop\n      jump\t// out\n        /* \"@openzeppelin/contracts/token/ERC1155/ERC1155.sol\":8151:8614  function _safeTransferFrom(address from, address to, uint256 id, uint256 value, bytes memory data) internal {... */\n    tag_172:\n        /* \"@openzeppelin/contracts/token/ERC1155/ERC1155.sol\":8287:8288  0 */\n      0x00\n        /* \"@openzeppelin/contracts/token/ERC1155/ERC1155.sol\":8273:8289  to == address(0) */\n      0xffffffffffffffffffffffffffffffffffffffff\n      and\n        /* \"@openzeppelin/contracts/token/ERC1155/ERC1155.sol\":8273:8275  to */\n      dup5\n        /* \"@openzeppelin/contracts/token/ERC1155/ERC1155.sol\":8273:8289  to == address(0) */\n      0xffffffffffffffffffffffffffffffffffffffff\n      and\n      sub\n        /* \"@openzeppelin/contracts/token/ERC1155/ERC1155.sol\":8269:8357  if (to == address(0)) {... */\n      tag_214\n      jumpi\n        /* \"@openzeppelin/contracts/token/ERC1155/ERC1155.sol\":8343:8344  0 */\n      0x00\n        /* \"@openzeppelin/contracts/token/ERC1155/ERC1155.sol\":8312:8346  ERC1155InvalidReceiver(address(0)) */\n      mload(0x40)\n      0x57f447ce00000000000000000000000000000000000000000000000000000000\n      dup2\n      mstore\n      0x04\n      add\n      tag_215\n      swap2\n      swap1\n      tag_187\n      jump\t// in\n    tag_215:\n      mload(0x40)\n      dup1\n      swap2\n      sub\n      swap1\n      revert\n        /* \"@openzeppelin/contracts/token/ERC1155/ERC1155.sol\":8269:8357  if (to == address(0)) {... */\n    tag_214:\n        /* \"@openzeppelin/contracts/token/ERC1155/ERC1155.sol\":8386:8387  0 */\n      0x00\n        /* \"@openzeppelin/contracts/token/ERC1155/ERC1155.sol\":8370:8388  from == address(0) */\n      0xffffffffffffffffffffffffffffffffffffffff\n      and\n        /* \"@openzeppelin/contracts/token/ERC1155/ERC1155.sol\":8370:8374  from */\n      dup6\n        /* \"@openzeppelin/contracts/token/ERC1155/ERC1155.sol\":8370:8388  from == address(0) */\n      0xffffffffffffffffffffffffffffffffffffffff\n      and\n      sub\n        /* \"@openzeppelin/contracts/token/ERC1155/ERC1155.sol\":8366:8454  if (from == address(0)) {... */\n      tag_216\n      jumpi\n        /* \"@openzeppelin/contracts/token/ERC1155/ERC1155.sol\":8440:8441  0 */\n      0x00\n        /* \"@openzeppelin/contracts/token/ERC1155/ERC1155.sol\":8411:8443  ERC1155InvalidSender(address(0)) */\n      mload(0x40)\n      0x01a8351400000000000000000000000000000000000000000000000000000000\n      dup2\n      mstore\n      0x04\n      add\n      tag_217\n      swap2\n      swap1\n      tag_187\n      jump\t// in\n    tag_217:\n      mload(0x40)\n      dup1\n      swap2\n      sub\n      swap1\n      revert\n        /* \"@openzeppelin/contracts/token/ERC1155/ERC1155.sol\":8366:8454  if (from == address(0)) {... */\n    tag_216:\n        /* \"@openzeppelin/contracts/token/ERC1155/ERC1155.sol\":8464:8484  uint256[] memory ids */\n      0x00\n        /* \"@openzeppelin/contracts/token/ERC1155/ERC1155.sol\":8486:8509  uint256[] memory values */\n      dup1\n        /* \"@openzeppelin/contracts/token/ERC1155/ERC1155.sol\":8513:8542  _asSingletonArrays(id, value) */\n      tag_218\n        /* \"@openzeppelin/contracts/token/ERC1155/ERC1155.sol\":8532:8534  id */\n      dup6\n        /* \"@openzeppelin/contracts/token/ERC1155/ERC1155.sol\":8536:8541  value */\n      dup6\n        /* \"@openzeppelin/contracts/token/ERC1155/ERC1155.sol\":8513:8531  _asSingletonArrays */\n      tag_207\n        /* \"@openzeppelin/contracts/token/ERC1155/ERC1155.sol\":8513:8542  _asSingletonArrays(id, value) */\n      jump\t// in\n    tag_218:\n        /* \"@openzeppelin/contracts/token/ERC1155/ERC1155.sol\":8463:8542  (uint256[] memory ids, uint256[] memory values) = _asSingletonArrays(id, value) */\n      swap2\n      pop\n      swap2\n      pop\n        /* \"@openzeppelin/contracts/token/ERC1155/ERC1155.sol\":8552:8607  _updateWithAcceptanceCheck(from, to, ids, values, data) */\n      tag_219\n        /* \"@openzeppelin/contracts/token/ERC1155/ERC1155.sol\":8579:8583  from */\n      dup8\n        /* \"@openzeppelin/contracts/token/ERC1155/ERC1155.sol\":8585:8587  to */\n      dup8\n        /* \"@openzeppelin/contracts/token/ERC1155/ERC1155.sol\":8589:8592  ids */\n      dup5\n        /* \"@openzeppelin/contracts/token/ERC1155/ERC1155.sol\":8594:8600  values */\n      dup5\n        /* \"@openzeppelin/contracts/token/ERC1155/ERC1155.sol\":8602:8606  data */\n      dup8\n        /* \"@openzeppelin/contracts/token/ERC1155/ERC1155.sol\":8552:8578  _updateWithAcceptanceCheck */\n      tag_189\n        /* \"@openzeppelin/contracts/token/ERC1155/ERC1155.sol\":8552:8607  _updateWithAcceptanceCheck(from, to, ids, values, data) */\n      jump\t// in\n    tag_219:\n        /* \"@openzeppelin/contracts/token/ERC1155/ERC1155.sol\":8259:8614  {... */\n      pop\n      pop\n        /* \"@openzeppelin/contracts/token/ERC1155/ERC1155.sol\":8151:8614  function _safeTransferFrom(address from, address to, uint256 id, uint256 value, bytes memory data) internal {... */\n      pop\n      pop\n      pop\n      pop\n      pop\n      jump\t// out\n        /* \"@openzeppelin/contracts/token/ERC1155/ERC1155.sol\":12099:12428  function _burn(address from, uint256 id, uint256 value) internal {... */\n    tag_182:\n        /* \"@openzeppelin/contracts/token/ERC1155/ERC1155.sol\":12194:12195  0 */\n      0x00\n        /* \"@openzeppelin/contracts/token/ERC1155/ERC1155.sol\":12178:12196  from == address(0) */\n      0xffffffffffffffffffffffffffffffffffffffff\n      and\n        /* \"@openzeppelin/contracts/token/ERC1155/ERC1155.sol\":12178:12182  from */\n      dup4\n        /* \"@openzeppelin/contracts/token/ERC1155/ERC1155.sol\":12178:12196  from == address(0) */\n      0xffffffffffffffffffffffffffffffffffffffff\n      and\n      sub\n        /* \"@openzeppelin/contracts/token/ERC1155/ERC1155.sol\":12174:12262  if (from == address(0)) {... */\n      tag_221\n      jumpi\n        /* \"@openzeppelin/contracts/token/ERC1155/ERC1155.sol\":12248:12249  0 */\n      0x00\n        /* \"@openzeppelin/contracts/token/ERC1155/ERC1155.sol\":12219:12251  ERC1155InvalidSender(address(0)) */\n      mload(0x40)\n      0x01a8351400000000000000000000000000000000000000000000000000000000\n      dup2\n      mstore\n      0x04\n      add\n      tag_222\n      swap2\n      swap1\n      tag_187\n      jump\t// in\n    tag_222:\n      mload(0x40)\n      dup1\n      swap2\n      sub\n      swap1\n      revert\n        /* \"@openzeppelin/contracts/token/ERC1155/ERC1155.sol\":12174:12262  if (from == address(0)) {... */\n    tag_221:\n        /* \"@openzeppelin/contracts/token/ERC1155/ERC1155.sol\":12272:12292  uint256[] memory ids */\n      0x00\n        /* \"@openzeppelin/contracts/token/ERC1155/ERC1155.sol\":12294:12317  uint256[] memory values */\n      dup1\n        /* \"@openzeppelin/contracts/token/ERC1155/ERC1155.sol\":12321:12350  _asSingletonArrays(id, value) */\n      tag_223\n        /* \"@openzeppelin/contracts/token/ERC1155/ERC1155.sol\":12340:12342  id */\n      dup5\n        /* \"@openzeppelin/contracts/token/ERC1155/ERC1155.sol\":12344:12349  value */\n      dup5\n        /* \"@openzeppelin/contracts/token/ERC1155/ERC1155.sol\":12321:12339  _asSingletonArrays */\n      tag_207\n        /* \"@openzeppelin/contracts/token/ERC1155/ERC1155.sol\":12321:12350  _asSingletonArrays(id, value) */\n      jump\t// in\n    tag_223:\n        /* \"@openzeppelin/contracts/token/ERC1155/ERC1155.sol\":12271:12350  (uint256[] memory ids, uint256[] memory values) = _asSingletonArrays(id, value) */\n      swap2\n      pop\n      swap2\n      pop\n        /* \"@openzeppelin/contracts/token/ERC1155/ERC1155.sol\":12360:12421  _updateWithAcceptanceCheck(from, address(0), ids, values, \"\") */\n      tag_224\n        /* \"@openzeppelin/contracts/token/ERC1155/ERC1155.sol\":12387:12391  from */\n      dup6\n        /* \"@openzeppelin/contracts/token/ERC1155/ERC1155.sol\":12401:12402  0 */\n      0x00\n        /* \"@openzeppelin/contracts/token/ERC1155/ERC1155.sol\":12405:12408  ids */\n      dup5\n        /* \"@openzeppelin/contracts/token/ERC1155/ERC1155.sol\":12410:12416  values */\n      dup5\n        /* \"@openzeppelin/contracts/token/ERC1155/ERC1155.sol\":12360:12421  _updateWithAcceptanceCheck(from, address(0), ids, values, \"\") */\n      mload(0x40)\n      dup1\n      0x20\n      add\n      0x40\n      mstore\n      dup1\n      0x00\n      dup2\n      mstore\n      pop\n        /* \"@openzeppelin/contracts/token/ERC1155/ERC1155.sol\":12360:12386  _updateWithAcceptanceCheck */\n      tag_189\n        /* \"@openzeppelin/contracts/token/ERC1155/ERC1155.sol\":12360:12421  _updateWithAcceptanceCheck(from, address(0), ids, values, \"\") */\n      jump\t// in\n    tag_224:\n        /* \"@openzeppelin/contracts/token/ERC1155/ERC1155.sol\":12164:12428  {... */\n      pop\n      pop\n        /* \"@openzeppelin/contracts/token/ERC1155/ERC1155.sol\":12099:12428  function _burn(address from, uint256 id, uint256 value) internal {... */\n      pop\n      pop\n      pop\n      jump\t// out\n        /* \"@openzeppelin/contracts/token/ERC1155/ERC1155.sol\":7004:7694  function _updateWithAcceptanceCheck(... */\n    tag_189:\n        /* \"@openzeppelin/contracts/token/ERC1155/ERC1155.sol\":7205:7235  _update(from, to, ids, values) */\n      tag_226\n        /* \"@openzeppelin/contracts/token/ERC1155/ERC1155.sol\":7213:7217  from */\n      dup6\n        /* \"@openzeppelin/contracts/token/ERC1155/ERC1155.sol\":7219:7221  to */\n      dup6\n        /* \"@openzeppelin/contracts/token/ERC1155/ERC1155.sol\":7223:7226  ids */\n      dup6\n        /* \"@openzeppelin/contracts/token/ERC1155/ERC1155.sol\":7228:7234  values */\n      dup6\n        /* \"@openzeppelin/contracts/token/ERC1155/ERC1155.sol\":7205:7212  _update */\n      tag_227\n        /* \"@openzeppelin/contracts/token/ERC1155/ERC1155.sol\":7205:7235  _update(from, to, ids, values) */\n      jump\t// in\n    tag_226:\n        /* \"@openzeppelin/contracts/token/ERC1155/ERC1155.sol\":7263:7264  0 */\n      0x00\n        /* \"@openzeppelin/contracts/token/ERC1155/ERC1155.sol\":7249:7265  to != address(0) */\n      0xffffffffffffffffffffffffffffffffffffffff\n      and\n        /* \"@openzeppelin/contracts/token/ERC1155/ERC1155.sol\":7249:7251  to */\n      dup5\n        /* \"@openzeppelin/contracts/token/ERC1155/ERC1155.sol\":7249:7265  to != address(0) */\n      0xffffffffffffffffffffffffffffffffffffffff\n      and\n      eq\n        /* \"@openzeppelin/contracts/token/ERC1155/ERC1155.sol\":7245:7688  if (to != address(0)) {... */\n      tag_228\n      jumpi\n        /* \"@openzeppelin/contracts/token/ERC1155/ERC1155.sol\":7281:7297  address operator */\n      0x00\n        /* \"@openzeppelin/contracts/token/ERC1155/ERC1155.sol\":7300:7312  _msgSender() */\n      tag_229\n        /* \"@openzeppelin/contracts/token/ERC1155/ERC1155.sol\":7300:7310  _msgSender */\n      tag_112\n        /* \"@openzeppelin/contracts/token/ERC1155/ERC1155.sol\":7300:7312  _msgSender() */\n      jump\t// in\n    tag_229:\n        /* \"@openzeppelin/contracts/token/ERC1155/ERC1155.sol\":7281:7312  address operator = _msgSender() */\n      swap1\n      pop\n        /* \"@openzeppelin/contracts/token/ERC1155/ERC1155.sol\":7344:7345  1 */\n      0x01\n        /* \"@openzeppelin/contracts/token/ERC1155/ERC1155.sol\":7330:7333  ids */\n      dup5\n        /* \"@openzeppelin/contracts/token/ERC1155/ERC1155.sol\":7330:7340  ids.length */\n      mload\n        /* \"@openzeppelin/contracts/token/ERC1155/ERC1155.sol\":7330:7345  ids.length == 1 */\n      sub\n        /* \"@openzeppelin/contracts/token/ERC1155/ERC1155.sol\":7326:7678  if (ids.length == 1) {... */\n      tag_230\n      jumpi\n        /* \"@openzeppelin/contracts/token/ERC1155/ERC1155.sol\":7365:7375  uint256 id */\n      0x00\n        /* \"@openzeppelin/contracts/token/ERC1155/ERC1155.sol\":7378:7403  ids.unsafeMemoryAccess(0) */\n      tag_231\n        /* \"@openzeppelin/contracts/token/ERC1155/ERC1155.sol\":7401:7402  0 */\n      0x00\n        /* \"@openzeppelin/contracts/token/ERC1155/ERC1155.sol\":7378:7381  ids */\n      dup7\n        /* \"@openzeppelin/contracts/token/ERC1155/ERC1155.sol\":7378:7400  ids.unsafeMemoryAccess */\n      tag_135\n      swap1\n        /* \"@openzeppelin/contracts/token/ERC1155/ERC1155.sol\":7378:7403  ids.unsafeMemoryAccess(0) */\n      swap2\n      swap1\n      0xffffffff\n      and\n      jump\t// in\n    tag_231:\n        /* \"@openzeppelin/contracts/token/ERC1155/ERC1155.sol\":7365:7403  uint256 id = ids.unsafeMemoryAccess(0) */\n      swap1\n      pop\n        /* \"@openzeppelin/contracts/token/ERC1155/ERC1155.sol\":7421:7434  uint256 value */\n      0x00\n        /* \"@openzeppelin/contracts/token/ERC1155/ERC1155.sol\":7437:7465  values.unsafeMemoryAccess(0) */\n      tag_232\n        /* \"@openzeppelin/contracts/token/ERC1155/ERC1155.sol\":7463:7464  0 */\n      0x00\n        /* \"@openzeppelin/contracts/token/ERC1155/ERC1155.sol\":7437:7443  values */\n      dup7\n        /* \"@openzeppelin/contracts/token/ERC1155/ERC1155.sol\":7437:7462  values.unsafeMemoryAccess */\n      tag_135\n      swap1\n        /* \"@openzeppelin/contracts/token/ERC1155/ERC1155.sol\":7437:7465  values.unsafeMemoryAccess(0) */\n      swap2\n      swap1\n      0xffffffff\n      and\n      jump\t// in\n    tag_232:\n        /* \"@openzeppelin/contracts/token/ERC1155/ERC1155.sol\":7421:7465  uint256 value = values.unsafeMemoryAccess(0) */\n      swap1\n      pop\n        /* \"@openzeppelin/contracts/token/ERC1155/ERC1155.sol\":7483:7550  _doSafeTransferAcceptanceCheck(operator, from, to, id, value, data) */\n      tag_233\n        /* \"@openzeppelin/contracts/token/ERC1155/ERC1155.sol\":7514:7522  operator */\n      dup4\n        /* \"@openzeppelin/contracts/token/ERC1155/ERC1155.sol\":7524:7528  from */\n      dup10\n        /* \"@openzeppelin/contracts/token/ERC1155/ERC1155.sol\":7530:7532  to */\n      dup10\n        /* \"@openzeppelin/contracts/token/ERC1155/ERC1155.sol\":7534:7536  id */\n      dup6\n        /* \"@openzeppelin/contracts/token/ERC1155/ERC1155.sol\":7538:7543  value */\n      dup6\n        /* \"@openzeppelin/contracts/token/ERC1155/ERC1155.sol\":7545:7549  data */\n      dup10\n        /* \"@openzeppelin/contracts/token/ERC1155/ERC1155.sol\":7483:7513  _doSafeTransferAcceptanceCheck */\n      tag_234\n        /* \"@openzeppelin/contracts/token/ERC1155/ERC1155.sol\":7483:7550  _doSafeTransferAcceptanceCheck(operator, from, to, id, value, data) */\n      jump\t// in\n    tag_233:\n        /* \"@openzeppelin/contracts/token/ERC1155/ERC1155.sol\":7347:7565  {... */\n      pop\n      pop\n        /* \"@openzeppelin/contracts/token/ERC1155/ERC1155.sol\":7326:7678  if (ids.length == 1) {... */\n      jump(tag_235)\n    tag_230:\n        /* \"@openzeppelin/contracts/token/ERC1155/ERC1155.sol\":7589:7663  _doSafeBatchTransferAcceptanceCheck(operator, from, to, ids, values, data) */\n      tag_236\n        /* \"@openzeppelin/contracts/token/ERC1155/ERC1155.sol\":7625:7633  operator */\n      dup2\n        /* \"@openzeppelin/contracts/token/ERC1155/ERC1155.sol\":7635:7639  from */\n      dup8\n        /* \"@openzeppelin/contracts/token/ERC1155/ERC1155.sol\":7641:7643  to */\n      dup8\n        /* \"@openzeppelin/contracts/token/ERC1155/ERC1155.sol\":7645:7648  ids */\n      dup8\n        /* \"@openzeppelin/contracts/token/ERC1155/ERC1155.sol\":7650:7656  values */\n      dup8\n        /* \"@openzeppelin/contracts/token/ERC1155/ERC1155.sol\":7658:7662  data */\n      dup8\n        /* \"@openzeppelin/contracts/token/ERC1155/ERC1155.sol\":7589:7624  _doSafeBatchTransferAcceptanceCheck */\n      tag_237\n        /* \"@openzeppelin/contracts/token/ERC1155/ERC1155.sol\":7589:7663  _doSafeBatchTransferAcceptanceCheck(operator, from, to, ids, values, data) */\n      jump\t// in\n    tag_236:\n        /* \"@openzeppelin/contracts/token/ERC1155/ERC1155.sol\":7326:7678  if (ids.length == 1) {... */\n    tag_235:\n        /* \"@openzeppelin/contracts/token/ERC1155/ERC1155.sol\":7267:7688  {... */\n      pop\n        /* \"@openzeppelin/contracts/token/ERC1155/ERC1155.sol\":7245:7688  if (to != address(0)) {... */\n    tag_228:\n        /* \"@openzeppelin/contracts/token/ERC1155/ERC1155.sol\":7004:7694  function _updateWithAcceptanceCheck(... */\n      pop\n      pop\n      pop\n      pop\n      pop\n      jump\t// out\n        /* \"@openzeppelin/contracts/token/ERC1155/ERC1155.sol\":16080:16929  function _asSingletonArrays(... */\n    tag_207:\n        /* \"@openzeppelin/contracts/token/ERC1155/ERC1155.sol\":16188:16211  uint256[] memory array1 */\n      0x60\n        /* \"@openzeppelin/contracts/token/ERC1155/ERC1155.sol\":16213:16236  uint256[] memory array2 */\n      dup1\n        /* \"@openzeppelin/contracts/token/ERC1155/ERC1155.sol\":16374:16378  0x40 */\n      0x40\n        /* \"@openzeppelin/contracts/token/ERC1155/ERC1155.sol\":16368:16379  mload(0x40) */\n      mload\n        /* \"@openzeppelin/contracts/token/ERC1155/ERC1155.sol\":16358:16379  array1 := mload(0x40) */\n      swap2\n      pop\n        /* \"@openzeppelin/contracts/token/ERC1155/ERC1155.sol\":16444:16445  1 */\n      0x01\n        /* \"@openzeppelin/contracts/token/ERC1155/ERC1155.sol\":16436:16442  array1 */\n      dup3\n        /* \"@openzeppelin/contracts/token/ERC1155/ERC1155.sol\":16429:16446  mstore(array1, 1) */\n      mstore\n        /* \"@openzeppelin/contracts/token/ERC1155/ERC1155.sol\":16582:16590  element1 */\n      dup4\n        /* \"@openzeppelin/contracts/token/ERC1155/ERC1155.sol\":16575:16579  0x20 */\n      0x20\n        /* \"@openzeppelin/contracts/token/ERC1155/ERC1155.sol\":16567:16573  array1 */\n      dup4\n        /* \"@openzeppelin/contracts/token/ERC1155/ERC1155.sol\":16563:16580  add(array1, 0x20) */\n      add\n        /* \"@openzeppelin/contracts/token/ERC1155/ERC1155.sol\":16556:16591  mstore(add(array1, 0x20), element1) */\n      mstore\n        /* \"@openzeppelin/contracts/token/ERC1155/ERC1155.sol\":16704:16708  0x40 */\n      0x40\n        /* \"@openzeppelin/contracts/token/ERC1155/ERC1155.sol\":16696:16702  array1 */\n      dup3\n        /* \"@openzeppelin/contracts/token/ERC1155/ERC1155.sol\":16692:16709  add(array1, 0x40) */\n      add\n        /* \"@openzeppelin/contracts/token/ERC1155/ERC1155.sol\":16682:16709  array2 := add(array1, 0x40) */\n      swap1\n      pop\n        /* \"@openzeppelin/contracts/token/ERC1155/ERC1155.sol\":16737:16738  1 */\n      0x01\n        /* \"@openzeppelin/contracts/token/ERC1155/ERC1155.sol\":16729:16735  array2 */\n      dup2\n        /* \"@openzeppelin/contracts/token/ERC1155/ERC1155.sol\":16722:16739  mstore(array2, 1) */\n      mstore\n        /* \"@openzeppelin/contracts/token/ERC1155/ERC1155.sol\":16778:16786  element2 */\n      dup3\n        /* \"@openzeppelin/contracts/token/ERC1155/ERC1155.sol\":16771:16775  0x20 */\n      0x20\n        /* \"@openzeppelin/contracts/token/ERC1155/ERC1155.sol\":16763:16769  array2 */\n      dup3\n        /* \"@openzeppelin/contracts/token/ERC1155/ERC1155.sol\":16759:16776  add(array2, 0x20) */\n      add\n        /* \"@openzeppelin/contracts/token/ERC1155/ERC1155.sol\":16752:16787  mstore(add(array2, 0x20), element2) */\n      mstore\n        /* \"@openzeppelin/contracts/token/ERC1155/ERC1155.sol\":16907:16911  0x40 */\n      0x40\n        /* \"@openzeppelin/contracts/token/ERC1155/ERC1155.sol\":16899:16905  array2 */\n      dup2\n        /* \"@openzeppelin/contracts/token/ERC1155/ERC1155.sol\":16895:16912  add(array2, 0x40) */\n      add\n        /* \"@openzeppelin/contracts/token/ERC1155/ERC1155.sol\":16889:16893  0x40 */\n      0x40\n        /* \"@openzeppelin/contracts/token/ERC1155/ERC1155.sol\":16882:16913  mstore(0x40, add(array2, 0x40)) */\n      mstore\n        /* \"@openzeppelin/contracts/token/ERC1155/ERC1155.sol\":16080:16929  function _asSingletonArrays(... */\n      swap3\n      pop\n      swap3\n      swap1\n      pop\n      jump\t// out\n        /* \"contracts/Items/Items.sol\":997:1197  function _update (... */\n    tag_227:\n        /* \"contracts/Items/Items.sol\":1156:1192  super._update(from, to, ids, values) */\n      tag_240\n        /* \"contracts/Items/Items.sol\":1170:1174  from */\n      dup5\n        /* \"contracts/Items/Items.sol\":1176:1178  to */\n      dup5\n        /* \"contracts/Items/Items.sol\":1180:1183  ids */\n      dup5\n        /* \"contracts/Items/Items.sol\":1185:1191  values */\n      dup5\n        /* \"contracts/Items/Items.sol\":1156:1169  super._update */\n      tag_241\n        /* \"contracts/Items/Items.sol\":1156:1192  super._update(from, to, ids, values) */\n      jump\t// in\n    tag_240:\n        /* \"contracts/Items/Items.sol\":997:1197  function _update (... */\n      pop\n      pop\n      pop\n      pop\n      jump\t// out\n        /* \"@openzeppelin/contracts/token/ERC1155/ERC1155.sol\":13761:14735  function _doSafeTransferAcceptanceCheck(... */\n    tag_234:\n        /* \"@openzeppelin/contracts/token/ERC1155/ERC1155.sol\":13984:13985  0 */\n      0x00\n        /* \"@openzeppelin/contracts/token/ERC1155/ERC1155.sol\":13967:13969  to */\n      dup5\n        /* \"@openzeppelin/contracts/token/ERC1155/ERC1155.sol\":13967:13981  to.code.length */\n      0xffffffffffffffffffffffffffffffffffffffff\n      and\n      extcodesize\n        /* \"@openzeppelin/contracts/token/ERC1155/ERC1155.sol\":13967:13985  to.code.length > 0 */\n      gt\n        /* \"@openzeppelin/contracts/token/ERC1155/ERC1155.sol\":13963:14729  if (to.code.length > 0) {... */\n      iszero\n      tag_243\n      jumpi\n        /* \"@openzeppelin/contracts/token/ERC1155/ERC1155.sol\":14022:14024  to */\n      dup4\n        /* \"@openzeppelin/contracts/token/ERC1155/ERC1155.sol\":14005:14043  IERC1155Receiver(to).onERC1155Received */\n      0xffffffffffffffffffffffffffffffffffffffff\n      and\n      0xf23a6e61\n        /* \"@openzeppelin/contracts/token/ERC1155/ERC1155.sol\":14044:14052  operator */\n      dup8\n        /* \"@openzeppelin/contracts/token/ERC1155/ERC1155.sol\":14054:14058  from */\n      dup8\n        /* \"@openzeppelin/contracts/token/ERC1155/ERC1155.sol\":14060:14062  id */\n      dup7\n        /* \"@openzeppelin/contracts/token/ERC1155/ERC1155.sol\":14064:14069  value */\n      dup7\n        /* \"@openzeppelin/contracts/token/ERC1155/ERC1155.sol\":14071:14075  data */\n      dup7\n        /* \"@openzeppelin/contracts/token/ERC1155/ERC1155.sol\":14005:14076  IERC1155Receiver(to).onERC1155Received(operator, from, id, value, data) */\n      mload(0x40)\n      dup7\n      0xffffffff\n      and\n      0xe0\n      shl\n      dup2\n      mstore\n      0x04\n      add\n      tag_244\n      swap6\n      swap5\n      swap4\n      swap3\n      swap2\n      swap1\n      tag_245\n      jump\t// in\n    tag_244:\n      0x20\n      mload(0x40)\n      dup1\n      dup4\n      sub\n      dup2\n      0x00\n      dup8\n      gas\n      call\n      swap3\n      pop\n      pop\n      pop\n      dup1\n      iszero\n      tag_246\n      jumpi\n      pop\n      mload(0x40)\n      returndatasize\n      not(0x1f)\n      0x1f\n      dup3\n      add\n      and\n      dup3\n      add\n      dup1\n      0x40\n      mstore\n      pop\n      dup2\n      add\n      swap1\n      tag_247\n      swap2\n      swap1\n      tag_248\n      jump\t// in\n    tag_247:\n      0x01\n    tag_246:\n        /* \"@openzeppelin/contracts/token/ERC1155/ERC1155.sol\":14001:14719  try IERC1155Receiver(to).onERC1155Received(operator, from, id, value, data) returns (bytes4 response) {... */\n      tag_249\n      jumpi\n      returndatasize\n      dup1\n      0x00\n      dup2\n      eq\n      tag_254\n      jumpi\n      mload(0x40)\n      swap2\n      pop\n      and(add(returndatasize, 0x3f), not(0x1f))\n      dup3\n      add\n      0x40\n      mstore\n      returndatasize\n      dup3\n      mstore\n      returndatasize\n      0x00\n      0x20\n      dup5\n      add\n      returndatacopy\n      jump(tag_253)\n    tag_254:\n      0x60\n      swap2\n      pop\n    tag_253:\n      pop\n        /* \"@openzeppelin/contracts/token/ERC1155/ERC1155.sol\":14377:14378  0 */\n      0x00\n        /* \"@openzeppelin/contracts/token/ERC1155/ERC1155.sol\":14360:14366  reason */\n      dup2\n        /* \"@openzeppelin/contracts/token/ERC1155/ERC1155.sol\":14360:14373  reason.length */\n      mload\n        /* \"@openzeppelin/contracts/token/ERC1155/ERC1155.sol\":14360:14378  reason.length == 0 */\n      sub\n        /* \"@openzeppelin/contracts/token/ERC1155/ERC1155.sol\":14356:14705  if (reason.length == 0) {... */\n      tag_255\n      jumpi\n        /* \"@openzeppelin/contracts/token/ERC1155/ERC1155.sol\":14487:14489  to */\n      dup5\n        /* \"@openzeppelin/contracts/token/ERC1155/ERC1155.sol\":14464:14490  ERC1155InvalidReceiver(to) */\n      mload(0x40)\n      0x57f447ce00000000000000000000000000000000000000000000000000000000\n      dup2\n      mstore\n      0x04\n      add\n      tag_256\n      swap2\n      swap1\n      tag_187\n      jump\t// in\n    tag_256:\n      mload(0x40)\n      dup1\n      swap2\n      sub\n      swap1\n      revert\n        /* \"@openzeppelin/contracts/token/ERC1155/ERC1155.sol\":14356:14705  if (reason.length == 0) {... */\n    tag_255:\n        /* \"@openzeppelin/contracts/token/ERC1155/ERC1155.sol\":14657:14663  reason */\n      dup1\n        /* \"@openzeppelin/contracts/token/ERC1155/ERC1155.sol\":14651:14664  mload(reason) */\n      mload\n        /* \"@openzeppelin/contracts/token/ERC1155/ERC1155.sol\":14642:14648  reason */\n      dup2\n        /* \"@openzeppelin/contracts/token/ERC1155/ERC1155.sol\":14638:14640  32 */\n      0x20\n        /* \"@openzeppelin/contracts/token/ERC1155/ERC1155.sol\":14634:14649  add(32, reason) */\n      add\n        /* \"@openzeppelin/contracts/token/ERC1155/ERC1155.sol\":14627:14665  revert(add(32, reason), mload(reason)) */\n      revert\n        /* \"@openzeppelin/contracts/token/ERC1155/ERC1155.sol\":14001:14719  try IERC1155Receiver(to).onERC1155Received(operator, from, id, value, data) returns (bytes4 response) {... */\n    tag_249:\n        /* \"@openzeppelin/contracts/token/ERC1155/ERC1155.sol\":14137:14180  IERC1155Receiver.onERC1155Received.selector */\n      shl(0xe0, 0xf23a6e61)\n        /* \"@openzeppelin/contracts/token/ERC1155/ERC1155.sol\":14125:14180  response != IERC1155Receiver.onERC1155Received.selector */\n      not(0xffffffffffffffffffffffffffffffffffffffffffffffffffffffff)\n      and\n        /* \"@openzeppelin/contracts/token/ERC1155/ERC1155.sol\":14125:14133  response */\n      dup2\n        /* \"@openzeppelin/contracts/token/ERC1155/ERC1155.sol\":14125:14180  response != IERC1155Receiver.onERC1155Received.selector */\n      not(0xffffffffffffffffffffffffffffffffffffffffffffffffffffffff)\n      and\n      eq\n        /* \"@openzeppelin/contracts/token/ERC1155/ERC1155.sol\":14121:14295  if (response != IERC1155Receiver.onERC1155Received.selector) {... */\n      tag_259\n      jumpi\n        /* \"@openzeppelin/contracts/token/ERC1155/ERC1155.sol\":14273:14275  to */\n      dup5\n        /* \"@openzeppelin/contracts/token/ERC1155/ERC1155.sol\":14250:14276  ERC1155InvalidReceiver(to) */\n      mload(0x40)\n      0x57f447ce00000000000000000000000000000000000000000000000000000000\n      dup2\n      mstore\n      0x04\n      add\n      tag_260\n      swap2\n      swap1\n      tag_187\n      jump\t// in\n    tag_260:\n      mload(0x40)\n      dup1\n      swap2\n      sub\n      swap1\n      revert\n        /* \"@openzeppelin/contracts/token/ERC1155/ERC1155.sol\":14121:14295  if (response != IERC1155Receiver.onERC1155Received.selector) {... */\n    tag_259:\n        /* \"@openzeppelin/contracts/token/ERC1155/ERC1155.sol\":14077:14309  returns (bytes4 response) {... */\n      pop\n        /* \"@openzeppelin/contracts/token/ERC1155/ERC1155.sol\":13963:14729  if (to.code.length > 0) {... */\n    tag_243:\n        /* \"@openzeppelin/contracts/token/ERC1155/ERC1155.sol\":13761:14735  function _doSafeTransferAcceptanceCheck(... */\n      pop\n      pop\n      pop\n      pop\n      pop\n      pop\n      jump\t// out\n        /* \"@openzeppelin/contracts/token/ERC1155/ERC1155.sol\":14923:15964  function _doSafeBatchTransferAcceptanceCheck(... */\n    tag_237:\n        /* \"@openzeppelin/contracts/token/ERC1155/ERC1155.sol\":15171:15172  0 */\n      0x00\n        /* \"@openzeppelin/contracts/token/ERC1155/ERC1155.sol\":15154:15156  to */\n      dup5\n        /* \"@openzeppelin/contracts/token/ERC1155/ERC1155.sol\":15154:15168  to.code.length */\n      0xffffffffffffffffffffffffffffffffffffffff\n      and\n      extcodesize\n        /* \"@openzeppelin/contracts/token/ERC1155/ERC1155.sol\":15154:15172  to.code.length > 0 */\n      gt\n        /* \"@openzeppelin/contracts/token/ERC1155/ERC1155.sol\":15150:15958  if (to.code.length > 0) {... */\n      iszero\n      tag_262\n      jumpi\n        /* \"@openzeppelin/contracts/token/ERC1155/ERC1155.sol\":15209:15211  to */\n      dup4\n        /* \"@openzeppelin/contracts/token/ERC1155/ERC1155.sol\":15192:15235  IERC1155Receiver(to).onERC1155BatchReceived */\n      0xffffffffffffffffffffffffffffffffffffffff\n      and\n      0xbc197c81\n        /* \"@openzeppelin/contracts/token/ERC1155/ERC1155.sol\":15236:15244  operator */\n      dup8\n        /* \"@openzeppelin/contracts/token/ERC1155/ERC1155.sol\":15246:15250  from */\n      dup8\n        /* \"@openzeppelin/contracts/token/ERC1155/ERC1155.sol\":15252:15255  ids */\n      dup7\n        /* \"@openzeppelin/contracts/token/ERC1155/ERC1155.sol\":15257:15263  values */\n      dup7\n        /* \"@openzeppelin/contracts/token/ERC1155/ERC1155.sol\":15265:15269  data */\n      dup7\n        /* \"@openzeppelin/contracts/token/ERC1155/ERC1155.sol\":15192:15270  IERC1155Receiver(to).onERC1155BatchReceived(operator, from, ids, values, data) */\n      mload(0x40)\n      dup7\n      0xffffffff\n      and\n      0xe0\n      shl\n      dup2\n      mstore\n      0x04\n      add\n      tag_263\n      swap6\n      swap5\n      swap4\n      swap3\n      swap2\n      swap1\n      tag_264\n      jump\t// in\n    tag_263:\n      0x20\n      mload(0x40)\n      dup1\n      dup4\n      sub\n      dup2\n      0x00\n      dup8\n      gas\n      call\n      swap3\n      pop\n      pop\n      pop\n      dup1\n      iszero\n      tag_265\n      jumpi\n      pop\n      mload(0x40)\n      returndatasize\n      not(0x1f)\n      0x1f\n      dup3\n      add\n      and\n      dup3\n      add\n      dup1\n      0x40\n      mstore\n      pop\n      dup2\n      add\n      swap1\n      tag_266\n      swap2\n      swap1\n      tag_248\n      jump\t// in\n    tag_266:\n      0x01\n    tag_265:\n        /* \"@openzeppelin/contracts/token/ERC1155/ERC1155.sol\":15188:15948  try IERC1155Receiver(to).onERC1155BatchReceived(operator, from, ids, values, data) returns (... */\n      tag_267\n      jumpi\n      returndatasize\n      dup1\n      0x00\n      dup2\n      eq\n      tag_272\n      jumpi\n      mload(0x40)\n      swap2\n      pop\n      and(add(returndatasize, 0x3f), not(0x1f))\n      dup3\n      add\n      0x40\n      mstore\n      returndatasize\n      dup3\n      mstore\n      returndatasize\n      0x00\n      0x20\n      dup5\n      add\n      returndatacopy\n      jump(tag_271)\n    tag_272:\n      0x60\n      swap2\n      pop\n    tag_271:\n      pop\n        /* \"@openzeppelin/contracts/token/ERC1155/ERC1155.sol\":15606:15607  0 */\n      0x00\n        /* \"@openzeppelin/contracts/token/ERC1155/ERC1155.sol\":15589:15595  reason */\n      dup2\n        /* \"@openzeppelin/contracts/token/ERC1155/ERC1155.sol\":15589:15602  reason.length */\n      mload\n        /* \"@openzeppelin/contracts/token/ERC1155/ERC1155.sol\":15589:15607  reason.length == 0 */\n      sub\n        /* \"@openzeppelin/contracts/token/ERC1155/ERC1155.sol\":15585:15934  if (reason.length == 0) {... */\n      tag_273\n      jumpi\n        /* \"@openzeppelin/contracts/token/ERC1155/ERC1155.sol\":15716:15718  to */\n      dup5\n        /* \"@openzeppelin/contracts/token/ERC1155/ERC1155.sol\":15693:15719  ERC1155InvalidReceiver(to) */\n      mload(0x40)\n      0x57f447ce00000000000000000000000000000000000000000000000000000000\n      dup2\n      mstore\n      0x04\n      add\n      tag_274\n      swap2\n      swap1\n      tag_187\n      jump\t// in\n    tag_274:\n      mload(0x40)\n      dup1\n      swap2\n      sub\n      swap1\n      revert\n        /* \"@openzeppelin/contracts/token/ERC1155/ERC1155.sol\":15585:15934  if (reason.length == 0) {... */\n    tag_273:\n        /* \"@openzeppelin/contracts/token/ERC1155/ERC1155.sol\":15886:15892  reason */\n      dup1\n        /* \"@openzeppelin/contracts/token/ERC1155/ERC1155.sol\":15880:15893  mload(reason) */\n      mload\n        /* \"@openzeppelin/contracts/token/ERC1155/ERC1155.sol\":15871:15877  reason */\n      dup2\n        /* \"@openzeppelin/contracts/token/ERC1155/ERC1155.sol\":15867:15869  32 */\n      0x20\n        /* \"@openzeppelin/contracts/token/ERC1155/ERC1155.sol\":15863:15878  add(32, reason) */\n      add\n        /* \"@openzeppelin/contracts/token/ERC1155/ERC1155.sol\":15856:15894  revert(add(32, reason), mload(reason)) */\n      revert\n        /* \"@openzeppelin/contracts/token/ERC1155/ERC1155.sol\":15188:15948  try IERC1155Receiver(to).onERC1155BatchReceived(operator, from, ids, values, data) returns (... */\n    tag_267:\n        /* \"@openzeppelin/contracts/token/ERC1155/ERC1155.sol\":15361:15409  IERC1155Receiver.onERC1155BatchReceived.selector */\n      shl(0xe0, 0xbc197c81)\n        /* \"@openzeppelin/contracts/token/ERC1155/ERC1155.sol\":15349:15409  response != IERC1155Receiver.onERC1155BatchReceived.selector */\n      not(0xffffffffffffffffffffffffffffffffffffffffffffffffffffffff)\n      and\n        /* \"@openzeppelin/contracts/token/ERC1155/ERC1155.sol\":15349:15357  response */\n      dup2\n        /* \"@openzeppelin/contracts/token/ERC1155/ERC1155.sol\":15349:15409  response != IERC1155Receiver.onERC1155BatchReceived.selector */\n      not(0xffffffffffffffffffffffffffffffffffffffffffffffffffffffff)\n      and\n      eq\n        /* \"@openzeppelin/contracts/token/ERC1155/ERC1155.sol\":15345:15524  if (response != IERC1155Receiver.onERC1155BatchReceived.selector) {... */\n      tag_277\n      jumpi\n        /* \"@openzeppelin/contracts/token/ERC1155/ERC1155.sol\":15502:15504  to */\n      dup5\n        /* \"@openzeppelin/contracts/token/ERC1155/ERC1155.sol\":15479:15505  ERC1155InvalidReceiver(to) */\n      mload(0x40)\n      0x57f447ce00000000000000000000000000000000000000000000000000000000\n      dup2\n      mstore\n      0x04\n      add\n      tag_278\n      swap2\n      swap1\n      tag_187\n      jump\t// in\n    tag_278:\n      mload(0x40)\n      dup1\n      swap2\n      sub\n      swap1\n      revert\n        /* \"@openzeppelin/contracts/token/ERC1155/ERC1155.sol\":15345:15524  if (response != IERC1155Receiver.onERC1155BatchReceived.selector) {... */\n    tag_277:\n        /* \"@openzeppelin/contracts/token/ERC1155/ERC1155.sol\":15271:15538  returns (... */\n      pop\n        /* \"@openzeppelin/contracts/token/ERC1155/ERC1155.sol\":15150:15958  if (to.code.length > 0) {... */\n    tag_262:\n        /* \"@openzeppelin/contracts/token/ERC1155/ERC1155.sol\":14923:15964  function _doSafeBatchTransferAcceptanceCheck(... */\n      pop\n      pop\n      pop\n      pop\n      pop\n      pop\n      jump\t// out\n        /* \"@openzeppelin/contracts/token/ERC1155/extensions/ERC1155Supply.sol\":1483:3001  function _update(... */\n    tag_241:\n        /* \"@openzeppelin/contracts/token/ERC1155/extensions/ERC1155Supply.sol\":1647:1683  super._update(from, to, ids, values) */\n      tag_280\n        /* \"@openzeppelin/contracts/token/ERC1155/extensions/ERC1155Supply.sol\":1661:1665  from */\n      dup5\n        /* \"@openzeppelin/contracts/token/ERC1155/extensions/ERC1155Supply.sol\":1667:1669  to */\n      dup5\n        /* \"@openzeppelin/contracts/token/ERC1155/extensions/ERC1155Supply.sol\":1671:1674  ids */\n      dup5\n        /* \"@openzeppelin/contracts/token/ERC1155/extensions/ERC1155Supply.sol\":1676:1682  values */\n      dup5\n        /* \"@openzeppelin/contracts/token/ERC1155/extensions/ERC1155Supply.sol\":1647:1660  super._update */\n      tag_281\n        /* \"@openzeppelin/contracts/token/ERC1155/extensions/ERC1155Supply.sol\":1647:1683  super._update(from, to, ids, values) */\n      jump\t// in\n    tag_280:\n        /* \"@openzeppelin/contracts/token/ERC1155/extensions/ERC1155Supply.sol\":1714:1715  0 */\n      0x00\n        /* \"@openzeppelin/contracts/token/ERC1155/extensions/ERC1155Supply.sol\":1698:1716  from == address(0) */\n      0xffffffffffffffffffffffffffffffffffffffff\n      and\n        /* \"@openzeppelin/contracts/token/ERC1155/extensions/ERC1155Supply.sol\":1698:1702  from */\n      dup5\n        /* \"@openzeppelin/contracts/token/ERC1155/extensions/ERC1155Supply.sol\":1698:1716  from == address(0) */\n      0xffffffffffffffffffffffffffffffffffffffff\n      and\n      sub\n        /* \"@openzeppelin/contracts/token/ERC1155/extensions/ERC1155Supply.sol\":1694:2227  if (from == address(0)) {... */\n      tag_282\n      jumpi\n        /* \"@openzeppelin/contracts/token/ERC1155/extensions/ERC1155Supply.sol\":1732:1754  uint256 totalMintValue */\n      0x00\n        /* \"@openzeppelin/contracts/token/ERC1155/extensions/ERC1155Supply.sol\":1777:1786  uint256 i */\n      dup1\n        /* \"@openzeppelin/contracts/token/ERC1155/extensions/ERC1155Supply.sol\":1772:2065  for (uint256 i = 0; i < ids.length; ++i) {... */\n    tag_283:\n        /* \"@openzeppelin/contracts/token/ERC1155/extensions/ERC1155Supply.sol\":1796:1799  ids */\n      dup4\n        /* \"@openzeppelin/contracts/token/ERC1155/extensions/ERC1155Supply.sol\":1796:1806  ids.length */\n      mload\n        /* \"@openzeppelin/contracts/token/ERC1155/extensions/ERC1155Supply.sol\":1792:1793  i */\n      dup2\n        /* \"@openzeppelin/contracts/token/ERC1155/extensions/ERC1155Supply.sol\":1792:1806  i < ids.length */\n      lt\n        /* \"@openzeppelin/contracts/token/ERC1155/extensions/ERC1155Supply.sol\":1772:2065  for (uint256 i = 0; i < ids.length; ++i) {... */\n      iszero\n      tag_284\n      jumpi\n        /* \"@openzeppelin/contracts/token/ERC1155/extensions/ERC1155Supply.sol\":1831:1844  uint256 value */\n      0x00\n        /* \"@openzeppelin/contracts/token/ERC1155/extensions/ERC1155Supply.sol\":1847:1853  values */\n      dup4\n        /* \"@openzeppelin/contracts/token/ERC1155/extensions/ERC1155Supply.sol\":1854:1855  i */\n      dup3\n        /* \"@openzeppelin/contracts/token/ERC1155/extensions/ERC1155Supply.sol\":1847:1856  values[i] */\n      dup2\n      mload\n      dup2\n      lt\n      tag_286\n      jumpi\n      tag_287\n      tag_138\n      jump\t// in\n    tag_287:\n    tag_286:\n      0x20\n      mul\n      0x20\n      add\n      add\n      mload\n        /* \"@openzeppelin/contracts/token/ERC1155/extensions/ERC1155Supply.sol\":1831:1856  uint256 value = values[i] */\n      swap1\n      pop\n        /* \"@openzeppelin/contracts/token/ERC1155/extensions/ERC1155Supply.sol\":2004:2009  value */\n      dup1\n        /* \"@openzeppelin/contracts/token/ERC1155/extensions/ERC1155Supply.sol\":1980:1992  _totalSupply */\n      0x03\n        /* \"@openzeppelin/contracts/token/ERC1155/extensions/ERC1155Supply.sol\":1980:2000  _totalSupply[ids[i]] */\n      0x00\n        /* \"@openzeppelin/contracts/token/ERC1155/extensions/ERC1155Supply.sol\":1993:1996  ids */\n      dup8\n        /* \"@openzeppelin/contracts/token/ERC1155/extensions/ERC1155Supply.sol\":1997:1998  i */\n      dup6\n        /* \"@openzeppelin/contracts/token/ERC1155/extensions/ERC1155Supply.sol\":1993:1999  ids[i] */\n      dup2\n      mload\n      dup2\n      lt\n      tag_288\n      jumpi\n      tag_289\n      tag_138\n      jump\t// in\n    tag_289:\n    tag_288:\n      0x20\n      mul\n      0x20\n      add\n      add\n      mload\n        /* \"@openzeppelin/contracts/token/ERC1155/extensions/ERC1155Supply.sol\":1980:2000  _totalSupply[ids[i]] */\n      dup2\n      mstore\n      0x20\n      add\n      swap1\n      dup2\n      mstore\n      0x20\n      add\n      0x00\n      keccak256\n      0x00\n        /* \"@openzeppelin/contracts/token/ERC1155/extensions/ERC1155Supply.sol\":1980:2009  _totalSupply[ids[i]] += value */\n      dup3\n      dup3\n      sload\n      tag_290\n      swap2\n      swap1\n      tag_291\n      jump\t// in\n    tag_290:\n      swap3\n      pop\n      pop\n      dup2\n      swap1\n      sstore\n      pop\n        /* \"@openzeppelin/contracts/token/ERC1155/extensions/ERC1155Supply.sol\":2045:2050  value */\n      dup1\n        /* \"@openzeppelin/contracts/token/ERC1155/extensions/ERC1155Supply.sol\":2027:2050  totalMintValue += value */\n      dup4\n      tag_292\n      swap2\n      swap1\n      tag_291\n      jump\t// in\n    tag_292:\n      swap3\n      pop\n        /* \"@openzeppelin/contracts/token/ERC1155/extensions/ERC1155Supply.sol\":1813:2065  {... */\n      pop\n        /* \"@openzeppelin/contracts/token/ERC1155/extensions/ERC1155Supply.sol\":1808:1811  ++i */\n      dup1\n      tag_293\n      swap1\n      tag_140\n      jump\t// in\n    tag_293:\n      swap1\n      pop\n        /* \"@openzeppelin/contracts/token/ERC1155/extensions/ERC1155Supply.sol\":1772:2065  for (uint256 i = 0; i < ids.length; ++i) {... */\n      jump(tag_283)\n    tag_284:\n      pop\n        /* \"@openzeppelin/contracts/token/ERC1155/extensions/ERC1155Supply.sol\":2202:2216  totalMintValue */\n      dup1\n        /* \"@openzeppelin/contracts/token/ERC1155/extensions/ERC1155Supply.sol\":2183:2198  _totalSupplyAll */\n      0x04\n      0x00\n        /* \"@openzeppelin/contracts/token/ERC1155/extensions/ERC1155Supply.sol\":2183:2216  _totalSupplyAll += totalMintValue */\n      dup3\n      dup3\n      sload\n      tag_294\n      swap2\n      swap1\n      tag_291\n      jump\t// in\n    tag_294:\n      swap3\n      pop\n      pop\n      dup2\n      swap1\n      sstore\n      pop\n        /* \"@openzeppelin/contracts/token/ERC1155/extensions/ERC1155Supply.sol\":1718:2227  {... */\n      pop\n        /* \"@openzeppelin/contracts/token/ERC1155/extensions/ERC1155Supply.sol\":1694:2227  if (from == address(0)) {... */\n    tag_282:\n        /* \"@openzeppelin/contracts/token/ERC1155/extensions/ERC1155Supply.sol\":2255:2256  0 */\n      0x00\n        /* \"@openzeppelin/contracts/token/ERC1155/extensions/ERC1155Supply.sol\":2241:2257  to == address(0) */\n      0xffffffffffffffffffffffffffffffffffffffff\n      and\n        /* \"@openzeppelin/contracts/token/ERC1155/extensions/ERC1155Supply.sol\":2241:2243  to */\n      dup4\n        /* \"@openzeppelin/contracts/token/ERC1155/extensions/ERC1155Supply.sol\":2241:2257  to == address(0) */\n      0xffffffffffffffffffffffffffffffffffffffff\n      and\n      sub\n        /* \"@openzeppelin/contracts/token/ERC1155/extensions/ERC1155Supply.sol\":2237:2995  if (to == address(0)) {... */\n      tag_295\n      jumpi\n        /* \"@openzeppelin/contracts/token/ERC1155/extensions/ERC1155Supply.sol\":2273:2295  uint256 totalBurnValue */\n      0x00\n        /* \"@openzeppelin/contracts/token/ERC1155/extensions/ERC1155Supply.sol\":2318:2327  uint256 i */\n      dup1\n        /* \"@openzeppelin/contracts/token/ERC1155/extensions/ERC1155Supply.sol\":2313:2772  for (uint256 i = 0; i < ids.length; ++i) {... */\n    tag_296:\n        /* \"@openzeppelin/contracts/token/ERC1155/extensions/ERC1155Supply.sol\":2337:2340  ids */\n      dup4\n        /* \"@openzeppelin/contracts/token/ERC1155/extensions/ERC1155Supply.sol\":2337:2347  ids.length */\n      mload\n        /* \"@openzeppelin/contracts/token/ERC1155/extensions/ERC1155Supply.sol\":2333:2334  i */\n      dup2\n        /* \"@openzeppelin/contracts/token/ERC1155/extensions/ERC1155Supply.sol\":2333:2347  i < ids.length */\n      lt\n        /* \"@openzeppelin/contracts/token/ERC1155/extensions/ERC1155Supply.sol\":2313:2772  for (uint256 i = 0; i < ids.length; ++i) {... */\n      iszero\n      tag_297\n      jumpi\n        /* \"@openzeppelin/contracts/token/ERC1155/extensions/ERC1155Supply.sol\":2372:2385  uint256 value */\n      0x00\n        /* \"@openzeppelin/contracts/token/ERC1155/extensions/ERC1155Supply.sol\":2388:2394  values */\n      dup4\n        /* \"@openzeppelin/contracts/token/ERC1155/extensions/ERC1155Supply.sol\":2395:2396  i */\n      dup3\n        /* \"@openzeppelin/contracts/token/ERC1155/extensions/ERC1155Supply.sol\":2388:2397  values[i] */\n      dup2\n      mload\n      dup2\n      lt\n      tag_299\n      jumpi\n      tag_300\n      tag_138\n      jump\t// in\n    tag_300:\n    tag_299:\n      0x20\n      mul\n      0x20\n      add\n      add\n      mload\n        /* \"@openzeppelin/contracts/token/ERC1155/extensions/ERC1155Supply.sol\":2372:2397  uint256 value = values[i] */\n      swap1\n      pop\n        /* \"@openzeppelin/contracts/token/ERC1155/extensions/ERC1155Supply.sol\":2578:2583  value */\n      dup1\n        /* \"@openzeppelin/contracts/token/ERC1155/extensions/ERC1155Supply.sol\":2554:2566  _totalSupply */\n      0x03\n        /* \"@openzeppelin/contracts/token/ERC1155/extensions/ERC1155Supply.sol\":2554:2574  _totalSupply[ids[i]] */\n      0x00\n        /* \"@openzeppelin/contracts/token/ERC1155/extensions/ERC1155Supply.sol\":2567:2570  ids */\n      dup8\n        /* \"@openzeppelin/contracts/token/ERC1155/extensions/ERC1155Supply.sol\":2571:2572  i */\n      dup6\n        /* \"@openzeppelin/contracts/token/ERC1155/extensions/ERC1155Supply.sol\":2567:2573  ids[i] */\n      dup2\n      mload\n      dup2\n      lt\n      tag_301\n      jumpi\n      tag_302\n      tag_138\n      jump\t// in\n    tag_302:\n    tag_301:\n      0x20\n      mul\n      0x20\n      add\n      add\n      mload\n        /* \"@openzeppelin/contracts/token/ERC1155/extensions/ERC1155Supply.sol\":2554:2574  _totalSupply[ids[i]] */\n      dup2\n      mstore\n      0x20\n      add\n      swap1\n      dup2\n      mstore\n      0x20\n      add\n      0x00\n      keccak256\n      0x00\n        /* \"@openzeppelin/contracts/token/ERC1155/extensions/ERC1155Supply.sol\":2554:2583  _totalSupply[ids[i]] -= value */\n      dup3\n      dup3\n      sload\n      sub\n      swap3\n      pop\n      pop\n      dup2\n      swap1\n      sstore\n      pop\n        /* \"@openzeppelin/contracts/token/ERC1155/extensions/ERC1155Supply.sol\":2734:2739  value */\n      dup1\n        /* \"@openzeppelin/contracts/token/ERC1155/extensions/ERC1155Supply.sol\":2716:2739  totalBurnValue += value */\n      dup4\n      add\n      swap3\n      pop\n        /* \"@openzeppelin/contracts/token/ERC1155/extensions/ERC1155Supply.sol\":2354:2772  {... */\n      pop\n        /* \"@openzeppelin/contracts/token/ERC1155/extensions/ERC1155Supply.sol\":2349:2352  ++i */\n      dup1\n      tag_303\n      swap1\n      tag_140\n      jump\t// in\n    tag_303:\n      swap1\n      pop\n        /* \"@openzeppelin/contracts/token/ERC1155/extensions/ERC1155Supply.sol\":2313:2772  for (uint256 i = 0; i < ids.length; ++i) {... */\n      jump(tag_296)\n    tag_297:\n      pop\n        /* \"@openzeppelin/contracts/token/ERC1155/extensions/ERC1155Supply.sol\":2956:2970  totalBurnValue */\n      dup1\n        /* \"@openzeppelin/contracts/token/ERC1155/extensions/ERC1155Supply.sol\":2937:2952  _totalSupplyAll */\n      0x04\n      0x00\n        /* \"@openzeppelin/contracts/token/ERC1155/extensions/ERC1155Supply.sol\":2937:2970  _totalSupplyAll -= totalBurnValue */\n      dup3\n      dup3\n      sload\n      sub\n      swap3\n      pop\n      pop\n      dup2\n      swap1\n      sstore\n      pop\n        /* \"@openzeppelin/contracts/token/ERC1155/extensions/ERC1155Supply.sol\":2259:2995  {... */\n      pop\n        /* \"@openzeppelin/contracts/token/ERC1155/extensions/ERC1155Supply.sol\":2237:2995  if (to == address(0)) {... */\n    tag_295:\n        /* \"@openzeppelin/contracts/token/ERC1155/extensions/ERC1155Supply.sol\":1483:3001  function _update(... */\n      pop\n      pop\n      pop\n      pop\n      jump\t// out\n        /* \"@openzeppelin/contracts/token/ERC1155/ERC1155.sol\":5144:6425  function _update(address from, address to, uint256[] memory ids, uint256[] memory values) internal virtual {... */\n    tag_281:\n        /* \"@openzeppelin/contracts/token/ERC1155/ERC1155.sol\":5279:5285  values */\n      dup1\n        /* \"@openzeppelin/contracts/token/ERC1155/ERC1155.sol\":5279:5292  values.length */\n      mload\n        /* \"@openzeppelin/contracts/token/ERC1155/ERC1155.sol\":5265:5268  ids */\n      dup3\n        /* \"@openzeppelin/contracts/token/ERC1155/ERC1155.sol\":5265:5275  ids.length */\n      mload\n        /* \"@openzeppelin/contracts/token/ERC1155/ERC1155.sol\":5265:5292  ids.length != values.length */\n      eq\n        /* \"@openzeppelin/contracts/token/ERC1155/ERC1155.sol\":5261:5378  if (ids.length != values.length) {... */\n      tag_305\n      jumpi\n        /* \"@openzeppelin/contracts/token/ERC1155/ERC1155.sol\":5341:5344  ids */\n      dup2\n        /* \"@openzeppelin/contracts/token/ERC1155/ERC1155.sol\":5341:5351  ids.length */\n      mload\n        /* \"@openzeppelin/contracts/token/ERC1155/ERC1155.sol\":5353:5359  values */\n      dup2\n        /* \"@openzeppelin/contracts/token/ERC1155/ERC1155.sol\":5353:5366  values.length */\n      mload\n        /* \"@openzeppelin/contracts/token/ERC1155/ERC1155.sol\":5315:5367  ERC1155InvalidArrayLength(ids.length, values.length) */\n      mload(0x40)\n      0x5b05999100000000000000000000000000000000000000000000000000000000\n      dup2\n      mstore\n      0x04\n      add\n      tag_306\n      swap3\n      swap2\n      swap1\n      tag_123\n      jump\t// in\n    tag_306:\n      mload(0x40)\n      dup1\n      swap2\n      sub\n      swap1\n      revert\n        /* \"@openzeppelin/contracts/token/ERC1155/ERC1155.sol\":5261:5378  if (ids.length != values.length) {... */\n    tag_305:\n        /* \"@openzeppelin/contracts/token/ERC1155/ERC1155.sol\":5388:5404  address operator */\n      0x00\n        /* \"@openzeppelin/contracts/token/ERC1155/ERC1155.sol\":5407:5419  _msgSender() */\n      tag_307\n        /* \"@openzeppelin/contracts/token/ERC1155/ERC1155.sol\":5407:5417  _msgSender */\n      tag_112\n        /* \"@openzeppelin/contracts/token/ERC1155/ERC1155.sol\":5407:5419  _msgSender() */\n      jump\t// in\n    tag_307:\n        /* \"@openzeppelin/contracts/token/ERC1155/ERC1155.sol\":5388:5419  address operator = _msgSender() */\n      swap1\n      pop\n        /* \"@openzeppelin/contracts/token/ERC1155/ERC1155.sol\":5435:5444  uint256 i */\n      0x00\n        /* \"@openzeppelin/contracts/token/ERC1155/ERC1155.sol\":5430:6121  for (uint256 i = 0; i < ids.length; ++i) {... */\n    tag_308:\n        /* \"@openzeppelin/contracts/token/ERC1155/ERC1155.sol\":5454:5457  ids */\n      dup4\n        /* \"@openzeppelin/contracts/token/ERC1155/ERC1155.sol\":5454:5464  ids.length */\n      mload\n        /* \"@openzeppelin/contracts/token/ERC1155/ERC1155.sol\":5450:5451  i */\n      dup2\n        /* \"@openzeppelin/contracts/token/ERC1155/ERC1155.sol\":5450:5464  i < ids.length */\n      lt\n        /* \"@openzeppelin/contracts/token/ERC1155/ERC1155.sol\":5430:6121  for (uint256 i = 0; i < ids.length; ++i) {... */\n      iszero\n      tag_309\n      jumpi\n        /* \"@openzeppelin/contracts/token/ERC1155/ERC1155.sol\":5485:5495  uint256 id */\n      0x00\n        /* \"@openzeppelin/contracts/token/ERC1155/ERC1155.sol\":5498:5523  ids.unsafeMemoryAccess(i) */\n      tag_311\n        /* \"@openzeppelin/contracts/token/ERC1155/ERC1155.sol\":5521:5522  i */\n      dup3\n        /* \"@openzeppelin/contracts/token/ERC1155/ERC1155.sol\":5498:5501  ids */\n      dup7\n        /* \"@openzeppelin/contracts/token/ERC1155/ERC1155.sol\":5498:5520  ids.unsafeMemoryAccess */\n      tag_135\n      swap1\n        /* \"@openzeppelin/contracts/token/ERC1155/ERC1155.sol\":5498:5523  ids.unsafeMemoryAccess(i) */\n      swap2\n      swap1\n      0xffffffff\n      and\n      jump\t// in\n    tag_311:\n        /* \"@openzeppelin/contracts/token/ERC1155/ERC1155.sol\":5485:5523  uint256 id = ids.unsafeMemoryAccess(i) */\n      swap1\n      pop\n        /* \"@openzeppelin/contracts/token/ERC1155/ERC1155.sol\":5537:5550  uint256 value */\n      0x00\n        /* \"@openzeppelin/contracts/token/ERC1155/ERC1155.sol\":5553:5581  values.unsafeMemoryAccess(i) */\n      tag_312\n        /* \"@openzeppelin/contracts/token/ERC1155/ERC1155.sol\":5579:5580  i */\n      dup4\n        /* \"@openzeppelin/contracts/token/ERC1155/ERC1155.sol\":5553:5559  values */\n      dup7\n        /* \"@openzeppelin/contracts/token/ERC1155/ERC1155.sol\":5553:5578  values.unsafeMemoryAccess */\n      tag_135\n      swap1\n        /* \"@openzeppelin/contracts/token/ERC1155/ERC1155.sol\":5553:5581  values.unsafeMemoryAccess(i) */\n      swap2\n      swap1\n      0xffffffff\n      and\n      jump\t// in\n    tag_312:\n        /* \"@openzeppelin/contracts/token/ERC1155/ERC1155.sol\":5537:5581  uint256 value = values.unsafeMemoryAccess(i) */\n      swap1\n      pop\n        /* \"@openzeppelin/contracts/token/ERC1155/ERC1155.sol\":5616:5617  0 */\n      0x00\n        /* \"@openzeppelin/contracts/token/ERC1155/ERC1155.sol\":5600:5618  from != address(0) */\n      0xffffffffffffffffffffffffffffffffffffffff\n      and\n        /* \"@openzeppelin/contracts/token/ERC1155/ERC1155.sol\":5600:5604  from */\n      dup9\n        /* \"@openzeppelin/contracts/token/ERC1155/ERC1155.sol\":5600:5618  from != address(0) */\n      0xffffffffffffffffffffffffffffffffffffffff\n      and\n      eq\n        /* \"@openzeppelin/contracts/token/ERC1155/ERC1155.sol\":5596:6016  if (from != address(0)) {... */\n      tag_313\n      jumpi\n        /* \"@openzeppelin/contracts/token/ERC1155/ERC1155.sol\":5638:5657  uint256 fromBalance */\n      0x00\n        /* \"@openzeppelin/contracts/token/ERC1155/ERC1155.sol\":5660:5669  _balances */\n      dup1\n        /* \"@openzeppelin/contracts/token/ERC1155/ERC1155.sol\":5660:5673  _balances[id] */\n      0x00\n        /* \"@openzeppelin/contracts/token/ERC1155/ERC1155.sol\":5670:5672  id */\n      dup5\n        /* \"@openzeppelin/contracts/token/ERC1155/ERC1155.sol\":5660:5673  _balances[id] */\n      dup2\n      mstore\n      0x20\n      add\n      swap1\n      dup2\n      mstore\n      0x20\n      add\n      0x00\n      keccak256\n        /* \"@openzeppelin/contracts/token/ERC1155/ERC1155.sol\":5660:5679  _balances[id][from] */\n      0x00\n        /* \"@openzeppelin/contracts/token/ERC1155/ERC1155.sol\":5674:5678  from */\n      dup11\n        /* \"@openzeppelin/contracts/token/ERC1155/ERC1155.sol\":5660:5679  _balances[id][from] */\n      0xffffffffffffffffffffffffffffffffffffffff\n      and\n      0xffffffffffffffffffffffffffffffffffffffff\n      and\n      dup2\n      mstore\n      0x20\n      add\n      swap1\n      dup2\n      mstore\n      0x20\n      add\n      0x00\n      keccak256\n      sload\n        /* \"@openzeppelin/contracts/token/ERC1155/ERC1155.sol\":5638:5679  uint256 fromBalance = _balances[id][from] */\n      swap1\n      pop\n        /* \"@openzeppelin/contracts/token/ERC1155/ERC1155.sol\":5715:5720  value */\n      dup2\n        /* \"@openzeppelin/contracts/token/ERC1155/ERC1155.sol\":5701:5712  fromBalance */\n      dup2\n        /* \"@openzeppelin/contracts/token/ERC1155/ERC1155.sol\":5701:5720  fromBalance < value */\n      lt\n        /* \"@openzeppelin/contracts/token/ERC1155/ERC1155.sol\":5697:5826  if (fromBalance < value) {... */\n      iszero\n      tag_314\n      jumpi\n        /* \"@openzeppelin/contracts/token/ERC1155/ERC1155.sol\":5778:5782  from */\n      dup9\n        /* \"@openzeppelin/contracts/token/ERC1155/ERC1155.sol\":5784:5795  fromBalance */\n      dup2\n        /* \"@openzeppelin/contracts/token/ERC1155/ERC1155.sol\":5797:5802  value */\n      dup4\n        /* \"@openzeppelin/contracts/token/ERC1155/ERC1155.sol\":5804:5806  id */\n      dup6\n        /* \"@openzeppelin/contracts/token/ERC1155/ERC1155.sol\":5751:5807  ERC1155InsufficientBalance(from, fromBalance, value, id) */\n      mload(0x40)\n      0x03dee4c500000000000000000000000000000000000000000000000000000000\n      dup2\n      mstore\n      0x04\n      add\n      tag_315\n      swap5\n      swap4\n      swap3\n      swap2\n      swap1\n      tag_316\n      jump\t// in\n    tag_315:\n      mload(0x40)\n      dup1\n      swap2\n      sub\n      swap1\n      revert\n        /* \"@openzeppelin/contracts/token/ERC1155/ERC1155.sol\":5697:5826  if (fromBalance < value) {... */\n    tag_314:\n        /* \"@openzeppelin/contracts/token/ERC1155/ERC1155.sol\":5978:5983  value */\n      dup2\n        /* \"@openzeppelin/contracts/token/ERC1155/ERC1155.sol\":5964:5975  fromBalance */\n      dup2\n        /* \"@openzeppelin/contracts/token/ERC1155/ERC1155.sol\":5964:5983  fromBalance - value */\n      sub\n        /* \"@openzeppelin/contracts/token/ERC1155/ERC1155.sol\":5942:5951  _balances */\n      0x00\n        /* \"@openzeppelin/contracts/token/ERC1155/ERC1155.sol\":5942:5955  _balances[id] */\n      dup1\n        /* \"@openzeppelin/contracts/token/ERC1155/ERC1155.sol\":5952:5954  id */\n      dup6\n        /* \"@openzeppelin/contracts/token/ERC1155/ERC1155.sol\":5942:5955  _balances[id] */\n      dup2\n      mstore\n      0x20\n      add\n      swap1\n      dup2\n      mstore\n      0x20\n      add\n      0x00\n      keccak256\n        /* \"@openzeppelin/contracts/token/ERC1155/ERC1155.sol\":5942:5961  _balances[id][from] */\n      0x00\n        /* \"@openzeppelin/contracts/token/ERC1155/ERC1155.sol\":5956:5960  from */\n      dup12\n        /* \"@openzeppelin/contracts/token/ERC1155/ERC1155.sol\":5942:5961  _balances[id][from] */\n      0xffffffffffffffffffffffffffffffffffffffff\n      and\n      0xffffffffffffffffffffffffffffffffffffffff\n      and\n      dup2\n      mstore\n      0x20\n      add\n      swap1\n      dup2\n      mstore\n      0x20\n      add\n      0x00\n      keccak256\n        /* \"@openzeppelin/contracts/token/ERC1155/ERC1155.sol\":5942:5983  _balances[id][from] = fromBalance - value */\n      dup2\n      swap1\n      sstore\n      pop\n        /* \"@openzeppelin/contracts/token/ERC1155/ERC1155.sol\":5620:6016  {... */\n      pop\n        /* \"@openzeppelin/contracts/token/ERC1155/ERC1155.sol\":5596:6016  if (from != address(0)) {... */\n    tag_313:\n        /* \"@openzeppelin/contracts/token/ERC1155/ERC1155.sol\":6048:6049  0 */\n      0x00\n        /* \"@openzeppelin/contracts/token/ERC1155/ERC1155.sol\":6034:6050  to != address(0) */\n      0xffffffffffffffffffffffffffffffffffffffff\n      and\n        /* \"@openzeppelin/contracts/token/ERC1155/ERC1155.sol\":6034:6036  to */\n      dup8\n        /* \"@openzeppelin/contracts/token/ERC1155/ERC1155.sol\":6034:6050  to != address(0) */\n      0xffffffffffffffffffffffffffffffffffffffff\n      and\n      eq\n        /* \"@openzeppelin/contracts/token/ERC1155/ERC1155.sol\":6030:6111  if (to != address(0)) {... */\n      tag_317\n      jumpi\n        /* \"@openzeppelin/contracts/token/ERC1155/ERC1155.sol\":6091:6096  value */\n      dup1\n        /* \"@openzeppelin/contracts/token/ERC1155/ERC1155.sol\":6070:6079  _balances */\n      0x00\n        /* \"@openzeppelin/contracts/token/ERC1155/ERC1155.sol\":6070:6083  _balances[id] */\n      dup1\n        /* \"@openzeppelin/contracts/token/ERC1155/ERC1155.sol\":6080:6082  id */\n      dup5\n        /* \"@openzeppelin/contracts/token/ERC1155/ERC1155.sol\":6070:6083  _balances[id] */\n      dup2\n      mstore\n      0x20\n      add\n      swap1\n      dup2\n      mstore\n      0x20\n      add\n      0x00\n      keccak256\n        /* \"@openzeppelin/contracts/token/ERC1155/ERC1155.sol\":6070:6087  _balances[id][to] */\n      0x00\n        /* \"@openzeppelin/contracts/token/ERC1155/ERC1155.sol\":6084:6086  to */\n      dup10\n        /* \"@openzeppelin/contracts/token/ERC1155/ERC1155.sol\":6070:6087  _balances[id][to] */\n      0xffffffffffffffffffffffffffffffffffffffff\n      and\n      0xffffffffffffffffffffffffffffffffffffffff\n      and\n      dup2\n      mstore\n      0x20\n      add\n      swap1\n      dup2\n      mstore\n      0x20\n      add\n      0x00\n      keccak256\n      0x00\n        /* \"@openzeppelin/contracts/token/ERC1155/ERC1155.sol\":6070:6096  _balances[id][to] += value */\n      dup3\n      dup3\n      sload\n      tag_318\n      swap2\n      swap1\n      tag_291\n      jump\t// in\n    tag_318:\n      swap3\n      pop\n      pop\n      dup2\n      swap1\n      sstore\n      pop\n        /* \"@openzeppelin/contracts/token/ERC1155/ERC1155.sol\":6030:6111  if (to != address(0)) {... */\n    tag_317:\n        /* \"@openzeppelin/contracts/token/ERC1155/ERC1155.sol\":5471:6121  {... */\n      pop\n      pop\n        /* \"@openzeppelin/contracts/token/ERC1155/ERC1155.sol\":5466:5469  ++i */\n      dup1\n      tag_319\n      swap1\n      tag_140\n      jump\t// in\n    tag_319:\n      swap1\n      pop\n        /* \"@openzeppelin/contracts/token/ERC1155/ERC1155.sol\":5430:6121  for (uint256 i = 0; i < ids.length; ++i) {... */\n      jump(tag_308)\n    tag_309:\n      pop\n        /* \"@openzeppelin/contracts/token/ERC1155/ERC1155.sol\":6149:6150  1 */\n      0x01\n        /* \"@openzeppelin/contracts/token/ERC1155/ERC1155.sol\":6135:6138  ids */\n      dup4\n        /* \"@openzeppelin/contracts/token/ERC1155/ERC1155.sol\":6135:6145  ids.length */\n      mload\n        /* \"@openzeppelin/contracts/token/ERC1155/ERC1155.sol\":6135:6150  ids.length == 1 */\n      sub\n        /* \"@openzeppelin/contracts/token/ERC1155/ERC1155.sol\":6131:6419  if (ids.length == 1) {... */\n      tag_320\n      jumpi\n        /* \"@openzeppelin/contracts/token/ERC1155/ERC1155.sol\":6166:6176  uint256 id */\n      0x00\n        /* \"@openzeppelin/contracts/token/ERC1155/ERC1155.sol\":6179:6204  ids.unsafeMemoryAccess(0) */\n      tag_321\n        /* \"@openzeppelin/contracts/token/ERC1155/ERC1155.sol\":6202:6203  0 */\n      0x00\n        /* \"@openzeppelin/contracts/token/ERC1155/ERC1155.sol\":6179:6182  ids */\n      dup6\n        /* \"@openzeppelin/contracts/token/ERC1155/ERC1155.sol\":6179:6201  ids.unsafeMemoryAccess */\n      tag_135\n      swap1\n        /* \"@openzeppelin/contracts/token/ERC1155/ERC1155.sol\":6179:6204  ids.unsafeMemoryAccess(0) */\n      swap2\n      swap1\n      0xffffffff\n      and\n      jump\t// in\n    tag_321:\n        /* \"@openzeppelin/contracts/token/ERC1155/ERC1155.sol\":6166:6204  uint256 id = ids.unsafeMemoryAccess(0) */\n      swap1\n      pop\n        /* \"@openzeppelin/contracts/token/ERC1155/ERC1155.sol\":6218:6231  uint256 value */\n      0x00\n        /* \"@openzeppelin/contracts/token/ERC1155/ERC1155.sol\":6234:6262  values.unsafeMemoryAccess(0) */\n      tag_322\n        /* \"@openzeppelin/contracts/token/ERC1155/ERC1155.sol\":6260:6261  0 */\n      0x00\n        /* \"@openzeppelin/contracts/token/ERC1155/ERC1155.sol\":6234:6240  values */\n      dup6\n        /* \"@openzeppelin/contracts/token/ERC1155/ERC1155.sol\":6234:6259  values.unsafeMemoryAccess */\n      tag_135\n      swap1\n        /* \"@openzeppelin/contracts/token/ERC1155/ERC1155.sol\":6234:6262  values.unsafeMemoryAccess(0) */\n      swap2\n      swap1\n      0xffffffff\n      and\n      jump\t// in\n    tag_322:\n        /* \"@openzeppelin/contracts/token/ERC1155/ERC1155.sol\":6218:6262  uint256 value = values.unsafeMemoryAccess(0) */\n      swap1\n      pop\n        /* \"@openzeppelin/contracts/token/ERC1155/ERC1155.sol\":6312:6314  to */\n      dup6\n        /* \"@openzeppelin/contracts/token/ERC1155/ERC1155.sol\":6281:6326  TransferSingle(operator, from, to, id, value) */\n      0xffffffffffffffffffffffffffffffffffffffff\n      and\n        /* \"@openzeppelin/contracts/token/ERC1155/ERC1155.sol\":6306:6310  from */\n      dup8\n        /* \"@openzeppelin/contracts/token/ERC1155/ERC1155.sol\":6281:6326  TransferSingle(operator, from, to, id, value) */\n      0xffffffffffffffffffffffffffffffffffffffff\n      and\n        /* \"@openzeppelin/contracts/token/ERC1155/ERC1155.sol\":6296:6304  operator */\n      dup5\n        /* \"@openzeppelin/contracts/token/ERC1155/ERC1155.sol\":6281:6326  TransferSingle(operator, from, to, id, value) */\n      0xffffffffffffffffffffffffffffffffffffffff\n      and\n      0xc3d58168c5ae7397731d063d5bbf3d657854427343f4c083240f7aacaa2d0f62\n        /* \"@openzeppelin/contracts/token/ERC1155/ERC1155.sol\":6316:6318  id */\n      dup6\n        /* \"@openzeppelin/contracts/token/ERC1155/ERC1155.sol\":6320:6325  value */\n      dup6\n        /* \"@openzeppelin/contracts/token/ERC1155/ERC1155.sol\":6281:6326  TransferSingle(operator, from, to, id, value) */\n      mload(0x40)\n      tag_323\n      swap3\n      swap2\n      swap1\n      tag_123\n      jump\t// in\n    tag_323:\n      mload(0x40)\n      dup1\n      swap2\n      sub\n      swap1\n      log4\n        /* \"@openzeppelin/contracts/token/ERC1155/ERC1155.sol\":6152:6337  {... */\n      pop\n      pop\n        /* \"@openzeppelin/contracts/token/ERC1155/ERC1155.sol\":6131:6419  if (ids.length == 1) {... */\n      jump(tag_324)\n    tag_320:\n        /* \"@openzeppelin/contracts/token/ERC1155/ERC1155.sol\":6392:6394  to */\n      dup4\n        /* \"@openzeppelin/contracts/token/ERC1155/ERC1155.sol\":6362:6408  TransferBatch(operator, from, to, ids, values) */\n      0xffffffffffffffffffffffffffffffffffffffff\n      and\n        /* \"@openzeppelin/contracts/token/ERC1155/ERC1155.sol\":6386:6390  from */\n      dup6\n        /* \"@openzeppelin/contracts/token/ERC1155/ERC1155.sol\":6362:6408  TransferBatch(operator, from, to, ids, values) */\n      0xffffffffffffffffffffffffffffffffffffffff\n      and\n        /* \"@openzeppelin/contracts/token/ERC1155/ERC1155.sol\":6376:6384  operator */\n      dup3\n        /* \"@openzeppelin/contracts/token/ERC1155/ERC1155.sol\":6362:6408  TransferBatch(operator, from, to, ids, values) */\n      0xffffffffffffffffffffffffffffffffffffffff\n      and\n      0x4a39dc06d4c0dbc64b70af90fd698a233a518aa5d07e595d983b8c0526c8f7fb\n        /* \"@openzeppelin/contracts/token/ERC1155/ERC1155.sol\":6396:6399  ids */\n      dup7\n        /* \"@openzeppelin/contracts/token/ERC1155/ERC1155.sol\":6401:6407  values */\n      dup7\n        /* \"@openzeppelin/contracts/token/ERC1155/ERC1155.sol\":6362:6408  TransferBatch(operator, from, to, ids, values) */\n      mload(0x40)\n      tag_325\n      swap3\n      swap2\n      swap1\n      tag_326\n      jump\t// in\n    tag_325:\n      mload(0x40)\n      dup1\n      swap2\n      sub\n      swap1\n      log4\n        /* \"@openzeppelin/contracts/token/ERC1155/ERC1155.sol\":6131:6419  if (ids.length == 1) {... */\n    tag_324:\n        /* \"@openzeppelin/contracts/token/ERC1155/ERC1155.sol\":5251:6425  {... */\n      pop\n        /* \"@openzeppelin/contracts/token/ERC1155/ERC1155.sol\":5144:6425  function _update(address from, address to, uint256[] memory ids, uint256[] memory values) internal virtual {... */\n      pop\n      pop\n      pop\n      pop\n      jump\t// out\n        /* \"#utility.yul\":7:82   */\n    tag_327:\n        /* \"#utility.yul\":40:46   */\n      0x00\n        /* \"#utility.yul\":73:75   */\n      0x40\n        /* \"#utility.yul\":67:76   */\n      mload\n        /* \"#utility.yul\":57:76   */\n      swap1\n      pop\n        /* \"#utility.yul\":7:82   */\n      swap1\n      jump\t// out\n        /* \"#utility.yul\":88:205   */\n    tag_328:\n        /* \"#utility.yul\":197:198   */\n      0x00\n        /* \"#utility.yul\":194:195   */\n      dup1\n        /* \"#utility.yul\":187:199   */\n      revert\n        /* \"#utility.yul\":211:328   */\n    tag_329:\n        /* \"#utility.yul\":320:321   */\n      0x00\n        /* \"#utility.yul\":317:318   */\n      dup1\n        /* \"#utility.yul\":310:322   */\n      revert\n        /* \"#utility.yul\":334:460   */\n    tag_330:\n        /* \"#utility.yul\":371:378   */\n      0x00\n        /* \"#utility.yul\":411:453   */\n      0xffffffffffffffffffffffffffffffffffffffff\n        /* \"#utility.yul\":404:409   */\n      dup3\n        /* \"#utility.yul\":400:454   */\n      and\n        /* \"#utility.yul\":389:454   */\n      swap1\n      pop\n        /* \"#utility.yul\":334:460   */\n      swap2\n      swap1\n      pop\n      jump\t// out\n        /* \"#utility.yul\":466:562   */\n    tag_331:\n        /* \"#utility.yul\":503:510   */\n      0x00\n        /* \"#utility.yul\":532:556   */\n      tag_387\n        /* \"#utility.yul\":550:555   */\n      dup3\n        /* \"#utility.yul\":532:556   */\n      tag_330\n      jump\t// in\n    tag_387:\n        /* \"#utility.yul\":521:556   */\n      swap1\n      pop\n        /* \"#utility.yul\":466:562   */\n      swap2\n      swap1\n      pop\n      jump\t// out\n        /* \"#utility.yul\":568:690   */\n    tag_332:\n        /* \"#utility.yul\":641:665   */\n      tag_389\n        /* \"#utility.yul\":659:664   */\n      dup2\n        /* \"#utility.yul\":641:665   */\n      tag_331\n      jump\t// in\n    tag_389:\n        /* \"#utility.yul\":634:639   */\n      dup2\n        /* \"#utility.yul\":631:666   */\n      eq\n        /* \"#utility.yul\":621:684   */\n      tag_390\n      jumpi\n        /* \"#utility.yul\":680:681   */\n      0x00\n        /* \"#utility.yul\":677:678   */\n      dup1\n        /* \"#utility.yul\":670:682   */\n      revert\n        /* \"#utility.yul\":621:684   */\n    tag_390:\n        /* \"#utility.yul\":568:690   */\n      pop\n      jump\t// out\n        /* \"#utility.yul\":696:835   */\n    tag_333:\n        /* \"#utility.yul\":742:747   */\n      0x00\n        /* \"#utility.yul\":780:786   */\n      dup2\n        /* \"#utility.yul\":767:787   */\n      calldataload\n        /* \"#utility.yul\":758:787   */\n      swap1\n      pop\n        /* \"#utility.yul\":796:829   */\n      tag_392\n        /* \"#utility.yul\":823:828   */\n      dup2\n        /* \"#utility.yul\":796:829   */\n      tag_332\n      jump\t// in\n    tag_392:\n        /* \"#utility.yul\":696:835   */\n      swap3\n      swap2\n      pop\n      pop\n      jump\t// out\n        /* \"#utility.yul\":841:918   */\n    tag_334:\n        /* \"#utility.yul\":878:885   */\n      0x00\n        /* \"#utility.yul\":907:912   */\n      dup2\n        /* \"#utility.yul\":896:912   */\n      swap1\n      pop\n        /* \"#utility.yul\":841:918   */\n      swap2\n      swap1\n      pop\n      jump\t// out\n        /* \"#utility.yul\":924:1046   */\n    tag_335:\n        /* \"#utility.yul\":997:1021   */\n      tag_395\n        /* \"#utility.yul\":1015:1020   */\n      dup2\n        /* \"#utility.yul\":997:1021   */\n      tag_334\n      jump\t// in\n    tag_395:\n        /* \"#utility.yul\":990:995   */\n      dup2\n        /* \"#utility.yul\":987:1022   */\n      eq\n        /* \"#utility.yul\":977:1040   */\n      tag_396\n      jumpi\n        /* \"#utility.yul\":1036:1037   */\n      0x00\n        /* \"#utility.yul\":1033:1034   */\n      dup1\n        /* \"#utility.yul\":1026:1038   */\n      revert\n        /* \"#utility.yul\":977:1040   */\n    tag_396:\n        /* \"#utility.yul\":924:1046   */\n      pop\n      jump\t// out\n        /* \"#utility.yul\":1052:1191   */\n    tag_336:\n        /* \"#utility.yul\":1098:1103   */\n      0x00\n        /* \"#utility.yul\":1136:1142   */\n      dup2\n        /* \"#utility.yul\":1123:1143   */\n      calldataload\n        /* \"#utility.yul\":1114:1143   */\n      swap1\n      pop\n        /* \"#utility.yul\":1152:1185   */\n      tag_398\n        /* \"#utility.yul\":1179:1184   */\n      dup2\n        /* \"#utility.yul\":1152:1185   */\n      tag_335\n      jump\t// in\n    tag_398:\n        /* \"#utility.yul\":1052:1191   */\n      swap3\n      swap2\n      pop\n      pop\n      jump\t// out\n        /* \"#utility.yul\":1197:1671   */\n    tag_23:\n        /* \"#utility.yul\":1265:1271   */\n      0x00\n        /* \"#utility.yul\":1273:1279   */\n      dup1\n        /* \"#utility.yul\":1322:1324   */\n      0x40\n        /* \"#utility.yul\":1310:1319   */\n      dup4\n        /* \"#utility.yul\":1301:1308   */\n      dup6\n        /* \"#utility.yul\":1297:1320   */\n      sub\n        /* \"#utility.yul\":1293:1325   */\n      slt\n        /* \"#utility.yul\":1290:1409   */\n      iszero\n      tag_400\n      jumpi\n        /* \"#utility.yul\":1328:1407   */\n      tag_401\n      tag_328\n      jump\t// in\n    tag_401:\n        /* \"#utility.yul\":1290:1409   */\n    tag_400:\n        /* \"#utility.yul\":1448:1449   */\n      0x00\n        /* \"#utility.yul\":1473:1526   */\n      tag_402\n        /* \"#utility.yul\":1518:1525   */\n      dup6\n        /* \"#utility.yul\":1509:1515   */\n      dup3\n        /* \"#utility.yul\":1498:1507   */\n      dup7\n        /* \"#utility.yul\":1494:1516   */\n      add\n        /* \"#utility.yul\":1473:1526   */\n      tag_333\n      jump\t// in\n    tag_402:\n        /* \"#utility.yul\":1463:1526   */\n      swap3\n      pop\n        /* \"#utility.yul\":1419:1536   */\n      pop\n        /* \"#utility.yul\":1575:1577   */\n      0x20\n        /* \"#utility.yul\":1601:1654   */\n      tag_403\n        /* \"#utility.yul\":1646:1653   */\n      dup6\n        /* \"#utility.yul\":1637:1643   */\n      dup3\n        /* \"#utility.yul\":1626:1635   */\n      dup7\n        /* \"#utility.yul\":1622:1644   */\n      add\n        /* \"#utility.yul\":1601:1654   */\n      tag_336\n      jump\t// in\n    tag_403:\n        /* \"#utility.yul\":1591:1654   */\n      swap2\n      pop\n        /* \"#utility.yul\":1546:1664   */\n      pop\n        /* \"#utility.yul\":1197:1671   */\n      swap3\n      pop\n      swap3\n      swap1\n      pop\n      jump\t// out\n        /* \"#utility.yul\":1677:1795   */\n    tag_337:\n        /* \"#utility.yul\":1764:1788   */\n      tag_405\n        /* \"#utility.yul\":1782:1787   */\n      dup2\n        /* \"#utility.yul\":1764:1788   */\n      tag_334\n      jump\t// in\n    tag_405:\n        /* \"#utility.yul\":1759:1762   */\n      dup3\n        /* \"#utility.yul\":1752:1789   */\n      mstore\n        /* \"#utility.yul\":1677:1795   */\n      pop\n      pop\n      jump\t// out\n        /* \"#utility.yul\":1801:2023   */\n    tag_26:\n        /* \"#utility.yul\":1894:1898   */\n      0x00\n        /* \"#utility.yul\":1932:1934   */\n      0x20\n        /* \"#utility.yul\":1921:1930   */\n      dup3\n        /* \"#utility.yul\":1917:1935   */\n      add\n        /* \"#utility.yul\":1909:1935   */\n      swap1\n      pop\n        /* \"#utility.yul\":1945:2016   */\n      tag_407\n        /* \"#utility.yul\":2013:2014   */\n      0x00\n        /* \"#utility.yul\":2002:2011   */\n      dup4\n        /* \"#utility.yul\":1998:2015   */\n      add\n        /* \"#utility.yul\":1989:1995   */\n      dup5\n        /* \"#utility.yul\":1945:2016   */\n      tag_337\n      jump\t// in\n    tag_407:\n        /* \"#utility.yul\":1801:2023   */\n      swap3\n      swap2\n      pop\n      pop\n      jump\t// out\n        /* \"#utility.yul\":2029:2178   */\n    tag_338:\n        /* \"#utility.yul\":2065:2072   */\n      0x00\n        /* \"#utility.yul\":2105:2171   */\n      0xffffffff00000000000000000000000000000000000000000000000000000000\n        /* \"#utility.yul\":2098:2103   */\n      dup3\n        /* \"#utility.yul\":2094:2172   */\n      and\n        /* \"#utility.yul\":2083:2172   */\n      swap1\n      pop\n        /* \"#utility.yul\":2029:2178   */\n      swap2\n      swap1\n      pop\n      jump\t// out\n        /* \"#utility.yul\":2184:2304   */\n    tag_339:\n        /* \"#utility.yul\":2256:2279   */\n      tag_410\n        /* \"#utility.yul\":2273:2278   */\n      dup2\n        /* \"#utility.yul\":2256:2279   */\n      tag_338\n      jump\t// in\n    tag_410:\n        /* \"#utility.yul\":2249:2254   */\n      dup2\n        /* \"#utility.yul\":2246:2280   */\n      eq\n        /* \"#utility.yul\":2236:2298   */\n      tag_411\n      jumpi\n        /* \"#utility.yul\":2294:2295   */\n      0x00\n        /* \"#utility.yul\":2291:2292   */\n      dup1\n        /* \"#utility.yul\":2284:2296   */\n      revert\n        /* \"#utility.yul\":2236:2298   */\n    tag_411:\n        /* \"#utility.yul\":2184:2304   */\n      pop\n      jump\t// out\n        /* \"#utility.yul\":2310:2447   */\n    tag_340:\n        /* \"#utility.yul\":2355:2360   */\n      0x00\n        /* \"#utility.yul\":2393:2399   */\n      dup2\n        /* \"#utility.yul\":2380:2400   */\n      calldataload\n        /* \"#utility.yul\":2371:2400   */\n      swap1\n      pop\n        /* \"#utility.yul\":2409:2441   */\n      tag_413\n        /* \"#utility.yul\":2435:2440   */\n      dup2\n        /* \"#utility.yul\":2409:2441   */\n      tag_339\n      jump\t// in\n    tag_413:\n        /* \"#utility.yul\":2310:2447   */\n      swap3\n      swap2\n      pop\n      pop\n      jump\t// out\n        /* \"#utility.yul\":2453:2780   */\n    tag_29:\n        /* \"#utility.yul\":2511:2517   */\n      0x00\n        /* \"#utility.yul\":2560:2562   */\n      0x20\n        /* \"#utility.yul\":2548:2557   */\n      dup3\n        /* \"#utility.yul\":2539:2546   */\n      dup5\n        /* \"#utility.yul\":2535:2558   */\n      sub\n        /* \"#utility.yul\":2531:2563   */\n      slt\n        /* \"#utility.yul\":2528:2647   */\n      iszero\n      tag_415\n      jumpi\n        /* \"#utility.yul\":2566:2645   */\n      tag_416\n      tag_328\n      jump\t// in\n    tag_416:\n        /* \"#utility.yul\":2528:2647   */\n    tag_415:\n        /* \"#utility.yul\":2686:2687   */\n      0x00\n        /* \"#utility.yul\":2711:2763   */\n      tag_417\n        /* \"#utility.yul\":2755:2762   */\n      dup5\n        /* \"#utility.yul\":2746:2752   */\n      dup3\n        /* \"#utility.yul\":2735:2744   */\n      dup6\n        /* \"#utility.yul\":2731:2753   */\n      add\n        /* \"#utility.yul\":2711:2763   */\n      tag_340\n      jump\t// in\n    tag_417:\n        /* \"#utility.yul\":2701:2763   */\n      swap2\n      pop\n        /* \"#utility.yul\":2657:2773   */\n      pop\n        /* \"#utility.yul\":2453:2780   */\n      swap3\n      swap2\n      pop\n      pop\n      jump\t// out\n        /* \"#utility.yul\":2786:2876   */\n    tag_341:\n        /* \"#utility.yul\":2820:2827   */\n      0x00\n        /* \"#utility.yul\":2863:2868   */\n      dup2\n        /* \"#utility.yul\":2856:2869   */\n      iszero\n        /* \"#utility.yul\":2849:2870   */\n      iszero\n        /* \"#utility.yul\":2838:2870   */\n      swap1\n      pop\n        /* \"#utility.yul\":2786:2876   */\n      swap2\n      swap1\n      pop\n      jump\t// out\n        /* \"#utility.yul\":2882:2991   */\n    tag_342:\n        /* \"#utility.yul\":2963:2984   */\n      tag_420\n        /* \"#utility.yul\":2978:2983   */\n      dup2\n        /* \"#utility.yul\":2963:2984   */\n      tag_341\n      jump\t// in\n    tag_420:\n        /* \"#utility.yul\":2958:2961   */\n      dup3\n        /* \"#utility.yul\":2951:2985   */\n      mstore\n        /* \"#utility.yul\":2882:2991   */\n      pop\n      pop\n      jump\t// out\n        /* \"#utility.yul\":2997:3207   */\n    tag_32:\n        /* \"#utility.yul\":3084:3088   */\n      0x00\n        /* \"#utility.yul\":3122:3124   */\n      0x20\n        /* \"#utility.yul\":3111:3120   */\n      dup3\n        /* \"#utility.yul\":3107:3125   */\n      add\n        /* \"#utility.yul\":3099:3125   */\n      swap1\n      pop\n        /* \"#utility.yul\":3135:3200   */\n      tag_422\n        /* \"#utility.yul\":3197:3198   */\n      0x00\n        /* \"#utility.yul\":3186:3195   */\n      dup4\n        /* \"#utility.yul\":3182:3199   */\n      add\n        /* \"#utility.yul\":3173:3179   */\n      dup5\n        /* \"#utility.yul\":3135:3200   */\n      tag_342\n      jump\t// in\n    tag_422:\n        /* \"#utility.yul\":2997:3207   */\n      swap3\n      swap2\n      pop\n      pop\n      jump\t// out\n        /* \"#utility.yul\":3213:3542   */\n    tag_35:\n        /* \"#utility.yul\":3272:3278   */\n      0x00\n        /* \"#utility.yul\":3321:3323   */\n      0x20\n        /* \"#utility.yul\":3309:3318   */\n      dup3\n        /* \"#utility.yul\":3300:3307   */\n      dup5\n        /* \"#utility.yul\":3296:3319   */\n      sub\n        /* \"#utility.yul\":3292:3324   */\n      slt\n        /* \"#utility.yul\":3289:3408   */\n      iszero\n      tag_424\n      jumpi\n        /* \"#utility.yul\":3327:3406   */\n      tag_425\n      tag_328\n      jump\t// in\n    tag_425:\n        /* \"#utility.yul\":3289:3408   */\n    tag_424:\n        /* \"#utility.yul\":3447:3448   */\n      0x00\n        /* \"#utility.yul\":3472:3525   */\n      tag_426\n        /* \"#utility.yul\":3517:3524   */\n      dup5\n        /* \"#utility.yul\":3508:3514   */\n      dup3\n        /* \"#utility.yul\":3497:3506   */\n      dup6\n        /* \"#utility.yul\":3493:3515   */\n      add\n        /* \"#utility.yul\":3472:3525   */\n      tag_336\n      jump\t// in\n    tag_426:\n        /* \"#utility.yul\":3462:3525   */\n      swap2\n      pop\n        /* \"#utility.yul\":3418:3535   */\n      pop\n        /* \"#utility.yul\":3213:3542   */\n      swap3\n      swap2\n      pop\n      pop\n      jump\t// out\n        /* \"#utility.yul\":3548:3647   */\n    tag_343:\n        /* \"#utility.yul\":3600:3606   */\n      0x00\n        /* \"#utility.yul\":3634:3639   */\n      dup2\n        /* \"#utility.yul\":3628:3640   */\n      mload\n        /* \"#utility.yul\":3618:3640   */\n      swap1\n      pop\n        /* \"#utility.yul\":3548:3647   */\n      swap2\n      swap1\n      pop\n      jump\t// out\n        /* \"#utility.yul\":3653:3822   */\n    tag_344:\n        /* \"#utility.yul\":3737:3748   */\n      0x00\n        /* \"#utility.yul\":3771:3777   */\n      dup3\n        /* \"#utility.yul\":3766:3769   */\n      dup3\n        /* \"#utility.yul\":3759:3778   */\n      mstore\n        /* \"#utility.yul\":3811:3815   */\n      0x20\n        /* \"#utility.yul\":3806:3809   */\n      dup3\n        /* \"#utility.yul\":3802:3816   */\n      add\n        /* \"#utility.yul\":3787:3816   */\n      swap1\n      pop\n        /* \"#utility.yul\":3653:3822   */\n      swap3\n      swap2\n      pop\n      pop\n      jump\t// out\n        /* \"#utility.yul\":3828:4074   */\n    tag_345:\n        /* \"#utility.yul\":3909:3910   */\n      0x00\n        /* \"#utility.yul\":3919:4032   */\n    tag_430:\n        /* \"#utility.yul\":3933:3939   */\n      dup4\n        /* \"#utility.yul\":3930:3931   */\n      dup2\n        /* \"#utility.yul\":3927:3940   */\n      lt\n        /* \"#utility.yul\":3919:4032   */\n      iszero\n      tag_432\n      jumpi\n        /* \"#utility.yul\":4018:4019   */\n      dup1\n        /* \"#utility.yul\":4013:4016   */\n      dup3\n        /* \"#utility.yul\":4009:4020   */\n      add\n        /* \"#utility.yul\":4003:4021   */\n      mload\n        /* \"#utility.yul\":3999:4000   */\n      dup2\n        /* \"#utility.yul\":3994:3997   */\n      dup5\n        /* \"#utility.yul\":3990:4001   */\n      add\n        /* \"#utility.yul\":3983:4022   */\n      mstore\n        /* \"#utility.yul\":3955:3957   */\n      0x20\n        /* \"#utility.yul\":3952:3953   */\n      dup2\n        /* \"#utility.yul\":3948:3958   */\n      add\n        /* \"#utility.yul\":3943:3958   */\n      swap1\n      pop\n        /* \"#utility.yul\":3919:4032   */\n      jump(tag_430)\n    tag_432:\n        /* \"#utility.yul\":4066:4067   */\n      0x00\n        /* \"#utility.yul\":4057:4063   */\n      dup5\n        /* \"#utility.yul\":4052:4055   */\n      dup5\n        /* \"#utility.yul\":4048:4064   */\n      add\n        /* \"#utility.yul\":4041:4068   */\n      mstore\n        /* \"#utility.yul\":3890:4074   */\n      pop\n        /* \"#utility.yul\":3828:4074   */\n      pop\n      pop\n      pop\n      jump\t// out\n        /* \"#utility.yul\":4080:4182   */\n    tag_346:\n        /* \"#utility.yul\":4121:4127   */\n      0x00\n        /* \"#utility.yul\":4172:4174   */\n      0x1f\n        /* \"#utility.yul\":4168:4175   */\n      not\n        /* \"#utility.yul\":4163:4165   */\n      0x1f\n        /* \"#utility.yul\":4156:4161   */\n      dup4\n        /* \"#utility.yul\":4152:4166   */\n      add\n        /* \"#utility.yul\":4148:4176   */\n      and\n        /* \"#utility.yul\":4138:4176   */\n      swap1\n      pop\n        /* \"#utility.yul\":4080:4182   */\n      swap2\n      swap1\n      pop\n      jump\t// out\n        /* \"#utility.yul\":4188:4565   */\n    tag_347:\n        /* \"#utility.yul\":4276:4279   */\n      0x00\n        /* \"#utility.yul\":4304:4343   */\n      tag_435\n        /* \"#utility.yul\":4337:4342   */\n      dup3\n        /* \"#utility.yul\":4304:4343   */\n      tag_343\n      jump\t// in\n    tag_435:\n        /* \"#utility.yul\":4359:4430   */\n      tag_436\n        /* \"#utility.yul\":4423:4429   */\n      dup2\n        /* \"#utility.yul\":4418:4421   */\n      dup6\n        /* \"#utility.yul\":4359:4430   */\n      tag_344\n      jump\t// in\n    tag_436:\n        /* \"#utility.yul\":4352:4430   */\n      swap4\n      pop\n        /* \"#utility.yul\":4439:4504   */\n      tag_437\n        /* \"#utility.yul\":4497:4503   */\n      dup2\n        /* \"#utility.yul\":4492:4495   */\n      dup6\n        /* \"#utility.yul\":4485:4489   */\n      0x20\n        /* \"#utility.yul\":4478:4483   */\n      dup7\n        /* \"#utility.yul\":4474:4490   */\n      add\n        /* \"#utility.yul\":4439:4504   */\n      tag_345\n      jump\t// in\n    tag_437:\n        /* \"#utility.yul\":4529:4558   */\n      tag_438\n        /* \"#utility.yul\":4551:4557   */\n      dup2\n        /* \"#utility.yul\":4529:4558   */\n      tag_346\n      jump\t// in\n    tag_438:\n        /* \"#utility.yul\":4524:4527   */\n      dup5\n        /* \"#utility.yul\":4520:4559   */\n      add\n        /* \"#utility.yul\":4513:4559   */\n      swap2\n      pop\n        /* \"#utility.yul\":4280:4565   */\n      pop\n        /* \"#utility.yul\":4188:4565   */\n      swap3\n      swap2\n      pop\n      pop\n      jump\t// out\n        /* \"#utility.yul\":4571:4884   */\n    tag_38:\n        /* \"#utility.yul\":4684:4688   */\n      0x00\n        /* \"#utility.yul\":4722:4724   */\n      0x20\n        /* \"#utility.yul\":4711:4720   */\n      dup3\n        /* \"#utility.yul\":4707:4725   */\n      add\n        /* \"#utility.yul\":4699:4725   */\n      swap1\n      pop\n        /* \"#utility.yul\":4771:4780   */\n      dup2\n        /* \"#utility.yul\":4765:4769   */\n      dup2\n        /* \"#utility.yul\":4761:4781   */\n      sub\n        /* \"#utility.yul\":4757:4758   */\n      0x00\n        /* \"#utility.yul\":4746:4755   */\n      dup4\n        /* \"#utility.yul\":4742:4759   */\n      add\n        /* \"#utility.yul\":4735:4782   */\n      mstore\n        /* \"#utility.yul\":4799:4877   */\n      tag_440\n        /* \"#utility.yul\":4872:4876   */\n      dup2\n        /* \"#utility.yul\":4863:4869   */\n      dup5\n        /* \"#utility.yul\":4799:4877   */\n      tag_347\n      jump\t// in\n    tag_440:\n        /* \"#utility.yul\":4791:4877   */\n      swap1\n      pop\n        /* \"#utility.yul\":4571:4884   */\n      swap3\n      swap2\n      pop\n      pop\n      jump\t// out\n        /* \"#utility.yul\":4890:5007   */\n    tag_348:\n        /* \"#utility.yul\":4999:5000   */\n      0x00\n        /* \"#utility.yul\":4996:4997   */\n      dup1\n        /* \"#utility.yul\":4989:5001   */\n      revert\n        /* \"#utility.yul\":5013:5193   */\n    tag_126:\n        /* \"#utility.yul\":5061:5138   */\n      0x4e487b7100000000000000000000000000000000000000000000000000000000\n        /* \"#utility.yul\":5058:5059   */\n      0x00\n        /* \"#utility.yul\":5051:5139   */\n      mstore\n        /* \"#utility.yul\":5158:5162   */\n      0x41\n        /* \"#utility.yul\":5155:5156   */\n      0x04\n        /* \"#utility.yul\":5148:5163   */\n      mstore\n        /* \"#utility.yul\":5182:5186   */\n      0x24\n        /* \"#utility.yul\":5179:5180   */\n      0x00\n        /* \"#utility.yul\":5172:5187   */\n      revert\n        /* \"#utility.yul\":5199:5480   */\n    tag_349:\n        /* \"#utility.yul\":5282:5309   */\n      tag_444\n        /* \"#utility.yul\":5304:5308   */\n      dup3\n        /* \"#utility.yul\":5282:5309   */\n      tag_346\n      jump\t// in\n    tag_444:\n        /* \"#utility.yul\":5274:5280   */\n      dup2\n        /* \"#utility.yul\":5270:5310   */\n      add\n        /* \"#utility.yul\":5412:5418   */\n      dup2\n        /* \"#utility.yul\":5400:5410   */\n      dup2\n        /* \"#utility.yul\":5397:5419   */\n      lt\n        /* \"#utility.yul\":5376:5394   */\n      0xffffffffffffffff\n        /* \"#utility.yul\":5364:5374   */\n      dup3\n        /* \"#utility.yul\":5361:5395   */\n      gt\n        /* \"#utility.yul\":5358:5420   */\n      or\n        /* \"#utility.yul\":5355:5443   */\n      iszero\n      tag_445\n      jumpi\n        /* \"#utility.yul\":5423:5441   */\n      tag_446\n      tag_126\n      jump\t// in\n    tag_446:\n        /* \"#utility.yul\":5355:5443   */\n    tag_445:\n        /* \"#utility.yul\":5463:5473   */\n      dup1\n        /* \"#utility.yul\":5459:5461   */\n      0x40\n        /* \"#utility.yul\":5452:5474   */\n      mstore\n        /* \"#utility.yul\":5242:5480   */\n      pop\n        /* \"#utility.yul\":5199:5480   */\n      pop\n      pop\n      jump\t// out\n        /* \"#utility.yul\":5486:5615   */\n    tag_350:\n        /* \"#utility.yul\":5520:5526   */\n      0x00\n        /* \"#utility.yul\":5547:5567   */\n      tag_448\n      tag_327\n      jump\t// in\n    tag_448:\n        /* \"#utility.yul\":5537:5567   */\n      swap1\n      pop\n        /* \"#utility.yul\":5576:5609   */\n      tag_449\n        /* \"#utility.yul\":5604:5608   */\n      dup3\n        /* \"#utility.yul\":5596:5602   */\n      dup3\n        /* \"#utility.yul\":5576:5609   */\n      tag_349\n      jump\t// in\n    tag_449:\n        /* \"#utility.yul\":5486:5615   */\n      swap2\n      swap1\n      pop\n      jump\t// out\n        /* \"#utility.yul\":5621:5932   */\n    tag_351:\n        /* \"#utility.yul\":5698:5702   */\n      0x00\n        /* \"#utility.yul\":5788:5806   */\n      0xffffffffffffffff\n        /* \"#utility.yul\":5780:5786   */\n      dup3\n        /* \"#utility.yul\":5777:5807   */\n      gt\n        /* \"#utility.yul\":5774:5830   */\n      iszero\n      tag_451\n      jumpi\n        /* \"#utility.yul\":5810:5828   */\n      tag_452\n      tag_126\n      jump\t// in\n    tag_452:\n        /* \"#utility.yul\":5774:5830   */\n    tag_451:\n        /* \"#utility.yul\":5860:5864   */\n      0x20\n        /* \"#utility.yul\":5852:5858   */\n      dup3\n        /* \"#utility.yul\":5848:5865   */\n      mul\n        /* \"#utility.yul\":5840:5865   */\n      swap1\n      pop\n        /* \"#utility.yul\":5920:5924   */\n      0x20\n        /* \"#utility.yul\":5914:5918   */\n      dup2\n        /* \"#utility.yul\":5910:5925   */\n      add\n        /* \"#utility.yul\":5902:5925   */\n      swap1\n      pop\n        /* \"#utility.yul\":5621:5932   */\n      swap2\n      swap1\n      pop\n      jump\t// out\n        /* \"#utility.yul\":5938:6055   */\n    tag_352:\n        /* \"#utility.yul\":6047:6048   */\n      0x00\n        /* \"#utility.yul\":6044:6045   */\n      dup1\n        /* \"#utility.yul\":6037:6049   */\n      revert\n        /* \"#utility.yul\":6078:6788   */\n    tag_353:\n        /* \"#utility.yul\":6174:6179   */\n      0x00\n        /* \"#utility.yul\":6199:6280   */\n      tag_455\n        /* \"#utility.yul\":6215:6279   */\n      tag_456\n        /* \"#utility.yul\":6272:6278   */\n      dup5\n        /* \"#utility.yul\":6215:6279   */\n      tag_351\n      jump\t// in\n    tag_456:\n        /* \"#utility.yul\":6199:6280   */\n      tag_350\n      jump\t// in\n    tag_455:\n        /* \"#utility.yul\":6190:6280   */\n      swap1\n      pop\n        /* \"#utility.yul\":6300:6305   */\n      dup1\n        /* \"#utility.yul\":6329:6335   */\n      dup4\n        /* \"#utility.yul\":6322:6327   */\n      dup3\n        /* \"#utility.yul\":6315:6336   */\n      mstore\n        /* \"#utility.yul\":6363:6367   */\n      0x20\n        /* \"#utility.yul\":6356:6361   */\n      dup3\n        /* \"#utility.yul\":6352:6368   */\n      add\n        /* \"#utility.yul\":6345:6368   */\n      swap1\n      pop\n        /* \"#utility.yul\":6416:6420   */\n      0x20\n        /* \"#utility.yul\":6408:6414   */\n      dup5\n        /* \"#utility.yul\":6404:6421   */\n      mul\n        /* \"#utility.yul\":6396:6402   */\n      dup4\n        /* \"#utility.yul\":6392:6422   */\n      add\n        /* \"#utility.yul\":6445:6448   */\n      dup6\n        /* \"#utility.yul\":6437:6443   */\n      dup2\n        /* \"#utility.yul\":6434:6449   */\n      gt\n        /* \"#utility.yul\":6431:6553   */\n      iszero\n      tag_457\n      jumpi\n        /* \"#utility.yul\":6464:6543   */\n      tag_458\n      tag_352\n      jump\t// in\n    tag_458:\n        /* \"#utility.yul\":6431:6553   */\n    tag_457:\n        /* \"#utility.yul\":6579:6585   */\n      dup4\n        /* \"#utility.yul\":6562:6782   */\n    tag_459:\n        /* \"#utility.yul\":6596:6602   */\n      dup2\n        /* \"#utility.yul\":6591:6594   */\n      dup2\n        /* \"#utility.yul\":6588:6603   */\n      lt\n        /* \"#utility.yul\":6562:6782   */\n      iszero\n      tag_461\n      jumpi\n        /* \"#utility.yul\":6671:6674   */\n      dup1\n        /* \"#utility.yul\":6700:6737   */\n      tag_462\n        /* \"#utility.yul\":6733:6736   */\n      dup9\n        /* \"#utility.yul\":6721:6731   */\n      dup3\n        /* \"#utility.yul\":6700:6737   */\n      tag_336\n      jump\t// in\n    tag_462:\n        /* \"#utility.yul\":6695:6698   */\n      dup5\n        /* \"#utility.yul\":6688:6738   */\n      mstore\n        /* \"#utility.yul\":6767:6771   */\n      0x20\n        /* \"#utility.yul\":6762:6765   */\n      dup5\n        /* \"#utility.yul\":6758:6772   */\n      add\n        /* \"#utility.yul\":6751:6772   */\n      swap4\n      pop\n        /* \"#utility.yul\":6638:6782   */\n      pop\n        /* \"#utility.yul\":6622:6626   */\n      0x20\n        /* \"#utility.yul\":6617:6620   */\n      dup2\n        /* \"#utility.yul\":6613:6627   */\n      add\n        /* \"#utility.yul\":6606:6627   */\n      swap1\n      pop\n        /* \"#utility.yul\":6562:6782   */\n      jump(tag_459)\n    tag_461:\n        /* \"#utility.yul\":6566:6587   */\n      pop\n        /* \"#utility.yul\":6180:6788   */\n      pop\n      pop\n        /* \"#utility.yul\":6078:6788   */\n      swap4\n      swap3\n      pop\n      pop\n      pop\n      jump\t// out\n        /* \"#utility.yul\":6811:7181   */\n    tag_354:\n        /* \"#utility.yul\":6882:6887   */\n      0x00\n        /* \"#utility.yul\":6931:6934   */\n      dup3\n        /* \"#utility.yul\":6924:6928   */\n      0x1f\n        /* \"#utility.yul\":6916:6922   */\n      dup4\n        /* \"#utility.yul\":6912:6929   */\n      add\n        /* \"#utility.yul\":6908:6935   */\n      slt\n        /* \"#utility.yul\":6898:7020   */\n      tag_464\n      jumpi\n        /* \"#utility.yul\":6939:7018   */\n      tag_465\n      tag_348\n      jump\t// in\n    tag_465:\n        /* \"#utility.yul\":6898:7020   */\n    tag_464:\n        /* \"#utility.yul\":7056:7062   */\n      dup2\n        /* \"#utility.yul\":7043:7063   */\n      calldataload\n        /* \"#utility.yul\":7081:7175   */\n      tag_466\n        /* \"#utility.yul\":7171:7174   */\n      dup5\n        /* \"#utility.yul\":7163:7169   */\n      dup3\n        /* \"#utility.yul\":7156:7160   */\n      0x20\n        /* \"#utility.yul\":7148:7154   */\n      dup7\n        /* \"#utility.yul\":7144:7161   */\n      add\n        /* \"#utility.yul\":7081:7175   */\n      tag_353\n      jump\t// in\n    tag_466:\n        /* \"#utility.yul\":7072:7175   */\n      swap2\n      pop\n        /* \"#utility.yul\":6888:7181   */\n      pop\n        /* \"#utility.yul\":6811:7181   */\n      swap3\n      swap2\n      pop\n      pop\n      jump\t// out\n        /* \"#utility.yul\":7187:7304   */\n    tag_355:\n        /* \"#utility.yul\":7296:7297   */\n      0x00\n        /* \"#utility.yul\":7293:7294   */\n      dup1\n        /* \"#utility.yul\":7286:7298   */\n      revert\n        /* \"#utility.yul\":7310:7617   */\n    tag_356:\n        /* \"#utility.yul\":7371:7375   */\n      0x00\n        /* \"#utility.yul\":7461:7479   */\n      0xffffffffffffffff\n        /* \"#utility.yul\":7453:7459   */\n      dup3\n        /* \"#utility.yul\":7450:7480   */\n      gt\n        /* \"#utility.yul\":7447:7503   */\n      iszero\n      tag_469\n      jumpi\n        /* \"#utility.yul\":7483:7501   */\n      tag_470\n      tag_126\n      jump\t// in\n    tag_470:\n        /* \"#utility.yul\":7447:7503   */\n    tag_469:\n        /* \"#utility.yul\":7521:7550   */\n      tag_471\n        /* \"#utility.yul\":7543:7549   */\n      dup3\n        /* \"#utility.yul\":7521:7550   */\n      tag_346\n      jump\t// in\n    tag_471:\n        /* \"#utility.yul\":7513:7550   */\n      swap1\n      pop\n        /* \"#utility.yul\":7605:7609   */\n      0x20\n        /* \"#utility.yul\":7599:7603   */\n      dup2\n        /* \"#utility.yul\":7595:7610   */\n      add\n        /* \"#utility.yul\":7587:7610   */\n      swap1\n      pop\n        /* \"#utility.yul\":7310:7617   */\n      swap2\n      swap1\n      pop\n      jump\t// out\n        /* \"#utility.yul\":7623:7769   */\n    tag_357:\n        /* \"#utility.yul\":7720:7726   */\n      dup3\n        /* \"#utility.yul\":7715:7718   */\n      dup2\n        /* \"#utility.yul\":7710:7713   */\n      dup4\n        /* \"#utility.yul\":7697:7727   */\n      calldatacopy\n        /* \"#utility.yul\":7761:7762   */\n      0x00\n        /* \"#utility.yul\":7752:7758   */\n      dup4\n        /* \"#utility.yul\":7747:7750   */\n      dup4\n        /* \"#utility.yul\":7743:7759   */\n      add\n        /* \"#utility.yul\":7736:7763   */\n      mstore\n        /* \"#utility.yul\":7623:7769   */\n      pop\n      pop\n      pop\n      jump\t// out\n        /* \"#utility.yul\":7775:8198   */\n    tag_358:\n        /* \"#utility.yul\":7852:7857   */\n      0x00\n        /* \"#utility.yul\":7877:7942   */\n      tag_474\n        /* \"#utility.yul\":7893:7941   */\n      tag_475\n        /* \"#utility.yul\":7934:7940   */\n      dup5\n        /* \"#utility.yul\":7893:7941   */\n      tag_356\n      jump\t// in\n    tag_475:\n        /* \"#utility.yul\":7877:7942   */\n      tag_350\n      jump\t// in\n    tag_474:\n        /* \"#utility.yul\":7868:7942   */\n      swap1\n      pop\n        /* \"#utility.yul\":7965:7971   */\n      dup3\n        /* \"#utility.yul\":7958:7963   */\n      dup2\n        /* \"#utility.yul\":7951:7972   */\n      mstore\n        /* \"#utility.yul\":8003:8007   */\n      0x20\n        /* \"#utility.yul\":7996:8001   */\n      dup2\n        /* \"#utility.yul\":7992:8008   */\n      add\n        /* \"#utility.yul\":8041:8044   */\n      dup5\n        /* \"#utility.yul\":8032:8038   */\n      dup5\n        /* \"#utility.yul\":8027:8030   */\n      dup5\n        /* \"#utility.yul\":8023:8039   */\n      add\n        /* \"#utility.yul\":8020:8045   */\n      gt\n        /* \"#utility.yul\":8017:8129   */\n      iszero\n      tag_476\n      jumpi\n        /* \"#utility.yul\":8048:8127   */\n      tag_477\n      tag_355\n      jump\t// in\n    tag_477:\n        /* \"#utility.yul\":8017:8129   */\n    tag_476:\n        /* \"#utility.yul\":8138:8192   */\n      tag_478\n        /* \"#utility.yul\":8185:8191   */\n      dup5\n        /* \"#utility.yul\":8180:8183   */\n      dup3\n        /* \"#utility.yul\":8175:8178   */\n      dup6\n        /* \"#utility.yul\":8138:8192   */\n      tag_357\n      jump\t// in\n    tag_478:\n        /* \"#utility.yul\":7858:8198   */\n      pop\n        /* \"#utility.yul\":7775:8198   */\n      swap4\n      swap3\n      pop\n      pop\n      pop\n      jump\t// out\n        /* \"#utility.yul\":8217:8555   */\n    tag_359:\n        /* \"#utility.yul\":8272:8277   */\n      0x00\n        /* \"#utility.yul\":8321:8324   */\n      dup3\n        /* \"#utility.yul\":8314:8318   */\n      0x1f\n        /* \"#utility.yul\":8306:8312   */\n      dup4\n        /* \"#utility.yul\":8302:8319   */\n      add\n        /* \"#utility.yul\":8298:8325   */\n      slt\n        /* \"#utility.yul\":8288:8410   */\n      tag_480\n      jumpi\n        /* \"#utility.yul\":8329:8408   */\n      tag_481\n      tag_348\n      jump\t// in\n    tag_481:\n        /* \"#utility.yul\":8288:8410   */\n    tag_480:\n        /* \"#utility.yul\":8446:8452   */\n      dup2\n        /* \"#utility.yul\":8433:8453   */\n      calldataload\n        /* \"#utility.yul\":8471:8549   */\n      tag_482\n        /* \"#utility.yul\":8545:8548   */\n      dup5\n        /* \"#utility.yul\":8537:8543   */\n      dup3\n        /* \"#utility.yul\":8530:8534   */\n      0x20\n        /* \"#utility.yul\":8522:8528   */\n      dup7\n        /* \"#utility.yul\":8518:8535   */\n      add\n        /* \"#utility.yul\":8471:8549   */\n      tag_358\n      jump\t// in\n    tag_482:\n        /* \"#utility.yul\":8462:8549   */\n      swap2\n      pop\n        /* \"#utility.yul\":8278:8555   */\n      pop\n        /* \"#utility.yul\":8217:8555   */\n      swap3\n      swap2\n      pop\n      pop\n      jump\t// out\n        /* \"#utility.yul\":8561:9924   */\n    tag_44:\n        /* \"#utility.yul\":8706:8712   */\n      0x00\n        /* \"#utility.yul\":8714:8720   */\n      dup1\n        /* \"#utility.yul\":8722:8728   */\n      0x00\n        /* \"#utility.yul\":8730:8736   */\n      dup1\n        /* \"#utility.yul\":8779:8782   */\n      0x80\n        /* \"#utility.yul\":8767:8776   */\n      dup6\n        /* \"#utility.yul\":8758:8765   */\n      dup8\n        /* \"#utility.yul\":8754:8777   */\n      sub\n        /* \"#utility.yul\":8750:8783   */\n      slt\n        /* \"#utility.yul\":8747:8867   */\n      iszero\n      tag_484\n      jumpi\n        /* \"#utility.yul\":8786:8865   */\n      tag_485\n      tag_328\n      jump\t// in\n    tag_485:\n        /* \"#utility.yul\":8747:8867   */\n    tag_484:\n        /* \"#utility.yul\":8906:8907   */\n      0x00\n        /* \"#utility.yul\":8931:8984   */\n      tag_486\n        /* \"#utility.yul\":8976:8983   */\n      dup8\n        /* \"#utility.yul\":8967:8973   */\n      dup3\n        /* \"#utility.yul\":8956:8965   */\n      dup9\n        /* \"#utility.yul\":8952:8974   */\n      add\n        /* \"#utility.yul\":8931:8984   */\n      tag_333\n      jump\t// in\n    tag_486:\n        /* \"#utility.yul\":8921:8984   */\n      swap5\n      pop\n        /* \"#utility.yul\":8877:8994   */\n      pop\n        /* \"#utility.yul\":9061:9063   */\n      0x20\n        /* \"#utility.yul\":9050:9059   */\n      dup6\n        /* \"#utility.yul\":9046:9064   */\n      add\n        /* \"#utility.yul\":9033:9065   */\n      calldataload\n        /* \"#utility.yul\":9092:9110   */\n      0xffffffffffffffff\n        /* \"#utility.yul\":9084:9090   */\n      dup2\n        /* \"#utility.yul\":9081:9111   */\n      gt\n        /* \"#utility.yul\":9078:9195   */\n      iszero\n      tag_487\n      jumpi\n        /* \"#utility.yul\":9114:9193   */\n      tag_488\n      tag_329\n      jump\t// in\n    tag_488:\n        /* \"#utility.yul\":9078:9195   */\n    tag_487:\n        /* \"#utility.yul\":9219:9297   */\n      tag_489\n        /* \"#utility.yul\":9289:9296   */\n      dup8\n        /* \"#utility.yul\":9280:9286   */\n      dup3\n        /* \"#utility.yul\":9269:9278   */\n      dup9\n        /* \"#utility.yul\":9265:9287   */\n      add\n        /* \"#utility.yul\":9219:9297   */\n      tag_354\n      jump\t// in\n    tag_489:\n        /* \"#utility.yul\":9209:9297   */\n      swap4\n      pop\n        /* \"#utility.yul\":9004:9307   */\n      pop\n        /* \"#utility.yul\":9374:9376   */\n      0x40\n        /* \"#utility.yul\":9363:9372   */\n      dup6\n        /* \"#utility.yul\":9359:9377   */\n      add\n        /* \"#utility.yul\":9346:9378   */\n      calldataload\n        /* \"#utility.yul\":9405:9423   */\n      0xffffffffffffffff\n        /* \"#utility.yul\":9397:9403   */\n      dup2\n        /* \"#utility.yul\":9394:9424   */\n      gt\n        /* \"#utility.yul\":9391:9508   */\n      iszero\n      tag_490\n      jumpi\n        /* \"#utility.yul\":9427:9506   */\n      tag_491\n      tag_329\n      jump\t// in\n    tag_491:\n        /* \"#utility.yul\":9391:9508   */\n    tag_490:\n        /* \"#utility.yul\":9532:9610   */\n      tag_492\n        /* \"#utility.yul\":9602:9609   */\n      dup8\n        /* \"#utility.yul\":9593:9599   */\n      dup3\n        /* \"#utility.yul\":9582:9591   */\n      dup9\n        /* \"#utility.yul\":9578:9600   */\n      add\n        /* \"#utility.yul\":9532:9610   */\n      tag_354\n      jump\t// in\n    tag_492:\n        /* \"#utility.yul\":9522:9610   */\n      swap3\n      pop\n        /* \"#utility.yul\":9317:9620   */\n      pop\n        /* \"#utility.yul\":9687:9689   */\n      0x60\n        /* \"#utility.yul\":9676:9685   */\n      dup6\n        /* \"#utility.yul\":9672:9690   */\n      add\n        /* \"#utility.yul\":9659:9691   */\n      calldataload\n        /* \"#utility.yul\":9718:9736   */\n      0xffffffffffffffff\n        /* \"#utility.yul\":9710:9716   */\n      dup2\n        /* \"#utility.yul\":9707:9737   */\n      gt\n        /* \"#utility.yul\":9704:9821   */\n      iszero\n      tag_493\n      jumpi\n        /* \"#utility.yul\":9740:9819   */\n      tag_494\n      tag_329\n      jump\t// in\n    tag_494:\n        /* \"#utility.yul\":9704:9821   */\n    tag_493:\n        /* \"#utility.yul\":9845:9907   */\n      tag_495\n        /* \"#utility.yul\":9899:9906   */\n      dup8\n        /* \"#utility.yul\":9890:9896   */\n      dup3\n        /* \"#utility.yul\":9879:9888   */\n      dup9\n        /* \"#utility.yul\":9875:9897   */\n      add\n        /* \"#utility.yul\":9845:9907   */\n      tag_359\n      jump\t// in\n    tag_495:\n        /* \"#utility.yul\":9835:9907   */\n      swap2\n      pop\n        /* \"#utility.yul\":9630:9917   */\n      pop\n        /* \"#utility.yul\":8561:9924   */\n      swap3\n      swap6\n      swap2\n      swap5\n      pop\n      swap3\n      pop\n      jump\t// out\n        /* \"#utility.yul\":9930:11439   */\n    tag_48:\n        /* \"#utility.yul\":10084:10090   */\n      0x00\n        /* \"#utility.yul\":10092:10098   */\n      dup1\n        /* \"#utility.yul\":10100:10106   */\n      0x00\n        /* \"#utility.yul\":10108:10114   */\n      dup1\n        /* \"#utility.yul\":10116:10122   */\n      0x00\n        /* \"#utility.yul\":10165:10168   */\n      0xa0\n        /* \"#utility.yul\":10153:10162   */\n      dup7\n        /* \"#utility.yul\":10144:10151   */\n      dup9\n        /* \"#utility.yul\":10140:10163   */\n      sub\n        /* \"#utility.yul\":10136:10169   */\n      slt\n        /* \"#utility.yul\":10133:10253   */\n      iszero\n      tag_497\n      jumpi\n        /* \"#utility.yul\":10172:10251   */\n      tag_498\n      tag_328\n      jump\t// in\n    tag_498:\n        /* \"#utility.yul\":10133:10253   */\n    tag_497:\n        /* \"#utility.yul\":10292:10293   */\n      0x00\n        /* \"#utility.yul\":10317:10370   */\n      tag_499\n        /* \"#utility.yul\":10362:10369   */\n      dup9\n        /* \"#utility.yul\":10353:10359   */\n      dup3\n        /* \"#utility.yul\":10342:10351   */\n      dup10\n        /* \"#utility.yul\":10338:10360   */\n      add\n        /* \"#utility.yul\":10317:10370   */\n      tag_333\n      jump\t// in\n    tag_499:\n        /* \"#utility.yul\":10307:10370   */\n      swap6\n      pop\n        /* \"#utility.yul\":10263:10380   */\n      pop\n        /* \"#utility.yul\":10419:10421   */\n      0x20\n        /* \"#utility.yul\":10445:10498   */\n      tag_500\n        /* \"#utility.yul\":10490:10497   */\n      dup9\n        /* \"#utility.yul\":10481:10487   */\n      dup3\n        /* \"#utility.yul\":10470:10479   */\n      dup10\n        /* \"#utility.yul\":10466:10488   */\n      add\n        /* \"#utility.yul\":10445:10498   */\n      tag_333\n      jump\t// in\n    tag_500:\n        /* \"#utility.yul\":10435:10498   */\n      swap5\n      pop\n        /* \"#utility.yul\":10390:10508   */\n      pop\n        /* \"#utility.yul\":10575:10577   */\n      0x40\n        /* \"#utility.yul\":10564:10573   */\n      dup7\n        /* \"#utility.yul\":10560:10578   */\n      add\n        /* \"#utility.yul\":10547:10579   */\n      calldataload\n        /* \"#utility.yul\":10606:10624   */\n      0xffffffffffffffff\n        /* \"#utility.yul\":10598:10604   */\n      dup2\n        /* \"#utility.yul\":10595:10625   */\n      gt\n        /* \"#utility.yul\":10592:10709   */\n      iszero\n      tag_501\n      jumpi\n        /* \"#utility.yul\":10628:10707   */\n      tag_502\n      tag_329\n      jump\t// in\n    tag_502:\n        /* \"#utility.yul\":10592:10709   */\n    tag_501:\n        /* \"#utility.yul\":10733:10811   */\n      tag_503\n        /* \"#utility.yul\":10803:10810   */\n      dup9\n        /* \"#utility.yul\":10794:10800   */\n      dup3\n        /* \"#utility.yul\":10783:10792   */\n      dup10\n        /* \"#utility.yul\":10779:10801   */\n      add\n        /* \"#utility.yul\":10733:10811   */\n      tag_354\n      jump\t// in\n    tag_503:\n        /* \"#utility.yul\":10723:10811   */\n      swap4\n      pop\n        /* \"#utility.yul\":10518:10821   */\n      pop\n        /* \"#utility.yul\":10888:10890   */\n      0x60\n        /* \"#utility.yul\":10877:10886   */\n      dup7\n        /* \"#utility.yul\":10873:10891   */\n      add\n        /* \"#utility.yul\":10860:10892   */\n      calldataload\n        /* \"#utility.yul\":10919:10937   */\n      0xffffffffffffffff\n        /* \"#utility.yul\":10911:10917   */\n      dup2\n        /* \"#utility.yul\":10908:10938   */\n      gt\n        /* \"#utility.yul\":10905:11022   */\n      iszero\n      tag_504\n      jumpi\n        /* \"#utility.yul\":10941:11020   */\n      tag_505\n      tag_329\n      jump\t// in\n    tag_505:\n        /* \"#utility.yul\":10905:11022   */\n    tag_504:\n        /* \"#utility.yul\":11046:11124   */\n      tag_506\n        /* \"#utility.yul\":11116:11123   */\n      dup9\n        /* \"#utility.yul\":11107:11113   */\n      dup3\n        /* \"#utility.yul\":11096:11105   */\n      dup10\n        /* \"#utility.yul\":11092:11114   */\n      add\n        /* \"#utility.yul\":11046:11124   */\n      tag_354\n      jump\t// in\n    tag_506:\n        /* \"#utility.yul\":11036:11124   */\n      swap3\n      pop\n        /* \"#utility.yul\":10831:11134   */\n      pop\n        /* \"#utility.yul\":11201:11204   */\n      0x80\n        /* \"#utility.yul\":11190:11199   */\n      dup7\n        /* \"#utility.yul\":11186:11205   */\n      add\n        /* \"#utility.yul\":11173:11206   */\n      calldataload\n        /* \"#utility.yul\":11233:11251   */\n      0xffffffffffffffff\n        /* \"#utility.yul\":11225:11231   */\n      dup2\n        /* \"#utility.yul\":11222:11252   */\n      gt\n        /* \"#utility.yul\":11219:11336   */\n      iszero\n      tag_507\n      jumpi\n        /* \"#utility.yul\":11255:11334   */\n      tag_508\n      tag_329\n      jump\t// in\n    tag_508:\n        /* \"#utility.yul\":11219:11336   */\n    tag_507:\n        /* \"#utility.yul\":11360:11422   */\n      tag_509\n        /* \"#utility.yul\":11414:11421   */\n      dup9\n        /* \"#utility.yul\":11405:11411   */\n      dup3\n        /* \"#utility.yul\":11394:11403   */\n      dup10\n        /* \"#utility.yul\":11390:11412   */\n      add\n        /* \"#utility.yul\":11360:11422   */\n      tag_359\n      jump\t// in\n    tag_509:\n        /* \"#utility.yul\":11350:11422   */\n      swap2\n      pop\n        /* \"#utility.yul\":11144:11432   */\n      pop\n        /* \"#utility.yul\":9930:11439   */\n      swap3\n      swap6\n      pop\n      swap3\n      swap6\n      swap1\n      swap4\n      pop\n      jump\t// out\n        /* \"#utility.yul\":11445:11756   */\n    tag_360:\n        /* \"#utility.yul\":11522:11526   */\n      0x00\n        /* \"#utility.yul\":11612:11630   */\n      0xffffffffffffffff\n        /* \"#utility.yul\":11604:11610   */\n      dup3\n        /* \"#utility.yul\":11601:11631   */\n      gt\n        /* \"#utility.yul\":11598:11654   */\n      iszero\n      tag_511\n      jumpi\n        /* \"#utility.yul\":11634:11652   */\n      tag_512\n      tag_126\n      jump\t// in\n    tag_512:\n        /* \"#utility.yul\":11598:11654   */\n    tag_511:\n        /* \"#utility.yul\":11684:11688   */\n      0x20\n        /* \"#utility.yul\":11676:11682   */\n      dup3\n        /* \"#utility.yul\":11672:11689   */\n      mul\n        /* \"#utility.yul\":11664:11689   */\n      swap1\n      pop\n        /* \"#utility.yul\":11744:11748   */\n      0x20\n        /* \"#utility.yul\":11738:11742   */\n      dup2\n        /* \"#utility.yul\":11734:11749   */\n      add\n        /* \"#utility.yul\":11726:11749   */\n      swap1\n      pop\n        /* \"#utility.yul\":11445:11756   */\n      swap2\n      swap1\n      pop\n      jump\t// out\n        /* \"#utility.yul\":11779:12489   */\n    tag_361:\n        /* \"#utility.yul\":11875:11880   */\n      0x00\n        /* \"#utility.yul\":11900:11981   */\n      tag_514\n        /* \"#utility.yul\":11916:11980   */\n      tag_515\n        /* \"#utility.yul\":11973:11979   */\n      dup5\n        /* \"#utility.yul\":11916:11980   */\n      tag_360\n      jump\t// in\n    tag_515:\n        /* \"#utility.yul\":11900:11981   */\n      tag_350\n      jump\t// in\n    tag_514:\n        /* \"#utility.yul\":11891:11981   */\n      swap1\n      pop\n        /* \"#utility.yul\":12001:12006   */\n      dup1\n        /* \"#utility.yul\":12030:12036   */\n      dup4\n        /* \"#utility.yul\":12023:12028   */\n      dup3\n        /* \"#utility.yul\":12016:12037   */\n      mstore\n        /* \"#utility.yul\":12064:12068   */\n      0x20\n        /* \"#utility.yul\":12057:12062   */\n      dup3\n        /* \"#utility.yul\":12053:12069   */\n      add\n        /* \"#utility.yul\":12046:12069   */\n      swap1\n      pop\n        /* \"#utility.yul\":12117:12121   */\n      0x20\n        /* \"#utility.yul\":12109:12115   */\n      dup5\n        /* \"#utility.yul\":12105:12122   */\n      mul\n        /* \"#utility.yul\":12097:12103   */\n      dup4\n        /* \"#utility.yul\":12093:12123   */\n      add\n        /* \"#utility.yul\":12146:12149   */\n      dup6\n        /* \"#utility.yul\":12138:12144   */\n      dup2\n        /* \"#utility.yul\":12135:12150   */\n      gt\n        /* \"#utility.yul\":12132:12254   */\n      iszero\n      tag_516\n      jumpi\n        /* \"#utility.yul\":12165:12244   */\n      tag_517\n      tag_352\n      jump\t// in\n    tag_517:\n        /* \"#utility.yul\":12132:12254   */\n    tag_516:\n        /* \"#utility.yul\":12280:12286   */\n      dup4\n        /* \"#utility.yul\":12263:12483   */\n    tag_518:\n        /* \"#utility.yul\":12297:12303   */\n      dup2\n        /* \"#utility.yul\":12292:12295   */\n      dup2\n        /* \"#utility.yul\":12289:12304   */\n      lt\n        /* \"#utility.yul\":12263:12483   */\n      iszero\n      tag_520\n      jumpi\n        /* \"#utility.yul\":12372:12375   */\n      dup1\n        /* \"#utility.yul\":12401:12438   */\n      tag_521\n        /* \"#utility.yul\":12434:12437   */\n      dup9\n        /* \"#utility.yul\":12422:12432   */\n      dup3\n        /* \"#utility.yul\":12401:12438   */\n      tag_333\n      jump\t// in\n    tag_521:\n        /* \"#utility.yul\":12396:12399   */\n      dup5\n        /* \"#utility.yul\":12389:12439   */\n      mstore\n        /* \"#utility.yul\":12468:12472   */\n      0x20\n        /* \"#utility.yul\":12463:12466   */\n      dup5\n        /* \"#utility.yul\":12459:12473   */\n      add\n        /* \"#utility.yul\":12452:12473   */\n      swap4\n      pop\n        /* \"#utility.yul\":12339:12483   */\n      pop\n        /* \"#utility.yul\":12323:12327   */\n      0x20\n        /* \"#utility.yul\":12318:12321   */\n      dup2\n        /* \"#utility.yul\":12314:12328   */\n      add\n        /* \"#utility.yul\":12307:12328   */\n      swap1\n      pop\n        /* \"#utility.yul\":12263:12483   */\n      jump(tag_518)\n    tag_520:\n        /* \"#utility.yul\":12267:12288   */\n      pop\n        /* \"#utility.yul\":11881:12489   */\n      pop\n      pop\n        /* \"#utility.yul\":11779:12489   */\n      swap4\n      swap3\n      pop\n      pop\n      pop\n      jump\t// out\n        /* \"#utility.yul\":12512:12882   */\n    tag_362:\n        /* \"#utility.yul\":12583:12588   */\n      0x00\n        /* \"#utility.yul\":12632:12635   */\n      dup3\n        /* \"#utility.yul\":12625:12629   */\n      0x1f\n        /* \"#utility.yul\":12617:12623   */\n      dup4\n        /* \"#utility.yul\":12613:12630   */\n      add\n        /* \"#utility.yul\":12609:12636   */\n      slt\n        /* \"#utility.yul\":12599:12721   */\n      tag_523\n      jumpi\n        /* \"#utility.yul\":12640:12719   */\n      tag_524\n      tag_348\n      jump\t// in\n    tag_524:\n        /* \"#utility.yul\":12599:12721   */\n    tag_523:\n        /* \"#utility.yul\":12757:12763   */\n      dup2\n        /* \"#utility.yul\":12744:12764   */\n      calldataload\n        /* \"#utility.yul\":12782:12876   */\n      tag_525\n        /* \"#utility.yul\":12872:12875   */\n      dup5\n        /* \"#utility.yul\":12864:12870   */\n      dup3\n        /* \"#utility.yul\":12857:12861   */\n      0x20\n        /* \"#utility.yul\":12849:12855   */\n      dup7\n        /* \"#utility.yul\":12845:12862   */\n      add\n        /* \"#utility.yul\":12782:12876   */\n      tag_361\n      jump\t// in\n    tag_525:\n        /* \"#utility.yul\":12773:12876   */\n      swap2\n      pop\n        /* \"#utility.yul\":12589:12882   */\n      pop\n        /* \"#utility.yul\":12512:12882   */\n      swap3\n      swap2\n      pop\n      pop\n      jump\t// out\n        /* \"#utility.yul\":12888:13782   */\n    tag_52:\n        /* \"#utility.yul\":13006:13012   */\n      0x00\n        /* \"#utility.yul\":13014:13020   */\n      dup1\n        /* \"#utility.yul\":13063:13065   */\n      0x40\n        /* \"#utility.yul\":13051:13060   */\n      dup4\n        /* \"#utility.yul\":13042:13049   */\n      dup6\n        /* \"#utility.yul\":13038:13061   */\n      sub\n        /* \"#utility.yul\":13034:13066   */\n      slt\n        /* \"#utility.yul\":13031:13150   */\n      iszero\n      tag_527\n      jumpi\n        /* \"#utility.yul\":13069:13148   */\n      tag_528\n      tag_328\n      jump\t// in\n    tag_528:\n        /* \"#utility.yul\":13031:13150   */\n    tag_527:\n        /* \"#utility.yul\":13217:13218   */\n      0x00\n        /* \"#utility.yul\":13206:13215   */\n      dup4\n        /* \"#utility.yul\":13202:13219   */\n      add\n        /* \"#utility.yul\":13189:13220   */\n      calldataload\n        /* \"#utility.yul\":13247:13265   */\n      0xffffffffffffffff\n        /* \"#utility.yul\":13239:13245   */\n      dup2\n        /* \"#utility.yul\":13236:13266   */\n      gt\n        /* \"#utility.yul\":13233:13350   */\n      iszero\n      tag_529\n      jumpi\n        /* \"#utility.yul\":13269:13348   */\n      tag_530\n      tag_329\n      jump\t// in\n    tag_530:\n        /* \"#utility.yul\":13233:13350   */\n    tag_529:\n        /* \"#utility.yul\":13374:13452   */\n      tag_531\n        /* \"#utility.yul\":13444:13451   */\n      dup6\n        /* \"#utility.yul\":13435:13441   */\n      dup3\n        /* \"#utility.yul\":13424:13433   */\n      dup7\n        /* \"#utility.yul\":13420:13442   */\n      add\n        /* \"#utility.yul\":13374:13452   */\n      tag_362\n      jump\t// in\n    tag_531:\n        /* \"#utility.yul\":13364:13452   */\n      swap3\n      pop\n        /* \"#utility.yul\":13160:13462   */\n      pop\n        /* \"#utility.yul\":13529:13531   */\n      0x20\n        /* \"#utility.yul\":13518:13527   */\n      dup4\n        /* \"#utility.yul\":13514:13532   */\n      add\n        /* \"#utility.yul\":13501:13533   */\n      calldataload\n        /* \"#utility.yul\":13560:13578   */\n      0xffffffffffffffff\n        /* \"#utility.yul\":13552:13558   */\n      dup2\n        /* \"#utility.yul\":13549:13579   */\n      gt\n        /* \"#utility.yul\":13546:13663   */\n      iszero\n      tag_532\n      jumpi\n        /* \"#utility.yul\":13582:13661   */\n      tag_533\n      tag_329\n      jump\t// in\n    tag_533:\n        /* \"#utility.yul\":13546:13663   */\n    tag_532:\n        /* \"#utility.yul\":13687:13765   */\n      tag_534\n        /* \"#utility.yul\":13757:13764   */\n      dup6\n        /* \"#utility.yul\":13748:13754   */\n      dup3\n        /* \"#utility.yul\":13737:13746   */\n      dup7\n        /* \"#utility.yul\":13733:13755   */\n      add\n        /* \"#utility.yul\":13687:13765   */\n      tag_354\n      jump\t// in\n    tag_534:\n        /* \"#utility.yul\":13677:13765   */\n      swap2\n      pop\n        /* \"#utility.yul\":13472:13775   */\n      pop\n        /* \"#utility.yul\":12888:13782   */\n      swap3\n      pop\n      swap3\n      swap1\n      pop\n      jump\t// out\n        /* \"#utility.yul\":13788:13902   */\n    tag_363:\n        /* \"#utility.yul\":13855:13861   */\n      0x00\n        /* \"#utility.yul\":13889:13894   */\n      dup2\n        /* \"#utility.yul\":13883:13895   */\n      mload\n        /* \"#utility.yul\":13873:13895   */\n      swap1\n      pop\n        /* \"#utility.yul\":13788:13902   */\n      swap2\n      swap1\n      pop\n      jump\t// out\n        /* \"#utility.yul\":13908:14092   */\n    tag_364:\n        /* \"#utility.yul\":14007:14018   */\n      0x00\n        /* \"#utility.yul\":14041:14047   */\n      dup3\n        /* \"#utility.yul\":14036:14039   */\n      dup3\n        /* \"#utility.yul\":14029:14048   */\n      mstore\n        /* \"#utility.yul\":14081:14085   */\n      0x20\n        /* \"#utility.yul\":14076:14079   */\n      dup3\n        /* \"#utility.yul\":14072:14086   */\n      add\n        /* \"#utility.yul\":14057:14086   */\n      swap1\n      pop\n        /* \"#utility.yul\":13908:14092   */\n      swap3\n      swap2\n      pop\n      pop\n      jump\t// out\n        /* \"#utility.yul\":14098:14230   */\n    tag_365:\n        /* \"#utility.yul\":14165:14169   */\n      0x00\n        /* \"#utility.yul\":14188:14191   */\n      dup2\n        /* \"#utility.yul\":14180:14191   */\n      swap1\n      pop\n        /* \"#utility.yul\":14218:14222   */\n      0x20\n        /* \"#utility.yul\":14213:14216   */\n      dup3\n        /* \"#utility.yul\":14209:14223   */\n      add\n        /* \"#utility.yul\":14201:14223   */\n      swap1\n      pop\n        /* \"#utility.yul\":14098:14230   */\n      swap2\n      swap1\n      pop\n      jump\t// out\n        /* \"#utility.yul\":14236:14344   */\n    tag_366:\n        /* \"#utility.yul\":14313:14337   */\n      tag_539\n        /* \"#utility.yul\":14331:14336   */\n      dup2\n        /* \"#utility.yul\":14313:14337   */\n      tag_334\n      jump\t// in\n    tag_539:\n        /* \"#utility.yul\":14308:14311   */\n      dup3\n        /* \"#utility.yul\":14301:14338   */\n      mstore\n        /* \"#utility.yul\":14236:14344   */\n      pop\n      pop\n      jump\t// out\n        /* \"#utility.yul\":14350:14529   */\n    tag_367:\n        /* \"#utility.yul\":14419:14429   */\n      0x00\n        /* \"#utility.yul\":14440:14486   */\n      tag_541\n        /* \"#utility.yul\":14482:14485   */\n      dup4\n        /* \"#utility.yul\":14474:14480   */\n      dup4\n        /* \"#utility.yul\":14440:14486   */\n      tag_366\n      jump\t// in\n    tag_541:\n        /* \"#utility.yul\":14518:14522   */\n      0x20\n        /* \"#utility.yul\":14513:14516   */\n      dup4\n        /* \"#utility.yul\":14509:14523   */\n      add\n        /* \"#utility.yul\":14495:14523   */\n      swap1\n      pop\n        /* \"#utility.yul\":14350:14529   */\n      swap3\n      swap2\n      pop\n      pop\n      jump\t// out\n        /* \"#utility.yul\":14535:14648   */\n    tag_368:\n        /* \"#utility.yul\":14605:14609   */\n      0x00\n        /* \"#utility.yul\":14637:14641   */\n      0x20\n        /* \"#utility.yul\":14632:14635   */\n      dup3\n        /* \"#utility.yul\":14628:14642   */\n      add\n        /* \"#utility.yul\":14620:14642   */\n      swap1\n      pop\n        /* \"#utility.yul\":14535:14648   */\n      swap2\n      swap1\n      pop\n      jump\t// out\n        /* \"#utility.yul\":14684:15416   */\n    tag_369:\n        /* \"#utility.yul\":14803:14806   */\n      0x00\n        /* \"#utility.yul\":14832:14886   */\n      tag_544\n        /* \"#utility.yul\":14880:14885   */\n      dup3\n        /* \"#utility.yul\":14832:14886   */\n      tag_363\n      jump\t// in\n    tag_544:\n        /* \"#utility.yul\":14902:14988   */\n      tag_545\n        /* \"#utility.yul\":14981:14987   */\n      dup2\n        /* \"#utility.yul\":14976:14979   */\n      dup6\n        /* \"#utility.yul\":14902:14988   */\n      tag_364\n      jump\t// in\n    tag_545:\n        /* \"#utility.yul\":14895:14988   */\n      swap4\n      pop\n        /* \"#utility.yul\":15012:15068   */\n      tag_546\n        /* \"#utility.yul\":15062:15067   */\n      dup4\n        /* \"#utility.yul\":15012:15068   */\n      tag_365\n      jump\t// in\n    tag_546:\n        /* \"#utility.yul\":15091:15098   */\n      dup1\n        /* \"#utility.yul\":15122:15123   */\n      0x00\n        /* \"#utility.yul\":15107:15391   */\n    tag_547:\n        /* \"#utility.yul\":15132:15138   */\n      dup4\n        /* \"#utility.yul\":15129:15130   */\n      dup2\n        /* \"#utility.yul\":15126:15139   */\n      lt\n        /* \"#utility.yul\":15107:15391   */\n      iszero\n      tag_549\n      jumpi\n        /* \"#utility.yul\":15208:15214   */\n      dup2\n        /* \"#utility.yul\":15202:15215   */\n      mload\n        /* \"#utility.yul\":15235:15298   */\n      tag_550\n        /* \"#utility.yul\":15294:15297   */\n      dup9\n        /* \"#utility.yul\":15279:15292   */\n      dup3\n        /* \"#utility.yul\":15235:15298   */\n      tag_367\n      jump\t// in\n    tag_550:\n        /* \"#utility.yul\":15228:15298   */\n      swap8\n      pop\n        /* \"#utility.yul\":15321:15381   */\n      tag_551\n        /* \"#utility.yul\":15374:15380   */\n      dup4\n        /* \"#utility.yul\":15321:15381   */\n      tag_368\n      jump\t// in\n    tag_551:\n        /* \"#utility.yul\":15311:15381   */\n      swap3\n      pop\n        /* \"#utility.yul\":15167:15391   */\n      pop\n        /* \"#utility.yul\":15154:15155   */\n      0x01\n        /* \"#utility.yul\":15151:15152   */\n      dup2\n        /* \"#utility.yul\":15147:15156   */\n      add\n        /* \"#utility.yul\":15142:15156   */\n      swap1\n      pop\n        /* \"#utility.yul\":15107:15391   */\n      jump(tag_547)\n    tag_549:\n        /* \"#utility.yul\":15111:15125   */\n      pop\n        /* \"#utility.yul\":15407:15410   */\n      dup6\n        /* \"#utility.yul\":15400:15410   */\n      swap4\n      pop\n        /* \"#utility.yul\":14808:15416   */\n      pop\n      pop\n      pop\n        /* \"#utility.yul\":14684:15416   */\n      swap3\n      swap2\n      pop\n      pop\n      jump\t// out\n        /* \"#utility.yul\":15422:15795   */\n    tag_55:\n        /* \"#utility.yul\":15565:15569   */\n      0x00\n        /* \"#utility.yul\":15603:15605   */\n      0x20\n        /* \"#utility.yul\":15592:15601   */\n      dup3\n        /* \"#utility.yul\":15588:15606   */\n      add\n        /* \"#utility.yul\":15580:15606   */\n      swap1\n      pop\n        /* \"#utility.yul\":15652:15661   */\n      dup2\n        /* \"#utility.yul\":15646:15650   */\n      dup2\n        /* \"#utility.yul\":15642:15662   */\n      sub\n        /* \"#utility.yul\":15638:15639   */\n      0x00\n        /* \"#utility.yul\":15627:15636   */\n      dup4\n        /* \"#utility.yul\":15623:15640   */\n      add\n        /* \"#utility.yul\":15616:15663   */\n      mstore\n        /* \"#utility.yul\":15680:15788   */\n      tag_553\n        /* \"#utility.yul\":15783:15787   */\n      dup2\n        /* \"#utility.yul\":15774:15780   */\n      dup5\n        /* \"#utility.yul\":15680:15788   */\n      tag_369\n      jump\t// in\n    tag_553:\n        /* \"#utility.yul\":15672:15788   */\n      swap1\n      pop\n        /* \"#utility.yul\":15422:15795   */\n      swap3\n      swap2\n      pop\n      pop\n      jump\t// out\n        /* \"#utility.yul\":15801:16840   */\n    tag_62:\n        /* \"#utility.yul\":15928:15934   */\n      0x00\n        /* \"#utility.yul\":15936:15942   */\n      dup1\n        /* \"#utility.yul\":15944:15950   */\n      0x00\n        /* \"#utility.yul\":15993:15995   */\n      0x60\n        /* \"#utility.yul\":15981:15990   */\n      dup5\n        /* \"#utility.yul\":15972:15979   */\n      dup7\n        /* \"#utility.yul\":15968:15991   */\n      sub\n        /* \"#utility.yul\":15964:15996   */\n      slt\n        /* \"#utility.yul\":15961:16080   */\n      iszero\n      tag_555\n      jumpi\n        /* \"#utility.yul\":15999:16078   */\n      tag_556\n      tag_328\n      jump\t// in\n    tag_556:\n        /* \"#utility.yul\":15961:16080   */\n    tag_555:\n        /* \"#utility.yul\":16119:16120   */\n      0x00\n        /* \"#utility.yul\":16144:16197   */\n      tag_557\n        /* \"#utility.yul\":16189:16196   */\n      dup7\n        /* \"#utility.yul\":16180:16186   */\n      dup3\n        /* \"#utility.yul\":16169:16178   */\n      dup8\n        /* \"#utility.yul\":16165:16187   */\n      add\n        /* \"#utility.yul\":16144:16197   */\n      tag_333\n      jump\t// in\n    tag_557:\n        /* \"#utility.yul\":16134:16197   */\n      swap4\n      pop\n        /* \"#utility.yul\":16090:16207   */\n      pop\n        /* \"#utility.yul\":16274:16276   */\n      0x20\n        /* \"#utility.yul\":16263:16272   */\n      dup5\n        /* \"#utility.yul\":16259:16277   */\n      add\n        /* \"#utility.yul\":16246:16278   */\n      calldataload\n        /* \"#utility.yul\":16305:16323   */\n      0xffffffffffffffff\n        /* \"#utility.yul\":16297:16303   */\n      dup2\n        /* \"#utility.yul\":16294:16324   */\n      gt\n        /* \"#utility.yul\":16291:16408   */\n      iszero\n      tag_558\n      jumpi\n        /* \"#utility.yul\":16327:16406   */\n      tag_559\n      tag_329\n      jump\t// in\n    tag_559:\n        /* \"#utility.yul\":16291:16408   */\n    tag_558:\n        /* \"#utility.yul\":16432:16510   */\n      tag_560\n        /* \"#utility.yul\":16502:16509   */\n      dup7\n        /* \"#utility.yul\":16493:16499   */\n      dup3\n        /* \"#utility.yul\":16482:16491   */\n      dup8\n        /* \"#utility.yul\":16478:16500   */\n      add\n        /* \"#utility.yul\":16432:16510   */\n      tag_354\n      jump\t// in\n    tag_560:\n        /* \"#utility.yul\":16422:16510   */\n      swap3\n      pop\n        /* \"#utility.yul\":16217:16520   */\n      pop\n        /* \"#utility.yul\":16587:16589   */\n      0x40\n        /* \"#utility.yul\":16576:16585   */\n      dup5\n        /* \"#utility.yul\":16572:16590   */\n      add\n        /* \"#utility.yul\":16559:16591   */\n      calldataload\n        /* \"#utility.yul\":16618:16636   */\n      0xffffffffffffffff\n        /* \"#utility.yul\":16610:16616   */\n      dup2\n        /* \"#utility.yul\":16607:16637   */\n      gt\n        /* \"#utility.yul\":16604:16721   */\n      iszero\n      tag_561\n      jumpi\n        /* \"#utility.yul\":16640:16719   */\n      tag_562\n      tag_329\n      jump\t// in\n    tag_562:\n        /* \"#utility.yul\":16604:16721   */\n    tag_561:\n        /* \"#utility.yul\":16745:16823   */\n      tag_563\n        /* \"#utility.yul\":16815:16822   */\n      dup7\n        /* \"#utility.yul\":16806:16812   */\n      dup3\n        /* \"#utility.yul\":16795:16804   */\n      dup8\n        /* \"#utility.yul\":16791:16813   */\n      add\n        /* \"#utility.yul\":16745:16823   */\n      tag_354\n      jump\t// in\n    tag_563:\n        /* \"#utility.yul\":16735:16823   */\n      swap2\n      pop\n        /* \"#utility.yul\":16530:16833   */\n      pop\n        /* \"#utility.yul\":15801:16840   */\n      swap3\n      pop\n      swap3\n      pop\n      swap3\n      jump\t// out\n        /* \"#utility.yul\":16846:17789   */\n    tag_66:\n        /* \"#utility.yul\":16941:16947   */\n      0x00\n        /* \"#utility.yul\":16949:16955   */\n      dup1\n        /* \"#utility.yul\":16957:16963   */\n      0x00\n        /* \"#utility.yul\":16965:16971   */\n      dup1\n        /* \"#utility.yul\":17014:17017   */\n      0x80\n        /* \"#utility.yul\":17002:17011   */\n      dup6\n        /* \"#utility.yul\":16993:17000   */\n      dup8\n        /* \"#utility.yul\":16989:17012   */\n      sub\n        /* \"#utility.yul\":16985:17018   */\n      slt\n        /* \"#utility.yul\":16982:17102   */\n      iszero\n      tag_565\n      jumpi\n        /* \"#utility.yul\":17021:17100   */\n      tag_566\n      tag_328\n      jump\t// in\n    tag_566:\n        /* \"#utility.yul\":16982:17102   */\n    tag_565:\n        /* \"#utility.yul\":17141:17142   */\n      0x00\n        /* \"#utility.yul\":17166:17219   */\n      tag_567\n        /* \"#utility.yul\":17211:17218   */\n      dup8\n        /* \"#utility.yul\":17202:17208   */\n      dup3\n        /* \"#utility.yul\":17191:17200   */\n      dup9\n        /* \"#utility.yul\":17187:17209   */\n      add\n        /* \"#utility.yul\":17166:17219   */\n      tag_333\n      jump\t// in\n    tag_567:\n        /* \"#utility.yul\":17156:17219   */\n      swap5\n      pop\n        /* \"#utility.yul\":17112:17229   */\n      pop\n        /* \"#utility.yul\":17268:17270   */\n      0x20\n        /* \"#utility.yul\":17294:17347   */\n      tag_568\n        /* \"#utility.yul\":17339:17346   */\n      dup8\n        /* \"#utility.yul\":17330:17336   */\n      dup3\n        /* \"#utility.yul\":17319:17328   */\n      dup9\n        /* \"#utility.yul\":17315:17337   */\n      add\n        /* \"#utility.yul\":17294:17347   */\n      tag_336\n      jump\t// in\n    tag_568:\n        /* \"#utility.yul\":17284:17347   */\n      swap4\n      pop\n        /* \"#utility.yul\":17239:17357   */\n      pop\n        /* \"#utility.yul\":17396:17398   */\n      0x40\n        /* \"#utility.yul\":17422:17475   */\n      tag_569\n        /* \"#utility.yul\":17467:17474   */\n      dup8\n        /* \"#utility.yul\":17458:17464   */\n      dup3\n        /* \"#utility.yul\":17447:17456   */\n      dup9\n        /* \"#utility.yul\":17443:17465   */\n      add\n        /* \"#utility.yul\":17422:17475   */\n      tag_336\n      jump\t// in\n    tag_569:\n        /* \"#utility.yul\":17412:17475   */\n      swap3\n      pop\n        /* \"#utility.yul\":17367:17485   */\n      pop\n        /* \"#utility.yul\":17552:17554   */\n      0x60\n        /* \"#utility.yul\":17541:17550   */\n      dup6\n        /* \"#utility.yul\":17537:17555   */\n      add\n        /* \"#utility.yul\":17524:17556   */\n      calldataload\n        /* \"#utility.yul\":17583:17601   */\n      0xffffffffffffffff\n        /* \"#utility.yul\":17575:17581   */\n      dup2\n        /* \"#utility.yul\":17572:17602   */\n      gt\n        /* \"#utility.yul\":17569:17686   */\n      iszero\n      tag_570\n      jumpi\n        /* \"#utility.yul\":17605:17684   */\n      tag_571\n      tag_329\n      jump\t// in\n    tag_571:\n        /* \"#utility.yul\":17569:17686   */\n    tag_570:\n        /* \"#utility.yul\":17710:17772   */\n      tag_572\n        /* \"#utility.yul\":17764:17771   */\n      dup8\n        /* \"#utility.yul\":17755:17761   */\n      dup3\n        /* \"#utility.yul\":17744:17753   */\n      dup9\n        /* \"#utility.yul\":17740:17762   */\n      add\n        /* \"#utility.yul\":17710:17772   */\n      tag_359\n      jump\t// in\n    tag_572:\n        /* \"#utility.yul\":17700:17772   */\n      swap2\n      pop\n        /* \"#utility.yul\":17495:17782   */\n      pop\n        /* \"#utility.yul\":16846:17789   */\n      swap3\n      swap6\n      swap2\n      swap5\n      pop\n      swap3\n      pop\n      jump\t// out\n        /* \"#utility.yul\":17795:17911   */\n    tag_370:\n        /* \"#utility.yul\":17865:17886   */\n      tag_574\n        /* \"#utility.yul\":17880:17885   */\n      dup2\n        /* \"#utility.yul\":17865:17886   */\n      tag_341\n      jump\t// in\n    tag_574:\n        /* \"#utility.yul\":17858:17863   */\n      dup2\n        /* \"#utility.yul\":17855:17887   */\n      eq\n        /* \"#utility.yul\":17845:17905   */\n      tag_575\n      jumpi\n        /* \"#utility.yul\":17901:17902   */\n      0x00\n        /* \"#utility.yul\":17898:17899   */\n      dup1\n        /* \"#utility.yul\":17891:17903   */\n      revert\n        /* \"#utility.yul\":17845:17905   */\n    tag_575:\n        /* \"#utility.yul\":17795:17911   */\n      pop\n      jump\t// out\n        /* \"#utility.yul\":17917:18050   */\n    tag_371:\n        /* \"#utility.yul\":17960:17965   */\n      0x00\n        /* \"#utility.yul\":17998:18004   */\n      dup2\n        /* \"#utility.yul\":17985:18005   */\n      calldataload\n        /* \"#utility.yul\":17976:18005   */\n      swap1\n      pop\n        /* \"#utility.yul\":18014:18044   */\n      tag_577\n        /* \"#utility.yul\":18038:18043   */\n      dup2\n        /* \"#utility.yul\":18014:18044   */\n      tag_370\n      jump\t// in\n    tag_577:\n        /* \"#utility.yul\":17917:18050   */\n      swap3\n      swap2\n      pop\n      pop\n      jump\t// out\n        /* \"#utility.yul\":18056:18524   */\n    tag_70:\n        /* \"#utility.yul\":18121:18127   */\n      0x00\n        /* \"#utility.yul\":18129:18135   */\n      dup1\n        /* \"#utility.yul\":18178:18180   */\n      0x40\n        /* \"#utility.yul\":18166:18175   */\n      dup4\n        /* \"#utility.yul\":18157:18164   */\n      dup6\n        /* \"#utility.yul\":18153:18176   */\n      sub\n        /* \"#utility.yul\":18149:18181   */\n      slt\n        /* \"#utility.yul\":18146:18265   */\n      iszero\n      tag_579\n      jumpi\n        /* \"#utility.yul\":18184:18263   */\n      tag_580\n      tag_328\n      jump\t// in\n    tag_580:\n        /* \"#utility.yul\":18146:18265   */\n    tag_579:\n        /* \"#utility.yul\":18304:18305   */\n      0x00\n        /* \"#utility.yul\":18329:18382   */\n      tag_581\n        /* \"#utility.yul\":18374:18381   */\n      dup6\n        /* \"#utility.yul\":18365:18371   */\n      dup3\n        /* \"#utility.yul\":18354:18363   */\n      dup7\n        /* \"#utility.yul\":18350:18372   */\n      add\n        /* \"#utility.yul\":18329:18382   */\n      tag_333\n      jump\t// in\n    tag_581:\n        /* \"#utility.yul\":18319:18382   */\n      swap3\n      pop\n        /* \"#utility.yul\":18275:18392   */\n      pop\n        /* \"#utility.yul\":18431:18433   */\n      0x20\n        /* \"#utility.yul\":18457:18507   */\n      tag_582\n        /* \"#utility.yul\":18499:18506   */\n      dup6\n        /* \"#utility.yul\":18490:18496   */\n      dup3\n        /* \"#utility.yul\":18479:18488   */\n      dup7\n        /* \"#utility.yul\":18475:18497   */\n      add\n        /* \"#utility.yul\":18457:18507   */\n      tag_371\n      jump\t// in\n    tag_582:\n        /* \"#utility.yul\":18447:18507   */\n      swap2\n      pop\n        /* \"#utility.yul\":18402:18517   */\n      pop\n        /* \"#utility.yul\":18056:18524   */\n      swap3\n      pop\n      swap3\n      swap1\n      pop\n      jump\t// out\n        /* \"#utility.yul\":18530:19004   */\n    tag_78:\n        /* \"#utility.yul\":18598:18604   */\n      0x00\n        /* \"#utility.yul\":18606:18612   */\n      dup1\n        /* \"#utility.yul\":18655:18657   */\n      0x40\n        /* \"#utility.yul\":18643:18652   */\n      dup4\n        /* \"#utility.yul\":18634:18641   */\n      dup6\n        /* \"#utility.yul\":18630:18653   */\n      sub\n        /* \"#utility.yul\":18626:18658   */\n      slt\n        /* \"#utility.yul\":18623:18742   */\n      iszero\n      tag_584\n      jumpi\n        /* \"#utility.yul\":18661:18740   */\n      tag_585\n      tag_328\n      jump\t// in\n    tag_585:\n        /* \"#utility.yul\":18623:18742   */\n    tag_584:\n        /* \"#utility.yul\":18781:18782   */\n      0x00\n        /* \"#utility.yul\":18806:18859   */\n      tag_586\n        /* \"#utility.yul\":18851:18858   */\n      dup6\n        /* \"#utility.yul\":18842:18848   */\n      dup3\n        /* \"#utility.yul\":18831:18840   */\n      dup7\n        /* \"#utility.yul\":18827:18849   */\n      add\n        /* \"#utility.yul\":18806:18859   */\n      tag_333\n      jump\t// in\n    tag_586:\n        /* \"#utility.yul\":18796:18859   */\n      swap3\n      pop\n        /* \"#utility.yul\":18752:18869   */\n      pop\n        /* \"#utility.yul\":18908:18910   */\n      0x20\n        /* \"#utility.yul\":18934:18987   */\n      tag_587\n        /* \"#utility.yul\":18979:18986   */\n      dup6\n        /* \"#utility.yul\":18970:18976   */\n      dup3\n        /* \"#utility.yul\":18959:18968   */\n      dup7\n        /* \"#utility.yul\":18955:18977   */\n      add\n        /* \"#utility.yul\":18934:18987   */\n      tag_333\n      jump\t// in\n    tag_587:\n        /* \"#utility.yul\":18924:18987   */\n      swap2\n      pop\n        /* \"#utility.yul\":18879:18997   */\n      pop\n        /* \"#utility.yul\":18530:19004   */\n      swap3\n      pop\n      swap3\n      swap1\n      pop\n      jump\t// out\n        /* \"#utility.yul\":19010:20099   */\n    tag_83:\n        /* \"#utility.yul\":19114:19120   */\n      0x00\n        /* \"#utility.yul\":19122:19128   */\n      dup1\n        /* \"#utility.yul\":19130:19136   */\n      0x00\n        /* \"#utility.yul\":19138:19144   */\n      dup1\n        /* \"#utility.yul\":19146:19152   */\n      0x00\n        /* \"#utility.yul\":19195:19198   */\n      0xa0\n        /* \"#utility.yul\":19183:19192   */\n      dup7\n        /* \"#utility.yul\":19174:19181   */\n      dup9\n        /* \"#utility.yul\":19170:19193   */\n      sub\n        /* \"#utility.yul\":19166:19199   */\n      slt\n        /* \"#utility.yul\":19163:19283   */\n      iszero\n      tag_589\n      jumpi\n        /* \"#utility.yul\":19202:19281   */\n      tag_590\n      tag_328\n      jump\t// in\n    tag_590:\n        /* \"#utility.yul\":19163:19283   */\n    tag_589:\n        /* \"#utility.yul\":19322:19323   */\n      0x00\n        /* \"#utility.yul\":19347:19400   */\n      tag_591\n        /* \"#utility.yul\":19392:19399   */\n      dup9\n        /* \"#utility.yul\":19383:19389   */\n      dup3\n        /* \"#utility.yul\":19372:19381   */\n      dup10\n        /* \"#utility.yul\":19368:19390   */\n      add\n        /* \"#utility.yul\":19347:19400   */\n      tag_333\n      jump\t// in\n    tag_591:\n        /* \"#utility.yul\":19337:19400   */\n      swap6\n      pop\n        /* \"#utility.yul\":19293:19410   */\n      pop\n        /* \"#utility.yul\":19449:19451   */\n      0x20\n        /* \"#utility.yul\":19475:19528   */\n      tag_592\n        /* \"#utility.yul\":19520:19527   */\n      dup9\n        /* \"#utility.yul\":19511:19517   */\n      dup3\n        /* \"#utility.yul\":19500:19509   */\n      dup10\n        /* \"#utility.yul\":19496:19518   */\n      add\n        /* \"#utility.yul\":19475:19528   */\n      tag_333\n      jump\t// in\n    tag_592:\n        /* \"#utility.yul\":19465:19528   */\n      swap5\n      pop\n        /* \"#utility.yul\":19420:19538   */\n      pop\n        /* \"#utility.yul\":19577:19579   */\n      0x40\n        /* \"#utility.yul\":19603:19656   */\n      tag_593\n        /* \"#utility.yul\":19648:19655   */\n      dup9\n        /* \"#utility.yul\":19639:19645   */\n      dup3\n        /* \"#utility.yul\":19628:19637   */\n      dup10\n        /* \"#utility.yul\":19624:19646   */\n      add\n        /* \"#utility.yul\":19603:19656   */\n      tag_336\n      jump\t// in\n    tag_593:\n        /* \"#utility.yul\":19593:19656   */\n      swap4\n      pop\n        /* \"#utility.yul\":19548:19666   */\n      pop\n        /* \"#utility.yul\":19705:19707   */\n      0x60\n        /* \"#utility.yul\":19731:19784   */\n      tag_594\n        /* \"#utility.yul\":19776:19783   */\n      dup9\n        /* \"#utility.yul\":19767:19773   */\n      dup3\n        /* \"#utility.yul\":19756:19765   */\n      dup10\n        /* \"#utility.yul\":19752:19774   */\n      add\n        /* \"#utility.yul\":19731:19784   */\n      tag_336\n      jump\t// in\n    tag_594:\n        /* \"#utility.yul\":19721:19784   */\n      swap3\n      pop\n        /* \"#utility.yul\":19676:19794   */\n      pop\n        /* \"#utility.yul\":19861:19864   */\n      0x80\n        /* \"#utility.yul\":19850:19859   */\n      dup7\n        /* \"#utility.yul\":19846:19865   */\n      add\n        /* \"#utility.yul\":19833:19866   */\n      calldataload\n        /* \"#utility.yul\":19893:19911   */\n      0xffffffffffffffff\n        /* \"#utility.yul\":19885:19891   */\n      dup2\n        /* \"#utility.yul\":19882:19912   */\n      gt\n        /* \"#utility.yul\":19879:19996   */\n      iszero\n      tag_595\n      jumpi\n        /* \"#utility.yul\":19915:19994   */\n      tag_596\n      tag_329\n      jump\t// in\n    tag_596:\n        /* \"#utility.yul\":19879:19996   */\n    tag_595:\n        /* \"#utility.yul\":20020:20082   */\n      tag_597\n        /* \"#utility.yul\":20074:20081   */\n      dup9\n        /* \"#utility.yul\":20065:20071   */\n      dup3\n        /* \"#utility.yul\":20054:20063   */\n      dup10\n        /* \"#utility.yul\":20050:20072   */\n      add\n        /* \"#utility.yul\":20020:20082   */\n      tag_359\n      jump\t// in\n    tag_597:\n        /* \"#utility.yul\":20010:20082   */\n      swap2\n      pop\n        /* \"#utility.yul\":19804:20092   */\n      pop\n        /* \"#utility.yul\":19010:20099   */\n      swap3\n      swap6\n      pop\n      swap3\n      swap6\n      swap1\n      swap4\n      pop\n      jump\t// out\n        /* \"#utility.yul\":20105:20724   */\n    tag_87:\n        /* \"#utility.yul\":20182:20188   */\n      0x00\n        /* \"#utility.yul\":20190:20196   */\n      dup1\n        /* \"#utility.yul\":20198:20204   */\n      0x00\n        /* \"#utility.yul\":20247:20249   */\n      0x60\n        /* \"#utility.yul\":20235:20244   */\n      dup5\n        /* \"#utility.yul\":20226:20233   */\n      dup7\n        /* \"#utility.yul\":20222:20245   */\n      sub\n        /* \"#utility.yul\":20218:20250   */\n      slt\n        /* \"#utility.yul\":20215:20334   */\n      iszero\n      tag_599\n      jumpi\n        /* \"#utility.yul\":20253:20332   */\n      tag_600\n      tag_328\n      jump\t// in\n    tag_600:\n        /* \"#utility.yul\":20215:20334   */\n    tag_599:\n        /* \"#utility.yul\":20373:20374   */\n      0x00\n        /* \"#utility.yul\":20398:20451   */\n      tag_601\n        /* \"#utility.yul\":20443:20450   */\n      dup7\n        /* \"#utility.yul\":20434:20440   */\n      dup3\n        /* \"#utility.yul\":20423:20432   */\n      dup8\n        /* \"#utility.yul\":20419:20441   */\n      add\n        /* \"#utility.yul\":20398:20451   */\n      tag_333\n      jump\t// in\n    tag_601:\n        /* \"#utility.yul\":20388:20451   */\n      swap4\n      pop\n        /* \"#utility.yul\":20344:20461   */\n      pop\n        /* \"#utility.yul\":20500:20502   */\n      0x20\n        /* \"#utility.yul\":20526:20579   */\n      tag_602\n        /* \"#utility.yul\":20571:20578   */\n      dup7\n        /* \"#utility.yul\":20562:20568   */\n      dup3\n        /* \"#utility.yul\":20551:20560   */\n      dup8\n        /* \"#utility.yul\":20547:20569   */\n      add\n        /* \"#utility.yul\":20526:20579   */\n      tag_336\n      jump\t// in\n    tag_602:\n        /* \"#utility.yul\":20516:20579   */\n      swap3\n      pop\n        /* \"#utility.yul\":20471:20589   */\n      pop\n        /* \"#utility.yul\":20628:20630   */\n      0x40\n        /* \"#utility.yul\":20654:20707   */\n      tag_603\n        /* \"#utility.yul\":20699:20706   */\n      dup7\n        /* \"#utility.yul\":20690:20696   */\n      dup3\n        /* \"#utility.yul\":20679:20688   */\n      dup8\n        /* \"#utility.yul\":20675:20697   */\n      add\n        /* \"#utility.yul\":20654:20707   */\n      tag_336\n      jump\t// in\n    tag_603:\n        /* \"#utility.yul\":20644:20707   */\n      swap2\n      pop\n        /* \"#utility.yul\":20599:20717   */\n      pop\n        /* \"#utility.yul\":20105:20724   */\n      swap3\n      pop\n      swap3\n      pop\n      swap3\n      jump\t// out\n        /* \"#utility.yul\":20730:20910   */\n    tag_372:\n        /* \"#utility.yul\":20778:20855   */\n      0x4e487b7100000000000000000000000000000000000000000000000000000000\n        /* \"#utility.yul\":20775:20776   */\n      0x00\n        /* \"#utility.yul\":20768:20856   */\n      mstore\n        /* \"#utility.yul\":20875:20879   */\n      0x22\n        /* \"#utility.yul\":20872:20873   */\n      0x04\n        /* \"#utility.yul\":20865:20880   */\n      mstore\n        /* \"#utility.yul\":20899:20903   */\n      0x24\n        /* \"#utility.yul\":20896:20897   */\n      0x00\n        /* \"#utility.yul\":20889:20904   */\n      revert\n        /* \"#utility.yul\":20916:21236   */\n    tag_97:\n        /* \"#utility.yul\":20960:20966   */\n      0x00\n        /* \"#utility.yul\":20997:20998   */\n      0x02\n        /* \"#utility.yul\":20991:20995   */\n      dup3\n        /* \"#utility.yul\":20987:20999   */\n      div\n        /* \"#utility.yul\":20977:20999   */\n      swap1\n      pop\n        /* \"#utility.yul\":21044:21045   */\n      0x01\n        /* \"#utility.yul\":21038:21042   */\n      dup3\n        /* \"#utility.yul\":21034:21046   */\n      and\n        /* \"#utility.yul\":21065:21083   */\n      dup1\n        /* \"#utility.yul\":21055:21136   */\n      tag_606\n      jumpi\n        /* \"#utility.yul\":21121:21125   */\n      0x7f\n        /* \"#utility.yul\":21113:21119   */\n      dup3\n        /* \"#utility.yul\":21109:21126   */\n      and\n        /* \"#utility.yul\":21099:21126   */\n      swap2\n      pop\n        /* \"#utility.yul\":21055:21136   */\n    tag_606:\n        /* \"#utility.yul\":21183:21185   */\n      0x20\n        /* \"#utility.yul\":21175:21181   */\n      dup3\n        /* \"#utility.yul\":21172:21186   */\n      lt\n        /* \"#utility.yul\":21152:21170   */\n      dup2\n        /* \"#utility.yul\":21149:21187   */\n      sub\n        /* \"#utility.yul\":21146:21230   */\n      tag_607\n      jumpi\n        /* \"#utility.yul\":21202:21220   */\n      tag_608\n      tag_372\n      jump\t// in\n    tag_608:\n        /* \"#utility.yul\":21146:21230   */\n    tag_607:\n        /* \"#utility.yul\":20967:21236   */\n      pop\n        /* \"#utility.yul\":20916:21236   */\n      swap2\n      swap1\n      pop\n      jump\t// out\n        /* \"#utility.yul\":21242:21420   */\n    tag_373:\n        /* \"#utility.yul\":21382:21412   */\n      0x4f6e6c792067616d6520636f6e74726163742063616e2063616c6c2e00000000\n        /* \"#utility.yul\":21378:21379   */\n      0x00\n        /* \"#utility.yul\":21370:21376   */\n      dup3\n        /* \"#utility.yul\":21366:21380   */\n      add\n        /* \"#utility.yul\":21359:21413   */\n      mstore\n        /* \"#utility.yul\":21242:21420   */\n      pop\n      jump\t// out\n        /* \"#utility.yul\":21426:21792   */\n    tag_374:\n        /* \"#utility.yul\":21568:21571   */\n      0x00\n        /* \"#utility.yul\":21589:21656   */\n      tag_611\n        /* \"#utility.yul\":21653:21655   */\n      0x1c\n        /* \"#utility.yul\":21648:21651   */\n      dup4\n        /* \"#utility.yul\":21589:21656   */\n      tag_344\n      jump\t// in\n    tag_611:\n        /* \"#utility.yul\":21582:21656   */\n      swap2\n      pop\n        /* \"#utility.yul\":21665:21758   */\n      tag_612\n        /* \"#utility.yul\":21754:21757   */\n      dup3\n        /* \"#utility.yul\":21665:21758   */\n      tag_373\n      jump\t// in\n    tag_612:\n        /* \"#utility.yul\":21783:21785   */\n      0x20\n        /* \"#utility.yul\":21778:21781   */\n      dup3\n        /* \"#utility.yul\":21774:21786   */\n      add\n        /* \"#utility.yul\":21767:21786   */\n      swap1\n      pop\n        /* \"#utility.yul\":21426:21792   */\n      swap2\n      swap1\n      pop\n      jump\t// out\n        /* \"#utility.yul\":21798:22217   */\n    tag_106:\n        /* \"#utility.yul\":21964:21968   */\n      0x00\n        /* \"#utility.yul\":22002:22004   */\n      0x20\n        /* \"#utility.yul\":21991:22000   */\n      dup3\n        /* \"#utility.yul\":21987:22005   */\n      add\n        /* \"#utility.yul\":21979:22005   */\n      swap1\n      pop\n        /* \"#utility.yul\":22051:22060   */\n      dup2\n        /* \"#utility.yul\":22045:22049   */\n      dup2\n        /* \"#utility.yul\":22041:22061   */\n      sub\n        /* \"#utility.yul\":22037:22038   */\n      0x00\n        /* \"#utility.yul\":22026:22035   */\n      dup4\n        /* \"#utility.yul\":22022:22039   */\n      add\n        /* \"#utility.yul\":22015:22062   */\n      mstore\n        /* \"#utility.yul\":22079:22210   */\n      tag_614\n        /* \"#utility.yul\":22205:22209   */\n      dup2\n        /* \"#utility.yul\":22079:22210   */\n      tag_374\n      jump\t// in\n    tag_614:\n        /* \"#utility.yul\":22071:22210   */\n      swap1\n      pop\n        /* \"#utility.yul\":21798:22217   */\n      swap2\n      swap1\n      pop\n      jump\t// out\n        /* \"#utility.yul\":22223:22341   */\n    tag_375:\n        /* \"#utility.yul\":22310:22334   */\n      tag_616\n        /* \"#utility.yul\":22328:22333   */\n      dup2\n        /* \"#utility.yul\":22310:22334   */\n      tag_331\n      jump\t// in\n    tag_616:\n        /* \"#utility.yul\":22305:22308   */\n      dup3\n        /* \"#utility.yul\":22298:22335   */\n      mstore\n        /* \"#utility.yul\":22223:22341   */\n      pop\n      pop\n      jump\t// out\n        /* \"#utility.yul\":22347:22679   */\n    tag_117:\n        /* \"#utility.yul\":22468:22472   */\n      0x00\n        /* \"#utility.yul\":22506:22508   */\n      0x40\n        /* \"#utility.yul\":22495:22504   */\n      dup3\n        /* \"#utility.yul\":22491:22509   */\n      add\n        /* \"#utility.yul\":22483:22509   */\n      swap1\n      pop\n        /* \"#utility.yul\":22519:22590   */\n      tag_618\n        /* \"#utility.yul\":22587:22588   */\n      0x00\n        /* \"#utility.yul\":22576:22585   */\n      dup4\n        /* \"#utility.yul\":22572:22589   */\n      add\n        /* \"#utility.yul\":22563:22569   */\n      dup6\n        /* \"#utility.yul\":22519:22590   */\n      tag_375\n      jump\t// in\n    tag_618:\n        /* \"#utility.yul\":22600:22672   */\n      tag_619\n        /* \"#utility.yul\":22668:22670   */\n      0x20\n        /* \"#utility.yul\":22657:22666   */\n      dup4\n        /* \"#utility.yul\":22653:22671   */\n      add\n        /* \"#utility.yul\":22644:22650   */\n      dup5\n        /* \"#utility.yul\":22600:22672   */\n      tag_375\n      jump\t// in\n    tag_619:\n        /* \"#utility.yul\":22347:22679   */\n      swap4\n      swap3\n      pop\n      pop\n      pop\n      jump\t// out\n        /* \"#utility.yul\":22685:23017   */\n    tag_123:\n        /* \"#utility.yul\":22806:22810   */\n      0x00\n        /* \"#utility.yul\":22844:22846   */\n      0x40\n        /* \"#utility.yul\":22833:22842   */\n      dup3\n        /* \"#utility.yul\":22829:22847   */\n      add\n        /* \"#utility.yul\":22821:22847   */\n      swap1\n      pop\n        /* \"#utility.yul\":22857:22928   */\n      tag_621\n        /* \"#utility.yul\":22925:22926   */\n      0x00\n        /* \"#utility.yul\":22914:22923   */\n      dup4\n        /* \"#utility.yul\":22910:22927   */\n      add\n        /* \"#utility.yul\":22901:22907   */\n      dup6\n        /* \"#utility.yul\":22857:22928   */\n      tag_337\n      jump\t// in\n    tag_621:\n        /* \"#utility.yul\":22938:23010   */\n      tag_622\n        /* \"#utility.yul\":23006:23008   */\n      0x20\n        /* \"#utility.yul\":22995:23004   */\n      dup4\n        /* \"#utility.yul\":22991:23009   */\n      add\n        /* \"#utility.yul\":22982:22988   */\n      dup5\n        /* \"#utility.yul\":22938:23010   */\n      tag_337\n      jump\t// in\n    tag_622:\n        /* \"#utility.yul\":22685:23017   */\n      swap4\n      swap3\n      pop\n      pop\n      pop\n      jump\t// out\n        /* \"#utility.yul\":23023:23203   */\n    tag_138:\n        /* \"#utility.yul\":23071:23148   */\n      0x4e487b7100000000000000000000000000000000000000000000000000000000\n        /* \"#utility.yul\":23068:23069   */\n      0x00\n        /* \"#utility.yul\":23061:23149   */\n      mstore\n        /* \"#utility.yul\":23168:23172   */\n      0x32\n        /* \"#utility.yul\":23165:23166   */\n      0x04\n        /* \"#utility.yul\":23158:23173   */\n      mstore\n        /* \"#utility.yul\":23192:23196   */\n      0x24\n        /* \"#utility.yul\":23189:23190   */\n      0x00\n        /* \"#utility.yul\":23182:23197   */\n      revert\n        /* \"#utility.yul\":23209:23389   */\n    tag_376:\n        /* \"#utility.yul\":23257:23334   */\n      0x4e487b7100000000000000000000000000000000000000000000000000000000\n        /* \"#utility.yul\":23254:23255   */\n      0x00\n        /* \"#utility.yul\":23247:23335   */\n      mstore\n        /* \"#utility.yul\":23354:23358   */\n      0x11\n        /* \"#utility.yul\":23351:23352   */\n      0x04\n        /* \"#utility.yul\":23344:23359   */\n      mstore\n        /* \"#utility.yul\":23378:23382   */\n      0x24\n        /* \"#utility.yul\":23375:23376   */\n      0x00\n        /* \"#utility.yul\":23368:23383   */\n      revert\n        /* \"#utility.yul\":23395:23628   */\n    tag_140:\n        /* \"#utility.yul\":23434:23437   */\n      0x00\n        /* \"#utility.yul\":23457:23481   */\n      tag_626\n        /* \"#utility.yul\":23475:23480   */\n      dup3\n        /* \"#utility.yul\":23457:23481   */\n      tag_334\n      jump\t// in\n    tag_626:\n        /* \"#utility.yul\":23448:23481   */\n      swap2\n      pop\n        /* \"#utility.yul\":23503:23569   */\n      0xffffffffffffffffffffffffffffffffffffffffffffffffffffffffffffffff\n        /* \"#utility.yul\":23496:23501   */\n      dup3\n        /* \"#utility.yul\":23493:23570   */\n      sub\n        /* \"#utility.yul\":23490:23593   */\n      tag_627\n      jumpi\n        /* \"#utility.yul\":23573:23591   */\n      tag_628\n      tag_376\n      jump\t// in\n    tag_628:\n        /* \"#utility.yul\":23490:23593   */\n    tag_627:\n        /* \"#utility.yul\":23620:23621   */\n      0x01\n        /* \"#utility.yul\":23613:23618   */\n      dup3\n        /* \"#utility.yul\":23609:23622   */\n      add\n        /* \"#utility.yul\":23602:23622   */\n      swap1\n      pop\n        /* \"#utility.yul\":23395:23628   */\n      swap2\n      swap1\n      pop\n      jump\t// out\n        /* \"#utility.yul\":23634:23856   */\n    tag_187:\n        /* \"#utility.yul\":23727:23731   */\n      0x00\n        /* \"#utility.yul\":23765:23767   */\n      0x20\n        /* \"#utility.yul\":23754:23763   */\n      dup3\n        /* \"#utility.yul\":23750:23768   */\n      add\n        /* \"#utility.yul\":23742:23768   */\n      swap1\n      pop\n        /* \"#utility.yul\":23778:23849   */\n      tag_630\n        /* \"#utility.yul\":23846:23847   */\n      0x00\n        /* \"#utility.yul\":23835:23844   */\n      dup4\n        /* \"#utility.yul\":23831:23848   */\n      add\n        /* \"#utility.yul\":23822:23828   */\n      dup5\n        /* \"#utility.yul\":23778:23849   */\n      tag_375\n      jump\t// in\n    tag_630:\n        /* \"#utility.yul\":23634:23856   */\n      swap3\n      swap2\n      pop\n      pop\n      jump\t// out\n        /* \"#utility.yul\":23862:23960   */\n    tag_377:\n        /* \"#utility.yul\":23913:23919   */\n      0x00\n        /* \"#utility.yul\":23947:23952   */\n      dup2\n        /* \"#utility.yul\":23941:23953   */\n      mload\n        /* \"#utility.yul\":23931:23953   */\n      swap1\n      pop\n        /* \"#utility.yul\":23862:23960   */\n      swap2\n      swap1\n      pop\n      jump\t// out\n        /* \"#utility.yul\":23966:24134   */\n    tag_378:\n        /* \"#utility.yul\":24049:24060   */\n      0x00\n        /* \"#utility.yul\":24083:24089   */\n      dup3\n        /* \"#utility.yul\":24078:24081   */\n      dup3\n        /* \"#utility.yul\":24071:24090   */\n      mstore\n        /* \"#utility.yul\":24123:24127   */\n      0x20\n        /* \"#utility.yul\":24118:24121   */\n      dup3\n        /* \"#utility.yul\":24114:24128   */\n      add\n        /* \"#utility.yul\":24099:24128   */\n      swap1\n      pop\n        /* \"#utility.yul\":23966:24134   */\n      swap3\n      swap2\n      pop\n      pop\n      jump\t// out\n        /* \"#utility.yul\":24140:24513   */\n    tag_379:\n        /* \"#utility.yul\":24226:24229   */\n      0x00\n        /* \"#utility.yul\":24254:24292   */\n      tag_634\n        /* \"#utility.yul\":24286:24291   */\n      dup3\n        /* \"#utility.yul\":24254:24292   */\n      tag_377\n      jump\t// in\n    tag_634:\n        /* \"#utility.yul\":24308:24378   */\n      tag_635\n        /* \"#utility.yul\":24371:24377   */\n      dup2\n        /* \"#utility.yul\":24366:24369   */\n      dup6\n        /* \"#utility.yul\":24308:24378   */\n      tag_378\n      jump\t// in\n    tag_635:\n        /* \"#utility.yul\":24301:24378   */\n      swap4\n      pop\n        /* \"#utility.yul\":24387:24452   */\n      tag_636\n        /* \"#utility.yul\":24445:24451   */\n      dup2\n        /* \"#utility.yul\":24440:24443   */\n      dup6\n        /* \"#utility.yul\":24433:24437   */\n      0x20\n        /* \"#utility.yul\":24426:24431   */\n      dup7\n        /* \"#utility.yul\":24422:24438   */\n      add\n        /* \"#utility.yul\":24387:24452   */\n      tag_345\n      jump\t// in\n    tag_636:\n        /* \"#utility.yul\":24477:24506   */\n      tag_637\n        /* \"#utility.yul\":24499:24505   */\n      dup2\n        /* \"#utility.yul\":24477:24506   */\n      tag_346\n      jump\t// in\n    tag_637:\n        /* \"#utility.yul\":24472:24475   */\n      dup5\n        /* \"#utility.yul\":24468:24507   */\n      add\n        /* \"#utility.yul\":24461:24507   */\n      swap2\n      pop\n        /* \"#utility.yul\":24230:24513   */\n      pop\n        /* \"#utility.yul\":24140:24513   */\n      swap3\n      swap2\n      pop\n      pop\n      jump\t// out\n        /* \"#utility.yul\":24519:25270   */\n    tag_245:\n        /* \"#utility.yul\":24742:24746   */\n      0x00\n        /* \"#utility.yul\":24780:24783   */\n      0xa0\n        /* \"#utility.yul\":24769:24778   */\n      dup3\n        /* \"#utility.yul\":24765:24784   */\n      add\n        /* \"#utility.yul\":24757:24784   */\n      swap1\n      pop\n        /* \"#utility.yul\":24794:24865   */\n      tag_639\n        /* \"#utility.yul\":24862:24863   */\n      0x00\n        /* \"#utility.yul\":24851:24860   */\n      dup4\n        /* \"#utility.yul\":24847:24864   */\n      add\n        /* \"#utility.yul\":24838:24844   */\n      dup9\n        /* \"#utility.yul\":24794:24865   */\n      tag_375\n      jump\t// in\n    tag_639:\n        /* \"#utility.yul\":24875:24947   */\n      tag_640\n        /* \"#utility.yul\":24943:24945   */\n      0x20\n        /* \"#utility.yul\":24932:24941   */\n      dup4\n        /* \"#utility.yul\":24928:24946   */\n      add\n        /* \"#utility.yul\":24919:24925   */\n      dup8\n        /* \"#utility.yul\":24875:24947   */\n      tag_375\n      jump\t// in\n    tag_640:\n        /* \"#utility.yul\":24957:25029   */\n      tag_641\n        /* \"#utility.yul\":25025:25027   */\n      0x40\n        /* \"#utility.yul\":25014:25023   */\n      dup4\n        /* \"#utility.yul\":25010:25028   */\n      add\n        /* \"#utility.yul\":25001:25007   */\n      dup7\n        /* \"#utility.yul\":24957:25029   */\n      tag_337\n      jump\t// in\n    tag_641:\n        /* \"#utility.yul\":25039:25111   */\n      tag_642\n        /* \"#utility.yul\":25107:25109   */\n      0x60\n        /* \"#utility.yul\":25096:25105   */\n      dup4\n        /* \"#utility.yul\":25092:25110   */\n      add\n        /* \"#utility.yul\":25083:25089   */\n      dup6\n        /* \"#utility.yul\":25039:25111   */\n      tag_337\n      jump\t// in\n    tag_642:\n        /* \"#utility.yul\":25159:25168   */\n      dup2\n        /* \"#utility.yul\":25153:25157   */\n      dup2\n        /* \"#utility.yul\":25149:25169   */\n      sub\n        /* \"#utility.yul\":25143:25146   */\n      0x80\n        /* \"#utility.yul\":25132:25141   */\n      dup4\n        /* \"#utility.yul\":25128:25147   */\n      add\n        /* \"#utility.yul\":25121:25170   */\n      mstore\n        /* \"#utility.yul\":25187:25263   */\n      tag_643\n        /* \"#utility.yul\":25258:25262   */\n      dup2\n        /* \"#utility.yul\":25249:25255   */\n      dup5\n        /* \"#utility.yul\":25187:25263   */\n      tag_379\n      jump\t// in\n    tag_643:\n        /* \"#utility.yul\":25179:25263   */\n      swap1\n      pop\n        /* \"#utility.yul\":24519:25270   */\n      swap7\n      swap6\n      pop\n      pop\n      pop\n      pop\n      pop\n      pop\n      jump\t// out\n        /* \"#utility.yul\":25276:25417   */\n    tag_380:\n        /* \"#utility.yul\":25332:25337   */\n      0x00\n        /* \"#utility.yul\":25363:25369   */\n      dup2\n        /* \"#utility.yul\":25357:25370   */\n      mload\n        /* \"#utility.yul\":25348:25370   */\n      swap1\n      pop\n        /* \"#utility.yul\":25379:25411   */\n      tag_645\n        /* \"#utility.yul\":25405:25410   */\n      dup2\n        /* \"#utility.yul\":25379:25411   */\n      tag_339\n      jump\t// in\n    tag_645:\n        /* \"#utility.yul\":25276:25417   */\n      swap3\n      swap2\n      pop\n      pop\n      jump\t// out\n        /* \"#utility.yul\":25423:25772   */\n    tag_248:\n        /* \"#utility.yul\":25492:25498   */\n      0x00\n        /* \"#utility.yul\":25541:25543   */\n      0x20\n        /* \"#utility.yul\":25529:25538   */\n      dup3\n        /* \"#utility.yul\":25520:25527   */\n      dup5\n        /* \"#utility.yul\":25516:25539   */\n      sub\n        /* \"#utility.yul\":25512:25544   */\n      slt\n        /* \"#utility.yul\":25509:25628   */\n      iszero\n      tag_647\n      jumpi\n        /* \"#utility.yul\":25547:25626   */\n      tag_648\n      tag_328\n      jump\t// in\n    tag_648:\n        /* \"#utility.yul\":25509:25628   */\n    tag_647:\n        /* \"#utility.yul\":25667:25668   */\n      0x00\n        /* \"#utility.yul\":25692:25755   */\n      tag_649\n        /* \"#utility.yul\":25747:25754   */\n      dup5\n        /* \"#utility.yul\":25738:25744   */\n      dup3\n        /* \"#utility.yul\":25727:25736   */\n      dup6\n        /* \"#utility.yul\":25723:25745   */\n      add\n        /* \"#utility.yul\":25692:25755   */\n      tag_380\n      jump\t// in\n    tag_649:\n        /* \"#utility.yul\":25682:25755   */\n      swap2\n      pop\n        /* \"#utility.yul\":25638:25765   */\n      pop\n        /* \"#utility.yul\":25423:25772   */\n      swap3\n      swap2\n      pop\n      pop\n      jump\t// out\n        /* \"#utility.yul\":25778:26831   */\n    tag_264:\n        /* \"#utility.yul\":26101:26105   */\n      0x00\n        /* \"#utility.yul\":26139:26142   */\n      0xa0\n        /* \"#utility.yul\":26128:26137   */\n      dup3\n        /* \"#utility.yul\":26124:26143   */\n      add\n        /* \"#utility.yul\":26116:26143   */\n      swap1\n      pop\n        /* \"#utility.yul\":26153:26224   */\n      tag_651\n        /* \"#utility.yul\":26221:26222   */\n      0x00\n        /* \"#utility.yul\":26210:26219   */\n      dup4\n        /* \"#utility.yul\":26206:26223   */\n      add\n        /* \"#utility.yul\":26197:26203   */\n      dup9\n        /* \"#utility.yul\":26153:26224   */\n      tag_375\n      jump\t// in\n    tag_651:\n        /* \"#utility.yul\":26234:26306   */\n      tag_652\n        /* \"#utility.yul\":26302:26304   */\n      0x20\n        /* \"#utility.yul\":26291:26300   */\n      dup4\n        /* \"#utility.yul\":26287:26305   */\n      add\n        /* \"#utility.yul\":26278:26284   */\n      dup8\n        /* \"#utility.yul\":26234:26306   */\n      tag_375\n      jump\t// in\n    tag_652:\n        /* \"#utility.yul\":26353:26362   */\n      dup2\n        /* \"#utility.yul\":26347:26351   */\n      dup2\n        /* \"#utility.yul\":26343:26363   */\n      sub\n        /* \"#utility.yul\":26338:26340   */\n      0x40\n        /* \"#utility.yul\":26327:26336   */\n      dup4\n        /* \"#utility.yul\":26323:26341   */\n      add\n        /* \"#utility.yul\":26316:26364   */\n      mstore\n        /* \"#utility.yul\":26381:26489   */\n      tag_653\n        /* \"#utility.yul\":26484:26488   */\n      dup2\n        /* \"#utility.yul\":26475:26481   */\n      dup7\n        /* \"#utility.yul\":26381:26489   */\n      tag_369\n      jump\t// in\n    tag_653:\n        /* \"#utility.yul\":26373:26489   */\n      swap1\n      pop\n        /* \"#utility.yul\":26536:26545   */\n      dup2\n        /* \"#utility.yul\":26530:26534   */\n      dup2\n        /* \"#utility.yul\":26526:26546   */\n      sub\n        /* \"#utility.yul\":26521:26523   */\n      0x60\n        /* \"#utility.yul\":26510:26519   */\n      dup4\n        /* \"#utility.yul\":26506:26524   */\n      add\n        /* \"#utility.yul\":26499:26547   */\n      mstore\n        /* \"#utility.yul\":26564:26672   */\n      tag_654\n        /* \"#utility.yul\":26667:26671   */\n      dup2\n        /* \"#utility.yul\":26658:26664   */\n      dup6\n        /* \"#utility.yul\":26564:26672   */\n      tag_369\n      jump\t// in\n    tag_654:\n        /* \"#utility.yul\":26556:26672   */\n      swap1\n      pop\n        /* \"#utility.yul\":26720:26729   */\n      dup2\n        /* \"#utility.yul\":26714:26718   */\n      dup2\n        /* \"#utility.yul\":26710:26730   */\n      sub\n        /* \"#utility.yul\":26704:26707   */\n      0x80\n        /* \"#utility.yul\":26693:26702   */\n      dup4\n        /* \"#utility.yul\":26689:26708   */\n      add\n        /* \"#utility.yul\":26682:26731   */\n      mstore\n        /* \"#utility.yul\":26748:26824   */\n      tag_655\n        /* \"#utility.yul\":26819:26823   */\n      dup2\n        /* \"#utility.yul\":26810:26816   */\n      dup5\n        /* \"#utility.yul\":26748:26824   */\n      tag_379\n      jump\t// in\n    tag_655:\n        /* \"#utility.yul\":26740:26824   */\n      swap1\n      pop\n        /* \"#utility.yul\":25778:26831   */\n      swap7\n      swap6\n      pop\n      pop\n      pop\n      pop\n      pop\n      pop\n      jump\t// out\n        /* \"#utility.yul\":26837:27028   */\n    tag_291:\n        /* \"#utility.yul\":26877:26880   */\n      0x00\n        /* \"#utility.yul\":26896:26916   */\n      tag_657\n        /* \"#utility.yul\":26914:26915   */\n      dup3\n        /* \"#utility.yul\":26896:26916   */\n      tag_334\n      jump\t// in\n    tag_657:\n        /* \"#utility.yul\":26891:26916   */\n      swap2\n      pop\n        /* \"#utility.yul\":26930:26950   */\n      tag_658\n        /* \"#utility.yul\":26948:26949   */\n      dup4\n        /* \"#utility.yul\":26930:26950   */\n      tag_334\n      jump\t// in\n    tag_658:\n        /* \"#utility.yul\":26925:26950   */\n      swap3\n      pop\n        /* \"#utility.yul\":26973:26974   */\n      dup3\n        /* \"#utility.yul\":26970:26971   */\n      dup3\n        /* \"#utility.yul\":26966:26975   */\n      add\n        /* \"#utility.yul\":26959:26975   */\n      swap1\n      pop\n        /* \"#utility.yul\":26994:26997   */\n      dup1\n        /* \"#utility.yul\":26991:26992   */\n      dup3\n        /* \"#utility.yul\":26988:26998   */\n      gt\n        /* \"#utility.yul\":26985:27021   */\n      iszero\n      tag_659\n      jumpi\n        /* \"#utility.yul\":27001:27019   */\n      tag_660\n      tag_376\n      jump\t// in\n    tag_660:\n        /* \"#utility.yul\":26985:27021   */\n    tag_659:\n        /* \"#utility.yul\":26837:27028   */\n      swap3\n      swap2\n      pop\n      pop\n      jump\t// out\n        /* \"#utility.yul\":27034:27587   */\n    tag_316:\n        /* \"#utility.yul\":27211:27215   */\n      0x00\n        /* \"#utility.yul\":27249:27252   */\n      0x80\n        /* \"#utility.yul\":27238:27247   */\n      dup3\n        /* \"#utility.yul\":27234:27253   */\n      add\n        /* \"#utility.yul\":27226:27253   */\n      swap1\n      pop\n        /* \"#utility.yul\":27263:27334   */\n      tag_662\n        /* \"#utility.yul\":27331:27332   */\n      0x00\n        /* \"#utility.yul\":27320:27329   */\n      dup4\n        /* \"#utility.yul\":27316:27333   */\n      add\n        /* \"#utility.yul\":27307:27313   */\n      dup8\n        /* \"#utility.yul\":27263:27334   */\n      tag_375\n      jump\t// in\n    tag_662:\n        /* \"#utility.yul\":27344:27416   */\n      tag_663\n        /* \"#utility.yul\":27412:27414   */\n      0x20\n        /* \"#utility.yul\":27401:27410   */\n      dup4\n        /* \"#utility.yul\":27397:27415   */\n      add\n        /* \"#utility.yul\":27388:27394   */\n      dup7\n        /* \"#utility.yul\":27344:27416   */\n      tag_337\n      jump\t// in\n    tag_663:\n        /* \"#utility.yul\":27426:27498   */\n      tag_664\n        /* \"#utility.yul\":27494:27496   */\n      0x40\n        /* \"#utility.yul\":27483:27492   */\n      dup4\n        /* \"#utility.yul\":27479:27497   */\n      add\n        /* \"#utility.yul\":27470:27476   */\n      dup6\n        /* \"#utility.yul\":27426:27498   */\n      tag_337\n      jump\t// in\n    tag_664:\n        /* \"#utility.yul\":27508:27580   */\n      tag_665\n        /* \"#utility.yul\":27576:27578   */\n      0x60\n        /* \"#utility.yul\":27565:27574   */\n      dup4\n        /* \"#utility.yul\":27561:27579   */\n      add\n        /* \"#utility.yul\":27552:27558   */\n      dup5\n        /* \"#utility.yul\":27508:27580   */\n      tag_337\n      jump\t// in\n    tag_665:\n        /* \"#utility.yul\":27034:27587   */\n      swap6\n      swap5\n      pop\n      pop\n      pop\n      pop\n      pop\n      jump\t// out\n        /* \"#utility.yul\":27593:28227   */\n    tag_326:\n        /* \"#utility.yul\":27814:27818   */\n      0x00\n        /* \"#utility.yul\":27852:27854   */\n      0x40\n        /* \"#utility.yul\":27841:27850   */\n      dup3\n        /* \"#utility.yul\":27837:27855   */\n      add\n        /* \"#utility.yul\":27829:27855   */\n      swap1\n      pop\n        /* \"#utility.yul\":27901:27910   */\n      dup2\n        /* \"#utility.yul\":27895:27899   */\n      dup2\n        /* \"#utility.yul\":27891:27911   */\n      sub\n        /* \"#utility.yul\":27887:27888   */\n      0x00\n        /* \"#utility.yul\":27876:27885   */\n      dup4\n        /* \"#utility.yul\":27872:27889   */\n      add\n        /* \"#utility.yul\":27865:27912   */\n      mstore\n        /* \"#utility.yul\":27929:28037   */\n      tag_667\n        /* \"#utility.yul\":28032:28036   */\n      dup2\n        /* \"#utility.yul\":28023:28029   */\n      dup6\n        /* \"#utility.yul\":27929:28037   */\n      tag_369\n      jump\t// in\n    tag_667:\n        /* \"#utility.yul\":27921:28037   */\n      swap1\n      pop\n        /* \"#utility.yul\":28084:28093   */\n      dup2\n        /* \"#utility.yul\":28078:28082   */\n      dup2\n        /* \"#utility.yul\":28074:28094   */\n      sub\n        /* \"#utility.yul\":28069:28071   */\n      0x20\n        /* \"#utility.yul\":28058:28067   */\n      dup4\n        /* \"#utility.yul\":28054:28072   */\n      add\n        /* \"#utility.yul\":28047:28095   */\n      mstore\n        /* \"#utility.yul\":28112:28220   */\n      tag_668\n        /* \"#utility.yul\":28215:28219   */\n      dup2\n        /* \"#utility.yul\":28206:28212   */\n      dup5\n        /* \"#utility.yul\":28112:28220   */\n      tag_369\n      jump\t// in\n    tag_668:\n        /* \"#utility.yul\":28104:28220   */\n      swap1\n      pop\n        /* \"#utility.yul\":27593:28227   */\n      swap4\n      swap3\n      pop\n      pop\n      pop\n      jump\t// out\n\n    auxdata: 0xa26469706673582212208758f283f5b2a1538ffdd8d6bd6203a646ee510cc9cd8e4aa7ba217de96a48b764736f6c63430008140033\n}\n",
				"bytecode": {
					"linkReferences": {},
					"object": "60a060405234801562000010575f80fd5b5060405162002dff38038062002dff833981810160405281019062000036919062000133565b6040518060400160405280602081526020017f68747470733a2f2f736f6d2e657465726e697461732e67616d65732f6a736f6e8152506200007d81620000b960201b60201c565b508073ffffffffffffffffffffffffffffffffffffffff1660808173ffffffffffffffffffffffffffffffffffffffff168152505050620004ab565b8060029081620000ca9190620003c7565b5050565b5f80fd5b5f73ffffffffffffffffffffffffffffffffffffffff82169050919050565b5f620000fd82620000d2565b9050919050565b6200010f81620000f1565b81146200011a575f80fd5b50565b5f815190506200012d8162000104565b92915050565b5f602082840312156200014b576200014a620000ce565b5b5f6200015a848285016200011d565b91505092915050565b5f81519050919050565b7f4e487b71000000000000000000000000000000000000000000000000000000005f52604160045260245ffd5b7f4e487b71000000000000000000000000000000000000000000000000000000005f52602260045260245ffd5b5f6002820490506001821680620001df57607f821691505b602082108103620001f557620001f46200019a565b5b50919050565b5f819050815f5260205f209050919050565b5f6020601f8301049050919050565b5f82821b905092915050565b5f60088302620002597fffffffffffffffffffffffffffffffffffffffffffffffffffffffffffffffff826200021c565b6200026586836200021c565b95508019841693508086168417925050509392505050565b5f819050919050565b5f819050919050565b5f620002af620002a9620002a3846200027d565b62000286565b6200027d565b9050919050565b5f819050919050565b620002ca836200028f565b620002e2620002d982620002b6565b84845462000228565b825550505050565b5f90565b620002f8620002ea565b62000305818484620002bf565b505050565b5b818110156200032c57620003205f82620002ee565b6001810190506200030b565b5050565b601f8211156200037b576200034581620001fb565b62000350846200020d565b8101602085101562000360578190505b620003786200036f856200020d565b8301826200030a565b50505b505050565b5f82821c905092915050565b5f6200039d5f198460080262000380565b1980831691505092915050565b5f620003b783836200038c565b9150826002028217905092915050565b620003d28262000163565b67ffffffffffffffff811115620003ee57620003ed6200016d565b5b620003fa8254620001c7565b6200040782828562000330565b5f60209050601f8311600181146200043d575f841562000428578287015190505b620004348582620003aa565b865550620004a3565b601f1984166200044d86620001fb565b5f5b8281101562000476578489015182556001820191506020850194506020810190506200044f565b8683101562000496578489015162000492601f8916826200038c565b8355505b6001600288020188555050505b505050505050565b608051612934620004cb5f395f81816104fb015261080e01526129345ff3fe608060405234801561000f575f80fd5b50600436106100f2575f3560e01c80634f558e7911610095578063bd85b03911610064578063bd85b03914610290578063e985e9c5146102c0578063f242432a146102f0578063f5298aca1461030c576100f2565b80634f558e791461020c5780636b20c4541461023c578063731133e914610258578063a22cb46514610274576100f2565b806318160ddd116100d157806318160ddd146101865780631f7fdffa146101a45780632eb2c2d6146101c05780634e1273f4146101dc576100f2565b8062fdd58e146100f657806301ffc9a7146101265780630e89341c14610156575b5f80fd5b610110600480360381019061010b9190611b29565b610328565b60405161011d9190611b76565b60405180910390f35b610140600480360381019061013b9190611be4565b61037d565b60405161014d9190611c29565b60405180910390f35b610170600480360381019061016b9190611c42565b61045e565b60405161017d9190611cf7565b60405180910390f35b61018e6104f0565b60405161019b9190611b76565b60405180910390f35b6101be60048036038101906101b99190611f07565b6104f9565b005b6101da60048036038101906101d59190611fbf565b610599565b005b6101f660048036038101906101f1919061214a565b610640565b6040516102039190612277565b60405180910390f35b61022660048036038101906102219190611c42565b61074d565b6040516102339190611c29565b60405180910390f35b61025660048036038101906102519190612297565b610760565b005b610272600480360381019061026d919061231f565b61080c565b005b61028e600480360381019061028991906123c9565b6108ac565b005b6102aa60048036038101906102a59190611c42565b6108c2565b6040516102b79190611b76565b60405180910390f35b6102da60048036038101906102d59190612407565b6108dc565b6040516102e79190611c29565b60405180910390f35b61030a60048036038101906103059190612445565b61096a565b005b610326600480360381019061032191906124d8565b610a11565b005b5f805f8381526020019081526020015f205f8473ffffffffffffffffffffffffffffffffffffffff1673ffffffffffffffffffffffffffffffffffffffff1681526020019081526020015f2054905092915050565b5f7fd9b67a26000000000000000000000000000000000000000000000000000000007bffffffffffffffffffffffffffffffffffffffffffffffffffffffff1916827bffffffffffffffffffffffffffffffffffffffffffffffffffffffff1916148061044757507f0e89341c000000000000000000000000000000000000000000000000000000007bffffffffffffffffffffffffffffffffffffffffffffffffffffffff1916827bffffffffffffffffffffffffffffffffffffffffffffffffffffffff1916145b80610457575061045682610abd565b5b9050919050565b60606002805461046d90612555565b80601f016020809104026020016040519081016040528092919081815260200182805461049990612555565b80156104e45780601f106104bb576101008083540402835291602001916104e4565b820191905f5260205f20905b8154815290600101906020018083116104c757829003601f168201915b50505050509050919050565b5f600454905090565b7f000000000000000000000000000000000000000000000000000000000000000073ffffffffffffffffffffffffffffffffffffffff163373ffffffffffffffffffffffffffffffffffffffff1614610587576040517f08c379a000000000000000000000000000000000000000000000000000000000815260040161057e906125cf565b60405180910390fd5b61059384848484610b26565b50505050565b5f6105a2610ba9565b90508073ffffffffffffffffffffffffffffffffffffffff168673ffffffffffffffffffffffffffffffffffffffff16141580156105e757506105e586826108dc565b155b1561062b5780866040517fe237d9220000000000000000000000000000000000000000000000000000000081526004016106229291906125fc565b60405180910390fd5b6106388686868686610bb0565b505050505050565b6060815183511461068c57815183516040517f5b059991000000000000000000000000000000000000000000000000000000008152600401610683929190612623565b60405180910390fd5b5f835167ffffffffffffffff8111156106a8576106a7611d1b565b5b6040519080825280602002602001820160405280156106d65781602001602082028036833780820191505090505b5090505f5b8451811015610742576107126106fa8287610ca490919063ffffffff16565b61070d8387610cb790919063ffffffff16565b610328565b8282815181106107255761072461264a565b5b6020026020010181815250508061073b906126a4565b90506106db565b508091505092915050565b5f80610758836108c2565b119050919050565b610768610ba9565b73ffffffffffffffffffffffffffffffffffffffff168373ffffffffffffffffffffffffffffffffffffffff16141580156107b157506107af836107aa610ba9565b6108dc565b155b156107fc576107be610ba9565b836040517fe237d9220000000000000000000000000000000000000000000000000000000081526004016107f39291906125fc565b60405180910390fd5b610807838383610cca565b505050565b7f000000000000000000000000000000000000000000000000000000000000000073ffffffffffffffffffffffffffffffffffffffff163373ffffffffffffffffffffffffffffffffffffffff161461089a576040517f08c379a0000000000000000000000000000000000000000000000000000000008152600401610891906125cf565b60405180910390fd5b6108a684848484610d5a565b50505050565b6108be6108b7610ba9565b8383610def565b5050565b5f60035f8381526020019081526020015f20549050919050565b5f60015f8473ffffffffffffffffffffffffffffffffffffffff1673ffffffffffffffffffffffffffffffffffffffff1681526020019081526020015f205f8373ffffffffffffffffffffffffffffffffffffffff1673ffffffffffffffffffffffffffffffffffffffff1681526020019081526020015f205f9054906101000a900460ff16905092915050565b5f610973610ba9565b90508073ffffffffffffffffffffffffffffffffffffffff168673ffffffffffffffffffffffffffffffffffffffff16141580156109b857506109b686826108dc565b155b156109fc5780866040517fe237d9220000000000000000000000000000000000000000000000000000000081526004016109f39291906125fc565b60405180910390fd5b610a098686868686610f58565b505050505050565b610a19610ba9565b73ffffffffffffffffffffffffffffffffffffffff168373ffffffffffffffffffffffffffffffffffffffff1614158015610a625750610a6083610a5b610ba9565b6108dc565b155b15610aad57610a6f610ba9565b836040517fe237d922000000000000000000000000000000000000000000000000000000008152600401610aa49291906125fc565b60405180910390fd5b610ab883838361105e565b505050565b5f7f01ffc9a7000000000000000000000000000000000000000000000000000000007bffffffffffffffffffffffffffffffffffffffffffffffffffffffff1916827bffffffffffffffffffffffffffffffffffffffffffffffffffffffff1916149050919050565b5f73ffffffffffffffffffffffffffffffffffffffff168473ffffffffffffffffffffffffffffffffffffffff1603610b96575f6040517f57f447ce000000000000000000000000000000000000000000000000000000008152600401610b8d91906126eb565b60405180910390fd5b610ba35f85858585611100565b50505050565b5f33905090565b5f73ffffffffffffffffffffffffffffffffffffffff168473ffffffffffffffffffffffffffffffffffffffff1603610c20575f6040517f57f447ce000000000000000000000000000000000000000000000000000000008152600401610c1791906126eb565b60405180910390fd5b5f73ffffffffffffffffffffffffffffffffffffffff168573ffffffffffffffffffffffffffffffffffffffff1603610c90575f6040517f01a83514000000000000000000000000000000000000000000000000000000008152600401610c8791906126eb565b60405180910390fd5b610c9d8585858585611100565b5050505050565b5f60208202602084010151905092915050565b5f60208202602084010151905092915050565b5f73ffffffffffffffffffffffffffffffffffffffff168373ffffffffffffffffffffffffffffffffffffffff1603610d3a575f6040517f01a83514000000000000000000000000000000000000000000000000000000008152600401610d3191906126eb565b60405180910390fd5b610d55835f848460405180602001604052805f815250611100565b505050565b5f73ffffffffffffffffffffffffffffffffffffffff168473ffffffffffffffffffffffffffffffffffffffff1603610dca575f6040517f57f447ce000000000000000000000000000000000000000000000000000000008152600401610dc191906126eb565b60405180910390fd5b5f80610dd685856111ac565b91509150610de75f87848487611100565b505050505050565b5f73ffffffffffffffffffffffffffffffffffffffff168273ffffffffffffffffffffffffffffffffffffffff1603610e5f575f6040517fced3e100000000000000000000000000000000000000000000000000000000008152600401610e5691906126eb565b60405180910390fd5b8060015f8573ffffffffffffffffffffffffffffffffffffffff1673ffffffffffffffffffffffffffffffffffffffff1681526020019081526020015f205f8473ffffffffffffffffffffffffffffffffffffffff1673ffffffffffffffffffffffffffffffffffffffff1681526020019081526020015f205f6101000a81548160ff0219169083151502179055508173ffffffffffffffffffffffffffffffffffffffff168373ffffffffffffffffffffffffffffffffffffffff167f17307eab39ab6107e8899845ad3d59bd9653f200f220920489ca2b5937696c3183604051610f4b9190611c29565b60405180910390a3505050565b5f73ffffffffffffffffffffffffffffffffffffffff168473ffffffffffffffffffffffffffffffffffffffff1603610fc8575f6040517f57f447ce000000000000000000000000000000000000000000000000000000008152600401610fbf91906126eb565b60405180910390fd5b5f73ffffffffffffffffffffffffffffffffffffffff168573ffffffffffffffffffffffffffffffffffffffff1603611038575f6040517f01a8351400000000000000000000000000000000000000000000000000000000815260040161102f91906126eb565b60405180910390fd5b5f8061104485856111ac565b915091506110558787848487611100565b50505050505050565b5f73ffffffffffffffffffffffffffffffffffffffff168373ffffffffffffffffffffffffffffffffffffffff16036110ce575f6040517f01a835140000000000000000000000000000000000000000000000000000000081526004016110c591906126eb565b60405180910390fd5b5f806110da84846111ac565b915091506110f9855f848460405180602001604052805f815250611100565b5050505050565b61110c858585856111dc565b5f73ffffffffffffffffffffffffffffffffffffffff168473ffffffffffffffffffffffffffffffffffffffff16146111a5575f611148610ba9565b90506001845103611194575f6111675f86610cb790919063ffffffff16565b90505f61117d5f86610cb790919063ffffffff16565b905061118d8389898585896111ee565b50506111a3565b6111a281878787878761139d565b5b505b5050505050565b60608060405191506001825283602083015260408201905060018152826020820152604081016040529250929050565b6111e88484848461154c565b50505050565b5f8473ffffffffffffffffffffffffffffffffffffffff163b1115611395578373ffffffffffffffffffffffffffffffffffffffff1663f23a6e6187878686866040518663ffffffff1660e01b815260040161124e959493929190612756565b6020604051808303815f875af192505050801561128957506040513d601f19601f8201168201806040525081019061128691906127c2565b60015b61130a573d805f81146112b7576040519150601f19603f3d011682016040523d82523d5f602084013e6112bc565b606091505b505f81510361130257846040517f57f447ce0000000000000000000000000000000000000000000000000000000081526004016112f991906126eb565b60405180910390fd5b805181602001fd5b63f23a6e6160e01b7bffffffffffffffffffffffffffffffffffffffffffffffffffffffff1916817bffffffffffffffffffffffffffffffffffffffffffffffffffffffff19161461139357846040517f57f447ce00000000000000000000000000000000000000000000000000000000815260040161138a91906126eb565b60405180910390fd5b505b505050505050565b5f8473ffffffffffffffffffffffffffffffffffffffff163b1115611544578373ffffffffffffffffffffffffffffffffffffffff1663bc197c8187878686866040518663ffffffff1660e01b81526004016113fd9594939291906127ed565b6020604051808303815f875af192505050801561143857506040513d601f19601f8201168201806040525081019061143591906127c2565b60015b6114b9573d805f8114611466576040519150601f19603f3d011682016040523d82523d5f602084013e61146b565b606091505b505f8151036114b157846040517f57f447ce0000000000000000000000000000000000000000000000000000000081526004016114a891906126eb565b60405180910390fd5b805181602001fd5b63bc197c8160e01b7bffffffffffffffffffffffffffffffffffffffffffffffffffffffff1916817bffffffffffffffffffffffffffffffffffffffffffffffffffffffff19161461154257846040517f57f447ce00000000000000000000000000000000000000000000000000000000815260040161153991906126eb565b60405180910390fd5b505b505050505050565b611558848484846116f5565b5f73ffffffffffffffffffffffffffffffffffffffff168473ffffffffffffffffffffffffffffffffffffffff1603611631575f805b8351811015611616575f8382815181106115ab576115aa61264a565b5b602002602001015190508060035f8785815181106115cc576115cb61264a565b5b602002602001015181526020019081526020015f205f8282546115ef9190612853565b9250508190555080836116029190612853565b9250508061160f906126a4565b905061158e565b508060045f8282546116289190612853565b92505081905550505b5f73ffffffffffffffffffffffffffffffffffffffff168373ffffffffffffffffffffffffffffffffffffffff16036116ef575f805b83518110156116dd575f8382815181106116845761168361264a565b5b602002602001015190508060035f8785815181106116a5576116a461264a565b5b602002602001015181526020019081526020015f205f8282540392505081905550808301925050806116d6906126a4565b9050611667565b508060045f8282540392505081905550505b50505050565b805182511461173f57815181516040517f5b059991000000000000000000000000000000000000000000000000000000008152600401611736929190612623565b60405180910390fd5b5f611748610ba9565b90505f5b835181101561194a575f6117698286610cb790919063ffffffff16565b90505f61177f8386610cb790919063ffffffff16565b90505f73ffffffffffffffffffffffffffffffffffffffff168873ffffffffffffffffffffffffffffffffffffffff16146118a2575f805f8481526020019081526020015f205f8a73ffffffffffffffffffffffffffffffffffffffff1673ffffffffffffffffffffffffffffffffffffffff1681526020019081526020015f205490508181101561184e57888183856040517f03dee4c50000000000000000000000000000000000000000000000000000000081526004016118459493929190612886565b60405180910390fd5b8181035f808581526020019081526020015f205f8b73ffffffffffffffffffffffffffffffffffffffff1673ffffffffffffffffffffffffffffffffffffffff1681526020019081526020015f2081905550505b5f73ffffffffffffffffffffffffffffffffffffffff168773ffffffffffffffffffffffffffffffffffffffff161461193757805f808481526020019081526020015f205f8973ffffffffffffffffffffffffffffffffffffffff1673ffffffffffffffffffffffffffffffffffffffff1681526020019081526020015f205f82825461192f9190612853565b925050819055505b505080611943906126a4565b905061174c565b506001835103611a05575f6119685f85610cb790919063ffffffff16565b90505f61197e5f85610cb790919063ffffffff16565b90508573ffffffffffffffffffffffffffffffffffffffff168773ffffffffffffffffffffffffffffffffffffffff168473ffffffffffffffffffffffffffffffffffffffff167fc3d58168c5ae7397731d063d5bbf3d657854427343f4c083240f7aacaa2d0f6285856040516119f6929190612623565b60405180910390a45050611a84565b8373ffffffffffffffffffffffffffffffffffffffff168573ffffffffffffffffffffffffffffffffffffffff168273ffffffffffffffffffffffffffffffffffffffff167f4a39dc06d4c0dbc64b70af90fd698a233a518aa5d07e595d983b8c0526c8f7fb8686604051611a7b9291906128c9565b60405180910390a45b5050505050565b5f604051905090565b5f80fd5b5f80fd5b5f73ffffffffffffffffffffffffffffffffffffffff82169050919050565b5f611ac582611a9c565b9050919050565b611ad581611abb565b8114611adf575f80fd5b50565b5f81359050611af081611acc565b92915050565b5f819050919050565b611b0881611af6565b8114611b12575f80fd5b50565b5f81359050611b2381611aff565b92915050565b5f8060408385031215611b3f57611b3e611a94565b5b5f611b4c85828601611ae2565b9250506020611b5d85828601611b15565b9150509250929050565b611b7081611af6565b82525050565b5f602082019050611b895f830184611b67565b92915050565b5f7fffffffff0000000000000000000000000000000000000000000000000000000082169050919050565b611bc381611b8f565b8114611bcd575f80fd5b50565b5f81359050611bde81611bba565b92915050565b5f60208284031215611bf957611bf8611a94565b5b5f611c0684828501611bd0565b91505092915050565b5f8115159050919050565b611c2381611c0f565b82525050565b5f602082019050611c3c5f830184611c1a565b92915050565b5f60208284031215611c5757611c56611a94565b5b5f611c6484828501611b15565b91505092915050565b5f81519050919050565b5f82825260208201905092915050565b5f5b83811015611ca4578082015181840152602081019050611c89565b5f8484015250505050565b5f601f19601f8301169050919050565b5f611cc982611c6d565b611cd38185611c77565b9350611ce3818560208601611c87565b611cec81611caf565b840191505092915050565b5f6020820190508181035f830152611d0f8184611cbf565b905092915050565b5f80fd5b7f4e487b71000000000000000000000000000000000000000000000000000000005f52604160045260245ffd5b611d5182611caf565b810181811067ffffffffffffffff82111715611d7057611d6f611d1b565b5b80604052505050565b5f611d82611a8b565b9050611d8e8282611d48565b919050565b5f67ffffffffffffffff821115611dad57611dac611d1b565b5b602082029050602081019050919050565b5f80fd5b5f611dd4611dcf84611d93565b611d79565b90508083825260208201905060208402830185811115611df757611df6611dbe565b5b835b81811015611e205780611e0c8882611b15565b845260208401935050602081019050611df9565b5050509392505050565b5f82601f830112611e3e57611e3d611d17565b5b8135611e4e848260208601611dc2565b91505092915050565b5f80fd5b5f67ffffffffffffffff821115611e7557611e74611d1b565b5b611e7e82611caf565b9050602081019050919050565b828183375f83830152505050565b5f611eab611ea684611e5b565b611d79565b905082815260208101848484011115611ec757611ec6611e57565b5b611ed2848285611e8b565b509392505050565b5f82601f830112611eee57611eed611d17565b5b8135611efe848260208601611e99565b91505092915050565b5f805f8060808587031215611f1f57611f1e611a94565b5b5f611f2c87828801611ae2565b945050602085013567ffffffffffffffff811115611f4d57611f4c611a98565b5b611f5987828801611e2a565b935050604085013567ffffffffffffffff811115611f7a57611f79611a98565b5b611f8687828801611e2a565b925050606085013567ffffffffffffffff811115611fa757611fa6611a98565b5b611fb387828801611eda565b91505092959194509250565b5f805f805f60a08688031215611fd857611fd7611a94565b5b5f611fe588828901611ae2565b9550506020611ff688828901611ae2565b945050604086013567ffffffffffffffff81111561201757612016611a98565b5b61202388828901611e2a565b935050606086013567ffffffffffffffff81111561204457612043611a98565b5b61205088828901611e2a565b925050608086013567ffffffffffffffff81111561207157612070611a98565b5b61207d88828901611eda565b9150509295509295909350565b5f67ffffffffffffffff8211156120a4576120a3611d1b565b5b602082029050602081019050919050565b5f6120c76120c28461208a565b611d79565b905080838252602082019050602084028301858111156120ea576120e9611dbe565b5b835b8181101561211357806120ff8882611ae2565b8452602084019350506020810190506120ec565b5050509392505050565b5f82601f83011261213157612130611d17565b5b81356121418482602086016120b5565b91505092915050565b5f80604083850312156121605761215f611a94565b5b5f83013567ffffffffffffffff81111561217d5761217c611a98565b5b6121898582860161211d565b925050602083013567ffffffffffffffff8111156121aa576121a9611a98565b5b6121b685828601611e2a565b9150509250929050565b5f81519050919050565b5f82825260208201905092915050565b5f819050602082019050919050565b6121f281611af6565b82525050565b5f61220383836121e9565b60208301905092915050565b5f602082019050919050565b5f612225826121c0565b61222f81856121ca565b935061223a836121da565b805f5b8381101561226a57815161225188826121f8565b975061225c8361220f565b92505060018101905061223d565b5085935050505092915050565b5f6020820190508181035f83015261228f818461221b565b905092915050565b5f805f606084860312156122ae576122ad611a94565b5b5f6122bb86828701611ae2565b935050602084013567ffffffffffffffff8111156122dc576122db611a98565b5b6122e886828701611e2a565b925050604084013567ffffffffffffffff81111561230957612308611a98565b5b61231586828701611e2a565b9150509250925092565b5f805f806080858703121561233757612336611a94565b5b5f61234487828801611ae2565b945050602061235587828801611b15565b935050604061236687828801611b15565b925050606085013567ffffffffffffffff81111561238757612386611a98565b5b61239387828801611eda565b91505092959194509250565b6123a881611c0f565b81146123b2575f80fd5b50565b5f813590506123c38161239f565b92915050565b5f80604083850312156123df576123de611a94565b5b5f6123ec85828601611ae2565b92505060206123fd858286016123b5565b9150509250929050565b5f806040838503121561241d5761241c611a94565b5b5f61242a85828601611ae2565b925050602061243b85828601611ae2565b9150509250929050565b5f805f805f60a0868803121561245e5761245d611a94565b5b5f61246b88828901611ae2565b955050602061247c88828901611ae2565b945050604061248d88828901611b15565b935050606061249e88828901611b15565b925050608086013567ffffffffffffffff8111156124bf576124be611a98565b5b6124cb88828901611eda565b9150509295509295909350565b5f805f606084860312156124ef576124ee611a94565b5b5f6124fc86828701611ae2565b935050602061250d86828701611b15565b925050604061251e86828701611b15565b9150509250925092565b7f4e487b71000000000000000000000000000000000000000000000000000000005f52602260045260245ffd5b5f600282049050600182168061256c57607f821691505b60208210810361257f5761257e612528565b5b50919050565b7f4f6e6c792067616d6520636f6e74726163742063616e2063616c6c2e000000005f82015250565b5f6125b9601c83611c77565b91506125c482612585565b602082019050919050565b5f6020820190508181035f8301526125e6816125ad565b9050919050565b6125f681611abb565b82525050565b5f60408201905061260f5f8301856125ed565b61261c60208301846125ed565b9392505050565b5f6040820190506126365f830185611b67565b6126436020830184611b67565b9392505050565b7f4e487b71000000000000000000000000000000000000000000000000000000005f52603260045260245ffd5b7f4e487b71000000000000000000000000000000000000000000000000000000005f52601160045260245ffd5b5f6126ae82611af6565b91507fffffffffffffffffffffffffffffffffffffffffffffffffffffffffffffffff82036126e0576126df612677565b5b600182019050919050565b5f6020820190506126fe5f8301846125ed565b92915050565b5f81519050919050565b5f82825260208201905092915050565b5f61272882612704565b612732818561270e565b9350612742818560208601611c87565b61274b81611caf565b840191505092915050565b5f60a0820190506127695f8301886125ed565b61277660208301876125ed565b6127836040830186611b67565b6127906060830185611b67565b81810360808301526127a2818461271e565b90509695505050505050565b5f815190506127bc81611bba565b92915050565b5f602082840312156127d7576127d6611a94565b5b5f6127e4848285016127ae565b91505092915050565b5f60a0820190506128005f8301886125ed565b61280d60208301876125ed565b818103604083015261281f818661221b565b90508181036060830152612833818561221b565b90508181036080830152612847818461271e565b90509695505050505050565b5f61285d82611af6565b915061286883611af6565b92508282019050808211156128805761287f612677565b5b92915050565b5f6080820190506128995f8301876125ed565b6128a66020830186611b67565b6128b36040830185611b67565b6128c06060830184611b67565b95945050505050565b5f6040820190508181035f8301526128e1818561221b565b905081810360208301526128f5818461221b565b9050939250505056fea26469706673582212208758f283f5b2a1538ffdd8d6bd6203a646ee510cc9cd8e4aa7ba217de96a48b764736f6c63430008140033",
					"opcodes": "PUSH1 0xA0 PUSH1 0x40 MSTORE CALLVALUE DUP1 ISZERO PUSH3 0x10 JUMPI PUSH0 DUP1 REVERT JUMPDEST POP PUSH1 0x40 MLOAD PUSH3 0x2DFF CODESIZE SUB DUP1 PUSH3 0x2DFF DUP4 CODECOPY DUP2 DUP2 ADD PUSH1 0x40 MSTORE DUP2 ADD SWAP1 PUSH3 0x36 SWAP2 SWAP1 PUSH3 0x133 JUMP JUMPDEST PUSH1 0x40 MLOAD DUP1 PUSH1 0x40 ADD PUSH1 0x40 MSTORE DUP1 PUSH1 0x20 DUP2 MSTORE PUSH1 0x20 ADD PUSH32 0x68747470733A2F2F736F6D2E657465726E697461732E67616D65732F6A736F6E DUP2 MSTORE POP PUSH3 0x7D DUP2 PUSH3 0xB9 PUSH1 0x20 SHL PUSH1 0x20 SHR JUMP JUMPDEST POP DUP1 PUSH20 0xFFFFFFFFFFFFFFFFFFFFFFFFFFFFFFFFFFFFFFFF AND PUSH1 0x80 DUP2 PUSH20 0xFFFFFFFFFFFFFFFFFFFFFFFFFFFFFFFFFFFFFFFF AND DUP2 MSTORE POP POP POP PUSH3 0x4AB JUMP JUMPDEST DUP1 PUSH1 0x2 SWAP1 DUP2 PUSH3 0xCA SWAP2 SWAP1 PUSH3 0x3C7 JUMP JUMPDEST POP POP JUMP JUMPDEST PUSH0 DUP1 REVERT JUMPDEST PUSH0 PUSH20 0xFFFFFFFFFFFFFFFFFFFFFFFFFFFFFFFFFFFFFFFF DUP3 AND SWAP1 POP SWAP2 SWAP1 POP JUMP JUMPDEST PUSH0 PUSH3 0xFD DUP3 PUSH3 0xD2 JUMP JUMPDEST SWAP1 POP SWAP2 SWAP1 POP JUMP JUMPDEST PUSH3 0x10F DUP2 PUSH3 0xF1 JUMP JUMPDEST DUP2 EQ PUSH3 0x11A JUMPI PUSH0 DUP1 REVERT JUMPDEST POP JUMP JUMPDEST PUSH0 DUP2 MLOAD SWAP1 POP PUSH3 0x12D DUP2 PUSH3 0x104 JUMP JUMPDEST SWAP3 SWAP2 POP POP JUMP JUMPDEST PUSH0 PUSH1 0x20 DUP3 DUP5 SUB SLT ISZERO PUSH3 0x14B JUMPI PUSH3 0x14A PUSH3 0xCE JUMP JUMPDEST JUMPDEST PUSH0 PUSH3 0x15A DUP5 DUP3 DUP6 ADD PUSH3 0x11D JUMP JUMPDEST SWAP2 POP POP SWAP3 SWAP2 POP POP JUMP JUMPDEST PUSH0 DUP2 MLOAD SWAP1 POP SWAP2 SWAP1 POP JUMP JUMPDEST PUSH32 0x4E487B7100000000000000000000000000000000000000000000000000000000 PUSH0 MSTORE PUSH1 0x41 PUSH1 0x4 MSTORE PUSH1 0x24 PUSH0 REVERT JUMPDEST PUSH32 0x4E487B7100000000000000000000000000000000000000000000000000000000 PUSH0 MSTORE PUSH1 0x22 PUSH1 0x4 MSTORE PUSH1 0x24 PUSH0 REVERT JUMPDEST PUSH0 PUSH1 0x2 DUP3 DIV SWAP1 POP PUSH1 0x1 DUP3 AND DUP1 PUSH3 0x1DF JUMPI PUSH1 0x7F DUP3 AND SWAP2 POP JUMPDEST PUSH1 0x20 DUP3 LT DUP2 SUB PUSH3 0x1F5 JUMPI PUSH3 0x1F4 PUSH3 0x19A JUMP JUMPDEST JUMPDEST POP SWAP2 SWAP1 POP JUMP JUMPDEST PUSH0 DUP2 SWAP1 POP DUP2 PUSH0 MSTORE PUSH1 0x20 PUSH0 KECCAK256 SWAP1 POP SWAP2 SWAP1 POP JUMP JUMPDEST PUSH0 PUSH1 0x20 PUSH1 0x1F DUP4 ADD DIV SWAP1 POP SWAP2 SWAP1 POP JUMP JUMPDEST PUSH0 DUP3 DUP3 SHL SWAP1 POP SWAP3 SWAP2 POP POP JUMP JUMPDEST PUSH0 PUSH1 0x8 DUP4 MUL PUSH3 0x259 PUSH32 0xFFFFFFFFFFFFFFFFFFFFFFFFFFFFFFFFFFFFFFFFFFFFFFFFFFFFFFFFFFFFFFFF DUP3 PUSH3 0x21C JUMP JUMPDEST PUSH3 0x265 DUP7 DUP4 PUSH3 0x21C JUMP JUMPDEST SWAP6 POP DUP1 NOT DUP5 AND SWAP4 POP DUP1 DUP7 AND DUP5 OR SWAP3 POP POP POP SWAP4 SWAP3 POP POP POP JUMP JUMPDEST PUSH0 DUP2 SWAP1 POP SWAP2 SWAP1 POP JUMP JUMPDEST PUSH0 DUP2 SWAP1 POP SWAP2 SWAP1 POP JUMP JUMPDEST PUSH0 PUSH3 0x2AF PUSH3 0x2A9 PUSH3 0x2A3 DUP5 PUSH3 0x27D JUMP JUMPDEST PUSH3 0x286 JUMP JUMPDEST PUSH3 0x27D JUMP JUMPDEST SWAP1 POP SWAP2 SWAP1 POP JUMP JUMPDEST PUSH0 DUP2 SWAP1 POP SWAP2 SWAP1 POP JUMP JUMPDEST PUSH3 0x2CA DUP4 PUSH3 0x28F JUMP JUMPDEST PUSH3 0x2E2 PUSH3 0x2D9 DUP3 PUSH3 0x2B6 JUMP JUMPDEST DUP5 DUP5 SLOAD PUSH3 0x228 JUMP JUMPDEST DUP3 SSTORE POP POP POP POP JUMP JUMPDEST PUSH0 SWAP1 JUMP JUMPDEST PUSH3 0x2F8 PUSH3 0x2EA JUMP JUMPDEST PUSH3 0x305 DUP2 DUP5 DUP5 PUSH3 0x2BF JUMP JUMPDEST POP POP POP JUMP JUMPDEST JUMPDEST DUP2 DUP2 LT ISZERO PUSH3 0x32C JUMPI PUSH3 0x320 PUSH0 DUP3 PUSH3 0x2EE JUMP JUMPDEST PUSH1 0x1 DUP2 ADD SWAP1 POP PUSH3 0x30B JUMP JUMPDEST POP POP JUMP JUMPDEST PUSH1 0x1F DUP3 GT ISZERO PUSH3 0x37B JUMPI PUSH3 0x345 DUP2 PUSH3 0x1FB JUMP JUMPDEST PUSH3 0x350 DUP5 PUSH3 0x20D JUMP JUMPDEST DUP2 ADD PUSH1 0x20 DUP6 LT ISZERO PUSH3 0x360 JUMPI DUP2 SWAP1 POP JUMPDEST PUSH3 0x378 PUSH3 0x36F DUP6 PUSH3 0x20D JUMP JUMPDEST DUP4 ADD DUP3 PUSH3 0x30A JUMP JUMPDEST POP POP JUMPDEST POP POP POP JUMP JUMPDEST PUSH0 DUP3 DUP3 SHR SWAP1 POP SWAP3 SWAP2 POP POP JUMP JUMPDEST PUSH0 PUSH3 0x39D PUSH0 NOT DUP5 PUSH1 0x8 MUL PUSH3 0x380 JUMP JUMPDEST NOT DUP1 DUP4 AND SWAP2 POP POP SWAP3 SWAP2 POP POP JUMP JUMPDEST PUSH0 PUSH3 0x3B7 DUP4 DUP4 PUSH3 0x38C JUMP JUMPDEST SWAP2 POP DUP3 PUSH1 0x2 MUL DUP3 OR SWAP1 POP SWAP3 SWAP2 POP POP JUMP JUMPDEST PUSH3 0x3D2 DUP3 PUSH3 0x163 JUMP JUMPDEST PUSH8 0xFFFFFFFFFFFFFFFF DUP2 GT ISZERO PUSH3 0x3EE JUMPI PUSH3 0x3ED PUSH3 0x16D JUMP JUMPDEST JUMPDEST PUSH3 0x3FA DUP3 SLOAD PUSH3 0x1C7 JUMP JUMPDEST PUSH3 0x407 DUP3 DUP3 DUP6 PUSH3 0x330 JUMP JUMPDEST PUSH0 PUSH1 0x20 SWAP1 POP PUSH1 0x1F DUP4 GT PUSH1 0x1 DUP2 EQ PUSH3 0x43D JUMPI PUSH0 DUP5 ISZERO PUSH3 0x428 JUMPI DUP3 DUP8 ADD MLOAD SWAP1 POP JUMPDEST PUSH3 0x434 DUP6 DUP3 PUSH3 0x3AA JUMP JUMPDEST DUP7 SSTORE POP PUSH3 0x4A3 JUMP JUMPDEST PUSH1 0x1F NOT DUP5 AND PUSH3 0x44D DUP7 PUSH3 0x1FB JUMP JUMPDEST PUSH0 JUMPDEST DUP3 DUP2 LT ISZERO PUSH3 0x476 JUMPI DUP5 DUP10 ADD MLOAD DUP3 SSTORE PUSH1 0x1 DUP3 ADD SWAP2 POP PUSH1 0x20 DUP6 ADD SWAP5 POP PUSH1 0x20 DUP2 ADD SWAP1 POP PUSH3 0x44F JUMP JUMPDEST DUP7 DUP4 LT ISZERO PUSH3 0x496 JUMPI DUP5 DUP10 ADD MLOAD PUSH3 0x492 PUSH1 0x1F DUP10 AND DUP3 PUSH3 0x38C JUMP JUMPDEST DUP4 SSTORE POP JUMPDEST PUSH1 0x1 PUSH1 0x2 DUP9 MUL ADD DUP9 SSTORE POP POP POP JUMPDEST POP POP POP POP POP POP JUMP JUMPDEST PUSH1 0x80 MLOAD PUSH2 0x2934 PUSH3 0x4CB PUSH0 CODECOPY PUSH0 DUP2 DUP2 PUSH2 0x4FB ADD MSTORE PUSH2 0x80E ADD MSTORE PUSH2 0x2934 PUSH0 RETURN INVALID PUSH1 0x80 PUSH1 0x40 MSTORE CALLVALUE DUP1 ISZERO PUSH2 0xF JUMPI PUSH0 DUP1 REVERT JUMPDEST POP PUSH1 0x4 CALLDATASIZE LT PUSH2 0xF2 JUMPI PUSH0 CALLDATALOAD PUSH1 0xE0 SHR DUP1 PUSH4 0x4F558E79 GT PUSH2 0x95 JUMPI DUP1 PUSH4 0xBD85B039 GT PUSH2 0x64 JUMPI DUP1 PUSH4 0xBD85B039 EQ PUSH2 0x290 JUMPI DUP1 PUSH4 0xE985E9C5 EQ PUSH2 0x2C0 JUMPI DUP1 PUSH4 0xF242432A EQ PUSH2 0x2F0 JUMPI DUP1 PUSH4 0xF5298ACA EQ PUSH2 0x30C JUMPI PUSH2 0xF2 JUMP JUMPDEST DUP1 PUSH4 0x4F558E79 EQ PUSH2 0x20C JUMPI DUP1 PUSH4 0x6B20C454 EQ PUSH2 0x23C JUMPI DUP1 PUSH4 0x731133E9 EQ PUSH2 0x258 JUMPI DUP1 PUSH4 0xA22CB465 EQ PUSH2 0x274 JUMPI PUSH2 0xF2 JUMP JUMPDEST DUP1 PUSH4 0x18160DDD GT PUSH2 0xD1 JUMPI DUP1 PUSH4 0x18160DDD EQ PUSH2 0x186 JUMPI DUP1 PUSH4 0x1F7FDFFA EQ PUSH2 0x1A4 JUMPI DUP1 PUSH4 0x2EB2C2D6 EQ PUSH2 0x1C0 JUMPI DUP1 PUSH4 0x4E1273F4 EQ PUSH2 0x1DC JUMPI PUSH2 0xF2 JUMP JUMPDEST DUP1 PUSH3 0xFDD58E EQ PUSH2 0xF6 JUMPI DUP1 PUSH4 0x1FFC9A7 EQ PUSH2 0x126 JUMPI DUP1 PUSH4 0xE89341C EQ PUSH2 0x156 JUMPI JUMPDEST PUSH0 DUP1 REVERT JUMPDEST PUSH2 0x110 PUSH1 0x4 DUP1 CALLDATASIZE SUB DUP2 ADD SWAP1 PUSH2 0x10B SWAP2 SWAP1 PUSH2 0x1B29 JUMP JUMPDEST PUSH2 0x328 JUMP JUMPDEST PUSH1 0x40 MLOAD PUSH2 0x11D SWAP2 SWAP1 PUSH2 0x1B76 JUMP JUMPDEST PUSH1 0x40 MLOAD DUP1 SWAP2 SUB SWAP1 RETURN JUMPDEST PUSH2 0x140 PUSH1 0x4 DUP1 CALLDATASIZE SUB DUP2 ADD SWAP1 PUSH2 0x13B SWAP2 SWAP1 PUSH2 0x1BE4 JUMP JUMPDEST PUSH2 0x37D JUMP JUMPDEST PUSH1 0x40 MLOAD PUSH2 0x14D SWAP2 SWAP1 PUSH2 0x1C29 JUMP JUMPDEST PUSH1 0x40 MLOAD DUP1 SWAP2 SUB SWAP1 RETURN JUMPDEST PUSH2 0x170 PUSH1 0x4 DUP1 CALLDATASIZE SUB DUP2 ADD SWAP1 PUSH2 0x16B SWAP2 SWAP1 PUSH2 0x1C42 JUMP JUMPDEST PUSH2 0x45E JUMP JUMPDEST PUSH1 0x40 MLOAD PUSH2 0x17D SWAP2 SWAP1 PUSH2 0x1CF7 JUMP JUMPDEST PUSH1 0x40 MLOAD DUP1 SWAP2 SUB SWAP1 RETURN JUMPDEST PUSH2 0x18E PUSH2 0x4F0 JUMP JUMPDEST PUSH1 0x40 MLOAD PUSH2 0x19B SWAP2 SWAP1 PUSH2 0x1B76 JUMP JUMPDEST PUSH1 0x40 MLOAD DUP1 SWAP2 SUB SWAP1 RETURN JUMPDEST PUSH2 0x1BE PUSH1 0x4 DUP1 CALLDATASIZE SUB DUP2 ADD SWAP1 PUSH2 0x1B9 SWAP2 SWAP1 PUSH2 0x1F07 JUMP JUMPDEST PUSH2 0x4F9 JUMP JUMPDEST STOP JUMPDEST PUSH2 0x1DA PUSH1 0x4 DUP1 CALLDATASIZE SUB DUP2 ADD SWAP1 PUSH2 0x1D5 SWAP2 SWAP1 PUSH2 0x1FBF JUMP JUMPDEST PUSH2 0x599 JUMP JUMPDEST STOP JUMPDEST PUSH2 0x1F6 PUSH1 0x4 DUP1 CALLDATASIZE SUB DUP2 ADD SWAP1 PUSH2 0x1F1 SWAP2 SWAP1 PUSH2 0x214A JUMP JUMPDEST PUSH2 0x640 JUMP JUMPDEST PUSH1 0x40 MLOAD PUSH2 0x203 SWAP2 SWAP1 PUSH2 0x2277 JUMP JUMPDEST PUSH1 0x40 MLOAD DUP1 SWAP2 SUB SWAP1 RETURN JUMPDEST PUSH2 0x226 PUSH1 0x4 DUP1 CALLDATASIZE SUB DUP2 ADD SWAP1 PUSH2 0x221 SWAP2 SWAP1 PUSH2 0x1C42 JUMP JUMPDEST PUSH2 0x74D JUMP JUMPDEST PUSH1 0x40 MLOAD PUSH2 0x233 SWAP2 SWAP1 PUSH2 0x1C29 JUMP JUMPDEST PUSH1 0x40 MLOAD DUP1 SWAP2 SUB SWAP1 RETURN JUMPDEST PUSH2 0x256 PUSH1 0x4 DUP1 CALLDATASIZE SUB DUP2 ADD SWAP1 PUSH2 0x251 SWAP2 SWAP1 PUSH2 0x2297 JUMP JUMPDEST PUSH2 0x760 JUMP JUMPDEST STOP JUMPDEST PUSH2 0x272 PUSH1 0x4 DUP1 CALLDATASIZE SUB DUP2 ADD SWAP1 PUSH2 0x26D SWAP2 SWAP1 PUSH2 0x231F JUMP JUMPDEST PUSH2 0x80C JUMP JUMPDEST STOP JUMPDEST PUSH2 0x28E PUSH1 0x4 DUP1 CALLDATASIZE SUB DUP2 ADD SWAP1 PUSH2 0x289 SWAP2 SWAP1 PUSH2 0x23C9 JUMP JUMPDEST PUSH2 0x8AC JUMP JUMPDEST STOP JUMPDEST PUSH2 0x2AA PUSH1 0x4 DUP1 CALLDATASIZE SUB DUP2 ADD SWAP1 PUSH2 0x2A5 SWAP2 SWAP1 PUSH2 0x1C42 JUMP JUMPDEST PUSH2 0x8C2 JUMP JUMPDEST PUSH1 0x40 MLOAD PUSH2 0x2B7 SWAP2 SWAP1 PUSH2 0x1B76 JUMP JUMPDEST PUSH1 0x40 MLOAD DUP1 SWAP2 SUB SWAP1 RETURN JUMPDEST PUSH2 0x2DA PUSH1 0x4 DUP1 CALLDATASIZE SUB DUP2 ADD SWAP1 PUSH2 0x2D5 SWAP2 SWAP1 PUSH2 0x2407 JUMP JUMPDEST PUSH2 0x8DC JUMP JUMPDEST PUSH1 0x40 MLOAD PUSH2 0x2E7 SWAP2 SWAP1 PUSH2 0x1C29 JUMP JUMPDEST PUSH1 0x40 MLOAD DUP1 SWAP2 SUB SWAP1 RETURN JUMPDEST PUSH2 0x30A PUSH1 0x4 DUP1 CALLDATASIZE SUB DUP2 ADD SWAP1 PUSH2 0x305 SWAP2 SWAP1 PUSH2 0x2445 JUMP JUMPDEST PUSH2 0x96A JUMP JUMPDEST STOP JUMPDEST PUSH2 0x326 PUSH1 0x4 DUP1 CALLDATASIZE SUB DUP2 ADD SWAP1 PUSH2 0x321 SWAP2 SWAP1 PUSH2 0x24D8 JUMP JUMPDEST PUSH2 0xA11 JUMP JUMPDEST STOP JUMPDEST PUSH0 DUP1 PUSH0 DUP4 DUP2 MSTORE PUSH1 0x20 ADD SWAP1 DUP2 MSTORE PUSH1 0x20 ADD PUSH0 KECCAK256 PUSH0 DUP5 PUSH20 0xFFFFFFFFFFFFFFFFFFFFFFFFFFFFFFFFFFFFFFFF AND PUSH20 0xFFFFFFFFFFFFFFFFFFFFFFFFFFFFFFFFFFFFFFFF AND DUP2 MSTORE PUSH1 0x20 ADD SWAP1 DUP2 MSTORE PUSH1 0x20 ADD PUSH0 KECCAK256 SLOAD SWAP1 POP SWAP3 SWAP2 POP POP JUMP JUMPDEST PUSH0 PUSH32 0xD9B67A2600000000000000000000000000000000000000000000000000000000 PUSH28 0xFFFFFFFFFFFFFFFFFFFFFFFFFFFFFFFFFFFFFFFFFFFFFFFFFFFFFFFF NOT AND DUP3 PUSH28 0xFFFFFFFFFFFFFFFFFFFFFFFFFFFFFFFFFFFFFFFFFFFFFFFFFFFFFFFF NOT AND EQ DUP1 PUSH2 0x447 JUMPI POP PUSH32 0xE89341C00000000000000000000000000000000000000000000000000000000 PUSH28 0xFFFFFFFFFFFFFFFFFFFFFFFFFFFFFFFFFFFFFFFFFFFFFFFFFFFFFFFF NOT AND DUP3 PUSH28 0xFFFFFFFFFFFFFFFFFFFFFFFFFFFFFFFFFFFFFFFFFFFFFFFFFFFFFFFF NOT AND EQ JUMPDEST DUP1 PUSH2 0x457 JUMPI POP PUSH2 0x456 DUP3 PUSH2 0xABD JUMP JUMPDEST JUMPDEST SWAP1 POP SWAP2 SWAP1 POP JUMP JUMPDEST PUSH1 0x60 PUSH1 0x2 DUP1 SLOAD PUSH2 0x46D SWAP1 PUSH2 0x2555 JUMP JUMPDEST DUP1 PUSH1 0x1F ADD PUSH1 0x20 DUP1 SWAP2 DIV MUL PUSH1 0x20 ADD PUSH1 0x40 MLOAD SWAP1 DUP2 ADD PUSH1 0x40 MSTORE DUP1 SWAP3 SWAP2 SWAP1 DUP2 DUP2 MSTORE PUSH1 0x20 ADD DUP3 DUP1 SLOAD PUSH2 0x499 SWAP1 PUSH2 0x2555 JUMP JUMPDEST DUP1 ISZERO PUSH2 0x4E4 JUMPI DUP1 PUSH1 0x1F LT PUSH2 0x4BB JUMPI PUSH2 0x100 DUP1 DUP4 SLOAD DIV MUL DUP4 MSTORE SWAP2 PUSH1 0x20 ADD SWAP2 PUSH2 0x4E4 JUMP JUMPDEST DUP3 ADD SWAP2 SWAP1 PUSH0 MSTORE PUSH1 0x20 PUSH0 KECCAK256 SWAP1 JUMPDEST DUP2 SLOAD DUP2 MSTORE SWAP1 PUSH1 0x1 ADD SWAP1 PUSH1 0x20 ADD DUP1 DUP4 GT PUSH2 0x4C7 JUMPI DUP3 SWAP1 SUB PUSH1 0x1F AND DUP3 ADD SWAP2 JUMPDEST POP POP POP POP POP SWAP1 POP SWAP2 SWAP1 POP JUMP JUMPDEST PUSH0 PUSH1 0x4 SLOAD SWAP1 POP SWAP1 JUMP JUMPDEST PUSH32 0x0 PUSH20 0xFFFFFFFFFFFFFFFFFFFFFFFFFFFFFFFFFFFFFFFF AND CALLER PUSH20 0xFFFFFFFFFFFFFFFFFFFFFFFFFFFFFFFFFFFFFFFF AND EQ PUSH2 0x587 JUMPI PUSH1 0x40 MLOAD PUSH32 0x8C379A000000000000000000000000000000000000000000000000000000000 DUP2 MSTORE PUSH1 0x4 ADD PUSH2 0x57E SWAP1 PUSH2 0x25CF JUMP JUMPDEST PUSH1 0x40 MLOAD DUP1 SWAP2 SUB SWAP1 REVERT JUMPDEST PUSH2 0x593 DUP5 DUP5 DUP5 DUP5 PUSH2 0xB26 JUMP JUMPDEST POP POP POP POP JUMP JUMPDEST PUSH0 PUSH2 0x5A2 PUSH2 0xBA9 JUMP JUMPDEST SWAP1 POP DUP1 PUSH20 0xFFFFFFFFFFFFFFFFFFFFFFFFFFFFFFFFFFFFFFFF AND DUP7 PUSH20 0xFFFFFFFFFFFFFFFFFFFFFFFFFFFFFFFFFFFFFFFF AND EQ ISZERO DUP1 ISZERO PUSH2 0x5E7 JUMPI POP PUSH2 0x5E5 DUP7 DUP3 PUSH2 0x8DC JUMP JUMPDEST ISZERO JUMPDEST ISZERO PUSH2 0x62B JUMPI DUP1 DUP7 PUSH1 0x40 MLOAD PUSH32 0xE237D92200000000000000000000000000000000000000000000000000000000 DUP2 MSTORE PUSH1 0x4 ADD PUSH2 0x622 SWAP3 SWAP2 SWAP1 PUSH2 0x25FC JUMP JUMPDEST PUSH1 0x40 MLOAD DUP1 SWAP2 SUB SWAP1 REVERT JUMPDEST PUSH2 0x638 DUP7 DUP7 DUP7 DUP7 DUP7 PUSH2 0xBB0 JUMP JUMPDEST POP POP POP POP POP POP JUMP JUMPDEST PUSH1 0x60 DUP2 MLOAD DUP4 MLOAD EQ PUSH2 0x68C JUMPI DUP2 MLOAD DUP4 MLOAD PUSH1 0x40 MLOAD PUSH32 0x5B05999100000000000000000000000000000000000000000000000000000000 DUP2 MSTORE PUSH1 0x4 ADD PUSH2 0x683 SWAP3 SWAP2 SWAP1 PUSH2 0x2623 JUMP JUMPDEST PUSH1 0x40 MLOAD DUP1 SWAP2 SUB SWAP1 REVERT JUMPDEST PUSH0 DUP4 MLOAD PUSH8 0xFFFFFFFFFFFFFFFF DUP2 GT ISZERO PUSH2 0x6A8 JUMPI PUSH2 0x6A7 PUSH2 0x1D1B JUMP JUMPDEST JUMPDEST PUSH1 0x40 MLOAD SWAP1 DUP1 DUP3 MSTORE DUP1 PUSH1 0x20 MUL PUSH1 0x20 ADD DUP3 ADD PUSH1 0x40 MSTORE DUP1 ISZERO PUSH2 0x6D6 JUMPI DUP2 PUSH1 0x20 ADD PUSH1 0x20 DUP3 MUL DUP1 CALLDATASIZE DUP4 CALLDATACOPY DUP1 DUP3 ADD SWAP2 POP POP SWAP1 POP JUMPDEST POP SWAP1 POP PUSH0 JUMPDEST DUP5 MLOAD DUP2 LT ISZERO PUSH2 0x742 JUMPI PUSH2 0x712 PUSH2 0x6FA DUP3 DUP8 PUSH2 0xCA4 SWAP1 SWAP2 SWAP1 PUSH4 0xFFFFFFFF AND JUMP JUMPDEST PUSH2 0x70D DUP4 DUP8 PUSH2 0xCB7 SWAP1 SWAP2 SWAP1 PUSH4 0xFFFFFFFF AND JUMP JUMPDEST PUSH2 0x328 JUMP JUMPDEST DUP3 DUP3 DUP2 MLOAD DUP2 LT PUSH2 0x725 JUMPI PUSH2 0x724 PUSH2 0x264A JUMP JUMPDEST JUMPDEST PUSH1 0x20 MUL PUSH1 0x20 ADD ADD DUP2 DUP2 MSTORE POP POP DUP1 PUSH2 0x73B SWAP1 PUSH2 0x26A4 JUMP JUMPDEST SWAP1 POP PUSH2 0x6DB JUMP JUMPDEST POP DUP1 SWAP2 POP POP SWAP3 SWAP2 POP POP JUMP JUMPDEST PUSH0 DUP1 PUSH2 0x758 DUP4 PUSH2 0x8C2 JUMP JUMPDEST GT SWAP1 POP SWAP2 SWAP1 POP JUMP JUMPDEST PUSH2 0x768 PUSH2 0xBA9 JUMP JUMPDEST PUSH20 0xFFFFFFFFFFFFFFFFFFFFFFFFFFFFFFFFFFFFFFFF AND DUP4 PUSH20 0xFFFFFFFFFFFFFFFFFFFFFFFFFFFFFFFFFFFFFFFF AND EQ ISZERO DUP1 ISZERO PUSH2 0x7B1 JUMPI POP PUSH2 0x7AF DUP4 PUSH2 0x7AA PUSH2 0xBA9 JUMP JUMPDEST PUSH2 0x8DC JUMP JUMPDEST ISZERO JUMPDEST ISZERO PUSH2 0x7FC JUMPI PUSH2 0x7BE PUSH2 0xBA9 JUMP JUMPDEST DUP4 PUSH1 0x40 MLOAD PUSH32 0xE237D92200000000000000000000000000000000000000000000000000000000 DUP2 MSTORE PUSH1 0x4 ADD PUSH2 0x7F3 SWAP3 SWAP2 SWAP1 PUSH2 0x25FC JUMP JUMPDEST PUSH1 0x40 MLOAD DUP1 SWAP2 SUB SWAP1 REVERT JUMPDEST PUSH2 0x807 DUP4 DUP4 DUP4 PUSH2 0xCCA JUMP JUMPDEST POP POP POP JUMP JUMPDEST PUSH32 0x0 PUSH20 0xFFFFFFFFFFFFFFFFFFFFFFFFFFFFFFFFFFFFFFFF AND CALLER PUSH20 0xFFFFFFFFFFFFFFFFFFFFFFFFFFFFFFFFFFFFFFFF AND EQ PUSH2 0x89A JUMPI PUSH1 0x40 MLOAD PUSH32 0x8C379A000000000000000000000000000000000000000000000000000000000 DUP2 MSTORE PUSH1 0x4 ADD PUSH2 0x891 SWAP1 PUSH2 0x25CF JUMP JUMPDEST PUSH1 0x40 MLOAD DUP1 SWAP2 SUB SWAP1 REVERT JUMPDEST PUSH2 0x8A6 DUP5 DUP5 DUP5 DUP5 PUSH2 0xD5A JUMP JUMPDEST POP POP POP POP JUMP JUMPDEST PUSH2 0x8BE PUSH2 0x8B7 PUSH2 0xBA9 JUMP JUMPDEST DUP4 DUP4 PUSH2 0xDEF JUMP JUMPDEST POP POP JUMP JUMPDEST PUSH0 PUSH1 0x3 PUSH0 DUP4 DUP2 MSTORE PUSH1 0x20 ADD SWAP1 DUP2 MSTORE PUSH1 0x20 ADD PUSH0 KECCAK256 SLOAD SWAP1 POP SWAP2 SWAP1 POP JUMP JUMPDEST PUSH0 PUSH1 0x1 PUSH0 DUP5 PUSH20 0xFFFFFFFFFFFFFFFFFFFFFFFFFFFFFFFFFFFFFFFF AND PUSH20 0xFFFFFFFFFFFFFFFFFFFFFFFFFFFFFFFFFFFFFFFF AND DUP2 MSTORE PUSH1 0x20 ADD SWAP1 DUP2 MSTORE PUSH1 0x20 ADD PUSH0 KECCAK256 PUSH0 DUP4 PUSH20 0xFFFFFFFFFFFFFFFFFFFFFFFFFFFFFFFFFFFFFFFF AND PUSH20 0xFFFFFFFFFFFFFFFFFFFFFFFFFFFFFFFFFFFFFFFF AND DUP2 MSTORE PUSH1 0x20 ADD SWAP1 DUP2 MSTORE PUSH1 0x20 ADD PUSH0 KECCAK256 PUSH0 SWAP1 SLOAD SWAP1 PUSH2 0x100 EXP SWAP1 DIV PUSH1 0xFF AND SWAP1 POP SWAP3 SWAP2 POP POP JUMP JUMPDEST PUSH0 PUSH2 0x973 PUSH2 0xBA9 JUMP JUMPDEST SWAP1 POP DUP1 PUSH20 0xFFFFFFFFFFFFFFFFFFFFFFFFFFFFFFFFFFFFFFFF AND DUP7 PUSH20 0xFFFFFFFFFFFFFFFFFFFFFFFFFFFFFFFFFFFFFFFF AND EQ ISZERO DUP1 ISZERO PUSH2 0x9B8 JUMPI POP PUSH2 0x9B6 DUP7 DUP3 PUSH2 0x8DC JUMP JUMPDEST ISZERO JUMPDEST ISZERO PUSH2 0x9FC JUMPI DUP1 DUP7 PUSH1 0x40 MLOAD PUSH32 0xE237D92200000000000000000000000000000000000000000000000000000000 DUP2 MSTORE PUSH1 0x4 ADD PUSH2 0x9F3 SWAP3 SWAP2 SWAP1 PUSH2 0x25FC JUMP JUMPDEST PUSH1 0x40 MLOAD DUP1 SWAP2 SUB SWAP1 REVERT JUMPDEST PUSH2 0xA09 DUP7 DUP7 DUP7 DUP7 DUP7 PUSH2 0xF58 JUMP JUMPDEST POP POP POP POP POP POP JUMP JUMPDEST PUSH2 0xA19 PUSH2 0xBA9 JUMP JUMPDEST PUSH20 0xFFFFFFFFFFFFFFFFFFFFFFFFFFFFFFFFFFFFFFFF AND DUP4 PUSH20 0xFFFFFFFFFFFFFFFFFFFFFFFFFFFFFFFFFFFFFFFF AND EQ ISZERO DUP1 ISZERO PUSH2 0xA62 JUMPI POP PUSH2 0xA60 DUP4 PUSH2 0xA5B PUSH2 0xBA9 JUMP JUMPDEST PUSH2 0x8DC JUMP JUMPDEST ISZERO JUMPDEST ISZERO PUSH2 0xAAD JUMPI PUSH2 0xA6F PUSH2 0xBA9 JUMP JUMPDEST DUP4 PUSH1 0x40 MLOAD PUSH32 0xE237D92200000000000000000000000000000000000000000000000000000000 DUP2 MSTORE PUSH1 0x4 ADD PUSH2 0xAA4 SWAP3 SWAP2 SWAP1 PUSH2 0x25FC JUMP JUMPDEST PUSH1 0x40 MLOAD DUP1 SWAP2 SUB SWAP1 REVERT JUMPDEST PUSH2 0xAB8 DUP4 DUP4 DUP4 PUSH2 0x105E JUMP JUMPDEST POP POP POP JUMP JUMPDEST PUSH0 PUSH32 0x1FFC9A700000000000000000000000000000000000000000000000000000000 PUSH28 0xFFFFFFFFFFFFFFFFFFFFFFFFFFFFFFFFFFFFFFFFFFFFFFFFFFFFFFFF NOT AND DUP3 PUSH28 0xFFFFFFFFFFFFFFFFFFFFFFFFFFFFFFFFFFFFFFFFFFFFFFFFFFFFFFFF NOT AND EQ SWAP1 POP SWAP2 SWAP1 POP JUMP JUMPDEST PUSH0 PUSH20 0xFFFFFFFFFFFFFFFFFFFFFFFFFFFFFFFFFFFFFFFF AND DUP5 PUSH20 0xFFFFFFFFFFFFFFFFFFFFFFFFFFFFFFFFFFFFFFFF AND SUB PUSH2 0xB96 JUMPI PUSH0 PUSH1 0x40 MLOAD PUSH32 0x57F447CE00000000000000000000000000000000000000000000000000000000 DUP2 MSTORE PUSH1 0x4 ADD PUSH2 0xB8D SWAP2 SWAP1 PUSH2 0x26EB JUMP JUMPDEST PUSH1 0x40 MLOAD DUP1 SWAP2 SUB SWAP1 REVERT JUMPDEST PUSH2 0xBA3 PUSH0 DUP6 DUP6 DUP6 DUP6 PUSH2 0x1100 JUMP JUMPDEST POP POP POP POP JUMP JUMPDEST PUSH0 CALLER SWAP1 POP SWAP1 JUMP JUMPDEST PUSH0 PUSH20 0xFFFFFFFFFFFFFFFFFFFFFFFFFFFFFFFFFFFFFFFF AND DUP5 PUSH20 0xFFFFFFFFFFFFFFFFFFFFFFFFFFFFFFFFFFFFFFFF AND SUB PUSH2 0xC20 JUMPI PUSH0 PUSH1 0x40 MLOAD PUSH32 0x57F447CE00000000000000000000000000000000000000000000000000000000 DUP2 MSTORE PUSH1 0x4 ADD PUSH2 0xC17 SWAP2 SWAP1 PUSH2 0x26EB JUMP JUMPDEST PUSH1 0x40 MLOAD DUP1 SWAP2 SUB SWAP1 REVERT JUMPDEST PUSH0 PUSH20 0xFFFFFFFFFFFFFFFFFFFFFFFFFFFFFFFFFFFFFFFF AND DUP6 PUSH20 0xFFFFFFFFFFFFFFFFFFFFFFFFFFFFFFFFFFFFFFFF AND SUB PUSH2 0xC90 JUMPI PUSH0 PUSH1 0x40 MLOAD PUSH32 0x1A8351400000000000000000000000000000000000000000000000000000000 DUP2 MSTORE PUSH1 0x4 ADD PUSH2 0xC87 SWAP2 SWAP1 PUSH2 0x26EB JUMP JUMPDEST PUSH1 0x40 MLOAD DUP1 SWAP2 SUB SWAP1 REVERT JUMPDEST PUSH2 0xC9D DUP6 DUP6 DUP6 DUP6 DUP6 PUSH2 0x1100 JUMP JUMPDEST POP POP POP POP POP JUMP JUMPDEST PUSH0 PUSH1 0x20 DUP3 MUL PUSH1 0x20 DUP5 ADD ADD MLOAD SWAP1 POP SWAP3 SWAP2 POP POP JUMP JUMPDEST PUSH0 PUSH1 0x20 DUP3 MUL PUSH1 0x20 DUP5 ADD ADD MLOAD SWAP1 POP SWAP3 SWAP2 POP POP JUMP JUMPDEST PUSH0 PUSH20 0xFFFFFFFFFFFFFFFFFFFFFFFFFFFFFFFFFFFFFFFF AND DUP4 PUSH20 0xFFFFFFFFFFFFFFFFFFFFFFFFFFFFFFFFFFFFFFFF AND SUB PUSH2 0xD3A JUMPI PUSH0 PUSH1 0x40 MLOAD PUSH32 0x1A8351400000000000000000000000000000000000000000000000000000000 DUP2 MSTORE PUSH1 0x4 ADD PUSH2 0xD31 SWAP2 SWAP1 PUSH2 0x26EB JUMP JUMPDEST PUSH1 0x40 MLOAD DUP1 SWAP2 SUB SWAP1 REVERT JUMPDEST PUSH2 0xD55 DUP4 PUSH0 DUP5 DUP5 PUSH1 0x40 MLOAD DUP1 PUSH1 0x20 ADD PUSH1 0x40 MSTORE DUP1 PUSH0 DUP2 MSTORE POP PUSH2 0x1100 JUMP JUMPDEST POP POP POP JUMP JUMPDEST PUSH0 PUSH20 0xFFFFFFFFFFFFFFFFFFFFFFFFFFFFFFFFFFFFFFFF AND DUP5 PUSH20 0xFFFFFFFFFFFFFFFFFFFFFFFFFFFFFFFFFFFFFFFF AND SUB PUSH2 0xDCA JUMPI PUSH0 PUSH1 0x40 MLOAD PUSH32 0x57F447CE00000000000000000000000000000000000000000000000000000000 DUP2 MSTORE PUSH1 0x4 ADD PUSH2 0xDC1 SWAP2 SWAP1 PUSH2 0x26EB JUMP JUMPDEST PUSH1 0x40 MLOAD DUP1 SWAP2 SUB SWAP1 REVERT JUMPDEST PUSH0 DUP1 PUSH2 0xDD6 DUP6 DUP6 PUSH2 0x11AC JUMP JUMPDEST SWAP2 POP SWAP2 POP PUSH2 0xDE7 PUSH0 DUP8 DUP5 DUP5 DUP8 PUSH2 0x1100 JUMP JUMPDEST POP POP POP POP POP POP JUMP JUMPDEST PUSH0 PUSH20 0xFFFFFFFFFFFFFFFFFFFFFFFFFFFFFFFFFFFFFFFF AND DUP3 PUSH20 0xFFFFFFFFFFFFFFFFFFFFFFFFFFFFFFFFFFFFFFFF AND SUB PUSH2 0xE5F JUMPI PUSH0 PUSH1 0x40 MLOAD PUSH32 0xCED3E10000000000000000000000000000000000000000000000000000000000 DUP2 MSTORE PUSH1 0x4 ADD PUSH2 0xE56 SWAP2 SWAP1 PUSH2 0x26EB JUMP JUMPDEST PUSH1 0x40 MLOAD DUP1 SWAP2 SUB SWAP1 REVERT JUMPDEST DUP1 PUSH1 0x1 PUSH0 DUP6 PUSH20 0xFFFFFFFFFFFFFFFFFFFFFFFFFFFFFFFFFFFFFFFF AND PUSH20 0xFFFFFFFFFFFFFFFFFFFFFFFFFFFFFFFFFFFFFFFF AND DUP2 MSTORE PUSH1 0x20 ADD SWAP1 DUP2 MSTORE PUSH1 0x20 ADD PUSH0 KECCAK256 PUSH0 DUP5 PUSH20 0xFFFFFFFFFFFFFFFFFFFFFFFFFFFFFFFFFFFFFFFF AND PUSH20 0xFFFFFFFFFFFFFFFFFFFFFFFFFFFFFFFFFFFFFFFF AND DUP2 MSTORE PUSH1 0x20 ADD SWAP1 DUP2 MSTORE PUSH1 0x20 ADD PUSH0 KECCAK256 PUSH0 PUSH2 0x100 EXP DUP2 SLOAD DUP2 PUSH1 0xFF MUL NOT AND SWAP1 DUP4 ISZERO ISZERO MUL OR SWAP1 SSTORE POP DUP2 PUSH20 0xFFFFFFFFFFFFFFFFFFFFFFFFFFFFFFFFFFFFFFFF AND DUP4 PUSH20 0xFFFFFFFFFFFFFFFFFFFFFFFFFFFFFFFFFFFFFFFF AND PUSH32 0x17307EAB39AB6107E8899845AD3D59BD9653F200F220920489CA2B5937696C31 DUP4 PUSH1 0x40 MLOAD PUSH2 0xF4B SWAP2 SWAP1 PUSH2 0x1C29 JUMP JUMPDEST PUSH1 0x40 MLOAD DUP1 SWAP2 SUB SWAP1 LOG3 POP POP POP JUMP JUMPDEST PUSH0 PUSH20 0xFFFFFFFFFFFFFFFFFFFFFFFFFFFFFFFFFFFFFFFF AND DUP5 PUSH20 0xFFFFFFFFFFFFFFFFFFFFFFFFFFFFFFFFFFFFFFFF AND SUB PUSH2 0xFC8 JUMPI PUSH0 PUSH1 0x40 MLOAD PUSH32 0x57F447CE00000000000000000000000000000000000000000000000000000000 DUP2 MSTORE PUSH1 0x4 ADD PUSH2 0xFBF SWAP2 SWAP1 PUSH2 0x26EB JUMP JUMPDEST PUSH1 0x40 MLOAD DUP1 SWAP2 SUB SWAP1 REVERT JUMPDEST PUSH0 PUSH20 0xFFFFFFFFFFFFFFFFFFFFFFFFFFFFFFFFFFFFFFFF AND DUP6 PUSH20 0xFFFFFFFFFFFFFFFFFFFFFFFFFFFFFFFFFFFFFFFF AND SUB PUSH2 0x1038 JUMPI PUSH0 PUSH1 0x40 MLOAD PUSH32 0x1A8351400000000000000000000000000000000000000000000000000000000 DUP2 MSTORE PUSH1 0x4 ADD PUSH2 0x102F SWAP2 SWAP1 PUSH2 0x26EB JUMP JUMPDEST PUSH1 0x40 MLOAD DUP1 SWAP2 SUB SWAP1 REVERT JUMPDEST PUSH0 DUP1 PUSH2 0x1044 DUP6 DUP6 PUSH2 0x11AC JUMP JUMPDEST SWAP2 POP SWAP2 POP PUSH2 0x1055 DUP8 DUP8 DUP5 DUP5 DUP8 PUSH2 0x1100 JUMP JUMPDEST POP POP POP POP POP POP POP JUMP JUMPDEST PUSH0 PUSH20 0xFFFFFFFFFFFFFFFFFFFFFFFFFFFFFFFFFFFFFFFF AND DUP4 PUSH20 0xFFFFFFFFFFFFFFFFFFFFFFFFFFFFFFFFFFFFFFFF AND SUB PUSH2 0x10CE JUMPI PUSH0 PUSH1 0x40 MLOAD PUSH32 0x1A8351400000000000000000000000000000000000000000000000000000000 DUP2 MSTORE PUSH1 0x4 ADD PUSH2 0x10C5 SWAP2 SWAP1 PUSH2 0x26EB JUMP JUMPDEST PUSH1 0x40 MLOAD DUP1 SWAP2 SUB SWAP1 REVERT JUMPDEST PUSH0 DUP1 PUSH2 0x10DA DUP5 DUP5 PUSH2 0x11AC JUMP JUMPDEST SWAP2 POP SWAP2 POP PUSH2 0x10F9 DUP6 PUSH0 DUP5 DUP5 PUSH1 0x40 MLOAD DUP1 PUSH1 0x20 ADD PUSH1 0x40 MSTORE DUP1 PUSH0 DUP2 MSTORE POP PUSH2 0x1100 JUMP JUMPDEST POP POP POP POP POP JUMP JUMPDEST PUSH2 0x110C DUP6 DUP6 DUP6 DUP6 PUSH2 0x11DC JUMP JUMPDEST PUSH0 PUSH20 0xFFFFFFFFFFFFFFFFFFFFFFFFFFFFFFFFFFFFFFFF AND DUP5 PUSH20 0xFFFFFFFFFFFFFFFFFFFFFFFFFFFFFFFFFFFFFFFF AND EQ PUSH2 0x11A5 JUMPI PUSH0 PUSH2 0x1148 PUSH2 0xBA9 JUMP JUMPDEST SWAP1 POP PUSH1 0x1 DUP5 MLOAD SUB PUSH2 0x1194 JUMPI PUSH0 PUSH2 0x1167 PUSH0 DUP7 PUSH2 0xCB7 SWAP1 SWAP2 SWAP1 PUSH4 0xFFFFFFFF AND JUMP JUMPDEST SWAP1 POP PUSH0 PUSH2 0x117D PUSH0 DUP7 PUSH2 0xCB7 SWAP1 SWAP2 SWAP1 PUSH4 0xFFFFFFFF AND JUMP JUMPDEST SWAP1 POP PUSH2 0x118D DUP4 DUP10 DUP10 DUP6 DUP6 DUP10 PUSH2 0x11EE JUMP JUMPDEST POP POP PUSH2 0x11A3 JUMP JUMPDEST PUSH2 0x11A2 DUP2 DUP8 DUP8 DUP8 DUP8 DUP8 PUSH2 0x139D JUMP JUMPDEST JUMPDEST POP JUMPDEST POP POP POP POP POP JUMP JUMPDEST PUSH1 0x60 DUP1 PUSH1 0x40 MLOAD SWAP2 POP PUSH1 0x1 DUP3 MSTORE DUP4 PUSH1 0x20 DUP4 ADD MSTORE PUSH1 0x40 DUP3 ADD SWAP1 POP PUSH1 0x1 DUP2 MSTORE DUP3 PUSH1 0x20 DUP3 ADD MSTORE PUSH1 0x40 DUP2 ADD PUSH1 0x40 MSTORE SWAP3 POP SWAP3 SWAP1 POP JUMP JUMPDEST PUSH2 0x11E8 DUP5 DUP5 DUP5 DUP5 PUSH2 0x154C JUMP JUMPDEST POP POP POP POP JUMP JUMPDEST PUSH0 DUP5 PUSH20 0xFFFFFFFFFFFFFFFFFFFFFFFFFFFFFFFFFFFFFFFF AND EXTCODESIZE GT ISZERO PUSH2 0x1395 JUMPI DUP4 PUSH20 0xFFFFFFFFFFFFFFFFFFFFFFFFFFFFFFFFFFFFFFFF AND PUSH4 0xF23A6E61 DUP8 DUP8 DUP7 DUP7 DUP7 PUSH1 0x40 MLOAD DUP7 PUSH4 0xFFFFFFFF AND PUSH1 0xE0 SHL DUP2 MSTORE PUSH1 0x4 ADD PUSH2 0x124E SWAP6 SWAP5 SWAP4 SWAP3 SWAP2 SWAP1 PUSH2 0x2756 JUMP JUMPDEST PUSH1 0x20 PUSH1 0x40 MLOAD DUP1 DUP4 SUB DUP2 PUSH0 DUP8 GAS CALL SWAP3 POP POP POP DUP1 ISZERO PUSH2 0x1289 JUMPI POP PUSH1 0x40 MLOAD RETURNDATASIZE PUSH1 0x1F NOT PUSH1 0x1F DUP3 ADD AND DUP3 ADD DUP1 PUSH1 0x40 MSTORE POP DUP2 ADD SWAP1 PUSH2 0x1286 SWAP2 SWAP1 PUSH2 0x27C2 JUMP JUMPDEST PUSH1 0x1 JUMPDEST PUSH2 0x130A JUMPI RETURNDATASIZE DUP1 PUSH0 DUP2 EQ PUSH2 0x12B7 JUMPI PUSH1 0x40 MLOAD SWAP2 POP PUSH1 0x1F NOT PUSH1 0x3F RETURNDATASIZE ADD AND DUP3 ADD PUSH1 0x40 MSTORE RETURNDATASIZE DUP3 MSTORE RETURNDATASIZE PUSH0 PUSH1 0x20 DUP5 ADD RETURNDATACOPY PUSH2 0x12BC JUMP JUMPDEST PUSH1 0x60 SWAP2 POP JUMPDEST POP PUSH0 DUP2 MLOAD SUB PUSH2 0x1302 JUMPI DUP5 PUSH1 0x40 MLOAD PUSH32 0x57F447CE00000000000000000000000000000000000000000000000000000000 DUP2 MSTORE PUSH1 0x4 ADD PUSH2 0x12F9 SWAP2 SWAP1 PUSH2 0x26EB JUMP JUMPDEST PUSH1 0x40 MLOAD DUP1 SWAP2 SUB SWAP1 REVERT JUMPDEST DUP1 MLOAD DUP2 PUSH1 0x20 ADD REVERT JUMPDEST PUSH4 0xF23A6E61 PUSH1 0xE0 SHL PUSH28 0xFFFFFFFFFFFFFFFFFFFFFFFFFFFFFFFFFFFFFFFFFFFFFFFFFFFFFFFF NOT AND DUP2 PUSH28 0xFFFFFFFFFFFFFFFFFFFFFFFFFFFFFFFFFFFFFFFFFFFFFFFFFFFFFFFF NOT AND EQ PUSH2 0x1393 JUMPI DUP5 PUSH1 0x40 MLOAD PUSH32 0x57F447CE00000000000000000000000000000000000000000000000000000000 DUP2 MSTORE PUSH1 0x4 ADD PUSH2 0x138A SWAP2 SWAP1 PUSH2 0x26EB JUMP JUMPDEST PUSH1 0x40 MLOAD DUP1 SWAP2 SUB SWAP1 REVERT JUMPDEST POP JUMPDEST POP POP POP POP POP POP JUMP JUMPDEST PUSH0 DUP5 PUSH20 0xFFFFFFFFFFFFFFFFFFFFFFFFFFFFFFFFFFFFFFFF AND EXTCODESIZE GT ISZERO PUSH2 0x1544 JUMPI DUP4 PUSH20 0xFFFFFFFFFFFFFFFFFFFFFFFFFFFFFFFFFFFFFFFF AND PUSH4 0xBC197C81 DUP8 DUP8 DUP7 DUP7 DUP7 PUSH1 0x40 MLOAD DUP7 PUSH4 0xFFFFFFFF AND PUSH1 0xE0 SHL DUP2 MSTORE PUSH1 0x4 ADD PUSH2 0x13FD SWAP6 SWAP5 SWAP4 SWAP3 SWAP2 SWAP1 PUSH2 0x27ED JUMP JUMPDEST PUSH1 0x20 PUSH1 0x40 MLOAD DUP1 DUP4 SUB DUP2 PUSH0 DUP8 GAS CALL SWAP3 POP POP POP DUP1 ISZERO PUSH2 0x1438 JUMPI POP PUSH1 0x40 MLOAD RETURNDATASIZE PUSH1 0x1F NOT PUSH1 0x1F DUP3 ADD AND DUP3 ADD DUP1 PUSH1 0x40 MSTORE POP DUP2 ADD SWAP1 PUSH2 0x1435 SWAP2 SWAP1 PUSH2 0x27C2 JUMP JUMPDEST PUSH1 0x1 JUMPDEST PUSH2 0x14B9 JUMPI RETURNDATASIZE DUP1 PUSH0 DUP2 EQ PUSH2 0x1466 JUMPI PUSH1 0x40 MLOAD SWAP2 POP PUSH1 0x1F NOT PUSH1 0x3F RETURNDATASIZE ADD AND DUP3 ADD PUSH1 0x40 MSTORE RETURNDATASIZE DUP3 MSTORE RETURNDATASIZE PUSH0 PUSH1 0x20 DUP5 ADD RETURNDATACOPY PUSH2 0x146B JUMP JUMPDEST PUSH1 0x60 SWAP2 POP JUMPDEST POP PUSH0 DUP2 MLOAD SUB PUSH2 0x14B1 JUMPI DUP5 PUSH1 0x40 MLOAD PUSH32 0x57F447CE00000000000000000000000000000000000000000000000000000000 DUP2 MSTORE PUSH1 0x4 ADD PUSH2 0x14A8 SWAP2 SWAP1 PUSH2 0x26EB JUMP JUMPDEST PUSH1 0x40 MLOAD DUP1 SWAP2 SUB SWAP1 REVERT JUMPDEST DUP1 MLOAD DUP2 PUSH1 0x20 ADD REVERT JUMPDEST PUSH4 0xBC197C81 PUSH1 0xE0 SHL PUSH28 0xFFFFFFFFFFFFFFFFFFFFFFFFFFFFFFFFFFFFFFFFFFFFFFFFFFFFFFFF NOT AND DUP2 PUSH28 0xFFFFFFFFFFFFFFFFFFFFFFFFFFFFFFFFFFFFFFFFFFFFFFFFFFFFFFFF NOT AND EQ PUSH2 0x1542 JUMPI DUP5 PUSH1 0x40 MLOAD PUSH32 0x57F447CE00000000000000000000000000000000000000000000000000000000 DUP2 MSTORE PUSH1 0x4 ADD PUSH2 0x1539 SWAP2 SWAP1 PUSH2 0x26EB JUMP JUMPDEST PUSH1 0x40 MLOAD DUP1 SWAP2 SUB SWAP1 REVERT JUMPDEST POP JUMPDEST POP POP POP POP POP POP JUMP JUMPDEST PUSH2 0x1558 DUP5 DUP5 DUP5 DUP5 PUSH2 0x16F5 JUMP JUMPDEST PUSH0 PUSH20 0xFFFFFFFFFFFFFFFFFFFFFFFFFFFFFFFFFFFFFFFF AND DUP5 PUSH20 0xFFFFFFFFFFFFFFFFFFFFFFFFFFFFFFFFFFFFFFFF AND SUB PUSH2 0x1631 JUMPI PUSH0 DUP1 JUMPDEST DUP4 MLOAD DUP2 LT ISZERO PUSH2 0x1616 JUMPI PUSH0 DUP4 DUP3 DUP2 MLOAD DUP2 LT PUSH2 0x15AB JUMPI PUSH2 0x15AA PUSH2 0x264A JUMP JUMPDEST JUMPDEST PUSH1 0x20 MUL PUSH1 0x20 ADD ADD MLOAD SWAP1 POP DUP1 PUSH1 0x3 PUSH0 DUP8 DUP6 DUP2 MLOAD DUP2 LT PUSH2 0x15CC JUMPI PUSH2 0x15CB PUSH2 0x264A JUMP JUMPDEST JUMPDEST PUSH1 0x20 MUL PUSH1 0x20 ADD ADD MLOAD DUP2 MSTORE PUSH1 0x20 ADD SWAP1 DUP2 MSTORE PUSH1 0x20 ADD PUSH0 KECCAK256 PUSH0 DUP3 DUP3 SLOAD PUSH2 0x15EF SWAP2 SWAP1 PUSH2 0x2853 JUMP JUMPDEST SWAP3 POP POP DUP2 SWAP1 SSTORE POP DUP1 DUP4 PUSH2 0x1602 SWAP2 SWAP1 PUSH2 0x2853 JUMP JUMPDEST SWAP3 POP POP DUP1 PUSH2 0x160F SWAP1 PUSH2 0x26A4 JUMP JUMPDEST SWAP1 POP PUSH2 0x158E JUMP JUMPDEST POP DUP1 PUSH1 0x4 PUSH0 DUP3 DUP3 SLOAD PUSH2 0x1628 SWAP2 SWAP1 PUSH2 0x2853 JUMP JUMPDEST SWAP3 POP POP DUP2 SWAP1 SSTORE POP POP JUMPDEST PUSH0 PUSH20 0xFFFFFFFFFFFFFFFFFFFFFFFFFFFFFFFFFFFFFFFF AND DUP4 PUSH20 0xFFFFFFFFFFFFFFFFFFFFFFFFFFFFFFFFFFFFFFFF AND SUB PUSH2 0x16EF JUMPI PUSH0 DUP1 JUMPDEST DUP4 MLOAD DUP2 LT ISZERO PUSH2 0x16DD JUMPI PUSH0 DUP4 DUP3 DUP2 MLOAD DUP2 LT PUSH2 0x1684 JUMPI PUSH2 0x1683 PUSH2 0x264A JUMP JUMPDEST JUMPDEST PUSH1 0x20 MUL PUSH1 0x20 ADD ADD MLOAD SWAP1 POP DUP1 PUSH1 0x3 PUSH0 DUP8 DUP6 DUP2 MLOAD DUP2 LT PUSH2 0x16A5 JUMPI PUSH2 0x16A4 PUSH2 0x264A JUMP JUMPDEST JUMPDEST PUSH1 0x20 MUL PUSH1 0x20 ADD ADD MLOAD DUP2 MSTORE PUSH1 0x20 ADD SWAP1 DUP2 MSTORE PUSH1 0x20 ADD PUSH0 KECCAK256 PUSH0 DUP3 DUP3 SLOAD SUB SWAP3 POP POP DUP2 SWAP1 SSTORE POP DUP1 DUP4 ADD SWAP3 POP POP DUP1 PUSH2 0x16D6 SWAP1 PUSH2 0x26A4 JUMP JUMPDEST SWAP1 POP PUSH2 0x1667 JUMP JUMPDEST POP DUP1 PUSH1 0x4 PUSH0 DUP3 DUP3 SLOAD SUB SWAP3 POP POP DUP2 SWAP1 SSTORE POP POP JUMPDEST POP POP POP POP JUMP JUMPDEST DUP1 MLOAD DUP3 MLOAD EQ PUSH2 0x173F JUMPI DUP2 MLOAD DUP2 MLOAD PUSH1 0x40 MLOAD PUSH32 0x5B05999100000000000000000000000000000000000000000000000000000000 DUP2 MSTORE PUSH1 0x4 ADD PUSH2 0x1736 SWAP3 SWAP2 SWAP1 PUSH2 0x2623 JUMP JUMPDEST PUSH1 0x40 MLOAD DUP1 SWAP2 SUB SWAP1 REVERT JUMPDEST PUSH0 PUSH2 0x1748 PUSH2 0xBA9 JUMP JUMPDEST SWAP1 POP PUSH0 JUMPDEST DUP4 MLOAD DUP2 LT ISZERO PUSH2 0x194A JUMPI PUSH0 PUSH2 0x1769 DUP3 DUP7 PUSH2 0xCB7 SWAP1 SWAP2 SWAP1 PUSH4 0xFFFFFFFF AND JUMP JUMPDEST SWAP1 POP PUSH0 PUSH2 0x177F DUP4 DUP7 PUSH2 0xCB7 SWAP1 SWAP2 SWAP1 PUSH4 0xFFFFFFFF AND JUMP JUMPDEST SWAP1 POP PUSH0 PUSH20 0xFFFFFFFFFFFFFFFFFFFFFFFFFFFFFFFFFFFFFFFF AND DUP9 PUSH20 0xFFFFFFFFFFFFFFFFFFFFFFFFFFFFFFFFFFFFFFFF AND EQ PUSH2 0x18A2 JUMPI PUSH0 DUP1 PUSH0 DUP5 DUP2 MSTORE PUSH1 0x20 ADD SWAP1 DUP2 MSTORE PUSH1 0x20 ADD PUSH0 KECCAK256 PUSH0 DUP11 PUSH20 0xFFFFFFFFFFFFFFFFFFFFFFFFFFFFFFFFFFFFFFFF AND PUSH20 0xFFFFFFFFFFFFFFFFFFFFFFFFFFFFFFFFFFFFFFFF AND DUP2 MSTORE PUSH1 0x20 ADD SWAP1 DUP2 MSTORE PUSH1 0x20 ADD PUSH0 KECCAK256 SLOAD SWAP1 POP DUP2 DUP2 LT ISZERO PUSH2 0x184E JUMPI DUP9 DUP2 DUP4 DUP6 PUSH1 0x40 MLOAD PUSH32 0x3DEE4C500000000000000000000000000000000000000000000000000000000 DUP2 MSTORE PUSH1 0x4 ADD PUSH2 0x1845 SWAP5 SWAP4 SWAP3 SWAP2 SWAP1 PUSH2 0x2886 JUMP JUMPDEST PUSH1 0x40 MLOAD DUP1 SWAP2 SUB SWAP1 REVERT JUMPDEST DUP2 DUP2 SUB PUSH0 DUP1 DUP6 DUP2 MSTORE PUSH1 0x20 ADD SWAP1 DUP2 MSTORE PUSH1 0x20 ADD PUSH0 KECCAK256 PUSH0 DUP12 PUSH20 0xFFFFFFFFFFFFFFFFFFFFFFFFFFFFFFFFFFFFFFFF AND PUSH20 0xFFFFFFFFFFFFFFFFFFFFFFFFFFFFFFFFFFFFFFFF AND DUP2 MSTORE PUSH1 0x20 ADD SWAP1 DUP2 MSTORE PUSH1 0x20 ADD PUSH0 KECCAK256 DUP2 SWAP1 SSTORE POP POP JUMPDEST PUSH0 PUSH20 0xFFFFFFFFFFFFFFFFFFFFFFFFFFFFFFFFFFFFFFFF AND DUP8 PUSH20 0xFFFFFFFFFFFFFFFFFFFFFFFFFFFFFFFFFFFFFFFF AND EQ PUSH2 0x1937 JUMPI DUP1 PUSH0 DUP1 DUP5 DUP2 MSTORE PUSH1 0x20 ADD SWAP1 DUP2 MSTORE PUSH1 0x20 ADD PUSH0 KECCAK256 PUSH0 DUP10 PUSH20 0xFFFFFFFFFFFFFFFFFFFFFFFFFFFFFFFFFFFFFFFF AND PUSH20 0xFFFFFFFFFFFFFFFFFFFFFFFFFFFFFFFFFFFFFFFF AND DUP2 MSTORE PUSH1 0x20 ADD SWAP1 DUP2 MSTORE PUSH1 0x20 ADD PUSH0 KECCAK256 PUSH0 DUP3 DUP3 SLOAD PUSH2 0x192F SWAP2 SWAP1 PUSH2 0x2853 JUMP JUMPDEST SWAP3 POP POP DUP2 SWAP1 SSTORE POP JUMPDEST POP POP DUP1 PUSH2 0x1943 SWAP1 PUSH2 0x26A4 JUMP JUMPDEST SWAP1 POP PUSH2 0x174C JUMP JUMPDEST POP PUSH1 0x1 DUP4 MLOAD SUB PUSH2 0x1A05 JUMPI PUSH0 PUSH2 0x1968 PUSH0 DUP6 PUSH2 0xCB7 SWAP1 SWAP2 SWAP1 PUSH4 0xFFFFFFFF AND JUMP JUMPDEST SWAP1 POP PUSH0 PUSH2 0x197E PUSH0 DUP6 PUSH2 0xCB7 SWAP1 SWAP2 SWAP1 PUSH4 0xFFFFFFFF AND JUMP JUMPDEST SWAP1 POP DUP6 PUSH20 0xFFFFFFFFFFFFFFFFFFFFFFFFFFFFFFFFFFFFFFFF AND DUP8 PUSH20 0xFFFFFFFFFFFFFFFFFFFFFFFFFFFFFFFFFFFFFFFF AND DUP5 PUSH20 0xFFFFFFFFFFFFFFFFFFFFFFFFFFFFFFFFFFFFFFFF AND PUSH32 0xC3D58168C5AE7397731D063D5BBF3D657854427343F4C083240F7AACAA2D0F62 DUP6 DUP6 PUSH1 0x40 MLOAD PUSH2 0x19F6 SWAP3 SWAP2 SWAP1 PUSH2 0x2623 JUMP JUMPDEST PUSH1 0x40 MLOAD DUP1 SWAP2 SUB SWAP1 LOG4 POP POP PUSH2 0x1A84 JUMP JUMPDEST DUP4 PUSH20 0xFFFFFFFFFFFFFFFFFFFFFFFFFFFFFFFFFFFFFFFF AND DUP6 PUSH20 0xFFFFFFFFFFFFFFFFFFFFFFFFFFFFFFFFFFFFFFFF AND DUP3 PUSH20 0xFFFFFFFFFFFFFFFFFFFFFFFFFFFFFFFFFFFFFFFF AND PUSH32 0x4A39DC06D4C0DBC64B70AF90FD698A233A518AA5D07E595D983B8C0526C8F7FB DUP7 DUP7 PUSH1 0x40 MLOAD PUSH2 0x1A7B SWAP3 SWAP2 SWAP1 PUSH2 0x28C9 JUMP JUMPDEST PUSH1 0x40 MLOAD DUP1 SWAP2 SUB SWAP1 LOG4 JUMPDEST POP POP POP POP POP JUMP JUMPDEST PUSH0 PUSH1 0x40 MLOAD SWAP1 POP SWAP1 JUMP JUMPDEST PUSH0 DUP1 REVERT JUMPDEST PUSH0 DUP1 REVERT JUMPDEST PUSH0 PUSH20 0xFFFFFFFFFFFFFFFFFFFFFFFFFFFFFFFFFFFFFFFF DUP3 AND SWAP1 POP SWAP2 SWAP1 POP JUMP JUMPDEST PUSH0 PUSH2 0x1AC5 DUP3 PUSH2 0x1A9C JUMP JUMPDEST SWAP1 POP SWAP2 SWAP1 POP JUMP JUMPDEST PUSH2 0x1AD5 DUP2 PUSH2 0x1ABB JUMP JUMPDEST DUP2 EQ PUSH2 0x1ADF JUMPI PUSH0 DUP1 REVERT JUMPDEST POP JUMP JUMPDEST PUSH0 DUP2 CALLDATALOAD SWAP1 POP PUSH2 0x1AF0 DUP2 PUSH2 0x1ACC JUMP JUMPDEST SWAP3 SWAP2 POP POP JUMP JUMPDEST PUSH0 DUP2 SWAP1 POP SWAP2 SWAP1 POP JUMP JUMPDEST PUSH2 0x1B08 DUP2 PUSH2 0x1AF6 JUMP JUMPDEST DUP2 EQ PUSH2 0x1B12 JUMPI PUSH0 DUP1 REVERT JUMPDEST POP JUMP JUMPDEST PUSH0 DUP2 CALLDATALOAD SWAP1 POP PUSH2 0x1B23 DUP2 PUSH2 0x1AFF JUMP JUMPDEST SWAP3 SWAP2 POP POP JUMP JUMPDEST PUSH0 DUP1 PUSH1 0x40 DUP4 DUP6 SUB SLT ISZERO PUSH2 0x1B3F JUMPI PUSH2 0x1B3E PUSH2 0x1A94 JUMP JUMPDEST JUMPDEST PUSH0 PUSH2 0x1B4C DUP6 DUP3 DUP7 ADD PUSH2 0x1AE2 JUMP JUMPDEST SWAP3 POP POP PUSH1 0x20 PUSH2 0x1B5D DUP6 DUP3 DUP7 ADD PUSH2 0x1B15 JUMP JUMPDEST SWAP2 POP POP SWAP3 POP SWAP3 SWAP1 POP JUMP JUMPDEST PUSH2 0x1B70 DUP2 PUSH2 0x1AF6 JUMP JUMPDEST DUP3 MSTORE POP POP JUMP JUMPDEST PUSH0 PUSH1 0x20 DUP3 ADD SWAP1 POP PUSH2 0x1B89 PUSH0 DUP4 ADD DUP5 PUSH2 0x1B67 JUMP JUMPDEST SWAP3 SWAP2 POP POP JUMP JUMPDEST PUSH0 PUSH32 0xFFFFFFFF00000000000000000000000000000000000000000000000000000000 DUP3 AND SWAP1 POP SWAP2 SWAP1 POP JUMP JUMPDEST PUSH2 0x1BC3 DUP2 PUSH2 0x1B8F JUMP JUMPDEST DUP2 EQ PUSH2 0x1BCD JUMPI PUSH0 DUP1 REVERT JUMPDEST POP JUMP JUMPDEST PUSH0 DUP2 CALLDATALOAD SWAP1 POP PUSH2 0x1BDE DUP2 PUSH2 0x1BBA JUMP JUMPDEST SWAP3 SWAP2 POP POP JUMP JUMPDEST PUSH0 PUSH1 0x20 DUP3 DUP5 SUB SLT ISZERO PUSH2 0x1BF9 JUMPI PUSH2 0x1BF8 PUSH2 0x1A94 JUMP JUMPDEST JUMPDEST PUSH0 PUSH2 0x1C06 DUP5 DUP3 DUP6 ADD PUSH2 0x1BD0 JUMP JUMPDEST SWAP2 POP POP SWAP3 SWAP2 POP POP JUMP JUMPDEST PUSH0 DUP2 ISZERO ISZERO SWAP1 POP SWAP2 SWAP1 POP JUMP JUMPDEST PUSH2 0x1C23 DUP2 PUSH2 0x1C0F JUMP JUMPDEST DUP3 MSTORE POP POP JUMP JUMPDEST PUSH0 PUSH1 0x20 DUP3 ADD SWAP1 POP PUSH2 0x1C3C PUSH0 DUP4 ADD DUP5 PUSH2 0x1C1A JUMP JUMPDEST SWAP3 SWAP2 POP POP JUMP JUMPDEST PUSH0 PUSH1 0x20 DUP3 DUP5 SUB SLT ISZERO PUSH2 0x1C57 JUMPI PUSH2 0x1C56 PUSH2 0x1A94 JUMP JUMPDEST JUMPDEST PUSH0 PUSH2 0x1C64 DUP5 DUP3 DUP6 ADD PUSH2 0x1B15 JUMP JUMPDEST SWAP2 POP POP SWAP3 SWAP2 POP POP JUMP JUMPDEST PUSH0 DUP2 MLOAD SWAP1 POP SWAP2 SWAP1 POP JUMP JUMPDEST PUSH0 DUP3 DUP3 MSTORE PUSH1 0x20 DUP3 ADD SWAP1 POP SWAP3 SWAP2 POP POP JUMP JUMPDEST PUSH0 JUMPDEST DUP4 DUP2 LT ISZERO PUSH2 0x1CA4 JUMPI DUP1 DUP3 ADD MLOAD DUP2 DUP5 ADD MSTORE PUSH1 0x20 DUP2 ADD SWAP1 POP PUSH2 0x1C89 JUMP JUMPDEST PUSH0 DUP5 DUP5 ADD MSTORE POP POP POP POP JUMP JUMPDEST PUSH0 PUSH1 0x1F NOT PUSH1 0x1F DUP4 ADD AND SWAP1 POP SWAP2 SWAP1 POP JUMP JUMPDEST PUSH0 PUSH2 0x1CC9 DUP3 PUSH2 0x1C6D JUMP JUMPDEST PUSH2 0x1CD3 DUP2 DUP6 PUSH2 0x1C77 JUMP JUMPDEST SWAP4 POP PUSH2 0x1CE3 DUP2 DUP6 PUSH1 0x20 DUP7 ADD PUSH2 0x1C87 JUMP JUMPDEST PUSH2 0x1CEC DUP2 PUSH2 0x1CAF JUMP JUMPDEST DUP5 ADD SWAP2 POP POP SWAP3 SWAP2 POP POP JUMP JUMPDEST PUSH0 PUSH1 0x20 DUP3 ADD SWAP1 POP DUP2 DUP2 SUB PUSH0 DUP4 ADD MSTORE PUSH2 0x1D0F DUP2 DUP5 PUSH2 0x1CBF JUMP JUMPDEST SWAP1 POP SWAP3 SWAP2 POP POP JUMP JUMPDEST PUSH0 DUP1 REVERT JUMPDEST PUSH32 0x4E487B7100000000000000000000000000000000000000000000000000000000 PUSH0 MSTORE PUSH1 0x41 PUSH1 0x4 MSTORE PUSH1 0x24 PUSH0 REVERT JUMPDEST PUSH2 0x1D51 DUP3 PUSH2 0x1CAF JUMP JUMPDEST DUP2 ADD DUP2 DUP2 LT PUSH8 0xFFFFFFFFFFFFFFFF DUP3 GT OR ISZERO PUSH2 0x1D70 JUMPI PUSH2 0x1D6F PUSH2 0x1D1B JUMP JUMPDEST JUMPDEST DUP1 PUSH1 0x40 MSTORE POP POP POP JUMP JUMPDEST PUSH0 PUSH2 0x1D82 PUSH2 0x1A8B JUMP JUMPDEST SWAP1 POP PUSH2 0x1D8E DUP3 DUP3 PUSH2 0x1D48 JUMP JUMPDEST SWAP2 SWAP1 POP JUMP JUMPDEST PUSH0 PUSH8 0xFFFFFFFFFFFFFFFF DUP3 GT ISZERO PUSH2 0x1DAD JUMPI PUSH2 0x1DAC PUSH2 0x1D1B JUMP JUMPDEST JUMPDEST PUSH1 0x20 DUP3 MUL SWAP1 POP PUSH1 0x20 DUP2 ADD SWAP1 POP SWAP2 SWAP1 POP JUMP JUMPDEST PUSH0 DUP1 REVERT JUMPDEST PUSH0 PUSH2 0x1DD4 PUSH2 0x1DCF DUP5 PUSH2 0x1D93 JUMP JUMPDEST PUSH2 0x1D79 JUMP JUMPDEST SWAP1 POP DUP1 DUP4 DUP3 MSTORE PUSH1 0x20 DUP3 ADD SWAP1 POP PUSH1 0x20 DUP5 MUL DUP4 ADD DUP6 DUP2 GT ISZERO PUSH2 0x1DF7 JUMPI PUSH2 0x1DF6 PUSH2 0x1DBE JUMP JUMPDEST JUMPDEST DUP4 JUMPDEST DUP2 DUP2 LT ISZERO PUSH2 0x1E20 JUMPI DUP1 PUSH2 0x1E0C DUP9 DUP3 PUSH2 0x1B15 JUMP JUMPDEST DUP5 MSTORE PUSH1 0x20 DUP5 ADD SWAP4 POP POP PUSH1 0x20 DUP2 ADD SWAP1 POP PUSH2 0x1DF9 JUMP JUMPDEST POP POP POP SWAP4 SWAP3 POP POP POP JUMP JUMPDEST PUSH0 DUP3 PUSH1 0x1F DUP4 ADD SLT PUSH2 0x1E3E JUMPI PUSH2 0x1E3D PUSH2 0x1D17 JUMP JUMPDEST JUMPDEST DUP2 CALLDATALOAD PUSH2 0x1E4E DUP5 DUP3 PUSH1 0x20 DUP7 ADD PUSH2 0x1DC2 JUMP JUMPDEST SWAP2 POP POP SWAP3 SWAP2 POP POP JUMP JUMPDEST PUSH0 DUP1 REVERT JUMPDEST PUSH0 PUSH8 0xFFFFFFFFFFFFFFFF DUP3 GT ISZERO PUSH2 0x1E75 JUMPI PUSH2 0x1E74 PUSH2 0x1D1B JUMP JUMPDEST JUMPDEST PUSH2 0x1E7E DUP3 PUSH2 0x1CAF JUMP JUMPDEST SWAP1 POP PUSH1 0x20 DUP2 ADD SWAP1 POP SWAP2 SWAP1 POP JUMP JUMPDEST DUP3 DUP2 DUP4 CALLDATACOPY PUSH0 DUP4 DUP4 ADD MSTORE POP POP POP JUMP JUMPDEST PUSH0 PUSH2 0x1EAB PUSH2 0x1EA6 DUP5 PUSH2 0x1E5B JUMP JUMPDEST PUSH2 0x1D79 JUMP JUMPDEST SWAP1 POP DUP3 DUP2 MSTORE PUSH1 0x20 DUP2 ADD DUP5 DUP5 DUP5 ADD GT ISZERO PUSH2 0x1EC7 JUMPI PUSH2 0x1EC6 PUSH2 0x1E57 JUMP JUMPDEST JUMPDEST PUSH2 0x1ED2 DUP5 DUP3 DUP6 PUSH2 0x1E8B JUMP JUMPDEST POP SWAP4 SWAP3 POP POP POP JUMP JUMPDEST PUSH0 DUP3 PUSH1 0x1F DUP4 ADD SLT PUSH2 0x1EEE JUMPI PUSH2 0x1EED PUSH2 0x1D17 JUMP JUMPDEST JUMPDEST DUP2 CALLDATALOAD PUSH2 0x1EFE DUP5 DUP3 PUSH1 0x20 DUP7 ADD PUSH2 0x1E99 JUMP JUMPDEST SWAP2 POP POP SWAP3 SWAP2 POP POP JUMP JUMPDEST PUSH0 DUP1 PUSH0 DUP1 PUSH1 0x80 DUP6 DUP8 SUB SLT ISZERO PUSH2 0x1F1F JUMPI PUSH2 0x1F1E PUSH2 0x1A94 JUMP JUMPDEST JUMPDEST PUSH0 PUSH2 0x1F2C DUP8 DUP3 DUP9 ADD PUSH2 0x1AE2 JUMP JUMPDEST SWAP5 POP POP PUSH1 0x20 DUP6 ADD CALLDATALOAD PUSH8 0xFFFFFFFFFFFFFFFF DUP2 GT ISZERO PUSH2 0x1F4D JUMPI PUSH2 0x1F4C PUSH2 0x1A98 JUMP JUMPDEST JUMPDEST PUSH2 0x1F59 DUP8 DUP3 DUP9 ADD PUSH2 0x1E2A JUMP JUMPDEST SWAP4 POP POP PUSH1 0x40 DUP6 ADD CALLDATALOAD PUSH8 0xFFFFFFFFFFFFFFFF DUP2 GT ISZERO PUSH2 0x1F7A JUMPI PUSH2 0x1F79 PUSH2 0x1A98 JUMP JUMPDEST JUMPDEST PUSH2 0x1F86 DUP8 DUP3 DUP9 ADD PUSH2 0x1E2A JUMP JUMPDEST SWAP3 POP POP PUSH1 0x60 DUP6 ADD CALLDATALOAD PUSH8 0xFFFFFFFFFFFFFFFF DUP2 GT ISZERO PUSH2 0x1FA7 JUMPI PUSH2 0x1FA6 PUSH2 0x1A98 JUMP JUMPDEST JUMPDEST PUSH2 0x1FB3 DUP8 DUP3 DUP9 ADD PUSH2 0x1EDA JUMP JUMPDEST SWAP2 POP POP SWAP3 SWAP6 SWAP2 SWAP5 POP SWAP3 POP JUMP JUMPDEST PUSH0 DUP1 PUSH0 DUP1 PUSH0 PUSH1 0xA0 DUP7 DUP9 SUB SLT ISZERO PUSH2 0x1FD8 JUMPI PUSH2 0x1FD7 PUSH2 0x1A94 JUMP JUMPDEST JUMPDEST PUSH0 PUSH2 0x1FE5 DUP9 DUP3 DUP10 ADD PUSH2 0x1AE2 JUMP JUMPDEST SWAP6 POP POP PUSH1 0x20 PUSH2 0x1FF6 DUP9 DUP3 DUP10 ADD PUSH2 0x1AE2 JUMP JUMPDEST SWAP5 POP POP PUSH1 0x40 DUP7 ADD CALLDATALOAD PUSH8 0xFFFFFFFFFFFFFFFF DUP2 GT ISZERO PUSH2 0x2017 JUMPI PUSH2 0x2016 PUSH2 0x1A98 JUMP JUMPDEST JUMPDEST PUSH2 0x2023 DUP9 DUP3 DUP10 ADD PUSH2 0x1E2A JUMP JUMPDEST SWAP4 POP POP PUSH1 0x60 DUP7 ADD CALLDATALOAD PUSH8 0xFFFFFFFFFFFFFFFF DUP2 GT ISZERO PUSH2 0x2044 JUMPI PUSH2 0x2043 PUSH2 0x1A98 JUMP JUMPDEST JUMPDEST PUSH2 0x2050 DUP9 DUP3 DUP10 ADD PUSH2 0x1E2A JUMP JUMPDEST SWAP3 POP POP PUSH1 0x80 DUP7 ADD CALLDATALOAD PUSH8 0xFFFFFFFFFFFFFFFF DUP2 GT ISZERO PUSH2 0x2071 JUMPI PUSH2 0x2070 PUSH2 0x1A98 JUMP JUMPDEST JUMPDEST PUSH2 0x207D DUP9 DUP3 DUP10 ADD PUSH2 0x1EDA JUMP JUMPDEST SWAP2 POP POP SWAP3 SWAP6 POP SWAP3 SWAP6 SWAP1 SWAP4 POP JUMP JUMPDEST PUSH0 PUSH8 0xFFFFFFFFFFFFFFFF DUP3 GT ISZERO PUSH2 0x20A4 JUMPI PUSH2 0x20A3 PUSH2 0x1D1B JUMP JUMPDEST JUMPDEST PUSH1 0x20 DUP3 MUL SWAP1 POP PUSH1 0x20 DUP2 ADD SWAP1 POP SWAP2 SWAP1 POP JUMP JUMPDEST PUSH0 PUSH2 0x20C7 PUSH2 0x20C2 DUP5 PUSH2 0x208A JUMP JUMPDEST PUSH2 0x1D79 JUMP JUMPDEST SWAP1 POP DUP1 DUP4 DUP3 MSTORE PUSH1 0x20 DUP3 ADD SWAP1 POP PUSH1 0x20 DUP5 MUL DUP4 ADD DUP6 DUP2 GT ISZERO PUSH2 0x20EA JUMPI PUSH2 0x20E9 PUSH2 0x1DBE JUMP JUMPDEST JUMPDEST DUP4 JUMPDEST DUP2 DUP2 LT ISZERO PUSH2 0x2113 JUMPI DUP1 PUSH2 0x20FF DUP9 DUP3 PUSH2 0x1AE2 JUMP JUMPDEST DUP5 MSTORE PUSH1 0x20 DUP5 ADD SWAP4 POP POP PUSH1 0x20 DUP2 ADD SWAP1 POP PUSH2 0x20EC JUMP JUMPDEST POP POP POP SWAP4 SWAP3 POP POP POP JUMP JUMPDEST PUSH0 DUP3 PUSH1 0x1F DUP4 ADD SLT PUSH2 0x2131 JUMPI PUSH2 0x2130 PUSH2 0x1D17 JUMP JUMPDEST JUMPDEST DUP2 CALLDATALOAD PUSH2 0x2141 DUP5 DUP3 PUSH1 0x20 DUP7 ADD PUSH2 0x20B5 JUMP JUMPDEST SWAP2 POP POP SWAP3 SWAP2 POP POP JUMP JUMPDEST PUSH0 DUP1 PUSH1 0x40 DUP4 DUP6 SUB SLT ISZERO PUSH2 0x2160 JUMPI PUSH2 0x215F PUSH2 0x1A94 JUMP JUMPDEST JUMPDEST PUSH0 DUP4 ADD CALLDATALOAD PUSH8 0xFFFFFFFFFFFFFFFF DUP2 GT ISZERO PUSH2 0x217D JUMPI PUSH2 0x217C PUSH2 0x1A98 JUMP JUMPDEST JUMPDEST PUSH2 0x2189 DUP6 DUP3 DUP7 ADD PUSH2 0x211D JUMP JUMPDEST SWAP3 POP POP PUSH1 0x20 DUP4 ADD CALLDATALOAD PUSH8 0xFFFFFFFFFFFFFFFF DUP2 GT ISZERO PUSH2 0x21AA JUMPI PUSH2 0x21A9 PUSH2 0x1A98 JUMP JUMPDEST JUMPDEST PUSH2 0x21B6 DUP6 DUP3 DUP7 ADD PUSH2 0x1E2A JUMP JUMPDEST SWAP2 POP POP SWAP3 POP SWAP3 SWAP1 POP JUMP JUMPDEST PUSH0 DUP2 MLOAD SWAP1 POP SWAP2 SWAP1 POP JUMP JUMPDEST PUSH0 DUP3 DUP3 MSTORE PUSH1 0x20 DUP3 ADD SWAP1 POP SWAP3 SWAP2 POP POP JUMP JUMPDEST PUSH0 DUP2 SWAP1 POP PUSH1 0x20 DUP3 ADD SWAP1 POP SWAP2 SWAP1 POP JUMP JUMPDEST PUSH2 0x21F2 DUP2 PUSH2 0x1AF6 JUMP JUMPDEST DUP3 MSTORE POP POP JUMP JUMPDEST PUSH0 PUSH2 0x2203 DUP4 DUP4 PUSH2 0x21E9 JUMP JUMPDEST PUSH1 0x20 DUP4 ADD SWAP1 POP SWAP3 SWAP2 POP POP JUMP JUMPDEST PUSH0 PUSH1 0x20 DUP3 ADD SWAP1 POP SWAP2 SWAP1 POP JUMP JUMPDEST PUSH0 PUSH2 0x2225 DUP3 PUSH2 0x21C0 JUMP JUMPDEST PUSH2 0x222F DUP2 DUP6 PUSH2 0x21CA JUMP JUMPDEST SWAP4 POP PUSH2 0x223A DUP4 PUSH2 0x21DA JUMP JUMPDEST DUP1 PUSH0 JUMPDEST DUP4 DUP2 LT ISZERO PUSH2 0x226A JUMPI DUP2 MLOAD PUSH2 0x2251 DUP9 DUP3 PUSH2 0x21F8 JUMP JUMPDEST SWAP8 POP PUSH2 0x225C DUP4 PUSH2 0x220F JUMP JUMPDEST SWAP3 POP POP PUSH1 0x1 DUP2 ADD SWAP1 POP PUSH2 0x223D JUMP JUMPDEST POP DUP6 SWAP4 POP POP POP POP SWAP3 SWAP2 POP POP JUMP JUMPDEST PUSH0 PUSH1 0x20 DUP3 ADD SWAP1 POP DUP2 DUP2 SUB PUSH0 DUP4 ADD MSTORE PUSH2 0x228F DUP2 DUP5 PUSH2 0x221B JUMP JUMPDEST SWAP1 POP SWAP3 SWAP2 POP POP JUMP JUMPDEST PUSH0 DUP1 PUSH0 PUSH1 0x60 DUP5 DUP7 SUB SLT ISZERO PUSH2 0x22AE JUMPI PUSH2 0x22AD PUSH2 0x1A94 JUMP JUMPDEST JUMPDEST PUSH0 PUSH2 0x22BB DUP7 DUP3 DUP8 ADD PUSH2 0x1AE2 JUMP JUMPDEST SWAP4 POP POP PUSH1 0x20 DUP5 ADD CALLDATALOAD PUSH8 0xFFFFFFFFFFFFFFFF DUP2 GT ISZERO PUSH2 0x22DC JUMPI PUSH2 0x22DB PUSH2 0x1A98 JUMP JUMPDEST JUMPDEST PUSH2 0x22E8 DUP7 DUP3 DUP8 ADD PUSH2 0x1E2A JUMP JUMPDEST SWAP3 POP POP PUSH1 0x40 DUP5 ADD CALLDATALOAD PUSH8 0xFFFFFFFFFFFFFFFF DUP2 GT ISZERO PUSH2 0x2309 JUMPI PUSH2 0x2308 PUSH2 0x1A98 JUMP JUMPDEST JUMPDEST PUSH2 0x2315 DUP7 DUP3 DUP8 ADD PUSH2 0x1E2A JUMP JUMPDEST SWAP2 POP POP SWAP3 POP SWAP3 POP SWAP3 JUMP JUMPDEST PUSH0 DUP1 PUSH0 DUP1 PUSH1 0x80 DUP6 DUP8 SUB SLT ISZERO PUSH2 0x2337 JUMPI PUSH2 0x2336 PUSH2 0x1A94 JUMP JUMPDEST JUMPDEST PUSH0 PUSH2 0x2344 DUP8 DUP3 DUP9 ADD PUSH2 0x1AE2 JUMP JUMPDEST SWAP5 POP POP PUSH1 0x20 PUSH2 0x2355 DUP8 DUP3 DUP9 ADD PUSH2 0x1B15 JUMP JUMPDEST SWAP4 POP POP PUSH1 0x40 PUSH2 0x2366 DUP8 DUP3 DUP9 ADD PUSH2 0x1B15 JUMP JUMPDEST SWAP3 POP POP PUSH1 0x60 DUP6 ADD CALLDATALOAD PUSH8 0xFFFFFFFFFFFFFFFF DUP2 GT ISZERO PUSH2 0x2387 JUMPI PUSH2 0x2386 PUSH2 0x1A98 JUMP JUMPDEST JUMPDEST PUSH2 0x2393 DUP8 DUP3 DUP9 ADD PUSH2 0x1EDA JUMP JUMPDEST SWAP2 POP POP SWAP3 SWAP6 SWAP2 SWAP5 POP SWAP3 POP JUMP JUMPDEST PUSH2 0x23A8 DUP2 PUSH2 0x1C0F JUMP JUMPDEST DUP2 EQ PUSH2 0x23B2 JUMPI PUSH0 DUP1 REVERT JUMPDEST POP JUMP JUMPDEST PUSH0 DUP2 CALLDATALOAD SWAP1 POP PUSH2 0x23C3 DUP2 PUSH2 0x239F JUMP JUMPDEST SWAP3 SWAP2 POP POP JUMP JUMPDEST PUSH0 DUP1 PUSH1 0x40 DUP4 DUP6 SUB SLT ISZERO PUSH2 0x23DF JUMPI PUSH2 0x23DE PUSH2 0x1A94 JUMP JUMPDEST JUMPDEST PUSH0 PUSH2 0x23EC DUP6 DUP3 DUP7 ADD PUSH2 0x1AE2 JUMP JUMPDEST SWAP3 POP POP PUSH1 0x20 PUSH2 0x23FD DUP6 DUP3 DUP7 ADD PUSH2 0x23B5 JUMP JUMPDEST SWAP2 POP POP SWAP3 POP SWAP3 SWAP1 POP JUMP JUMPDEST PUSH0 DUP1 PUSH1 0x40 DUP4 DUP6 SUB SLT ISZERO PUSH2 0x241D JUMPI PUSH2 0x241C PUSH2 0x1A94 JUMP JUMPDEST JUMPDEST PUSH0 PUSH2 0x242A DUP6 DUP3 DUP7 ADD PUSH2 0x1AE2 JUMP JUMPDEST SWAP3 POP POP PUSH1 0x20 PUSH2 0x243B DUP6 DUP3 DUP7 ADD PUSH2 0x1AE2 JUMP JUMPDEST SWAP2 POP POP SWAP3 POP SWAP3 SWAP1 POP JUMP JUMPDEST PUSH0 DUP1 PUSH0 DUP1 PUSH0 PUSH1 0xA0 DUP7 DUP9 SUB SLT ISZERO PUSH2 0x245E JUMPI PUSH2 0x245D PUSH2 0x1A94 JUMP JUMPDEST JUMPDEST PUSH0 PUSH2 0x246B DUP9 DUP3 DUP10 ADD PUSH2 0x1AE2 JUMP JUMPDEST SWAP6 POP POP PUSH1 0x20 PUSH2 0x247C DUP9 DUP3 DUP10 ADD PUSH2 0x1AE2 JUMP JUMPDEST SWAP5 POP POP PUSH1 0x40 PUSH2 0x248D DUP9 DUP3 DUP10 ADD PUSH2 0x1B15 JUMP JUMPDEST SWAP4 POP POP PUSH1 0x60 PUSH2 0x249E DUP9 DUP3 DUP10 ADD PUSH2 0x1B15 JUMP JUMPDEST SWAP3 POP POP PUSH1 0x80 DUP7 ADD CALLDATALOAD PUSH8 0xFFFFFFFFFFFFFFFF DUP2 GT ISZERO PUSH2 0x24BF JUMPI PUSH2 0x24BE PUSH2 0x1A98 JUMP JUMPDEST JUMPDEST PUSH2 0x24CB DUP9 DUP3 DUP10 ADD PUSH2 0x1EDA JUMP JUMPDEST SWAP2 POP POP SWAP3 SWAP6 POP SWAP3 SWAP6 SWAP1 SWAP4 POP JUMP JUMPDEST PUSH0 DUP1 PUSH0 PUSH1 0x60 DUP5 DUP7 SUB SLT ISZERO PUSH2 0x24EF JUMPI PUSH2 0x24EE PUSH2 0x1A94 JUMP JUMPDEST JUMPDEST PUSH0 PUSH2 0x24FC DUP7 DUP3 DUP8 ADD PUSH2 0x1AE2 JUMP JUMPDEST SWAP4 POP POP PUSH1 0x20 PUSH2 0x250D DUP7 DUP3 DUP8 ADD PUSH2 0x1B15 JUMP JUMPDEST SWAP3 POP POP PUSH1 0x40 PUSH2 0x251E DUP7 DUP3 DUP8 ADD PUSH2 0x1B15 JUMP JUMPDEST SWAP2 POP POP SWAP3 POP SWAP3 POP SWAP3 JUMP JUMPDEST PUSH32 0x4E487B7100000000000000000000000000000000000000000000000000000000 PUSH0 MSTORE PUSH1 0x22 PUSH1 0x4 MSTORE PUSH1 0x24 PUSH0 REVERT JUMPDEST PUSH0 PUSH1 0x2 DUP3 DIV SWAP1 POP PUSH1 0x1 DUP3 AND DUP1 PUSH2 0x256C JUMPI PUSH1 0x7F DUP3 AND SWAP2 POP JUMPDEST PUSH1 0x20 DUP3 LT DUP2 SUB PUSH2 0x257F JUMPI PUSH2 0x257E PUSH2 0x2528 JUMP JUMPDEST JUMPDEST POP SWAP2 SWAP1 POP JUMP JUMPDEST PUSH32 0x4F6E6C792067616D6520636F6E74726163742063616E2063616C6C2E00000000 PUSH0 DUP3 ADD MSTORE POP JUMP JUMPDEST PUSH0 PUSH2 0x25B9 PUSH1 0x1C DUP4 PUSH2 0x1C77 JUMP JUMPDEST SWAP2 POP PUSH2 0x25C4 DUP3 PUSH2 0x2585 JUMP JUMPDEST PUSH1 0x20 DUP3 ADD SWAP1 POP SWAP2 SWAP1 POP JUMP JUMPDEST PUSH0 PUSH1 0x20 DUP3 ADD SWAP1 POP DUP2 DUP2 SUB PUSH0 DUP4 ADD MSTORE PUSH2 0x25E6 DUP2 PUSH2 0x25AD JUMP JUMPDEST SWAP1 POP SWAP2 SWAP1 POP JUMP JUMPDEST PUSH2 0x25F6 DUP2 PUSH2 0x1ABB JUMP JUMPDEST DUP3 MSTORE POP POP JUMP JUMPDEST PUSH0 PUSH1 0x40 DUP3 ADD SWAP1 POP PUSH2 0x260F PUSH0 DUP4 ADD DUP6 PUSH2 0x25ED JUMP JUMPDEST PUSH2 0x261C PUSH1 0x20 DUP4 ADD DUP5 PUSH2 0x25ED JUMP JUMPDEST SWAP4 SWAP3 POP POP POP JUMP JUMPDEST PUSH0 PUSH1 0x40 DUP3 ADD SWAP1 POP PUSH2 0x2636 PUSH0 DUP4 ADD DUP6 PUSH2 0x1B67 JUMP JUMPDEST PUSH2 0x2643 PUSH1 0x20 DUP4 ADD DUP5 PUSH2 0x1B67 JUMP JUMPDEST SWAP4 SWAP3 POP POP POP JUMP JUMPDEST PUSH32 0x4E487B7100000000000000000000000000000000000000000000000000000000 PUSH0 MSTORE PUSH1 0x32 PUSH1 0x4 MSTORE PUSH1 0x24 PUSH0 REVERT JUMPDEST PUSH32 0x4E487B7100000000000000000000000000000000000000000000000000000000 PUSH0 MSTORE PUSH1 0x11 PUSH1 0x4 MSTORE PUSH1 0x24 PUSH0 REVERT JUMPDEST PUSH0 PUSH2 0x26AE DUP3 PUSH2 0x1AF6 JUMP JUMPDEST SWAP2 POP PUSH32 0xFFFFFFFFFFFFFFFFFFFFFFFFFFFFFFFFFFFFFFFFFFFFFFFFFFFFFFFFFFFFFFFF DUP3 SUB PUSH2 0x26E0 JUMPI PUSH2 0x26DF PUSH2 0x2677 JUMP JUMPDEST JUMPDEST PUSH1 0x1 DUP3 ADD SWAP1 POP SWAP2 SWAP1 POP JUMP JUMPDEST PUSH0 PUSH1 0x20 DUP3 ADD SWAP1 POP PUSH2 0x26FE PUSH0 DUP4 ADD DUP5 PUSH2 0x25ED JUMP JUMPDEST SWAP3 SWAP2 POP POP JUMP JUMPDEST PUSH0 DUP2 MLOAD SWAP1 POP SWAP2 SWAP1 POP JUMP JUMPDEST PUSH0 DUP3 DUP3 MSTORE PUSH1 0x20 DUP3 ADD SWAP1 POP SWAP3 SWAP2 POP POP JUMP JUMPDEST PUSH0 PUSH2 0x2728 DUP3 PUSH2 0x2704 JUMP JUMPDEST PUSH2 0x2732 DUP2 DUP6 PUSH2 0x270E JUMP JUMPDEST SWAP4 POP PUSH2 0x2742 DUP2 DUP6 PUSH1 0x20 DUP7 ADD PUSH2 0x1C87 JUMP JUMPDEST PUSH2 0x274B DUP2 PUSH2 0x1CAF JUMP JUMPDEST DUP5 ADD SWAP2 POP POP SWAP3 SWAP2 POP POP JUMP JUMPDEST PUSH0 PUSH1 0xA0 DUP3 ADD SWAP1 POP PUSH2 0x2769 PUSH0 DUP4 ADD DUP9 PUSH2 0x25ED JUMP JUMPDEST PUSH2 0x2776 PUSH1 0x20 DUP4 ADD DUP8 PUSH2 0x25ED JUMP JUMPDEST PUSH2 0x2783 PUSH1 0x40 DUP4 ADD DUP7 PUSH2 0x1B67 JUMP JUMPDEST PUSH2 0x2790 PUSH1 0x60 DUP4 ADD DUP6 PUSH2 0x1B67 JUMP JUMPDEST DUP2 DUP2 SUB PUSH1 0x80 DUP4 ADD MSTORE PUSH2 0x27A2 DUP2 DUP5 PUSH2 0x271E JUMP JUMPDEST SWAP1 POP SWAP7 SWAP6 POP POP POP POP POP POP JUMP JUMPDEST PUSH0 DUP2 MLOAD SWAP1 POP PUSH2 0x27BC DUP2 PUSH2 0x1BBA JUMP JUMPDEST SWAP3 SWAP2 POP POP JUMP JUMPDEST PUSH0 PUSH1 0x20 DUP3 DUP5 SUB SLT ISZERO PUSH2 0x27D7 JUMPI PUSH2 0x27D6 PUSH2 0x1A94 JUMP JUMPDEST JUMPDEST PUSH0 PUSH2 0x27E4 DUP5 DUP3 DUP6 ADD PUSH2 0x27AE JUMP JUMPDEST SWAP2 POP POP SWAP3 SWAP2 POP POP JUMP JUMPDEST PUSH0 PUSH1 0xA0 DUP3 ADD SWAP1 POP PUSH2 0x2800 PUSH0 DUP4 ADD DUP9 PUSH2 0x25ED JUMP JUMPDEST PUSH2 0x280D PUSH1 0x20 DUP4 ADD DUP8 PUSH2 0x25ED JUMP JUMPDEST DUP2 DUP2 SUB PUSH1 0x40 DUP4 ADD MSTORE PUSH2 0x281F DUP2 DUP7 PUSH2 0x221B JUMP JUMPDEST SWAP1 POP DUP2 DUP2 SUB PUSH1 0x60 DUP4 ADD MSTORE PUSH2 0x2833 DUP2 DUP6 PUSH2 0x221B JUMP JUMPDEST SWAP1 POP DUP2 DUP2 SUB PUSH1 0x80 DUP4 ADD MSTORE PUSH2 0x2847 DUP2 DUP5 PUSH2 0x271E JUMP JUMPDEST SWAP1 POP SWAP7 SWAP6 POP POP POP POP POP POP JUMP JUMPDEST PUSH0 PUSH2 0x285D DUP3 PUSH2 0x1AF6 JUMP JUMPDEST SWAP2 POP PUSH2 0x2868 DUP4 PUSH2 0x1AF6 JUMP JUMPDEST SWAP3 POP DUP3 DUP3 ADD SWAP1 POP DUP1 DUP3 GT ISZERO PUSH2 0x2880 JUMPI PUSH2 0x287F PUSH2 0x2677 JUMP JUMPDEST JUMPDEST SWAP3 SWAP2 POP POP JUMP JUMPDEST PUSH0 PUSH1 0x80 DUP3 ADD SWAP1 POP PUSH2 0x2899 PUSH0 DUP4 ADD DUP8 PUSH2 0x25ED JUMP JUMPDEST PUSH2 0x28A6 PUSH1 0x20 DUP4 ADD DUP7 PUSH2 0x1B67 JUMP JUMPDEST PUSH2 0x28B3 PUSH1 0x40 DUP4 ADD DUP6 PUSH2 0x1B67 JUMP JUMPDEST PUSH2 0x28C0 PUSH1 0x60 DUP4 ADD DUP5 PUSH2 0x1B67 JUMP JUMPDEST SWAP6 SWAP5 POP POP POP POP POP JUMP JUMPDEST PUSH0 PUSH1 0x40 DUP3 ADD SWAP1 POP DUP2 DUP2 SUB PUSH0 DUP4 ADD MSTORE PUSH2 0x28E1 DUP2 DUP6 PUSH2 0x221B JUMP JUMPDEST SWAP1 POP DUP2 DUP2 SUB PUSH1 0x20 DUP4 ADD MSTORE PUSH2 0x28F5 DUP2 DUP5 PUSH2 0x221B JUMP JUMPDEST SWAP1 POP SWAP4 SWAP3 POP POP POP JUMP INVALID LOG2 PUSH5 0x6970667358 0x22 SLT KECCAK256 DUP8 PC CALLCODE DUP4 CREATE2 0xB2 LOG1 MSTORE8 DUP16 REVERT 0xD8 0xD6 0xBD PUSH3 0x3A646 0xEE MLOAD 0xC 0xC9 0xCD DUP15 0x4A 0xA7 0xBA 0x21 PUSH30 0xE96A48B764736F6C63430008140033000000000000000000000000000000 "
				},
				"gasEstimates": {
					"creation": {
						"codeDepositCost": "2109600",
						"executionCost": "infinite",
						"totalCost": "infinite"
					},
					"external": {
						"balanceOf(address,uint256)": "infinite",
						"balanceOfBatch(address[],uint256[])": "infinite",
						"burn(address,uint256,uint256)": "infinite",
						"burnBatch(address,uint256[],uint256[])": "infinite",
						"exists(uint256)": "2846",
						"isApprovedForAll(address,address)": "infinite",
						"mint(address,uint256,uint256,bytes)": "infinite",
						"mintBatch(address,uint256[],uint256[],bytes)": "infinite",
						"safeBatchTransferFrom(address,address,uint256[],uint256[],bytes)": "infinite",
						"safeTransferFrom(address,address,uint256,uint256,bytes)": "infinite",
						"setApprovalForAll(address,bool)": "infinite",
						"supportsInterface(bytes4)": "809",
						"totalSupply()": "2455",
						"totalSupply(uint256)": "infinite",
						"uri(uint256)": "infinite"
					},
					"internal": {
						"_update(address,address,uint256[] memory,uint256[] memory)": "infinite"
					}
				},
				"methodIdentifiers": {
					"balanceOf(address,uint256)": "00fdd58e",
					"balanceOfBatch(address[],uint256[])": "4e1273f4",
					"burn(address,uint256,uint256)": "f5298aca",
					"burnBatch(address,uint256[],uint256[])": "6b20c454",
					"exists(uint256)": "4f558e79",
					"isApprovedForAll(address,address)": "e985e9c5",
					"mint(address,uint256,uint256,bytes)": "731133e9",
					"mintBatch(address,uint256[],uint256[],bytes)": "1f7fdffa",
					"safeBatchTransferFrom(address,address,uint256[],uint256[],bytes)": "2eb2c2d6",
					"safeTransferFrom(address,address,uint256,uint256,bytes)": "f242432a",
					"setApprovalForAll(address,bool)": "a22cb465",
					"supportsInterface(bytes4)": "01ffc9a7",
					"totalSupply()": "18160ddd",
					"totalSupply(uint256)": "bd85b039",
					"uri(uint256)": "0e89341c"
				}
			},
			"storageLayout": {
				"storage": [
					{
						"astId": 178,
						"contract": "contracts/Items/Items.sol:Items",
						"label": "_balances",
						"offset": 0,
						"slot": "0",
						"type": "t_mapping(t_uint256,t_mapping(t_address,t_uint256))"
					},
					{
						"astId": 184,
						"contract": "contracts/Items/Items.sol:Items",
						"label": "_operatorApprovals",
						"offset": 0,
						"slot": "1",
						"type": "t_mapping(t_address,t_mapping(t_address,t_bool))"
					},
					{
						"astId": 186,
						"contract": "contracts/Items/Items.sol:Items",
						"label": "_uri",
						"offset": 0,
						"slot": "2",
						"type": "t_string_storage"
					},
					{
						"astId": 1443,
						"contract": "contracts/Items/Items.sol:Items",
						"label": "_totalSupply",
						"offset": 0,
						"slot": "3",
						"type": "t_mapping(t_uint256,t_uint256)"
					},
					{
						"astId": 1445,
						"contract": "contracts/Items/Items.sol:Items",
						"label": "_totalSupplyAll",
						"offset": 0,
						"slot": "4",
						"type": "t_uint256"
					}
				],
				"types": {
					"t_address": {
						"encoding": "inplace",
						"label": "address",
						"numberOfBytes": "20"
					},
					"t_bool": {
						"encoding": "inplace",
						"label": "bool",
						"numberOfBytes": "1"
					},
					"t_mapping(t_address,t_bool)": {
						"encoding": "mapping",
						"key": "t_address",
						"label": "mapping(address => bool)",
						"numberOfBytes": "32",
						"value": "t_bool"
					},
					"t_mapping(t_address,t_mapping(t_address,t_bool))": {
						"encoding": "mapping",
						"key": "t_address",
						"label": "mapping(address => mapping(address => bool))",
						"numberOfBytes": "32",
						"value": "t_mapping(t_address,t_bool)"
					},
					"t_mapping(t_address,t_uint256)": {
						"encoding": "mapping",
						"key": "t_address",
						"label": "mapping(address => uint256)",
						"numberOfBytes": "32",
						"value": "t_uint256"
					},
					"t_mapping(t_uint256,t_mapping(t_address,t_uint256))": {
						"encoding": "mapping",
						"key": "t_uint256",
						"label": "mapping(uint256 => mapping(address => uint256))",
						"numberOfBytes": "32",
						"value": "t_mapping(t_address,t_uint256)"
					},
					"t_mapping(t_uint256,t_uint256)": {
						"encoding": "mapping",
						"key": "t_uint256",
						"label": "mapping(uint256 => uint256)",
						"numberOfBytes": "32",
						"value": "t_uint256"
					},
					"t_string_storage": {
						"encoding": "bytes",
						"label": "string",
						"numberOfBytes": "32"
					},
					"t_uint256": {
						"encoding": "inplace",
						"label": "uint256",
						"numberOfBytes": "32"
					}
				}
			},
			"userdoc": {
				"kind": "user",
				"methods": {},
				"version": 1
			}
		}
	}
}