{
	"contracts/SomTokens/SomTokens.sol": {
		"SomTokens": {
			"abi": [
				{
					"inputs": [
						{
							"internalType": "address",
							"name": "initialOwner",
							"type": "address"
						}
					],
					"stateMutability": "nonpayable",
					"type": "constructor"
				},
				{
					"inputs": [
						{
							"internalType": "address",
							"name": "sender",
							"type": "address"
						},
						{
							"internalType": "uint256",
							"name": "balance",
							"type": "uint256"
						},
						{
							"internalType": "uint256",
							"name": "needed",
							"type": "uint256"
						},
						{
							"internalType": "uint256",
							"name": "tokenId",
							"type": "uint256"
						}
					],
					"name": "ERC1155InsufficientBalance",
					"type": "error"
				},
				{
					"inputs": [
						{
							"internalType": "address",
							"name": "approver",
							"type": "address"
						}
					],
					"name": "ERC1155InvalidApprover",
					"type": "error"
				},
				{
					"inputs": [
						{
							"internalType": "uint256",
							"name": "idsLength",
							"type": "uint256"
						},
						{
							"internalType": "uint256",
							"name": "valuesLength",
							"type": "uint256"
						}
					],
					"name": "ERC1155InvalidArrayLength",
					"type": "error"
				},
				{
					"inputs": [
						{
							"internalType": "address",
							"name": "operator",
							"type": "address"
						}
					],
					"name": "ERC1155InvalidOperator",
					"type": "error"
				},
				{
					"inputs": [
						{
							"internalType": "address",
							"name": "receiver",
							"type": "address"
						}
					],
					"name": "ERC1155InvalidReceiver",
					"type": "error"
				},
				{
					"inputs": [
						{
							"internalType": "address",
							"name": "sender",
							"type": "address"
						}
					],
					"name": "ERC1155InvalidSender",
					"type": "error"
				},
				{
					"inputs": [
						{
							"internalType": "address",
							"name": "operator",
							"type": "address"
						},
						{
							"internalType": "address",
							"name": "owner",
							"type": "address"
						}
					],
					"name": "ERC1155MissingApprovalForAll",
					"type": "error"
				},
				{
					"inputs": [
						{
							"internalType": "address",
							"name": "owner",
							"type": "address"
						}
					],
					"name": "OwnableInvalidOwner",
					"type": "error"
				},
				{
					"inputs": [
						{
							"internalType": "address",
							"name": "account",
							"type": "address"
						}
					],
					"name": "OwnableUnauthorizedAccount",
					"type": "error"
				},
				{
					"anonymous": false,
					"inputs": [
						{
							"indexed": true,
							"internalType": "address",
							"name": "account",
							"type": "address"
						},
						{
							"indexed": true,
							"internalType": "address",
							"name": "operator",
							"type": "address"
						},
						{
							"indexed": false,
							"internalType": "bool",
							"name": "approved",
							"type": "bool"
						}
					],
					"name": "ApprovalForAll",
					"type": "event"
				},
				{
					"anonymous": false,
					"inputs": [
						{
							"indexed": true,
							"internalType": "address",
							"name": "previousOwner",
							"type": "address"
						},
						{
							"indexed": true,
							"internalType": "address",
							"name": "newOwner",
							"type": "address"
						}
					],
					"name": "OwnershipTransferred",
					"type": "event"
				},
				{
					"anonymous": false,
					"inputs": [
						{
							"indexed": true,
							"internalType": "address",
							"name": "operator",
							"type": "address"
						},
						{
							"indexed": true,
							"internalType": "address",
							"name": "from",
							"type": "address"
						},
						{
							"indexed": true,
							"internalType": "address",
							"name": "to",
							"type": "address"
						},
						{
							"indexed": false,
							"internalType": "uint256[]",
							"name": "ids",
							"type": "uint256[]"
						},
						{
							"indexed": false,
							"internalType": "uint256[]",
							"name": "values",
							"type": "uint256[]"
						}
					],
					"name": "TransferBatch",
					"type": "event"
				},
				{
					"anonymous": false,
					"inputs": [
						{
							"indexed": true,
							"internalType": "address",
							"name": "operator",
							"type": "address"
						},
						{
							"indexed": true,
							"internalType": "address",
							"name": "from",
							"type": "address"
						},
						{
							"indexed": true,
							"internalType": "address",
							"name": "to",
							"type": "address"
						},
						{
							"indexed": false,
							"internalType": "uint256",
							"name": "id",
							"type": "uint256"
						},
						{
							"indexed": false,
							"internalType": "uint256",
							"name": "value",
							"type": "uint256"
						}
					],
					"name": "TransferSingle",
					"type": "event"
				},
				{
					"anonymous": false,
					"inputs": [
						{
							"indexed": false,
							"internalType": "string",
							"name": "value",
							"type": "string"
						},
						{
							"indexed": true,
							"internalType": "uint256",
							"name": "id",
							"type": "uint256"
						}
					],
					"name": "URI",
					"type": "event"
				},
				{
					"inputs": [
						{
							"internalType": "address",
							"name": "account",
							"type": "address"
						},
						{
							"internalType": "uint256",
							"name": "id",
							"type": "uint256"
						}
					],
					"name": "balanceOf",
					"outputs": [
						{
							"internalType": "uint256",
							"name": "",
							"type": "uint256"
						}
					],
					"stateMutability": "view",
					"type": "function"
				},
				{
					"inputs": [
						{
							"internalType": "address[]",
							"name": "accounts",
							"type": "address[]"
						},
						{
							"internalType": "uint256[]",
							"name": "ids",
							"type": "uint256[]"
						}
					],
					"name": "balanceOfBatch",
					"outputs": [
						{
							"internalType": "uint256[]",
							"name": "",
							"type": "uint256[]"
						}
					],
					"stateMutability": "view",
					"type": "function"
				},
				{
					"inputs": [
						{
							"internalType": "address",
							"name": "account",
							"type": "address"
						},
						{
							"internalType": "uint256",
							"name": "id",
							"type": "uint256"
						},
						{
							"internalType": "uint256",
							"name": "value",
							"type": "uint256"
						}
					],
					"name": "burn",
					"outputs": [],
					"stateMutability": "nonpayable",
					"type": "function"
				},
				{
					"inputs": [
						{
							"internalType": "address",
							"name": "account",
							"type": "address"
						},
						{
							"internalType": "uint256[]",
							"name": "ids",
							"type": "uint256[]"
						},
						{
							"internalType": "uint256[]",
							"name": "values",
							"type": "uint256[]"
						}
					],
					"name": "burnBatch",
					"outputs": [],
					"stateMutability": "nonpayable",
					"type": "function"
				},
				{
					"inputs": [
						{
							"internalType": "uint256",
							"name": "id",
							"type": "uint256"
						}
					],
					"name": "exists",
					"outputs": [
						{
							"internalType": "bool",
							"name": "",
							"type": "bool"
						}
					],
					"stateMutability": "view",
					"type": "function"
				},
				{
					"inputs": [],
					"name": "gameAddress",
					"outputs": [
						{
							"internalType": "address",
							"name": "",
							"type": "address"
						}
					],
					"stateMutability": "view",
					"type": "function"
				},
				{
					"inputs": [
						{
							"internalType": "address",
							"name": "account",
							"type": "address"
						},
						{
							"internalType": "address",
							"name": "operator",
							"type": "address"
						}
					],
					"name": "isApprovedForAll",
					"outputs": [
						{
							"internalType": "bool",
							"name": "",
							"type": "bool"
						}
					],
					"stateMutability": "view",
					"type": "function"
				},
				{
					"inputs": [
						{
							"internalType": "address",
							"name": "account",
							"type": "address"
						},
						{
							"internalType": "uint256",
							"name": "id",
							"type": "uint256"
						},
						{
							"internalType": "uint256",
							"name": "amount",
							"type": "uint256"
						},
						{
							"internalType": "bytes",
							"name": "data",
							"type": "bytes"
						}
					],
					"name": "mint",
					"outputs": [],
					"stateMutability": "nonpayable",
					"type": "function"
				},
				{
					"inputs": [
						{
							"internalType": "address",
							"name": "to",
							"type": "address"
						},
						{
							"internalType": "uint256[]",
							"name": "ids",
							"type": "uint256[]"
						},
						{
							"internalType": "uint256[]",
							"name": "amounts",
							"type": "uint256[]"
						},
						{
							"internalType": "bytes",
							"name": "data",
							"type": "bytes"
						}
					],
					"name": "mintBatch",
					"outputs": [],
					"stateMutability": "nonpayable",
					"type": "function"
				},
				{
					"inputs": [],
					"name": "owner",
					"outputs": [
						{
							"internalType": "address",
							"name": "",
							"type": "address"
						}
					],
					"stateMutability": "view",
					"type": "function"
				},
				{
					"inputs": [],
					"name": "renounceOwnership",
					"outputs": [],
					"stateMutability": "nonpayable",
					"type": "function"
				},
				{
					"inputs": [
						{
							"internalType": "address",
							"name": "from",
							"type": "address"
						},
						{
							"internalType": "address",
							"name": "to",
							"type": "address"
						},
						{
							"internalType": "uint256[]",
							"name": "ids",
							"type": "uint256[]"
						},
						{
							"internalType": "uint256[]",
							"name": "values",
							"type": "uint256[]"
						},
						{
							"internalType": "bytes",
							"name": "data",
							"type": "bytes"
						}
					],
					"name": "safeBatchTransferFrom",
					"outputs": [],
					"stateMutability": "nonpayable",
					"type": "function"
				},
				{
					"inputs": [
						{
							"internalType": "address",
							"name": "from",
							"type": "address"
						},
						{
							"internalType": "address",
							"name": "to",
							"type": "address"
						},
						{
							"internalType": "uint256",
							"name": "id",
							"type": "uint256"
						},
						{
							"internalType": "uint256",
							"name": "value",
							"type": "uint256"
						},
						{
							"internalType": "bytes",
							"name": "data",
							"type": "bytes"
						}
					],
					"name": "safeTransferFrom",
					"outputs": [],
					"stateMutability": "nonpayable",
					"type": "function"
				},
				{
					"inputs": [
						{
							"internalType": "address",
							"name": "operator",
							"type": "address"
						},
						{
							"internalType": "bool",
							"name": "approved",
							"type": "bool"
						}
					],
					"name": "setApprovalForAll",
					"outputs": [],
					"stateMutability": "nonpayable",
					"type": "function"
				},
				{
					"inputs": [
						{
							"internalType": "address",
							"name": "account",
							"type": "address"
						}
					],
					"name": "setGameAddress",
					"outputs": [],
					"stateMutability": "nonpayable",
					"type": "function"
				},
				{
					"inputs": [
						{
							"internalType": "bytes4",
							"name": "interfaceId",
							"type": "bytes4"
						}
					],
					"name": "supportsInterface",
					"outputs": [
						{
							"internalType": "bool",
							"name": "",
							"type": "bool"
						}
					],
					"stateMutability": "view",
					"type": "function"
				},
				{
					"inputs": [],
					"name": "totalSupply",
					"outputs": [
						{
							"internalType": "uint256",
							"name": "",
							"type": "uint256"
						}
					],
					"stateMutability": "view",
					"type": "function"
				},
				{
					"inputs": [
						{
							"internalType": "uint256",
							"name": "id",
							"type": "uint256"
						}
					],
					"name": "totalSupply",
					"outputs": [
						{
							"internalType": "uint256",
							"name": "",
							"type": "uint256"
						}
					],
					"stateMutability": "view",
					"type": "function"
				},
				{
					"inputs": [
						{
							"internalType": "address",
							"name": "newOwner",
							"type": "address"
						}
					],
					"name": "transferOwnership",
					"outputs": [],
					"stateMutability": "nonpayable",
					"type": "function"
				},
				{
					"inputs": [
						{
							"internalType": "uint256",
							"name": "",
							"type": "uint256"
						}
					],
					"name": "uri",
					"outputs": [
						{
							"internalType": "string",
							"name": "",
							"type": "string"
						}
					],
					"stateMutability": "view",
					"type": "function"
				}
			],
			"devdoc": {
				"custom:security-contact": "krlebyte@gmail.com",
				"errors": {
					"ERC1155InsufficientBalance(address,uint256,uint256,uint256)": [
						{
							"details": "Indicates an error related to the current `balance` of a `sender`. Used in transfers.",
							"params": {
								"balance": "Current balance for the interacting account.",
								"needed": "Minimum amount required to perform a transfer.",
								"sender": "Address whose tokens are being transferred.",
								"tokenId": "Identifier number of a token."
							}
						}
					],
					"ERC1155InvalidApprover(address)": [
						{
							"details": "Indicates a failure with the `approver` of a token to be approved. Used in approvals.",
							"params": {
								"approver": "Address initiating an approval operation."
							}
						}
					],
					"ERC1155InvalidArrayLength(uint256,uint256)": [
						{
							"details": "Indicates an array length mismatch between ids and values in a safeBatchTransferFrom operation. Used in batch transfers.",
							"params": {
								"idsLength": "Length of the array of token identifiers",
								"valuesLength": "Length of the array of token amounts"
							}
						}
					],
					"ERC1155InvalidOperator(address)": [
						{
							"details": "Indicates a failure with the `operator` to be approved. Used in approvals.",
							"params": {
								"operator": "Address that may be allowed to operate on tokens without being their owner."
							}
						}
					],
					"ERC1155InvalidReceiver(address)": [
						{
							"details": "Indicates a failure with the token `receiver`. Used in transfers.",
							"params": {
								"receiver": "Address to which tokens are being transferred."
							}
						}
					],
					"ERC1155InvalidSender(address)": [
						{
							"details": "Indicates a failure with the token `sender`. Used in transfers.",
							"params": {
								"sender": "Address whose tokens are being transferred."
							}
						}
					],
					"ERC1155MissingApprovalForAll(address,address)": [
						{
							"details": "Indicates a failure with the `operator`’s approval. Used in transfers.",
							"params": {
								"operator": "Address that may be allowed to operate on tokens without being their owner.",
								"owner": "Address of the current owner of a token."
							}
						}
					],
					"OwnableInvalidOwner(address)": [
						{
							"details": "The owner is not a valid owner account. (eg. `address(0)`)"
						}
					],
					"OwnableUnauthorizedAccount(address)": [
						{
							"details": "The caller account is not authorized to perform an operation."
						}
					]
				},
				"events": {
					"ApprovalForAll(address,address,bool)": {
						"details": "Emitted when `account` grants or revokes permission to `operator` to transfer their tokens, according to `approved`."
					},
					"TransferBatch(address,address,address,uint256[],uint256[])": {
						"details": "Equivalent to multiple {TransferSingle} events, where `operator`, `from` and `to` are the same for all transfers."
					},
					"TransferSingle(address,address,address,uint256,uint256)": {
						"details": "Emitted when `value` amount of tokens of type `id` are transferred from `from` to `to` by `operator`."
					},
					"URI(string,uint256)": {
						"details": "Emitted when the URI for token type `id` changes to `value`, if it is a non-programmatic URI. If an {URI} event was emitted for `id`, the standard https://eips.ethereum.org/EIPS/eip-1155#metadata-extensions[guarantees] that `value` will equal the value returned by {IERC1155MetadataURI-uri}."
					}
				},
				"kind": "dev",
				"methods": {
					"balanceOf(address,uint256)": {
						"details": "See {IERC1155-balanceOf}."
					},
					"balanceOfBatch(address[],uint256[])": {
						"details": "See {IERC1155-balanceOfBatch}. Requirements: - `accounts` and `ids` must have the same length."
					},
					"exists(uint256)": {
						"details": "Indicates whether any token exist with a given id, or not."
					},
					"isApprovedForAll(address,address)": {
						"details": "See {IERC1155-isApprovedForAll}."
					},
					"owner()": {
						"details": "Returns the address of the current owner."
					},
					"renounceOwnership()": {
						"details": "Leaves the contract without owner. It will not be possible to call `onlyOwner` functions. Can only be called by the current owner. NOTE: Renouncing ownership will leave the contract without an owner, thereby disabling any functionality that is only available to the owner."
					},
					"safeBatchTransferFrom(address,address,uint256[],uint256[],bytes)": {
						"details": "See {IERC1155-safeBatchTransferFrom}."
					},
					"safeTransferFrom(address,address,uint256,uint256,bytes)": {
						"details": "See {IERC1155-safeTransferFrom}."
					},
					"setApprovalForAll(address,bool)": {
						"details": "See {IERC1155-setApprovalForAll}."
					},
					"supportsInterface(bytes4)": {
						"details": "See {IERC165-supportsInterface}."
					},
					"totalSupply()": {
						"details": "Total value of tokens."
					},
					"totalSupply(uint256)": {
						"details": "Total value of tokens in with a given id."
					},
					"transferOwnership(address)": {
						"details": "Transfers ownership of the contract to a new account (`newOwner`). Can only be called by the current owner."
					},
					"uri(uint256)": {
						"details": "See {IERC1155MetadataURI-uri}. This implementation returns the same URI for *all* token types. It relies on the token type ID substitution mechanism https://eips.ethereum.org/EIPS/eip-1155#metadata[defined in the EIP]. Clients calling this function must replace the `\\{id\\}` substring with the actual token type ID."
					}
				},
				"version": 1
			},
			"evm": {
				"assembly": "    /* \"contracts/SomTokens/SomTokens.sol\":376:2275  contract SomTokens is ERC1155, ERC1155Burnable, Ownable, ERC1155Supply {... */\n  mstore(0x40, 0x80)\n    /* \"contracts/SomTokens/SomTokens.sol\":482:592  constructor(address initialOwner)... */\n  callvalue\n  dup1\n  iszero\n  tag_1\n  jumpi\n  0x00\n  dup1\n  revert\ntag_1:\n  pop\n  mload(0x40)\n  sub(codesize, bytecodeSize)\n  dup1\n  bytecodeSize\n  dup4\n  codecopy\n  dup2\n  dup2\n  add\n  0x40\n  mstore\n  dup2\n  add\n  swap1\n  tag_2\n  swap2\n  swap1\n  tag_3\n  jump\t// in\ntag_2:\n    /* \"contracts/SomTokens/SomTokens.sol\":576:588  initialOwner */\n  dup1\n    /* \"@openzeppelin/contracts/token/ERC1155/ERC1155.sol\":1251:1313  constructor(string memory uri_) {... */\n  mload(0x40)\n  dup1\n  0x40\n  add\n  0x40\n  mstore\n  dup1\n  0x20\n  dup2\n  mstore\n  0x20\n  add\n  0x68747470733a2f2f736f6d2e657465726e697461732e67616d65732f6a736f6e\n  dup2\n  mstore\n  pop\n    /* \"@openzeppelin/contracts/token/ERC1155/ERC1155.sol\":1293:1306  _setURI(uri_) */\n  tag_8\n    /* \"@openzeppelin/contracts/token/ERC1155/ERC1155.sol\":1301:1305  uri_ */\n  dup2\n    /* \"@openzeppelin/contracts/token/ERC1155/ERC1155.sol\":1293:1300  _setURI */\n  shl(0x20, tag_9)\n    /* \"@openzeppelin/contracts/token/ERC1155/ERC1155.sol\":1293:1306  _setURI(uri_) */\n  0x20\n  shr\n  jump\t// in\ntag_8:\n    /* \"@openzeppelin/contracts/token/ERC1155/ERC1155.sol\":1251:1313  constructor(string memory uri_) {... */\n  pop\n    /* \"@openzeppelin/contracts/access/Ownable.sol\":1297:1298  0 */\n  0x00\n    /* \"@openzeppelin/contracts/access/Ownable.sol\":1273:1299  initialOwner == address(0) */\n  0xffffffffffffffffffffffffffffffffffffffff\n  and\n    /* \"@openzeppelin/contracts/access/Ownable.sol\":1273:1285  initialOwner */\n  dup2\n    /* \"@openzeppelin/contracts/access/Ownable.sol\":1273:1299  initialOwner == address(0) */\n  0xffffffffffffffffffffffffffffffffffffffff\n  and\n  sub\n    /* \"@openzeppelin/contracts/access/Ownable.sol\":1269:1364  if (initialOwner == address(0)) {... */\n  tag_11\n  jumpi\n    /* \"@openzeppelin/contracts/access/Ownable.sol\":1350:1351  0 */\n  0x00\n    /* \"@openzeppelin/contracts/access/Ownable.sol\":1322:1353  OwnableInvalidOwner(address(0)) */\n  mload(0x40)\n  0x1e4fbdf700000000000000000000000000000000000000000000000000000000\n  dup2\n  mstore\n  0x04\n  add\n  tag_12\n  swap2\n  swap1\n  tag_13\n  jump\t// in\ntag_12:\n  mload(0x40)\n  dup1\n  swap2\n  sub\n  swap1\n  revert\n    /* \"@openzeppelin/contracts/access/Ownable.sol\":1269:1364  if (initialOwner == address(0)) {... */\ntag_11:\n    /* \"@openzeppelin/contracts/access/Ownable.sol\":1373:1405  _transferOwnership(initialOwner) */\n  tag_14\n    /* \"@openzeppelin/contracts/access/Ownable.sol\":1392:1404  initialOwner */\n  dup2\n    /* \"@openzeppelin/contracts/access/Ownable.sol\":1373:1391  _transferOwnership */\n  shl(0x20, tag_15)\n    /* \"@openzeppelin/contracts/access/Ownable.sol\":1373:1405  _transferOwnership(initialOwner) */\n  0x20\n  shr\n  jump\t// in\ntag_14:\n    /* \"@openzeppelin/contracts/access/Ownable.sol\":1225:1412  constructor(address initialOwner) {... */\n  pop\n    /* \"contracts/SomTokens/SomTokens.sol\":482:592  constructor(address initialOwner)... */\n  pop\n    /* \"contracts/SomTokens/SomTokens.sol\":376:2275  contract SomTokens is ERC1155, ERC1155Burnable, Ownable, ERC1155Supply {... */\n  jump(tag_17)\n    /* \"@openzeppelin/contracts/token/ERC1155/ERC1155.sol\":10282:10368  function _setURI(string memory newuri) internal virtual {... */\ntag_9:\n    /* \"@openzeppelin/contracts/token/ERC1155/ERC1155.sol\":10355:10361  newuri */\n  dup1\n    /* \"@openzeppelin/contracts/token/ERC1155/ERC1155.sol\":10348:10352  _uri */\n  0x02\n    /* \"@openzeppelin/contracts/token/ERC1155/ERC1155.sol\":10348:10361  _uri = newuri */\n  swap1\n  dup2\n  tag_19\n  swap2\n  swap1\n  tag_20\n  jump\t// in\ntag_19:\n  pop\n    /* \"@openzeppelin/contracts/token/ERC1155/ERC1155.sol\":10282:10368  function _setURI(string memory newuri) internal virtual {... */\n  pop\n  jump\t// out\n    /* \"@openzeppelin/contracts/access/Ownable.sol\":2912:3099  function _transferOwnership(address newOwner) internal virtual {... */\ntag_15:\n    /* \"@openzeppelin/contracts/access/Ownable.sol\":2985:3001  address oldOwner */\n  0x00\n    /* \"@openzeppelin/contracts/access/Ownable.sol\":3004:3010  _owner */\n  0x03\n  0x00\n  swap1\n  sload\n  swap1\n  0x0100\n  exp\n  swap1\n  div\n  0xffffffffffffffffffffffffffffffffffffffff\n  and\n    /* \"@openzeppelin/contracts/access/Ownable.sol\":2985:3010  address oldOwner = _owner */\n  swap1\n  pop\n    /* \"@openzeppelin/contracts/access/Ownable.sol\":3029:3037  newOwner */\n  dup2\n    /* \"@openzeppelin/contracts/access/Ownable.sol\":3020:3026  _owner */\n  0x03\n  0x00\n    /* \"@openzeppelin/contracts/access/Ownable.sol\":3020:3037  _owner = newOwner */\n  0x0100\n  exp\n  dup2\n  sload\n  dup2\n  0xffffffffffffffffffffffffffffffffffffffff\n  mul\n  not\n  and\n  swap1\n  dup4\n  0xffffffffffffffffffffffffffffffffffffffff\n  and\n  mul\n  or\n  swap1\n  sstore\n  pop\n    /* \"@openzeppelin/contracts/access/Ownable.sol\":3083:3091  newOwner */\n  dup2\n    /* \"@openzeppelin/contracts/access/Ownable.sol\":3052:3092  OwnershipTransferred(oldOwner, newOwner) */\n  0xffffffffffffffffffffffffffffffffffffffff\n  and\n    /* \"@openzeppelin/contracts/access/Ownable.sol\":3073:3081  oldOwner */\n  dup2\n    /* \"@openzeppelin/contracts/access/Ownable.sol\":3052:3092  OwnershipTransferred(oldOwner, newOwner) */\n  0xffffffffffffffffffffffffffffffffffffffff\n  and\n  0x8be0079c531659141344cd1fd0a4f28419497f9722a3daafe3b4186f6b6457e0\n  mload(0x40)\n  mload(0x40)\n  dup1\n  swap2\n  sub\n  swap1\n  log3\n    /* \"@openzeppelin/contracts/access/Ownable.sol\":2975:3099  {... */\n  pop\n    /* \"@openzeppelin/contracts/access/Ownable.sol\":2912:3099  function _transferOwnership(address newOwner) internal virtual {... */\n  pop\n  jump\t// out\n    /* \"#utility.yul\":88:205   */\ntag_23:\n    /* \"#utility.yul\":197:198   */\n  0x00\n    /* \"#utility.yul\":194:195   */\n  dup1\n    /* \"#utility.yul\":187:199   */\n  revert\n    /* \"#utility.yul\":334:460   */\ntag_25:\n    /* \"#utility.yul\":371:378   */\n  0x00\n    /* \"#utility.yul\":411:453   */\n  0xffffffffffffffffffffffffffffffffffffffff\n    /* \"#utility.yul\":404:409   */\n  dup3\n    /* \"#utility.yul\":400:454   */\n  and\n    /* \"#utility.yul\":389:454   */\n  swap1\n  pop\n    /* \"#utility.yul\":334:460   */\n  swap2\n  swap1\n  pop\n  jump\t// out\n    /* \"#utility.yul\":466:562   */\ntag_26:\n    /* \"#utility.yul\":503:510   */\n  0x00\n    /* \"#utility.yul\":532:556   */\n  tag_56\n    /* \"#utility.yul\":550:555   */\n  dup3\n    /* \"#utility.yul\":532:556   */\n  tag_25\n  jump\t// in\ntag_56:\n    /* \"#utility.yul\":521:556   */\n  swap1\n  pop\n    /* \"#utility.yul\":466:562   */\n  swap2\n  swap1\n  pop\n  jump\t// out\n    /* \"#utility.yul\":568:690   */\ntag_27:\n    /* \"#utility.yul\":641:665   */\n  tag_58\n    /* \"#utility.yul\":659:664   */\n  dup2\n    /* \"#utility.yul\":641:665   */\n  tag_26\n  jump\t// in\ntag_58:\n    /* \"#utility.yul\":634:639   */\n  dup2\n    /* \"#utility.yul\":631:666   */\n  eq\n    /* \"#utility.yul\":621:684   */\n  tag_59\n  jumpi\n    /* \"#utility.yul\":680:681   */\n  0x00\n    /* \"#utility.yul\":677:678   */\n  dup1\n    /* \"#utility.yul\":670:682   */\n  revert\n    /* \"#utility.yul\":621:684   */\ntag_59:\n    /* \"#utility.yul\":568:690   */\n  pop\n  jump\t// out\n    /* \"#utility.yul\":696:839   */\ntag_28:\n    /* \"#utility.yul\":753:758   */\n  0x00\n    /* \"#utility.yul\":784:790   */\n  dup2\n    /* \"#utility.yul\":778:791   */\n  mload\n    /* \"#utility.yul\":769:791   */\n  swap1\n  pop\n    /* \"#utility.yul\":800:833   */\n  tag_61\n    /* \"#utility.yul\":827:832   */\n  dup2\n    /* \"#utility.yul\":800:833   */\n  tag_27\n  jump\t// in\ntag_61:\n    /* \"#utility.yul\":696:839   */\n  swap3\n  swap2\n  pop\n  pop\n  jump\t// out\n    /* \"#utility.yul\":845:1196   */\ntag_3:\n    /* \"#utility.yul\":915:921   */\n  0x00\n    /* \"#utility.yul\":964:966   */\n  0x20\n    /* \"#utility.yul\":952:961   */\n  dup3\n    /* \"#utility.yul\":943:950   */\n  dup5\n    /* \"#utility.yul\":939:962   */\n  sub\n    /* \"#utility.yul\":935:967   */\n  slt\n    /* \"#utility.yul\":932:1051   */\n  iszero\n  tag_63\n  jumpi\n    /* \"#utility.yul\":970:1049   */\n  tag_64\n  tag_23\n  jump\t// in\ntag_64:\n    /* \"#utility.yul\":932:1051   */\ntag_63:\n    /* \"#utility.yul\":1090:1091   */\n  0x00\n    /* \"#utility.yul\":1115:1179   */\n  tag_65\n    /* \"#utility.yul\":1171:1178   */\n  dup5\n    /* \"#utility.yul\":1162:1168   */\n  dup3\n    /* \"#utility.yul\":1151:1160   */\n  dup6\n    /* \"#utility.yul\":1147:1169   */\n  add\n    /* \"#utility.yul\":1115:1179   */\n  tag_28\n  jump\t// in\ntag_65:\n    /* \"#utility.yul\":1105:1179   */\n  swap2\n  pop\n    /* \"#utility.yul\":1061:1189   */\n  pop\n    /* \"#utility.yul\":845:1196   */\n  swap3\n  swap2\n  pop\n  pop\n  jump\t// out\n    /* \"#utility.yul\":1202:1320   */\ntag_29:\n    /* \"#utility.yul\":1289:1313   */\n  tag_67\n    /* \"#utility.yul\":1307:1312   */\n  dup2\n    /* \"#utility.yul\":1289:1313   */\n  tag_26\n  jump\t// in\ntag_67:\n    /* \"#utility.yul\":1284:1287   */\n  dup3\n    /* \"#utility.yul\":1277:1314   */\n  mstore\n    /* \"#utility.yul\":1202:1320   */\n  pop\n  pop\n  jump\t// out\n    /* \"#utility.yul\":1326:1548   */\ntag_13:\n    /* \"#utility.yul\":1419:1423   */\n  0x00\n    /* \"#utility.yul\":1457:1459   */\n  0x20\n    /* \"#utility.yul\":1446:1455   */\n  dup3\n    /* \"#utility.yul\":1442:1460   */\n  add\n    /* \"#utility.yul\":1434:1460   */\n  swap1\n  pop\n    /* \"#utility.yul\":1470:1541   */\n  tag_69\n    /* \"#utility.yul\":1538:1539   */\n  0x00\n    /* \"#utility.yul\":1527:1536   */\n  dup4\n    /* \"#utility.yul\":1523:1540   */\n  add\n    /* \"#utility.yul\":1514:1520   */\n  dup5\n    /* \"#utility.yul\":1470:1541   */\n  tag_29\n  jump\t// in\ntag_69:\n    /* \"#utility.yul\":1326:1548   */\n  swap3\n  swap2\n  pop\n  pop\n  jump\t// out\n    /* \"#utility.yul\":1554:1653   */\ntag_30:\n    /* \"#utility.yul\":1606:1612   */\n  0x00\n    /* \"#utility.yul\":1640:1645   */\n  dup2\n    /* \"#utility.yul\":1634:1646   */\n  mload\n    /* \"#utility.yul\":1624:1646   */\n  swap1\n  pop\n    /* \"#utility.yul\":1554:1653   */\n  swap2\n  swap1\n  pop\n  jump\t// out\n    /* \"#utility.yul\":1659:1839   */\ntag_31:\n    /* \"#utility.yul\":1707:1784   */\n  0x4e487b7100000000000000000000000000000000000000000000000000000000\n    /* \"#utility.yul\":1704:1705   */\n  0x00\n    /* \"#utility.yul\":1697:1785   */\n  mstore\n    /* \"#utility.yul\":1804:1808   */\n  0x41\n    /* \"#utility.yul\":1801:1802   */\n  0x04\n    /* \"#utility.yul\":1794:1809   */\n  mstore\n    /* \"#utility.yul\":1828:1832   */\n  0x24\n    /* \"#utility.yul\":1825:1826   */\n  0x00\n    /* \"#utility.yul\":1818:1833   */\n  revert\n    /* \"#utility.yul\":1845:2025   */\ntag_32:\n    /* \"#utility.yul\":1893:1970   */\n  0x4e487b7100000000000000000000000000000000000000000000000000000000\n    /* \"#utility.yul\":1890:1891   */\n  0x00\n    /* \"#utility.yul\":1883:1971   */\n  mstore\n    /* \"#utility.yul\":1990:1994   */\n  0x22\n    /* \"#utility.yul\":1987:1988   */\n  0x04\n    /* \"#utility.yul\":1980:1995   */\n  mstore\n    /* \"#utility.yul\":2014:2018   */\n  0x24\n    /* \"#utility.yul\":2011:2012   */\n  0x00\n    /* \"#utility.yul\":2004:2019   */\n  revert\n    /* \"#utility.yul\":2031:2351   */\ntag_33:\n    /* \"#utility.yul\":2075:2081   */\n  0x00\n    /* \"#utility.yul\":2112:2113   */\n  0x02\n    /* \"#utility.yul\":2106:2110   */\n  dup3\n    /* \"#utility.yul\":2102:2114   */\n  div\n    /* \"#utility.yul\":2092:2114   */\n  swap1\n  pop\n    /* \"#utility.yul\":2159:2160   */\n  0x01\n    /* \"#utility.yul\":2153:2157   */\n  dup3\n    /* \"#utility.yul\":2149:2161   */\n  and\n    /* \"#utility.yul\":2180:2198   */\n  dup1\n    /* \"#utility.yul\":2170:2251   */\n  tag_74\n  jumpi\n    /* \"#utility.yul\":2236:2240   */\n  0x7f\n    /* \"#utility.yul\":2228:2234   */\n  dup3\n    /* \"#utility.yul\":2224:2241   */\n  and\n    /* \"#utility.yul\":2214:2241   */\n  swap2\n  pop\n    /* \"#utility.yul\":2170:2251   */\ntag_74:\n    /* \"#utility.yul\":2298:2300   */\n  0x20\n    /* \"#utility.yul\":2290:2296   */\n  dup3\n    /* \"#utility.yul\":2287:2301   */\n  lt\n    /* \"#utility.yul\":2267:2285   */\n  dup2\n    /* \"#utility.yul\":2264:2302   */\n  sub\n    /* \"#utility.yul\":2261:2345   */\n  tag_75\n  jumpi\n    /* \"#utility.yul\":2317:2335   */\n  tag_76\n  tag_32\n  jump\t// in\ntag_76:\n    /* \"#utility.yul\":2261:2345   */\ntag_75:\n    /* \"#utility.yul\":2082:2351   */\n  pop\n    /* \"#utility.yul\":2031:2351   */\n  swap2\n  swap1\n  pop\n  jump\t// out\n    /* \"#utility.yul\":2357:2498   */\ntag_34:\n    /* \"#utility.yul\":2406:2410   */\n  0x00\n    /* \"#utility.yul\":2429:2432   */\n  dup2\n    /* \"#utility.yul\":2421:2432   */\n  swap1\n  pop\n    /* \"#utility.yul\":2452:2455   */\n  dup2\n    /* \"#utility.yul\":2449:2450   */\n  0x00\n    /* \"#utility.yul\":2442:2456   */\n  mstore\n    /* \"#utility.yul\":2486:2490   */\n  0x20\n    /* \"#utility.yul\":2483:2484   */\n  0x00\n    /* \"#utility.yul\":2473:2491   */\n  keccak256\n    /* \"#utility.yul\":2465:2491   */\n  swap1\n  pop\n    /* \"#utility.yul\":2357:2498   */\n  swap2\n  swap1\n  pop\n  jump\t// out\n    /* \"#utility.yul\":2504:2597   */\ntag_35:\n    /* \"#utility.yul\":2541:2547   */\n  0x00\n    /* \"#utility.yul\":2588:2590   */\n  0x20\n    /* \"#utility.yul\":2583:2585   */\n  0x1f\n    /* \"#utility.yul\":2576:2581   */\n  dup4\n    /* \"#utility.yul\":2572:2586   */\n  add\n    /* \"#utility.yul\":2568:2591   */\n  div\n    /* \"#utility.yul\":2558:2591   */\n  swap1\n  pop\n    /* \"#utility.yul\":2504:2597   */\n  swap2\n  swap1\n  pop\n  jump\t// out\n    /* \"#utility.yul\":2603:2710   */\ntag_36:\n    /* \"#utility.yul\":2647:2655   */\n  0x00\n    /* \"#utility.yul\":2697:2702   */\n  dup3\n    /* \"#utility.yul\":2691:2695   */\n  dup3\n    /* \"#utility.yul\":2687:2703   */\n  shl\n    /* \"#utility.yul\":2666:2703   */\n  swap1\n  pop\n    /* \"#utility.yul\":2603:2710   */\n  swap3\n  swap2\n  pop\n  pop\n  jump\t// out\n    /* \"#utility.yul\":2716:3109   */\ntag_37:\n    /* \"#utility.yul\":2785:2791   */\n  0x00\n    /* \"#utility.yul\":2835:2836   */\n  0x08\n    /* \"#utility.yul\":2823:2833   */\n  dup4\n    /* \"#utility.yul\":2819:2837   */\n  mul\n    /* \"#utility.yul\":2858:2955   */\n  tag_81\n    /* \"#utility.yul\":2888:2954   */\n  0xffffffffffffffffffffffffffffffffffffffffffffffffffffffffffffffff\n    /* \"#utility.yul\":2877:2886   */\n  dup3\n    /* \"#utility.yul\":2858:2955   */\n  tag_36\n  jump\t// in\ntag_81:\n    /* \"#utility.yul\":2976:3015   */\n  tag_82\n    /* \"#utility.yul\":3006:3014   */\n  dup7\n    /* \"#utility.yul\":2995:3004   */\n  dup4\n    /* \"#utility.yul\":2976:3015   */\n  tag_36\n  jump\t// in\ntag_82:\n    /* \"#utility.yul\":2964:3015   */\n  swap6\n  pop\n    /* \"#utility.yul\":3048:3052   */\n  dup1\n    /* \"#utility.yul\":3044:3053   */\n  not\n    /* \"#utility.yul\":3037:3042   */\n  dup5\n    /* \"#utility.yul\":3033:3054   */\n  and\n    /* \"#utility.yul\":3024:3054   */\n  swap4\n  pop\n    /* \"#utility.yul\":3097:3101   */\n  dup1\n    /* \"#utility.yul\":3087:3095   */\n  dup7\n    /* \"#utility.yul\":3083:3102   */\n  and\n    /* \"#utility.yul\":3076:3081   */\n  dup5\n    /* \"#utility.yul\":3073:3103   */\n  or\n    /* \"#utility.yul\":3063:3103   */\n  swap3\n  pop\n    /* \"#utility.yul\":2792:3109   */\n  pop\n  pop\n    /* \"#utility.yul\":2716:3109   */\n  swap4\n  swap3\n  pop\n  pop\n  pop\n  jump\t// out\n    /* \"#utility.yul\":3115:3192   */\ntag_38:\n    /* \"#utility.yul\":3152:3159   */\n  0x00\n    /* \"#utility.yul\":3181:3186   */\n  dup2\n    /* \"#utility.yul\":3170:3186   */\n  swap1\n  pop\n    /* \"#utility.yul\":3115:3192   */\n  swap2\n  swap1\n  pop\n  jump\t// out\n    /* \"#utility.yul\":3198:3258   */\ntag_39:\n    /* \"#utility.yul\":3226:3229   */\n  0x00\n    /* \"#utility.yul\":3247:3252   */\n  dup2\n    /* \"#utility.yul\":3240:3252   */\n  swap1\n  pop\n    /* \"#utility.yul\":3198:3258   */\n  swap2\n  swap1\n  pop\n  jump\t// out\n    /* \"#utility.yul\":3264:3406   */\ntag_40:\n    /* \"#utility.yul\":3314:3323   */\n  0x00\n    /* \"#utility.yul\":3347:3400   */\n  tag_86\n    /* \"#utility.yul\":3365:3399   */\n  tag_87\n    /* \"#utility.yul\":3374:3398   */\n  tag_88\n    /* \"#utility.yul\":3392:3397   */\n  dup5\n    /* \"#utility.yul\":3374:3398   */\n  tag_38\n  jump\t// in\ntag_88:\n    /* \"#utility.yul\":3365:3399   */\n  tag_39\n  jump\t// in\ntag_87:\n    /* \"#utility.yul\":3347:3400   */\n  tag_38\n  jump\t// in\ntag_86:\n    /* \"#utility.yul\":3334:3400   */\n  swap1\n  pop\n    /* \"#utility.yul\":3264:3406   */\n  swap2\n  swap1\n  pop\n  jump\t// out\n    /* \"#utility.yul\":3412:3487   */\ntag_41:\n    /* \"#utility.yul\":3455:3458   */\n  0x00\n    /* \"#utility.yul\":3476:3481   */\n  dup2\n    /* \"#utility.yul\":3469:3481   */\n  swap1\n  pop\n    /* \"#utility.yul\":3412:3487   */\n  swap2\n  swap1\n  pop\n  jump\t// out\n    /* \"#utility.yul\":3493:3762   */\ntag_42:\n    /* \"#utility.yul\":3603:3642   */\n  tag_91\n    /* \"#utility.yul\":3634:3641   */\n  dup4\n    /* \"#utility.yul\":3603:3642   */\n  tag_40\n  jump\t// in\ntag_91:\n    /* \"#utility.yul\":3664:3755   */\n  tag_92\n    /* \"#utility.yul\":3713:3754   */\n  tag_93\n    /* \"#utility.yul\":3737:3753   */\n  dup3\n    /* \"#utility.yul\":3713:3754   */\n  tag_41\n  jump\t// in\ntag_93:\n    /* \"#utility.yul\":3705:3711   */\n  dup5\n    /* \"#utility.yul\":3698:3702   */\n  dup5\n    /* \"#utility.yul\":3692:3703   */\n  sload\n    /* \"#utility.yul\":3664:3755   */\n  tag_37\n  jump\t// in\ntag_92:\n    /* \"#utility.yul\":3658:3662   */\n  dup3\n    /* \"#utility.yul\":3651:3756   */\n  sstore\n    /* \"#utility.yul\":3569:3762   */\n  pop\n    /* \"#utility.yul\":3493:3762   */\n  pop\n  pop\n  pop\n  jump\t// out\n    /* \"#utility.yul\":3768:3841   */\ntag_43:\n    /* \"#utility.yul\":3813:3816   */\n  0x00\n    /* \"#utility.yul\":3768:3841   */\n  swap1\n  jump\t// out\n    /* \"#utility.yul\":3847:4036   */\ntag_44:\n    /* \"#utility.yul\":3924:3956   */\n  tag_96\n  tag_43\n  jump\t// in\ntag_96:\n    /* \"#utility.yul\":3965:4030   */\n  tag_97\n    /* \"#utility.yul\":4023:4029   */\n  dup2\n    /* \"#utility.yul\":4015:4021   */\n  dup5\n    /* \"#utility.yul\":4009:4013   */\n  dup5\n    /* \"#utility.yul\":3965:4030   */\n  tag_42\n  jump\t// in\ntag_97:\n    /* \"#utility.yul\":3900:4036   */\n  pop\n    /* \"#utility.yul\":3847:4036   */\n  pop\n  pop\n  jump\t// out\n    /* \"#utility.yul\":4042:4228   */\ntag_45:\n    /* \"#utility.yul\":4102:4222   */\ntag_99:\n    /* \"#utility.yul\":4119:4122   */\n  dup2\n    /* \"#utility.yul\":4112:4117   */\n  dup2\n    /* \"#utility.yul\":4109:4123   */\n  lt\n    /* \"#utility.yul\":4102:4222   */\n  iszero\n  tag_101\n  jumpi\n    /* \"#utility.yul\":4173:4212   */\n  tag_102\n    /* \"#utility.yul\":4210:4211   */\n  0x00\n    /* \"#utility.yul\":4203:4208   */\n  dup3\n    /* \"#utility.yul\":4173:4212   */\n  tag_44\n  jump\t// in\ntag_102:\n    /* \"#utility.yul\":4146:4147   */\n  0x01\n    /* \"#utility.yul\":4139:4144   */\n  dup2\n    /* \"#utility.yul\":4135:4148   */\n  add\n    /* \"#utility.yul\":4126:4148   */\n  swap1\n  pop\n    /* \"#utility.yul\":4102:4222   */\n  jump(tag_99)\ntag_101:\n    /* \"#utility.yul\":4042:4228   */\n  pop\n  pop\n  jump\t// out\n    /* \"#utility.yul\":4234:4777   */\ntag_46:\n    /* \"#utility.yul\":4335:4337   */\n  0x1f\n    /* \"#utility.yul\":4330:4333   */\n  dup3\n    /* \"#utility.yul\":4327:4338   */\n  gt\n    /* \"#utility.yul\":4324:4770   */\n  iszero\n  tag_104\n  jumpi\n    /* \"#utility.yul\":4369:4407   */\n  tag_105\n    /* \"#utility.yul\":4401:4406   */\n  dup2\n    /* \"#utility.yul\":4369:4407   */\n  tag_34\n  jump\t// in\ntag_105:\n    /* \"#utility.yul\":4453:4482   */\n  tag_106\n    /* \"#utility.yul\":4471:4481   */\n  dup5\n    /* \"#utility.yul\":4453:4482   */\n  tag_35\n  jump\t// in\ntag_106:\n    /* \"#utility.yul\":4443:4451   */\n  dup2\n    /* \"#utility.yul\":4439:4483   */\n  add\n    /* \"#utility.yul\":4636:4638   */\n  0x20\n    /* \"#utility.yul\":4624:4634   */\n  dup6\n    /* \"#utility.yul\":4621:4639   */\n  lt\n    /* \"#utility.yul\":4618:4667   */\n  iszero\n  tag_107\n  jumpi\n    /* \"#utility.yul\":4657:4665   */\n  dup2\n    /* \"#utility.yul\":4642:4665   */\n  swap1\n  pop\n    /* \"#utility.yul\":4618:4667   */\ntag_107:\n    /* \"#utility.yul\":4680:4760   */\n  tag_108\n    /* \"#utility.yul\":4736:4758   */\n  tag_109\n    /* \"#utility.yul\":4754:4757   */\n  dup6\n    /* \"#utility.yul\":4736:4758   */\n  tag_35\n  jump\t// in\ntag_109:\n    /* \"#utility.yul\":4726:4734   */\n  dup4\n    /* \"#utility.yul\":4722:4759   */\n  add\n    /* \"#utility.yul\":4709:4720   */\n  dup3\n    /* \"#utility.yul\":4680:4760   */\n  tag_45\n  jump\t// in\ntag_108:\n    /* \"#utility.yul\":4339:4770   */\n  pop\n  pop\n    /* \"#utility.yul\":4324:4770   */\ntag_104:\n    /* \"#utility.yul\":4234:4777   */\n  pop\n  pop\n  pop\n  jump\t// out\n    /* \"#utility.yul\":4783:4900   */\ntag_47:\n    /* \"#utility.yul\":4837:4845   */\n  0x00\n    /* \"#utility.yul\":4887:4892   */\n  dup3\n    /* \"#utility.yul\":4881:4885   */\n  dup3\n    /* \"#utility.yul\":4877:4893   */\n  shr\n    /* \"#utility.yul\":4856:4893   */\n  swap1\n  pop\n    /* \"#utility.yul\":4783:4900   */\n  swap3\n  swap2\n  pop\n  pop\n  jump\t// out\n    /* \"#utility.yul\":4906:5075   */\ntag_48:\n    /* \"#utility.yul\":4950:4956   */\n  0x00\n    /* \"#utility.yul\":4983:5034   */\n  tag_112\n    /* \"#utility.yul\":5031:5032   */\n  0x00\n    /* \"#utility.yul\":5027:5033   */\n  not\n    /* \"#utility.yul\":5019:5024   */\n  dup5\n    /* \"#utility.yul\":5016:5017   */\n  0x08\n    /* \"#utility.yul\":5012:5025   */\n  mul\n    /* \"#utility.yul\":4983:5034   */\n  tag_47\n  jump\t// in\ntag_112:\n    /* \"#utility.yul\":4979:5035   */\n  not\n    /* \"#utility.yul\":5064:5068   */\n  dup1\n    /* \"#utility.yul\":5058:5062   */\n  dup4\n    /* \"#utility.yul\":5054:5069   */\n  and\n    /* \"#utility.yul\":5044:5069   */\n  swap2\n  pop\n    /* \"#utility.yul\":4957:5075   */\n  pop\n    /* \"#utility.yul\":4906:5075   */\n  swap3\n  swap2\n  pop\n  pop\n  jump\t// out\n    /* \"#utility.yul\":5080:5375   */\ntag_49:\n    /* \"#utility.yul\":5156:5160   */\n  0x00\n    /* \"#utility.yul\":5302:5331   */\n  tag_114\n    /* \"#utility.yul\":5327:5330   */\n  dup4\n    /* \"#utility.yul\":5321:5325   */\n  dup4\n    /* \"#utility.yul\":5302:5331   */\n  tag_48\n  jump\t// in\ntag_114:\n    /* \"#utility.yul\":5294:5331   */\n  swap2\n  pop\n    /* \"#utility.yul\":5364:5367   */\n  dup3\n    /* \"#utility.yul\":5361:5362   */\n  0x02\n    /* \"#utility.yul\":5357:5368   */\n  mul\n    /* \"#utility.yul\":5351:5355   */\n  dup3\n    /* \"#utility.yul\":5348:5369   */\n  or\n    /* \"#utility.yul\":5340:5369   */\n  swap1\n  pop\n    /* \"#utility.yul\":5080:5375   */\n  swap3\n  swap2\n  pop\n  pop\n  jump\t// out\n    /* \"#utility.yul\":5380:6775   */\ntag_20:\n    /* \"#utility.yul\":5497:5534   */\n  tag_116\n    /* \"#utility.yul\":5530:5533   */\n  dup3\n    /* \"#utility.yul\":5497:5534   */\n  tag_30\n  jump\t// in\ntag_116:\n    /* \"#utility.yul\":5599:5617   */\n  0xffffffffffffffff\n    /* \"#utility.yul\":5591:5597   */\n  dup2\n    /* \"#utility.yul\":5588:5618   */\n  gt\n    /* \"#utility.yul\":5585:5641   */\n  iszero\n  tag_117\n  jumpi\n    /* \"#utility.yul\":5621:5639   */\n  tag_118\n  tag_31\n  jump\t// in\ntag_118:\n    /* \"#utility.yul\":5585:5641   */\ntag_117:\n    /* \"#utility.yul\":5665:5703   */\n  tag_119\n    /* \"#utility.yul\":5697:5701   */\n  dup3\n    /* \"#utility.yul\":5691:5702   */\n  sload\n    /* \"#utility.yul\":5665:5703   */\n  tag_33\n  jump\t// in\ntag_119:\n    /* \"#utility.yul\":5750:5817   */\n  tag_120\n    /* \"#utility.yul\":5810:5816   */\n  dup3\n    /* \"#utility.yul\":5802:5808   */\n  dup3\n    /* \"#utility.yul\":5796:5800   */\n  dup6\n    /* \"#utility.yul\":5750:5817   */\n  tag_46\n  jump\t// in\ntag_120:\n    /* \"#utility.yul\":5844:5845   */\n  0x00\n    /* \"#utility.yul\":5868:5872   */\n  0x20\n    /* \"#utility.yul\":5855:5872   */\n  swap1\n  pop\n    /* \"#utility.yul\":5900:5902   */\n  0x1f\n    /* \"#utility.yul\":5892:5898   */\n  dup4\n    /* \"#utility.yul\":5889:5903   */\n  gt\n    /* \"#utility.yul\":5917:5918   */\n  0x01\n    /* \"#utility.yul\":5912:6530   */\n  dup2\n  eq\n  tag_122\n  jumpi\n    /* \"#utility.yul\":6574:6575   */\n  0x00\n    /* \"#utility.yul\":6591:6597   */\n  dup5\n    /* \"#utility.yul\":6588:6665   */\n  iszero\n  tag_123\n  jumpi\n    /* \"#utility.yul\":6640:6649   */\n  dup3\n    /* \"#utility.yul\":6635:6638   */\n  dup8\n    /* \"#utility.yul\":6631:6650   */\n  add\n    /* \"#utility.yul\":6625:6651   */\n  mload\n    /* \"#utility.yul\":6616:6651   */\n  swap1\n  pop\n    /* \"#utility.yul\":6588:6665   */\ntag_123:\n    /* \"#utility.yul\":6691:6758   */\n  tag_124\n    /* \"#utility.yul\":6751:6757   */\n  dup6\n    /* \"#utility.yul\":6744:6749   */\n  dup3\n    /* \"#utility.yul\":6691:6758   */\n  tag_49\n  jump\t// in\ntag_124:\n    /* \"#utility.yul\":6685:6689   */\n  dup7\n    /* \"#utility.yul\":6678:6759   */\n  sstore\n    /* \"#utility.yul\":6547:6769   */\n  pop\n    /* \"#utility.yul\":5882:6769   */\n  jump(tag_121)\n    /* \"#utility.yul\":5912:6530   */\ntag_122:\n    /* \"#utility.yul\":5964:5968   */\n  0x1f\n    /* \"#utility.yul\":5960:5969   */\n  not\n    /* \"#utility.yul\":5952:5958   */\n  dup5\n    /* \"#utility.yul\":5948:5970   */\n  and\n    /* \"#utility.yul\":5998:6035   */\n  tag_125\n    /* \"#utility.yul\":6030:6034   */\n  dup7\n    /* \"#utility.yul\":5998:6035   */\n  tag_34\n  jump\t// in\ntag_125:\n    /* \"#utility.yul\":6057:6058   */\n  0x00\n    /* \"#utility.yul\":6071:6279   */\ntag_126:\n    /* \"#utility.yul\":6085:6092   */\n  dup3\n    /* \"#utility.yul\":6082:6083   */\n  dup2\n    /* \"#utility.yul\":6079:6093   */\n  lt\n    /* \"#utility.yul\":6071:6279   */\n  iszero\n  tag_128\n  jumpi\n    /* \"#utility.yul\":6164:6173   */\n  dup5\n    /* \"#utility.yul\":6159:6162   */\n  dup10\n    /* \"#utility.yul\":6155:6174   */\n  add\n    /* \"#utility.yul\":6149:6175   */\n  mload\n    /* \"#utility.yul\":6141:6147   */\n  dup3\n    /* \"#utility.yul\":6134:6176   */\n  sstore\n    /* \"#utility.yul\":6215:6216   */\n  0x01\n    /* \"#utility.yul\":6207:6213   */\n  dup3\n    /* \"#utility.yul\":6203:6217   */\n  add\n    /* \"#utility.yul\":6193:6217   */\n  swap2\n  pop\n    /* \"#utility.yul\":6262:6264   */\n  0x20\n    /* \"#utility.yul\":6251:6260   */\n  dup6\n    /* \"#utility.yul\":6247:6265   */\n  add\n    /* \"#utility.yul\":6234:6265   */\n  swap5\n  pop\n    /* \"#utility.yul\":6108:6112   */\n  0x20\n    /* \"#utility.yul\":6105:6106   */\n  dup2\n    /* \"#utility.yul\":6101:6113   */\n  add\n    /* \"#utility.yul\":6096:6113   */\n  swap1\n  pop\n    /* \"#utility.yul\":6071:6279   */\n  jump(tag_126)\ntag_128:\n    /* \"#utility.yul\":6307:6313   */\n  dup7\n    /* \"#utility.yul\":6298:6305   */\n  dup4\n    /* \"#utility.yul\":6295:6314   */\n  lt\n    /* \"#utility.yul\":6292:6471   */\n  iszero\n  tag_129\n  jumpi\n    /* \"#utility.yul\":6365:6374   */\n  dup5\n    /* \"#utility.yul\":6360:6363   */\n  dup10\n    /* \"#utility.yul\":6356:6375   */\n  add\n    /* \"#utility.yul\":6350:6376   */\n  mload\n    /* \"#utility.yul\":6408:6456   */\n  tag_130\n    /* \"#utility.yul\":6450:6454   */\n  0x1f\n    /* \"#utility.yul\":6442:6448   */\n  dup10\n    /* \"#utility.yul\":6438:6455   */\n  and\n    /* \"#utility.yul\":6427:6436   */\n  dup3\n    /* \"#utility.yul\":6408:6456   */\n  tag_48\n  jump\t// in\ntag_130:\n    /* \"#utility.yul\":6400:6406   */\n  dup4\n    /* \"#utility.yul\":6393:6457   */\n  sstore\n    /* \"#utility.yul\":6315:6471   */\n  pop\n    /* \"#utility.yul\":6292:6471   */\ntag_129:\n    /* \"#utility.yul\":6517:6518   */\n  0x01\n    /* \"#utility.yul\":6513:6514   */\n  0x02\n    /* \"#utility.yul\":6505:6511   */\n  dup9\n    /* \"#utility.yul\":6501:6515   */\n  mul\n    /* \"#utility.yul\":6497:6519   */\n  add\n    /* \"#utility.yul\":6491:6495   */\n  dup9\n    /* \"#utility.yul\":6484:6520   */\n  sstore\n    /* \"#utility.yul\":5919:6530   */\n  pop\n  pop\n  pop\n    /* \"#utility.yul\":5882:6769   */\ntag_121:\n  pop\n    /* \"#utility.yul\":5472:6775   */\n  pop\n  pop\n  pop\n    /* \"#utility.yul\":5380:6775   */\n  pop\n  pop\n  jump\t// out\n    /* \"contracts/SomTokens/SomTokens.sol\":376:2275  contract SomTokens is ERC1155, ERC1155Burnable, Ownable, ERC1155Supply {... */\ntag_17:\n  dataSize(sub_0)\n  dup1\n  dataOffset(sub_0)\n  0x00\n  codecopy\n  0x00\n  return\nstop\n\nsub_0: assembly {\n        /* \"contracts/SomTokens/SomTokens.sol\":376:2275  contract SomTokens is ERC1155, ERC1155Burnable, Ownable, ERC1155Supply {... */\n      mstore(0x40, 0x80)\n      callvalue\n      dup1\n      iszero\n      tag_1\n      jumpi\n      0x00\n      dup1\n      revert\n    tag_1:\n      pop\n      jumpi(tag_2, lt(calldatasize, 0x04))\n      shr(0xe0, calldataload(0x00))\n      dup1\n      0x715018a6\n      gt\n      tag_23\n      jumpi\n      dup1\n      0xbd85b039\n      gt\n      tag_24\n      jumpi\n      dup1\n      0xbd85b039\n      eq\n      tag_18\n      jumpi\n      dup1\n      0xe985e9c5\n      eq\n      tag_19\n      jumpi\n      dup1\n      0xf242432a\n      eq\n      tag_20\n      jumpi\n      dup1\n      0xf2fde38b\n      eq\n      tag_21\n      jumpi\n      dup1\n      0xf5298aca\n      eq\n      tag_22\n      jumpi\n      jump(tag_2)\n    tag_24:\n      dup1\n      0x715018a6\n      eq\n      tag_13\n      jumpi\n      dup1\n      0x731133e9\n      eq\n      tag_14\n      jumpi\n      dup1\n      0x8da5cb5b\n      eq\n      tag_15\n      jumpi\n      dup1\n      0xa168d873\n      eq\n      tag_16\n      jumpi\n      dup1\n      0xa22cb465\n      eq\n      tag_17\n      jumpi\n      jump(tag_2)\n    tag_23:\n      dup1\n      0x2eb2c2d6\n      gt\n      tag_25\n      jumpi\n      dup1\n      0x2eb2c2d6\n      eq\n      tag_8\n      jumpi\n      dup1\n      0x4e1273f4\n      eq\n      tag_9\n      jumpi\n      dup1\n      0x4f558e79\n      eq\n      tag_10\n      jumpi\n      dup1\n      0x6b20c454\n      eq\n      tag_11\n      jumpi\n      dup1\n      0x711953ef\n      eq\n      tag_12\n      jumpi\n      jump(tag_2)\n    tag_25:\n      dup1\n      0xfdd58e\n      eq\n      tag_3\n      jumpi\n      dup1\n      0x01ffc9a7\n      eq\n      tag_4\n      jumpi\n      dup1\n      0x0e89341c\n      eq\n      tag_5\n      jumpi\n      dup1\n      0x18160ddd\n      eq\n      tag_6\n      jumpi\n      dup1\n      0x1f7fdffa\n      eq\n      tag_7\n      jumpi\n    tag_2:\n      0x00\n      dup1\n      revert\n        /* \"@openzeppelin/contracts/token/ERC1155/ERC1155.sol\":2247:2379  function balanceOf(address account, uint256 id) public view virtual returns (uint256) {... */\n    tag_3:\n      tag_26\n      0x04\n      dup1\n      calldatasize\n      sub\n      dup2\n      add\n      swap1\n      tag_27\n      swap2\n      swap1\n      tag_28\n      jump\t// in\n    tag_27:\n      tag_29\n      jump\t// in\n    tag_26:\n      mload(0x40)\n      tag_30\n      swap2\n      swap1\n      tag_31\n      jump\t// in\n    tag_30:\n      mload(0x40)\n      dup1\n      swap2\n      sub\n      swap1\n      return\n        /* \"@openzeppelin/contracts/token/ERC1155/ERC1155.sol\":1380:1685  function supportsInterface(bytes4 interfaceId) public view virtual override(ERC165, IERC165) returns (bool) {... */\n    tag_4:\n      tag_32\n      0x04\n      dup1\n      calldatasize\n      sub\n      dup2\n      add\n      swap1\n      tag_33\n      swap2\n      swap1\n      tag_34\n      jump\t// in\n    tag_33:\n      tag_35\n      jump\t// in\n    tag_32:\n      mload(0x40)\n      tag_36\n      swap2\n      swap1\n      tag_37\n      jump\t// in\n    tag_36:\n      mload(0x40)\n      dup1\n      swap2\n      sub\n      swap1\n      return\n        /* \"@openzeppelin/contracts/token/ERC1155/ERC1155.sol\":2084:2187  function uri(uint256 /* id */) public view virtual returns (string memory) {... */\n    tag_5:\n      tag_38\n      0x04\n      dup1\n      calldatasize\n      sub\n      dup2\n      add\n      swap1\n      tag_39\n      swap2\n      swap1\n      tag_40\n      jump\t// in\n    tag_39:\n      tag_41\n      jump\t// in\n    tag_38:\n      mload(0x40)\n      tag_42\n      swap2\n      swap1\n      tag_43\n      jump\t// in\n    tag_42:\n      mload(0x40)\n      dup1\n      swap2\n      sub\n      swap1\n      return\n        /* \"@openzeppelin/contracts/token/ERC1155/extensions/ERC1155Supply.sol\":1127:1227  function totalSupply() public view virtual returns (uint256) {... */\n    tag_6:\n      tag_44\n      tag_45\n      jump\t// in\n    tag_44:\n      mload(0x40)\n      tag_46\n      swap2\n      swap1\n      tag_31\n      jump\t// in\n    tag_46:\n      mload(0x40)\n      dup1\n      swap2\n      sub\n      swap1\n      return\n        /* \"contracts/SomTokens/SomTokens.sol\":886:1194  function mintBatch (... */\n    tag_7:\n      tag_47\n      0x04\n      dup1\n      calldatasize\n      sub\n      dup2\n      add\n      swap1\n      tag_48\n      swap2\n      swap1\n      tag_49\n      jump\t// in\n    tag_48:\n      tag_50\n      jump\t// in\n    tag_47:\n      stop\n        /* \"@openzeppelin/contracts/token/ERC1155/ERC1155.sol\":4014:4443  function safeBatchTransferFrom(... */\n    tag_8:\n      tag_51\n      0x04\n      dup1\n      calldatasize\n      sub\n      dup2\n      add\n      swap1\n      tag_52\n      swap2\n      swap1\n      tag_53\n      jump\t// in\n    tag_52:\n      tag_54\n      jump\t// in\n    tag_51:\n      stop\n        /* \"@openzeppelin/contracts/token/ERC1155/ERC1155.sol\":2536:3088  function balanceOfBatch(... */\n    tag_9:\n      tag_55\n      0x04\n      dup1\n      calldatasize\n      sub\n      dup2\n      add\n      swap1\n      tag_56\n      swap2\n      swap1\n      tag_57\n      jump\t// in\n    tag_56:\n      tag_58\n      jump\t// in\n    tag_55:\n      mload(0x40)\n      tag_59\n      swap2\n      swap1\n      tag_60\n      jump\t// in\n    tag_59:\n      mload(0x40)\n      dup1\n      swap2\n      sub\n      swap1\n      return\n        /* \"@openzeppelin/contracts/token/ERC1155/extensions/ERC1155Supply.sol\":1320:1426  function exists(uint256 id) public view virtual returns (bool) {... */\n    tag_10:\n      tag_61\n      0x04\n      dup1\n      calldatasize\n      sub\n      dup2\n      add\n      swap1\n      tag_62\n      swap2\n      swap1\n      tag_40\n      jump\t// in\n    tag_62:\n      tag_63\n      jump\t// in\n    tag_61:\n      mload(0x40)\n      tag_64\n      swap2\n      swap1\n      tag_37\n      jump\t// in\n    tag_64:\n      mload(0x40)\n      dup1\n      swap2\n      sub\n      swap1\n      return\n        /* \"@openzeppelin/contracts/token/ERC1155/extensions/ERC1155Burnable.sol\":681:994  function burnBatch(address account, uint256[] memory ids, uint256[] memory values) public virtual {... */\n    tag_11:\n      tag_65\n      0x04\n      dup1\n      calldatasize\n      sub\n      dup2\n      add\n      swap1\n      tag_66\n      swap2\n      swap1\n      tag_67\n      jump\t// in\n    tag_66:\n      tag_68\n      jump\t// in\n    tag_65:\n      stop\n        /* \"contracts/SomTokens/SomTokens.sol\":1906:2069  function setGameAddress (address account) public onlyOwner {... */\n    tag_12:\n      tag_69\n      0x04\n      dup1\n      calldatasize\n      sub\n      dup2\n      add\n      swap1\n      tag_70\n      swap2\n      swap1\n      tag_71\n      jump\t// in\n    tag_70:\n      tag_72\n      jump\t// in\n    tag_69:\n      stop\n        /* \"@openzeppelin/contracts/access/Ownable.sol\":2293:2394  function renounceOwnership() public virtual onlyOwner {... */\n    tag_13:\n      tag_73\n      tag_74\n      jump\t// in\n    tag_73:\n      stop\n        /* \"contracts/SomTokens/SomTokens.sol\":596:882  function mint (... */\n    tag_14:\n      tag_75\n      0x04\n      dup1\n      calldatasize\n      sub\n      dup2\n      add\n      swap1\n      tag_76\n      swap2\n      swap1\n      tag_77\n      jump\t// in\n    tag_76:\n      tag_78\n      jump\t// in\n    tag_75:\n      stop\n        /* \"@openzeppelin/contracts/access/Ownable.sol\":1638:1723  function owner() public view virtual returns (address) {... */\n    tag_15:\n      tag_79\n      tag_80\n      jump\t// in\n    tag_79:\n      mload(0x40)\n      tag_81\n      swap2\n      swap1\n      tag_82\n      jump\t// in\n    tag_81:\n      mload(0x40)\n      dup1\n      swap2\n      sub\n      swap1\n      return\n        /* \"contracts/SomTokens/SomTokens.sol\":451:477  address public gameAddress */\n    tag_16:\n      tag_83\n      tag_84\n      jump\t// in\n    tag_83:\n      mload(0x40)\n      tag_85\n      swap2\n      swap1\n      tag_82\n      jump\t// in\n    tag_85:\n      mload(0x40)\n      dup1\n      swap2\n      sub\n      swap1\n      return\n        /* \"@openzeppelin/contracts/token/ERC1155/ERC1155.sol\":3156:3300  function setApprovalForAll(address operator, bool approved) public virtual {... */\n    tag_17:\n      tag_86\n      0x04\n      dup1\n      calldatasize\n      sub\n      dup2\n      add\n      swap1\n      tag_87\n      swap2\n      swap1\n      tag_88\n      jump\t// in\n    tag_87:\n      tag_89\n      jump\t// in\n    tag_86:\n      stop\n        /* \"@openzeppelin/contracts/token/ERC1155/extensions/ERC1155Supply.sol\":959:1070  function totalSupply(uint256 id) public view virtual returns (uint256) {... */\n    tag_18:\n      tag_90\n      0x04\n      dup1\n      calldatasize\n      sub\n      dup2\n      add\n      swap1\n      tag_91\n      swap2\n      swap1\n      tag_40\n      jump\t// in\n    tag_91:\n      tag_92\n      jump\t// in\n    tag_90:\n      mload(0x40)\n      tag_93\n      swap2\n      swap1\n      tag_31\n      jump\t// in\n    tag_93:\n      mload(0x40)\n      dup1\n      swap2\n      sub\n      swap1\n      return\n        /* \"@openzeppelin/contracts/token/ERC1155/ERC1155.sol\":3367:3524  function isApprovedForAll(address account, address operator) public view virtual returns (bool) {... */\n    tag_19:\n      tag_94\n      0x04\n      dup1\n      calldatasize\n      sub\n      dup2\n      add\n      swap1\n      tag_95\n      swap2\n      swap1\n      tag_96\n      jump\t// in\n    tag_95:\n      tag_97\n      jump\t// in\n    tag_94:\n      mload(0x40)\n      tag_98\n      swap2\n      swap1\n      tag_37\n      jump\t// in\n    tag_98:\n      mload(0x40)\n      dup1\n      swap2\n      sub\n      swap1\n      return\n        /* \"@openzeppelin/contracts/token/ERC1155/ERC1155.sol\":3591:3942  function safeTransferFrom(address from, address to, uint256 id, uint256 value, bytes memory data) public virtual {... */\n    tag_20:\n      tag_99\n      0x04\n      dup1\n      calldatasize\n      sub\n      dup2\n      add\n      swap1\n      tag_100\n      swap2\n      swap1\n      tag_101\n      jump\t// in\n    tag_100:\n      tag_102\n      jump\t// in\n    tag_99:\n      stop\n        /* \"@openzeppelin/contracts/access/Ownable.sol\":2543:2758  function transferOwnership(address newOwner) public virtual onlyOwner {... */\n    tag_21:\n      tag_103\n      0x04\n      dup1\n      calldatasize\n      sub\n      dup2\n      add\n      swap1\n      tag_104\n      swap2\n      swap1\n      tag_71\n      jump\t// in\n    tag_104:\n      tag_105\n      jump\t// in\n    tag_103:\n      stop\n        /* \"@openzeppelin/contracts/token/ERC1155/extensions/ERC1155Burnable.sol\":394:675  function burn(address account, uint256 id, uint256 value) public virtual {... */\n    tag_22:\n      tag_106\n      0x04\n      dup1\n      calldatasize\n      sub\n      dup2\n      add\n      swap1\n      tag_107\n      swap2\n      swap1\n      tag_108\n      jump\t// in\n    tag_107:\n      tag_109\n      jump\t// in\n    tag_106:\n      stop\n        /* \"@openzeppelin/contracts/token/ERC1155/ERC1155.sol\":2247:2379  function balanceOf(address account, uint256 id) public view virtual returns (uint256) {... */\n    tag_29:\n        /* \"@openzeppelin/contracts/token/ERC1155/ERC1155.sol\":2324:2331  uint256 */\n      0x00\n        /* \"@openzeppelin/contracts/token/ERC1155/ERC1155.sol\":2350:2359  _balances */\n      dup1\n        /* \"@openzeppelin/contracts/token/ERC1155/ERC1155.sol\":2350:2363  _balances[id] */\n      0x00\n        /* \"@openzeppelin/contracts/token/ERC1155/ERC1155.sol\":2360:2362  id */\n      dup4\n        /* \"@openzeppelin/contracts/token/ERC1155/ERC1155.sol\":2350:2363  _balances[id] */\n      dup2\n      mstore\n      0x20\n      add\n      swap1\n      dup2\n      mstore\n      0x20\n      add\n      0x00\n      keccak256\n        /* \"@openzeppelin/contracts/token/ERC1155/ERC1155.sol\":2350:2372  _balances[id][account] */\n      0x00\n        /* \"@openzeppelin/contracts/token/ERC1155/ERC1155.sol\":2364:2371  account */\n      dup5\n        /* \"@openzeppelin/contracts/token/ERC1155/ERC1155.sol\":2350:2372  _balances[id][account] */\n      0xffffffffffffffffffffffffffffffffffffffff\n      and\n      0xffffffffffffffffffffffffffffffffffffffff\n      and\n      dup2\n      mstore\n      0x20\n      add\n      swap1\n      dup2\n      mstore\n      0x20\n      add\n      0x00\n      keccak256\n      sload\n        /* \"@openzeppelin/contracts/token/ERC1155/ERC1155.sol\":2343:2372  return _balances[id][account] */\n      swap1\n      pop\n        /* \"@openzeppelin/contracts/token/ERC1155/ERC1155.sol\":2247:2379  function balanceOf(address account, uint256 id) public view virtual returns (uint256) {... */\n      swap3\n      swap2\n      pop\n      pop\n      jump\t// out\n        /* \"@openzeppelin/contracts/token/ERC1155/ERC1155.sol\":1380:1685  function supportsInterface(bytes4 interfaceId) public view virtual override(ERC165, IERC165) returns (bool) {... */\n    tag_35:\n        /* \"@openzeppelin/contracts/token/ERC1155/ERC1155.sol\":1482:1486  bool */\n      0x00\n        /* \"@openzeppelin/contracts/token/ERC1155/ERC1155.sol\":1532:1558  type(IERC1155).interfaceId */\n      0xd9b67a2600000000000000000000000000000000000000000000000000000000\n        /* \"@openzeppelin/contracts/token/ERC1155/ERC1155.sol\":1517:1558  interfaceId == type(IERC1155).interfaceId */\n      not(0xffffffffffffffffffffffffffffffffffffffffffffffffffffffff)\n      and\n        /* \"@openzeppelin/contracts/token/ERC1155/ERC1155.sol\":1517:1528  interfaceId */\n      dup3\n        /* \"@openzeppelin/contracts/token/ERC1155/ERC1155.sol\":1517:1558  interfaceId == type(IERC1155).interfaceId */\n      not(0xffffffffffffffffffffffffffffffffffffffffffffffffffffffff)\n      and\n      eq\n        /* \"@openzeppelin/contracts/token/ERC1155/ERC1155.sol\":1517:1626  interfaceId == type(IERC1155).interfaceId ||... */\n      dup1\n      tag_112\n      jumpi\n      pop\n        /* \"@openzeppelin/contracts/token/ERC1155/ERC1155.sol\":1589:1626  type(IERC1155MetadataURI).interfaceId */\n      0x0e89341c00000000000000000000000000000000000000000000000000000000\n        /* \"@openzeppelin/contracts/token/ERC1155/ERC1155.sol\":1574:1626  interfaceId == type(IERC1155MetadataURI).interfaceId */\n      not(0xffffffffffffffffffffffffffffffffffffffffffffffffffffffff)\n      and\n        /* \"@openzeppelin/contracts/token/ERC1155/ERC1155.sol\":1574:1585  interfaceId */\n      dup3\n        /* \"@openzeppelin/contracts/token/ERC1155/ERC1155.sol\":1574:1626  interfaceId == type(IERC1155MetadataURI).interfaceId */\n      not(0xffffffffffffffffffffffffffffffffffffffffffffffffffffffff)\n      and\n      eq\n        /* \"@openzeppelin/contracts/token/ERC1155/ERC1155.sol\":1517:1626  interfaceId == type(IERC1155).interfaceId ||... */\n    tag_112:\n        /* \"@openzeppelin/contracts/token/ERC1155/ERC1155.sol\":1517:1678  interfaceId == type(IERC1155).interfaceId ||... */\n      dup1\n      tag_113\n      jumpi\n      pop\n        /* \"@openzeppelin/contracts/token/ERC1155/ERC1155.sol\":1642:1678  super.supportsInterface(interfaceId) */\n      tag_114\n        /* \"@openzeppelin/contracts/token/ERC1155/ERC1155.sol\":1666:1677  interfaceId */\n      dup3\n        /* \"@openzeppelin/contracts/token/ERC1155/ERC1155.sol\":1642:1665  super.supportsInterface */\n      tag_115\n        /* \"@openzeppelin/contracts/token/ERC1155/ERC1155.sol\":1642:1678  super.supportsInterface(interfaceId) */\n      jump\t// in\n    tag_114:\n        /* \"@openzeppelin/contracts/token/ERC1155/ERC1155.sol\":1517:1678  interfaceId == type(IERC1155).interfaceId ||... */\n    tag_113:\n        /* \"@openzeppelin/contracts/token/ERC1155/ERC1155.sol\":1498:1678  return... */\n      swap1\n      pop\n        /* \"@openzeppelin/contracts/token/ERC1155/ERC1155.sol\":1380:1685  function supportsInterface(bytes4 interfaceId) public view virtual override(ERC165, IERC165) returns (bool) {... */\n      swap2\n      swap1\n      pop\n      jump\t// out\n        /* \"@openzeppelin/contracts/token/ERC1155/ERC1155.sol\":2084:2187  function uri(uint256 /* id */) public view virtual returns (string memory) {... */\n    tag_41:\n        /* \"@openzeppelin/contracts/token/ERC1155/ERC1155.sol\":2144:2157  string memory */\n      0x60\n        /* \"@openzeppelin/contracts/token/ERC1155/ERC1155.sol\":2176:2180  _uri */\n      0x02\n        /* \"@openzeppelin/contracts/token/ERC1155/ERC1155.sol\":2169:2180  return _uri */\n      dup1\n      sload\n      tag_117\n      swap1\n      tag_118\n      jump\t// in\n    tag_117:\n      dup1\n      0x1f\n      add\n      0x20\n      dup1\n      swap2\n      div\n      mul\n      0x20\n      add\n      mload(0x40)\n      swap1\n      dup2\n      add\n      0x40\n      mstore\n      dup1\n      swap3\n      swap2\n      swap1\n      dup2\n      dup2\n      mstore\n      0x20\n      add\n      dup3\n      dup1\n      sload\n      tag_119\n      swap1\n      tag_118\n      jump\t// in\n    tag_119:\n      dup1\n      iszero\n      tag_120\n      jumpi\n      dup1\n      0x1f\n      lt\n      tag_121\n      jumpi\n      0x0100\n      dup1\n      dup4\n      sload\n      div\n      mul\n      dup4\n      mstore\n      swap2\n      0x20\n      add\n      swap2\n      jump(tag_120)\n    tag_121:\n      dup3\n      add\n      swap2\n      swap1\n      0x00\n      mstore\n      keccak256(0x00, 0x20)\n      swap1\n    tag_122:\n      dup2\n      sload\n      dup2\n      mstore\n      swap1\n      0x01\n      add\n      swap1\n      0x20\n      add\n      dup1\n      dup4\n      gt\n      tag_122\n      jumpi\n      dup3\n      swap1\n      sub\n      0x1f\n      and\n      dup3\n      add\n      swap2\n    tag_120:\n      pop\n      pop\n      pop\n      pop\n      pop\n      swap1\n      pop\n        /* \"@openzeppelin/contracts/token/ERC1155/ERC1155.sol\":2084:2187  function uri(uint256 /* id */) public view virtual returns (string memory) {... */\n      swap2\n      swap1\n      pop\n      jump\t// out\n        /* \"@openzeppelin/contracts/token/ERC1155/extensions/ERC1155Supply.sol\":1127:1227  function totalSupply() public view virtual returns (uint256) {... */\n    tag_45:\n        /* \"@openzeppelin/contracts/token/ERC1155/extensions/ERC1155Supply.sol\":1179:1186  uint256 */\n      0x00\n        /* \"@openzeppelin/contracts/token/ERC1155/extensions/ERC1155Supply.sol\":1205:1220  _totalSupplyAll */\n      sload(0x05)\n        /* \"@openzeppelin/contracts/token/ERC1155/extensions/ERC1155Supply.sol\":1198:1220  return _totalSupplyAll */\n      swap1\n      pop\n        /* \"@openzeppelin/contracts/token/ERC1155/extensions/ERC1155Supply.sol\":1127:1227  function totalSupply() public view virtual returns (uint256) {... */\n      swap1\n      jump\t// out\n        /* \"contracts/SomTokens/SomTokens.sol\":886:1194  function mintBatch (... */\n    tag_50:\n        /* \"contracts/SomTokens/SomTokens.sol\":1049:1050  0 */\n      0x00\n        /* \"contracts/SomTokens/SomTokens.sol\":1026:1051  gameAddress != address(0) */\n      0xffffffffffffffffffffffffffffffffffffffff\n      and\n        /* \"contracts/SomTokens/SomTokens.sol\":1026:1037  gameAddress */\n      0x06\n      0x00\n      swap1\n      sload\n      swap1\n      0x0100\n      exp\n      swap1\n      div\n      0xffffffffffffffffffffffffffffffffffffffff\n      and\n        /* \"contracts/SomTokens/SomTokens.sol\":1026:1051  gameAddress != address(0) */\n      0xffffffffffffffffffffffffffffffffffffffff\n      and\n      sub\n        /* \"contracts/SomTokens/SomTokens.sol\":1018:1077  require(gameAddress != address(0), \"Game address not set.\") */\n      tag_125\n      jumpi\n      mload(0x40)\n      0x08c379a000000000000000000000000000000000000000000000000000000000\n      dup2\n      mstore\n      0x04\n      add\n      tag_126\n      swap1\n      tag_127\n      jump\t// in\n    tag_126:\n      mload(0x40)\n      dup1\n      swap2\n      sub\n      swap1\n      revert\n    tag_125:\n        /* \"contracts/SomTokens/SomTokens.sol\":1105:1116  gameAddress */\n      0x06\n      0x00\n      swap1\n      sload\n      swap1\n      0x0100\n      exp\n      swap1\n      div\n      0xffffffffffffffffffffffffffffffffffffffff\n      and\n        /* \"contracts/SomTokens/SomTokens.sol\":1091:1116  msg.sender == gameAddress */\n      0xffffffffffffffffffffffffffffffffffffffff\n      and\n        /* \"contracts/SomTokens/SomTokens.sol\":1091:1101  msg.sender */\n      caller\n        /* \"contracts/SomTokens/SomTokens.sol\":1091:1116  msg.sender == gameAddress */\n      0xffffffffffffffffffffffffffffffffffffffff\n      and\n      eq\n        /* \"contracts/SomTokens/SomTokens.sol\":1083:1149  require(msg.sender == gameAddress, \"Only game contract can mint.\") */\n      tag_128\n      jumpi\n      mload(0x40)\n      0x08c379a000000000000000000000000000000000000000000000000000000000\n      dup2\n      mstore\n      0x04\n      add\n      tag_129\n      swap1\n      tag_130\n      jump\t// in\n    tag_129:\n      mload(0x40)\n      dup1\n      swap2\n      sub\n      swap1\n      revert\n    tag_128:\n        /* \"contracts/SomTokens/SomTokens.sol\":1155:1189  _mintBatch(to, ids, amounts, data) */\n      tag_131\n        /* \"contracts/SomTokens/SomTokens.sol\":1166:1168  to */\n      dup5\n        /* \"contracts/SomTokens/SomTokens.sol\":1170:1173  ids */\n      dup5\n        /* \"contracts/SomTokens/SomTokens.sol\":1175:1182  amounts */\n      dup5\n        /* \"contracts/SomTokens/SomTokens.sol\":1184:1188  data */\n      dup5\n        /* \"contracts/SomTokens/SomTokens.sol\":1155:1165  _mintBatch */\n      tag_132\n        /* \"contracts/SomTokens/SomTokens.sol\":1155:1189  _mintBatch(to, ids, amounts, data) */\n      jump\t// in\n    tag_131:\n        /* \"contracts/SomTokens/SomTokens.sol\":886:1194  function mintBatch (... */\n      pop\n      pop\n      pop\n      pop\n      jump\t// out\n        /* \"@openzeppelin/contracts/token/ERC1155/ERC1155.sol\":4014:4443  function safeBatchTransferFrom(... */\n    tag_54:\n        /* \"@openzeppelin/contracts/token/ERC1155/ERC1155.sol\":4208:4222  address sender */\n      0x00\n        /* \"@openzeppelin/contracts/token/ERC1155/ERC1155.sol\":4225:4237  _msgSender() */\n      tag_134\n        /* \"@openzeppelin/contracts/token/ERC1155/ERC1155.sol\":4225:4235  _msgSender */\n      tag_135\n        /* \"@openzeppelin/contracts/token/ERC1155/ERC1155.sol\":4225:4237  _msgSender() */\n      jump\t// in\n    tag_134:\n        /* \"@openzeppelin/contracts/token/ERC1155/ERC1155.sol\":4208:4237  address sender = _msgSender() */\n      swap1\n      pop\n        /* \"@openzeppelin/contracts/token/ERC1155/ERC1155.sol\":4259:4265  sender */\n      dup1\n        /* \"@openzeppelin/contracts/token/ERC1155/ERC1155.sol\":4251:4265  from != sender */\n      0xffffffffffffffffffffffffffffffffffffffff\n      and\n        /* \"@openzeppelin/contracts/token/ERC1155/ERC1155.sol\":4251:4255  from */\n      dup7\n        /* \"@openzeppelin/contracts/token/ERC1155/ERC1155.sol\":4251:4265  from != sender */\n      0xffffffffffffffffffffffffffffffffffffffff\n      and\n      eq\n      iszero\n        /* \"@openzeppelin/contracts/token/ERC1155/ERC1155.sol\":4251:4300  from != sender && !isApprovedForAll(from, sender) */\n      dup1\n      iszero\n      tag_136\n      jumpi\n      pop\n        /* \"@openzeppelin/contracts/token/ERC1155/ERC1155.sol\":4270:4300  isApprovedForAll(from, sender) */\n      tag_137\n        /* \"@openzeppelin/contracts/token/ERC1155/ERC1155.sol\":4287:4291  from */\n      dup7\n        /* \"@openzeppelin/contracts/token/ERC1155/ERC1155.sol\":4293:4299  sender */\n      dup3\n        /* \"@openzeppelin/contracts/token/ERC1155/ERC1155.sol\":4270:4286  isApprovedForAll */\n      tag_97\n        /* \"@openzeppelin/contracts/token/ERC1155/ERC1155.sol\":4270:4300  isApprovedForAll(from, sender) */\n      jump\t// in\n    tag_137:\n        /* \"@openzeppelin/contracts/token/ERC1155/ERC1155.sol\":4269:4300  !isApprovedForAll(from, sender) */\n      iszero\n        /* \"@openzeppelin/contracts/token/ERC1155/ERC1155.sol\":4251:4300  from != sender && !isApprovedForAll(from, sender) */\n    tag_136:\n        /* \"@openzeppelin/contracts/token/ERC1155/ERC1155.sol\":4247:4376  if (from != sender && !isApprovedForAll(from, sender)) {... */\n      iszero\n      tag_138\n      jumpi\n        /* \"@openzeppelin/contracts/token/ERC1155/ERC1155.sol\":4352:4358  sender */\n      dup1\n        /* \"@openzeppelin/contracts/token/ERC1155/ERC1155.sol\":4360:4364  from */\n      dup7\n        /* \"@openzeppelin/contracts/token/ERC1155/ERC1155.sol\":4323:4365  ERC1155MissingApprovalForAll(sender, from) */\n      mload(0x40)\n      0xe237d92200000000000000000000000000000000000000000000000000000000\n      dup2\n      mstore\n      0x04\n      add\n      tag_139\n      swap3\n      swap2\n      swap1\n      tag_140\n      jump\t// in\n    tag_139:\n      mload(0x40)\n      dup1\n      swap2\n      sub\n      swap1\n      revert\n        /* \"@openzeppelin/contracts/token/ERC1155/ERC1155.sol\":4247:4376  if (from != sender && !isApprovedForAll(from, sender)) {... */\n    tag_138:\n        /* \"@openzeppelin/contracts/token/ERC1155/ERC1155.sol\":4385:4436  _safeBatchTransferFrom(from, to, ids, values, data) */\n      tag_141\n        /* \"@openzeppelin/contracts/token/ERC1155/ERC1155.sol\":4408:4412  from */\n      dup7\n        /* \"@openzeppelin/contracts/token/ERC1155/ERC1155.sol\":4414:4416  to */\n      dup7\n        /* \"@openzeppelin/contracts/token/ERC1155/ERC1155.sol\":4418:4421  ids */\n      dup7\n        /* \"@openzeppelin/contracts/token/ERC1155/ERC1155.sol\":4423:4429  values */\n      dup7\n        /* \"@openzeppelin/contracts/token/ERC1155/ERC1155.sol\":4431:4435  data */\n      dup7\n        /* \"@openzeppelin/contracts/token/ERC1155/ERC1155.sol\":4385:4407  _safeBatchTransferFrom */\n      tag_142\n        /* \"@openzeppelin/contracts/token/ERC1155/ERC1155.sol\":4385:4436  _safeBatchTransferFrom(from, to, ids, values, data) */\n      jump\t// in\n    tag_141:\n        /* \"@openzeppelin/contracts/token/ERC1155/ERC1155.sol\":4198:4443  {... */\n      pop\n        /* \"@openzeppelin/contracts/token/ERC1155/ERC1155.sol\":4014:4443  function safeBatchTransferFrom(... */\n      pop\n      pop\n      pop\n      pop\n      pop\n      jump\t// out\n        /* \"@openzeppelin/contracts/token/ERC1155/ERC1155.sol\":2536:3088  function balanceOfBatch(... */\n    tag_58:\n        /* \"@openzeppelin/contracts/token/ERC1155/ERC1155.sol\":2660:2676  uint256[] memory */\n      0x60\n        /* \"@openzeppelin/contracts/token/ERC1155/ERC1155.sol\":2711:2714  ids */\n      dup2\n        /* \"@openzeppelin/contracts/token/ERC1155/ERC1155.sol\":2711:2721  ids.length */\n      mload\n        /* \"@openzeppelin/contracts/token/ERC1155/ERC1155.sol\":2692:2700  accounts */\n      dup4\n        /* \"@openzeppelin/contracts/token/ERC1155/ERC1155.sol\":2692:2707  accounts.length */\n      mload\n        /* \"@openzeppelin/contracts/token/ERC1155/ERC1155.sol\":2692:2721  accounts.length != ids.length */\n      eq\n        /* \"@openzeppelin/contracts/token/ERC1155/ERC1155.sol\":2688:2809  if (accounts.length != ids.length) {... */\n      tag_144\n      jumpi\n        /* \"@openzeppelin/contracts/token/ERC1155/ERC1155.sol\":2770:2773  ids */\n      dup2\n        /* \"@openzeppelin/contracts/token/ERC1155/ERC1155.sol\":2770:2780  ids.length */\n      mload\n        /* \"@openzeppelin/contracts/token/ERC1155/ERC1155.sol\":2782:2790  accounts */\n      dup4\n        /* \"@openzeppelin/contracts/token/ERC1155/ERC1155.sol\":2782:2797  accounts.length */\n      mload\n        /* \"@openzeppelin/contracts/token/ERC1155/ERC1155.sol\":2744:2798  ERC1155InvalidArrayLength(ids.length, accounts.length) */\n      mload(0x40)\n      0x5b05999100000000000000000000000000000000000000000000000000000000\n      dup2\n      mstore\n      0x04\n      add\n      tag_145\n      swap3\n      swap2\n      swap1\n      tag_146\n      jump\t// in\n    tag_145:\n      mload(0x40)\n      dup1\n      swap2\n      sub\n      swap1\n      revert\n        /* \"@openzeppelin/contracts/token/ERC1155/ERC1155.sol\":2688:2809  if (accounts.length != ids.length) {... */\n    tag_144:\n        /* \"@openzeppelin/contracts/token/ERC1155/ERC1155.sol\":2819:2849  uint256[] memory batchBalances */\n      0x00\n        /* \"@openzeppelin/contracts/token/ERC1155/ERC1155.sol\":2866:2874  accounts */\n      dup4\n        /* \"@openzeppelin/contracts/token/ERC1155/ERC1155.sol\":2866:2881  accounts.length */\n      mload\n        /* \"@openzeppelin/contracts/token/ERC1155/ERC1155.sol\":2852:2882  new uint256[](accounts.length) */\n      0xffffffffffffffff\n      dup2\n      gt\n      iszero\n      tag_147\n      jumpi\n      tag_148\n      tag_149\n      jump\t// in\n    tag_148:\n    tag_147:\n      mload(0x40)\n      swap1\n      dup1\n      dup3\n      mstore\n      dup1\n      0x20\n      mul\n      0x20\n      add\n      dup3\n      add\n      0x40\n      mstore\n      dup1\n      iszero\n      tag_150\n      jumpi\n      dup2\n      0x20\n      add\n      0x20\n      dup3\n      mul\n      dup1\n      calldatasize\n      dup4\n      calldatacopy\n      dup1\n      dup3\n      add\n      swap2\n      pop\n      pop\n      swap1\n      pop\n    tag_150:\n      pop\n        /* \"@openzeppelin/contracts/token/ERC1155/ERC1155.sol\":2819:2882  uint256[] memory batchBalances = new uint256[](accounts.length) */\n      swap1\n      pop\n        /* \"@openzeppelin/contracts/token/ERC1155/ERC1155.sol\":2898:2907  uint256 i */\n      0x00\n        /* \"@openzeppelin/contracts/token/ERC1155/ERC1155.sol\":2893:3051  for (uint256 i = 0; i < accounts.length; ++i) {... */\n    tag_151:\n        /* \"@openzeppelin/contracts/token/ERC1155/ERC1155.sol\":2917:2925  accounts */\n      dup5\n        /* \"@openzeppelin/contracts/token/ERC1155/ERC1155.sol\":2917:2932  accounts.length */\n      mload\n        /* \"@openzeppelin/contracts/token/ERC1155/ERC1155.sol\":2913:2914  i */\n      dup2\n        /* \"@openzeppelin/contracts/token/ERC1155/ERC1155.sol\":2913:2932  i < accounts.length */\n      lt\n        /* \"@openzeppelin/contracts/token/ERC1155/ERC1155.sol\":2893:3051  for (uint256 i = 0; i < accounts.length; ++i) {... */\n      iszero\n      tag_152\n      jumpi\n        /* \"@openzeppelin/contracts/token/ERC1155/ERC1155.sol\":2972:3040  balanceOf(accounts.unsafeMemoryAccess(i), ids.unsafeMemoryAccess(i)) */\n      tag_154\n        /* \"@openzeppelin/contracts/token/ERC1155/ERC1155.sol\":2982:3012  accounts.unsafeMemoryAccess(i) */\n      tag_155\n        /* \"@openzeppelin/contracts/token/ERC1155/ERC1155.sol\":3010:3011  i */\n      dup3\n        /* \"@openzeppelin/contracts/token/ERC1155/ERC1155.sol\":2982:2990  accounts */\n      dup8\n        /* \"@openzeppelin/contracts/token/ERC1155/ERC1155.sol\":2982:3009  accounts.unsafeMemoryAccess */\n      tag_156\n      swap1\n        /* \"@openzeppelin/contracts/token/ERC1155/ERC1155.sol\":2982:3012  accounts.unsafeMemoryAccess(i) */\n      swap2\n      swap1\n      0xffffffff\n      and\n      jump\t// in\n    tag_155:\n        /* \"@openzeppelin/contracts/token/ERC1155/ERC1155.sol\":3014:3039  ids.unsafeMemoryAccess(i) */\n      tag_157\n        /* \"@openzeppelin/contracts/token/ERC1155/ERC1155.sol\":3037:3038  i */\n      dup4\n        /* \"@openzeppelin/contracts/token/ERC1155/ERC1155.sol\":3014:3017  ids */\n      dup8\n        /* \"@openzeppelin/contracts/token/ERC1155/ERC1155.sol\":3014:3036  ids.unsafeMemoryAccess */\n      tag_158\n      swap1\n        /* \"@openzeppelin/contracts/token/ERC1155/ERC1155.sol\":3014:3039  ids.unsafeMemoryAccess(i) */\n      swap2\n      swap1\n      0xffffffff\n      and\n      jump\t// in\n    tag_157:\n        /* \"@openzeppelin/contracts/token/ERC1155/ERC1155.sol\":2972:2981  balanceOf */\n      tag_29\n        /* \"@openzeppelin/contracts/token/ERC1155/ERC1155.sol\":2972:3040  balanceOf(accounts.unsafeMemoryAccess(i), ids.unsafeMemoryAccess(i)) */\n      jump\t// in\n    tag_154:\n        /* \"@openzeppelin/contracts/token/ERC1155/ERC1155.sol\":2953:2966  batchBalances */\n      dup3\n        /* \"@openzeppelin/contracts/token/ERC1155/ERC1155.sol\":2967:2968  i */\n      dup3\n        /* \"@openzeppelin/contracts/token/ERC1155/ERC1155.sol\":2953:2969  batchBalances[i] */\n      dup2\n      mload\n      dup2\n      lt\n      tag_159\n      jumpi\n      tag_160\n      tag_161\n      jump\t// in\n    tag_160:\n    tag_159:\n      0x20\n      mul\n      0x20\n      add\n      add\n        /* \"@openzeppelin/contracts/token/ERC1155/ERC1155.sol\":2953:3040  batchBalances[i] = balanceOf(accounts.unsafeMemoryAccess(i), ids.unsafeMemoryAccess(i)) */\n      dup2\n      dup2\n      mstore\n      pop\n      pop\n        /* \"@openzeppelin/contracts/token/ERC1155/ERC1155.sol\":2934:2937  ++i */\n      dup1\n      tag_162\n      swap1\n      tag_163\n      jump\t// in\n    tag_162:\n      swap1\n      pop\n        /* \"@openzeppelin/contracts/token/ERC1155/ERC1155.sol\":2893:3051  for (uint256 i = 0; i < accounts.length; ++i) {... */\n      jump(tag_151)\n    tag_152:\n      pop\n        /* \"@openzeppelin/contracts/token/ERC1155/ERC1155.sol\":3068:3081  batchBalances */\n      dup1\n        /* \"@openzeppelin/contracts/token/ERC1155/ERC1155.sol\":3061:3081  return batchBalances */\n      swap2\n      pop\n      pop\n        /* \"@openzeppelin/contracts/token/ERC1155/ERC1155.sol\":2536:3088  function balanceOfBatch(... */\n      swap3\n      swap2\n      pop\n      pop\n      jump\t// out\n        /* \"@openzeppelin/contracts/token/ERC1155/extensions/ERC1155Supply.sol\":1320:1426  function exists(uint256 id) public view virtual returns (bool) {... */\n    tag_63:\n        /* \"@openzeppelin/contracts/token/ERC1155/extensions/ERC1155Supply.sol\":1377:1381  bool */\n      0x00\n        /* \"@openzeppelin/contracts/token/ERC1155/extensions/ERC1155Supply.sol\":1418:1419  0 */\n      dup1\n        /* \"@openzeppelin/contracts/token/ERC1155/extensions/ERC1155Supply.sol\":1400:1415  totalSupply(id) */\n      tag_165\n        /* \"@openzeppelin/contracts/token/ERC1155/extensions/ERC1155Supply.sol\":1412:1414  id */\n      dup4\n        /* \"@openzeppelin/contracts/token/ERC1155/extensions/ERC1155Supply.sol\":1400:1411  totalSupply */\n      tag_92\n        /* \"@openzeppelin/contracts/token/ERC1155/extensions/ERC1155Supply.sol\":1400:1415  totalSupply(id) */\n      jump\t// in\n    tag_165:\n        /* \"@openzeppelin/contracts/token/ERC1155/extensions/ERC1155Supply.sol\":1400:1419  totalSupply(id) > 0 */\n      gt\n        /* \"@openzeppelin/contracts/token/ERC1155/extensions/ERC1155Supply.sol\":1393:1419  return totalSupply(id) > 0 */\n      swap1\n      pop\n        /* \"@openzeppelin/contracts/token/ERC1155/extensions/ERC1155Supply.sol\":1320:1426  function exists(uint256 id) public view virtual returns (bool) {... */\n      swap2\n      swap1\n      pop\n      jump\t// out\n        /* \"@openzeppelin/contracts/token/ERC1155/extensions/ERC1155Burnable.sol\":681:994  function burnBatch(address account, uint256[] memory ids, uint256[] memory values) public virtual {... */\n    tag_68:\n        /* \"@openzeppelin/contracts/token/ERC1155/extensions/ERC1155Burnable.sol\":804:816  _msgSender() */\n      tag_167\n        /* \"@openzeppelin/contracts/token/ERC1155/extensions/ERC1155Burnable.sol\":804:814  _msgSender */\n      tag_135\n        /* \"@openzeppelin/contracts/token/ERC1155/extensions/ERC1155Burnable.sol\":804:816  _msgSender() */\n      jump\t// in\n    tag_167:\n        /* \"@openzeppelin/contracts/token/ERC1155/extensions/ERC1155Burnable.sol\":793:816  account != _msgSender() */\n      0xffffffffffffffffffffffffffffffffffffffff\n      and\n        /* \"@openzeppelin/contracts/token/ERC1155/extensions/ERC1155Burnable.sol\":793:800  account */\n      dup4\n        /* \"@openzeppelin/contracts/token/ERC1155/extensions/ERC1155Burnable.sol\":793:816  account != _msgSender() */\n      0xffffffffffffffffffffffffffffffffffffffff\n      and\n      eq\n      iszero\n        /* \"@openzeppelin/contracts/token/ERC1155/extensions/ERC1155Burnable.sol\":793:860  account != _msgSender() && !isApprovedForAll(account, _msgSender()) */\n      dup1\n      iszero\n      tag_168\n      jumpi\n      pop\n        /* \"@openzeppelin/contracts/token/ERC1155/extensions/ERC1155Burnable.sol\":821:860  isApprovedForAll(account, _msgSender()) */\n      tag_169\n        /* \"@openzeppelin/contracts/token/ERC1155/extensions/ERC1155Burnable.sol\":838:845  account */\n      dup4\n        /* \"@openzeppelin/contracts/token/ERC1155/extensions/ERC1155Burnable.sol\":847:859  _msgSender() */\n      tag_170\n        /* \"@openzeppelin/contracts/token/ERC1155/extensions/ERC1155Burnable.sol\":847:857  _msgSender */\n      tag_135\n        /* \"@openzeppelin/contracts/token/ERC1155/extensions/ERC1155Burnable.sol\":847:859  _msgSender() */\n      jump\t// in\n    tag_170:\n        /* \"@openzeppelin/contracts/token/ERC1155/extensions/ERC1155Burnable.sol\":821:837  isApprovedForAll */\n      tag_97\n        /* \"@openzeppelin/contracts/token/ERC1155/extensions/ERC1155Burnable.sol\":821:860  isApprovedForAll(account, _msgSender()) */\n      jump\t// in\n    tag_169:\n        /* \"@openzeppelin/contracts/token/ERC1155/extensions/ERC1155Burnable.sol\":820:860  !isApprovedForAll(account, _msgSender()) */\n      iszero\n        /* \"@openzeppelin/contracts/token/ERC1155/extensions/ERC1155Burnable.sol\":793:860  account != _msgSender() && !isApprovedForAll(account, _msgSender()) */\n    tag_168:\n        /* \"@openzeppelin/contracts/token/ERC1155/extensions/ERC1155Burnable.sol\":789:945  if (account != _msgSender() && !isApprovedForAll(account, _msgSender())) {... */\n      iszero\n      tag_171\n      jumpi\n        /* \"@openzeppelin/contracts/token/ERC1155/extensions/ERC1155Burnable.sol\":912:924  _msgSender() */\n      tag_172\n        /* \"@openzeppelin/contracts/token/ERC1155/extensions/ERC1155Burnable.sol\":912:922  _msgSender */\n      tag_135\n        /* \"@openzeppelin/contracts/token/ERC1155/extensions/ERC1155Burnable.sol\":912:924  _msgSender() */\n      jump\t// in\n    tag_172:\n        /* \"@openzeppelin/contracts/token/ERC1155/extensions/ERC1155Burnable.sol\":926:933  account */\n      dup4\n        /* \"@openzeppelin/contracts/token/ERC1155/extensions/ERC1155Burnable.sol\":883:934  ERC1155MissingApprovalForAll(_msgSender(), account) */\n      mload(0x40)\n      0xe237d92200000000000000000000000000000000000000000000000000000000\n      dup2\n      mstore\n      0x04\n      add\n      tag_173\n      swap3\n      swap2\n      swap1\n      tag_140\n      jump\t// in\n    tag_173:\n      mload(0x40)\n      dup1\n      swap2\n      sub\n      swap1\n      revert\n        /* \"@openzeppelin/contracts/token/ERC1155/extensions/ERC1155Burnable.sol\":789:945  if (account != _msgSender() && !isApprovedForAll(account, _msgSender())) {... */\n    tag_171:\n        /* \"@openzeppelin/contracts/token/ERC1155/extensions/ERC1155Burnable.sol\":955:987  _burnBatch(account, ids, values) */\n      tag_174\n        /* \"@openzeppelin/contracts/token/ERC1155/extensions/ERC1155Burnable.sol\":966:973  account */\n      dup4\n        /* \"@openzeppelin/contracts/token/ERC1155/extensions/ERC1155Burnable.sol\":975:978  ids */\n      dup4\n        /* \"@openzeppelin/contracts/token/ERC1155/extensions/ERC1155Burnable.sol\":980:986  values */\n      dup4\n        /* \"@openzeppelin/contracts/token/ERC1155/extensions/ERC1155Burnable.sol\":955:965  _burnBatch */\n      tag_175\n        /* \"@openzeppelin/contracts/token/ERC1155/extensions/ERC1155Burnable.sol\":955:987  _burnBatch(account, ids, values) */\n      jump\t// in\n    tag_174:\n        /* \"@openzeppelin/contracts/token/ERC1155/extensions/ERC1155Burnable.sol\":681:994  function burnBatch(address account, uint256[] memory ids, uint256[] memory values) public virtual {... */\n      pop\n      pop\n      pop\n      jump\t// out\n        /* \"contracts/SomTokens/SomTokens.sol\":1906:2069  function setGameAddress (address account) public onlyOwner {... */\n    tag_72:\n        /* \"@openzeppelin/contracts/access/Ownable.sol\":1531:1544  _checkOwner() */\n      tag_177\n        /* \"@openzeppelin/contracts/access/Ownable.sol\":1531:1542  _checkOwner */\n      tag_178\n        /* \"@openzeppelin/contracts/access/Ownable.sol\":1531:1544  _checkOwner() */\n      jump\t// in\n    tag_177:\n        /* \"contracts/SomTokens/SomTokens.sol\":2002:2003  0 */\n      0x00\n        /* \"contracts/SomTokens/SomTokens.sol\":1979:2004  gameAddress == address(0) */\n      0xffffffffffffffffffffffffffffffffffffffff\n      and\n        /* \"contracts/SomTokens/SomTokens.sol\":1979:1990  gameAddress */\n      0x06\n      0x00\n      swap1\n      sload\n      swap1\n      0x0100\n      exp\n      swap1\n      div\n      0xffffffffffffffffffffffffffffffffffffffff\n      and\n        /* \"contracts/SomTokens/SomTokens.sol\":1979:2004  gameAddress == address(0) */\n      0xffffffffffffffffffffffffffffffffffffffff\n      and\n      eq\n        /* \"contracts/SomTokens/SomTokens.sol\":1971:2037  require(gameAddress == address(0), \"Game address is already set.\") */\n      tag_180\n      jumpi\n      mload(0x40)\n      0x08c379a000000000000000000000000000000000000000000000000000000000\n      dup2\n      mstore\n      0x04\n      add\n      tag_181\n      swap1\n      tag_182\n      jump\t// in\n    tag_181:\n      mload(0x40)\n      dup1\n      swap2\n      sub\n      swap1\n      revert\n    tag_180:\n        /* \"contracts/SomTokens/SomTokens.sol\":2057:2064  account */\n      dup1\n        /* \"contracts/SomTokens/SomTokens.sol\":2043:2054  gameAddress */\n      0x06\n      0x00\n        /* \"contracts/SomTokens/SomTokens.sol\":2043:2064  gameAddress = account */\n      0x0100\n      exp\n      dup2\n      sload\n      dup2\n      0xffffffffffffffffffffffffffffffffffffffff\n      mul\n      not\n      and\n      swap1\n      dup4\n      0xffffffffffffffffffffffffffffffffffffffff\n      and\n      mul\n      or\n      swap1\n      sstore\n      pop\n        /* \"contracts/SomTokens/SomTokens.sol\":1906:2069  function setGameAddress (address account) public onlyOwner {... */\n      pop\n      jump\t// out\n        /* \"@openzeppelin/contracts/access/Ownable.sol\":2293:2394  function renounceOwnership() public virtual onlyOwner {... */\n    tag_74:\n        /* \"@openzeppelin/contracts/access/Ownable.sol\":1531:1544  _checkOwner() */\n      tag_184\n        /* \"@openzeppelin/contracts/access/Ownable.sol\":1531:1542  _checkOwner */\n      tag_178\n        /* \"@openzeppelin/contracts/access/Ownable.sol\":1531:1544  _checkOwner() */\n      jump\t// in\n    tag_184:\n        /* \"@openzeppelin/contracts/access/Ownable.sol\":2357:2387  _transferOwnership(address(0)) */\n      tag_186\n        /* \"@openzeppelin/contracts/access/Ownable.sol\":2384:2385  0 */\n      0x00\n        /* \"@openzeppelin/contracts/access/Ownable.sol\":2357:2375  _transferOwnership */\n      tag_187\n        /* \"@openzeppelin/contracts/access/Ownable.sol\":2357:2387  _transferOwnership(address(0)) */\n      jump\t// in\n    tag_186:\n        /* \"@openzeppelin/contracts/access/Ownable.sol\":2293:2394  function renounceOwnership() public virtual onlyOwner {... */\n      jump\t// out\n        /* \"contracts/SomTokens/SomTokens.sol\":596:882  function mint (... */\n    tag_78:\n        /* \"contracts/SomTokens/SomTokens.sol\":739:740  0 */\n      0x00\n        /* \"contracts/SomTokens/SomTokens.sol\":716:741  gameAddress != address(0) */\n      0xffffffffffffffffffffffffffffffffffffffff\n      and\n        /* \"contracts/SomTokens/SomTokens.sol\":716:727  gameAddress */\n      0x06\n      0x00\n      swap1\n      sload\n      swap1\n      0x0100\n      exp\n      swap1\n      div\n      0xffffffffffffffffffffffffffffffffffffffff\n      and\n        /* \"contracts/SomTokens/SomTokens.sol\":716:741  gameAddress != address(0) */\n      0xffffffffffffffffffffffffffffffffffffffff\n      and\n      sub\n        /* \"contracts/SomTokens/SomTokens.sol\":708:767  require(gameAddress != address(0), \"Game address not set.\") */\n      tag_189\n      jumpi\n      mload(0x40)\n      0x08c379a000000000000000000000000000000000000000000000000000000000\n      dup2\n      mstore\n      0x04\n      add\n      tag_190\n      swap1\n      tag_127\n      jump\t// in\n    tag_190:\n      mload(0x40)\n      dup1\n      swap2\n      sub\n      swap1\n      revert\n    tag_189:\n        /* \"contracts/SomTokens/SomTokens.sol\":795:806  gameAddress */\n      0x06\n      0x00\n      swap1\n      sload\n      swap1\n      0x0100\n      exp\n      swap1\n      div\n      0xffffffffffffffffffffffffffffffffffffffff\n      and\n        /* \"contracts/SomTokens/SomTokens.sol\":781:806  msg.sender == gameAddress */\n      0xffffffffffffffffffffffffffffffffffffffff\n      and\n        /* \"contracts/SomTokens/SomTokens.sol\":781:791  msg.sender */\n      caller\n        /* \"contracts/SomTokens/SomTokens.sol\":781:806  msg.sender == gameAddress */\n      0xffffffffffffffffffffffffffffffffffffffff\n      and\n      eq\n        /* \"contracts/SomTokens/SomTokens.sol\":773:839  require(msg.sender == gameAddress, \"Only game contract can mint.\") */\n      tag_191\n      jumpi\n      mload(0x40)\n      0x08c379a000000000000000000000000000000000000000000000000000000000\n      dup2\n      mstore\n      0x04\n      add\n      tag_192\n      swap1\n      tag_130\n      jump\t// in\n    tag_192:\n      mload(0x40)\n      dup1\n      swap2\n      sub\n      swap1\n      revert\n    tag_191:\n        /* \"contracts/SomTokens/SomTokens.sol\":845:877  _mint(account, id, amount, data) */\n      tag_193\n        /* \"contracts/SomTokens/SomTokens.sol\":851:858  account */\n      dup5\n        /* \"contracts/SomTokens/SomTokens.sol\":860:862  id */\n      dup5\n        /* \"contracts/SomTokens/SomTokens.sol\":864:870  amount */\n      dup5\n        /* \"contracts/SomTokens/SomTokens.sol\":872:876  data */\n      dup5\n        /* \"contracts/SomTokens/SomTokens.sol\":845:850  _mint */\n      tag_194\n        /* \"contracts/SomTokens/SomTokens.sol\":845:877  _mint(account, id, amount, data) */\n      jump\t// in\n    tag_193:\n        /* \"contracts/SomTokens/SomTokens.sol\":596:882  function mint (... */\n      pop\n      pop\n      pop\n      pop\n      jump\t// out\n        /* \"@openzeppelin/contracts/access/Ownable.sol\":1638:1723  function owner() public view virtual returns (address) {... */\n    tag_80:\n        /* \"@openzeppelin/contracts/access/Ownable.sol\":1684:1691  address */\n      0x00\n        /* \"@openzeppelin/contracts/access/Ownable.sol\":1710:1716  _owner */\n      0x03\n      0x00\n      swap1\n      sload\n      swap1\n      0x0100\n      exp\n      swap1\n      div\n      0xffffffffffffffffffffffffffffffffffffffff\n      and\n        /* \"@openzeppelin/contracts/access/Ownable.sol\":1703:1716  return _owner */\n      swap1\n      pop\n        /* \"@openzeppelin/contracts/access/Ownable.sol\":1638:1723  function owner() public view virtual returns (address) {... */\n      swap1\n      jump\t// out\n        /* \"contracts/SomTokens/SomTokens.sol\":451:477  address public gameAddress */\n    tag_84:\n      0x06\n      0x00\n      swap1\n      sload\n      swap1\n      0x0100\n      exp\n      swap1\n      div\n      0xffffffffffffffffffffffffffffffffffffffff\n      and\n      dup2\n      jump\t// out\n        /* \"@openzeppelin/contracts/token/ERC1155/ERC1155.sol\":3156:3300  function setApprovalForAll(address operator, bool approved) public virtual {... */\n    tag_89:\n        /* \"@openzeppelin/contracts/token/ERC1155/ERC1155.sol\":3241:3293  _setApprovalForAll(_msgSender(), operator, approved) */\n      tag_197\n        /* \"@openzeppelin/contracts/token/ERC1155/ERC1155.sol\":3260:3272  _msgSender() */\n      tag_198\n        /* \"@openzeppelin/contracts/token/ERC1155/ERC1155.sol\":3260:3270  _msgSender */\n      tag_135\n        /* \"@openzeppelin/contracts/token/ERC1155/ERC1155.sol\":3260:3272  _msgSender() */\n      jump\t// in\n    tag_198:\n        /* \"@openzeppelin/contracts/token/ERC1155/ERC1155.sol\":3274:3282  operator */\n      dup4\n        /* \"@openzeppelin/contracts/token/ERC1155/ERC1155.sol\":3284:3292  approved */\n      dup4\n        /* \"@openzeppelin/contracts/token/ERC1155/ERC1155.sol\":3241:3259  _setApprovalForAll */\n      tag_199\n        /* \"@openzeppelin/contracts/token/ERC1155/ERC1155.sol\":3241:3293  _setApprovalForAll(_msgSender(), operator, approved) */\n      jump\t// in\n    tag_197:\n        /* \"@openzeppelin/contracts/token/ERC1155/ERC1155.sol\":3156:3300  function setApprovalForAll(address operator, bool approved) public virtual {... */\n      pop\n      pop\n      jump\t// out\n        /* \"@openzeppelin/contracts/token/ERC1155/extensions/ERC1155Supply.sol\":959:1070  function totalSupply(uint256 id) public view virtual returns (uint256) {... */\n    tag_92:\n        /* \"@openzeppelin/contracts/token/ERC1155/extensions/ERC1155Supply.sol\":1021:1028  uint256 */\n      0x00\n        /* \"@openzeppelin/contracts/token/ERC1155/extensions/ERC1155Supply.sol\":1047:1059  _totalSupply */\n      0x04\n        /* \"@openzeppelin/contracts/token/ERC1155/extensions/ERC1155Supply.sol\":1047:1063  _totalSupply[id] */\n      0x00\n        /* \"@openzeppelin/contracts/token/ERC1155/extensions/ERC1155Supply.sol\":1060:1062  id */\n      dup4\n        /* \"@openzeppelin/contracts/token/ERC1155/extensions/ERC1155Supply.sol\":1047:1063  _totalSupply[id] */\n      dup2\n      mstore\n      0x20\n      add\n      swap1\n      dup2\n      mstore\n      0x20\n      add\n      0x00\n      keccak256\n      sload\n        /* \"@openzeppelin/contracts/token/ERC1155/extensions/ERC1155Supply.sol\":1040:1063  return _totalSupply[id] */\n      swap1\n      pop\n        /* \"@openzeppelin/contracts/token/ERC1155/extensions/ERC1155Supply.sol\":959:1070  function totalSupply(uint256 id) public view virtual returns (uint256) {... */\n      swap2\n      swap1\n      pop\n      jump\t// out\n        /* \"@openzeppelin/contracts/token/ERC1155/ERC1155.sol\":3367:3524  function isApprovedForAll(address account, address operator) public view virtual returns (bool) {... */\n    tag_97:\n        /* \"@openzeppelin/contracts/token/ERC1155/ERC1155.sol\":3457:3461  bool */\n      0x00\n        /* \"@openzeppelin/contracts/token/ERC1155/ERC1155.sol\":3480:3498  _operatorApprovals */\n      0x01\n        /* \"@openzeppelin/contracts/token/ERC1155/ERC1155.sol\":3480:3507  _operatorApprovals[account] */\n      0x00\n        /* \"@openzeppelin/contracts/token/ERC1155/ERC1155.sol\":3499:3506  account */\n      dup5\n        /* \"@openzeppelin/contracts/token/ERC1155/ERC1155.sol\":3480:3507  _operatorApprovals[account] */\n      0xffffffffffffffffffffffffffffffffffffffff\n      and\n      0xffffffffffffffffffffffffffffffffffffffff\n      and\n      dup2\n      mstore\n      0x20\n      add\n      swap1\n      dup2\n      mstore\n      0x20\n      add\n      0x00\n      keccak256\n        /* \"@openzeppelin/contracts/token/ERC1155/ERC1155.sol\":3480:3517  _operatorApprovals[account][operator] */\n      0x00\n        /* \"@openzeppelin/contracts/token/ERC1155/ERC1155.sol\":3508:3516  operator */\n      dup4\n        /* \"@openzeppelin/contracts/token/ERC1155/ERC1155.sol\":3480:3517  _operatorApprovals[account][operator] */\n      0xffffffffffffffffffffffffffffffffffffffff\n      and\n      0xffffffffffffffffffffffffffffffffffffffff\n      and\n      dup2\n      mstore\n      0x20\n      add\n      swap1\n      dup2\n      mstore\n      0x20\n      add\n      0x00\n      keccak256\n      0x00\n      swap1\n      sload\n      swap1\n      0x0100\n      exp\n      swap1\n      div\n      0xff\n      and\n        /* \"@openzeppelin/contracts/token/ERC1155/ERC1155.sol\":3473:3517  return _operatorApprovals[account][operator] */\n      swap1\n      pop\n        /* \"@openzeppelin/contracts/token/ERC1155/ERC1155.sol\":3367:3524  function isApprovedForAll(address account, address operator) public view virtual returns (bool) {... */\n      swap3\n      swap2\n      pop\n      pop\n      jump\t// out\n        /* \"@openzeppelin/contracts/token/ERC1155/ERC1155.sol\":3591:3942  function safeTransferFrom(address from, address to, uint256 id, uint256 value, bytes memory data) public virtual {... */\n    tag_102:\n        /* \"@openzeppelin/contracts/token/ERC1155/ERC1155.sol\":3714:3728  address sender */\n      0x00\n        /* \"@openzeppelin/contracts/token/ERC1155/ERC1155.sol\":3731:3743  _msgSender() */\n      tag_203\n        /* \"@openzeppelin/contracts/token/ERC1155/ERC1155.sol\":3731:3741  _msgSender */\n      tag_135\n        /* \"@openzeppelin/contracts/token/ERC1155/ERC1155.sol\":3731:3743  _msgSender() */\n      jump\t// in\n    tag_203:\n        /* \"@openzeppelin/contracts/token/ERC1155/ERC1155.sol\":3714:3743  address sender = _msgSender() */\n      swap1\n      pop\n        /* \"@openzeppelin/contracts/token/ERC1155/ERC1155.sol\":3765:3771  sender */\n      dup1\n        /* \"@openzeppelin/contracts/token/ERC1155/ERC1155.sol\":3757:3771  from != sender */\n      0xffffffffffffffffffffffffffffffffffffffff\n      and\n        /* \"@openzeppelin/contracts/token/ERC1155/ERC1155.sol\":3757:3761  from */\n      dup7\n        /* \"@openzeppelin/contracts/token/ERC1155/ERC1155.sol\":3757:3771  from != sender */\n      0xffffffffffffffffffffffffffffffffffffffff\n      and\n      eq\n      iszero\n        /* \"@openzeppelin/contracts/token/ERC1155/ERC1155.sol\":3757:3806  from != sender && !isApprovedForAll(from, sender) */\n      dup1\n      iszero\n      tag_204\n      jumpi\n      pop\n        /* \"@openzeppelin/contracts/token/ERC1155/ERC1155.sol\":3776:3806  isApprovedForAll(from, sender) */\n      tag_205\n        /* \"@openzeppelin/contracts/token/ERC1155/ERC1155.sol\":3793:3797  from */\n      dup7\n        /* \"@openzeppelin/contracts/token/ERC1155/ERC1155.sol\":3799:3805  sender */\n      dup3\n        /* \"@openzeppelin/contracts/token/ERC1155/ERC1155.sol\":3776:3792  isApprovedForAll */\n      tag_97\n        /* \"@openzeppelin/contracts/token/ERC1155/ERC1155.sol\":3776:3806  isApprovedForAll(from, sender) */\n      jump\t// in\n    tag_205:\n        /* \"@openzeppelin/contracts/token/ERC1155/ERC1155.sol\":3775:3806  !isApprovedForAll(from, sender) */\n      iszero\n        /* \"@openzeppelin/contracts/token/ERC1155/ERC1155.sol\":3757:3806  from != sender && !isApprovedForAll(from, sender) */\n    tag_204:\n        /* \"@openzeppelin/contracts/token/ERC1155/ERC1155.sol\":3753:3882  if (from != sender && !isApprovedForAll(from, sender)) {... */\n      iszero\n      tag_206\n      jumpi\n        /* \"@openzeppelin/contracts/token/ERC1155/ERC1155.sol\":3858:3864  sender */\n      dup1\n        /* \"@openzeppelin/contracts/token/ERC1155/ERC1155.sol\":3866:3870  from */\n      dup7\n        /* \"@openzeppelin/contracts/token/ERC1155/ERC1155.sol\":3829:3871  ERC1155MissingApprovalForAll(sender, from) */\n      mload(0x40)\n      0xe237d92200000000000000000000000000000000000000000000000000000000\n      dup2\n      mstore\n      0x04\n      add\n      tag_207\n      swap3\n      swap2\n      swap1\n      tag_140\n      jump\t// in\n    tag_207:\n      mload(0x40)\n      dup1\n      swap2\n      sub\n      swap1\n      revert\n        /* \"@openzeppelin/contracts/token/ERC1155/ERC1155.sol\":3753:3882  if (from != sender && !isApprovedForAll(from, sender)) {... */\n    tag_206:\n        /* \"@openzeppelin/contracts/token/ERC1155/ERC1155.sol\":3891:3935  _safeTransferFrom(from, to, id, value, data) */\n      tag_208\n        /* \"@openzeppelin/contracts/token/ERC1155/ERC1155.sol\":3909:3913  from */\n      dup7\n        /* \"@openzeppelin/contracts/token/ERC1155/ERC1155.sol\":3915:3917  to */\n      dup7\n        /* \"@openzeppelin/contracts/token/ERC1155/ERC1155.sol\":3919:3921  id */\n      dup7\n        /* \"@openzeppelin/contracts/token/ERC1155/ERC1155.sol\":3923:3928  value */\n      dup7\n        /* \"@openzeppelin/contracts/token/ERC1155/ERC1155.sol\":3930:3934  data */\n      dup7\n        /* \"@openzeppelin/contracts/token/ERC1155/ERC1155.sol\":3891:3908  _safeTransferFrom */\n      tag_209\n        /* \"@openzeppelin/contracts/token/ERC1155/ERC1155.sol\":3891:3935  _safeTransferFrom(from, to, id, value, data) */\n      jump\t// in\n    tag_208:\n        /* \"@openzeppelin/contracts/token/ERC1155/ERC1155.sol\":3704:3942  {... */\n      pop\n        /* \"@openzeppelin/contracts/token/ERC1155/ERC1155.sol\":3591:3942  function safeTransferFrom(address from, address to, uint256 id, uint256 value, bytes memory data) public virtual {... */\n      pop\n      pop\n      pop\n      pop\n      pop\n      jump\t// out\n        /* \"@openzeppelin/contracts/access/Ownable.sol\":2543:2758  function transferOwnership(address newOwner) public virtual onlyOwner {... */\n    tag_105:\n        /* \"@openzeppelin/contracts/access/Ownable.sol\":1531:1544  _checkOwner() */\n      tag_211\n        /* \"@openzeppelin/contracts/access/Ownable.sol\":1531:1542  _checkOwner */\n      tag_178\n        /* \"@openzeppelin/contracts/access/Ownable.sol\":1531:1544  _checkOwner() */\n      jump\t// in\n    tag_211:\n        /* \"@openzeppelin/contracts/access/Ownable.sol\":2647:2648  0 */\n      0x00\n        /* \"@openzeppelin/contracts/access/Ownable.sol\":2627:2649  newOwner == address(0) */\n      0xffffffffffffffffffffffffffffffffffffffff\n      and\n        /* \"@openzeppelin/contracts/access/Ownable.sol\":2627:2635  newOwner */\n      dup2\n        /* \"@openzeppelin/contracts/access/Ownable.sol\":2627:2649  newOwner == address(0) */\n      0xffffffffffffffffffffffffffffffffffffffff\n      and\n      sub\n        /* \"@openzeppelin/contracts/access/Ownable.sol\":2623:2714  if (newOwner == address(0)) {... */\n      tag_213\n      jumpi\n        /* \"@openzeppelin/contracts/access/Ownable.sol\":2700:2701  0 */\n      0x00\n        /* \"@openzeppelin/contracts/access/Ownable.sol\":2672:2703  OwnableInvalidOwner(address(0)) */\n      mload(0x40)\n      0x1e4fbdf700000000000000000000000000000000000000000000000000000000\n      dup2\n      mstore\n      0x04\n      add\n      tag_214\n      swap2\n      swap1\n      tag_82\n      jump\t// in\n    tag_214:\n      mload(0x40)\n      dup1\n      swap2\n      sub\n      swap1\n      revert\n        /* \"@openzeppelin/contracts/access/Ownable.sol\":2623:2714  if (newOwner == address(0)) {... */\n    tag_213:\n        /* \"@openzeppelin/contracts/access/Ownable.sol\":2723:2751  _transferOwnership(newOwner) */\n      tag_215\n        /* \"@openzeppelin/contracts/access/Ownable.sol\":2742:2750  newOwner */\n      dup2\n        /* \"@openzeppelin/contracts/access/Ownable.sol\":2723:2741  _transferOwnership */\n      tag_187\n        /* \"@openzeppelin/contracts/access/Ownable.sol\":2723:2751  _transferOwnership(newOwner) */\n      jump\t// in\n    tag_215:\n        /* \"@openzeppelin/contracts/access/Ownable.sol\":2543:2758  function transferOwnership(address newOwner) public virtual onlyOwner {... */\n      pop\n      jump\t// out\n        /* \"@openzeppelin/contracts/token/ERC1155/extensions/ERC1155Burnable.sol\":394:675  function burn(address account, uint256 id, uint256 value) public virtual {... */\n    tag_109:\n        /* \"@openzeppelin/contracts/token/ERC1155/extensions/ERC1155Burnable.sol\":492:504  _msgSender() */\n      tag_217\n        /* \"@openzeppelin/contracts/token/ERC1155/extensions/ERC1155Burnable.sol\":492:502  _msgSender */\n      tag_135\n        /* \"@openzeppelin/contracts/token/ERC1155/extensions/ERC1155Burnable.sol\":492:504  _msgSender() */\n      jump\t// in\n    tag_217:\n        /* \"@openzeppelin/contracts/token/ERC1155/extensions/ERC1155Burnable.sol\":481:504  account != _msgSender() */\n      0xffffffffffffffffffffffffffffffffffffffff\n      and\n        /* \"@openzeppelin/contracts/token/ERC1155/extensions/ERC1155Burnable.sol\":481:488  account */\n      dup4\n        /* \"@openzeppelin/contracts/token/ERC1155/extensions/ERC1155Burnable.sol\":481:504  account != _msgSender() */\n      0xffffffffffffffffffffffffffffffffffffffff\n      and\n      eq\n      iszero\n        /* \"@openzeppelin/contracts/token/ERC1155/extensions/ERC1155Burnable.sol\":481:548  account != _msgSender() && !isApprovedForAll(account, _msgSender()) */\n      dup1\n      iszero\n      tag_218\n      jumpi\n      pop\n        /* \"@openzeppelin/contracts/token/ERC1155/extensions/ERC1155Burnable.sol\":509:548  isApprovedForAll(account, _msgSender()) */\n      tag_219\n        /* \"@openzeppelin/contracts/token/ERC1155/extensions/ERC1155Burnable.sol\":526:533  account */\n      dup4\n        /* \"@openzeppelin/contracts/token/ERC1155/extensions/ERC1155Burnable.sol\":535:547  _msgSender() */\n      tag_220\n        /* \"@openzeppelin/contracts/token/ERC1155/extensions/ERC1155Burnable.sol\":535:545  _msgSender */\n      tag_135\n        /* \"@openzeppelin/contracts/token/ERC1155/extensions/ERC1155Burnable.sol\":535:547  _msgSender() */\n      jump\t// in\n    tag_220:\n        /* \"@openzeppelin/contracts/token/ERC1155/extensions/ERC1155Burnable.sol\":509:525  isApprovedForAll */\n      tag_97\n        /* \"@openzeppelin/contracts/token/ERC1155/extensions/ERC1155Burnable.sol\":509:548  isApprovedForAll(account, _msgSender()) */\n      jump\t// in\n    tag_219:\n        /* \"@openzeppelin/contracts/token/ERC1155/extensions/ERC1155Burnable.sol\":508:548  !isApprovedForAll(account, _msgSender()) */\n      iszero\n        /* \"@openzeppelin/contracts/token/ERC1155/extensions/ERC1155Burnable.sol\":481:548  account != _msgSender() && !isApprovedForAll(account, _msgSender()) */\n    tag_218:\n        /* \"@openzeppelin/contracts/token/ERC1155/extensions/ERC1155Burnable.sol\":477:633  if (account != _msgSender() && !isApprovedForAll(account, _msgSender())) {... */\n      iszero\n      tag_221\n      jumpi\n        /* \"@openzeppelin/contracts/token/ERC1155/extensions/ERC1155Burnable.sol\":600:612  _msgSender() */\n      tag_222\n        /* \"@openzeppelin/contracts/token/ERC1155/extensions/ERC1155Burnable.sol\":600:610  _msgSender */\n      tag_135\n        /* \"@openzeppelin/contracts/token/ERC1155/extensions/ERC1155Burnable.sol\":600:612  _msgSender() */\n      jump\t// in\n    tag_222:\n        /* \"@openzeppelin/contracts/token/ERC1155/extensions/ERC1155Burnable.sol\":614:621  account */\n      dup4\n        /* \"@openzeppelin/contracts/token/ERC1155/extensions/ERC1155Burnable.sol\":571:622  ERC1155MissingApprovalForAll(_msgSender(), account) */\n      mload(0x40)\n      0xe237d92200000000000000000000000000000000000000000000000000000000\n      dup2\n      mstore\n      0x04\n      add\n      tag_223\n      swap3\n      swap2\n      swap1\n      tag_140\n      jump\t// in\n    tag_223:\n      mload(0x40)\n      dup1\n      swap2\n      sub\n      swap1\n      revert\n        /* \"@openzeppelin/contracts/token/ERC1155/extensions/ERC1155Burnable.sol\":477:633  if (account != _msgSender() && !isApprovedForAll(account, _msgSender())) {... */\n    tag_221:\n        /* \"@openzeppelin/contracts/token/ERC1155/extensions/ERC1155Burnable.sol\":643:668  _burn(account, id, value) */\n      tag_224\n        /* \"@openzeppelin/contracts/token/ERC1155/extensions/ERC1155Burnable.sol\":649:656  account */\n      dup4\n        /* \"@openzeppelin/contracts/token/ERC1155/extensions/ERC1155Burnable.sol\":658:660  id */\n      dup4\n        /* \"@openzeppelin/contracts/token/ERC1155/extensions/ERC1155Burnable.sol\":662:667  value */\n      dup4\n        /* \"@openzeppelin/contracts/token/ERC1155/extensions/ERC1155Burnable.sol\":643:648  _burn */\n      tag_225\n        /* \"@openzeppelin/contracts/token/ERC1155/extensions/ERC1155Burnable.sol\":643:668  _burn(account, id, value) */\n      jump\t// in\n    tag_224:\n        /* \"@openzeppelin/contracts/token/ERC1155/extensions/ERC1155Burnable.sol\":394:675  function burn(address account, uint256 id, uint256 value) public virtual {... */\n      pop\n      pop\n      pop\n      jump\t// out\n        /* \"@openzeppelin/contracts/utils/introspection/ERC165.sol\":762:908  function supportsInterface(bytes4 interfaceId) public view virtual returns (bool) {... */\n    tag_115:\n        /* \"@openzeppelin/contracts/utils/introspection/ERC165.sol\":838:842  bool */\n      0x00\n        /* \"@openzeppelin/contracts/utils/introspection/ERC165.sol\":876:901  type(IERC165).interfaceId */\n      0x01ffc9a700000000000000000000000000000000000000000000000000000000\n        /* \"@openzeppelin/contracts/utils/introspection/ERC165.sol\":861:901  interfaceId == type(IERC165).interfaceId */\n      not(0xffffffffffffffffffffffffffffffffffffffffffffffffffffffff)\n      and\n        /* \"@openzeppelin/contracts/utils/introspection/ERC165.sol\":861:872  interfaceId */\n      dup3\n        /* \"@openzeppelin/contracts/utils/introspection/ERC165.sol\":861:901  interfaceId == type(IERC165).interfaceId */\n      not(0xffffffffffffffffffffffffffffffffffffffffffffffffffffffff)\n      and\n      eq\n        /* \"@openzeppelin/contracts/utils/introspection/ERC165.sol\":854:901  return interfaceId == type(IERC165).interfaceId */\n      swap1\n      pop\n        /* \"@openzeppelin/contracts/utils/introspection/ERC165.sol\":762:908  function supportsInterface(bytes4 interfaceId) public view virtual returns (bool) {... */\n      swap2\n      swap1\n      pop\n      jump\t// out\n        /* \"@openzeppelin/contracts/token/ERC1155/ERC1155.sol\":11523:11805  function _mintBatch(address to, uint256[] memory ids, uint256[] memory values, bytes memory data) internal {... */\n    tag_132:\n        /* \"@openzeppelin/contracts/token/ERC1155/ERC1155.sol\":11658:11659  0 */\n      0x00\n        /* \"@openzeppelin/contracts/token/ERC1155/ERC1155.sol\":11644:11660  to == address(0) */\n      0xffffffffffffffffffffffffffffffffffffffff\n      and\n        /* \"@openzeppelin/contracts/token/ERC1155/ERC1155.sol\":11644:11646  to */\n      dup5\n        /* \"@openzeppelin/contracts/token/ERC1155/ERC1155.sol\":11644:11660  to == address(0) */\n      0xffffffffffffffffffffffffffffffffffffffff\n      and\n      sub\n        /* \"@openzeppelin/contracts/token/ERC1155/ERC1155.sol\":11640:11728  if (to == address(0)) {... */\n      tag_228\n      jumpi\n        /* \"@openzeppelin/contracts/token/ERC1155/ERC1155.sol\":11714:11715  0 */\n      0x00\n        /* \"@openzeppelin/contracts/token/ERC1155/ERC1155.sol\":11683:11717  ERC1155InvalidReceiver(address(0)) */\n      mload(0x40)\n      0x57f447ce00000000000000000000000000000000000000000000000000000000\n      dup2\n      mstore\n      0x04\n      add\n      tag_229\n      swap2\n      swap1\n      tag_82\n      jump\t// in\n    tag_229:\n      mload(0x40)\n      dup1\n      swap2\n      sub\n      swap1\n      revert\n        /* \"@openzeppelin/contracts/token/ERC1155/ERC1155.sol\":11640:11728  if (to == address(0)) {... */\n    tag_228:\n        /* \"@openzeppelin/contracts/token/ERC1155/ERC1155.sol\":11737:11798  _updateWithAcceptanceCheck(address(0), to, ids, values, data) */\n      tag_230\n        /* \"@openzeppelin/contracts/token/ERC1155/ERC1155.sol\":11772:11773  0 */\n      0x00\n        /* \"@openzeppelin/contracts/token/ERC1155/ERC1155.sol\":11776:11778  to */\n      dup6\n        /* \"@openzeppelin/contracts/token/ERC1155/ERC1155.sol\":11780:11783  ids */\n      dup6\n        /* \"@openzeppelin/contracts/token/ERC1155/ERC1155.sol\":11785:11791  values */\n      dup6\n        /* \"@openzeppelin/contracts/token/ERC1155/ERC1155.sol\":11793:11797  data */\n      dup6\n        /* \"@openzeppelin/contracts/token/ERC1155/ERC1155.sol\":11737:11763  _updateWithAcceptanceCheck */\n      tag_231\n        /* \"@openzeppelin/contracts/token/ERC1155/ERC1155.sol\":11737:11798  _updateWithAcceptanceCheck(address(0), to, ids, values, data) */\n      jump\t// in\n    tag_230:\n        /* \"@openzeppelin/contracts/token/ERC1155/ERC1155.sol\":11523:11805  function _mintBatch(address to, uint256[] memory ids, uint256[] memory values, bytes memory data) internal {... */\n      pop\n      pop\n      pop\n      pop\n      jump\t// out\n        /* \"@openzeppelin/contracts/utils/Context.sol\":656:752  function _msgSender() internal view virtual returns (address) {... */\n    tag_135:\n        /* \"@openzeppelin/contracts/utils/Context.sol\":709:716  address */\n      0x00\n        /* \"@openzeppelin/contracts/utils/Context.sol\":735:745  msg.sender */\n      caller\n        /* \"@openzeppelin/contracts/utils/Context.sol\":728:745  return msg.sender */\n      swap1\n      pop\n        /* \"@openzeppelin/contracts/utils/Context.sol\":656:752  function _msgSender() internal view virtual returns (address) {... */\n      swap1\n      jump\t// out\n        /* \"@openzeppelin/contracts/token/ERC1155/ERC1155.sol\":9015:9460  function _safeBatchTransferFrom(... */\n    tag_142:\n        /* \"@openzeppelin/contracts/token/ERC1155/ERC1155.sol\":9222:9223  0 */\n      0x00\n        /* \"@openzeppelin/contracts/token/ERC1155/ERC1155.sol\":9208:9224  to == address(0) */\n      0xffffffffffffffffffffffffffffffffffffffff\n      and\n        /* \"@openzeppelin/contracts/token/ERC1155/ERC1155.sol\":9208:9210  to */\n      dup5\n        /* \"@openzeppelin/contracts/token/ERC1155/ERC1155.sol\":9208:9224  to == address(0) */\n      0xffffffffffffffffffffffffffffffffffffffff\n      and\n      sub\n        /* \"@openzeppelin/contracts/token/ERC1155/ERC1155.sol\":9204:9292  if (to == address(0)) {... */\n      tag_234\n      jumpi\n        /* \"@openzeppelin/contracts/token/ERC1155/ERC1155.sol\":9278:9279  0 */\n      0x00\n        /* \"@openzeppelin/contracts/token/ERC1155/ERC1155.sol\":9247:9281  ERC1155InvalidReceiver(address(0)) */\n      mload(0x40)\n      0x57f447ce00000000000000000000000000000000000000000000000000000000\n      dup2\n      mstore\n      0x04\n      add\n      tag_235\n      swap2\n      swap1\n      tag_82\n      jump\t// in\n    tag_235:\n      mload(0x40)\n      dup1\n      swap2\n      sub\n      swap1\n      revert\n        /* \"@openzeppelin/contracts/token/ERC1155/ERC1155.sol\":9204:9292  if (to == address(0)) {... */\n    tag_234:\n        /* \"@openzeppelin/contracts/token/ERC1155/ERC1155.sol\":9321:9322  0 */\n      0x00\n        /* \"@openzeppelin/contracts/token/ERC1155/ERC1155.sol\":9305:9323  from == address(0) */\n      0xffffffffffffffffffffffffffffffffffffffff\n      and\n        /* \"@openzeppelin/contracts/token/ERC1155/ERC1155.sol\":9305:9309  from */\n      dup6\n        /* \"@openzeppelin/contracts/token/ERC1155/ERC1155.sol\":9305:9323  from == address(0) */\n      0xffffffffffffffffffffffffffffffffffffffff\n      and\n      sub\n        /* \"@openzeppelin/contracts/token/ERC1155/ERC1155.sol\":9301:9389  if (from == address(0)) {... */\n      tag_236\n      jumpi\n        /* \"@openzeppelin/contracts/token/ERC1155/ERC1155.sol\":9375:9376  0 */\n      0x00\n        /* \"@openzeppelin/contracts/token/ERC1155/ERC1155.sol\":9346:9378  ERC1155InvalidSender(address(0)) */\n      mload(0x40)\n      0x01a8351400000000000000000000000000000000000000000000000000000000\n      dup2\n      mstore\n      0x04\n      add\n      tag_237\n      swap2\n      swap1\n      tag_82\n      jump\t// in\n    tag_237:\n      mload(0x40)\n      dup1\n      swap2\n      sub\n      swap1\n      revert\n        /* \"@openzeppelin/contracts/token/ERC1155/ERC1155.sol\":9301:9389  if (from == address(0)) {... */\n    tag_236:\n        /* \"@openzeppelin/contracts/token/ERC1155/ERC1155.sol\":9398:9453  _updateWithAcceptanceCheck(from, to, ids, values, data) */\n      tag_238\n        /* \"@openzeppelin/contracts/token/ERC1155/ERC1155.sol\":9425:9429  from */\n      dup6\n        /* \"@openzeppelin/contracts/token/ERC1155/ERC1155.sol\":9431:9433  to */\n      dup6\n        /* \"@openzeppelin/contracts/token/ERC1155/ERC1155.sol\":9435:9438  ids */\n      dup6\n        /* \"@openzeppelin/contracts/token/ERC1155/ERC1155.sol\":9440:9446  values */\n      dup6\n        /* \"@openzeppelin/contracts/token/ERC1155/ERC1155.sol\":9448:9452  data */\n      dup6\n        /* \"@openzeppelin/contracts/token/ERC1155/ERC1155.sol\":9398:9424  _updateWithAcceptanceCheck */\n      tag_231\n        /* \"@openzeppelin/contracts/token/ERC1155/ERC1155.sol\":9398:9453  _updateWithAcceptanceCheck(from, to, ids, values, data) */\n      jump\t// in\n    tag_238:\n        /* \"@openzeppelin/contracts/token/ERC1155/ERC1155.sol\":9015:9460  function _safeBatchTransferFrom(... */\n      pop\n      pop\n      pop\n      pop\n      pop\n      jump\t// out\n        /* \"@openzeppelin/contracts/utils/Arrays.sol\":4603:4800  function unsafeMemoryAccess(address[] memory arr, uint256 pos) internal pure returns (address res) {... */\n    tag_156:\n        /* \"@openzeppelin/contracts/utils/Arrays.sol\":4689:4700  address res */\n      0x00\n        /* \"@openzeppelin/contracts/utils/Arrays.sol\":4777:4781  0x20 */\n      0x20\n        /* \"@openzeppelin/contracts/utils/Arrays.sol\":4772:4775  pos */\n      dup3\n        /* \"@openzeppelin/contracts/utils/Arrays.sol\":4768:4782  mul(pos, 0x20) */\n      mul\n        /* \"@openzeppelin/contracts/utils/Arrays.sol\":4761:4765  0x20 */\n      0x20\n        /* \"@openzeppelin/contracts/utils/Arrays.sol\":4756:4759  arr */\n      dup5\n        /* \"@openzeppelin/contracts/utils/Arrays.sol\":4752:4766  add(arr, 0x20) */\n      add\n        /* \"@openzeppelin/contracts/utils/Arrays.sol\":4748:4783  add(add(arr, 0x20), mul(pos, 0x20)) */\n      add\n        /* \"@openzeppelin/contracts/utils/Arrays.sol\":4742:4784  mload(add(add(arr, 0x20), mul(pos, 0x20))) */\n      mload\n        /* \"@openzeppelin/contracts/utils/Arrays.sol\":4735:4784  res := mload(add(add(arr, 0x20), mul(pos, 0x20))) */\n      swap1\n      pop\n        /* \"@openzeppelin/contracts/utils/Arrays.sol\":4603:4800  function unsafeMemoryAccess(address[] memory arr, uint256 pos) internal pure returns (address res) {... */\n      swap3\n      swap2\n      pop\n      pop\n      jump\t// out\n        /* \"@openzeppelin/contracts/utils/Arrays.sol\":4204:4401  function unsafeMemoryAccess(uint256[] memory arr, uint256 pos) internal pure returns (uint256 res) {... */\n    tag_158:\n        /* \"@openzeppelin/contracts/utils/Arrays.sol\":4290:4301  uint256 res */\n      0x00\n        /* \"@openzeppelin/contracts/utils/Arrays.sol\":4378:4382  0x20 */\n      0x20\n        /* \"@openzeppelin/contracts/utils/Arrays.sol\":4373:4376  pos */\n      dup3\n        /* \"@openzeppelin/contracts/utils/Arrays.sol\":4369:4383  mul(pos, 0x20) */\n      mul\n        /* \"@openzeppelin/contracts/utils/Arrays.sol\":4362:4366  0x20 */\n      0x20\n        /* \"@openzeppelin/contracts/utils/Arrays.sol\":4357:4360  arr */\n      dup5\n        /* \"@openzeppelin/contracts/utils/Arrays.sol\":4353:4367  add(arr, 0x20) */\n      add\n        /* \"@openzeppelin/contracts/utils/Arrays.sol\":4349:4384  add(add(arr, 0x20), mul(pos, 0x20)) */\n      add\n        /* \"@openzeppelin/contracts/utils/Arrays.sol\":4343:4385  mload(add(add(arr, 0x20), mul(pos, 0x20))) */\n      mload\n        /* \"@openzeppelin/contracts/utils/Arrays.sol\":4336:4385  res := mload(add(add(arr, 0x20), mul(pos, 0x20))) */\n      swap1\n      pop\n        /* \"@openzeppelin/contracts/utils/Arrays.sol\":4204:4401  function unsafeMemoryAccess(uint256[] memory arr, uint256 pos) internal pure returns (uint256 res) {... */\n      swap3\n      swap2\n      pop\n      pop\n      jump\t// out\n        /* \"@openzeppelin/contracts/token/ERC1155/ERC1155.sol\":12784:13049  function _burnBatch(address from, uint256[] memory ids, uint256[] memory values) internal {... */\n    tag_175:\n        /* \"@openzeppelin/contracts/token/ERC1155/ERC1155.sol\":12904:12905  0 */\n      0x00\n        /* \"@openzeppelin/contracts/token/ERC1155/ERC1155.sol\":12888:12906  from == address(0) */\n      0xffffffffffffffffffffffffffffffffffffffff\n      and\n        /* \"@openzeppelin/contracts/token/ERC1155/ERC1155.sol\":12888:12892  from */\n      dup4\n        /* \"@openzeppelin/contracts/token/ERC1155/ERC1155.sol\":12888:12906  from == address(0) */\n      0xffffffffffffffffffffffffffffffffffffffff\n      and\n      sub\n        /* \"@openzeppelin/contracts/token/ERC1155/ERC1155.sol\":12884:12972  if (from == address(0)) {... */\n      tag_242\n      jumpi\n        /* \"@openzeppelin/contracts/token/ERC1155/ERC1155.sol\":12958:12959  0 */\n      0x00\n        /* \"@openzeppelin/contracts/token/ERC1155/ERC1155.sol\":12929:12961  ERC1155InvalidSender(address(0)) */\n      mload(0x40)\n      0x01a8351400000000000000000000000000000000000000000000000000000000\n      dup2\n      mstore\n      0x04\n      add\n      tag_243\n      swap2\n      swap1\n      tag_82\n      jump\t// in\n    tag_243:\n      mload(0x40)\n      dup1\n      swap2\n      sub\n      swap1\n      revert\n        /* \"@openzeppelin/contracts/token/ERC1155/ERC1155.sol\":12884:12972  if (from == address(0)) {... */\n    tag_242:\n        /* \"@openzeppelin/contracts/token/ERC1155/ERC1155.sol\":12981:13042  _updateWithAcceptanceCheck(from, address(0), ids, values, \"\") */\n      tag_244\n        /* \"@openzeppelin/contracts/token/ERC1155/ERC1155.sol\":13008:13012  from */\n      dup4\n        /* \"@openzeppelin/contracts/token/ERC1155/ERC1155.sol\":13022:13023  0 */\n      0x00\n        /* \"@openzeppelin/contracts/token/ERC1155/ERC1155.sol\":13026:13029  ids */\n      dup5\n        /* \"@openzeppelin/contracts/token/ERC1155/ERC1155.sol\":13031:13037  values */\n      dup5\n        /* \"@openzeppelin/contracts/token/ERC1155/ERC1155.sol\":12981:13042  _updateWithAcceptanceCheck(from, address(0), ids, values, \"\") */\n      mload(0x40)\n      dup1\n      0x20\n      add\n      0x40\n      mstore\n      dup1\n      0x00\n      dup2\n      mstore\n      pop\n        /* \"@openzeppelin/contracts/token/ERC1155/ERC1155.sol\":12981:13007  _updateWithAcceptanceCheck */\n      tag_231\n        /* \"@openzeppelin/contracts/token/ERC1155/ERC1155.sol\":12981:13042  _updateWithAcceptanceCheck(from, address(0), ids, values, \"\") */\n      jump\t// in\n    tag_244:\n        /* \"@openzeppelin/contracts/token/ERC1155/ERC1155.sol\":12784:13049  function _burnBatch(address from, uint256[] memory ids, uint256[] memory values) internal {... */\n      pop\n      pop\n      pop\n      jump\t// out\n        /* \"@openzeppelin/contracts/access/Ownable.sol\":1796:1958  function _checkOwner() internal view virtual {... */\n    tag_178:\n        /* \"@openzeppelin/contracts/access/Ownable.sol\":1866:1878  _msgSender() */\n      tag_246\n        /* \"@openzeppelin/contracts/access/Ownable.sol\":1866:1876  _msgSender */\n      tag_135\n        /* \"@openzeppelin/contracts/access/Ownable.sol\":1866:1878  _msgSender() */\n      jump\t// in\n    tag_246:\n        /* \"@openzeppelin/contracts/access/Ownable.sol\":1855:1878  owner() != _msgSender() */\n      0xffffffffffffffffffffffffffffffffffffffff\n      and\n        /* \"@openzeppelin/contracts/access/Ownable.sol\":1855:1862  owner() */\n      tag_247\n        /* \"@openzeppelin/contracts/access/Ownable.sol\":1855:1860  owner */\n      tag_80\n        /* \"@openzeppelin/contracts/access/Ownable.sol\":1855:1862  owner() */\n      jump\t// in\n    tag_247:\n        /* \"@openzeppelin/contracts/access/Ownable.sol\":1855:1878  owner() != _msgSender() */\n      0xffffffffffffffffffffffffffffffffffffffff\n      and\n      eq\n        /* \"@openzeppelin/contracts/access/Ownable.sol\":1851:1952  if (owner() != _msgSender()) {... */\n      tag_248\n      jumpi\n        /* \"@openzeppelin/contracts/access/Ownable.sol\":1928:1940  _msgSender() */\n      tag_249\n        /* \"@openzeppelin/contracts/access/Ownable.sol\":1928:1938  _msgSender */\n      tag_135\n        /* \"@openzeppelin/contracts/access/Ownable.sol\":1928:1940  _msgSender() */\n      jump\t// in\n    tag_249:\n        /* \"@openzeppelin/contracts/access/Ownable.sol\":1901:1941  OwnableUnauthorizedAccount(_msgSender()) */\n      mload(0x40)\n      0x118cdaa700000000000000000000000000000000000000000000000000000000\n      dup2\n      mstore\n      0x04\n      add\n      tag_250\n      swap2\n      swap1\n      tag_82\n      jump\t// in\n    tag_250:\n      mload(0x40)\n      dup1\n      swap2\n      sub\n      swap1\n      revert\n        /* \"@openzeppelin/contracts/access/Ownable.sol\":1851:1952  if (owner() != _msgSender()) {... */\n    tag_248:\n        /* \"@openzeppelin/contracts/access/Ownable.sol\":1796:1958  function _checkOwner() internal view virtual {... */\n      jump\t// out\n        /* \"@openzeppelin/contracts/access/Ownable.sol\":2912:3099  function _transferOwnership(address newOwner) internal virtual {... */\n    tag_187:\n        /* \"@openzeppelin/contracts/access/Ownable.sol\":2985:3001  address oldOwner */\n      0x00\n        /* \"@openzeppelin/contracts/access/Ownable.sol\":3004:3010  _owner */\n      0x03\n      0x00\n      swap1\n      sload\n      swap1\n      0x0100\n      exp\n      swap1\n      div\n      0xffffffffffffffffffffffffffffffffffffffff\n      and\n        /* \"@openzeppelin/contracts/access/Ownable.sol\":2985:3010  address oldOwner = _owner */\n      swap1\n      pop\n        /* \"@openzeppelin/contracts/access/Ownable.sol\":3029:3037  newOwner */\n      dup2\n        /* \"@openzeppelin/contracts/access/Ownable.sol\":3020:3026  _owner */\n      0x03\n      0x00\n        /* \"@openzeppelin/contracts/access/Ownable.sol\":3020:3037  _owner = newOwner */\n      0x0100\n      exp\n      dup2\n      sload\n      dup2\n      0xffffffffffffffffffffffffffffffffffffffff\n      mul\n      not\n      and\n      swap1\n      dup4\n      0xffffffffffffffffffffffffffffffffffffffff\n      and\n      mul\n      or\n      swap1\n      sstore\n      pop\n        /* \"@openzeppelin/contracts/access/Ownable.sol\":3083:3091  newOwner */\n      dup2\n        /* \"@openzeppelin/contracts/access/Ownable.sol\":3052:3092  OwnershipTransferred(oldOwner, newOwner) */\n      0xffffffffffffffffffffffffffffffffffffffff\n      and\n        /* \"@openzeppelin/contracts/access/Ownable.sol\":3073:3081  oldOwner */\n      dup2\n        /* \"@openzeppelin/contracts/access/Ownable.sol\":3052:3092  OwnershipTransferred(oldOwner, newOwner) */\n      0xffffffffffffffffffffffffffffffffffffffff\n      and\n      0x8be0079c531659141344cd1fd0a4f28419497f9722a3daafe3b4186f6b6457e0\n      mload(0x40)\n      mload(0x40)\n      dup1\n      swap2\n      sub\n      swap1\n      log3\n        /* \"@openzeppelin/contracts/access/Ownable.sol\":2975:3099  {... */\n      pop\n        /* \"@openzeppelin/contracts/access/Ownable.sol\":2912:3099  function _transferOwnership(address newOwner) internal virtual {... */\n      pop\n      jump\t// out\n        /* \"@openzeppelin/contracts/token/ERC1155/ERC1155.sol\":10746:11092  function _mint(address to, uint256 id, uint256 value, bytes memory data) internal {... */\n    tag_194:\n        /* \"@openzeppelin/contracts/token/ERC1155/ERC1155.sol\":10856:10857  0 */\n      0x00\n        /* \"@openzeppelin/contracts/token/ERC1155/ERC1155.sol\":10842:10858  to == address(0) */\n      0xffffffffffffffffffffffffffffffffffffffff\n      and\n        /* \"@openzeppelin/contracts/token/ERC1155/ERC1155.sol\":10842:10844  to */\n      dup5\n        /* \"@openzeppelin/contracts/token/ERC1155/ERC1155.sol\":10842:10858  to == address(0) */\n      0xffffffffffffffffffffffffffffffffffffffff\n      and\n      sub\n        /* \"@openzeppelin/contracts/token/ERC1155/ERC1155.sol\":10838:10926  if (to == address(0)) {... */\n      tag_253\n      jumpi\n        /* \"@openzeppelin/contracts/token/ERC1155/ERC1155.sol\":10912:10913  0 */\n      0x00\n        /* \"@openzeppelin/contracts/token/ERC1155/ERC1155.sol\":10881:10915  ERC1155InvalidReceiver(address(0)) */\n      mload(0x40)\n      0x57f447ce00000000000000000000000000000000000000000000000000000000\n      dup2\n      mstore\n      0x04\n      add\n      tag_254\n      swap2\n      swap1\n      tag_82\n      jump\t// in\n    tag_254:\n      mload(0x40)\n      dup1\n      swap2\n      sub\n      swap1\n      revert\n        /* \"@openzeppelin/contracts/token/ERC1155/ERC1155.sol\":10838:10926  if (to == address(0)) {... */\n    tag_253:\n        /* \"@openzeppelin/contracts/token/ERC1155/ERC1155.sol\":10936:10956  uint256[] memory ids */\n      0x00\n        /* \"@openzeppelin/contracts/token/ERC1155/ERC1155.sol\":10958:10981  uint256[] memory values */\n      dup1\n        /* \"@openzeppelin/contracts/token/ERC1155/ERC1155.sol\":10985:11014  _asSingletonArrays(id, value) */\n      tag_255\n        /* \"@openzeppelin/contracts/token/ERC1155/ERC1155.sol\":11004:11006  id */\n      dup6\n        /* \"@openzeppelin/contracts/token/ERC1155/ERC1155.sol\":11008:11013  value */\n      dup6\n        /* \"@openzeppelin/contracts/token/ERC1155/ERC1155.sol\":10985:11003  _asSingletonArrays */\n      tag_256\n        /* \"@openzeppelin/contracts/token/ERC1155/ERC1155.sol\":10985:11014  _asSingletonArrays(id, value) */\n      jump\t// in\n    tag_255:\n        /* \"@openzeppelin/contracts/token/ERC1155/ERC1155.sol\":10935:11014  (uint256[] memory ids, uint256[] memory values) = _asSingletonArrays(id, value) */\n      swap2\n      pop\n      swap2\n      pop\n        /* \"@openzeppelin/contracts/token/ERC1155/ERC1155.sol\":11024:11085  _updateWithAcceptanceCheck(address(0), to, ids, values, data) */\n      tag_257\n        /* \"@openzeppelin/contracts/token/ERC1155/ERC1155.sol\":11059:11060  0 */\n      0x00\n        /* \"@openzeppelin/contracts/token/ERC1155/ERC1155.sol\":11063:11065  to */\n      dup8\n        /* \"@openzeppelin/contracts/token/ERC1155/ERC1155.sol\":11067:11070  ids */\n      dup5\n        /* \"@openzeppelin/contracts/token/ERC1155/ERC1155.sol\":11072:11078  values */\n      dup5\n        /* \"@openzeppelin/contracts/token/ERC1155/ERC1155.sol\":11080:11084  data */\n      dup8\n        /* \"@openzeppelin/contracts/token/ERC1155/ERC1155.sol\":11024:11050  _updateWithAcceptanceCheck */\n      tag_231\n        /* \"@openzeppelin/contracts/token/ERC1155/ERC1155.sol\":11024:11085  _updateWithAcceptanceCheck(address(0), to, ids, values, data) */\n      jump\t// in\n    tag_257:\n        /* \"@openzeppelin/contracts/token/ERC1155/ERC1155.sol\":10828:11092  {... */\n      pop\n      pop\n        /* \"@openzeppelin/contracts/token/ERC1155/ERC1155.sol\":10746:11092  function _mint(address to, uint256 id, uint256 value, bytes memory data) internal {... */\n      pop\n      pop\n      pop\n      pop\n      jump\t// out\n        /* \"@openzeppelin/contracts/token/ERC1155/ERC1155.sol\":13268:13583  function _setApprovalForAll(address owner, address operator, bool approved) internal virtual {... */\n    tag_199:\n        /* \"@openzeppelin/contracts/token/ERC1155/ERC1155.sol\":13395:13396  0 */\n      0x00\n        /* \"@openzeppelin/contracts/token/ERC1155/ERC1155.sol\":13375:13397  operator == address(0) */\n      0xffffffffffffffffffffffffffffffffffffffff\n      and\n        /* \"@openzeppelin/contracts/token/ERC1155/ERC1155.sol\":13375:13383  operator */\n      dup3\n        /* \"@openzeppelin/contracts/token/ERC1155/ERC1155.sol\":13375:13397  operator == address(0) */\n      0xffffffffffffffffffffffffffffffffffffffff\n      and\n      sub\n        /* \"@openzeppelin/contracts/token/ERC1155/ERC1155.sol\":13371:13465  if (operator == address(0)) {... */\n      tag_259\n      jumpi\n        /* \"@openzeppelin/contracts/token/ERC1155/ERC1155.sol\":13451:13452  0 */\n      0x00\n        /* \"@openzeppelin/contracts/token/ERC1155/ERC1155.sol\":13420:13454  ERC1155InvalidOperator(address(0)) */\n      mload(0x40)\n      0xced3e10000000000000000000000000000000000000000000000000000000000\n      dup2\n      mstore\n      0x04\n      add\n      tag_260\n      swap2\n      swap1\n      tag_82\n      jump\t// in\n    tag_260:\n      mload(0x40)\n      dup1\n      swap2\n      sub\n      swap1\n      revert\n        /* \"@openzeppelin/contracts/token/ERC1155/ERC1155.sol\":13371:13465  if (operator == address(0)) {... */\n    tag_259:\n        /* \"@openzeppelin/contracts/token/ERC1155/ERC1155.sol\":13512:13520  approved */\n      dup1\n        /* \"@openzeppelin/contracts/token/ERC1155/ERC1155.sol\":13474:13492  _operatorApprovals */\n      0x01\n        /* \"@openzeppelin/contracts/token/ERC1155/ERC1155.sol\":13474:13499  _operatorApprovals[owner] */\n      0x00\n        /* \"@openzeppelin/contracts/token/ERC1155/ERC1155.sol\":13493:13498  owner */\n      dup6\n        /* \"@openzeppelin/contracts/token/ERC1155/ERC1155.sol\":13474:13499  _operatorApprovals[owner] */\n      0xffffffffffffffffffffffffffffffffffffffff\n      and\n      0xffffffffffffffffffffffffffffffffffffffff\n      and\n      dup2\n      mstore\n      0x20\n      add\n      swap1\n      dup2\n      mstore\n      0x20\n      add\n      0x00\n      keccak256\n        /* \"@openzeppelin/contracts/token/ERC1155/ERC1155.sol\":13474:13509  _operatorApprovals[owner][operator] */\n      0x00\n        /* \"@openzeppelin/contracts/token/ERC1155/ERC1155.sol\":13500:13508  operator */\n      dup5\n        /* \"@openzeppelin/contracts/token/ERC1155/ERC1155.sol\":13474:13509  _operatorApprovals[owner][operator] */\n      0xffffffffffffffffffffffffffffffffffffffff\n      and\n      0xffffffffffffffffffffffffffffffffffffffff\n      and\n      dup2\n      mstore\n      0x20\n      add\n      swap1\n      dup2\n      mstore\n      0x20\n      add\n      0x00\n      keccak256\n      0x00\n        /* \"@openzeppelin/contracts/token/ERC1155/ERC1155.sol\":13474:13520  _operatorApprovals[owner][operator] = approved */\n      0x0100\n      exp\n      dup2\n      sload\n      dup2\n      0xff\n      mul\n      not\n      and\n      swap1\n      dup4\n      iszero\n      iszero\n      mul\n      or\n      swap1\n      sstore\n      pop\n        /* \"@openzeppelin/contracts/token/ERC1155/ERC1155.sol\":13557:13565  operator */\n      dup2\n        /* \"@openzeppelin/contracts/token/ERC1155/ERC1155.sol\":13535:13576  ApprovalForAll(owner, operator, approved) */\n      0xffffffffffffffffffffffffffffffffffffffff\n      and\n        /* \"@openzeppelin/contracts/token/ERC1155/ERC1155.sol\":13550:13555  owner */\n      dup4\n        /* \"@openzeppelin/contracts/token/ERC1155/ERC1155.sol\":13535:13576  ApprovalForAll(owner, operator, approved) */\n      0xffffffffffffffffffffffffffffffffffffffff\n      and\n      0x17307eab39ab6107e8899845ad3d59bd9653f200f220920489ca2b5937696c31\n        /* \"@openzeppelin/contracts/token/ERC1155/ERC1155.sol\":13567:13575  approved */\n      dup4\n        /* \"@openzeppelin/contracts/token/ERC1155/ERC1155.sol\":13535:13576  ApprovalForAll(owner, operator, approved) */\n      mload(0x40)\n      tag_261\n      swap2\n      swap1\n      tag_37\n      jump\t// in\n    tag_261:\n      mload(0x40)\n      dup1\n      swap2\n      sub\n      swap1\n      log3\n        /* \"@openzeppelin/contracts/token/ERC1155/ERC1155.sol\":13268:13583  function _setApprovalForAll(address owner, address operator, bool approved) internal virtual {... */\n      pop\n      pop\n      pop\n      jump\t// out\n        /* \"@openzeppelin/contracts/token/ERC1155/ERC1155.sol\":8151:8614  function _safeTransferFrom(address from, address to, uint256 id, uint256 value, bytes memory data) internal {... */\n    tag_209:\n        /* \"@openzeppelin/contracts/token/ERC1155/ERC1155.sol\":8287:8288  0 */\n      0x00\n        /* \"@openzeppelin/contracts/token/ERC1155/ERC1155.sol\":8273:8289  to == address(0) */\n      0xffffffffffffffffffffffffffffffffffffffff\n      and\n        /* \"@openzeppelin/contracts/token/ERC1155/ERC1155.sol\":8273:8275  to */\n      dup5\n        /* \"@openzeppelin/contracts/token/ERC1155/ERC1155.sol\":8273:8289  to == address(0) */\n      0xffffffffffffffffffffffffffffffffffffffff\n      and\n      sub\n        /* \"@openzeppelin/contracts/token/ERC1155/ERC1155.sol\":8269:8357  if (to == address(0)) {... */\n      tag_263\n      jumpi\n        /* \"@openzeppelin/contracts/token/ERC1155/ERC1155.sol\":8343:8344  0 */\n      0x00\n        /* \"@openzeppelin/contracts/token/ERC1155/ERC1155.sol\":8312:8346  ERC1155InvalidReceiver(address(0)) */\n      mload(0x40)\n      0x57f447ce00000000000000000000000000000000000000000000000000000000\n      dup2\n      mstore\n      0x04\n      add\n      tag_264\n      swap2\n      swap1\n      tag_82\n      jump\t// in\n    tag_264:\n      mload(0x40)\n      dup1\n      swap2\n      sub\n      swap1\n      revert\n        /* \"@openzeppelin/contracts/token/ERC1155/ERC1155.sol\":8269:8357  if (to == address(0)) {... */\n    tag_263:\n        /* \"@openzeppelin/contracts/token/ERC1155/ERC1155.sol\":8386:8387  0 */\n      0x00\n        /* \"@openzeppelin/contracts/token/ERC1155/ERC1155.sol\":8370:8388  from == address(0) */\n      0xffffffffffffffffffffffffffffffffffffffff\n      and\n        /* \"@openzeppelin/contracts/token/ERC1155/ERC1155.sol\":8370:8374  from */\n      dup6\n        /* \"@openzeppelin/contracts/token/ERC1155/ERC1155.sol\":8370:8388  from == address(0) */\n      0xffffffffffffffffffffffffffffffffffffffff\n      and\n      sub\n        /* \"@openzeppelin/contracts/token/ERC1155/ERC1155.sol\":8366:8454  if (from == address(0)) {... */\n      tag_265\n      jumpi\n        /* \"@openzeppelin/contracts/token/ERC1155/ERC1155.sol\":8440:8441  0 */\n      0x00\n        /* \"@openzeppelin/contracts/token/ERC1155/ERC1155.sol\":8411:8443  ERC1155InvalidSender(address(0)) */\n      mload(0x40)\n      0x01a8351400000000000000000000000000000000000000000000000000000000\n      dup2\n      mstore\n      0x04\n      add\n      tag_266\n      swap2\n      swap1\n      tag_82\n      jump\t// in\n    tag_266:\n      mload(0x40)\n      dup1\n      swap2\n      sub\n      swap1\n      revert\n        /* \"@openzeppelin/contracts/token/ERC1155/ERC1155.sol\":8366:8454  if (from == address(0)) {... */\n    tag_265:\n        /* \"@openzeppelin/contracts/token/ERC1155/ERC1155.sol\":8464:8484  uint256[] memory ids */\n      0x00\n        /* \"@openzeppelin/contracts/token/ERC1155/ERC1155.sol\":8486:8509  uint256[] memory values */\n      dup1\n        /* \"@openzeppelin/contracts/token/ERC1155/ERC1155.sol\":8513:8542  _asSingletonArrays(id, value) */\n      tag_267\n        /* \"@openzeppelin/contracts/token/ERC1155/ERC1155.sol\":8532:8534  id */\n      dup6\n        /* \"@openzeppelin/contracts/token/ERC1155/ERC1155.sol\":8536:8541  value */\n      dup6\n        /* \"@openzeppelin/contracts/token/ERC1155/ERC1155.sol\":8513:8531  _asSingletonArrays */\n      tag_256\n        /* \"@openzeppelin/contracts/token/ERC1155/ERC1155.sol\":8513:8542  _asSingletonArrays(id, value) */\n      jump\t// in\n    tag_267:\n        /* \"@openzeppelin/contracts/token/ERC1155/ERC1155.sol\":8463:8542  (uint256[] memory ids, uint256[] memory values) = _asSingletonArrays(id, value) */\n      swap2\n      pop\n      swap2\n      pop\n        /* \"@openzeppelin/contracts/token/ERC1155/ERC1155.sol\":8552:8607  _updateWithAcceptanceCheck(from, to, ids, values, data) */\n      tag_268\n        /* \"@openzeppelin/contracts/token/ERC1155/ERC1155.sol\":8579:8583  from */\n      dup8\n        /* \"@openzeppelin/contracts/token/ERC1155/ERC1155.sol\":8585:8587  to */\n      dup8\n        /* \"@openzeppelin/contracts/token/ERC1155/ERC1155.sol\":8589:8592  ids */\n      dup5\n        /* \"@openzeppelin/contracts/token/ERC1155/ERC1155.sol\":8594:8600  values */\n      dup5\n        /* \"@openzeppelin/contracts/token/ERC1155/ERC1155.sol\":8602:8606  data */\n      dup8\n        /* \"@openzeppelin/contracts/token/ERC1155/ERC1155.sol\":8552:8578  _updateWithAcceptanceCheck */\n      tag_231\n        /* \"@openzeppelin/contracts/token/ERC1155/ERC1155.sol\":8552:8607  _updateWithAcceptanceCheck(from, to, ids, values, data) */\n      jump\t// in\n    tag_268:\n        /* \"@openzeppelin/contracts/token/ERC1155/ERC1155.sol\":8259:8614  {... */\n      pop\n      pop\n        /* \"@openzeppelin/contracts/token/ERC1155/ERC1155.sol\":8151:8614  function _safeTransferFrom(address from, address to, uint256 id, uint256 value, bytes memory data) internal {... */\n      pop\n      pop\n      pop\n      pop\n      pop\n      jump\t// out\n        /* \"@openzeppelin/contracts/token/ERC1155/ERC1155.sol\":12099:12428  function _burn(address from, uint256 id, uint256 value) internal {... */\n    tag_225:\n        /* \"@openzeppelin/contracts/token/ERC1155/ERC1155.sol\":12194:12195  0 */\n      0x00\n        /* \"@openzeppelin/contracts/token/ERC1155/ERC1155.sol\":12178:12196  from == address(0) */\n      0xffffffffffffffffffffffffffffffffffffffff\n      and\n        /* \"@openzeppelin/contracts/token/ERC1155/ERC1155.sol\":12178:12182  from */\n      dup4\n        /* \"@openzeppelin/contracts/token/ERC1155/ERC1155.sol\":12178:12196  from == address(0) */\n      0xffffffffffffffffffffffffffffffffffffffff\n      and\n      sub\n        /* \"@openzeppelin/contracts/token/ERC1155/ERC1155.sol\":12174:12262  if (from == address(0)) {... */\n      tag_270\n      jumpi\n        /* \"@openzeppelin/contracts/token/ERC1155/ERC1155.sol\":12248:12249  0 */\n      0x00\n        /* \"@openzeppelin/contracts/token/ERC1155/ERC1155.sol\":12219:12251  ERC1155InvalidSender(address(0)) */\n      mload(0x40)\n      0x01a8351400000000000000000000000000000000000000000000000000000000\n      dup2\n      mstore\n      0x04\n      add\n      tag_271\n      swap2\n      swap1\n      tag_82\n      jump\t// in\n    tag_271:\n      mload(0x40)\n      dup1\n      swap2\n      sub\n      swap1\n      revert\n        /* \"@openzeppelin/contracts/token/ERC1155/ERC1155.sol\":12174:12262  if (from == address(0)) {... */\n    tag_270:\n        /* \"@openzeppelin/contracts/token/ERC1155/ERC1155.sol\":12272:12292  uint256[] memory ids */\n      0x00\n        /* \"@openzeppelin/contracts/token/ERC1155/ERC1155.sol\":12294:12317  uint256[] memory values */\n      dup1\n        /* \"@openzeppelin/contracts/token/ERC1155/ERC1155.sol\":12321:12350  _asSingletonArrays(id, value) */\n      tag_272\n        /* \"@openzeppelin/contracts/token/ERC1155/ERC1155.sol\":12340:12342  id */\n      dup5\n        /* \"@openzeppelin/contracts/token/ERC1155/ERC1155.sol\":12344:12349  value */\n      dup5\n        /* \"@openzeppelin/contracts/token/ERC1155/ERC1155.sol\":12321:12339  _asSingletonArrays */\n      tag_256\n        /* \"@openzeppelin/contracts/token/ERC1155/ERC1155.sol\":12321:12350  _asSingletonArrays(id, value) */\n      jump\t// in\n    tag_272:\n        /* \"@openzeppelin/contracts/token/ERC1155/ERC1155.sol\":12271:12350  (uint256[] memory ids, uint256[] memory values) = _asSingletonArrays(id, value) */\n      swap2\n      pop\n      swap2\n      pop\n        /* \"@openzeppelin/contracts/token/ERC1155/ERC1155.sol\":12360:12421  _updateWithAcceptanceCheck(from, address(0), ids, values, \"\") */\n      tag_273\n        /* \"@openzeppelin/contracts/token/ERC1155/ERC1155.sol\":12387:12391  from */\n      dup6\n        /* \"@openzeppelin/contracts/token/ERC1155/ERC1155.sol\":12401:12402  0 */\n      0x00\n        /* \"@openzeppelin/contracts/token/ERC1155/ERC1155.sol\":12405:12408  ids */\n      dup5\n        /* \"@openzeppelin/contracts/token/ERC1155/ERC1155.sol\":12410:12416  values */\n      dup5\n        /* \"@openzeppelin/contracts/token/ERC1155/ERC1155.sol\":12360:12421  _updateWithAcceptanceCheck(from, address(0), ids, values, \"\") */\n      mload(0x40)\n      dup1\n      0x20\n      add\n      0x40\n      mstore\n      dup1\n      0x00\n      dup2\n      mstore\n      pop\n        /* \"@openzeppelin/contracts/token/ERC1155/ERC1155.sol\":12360:12386  _updateWithAcceptanceCheck */\n      tag_231\n        /* \"@openzeppelin/contracts/token/ERC1155/ERC1155.sol\":12360:12421  _updateWithAcceptanceCheck(from, address(0), ids, values, \"\") */\n      jump\t// in\n    tag_273:\n        /* \"@openzeppelin/contracts/token/ERC1155/ERC1155.sol\":12164:12428  {... */\n      pop\n      pop\n        /* \"@openzeppelin/contracts/token/ERC1155/ERC1155.sol\":12099:12428  function _burn(address from, uint256 id, uint256 value) internal {... */\n      pop\n      pop\n      pop\n      jump\t// out\n        /* \"@openzeppelin/contracts/token/ERC1155/ERC1155.sol\":7004:7694  function _updateWithAcceptanceCheck(... */\n    tag_231:\n        /* \"@openzeppelin/contracts/token/ERC1155/ERC1155.sol\":7205:7235  _update(from, to, ids, values) */\n      tag_275\n        /* \"@openzeppelin/contracts/token/ERC1155/ERC1155.sol\":7213:7217  from */\n      dup6\n        /* \"@openzeppelin/contracts/token/ERC1155/ERC1155.sol\":7219:7221  to */\n      dup6\n        /* \"@openzeppelin/contracts/token/ERC1155/ERC1155.sol\":7223:7226  ids */\n      dup6\n        /* \"@openzeppelin/contracts/token/ERC1155/ERC1155.sol\":7228:7234  values */\n      dup6\n        /* \"@openzeppelin/contracts/token/ERC1155/ERC1155.sol\":7205:7212  _update */\n      tag_276\n        /* \"@openzeppelin/contracts/token/ERC1155/ERC1155.sol\":7205:7235  _update(from, to, ids, values) */\n      jump\t// in\n    tag_275:\n        /* \"@openzeppelin/contracts/token/ERC1155/ERC1155.sol\":7263:7264  0 */\n      0x00\n        /* \"@openzeppelin/contracts/token/ERC1155/ERC1155.sol\":7249:7265  to != address(0) */\n      0xffffffffffffffffffffffffffffffffffffffff\n      and\n        /* \"@openzeppelin/contracts/token/ERC1155/ERC1155.sol\":7249:7251  to */\n      dup5\n        /* \"@openzeppelin/contracts/token/ERC1155/ERC1155.sol\":7249:7265  to != address(0) */\n      0xffffffffffffffffffffffffffffffffffffffff\n      and\n      eq\n        /* \"@openzeppelin/contracts/token/ERC1155/ERC1155.sol\":7245:7688  if (to != address(0)) {... */\n      tag_277\n      jumpi\n        /* \"@openzeppelin/contracts/token/ERC1155/ERC1155.sol\":7281:7297  address operator */\n      0x00\n        /* \"@openzeppelin/contracts/token/ERC1155/ERC1155.sol\":7300:7312  _msgSender() */\n      tag_278\n        /* \"@openzeppelin/contracts/token/ERC1155/ERC1155.sol\":7300:7310  _msgSender */\n      tag_135\n        /* \"@openzeppelin/contracts/token/ERC1155/ERC1155.sol\":7300:7312  _msgSender() */\n      jump\t// in\n    tag_278:\n        /* \"@openzeppelin/contracts/token/ERC1155/ERC1155.sol\":7281:7312  address operator = _msgSender() */\n      swap1\n      pop\n        /* \"@openzeppelin/contracts/token/ERC1155/ERC1155.sol\":7344:7345  1 */\n      0x01\n        /* \"@openzeppelin/contracts/token/ERC1155/ERC1155.sol\":7330:7333  ids */\n      dup5\n        /* \"@openzeppelin/contracts/token/ERC1155/ERC1155.sol\":7330:7340  ids.length */\n      mload\n        /* \"@openzeppelin/contracts/token/ERC1155/ERC1155.sol\":7330:7345  ids.length == 1 */\n      sub\n        /* \"@openzeppelin/contracts/token/ERC1155/ERC1155.sol\":7326:7678  if (ids.length == 1) {... */\n      tag_279\n      jumpi\n        /* \"@openzeppelin/contracts/token/ERC1155/ERC1155.sol\":7365:7375  uint256 id */\n      0x00\n        /* \"@openzeppelin/contracts/token/ERC1155/ERC1155.sol\":7378:7403  ids.unsafeMemoryAccess(0) */\n      tag_280\n        /* \"@openzeppelin/contracts/token/ERC1155/ERC1155.sol\":7401:7402  0 */\n      0x00\n        /* \"@openzeppelin/contracts/token/ERC1155/ERC1155.sol\":7378:7381  ids */\n      dup7\n        /* \"@openzeppelin/contracts/token/ERC1155/ERC1155.sol\":7378:7400  ids.unsafeMemoryAccess */\n      tag_158\n      swap1\n        /* \"@openzeppelin/contracts/token/ERC1155/ERC1155.sol\":7378:7403  ids.unsafeMemoryAccess(0) */\n      swap2\n      swap1\n      0xffffffff\n      and\n      jump\t// in\n    tag_280:\n        /* \"@openzeppelin/contracts/token/ERC1155/ERC1155.sol\":7365:7403  uint256 id = ids.unsafeMemoryAccess(0) */\n      swap1\n      pop\n        /* \"@openzeppelin/contracts/token/ERC1155/ERC1155.sol\":7421:7434  uint256 value */\n      0x00\n        /* \"@openzeppelin/contracts/token/ERC1155/ERC1155.sol\":7437:7465  values.unsafeMemoryAccess(0) */\n      tag_281\n        /* \"@openzeppelin/contracts/token/ERC1155/ERC1155.sol\":7463:7464  0 */\n      0x00\n        /* \"@openzeppelin/contracts/token/ERC1155/ERC1155.sol\":7437:7443  values */\n      dup7\n        /* \"@openzeppelin/contracts/token/ERC1155/ERC1155.sol\":7437:7462  values.unsafeMemoryAccess */\n      tag_158\n      swap1\n        /* \"@openzeppelin/contracts/token/ERC1155/ERC1155.sol\":7437:7465  values.unsafeMemoryAccess(0) */\n      swap2\n      swap1\n      0xffffffff\n      and\n      jump\t// in\n    tag_281:\n        /* \"@openzeppelin/contracts/token/ERC1155/ERC1155.sol\":7421:7465  uint256 value = values.unsafeMemoryAccess(0) */\n      swap1\n      pop\n        /* \"@openzeppelin/contracts/token/ERC1155/ERC1155.sol\":7483:7550  _doSafeTransferAcceptanceCheck(operator, from, to, id, value, data) */\n      tag_282\n        /* \"@openzeppelin/contracts/token/ERC1155/ERC1155.sol\":7514:7522  operator */\n      dup4\n        /* \"@openzeppelin/contracts/token/ERC1155/ERC1155.sol\":7524:7528  from */\n      dup10\n        /* \"@openzeppelin/contracts/token/ERC1155/ERC1155.sol\":7530:7532  to */\n      dup10\n        /* \"@openzeppelin/contracts/token/ERC1155/ERC1155.sol\":7534:7536  id */\n      dup6\n        /* \"@openzeppelin/contracts/token/ERC1155/ERC1155.sol\":7538:7543  value */\n      dup6\n        /* \"@openzeppelin/contracts/token/ERC1155/ERC1155.sol\":7545:7549  data */\n      dup10\n        /* \"@openzeppelin/contracts/token/ERC1155/ERC1155.sol\":7483:7513  _doSafeTransferAcceptanceCheck */\n      tag_283\n        /* \"@openzeppelin/contracts/token/ERC1155/ERC1155.sol\":7483:7550  _doSafeTransferAcceptanceCheck(operator, from, to, id, value, data) */\n      jump\t// in\n    tag_282:\n        /* \"@openzeppelin/contracts/token/ERC1155/ERC1155.sol\":7347:7565  {... */\n      pop\n      pop\n        /* \"@openzeppelin/contracts/token/ERC1155/ERC1155.sol\":7326:7678  if (ids.length == 1) {... */\n      jump(tag_284)\n    tag_279:\n        /* \"@openzeppelin/contracts/token/ERC1155/ERC1155.sol\":7589:7663  _doSafeBatchTransferAcceptanceCheck(operator, from, to, ids, values, data) */\n      tag_285\n        /* \"@openzeppelin/contracts/token/ERC1155/ERC1155.sol\":7625:7633  operator */\n      dup2\n        /* \"@openzeppelin/contracts/token/ERC1155/ERC1155.sol\":7635:7639  from */\n      dup8\n        /* \"@openzeppelin/contracts/token/ERC1155/ERC1155.sol\":7641:7643  to */\n      dup8\n        /* \"@openzeppelin/contracts/token/ERC1155/ERC1155.sol\":7645:7648  ids */\n      dup8\n        /* \"@openzeppelin/contracts/token/ERC1155/ERC1155.sol\":7650:7656  values */\n      dup8\n        /* \"@openzeppelin/contracts/token/ERC1155/ERC1155.sol\":7658:7662  data */\n      dup8\n        /* \"@openzeppelin/contracts/token/ERC1155/ERC1155.sol\":7589:7624  _doSafeBatchTransferAcceptanceCheck */\n      tag_286\n        /* \"@openzeppelin/contracts/token/ERC1155/ERC1155.sol\":7589:7663  _doSafeBatchTransferAcceptanceCheck(operator, from, to, ids, values, data) */\n      jump\t// in\n    tag_285:\n        /* \"@openzeppelin/contracts/token/ERC1155/ERC1155.sol\":7326:7678  if (ids.length == 1) {... */\n    tag_284:\n        /* \"@openzeppelin/contracts/token/ERC1155/ERC1155.sol\":7267:7688  {... */\n      pop\n        /* \"@openzeppelin/contracts/token/ERC1155/ERC1155.sol\":7245:7688  if (to != address(0)) {... */\n    tag_277:\n        /* \"@openzeppelin/contracts/token/ERC1155/ERC1155.sol\":7004:7694  function _updateWithAcceptanceCheck(... */\n      pop\n      pop\n      pop\n      pop\n      pop\n      jump\t// out\n        /* \"@openzeppelin/contracts/token/ERC1155/ERC1155.sol\":16080:16929  function _asSingletonArrays(... */\n    tag_256:\n        /* \"@openzeppelin/contracts/token/ERC1155/ERC1155.sol\":16188:16211  uint256[] memory array1 */\n      0x60\n        /* \"@openzeppelin/contracts/token/ERC1155/ERC1155.sol\":16213:16236  uint256[] memory array2 */\n      dup1\n        /* \"@openzeppelin/contracts/token/ERC1155/ERC1155.sol\":16374:16378  0x40 */\n      0x40\n        /* \"@openzeppelin/contracts/token/ERC1155/ERC1155.sol\":16368:16379  mload(0x40) */\n      mload\n        /* \"@openzeppelin/contracts/token/ERC1155/ERC1155.sol\":16358:16379  array1 := mload(0x40) */\n      swap2\n      pop\n        /* \"@openzeppelin/contracts/token/ERC1155/ERC1155.sol\":16444:16445  1 */\n      0x01\n        /* \"@openzeppelin/contracts/token/ERC1155/ERC1155.sol\":16436:16442  array1 */\n      dup3\n        /* \"@openzeppelin/contracts/token/ERC1155/ERC1155.sol\":16429:16446  mstore(array1, 1) */\n      mstore\n        /* \"@openzeppelin/contracts/token/ERC1155/ERC1155.sol\":16582:16590  element1 */\n      dup4\n        /* \"@openzeppelin/contracts/token/ERC1155/ERC1155.sol\":16575:16579  0x20 */\n      0x20\n        /* \"@openzeppelin/contracts/token/ERC1155/ERC1155.sol\":16567:16573  array1 */\n      dup4\n        /* \"@openzeppelin/contracts/token/ERC1155/ERC1155.sol\":16563:16580  add(array1, 0x20) */\n      add\n        /* \"@openzeppelin/contracts/token/ERC1155/ERC1155.sol\":16556:16591  mstore(add(array1, 0x20), element1) */\n      mstore\n        /* \"@openzeppelin/contracts/token/ERC1155/ERC1155.sol\":16704:16708  0x40 */\n      0x40\n        /* \"@openzeppelin/contracts/token/ERC1155/ERC1155.sol\":16696:16702  array1 */\n      dup3\n        /* \"@openzeppelin/contracts/token/ERC1155/ERC1155.sol\":16692:16709  add(array1, 0x40) */\n      add\n        /* \"@openzeppelin/contracts/token/ERC1155/ERC1155.sol\":16682:16709  array2 := add(array1, 0x40) */\n      swap1\n      pop\n        /* \"@openzeppelin/contracts/token/ERC1155/ERC1155.sol\":16737:16738  1 */\n      0x01\n        /* \"@openzeppelin/contracts/token/ERC1155/ERC1155.sol\":16729:16735  array2 */\n      dup2\n        /* \"@openzeppelin/contracts/token/ERC1155/ERC1155.sol\":16722:16739  mstore(array2, 1) */\n      mstore\n        /* \"@openzeppelin/contracts/token/ERC1155/ERC1155.sol\":16778:16786  element2 */\n      dup3\n        /* \"@openzeppelin/contracts/token/ERC1155/ERC1155.sol\":16771:16775  0x20 */\n      0x20\n        /* \"@openzeppelin/contracts/token/ERC1155/ERC1155.sol\":16763:16769  array2 */\n      dup3\n        /* \"@openzeppelin/contracts/token/ERC1155/ERC1155.sol\":16759:16776  add(array2, 0x20) */\n      add\n        /* \"@openzeppelin/contracts/token/ERC1155/ERC1155.sol\":16752:16787  mstore(add(array2, 0x20), element2) */\n      mstore\n        /* \"@openzeppelin/contracts/token/ERC1155/ERC1155.sol\":16907:16911  0x40 */\n      0x40\n        /* \"@openzeppelin/contracts/token/ERC1155/ERC1155.sol\":16899:16905  array2 */\n      dup2\n        /* \"@openzeppelin/contracts/token/ERC1155/ERC1155.sol\":16895:16912  add(array2, 0x40) */\n      add\n        /* \"@openzeppelin/contracts/token/ERC1155/ERC1155.sol\":16889:16893  0x40 */\n      0x40\n        /* \"@openzeppelin/contracts/token/ERC1155/ERC1155.sol\":16882:16913  mstore(0x40, add(array2, 0x40)) */\n      mstore\n        /* \"@openzeppelin/contracts/token/ERC1155/ERC1155.sol\":16080:16929  function _asSingletonArrays(... */\n      swap3\n      pop\n      swap3\n      swap1\n      pop\n      jump\t// out\n        /* \"contracts/SomTokens/SomTokens.sol\":2073:2273  function _update (... */\n    tag_276:\n        /* \"contracts/SomTokens/SomTokens.sol\":2232:2268  super._update(from, to, ids, values) */\n      tag_289\n        /* \"contracts/SomTokens/SomTokens.sol\":2246:2250  from */\n      dup5\n        /* \"contracts/SomTokens/SomTokens.sol\":2252:2254  to */\n      dup5\n        /* \"contracts/SomTokens/SomTokens.sol\":2256:2259  ids */\n      dup5\n        /* \"contracts/SomTokens/SomTokens.sol\":2261:2267  values */\n      dup5\n        /* \"contracts/SomTokens/SomTokens.sol\":2232:2245  super._update */\n      tag_290\n        /* \"contracts/SomTokens/SomTokens.sol\":2232:2268  super._update(from, to, ids, values) */\n      jump\t// in\n    tag_289:\n        /* \"contracts/SomTokens/SomTokens.sol\":2073:2273  function _update (... */\n      pop\n      pop\n      pop\n      pop\n      jump\t// out\n        /* \"@openzeppelin/contracts/token/ERC1155/ERC1155.sol\":13761:14735  function _doSafeTransferAcceptanceCheck(... */\n    tag_283:\n        /* \"@openzeppelin/contracts/token/ERC1155/ERC1155.sol\":13984:13985  0 */\n      0x00\n        /* \"@openzeppelin/contracts/token/ERC1155/ERC1155.sol\":13967:13969  to */\n      dup5\n        /* \"@openzeppelin/contracts/token/ERC1155/ERC1155.sol\":13967:13981  to.code.length */\n      0xffffffffffffffffffffffffffffffffffffffff\n      and\n      extcodesize\n        /* \"@openzeppelin/contracts/token/ERC1155/ERC1155.sol\":13967:13985  to.code.length > 0 */\n      gt\n        /* \"@openzeppelin/contracts/token/ERC1155/ERC1155.sol\":13963:14729  if (to.code.length > 0) {... */\n      iszero\n      tag_292\n      jumpi\n        /* \"@openzeppelin/contracts/token/ERC1155/ERC1155.sol\":14022:14024  to */\n      dup4\n        /* \"@openzeppelin/contracts/token/ERC1155/ERC1155.sol\":14005:14043  IERC1155Receiver(to).onERC1155Received */\n      0xffffffffffffffffffffffffffffffffffffffff\n      and\n      0xf23a6e61\n        /* \"@openzeppelin/contracts/token/ERC1155/ERC1155.sol\":14044:14052  operator */\n      dup8\n        /* \"@openzeppelin/contracts/token/ERC1155/ERC1155.sol\":14054:14058  from */\n      dup8\n        /* \"@openzeppelin/contracts/token/ERC1155/ERC1155.sol\":14060:14062  id */\n      dup7\n        /* \"@openzeppelin/contracts/token/ERC1155/ERC1155.sol\":14064:14069  value */\n      dup7\n        /* \"@openzeppelin/contracts/token/ERC1155/ERC1155.sol\":14071:14075  data */\n      dup7\n        /* \"@openzeppelin/contracts/token/ERC1155/ERC1155.sol\":14005:14076  IERC1155Receiver(to).onERC1155Received(operator, from, id, value, data) */\n      mload(0x40)\n      dup7\n      0xffffffff\n      and\n      0xe0\n      shl\n      dup2\n      mstore\n      0x04\n      add\n      tag_293\n      swap6\n      swap5\n      swap4\n      swap3\n      swap2\n      swap1\n      tag_294\n      jump\t// in\n    tag_293:\n      0x20\n      mload(0x40)\n      dup1\n      dup4\n      sub\n      dup2\n      0x00\n      dup8\n      gas\n      call\n      swap3\n      pop\n      pop\n      pop\n      dup1\n      iszero\n      tag_295\n      jumpi\n      pop\n      mload(0x40)\n      returndatasize\n      not(0x1f)\n      0x1f\n      dup3\n      add\n      and\n      dup3\n      add\n      dup1\n      0x40\n      mstore\n      pop\n      dup2\n      add\n      swap1\n      tag_296\n      swap2\n      swap1\n      tag_297\n      jump\t// in\n    tag_296:\n      0x01\n    tag_295:\n        /* \"@openzeppelin/contracts/token/ERC1155/ERC1155.sol\":14001:14719  try IERC1155Receiver(to).onERC1155Received(operator, from, id, value, data) returns (bytes4 response) {... */\n      tag_298\n      jumpi\n      returndatasize\n      dup1\n      0x00\n      dup2\n      eq\n      tag_303\n      jumpi\n      mload(0x40)\n      swap2\n      pop\n      and(add(returndatasize, 0x3f), not(0x1f))\n      dup3\n      add\n      0x40\n      mstore\n      returndatasize\n      dup3\n      mstore\n      returndatasize\n      0x00\n      0x20\n      dup5\n      add\n      returndatacopy\n      jump(tag_302)\n    tag_303:\n      0x60\n      swap2\n      pop\n    tag_302:\n      pop\n        /* \"@openzeppelin/contracts/token/ERC1155/ERC1155.sol\":14377:14378  0 */\n      0x00\n        /* \"@openzeppelin/contracts/token/ERC1155/ERC1155.sol\":14360:14366  reason */\n      dup2\n        /* \"@openzeppelin/contracts/token/ERC1155/ERC1155.sol\":14360:14373  reason.length */\n      mload\n        /* \"@openzeppelin/contracts/token/ERC1155/ERC1155.sol\":14360:14378  reason.length == 0 */\n      sub\n        /* \"@openzeppelin/contracts/token/ERC1155/ERC1155.sol\":14356:14705  if (reason.length == 0) {... */\n      tag_304\n      jumpi\n        /* \"@openzeppelin/contracts/token/ERC1155/ERC1155.sol\":14487:14489  to */\n      dup5\n        /* \"@openzeppelin/contracts/token/ERC1155/ERC1155.sol\":14464:14490  ERC1155InvalidReceiver(to) */\n      mload(0x40)\n      0x57f447ce00000000000000000000000000000000000000000000000000000000\n      dup2\n      mstore\n      0x04\n      add\n      tag_305\n      swap2\n      swap1\n      tag_82\n      jump\t// in\n    tag_305:\n      mload(0x40)\n      dup1\n      swap2\n      sub\n      swap1\n      revert\n        /* \"@openzeppelin/contracts/token/ERC1155/ERC1155.sol\":14356:14705  if (reason.length == 0) {... */\n    tag_304:\n        /* \"@openzeppelin/contracts/token/ERC1155/ERC1155.sol\":14657:14663  reason */\n      dup1\n        /* \"@openzeppelin/contracts/token/ERC1155/ERC1155.sol\":14651:14664  mload(reason) */\n      mload\n        /* \"@openzeppelin/contracts/token/ERC1155/ERC1155.sol\":14642:14648  reason */\n      dup2\n        /* \"@openzeppelin/contracts/token/ERC1155/ERC1155.sol\":14638:14640  32 */\n      0x20\n        /* \"@openzeppelin/contracts/token/ERC1155/ERC1155.sol\":14634:14649  add(32, reason) */\n      add\n        /* \"@openzeppelin/contracts/token/ERC1155/ERC1155.sol\":14627:14665  revert(add(32, reason), mload(reason)) */\n      revert\n        /* \"@openzeppelin/contracts/token/ERC1155/ERC1155.sol\":14001:14719  try IERC1155Receiver(to).onERC1155Received(operator, from, id, value, data) returns (bytes4 response) {... */\n    tag_298:\n        /* \"@openzeppelin/contracts/token/ERC1155/ERC1155.sol\":14137:14180  IERC1155Receiver.onERC1155Received.selector */\n      shl(0xe0, 0xf23a6e61)\n        /* \"@openzeppelin/contracts/token/ERC1155/ERC1155.sol\":14125:14180  response != IERC1155Receiver.onERC1155Received.selector */\n      not(0xffffffffffffffffffffffffffffffffffffffffffffffffffffffff)\n      and\n        /* \"@openzeppelin/contracts/token/ERC1155/ERC1155.sol\":14125:14133  response */\n      dup2\n        /* \"@openzeppelin/contracts/token/ERC1155/ERC1155.sol\":14125:14180  response != IERC1155Receiver.onERC1155Received.selector */\n      not(0xffffffffffffffffffffffffffffffffffffffffffffffffffffffff)\n      and\n      eq\n        /* \"@openzeppelin/contracts/token/ERC1155/ERC1155.sol\":14121:14295  if (response != IERC1155Receiver.onERC1155Received.selector) {... */\n      tag_308\n      jumpi\n        /* \"@openzeppelin/contracts/token/ERC1155/ERC1155.sol\":14273:14275  to */\n      dup5\n        /* \"@openzeppelin/contracts/token/ERC1155/ERC1155.sol\":14250:14276  ERC1155InvalidReceiver(to) */\n      mload(0x40)\n      0x57f447ce00000000000000000000000000000000000000000000000000000000\n      dup2\n      mstore\n      0x04\n      add\n      tag_309\n      swap2\n      swap1\n      tag_82\n      jump\t// in\n    tag_309:\n      mload(0x40)\n      dup1\n      swap2\n      sub\n      swap1\n      revert\n        /* \"@openzeppelin/contracts/token/ERC1155/ERC1155.sol\":14121:14295  if (response != IERC1155Receiver.onERC1155Received.selector) {... */\n    tag_308:\n        /* \"@openzeppelin/contracts/token/ERC1155/ERC1155.sol\":14077:14309  returns (bytes4 response) {... */\n      pop\n        /* \"@openzeppelin/contracts/token/ERC1155/ERC1155.sol\":13963:14729  if (to.code.length > 0) {... */\n    tag_292:\n        /* \"@openzeppelin/contracts/token/ERC1155/ERC1155.sol\":13761:14735  function _doSafeTransferAcceptanceCheck(... */\n      pop\n      pop\n      pop\n      pop\n      pop\n      pop\n      jump\t// out\n        /* \"@openzeppelin/contracts/token/ERC1155/ERC1155.sol\":14923:15964  function _doSafeBatchTransferAcceptanceCheck(... */\n    tag_286:\n        /* \"@openzeppelin/contracts/token/ERC1155/ERC1155.sol\":15171:15172  0 */\n      0x00\n        /* \"@openzeppelin/contracts/token/ERC1155/ERC1155.sol\":15154:15156  to */\n      dup5\n        /* \"@openzeppelin/contracts/token/ERC1155/ERC1155.sol\":15154:15168  to.code.length */\n      0xffffffffffffffffffffffffffffffffffffffff\n      and\n      extcodesize\n        /* \"@openzeppelin/contracts/token/ERC1155/ERC1155.sol\":15154:15172  to.code.length > 0 */\n      gt\n        /* \"@openzeppelin/contracts/token/ERC1155/ERC1155.sol\":15150:15958  if (to.code.length > 0) {... */\n      iszero\n      tag_311\n      jumpi\n        /* \"@openzeppelin/contracts/token/ERC1155/ERC1155.sol\":15209:15211  to */\n      dup4\n        /* \"@openzeppelin/contracts/token/ERC1155/ERC1155.sol\":15192:15235  IERC1155Receiver(to).onERC1155BatchReceived */\n      0xffffffffffffffffffffffffffffffffffffffff\n      and\n      0xbc197c81\n        /* \"@openzeppelin/contracts/token/ERC1155/ERC1155.sol\":15236:15244  operator */\n      dup8\n        /* \"@openzeppelin/contracts/token/ERC1155/ERC1155.sol\":15246:15250  from */\n      dup8\n        /* \"@openzeppelin/contracts/token/ERC1155/ERC1155.sol\":15252:15255  ids */\n      dup7\n        /* \"@openzeppelin/contracts/token/ERC1155/ERC1155.sol\":15257:15263  values */\n      dup7\n        /* \"@openzeppelin/contracts/token/ERC1155/ERC1155.sol\":15265:15269  data */\n      dup7\n        /* \"@openzeppelin/contracts/token/ERC1155/ERC1155.sol\":15192:15270  IERC1155Receiver(to).onERC1155BatchReceived(operator, from, ids, values, data) */\n      mload(0x40)\n      dup7\n      0xffffffff\n      and\n      0xe0\n      shl\n      dup2\n      mstore\n      0x04\n      add\n      tag_312\n      swap6\n      swap5\n      swap4\n      swap3\n      swap2\n      swap1\n      tag_313\n      jump\t// in\n    tag_312:\n      0x20\n      mload(0x40)\n      dup1\n      dup4\n      sub\n      dup2\n      0x00\n      dup8\n      gas\n      call\n      swap3\n      pop\n      pop\n      pop\n      dup1\n      iszero\n      tag_314\n      jumpi\n      pop\n      mload(0x40)\n      returndatasize\n      not(0x1f)\n      0x1f\n      dup3\n      add\n      and\n      dup3\n      add\n      dup1\n      0x40\n      mstore\n      pop\n      dup2\n      add\n      swap1\n      tag_315\n      swap2\n      swap1\n      tag_297\n      jump\t// in\n    tag_315:\n      0x01\n    tag_314:\n        /* \"@openzeppelin/contracts/token/ERC1155/ERC1155.sol\":15188:15948  try IERC1155Receiver(to).onERC1155BatchReceived(operator, from, ids, values, data) returns (... */\n      tag_316\n      jumpi\n      returndatasize\n      dup1\n      0x00\n      dup2\n      eq\n      tag_321\n      jumpi\n      mload(0x40)\n      swap2\n      pop\n      and(add(returndatasize, 0x3f), not(0x1f))\n      dup3\n      add\n      0x40\n      mstore\n      returndatasize\n      dup3\n      mstore\n      returndatasize\n      0x00\n      0x20\n      dup5\n      add\n      returndatacopy\n      jump(tag_320)\n    tag_321:\n      0x60\n      swap2\n      pop\n    tag_320:\n      pop\n        /* \"@openzeppelin/contracts/token/ERC1155/ERC1155.sol\":15606:15607  0 */\n      0x00\n        /* \"@openzeppelin/contracts/token/ERC1155/ERC1155.sol\":15589:15595  reason */\n      dup2\n        /* \"@openzeppelin/contracts/token/ERC1155/ERC1155.sol\":15589:15602  reason.length */\n      mload\n        /* \"@openzeppelin/contracts/token/ERC1155/ERC1155.sol\":15589:15607  reason.length == 0 */\n      sub\n        /* \"@openzeppelin/contracts/token/ERC1155/ERC1155.sol\":15585:15934  if (reason.length == 0) {... */\n      tag_322\n      jumpi\n        /* \"@openzeppelin/contracts/token/ERC1155/ERC1155.sol\":15716:15718  to */\n      dup5\n        /* \"@openzeppelin/contracts/token/ERC1155/ERC1155.sol\":15693:15719  ERC1155InvalidReceiver(to) */\n      mload(0x40)\n      0x57f447ce00000000000000000000000000000000000000000000000000000000\n      dup2\n      mstore\n      0x04\n      add\n      tag_323\n      swap2\n      swap1\n      tag_82\n      jump\t// in\n    tag_323:\n      mload(0x40)\n      dup1\n      swap2\n      sub\n      swap1\n      revert\n        /* \"@openzeppelin/contracts/token/ERC1155/ERC1155.sol\":15585:15934  if (reason.length == 0) {... */\n    tag_322:\n        /* \"@openzeppelin/contracts/token/ERC1155/ERC1155.sol\":15886:15892  reason */\n      dup1\n        /* \"@openzeppelin/contracts/token/ERC1155/ERC1155.sol\":15880:15893  mload(reason) */\n      mload\n        /* \"@openzeppelin/contracts/token/ERC1155/ERC1155.sol\":15871:15877  reason */\n      dup2\n        /* \"@openzeppelin/contracts/token/ERC1155/ERC1155.sol\":15867:15869  32 */\n      0x20\n        /* \"@openzeppelin/contracts/token/ERC1155/ERC1155.sol\":15863:15878  add(32, reason) */\n      add\n        /* \"@openzeppelin/contracts/token/ERC1155/ERC1155.sol\":15856:15894  revert(add(32, reason), mload(reason)) */\n      revert\n        /* \"@openzeppelin/contracts/token/ERC1155/ERC1155.sol\":15188:15948  try IERC1155Receiver(to).onERC1155BatchReceived(operator, from, ids, values, data) returns (... */\n    tag_316:\n        /* \"@openzeppelin/contracts/token/ERC1155/ERC1155.sol\":15361:15409  IERC1155Receiver.onERC1155BatchReceived.selector */\n      shl(0xe0, 0xbc197c81)\n        /* \"@openzeppelin/contracts/token/ERC1155/ERC1155.sol\":15349:15409  response != IERC1155Receiver.onERC1155BatchReceived.selector */\n      not(0xffffffffffffffffffffffffffffffffffffffffffffffffffffffff)\n      and\n        /* \"@openzeppelin/contracts/token/ERC1155/ERC1155.sol\":15349:15357  response */\n      dup2\n        /* \"@openzeppelin/contracts/token/ERC1155/ERC1155.sol\":15349:15409  response != IERC1155Receiver.onERC1155BatchReceived.selector */\n      not(0xffffffffffffffffffffffffffffffffffffffffffffffffffffffff)\n      and\n      eq\n        /* \"@openzeppelin/contracts/token/ERC1155/ERC1155.sol\":15345:15524  if (response != IERC1155Receiver.onERC1155BatchReceived.selector) {... */\n      tag_326\n      jumpi\n        /* \"@openzeppelin/contracts/token/ERC1155/ERC1155.sol\":15502:15504  to */\n      dup5\n        /* \"@openzeppelin/contracts/token/ERC1155/ERC1155.sol\":15479:15505  ERC1155InvalidReceiver(to) */\n      mload(0x40)\n      0x57f447ce00000000000000000000000000000000000000000000000000000000\n      dup2\n      mstore\n      0x04\n      add\n      tag_327\n      swap2\n      swap1\n      tag_82\n      jump\t// in\n    tag_327:\n      mload(0x40)\n      dup1\n      swap2\n      sub\n      swap1\n      revert\n        /* \"@openzeppelin/contracts/token/ERC1155/ERC1155.sol\":15345:15524  if (response != IERC1155Receiver.onERC1155BatchReceived.selector) {... */\n    tag_326:\n        /* \"@openzeppelin/contracts/token/ERC1155/ERC1155.sol\":15271:15538  returns (... */\n      pop\n        /* \"@openzeppelin/contracts/token/ERC1155/ERC1155.sol\":15150:15958  if (to.code.length > 0) {... */\n    tag_311:\n        /* \"@openzeppelin/contracts/token/ERC1155/ERC1155.sol\":14923:15964  function _doSafeBatchTransferAcceptanceCheck(... */\n      pop\n      pop\n      pop\n      pop\n      pop\n      pop\n      jump\t// out\n        /* \"@openzeppelin/contracts/token/ERC1155/extensions/ERC1155Supply.sol\":1483:3001  function _update(... */\n    tag_290:\n        /* \"@openzeppelin/contracts/token/ERC1155/extensions/ERC1155Supply.sol\":1647:1683  super._update(from, to, ids, values) */\n      tag_329\n        /* \"@openzeppelin/contracts/token/ERC1155/extensions/ERC1155Supply.sol\":1661:1665  from */\n      dup5\n        /* \"@openzeppelin/contracts/token/ERC1155/extensions/ERC1155Supply.sol\":1667:1669  to */\n      dup5\n        /* \"@openzeppelin/contracts/token/ERC1155/extensions/ERC1155Supply.sol\":1671:1674  ids */\n      dup5\n        /* \"@openzeppelin/contracts/token/ERC1155/extensions/ERC1155Supply.sol\":1676:1682  values */\n      dup5\n        /* \"@openzeppelin/contracts/token/ERC1155/extensions/ERC1155Supply.sol\":1647:1660  super._update */\n      tag_330\n        /* \"@openzeppelin/contracts/token/ERC1155/extensions/ERC1155Supply.sol\":1647:1683  super._update(from, to, ids, values) */\n      jump\t// in\n    tag_329:\n        /* \"@openzeppelin/contracts/token/ERC1155/extensions/ERC1155Supply.sol\":1714:1715  0 */\n      0x00\n        /* \"@openzeppelin/contracts/token/ERC1155/extensions/ERC1155Supply.sol\":1698:1716  from == address(0) */\n      0xffffffffffffffffffffffffffffffffffffffff\n      and\n        /* \"@openzeppelin/contracts/token/ERC1155/extensions/ERC1155Supply.sol\":1698:1702  from */\n      dup5\n        /* \"@openzeppelin/contracts/token/ERC1155/extensions/ERC1155Supply.sol\":1698:1716  from == address(0) */\n      0xffffffffffffffffffffffffffffffffffffffff\n      and\n      sub\n        /* \"@openzeppelin/contracts/token/ERC1155/extensions/ERC1155Supply.sol\":1694:2227  if (from == address(0)) {... */\n      tag_331\n      jumpi\n        /* \"@openzeppelin/contracts/token/ERC1155/extensions/ERC1155Supply.sol\":1732:1754  uint256 totalMintValue */\n      0x00\n        /* \"@openzeppelin/contracts/token/ERC1155/extensions/ERC1155Supply.sol\":1777:1786  uint256 i */\n      dup1\n        /* \"@openzeppelin/contracts/token/ERC1155/extensions/ERC1155Supply.sol\":1772:2065  for (uint256 i = 0; i < ids.length; ++i) {... */\n    tag_332:\n        /* \"@openzeppelin/contracts/token/ERC1155/extensions/ERC1155Supply.sol\":1796:1799  ids */\n      dup4\n        /* \"@openzeppelin/contracts/token/ERC1155/extensions/ERC1155Supply.sol\":1796:1806  ids.length */\n      mload\n        /* \"@openzeppelin/contracts/token/ERC1155/extensions/ERC1155Supply.sol\":1792:1793  i */\n      dup2\n        /* \"@openzeppelin/contracts/token/ERC1155/extensions/ERC1155Supply.sol\":1792:1806  i < ids.length */\n      lt\n        /* \"@openzeppelin/contracts/token/ERC1155/extensions/ERC1155Supply.sol\":1772:2065  for (uint256 i = 0; i < ids.length; ++i) {... */\n      iszero\n      tag_333\n      jumpi\n        /* \"@openzeppelin/contracts/token/ERC1155/extensions/ERC1155Supply.sol\":1831:1844  uint256 value */\n      0x00\n        /* \"@openzeppelin/contracts/token/ERC1155/extensions/ERC1155Supply.sol\":1847:1853  values */\n      dup4\n        /* \"@openzeppelin/contracts/token/ERC1155/extensions/ERC1155Supply.sol\":1854:1855  i */\n      dup3\n        /* \"@openzeppelin/contracts/token/ERC1155/extensions/ERC1155Supply.sol\":1847:1856  values[i] */\n      dup2\n      mload\n      dup2\n      lt\n      tag_335\n      jumpi\n      tag_336\n      tag_161\n      jump\t// in\n    tag_336:\n    tag_335:\n      0x20\n      mul\n      0x20\n      add\n      add\n      mload\n        /* \"@openzeppelin/contracts/token/ERC1155/extensions/ERC1155Supply.sol\":1831:1856  uint256 value = values[i] */\n      swap1\n      pop\n        /* \"@openzeppelin/contracts/token/ERC1155/extensions/ERC1155Supply.sol\":2004:2009  value */\n      dup1\n        /* \"@openzeppelin/contracts/token/ERC1155/extensions/ERC1155Supply.sol\":1980:1992  _totalSupply */\n      0x04\n        /* \"@openzeppelin/contracts/token/ERC1155/extensions/ERC1155Supply.sol\":1980:2000  _totalSupply[ids[i]] */\n      0x00\n        /* \"@openzeppelin/contracts/token/ERC1155/extensions/ERC1155Supply.sol\":1993:1996  ids */\n      dup8\n        /* \"@openzeppelin/contracts/token/ERC1155/extensions/ERC1155Supply.sol\":1997:1998  i */\n      dup6\n        /* \"@openzeppelin/contracts/token/ERC1155/extensions/ERC1155Supply.sol\":1993:1999  ids[i] */\n      dup2\n      mload\n      dup2\n      lt\n      tag_337\n      jumpi\n      tag_338\n      tag_161\n      jump\t// in\n    tag_338:\n    tag_337:\n      0x20\n      mul\n      0x20\n      add\n      add\n      mload\n        /* \"@openzeppelin/contracts/token/ERC1155/extensions/ERC1155Supply.sol\":1980:2000  _totalSupply[ids[i]] */\n      dup2\n      mstore\n      0x20\n      add\n      swap1\n      dup2\n      mstore\n      0x20\n      add\n      0x00\n      keccak256\n      0x00\n        /* \"@openzeppelin/contracts/token/ERC1155/extensions/ERC1155Supply.sol\":1980:2009  _totalSupply[ids[i]] += value */\n      dup3\n      dup3\n      sload\n      tag_339\n      swap2\n      swap1\n      tag_340\n      jump\t// in\n    tag_339:\n      swap3\n      pop\n      pop\n      dup2\n      swap1\n      sstore\n      pop\n        /* \"@openzeppelin/contracts/token/ERC1155/extensions/ERC1155Supply.sol\":2045:2050  value */\n      dup1\n        /* \"@openzeppelin/contracts/token/ERC1155/extensions/ERC1155Supply.sol\":2027:2050  totalMintValue += value */\n      dup4\n      tag_341\n      swap2\n      swap1\n      tag_340\n      jump\t// in\n    tag_341:\n      swap3\n      pop\n        /* \"@openzeppelin/contracts/token/ERC1155/extensions/ERC1155Supply.sol\":1813:2065  {... */\n      pop\n        /* \"@openzeppelin/contracts/token/ERC1155/extensions/ERC1155Supply.sol\":1808:1811  ++i */\n      dup1\n      tag_342\n      swap1\n      tag_163\n      jump\t// in\n    tag_342:\n      swap1\n      pop\n        /* \"@openzeppelin/contracts/token/ERC1155/extensions/ERC1155Supply.sol\":1772:2065  for (uint256 i = 0; i < ids.length; ++i) {... */\n      jump(tag_332)\n    tag_333:\n      pop\n        /* \"@openzeppelin/contracts/token/ERC1155/extensions/ERC1155Supply.sol\":2202:2216  totalMintValue */\n      dup1\n        /* \"@openzeppelin/contracts/token/ERC1155/extensions/ERC1155Supply.sol\":2183:2198  _totalSupplyAll */\n      0x05\n      0x00\n        /* \"@openzeppelin/contracts/token/ERC1155/extensions/ERC1155Supply.sol\":2183:2216  _totalSupplyAll += totalMintValue */\n      dup3\n      dup3\n      sload\n      tag_343\n      swap2\n      swap1\n      tag_340\n      jump\t// in\n    tag_343:\n      swap3\n      pop\n      pop\n      dup2\n      swap1\n      sstore\n      pop\n        /* \"@openzeppelin/contracts/token/ERC1155/extensions/ERC1155Supply.sol\":1718:2227  {... */\n      pop\n        /* \"@openzeppelin/contracts/token/ERC1155/extensions/ERC1155Supply.sol\":1694:2227  if (from == address(0)) {... */\n    tag_331:\n        /* \"@openzeppelin/contracts/token/ERC1155/extensions/ERC1155Supply.sol\":2255:2256  0 */\n      0x00\n        /* \"@openzeppelin/contracts/token/ERC1155/extensions/ERC1155Supply.sol\":2241:2257  to == address(0) */\n      0xffffffffffffffffffffffffffffffffffffffff\n      and\n        /* \"@openzeppelin/contracts/token/ERC1155/extensions/ERC1155Supply.sol\":2241:2243  to */\n      dup4\n        /* \"@openzeppelin/contracts/token/ERC1155/extensions/ERC1155Supply.sol\":2241:2257  to == address(0) */\n      0xffffffffffffffffffffffffffffffffffffffff\n      and\n      sub\n        /* \"@openzeppelin/contracts/token/ERC1155/extensions/ERC1155Supply.sol\":2237:2995  if (to == address(0)) {... */\n      tag_344\n      jumpi\n        /* \"@openzeppelin/contracts/token/ERC1155/extensions/ERC1155Supply.sol\":2273:2295  uint256 totalBurnValue */\n      0x00\n        /* \"@openzeppelin/contracts/token/ERC1155/extensions/ERC1155Supply.sol\":2318:2327  uint256 i */\n      dup1\n        /* \"@openzeppelin/contracts/token/ERC1155/extensions/ERC1155Supply.sol\":2313:2772  for (uint256 i = 0; i < ids.length; ++i) {... */\n    tag_345:\n        /* \"@openzeppelin/contracts/token/ERC1155/extensions/ERC1155Supply.sol\":2337:2340  ids */\n      dup4\n        /* \"@openzeppelin/contracts/token/ERC1155/extensions/ERC1155Supply.sol\":2337:2347  ids.length */\n      mload\n        /* \"@openzeppelin/contracts/token/ERC1155/extensions/ERC1155Supply.sol\":2333:2334  i */\n      dup2\n        /* \"@openzeppelin/contracts/token/ERC1155/extensions/ERC1155Supply.sol\":2333:2347  i < ids.length */\n      lt\n        /* \"@openzeppelin/contracts/token/ERC1155/extensions/ERC1155Supply.sol\":2313:2772  for (uint256 i = 0; i < ids.length; ++i) {... */\n      iszero\n      tag_346\n      jumpi\n        /* \"@openzeppelin/contracts/token/ERC1155/extensions/ERC1155Supply.sol\":2372:2385  uint256 value */\n      0x00\n        /* \"@openzeppelin/contracts/token/ERC1155/extensions/ERC1155Supply.sol\":2388:2394  values */\n      dup4\n        /* \"@openzeppelin/contracts/token/ERC1155/extensions/ERC1155Supply.sol\":2395:2396  i */\n      dup3\n        /* \"@openzeppelin/contracts/token/ERC1155/extensions/ERC1155Supply.sol\":2388:2397  values[i] */\n      dup2\n      mload\n      dup2\n      lt\n      tag_348\n      jumpi\n      tag_349\n      tag_161\n      jump\t// in\n    tag_349:\n    tag_348:\n      0x20\n      mul\n      0x20\n      add\n      add\n      mload\n        /* \"@openzeppelin/contracts/token/ERC1155/extensions/ERC1155Supply.sol\":2372:2397  uint256 value = values[i] */\n      swap1\n      pop\n        /* \"@openzeppelin/contracts/token/ERC1155/extensions/ERC1155Supply.sol\":2578:2583  value */\n      dup1\n        /* \"@openzeppelin/contracts/token/ERC1155/extensions/ERC1155Supply.sol\":2554:2566  _totalSupply */\n      0x04\n        /* \"@openzeppelin/contracts/token/ERC1155/extensions/ERC1155Supply.sol\":2554:2574  _totalSupply[ids[i]] */\n      0x00\n        /* \"@openzeppelin/contracts/token/ERC1155/extensions/ERC1155Supply.sol\":2567:2570  ids */\n      dup8\n        /* \"@openzeppelin/contracts/token/ERC1155/extensions/ERC1155Supply.sol\":2571:2572  i */\n      dup6\n        /* \"@openzeppelin/contracts/token/ERC1155/extensions/ERC1155Supply.sol\":2567:2573  ids[i] */\n      dup2\n      mload\n      dup2\n      lt\n      tag_350\n      jumpi\n      tag_351\n      tag_161\n      jump\t// in\n    tag_351:\n    tag_350:\n      0x20\n      mul\n      0x20\n      add\n      add\n      mload\n        /* \"@openzeppelin/contracts/token/ERC1155/extensions/ERC1155Supply.sol\":2554:2574  _totalSupply[ids[i]] */\n      dup2\n      mstore\n      0x20\n      add\n      swap1\n      dup2\n      mstore\n      0x20\n      add\n      0x00\n      keccak256\n      0x00\n        /* \"@openzeppelin/contracts/token/ERC1155/extensions/ERC1155Supply.sol\":2554:2583  _totalSupply[ids[i]] -= value */\n      dup3\n      dup3\n      sload\n      sub\n      swap3\n      pop\n      pop\n      dup2\n      swap1\n      sstore\n      pop\n        /* \"@openzeppelin/contracts/token/ERC1155/extensions/ERC1155Supply.sol\":2734:2739  value */\n      dup1\n        /* \"@openzeppelin/contracts/token/ERC1155/extensions/ERC1155Supply.sol\":2716:2739  totalBurnValue += value */\n      dup4\n      add\n      swap3\n      pop\n        /* \"@openzeppelin/contracts/token/ERC1155/extensions/ERC1155Supply.sol\":2354:2772  {... */\n      pop\n        /* \"@openzeppelin/contracts/token/ERC1155/extensions/ERC1155Supply.sol\":2349:2352  ++i */\n      dup1\n      tag_352\n      swap1\n      tag_163\n      jump\t// in\n    tag_352:\n      swap1\n      pop\n        /* \"@openzeppelin/contracts/token/ERC1155/extensions/ERC1155Supply.sol\":2313:2772  for (uint256 i = 0; i < ids.length; ++i) {... */\n      jump(tag_345)\n    tag_346:\n      pop\n        /* \"@openzeppelin/contracts/token/ERC1155/extensions/ERC1155Supply.sol\":2956:2970  totalBurnValue */\n      dup1\n        /* \"@openzeppelin/contracts/token/ERC1155/extensions/ERC1155Supply.sol\":2937:2952  _totalSupplyAll */\n      0x05\n      0x00\n        /* \"@openzeppelin/contracts/token/ERC1155/extensions/ERC1155Supply.sol\":2937:2970  _totalSupplyAll -= totalBurnValue */\n      dup3\n      dup3\n      sload\n      sub\n      swap3\n      pop\n      pop\n      dup2\n      swap1\n      sstore\n      pop\n        /* \"@openzeppelin/contracts/token/ERC1155/extensions/ERC1155Supply.sol\":2259:2995  {... */\n      pop\n        /* \"@openzeppelin/contracts/token/ERC1155/extensions/ERC1155Supply.sol\":2237:2995  if (to == address(0)) {... */\n    tag_344:\n        /* \"@openzeppelin/contracts/token/ERC1155/extensions/ERC1155Supply.sol\":1483:3001  function _update(... */\n      pop\n      pop\n      pop\n      pop\n      jump\t// out\n        /* \"@openzeppelin/contracts/token/ERC1155/ERC1155.sol\":5144:6425  function _update(address from, address to, uint256[] memory ids, uint256[] memory values) internal virtual {... */\n    tag_330:\n        /* \"@openzeppelin/contracts/token/ERC1155/ERC1155.sol\":5279:5285  values */\n      dup1\n        /* \"@openzeppelin/contracts/token/ERC1155/ERC1155.sol\":5279:5292  values.length */\n      mload\n        /* \"@openzeppelin/contracts/token/ERC1155/ERC1155.sol\":5265:5268  ids */\n      dup3\n        /* \"@openzeppelin/contracts/token/ERC1155/ERC1155.sol\":5265:5275  ids.length */\n      mload\n        /* \"@openzeppelin/contracts/token/ERC1155/ERC1155.sol\":5265:5292  ids.length != values.length */\n      eq\n        /* \"@openzeppelin/contracts/token/ERC1155/ERC1155.sol\":5261:5378  if (ids.length != values.length) {... */\n      tag_354\n      jumpi\n        /* \"@openzeppelin/contracts/token/ERC1155/ERC1155.sol\":5341:5344  ids */\n      dup2\n        /* \"@openzeppelin/contracts/token/ERC1155/ERC1155.sol\":5341:5351  ids.length */\n      mload\n        /* \"@openzeppelin/contracts/token/ERC1155/ERC1155.sol\":5353:5359  values */\n      dup2\n        /* \"@openzeppelin/contracts/token/ERC1155/ERC1155.sol\":5353:5366  values.length */\n      mload\n        /* \"@openzeppelin/contracts/token/ERC1155/ERC1155.sol\":5315:5367  ERC1155InvalidArrayLength(ids.length, values.length) */\n      mload(0x40)\n      0x5b05999100000000000000000000000000000000000000000000000000000000\n      dup2\n      mstore\n      0x04\n      add\n      tag_355\n      swap3\n      swap2\n      swap1\n      tag_146\n      jump\t// in\n    tag_355:\n      mload(0x40)\n      dup1\n      swap2\n      sub\n      swap1\n      revert\n        /* \"@openzeppelin/contracts/token/ERC1155/ERC1155.sol\":5261:5378  if (ids.length != values.length) {... */\n    tag_354:\n        /* \"@openzeppelin/contracts/token/ERC1155/ERC1155.sol\":5388:5404  address operator */\n      0x00\n        /* \"@openzeppelin/contracts/token/ERC1155/ERC1155.sol\":5407:5419  _msgSender() */\n      tag_356\n        /* \"@openzeppelin/contracts/token/ERC1155/ERC1155.sol\":5407:5417  _msgSender */\n      tag_135\n        /* \"@openzeppelin/contracts/token/ERC1155/ERC1155.sol\":5407:5419  _msgSender() */\n      jump\t// in\n    tag_356:\n        /* \"@openzeppelin/contracts/token/ERC1155/ERC1155.sol\":5388:5419  address operator = _msgSender() */\n      swap1\n      pop\n        /* \"@openzeppelin/contracts/token/ERC1155/ERC1155.sol\":5435:5444  uint256 i */\n      0x00\n        /* \"@openzeppelin/contracts/token/ERC1155/ERC1155.sol\":5430:6121  for (uint256 i = 0; i < ids.length; ++i) {... */\n    tag_357:\n        /* \"@openzeppelin/contracts/token/ERC1155/ERC1155.sol\":5454:5457  ids */\n      dup4\n        /* \"@openzeppelin/contracts/token/ERC1155/ERC1155.sol\":5454:5464  ids.length */\n      mload\n        /* \"@openzeppelin/contracts/token/ERC1155/ERC1155.sol\":5450:5451  i */\n      dup2\n        /* \"@openzeppelin/contracts/token/ERC1155/ERC1155.sol\":5450:5464  i < ids.length */\n      lt\n        /* \"@openzeppelin/contracts/token/ERC1155/ERC1155.sol\":5430:6121  for (uint256 i = 0; i < ids.length; ++i) {... */\n      iszero\n      tag_358\n      jumpi\n        /* \"@openzeppelin/contracts/token/ERC1155/ERC1155.sol\":5485:5495  uint256 id */\n      0x00\n        /* \"@openzeppelin/contracts/token/ERC1155/ERC1155.sol\":5498:5523  ids.unsafeMemoryAccess(i) */\n      tag_360\n        /* \"@openzeppelin/contracts/token/ERC1155/ERC1155.sol\":5521:5522  i */\n      dup3\n        /* \"@openzeppelin/contracts/token/ERC1155/ERC1155.sol\":5498:5501  ids */\n      dup7\n        /* \"@openzeppelin/contracts/token/ERC1155/ERC1155.sol\":5498:5520  ids.unsafeMemoryAccess */\n      tag_158\n      swap1\n        /* \"@openzeppelin/contracts/token/ERC1155/ERC1155.sol\":5498:5523  ids.unsafeMemoryAccess(i) */\n      swap2\n      swap1\n      0xffffffff\n      and\n      jump\t// in\n    tag_360:\n        /* \"@openzeppelin/contracts/token/ERC1155/ERC1155.sol\":5485:5523  uint256 id = ids.unsafeMemoryAccess(i) */\n      swap1\n      pop\n        /* \"@openzeppelin/contracts/token/ERC1155/ERC1155.sol\":5537:5550  uint256 value */\n      0x00\n        /* \"@openzeppelin/contracts/token/ERC1155/ERC1155.sol\":5553:5581  values.unsafeMemoryAccess(i) */\n      tag_361\n        /* \"@openzeppelin/contracts/token/ERC1155/ERC1155.sol\":5579:5580  i */\n      dup4\n        /* \"@openzeppelin/contracts/token/ERC1155/ERC1155.sol\":5553:5559  values */\n      dup7\n        /* \"@openzeppelin/contracts/token/ERC1155/ERC1155.sol\":5553:5578  values.unsafeMemoryAccess */\n      tag_158\n      swap1\n        /* \"@openzeppelin/contracts/token/ERC1155/ERC1155.sol\":5553:5581  values.unsafeMemoryAccess(i) */\n      swap2\n      swap1\n      0xffffffff\n      and\n      jump\t// in\n    tag_361:\n        /* \"@openzeppelin/contracts/token/ERC1155/ERC1155.sol\":5537:5581  uint256 value = values.unsafeMemoryAccess(i) */\n      swap1\n      pop\n        /* \"@openzeppelin/contracts/token/ERC1155/ERC1155.sol\":5616:5617  0 */\n      0x00\n        /* \"@openzeppelin/contracts/token/ERC1155/ERC1155.sol\":5600:5618  from != address(0) */\n      0xffffffffffffffffffffffffffffffffffffffff\n      and\n        /* \"@openzeppelin/contracts/token/ERC1155/ERC1155.sol\":5600:5604  from */\n      dup9\n        /* \"@openzeppelin/contracts/token/ERC1155/ERC1155.sol\":5600:5618  from != address(0) */\n      0xffffffffffffffffffffffffffffffffffffffff\n      and\n      eq\n        /* \"@openzeppelin/contracts/token/ERC1155/ERC1155.sol\":5596:6016  if (from != address(0)) {... */\n      tag_362\n      jumpi\n        /* \"@openzeppelin/contracts/token/ERC1155/ERC1155.sol\":5638:5657  uint256 fromBalance */\n      0x00\n        /* \"@openzeppelin/contracts/token/ERC1155/ERC1155.sol\":5660:5669  _balances */\n      dup1\n        /* \"@openzeppelin/contracts/token/ERC1155/ERC1155.sol\":5660:5673  _balances[id] */\n      0x00\n        /* \"@openzeppelin/contracts/token/ERC1155/ERC1155.sol\":5670:5672  id */\n      dup5\n        /* \"@openzeppelin/contracts/token/ERC1155/ERC1155.sol\":5660:5673  _balances[id] */\n      dup2\n      mstore\n      0x20\n      add\n      swap1\n      dup2\n      mstore\n      0x20\n      add\n      0x00\n      keccak256\n        /* \"@openzeppelin/contracts/token/ERC1155/ERC1155.sol\":5660:5679  _balances[id][from] */\n      0x00\n        /* \"@openzeppelin/contracts/token/ERC1155/ERC1155.sol\":5674:5678  from */\n      dup11\n        /* \"@openzeppelin/contracts/token/ERC1155/ERC1155.sol\":5660:5679  _balances[id][from] */\n      0xffffffffffffffffffffffffffffffffffffffff\n      and\n      0xffffffffffffffffffffffffffffffffffffffff\n      and\n      dup2\n      mstore\n      0x20\n      add\n      swap1\n      dup2\n      mstore\n      0x20\n      add\n      0x00\n      keccak256\n      sload\n        /* \"@openzeppelin/contracts/token/ERC1155/ERC1155.sol\":5638:5679  uint256 fromBalance = _balances[id][from] */\n      swap1\n      pop\n        /* \"@openzeppelin/contracts/token/ERC1155/ERC1155.sol\":5715:5720  value */\n      dup2\n        /* \"@openzeppelin/contracts/token/ERC1155/ERC1155.sol\":5701:5712  fromBalance */\n      dup2\n        /* \"@openzeppelin/contracts/token/ERC1155/ERC1155.sol\":5701:5720  fromBalance < value */\n      lt\n        /* \"@openzeppelin/contracts/token/ERC1155/ERC1155.sol\":5697:5826  if (fromBalance < value) {... */\n      iszero\n      tag_363\n      jumpi\n        /* \"@openzeppelin/contracts/token/ERC1155/ERC1155.sol\":5778:5782  from */\n      dup9\n        /* \"@openzeppelin/contracts/token/ERC1155/ERC1155.sol\":5784:5795  fromBalance */\n      dup2\n        /* \"@openzeppelin/contracts/token/ERC1155/ERC1155.sol\":5797:5802  value */\n      dup4\n        /* \"@openzeppelin/contracts/token/ERC1155/ERC1155.sol\":5804:5806  id */\n      dup6\n        /* \"@openzeppelin/contracts/token/ERC1155/ERC1155.sol\":5751:5807  ERC1155InsufficientBalance(from, fromBalance, value, id) */\n      mload(0x40)\n      0x03dee4c500000000000000000000000000000000000000000000000000000000\n      dup2\n      mstore\n      0x04\n      add\n      tag_364\n      swap5\n      swap4\n      swap3\n      swap2\n      swap1\n      tag_365\n      jump\t// in\n    tag_364:\n      mload(0x40)\n      dup1\n      swap2\n      sub\n      swap1\n      revert\n        /* \"@openzeppelin/contracts/token/ERC1155/ERC1155.sol\":5697:5826  if (fromBalance < value) {... */\n    tag_363:\n        /* \"@openzeppelin/contracts/token/ERC1155/ERC1155.sol\":5978:5983  value */\n      dup2\n        /* \"@openzeppelin/contracts/token/ERC1155/ERC1155.sol\":5964:5975  fromBalance */\n      dup2\n        /* \"@openzeppelin/contracts/token/ERC1155/ERC1155.sol\":5964:5983  fromBalance - value */\n      sub\n        /* \"@openzeppelin/contracts/token/ERC1155/ERC1155.sol\":5942:5951  _balances */\n      0x00\n        /* \"@openzeppelin/contracts/token/ERC1155/ERC1155.sol\":5942:5955  _balances[id] */\n      dup1\n        /* \"@openzeppelin/contracts/token/ERC1155/ERC1155.sol\":5952:5954  id */\n      dup6\n        /* \"@openzeppelin/contracts/token/ERC1155/ERC1155.sol\":5942:5955  _balances[id] */\n      dup2\n      mstore\n      0x20\n      add\n      swap1\n      dup2\n      mstore\n      0x20\n      add\n      0x00\n      keccak256\n        /* \"@openzeppelin/contracts/token/ERC1155/ERC1155.sol\":5942:5961  _balances[id][from] */\n      0x00\n        /* \"@openzeppelin/contracts/token/ERC1155/ERC1155.sol\":5956:5960  from */\n      dup12\n        /* \"@openzeppelin/contracts/token/ERC1155/ERC1155.sol\":5942:5961  _balances[id][from] */\n      0xffffffffffffffffffffffffffffffffffffffff\n      and\n      0xffffffffffffffffffffffffffffffffffffffff\n      and\n      dup2\n      mstore\n      0x20\n      add\n      swap1\n      dup2\n      mstore\n      0x20\n      add\n      0x00\n      keccak256\n        /* \"@openzeppelin/contracts/token/ERC1155/ERC1155.sol\":5942:5983  _balances[id][from] = fromBalance - value */\n      dup2\n      swap1\n      sstore\n      pop\n        /* \"@openzeppelin/contracts/token/ERC1155/ERC1155.sol\":5620:6016  {... */\n      pop\n        /* \"@openzeppelin/contracts/token/ERC1155/ERC1155.sol\":5596:6016  if (from != address(0)) {... */\n    tag_362:\n        /* \"@openzeppelin/contracts/token/ERC1155/ERC1155.sol\":6048:6049  0 */\n      0x00\n        /* \"@openzeppelin/contracts/token/ERC1155/ERC1155.sol\":6034:6050  to != address(0) */\n      0xffffffffffffffffffffffffffffffffffffffff\n      and\n        /* \"@openzeppelin/contracts/token/ERC1155/ERC1155.sol\":6034:6036  to */\n      dup8\n        /* \"@openzeppelin/contracts/token/ERC1155/ERC1155.sol\":6034:6050  to != address(0) */\n      0xffffffffffffffffffffffffffffffffffffffff\n      and\n      eq\n        /* \"@openzeppelin/contracts/token/ERC1155/ERC1155.sol\":6030:6111  if (to != address(0)) {... */\n      tag_366\n      jumpi\n        /* \"@openzeppelin/contracts/token/ERC1155/ERC1155.sol\":6091:6096  value */\n      dup1\n        /* \"@openzeppelin/contracts/token/ERC1155/ERC1155.sol\":6070:6079  _balances */\n      0x00\n        /* \"@openzeppelin/contracts/token/ERC1155/ERC1155.sol\":6070:6083  _balances[id] */\n      dup1\n        /* \"@openzeppelin/contracts/token/ERC1155/ERC1155.sol\":6080:6082  id */\n      dup5\n        /* \"@openzeppelin/contracts/token/ERC1155/ERC1155.sol\":6070:6083  _balances[id] */\n      dup2\n      mstore\n      0x20\n      add\n      swap1\n      dup2\n      mstore\n      0x20\n      add\n      0x00\n      keccak256\n        /* \"@openzeppelin/contracts/token/ERC1155/ERC1155.sol\":6070:6087  _balances[id][to] */\n      0x00\n        /* \"@openzeppelin/contracts/token/ERC1155/ERC1155.sol\":6084:6086  to */\n      dup10\n        /* \"@openzeppelin/contracts/token/ERC1155/ERC1155.sol\":6070:6087  _balances[id][to] */\n      0xffffffffffffffffffffffffffffffffffffffff\n      and\n      0xffffffffffffffffffffffffffffffffffffffff\n      and\n      dup2\n      mstore\n      0x20\n      add\n      swap1\n      dup2\n      mstore\n      0x20\n      add\n      0x00\n      keccak256\n      0x00\n        /* \"@openzeppelin/contracts/token/ERC1155/ERC1155.sol\":6070:6096  _balances[id][to] += value */\n      dup3\n      dup3\n      sload\n      tag_367\n      swap2\n      swap1\n      tag_340\n      jump\t// in\n    tag_367:\n      swap3\n      pop\n      pop\n      dup2\n      swap1\n      sstore\n      pop\n        /* \"@openzeppelin/contracts/token/ERC1155/ERC1155.sol\":6030:6111  if (to != address(0)) {... */\n    tag_366:\n        /* \"@openzeppelin/contracts/token/ERC1155/ERC1155.sol\":5471:6121  {... */\n      pop\n      pop\n        /* \"@openzeppelin/contracts/token/ERC1155/ERC1155.sol\":5466:5469  ++i */\n      dup1\n      tag_368\n      swap1\n      tag_163\n      jump\t// in\n    tag_368:\n      swap1\n      pop\n        /* \"@openzeppelin/contracts/token/ERC1155/ERC1155.sol\":5430:6121  for (uint256 i = 0; i < ids.length; ++i) {... */\n      jump(tag_357)\n    tag_358:\n      pop\n        /* \"@openzeppelin/contracts/token/ERC1155/ERC1155.sol\":6149:6150  1 */\n      0x01\n        /* \"@openzeppelin/contracts/token/ERC1155/ERC1155.sol\":6135:6138  ids */\n      dup4\n        /* \"@openzeppelin/contracts/token/ERC1155/ERC1155.sol\":6135:6145  ids.length */\n      mload\n        /* \"@openzeppelin/contracts/token/ERC1155/ERC1155.sol\":6135:6150  ids.length == 1 */\n      sub\n        /* \"@openzeppelin/contracts/token/ERC1155/ERC1155.sol\":6131:6419  if (ids.length == 1) {... */\n      tag_369\n      jumpi\n        /* \"@openzeppelin/contracts/token/ERC1155/ERC1155.sol\":6166:6176  uint256 id */\n      0x00\n        /* \"@openzeppelin/contracts/token/ERC1155/ERC1155.sol\":6179:6204  ids.unsafeMemoryAccess(0) */\n      tag_370\n        /* \"@openzeppelin/contracts/token/ERC1155/ERC1155.sol\":6202:6203  0 */\n      0x00\n        /* \"@openzeppelin/contracts/token/ERC1155/ERC1155.sol\":6179:6182  ids */\n      dup6\n        /* \"@openzeppelin/contracts/token/ERC1155/ERC1155.sol\":6179:6201  ids.unsafeMemoryAccess */\n      tag_158\n      swap1\n        /* \"@openzeppelin/contracts/token/ERC1155/ERC1155.sol\":6179:6204  ids.unsafeMemoryAccess(0) */\n      swap2\n      swap1\n      0xffffffff\n      and\n      jump\t// in\n    tag_370:\n        /* \"@openzeppelin/contracts/token/ERC1155/ERC1155.sol\":6166:6204  uint256 id = ids.unsafeMemoryAccess(0) */\n      swap1\n      pop\n        /* \"@openzeppelin/contracts/token/ERC1155/ERC1155.sol\":6218:6231  uint256 value */\n      0x00\n        /* \"@openzeppelin/contracts/token/ERC1155/ERC1155.sol\":6234:6262  values.unsafeMemoryAccess(0) */\n      tag_371\n        /* \"@openzeppelin/contracts/token/ERC1155/ERC1155.sol\":6260:6261  0 */\n      0x00\n        /* \"@openzeppelin/contracts/token/ERC1155/ERC1155.sol\":6234:6240  values */\n      dup6\n        /* \"@openzeppelin/contracts/token/ERC1155/ERC1155.sol\":6234:6259  values.unsafeMemoryAccess */\n      tag_158\n      swap1\n        /* \"@openzeppelin/contracts/token/ERC1155/ERC1155.sol\":6234:6262  values.unsafeMemoryAccess(0) */\n      swap2\n      swap1\n      0xffffffff\n      and\n      jump\t// in\n    tag_371:\n        /* \"@openzeppelin/contracts/token/ERC1155/ERC1155.sol\":6218:6262  uint256 value = values.unsafeMemoryAccess(0) */\n      swap1\n      pop\n        /* \"@openzeppelin/contracts/token/ERC1155/ERC1155.sol\":6312:6314  to */\n      dup6\n        /* \"@openzeppelin/contracts/token/ERC1155/ERC1155.sol\":6281:6326  TransferSingle(operator, from, to, id, value) */\n      0xffffffffffffffffffffffffffffffffffffffff\n      and\n        /* \"@openzeppelin/contracts/token/ERC1155/ERC1155.sol\":6306:6310  from */\n      dup8\n        /* \"@openzeppelin/contracts/token/ERC1155/ERC1155.sol\":6281:6326  TransferSingle(operator, from, to, id, value) */\n      0xffffffffffffffffffffffffffffffffffffffff\n      and\n        /* \"@openzeppelin/contracts/token/ERC1155/ERC1155.sol\":6296:6304  operator */\n      dup5\n        /* \"@openzeppelin/contracts/token/ERC1155/ERC1155.sol\":6281:6326  TransferSingle(operator, from, to, id, value) */\n      0xffffffffffffffffffffffffffffffffffffffff\n      and\n      0xc3d58168c5ae7397731d063d5bbf3d657854427343f4c083240f7aacaa2d0f62\n        /* \"@openzeppelin/contracts/token/ERC1155/ERC1155.sol\":6316:6318  id */\n      dup6\n        /* \"@openzeppelin/contracts/token/ERC1155/ERC1155.sol\":6320:6325  value */\n      dup6\n        /* \"@openzeppelin/contracts/token/ERC1155/ERC1155.sol\":6281:6326  TransferSingle(operator, from, to, id, value) */\n      mload(0x40)\n      tag_372\n      swap3\n      swap2\n      swap1\n      tag_146\n      jump\t// in\n    tag_372:\n      mload(0x40)\n      dup1\n      swap2\n      sub\n      swap1\n      log4\n        /* \"@openzeppelin/contracts/token/ERC1155/ERC1155.sol\":6152:6337  {... */\n      pop\n      pop\n        /* \"@openzeppelin/contracts/token/ERC1155/ERC1155.sol\":6131:6419  if (ids.length == 1) {... */\n      jump(tag_373)\n    tag_369:\n        /* \"@openzeppelin/contracts/token/ERC1155/ERC1155.sol\":6392:6394  to */\n      dup4\n        /* \"@openzeppelin/contracts/token/ERC1155/ERC1155.sol\":6362:6408  TransferBatch(operator, from, to, ids, values) */\n      0xffffffffffffffffffffffffffffffffffffffff\n      and\n        /* \"@openzeppelin/contracts/token/ERC1155/ERC1155.sol\":6386:6390  from */\n      dup6\n        /* \"@openzeppelin/contracts/token/ERC1155/ERC1155.sol\":6362:6408  TransferBatch(operator, from, to, ids, values) */\n      0xffffffffffffffffffffffffffffffffffffffff\n      and\n        /* \"@openzeppelin/contracts/token/ERC1155/ERC1155.sol\":6376:6384  operator */\n      dup3\n        /* \"@openzeppelin/contracts/token/ERC1155/ERC1155.sol\":6362:6408  TransferBatch(operator, from, to, ids, values) */\n      0xffffffffffffffffffffffffffffffffffffffff\n      and\n      0x4a39dc06d4c0dbc64b70af90fd698a233a518aa5d07e595d983b8c0526c8f7fb\n        /* \"@openzeppelin/contracts/token/ERC1155/ERC1155.sol\":6396:6399  ids */\n      dup7\n        /* \"@openzeppelin/contracts/token/ERC1155/ERC1155.sol\":6401:6407  values */\n      dup7\n        /* \"@openzeppelin/contracts/token/ERC1155/ERC1155.sol\":6362:6408  TransferBatch(operator, from, to, ids, values) */\n      mload(0x40)\n      tag_374\n      swap3\n      swap2\n      swap1\n      tag_375\n      jump\t// in\n    tag_374:\n      mload(0x40)\n      dup1\n      swap2\n      sub\n      swap1\n      log4\n        /* \"@openzeppelin/contracts/token/ERC1155/ERC1155.sol\":6131:6419  if (ids.length == 1) {... */\n    tag_373:\n        /* \"@openzeppelin/contracts/token/ERC1155/ERC1155.sol\":5251:6425  {... */\n      pop\n        /* \"@openzeppelin/contracts/token/ERC1155/ERC1155.sol\":5144:6425  function _update(address from, address to, uint256[] memory ids, uint256[] memory values) internal virtual {... */\n      pop\n      pop\n      pop\n      pop\n      jump\t// out\n        /* \"#utility.yul\":7:82   */\n    tag_376:\n        /* \"#utility.yul\":40:46   */\n      0x00\n        /* \"#utility.yul\":73:75   */\n      0x40\n        /* \"#utility.yul\":67:76   */\n      mload\n        /* \"#utility.yul\":57:76   */\n      swap1\n      pop\n        /* \"#utility.yul\":7:82   */\n      swap1\n      jump\t// out\n        /* \"#utility.yul\":88:205   */\n    tag_377:\n        /* \"#utility.yul\":197:198   */\n      0x00\n        /* \"#utility.yul\":194:195   */\n      dup1\n        /* \"#utility.yul\":187:199   */\n      revert\n        /* \"#utility.yul\":211:328   */\n    tag_378:\n        /* \"#utility.yul\":320:321   */\n      0x00\n        /* \"#utility.yul\":317:318   */\n      dup1\n        /* \"#utility.yul\":310:322   */\n      revert\n        /* \"#utility.yul\":334:460   */\n    tag_379:\n        /* \"#utility.yul\":371:378   */\n      0x00\n        /* \"#utility.yul\":411:453   */\n      0xffffffffffffffffffffffffffffffffffffffff\n        /* \"#utility.yul\":404:409   */\n      dup3\n        /* \"#utility.yul\":400:454   */\n      and\n        /* \"#utility.yul\":389:454   */\n      swap1\n      pop\n        /* \"#utility.yul\":334:460   */\n      swap2\n      swap1\n      pop\n      jump\t// out\n        /* \"#utility.yul\":466:562   */\n    tag_380:\n        /* \"#utility.yul\":503:510   */\n      0x00\n        /* \"#utility.yul\":532:556   */\n      tag_440\n        /* \"#utility.yul\":550:555   */\n      dup3\n        /* \"#utility.yul\":532:556   */\n      tag_379\n      jump\t// in\n    tag_440:\n        /* \"#utility.yul\":521:556   */\n      swap1\n      pop\n        /* \"#utility.yul\":466:562   */\n      swap2\n      swap1\n      pop\n      jump\t// out\n        /* \"#utility.yul\":568:690   */\n    tag_381:\n        /* \"#utility.yul\":641:665   */\n      tag_442\n        /* \"#utility.yul\":659:664   */\n      dup2\n        /* \"#utility.yul\":641:665   */\n      tag_380\n      jump\t// in\n    tag_442:\n        /* \"#utility.yul\":634:639   */\n      dup2\n        /* \"#utility.yul\":631:666   */\n      eq\n        /* \"#utility.yul\":621:684   */\n      tag_443\n      jumpi\n        /* \"#utility.yul\":680:681   */\n      0x00\n        /* \"#utility.yul\":677:678   */\n      dup1\n        /* \"#utility.yul\":670:682   */\n      revert\n        /* \"#utility.yul\":621:684   */\n    tag_443:\n        /* \"#utility.yul\":568:690   */\n      pop\n      jump\t// out\n        /* \"#utility.yul\":696:835   */\n    tag_382:\n        /* \"#utility.yul\":742:747   */\n      0x00\n        /* \"#utility.yul\":780:786   */\n      dup2\n        /* \"#utility.yul\":767:787   */\n      calldataload\n        /* \"#utility.yul\":758:787   */\n      swap1\n      pop\n        /* \"#utility.yul\":796:829   */\n      tag_445\n        /* \"#utility.yul\":823:828   */\n      dup2\n        /* \"#utility.yul\":796:829   */\n      tag_381\n      jump\t// in\n    tag_445:\n        /* \"#utility.yul\":696:835   */\n      swap3\n      swap2\n      pop\n      pop\n      jump\t// out\n        /* \"#utility.yul\":841:918   */\n    tag_383:\n        /* \"#utility.yul\":878:885   */\n      0x00\n        /* \"#utility.yul\":907:912   */\n      dup2\n        /* \"#utility.yul\":896:912   */\n      swap1\n      pop\n        /* \"#utility.yul\":841:918   */\n      swap2\n      swap1\n      pop\n      jump\t// out\n        /* \"#utility.yul\":924:1046   */\n    tag_384:\n        /* \"#utility.yul\":997:1021   */\n      tag_448\n        /* \"#utility.yul\":1015:1020   */\n      dup2\n        /* \"#utility.yul\":997:1021   */\n      tag_383\n      jump\t// in\n    tag_448:\n        /* \"#utility.yul\":990:995   */\n      dup2\n        /* \"#utility.yul\":987:1022   */\n      eq\n        /* \"#utility.yul\":977:1040   */\n      tag_449\n      jumpi\n        /* \"#utility.yul\":1036:1037   */\n      0x00\n        /* \"#utility.yul\":1033:1034   */\n      dup1\n        /* \"#utility.yul\":1026:1038   */\n      revert\n        /* \"#utility.yul\":977:1040   */\n    tag_449:\n        /* \"#utility.yul\":924:1046   */\n      pop\n      jump\t// out\n        /* \"#utility.yul\":1052:1191   */\n    tag_385:\n        /* \"#utility.yul\":1098:1103   */\n      0x00\n        /* \"#utility.yul\":1136:1142   */\n      dup2\n        /* \"#utility.yul\":1123:1143   */\n      calldataload\n        /* \"#utility.yul\":1114:1143   */\n      swap1\n      pop\n        /* \"#utility.yul\":1152:1185   */\n      tag_451\n        /* \"#utility.yul\":1179:1184   */\n      dup2\n        /* \"#utility.yul\":1152:1185   */\n      tag_384\n      jump\t// in\n    tag_451:\n        /* \"#utility.yul\":1052:1191   */\n      swap3\n      swap2\n      pop\n      pop\n      jump\t// out\n        /* \"#utility.yul\":1197:1671   */\n    tag_28:\n        /* \"#utility.yul\":1265:1271   */\n      0x00\n        /* \"#utility.yul\":1273:1279   */\n      dup1\n        /* \"#utility.yul\":1322:1324   */\n      0x40\n        /* \"#utility.yul\":1310:1319   */\n      dup4\n        /* \"#utility.yul\":1301:1308   */\n      dup6\n        /* \"#utility.yul\":1297:1320   */\n      sub\n        /* \"#utility.yul\":1293:1325   */\n      slt\n        /* \"#utility.yul\":1290:1409   */\n      iszero\n      tag_453\n      jumpi\n        /* \"#utility.yul\":1328:1407   */\n      tag_454\n      tag_377\n      jump\t// in\n    tag_454:\n        /* \"#utility.yul\":1290:1409   */\n    tag_453:\n        /* \"#utility.yul\":1448:1449   */\n      0x00\n        /* \"#utility.yul\":1473:1526   */\n      tag_455\n        /* \"#utility.yul\":1518:1525   */\n      dup6\n        /* \"#utility.yul\":1509:1515   */\n      dup3\n        /* \"#utility.yul\":1498:1507   */\n      dup7\n        /* \"#utility.yul\":1494:1516   */\n      add\n        /* \"#utility.yul\":1473:1526   */\n      tag_382\n      jump\t// in\n    tag_455:\n        /* \"#utility.yul\":1463:1526   */\n      swap3\n      pop\n        /* \"#utility.yul\":1419:1536   */\n      pop\n        /* \"#utility.yul\":1575:1577   */\n      0x20\n        /* \"#utility.yul\":1601:1654   */\n      tag_456\n        /* \"#utility.yul\":1646:1653   */\n      dup6\n        /* \"#utility.yul\":1637:1643   */\n      dup3\n        /* \"#utility.yul\":1626:1635   */\n      dup7\n        /* \"#utility.yul\":1622:1644   */\n      add\n        /* \"#utility.yul\":1601:1654   */\n      tag_385\n      jump\t// in\n    tag_456:\n        /* \"#utility.yul\":1591:1654   */\n      swap2\n      pop\n        /* \"#utility.yul\":1546:1664   */\n      pop\n        /* \"#utility.yul\":1197:1671   */\n      swap3\n      pop\n      swap3\n      swap1\n      pop\n      jump\t// out\n        /* \"#utility.yul\":1677:1795   */\n    tag_386:\n        /* \"#utility.yul\":1764:1788   */\n      tag_458\n        /* \"#utility.yul\":1782:1787   */\n      dup2\n        /* \"#utility.yul\":1764:1788   */\n      tag_383\n      jump\t// in\n    tag_458:\n        /* \"#utility.yul\":1759:1762   */\n      dup3\n        /* \"#utility.yul\":1752:1789   */\n      mstore\n        /* \"#utility.yul\":1677:1795   */\n      pop\n      pop\n      jump\t// out\n        /* \"#utility.yul\":1801:2023   */\n    tag_31:\n        /* \"#utility.yul\":1894:1898   */\n      0x00\n        /* \"#utility.yul\":1932:1934   */\n      0x20\n        /* \"#utility.yul\":1921:1930   */\n      dup3\n        /* \"#utility.yul\":1917:1935   */\n      add\n        /* \"#utility.yul\":1909:1935   */\n      swap1\n      pop\n        /* \"#utility.yul\":1945:2016   */\n      tag_460\n        /* \"#utility.yul\":2013:2014   */\n      0x00\n        /* \"#utility.yul\":2002:2011   */\n      dup4\n        /* \"#utility.yul\":1998:2015   */\n      add\n        /* \"#utility.yul\":1989:1995   */\n      dup5\n        /* \"#utility.yul\":1945:2016   */\n      tag_386\n      jump\t// in\n    tag_460:\n        /* \"#utility.yul\":1801:2023   */\n      swap3\n      swap2\n      pop\n      pop\n      jump\t// out\n        /* \"#utility.yul\":2029:2178   */\n    tag_387:\n        /* \"#utility.yul\":2065:2072   */\n      0x00\n        /* \"#utility.yul\":2105:2171   */\n      0xffffffff00000000000000000000000000000000000000000000000000000000\n        /* \"#utility.yul\":2098:2103   */\n      dup3\n        /* \"#utility.yul\":2094:2172   */\n      and\n        /* \"#utility.yul\":2083:2172   */\n      swap1\n      pop\n        /* \"#utility.yul\":2029:2178   */\n      swap2\n      swap1\n      pop\n      jump\t// out\n        /* \"#utility.yul\":2184:2304   */\n    tag_388:\n        /* \"#utility.yul\":2256:2279   */\n      tag_463\n        /* \"#utility.yul\":2273:2278   */\n      dup2\n        /* \"#utility.yul\":2256:2279   */\n      tag_387\n      jump\t// in\n    tag_463:\n        /* \"#utility.yul\":2249:2254   */\n      dup2\n        /* \"#utility.yul\":2246:2280   */\n      eq\n        /* \"#utility.yul\":2236:2298   */\n      tag_464\n      jumpi\n        /* \"#utility.yul\":2294:2295   */\n      0x00\n        /* \"#utility.yul\":2291:2292   */\n      dup1\n        /* \"#utility.yul\":2284:2296   */\n      revert\n        /* \"#utility.yul\":2236:2298   */\n    tag_464:\n        /* \"#utility.yul\":2184:2304   */\n      pop\n      jump\t// out\n        /* \"#utility.yul\":2310:2447   */\n    tag_389:\n        /* \"#utility.yul\":2355:2360   */\n      0x00\n        /* \"#utility.yul\":2393:2399   */\n      dup2\n        /* \"#utility.yul\":2380:2400   */\n      calldataload\n        /* \"#utility.yul\":2371:2400   */\n      swap1\n      pop\n        /* \"#utility.yul\":2409:2441   */\n      tag_466\n        /* \"#utility.yul\":2435:2440   */\n      dup2\n        /* \"#utility.yul\":2409:2441   */\n      tag_388\n      jump\t// in\n    tag_466:\n        /* \"#utility.yul\":2310:2447   */\n      swap3\n      swap2\n      pop\n      pop\n      jump\t// out\n        /* \"#utility.yul\":2453:2780   */\n    tag_34:\n        /* \"#utility.yul\":2511:2517   */\n      0x00\n        /* \"#utility.yul\":2560:2562   */\n      0x20\n        /* \"#utility.yul\":2548:2557   */\n      dup3\n        /* \"#utility.yul\":2539:2546   */\n      dup5\n        /* \"#utility.yul\":2535:2558   */\n      sub\n        /* \"#utility.yul\":2531:2563   */\n      slt\n        /* \"#utility.yul\":2528:2647   */\n      iszero\n      tag_468\n      jumpi\n        /* \"#utility.yul\":2566:2645   */\n      tag_469\n      tag_377\n      jump\t// in\n    tag_469:\n        /* \"#utility.yul\":2528:2647   */\n    tag_468:\n        /* \"#utility.yul\":2686:2687   */\n      0x00\n        /* \"#utility.yul\":2711:2763   */\n      tag_470\n        /* \"#utility.yul\":2755:2762   */\n      dup5\n        /* \"#utility.yul\":2746:2752   */\n      dup3\n        /* \"#utility.yul\":2735:2744   */\n      dup6\n        /* \"#utility.yul\":2731:2753   */\n      add\n        /* \"#utility.yul\":2711:2763   */\n      tag_389\n      jump\t// in\n    tag_470:\n        /* \"#utility.yul\":2701:2763   */\n      swap2\n      pop\n        /* \"#utility.yul\":2657:2773   */\n      pop\n        /* \"#utility.yul\":2453:2780   */\n      swap3\n      swap2\n      pop\n      pop\n      jump\t// out\n        /* \"#utility.yul\":2786:2876   */\n    tag_390:\n        /* \"#utility.yul\":2820:2827   */\n      0x00\n        /* \"#utility.yul\":2863:2868   */\n      dup2\n        /* \"#utility.yul\":2856:2869   */\n      iszero\n        /* \"#utility.yul\":2849:2870   */\n      iszero\n        /* \"#utility.yul\":2838:2870   */\n      swap1\n      pop\n        /* \"#utility.yul\":2786:2876   */\n      swap2\n      swap1\n      pop\n      jump\t// out\n        /* \"#utility.yul\":2882:2991   */\n    tag_391:\n        /* \"#utility.yul\":2963:2984   */\n      tag_473\n        /* \"#utility.yul\":2978:2983   */\n      dup2\n        /* \"#utility.yul\":2963:2984   */\n      tag_390\n      jump\t// in\n    tag_473:\n        /* \"#utility.yul\":2958:2961   */\n      dup3\n        /* \"#utility.yul\":2951:2985   */\n      mstore\n        /* \"#utility.yul\":2882:2991   */\n      pop\n      pop\n      jump\t// out\n        /* \"#utility.yul\":2997:3207   */\n    tag_37:\n        /* \"#utility.yul\":3084:3088   */\n      0x00\n        /* \"#utility.yul\":3122:3124   */\n      0x20\n        /* \"#utility.yul\":3111:3120   */\n      dup3\n        /* \"#utility.yul\":3107:3125   */\n      add\n        /* \"#utility.yul\":3099:3125   */\n      swap1\n      pop\n        /* \"#utility.yul\":3135:3200   */\n      tag_475\n        /* \"#utility.yul\":3197:3198   */\n      0x00\n        /* \"#utility.yul\":3186:3195   */\n      dup4\n        /* \"#utility.yul\":3182:3199   */\n      add\n        /* \"#utility.yul\":3173:3179   */\n      dup5\n        /* \"#utility.yul\":3135:3200   */\n      tag_391\n      jump\t// in\n    tag_475:\n        /* \"#utility.yul\":2997:3207   */\n      swap3\n      swap2\n      pop\n      pop\n      jump\t// out\n        /* \"#utility.yul\":3213:3542   */\n    tag_40:\n        /* \"#utility.yul\":3272:3278   */\n      0x00\n        /* \"#utility.yul\":3321:3323   */\n      0x20\n        /* \"#utility.yul\":3309:3318   */\n      dup3\n        /* \"#utility.yul\":3300:3307   */\n      dup5\n        /* \"#utility.yul\":3296:3319   */\n      sub\n        /* \"#utility.yul\":3292:3324   */\n      slt\n        /* \"#utility.yul\":3289:3408   */\n      iszero\n      tag_477\n      jumpi\n        /* \"#utility.yul\":3327:3406   */\n      tag_478\n      tag_377\n      jump\t// in\n    tag_478:\n        /* \"#utility.yul\":3289:3408   */\n    tag_477:\n        /* \"#utility.yul\":3447:3448   */\n      0x00\n        /* \"#utility.yul\":3472:3525   */\n      tag_479\n        /* \"#utility.yul\":3517:3524   */\n      dup5\n        /* \"#utility.yul\":3508:3514   */\n      dup3\n        /* \"#utility.yul\":3497:3506   */\n      dup6\n        /* \"#utility.yul\":3493:3515   */\n      add\n        /* \"#utility.yul\":3472:3525   */\n      tag_385\n      jump\t// in\n    tag_479:\n        /* \"#utility.yul\":3462:3525   */\n      swap2\n      pop\n        /* \"#utility.yul\":3418:3535   */\n      pop\n        /* \"#utility.yul\":3213:3542   */\n      swap3\n      swap2\n      pop\n      pop\n      jump\t// out\n        /* \"#utility.yul\":3548:3647   */\n    tag_392:\n        /* \"#utility.yul\":3600:3606   */\n      0x00\n        /* \"#utility.yul\":3634:3639   */\n      dup2\n        /* \"#utility.yul\":3628:3640   */\n      mload\n        /* \"#utility.yul\":3618:3640   */\n      swap1\n      pop\n        /* \"#utility.yul\":3548:3647   */\n      swap2\n      swap1\n      pop\n      jump\t// out\n        /* \"#utility.yul\":3653:3822   */\n    tag_393:\n        /* \"#utility.yul\":3737:3748   */\n      0x00\n        /* \"#utility.yul\":3771:3777   */\n      dup3\n        /* \"#utility.yul\":3766:3769   */\n      dup3\n        /* \"#utility.yul\":3759:3778   */\n      mstore\n        /* \"#utility.yul\":3811:3815   */\n      0x20\n        /* \"#utility.yul\":3806:3809   */\n      dup3\n        /* \"#utility.yul\":3802:3816   */\n      add\n        /* \"#utility.yul\":3787:3816   */\n      swap1\n      pop\n        /* \"#utility.yul\":3653:3822   */\n      swap3\n      swap2\n      pop\n      pop\n      jump\t// out\n        /* \"#utility.yul\":3828:4074   */\n    tag_394:\n        /* \"#utility.yul\":3909:3910   */\n      0x00\n        /* \"#utility.yul\":3919:4032   */\n    tag_483:\n        /* \"#utility.yul\":3933:3939   */\n      dup4\n        /* \"#utility.yul\":3930:3931   */\n      dup2\n        /* \"#utility.yul\":3927:3940   */\n      lt\n        /* \"#utility.yul\":3919:4032   */\n      iszero\n      tag_485\n      jumpi\n        /* \"#utility.yul\":4018:4019   */\n      dup1\n        /* \"#utility.yul\":4013:4016   */\n      dup3\n        /* \"#utility.yul\":4009:4020   */\n      add\n        /* \"#utility.yul\":4003:4021   */\n      mload\n        /* \"#utility.yul\":3999:4000   */\n      dup2\n        /* \"#utility.yul\":3994:3997   */\n      dup5\n        /* \"#utility.yul\":3990:4001   */\n      add\n        /* \"#utility.yul\":3983:4022   */\n      mstore\n        /* \"#utility.yul\":3955:3957   */\n      0x20\n        /* \"#utility.yul\":3952:3953   */\n      dup2\n        /* \"#utility.yul\":3948:3958   */\n      add\n        /* \"#utility.yul\":3943:3958   */\n      swap1\n      pop\n        /* \"#utility.yul\":3919:4032   */\n      jump(tag_483)\n    tag_485:\n        /* \"#utility.yul\":4066:4067   */\n      0x00\n        /* \"#utility.yul\":4057:4063   */\n      dup5\n        /* \"#utility.yul\":4052:4055   */\n      dup5\n        /* \"#utility.yul\":4048:4064   */\n      add\n        /* \"#utility.yul\":4041:4068   */\n      mstore\n        /* \"#utility.yul\":3890:4074   */\n      pop\n        /* \"#utility.yul\":3828:4074   */\n      pop\n      pop\n      pop\n      jump\t// out\n        /* \"#utility.yul\":4080:4182   */\n    tag_395:\n        /* \"#utility.yul\":4121:4127   */\n      0x00\n        /* \"#utility.yul\":4172:4174   */\n      0x1f\n        /* \"#utility.yul\":4168:4175   */\n      not\n        /* \"#utility.yul\":4163:4165   */\n      0x1f\n        /* \"#utility.yul\":4156:4161   */\n      dup4\n        /* \"#utility.yul\":4152:4166   */\n      add\n        /* \"#utility.yul\":4148:4176   */\n      and\n        /* \"#utility.yul\":4138:4176   */\n      swap1\n      pop\n        /* \"#utility.yul\":4080:4182   */\n      swap2\n      swap1\n      pop\n      jump\t// out\n        /* \"#utility.yul\":4188:4565   */\n    tag_396:\n        /* \"#utility.yul\":4276:4279   */\n      0x00\n        /* \"#utility.yul\":4304:4343   */\n      tag_488\n        /* \"#utility.yul\":4337:4342   */\n      dup3\n        /* \"#utility.yul\":4304:4343   */\n      tag_392\n      jump\t// in\n    tag_488:\n        /* \"#utility.yul\":4359:4430   */\n      tag_489\n        /* \"#utility.yul\":4423:4429   */\n      dup2\n        /* \"#utility.yul\":4418:4421   */\n      dup6\n        /* \"#utility.yul\":4359:4430   */\n      tag_393\n      jump\t// in\n    tag_489:\n        /* \"#utility.yul\":4352:4430   */\n      swap4\n      pop\n        /* \"#utility.yul\":4439:4504   */\n      tag_490\n        /* \"#utility.yul\":4497:4503   */\n      dup2\n        /* \"#utility.yul\":4492:4495   */\n      dup6\n        /* \"#utility.yul\":4485:4489   */\n      0x20\n        /* \"#utility.yul\":4478:4483   */\n      dup7\n        /* \"#utility.yul\":4474:4490   */\n      add\n        /* \"#utility.yul\":4439:4504   */\n      tag_394\n      jump\t// in\n    tag_490:\n        /* \"#utility.yul\":4529:4558   */\n      tag_491\n        /* \"#utility.yul\":4551:4557   */\n      dup2\n        /* \"#utility.yul\":4529:4558   */\n      tag_395\n      jump\t// in\n    tag_491:\n        /* \"#utility.yul\":4524:4527   */\n      dup5\n        /* \"#utility.yul\":4520:4559   */\n      add\n        /* \"#utility.yul\":4513:4559   */\n      swap2\n      pop\n        /* \"#utility.yul\":4280:4565   */\n      pop\n        /* \"#utility.yul\":4188:4565   */\n      swap3\n      swap2\n      pop\n      pop\n      jump\t// out\n        /* \"#utility.yul\":4571:4884   */\n    tag_43:\n        /* \"#utility.yul\":4684:4688   */\n      0x00\n        /* \"#utility.yul\":4722:4724   */\n      0x20\n        /* \"#utility.yul\":4711:4720   */\n      dup3\n        /* \"#utility.yul\":4707:4725   */\n      add\n        /* \"#utility.yul\":4699:4725   */\n      swap1\n      pop\n        /* \"#utility.yul\":4771:4780   */\n      dup2\n        /* \"#utility.yul\":4765:4769   */\n      dup2\n        /* \"#utility.yul\":4761:4781   */\n      sub\n        /* \"#utility.yul\":4757:4758   */\n      0x00\n        /* \"#utility.yul\":4746:4755   */\n      dup4\n        /* \"#utility.yul\":4742:4759   */\n      add\n        /* \"#utility.yul\":4735:4782   */\n      mstore\n        /* \"#utility.yul\":4799:4877   */\n      tag_493\n        /* \"#utility.yul\":4872:4876   */\n      dup2\n        /* \"#utility.yul\":4863:4869   */\n      dup5\n        /* \"#utility.yul\":4799:4877   */\n      tag_396\n      jump\t// in\n    tag_493:\n        /* \"#utility.yul\":4791:4877   */\n      swap1\n      pop\n        /* \"#utility.yul\":4571:4884   */\n      swap3\n      swap2\n      pop\n      pop\n      jump\t// out\n        /* \"#utility.yul\":4890:5007   */\n    tag_397:\n        /* \"#utility.yul\":4999:5000   */\n      0x00\n        /* \"#utility.yul\":4996:4997   */\n      dup1\n        /* \"#utility.yul\":4989:5001   */\n      revert\n        /* \"#utility.yul\":5013:5193   */\n    tag_149:\n        /* \"#utility.yul\":5061:5138   */\n      0x4e487b7100000000000000000000000000000000000000000000000000000000\n        /* \"#utility.yul\":5058:5059   */\n      0x00\n        /* \"#utility.yul\":5051:5139   */\n      mstore\n        /* \"#utility.yul\":5158:5162   */\n      0x41\n        /* \"#utility.yul\":5155:5156   */\n      0x04\n        /* \"#utility.yul\":5148:5163   */\n      mstore\n        /* \"#utility.yul\":5182:5186   */\n      0x24\n        /* \"#utility.yul\":5179:5180   */\n      0x00\n        /* \"#utility.yul\":5172:5187   */\n      revert\n        /* \"#utility.yul\":5199:5480   */\n    tag_398:\n        /* \"#utility.yul\":5282:5309   */\n      tag_497\n        /* \"#utility.yul\":5304:5308   */\n      dup3\n        /* \"#utility.yul\":5282:5309   */\n      tag_395\n      jump\t// in\n    tag_497:\n        /* \"#utility.yul\":5274:5280   */\n      dup2\n        /* \"#utility.yul\":5270:5310   */\n      add\n        /* \"#utility.yul\":5412:5418   */\n      dup2\n        /* \"#utility.yul\":5400:5410   */\n      dup2\n        /* \"#utility.yul\":5397:5419   */\n      lt\n        /* \"#utility.yul\":5376:5394   */\n      0xffffffffffffffff\n        /* \"#utility.yul\":5364:5374   */\n      dup3\n        /* \"#utility.yul\":5361:5395   */\n      gt\n        /* \"#utility.yul\":5358:5420   */\n      or\n        /* \"#utility.yul\":5355:5443   */\n      iszero\n      tag_498\n      jumpi\n        /* \"#utility.yul\":5423:5441   */\n      tag_499\n      tag_149\n      jump\t// in\n    tag_499:\n        /* \"#utility.yul\":5355:5443   */\n    tag_498:\n        /* \"#utility.yul\":5463:5473   */\n      dup1\n        /* \"#utility.yul\":5459:5461   */\n      0x40\n        /* \"#utility.yul\":5452:5474   */\n      mstore\n        /* \"#utility.yul\":5242:5480   */\n      pop\n        /* \"#utility.yul\":5199:5480   */\n      pop\n      pop\n      jump\t// out\n        /* \"#utility.yul\":5486:5615   */\n    tag_399:\n        /* \"#utility.yul\":5520:5526   */\n      0x00\n        /* \"#utility.yul\":5547:5567   */\n      tag_501\n      tag_376\n      jump\t// in\n    tag_501:\n        /* \"#utility.yul\":5537:5567   */\n      swap1\n      pop\n        /* \"#utility.yul\":5576:5609   */\n      tag_502\n        /* \"#utility.yul\":5604:5608   */\n      dup3\n        /* \"#utility.yul\":5596:5602   */\n      dup3\n        /* \"#utility.yul\":5576:5609   */\n      tag_398\n      jump\t// in\n    tag_502:\n        /* \"#utility.yul\":5486:5615   */\n      swap2\n      swap1\n      pop\n      jump\t// out\n        /* \"#utility.yul\":5621:5932   */\n    tag_400:\n        /* \"#utility.yul\":5698:5702   */\n      0x00\n        /* \"#utility.yul\":5788:5806   */\n      0xffffffffffffffff\n        /* \"#utility.yul\":5780:5786   */\n      dup3\n        /* \"#utility.yul\":5777:5807   */\n      gt\n        /* \"#utility.yul\":5774:5830   */\n      iszero\n      tag_504\n      jumpi\n        /* \"#utility.yul\":5810:5828   */\n      tag_505\n      tag_149\n      jump\t// in\n    tag_505:\n        /* \"#utility.yul\":5774:5830   */\n    tag_504:\n        /* \"#utility.yul\":5860:5864   */\n      0x20\n        /* \"#utility.yul\":5852:5858   */\n      dup3\n        /* \"#utility.yul\":5848:5865   */\n      mul\n        /* \"#utility.yul\":5840:5865   */\n      swap1\n      pop\n        /* \"#utility.yul\":5920:5924   */\n      0x20\n        /* \"#utility.yul\":5914:5918   */\n      dup2\n        /* \"#utility.yul\":5910:5925   */\n      add\n        /* \"#utility.yul\":5902:5925   */\n      swap1\n      pop\n        /* \"#utility.yul\":5621:5932   */\n      swap2\n      swap1\n      pop\n      jump\t// out\n        /* \"#utility.yul\":5938:6055   */\n    tag_401:\n        /* \"#utility.yul\":6047:6048   */\n      0x00\n        /* \"#utility.yul\":6044:6045   */\n      dup1\n        /* \"#utility.yul\":6037:6049   */\n      revert\n        /* \"#utility.yul\":6078:6788   */\n    tag_402:\n        /* \"#utility.yul\":6174:6179   */\n      0x00\n        /* \"#utility.yul\":6199:6280   */\n      tag_508\n        /* \"#utility.yul\":6215:6279   */\n      tag_509\n        /* \"#utility.yul\":6272:6278   */\n      dup5\n        /* \"#utility.yul\":6215:6279   */\n      tag_400\n      jump\t// in\n    tag_509:\n        /* \"#utility.yul\":6199:6280   */\n      tag_399\n      jump\t// in\n    tag_508:\n        /* \"#utility.yul\":6190:6280   */\n      swap1\n      pop\n        /* \"#utility.yul\":6300:6305   */\n      dup1\n        /* \"#utility.yul\":6329:6335   */\n      dup4\n        /* \"#utility.yul\":6322:6327   */\n      dup3\n        /* \"#utility.yul\":6315:6336   */\n      mstore\n        /* \"#utility.yul\":6363:6367   */\n      0x20\n        /* \"#utility.yul\":6356:6361   */\n      dup3\n        /* \"#utility.yul\":6352:6368   */\n      add\n        /* \"#utility.yul\":6345:6368   */\n      swap1\n      pop\n        /* \"#utility.yul\":6416:6420   */\n      0x20\n        /* \"#utility.yul\":6408:6414   */\n      dup5\n        /* \"#utility.yul\":6404:6421   */\n      mul\n        /* \"#utility.yul\":6396:6402   */\n      dup4\n        /* \"#utility.yul\":6392:6422   */\n      add\n        /* \"#utility.yul\":6445:6448   */\n      dup6\n        /* \"#utility.yul\":6437:6443   */\n      dup2\n        /* \"#utility.yul\":6434:6449   */\n      gt\n        /* \"#utility.yul\":6431:6553   */\n      iszero\n      tag_510\n      jumpi\n        /* \"#utility.yul\":6464:6543   */\n      tag_511\n      tag_401\n      jump\t// in\n    tag_511:\n        /* \"#utility.yul\":6431:6553   */\n    tag_510:\n        /* \"#utility.yul\":6579:6585   */\n      dup4\n        /* \"#utility.yul\":6562:6782   */\n    tag_512:\n        /* \"#utility.yul\":6596:6602   */\n      dup2\n        /* \"#utility.yul\":6591:6594   */\n      dup2\n        /* \"#utility.yul\":6588:6603   */\n      lt\n        /* \"#utility.yul\":6562:6782   */\n      iszero\n      tag_514\n      jumpi\n        /* \"#utility.yul\":6671:6674   */\n      dup1\n        /* \"#utility.yul\":6700:6737   */\n      tag_515\n        /* \"#utility.yul\":6733:6736   */\n      dup9\n        /* \"#utility.yul\":6721:6731   */\n      dup3\n        /* \"#utility.yul\":6700:6737   */\n      tag_385\n      jump\t// in\n    tag_515:\n        /* \"#utility.yul\":6695:6698   */\n      dup5\n        /* \"#utility.yul\":6688:6738   */\n      mstore\n        /* \"#utility.yul\":6767:6771   */\n      0x20\n        /* \"#utility.yul\":6762:6765   */\n      dup5\n        /* \"#utility.yul\":6758:6772   */\n      add\n        /* \"#utility.yul\":6751:6772   */\n      swap4\n      pop\n        /* \"#utility.yul\":6638:6782   */\n      pop\n        /* \"#utility.yul\":6622:6626   */\n      0x20\n        /* \"#utility.yul\":6617:6620   */\n      dup2\n        /* \"#utility.yul\":6613:6627   */\n      add\n        /* \"#utility.yul\":6606:6627   */\n      swap1\n      pop\n        /* \"#utility.yul\":6562:6782   */\n      jump(tag_512)\n    tag_514:\n        /* \"#utility.yul\":6566:6587   */\n      pop\n        /* \"#utility.yul\":6180:6788   */\n      pop\n      pop\n        /* \"#utility.yul\":6078:6788   */\n      swap4\n      swap3\n      pop\n      pop\n      pop\n      jump\t// out\n        /* \"#utility.yul\":6811:7181   */\n    tag_403:\n        /* \"#utility.yul\":6882:6887   */\n      0x00\n        /* \"#utility.yul\":6931:6934   */\n      dup3\n        /* \"#utility.yul\":6924:6928   */\n      0x1f\n        /* \"#utility.yul\":6916:6922   */\n      dup4\n        /* \"#utility.yul\":6912:6929   */\n      add\n        /* \"#utility.yul\":6908:6935   */\n      slt\n        /* \"#utility.yul\":6898:7020   */\n      tag_517\n      jumpi\n        /* \"#utility.yul\":6939:7018   */\n      tag_518\n      tag_397\n      jump\t// in\n    tag_518:\n        /* \"#utility.yul\":6898:7020   */\n    tag_517:\n        /* \"#utility.yul\":7056:7062   */\n      dup2\n        /* \"#utility.yul\":7043:7063   */\n      calldataload\n        /* \"#utility.yul\":7081:7175   */\n      tag_519\n        /* \"#utility.yul\":7171:7174   */\n      dup5\n        /* \"#utility.yul\":7163:7169   */\n      dup3\n        /* \"#utility.yul\":7156:7160   */\n      0x20\n        /* \"#utility.yul\":7148:7154   */\n      dup7\n        /* \"#utility.yul\":7144:7161   */\n      add\n        /* \"#utility.yul\":7081:7175   */\n      tag_402\n      jump\t// in\n    tag_519:\n        /* \"#utility.yul\":7072:7175   */\n      swap2\n      pop\n        /* \"#utility.yul\":6888:7181   */\n      pop\n        /* \"#utility.yul\":6811:7181   */\n      swap3\n      swap2\n      pop\n      pop\n      jump\t// out\n        /* \"#utility.yul\":7187:7304   */\n    tag_404:\n        /* \"#utility.yul\":7296:7297   */\n      0x00\n        /* \"#utility.yul\":7293:7294   */\n      dup1\n        /* \"#utility.yul\":7286:7298   */\n      revert\n        /* \"#utility.yul\":7310:7617   */\n    tag_405:\n        /* \"#utility.yul\":7371:7375   */\n      0x00\n        /* \"#utility.yul\":7461:7479   */\n      0xffffffffffffffff\n        /* \"#utility.yul\":7453:7459   */\n      dup3\n        /* \"#utility.yul\":7450:7480   */\n      gt\n        /* \"#utility.yul\":7447:7503   */\n      iszero\n      tag_522\n      jumpi\n        /* \"#utility.yul\":7483:7501   */\n      tag_523\n      tag_149\n      jump\t// in\n    tag_523:\n        /* \"#utility.yul\":7447:7503   */\n    tag_522:\n        /* \"#utility.yul\":7521:7550   */\n      tag_524\n        /* \"#utility.yul\":7543:7549   */\n      dup3\n        /* \"#utility.yul\":7521:7550   */\n      tag_395\n      jump\t// in\n    tag_524:\n        /* \"#utility.yul\":7513:7550   */\n      swap1\n      pop\n        /* \"#utility.yul\":7605:7609   */\n      0x20\n        /* \"#utility.yul\":7599:7603   */\n      dup2\n        /* \"#utility.yul\":7595:7610   */\n      add\n        /* \"#utility.yul\":7587:7610   */\n      swap1\n      pop\n        /* \"#utility.yul\":7310:7617   */\n      swap2\n      swap1\n      pop\n      jump\t// out\n        /* \"#utility.yul\":7623:7769   */\n    tag_406:\n        /* \"#utility.yul\":7720:7726   */\n      dup3\n        /* \"#utility.yul\":7715:7718   */\n      dup2\n        /* \"#utility.yul\":7710:7713   */\n      dup4\n        /* \"#utility.yul\":7697:7727   */\n      calldatacopy\n        /* \"#utility.yul\":7761:7762   */\n      0x00\n        /* \"#utility.yul\":7752:7758   */\n      dup4\n        /* \"#utility.yul\":7747:7750   */\n      dup4\n        /* \"#utility.yul\":7743:7759   */\n      add\n        /* \"#utility.yul\":7736:7763   */\n      mstore\n        /* \"#utility.yul\":7623:7769   */\n      pop\n      pop\n      pop\n      jump\t// out\n        /* \"#utility.yul\":7775:8198   */\n    tag_407:\n        /* \"#utility.yul\":7852:7857   */\n      0x00\n        /* \"#utility.yul\":7877:7942   */\n      tag_527\n        /* \"#utility.yul\":7893:7941   */\n      tag_528\n        /* \"#utility.yul\":7934:7940   */\n      dup5\n        /* \"#utility.yul\":7893:7941   */\n      tag_405\n      jump\t// in\n    tag_528:\n        /* \"#utility.yul\":7877:7942   */\n      tag_399\n      jump\t// in\n    tag_527:\n        /* \"#utility.yul\":7868:7942   */\n      swap1\n      pop\n        /* \"#utility.yul\":7965:7971   */\n      dup3\n        /* \"#utility.yul\":7958:7963   */\n      dup2\n        /* \"#utility.yul\":7951:7972   */\n      mstore\n        /* \"#utility.yul\":8003:8007   */\n      0x20\n        /* \"#utility.yul\":7996:8001   */\n      dup2\n        /* \"#utility.yul\":7992:8008   */\n      add\n        /* \"#utility.yul\":8041:8044   */\n      dup5\n        /* \"#utility.yul\":8032:8038   */\n      dup5\n        /* \"#utility.yul\":8027:8030   */\n      dup5\n        /* \"#utility.yul\":8023:8039   */\n      add\n        /* \"#utility.yul\":8020:8045   */\n      gt\n        /* \"#utility.yul\":8017:8129   */\n      iszero\n      tag_529\n      jumpi\n        /* \"#utility.yul\":8048:8127   */\n      tag_530\n      tag_404\n      jump\t// in\n    tag_530:\n        /* \"#utility.yul\":8017:8129   */\n    tag_529:\n        /* \"#utility.yul\":8138:8192   */\n      tag_531\n        /* \"#utility.yul\":8185:8191   */\n      dup5\n        /* \"#utility.yul\":8180:8183   */\n      dup3\n        /* \"#utility.yul\":8175:8178   */\n      dup6\n        /* \"#utility.yul\":8138:8192   */\n      tag_406\n      jump\t// in\n    tag_531:\n        /* \"#utility.yul\":7858:8198   */\n      pop\n        /* \"#utility.yul\":7775:8198   */\n      swap4\n      swap3\n      pop\n      pop\n      pop\n      jump\t// out\n        /* \"#utility.yul\":8217:8555   */\n    tag_408:\n        /* \"#utility.yul\":8272:8277   */\n      0x00\n        /* \"#utility.yul\":8321:8324   */\n      dup3\n        /* \"#utility.yul\":8314:8318   */\n      0x1f\n        /* \"#utility.yul\":8306:8312   */\n      dup4\n        /* \"#utility.yul\":8302:8319   */\n      add\n        /* \"#utility.yul\":8298:8325   */\n      slt\n        /* \"#utility.yul\":8288:8410   */\n      tag_533\n      jumpi\n        /* \"#utility.yul\":8329:8408   */\n      tag_534\n      tag_397\n      jump\t// in\n    tag_534:\n        /* \"#utility.yul\":8288:8410   */\n    tag_533:\n        /* \"#utility.yul\":8446:8452   */\n      dup2\n        /* \"#utility.yul\":8433:8453   */\n      calldataload\n        /* \"#utility.yul\":8471:8549   */\n      tag_535\n        /* \"#utility.yul\":8545:8548   */\n      dup5\n        /* \"#utility.yul\":8537:8543   */\n      dup3\n        /* \"#utility.yul\":8530:8534   */\n      0x20\n        /* \"#utility.yul\":8522:8528   */\n      dup7\n        /* \"#utility.yul\":8518:8535   */\n      add\n        /* \"#utility.yul\":8471:8549   */\n      tag_407\n      jump\t// in\n    tag_535:\n        /* \"#utility.yul\":8462:8549   */\n      swap2\n      pop\n        /* \"#utility.yul\":8278:8555   */\n      pop\n        /* \"#utility.yul\":8217:8555   */\n      swap3\n      swap2\n      pop\n      pop\n      jump\t// out\n        /* \"#utility.yul\":8561:9924   */\n    tag_49:\n        /* \"#utility.yul\":8706:8712   */\n      0x00\n        /* \"#utility.yul\":8714:8720   */\n      dup1\n        /* \"#utility.yul\":8722:8728   */\n      0x00\n        /* \"#utility.yul\":8730:8736   */\n      dup1\n        /* \"#utility.yul\":8779:8782   */\n      0x80\n        /* \"#utility.yul\":8767:8776   */\n      dup6\n        /* \"#utility.yul\":8758:8765   */\n      dup8\n        /* \"#utility.yul\":8754:8777   */\n      sub\n        /* \"#utility.yul\":8750:8783   */\n      slt\n        /* \"#utility.yul\":8747:8867   */\n      iszero\n      tag_537\n      jumpi\n        /* \"#utility.yul\":8786:8865   */\n      tag_538\n      tag_377\n      jump\t// in\n    tag_538:\n        /* \"#utility.yul\":8747:8867   */\n    tag_537:\n        /* \"#utility.yul\":8906:8907   */\n      0x00\n        /* \"#utility.yul\":8931:8984   */\n      tag_539\n        /* \"#utility.yul\":8976:8983   */\n      dup8\n        /* \"#utility.yul\":8967:8973   */\n      dup3\n        /* \"#utility.yul\":8956:8965   */\n      dup9\n        /* \"#utility.yul\":8952:8974   */\n      add\n        /* \"#utility.yul\":8931:8984   */\n      tag_382\n      jump\t// in\n    tag_539:\n        /* \"#utility.yul\":8921:8984   */\n      swap5\n      pop\n        /* \"#utility.yul\":8877:8994   */\n      pop\n        /* \"#utility.yul\":9061:9063   */\n      0x20\n        /* \"#utility.yul\":9050:9059   */\n      dup6\n        /* \"#utility.yul\":9046:9064   */\n      add\n        /* \"#utility.yul\":9033:9065   */\n      calldataload\n        /* \"#utility.yul\":9092:9110   */\n      0xffffffffffffffff\n        /* \"#utility.yul\":9084:9090   */\n      dup2\n        /* \"#utility.yul\":9081:9111   */\n      gt\n        /* \"#utility.yul\":9078:9195   */\n      iszero\n      tag_540\n      jumpi\n        /* \"#utility.yul\":9114:9193   */\n      tag_541\n      tag_378\n      jump\t// in\n    tag_541:\n        /* \"#utility.yul\":9078:9195   */\n    tag_540:\n        /* \"#utility.yul\":9219:9297   */\n      tag_542\n        /* \"#utility.yul\":9289:9296   */\n      dup8\n        /* \"#utility.yul\":9280:9286   */\n      dup3\n        /* \"#utility.yul\":9269:9278   */\n      dup9\n        /* \"#utility.yul\":9265:9287   */\n      add\n        /* \"#utility.yul\":9219:9297   */\n      tag_403\n      jump\t// in\n    tag_542:\n        /* \"#utility.yul\":9209:9297   */\n      swap4\n      pop\n        /* \"#utility.yul\":9004:9307   */\n      pop\n        /* \"#utility.yul\":9374:9376   */\n      0x40\n        /* \"#utility.yul\":9363:9372   */\n      dup6\n        /* \"#utility.yul\":9359:9377   */\n      add\n        /* \"#utility.yul\":9346:9378   */\n      calldataload\n        /* \"#utility.yul\":9405:9423   */\n      0xffffffffffffffff\n        /* \"#utility.yul\":9397:9403   */\n      dup2\n        /* \"#utility.yul\":9394:9424   */\n      gt\n        /* \"#utility.yul\":9391:9508   */\n      iszero\n      tag_543\n      jumpi\n        /* \"#utility.yul\":9427:9506   */\n      tag_544\n      tag_378\n      jump\t// in\n    tag_544:\n        /* \"#utility.yul\":9391:9508   */\n    tag_543:\n        /* \"#utility.yul\":9532:9610   */\n      tag_545\n        /* \"#utility.yul\":9602:9609   */\n      dup8\n        /* \"#utility.yul\":9593:9599   */\n      dup3\n        /* \"#utility.yul\":9582:9591   */\n      dup9\n        /* \"#utility.yul\":9578:9600   */\n      add\n        /* \"#utility.yul\":9532:9610   */\n      tag_403\n      jump\t// in\n    tag_545:\n        /* \"#utility.yul\":9522:9610   */\n      swap3\n      pop\n        /* \"#utility.yul\":9317:9620   */\n      pop\n        /* \"#utility.yul\":9687:9689   */\n      0x60\n        /* \"#utility.yul\":9676:9685   */\n      dup6\n        /* \"#utility.yul\":9672:9690   */\n      add\n        /* \"#utility.yul\":9659:9691   */\n      calldataload\n        /* \"#utility.yul\":9718:9736   */\n      0xffffffffffffffff\n        /* \"#utility.yul\":9710:9716   */\n      dup2\n        /* \"#utility.yul\":9707:9737   */\n      gt\n        /* \"#utility.yul\":9704:9821   */\n      iszero\n      tag_546\n      jumpi\n        /* \"#utility.yul\":9740:9819   */\n      tag_547\n      tag_378\n      jump\t// in\n    tag_547:\n        /* \"#utility.yul\":9704:9821   */\n    tag_546:\n        /* \"#utility.yul\":9845:9907   */\n      tag_548\n        /* \"#utility.yul\":9899:9906   */\n      dup8\n        /* \"#utility.yul\":9890:9896   */\n      dup3\n        /* \"#utility.yul\":9879:9888   */\n      dup9\n        /* \"#utility.yul\":9875:9897   */\n      add\n        /* \"#utility.yul\":9845:9907   */\n      tag_408\n      jump\t// in\n    tag_548:\n        /* \"#utility.yul\":9835:9907   */\n      swap2\n      pop\n        /* \"#utility.yul\":9630:9917   */\n      pop\n        /* \"#utility.yul\":8561:9924   */\n      swap3\n      swap6\n      swap2\n      swap5\n      pop\n      swap3\n      pop\n      jump\t// out\n        /* \"#utility.yul\":9930:11439   */\n    tag_53:\n        /* \"#utility.yul\":10084:10090   */\n      0x00\n        /* \"#utility.yul\":10092:10098   */\n      dup1\n        /* \"#utility.yul\":10100:10106   */\n      0x00\n        /* \"#utility.yul\":10108:10114   */\n      dup1\n        /* \"#utility.yul\":10116:10122   */\n      0x00\n        /* \"#utility.yul\":10165:10168   */\n      0xa0\n        /* \"#utility.yul\":10153:10162   */\n      dup7\n        /* \"#utility.yul\":10144:10151   */\n      dup9\n        /* \"#utility.yul\":10140:10163   */\n      sub\n        /* \"#utility.yul\":10136:10169   */\n      slt\n        /* \"#utility.yul\":10133:10253   */\n      iszero\n      tag_550\n      jumpi\n        /* \"#utility.yul\":10172:10251   */\n      tag_551\n      tag_377\n      jump\t// in\n    tag_551:\n        /* \"#utility.yul\":10133:10253   */\n    tag_550:\n        /* \"#utility.yul\":10292:10293   */\n      0x00\n        /* \"#utility.yul\":10317:10370   */\n      tag_552\n        /* \"#utility.yul\":10362:10369   */\n      dup9\n        /* \"#utility.yul\":10353:10359   */\n      dup3\n        /* \"#utility.yul\":10342:10351   */\n      dup10\n        /* \"#utility.yul\":10338:10360   */\n      add\n        /* \"#utility.yul\":10317:10370   */\n      tag_382\n      jump\t// in\n    tag_552:\n        /* \"#utility.yul\":10307:10370   */\n      swap6\n      pop\n        /* \"#utility.yul\":10263:10380   */\n      pop\n        /* \"#utility.yul\":10419:10421   */\n      0x20\n        /* \"#utility.yul\":10445:10498   */\n      tag_553\n        /* \"#utility.yul\":10490:10497   */\n      dup9\n        /* \"#utility.yul\":10481:10487   */\n      dup3\n        /* \"#utility.yul\":10470:10479   */\n      dup10\n        /* \"#utility.yul\":10466:10488   */\n      add\n        /* \"#utility.yul\":10445:10498   */\n      tag_382\n      jump\t// in\n    tag_553:\n        /* \"#utility.yul\":10435:10498   */\n      swap5\n      pop\n        /* \"#utility.yul\":10390:10508   */\n      pop\n        /* \"#utility.yul\":10575:10577   */\n      0x40\n        /* \"#utility.yul\":10564:10573   */\n      dup7\n        /* \"#utility.yul\":10560:10578   */\n      add\n        /* \"#utility.yul\":10547:10579   */\n      calldataload\n        /* \"#utility.yul\":10606:10624   */\n      0xffffffffffffffff\n        /* \"#utility.yul\":10598:10604   */\n      dup2\n        /* \"#utility.yul\":10595:10625   */\n      gt\n        /* \"#utility.yul\":10592:10709   */\n      iszero\n      tag_554\n      jumpi\n        /* \"#utility.yul\":10628:10707   */\n      tag_555\n      tag_378\n      jump\t// in\n    tag_555:\n        /* \"#utility.yul\":10592:10709   */\n    tag_554:\n        /* \"#utility.yul\":10733:10811   */\n      tag_556\n        /* \"#utility.yul\":10803:10810   */\n      dup9\n        /* \"#utility.yul\":10794:10800   */\n      dup3\n        /* \"#utility.yul\":10783:10792   */\n      dup10\n        /* \"#utility.yul\":10779:10801   */\n      add\n        /* \"#utility.yul\":10733:10811   */\n      tag_403\n      jump\t// in\n    tag_556:\n        /* \"#utility.yul\":10723:10811   */\n      swap4\n      pop\n        /* \"#utility.yul\":10518:10821   */\n      pop\n        /* \"#utility.yul\":10888:10890   */\n      0x60\n        /* \"#utility.yul\":10877:10886   */\n      dup7\n        /* \"#utility.yul\":10873:10891   */\n      add\n        /* \"#utility.yul\":10860:10892   */\n      calldataload\n        /* \"#utility.yul\":10919:10937   */\n      0xffffffffffffffff\n        /* \"#utility.yul\":10911:10917   */\n      dup2\n        /* \"#utility.yul\":10908:10938   */\n      gt\n        /* \"#utility.yul\":10905:11022   */\n      iszero\n      tag_557\n      jumpi\n        /* \"#utility.yul\":10941:11020   */\n      tag_558\n      tag_378\n      jump\t// in\n    tag_558:\n        /* \"#utility.yul\":10905:11022   */\n    tag_557:\n        /* \"#utility.yul\":11046:11124   */\n      tag_559\n        /* \"#utility.yul\":11116:11123   */\n      dup9\n        /* \"#utility.yul\":11107:11113   */\n      dup3\n        /* \"#utility.yul\":11096:11105   */\n      dup10\n        /* \"#utility.yul\":11092:11114   */\n      add\n        /* \"#utility.yul\":11046:11124   */\n      tag_403\n      jump\t// in\n    tag_559:\n        /* \"#utility.yul\":11036:11124   */\n      swap3\n      pop\n        /* \"#utility.yul\":10831:11134   */\n      pop\n        /* \"#utility.yul\":11201:11204   */\n      0x80\n        /* \"#utility.yul\":11190:11199   */\n      dup7\n        /* \"#utility.yul\":11186:11205   */\n      add\n        /* \"#utility.yul\":11173:11206   */\n      calldataload\n        /* \"#utility.yul\":11233:11251   */\n      0xffffffffffffffff\n        /* \"#utility.yul\":11225:11231   */\n      dup2\n        /* \"#utility.yul\":11222:11252   */\n      gt\n        /* \"#utility.yul\":11219:11336   */\n      iszero\n      tag_560\n      jumpi\n        /* \"#utility.yul\":11255:11334   */\n      tag_561\n      tag_378\n      jump\t// in\n    tag_561:\n        /* \"#utility.yul\":11219:11336   */\n    tag_560:\n        /* \"#utility.yul\":11360:11422   */\n      tag_562\n        /* \"#utility.yul\":11414:11421   */\n      dup9\n        /* \"#utility.yul\":11405:11411   */\n      dup3\n        /* \"#utility.yul\":11394:11403   */\n      dup10\n        /* \"#utility.yul\":11390:11412   */\n      add\n        /* \"#utility.yul\":11360:11422   */\n      tag_408\n      jump\t// in\n    tag_562:\n        /* \"#utility.yul\":11350:11422   */\n      swap2\n      pop\n        /* \"#utility.yul\":11144:11432   */\n      pop\n        /* \"#utility.yul\":9930:11439   */\n      swap3\n      swap6\n      pop\n      swap3\n      swap6\n      swap1\n      swap4\n      pop\n      jump\t// out\n        /* \"#utility.yul\":11445:11756   */\n    tag_409:\n        /* \"#utility.yul\":11522:11526   */\n      0x00\n        /* \"#utility.yul\":11612:11630   */\n      0xffffffffffffffff\n        /* \"#utility.yul\":11604:11610   */\n      dup3\n        /* \"#utility.yul\":11601:11631   */\n      gt\n        /* \"#utility.yul\":11598:11654   */\n      iszero\n      tag_564\n      jumpi\n        /* \"#utility.yul\":11634:11652   */\n      tag_565\n      tag_149\n      jump\t// in\n    tag_565:\n        /* \"#utility.yul\":11598:11654   */\n    tag_564:\n        /* \"#utility.yul\":11684:11688   */\n      0x20\n        /* \"#utility.yul\":11676:11682   */\n      dup3\n        /* \"#utility.yul\":11672:11689   */\n      mul\n        /* \"#utility.yul\":11664:11689   */\n      swap1\n      pop\n        /* \"#utility.yul\":11744:11748   */\n      0x20\n        /* \"#utility.yul\":11738:11742   */\n      dup2\n        /* \"#utility.yul\":11734:11749   */\n      add\n        /* \"#utility.yul\":11726:11749   */\n      swap1\n      pop\n        /* \"#utility.yul\":11445:11756   */\n      swap2\n      swap1\n      pop\n      jump\t// out\n        /* \"#utility.yul\":11779:12489   */\n    tag_410:\n        /* \"#utility.yul\":11875:11880   */\n      0x00\n        /* \"#utility.yul\":11900:11981   */\n      tag_567\n        /* \"#utility.yul\":11916:11980   */\n      tag_568\n        /* \"#utility.yul\":11973:11979   */\n      dup5\n        /* \"#utility.yul\":11916:11980   */\n      tag_409\n      jump\t// in\n    tag_568:\n        /* \"#utility.yul\":11900:11981   */\n      tag_399\n      jump\t// in\n    tag_567:\n        /* \"#utility.yul\":11891:11981   */\n      swap1\n      pop\n        /* \"#utility.yul\":12001:12006   */\n      dup1\n        /* \"#utility.yul\":12030:12036   */\n      dup4\n        /* \"#utility.yul\":12023:12028   */\n      dup3\n        /* \"#utility.yul\":12016:12037   */\n      mstore\n        /* \"#utility.yul\":12064:12068   */\n      0x20\n        /* \"#utility.yul\":12057:12062   */\n      dup3\n        /* \"#utility.yul\":12053:12069   */\n      add\n        /* \"#utility.yul\":12046:12069   */\n      swap1\n      pop\n        /* \"#utility.yul\":12117:12121   */\n      0x20\n        /* \"#utility.yul\":12109:12115   */\n      dup5\n        /* \"#utility.yul\":12105:12122   */\n      mul\n        /* \"#utility.yul\":12097:12103   */\n      dup4\n        /* \"#utility.yul\":12093:12123   */\n      add\n        /* \"#utility.yul\":12146:12149   */\n      dup6\n        /* \"#utility.yul\":12138:12144   */\n      dup2\n        /* \"#utility.yul\":12135:12150   */\n      gt\n        /* \"#utility.yul\":12132:12254   */\n      iszero\n      tag_569\n      jumpi\n        /* \"#utility.yul\":12165:12244   */\n      tag_570\n      tag_401\n      jump\t// in\n    tag_570:\n        /* \"#utility.yul\":12132:12254   */\n    tag_569:\n        /* \"#utility.yul\":12280:12286   */\n      dup4\n        /* \"#utility.yul\":12263:12483   */\n    tag_571:\n        /* \"#utility.yul\":12297:12303   */\n      dup2\n        /* \"#utility.yul\":12292:12295   */\n      dup2\n        /* \"#utility.yul\":12289:12304   */\n      lt\n        /* \"#utility.yul\":12263:12483   */\n      iszero\n      tag_573\n      jumpi\n        /* \"#utility.yul\":12372:12375   */\n      dup1\n        /* \"#utility.yul\":12401:12438   */\n      tag_574\n        /* \"#utility.yul\":12434:12437   */\n      dup9\n        /* \"#utility.yul\":12422:12432   */\n      dup3\n        /* \"#utility.yul\":12401:12438   */\n      tag_382\n      jump\t// in\n    tag_574:\n        /* \"#utility.yul\":12396:12399   */\n      dup5\n        /* \"#utility.yul\":12389:12439   */\n      mstore\n        /* \"#utility.yul\":12468:12472   */\n      0x20\n        /* \"#utility.yul\":12463:12466   */\n      dup5\n        /* \"#utility.yul\":12459:12473   */\n      add\n        /* \"#utility.yul\":12452:12473   */\n      swap4\n      pop\n        /* \"#utility.yul\":12339:12483   */\n      pop\n        /* \"#utility.yul\":12323:12327   */\n      0x20\n        /* \"#utility.yul\":12318:12321   */\n      dup2\n        /* \"#utility.yul\":12314:12328   */\n      add\n        /* \"#utility.yul\":12307:12328   */\n      swap1\n      pop\n        /* \"#utility.yul\":12263:12483   */\n      jump(tag_571)\n    tag_573:\n        /* \"#utility.yul\":12267:12288   */\n      pop\n        /* \"#utility.yul\":11881:12489   */\n      pop\n      pop\n        /* \"#utility.yul\":11779:12489   */\n      swap4\n      swap3\n      pop\n      pop\n      pop\n      jump\t// out\n        /* \"#utility.yul\":12512:12882   */\n    tag_411:\n        /* \"#utility.yul\":12583:12588   */\n      0x00\n        /* \"#utility.yul\":12632:12635   */\n      dup3\n        /* \"#utility.yul\":12625:12629   */\n      0x1f\n        /* \"#utility.yul\":12617:12623   */\n      dup4\n        /* \"#utility.yul\":12613:12630   */\n      add\n        /* \"#utility.yul\":12609:12636   */\n      slt\n        /* \"#utility.yul\":12599:12721   */\n      tag_576\n      jumpi\n        /* \"#utility.yul\":12640:12719   */\n      tag_577\n      tag_397\n      jump\t// in\n    tag_577:\n        /* \"#utility.yul\":12599:12721   */\n    tag_576:\n        /* \"#utility.yul\":12757:12763   */\n      dup2\n        /* \"#utility.yul\":12744:12764   */\n      calldataload\n        /* \"#utility.yul\":12782:12876   */\n      tag_578\n        /* \"#utility.yul\":12872:12875   */\n      dup5\n        /* \"#utility.yul\":12864:12870   */\n      dup3\n        /* \"#utility.yul\":12857:12861   */\n      0x20\n        /* \"#utility.yul\":12849:12855   */\n      dup7\n        /* \"#utility.yul\":12845:12862   */\n      add\n        /* \"#utility.yul\":12782:12876   */\n      tag_410\n      jump\t// in\n    tag_578:\n        /* \"#utility.yul\":12773:12876   */\n      swap2\n      pop\n        /* \"#utility.yul\":12589:12882   */\n      pop\n        /* \"#utility.yul\":12512:12882   */\n      swap3\n      swap2\n      pop\n      pop\n      jump\t// out\n        /* \"#utility.yul\":12888:13782   */\n    tag_57:\n        /* \"#utility.yul\":13006:13012   */\n      0x00\n        /* \"#utility.yul\":13014:13020   */\n      dup1\n        /* \"#utility.yul\":13063:13065   */\n      0x40\n        /* \"#utility.yul\":13051:13060   */\n      dup4\n        /* \"#utility.yul\":13042:13049   */\n      dup6\n        /* \"#utility.yul\":13038:13061   */\n      sub\n        /* \"#utility.yul\":13034:13066   */\n      slt\n        /* \"#utility.yul\":13031:13150   */\n      iszero\n      tag_580\n      jumpi\n        /* \"#utility.yul\":13069:13148   */\n      tag_581\n      tag_377\n      jump\t// in\n    tag_581:\n        /* \"#utility.yul\":13031:13150   */\n    tag_580:\n        /* \"#utility.yul\":13217:13218   */\n      0x00\n        /* \"#utility.yul\":13206:13215   */\n      dup4\n        /* \"#utility.yul\":13202:13219   */\n      add\n        /* \"#utility.yul\":13189:13220   */\n      calldataload\n        /* \"#utility.yul\":13247:13265   */\n      0xffffffffffffffff\n        /* \"#utility.yul\":13239:13245   */\n      dup2\n        /* \"#utility.yul\":13236:13266   */\n      gt\n        /* \"#utility.yul\":13233:13350   */\n      iszero\n      tag_582\n      jumpi\n        /* \"#utility.yul\":13269:13348   */\n      tag_583\n      tag_378\n      jump\t// in\n    tag_583:\n        /* \"#utility.yul\":13233:13350   */\n    tag_582:\n        /* \"#utility.yul\":13374:13452   */\n      tag_584\n        /* \"#utility.yul\":13444:13451   */\n      dup6\n        /* \"#utility.yul\":13435:13441   */\n      dup3\n        /* \"#utility.yul\":13424:13433   */\n      dup7\n        /* \"#utility.yul\":13420:13442   */\n      add\n        /* \"#utility.yul\":13374:13452   */\n      tag_411\n      jump\t// in\n    tag_584:\n        /* \"#utility.yul\":13364:13452   */\n      swap3\n      pop\n        /* \"#utility.yul\":13160:13462   */\n      pop\n        /* \"#utility.yul\":13529:13531   */\n      0x20\n        /* \"#utility.yul\":13518:13527   */\n      dup4\n        /* \"#utility.yul\":13514:13532   */\n      add\n        /* \"#utility.yul\":13501:13533   */\n      calldataload\n        /* \"#utility.yul\":13560:13578   */\n      0xffffffffffffffff\n        /* \"#utility.yul\":13552:13558   */\n      dup2\n        /* \"#utility.yul\":13549:13579   */\n      gt\n        /* \"#utility.yul\":13546:13663   */\n      iszero\n      tag_585\n      jumpi\n        /* \"#utility.yul\":13582:13661   */\n      tag_586\n      tag_378\n      jump\t// in\n    tag_586:\n        /* \"#utility.yul\":13546:13663   */\n    tag_585:\n        /* \"#utility.yul\":13687:13765   */\n      tag_587\n        /* \"#utility.yul\":13757:13764   */\n      dup6\n        /* \"#utility.yul\":13748:13754   */\n      dup3\n        /* \"#utility.yul\":13737:13746   */\n      dup7\n        /* \"#utility.yul\":13733:13755   */\n      add\n        /* \"#utility.yul\":13687:13765   */\n      tag_403\n      jump\t// in\n    tag_587:\n        /* \"#utility.yul\":13677:13765   */\n      swap2\n      pop\n        /* \"#utility.yul\":13472:13775   */\n      pop\n        /* \"#utility.yul\":12888:13782   */\n      swap3\n      pop\n      swap3\n      swap1\n      pop\n      jump\t// out\n        /* \"#utility.yul\":13788:13902   */\n    tag_412:\n        /* \"#utility.yul\":13855:13861   */\n      0x00\n        /* \"#utility.yul\":13889:13894   */\n      dup2\n        /* \"#utility.yul\":13883:13895   */\n      mload\n        /* \"#utility.yul\":13873:13895   */\n      swap1\n      pop\n        /* \"#utility.yul\":13788:13902   */\n      swap2\n      swap1\n      pop\n      jump\t// out\n        /* \"#utility.yul\":13908:14092   */\n    tag_413:\n        /* \"#utility.yul\":14007:14018   */\n      0x00\n        /* \"#utility.yul\":14041:14047   */\n      dup3\n        /* \"#utility.yul\":14036:14039   */\n      dup3\n        /* \"#utility.yul\":14029:14048   */\n      mstore\n        /* \"#utility.yul\":14081:14085   */\n      0x20\n        /* \"#utility.yul\":14076:14079   */\n      dup3\n        /* \"#utility.yul\":14072:14086   */\n      add\n        /* \"#utility.yul\":14057:14086   */\n      swap1\n      pop\n        /* \"#utility.yul\":13908:14092   */\n      swap3\n      swap2\n      pop\n      pop\n      jump\t// out\n        /* \"#utility.yul\":14098:14230   */\n    tag_414:\n        /* \"#utility.yul\":14165:14169   */\n      0x00\n        /* \"#utility.yul\":14188:14191   */\n      dup2\n        /* \"#utility.yul\":14180:14191   */\n      swap1\n      pop\n        /* \"#utility.yul\":14218:14222   */\n      0x20\n        /* \"#utility.yul\":14213:14216   */\n      dup3\n        /* \"#utility.yul\":14209:14223   */\n      add\n        /* \"#utility.yul\":14201:14223   */\n      swap1\n      pop\n        /* \"#utility.yul\":14098:14230   */\n      swap2\n      swap1\n      pop\n      jump\t// out\n        /* \"#utility.yul\":14236:14344   */\n    tag_415:\n        /* \"#utility.yul\":14313:14337   */\n      tag_592\n        /* \"#utility.yul\":14331:14336   */\n      dup2\n        /* \"#utility.yul\":14313:14337   */\n      tag_383\n      jump\t// in\n    tag_592:\n        /* \"#utility.yul\":14308:14311   */\n      dup3\n        /* \"#utility.yul\":14301:14338   */\n      mstore\n        /* \"#utility.yul\":14236:14344   */\n      pop\n      pop\n      jump\t// out\n        /* \"#utility.yul\":14350:14529   */\n    tag_416:\n        /* \"#utility.yul\":14419:14429   */\n      0x00\n        /* \"#utility.yul\":14440:14486   */\n      tag_594\n        /* \"#utility.yul\":14482:14485   */\n      dup4\n        /* \"#utility.yul\":14474:14480   */\n      dup4\n        /* \"#utility.yul\":14440:14486   */\n      tag_415\n      jump\t// in\n    tag_594:\n        /* \"#utility.yul\":14518:14522   */\n      0x20\n        /* \"#utility.yul\":14513:14516   */\n      dup4\n        /* \"#utility.yul\":14509:14523   */\n      add\n        /* \"#utility.yul\":14495:14523   */\n      swap1\n      pop\n        /* \"#utility.yul\":14350:14529   */\n      swap3\n      swap2\n      pop\n      pop\n      jump\t// out\n        /* \"#utility.yul\":14535:14648   */\n    tag_417:\n        /* \"#utility.yul\":14605:14609   */\n      0x00\n        /* \"#utility.yul\":14637:14641   */\n      0x20\n        /* \"#utility.yul\":14632:14635   */\n      dup3\n        /* \"#utility.yul\":14628:14642   */\n      add\n        /* \"#utility.yul\":14620:14642   */\n      swap1\n      pop\n        /* \"#utility.yul\":14535:14648   */\n      swap2\n      swap1\n      pop\n      jump\t// out\n        /* \"#utility.yul\":14684:15416   */\n    tag_418:\n        /* \"#utility.yul\":14803:14806   */\n      0x00\n        /* \"#utility.yul\":14832:14886   */\n      tag_597\n        /* \"#utility.yul\":14880:14885   */\n      dup3\n        /* \"#utility.yul\":14832:14886   */\n      tag_412\n      jump\t// in\n    tag_597:\n        /* \"#utility.yul\":14902:14988   */\n      tag_598\n        /* \"#utility.yul\":14981:14987   */\n      dup2\n        /* \"#utility.yul\":14976:14979   */\n      dup6\n        /* \"#utility.yul\":14902:14988   */\n      tag_413\n      jump\t// in\n    tag_598:\n        /* \"#utility.yul\":14895:14988   */\n      swap4\n      pop\n        /* \"#utility.yul\":15012:15068   */\n      tag_599\n        /* \"#utility.yul\":15062:15067   */\n      dup4\n        /* \"#utility.yul\":15012:15068   */\n      tag_414\n      jump\t// in\n    tag_599:\n        /* \"#utility.yul\":15091:15098   */\n      dup1\n        /* \"#utility.yul\":15122:15123   */\n      0x00\n        /* \"#utility.yul\":15107:15391   */\n    tag_600:\n        /* \"#utility.yul\":15132:15138   */\n      dup4\n        /* \"#utility.yul\":15129:15130   */\n      dup2\n        /* \"#utility.yul\":15126:15139   */\n      lt\n        /* \"#utility.yul\":15107:15391   */\n      iszero\n      tag_602\n      jumpi\n        /* \"#utility.yul\":15208:15214   */\n      dup2\n        /* \"#utility.yul\":15202:15215   */\n      mload\n        /* \"#utility.yul\":15235:15298   */\n      tag_603\n        /* \"#utility.yul\":15294:15297   */\n      dup9\n        /* \"#utility.yul\":15279:15292   */\n      dup3\n        /* \"#utility.yul\":15235:15298   */\n      tag_416\n      jump\t// in\n    tag_603:\n        /* \"#utility.yul\":15228:15298   */\n      swap8\n      pop\n        /* \"#utility.yul\":15321:15381   */\n      tag_604\n        /* \"#utility.yul\":15374:15380   */\n      dup4\n        /* \"#utility.yul\":15321:15381   */\n      tag_417\n      jump\t// in\n    tag_604:\n        /* \"#utility.yul\":15311:15381   */\n      swap3\n      pop\n        /* \"#utility.yul\":15167:15391   */\n      pop\n        /* \"#utility.yul\":15154:15155   */\n      0x01\n        /* \"#utility.yul\":15151:15152   */\n      dup2\n        /* \"#utility.yul\":15147:15156   */\n      add\n        /* \"#utility.yul\":15142:15156   */\n      swap1\n      pop\n        /* \"#utility.yul\":15107:15391   */\n      jump(tag_600)\n    tag_602:\n        /* \"#utility.yul\":15111:15125   */\n      pop\n        /* \"#utility.yul\":15407:15410   */\n      dup6\n        /* \"#utility.yul\":15400:15410   */\n      swap4\n      pop\n        /* \"#utility.yul\":14808:15416   */\n      pop\n      pop\n      pop\n        /* \"#utility.yul\":14684:15416   */\n      swap3\n      swap2\n      pop\n      pop\n      jump\t// out\n        /* \"#utility.yul\":15422:15795   */\n    tag_60:\n        /* \"#utility.yul\":15565:15569   */\n      0x00\n        /* \"#utility.yul\":15603:15605   */\n      0x20\n        /* \"#utility.yul\":15592:15601   */\n      dup3\n        /* \"#utility.yul\":15588:15606   */\n      add\n        /* \"#utility.yul\":15580:15606   */\n      swap1\n      pop\n        /* \"#utility.yul\":15652:15661   */\n      dup2\n        /* \"#utility.yul\":15646:15650   */\n      dup2\n        /* \"#utility.yul\":15642:15662   */\n      sub\n        /* \"#utility.yul\":15638:15639   */\n      0x00\n        /* \"#utility.yul\":15627:15636   */\n      dup4\n        /* \"#utility.yul\":15623:15640   */\n      add\n        /* \"#utility.yul\":15616:15663   */\n      mstore\n        /* \"#utility.yul\":15680:15788   */\n      tag_606\n        /* \"#utility.yul\":15783:15787   */\n      dup2\n        /* \"#utility.yul\":15774:15780   */\n      dup5\n        /* \"#utility.yul\":15680:15788   */\n      tag_418\n      jump\t// in\n    tag_606:\n        /* \"#utility.yul\":15672:15788   */\n      swap1\n      pop\n        /* \"#utility.yul\":15422:15795   */\n      swap3\n      swap2\n      pop\n      pop\n      jump\t// out\n        /* \"#utility.yul\":15801:16840   */\n    tag_67:\n        /* \"#utility.yul\":15928:15934   */\n      0x00\n        /* \"#utility.yul\":15936:15942   */\n      dup1\n        /* \"#utility.yul\":15944:15950   */\n      0x00\n        /* \"#utility.yul\":15993:15995   */\n      0x60\n        /* \"#utility.yul\":15981:15990   */\n      dup5\n        /* \"#utility.yul\":15972:15979   */\n      dup7\n        /* \"#utility.yul\":15968:15991   */\n      sub\n        /* \"#utility.yul\":15964:15996   */\n      slt\n        /* \"#utility.yul\":15961:16080   */\n      iszero\n      tag_608\n      jumpi\n        /* \"#utility.yul\":15999:16078   */\n      tag_609\n      tag_377\n      jump\t// in\n    tag_609:\n        /* \"#utility.yul\":15961:16080   */\n    tag_608:\n        /* \"#utility.yul\":16119:16120   */\n      0x00\n        /* \"#utility.yul\":16144:16197   */\n      tag_610\n        /* \"#utility.yul\":16189:16196   */\n      dup7\n        /* \"#utility.yul\":16180:16186   */\n      dup3\n        /* \"#utility.yul\":16169:16178   */\n      dup8\n        /* \"#utility.yul\":16165:16187   */\n      add\n        /* \"#utility.yul\":16144:16197   */\n      tag_382\n      jump\t// in\n    tag_610:\n        /* \"#utility.yul\":16134:16197   */\n      swap4\n      pop\n        /* \"#utility.yul\":16090:16207   */\n      pop\n        /* \"#utility.yul\":16274:16276   */\n      0x20\n        /* \"#utility.yul\":16263:16272   */\n      dup5\n        /* \"#utility.yul\":16259:16277   */\n      add\n        /* \"#utility.yul\":16246:16278   */\n      calldataload\n        /* \"#utility.yul\":16305:16323   */\n      0xffffffffffffffff\n        /* \"#utility.yul\":16297:16303   */\n      dup2\n        /* \"#utility.yul\":16294:16324   */\n      gt\n        /* \"#utility.yul\":16291:16408   */\n      iszero\n      tag_611\n      jumpi\n        /* \"#utility.yul\":16327:16406   */\n      tag_612\n      tag_378\n      jump\t// in\n    tag_612:\n        /* \"#utility.yul\":16291:16408   */\n    tag_611:\n        /* \"#utility.yul\":16432:16510   */\n      tag_613\n        /* \"#utility.yul\":16502:16509   */\n      dup7\n        /* \"#utility.yul\":16493:16499   */\n      dup3\n        /* \"#utility.yul\":16482:16491   */\n      dup8\n        /* \"#utility.yul\":16478:16500   */\n      add\n        /* \"#utility.yul\":16432:16510   */\n      tag_403\n      jump\t// in\n    tag_613:\n        /* \"#utility.yul\":16422:16510   */\n      swap3\n      pop\n        /* \"#utility.yul\":16217:16520   */\n      pop\n        /* \"#utility.yul\":16587:16589   */\n      0x40\n        /* \"#utility.yul\":16576:16585   */\n      dup5\n        /* \"#utility.yul\":16572:16590   */\n      add\n        /* \"#utility.yul\":16559:16591   */\n      calldataload\n        /* \"#utility.yul\":16618:16636   */\n      0xffffffffffffffff\n        /* \"#utility.yul\":16610:16616   */\n      dup2\n        /* \"#utility.yul\":16607:16637   */\n      gt\n        /* \"#utility.yul\":16604:16721   */\n      iszero\n      tag_614\n      jumpi\n        /* \"#utility.yul\":16640:16719   */\n      tag_615\n      tag_378\n      jump\t// in\n    tag_615:\n        /* \"#utility.yul\":16604:16721   */\n    tag_614:\n        /* \"#utility.yul\":16745:16823   */\n      tag_616\n        /* \"#utility.yul\":16815:16822   */\n      dup7\n        /* \"#utility.yul\":16806:16812   */\n      dup3\n        /* \"#utility.yul\":16795:16804   */\n      dup8\n        /* \"#utility.yul\":16791:16813   */\n      add\n        /* \"#utility.yul\":16745:16823   */\n      tag_403\n      jump\t// in\n    tag_616:\n        /* \"#utility.yul\":16735:16823   */\n      swap2\n      pop\n        /* \"#utility.yul\":16530:16833   */\n      pop\n        /* \"#utility.yul\":15801:16840   */\n      swap3\n      pop\n      swap3\n      pop\n      swap3\n      jump\t// out\n        /* \"#utility.yul\":16846:17175   */\n    tag_71:\n        /* \"#utility.yul\":16905:16911   */\n      0x00\n        /* \"#utility.yul\":16954:16956   */\n      0x20\n        /* \"#utility.yul\":16942:16951   */\n      dup3\n        /* \"#utility.yul\":16933:16940   */\n      dup5\n        /* \"#utility.yul\":16929:16952   */\n      sub\n        /* \"#utility.yul\":16925:16957   */\n      slt\n        /* \"#utility.yul\":16922:17041   */\n      iszero\n      tag_618\n      jumpi\n        /* \"#utility.yul\":16960:17039   */\n      tag_619\n      tag_377\n      jump\t// in\n    tag_619:\n        /* \"#utility.yul\":16922:17041   */\n    tag_618:\n        /* \"#utility.yul\":17080:17081   */\n      0x00\n        /* \"#utility.yul\":17105:17158   */\n      tag_620\n        /* \"#utility.yul\":17150:17157   */\n      dup5\n        /* \"#utility.yul\":17141:17147   */\n      dup3\n        /* \"#utility.yul\":17130:17139   */\n      dup6\n        /* \"#utility.yul\":17126:17148   */\n      add\n        /* \"#utility.yul\":17105:17158   */\n      tag_382\n      jump\t// in\n    tag_620:\n        /* \"#utility.yul\":17095:17158   */\n      swap2\n      pop\n        /* \"#utility.yul\":17051:17168   */\n      pop\n        /* \"#utility.yul\":16846:17175   */\n      swap3\n      swap2\n      pop\n      pop\n      jump\t// out\n        /* \"#utility.yul\":17181:18124   */\n    tag_77:\n        /* \"#utility.yul\":17276:17282   */\n      0x00\n        /* \"#utility.yul\":17284:17290   */\n      dup1\n        /* \"#utility.yul\":17292:17298   */\n      0x00\n        /* \"#utility.yul\":17300:17306   */\n      dup1\n        /* \"#utility.yul\":17349:17352   */\n      0x80\n        /* \"#utility.yul\":17337:17346   */\n      dup6\n        /* \"#utility.yul\":17328:17335   */\n      dup8\n        /* \"#utility.yul\":17324:17347   */\n      sub\n        /* \"#utility.yul\":17320:17353   */\n      slt\n        /* \"#utility.yul\":17317:17437   */\n      iszero\n      tag_622\n      jumpi\n        /* \"#utility.yul\":17356:17435   */\n      tag_623\n      tag_377\n      jump\t// in\n    tag_623:\n        /* \"#utility.yul\":17317:17437   */\n    tag_622:\n        /* \"#utility.yul\":17476:17477   */\n      0x00\n        /* \"#utility.yul\":17501:17554   */\n      tag_624\n        /* \"#utility.yul\":17546:17553   */\n      dup8\n        /* \"#utility.yul\":17537:17543   */\n      dup3\n        /* \"#utility.yul\":17526:17535   */\n      dup9\n        /* \"#utility.yul\":17522:17544   */\n      add\n        /* \"#utility.yul\":17501:17554   */\n      tag_382\n      jump\t// in\n    tag_624:\n        /* \"#utility.yul\":17491:17554   */\n      swap5\n      pop\n        /* \"#utility.yul\":17447:17564   */\n      pop\n        /* \"#utility.yul\":17603:17605   */\n      0x20\n        /* \"#utility.yul\":17629:17682   */\n      tag_625\n        /* \"#utility.yul\":17674:17681   */\n      dup8\n        /* \"#utility.yul\":17665:17671   */\n      dup3\n        /* \"#utility.yul\":17654:17663   */\n      dup9\n        /* \"#utility.yul\":17650:17672   */\n      add\n        /* \"#utility.yul\":17629:17682   */\n      tag_385\n      jump\t// in\n    tag_625:\n        /* \"#utility.yul\":17619:17682   */\n      swap4\n      pop\n        /* \"#utility.yul\":17574:17692   */\n      pop\n        /* \"#utility.yul\":17731:17733   */\n      0x40\n        /* \"#utility.yul\":17757:17810   */\n      tag_626\n        /* \"#utility.yul\":17802:17809   */\n      dup8\n        /* \"#utility.yul\":17793:17799   */\n      dup3\n        /* \"#utility.yul\":17782:17791   */\n      dup9\n        /* \"#utility.yul\":17778:17800   */\n      add\n        /* \"#utility.yul\":17757:17810   */\n      tag_385\n      jump\t// in\n    tag_626:\n        /* \"#utility.yul\":17747:17810   */\n      swap3\n      pop\n        /* \"#utility.yul\":17702:17820   */\n      pop\n        /* \"#utility.yul\":17887:17889   */\n      0x60\n        /* \"#utility.yul\":17876:17885   */\n      dup6\n        /* \"#utility.yul\":17872:17890   */\n      add\n        /* \"#utility.yul\":17859:17891   */\n      calldataload\n        /* \"#utility.yul\":17918:17936   */\n      0xffffffffffffffff\n        /* \"#utility.yul\":17910:17916   */\n      dup2\n        /* \"#utility.yul\":17907:17937   */\n      gt\n        /* \"#utility.yul\":17904:18021   */\n      iszero\n      tag_627\n      jumpi\n        /* \"#utility.yul\":17940:18019   */\n      tag_628\n      tag_378\n      jump\t// in\n    tag_628:\n        /* \"#utility.yul\":17904:18021   */\n    tag_627:\n        /* \"#utility.yul\":18045:18107   */\n      tag_629\n        /* \"#utility.yul\":18099:18106   */\n      dup8\n        /* \"#utility.yul\":18090:18096   */\n      dup3\n        /* \"#utility.yul\":18079:18088   */\n      dup9\n        /* \"#utility.yul\":18075:18097   */\n      add\n        /* \"#utility.yul\":18045:18107   */\n      tag_408\n      jump\t// in\n    tag_629:\n        /* \"#utility.yul\":18035:18107   */\n      swap2\n      pop\n        /* \"#utility.yul\":17830:18117   */\n      pop\n        /* \"#utility.yul\":17181:18124   */\n      swap3\n      swap6\n      swap2\n      swap5\n      pop\n      swap3\n      pop\n      jump\t// out\n        /* \"#utility.yul\":18130:18248   */\n    tag_419:\n        /* \"#utility.yul\":18217:18241   */\n      tag_631\n        /* \"#utility.yul\":18235:18240   */\n      dup2\n        /* \"#utility.yul\":18217:18241   */\n      tag_380\n      jump\t// in\n    tag_631:\n        /* \"#utility.yul\":18212:18215   */\n      dup3\n        /* \"#utility.yul\":18205:18242   */\n      mstore\n        /* \"#utility.yul\":18130:18248   */\n      pop\n      pop\n      jump\t// out\n        /* \"#utility.yul\":18254:18476   */\n    tag_82:\n        /* \"#utility.yul\":18347:18351   */\n      0x00\n        /* \"#utility.yul\":18385:18387   */\n      0x20\n        /* \"#utility.yul\":18374:18383   */\n      dup3\n        /* \"#utility.yul\":18370:18388   */\n      add\n        /* \"#utility.yul\":18362:18388   */\n      swap1\n      pop\n        /* \"#utility.yul\":18398:18469   */\n      tag_633\n        /* \"#utility.yul\":18466:18467   */\n      0x00\n        /* \"#utility.yul\":18455:18464   */\n      dup4\n        /* \"#utility.yul\":18451:18468   */\n      add\n        /* \"#utility.yul\":18442:18448   */\n      dup5\n        /* \"#utility.yul\":18398:18469   */\n      tag_419\n      jump\t// in\n    tag_633:\n        /* \"#utility.yul\":18254:18476   */\n      swap3\n      swap2\n      pop\n      pop\n      jump\t// out\n        /* \"#utility.yul\":18482:18598   */\n    tag_420:\n        /* \"#utility.yul\":18552:18573   */\n      tag_635\n        /* \"#utility.yul\":18567:18572   */\n      dup2\n        /* \"#utility.yul\":18552:18573   */\n      tag_390\n      jump\t// in\n    tag_635:\n        /* \"#utility.yul\":18545:18550   */\n      dup2\n        /* \"#utility.yul\":18542:18574   */\n      eq\n        /* \"#utility.yul\":18532:18592   */\n      tag_636\n      jumpi\n        /* \"#utility.yul\":18588:18589   */\n      0x00\n        /* \"#utility.yul\":18585:18586   */\n      dup1\n        /* \"#utility.yul\":18578:18590   */\n      revert\n        /* \"#utility.yul\":18532:18592   */\n    tag_636:\n        /* \"#utility.yul\":18482:18598   */\n      pop\n      jump\t// out\n        /* \"#utility.yul\":18604:18737   */\n    tag_421:\n        /* \"#utility.yul\":18647:18652   */\n      0x00\n        /* \"#utility.yul\":18685:18691   */\n      dup2\n        /* \"#utility.yul\":18672:18692   */\n      calldataload\n        /* \"#utility.yul\":18663:18692   */\n      swap1\n      pop\n        /* \"#utility.yul\":18701:18731   */\n      tag_638\n        /* \"#utility.yul\":18725:18730   */\n      dup2\n        /* \"#utility.yul\":18701:18731   */\n      tag_420\n      jump\t// in\n    tag_638:\n        /* \"#utility.yul\":18604:18737   */\n      swap3\n      swap2\n      pop\n      pop\n      jump\t// out\n        /* \"#utility.yul\":18743:19211   */\n    tag_88:\n        /* \"#utility.yul\":18808:18814   */\n      0x00\n        /* \"#utility.yul\":18816:18822   */\n      dup1\n        /* \"#utility.yul\":18865:18867   */\n      0x40\n        /* \"#utility.yul\":18853:18862   */\n      dup4\n        /* \"#utility.yul\":18844:18851   */\n      dup6\n        /* \"#utility.yul\":18840:18863   */\n      sub\n        /* \"#utility.yul\":18836:18868   */\n      slt\n        /* \"#utility.yul\":18833:18952   */\n      iszero\n      tag_640\n      jumpi\n        /* \"#utility.yul\":18871:18950   */\n      tag_641\n      tag_377\n      jump\t// in\n    tag_641:\n        /* \"#utility.yul\":18833:18952   */\n    tag_640:\n        /* \"#utility.yul\":18991:18992   */\n      0x00\n        /* \"#utility.yul\":19016:19069   */\n      tag_642\n        /* \"#utility.yul\":19061:19068   */\n      dup6\n        /* \"#utility.yul\":19052:19058   */\n      dup3\n        /* \"#utility.yul\":19041:19050   */\n      dup7\n        /* \"#utility.yul\":19037:19059   */\n      add\n        /* \"#utility.yul\":19016:19069   */\n      tag_382\n      jump\t// in\n    tag_642:\n        /* \"#utility.yul\":19006:19069   */\n      swap3\n      pop\n        /* \"#utility.yul\":18962:19079   */\n      pop\n        /* \"#utility.yul\":19118:19120   */\n      0x20\n        /* \"#utility.yul\":19144:19194   */\n      tag_643\n        /* \"#utility.yul\":19186:19193   */\n      dup6\n        /* \"#utility.yul\":19177:19183   */\n      dup3\n        /* \"#utility.yul\":19166:19175   */\n      dup7\n        /* \"#utility.yul\":19162:19184   */\n      add\n        /* \"#utility.yul\":19144:19194   */\n      tag_421\n      jump\t// in\n    tag_643:\n        /* \"#utility.yul\":19134:19194   */\n      swap2\n      pop\n        /* \"#utility.yul\":19089:19204   */\n      pop\n        /* \"#utility.yul\":18743:19211   */\n      swap3\n      pop\n      swap3\n      swap1\n      pop\n      jump\t// out\n        /* \"#utility.yul\":19217:19691   */\n    tag_96:\n        /* \"#utility.yul\":19285:19291   */\n      0x00\n        /* \"#utility.yul\":19293:19299   */\n      dup1\n        /* \"#utility.yul\":19342:19344   */\n      0x40\n        /* \"#utility.yul\":19330:19339   */\n      dup4\n        /* \"#utility.yul\":19321:19328   */\n      dup6\n        /* \"#utility.yul\":19317:19340   */\n      sub\n        /* \"#utility.yul\":19313:19345   */\n      slt\n        /* \"#utility.yul\":19310:19429   */\n      iszero\n      tag_645\n      jumpi\n        /* \"#utility.yul\":19348:19427   */\n      tag_646\n      tag_377\n      jump\t// in\n    tag_646:\n        /* \"#utility.yul\":19310:19429   */\n    tag_645:\n        /* \"#utility.yul\":19468:19469   */\n      0x00\n        /* \"#utility.yul\":19493:19546   */\n      tag_647\n        /* \"#utility.yul\":19538:19545   */\n      dup6\n        /* \"#utility.yul\":19529:19535   */\n      dup3\n        /* \"#utility.yul\":19518:19527   */\n      dup7\n        /* \"#utility.yul\":19514:19536   */\n      add\n        /* \"#utility.yul\":19493:19546   */\n      tag_382\n      jump\t// in\n    tag_647:\n        /* \"#utility.yul\":19483:19546   */\n      swap3\n      pop\n        /* \"#utility.yul\":19439:19556   */\n      pop\n        /* \"#utility.yul\":19595:19597   */\n      0x20\n        /* \"#utility.yul\":19621:19674   */\n      tag_648\n        /* \"#utility.yul\":19666:19673   */\n      dup6\n        /* \"#utility.yul\":19657:19663   */\n      dup3\n        /* \"#utility.yul\":19646:19655   */\n      dup7\n        /* \"#utility.yul\":19642:19664   */\n      add\n        /* \"#utility.yul\":19621:19674   */\n      tag_382\n      jump\t// in\n    tag_648:\n        /* \"#utility.yul\":19611:19674   */\n      swap2\n      pop\n        /* \"#utility.yul\":19566:19684   */\n      pop\n        /* \"#utility.yul\":19217:19691   */\n      swap3\n      pop\n      swap3\n      swap1\n      pop\n      jump\t// out\n        /* \"#utility.yul\":19697:20786   */\n    tag_101:\n        /* \"#utility.yul\":19801:19807   */\n      0x00\n        /* \"#utility.yul\":19809:19815   */\n      dup1\n        /* \"#utility.yul\":19817:19823   */\n      0x00\n        /* \"#utility.yul\":19825:19831   */\n      dup1\n        /* \"#utility.yul\":19833:19839   */\n      0x00\n        /* \"#utility.yul\":19882:19885   */\n      0xa0\n        /* \"#utility.yul\":19870:19879   */\n      dup7\n        /* \"#utility.yul\":19861:19868   */\n      dup9\n        /* \"#utility.yul\":19857:19880   */\n      sub\n        /* \"#utility.yul\":19853:19886   */\n      slt\n        /* \"#utility.yul\":19850:19970   */\n      iszero\n      tag_650\n      jumpi\n        /* \"#utility.yul\":19889:19968   */\n      tag_651\n      tag_377\n      jump\t// in\n    tag_651:\n        /* \"#utility.yul\":19850:19970   */\n    tag_650:\n        /* \"#utility.yul\":20009:20010   */\n      0x00\n        /* \"#utility.yul\":20034:20087   */\n      tag_652\n        /* \"#utility.yul\":20079:20086   */\n      dup9\n        /* \"#utility.yul\":20070:20076   */\n      dup3\n        /* \"#utility.yul\":20059:20068   */\n      dup10\n        /* \"#utility.yul\":20055:20077   */\n      add\n        /* \"#utility.yul\":20034:20087   */\n      tag_382\n      jump\t// in\n    tag_652:\n        /* \"#utility.yul\":20024:20087   */\n      swap6\n      pop\n        /* \"#utility.yul\":19980:20097   */\n      pop\n        /* \"#utility.yul\":20136:20138   */\n      0x20\n        /* \"#utility.yul\":20162:20215   */\n      tag_653\n        /* \"#utility.yul\":20207:20214   */\n      dup9\n        /* \"#utility.yul\":20198:20204   */\n      dup3\n        /* \"#utility.yul\":20187:20196   */\n      dup10\n        /* \"#utility.yul\":20183:20205   */\n      add\n        /* \"#utility.yul\":20162:20215   */\n      tag_382\n      jump\t// in\n    tag_653:\n        /* \"#utility.yul\":20152:20215   */\n      swap5\n      pop\n        /* \"#utility.yul\":20107:20225   */\n      pop\n        /* \"#utility.yul\":20264:20266   */\n      0x40\n        /* \"#utility.yul\":20290:20343   */\n      tag_654\n        /* \"#utility.yul\":20335:20342   */\n      dup9\n        /* \"#utility.yul\":20326:20332   */\n      dup3\n        /* \"#utility.yul\":20315:20324   */\n      dup10\n        /* \"#utility.yul\":20311:20333   */\n      add\n        /* \"#utility.yul\":20290:20343   */\n      tag_385\n      jump\t// in\n    tag_654:\n        /* \"#utility.yul\":20280:20343   */\n      swap4\n      pop\n        /* \"#utility.yul\":20235:20353   */\n      pop\n        /* \"#utility.yul\":20392:20394   */\n      0x60\n        /* \"#utility.yul\":20418:20471   */\n      tag_655\n        /* \"#utility.yul\":20463:20470   */\n      dup9\n        /* \"#utility.yul\":20454:20460   */\n      dup3\n        /* \"#utility.yul\":20443:20452   */\n      dup10\n        /* \"#utility.yul\":20439:20461   */\n      add\n        /* \"#utility.yul\":20418:20471   */\n      tag_385\n      jump\t// in\n    tag_655:\n        /* \"#utility.yul\":20408:20471   */\n      swap3\n      pop\n        /* \"#utility.yul\":20363:20481   */\n      pop\n        /* \"#utility.yul\":20548:20551   */\n      0x80\n        /* \"#utility.yul\":20537:20546   */\n      dup7\n        /* \"#utility.yul\":20533:20552   */\n      add\n        /* \"#utility.yul\":20520:20553   */\n      calldataload\n        /* \"#utility.yul\":20580:20598   */\n      0xffffffffffffffff\n        /* \"#utility.yul\":20572:20578   */\n      dup2\n        /* \"#utility.yul\":20569:20599   */\n      gt\n        /* \"#utility.yul\":20566:20683   */\n      iszero\n      tag_656\n      jumpi\n        /* \"#utility.yul\":20602:20681   */\n      tag_657\n      tag_378\n      jump\t// in\n    tag_657:\n        /* \"#utility.yul\":20566:20683   */\n    tag_656:\n        /* \"#utility.yul\":20707:20769   */\n      tag_658\n        /* \"#utility.yul\":20761:20768   */\n      dup9\n        /* \"#utility.yul\":20752:20758   */\n      dup3\n        /* \"#utility.yul\":20741:20750   */\n      dup10\n        /* \"#utility.yul\":20737:20759   */\n      add\n        /* \"#utility.yul\":20707:20769   */\n      tag_408\n      jump\t// in\n    tag_658:\n        /* \"#utility.yul\":20697:20769   */\n      swap2\n      pop\n        /* \"#utility.yul\":20491:20779   */\n      pop\n        /* \"#utility.yul\":19697:20786   */\n      swap3\n      swap6\n      pop\n      swap3\n      swap6\n      swap1\n      swap4\n      pop\n      jump\t// out\n        /* \"#utility.yul\":20792:21411   */\n    tag_108:\n        /* \"#utility.yul\":20869:20875   */\n      0x00\n        /* \"#utility.yul\":20877:20883   */\n      dup1\n        /* \"#utility.yul\":20885:20891   */\n      0x00\n        /* \"#utility.yul\":20934:20936   */\n      0x60\n        /* \"#utility.yul\":20922:20931   */\n      dup5\n        /* \"#utility.yul\":20913:20920   */\n      dup7\n        /* \"#utility.yul\":20909:20932   */\n      sub\n        /* \"#utility.yul\":20905:20937   */\n      slt\n        /* \"#utility.yul\":20902:21021   */\n      iszero\n      tag_660\n      jumpi\n        /* \"#utility.yul\":20940:21019   */\n      tag_661\n      tag_377\n      jump\t// in\n    tag_661:\n        /* \"#utility.yul\":20902:21021   */\n    tag_660:\n        /* \"#utility.yul\":21060:21061   */\n      0x00\n        /* \"#utility.yul\":21085:21138   */\n      tag_662\n        /* \"#utility.yul\":21130:21137   */\n      dup7\n        /* \"#utility.yul\":21121:21127   */\n      dup3\n        /* \"#utility.yul\":21110:21119   */\n      dup8\n        /* \"#utility.yul\":21106:21128   */\n      add\n        /* \"#utility.yul\":21085:21138   */\n      tag_382\n      jump\t// in\n    tag_662:\n        /* \"#utility.yul\":21075:21138   */\n      swap4\n      pop\n        /* \"#utility.yul\":21031:21148   */\n      pop\n        /* \"#utility.yul\":21187:21189   */\n      0x20\n        /* \"#utility.yul\":21213:21266   */\n      tag_663\n        /* \"#utility.yul\":21258:21265   */\n      dup7\n        /* \"#utility.yul\":21249:21255   */\n      dup3\n        /* \"#utility.yul\":21238:21247   */\n      dup8\n        /* \"#utility.yul\":21234:21256   */\n      add\n        /* \"#utility.yul\":21213:21266   */\n      tag_385\n      jump\t// in\n    tag_663:\n        /* \"#utility.yul\":21203:21266   */\n      swap3\n      pop\n        /* \"#utility.yul\":21158:21276   */\n      pop\n        /* \"#utility.yul\":21315:21317   */\n      0x40\n        /* \"#utility.yul\":21341:21394   */\n      tag_664\n        /* \"#utility.yul\":21386:21393   */\n      dup7\n        /* \"#utility.yul\":21377:21383   */\n      dup3\n        /* \"#utility.yul\":21366:21375   */\n      dup8\n        /* \"#utility.yul\":21362:21384   */\n      add\n        /* \"#utility.yul\":21341:21394   */\n      tag_385\n      jump\t// in\n    tag_664:\n        /* \"#utility.yul\":21331:21394   */\n      swap2\n      pop\n        /* \"#utility.yul\":21286:21404   */\n      pop\n        /* \"#utility.yul\":20792:21411   */\n      swap3\n      pop\n      swap3\n      pop\n      swap3\n      jump\t// out\n        /* \"#utility.yul\":21417:21597   */\n    tag_422:\n        /* \"#utility.yul\":21465:21542   */\n      0x4e487b7100000000000000000000000000000000000000000000000000000000\n        /* \"#utility.yul\":21462:21463   */\n      0x00\n        /* \"#utility.yul\":21455:21543   */\n      mstore\n        /* \"#utility.yul\":21562:21566   */\n      0x22\n        /* \"#utility.yul\":21559:21560   */\n      0x04\n        /* \"#utility.yul\":21552:21567   */\n      mstore\n        /* \"#utility.yul\":21586:21590   */\n      0x24\n        /* \"#utility.yul\":21583:21584   */\n      0x00\n        /* \"#utility.yul\":21576:21591   */\n      revert\n        /* \"#utility.yul\":21603:21923   */\n    tag_118:\n        /* \"#utility.yul\":21647:21653   */\n      0x00\n        /* \"#utility.yul\":21684:21685   */\n      0x02\n        /* \"#utility.yul\":21678:21682   */\n      dup3\n        /* \"#utility.yul\":21674:21686   */\n      div\n        /* \"#utility.yul\":21664:21686   */\n      swap1\n      pop\n        /* \"#utility.yul\":21731:21732   */\n      0x01\n        /* \"#utility.yul\":21725:21729   */\n      dup3\n        /* \"#utility.yul\":21721:21733   */\n      and\n        /* \"#utility.yul\":21752:21770   */\n      dup1\n        /* \"#utility.yul\":21742:21823   */\n      tag_667\n      jumpi\n        /* \"#utility.yul\":21808:21812   */\n      0x7f\n        /* \"#utility.yul\":21800:21806   */\n      dup3\n        /* \"#utility.yul\":21796:21813   */\n      and\n        /* \"#utility.yul\":21786:21813   */\n      swap2\n      pop\n        /* \"#utility.yul\":21742:21823   */\n    tag_667:\n        /* \"#utility.yul\":21870:21872   */\n      0x20\n        /* \"#utility.yul\":21862:21868   */\n      dup3\n        /* \"#utility.yul\":21859:21873   */\n      lt\n        /* \"#utility.yul\":21839:21857   */\n      dup2\n        /* \"#utility.yul\":21836:21874   */\n      sub\n        /* \"#utility.yul\":21833:21917   */\n      tag_668\n      jumpi\n        /* \"#utility.yul\":21889:21907   */\n      tag_669\n      tag_422\n      jump\t// in\n    tag_669:\n        /* \"#utility.yul\":21833:21917   */\n    tag_668:\n        /* \"#utility.yul\":21654:21923   */\n      pop\n        /* \"#utility.yul\":21603:21923   */\n      swap2\n      swap1\n      pop\n      jump\t// out\n        /* \"#utility.yul\":21929:22100   */\n    tag_423:\n        /* \"#utility.yul\":22069:22092   */\n      0x47616d652061646472657373206e6f74207365742e0000000000000000000000\n        /* \"#utility.yul\":22065:22066   */\n      0x00\n        /* \"#utility.yul\":22057:22063   */\n      dup3\n        /* \"#utility.yul\":22053:22067   */\n      add\n        /* \"#utility.yul\":22046:22093   */\n      mstore\n        /* \"#utility.yul\":21929:22100   */\n      pop\n      jump\t// out\n        /* \"#utility.yul\":22106:22472   */\n    tag_424:\n        /* \"#utility.yul\":22248:22251   */\n      0x00\n        /* \"#utility.yul\":22269:22336   */\n      tag_672\n        /* \"#utility.yul\":22333:22335   */\n      0x15\n        /* \"#utility.yul\":22328:22331   */\n      dup4\n        /* \"#utility.yul\":22269:22336   */\n      tag_393\n      jump\t// in\n    tag_672:\n        /* \"#utility.yul\":22262:22336   */\n      swap2\n      pop\n        /* \"#utility.yul\":22345:22438   */\n      tag_673\n        /* \"#utility.yul\":22434:22437   */\n      dup3\n        /* \"#utility.yul\":22345:22438   */\n      tag_423\n      jump\t// in\n    tag_673:\n        /* \"#utility.yul\":22463:22465   */\n      0x20\n        /* \"#utility.yul\":22458:22461   */\n      dup3\n        /* \"#utility.yul\":22454:22466   */\n      add\n        /* \"#utility.yul\":22447:22466   */\n      swap1\n      pop\n        /* \"#utility.yul\":22106:22472   */\n      swap2\n      swap1\n      pop\n      jump\t// out\n        /* \"#utility.yul\":22478:22897   */\n    tag_127:\n        /* \"#utility.yul\":22644:22648   */\n      0x00\n        /* \"#utility.yul\":22682:22684   */\n      0x20\n        /* \"#utility.yul\":22671:22680   */\n      dup3\n        /* \"#utility.yul\":22667:22685   */\n      add\n        /* \"#utility.yul\":22659:22685   */\n      swap1\n      pop\n        /* \"#utility.yul\":22731:22740   */\n      dup2\n        /* \"#utility.yul\":22725:22729   */\n      dup2\n        /* \"#utility.yul\":22721:22741   */\n      sub\n        /* \"#utility.yul\":22717:22718   */\n      0x00\n        /* \"#utility.yul\":22706:22715   */\n      dup4\n        /* \"#utility.yul\":22702:22719   */\n      add\n        /* \"#utility.yul\":22695:22742   */\n      mstore\n        /* \"#utility.yul\":22759:22890   */\n      tag_675\n        /* \"#utility.yul\":22885:22889   */\n      dup2\n        /* \"#utility.yul\":22759:22890   */\n      tag_424\n      jump\t// in\n    tag_675:\n        /* \"#utility.yul\":22751:22890   */\n      swap1\n      pop\n        /* \"#utility.yul\":22478:22897   */\n      swap2\n      swap1\n      pop\n      jump\t// out\n        /* \"#utility.yul\":22903:23081   */\n    tag_425:\n        /* \"#utility.yul\":23043:23073   */\n      0x4f6e6c792067616d6520636f6e74726163742063616e206d696e742e00000000\n        /* \"#utility.yul\":23039:23040   */\n      0x00\n        /* \"#utility.yul\":23031:23037   */\n      dup3\n        /* \"#utility.yul\":23027:23041   */\n      add\n        /* \"#utility.yul\":23020:23074   */\n      mstore\n        /* \"#utility.yul\":22903:23081   */\n      pop\n      jump\t// out\n        /* \"#utility.yul\":23087:23453   */\n    tag_426:\n        /* \"#utility.yul\":23229:23232   */\n      0x00\n        /* \"#utility.yul\":23250:23317   */\n      tag_678\n        /* \"#utility.yul\":23314:23316   */\n      0x1c\n        /* \"#utility.yul\":23309:23312   */\n      dup4\n        /* \"#utility.yul\":23250:23317   */\n      tag_393\n      jump\t// in\n    tag_678:\n        /* \"#utility.yul\":23243:23317   */\n      swap2\n      pop\n        /* \"#utility.yul\":23326:23419   */\n      tag_679\n        /* \"#utility.yul\":23415:23418   */\n      dup3\n        /* \"#utility.yul\":23326:23419   */\n      tag_425\n      jump\t// in\n    tag_679:\n        /* \"#utility.yul\":23444:23446   */\n      0x20\n        /* \"#utility.yul\":23439:23442   */\n      dup3\n        /* \"#utility.yul\":23435:23447   */\n      add\n        /* \"#utility.yul\":23428:23447   */\n      swap1\n      pop\n        /* \"#utility.yul\":23087:23453   */\n      swap2\n      swap1\n      pop\n      jump\t// out\n        /* \"#utility.yul\":23459:23878   */\n    tag_130:\n        /* \"#utility.yul\":23625:23629   */\n      0x00\n        /* \"#utility.yul\":23663:23665   */\n      0x20\n        /* \"#utility.yul\":23652:23661   */\n      dup3\n        /* \"#utility.yul\":23648:23666   */\n      add\n        /* \"#utility.yul\":23640:23666   */\n      swap1\n      pop\n        /* \"#utility.yul\":23712:23721   */\n      dup2\n        /* \"#utility.yul\":23706:23710   */\n      dup2\n        /* \"#utility.yul\":23702:23722   */\n      sub\n        /* \"#utility.yul\":23698:23699   */\n      0x00\n        /* \"#utility.yul\":23687:23696   */\n      dup4\n        /* \"#utility.yul\":23683:23700   */\n      add\n        /* \"#utility.yul\":23676:23723   */\n      mstore\n        /* \"#utility.yul\":23740:23871   */\n      tag_681\n        /* \"#utility.yul\":23866:23870   */\n      dup2\n        /* \"#utility.yul\":23740:23871   */\n      tag_426\n      jump\t// in\n    tag_681:\n        /* \"#utility.yul\":23732:23871   */\n      swap1\n      pop\n        /* \"#utility.yul\":23459:23878   */\n      swap2\n      swap1\n      pop\n      jump\t// out\n        /* \"#utility.yul\":23884:24216   */\n    tag_140:\n        /* \"#utility.yul\":24005:24009   */\n      0x00\n        /* \"#utility.yul\":24043:24045   */\n      0x40\n        /* \"#utility.yul\":24032:24041   */\n      dup3\n        /* \"#utility.yul\":24028:24046   */\n      add\n        /* \"#utility.yul\":24020:24046   */\n      swap1\n      pop\n        /* \"#utility.yul\":24056:24127   */\n      tag_683\n        /* \"#utility.yul\":24124:24125   */\n      0x00\n        /* \"#utility.yul\":24113:24122   */\n      dup4\n        /* \"#utility.yul\":24109:24126   */\n      add\n        /* \"#utility.yul\":24100:24106   */\n      dup6\n        /* \"#utility.yul\":24056:24127   */\n      tag_419\n      jump\t// in\n    tag_683:\n        /* \"#utility.yul\":24137:24209   */\n      tag_684\n        /* \"#utility.yul\":24205:24207   */\n      0x20\n        /* \"#utility.yul\":24194:24203   */\n      dup4\n        /* \"#utility.yul\":24190:24208   */\n      add\n        /* \"#utility.yul\":24181:24187   */\n      dup5\n        /* \"#utility.yul\":24137:24209   */\n      tag_419\n      jump\t// in\n    tag_684:\n        /* \"#utility.yul\":23884:24216   */\n      swap4\n      swap3\n      pop\n      pop\n      pop\n      jump\t// out\n        /* \"#utility.yul\":24222:24554   */\n    tag_146:\n        /* \"#utility.yul\":24343:24347   */\n      0x00\n        /* \"#utility.yul\":24381:24383   */\n      0x40\n        /* \"#utility.yul\":24370:24379   */\n      dup3\n        /* \"#utility.yul\":24366:24384   */\n      add\n        /* \"#utility.yul\":24358:24384   */\n      swap1\n      pop\n        /* \"#utility.yul\":24394:24465   */\n      tag_686\n        /* \"#utility.yul\":24462:24463   */\n      0x00\n        /* \"#utility.yul\":24451:24460   */\n      dup4\n        /* \"#utility.yul\":24447:24464   */\n      add\n        /* \"#utility.yul\":24438:24444   */\n      dup6\n        /* \"#utility.yul\":24394:24465   */\n      tag_386\n      jump\t// in\n    tag_686:\n        /* \"#utility.yul\":24475:24547   */\n      tag_687\n        /* \"#utility.yul\":24543:24545   */\n      0x20\n        /* \"#utility.yul\":24532:24541   */\n      dup4\n        /* \"#utility.yul\":24528:24546   */\n      add\n        /* \"#utility.yul\":24519:24525   */\n      dup5\n        /* \"#utility.yul\":24475:24547   */\n      tag_386\n      jump\t// in\n    tag_687:\n        /* \"#utility.yul\":24222:24554   */\n      swap4\n      swap3\n      pop\n      pop\n      pop\n      jump\t// out\n        /* \"#utility.yul\":24560:24740   */\n    tag_161:\n        /* \"#utility.yul\":24608:24685   */\n      0x4e487b7100000000000000000000000000000000000000000000000000000000\n        /* \"#utility.yul\":24605:24606   */\n      0x00\n        /* \"#utility.yul\":24598:24686   */\n      mstore\n        /* \"#utility.yul\":24705:24709   */\n      0x32\n        /* \"#utility.yul\":24702:24703   */\n      0x04\n        /* \"#utility.yul\":24695:24710   */\n      mstore\n        /* \"#utility.yul\":24729:24733   */\n      0x24\n        /* \"#utility.yul\":24726:24727   */\n      0x00\n        /* \"#utility.yul\":24719:24734   */\n      revert\n        /* \"#utility.yul\":24746:24926   */\n    tag_427:\n        /* \"#utility.yul\":24794:24871   */\n      0x4e487b7100000000000000000000000000000000000000000000000000000000\n        /* \"#utility.yul\":24791:24792   */\n      0x00\n        /* \"#utility.yul\":24784:24872   */\n      mstore\n        /* \"#utility.yul\":24891:24895   */\n      0x11\n        /* \"#utility.yul\":24888:24889   */\n      0x04\n        /* \"#utility.yul\":24881:24896   */\n      mstore\n        /* \"#utility.yul\":24915:24919   */\n      0x24\n        /* \"#utility.yul\":24912:24913   */\n      0x00\n        /* \"#utility.yul\":24905:24920   */\n      revert\n        /* \"#utility.yul\":24932:25165   */\n    tag_163:\n        /* \"#utility.yul\":24971:24974   */\n      0x00\n        /* \"#utility.yul\":24994:25018   */\n      tag_691\n        /* \"#utility.yul\":25012:25017   */\n      dup3\n        /* \"#utility.yul\":24994:25018   */\n      tag_383\n      jump\t// in\n    tag_691:\n        /* \"#utility.yul\":24985:25018   */\n      swap2\n      pop\n        /* \"#utility.yul\":25040:25106   */\n      0xffffffffffffffffffffffffffffffffffffffffffffffffffffffffffffffff\n        /* \"#utility.yul\":25033:25038   */\n      dup3\n        /* \"#utility.yul\":25030:25107   */\n      sub\n        /* \"#utility.yul\":25027:25130   */\n      tag_692\n      jumpi\n        /* \"#utility.yul\":25110:25128   */\n      tag_693\n      tag_427\n      jump\t// in\n    tag_693:\n        /* \"#utility.yul\":25027:25130   */\n    tag_692:\n        /* \"#utility.yul\":25157:25158   */\n      0x01\n        /* \"#utility.yul\":25150:25155   */\n      dup3\n        /* \"#utility.yul\":25146:25159   */\n      add\n        /* \"#utility.yul\":25139:25159   */\n      swap1\n      pop\n        /* \"#utility.yul\":24932:25165   */\n      swap2\n      swap1\n      pop\n      jump\t// out\n        /* \"#utility.yul\":25171:25349   */\n    tag_428:\n        /* \"#utility.yul\":25311:25341   */\n      0x47616d65206164647265737320697320616c7265616479207365742e00000000\n        /* \"#utility.yul\":25307:25308   */\n      0x00\n        /* \"#utility.yul\":25299:25305   */\n      dup3\n        /* \"#utility.yul\":25295:25309   */\n      add\n        /* \"#utility.yul\":25288:25342   */\n      mstore\n        /* \"#utility.yul\":25171:25349   */\n      pop\n      jump\t// out\n        /* \"#utility.yul\":25355:25721   */\n    tag_429:\n        /* \"#utility.yul\":25497:25500   */\n      0x00\n        /* \"#utility.yul\":25518:25585   */\n      tag_696\n        /* \"#utility.yul\":25582:25584   */\n      0x1c\n        /* \"#utility.yul\":25577:25580   */\n      dup4\n        /* \"#utility.yul\":25518:25585   */\n      tag_393\n      jump\t// in\n    tag_696:\n        /* \"#utility.yul\":25511:25585   */\n      swap2\n      pop\n        /* \"#utility.yul\":25594:25687   */\n      tag_697\n        /* \"#utility.yul\":25683:25686   */\n      dup3\n        /* \"#utility.yul\":25594:25687   */\n      tag_428\n      jump\t// in\n    tag_697:\n        /* \"#utility.yul\":25712:25714   */\n      0x20\n        /* \"#utility.yul\":25707:25710   */\n      dup3\n        /* \"#utility.yul\":25703:25715   */\n      add\n        /* \"#utility.yul\":25696:25715   */\n      swap1\n      pop\n        /* \"#utility.yul\":25355:25721   */\n      swap2\n      swap1\n      pop\n      jump\t// out\n        /* \"#utility.yul\":25727:26146   */\n    tag_182:\n        /* \"#utility.yul\":25893:25897   */\n      0x00\n        /* \"#utility.yul\":25931:25933   */\n      0x20\n        /* \"#utility.yul\":25920:25929   */\n      dup3\n        /* \"#utility.yul\":25916:25934   */\n      add\n        /* \"#utility.yul\":25908:25934   */\n      swap1\n      pop\n        /* \"#utility.yul\":25980:25989   */\n      dup2\n        /* \"#utility.yul\":25974:25978   */\n      dup2\n        /* \"#utility.yul\":25970:25990   */\n      sub\n        /* \"#utility.yul\":25966:25967   */\n      0x00\n        /* \"#utility.yul\":25955:25964   */\n      dup4\n        /* \"#utility.yul\":25951:25968   */\n      add\n        /* \"#utility.yul\":25944:25991   */\n      mstore\n        /* \"#utility.yul\":26008:26139   */\n      tag_699\n        /* \"#utility.yul\":26134:26138   */\n      dup2\n        /* \"#utility.yul\":26008:26139   */\n      tag_429\n      jump\t// in\n    tag_699:\n        /* \"#utility.yul\":26000:26139   */\n      swap1\n      pop\n        /* \"#utility.yul\":25727:26146   */\n      swap2\n      swap1\n      pop\n      jump\t// out\n        /* \"#utility.yul\":26152:26250   */\n    tag_430:\n        /* \"#utility.yul\":26203:26209   */\n      0x00\n        /* \"#utility.yul\":26237:26242   */\n      dup2\n        /* \"#utility.yul\":26231:26243   */\n      mload\n        /* \"#utility.yul\":26221:26243   */\n      swap1\n      pop\n        /* \"#utility.yul\":26152:26250   */\n      swap2\n      swap1\n      pop\n      jump\t// out\n        /* \"#utility.yul\":26256:26424   */\n    tag_431:\n        /* \"#utility.yul\":26339:26350   */\n      0x00\n        /* \"#utility.yul\":26373:26379   */\n      dup3\n        /* \"#utility.yul\":26368:26371   */\n      dup3\n        /* \"#utility.yul\":26361:26380   */\n      mstore\n        /* \"#utility.yul\":26413:26417   */\n      0x20\n        /* \"#utility.yul\":26408:26411   */\n      dup3\n        /* \"#utility.yul\":26404:26418   */\n      add\n        /* \"#utility.yul\":26389:26418   */\n      swap1\n      pop\n        /* \"#utility.yul\":26256:26424   */\n      swap3\n      swap2\n      pop\n      pop\n      jump\t// out\n        /* \"#utility.yul\":26430:26803   */\n    tag_432:\n        /* \"#utility.yul\":26516:26519   */\n      0x00\n        /* \"#utility.yul\":26544:26582   */\n      tag_703\n        /* \"#utility.yul\":26576:26581   */\n      dup3\n        /* \"#utility.yul\":26544:26582   */\n      tag_430\n      jump\t// in\n    tag_703:\n        /* \"#utility.yul\":26598:26668   */\n      tag_704\n        /* \"#utility.yul\":26661:26667   */\n      dup2\n        /* \"#utility.yul\":26656:26659   */\n      dup6\n        /* \"#utility.yul\":26598:26668   */\n      tag_431\n      jump\t// in\n    tag_704:\n        /* \"#utility.yul\":26591:26668   */\n      swap4\n      pop\n        /* \"#utility.yul\":26677:26742   */\n      tag_705\n        /* \"#utility.yul\":26735:26741   */\n      dup2\n        /* \"#utility.yul\":26730:26733   */\n      dup6\n        /* \"#utility.yul\":26723:26727   */\n      0x20\n        /* \"#utility.yul\":26716:26721   */\n      dup7\n        /* \"#utility.yul\":26712:26728   */\n      add\n        /* \"#utility.yul\":26677:26742   */\n      tag_394\n      jump\t// in\n    tag_705:\n        /* \"#utility.yul\":26767:26796   */\n      tag_706\n        /* \"#utility.yul\":26789:26795   */\n      dup2\n        /* \"#utility.yul\":26767:26796   */\n      tag_395\n      jump\t// in\n    tag_706:\n        /* \"#utility.yul\":26762:26765   */\n      dup5\n        /* \"#utility.yul\":26758:26797   */\n      add\n        /* \"#utility.yul\":26751:26797   */\n      swap2\n      pop\n        /* \"#utility.yul\":26520:26803   */\n      pop\n        /* \"#utility.yul\":26430:26803   */\n      swap3\n      swap2\n      pop\n      pop\n      jump\t// out\n        /* \"#utility.yul\":26809:27560   */\n    tag_294:\n        /* \"#utility.yul\":27032:27036   */\n      0x00\n        /* \"#utility.yul\":27070:27073   */\n      0xa0\n        /* \"#utility.yul\":27059:27068   */\n      dup3\n        /* \"#utility.yul\":27055:27074   */\n      add\n        /* \"#utility.yul\":27047:27074   */\n      swap1\n      pop\n        /* \"#utility.yul\":27084:27155   */\n      tag_708\n        /* \"#utility.yul\":27152:27153   */\n      0x00\n        /* \"#utility.yul\":27141:27150   */\n      dup4\n        /* \"#utility.yul\":27137:27154   */\n      add\n        /* \"#utility.yul\":27128:27134   */\n      dup9\n        /* \"#utility.yul\":27084:27155   */\n      tag_419\n      jump\t// in\n    tag_708:\n        /* \"#utility.yul\":27165:27237   */\n      tag_709\n        /* \"#utility.yul\":27233:27235   */\n      0x20\n        /* \"#utility.yul\":27222:27231   */\n      dup4\n        /* \"#utility.yul\":27218:27236   */\n      add\n        /* \"#utility.yul\":27209:27215   */\n      dup8\n        /* \"#utility.yul\":27165:27237   */\n      tag_419\n      jump\t// in\n    tag_709:\n        /* \"#utility.yul\":27247:27319   */\n      tag_710\n        /* \"#utility.yul\":27315:27317   */\n      0x40\n        /* \"#utility.yul\":27304:27313   */\n      dup4\n        /* \"#utility.yul\":27300:27318   */\n      add\n        /* \"#utility.yul\":27291:27297   */\n      dup7\n        /* \"#utility.yul\":27247:27319   */\n      tag_386\n      jump\t// in\n    tag_710:\n        /* \"#utility.yul\":27329:27401   */\n      tag_711\n        /* \"#utility.yul\":27397:27399   */\n      0x60\n        /* \"#utility.yul\":27386:27395   */\n      dup4\n        /* \"#utility.yul\":27382:27400   */\n      add\n        /* \"#utility.yul\":27373:27379   */\n      dup6\n        /* \"#utility.yul\":27329:27401   */\n      tag_386\n      jump\t// in\n    tag_711:\n        /* \"#utility.yul\":27449:27458   */\n      dup2\n        /* \"#utility.yul\":27443:27447   */\n      dup2\n        /* \"#utility.yul\":27439:27459   */\n      sub\n        /* \"#utility.yul\":27433:27436   */\n      0x80\n        /* \"#utility.yul\":27422:27431   */\n      dup4\n        /* \"#utility.yul\":27418:27437   */\n      add\n        /* \"#utility.yul\":27411:27460   */\n      mstore\n        /* \"#utility.yul\":27477:27553   */\n      tag_712\n        /* \"#utility.yul\":27548:27552   */\n      dup2\n        /* \"#utility.yul\":27539:27545   */\n      dup5\n        /* \"#utility.yul\":27477:27553   */\n      tag_432\n      jump\t// in\n    tag_712:\n        /* \"#utility.yul\":27469:27553   */\n      swap1\n      pop\n        /* \"#utility.yul\":26809:27560   */\n      swap7\n      swap6\n      pop\n      pop\n      pop\n      pop\n      pop\n      pop\n      jump\t// out\n        /* \"#utility.yul\":27566:27707   */\n    tag_433:\n        /* \"#utility.yul\":27622:27627   */\n      0x00\n        /* \"#utility.yul\":27653:27659   */\n      dup2\n        /* \"#utility.yul\":27647:27660   */\n      mload\n        /* \"#utility.yul\":27638:27660   */\n      swap1\n      pop\n        /* \"#utility.yul\":27669:27701   */\n      tag_714\n        /* \"#utility.yul\":27695:27700   */\n      dup2\n        /* \"#utility.yul\":27669:27701   */\n      tag_388\n      jump\t// in\n    tag_714:\n        /* \"#utility.yul\":27566:27707   */\n      swap3\n      swap2\n      pop\n      pop\n      jump\t// out\n        /* \"#utility.yul\":27713:28062   */\n    tag_297:\n        /* \"#utility.yul\":27782:27788   */\n      0x00\n        /* \"#utility.yul\":27831:27833   */\n      0x20\n        /* \"#utility.yul\":27819:27828   */\n      dup3\n        /* \"#utility.yul\":27810:27817   */\n      dup5\n        /* \"#utility.yul\":27806:27829   */\n      sub\n        /* \"#utility.yul\":27802:27834   */\n      slt\n        /* \"#utility.yul\":27799:27918   */\n      iszero\n      tag_716\n      jumpi\n        /* \"#utility.yul\":27837:27916   */\n      tag_717\n      tag_377\n      jump\t// in\n    tag_717:\n        /* \"#utility.yul\":27799:27918   */\n    tag_716:\n        /* \"#utility.yul\":27957:27958   */\n      0x00\n        /* \"#utility.yul\":27982:28045   */\n      tag_718\n        /* \"#utility.yul\":28037:28044   */\n      dup5\n        /* \"#utility.yul\":28028:28034   */\n      dup3\n        /* \"#utility.yul\":28017:28026   */\n      dup6\n        /* \"#utility.yul\":28013:28035   */\n      add\n        /* \"#utility.yul\":27982:28045   */\n      tag_433\n      jump\t// in\n    tag_718:\n        /* \"#utility.yul\":27972:28045   */\n      swap2\n      pop\n        /* \"#utility.yul\":27928:28055   */\n      pop\n        /* \"#utility.yul\":27713:28062   */\n      swap3\n      swap2\n      pop\n      pop\n      jump\t// out\n        /* \"#utility.yul\":28068:29121   */\n    tag_313:\n        /* \"#utility.yul\":28391:28395   */\n      0x00\n        /* \"#utility.yul\":28429:28432   */\n      0xa0\n        /* \"#utility.yul\":28418:28427   */\n      dup3\n        /* \"#utility.yul\":28414:28433   */\n      add\n        /* \"#utility.yul\":28406:28433   */\n      swap1\n      pop\n        /* \"#utility.yul\":28443:28514   */\n      tag_720\n        /* \"#utility.yul\":28511:28512   */\n      0x00\n        /* \"#utility.yul\":28500:28509   */\n      dup4\n        /* \"#utility.yul\":28496:28513   */\n      add\n        /* \"#utility.yul\":28487:28493   */\n      dup9\n        /* \"#utility.yul\":28443:28514   */\n      tag_419\n      jump\t// in\n    tag_720:\n        /* \"#utility.yul\":28524:28596   */\n      tag_721\n        /* \"#utility.yul\":28592:28594   */\n      0x20\n        /* \"#utility.yul\":28581:28590   */\n      dup4\n        /* \"#utility.yul\":28577:28595   */\n      add\n        /* \"#utility.yul\":28568:28574   */\n      dup8\n        /* \"#utility.yul\":28524:28596   */\n      tag_419\n      jump\t// in\n    tag_721:\n        /* \"#utility.yul\":28643:28652   */\n      dup2\n        /* \"#utility.yul\":28637:28641   */\n      dup2\n        /* \"#utility.yul\":28633:28653   */\n      sub\n        /* \"#utility.yul\":28628:28630   */\n      0x40\n        /* \"#utility.yul\":28617:28626   */\n      dup4\n        /* \"#utility.yul\":28613:28631   */\n      add\n        /* \"#utility.yul\":28606:28654   */\n      mstore\n        /* \"#utility.yul\":28671:28779   */\n      tag_722\n        /* \"#utility.yul\":28774:28778   */\n      dup2\n        /* \"#utility.yul\":28765:28771   */\n      dup7\n        /* \"#utility.yul\":28671:28779   */\n      tag_418\n      jump\t// in\n    tag_722:\n        /* \"#utility.yul\":28663:28779   */\n      swap1\n      pop\n        /* \"#utility.yul\":28826:28835   */\n      dup2\n        /* \"#utility.yul\":28820:28824   */\n      dup2\n        /* \"#utility.yul\":28816:28836   */\n      sub\n        /* \"#utility.yul\":28811:28813   */\n      0x60\n        /* \"#utility.yul\":28800:28809   */\n      dup4\n        /* \"#utility.yul\":28796:28814   */\n      add\n        /* \"#utility.yul\":28789:28837   */\n      mstore\n        /* \"#utility.yul\":28854:28962   */\n      tag_723\n        /* \"#utility.yul\":28957:28961   */\n      dup2\n        /* \"#utility.yul\":28948:28954   */\n      dup6\n        /* \"#utility.yul\":28854:28962   */\n      tag_418\n      jump\t// in\n    tag_723:\n        /* \"#utility.yul\":28846:28962   */\n      swap1\n      pop\n        /* \"#utility.yul\":29010:29019   */\n      dup2\n        /* \"#utility.yul\":29004:29008   */\n      dup2\n        /* \"#utility.yul\":29000:29020   */\n      sub\n        /* \"#utility.yul\":28994:28997   */\n      0x80\n        /* \"#utility.yul\":28983:28992   */\n      dup4\n        /* \"#utility.yul\":28979:28998   */\n      add\n        /* \"#utility.yul\":28972:29021   */\n      mstore\n        /* \"#utility.yul\":29038:29114   */\n      tag_724\n        /* \"#utility.yul\":29109:29113   */\n      dup2\n        /* \"#utility.yul\":29100:29106   */\n      dup5\n        /* \"#utility.yul\":29038:29114   */\n      tag_432\n      jump\t// in\n    tag_724:\n        /* \"#utility.yul\":29030:29114   */\n      swap1\n      pop\n        /* \"#utility.yul\":28068:29121   */\n      swap7\n      swap6\n      pop\n      pop\n      pop\n      pop\n      pop\n      pop\n      jump\t// out\n        /* \"#utility.yul\":29127:29318   */\n    tag_340:\n        /* \"#utility.yul\":29167:29170   */\n      0x00\n        /* \"#utility.yul\":29186:29206   */\n      tag_726\n        /* \"#utility.yul\":29204:29205   */\n      dup3\n        /* \"#utility.yul\":29186:29206   */\n      tag_383\n      jump\t// in\n    tag_726:\n        /* \"#utility.yul\":29181:29206   */\n      swap2\n      pop\n        /* \"#utility.yul\":29220:29240   */\n      tag_727\n        /* \"#utility.yul\":29238:29239   */\n      dup4\n        /* \"#utility.yul\":29220:29240   */\n      tag_383\n      jump\t// in\n    tag_727:\n        /* \"#utility.yul\":29215:29240   */\n      swap3\n      pop\n        /* \"#utility.yul\":29263:29264   */\n      dup3\n        /* \"#utility.yul\":29260:29261   */\n      dup3\n        /* \"#utility.yul\":29256:29265   */\n      add\n        /* \"#utility.yul\":29249:29265   */\n      swap1\n      pop\n        /* \"#utility.yul\":29284:29287   */\n      dup1\n        /* \"#utility.yul\":29281:29282   */\n      dup3\n        /* \"#utility.yul\":29278:29288   */\n      gt\n        /* \"#utility.yul\":29275:29311   */\n      iszero\n      tag_728\n      jumpi\n        /* \"#utility.yul\":29291:29309   */\n      tag_729\n      tag_427\n      jump\t// in\n    tag_729:\n        /* \"#utility.yul\":29275:29311   */\n    tag_728:\n        /* \"#utility.yul\":29127:29318   */\n      swap3\n      swap2\n      pop\n      pop\n      jump\t// out\n        /* \"#utility.yul\":29324:29877   */\n    tag_365:\n        /* \"#utility.yul\":29501:29505   */\n      0x00\n        /* \"#utility.yul\":29539:29542   */\n      0x80\n        /* \"#utility.yul\":29528:29537   */\n      dup3\n        /* \"#utility.yul\":29524:29543   */\n      add\n        /* \"#utility.yul\":29516:29543   */\n      swap1\n      pop\n        /* \"#utility.yul\":29553:29624   */\n      tag_731\n        /* \"#utility.yul\":29621:29622   */\n      0x00\n        /* \"#utility.yul\":29610:29619   */\n      dup4\n        /* \"#utility.yul\":29606:29623   */\n      add\n        /* \"#utility.yul\":29597:29603   */\n      dup8\n        /* \"#utility.yul\":29553:29624   */\n      tag_419\n      jump\t// in\n    tag_731:\n        /* \"#utility.yul\":29634:29706   */\n      tag_732\n        /* \"#utility.yul\":29702:29704   */\n      0x20\n        /* \"#utility.yul\":29691:29700   */\n      dup4\n        /* \"#utility.yul\":29687:29705   */\n      add\n        /* \"#utility.yul\":29678:29684   */\n      dup7\n        /* \"#utility.yul\":29634:29706   */\n      tag_386\n      jump\t// in\n    tag_732:\n        /* \"#utility.yul\":29716:29788   */\n      tag_733\n        /* \"#utility.yul\":29784:29786   */\n      0x40\n        /* \"#utility.yul\":29773:29782   */\n      dup4\n        /* \"#utility.yul\":29769:29787   */\n      add\n        /* \"#utility.yul\":29760:29766   */\n      dup6\n        /* \"#utility.yul\":29716:29788   */\n      tag_386\n      jump\t// in\n    tag_733:\n        /* \"#utility.yul\":29798:29870   */\n      tag_734\n        /* \"#utility.yul\":29866:29868   */\n      0x60\n        /* \"#utility.yul\":29855:29864   */\n      dup4\n        /* \"#utility.yul\":29851:29869   */\n      add\n        /* \"#utility.yul\":29842:29848   */\n      dup5\n        /* \"#utility.yul\":29798:29870   */\n      tag_386\n      jump\t// in\n    tag_734:\n        /* \"#utility.yul\":29324:29877   */\n      swap6\n      swap5\n      pop\n      pop\n      pop\n      pop\n      pop\n      jump\t// out\n        /* \"#utility.yul\":29883:30517   */\n    tag_375:\n        /* \"#utility.yul\":30104:30108   */\n      0x00\n        /* \"#utility.yul\":30142:30144   */\n      0x40\n        /* \"#utility.yul\":30131:30140   */\n      dup3\n        /* \"#utility.yul\":30127:30145   */\n      add\n        /* \"#utility.yul\":30119:30145   */\n      swap1\n      pop\n        /* \"#utility.yul\":30191:30200   */\n      dup2\n        /* \"#utility.yul\":30185:30189   */\n      dup2\n        /* \"#utility.yul\":30181:30201   */\n      sub\n        /* \"#utility.yul\":30177:30178   */\n      0x00\n        /* \"#utility.yul\":30166:30175   */\n      dup4\n        /* \"#utility.yul\":30162:30179   */\n      add\n        /* \"#utility.yul\":30155:30202   */\n      mstore\n        /* \"#utility.yul\":30219:30327   */\n      tag_736\n        /* \"#utility.yul\":30322:30326   */\n      dup2\n        /* \"#utility.yul\":30313:30319   */\n      dup6\n        /* \"#utility.yul\":30219:30327   */\n      tag_418\n      jump\t// in\n    tag_736:\n        /* \"#utility.yul\":30211:30327   */\n      swap1\n      pop\n        /* \"#utility.yul\":30374:30383   */\n      dup2\n        /* \"#utility.yul\":30368:30372   */\n      dup2\n        /* \"#utility.yul\":30364:30384   */\n      sub\n        /* \"#utility.yul\":30359:30361   */\n      0x20\n        /* \"#utility.yul\":30348:30357   */\n      dup4\n        /* \"#utility.yul\":30344:30362   */\n      add\n        /* \"#utility.yul\":30337:30385   */\n      mstore\n        /* \"#utility.yul\":30402:30510   */\n      tag_737\n        /* \"#utility.yul\":30505:30509   */\n      dup2\n        /* \"#utility.yul\":30496:30502   */\n      dup5\n        /* \"#utility.yul\":30402:30510   */\n      tag_418\n      jump\t// in\n    tag_737:\n        /* \"#utility.yul\":30394:30510   */\n      swap1\n      pop\n        /* \"#utility.yul\":29883:30517   */\n      swap4\n      swap3\n      pop\n      pop\n      pop\n      jump\t// out\n\n    auxdata: 0xa26469706673582212206e981728272f3c0e563a277c4d69e97f45313db7a6195cf9a7dc51045513422c64736f6c63430008140033\n}\n",
				"bytecode": {
					"linkReferences": {},
					"object": "608060405234801562000010575f80fd5b506040516200350638038062003506833981810160405281019062000036919062000248565b806040518060400160405280602081526020017f68747470733a2f2f736f6d2e657465726e697461732e67616d65732f6a736f6e8152506200007e816200010b60201b60201c565b505f73ffffffffffffffffffffffffffffffffffffffff168173ffffffffffffffffffffffffffffffffffffffff1603620000f2575f6040517f1e4fbdf7000000000000000000000000000000000000000000000000000000008152600401620000e9919062000289565b60405180910390fd5b62000103816200012060201b60201c565b5050620005ec565b80600290816200011c919062000508565b5050565b5f60035f9054906101000a900473ffffffffffffffffffffffffffffffffffffffff1690508160035f6101000a81548173ffffffffffffffffffffffffffffffffffffffff021916908373ffffffffffffffffffffffffffffffffffffffff1602179055508173ffffffffffffffffffffffffffffffffffffffff168173ffffffffffffffffffffffffffffffffffffffff167f8be0079c531659141344cd1fd0a4f28419497f9722a3daafe3b4186f6b6457e060405160405180910390a35050565b5f80fd5b5f73ffffffffffffffffffffffffffffffffffffffff82169050919050565b5f6200021282620001e7565b9050919050565b620002248162000206565b81146200022f575f80fd5b50565b5f81519050620002428162000219565b92915050565b5f6020828403121562000260576200025f620001e3565b5b5f6200026f8482850162000232565b91505092915050565b620002838162000206565b82525050565b5f6020820190506200029e5f83018462000278565b92915050565b5f81519050919050565b7f4e487b71000000000000000000000000000000000000000000000000000000005f52604160045260245ffd5b7f4e487b71000000000000000000000000000000000000000000000000000000005f52602260045260245ffd5b5f60028204905060018216806200032057607f821691505b602082108103620003365762000335620002db565b5b50919050565b5f819050815f5260205f209050919050565b5f6020601f8301049050919050565b5f82821b905092915050565b5f600883026200039a7fffffffffffffffffffffffffffffffffffffffffffffffffffffffffffffffff826200035d565b620003a686836200035d565b95508019841693508086168417925050509392505050565b5f819050919050565b5f819050919050565b5f620003f0620003ea620003e484620003be565b620003c7565b620003be565b9050919050565b5f819050919050565b6200040b83620003d0565b620004236200041a82620003f7565b84845462000369565b825550505050565b5f90565b620004396200042b565b6200044681848462000400565b505050565b5b818110156200046d57620004615f826200042f565b6001810190506200044c565b5050565b601f821115620004bc5762000486816200033c565b62000491846200034e565b81016020851015620004a1578190505b620004b9620004b0856200034e565b8301826200044b565b50505b505050565b5f82821c905092915050565b5f620004de5f1984600802620004c1565b1980831691505092915050565b5f620004f88383620004cd565b9150826002028217905092915050565b6200051382620002a4565b67ffffffffffffffff8111156200052f576200052e620002ae565b5b6200053b825462000308565b6200054882828562000471565b5f60209050601f8311600181146200057e575f841562000569578287015190505b620005758582620004eb565b865550620005e4565b601f1984166200058e866200033c565b5f5b82811015620005b75784890151825560018201915060208501945060208101905062000590565b86831015620005d75784890151620005d3601f891682620004cd565b8355505b6001600288020188555050505b505050505050565b612f0c80620005fa5f395ff3fe608060405234801561000f575f80fd5b5060043610610129575f3560e01c8063715018a6116100ab578063bd85b0391161006f578063bd85b03914610329578063e985e9c514610359578063f242432a14610389578063f2fde38b146103a5578063f5298aca146103c157610129565b8063715018a6146102ab578063731133e9146102b55780638da5cb5b146102d1578063a168d873146102ef578063a22cb4651461030d57610129565b80632eb2c2d6116100f25780632eb2c2d6146101f75780634e1273f4146102135780634f558e79146102435780636b20c45414610273578063711953ef1461028f57610129565b8062fdd58e1461012d57806301ffc9a71461015d5780630e89341c1461018d57806318160ddd146101bd5780631f7fdffa146101db575b5f80fd5b61014760048036038101906101429190612006565b6103dd565b6040516101549190612053565b60405180910390f35b610177600480360381019061017291906120c1565b610432565b6040516101849190612106565b60405180910390f35b6101a760048036038101906101a2919061211f565b610513565b6040516101b491906121d4565b60405180910390f35b6101c56105a5565b6040516101d29190612053565b60405180910390f35b6101f560048036038101906101f091906123e4565b6105ae565b005b610211600480360381019061020c919061249c565b6106de565b005b61022d60048036038101906102289190612627565b610785565b60405161023a9190612754565b60405180910390f35b61025d6004803603810190610258919061211f565b610892565b60405161026a9190612106565b60405180910390f35b61028d60048036038101906102889190612774565b6108a5565b005b6102a960048036038101906102a491906127fc565b610951565b005b6102b3610a2b565b005b6102cf60048036038101906102ca9190612827565b610a3e565b005b6102d9610b6e565b6040516102e691906128b6565b60405180910390f35b6102f7610b96565b60405161030491906128b6565b60405180910390f35b610327600480360381019061032291906128f9565b610bbb565b005b610343600480360381019061033e919061211f565b610bd1565b6040516103509190612053565b60405180910390f35b610373600480360381019061036e9190612937565b610beb565b6040516103809190612106565b60405180910390f35b6103a3600480360381019061039e9190612975565b610c79565b005b6103bf60048036038101906103ba91906127fc565b610d20565b005b6103db60048036038101906103d69190612a08565b610da4565b005b5f805f8381526020019081526020015f205f8473ffffffffffffffffffffffffffffffffffffffff1673ffffffffffffffffffffffffffffffffffffffff1681526020019081526020015f2054905092915050565b5f7fd9b67a26000000000000000000000000000000000000000000000000000000007bffffffffffffffffffffffffffffffffffffffffffffffffffffffff1916827bffffffffffffffffffffffffffffffffffffffffffffffffffffffff191614806104fc57507f0e89341c000000000000000000000000000000000000000000000000000000007bffffffffffffffffffffffffffffffffffffffffffffffffffffffff1916827bffffffffffffffffffffffffffffffffffffffffffffffffffffffff1916145b8061050c575061050b82610e50565b5b9050919050565b60606002805461052290612a85565b80601f016020809104026020016040519081016040528092919081815260200182805461054e90612a85565b80156105995780601f1061057057610100808354040283529160200191610599565b820191905f5260205f20905b81548152906001019060200180831161057c57829003601f168201915b50505050509050919050565b5f600554905090565b5f73ffffffffffffffffffffffffffffffffffffffff1660065f9054906101000a900473ffffffffffffffffffffffffffffffffffffffff1673ffffffffffffffffffffffffffffffffffffffff160361063d576040517f08c379a000000000000000000000000000000000000000000000000000000000815260040161063490612aff565b60405180910390fd5b60065f9054906101000a900473ffffffffffffffffffffffffffffffffffffffff1673ffffffffffffffffffffffffffffffffffffffff163373ffffffffffffffffffffffffffffffffffffffff16146106cc576040517f08c379a00000000000000000000000000000000000000000000000000000000081526004016106c390612b67565b60405180910390fd5b6106d884848484610eb9565b50505050565b5f6106e7610f3c565b90508073ffffffffffffffffffffffffffffffffffffffff168673ffffffffffffffffffffffffffffffffffffffff161415801561072c575061072a8682610beb565b155b156107705780866040517fe237d922000000000000000000000000000000000000000000000000000000008152600401610767929190612b85565b60405180910390fd5b61077d8686868686610f43565b505050505050565b606081518351146107d157815183516040517f5b0599910000000000000000000000000000000000000000000000000000000081526004016107c8929190612bac565b60405180910390fd5b5f835167ffffffffffffffff8111156107ed576107ec6121f8565b5b60405190808252806020026020018201604052801561081b5781602001602082028036833780820191505090505b5090505f5b84518110156108875761085761083f828761103790919063ffffffff16565b610852838761104a90919063ffffffff16565b6103dd565b82828151811061086a57610869612bd3565b5b6020026020010181815250508061088090612c2d565b9050610820565b508091505092915050565b5f8061089d83610bd1565b119050919050565b6108ad610f3c565b73ffffffffffffffffffffffffffffffffffffffff168373ffffffffffffffffffffffffffffffffffffffff16141580156108f657506108f4836108ef610f3c565b610beb565b155b1561094157610903610f3c565b836040517fe237d922000000000000000000000000000000000000000000000000000000008152600401610938929190612b85565b60405180910390fd5b61094c83838361105d565b505050565b6109596110ed565b5f73ffffffffffffffffffffffffffffffffffffffff1660065f9054906101000a900473ffffffffffffffffffffffffffffffffffffffff1673ffffffffffffffffffffffffffffffffffffffff16146109e8576040517f08c379a00000000000000000000000000000000000000000000000000000000081526004016109df90612cbe565b60405180910390fd5b8060065f6101000a81548173ffffffffffffffffffffffffffffffffffffffff021916908373ffffffffffffffffffffffffffffffffffffffff16021790555050565b610a336110ed565b610a3c5f611174565b565b5f73ffffffffffffffffffffffffffffffffffffffff1660065f9054906101000a900473ffffffffffffffffffffffffffffffffffffffff1673ffffffffffffffffffffffffffffffffffffffff1603610acd576040517f08c379a0000000000000000000000000000000000000000000000000000000008152600401610ac490612aff565b60405180910390fd5b60065f9054906101000a900473ffffffffffffffffffffffffffffffffffffffff1673ffffffffffffffffffffffffffffffffffffffff163373ffffffffffffffffffffffffffffffffffffffff1614610b5c576040517f08c379a0000000000000000000000000000000000000000000000000000000008152600401610b5390612b67565b60405180910390fd5b610b6884848484611237565b50505050565b5f60035f9054906101000a900473ffffffffffffffffffffffffffffffffffffffff16905090565b60065f9054906101000a900473ffffffffffffffffffffffffffffffffffffffff1681565b610bcd610bc6610f3c565b83836112cc565b5050565b5f60045f8381526020019081526020015f20549050919050565b5f60015f8473ffffffffffffffffffffffffffffffffffffffff1673ffffffffffffffffffffffffffffffffffffffff1681526020019081526020015f205f8373ffffffffffffffffffffffffffffffffffffffff1673ffffffffffffffffffffffffffffffffffffffff1681526020019081526020015f205f9054906101000a900460ff16905092915050565b5f610c82610f3c565b90508073ffffffffffffffffffffffffffffffffffffffff168673ffffffffffffffffffffffffffffffffffffffff1614158015610cc75750610cc58682610beb565b155b15610d0b5780866040517fe237d922000000000000000000000000000000000000000000000000000000008152600401610d02929190612b85565b60405180910390fd5b610d188686868686611435565b505050505050565b610d286110ed565b5f73ffffffffffffffffffffffffffffffffffffffff168173ffffffffffffffffffffffffffffffffffffffff1603610d98575f6040517f1e4fbdf7000000000000000000000000000000000000000000000000000000008152600401610d8f91906128b6565b60405180910390fd5b610da181611174565b50565b610dac610f3c565b73ffffffffffffffffffffffffffffffffffffffff168373ffffffffffffffffffffffffffffffffffffffff1614158015610df55750610df383610dee610f3c565b610beb565b155b15610e4057610e02610f3c565b836040517fe237d922000000000000000000000000000000000000000000000000000000008152600401610e37929190612b85565b60405180910390fd5b610e4b83838361153b565b505050565b5f7f01ffc9a7000000000000000000000000000000000000000000000000000000007bffffffffffffffffffffffffffffffffffffffffffffffffffffffff1916827bffffffffffffffffffffffffffffffffffffffffffffffffffffffff1916149050919050565b5f73ffffffffffffffffffffffffffffffffffffffff168473ffffffffffffffffffffffffffffffffffffffff1603610f29575f6040517f57f447ce000000000000000000000000000000000000000000000000000000008152600401610f2091906128b6565b60405180910390fd5b610f365f858585856115dd565b50505050565b5f33905090565b5f73ffffffffffffffffffffffffffffffffffffffff168473ffffffffffffffffffffffffffffffffffffffff1603610fb3575f6040517f57f447ce000000000000000000000000000000000000000000000000000000008152600401610faa91906128b6565b60405180910390fd5b5f73ffffffffffffffffffffffffffffffffffffffff168573ffffffffffffffffffffffffffffffffffffffff1603611023575f6040517f01a8351400000000000000000000000000000000000000000000000000000000815260040161101a91906128b6565b60405180910390fd5b61103085858585856115dd565b5050505050565b5f60208202602084010151905092915050565b5f60208202602084010151905092915050565b5f73ffffffffffffffffffffffffffffffffffffffff168373ffffffffffffffffffffffffffffffffffffffff16036110cd575f6040517f01a835140000000000000000000000000000000000000000000000000000000081526004016110c491906128b6565b60405180910390fd5b6110e8835f848460405180602001604052805f8152506115dd565b505050565b6110f5610f3c565b73ffffffffffffffffffffffffffffffffffffffff16611113610b6e565b73ffffffffffffffffffffffffffffffffffffffff161461117257611136610f3c565b6040517f118cdaa700000000000000000000000000000000000000000000000000000000815260040161116991906128b6565b60405180910390fd5b565b5f60035f9054906101000a900473ffffffffffffffffffffffffffffffffffffffff1690508160035f6101000a81548173ffffffffffffffffffffffffffffffffffffffff021916908373ffffffffffffffffffffffffffffffffffffffff1602179055508173ffffffffffffffffffffffffffffffffffffffff168173ffffffffffffffffffffffffffffffffffffffff167f8be0079c531659141344cd1fd0a4f28419497f9722a3daafe3b4186f6b6457e060405160405180910390a35050565b5f73ffffffffffffffffffffffffffffffffffffffff168473ffffffffffffffffffffffffffffffffffffffff16036112a7575f6040517f57f447ce00000000000000000000000000000000000000000000000000000000815260040161129e91906128b6565b60405180910390fd5b5f806112b38585611689565b915091506112c45f878484876115dd565b505050505050565b5f73ffffffffffffffffffffffffffffffffffffffff168273ffffffffffffffffffffffffffffffffffffffff160361133c575f6040517fced3e10000000000000000000000000000000000000000000000000000000000815260040161133391906128b6565b60405180910390fd5b8060015f8573ffffffffffffffffffffffffffffffffffffffff1673ffffffffffffffffffffffffffffffffffffffff1681526020019081526020015f205f8473ffffffffffffffffffffffffffffffffffffffff1673ffffffffffffffffffffffffffffffffffffffff1681526020019081526020015f205f6101000a81548160ff0219169083151502179055508173ffffffffffffffffffffffffffffffffffffffff168373ffffffffffffffffffffffffffffffffffffffff167f17307eab39ab6107e8899845ad3d59bd9653f200f220920489ca2b5937696c31836040516114289190612106565b60405180910390a3505050565b5f73ffffffffffffffffffffffffffffffffffffffff168473ffffffffffffffffffffffffffffffffffffffff16036114a5575f6040517f57f447ce00000000000000000000000000000000000000000000000000000000815260040161149c91906128b6565b60405180910390fd5b5f73ffffffffffffffffffffffffffffffffffffffff168573ffffffffffffffffffffffffffffffffffffffff1603611515575f6040517f01a8351400000000000000000000000000000000000000000000000000000000815260040161150c91906128b6565b60405180910390fd5b5f806115218585611689565b9150915061153287878484876115dd565b50505050505050565b5f73ffffffffffffffffffffffffffffffffffffffff168373ffffffffffffffffffffffffffffffffffffffff16036115ab575f6040517f01a835140000000000000000000000000000000000000000000000000000000081526004016115a291906128b6565b60405180910390fd5b5f806115b78484611689565b915091506115d6855f848460405180602001604052805f8152506115dd565b5050505050565b6115e9858585856116b9565b5f73ffffffffffffffffffffffffffffffffffffffff168473ffffffffffffffffffffffffffffffffffffffff1614611682575f611625610f3c565b90506001845103611671575f6116445f8661104a90919063ffffffff16565b90505f61165a5f8661104a90919063ffffffff16565b905061166a8389898585896116cb565b5050611680565b61167f81878787878761187a565b5b505b5050505050565b60608060405191506001825283602083015260408201905060018152826020820152604081016040529250929050565b6116c584848484611a29565b50505050565b5f8473ffffffffffffffffffffffffffffffffffffffff163b1115611872578373ffffffffffffffffffffffffffffffffffffffff1663f23a6e6187878686866040518663ffffffff1660e01b815260040161172b959493929190612d2e565b6020604051808303815f875af192505050801561176657506040513d601f19601f820116820180604052508101906117639190612d9a565b60015b6117e7573d805f8114611794576040519150601f19603f3d011682016040523d82523d5f602084013e611799565b606091505b505f8151036117df57846040517f57f447ce0000000000000000000000000000000000000000000000000000000081526004016117d691906128b6565b60405180910390fd5b805181602001fd5b63f23a6e6160e01b7bffffffffffffffffffffffffffffffffffffffffffffffffffffffff1916817bffffffffffffffffffffffffffffffffffffffffffffffffffffffff19161461187057846040517f57f447ce00000000000000000000000000000000000000000000000000000000815260040161186791906128b6565b60405180910390fd5b505b505050505050565b5f8473ffffffffffffffffffffffffffffffffffffffff163b1115611a21578373ffffffffffffffffffffffffffffffffffffffff1663bc197c8187878686866040518663ffffffff1660e01b81526004016118da959493929190612dc5565b6020604051808303815f875af192505050801561191557506040513d601f19601f820116820180604052508101906119129190612d9a565b60015b611996573d805f8114611943576040519150601f19603f3d011682016040523d82523d5f602084013e611948565b606091505b505f81510361198e57846040517f57f447ce00000000000000000000000000000000000000000000000000000000815260040161198591906128b6565b60405180910390fd5b805181602001fd5b63bc197c8160e01b7bffffffffffffffffffffffffffffffffffffffffffffffffffffffff1916817bffffffffffffffffffffffffffffffffffffffffffffffffffffffff191614611a1f57846040517f57f447ce000000000000000000000000000000000000000000000000000000008152600401611a1691906128b6565b60405180910390fd5b505b505050505050565b611a3584848484611bd2565b5f73ffffffffffffffffffffffffffffffffffffffff168473ffffffffffffffffffffffffffffffffffffffff1603611b0e575f805b8351811015611af3575f838281518110611a8857611a87612bd3565b5b602002602001015190508060045f878581518110611aa957611aa8612bd3565b5b602002602001015181526020019081526020015f205f828254611acc9190612e2b565b925050819055508083611adf9190612e2b565b92505080611aec90612c2d565b9050611a6b565b508060055f828254611b059190612e2b565b92505081905550505b5f73ffffffffffffffffffffffffffffffffffffffff168373ffffffffffffffffffffffffffffffffffffffff1603611bcc575f805b8351811015611bba575f838281518110611b6157611b60612bd3565b5b602002602001015190508060045f878581518110611b8257611b81612bd3565b5b602002602001015181526020019081526020015f205f828254039250508190555080830192505080611bb390612c2d565b9050611b44565b508060055f8282540392505081905550505b50505050565b8051825114611c1c57815181516040517f5b059991000000000000000000000000000000000000000000000000000000008152600401611c13929190612bac565b60405180910390fd5b5f611c25610f3c565b90505f5b8351811015611e27575f611c46828661104a90919063ffffffff16565b90505f611c5c838661104a90919063ffffffff16565b90505f73ffffffffffffffffffffffffffffffffffffffff168873ffffffffffffffffffffffffffffffffffffffff1614611d7f575f805f8481526020019081526020015f205f8a73ffffffffffffffffffffffffffffffffffffffff1673ffffffffffffffffffffffffffffffffffffffff1681526020019081526020015f2054905081811015611d2b57888183856040517f03dee4c5000000000000000000000000000000000000000000000000000000008152600401611d229493929190612e5e565b60405180910390fd5b8181035f808581526020019081526020015f205f8b73ffffffffffffffffffffffffffffffffffffffff1673ffffffffffffffffffffffffffffffffffffffff1681526020019081526020015f2081905550505b5f73ffffffffffffffffffffffffffffffffffffffff168773ffffffffffffffffffffffffffffffffffffffff1614611e1457805f808481526020019081526020015f205f8973ffffffffffffffffffffffffffffffffffffffff1673ffffffffffffffffffffffffffffffffffffffff1681526020019081526020015f205f828254611e0c9190612e2b565b925050819055505b505080611e2090612c2d565b9050611c29565b506001835103611ee2575f611e455f8561104a90919063ffffffff16565b90505f611e5b5f8561104a90919063ffffffff16565b90508573ffffffffffffffffffffffffffffffffffffffff168773ffffffffffffffffffffffffffffffffffffffff168473ffffffffffffffffffffffffffffffffffffffff167fc3d58168c5ae7397731d063d5bbf3d657854427343f4c083240f7aacaa2d0f628585604051611ed3929190612bac565b60405180910390a45050611f61565b8373ffffffffffffffffffffffffffffffffffffffff168573ffffffffffffffffffffffffffffffffffffffff168273ffffffffffffffffffffffffffffffffffffffff167f4a39dc06d4c0dbc64b70af90fd698a233a518aa5d07e595d983b8c0526c8f7fb8686604051611f58929190612ea1565b60405180910390a45b5050505050565b5f604051905090565b5f80fd5b5f80fd5b5f73ffffffffffffffffffffffffffffffffffffffff82169050919050565b5f611fa282611f79565b9050919050565b611fb281611f98565b8114611fbc575f80fd5b50565b5f81359050611fcd81611fa9565b92915050565b5f819050919050565b611fe581611fd3565b8114611fef575f80fd5b50565b5f8135905061200081611fdc565b92915050565b5f806040838503121561201c5761201b611f71565b5b5f61202985828601611fbf565b925050602061203a85828601611ff2565b9150509250929050565b61204d81611fd3565b82525050565b5f6020820190506120665f830184612044565b92915050565b5f7fffffffff0000000000000000000000000000000000000000000000000000000082169050919050565b6120a08161206c565b81146120aa575f80fd5b50565b5f813590506120bb81612097565b92915050565b5f602082840312156120d6576120d5611f71565b5b5f6120e3848285016120ad565b91505092915050565b5f8115159050919050565b612100816120ec565b82525050565b5f6020820190506121195f8301846120f7565b92915050565b5f6020828403121561213457612133611f71565b5b5f61214184828501611ff2565b91505092915050565b5f81519050919050565b5f82825260208201905092915050565b5f5b83811015612181578082015181840152602081019050612166565b5f8484015250505050565b5f601f19601f8301169050919050565b5f6121a68261214a565b6121b08185612154565b93506121c0818560208601612164565b6121c98161218c565b840191505092915050565b5f6020820190508181035f8301526121ec818461219c565b905092915050565b5f80fd5b7f4e487b71000000000000000000000000000000000000000000000000000000005f52604160045260245ffd5b61222e8261218c565b810181811067ffffffffffffffff8211171561224d5761224c6121f8565b5b80604052505050565b5f61225f611f68565b905061226b8282612225565b919050565b5f67ffffffffffffffff82111561228a576122896121f8565b5b602082029050602081019050919050565b5f80fd5b5f6122b16122ac84612270565b612256565b905080838252602082019050602084028301858111156122d4576122d361229b565b5b835b818110156122fd57806122e98882611ff2565b8452602084019350506020810190506122d6565b5050509392505050565b5f82601f83011261231b5761231a6121f4565b5b813561232b84826020860161229f565b91505092915050565b5f80fd5b5f67ffffffffffffffff821115612352576123516121f8565b5b61235b8261218c565b9050602081019050919050565b828183375f83830152505050565b5f61238861238384612338565b612256565b9050828152602081018484840111156123a4576123a3612334565b5b6123af848285612368565b509392505050565b5f82601f8301126123cb576123ca6121f4565b5b81356123db848260208601612376565b91505092915050565b5f805f80608085870312156123fc576123fb611f71565b5b5f61240987828801611fbf565b945050602085013567ffffffffffffffff81111561242a57612429611f75565b5b61243687828801612307565b935050604085013567ffffffffffffffff81111561245757612456611f75565b5b61246387828801612307565b925050606085013567ffffffffffffffff81111561248457612483611f75565b5b612490878288016123b7565b91505092959194509250565b5f805f805f60a086880312156124b5576124b4611f71565b5b5f6124c288828901611fbf565b95505060206124d388828901611fbf565b945050604086013567ffffffffffffffff8111156124f4576124f3611f75565b5b61250088828901612307565b935050606086013567ffffffffffffffff81111561252157612520611f75565b5b61252d88828901612307565b925050608086013567ffffffffffffffff81111561254e5761254d611f75565b5b61255a888289016123b7565b9150509295509295909350565b5f67ffffffffffffffff821115612581576125806121f8565b5b602082029050602081019050919050565b5f6125a461259f84612567565b612256565b905080838252602082019050602084028301858111156125c7576125c661229b565b5b835b818110156125f057806125dc8882611fbf565b8452602084019350506020810190506125c9565b5050509392505050565b5f82601f83011261260e5761260d6121f4565b5b813561261e848260208601612592565b91505092915050565b5f806040838503121561263d5761263c611f71565b5b5f83013567ffffffffffffffff81111561265a57612659611f75565b5b612666858286016125fa565b925050602083013567ffffffffffffffff81111561268757612686611f75565b5b61269385828601612307565b9150509250929050565b5f81519050919050565b5f82825260208201905092915050565b5f819050602082019050919050565b6126cf81611fd3565b82525050565b5f6126e083836126c6565b60208301905092915050565b5f602082019050919050565b5f6127028261269d565b61270c81856126a7565b9350612717836126b7565b805f5b8381101561274757815161272e88826126d5565b9750612739836126ec565b92505060018101905061271a565b5085935050505092915050565b5f6020820190508181035f83015261276c81846126f8565b905092915050565b5f805f6060848603121561278b5761278a611f71565b5b5f61279886828701611fbf565b935050602084013567ffffffffffffffff8111156127b9576127b8611f75565b5b6127c586828701612307565b925050604084013567ffffffffffffffff8111156127e6576127e5611f75565b5b6127f286828701612307565b9150509250925092565b5f6020828403121561281157612810611f71565b5b5f61281e84828501611fbf565b91505092915050565b5f805f806080858703121561283f5761283e611f71565b5b5f61284c87828801611fbf565b945050602061285d87828801611ff2565b935050604061286e87828801611ff2565b925050606085013567ffffffffffffffff81111561288f5761288e611f75565b5b61289b878288016123b7565b91505092959194509250565b6128b081611f98565b82525050565b5f6020820190506128c95f8301846128a7565b92915050565b6128d8816120ec565b81146128e2575f80fd5b50565b5f813590506128f3816128cf565b92915050565b5f806040838503121561290f5761290e611f71565b5b5f61291c85828601611fbf565b925050602061292d858286016128e5565b9150509250929050565b5f806040838503121561294d5761294c611f71565b5b5f61295a85828601611fbf565b925050602061296b85828601611fbf565b9150509250929050565b5f805f805f60a0868803121561298e5761298d611f71565b5b5f61299b88828901611fbf565b95505060206129ac88828901611fbf565b94505060406129bd88828901611ff2565b93505060606129ce88828901611ff2565b925050608086013567ffffffffffffffff8111156129ef576129ee611f75565b5b6129fb888289016123b7565b9150509295509295909350565b5f805f60608486031215612a1f57612a1e611f71565b5b5f612a2c86828701611fbf565b9350506020612a3d86828701611ff2565b9250506040612a4e86828701611ff2565b9150509250925092565b7f4e487b71000000000000000000000000000000000000000000000000000000005f52602260045260245ffd5b5f6002820490506001821680612a9c57607f821691505b602082108103612aaf57612aae612a58565b5b50919050565b7f47616d652061646472657373206e6f74207365742e00000000000000000000005f82015250565b5f612ae9601583612154565b9150612af482612ab5565b602082019050919050565b5f6020820190508181035f830152612b1681612add565b9050919050565b7f4f6e6c792067616d6520636f6e74726163742063616e206d696e742e000000005f82015250565b5f612b51601c83612154565b9150612b5c82612b1d565b602082019050919050565b5f6020820190508181035f830152612b7e81612b45565b9050919050565b5f604082019050612b985f8301856128a7565b612ba560208301846128a7565b9392505050565b5f604082019050612bbf5f830185612044565b612bcc6020830184612044565b9392505050565b7f4e487b71000000000000000000000000000000000000000000000000000000005f52603260045260245ffd5b7f4e487b71000000000000000000000000000000000000000000000000000000005f52601160045260245ffd5b5f612c3782611fd3565b91507fffffffffffffffffffffffffffffffffffffffffffffffffffffffffffffffff8203612c6957612c68612c00565b5b600182019050919050565b7f47616d65206164647265737320697320616c7265616479207365742e000000005f82015250565b5f612ca8601c83612154565b9150612cb382612c74565b602082019050919050565b5f6020820190508181035f830152612cd581612c9c565b9050919050565b5f81519050919050565b5f82825260208201905092915050565b5f612d0082612cdc565b612d0a8185612ce6565b9350612d1a818560208601612164565b612d238161218c565b840191505092915050565b5f60a082019050612d415f8301886128a7565b612d4e60208301876128a7565b612d5b6040830186612044565b612d686060830185612044565b8181036080830152612d7a8184612cf6565b90509695505050505050565b5f81519050612d9481612097565b92915050565b5f60208284031215612daf57612dae611f71565b5b5f612dbc84828501612d86565b91505092915050565b5f60a082019050612dd85f8301886128a7565b612de560208301876128a7565b8181036040830152612df781866126f8565b90508181036060830152612e0b81856126f8565b90508181036080830152612e1f8184612cf6565b90509695505050505050565b5f612e3582611fd3565b9150612e4083611fd3565b9250828201905080821115612e5857612e57612c00565b5b92915050565b5f608082019050612e715f8301876128a7565b612e7e6020830186612044565b612e8b6040830185612044565b612e986060830184612044565b95945050505050565b5f6040820190508181035f830152612eb981856126f8565b90508181036020830152612ecd81846126f8565b9050939250505056fea26469706673582212206e981728272f3c0e563a277c4d69e97f45313db7a6195cf9a7dc51045513422c64736f6c63430008140033",
					"opcodes": "PUSH1 0x80 PUSH1 0x40 MSTORE CALLVALUE DUP1 ISZERO PUSH3 0x10 JUMPI PUSH0 DUP1 REVERT JUMPDEST POP PUSH1 0x40 MLOAD PUSH3 0x3506 CODESIZE SUB DUP1 PUSH3 0x3506 DUP4 CODECOPY DUP2 DUP2 ADD PUSH1 0x40 MSTORE DUP2 ADD SWAP1 PUSH3 0x36 SWAP2 SWAP1 PUSH3 0x248 JUMP JUMPDEST DUP1 PUSH1 0x40 MLOAD DUP1 PUSH1 0x40 ADD PUSH1 0x40 MSTORE DUP1 PUSH1 0x20 DUP2 MSTORE PUSH1 0x20 ADD PUSH32 0x68747470733A2F2F736F6D2E657465726E697461732E67616D65732F6A736F6E DUP2 MSTORE POP PUSH3 0x7E DUP2 PUSH3 0x10B PUSH1 0x20 SHL PUSH1 0x20 SHR JUMP JUMPDEST POP PUSH0 PUSH20 0xFFFFFFFFFFFFFFFFFFFFFFFFFFFFFFFFFFFFFFFF AND DUP2 PUSH20 0xFFFFFFFFFFFFFFFFFFFFFFFFFFFFFFFFFFFFFFFF AND SUB PUSH3 0xF2 JUMPI PUSH0 PUSH1 0x40 MLOAD PUSH32 0x1E4FBDF700000000000000000000000000000000000000000000000000000000 DUP2 MSTORE PUSH1 0x4 ADD PUSH3 0xE9 SWAP2 SWAP1 PUSH3 0x289 JUMP JUMPDEST PUSH1 0x40 MLOAD DUP1 SWAP2 SUB SWAP1 REVERT JUMPDEST PUSH3 0x103 DUP2 PUSH3 0x120 PUSH1 0x20 SHL PUSH1 0x20 SHR JUMP JUMPDEST POP POP PUSH3 0x5EC JUMP JUMPDEST DUP1 PUSH1 0x2 SWAP1 DUP2 PUSH3 0x11C SWAP2 SWAP1 PUSH3 0x508 JUMP JUMPDEST POP POP JUMP JUMPDEST PUSH0 PUSH1 0x3 PUSH0 SWAP1 SLOAD SWAP1 PUSH2 0x100 EXP SWAP1 DIV PUSH20 0xFFFFFFFFFFFFFFFFFFFFFFFFFFFFFFFFFFFFFFFF AND SWAP1 POP DUP2 PUSH1 0x3 PUSH0 PUSH2 0x100 EXP DUP2 SLOAD DUP2 PUSH20 0xFFFFFFFFFFFFFFFFFFFFFFFFFFFFFFFFFFFFFFFF MUL NOT AND SWAP1 DUP4 PUSH20 0xFFFFFFFFFFFFFFFFFFFFFFFFFFFFFFFFFFFFFFFF AND MUL OR SWAP1 SSTORE POP DUP2 PUSH20 0xFFFFFFFFFFFFFFFFFFFFFFFFFFFFFFFFFFFFFFFF AND DUP2 PUSH20 0xFFFFFFFFFFFFFFFFFFFFFFFFFFFFFFFFFFFFFFFF AND PUSH32 0x8BE0079C531659141344CD1FD0A4F28419497F9722A3DAAFE3B4186F6B6457E0 PUSH1 0x40 MLOAD PUSH1 0x40 MLOAD DUP1 SWAP2 SUB SWAP1 LOG3 POP POP JUMP JUMPDEST PUSH0 DUP1 REVERT JUMPDEST PUSH0 PUSH20 0xFFFFFFFFFFFFFFFFFFFFFFFFFFFFFFFFFFFFFFFF DUP3 AND SWAP1 POP SWAP2 SWAP1 POP JUMP JUMPDEST PUSH0 PUSH3 0x212 DUP3 PUSH3 0x1E7 JUMP JUMPDEST SWAP1 POP SWAP2 SWAP1 POP JUMP JUMPDEST PUSH3 0x224 DUP2 PUSH3 0x206 JUMP JUMPDEST DUP2 EQ PUSH3 0x22F JUMPI PUSH0 DUP1 REVERT JUMPDEST POP JUMP JUMPDEST PUSH0 DUP2 MLOAD SWAP1 POP PUSH3 0x242 DUP2 PUSH3 0x219 JUMP JUMPDEST SWAP3 SWAP2 POP POP JUMP JUMPDEST PUSH0 PUSH1 0x20 DUP3 DUP5 SUB SLT ISZERO PUSH3 0x260 JUMPI PUSH3 0x25F PUSH3 0x1E3 JUMP JUMPDEST JUMPDEST PUSH0 PUSH3 0x26F DUP5 DUP3 DUP6 ADD PUSH3 0x232 JUMP JUMPDEST SWAP2 POP POP SWAP3 SWAP2 POP POP JUMP JUMPDEST PUSH3 0x283 DUP2 PUSH3 0x206 JUMP JUMPDEST DUP3 MSTORE POP POP JUMP JUMPDEST PUSH0 PUSH1 0x20 DUP3 ADD SWAP1 POP PUSH3 0x29E PUSH0 DUP4 ADD DUP5 PUSH3 0x278 JUMP JUMPDEST SWAP3 SWAP2 POP POP JUMP JUMPDEST PUSH0 DUP2 MLOAD SWAP1 POP SWAP2 SWAP1 POP JUMP JUMPDEST PUSH32 0x4E487B7100000000000000000000000000000000000000000000000000000000 PUSH0 MSTORE PUSH1 0x41 PUSH1 0x4 MSTORE PUSH1 0x24 PUSH0 REVERT JUMPDEST PUSH32 0x4E487B7100000000000000000000000000000000000000000000000000000000 PUSH0 MSTORE PUSH1 0x22 PUSH1 0x4 MSTORE PUSH1 0x24 PUSH0 REVERT JUMPDEST PUSH0 PUSH1 0x2 DUP3 DIV SWAP1 POP PUSH1 0x1 DUP3 AND DUP1 PUSH3 0x320 JUMPI PUSH1 0x7F DUP3 AND SWAP2 POP JUMPDEST PUSH1 0x20 DUP3 LT DUP2 SUB PUSH3 0x336 JUMPI PUSH3 0x335 PUSH3 0x2DB JUMP JUMPDEST JUMPDEST POP SWAP2 SWAP1 POP JUMP JUMPDEST PUSH0 DUP2 SWAP1 POP DUP2 PUSH0 MSTORE PUSH1 0x20 PUSH0 KECCAK256 SWAP1 POP SWAP2 SWAP1 POP JUMP JUMPDEST PUSH0 PUSH1 0x20 PUSH1 0x1F DUP4 ADD DIV SWAP1 POP SWAP2 SWAP1 POP JUMP JUMPDEST PUSH0 DUP3 DUP3 SHL SWAP1 POP SWAP3 SWAP2 POP POP JUMP JUMPDEST PUSH0 PUSH1 0x8 DUP4 MUL PUSH3 0x39A PUSH32 0xFFFFFFFFFFFFFFFFFFFFFFFFFFFFFFFFFFFFFFFFFFFFFFFFFFFFFFFFFFFFFFFF DUP3 PUSH3 0x35D JUMP JUMPDEST PUSH3 0x3A6 DUP7 DUP4 PUSH3 0x35D JUMP JUMPDEST SWAP6 POP DUP1 NOT DUP5 AND SWAP4 POP DUP1 DUP7 AND DUP5 OR SWAP3 POP POP POP SWAP4 SWAP3 POP POP POP JUMP JUMPDEST PUSH0 DUP2 SWAP1 POP SWAP2 SWAP1 POP JUMP JUMPDEST PUSH0 DUP2 SWAP1 POP SWAP2 SWAP1 POP JUMP JUMPDEST PUSH0 PUSH3 0x3F0 PUSH3 0x3EA PUSH3 0x3E4 DUP5 PUSH3 0x3BE JUMP JUMPDEST PUSH3 0x3C7 JUMP JUMPDEST PUSH3 0x3BE JUMP JUMPDEST SWAP1 POP SWAP2 SWAP1 POP JUMP JUMPDEST PUSH0 DUP2 SWAP1 POP SWAP2 SWAP1 POP JUMP JUMPDEST PUSH3 0x40B DUP4 PUSH3 0x3D0 JUMP JUMPDEST PUSH3 0x423 PUSH3 0x41A DUP3 PUSH3 0x3F7 JUMP JUMPDEST DUP5 DUP5 SLOAD PUSH3 0x369 JUMP JUMPDEST DUP3 SSTORE POP POP POP POP JUMP JUMPDEST PUSH0 SWAP1 JUMP JUMPDEST PUSH3 0x439 PUSH3 0x42B JUMP JUMPDEST PUSH3 0x446 DUP2 DUP5 DUP5 PUSH3 0x400 JUMP JUMPDEST POP POP POP JUMP JUMPDEST JUMPDEST DUP2 DUP2 LT ISZERO PUSH3 0x46D JUMPI PUSH3 0x461 PUSH0 DUP3 PUSH3 0x42F JUMP JUMPDEST PUSH1 0x1 DUP2 ADD SWAP1 POP PUSH3 0x44C JUMP JUMPDEST POP POP JUMP JUMPDEST PUSH1 0x1F DUP3 GT ISZERO PUSH3 0x4BC JUMPI PUSH3 0x486 DUP2 PUSH3 0x33C JUMP JUMPDEST PUSH3 0x491 DUP5 PUSH3 0x34E JUMP JUMPDEST DUP2 ADD PUSH1 0x20 DUP6 LT ISZERO PUSH3 0x4A1 JUMPI DUP2 SWAP1 POP JUMPDEST PUSH3 0x4B9 PUSH3 0x4B0 DUP6 PUSH3 0x34E JUMP JUMPDEST DUP4 ADD DUP3 PUSH3 0x44B JUMP JUMPDEST POP POP JUMPDEST POP POP POP JUMP JUMPDEST PUSH0 DUP3 DUP3 SHR SWAP1 POP SWAP3 SWAP2 POP POP JUMP JUMPDEST PUSH0 PUSH3 0x4DE PUSH0 NOT DUP5 PUSH1 0x8 MUL PUSH3 0x4C1 JUMP JUMPDEST NOT DUP1 DUP4 AND SWAP2 POP POP SWAP3 SWAP2 POP POP JUMP JUMPDEST PUSH0 PUSH3 0x4F8 DUP4 DUP4 PUSH3 0x4CD JUMP JUMPDEST SWAP2 POP DUP3 PUSH1 0x2 MUL DUP3 OR SWAP1 POP SWAP3 SWAP2 POP POP JUMP JUMPDEST PUSH3 0x513 DUP3 PUSH3 0x2A4 JUMP JUMPDEST PUSH8 0xFFFFFFFFFFFFFFFF DUP2 GT ISZERO PUSH3 0x52F JUMPI PUSH3 0x52E PUSH3 0x2AE JUMP JUMPDEST JUMPDEST PUSH3 0x53B DUP3 SLOAD PUSH3 0x308 JUMP JUMPDEST PUSH3 0x548 DUP3 DUP3 DUP6 PUSH3 0x471 JUMP JUMPDEST PUSH0 PUSH1 0x20 SWAP1 POP PUSH1 0x1F DUP4 GT PUSH1 0x1 DUP2 EQ PUSH3 0x57E JUMPI PUSH0 DUP5 ISZERO PUSH3 0x569 JUMPI DUP3 DUP8 ADD MLOAD SWAP1 POP JUMPDEST PUSH3 0x575 DUP6 DUP3 PUSH3 0x4EB JUMP JUMPDEST DUP7 SSTORE POP PUSH3 0x5E4 JUMP JUMPDEST PUSH1 0x1F NOT DUP5 AND PUSH3 0x58E DUP7 PUSH3 0x33C JUMP JUMPDEST PUSH0 JUMPDEST DUP3 DUP2 LT ISZERO PUSH3 0x5B7 JUMPI DUP5 DUP10 ADD MLOAD DUP3 SSTORE PUSH1 0x1 DUP3 ADD SWAP2 POP PUSH1 0x20 DUP6 ADD SWAP5 POP PUSH1 0x20 DUP2 ADD SWAP1 POP PUSH3 0x590 JUMP JUMPDEST DUP7 DUP4 LT ISZERO PUSH3 0x5D7 JUMPI DUP5 DUP10 ADD MLOAD PUSH3 0x5D3 PUSH1 0x1F DUP10 AND DUP3 PUSH3 0x4CD JUMP JUMPDEST DUP4 SSTORE POP JUMPDEST PUSH1 0x1 PUSH1 0x2 DUP9 MUL ADD DUP9 SSTORE POP POP POP JUMPDEST POP POP POP POP POP POP JUMP JUMPDEST PUSH2 0x2F0C DUP1 PUSH3 0x5FA PUSH0 CODECOPY PUSH0 RETURN INVALID PUSH1 0x80 PUSH1 0x40 MSTORE CALLVALUE DUP1 ISZERO PUSH2 0xF JUMPI PUSH0 DUP1 REVERT JUMPDEST POP PUSH1 0x4 CALLDATASIZE LT PUSH2 0x129 JUMPI PUSH0 CALLDATALOAD PUSH1 0xE0 SHR DUP1 PUSH4 0x715018A6 GT PUSH2 0xAB JUMPI DUP1 PUSH4 0xBD85B039 GT PUSH2 0x6F JUMPI DUP1 PUSH4 0xBD85B039 EQ PUSH2 0x329 JUMPI DUP1 PUSH4 0xE985E9C5 EQ PUSH2 0x359 JUMPI DUP1 PUSH4 0xF242432A EQ PUSH2 0x389 JUMPI DUP1 PUSH4 0xF2FDE38B EQ PUSH2 0x3A5 JUMPI DUP1 PUSH4 0xF5298ACA EQ PUSH2 0x3C1 JUMPI PUSH2 0x129 JUMP JUMPDEST DUP1 PUSH4 0x715018A6 EQ PUSH2 0x2AB JUMPI DUP1 PUSH4 0x731133E9 EQ PUSH2 0x2B5 JUMPI DUP1 PUSH4 0x8DA5CB5B EQ PUSH2 0x2D1 JUMPI DUP1 PUSH4 0xA168D873 EQ PUSH2 0x2EF JUMPI DUP1 PUSH4 0xA22CB465 EQ PUSH2 0x30D JUMPI PUSH2 0x129 JUMP JUMPDEST DUP1 PUSH4 0x2EB2C2D6 GT PUSH2 0xF2 JUMPI DUP1 PUSH4 0x2EB2C2D6 EQ PUSH2 0x1F7 JUMPI DUP1 PUSH4 0x4E1273F4 EQ PUSH2 0x213 JUMPI DUP1 PUSH4 0x4F558E79 EQ PUSH2 0x243 JUMPI DUP1 PUSH4 0x6B20C454 EQ PUSH2 0x273 JUMPI DUP1 PUSH4 0x711953EF EQ PUSH2 0x28F JUMPI PUSH2 0x129 JUMP JUMPDEST DUP1 PUSH3 0xFDD58E EQ PUSH2 0x12D JUMPI DUP1 PUSH4 0x1FFC9A7 EQ PUSH2 0x15D JUMPI DUP1 PUSH4 0xE89341C EQ PUSH2 0x18D JUMPI DUP1 PUSH4 0x18160DDD EQ PUSH2 0x1BD JUMPI DUP1 PUSH4 0x1F7FDFFA EQ PUSH2 0x1DB JUMPI JUMPDEST PUSH0 DUP1 REVERT JUMPDEST PUSH2 0x147 PUSH1 0x4 DUP1 CALLDATASIZE SUB DUP2 ADD SWAP1 PUSH2 0x142 SWAP2 SWAP1 PUSH2 0x2006 JUMP JUMPDEST PUSH2 0x3DD JUMP JUMPDEST PUSH1 0x40 MLOAD PUSH2 0x154 SWAP2 SWAP1 PUSH2 0x2053 JUMP JUMPDEST PUSH1 0x40 MLOAD DUP1 SWAP2 SUB SWAP1 RETURN JUMPDEST PUSH2 0x177 PUSH1 0x4 DUP1 CALLDATASIZE SUB DUP2 ADD SWAP1 PUSH2 0x172 SWAP2 SWAP1 PUSH2 0x20C1 JUMP JUMPDEST PUSH2 0x432 JUMP JUMPDEST PUSH1 0x40 MLOAD PUSH2 0x184 SWAP2 SWAP1 PUSH2 0x2106 JUMP JUMPDEST PUSH1 0x40 MLOAD DUP1 SWAP2 SUB SWAP1 RETURN JUMPDEST PUSH2 0x1A7 PUSH1 0x4 DUP1 CALLDATASIZE SUB DUP2 ADD SWAP1 PUSH2 0x1A2 SWAP2 SWAP1 PUSH2 0x211F JUMP JUMPDEST PUSH2 0x513 JUMP JUMPDEST PUSH1 0x40 MLOAD PUSH2 0x1B4 SWAP2 SWAP1 PUSH2 0x21D4 JUMP JUMPDEST PUSH1 0x40 MLOAD DUP1 SWAP2 SUB SWAP1 RETURN JUMPDEST PUSH2 0x1C5 PUSH2 0x5A5 JUMP JUMPDEST PUSH1 0x40 MLOAD PUSH2 0x1D2 SWAP2 SWAP1 PUSH2 0x2053 JUMP JUMPDEST PUSH1 0x40 MLOAD DUP1 SWAP2 SUB SWAP1 RETURN JUMPDEST PUSH2 0x1F5 PUSH1 0x4 DUP1 CALLDATASIZE SUB DUP2 ADD SWAP1 PUSH2 0x1F0 SWAP2 SWAP1 PUSH2 0x23E4 JUMP JUMPDEST PUSH2 0x5AE JUMP JUMPDEST STOP JUMPDEST PUSH2 0x211 PUSH1 0x4 DUP1 CALLDATASIZE SUB DUP2 ADD SWAP1 PUSH2 0x20C SWAP2 SWAP1 PUSH2 0x249C JUMP JUMPDEST PUSH2 0x6DE JUMP JUMPDEST STOP JUMPDEST PUSH2 0x22D PUSH1 0x4 DUP1 CALLDATASIZE SUB DUP2 ADD SWAP1 PUSH2 0x228 SWAP2 SWAP1 PUSH2 0x2627 JUMP JUMPDEST PUSH2 0x785 JUMP JUMPDEST PUSH1 0x40 MLOAD PUSH2 0x23A SWAP2 SWAP1 PUSH2 0x2754 JUMP JUMPDEST PUSH1 0x40 MLOAD DUP1 SWAP2 SUB SWAP1 RETURN JUMPDEST PUSH2 0x25D PUSH1 0x4 DUP1 CALLDATASIZE SUB DUP2 ADD SWAP1 PUSH2 0x258 SWAP2 SWAP1 PUSH2 0x211F JUMP JUMPDEST PUSH2 0x892 JUMP JUMPDEST PUSH1 0x40 MLOAD PUSH2 0x26A SWAP2 SWAP1 PUSH2 0x2106 JUMP JUMPDEST PUSH1 0x40 MLOAD DUP1 SWAP2 SUB SWAP1 RETURN JUMPDEST PUSH2 0x28D PUSH1 0x4 DUP1 CALLDATASIZE SUB DUP2 ADD SWAP1 PUSH2 0x288 SWAP2 SWAP1 PUSH2 0x2774 JUMP JUMPDEST PUSH2 0x8A5 JUMP JUMPDEST STOP JUMPDEST PUSH2 0x2A9 PUSH1 0x4 DUP1 CALLDATASIZE SUB DUP2 ADD SWAP1 PUSH2 0x2A4 SWAP2 SWAP1 PUSH2 0x27FC JUMP JUMPDEST PUSH2 0x951 JUMP JUMPDEST STOP JUMPDEST PUSH2 0x2B3 PUSH2 0xA2B JUMP JUMPDEST STOP JUMPDEST PUSH2 0x2CF PUSH1 0x4 DUP1 CALLDATASIZE SUB DUP2 ADD SWAP1 PUSH2 0x2CA SWAP2 SWAP1 PUSH2 0x2827 JUMP JUMPDEST PUSH2 0xA3E JUMP JUMPDEST STOP JUMPDEST PUSH2 0x2D9 PUSH2 0xB6E JUMP JUMPDEST PUSH1 0x40 MLOAD PUSH2 0x2E6 SWAP2 SWAP1 PUSH2 0x28B6 JUMP JUMPDEST PUSH1 0x40 MLOAD DUP1 SWAP2 SUB SWAP1 RETURN JUMPDEST PUSH2 0x2F7 PUSH2 0xB96 JUMP JUMPDEST PUSH1 0x40 MLOAD PUSH2 0x304 SWAP2 SWAP1 PUSH2 0x28B6 JUMP JUMPDEST PUSH1 0x40 MLOAD DUP1 SWAP2 SUB SWAP1 RETURN JUMPDEST PUSH2 0x327 PUSH1 0x4 DUP1 CALLDATASIZE SUB DUP2 ADD SWAP1 PUSH2 0x322 SWAP2 SWAP1 PUSH2 0x28F9 JUMP JUMPDEST PUSH2 0xBBB JUMP JUMPDEST STOP JUMPDEST PUSH2 0x343 PUSH1 0x4 DUP1 CALLDATASIZE SUB DUP2 ADD SWAP1 PUSH2 0x33E SWAP2 SWAP1 PUSH2 0x211F JUMP JUMPDEST PUSH2 0xBD1 JUMP JUMPDEST PUSH1 0x40 MLOAD PUSH2 0x350 SWAP2 SWAP1 PUSH2 0x2053 JUMP JUMPDEST PUSH1 0x40 MLOAD DUP1 SWAP2 SUB SWAP1 RETURN JUMPDEST PUSH2 0x373 PUSH1 0x4 DUP1 CALLDATASIZE SUB DUP2 ADD SWAP1 PUSH2 0x36E SWAP2 SWAP1 PUSH2 0x2937 JUMP JUMPDEST PUSH2 0xBEB JUMP JUMPDEST PUSH1 0x40 MLOAD PUSH2 0x380 SWAP2 SWAP1 PUSH2 0x2106 JUMP JUMPDEST PUSH1 0x40 MLOAD DUP1 SWAP2 SUB SWAP1 RETURN JUMPDEST PUSH2 0x3A3 PUSH1 0x4 DUP1 CALLDATASIZE SUB DUP2 ADD SWAP1 PUSH2 0x39E SWAP2 SWAP1 PUSH2 0x2975 JUMP JUMPDEST PUSH2 0xC79 JUMP JUMPDEST STOP JUMPDEST PUSH2 0x3BF PUSH1 0x4 DUP1 CALLDATASIZE SUB DUP2 ADD SWAP1 PUSH2 0x3BA SWAP2 SWAP1 PUSH2 0x27FC JUMP JUMPDEST PUSH2 0xD20 JUMP JUMPDEST STOP JUMPDEST PUSH2 0x3DB PUSH1 0x4 DUP1 CALLDATASIZE SUB DUP2 ADD SWAP1 PUSH2 0x3D6 SWAP2 SWAP1 PUSH2 0x2A08 JUMP JUMPDEST PUSH2 0xDA4 JUMP JUMPDEST STOP JUMPDEST PUSH0 DUP1 PUSH0 DUP4 DUP2 MSTORE PUSH1 0x20 ADD SWAP1 DUP2 MSTORE PUSH1 0x20 ADD PUSH0 KECCAK256 PUSH0 DUP5 PUSH20 0xFFFFFFFFFFFFFFFFFFFFFFFFFFFFFFFFFFFFFFFF AND PUSH20 0xFFFFFFFFFFFFFFFFFFFFFFFFFFFFFFFFFFFFFFFF AND DUP2 MSTORE PUSH1 0x20 ADD SWAP1 DUP2 MSTORE PUSH1 0x20 ADD PUSH0 KECCAK256 SLOAD SWAP1 POP SWAP3 SWAP2 POP POP JUMP JUMPDEST PUSH0 PUSH32 0xD9B67A2600000000000000000000000000000000000000000000000000000000 PUSH28 0xFFFFFFFFFFFFFFFFFFFFFFFFFFFFFFFFFFFFFFFFFFFFFFFFFFFFFFFF NOT AND DUP3 PUSH28 0xFFFFFFFFFFFFFFFFFFFFFFFFFFFFFFFFFFFFFFFFFFFFFFFFFFFFFFFF NOT AND EQ DUP1 PUSH2 0x4FC JUMPI POP PUSH32 0xE89341C00000000000000000000000000000000000000000000000000000000 PUSH28 0xFFFFFFFFFFFFFFFFFFFFFFFFFFFFFFFFFFFFFFFFFFFFFFFFFFFFFFFF NOT AND DUP3 PUSH28 0xFFFFFFFFFFFFFFFFFFFFFFFFFFFFFFFFFFFFFFFFFFFFFFFFFFFFFFFF NOT AND EQ JUMPDEST DUP1 PUSH2 0x50C JUMPI POP PUSH2 0x50B DUP3 PUSH2 0xE50 JUMP JUMPDEST JUMPDEST SWAP1 POP SWAP2 SWAP1 POP JUMP JUMPDEST PUSH1 0x60 PUSH1 0x2 DUP1 SLOAD PUSH2 0x522 SWAP1 PUSH2 0x2A85 JUMP JUMPDEST DUP1 PUSH1 0x1F ADD PUSH1 0x20 DUP1 SWAP2 DIV MUL PUSH1 0x20 ADD PUSH1 0x40 MLOAD SWAP1 DUP2 ADD PUSH1 0x40 MSTORE DUP1 SWAP3 SWAP2 SWAP1 DUP2 DUP2 MSTORE PUSH1 0x20 ADD DUP3 DUP1 SLOAD PUSH2 0x54E SWAP1 PUSH2 0x2A85 JUMP JUMPDEST DUP1 ISZERO PUSH2 0x599 JUMPI DUP1 PUSH1 0x1F LT PUSH2 0x570 JUMPI PUSH2 0x100 DUP1 DUP4 SLOAD DIV MUL DUP4 MSTORE SWAP2 PUSH1 0x20 ADD SWAP2 PUSH2 0x599 JUMP JUMPDEST DUP3 ADD SWAP2 SWAP1 PUSH0 MSTORE PUSH1 0x20 PUSH0 KECCAK256 SWAP1 JUMPDEST DUP2 SLOAD DUP2 MSTORE SWAP1 PUSH1 0x1 ADD SWAP1 PUSH1 0x20 ADD DUP1 DUP4 GT PUSH2 0x57C JUMPI DUP3 SWAP1 SUB PUSH1 0x1F AND DUP3 ADD SWAP2 JUMPDEST POP POP POP POP POP SWAP1 POP SWAP2 SWAP1 POP JUMP JUMPDEST PUSH0 PUSH1 0x5 SLOAD SWAP1 POP SWAP1 JUMP JUMPDEST PUSH0 PUSH20 0xFFFFFFFFFFFFFFFFFFFFFFFFFFFFFFFFFFFFFFFF AND PUSH1 0x6 PUSH0 SWAP1 SLOAD SWAP1 PUSH2 0x100 EXP SWAP1 DIV PUSH20 0xFFFFFFFFFFFFFFFFFFFFFFFFFFFFFFFFFFFFFFFF AND PUSH20 0xFFFFFFFFFFFFFFFFFFFFFFFFFFFFFFFFFFFFFFFF AND SUB PUSH2 0x63D JUMPI PUSH1 0x40 MLOAD PUSH32 0x8C379A000000000000000000000000000000000000000000000000000000000 DUP2 MSTORE PUSH1 0x4 ADD PUSH2 0x634 SWAP1 PUSH2 0x2AFF JUMP JUMPDEST PUSH1 0x40 MLOAD DUP1 SWAP2 SUB SWAP1 REVERT JUMPDEST PUSH1 0x6 PUSH0 SWAP1 SLOAD SWAP1 PUSH2 0x100 EXP SWAP1 DIV PUSH20 0xFFFFFFFFFFFFFFFFFFFFFFFFFFFFFFFFFFFFFFFF AND PUSH20 0xFFFFFFFFFFFFFFFFFFFFFFFFFFFFFFFFFFFFFFFF AND CALLER PUSH20 0xFFFFFFFFFFFFFFFFFFFFFFFFFFFFFFFFFFFFFFFF AND EQ PUSH2 0x6CC JUMPI PUSH1 0x40 MLOAD PUSH32 0x8C379A000000000000000000000000000000000000000000000000000000000 DUP2 MSTORE PUSH1 0x4 ADD PUSH2 0x6C3 SWAP1 PUSH2 0x2B67 JUMP JUMPDEST PUSH1 0x40 MLOAD DUP1 SWAP2 SUB SWAP1 REVERT JUMPDEST PUSH2 0x6D8 DUP5 DUP5 DUP5 DUP5 PUSH2 0xEB9 JUMP JUMPDEST POP POP POP POP JUMP JUMPDEST PUSH0 PUSH2 0x6E7 PUSH2 0xF3C JUMP JUMPDEST SWAP1 POP DUP1 PUSH20 0xFFFFFFFFFFFFFFFFFFFFFFFFFFFFFFFFFFFFFFFF AND DUP7 PUSH20 0xFFFFFFFFFFFFFFFFFFFFFFFFFFFFFFFFFFFFFFFF AND EQ ISZERO DUP1 ISZERO PUSH2 0x72C JUMPI POP PUSH2 0x72A DUP7 DUP3 PUSH2 0xBEB JUMP JUMPDEST ISZERO JUMPDEST ISZERO PUSH2 0x770 JUMPI DUP1 DUP7 PUSH1 0x40 MLOAD PUSH32 0xE237D92200000000000000000000000000000000000000000000000000000000 DUP2 MSTORE PUSH1 0x4 ADD PUSH2 0x767 SWAP3 SWAP2 SWAP1 PUSH2 0x2B85 JUMP JUMPDEST PUSH1 0x40 MLOAD DUP1 SWAP2 SUB SWAP1 REVERT JUMPDEST PUSH2 0x77D DUP7 DUP7 DUP7 DUP7 DUP7 PUSH2 0xF43 JUMP JUMPDEST POP POP POP POP POP POP JUMP JUMPDEST PUSH1 0x60 DUP2 MLOAD DUP4 MLOAD EQ PUSH2 0x7D1 JUMPI DUP2 MLOAD DUP4 MLOAD PUSH1 0x40 MLOAD PUSH32 0x5B05999100000000000000000000000000000000000000000000000000000000 DUP2 MSTORE PUSH1 0x4 ADD PUSH2 0x7C8 SWAP3 SWAP2 SWAP1 PUSH2 0x2BAC JUMP JUMPDEST PUSH1 0x40 MLOAD DUP1 SWAP2 SUB SWAP1 REVERT JUMPDEST PUSH0 DUP4 MLOAD PUSH8 0xFFFFFFFFFFFFFFFF DUP2 GT ISZERO PUSH2 0x7ED JUMPI PUSH2 0x7EC PUSH2 0x21F8 JUMP JUMPDEST JUMPDEST PUSH1 0x40 MLOAD SWAP1 DUP1 DUP3 MSTORE DUP1 PUSH1 0x20 MUL PUSH1 0x20 ADD DUP3 ADD PUSH1 0x40 MSTORE DUP1 ISZERO PUSH2 0x81B JUMPI DUP2 PUSH1 0x20 ADD PUSH1 0x20 DUP3 MUL DUP1 CALLDATASIZE DUP4 CALLDATACOPY DUP1 DUP3 ADD SWAP2 POP POP SWAP1 POP JUMPDEST POP SWAP1 POP PUSH0 JUMPDEST DUP5 MLOAD DUP2 LT ISZERO PUSH2 0x887 JUMPI PUSH2 0x857 PUSH2 0x83F DUP3 DUP8 PUSH2 0x1037 SWAP1 SWAP2 SWAP1 PUSH4 0xFFFFFFFF AND JUMP JUMPDEST PUSH2 0x852 DUP4 DUP8 PUSH2 0x104A SWAP1 SWAP2 SWAP1 PUSH4 0xFFFFFFFF AND JUMP JUMPDEST PUSH2 0x3DD JUMP JUMPDEST DUP3 DUP3 DUP2 MLOAD DUP2 LT PUSH2 0x86A JUMPI PUSH2 0x869 PUSH2 0x2BD3 JUMP JUMPDEST JUMPDEST PUSH1 0x20 MUL PUSH1 0x20 ADD ADD DUP2 DUP2 MSTORE POP POP DUP1 PUSH2 0x880 SWAP1 PUSH2 0x2C2D JUMP JUMPDEST SWAP1 POP PUSH2 0x820 JUMP JUMPDEST POP DUP1 SWAP2 POP POP SWAP3 SWAP2 POP POP JUMP JUMPDEST PUSH0 DUP1 PUSH2 0x89D DUP4 PUSH2 0xBD1 JUMP JUMPDEST GT SWAP1 POP SWAP2 SWAP1 POP JUMP JUMPDEST PUSH2 0x8AD PUSH2 0xF3C JUMP JUMPDEST PUSH20 0xFFFFFFFFFFFFFFFFFFFFFFFFFFFFFFFFFFFFFFFF AND DUP4 PUSH20 0xFFFFFFFFFFFFFFFFFFFFFFFFFFFFFFFFFFFFFFFF AND EQ ISZERO DUP1 ISZERO PUSH2 0x8F6 JUMPI POP PUSH2 0x8F4 DUP4 PUSH2 0x8EF PUSH2 0xF3C JUMP JUMPDEST PUSH2 0xBEB JUMP JUMPDEST ISZERO JUMPDEST ISZERO PUSH2 0x941 JUMPI PUSH2 0x903 PUSH2 0xF3C JUMP JUMPDEST DUP4 PUSH1 0x40 MLOAD PUSH32 0xE237D92200000000000000000000000000000000000000000000000000000000 DUP2 MSTORE PUSH1 0x4 ADD PUSH2 0x938 SWAP3 SWAP2 SWAP1 PUSH2 0x2B85 JUMP JUMPDEST PUSH1 0x40 MLOAD DUP1 SWAP2 SUB SWAP1 REVERT JUMPDEST PUSH2 0x94C DUP4 DUP4 DUP4 PUSH2 0x105D JUMP JUMPDEST POP POP POP JUMP JUMPDEST PUSH2 0x959 PUSH2 0x10ED JUMP JUMPDEST PUSH0 PUSH20 0xFFFFFFFFFFFFFFFFFFFFFFFFFFFFFFFFFFFFFFFF AND PUSH1 0x6 PUSH0 SWAP1 SLOAD SWAP1 PUSH2 0x100 EXP SWAP1 DIV PUSH20 0xFFFFFFFFFFFFFFFFFFFFFFFFFFFFFFFFFFFFFFFF AND PUSH20 0xFFFFFFFFFFFFFFFFFFFFFFFFFFFFFFFFFFFFFFFF AND EQ PUSH2 0x9E8 JUMPI PUSH1 0x40 MLOAD PUSH32 0x8C379A000000000000000000000000000000000000000000000000000000000 DUP2 MSTORE PUSH1 0x4 ADD PUSH2 0x9DF SWAP1 PUSH2 0x2CBE JUMP JUMPDEST PUSH1 0x40 MLOAD DUP1 SWAP2 SUB SWAP1 REVERT JUMPDEST DUP1 PUSH1 0x6 PUSH0 PUSH2 0x100 EXP DUP2 SLOAD DUP2 PUSH20 0xFFFFFFFFFFFFFFFFFFFFFFFFFFFFFFFFFFFFFFFF MUL NOT AND SWAP1 DUP4 PUSH20 0xFFFFFFFFFFFFFFFFFFFFFFFFFFFFFFFFFFFFFFFF AND MUL OR SWAP1 SSTORE POP POP JUMP JUMPDEST PUSH2 0xA33 PUSH2 0x10ED JUMP JUMPDEST PUSH2 0xA3C PUSH0 PUSH2 0x1174 JUMP JUMPDEST JUMP JUMPDEST PUSH0 PUSH20 0xFFFFFFFFFFFFFFFFFFFFFFFFFFFFFFFFFFFFFFFF AND PUSH1 0x6 PUSH0 SWAP1 SLOAD SWAP1 PUSH2 0x100 EXP SWAP1 DIV PUSH20 0xFFFFFFFFFFFFFFFFFFFFFFFFFFFFFFFFFFFFFFFF AND PUSH20 0xFFFFFFFFFFFFFFFFFFFFFFFFFFFFFFFFFFFFFFFF AND SUB PUSH2 0xACD JUMPI PUSH1 0x40 MLOAD PUSH32 0x8C379A000000000000000000000000000000000000000000000000000000000 DUP2 MSTORE PUSH1 0x4 ADD PUSH2 0xAC4 SWAP1 PUSH2 0x2AFF JUMP JUMPDEST PUSH1 0x40 MLOAD DUP1 SWAP2 SUB SWAP1 REVERT JUMPDEST PUSH1 0x6 PUSH0 SWAP1 SLOAD SWAP1 PUSH2 0x100 EXP SWAP1 DIV PUSH20 0xFFFFFFFFFFFFFFFFFFFFFFFFFFFFFFFFFFFFFFFF AND PUSH20 0xFFFFFFFFFFFFFFFFFFFFFFFFFFFFFFFFFFFFFFFF AND CALLER PUSH20 0xFFFFFFFFFFFFFFFFFFFFFFFFFFFFFFFFFFFFFFFF AND EQ PUSH2 0xB5C JUMPI PUSH1 0x40 MLOAD PUSH32 0x8C379A000000000000000000000000000000000000000000000000000000000 DUP2 MSTORE PUSH1 0x4 ADD PUSH2 0xB53 SWAP1 PUSH2 0x2B67 JUMP JUMPDEST PUSH1 0x40 MLOAD DUP1 SWAP2 SUB SWAP1 REVERT JUMPDEST PUSH2 0xB68 DUP5 DUP5 DUP5 DUP5 PUSH2 0x1237 JUMP JUMPDEST POP POP POP POP JUMP JUMPDEST PUSH0 PUSH1 0x3 PUSH0 SWAP1 SLOAD SWAP1 PUSH2 0x100 EXP SWAP1 DIV PUSH20 0xFFFFFFFFFFFFFFFFFFFFFFFFFFFFFFFFFFFFFFFF AND SWAP1 POP SWAP1 JUMP JUMPDEST PUSH1 0x6 PUSH0 SWAP1 SLOAD SWAP1 PUSH2 0x100 EXP SWAP1 DIV PUSH20 0xFFFFFFFFFFFFFFFFFFFFFFFFFFFFFFFFFFFFFFFF AND DUP2 JUMP JUMPDEST PUSH2 0xBCD PUSH2 0xBC6 PUSH2 0xF3C JUMP JUMPDEST DUP4 DUP4 PUSH2 0x12CC JUMP JUMPDEST POP POP JUMP JUMPDEST PUSH0 PUSH1 0x4 PUSH0 DUP4 DUP2 MSTORE PUSH1 0x20 ADD SWAP1 DUP2 MSTORE PUSH1 0x20 ADD PUSH0 KECCAK256 SLOAD SWAP1 POP SWAP2 SWAP1 POP JUMP JUMPDEST PUSH0 PUSH1 0x1 PUSH0 DUP5 PUSH20 0xFFFFFFFFFFFFFFFFFFFFFFFFFFFFFFFFFFFFFFFF AND PUSH20 0xFFFFFFFFFFFFFFFFFFFFFFFFFFFFFFFFFFFFFFFF AND DUP2 MSTORE PUSH1 0x20 ADD SWAP1 DUP2 MSTORE PUSH1 0x20 ADD PUSH0 KECCAK256 PUSH0 DUP4 PUSH20 0xFFFFFFFFFFFFFFFFFFFFFFFFFFFFFFFFFFFFFFFF AND PUSH20 0xFFFFFFFFFFFFFFFFFFFFFFFFFFFFFFFFFFFFFFFF AND DUP2 MSTORE PUSH1 0x20 ADD SWAP1 DUP2 MSTORE PUSH1 0x20 ADD PUSH0 KECCAK256 PUSH0 SWAP1 SLOAD SWAP1 PUSH2 0x100 EXP SWAP1 DIV PUSH1 0xFF AND SWAP1 POP SWAP3 SWAP2 POP POP JUMP JUMPDEST PUSH0 PUSH2 0xC82 PUSH2 0xF3C JUMP JUMPDEST SWAP1 POP DUP1 PUSH20 0xFFFFFFFFFFFFFFFFFFFFFFFFFFFFFFFFFFFFFFFF AND DUP7 PUSH20 0xFFFFFFFFFFFFFFFFFFFFFFFFFFFFFFFFFFFFFFFF AND EQ ISZERO DUP1 ISZERO PUSH2 0xCC7 JUMPI POP PUSH2 0xCC5 DUP7 DUP3 PUSH2 0xBEB JUMP JUMPDEST ISZERO JUMPDEST ISZERO PUSH2 0xD0B JUMPI DUP1 DUP7 PUSH1 0x40 MLOAD PUSH32 0xE237D92200000000000000000000000000000000000000000000000000000000 DUP2 MSTORE PUSH1 0x4 ADD PUSH2 0xD02 SWAP3 SWAP2 SWAP1 PUSH2 0x2B85 JUMP JUMPDEST PUSH1 0x40 MLOAD DUP1 SWAP2 SUB SWAP1 REVERT JUMPDEST PUSH2 0xD18 DUP7 DUP7 DUP7 DUP7 DUP7 PUSH2 0x1435 JUMP JUMPDEST POP POP POP POP POP POP JUMP JUMPDEST PUSH2 0xD28 PUSH2 0x10ED JUMP JUMPDEST PUSH0 PUSH20 0xFFFFFFFFFFFFFFFFFFFFFFFFFFFFFFFFFFFFFFFF AND DUP2 PUSH20 0xFFFFFFFFFFFFFFFFFFFFFFFFFFFFFFFFFFFFFFFF AND SUB PUSH2 0xD98 JUMPI PUSH0 PUSH1 0x40 MLOAD PUSH32 0x1E4FBDF700000000000000000000000000000000000000000000000000000000 DUP2 MSTORE PUSH1 0x4 ADD PUSH2 0xD8F SWAP2 SWAP1 PUSH2 0x28B6 JUMP JUMPDEST PUSH1 0x40 MLOAD DUP1 SWAP2 SUB SWAP1 REVERT JUMPDEST PUSH2 0xDA1 DUP2 PUSH2 0x1174 JUMP JUMPDEST POP JUMP JUMPDEST PUSH2 0xDAC PUSH2 0xF3C JUMP JUMPDEST PUSH20 0xFFFFFFFFFFFFFFFFFFFFFFFFFFFFFFFFFFFFFFFF AND DUP4 PUSH20 0xFFFFFFFFFFFFFFFFFFFFFFFFFFFFFFFFFFFFFFFF AND EQ ISZERO DUP1 ISZERO PUSH2 0xDF5 JUMPI POP PUSH2 0xDF3 DUP4 PUSH2 0xDEE PUSH2 0xF3C JUMP JUMPDEST PUSH2 0xBEB JUMP JUMPDEST ISZERO JUMPDEST ISZERO PUSH2 0xE40 JUMPI PUSH2 0xE02 PUSH2 0xF3C JUMP JUMPDEST DUP4 PUSH1 0x40 MLOAD PUSH32 0xE237D92200000000000000000000000000000000000000000000000000000000 DUP2 MSTORE PUSH1 0x4 ADD PUSH2 0xE37 SWAP3 SWAP2 SWAP1 PUSH2 0x2B85 JUMP JUMPDEST PUSH1 0x40 MLOAD DUP1 SWAP2 SUB SWAP1 REVERT JUMPDEST PUSH2 0xE4B DUP4 DUP4 DUP4 PUSH2 0x153B JUMP JUMPDEST POP POP POP JUMP JUMPDEST PUSH0 PUSH32 0x1FFC9A700000000000000000000000000000000000000000000000000000000 PUSH28 0xFFFFFFFFFFFFFFFFFFFFFFFFFFFFFFFFFFFFFFFFFFFFFFFFFFFFFFFF NOT AND DUP3 PUSH28 0xFFFFFFFFFFFFFFFFFFFFFFFFFFFFFFFFFFFFFFFFFFFFFFFFFFFFFFFF NOT AND EQ SWAP1 POP SWAP2 SWAP1 POP JUMP JUMPDEST PUSH0 PUSH20 0xFFFFFFFFFFFFFFFFFFFFFFFFFFFFFFFFFFFFFFFF AND DUP5 PUSH20 0xFFFFFFFFFFFFFFFFFFFFFFFFFFFFFFFFFFFFFFFF AND SUB PUSH2 0xF29 JUMPI PUSH0 PUSH1 0x40 MLOAD PUSH32 0x57F447CE00000000000000000000000000000000000000000000000000000000 DUP2 MSTORE PUSH1 0x4 ADD PUSH2 0xF20 SWAP2 SWAP1 PUSH2 0x28B6 JUMP JUMPDEST PUSH1 0x40 MLOAD DUP1 SWAP2 SUB SWAP1 REVERT JUMPDEST PUSH2 0xF36 PUSH0 DUP6 DUP6 DUP6 DUP6 PUSH2 0x15DD JUMP JUMPDEST POP POP POP POP JUMP JUMPDEST PUSH0 CALLER SWAP1 POP SWAP1 JUMP JUMPDEST PUSH0 PUSH20 0xFFFFFFFFFFFFFFFFFFFFFFFFFFFFFFFFFFFFFFFF AND DUP5 PUSH20 0xFFFFFFFFFFFFFFFFFFFFFFFFFFFFFFFFFFFFFFFF AND SUB PUSH2 0xFB3 JUMPI PUSH0 PUSH1 0x40 MLOAD PUSH32 0x57F447CE00000000000000000000000000000000000000000000000000000000 DUP2 MSTORE PUSH1 0x4 ADD PUSH2 0xFAA SWAP2 SWAP1 PUSH2 0x28B6 JUMP JUMPDEST PUSH1 0x40 MLOAD DUP1 SWAP2 SUB SWAP1 REVERT JUMPDEST PUSH0 PUSH20 0xFFFFFFFFFFFFFFFFFFFFFFFFFFFFFFFFFFFFFFFF AND DUP6 PUSH20 0xFFFFFFFFFFFFFFFFFFFFFFFFFFFFFFFFFFFFFFFF AND SUB PUSH2 0x1023 JUMPI PUSH0 PUSH1 0x40 MLOAD PUSH32 0x1A8351400000000000000000000000000000000000000000000000000000000 DUP2 MSTORE PUSH1 0x4 ADD PUSH2 0x101A SWAP2 SWAP1 PUSH2 0x28B6 JUMP JUMPDEST PUSH1 0x40 MLOAD DUP1 SWAP2 SUB SWAP1 REVERT JUMPDEST PUSH2 0x1030 DUP6 DUP6 DUP6 DUP6 DUP6 PUSH2 0x15DD JUMP JUMPDEST POP POP POP POP POP JUMP JUMPDEST PUSH0 PUSH1 0x20 DUP3 MUL PUSH1 0x20 DUP5 ADD ADD MLOAD SWAP1 POP SWAP3 SWAP2 POP POP JUMP JUMPDEST PUSH0 PUSH1 0x20 DUP3 MUL PUSH1 0x20 DUP5 ADD ADD MLOAD SWAP1 POP SWAP3 SWAP2 POP POP JUMP JUMPDEST PUSH0 PUSH20 0xFFFFFFFFFFFFFFFFFFFFFFFFFFFFFFFFFFFFFFFF AND DUP4 PUSH20 0xFFFFFFFFFFFFFFFFFFFFFFFFFFFFFFFFFFFFFFFF AND SUB PUSH2 0x10CD JUMPI PUSH0 PUSH1 0x40 MLOAD PUSH32 0x1A8351400000000000000000000000000000000000000000000000000000000 DUP2 MSTORE PUSH1 0x4 ADD PUSH2 0x10C4 SWAP2 SWAP1 PUSH2 0x28B6 JUMP JUMPDEST PUSH1 0x40 MLOAD DUP1 SWAP2 SUB SWAP1 REVERT JUMPDEST PUSH2 0x10E8 DUP4 PUSH0 DUP5 DUP5 PUSH1 0x40 MLOAD DUP1 PUSH1 0x20 ADD PUSH1 0x40 MSTORE DUP1 PUSH0 DUP2 MSTORE POP PUSH2 0x15DD JUMP JUMPDEST POP POP POP JUMP JUMPDEST PUSH2 0x10F5 PUSH2 0xF3C JUMP JUMPDEST PUSH20 0xFFFFFFFFFFFFFFFFFFFFFFFFFFFFFFFFFFFFFFFF AND PUSH2 0x1113 PUSH2 0xB6E JUMP JUMPDEST PUSH20 0xFFFFFFFFFFFFFFFFFFFFFFFFFFFFFFFFFFFFFFFF AND EQ PUSH2 0x1172 JUMPI PUSH2 0x1136 PUSH2 0xF3C JUMP JUMPDEST PUSH1 0x40 MLOAD PUSH32 0x118CDAA700000000000000000000000000000000000000000000000000000000 DUP2 MSTORE PUSH1 0x4 ADD PUSH2 0x1169 SWAP2 SWAP1 PUSH2 0x28B6 JUMP JUMPDEST PUSH1 0x40 MLOAD DUP1 SWAP2 SUB SWAP1 REVERT JUMPDEST JUMP JUMPDEST PUSH0 PUSH1 0x3 PUSH0 SWAP1 SLOAD SWAP1 PUSH2 0x100 EXP SWAP1 DIV PUSH20 0xFFFFFFFFFFFFFFFFFFFFFFFFFFFFFFFFFFFFFFFF AND SWAP1 POP DUP2 PUSH1 0x3 PUSH0 PUSH2 0x100 EXP DUP2 SLOAD DUP2 PUSH20 0xFFFFFFFFFFFFFFFFFFFFFFFFFFFFFFFFFFFFFFFF MUL NOT AND SWAP1 DUP4 PUSH20 0xFFFFFFFFFFFFFFFFFFFFFFFFFFFFFFFFFFFFFFFF AND MUL OR SWAP1 SSTORE POP DUP2 PUSH20 0xFFFFFFFFFFFFFFFFFFFFFFFFFFFFFFFFFFFFFFFF AND DUP2 PUSH20 0xFFFFFFFFFFFFFFFFFFFFFFFFFFFFFFFFFFFFFFFF AND PUSH32 0x8BE0079C531659141344CD1FD0A4F28419497F9722A3DAAFE3B4186F6B6457E0 PUSH1 0x40 MLOAD PUSH1 0x40 MLOAD DUP1 SWAP2 SUB SWAP1 LOG3 POP POP JUMP JUMPDEST PUSH0 PUSH20 0xFFFFFFFFFFFFFFFFFFFFFFFFFFFFFFFFFFFFFFFF AND DUP5 PUSH20 0xFFFFFFFFFFFFFFFFFFFFFFFFFFFFFFFFFFFFFFFF AND SUB PUSH2 0x12A7 JUMPI PUSH0 PUSH1 0x40 MLOAD PUSH32 0x57F447CE00000000000000000000000000000000000000000000000000000000 DUP2 MSTORE PUSH1 0x4 ADD PUSH2 0x129E SWAP2 SWAP1 PUSH2 0x28B6 JUMP JUMPDEST PUSH1 0x40 MLOAD DUP1 SWAP2 SUB SWAP1 REVERT JUMPDEST PUSH0 DUP1 PUSH2 0x12B3 DUP6 DUP6 PUSH2 0x1689 JUMP JUMPDEST SWAP2 POP SWAP2 POP PUSH2 0x12C4 PUSH0 DUP8 DUP5 DUP5 DUP8 PUSH2 0x15DD JUMP JUMPDEST POP POP POP POP POP POP JUMP JUMPDEST PUSH0 PUSH20 0xFFFFFFFFFFFFFFFFFFFFFFFFFFFFFFFFFFFFFFFF AND DUP3 PUSH20 0xFFFFFFFFFFFFFFFFFFFFFFFFFFFFFFFFFFFFFFFF AND SUB PUSH2 0x133C JUMPI PUSH0 PUSH1 0x40 MLOAD PUSH32 0xCED3E10000000000000000000000000000000000000000000000000000000000 DUP2 MSTORE PUSH1 0x4 ADD PUSH2 0x1333 SWAP2 SWAP1 PUSH2 0x28B6 JUMP JUMPDEST PUSH1 0x40 MLOAD DUP1 SWAP2 SUB SWAP1 REVERT JUMPDEST DUP1 PUSH1 0x1 PUSH0 DUP6 PUSH20 0xFFFFFFFFFFFFFFFFFFFFFFFFFFFFFFFFFFFFFFFF AND PUSH20 0xFFFFFFFFFFFFFFFFFFFFFFFFFFFFFFFFFFFFFFFF AND DUP2 MSTORE PUSH1 0x20 ADD SWAP1 DUP2 MSTORE PUSH1 0x20 ADD PUSH0 KECCAK256 PUSH0 DUP5 PUSH20 0xFFFFFFFFFFFFFFFFFFFFFFFFFFFFFFFFFFFFFFFF AND PUSH20 0xFFFFFFFFFFFFFFFFFFFFFFFFFFFFFFFFFFFFFFFF AND DUP2 MSTORE PUSH1 0x20 ADD SWAP1 DUP2 MSTORE PUSH1 0x20 ADD PUSH0 KECCAK256 PUSH0 PUSH2 0x100 EXP DUP2 SLOAD DUP2 PUSH1 0xFF MUL NOT AND SWAP1 DUP4 ISZERO ISZERO MUL OR SWAP1 SSTORE POP DUP2 PUSH20 0xFFFFFFFFFFFFFFFFFFFFFFFFFFFFFFFFFFFFFFFF AND DUP4 PUSH20 0xFFFFFFFFFFFFFFFFFFFFFFFFFFFFFFFFFFFFFFFF AND PUSH32 0x17307EAB39AB6107E8899845AD3D59BD9653F200F220920489CA2B5937696C31 DUP4 PUSH1 0x40 MLOAD PUSH2 0x1428 SWAP2 SWAP1 PUSH2 0x2106 JUMP JUMPDEST PUSH1 0x40 MLOAD DUP1 SWAP2 SUB SWAP1 LOG3 POP POP POP JUMP JUMPDEST PUSH0 PUSH20 0xFFFFFFFFFFFFFFFFFFFFFFFFFFFFFFFFFFFFFFFF AND DUP5 PUSH20 0xFFFFFFFFFFFFFFFFFFFFFFFFFFFFFFFFFFFFFFFF AND SUB PUSH2 0x14A5 JUMPI PUSH0 PUSH1 0x40 MLOAD PUSH32 0x57F447CE00000000000000000000000000000000000000000000000000000000 DUP2 MSTORE PUSH1 0x4 ADD PUSH2 0x149C SWAP2 SWAP1 PUSH2 0x28B6 JUMP JUMPDEST PUSH1 0x40 MLOAD DUP1 SWAP2 SUB SWAP1 REVERT JUMPDEST PUSH0 PUSH20 0xFFFFFFFFFFFFFFFFFFFFFFFFFFFFFFFFFFFFFFFF AND DUP6 PUSH20 0xFFFFFFFFFFFFFFFFFFFFFFFFFFFFFFFFFFFFFFFF AND SUB PUSH2 0x1515 JUMPI PUSH0 PUSH1 0x40 MLOAD PUSH32 0x1A8351400000000000000000000000000000000000000000000000000000000 DUP2 MSTORE PUSH1 0x4 ADD PUSH2 0x150C SWAP2 SWAP1 PUSH2 0x28B6 JUMP JUMPDEST PUSH1 0x40 MLOAD DUP1 SWAP2 SUB SWAP1 REVERT JUMPDEST PUSH0 DUP1 PUSH2 0x1521 DUP6 DUP6 PUSH2 0x1689 JUMP JUMPDEST SWAP2 POP SWAP2 POP PUSH2 0x1532 DUP8 DUP8 DUP5 DUP5 DUP8 PUSH2 0x15DD JUMP JUMPDEST POP POP POP POP POP POP POP JUMP JUMPDEST PUSH0 PUSH20 0xFFFFFFFFFFFFFFFFFFFFFFFFFFFFFFFFFFFFFFFF AND DUP4 PUSH20 0xFFFFFFFFFFFFFFFFFFFFFFFFFFFFFFFFFFFFFFFF AND SUB PUSH2 0x15AB JUMPI PUSH0 PUSH1 0x40 MLOAD PUSH32 0x1A8351400000000000000000000000000000000000000000000000000000000 DUP2 MSTORE PUSH1 0x4 ADD PUSH2 0x15A2 SWAP2 SWAP1 PUSH2 0x28B6 JUMP JUMPDEST PUSH1 0x40 MLOAD DUP1 SWAP2 SUB SWAP1 REVERT JUMPDEST PUSH0 DUP1 PUSH2 0x15B7 DUP5 DUP5 PUSH2 0x1689 JUMP JUMPDEST SWAP2 POP SWAP2 POP PUSH2 0x15D6 DUP6 PUSH0 DUP5 DUP5 PUSH1 0x40 MLOAD DUP1 PUSH1 0x20 ADD PUSH1 0x40 MSTORE DUP1 PUSH0 DUP2 MSTORE POP PUSH2 0x15DD JUMP JUMPDEST POP POP POP POP POP JUMP JUMPDEST PUSH2 0x15E9 DUP6 DUP6 DUP6 DUP6 PUSH2 0x16B9 JUMP JUMPDEST PUSH0 PUSH20 0xFFFFFFFFFFFFFFFFFFFFFFFFFFFFFFFFFFFFFFFF AND DUP5 PUSH20 0xFFFFFFFFFFFFFFFFFFFFFFFFFFFFFFFFFFFFFFFF AND EQ PUSH2 0x1682 JUMPI PUSH0 PUSH2 0x1625 PUSH2 0xF3C JUMP JUMPDEST SWAP1 POP PUSH1 0x1 DUP5 MLOAD SUB PUSH2 0x1671 JUMPI PUSH0 PUSH2 0x1644 PUSH0 DUP7 PUSH2 0x104A SWAP1 SWAP2 SWAP1 PUSH4 0xFFFFFFFF AND JUMP JUMPDEST SWAP1 POP PUSH0 PUSH2 0x165A PUSH0 DUP7 PUSH2 0x104A SWAP1 SWAP2 SWAP1 PUSH4 0xFFFFFFFF AND JUMP JUMPDEST SWAP1 POP PUSH2 0x166A DUP4 DUP10 DUP10 DUP6 DUP6 DUP10 PUSH2 0x16CB JUMP JUMPDEST POP POP PUSH2 0x1680 JUMP JUMPDEST PUSH2 0x167F DUP2 DUP8 DUP8 DUP8 DUP8 DUP8 PUSH2 0x187A JUMP JUMPDEST JUMPDEST POP JUMPDEST POP POP POP POP POP JUMP JUMPDEST PUSH1 0x60 DUP1 PUSH1 0x40 MLOAD SWAP2 POP PUSH1 0x1 DUP3 MSTORE DUP4 PUSH1 0x20 DUP4 ADD MSTORE PUSH1 0x40 DUP3 ADD SWAP1 POP PUSH1 0x1 DUP2 MSTORE DUP3 PUSH1 0x20 DUP3 ADD MSTORE PUSH1 0x40 DUP2 ADD PUSH1 0x40 MSTORE SWAP3 POP SWAP3 SWAP1 POP JUMP JUMPDEST PUSH2 0x16C5 DUP5 DUP5 DUP5 DUP5 PUSH2 0x1A29 JUMP JUMPDEST POP POP POP POP JUMP JUMPDEST PUSH0 DUP5 PUSH20 0xFFFFFFFFFFFFFFFFFFFFFFFFFFFFFFFFFFFFFFFF AND EXTCODESIZE GT ISZERO PUSH2 0x1872 JUMPI DUP4 PUSH20 0xFFFFFFFFFFFFFFFFFFFFFFFFFFFFFFFFFFFFFFFF AND PUSH4 0xF23A6E61 DUP8 DUP8 DUP7 DUP7 DUP7 PUSH1 0x40 MLOAD DUP7 PUSH4 0xFFFFFFFF AND PUSH1 0xE0 SHL DUP2 MSTORE PUSH1 0x4 ADD PUSH2 0x172B SWAP6 SWAP5 SWAP4 SWAP3 SWAP2 SWAP1 PUSH2 0x2D2E JUMP JUMPDEST PUSH1 0x20 PUSH1 0x40 MLOAD DUP1 DUP4 SUB DUP2 PUSH0 DUP8 GAS CALL SWAP3 POP POP POP DUP1 ISZERO PUSH2 0x1766 JUMPI POP PUSH1 0x40 MLOAD RETURNDATASIZE PUSH1 0x1F NOT PUSH1 0x1F DUP3 ADD AND DUP3 ADD DUP1 PUSH1 0x40 MSTORE POP DUP2 ADD SWAP1 PUSH2 0x1763 SWAP2 SWAP1 PUSH2 0x2D9A JUMP JUMPDEST PUSH1 0x1 JUMPDEST PUSH2 0x17E7 JUMPI RETURNDATASIZE DUP1 PUSH0 DUP2 EQ PUSH2 0x1794 JUMPI PUSH1 0x40 MLOAD SWAP2 POP PUSH1 0x1F NOT PUSH1 0x3F RETURNDATASIZE ADD AND DUP3 ADD PUSH1 0x40 MSTORE RETURNDATASIZE DUP3 MSTORE RETURNDATASIZE PUSH0 PUSH1 0x20 DUP5 ADD RETURNDATACOPY PUSH2 0x1799 JUMP JUMPDEST PUSH1 0x60 SWAP2 POP JUMPDEST POP PUSH0 DUP2 MLOAD SUB PUSH2 0x17DF JUMPI DUP5 PUSH1 0x40 MLOAD PUSH32 0x57F447CE00000000000000000000000000000000000000000000000000000000 DUP2 MSTORE PUSH1 0x4 ADD PUSH2 0x17D6 SWAP2 SWAP1 PUSH2 0x28B6 JUMP JUMPDEST PUSH1 0x40 MLOAD DUP1 SWAP2 SUB SWAP1 REVERT JUMPDEST DUP1 MLOAD DUP2 PUSH1 0x20 ADD REVERT JUMPDEST PUSH4 0xF23A6E61 PUSH1 0xE0 SHL PUSH28 0xFFFFFFFFFFFFFFFFFFFFFFFFFFFFFFFFFFFFFFFFFFFFFFFFFFFFFFFF NOT AND DUP2 PUSH28 0xFFFFFFFFFFFFFFFFFFFFFFFFFFFFFFFFFFFFFFFFFFFFFFFFFFFFFFFF NOT AND EQ PUSH2 0x1870 JUMPI DUP5 PUSH1 0x40 MLOAD PUSH32 0x57F447CE00000000000000000000000000000000000000000000000000000000 DUP2 MSTORE PUSH1 0x4 ADD PUSH2 0x1867 SWAP2 SWAP1 PUSH2 0x28B6 JUMP JUMPDEST PUSH1 0x40 MLOAD DUP1 SWAP2 SUB SWAP1 REVERT JUMPDEST POP JUMPDEST POP POP POP POP POP POP JUMP JUMPDEST PUSH0 DUP5 PUSH20 0xFFFFFFFFFFFFFFFFFFFFFFFFFFFFFFFFFFFFFFFF AND EXTCODESIZE GT ISZERO PUSH2 0x1A21 JUMPI DUP4 PUSH20 0xFFFFFFFFFFFFFFFFFFFFFFFFFFFFFFFFFFFFFFFF AND PUSH4 0xBC197C81 DUP8 DUP8 DUP7 DUP7 DUP7 PUSH1 0x40 MLOAD DUP7 PUSH4 0xFFFFFFFF AND PUSH1 0xE0 SHL DUP2 MSTORE PUSH1 0x4 ADD PUSH2 0x18DA SWAP6 SWAP5 SWAP4 SWAP3 SWAP2 SWAP1 PUSH2 0x2DC5 JUMP JUMPDEST PUSH1 0x20 PUSH1 0x40 MLOAD DUP1 DUP4 SUB DUP2 PUSH0 DUP8 GAS CALL SWAP3 POP POP POP DUP1 ISZERO PUSH2 0x1915 JUMPI POP PUSH1 0x40 MLOAD RETURNDATASIZE PUSH1 0x1F NOT PUSH1 0x1F DUP3 ADD AND DUP3 ADD DUP1 PUSH1 0x40 MSTORE POP DUP2 ADD SWAP1 PUSH2 0x1912 SWAP2 SWAP1 PUSH2 0x2D9A JUMP JUMPDEST PUSH1 0x1 JUMPDEST PUSH2 0x1996 JUMPI RETURNDATASIZE DUP1 PUSH0 DUP2 EQ PUSH2 0x1943 JUMPI PUSH1 0x40 MLOAD SWAP2 POP PUSH1 0x1F NOT PUSH1 0x3F RETURNDATASIZE ADD AND DUP3 ADD PUSH1 0x40 MSTORE RETURNDATASIZE DUP3 MSTORE RETURNDATASIZE PUSH0 PUSH1 0x20 DUP5 ADD RETURNDATACOPY PUSH2 0x1948 JUMP JUMPDEST PUSH1 0x60 SWAP2 POP JUMPDEST POP PUSH0 DUP2 MLOAD SUB PUSH2 0x198E JUMPI DUP5 PUSH1 0x40 MLOAD PUSH32 0x57F447CE00000000000000000000000000000000000000000000000000000000 DUP2 MSTORE PUSH1 0x4 ADD PUSH2 0x1985 SWAP2 SWAP1 PUSH2 0x28B6 JUMP JUMPDEST PUSH1 0x40 MLOAD DUP1 SWAP2 SUB SWAP1 REVERT JUMPDEST DUP1 MLOAD DUP2 PUSH1 0x20 ADD REVERT JUMPDEST PUSH4 0xBC197C81 PUSH1 0xE0 SHL PUSH28 0xFFFFFFFFFFFFFFFFFFFFFFFFFFFFFFFFFFFFFFFFFFFFFFFFFFFFFFFF NOT AND DUP2 PUSH28 0xFFFFFFFFFFFFFFFFFFFFFFFFFFFFFFFFFFFFFFFFFFFFFFFFFFFFFFFF NOT AND EQ PUSH2 0x1A1F JUMPI DUP5 PUSH1 0x40 MLOAD PUSH32 0x57F447CE00000000000000000000000000000000000000000000000000000000 DUP2 MSTORE PUSH1 0x4 ADD PUSH2 0x1A16 SWAP2 SWAP1 PUSH2 0x28B6 JUMP JUMPDEST PUSH1 0x40 MLOAD DUP1 SWAP2 SUB SWAP1 REVERT JUMPDEST POP JUMPDEST POP POP POP POP POP POP JUMP JUMPDEST PUSH2 0x1A35 DUP5 DUP5 DUP5 DUP5 PUSH2 0x1BD2 JUMP JUMPDEST PUSH0 PUSH20 0xFFFFFFFFFFFFFFFFFFFFFFFFFFFFFFFFFFFFFFFF AND DUP5 PUSH20 0xFFFFFFFFFFFFFFFFFFFFFFFFFFFFFFFFFFFFFFFF AND SUB PUSH2 0x1B0E JUMPI PUSH0 DUP1 JUMPDEST DUP4 MLOAD DUP2 LT ISZERO PUSH2 0x1AF3 JUMPI PUSH0 DUP4 DUP3 DUP2 MLOAD DUP2 LT PUSH2 0x1A88 JUMPI PUSH2 0x1A87 PUSH2 0x2BD3 JUMP JUMPDEST JUMPDEST PUSH1 0x20 MUL PUSH1 0x20 ADD ADD MLOAD SWAP1 POP DUP1 PUSH1 0x4 PUSH0 DUP8 DUP6 DUP2 MLOAD DUP2 LT PUSH2 0x1AA9 JUMPI PUSH2 0x1AA8 PUSH2 0x2BD3 JUMP JUMPDEST JUMPDEST PUSH1 0x20 MUL PUSH1 0x20 ADD ADD MLOAD DUP2 MSTORE PUSH1 0x20 ADD SWAP1 DUP2 MSTORE PUSH1 0x20 ADD PUSH0 KECCAK256 PUSH0 DUP3 DUP3 SLOAD PUSH2 0x1ACC SWAP2 SWAP1 PUSH2 0x2E2B JUMP JUMPDEST SWAP3 POP POP DUP2 SWAP1 SSTORE POP DUP1 DUP4 PUSH2 0x1ADF SWAP2 SWAP1 PUSH2 0x2E2B JUMP JUMPDEST SWAP3 POP POP DUP1 PUSH2 0x1AEC SWAP1 PUSH2 0x2C2D JUMP JUMPDEST SWAP1 POP PUSH2 0x1A6B JUMP JUMPDEST POP DUP1 PUSH1 0x5 PUSH0 DUP3 DUP3 SLOAD PUSH2 0x1B05 SWAP2 SWAP1 PUSH2 0x2E2B JUMP JUMPDEST SWAP3 POP POP DUP2 SWAP1 SSTORE POP POP JUMPDEST PUSH0 PUSH20 0xFFFFFFFFFFFFFFFFFFFFFFFFFFFFFFFFFFFFFFFF AND DUP4 PUSH20 0xFFFFFFFFFFFFFFFFFFFFFFFFFFFFFFFFFFFFFFFF AND SUB PUSH2 0x1BCC JUMPI PUSH0 DUP1 JUMPDEST DUP4 MLOAD DUP2 LT ISZERO PUSH2 0x1BBA JUMPI PUSH0 DUP4 DUP3 DUP2 MLOAD DUP2 LT PUSH2 0x1B61 JUMPI PUSH2 0x1B60 PUSH2 0x2BD3 JUMP JUMPDEST JUMPDEST PUSH1 0x20 MUL PUSH1 0x20 ADD ADD MLOAD SWAP1 POP DUP1 PUSH1 0x4 PUSH0 DUP8 DUP6 DUP2 MLOAD DUP2 LT PUSH2 0x1B82 JUMPI PUSH2 0x1B81 PUSH2 0x2BD3 JUMP JUMPDEST JUMPDEST PUSH1 0x20 MUL PUSH1 0x20 ADD ADD MLOAD DUP2 MSTORE PUSH1 0x20 ADD SWAP1 DUP2 MSTORE PUSH1 0x20 ADD PUSH0 KECCAK256 PUSH0 DUP3 DUP3 SLOAD SUB SWAP3 POP POP DUP2 SWAP1 SSTORE POP DUP1 DUP4 ADD SWAP3 POP POP DUP1 PUSH2 0x1BB3 SWAP1 PUSH2 0x2C2D JUMP JUMPDEST SWAP1 POP PUSH2 0x1B44 JUMP JUMPDEST POP DUP1 PUSH1 0x5 PUSH0 DUP3 DUP3 SLOAD SUB SWAP3 POP POP DUP2 SWAP1 SSTORE POP POP JUMPDEST POP POP POP POP JUMP JUMPDEST DUP1 MLOAD DUP3 MLOAD EQ PUSH2 0x1C1C JUMPI DUP2 MLOAD DUP2 MLOAD PUSH1 0x40 MLOAD PUSH32 0x5B05999100000000000000000000000000000000000000000000000000000000 DUP2 MSTORE PUSH1 0x4 ADD PUSH2 0x1C13 SWAP3 SWAP2 SWAP1 PUSH2 0x2BAC JUMP JUMPDEST PUSH1 0x40 MLOAD DUP1 SWAP2 SUB SWAP1 REVERT JUMPDEST PUSH0 PUSH2 0x1C25 PUSH2 0xF3C JUMP JUMPDEST SWAP1 POP PUSH0 JUMPDEST DUP4 MLOAD DUP2 LT ISZERO PUSH2 0x1E27 JUMPI PUSH0 PUSH2 0x1C46 DUP3 DUP7 PUSH2 0x104A SWAP1 SWAP2 SWAP1 PUSH4 0xFFFFFFFF AND JUMP JUMPDEST SWAP1 POP PUSH0 PUSH2 0x1C5C DUP4 DUP7 PUSH2 0x104A SWAP1 SWAP2 SWAP1 PUSH4 0xFFFFFFFF AND JUMP JUMPDEST SWAP1 POP PUSH0 PUSH20 0xFFFFFFFFFFFFFFFFFFFFFFFFFFFFFFFFFFFFFFFF AND DUP9 PUSH20 0xFFFFFFFFFFFFFFFFFFFFFFFFFFFFFFFFFFFFFFFF AND EQ PUSH2 0x1D7F JUMPI PUSH0 DUP1 PUSH0 DUP5 DUP2 MSTORE PUSH1 0x20 ADD SWAP1 DUP2 MSTORE PUSH1 0x20 ADD PUSH0 KECCAK256 PUSH0 DUP11 PUSH20 0xFFFFFFFFFFFFFFFFFFFFFFFFFFFFFFFFFFFFFFFF AND PUSH20 0xFFFFFFFFFFFFFFFFFFFFFFFFFFFFFFFFFFFFFFFF AND DUP2 MSTORE PUSH1 0x20 ADD SWAP1 DUP2 MSTORE PUSH1 0x20 ADD PUSH0 KECCAK256 SLOAD SWAP1 POP DUP2 DUP2 LT ISZERO PUSH2 0x1D2B JUMPI DUP9 DUP2 DUP4 DUP6 PUSH1 0x40 MLOAD PUSH32 0x3DEE4C500000000000000000000000000000000000000000000000000000000 DUP2 MSTORE PUSH1 0x4 ADD PUSH2 0x1D22 SWAP5 SWAP4 SWAP3 SWAP2 SWAP1 PUSH2 0x2E5E JUMP JUMPDEST PUSH1 0x40 MLOAD DUP1 SWAP2 SUB SWAP1 REVERT JUMPDEST DUP2 DUP2 SUB PUSH0 DUP1 DUP6 DUP2 MSTORE PUSH1 0x20 ADD SWAP1 DUP2 MSTORE PUSH1 0x20 ADD PUSH0 KECCAK256 PUSH0 DUP12 PUSH20 0xFFFFFFFFFFFFFFFFFFFFFFFFFFFFFFFFFFFFFFFF AND PUSH20 0xFFFFFFFFFFFFFFFFFFFFFFFFFFFFFFFFFFFFFFFF AND DUP2 MSTORE PUSH1 0x20 ADD SWAP1 DUP2 MSTORE PUSH1 0x20 ADD PUSH0 KECCAK256 DUP2 SWAP1 SSTORE POP POP JUMPDEST PUSH0 PUSH20 0xFFFFFFFFFFFFFFFFFFFFFFFFFFFFFFFFFFFFFFFF AND DUP8 PUSH20 0xFFFFFFFFFFFFFFFFFFFFFFFFFFFFFFFFFFFFFFFF AND EQ PUSH2 0x1E14 JUMPI DUP1 PUSH0 DUP1 DUP5 DUP2 MSTORE PUSH1 0x20 ADD SWAP1 DUP2 MSTORE PUSH1 0x20 ADD PUSH0 KECCAK256 PUSH0 DUP10 PUSH20 0xFFFFFFFFFFFFFFFFFFFFFFFFFFFFFFFFFFFFFFFF AND PUSH20 0xFFFFFFFFFFFFFFFFFFFFFFFFFFFFFFFFFFFFFFFF AND DUP2 MSTORE PUSH1 0x20 ADD SWAP1 DUP2 MSTORE PUSH1 0x20 ADD PUSH0 KECCAK256 PUSH0 DUP3 DUP3 SLOAD PUSH2 0x1E0C SWAP2 SWAP1 PUSH2 0x2E2B JUMP JUMPDEST SWAP3 POP POP DUP2 SWAP1 SSTORE POP JUMPDEST POP POP DUP1 PUSH2 0x1E20 SWAP1 PUSH2 0x2C2D JUMP JUMPDEST SWAP1 POP PUSH2 0x1C29 JUMP JUMPDEST POP PUSH1 0x1 DUP4 MLOAD SUB PUSH2 0x1EE2 JUMPI PUSH0 PUSH2 0x1E45 PUSH0 DUP6 PUSH2 0x104A SWAP1 SWAP2 SWAP1 PUSH4 0xFFFFFFFF AND JUMP JUMPDEST SWAP1 POP PUSH0 PUSH2 0x1E5B PUSH0 DUP6 PUSH2 0x104A SWAP1 SWAP2 SWAP1 PUSH4 0xFFFFFFFF AND JUMP JUMPDEST SWAP1 POP DUP6 PUSH20 0xFFFFFFFFFFFFFFFFFFFFFFFFFFFFFFFFFFFFFFFF AND DUP8 PUSH20 0xFFFFFFFFFFFFFFFFFFFFFFFFFFFFFFFFFFFFFFFF AND DUP5 PUSH20 0xFFFFFFFFFFFFFFFFFFFFFFFFFFFFFFFFFFFFFFFF AND PUSH32 0xC3D58168C5AE7397731D063D5BBF3D657854427343F4C083240F7AACAA2D0F62 DUP6 DUP6 PUSH1 0x40 MLOAD PUSH2 0x1ED3 SWAP3 SWAP2 SWAP1 PUSH2 0x2BAC JUMP JUMPDEST PUSH1 0x40 MLOAD DUP1 SWAP2 SUB SWAP1 LOG4 POP POP PUSH2 0x1F61 JUMP JUMPDEST DUP4 PUSH20 0xFFFFFFFFFFFFFFFFFFFFFFFFFFFFFFFFFFFFFFFF AND DUP6 PUSH20 0xFFFFFFFFFFFFFFFFFFFFFFFFFFFFFFFFFFFFFFFF AND DUP3 PUSH20 0xFFFFFFFFFFFFFFFFFFFFFFFFFFFFFFFFFFFFFFFF AND PUSH32 0x4A39DC06D4C0DBC64B70AF90FD698A233A518AA5D07E595D983B8C0526C8F7FB DUP7 DUP7 PUSH1 0x40 MLOAD PUSH2 0x1F58 SWAP3 SWAP2 SWAP1 PUSH2 0x2EA1 JUMP JUMPDEST PUSH1 0x40 MLOAD DUP1 SWAP2 SUB SWAP1 LOG4 JUMPDEST POP POP POP POP POP JUMP JUMPDEST PUSH0 PUSH1 0x40 MLOAD SWAP1 POP SWAP1 JUMP JUMPDEST PUSH0 DUP1 REVERT JUMPDEST PUSH0 DUP1 REVERT JUMPDEST PUSH0 PUSH20 0xFFFFFFFFFFFFFFFFFFFFFFFFFFFFFFFFFFFFFFFF DUP3 AND SWAP1 POP SWAP2 SWAP1 POP JUMP JUMPDEST PUSH0 PUSH2 0x1FA2 DUP3 PUSH2 0x1F79 JUMP JUMPDEST SWAP1 POP SWAP2 SWAP1 POP JUMP JUMPDEST PUSH2 0x1FB2 DUP2 PUSH2 0x1F98 JUMP JUMPDEST DUP2 EQ PUSH2 0x1FBC JUMPI PUSH0 DUP1 REVERT JUMPDEST POP JUMP JUMPDEST PUSH0 DUP2 CALLDATALOAD SWAP1 POP PUSH2 0x1FCD DUP2 PUSH2 0x1FA9 JUMP JUMPDEST SWAP3 SWAP2 POP POP JUMP JUMPDEST PUSH0 DUP2 SWAP1 POP SWAP2 SWAP1 POP JUMP JUMPDEST PUSH2 0x1FE5 DUP2 PUSH2 0x1FD3 JUMP JUMPDEST DUP2 EQ PUSH2 0x1FEF JUMPI PUSH0 DUP1 REVERT JUMPDEST POP JUMP JUMPDEST PUSH0 DUP2 CALLDATALOAD SWAP1 POP PUSH2 0x2000 DUP2 PUSH2 0x1FDC JUMP JUMPDEST SWAP3 SWAP2 POP POP JUMP JUMPDEST PUSH0 DUP1 PUSH1 0x40 DUP4 DUP6 SUB SLT ISZERO PUSH2 0x201C JUMPI PUSH2 0x201B PUSH2 0x1F71 JUMP JUMPDEST JUMPDEST PUSH0 PUSH2 0x2029 DUP6 DUP3 DUP7 ADD PUSH2 0x1FBF JUMP JUMPDEST SWAP3 POP POP PUSH1 0x20 PUSH2 0x203A DUP6 DUP3 DUP7 ADD PUSH2 0x1FF2 JUMP JUMPDEST SWAP2 POP POP SWAP3 POP SWAP3 SWAP1 POP JUMP JUMPDEST PUSH2 0x204D DUP2 PUSH2 0x1FD3 JUMP JUMPDEST DUP3 MSTORE POP POP JUMP JUMPDEST PUSH0 PUSH1 0x20 DUP3 ADD SWAP1 POP PUSH2 0x2066 PUSH0 DUP4 ADD DUP5 PUSH2 0x2044 JUMP JUMPDEST SWAP3 SWAP2 POP POP JUMP JUMPDEST PUSH0 PUSH32 0xFFFFFFFF00000000000000000000000000000000000000000000000000000000 DUP3 AND SWAP1 POP SWAP2 SWAP1 POP JUMP JUMPDEST PUSH2 0x20A0 DUP2 PUSH2 0x206C JUMP JUMPDEST DUP2 EQ PUSH2 0x20AA JUMPI PUSH0 DUP1 REVERT JUMPDEST POP JUMP JUMPDEST PUSH0 DUP2 CALLDATALOAD SWAP1 POP PUSH2 0x20BB DUP2 PUSH2 0x2097 JUMP JUMPDEST SWAP3 SWAP2 POP POP JUMP JUMPDEST PUSH0 PUSH1 0x20 DUP3 DUP5 SUB SLT ISZERO PUSH2 0x20D6 JUMPI PUSH2 0x20D5 PUSH2 0x1F71 JUMP JUMPDEST JUMPDEST PUSH0 PUSH2 0x20E3 DUP5 DUP3 DUP6 ADD PUSH2 0x20AD JUMP JUMPDEST SWAP2 POP POP SWAP3 SWAP2 POP POP JUMP JUMPDEST PUSH0 DUP2 ISZERO ISZERO SWAP1 POP SWAP2 SWAP1 POP JUMP JUMPDEST PUSH2 0x2100 DUP2 PUSH2 0x20EC JUMP JUMPDEST DUP3 MSTORE POP POP JUMP JUMPDEST PUSH0 PUSH1 0x20 DUP3 ADD SWAP1 POP PUSH2 0x2119 PUSH0 DUP4 ADD DUP5 PUSH2 0x20F7 JUMP JUMPDEST SWAP3 SWAP2 POP POP JUMP JUMPDEST PUSH0 PUSH1 0x20 DUP3 DUP5 SUB SLT ISZERO PUSH2 0x2134 JUMPI PUSH2 0x2133 PUSH2 0x1F71 JUMP JUMPDEST JUMPDEST PUSH0 PUSH2 0x2141 DUP5 DUP3 DUP6 ADD PUSH2 0x1FF2 JUMP JUMPDEST SWAP2 POP POP SWAP3 SWAP2 POP POP JUMP JUMPDEST PUSH0 DUP2 MLOAD SWAP1 POP SWAP2 SWAP1 POP JUMP JUMPDEST PUSH0 DUP3 DUP3 MSTORE PUSH1 0x20 DUP3 ADD SWAP1 POP SWAP3 SWAP2 POP POP JUMP JUMPDEST PUSH0 JUMPDEST DUP4 DUP2 LT ISZERO PUSH2 0x2181 JUMPI DUP1 DUP3 ADD MLOAD DUP2 DUP5 ADD MSTORE PUSH1 0x20 DUP2 ADD SWAP1 POP PUSH2 0x2166 JUMP JUMPDEST PUSH0 DUP5 DUP5 ADD MSTORE POP POP POP POP JUMP JUMPDEST PUSH0 PUSH1 0x1F NOT PUSH1 0x1F DUP4 ADD AND SWAP1 POP SWAP2 SWAP1 POP JUMP JUMPDEST PUSH0 PUSH2 0x21A6 DUP3 PUSH2 0x214A JUMP JUMPDEST PUSH2 0x21B0 DUP2 DUP6 PUSH2 0x2154 JUMP JUMPDEST SWAP4 POP PUSH2 0x21C0 DUP2 DUP6 PUSH1 0x20 DUP7 ADD PUSH2 0x2164 JUMP JUMPDEST PUSH2 0x21C9 DUP2 PUSH2 0x218C JUMP JUMPDEST DUP5 ADD SWAP2 POP POP SWAP3 SWAP2 POP POP JUMP JUMPDEST PUSH0 PUSH1 0x20 DUP3 ADD SWAP1 POP DUP2 DUP2 SUB PUSH0 DUP4 ADD MSTORE PUSH2 0x21EC DUP2 DUP5 PUSH2 0x219C JUMP JUMPDEST SWAP1 POP SWAP3 SWAP2 POP POP JUMP JUMPDEST PUSH0 DUP1 REVERT JUMPDEST PUSH32 0x4E487B7100000000000000000000000000000000000000000000000000000000 PUSH0 MSTORE PUSH1 0x41 PUSH1 0x4 MSTORE PUSH1 0x24 PUSH0 REVERT JUMPDEST PUSH2 0x222E DUP3 PUSH2 0x218C JUMP JUMPDEST DUP2 ADD DUP2 DUP2 LT PUSH8 0xFFFFFFFFFFFFFFFF DUP3 GT OR ISZERO PUSH2 0x224D JUMPI PUSH2 0x224C PUSH2 0x21F8 JUMP JUMPDEST JUMPDEST DUP1 PUSH1 0x40 MSTORE POP POP POP JUMP JUMPDEST PUSH0 PUSH2 0x225F PUSH2 0x1F68 JUMP JUMPDEST SWAP1 POP PUSH2 0x226B DUP3 DUP3 PUSH2 0x2225 JUMP JUMPDEST SWAP2 SWAP1 POP JUMP JUMPDEST PUSH0 PUSH8 0xFFFFFFFFFFFFFFFF DUP3 GT ISZERO PUSH2 0x228A JUMPI PUSH2 0x2289 PUSH2 0x21F8 JUMP JUMPDEST JUMPDEST PUSH1 0x20 DUP3 MUL SWAP1 POP PUSH1 0x20 DUP2 ADD SWAP1 POP SWAP2 SWAP1 POP JUMP JUMPDEST PUSH0 DUP1 REVERT JUMPDEST PUSH0 PUSH2 0x22B1 PUSH2 0x22AC DUP5 PUSH2 0x2270 JUMP JUMPDEST PUSH2 0x2256 JUMP JUMPDEST SWAP1 POP DUP1 DUP4 DUP3 MSTORE PUSH1 0x20 DUP3 ADD SWAP1 POP PUSH1 0x20 DUP5 MUL DUP4 ADD DUP6 DUP2 GT ISZERO PUSH2 0x22D4 JUMPI PUSH2 0x22D3 PUSH2 0x229B JUMP JUMPDEST JUMPDEST DUP4 JUMPDEST DUP2 DUP2 LT ISZERO PUSH2 0x22FD JUMPI DUP1 PUSH2 0x22E9 DUP9 DUP3 PUSH2 0x1FF2 JUMP JUMPDEST DUP5 MSTORE PUSH1 0x20 DUP5 ADD SWAP4 POP POP PUSH1 0x20 DUP2 ADD SWAP1 POP PUSH2 0x22D6 JUMP JUMPDEST POP POP POP SWAP4 SWAP3 POP POP POP JUMP JUMPDEST PUSH0 DUP3 PUSH1 0x1F DUP4 ADD SLT PUSH2 0x231B JUMPI PUSH2 0x231A PUSH2 0x21F4 JUMP JUMPDEST JUMPDEST DUP2 CALLDATALOAD PUSH2 0x232B DUP5 DUP3 PUSH1 0x20 DUP7 ADD PUSH2 0x229F JUMP JUMPDEST SWAP2 POP POP SWAP3 SWAP2 POP POP JUMP JUMPDEST PUSH0 DUP1 REVERT JUMPDEST PUSH0 PUSH8 0xFFFFFFFFFFFFFFFF DUP3 GT ISZERO PUSH2 0x2352 JUMPI PUSH2 0x2351 PUSH2 0x21F8 JUMP JUMPDEST JUMPDEST PUSH2 0x235B DUP3 PUSH2 0x218C JUMP JUMPDEST SWAP1 POP PUSH1 0x20 DUP2 ADD SWAP1 POP SWAP2 SWAP1 POP JUMP JUMPDEST DUP3 DUP2 DUP4 CALLDATACOPY PUSH0 DUP4 DUP4 ADD MSTORE POP POP POP JUMP JUMPDEST PUSH0 PUSH2 0x2388 PUSH2 0x2383 DUP5 PUSH2 0x2338 JUMP JUMPDEST PUSH2 0x2256 JUMP JUMPDEST SWAP1 POP DUP3 DUP2 MSTORE PUSH1 0x20 DUP2 ADD DUP5 DUP5 DUP5 ADD GT ISZERO PUSH2 0x23A4 JUMPI PUSH2 0x23A3 PUSH2 0x2334 JUMP JUMPDEST JUMPDEST PUSH2 0x23AF DUP5 DUP3 DUP6 PUSH2 0x2368 JUMP JUMPDEST POP SWAP4 SWAP3 POP POP POP JUMP JUMPDEST PUSH0 DUP3 PUSH1 0x1F DUP4 ADD SLT PUSH2 0x23CB JUMPI PUSH2 0x23CA PUSH2 0x21F4 JUMP JUMPDEST JUMPDEST DUP2 CALLDATALOAD PUSH2 0x23DB DUP5 DUP3 PUSH1 0x20 DUP7 ADD PUSH2 0x2376 JUMP JUMPDEST SWAP2 POP POP SWAP3 SWAP2 POP POP JUMP JUMPDEST PUSH0 DUP1 PUSH0 DUP1 PUSH1 0x80 DUP6 DUP8 SUB SLT ISZERO PUSH2 0x23FC JUMPI PUSH2 0x23FB PUSH2 0x1F71 JUMP JUMPDEST JUMPDEST PUSH0 PUSH2 0x2409 DUP8 DUP3 DUP9 ADD PUSH2 0x1FBF JUMP JUMPDEST SWAP5 POP POP PUSH1 0x20 DUP6 ADD CALLDATALOAD PUSH8 0xFFFFFFFFFFFFFFFF DUP2 GT ISZERO PUSH2 0x242A JUMPI PUSH2 0x2429 PUSH2 0x1F75 JUMP JUMPDEST JUMPDEST PUSH2 0x2436 DUP8 DUP3 DUP9 ADD PUSH2 0x2307 JUMP JUMPDEST SWAP4 POP POP PUSH1 0x40 DUP6 ADD CALLDATALOAD PUSH8 0xFFFFFFFFFFFFFFFF DUP2 GT ISZERO PUSH2 0x2457 JUMPI PUSH2 0x2456 PUSH2 0x1F75 JUMP JUMPDEST JUMPDEST PUSH2 0x2463 DUP8 DUP3 DUP9 ADD PUSH2 0x2307 JUMP JUMPDEST SWAP3 POP POP PUSH1 0x60 DUP6 ADD CALLDATALOAD PUSH8 0xFFFFFFFFFFFFFFFF DUP2 GT ISZERO PUSH2 0x2484 JUMPI PUSH2 0x2483 PUSH2 0x1F75 JUMP JUMPDEST JUMPDEST PUSH2 0x2490 DUP8 DUP3 DUP9 ADD PUSH2 0x23B7 JUMP JUMPDEST SWAP2 POP POP SWAP3 SWAP6 SWAP2 SWAP5 POP SWAP3 POP JUMP JUMPDEST PUSH0 DUP1 PUSH0 DUP1 PUSH0 PUSH1 0xA0 DUP7 DUP9 SUB SLT ISZERO PUSH2 0x24B5 JUMPI PUSH2 0x24B4 PUSH2 0x1F71 JUMP JUMPDEST JUMPDEST PUSH0 PUSH2 0x24C2 DUP9 DUP3 DUP10 ADD PUSH2 0x1FBF JUMP JUMPDEST SWAP6 POP POP PUSH1 0x20 PUSH2 0x24D3 DUP9 DUP3 DUP10 ADD PUSH2 0x1FBF JUMP JUMPDEST SWAP5 POP POP PUSH1 0x40 DUP7 ADD CALLDATALOAD PUSH8 0xFFFFFFFFFFFFFFFF DUP2 GT ISZERO PUSH2 0x24F4 JUMPI PUSH2 0x24F3 PUSH2 0x1F75 JUMP JUMPDEST JUMPDEST PUSH2 0x2500 DUP9 DUP3 DUP10 ADD PUSH2 0x2307 JUMP JUMPDEST SWAP4 POP POP PUSH1 0x60 DUP7 ADD CALLDATALOAD PUSH8 0xFFFFFFFFFFFFFFFF DUP2 GT ISZERO PUSH2 0x2521 JUMPI PUSH2 0x2520 PUSH2 0x1F75 JUMP JUMPDEST JUMPDEST PUSH2 0x252D DUP9 DUP3 DUP10 ADD PUSH2 0x2307 JUMP JUMPDEST SWAP3 POP POP PUSH1 0x80 DUP7 ADD CALLDATALOAD PUSH8 0xFFFFFFFFFFFFFFFF DUP2 GT ISZERO PUSH2 0x254E JUMPI PUSH2 0x254D PUSH2 0x1F75 JUMP JUMPDEST JUMPDEST PUSH2 0x255A DUP9 DUP3 DUP10 ADD PUSH2 0x23B7 JUMP JUMPDEST SWAP2 POP POP SWAP3 SWAP6 POP SWAP3 SWAP6 SWAP1 SWAP4 POP JUMP JUMPDEST PUSH0 PUSH8 0xFFFFFFFFFFFFFFFF DUP3 GT ISZERO PUSH2 0x2581 JUMPI PUSH2 0x2580 PUSH2 0x21F8 JUMP JUMPDEST JUMPDEST PUSH1 0x20 DUP3 MUL SWAP1 POP PUSH1 0x20 DUP2 ADD SWAP1 POP SWAP2 SWAP1 POP JUMP JUMPDEST PUSH0 PUSH2 0x25A4 PUSH2 0x259F DUP5 PUSH2 0x2567 JUMP JUMPDEST PUSH2 0x2256 JUMP JUMPDEST SWAP1 POP DUP1 DUP4 DUP3 MSTORE PUSH1 0x20 DUP3 ADD SWAP1 POP PUSH1 0x20 DUP5 MUL DUP4 ADD DUP6 DUP2 GT ISZERO PUSH2 0x25C7 JUMPI PUSH2 0x25C6 PUSH2 0x229B JUMP JUMPDEST JUMPDEST DUP4 JUMPDEST DUP2 DUP2 LT ISZERO PUSH2 0x25F0 JUMPI DUP1 PUSH2 0x25DC DUP9 DUP3 PUSH2 0x1FBF JUMP JUMPDEST DUP5 MSTORE PUSH1 0x20 DUP5 ADD SWAP4 POP POP PUSH1 0x20 DUP2 ADD SWAP1 POP PUSH2 0x25C9 JUMP JUMPDEST POP POP POP SWAP4 SWAP3 POP POP POP JUMP JUMPDEST PUSH0 DUP3 PUSH1 0x1F DUP4 ADD SLT PUSH2 0x260E JUMPI PUSH2 0x260D PUSH2 0x21F4 JUMP JUMPDEST JUMPDEST DUP2 CALLDATALOAD PUSH2 0x261E DUP5 DUP3 PUSH1 0x20 DUP7 ADD PUSH2 0x2592 JUMP JUMPDEST SWAP2 POP POP SWAP3 SWAP2 POP POP JUMP JUMPDEST PUSH0 DUP1 PUSH1 0x40 DUP4 DUP6 SUB SLT ISZERO PUSH2 0x263D JUMPI PUSH2 0x263C PUSH2 0x1F71 JUMP JUMPDEST JUMPDEST PUSH0 DUP4 ADD CALLDATALOAD PUSH8 0xFFFFFFFFFFFFFFFF DUP2 GT ISZERO PUSH2 0x265A JUMPI PUSH2 0x2659 PUSH2 0x1F75 JUMP JUMPDEST JUMPDEST PUSH2 0x2666 DUP6 DUP3 DUP7 ADD PUSH2 0x25FA JUMP JUMPDEST SWAP3 POP POP PUSH1 0x20 DUP4 ADD CALLDATALOAD PUSH8 0xFFFFFFFFFFFFFFFF DUP2 GT ISZERO PUSH2 0x2687 JUMPI PUSH2 0x2686 PUSH2 0x1F75 JUMP JUMPDEST JUMPDEST PUSH2 0x2693 DUP6 DUP3 DUP7 ADD PUSH2 0x2307 JUMP JUMPDEST SWAP2 POP POP SWAP3 POP SWAP3 SWAP1 POP JUMP JUMPDEST PUSH0 DUP2 MLOAD SWAP1 POP SWAP2 SWAP1 POP JUMP JUMPDEST PUSH0 DUP3 DUP3 MSTORE PUSH1 0x20 DUP3 ADD SWAP1 POP SWAP3 SWAP2 POP POP JUMP JUMPDEST PUSH0 DUP2 SWAP1 POP PUSH1 0x20 DUP3 ADD SWAP1 POP SWAP2 SWAP1 POP JUMP JUMPDEST PUSH2 0x26CF DUP2 PUSH2 0x1FD3 JUMP JUMPDEST DUP3 MSTORE POP POP JUMP JUMPDEST PUSH0 PUSH2 0x26E0 DUP4 DUP4 PUSH2 0x26C6 JUMP JUMPDEST PUSH1 0x20 DUP4 ADD SWAP1 POP SWAP3 SWAP2 POP POP JUMP JUMPDEST PUSH0 PUSH1 0x20 DUP3 ADD SWAP1 POP SWAP2 SWAP1 POP JUMP JUMPDEST PUSH0 PUSH2 0x2702 DUP3 PUSH2 0x269D JUMP JUMPDEST PUSH2 0x270C DUP2 DUP6 PUSH2 0x26A7 JUMP JUMPDEST SWAP4 POP PUSH2 0x2717 DUP4 PUSH2 0x26B7 JUMP JUMPDEST DUP1 PUSH0 JUMPDEST DUP4 DUP2 LT ISZERO PUSH2 0x2747 JUMPI DUP2 MLOAD PUSH2 0x272E DUP9 DUP3 PUSH2 0x26D5 JUMP JUMPDEST SWAP8 POP PUSH2 0x2739 DUP4 PUSH2 0x26EC JUMP JUMPDEST SWAP3 POP POP PUSH1 0x1 DUP2 ADD SWAP1 POP PUSH2 0x271A JUMP JUMPDEST POP DUP6 SWAP4 POP POP POP POP SWAP3 SWAP2 POP POP JUMP JUMPDEST PUSH0 PUSH1 0x20 DUP3 ADD SWAP1 POP DUP2 DUP2 SUB PUSH0 DUP4 ADD MSTORE PUSH2 0x276C DUP2 DUP5 PUSH2 0x26F8 JUMP JUMPDEST SWAP1 POP SWAP3 SWAP2 POP POP JUMP JUMPDEST PUSH0 DUP1 PUSH0 PUSH1 0x60 DUP5 DUP7 SUB SLT ISZERO PUSH2 0x278B JUMPI PUSH2 0x278A PUSH2 0x1F71 JUMP JUMPDEST JUMPDEST PUSH0 PUSH2 0x2798 DUP7 DUP3 DUP8 ADD PUSH2 0x1FBF JUMP JUMPDEST SWAP4 POP POP PUSH1 0x20 DUP5 ADD CALLDATALOAD PUSH8 0xFFFFFFFFFFFFFFFF DUP2 GT ISZERO PUSH2 0x27B9 JUMPI PUSH2 0x27B8 PUSH2 0x1F75 JUMP JUMPDEST JUMPDEST PUSH2 0x27C5 DUP7 DUP3 DUP8 ADD PUSH2 0x2307 JUMP JUMPDEST SWAP3 POP POP PUSH1 0x40 DUP5 ADD CALLDATALOAD PUSH8 0xFFFFFFFFFFFFFFFF DUP2 GT ISZERO PUSH2 0x27E6 JUMPI PUSH2 0x27E5 PUSH2 0x1F75 JUMP JUMPDEST JUMPDEST PUSH2 0x27F2 DUP7 DUP3 DUP8 ADD PUSH2 0x2307 JUMP JUMPDEST SWAP2 POP POP SWAP3 POP SWAP3 POP SWAP3 JUMP JUMPDEST PUSH0 PUSH1 0x20 DUP3 DUP5 SUB SLT ISZERO PUSH2 0x2811 JUMPI PUSH2 0x2810 PUSH2 0x1F71 JUMP JUMPDEST JUMPDEST PUSH0 PUSH2 0x281E DUP5 DUP3 DUP6 ADD PUSH2 0x1FBF JUMP JUMPDEST SWAP2 POP POP SWAP3 SWAP2 POP POP JUMP JUMPDEST PUSH0 DUP1 PUSH0 DUP1 PUSH1 0x80 DUP6 DUP8 SUB SLT ISZERO PUSH2 0x283F JUMPI PUSH2 0x283E PUSH2 0x1F71 JUMP JUMPDEST JUMPDEST PUSH0 PUSH2 0x284C DUP8 DUP3 DUP9 ADD PUSH2 0x1FBF JUMP JUMPDEST SWAP5 POP POP PUSH1 0x20 PUSH2 0x285D DUP8 DUP3 DUP9 ADD PUSH2 0x1FF2 JUMP JUMPDEST SWAP4 POP POP PUSH1 0x40 PUSH2 0x286E DUP8 DUP3 DUP9 ADD PUSH2 0x1FF2 JUMP JUMPDEST SWAP3 POP POP PUSH1 0x60 DUP6 ADD CALLDATALOAD PUSH8 0xFFFFFFFFFFFFFFFF DUP2 GT ISZERO PUSH2 0x288F JUMPI PUSH2 0x288E PUSH2 0x1F75 JUMP JUMPDEST JUMPDEST PUSH2 0x289B DUP8 DUP3 DUP9 ADD PUSH2 0x23B7 JUMP JUMPDEST SWAP2 POP POP SWAP3 SWAP6 SWAP2 SWAP5 POP SWAP3 POP JUMP JUMPDEST PUSH2 0x28B0 DUP2 PUSH2 0x1F98 JUMP JUMPDEST DUP3 MSTORE POP POP JUMP JUMPDEST PUSH0 PUSH1 0x20 DUP3 ADD SWAP1 POP PUSH2 0x28C9 PUSH0 DUP4 ADD DUP5 PUSH2 0x28A7 JUMP JUMPDEST SWAP3 SWAP2 POP POP JUMP JUMPDEST PUSH2 0x28D8 DUP2 PUSH2 0x20EC JUMP JUMPDEST DUP2 EQ PUSH2 0x28E2 JUMPI PUSH0 DUP1 REVERT JUMPDEST POP JUMP JUMPDEST PUSH0 DUP2 CALLDATALOAD SWAP1 POP PUSH2 0x28F3 DUP2 PUSH2 0x28CF JUMP JUMPDEST SWAP3 SWAP2 POP POP JUMP JUMPDEST PUSH0 DUP1 PUSH1 0x40 DUP4 DUP6 SUB SLT ISZERO PUSH2 0x290F JUMPI PUSH2 0x290E PUSH2 0x1F71 JUMP JUMPDEST JUMPDEST PUSH0 PUSH2 0x291C DUP6 DUP3 DUP7 ADD PUSH2 0x1FBF JUMP JUMPDEST SWAP3 POP POP PUSH1 0x20 PUSH2 0x292D DUP6 DUP3 DUP7 ADD PUSH2 0x28E5 JUMP JUMPDEST SWAP2 POP POP SWAP3 POP SWAP3 SWAP1 POP JUMP JUMPDEST PUSH0 DUP1 PUSH1 0x40 DUP4 DUP6 SUB SLT ISZERO PUSH2 0x294D JUMPI PUSH2 0x294C PUSH2 0x1F71 JUMP JUMPDEST JUMPDEST PUSH0 PUSH2 0x295A DUP6 DUP3 DUP7 ADD PUSH2 0x1FBF JUMP JUMPDEST SWAP3 POP POP PUSH1 0x20 PUSH2 0x296B DUP6 DUP3 DUP7 ADD PUSH2 0x1FBF JUMP JUMPDEST SWAP2 POP POP SWAP3 POP SWAP3 SWAP1 POP JUMP JUMPDEST PUSH0 DUP1 PUSH0 DUP1 PUSH0 PUSH1 0xA0 DUP7 DUP9 SUB SLT ISZERO PUSH2 0x298E JUMPI PUSH2 0x298D PUSH2 0x1F71 JUMP JUMPDEST JUMPDEST PUSH0 PUSH2 0x299B DUP9 DUP3 DUP10 ADD PUSH2 0x1FBF JUMP JUMPDEST SWAP6 POP POP PUSH1 0x20 PUSH2 0x29AC DUP9 DUP3 DUP10 ADD PUSH2 0x1FBF JUMP JUMPDEST SWAP5 POP POP PUSH1 0x40 PUSH2 0x29BD DUP9 DUP3 DUP10 ADD PUSH2 0x1FF2 JUMP JUMPDEST SWAP4 POP POP PUSH1 0x60 PUSH2 0x29CE DUP9 DUP3 DUP10 ADD PUSH2 0x1FF2 JUMP JUMPDEST SWAP3 POP POP PUSH1 0x80 DUP7 ADD CALLDATALOAD PUSH8 0xFFFFFFFFFFFFFFFF DUP2 GT ISZERO PUSH2 0x29EF JUMPI PUSH2 0x29EE PUSH2 0x1F75 JUMP JUMPDEST JUMPDEST PUSH2 0x29FB DUP9 DUP3 DUP10 ADD PUSH2 0x23B7 JUMP JUMPDEST SWAP2 POP POP SWAP3 SWAP6 POP SWAP3 SWAP6 SWAP1 SWAP4 POP JUMP JUMPDEST PUSH0 DUP1 PUSH0 PUSH1 0x60 DUP5 DUP7 SUB SLT ISZERO PUSH2 0x2A1F JUMPI PUSH2 0x2A1E PUSH2 0x1F71 JUMP JUMPDEST JUMPDEST PUSH0 PUSH2 0x2A2C DUP7 DUP3 DUP8 ADD PUSH2 0x1FBF JUMP JUMPDEST SWAP4 POP POP PUSH1 0x20 PUSH2 0x2A3D DUP7 DUP3 DUP8 ADD PUSH2 0x1FF2 JUMP JUMPDEST SWAP3 POP POP PUSH1 0x40 PUSH2 0x2A4E DUP7 DUP3 DUP8 ADD PUSH2 0x1FF2 JUMP JUMPDEST SWAP2 POP POP SWAP3 POP SWAP3 POP SWAP3 JUMP JUMPDEST PUSH32 0x4E487B7100000000000000000000000000000000000000000000000000000000 PUSH0 MSTORE PUSH1 0x22 PUSH1 0x4 MSTORE PUSH1 0x24 PUSH0 REVERT JUMPDEST PUSH0 PUSH1 0x2 DUP3 DIV SWAP1 POP PUSH1 0x1 DUP3 AND DUP1 PUSH2 0x2A9C JUMPI PUSH1 0x7F DUP3 AND SWAP2 POP JUMPDEST PUSH1 0x20 DUP3 LT DUP2 SUB PUSH2 0x2AAF JUMPI PUSH2 0x2AAE PUSH2 0x2A58 JUMP JUMPDEST JUMPDEST POP SWAP2 SWAP1 POP JUMP JUMPDEST PUSH32 0x47616D652061646472657373206E6F74207365742E0000000000000000000000 PUSH0 DUP3 ADD MSTORE POP JUMP JUMPDEST PUSH0 PUSH2 0x2AE9 PUSH1 0x15 DUP4 PUSH2 0x2154 JUMP JUMPDEST SWAP2 POP PUSH2 0x2AF4 DUP3 PUSH2 0x2AB5 JUMP JUMPDEST PUSH1 0x20 DUP3 ADD SWAP1 POP SWAP2 SWAP1 POP JUMP JUMPDEST PUSH0 PUSH1 0x20 DUP3 ADD SWAP1 POP DUP2 DUP2 SUB PUSH0 DUP4 ADD MSTORE PUSH2 0x2B16 DUP2 PUSH2 0x2ADD JUMP JUMPDEST SWAP1 POP SWAP2 SWAP1 POP JUMP JUMPDEST PUSH32 0x4F6E6C792067616D6520636F6E74726163742063616E206D696E742E00000000 PUSH0 DUP3 ADD MSTORE POP JUMP JUMPDEST PUSH0 PUSH2 0x2B51 PUSH1 0x1C DUP4 PUSH2 0x2154 JUMP JUMPDEST SWAP2 POP PUSH2 0x2B5C DUP3 PUSH2 0x2B1D JUMP JUMPDEST PUSH1 0x20 DUP3 ADD SWAP1 POP SWAP2 SWAP1 POP JUMP JUMPDEST PUSH0 PUSH1 0x20 DUP3 ADD SWAP1 POP DUP2 DUP2 SUB PUSH0 DUP4 ADD MSTORE PUSH2 0x2B7E DUP2 PUSH2 0x2B45 JUMP JUMPDEST SWAP1 POP SWAP2 SWAP1 POP JUMP JUMPDEST PUSH0 PUSH1 0x40 DUP3 ADD SWAP1 POP PUSH2 0x2B98 PUSH0 DUP4 ADD DUP6 PUSH2 0x28A7 JUMP JUMPDEST PUSH2 0x2BA5 PUSH1 0x20 DUP4 ADD DUP5 PUSH2 0x28A7 JUMP JUMPDEST SWAP4 SWAP3 POP POP POP JUMP JUMPDEST PUSH0 PUSH1 0x40 DUP3 ADD SWAP1 POP PUSH2 0x2BBF PUSH0 DUP4 ADD DUP6 PUSH2 0x2044 JUMP JUMPDEST PUSH2 0x2BCC PUSH1 0x20 DUP4 ADD DUP5 PUSH2 0x2044 JUMP JUMPDEST SWAP4 SWAP3 POP POP POP JUMP JUMPDEST PUSH32 0x4E487B7100000000000000000000000000000000000000000000000000000000 PUSH0 MSTORE PUSH1 0x32 PUSH1 0x4 MSTORE PUSH1 0x24 PUSH0 REVERT JUMPDEST PUSH32 0x4E487B7100000000000000000000000000000000000000000000000000000000 PUSH0 MSTORE PUSH1 0x11 PUSH1 0x4 MSTORE PUSH1 0x24 PUSH0 REVERT JUMPDEST PUSH0 PUSH2 0x2C37 DUP3 PUSH2 0x1FD3 JUMP JUMPDEST SWAP2 POP PUSH32 0xFFFFFFFFFFFFFFFFFFFFFFFFFFFFFFFFFFFFFFFFFFFFFFFFFFFFFFFFFFFFFFFF DUP3 SUB PUSH2 0x2C69 JUMPI PUSH2 0x2C68 PUSH2 0x2C00 JUMP JUMPDEST JUMPDEST PUSH1 0x1 DUP3 ADD SWAP1 POP SWAP2 SWAP1 POP JUMP JUMPDEST PUSH32 0x47616D65206164647265737320697320616C7265616479207365742E00000000 PUSH0 DUP3 ADD MSTORE POP JUMP JUMPDEST PUSH0 PUSH2 0x2CA8 PUSH1 0x1C DUP4 PUSH2 0x2154 JUMP JUMPDEST SWAP2 POP PUSH2 0x2CB3 DUP3 PUSH2 0x2C74 JUMP JUMPDEST PUSH1 0x20 DUP3 ADD SWAP1 POP SWAP2 SWAP1 POP JUMP JUMPDEST PUSH0 PUSH1 0x20 DUP3 ADD SWAP1 POP DUP2 DUP2 SUB PUSH0 DUP4 ADD MSTORE PUSH2 0x2CD5 DUP2 PUSH2 0x2C9C JUMP JUMPDEST SWAP1 POP SWAP2 SWAP1 POP JUMP JUMPDEST PUSH0 DUP2 MLOAD SWAP1 POP SWAP2 SWAP1 POP JUMP JUMPDEST PUSH0 DUP3 DUP3 MSTORE PUSH1 0x20 DUP3 ADD SWAP1 POP SWAP3 SWAP2 POP POP JUMP JUMPDEST PUSH0 PUSH2 0x2D00 DUP3 PUSH2 0x2CDC JUMP JUMPDEST PUSH2 0x2D0A DUP2 DUP6 PUSH2 0x2CE6 JUMP JUMPDEST SWAP4 POP PUSH2 0x2D1A DUP2 DUP6 PUSH1 0x20 DUP7 ADD PUSH2 0x2164 JUMP JUMPDEST PUSH2 0x2D23 DUP2 PUSH2 0x218C JUMP JUMPDEST DUP5 ADD SWAP2 POP POP SWAP3 SWAP2 POP POP JUMP JUMPDEST PUSH0 PUSH1 0xA0 DUP3 ADD SWAP1 POP PUSH2 0x2D41 PUSH0 DUP4 ADD DUP9 PUSH2 0x28A7 JUMP JUMPDEST PUSH2 0x2D4E PUSH1 0x20 DUP4 ADD DUP8 PUSH2 0x28A7 JUMP JUMPDEST PUSH2 0x2D5B PUSH1 0x40 DUP4 ADD DUP7 PUSH2 0x2044 JUMP JUMPDEST PUSH2 0x2D68 PUSH1 0x60 DUP4 ADD DUP6 PUSH2 0x2044 JUMP JUMPDEST DUP2 DUP2 SUB PUSH1 0x80 DUP4 ADD MSTORE PUSH2 0x2D7A DUP2 DUP5 PUSH2 0x2CF6 JUMP JUMPDEST SWAP1 POP SWAP7 SWAP6 POP POP POP POP POP POP JUMP JUMPDEST PUSH0 DUP2 MLOAD SWAP1 POP PUSH2 0x2D94 DUP2 PUSH2 0x2097 JUMP JUMPDEST SWAP3 SWAP2 POP POP JUMP JUMPDEST PUSH0 PUSH1 0x20 DUP3 DUP5 SUB SLT ISZERO PUSH2 0x2DAF JUMPI PUSH2 0x2DAE PUSH2 0x1F71 JUMP JUMPDEST JUMPDEST PUSH0 PUSH2 0x2DBC DUP5 DUP3 DUP6 ADD PUSH2 0x2D86 JUMP JUMPDEST SWAP2 POP POP SWAP3 SWAP2 POP POP JUMP JUMPDEST PUSH0 PUSH1 0xA0 DUP3 ADD SWAP1 POP PUSH2 0x2DD8 PUSH0 DUP4 ADD DUP9 PUSH2 0x28A7 JUMP JUMPDEST PUSH2 0x2DE5 PUSH1 0x20 DUP4 ADD DUP8 PUSH2 0x28A7 JUMP JUMPDEST DUP2 DUP2 SUB PUSH1 0x40 DUP4 ADD MSTORE PUSH2 0x2DF7 DUP2 DUP7 PUSH2 0x26F8 JUMP JUMPDEST SWAP1 POP DUP2 DUP2 SUB PUSH1 0x60 DUP4 ADD MSTORE PUSH2 0x2E0B DUP2 DUP6 PUSH2 0x26F8 JUMP JUMPDEST SWAP1 POP DUP2 DUP2 SUB PUSH1 0x80 DUP4 ADD MSTORE PUSH2 0x2E1F DUP2 DUP5 PUSH2 0x2CF6 JUMP JUMPDEST SWAP1 POP SWAP7 SWAP6 POP POP POP POP POP POP JUMP JUMPDEST PUSH0 PUSH2 0x2E35 DUP3 PUSH2 0x1FD3 JUMP JUMPDEST SWAP2 POP PUSH2 0x2E40 DUP4 PUSH2 0x1FD3 JUMP JUMPDEST SWAP3 POP DUP3 DUP3 ADD SWAP1 POP DUP1 DUP3 GT ISZERO PUSH2 0x2E58 JUMPI PUSH2 0x2E57 PUSH2 0x2C00 JUMP JUMPDEST JUMPDEST SWAP3 SWAP2 POP POP JUMP JUMPDEST PUSH0 PUSH1 0x80 DUP3 ADD SWAP1 POP PUSH2 0x2E71 PUSH0 DUP4 ADD DUP8 PUSH2 0x28A7 JUMP JUMPDEST PUSH2 0x2E7E PUSH1 0x20 DUP4 ADD DUP7 PUSH2 0x2044 JUMP JUMPDEST PUSH2 0x2E8B PUSH1 0x40 DUP4 ADD DUP6 PUSH2 0x2044 JUMP JUMPDEST PUSH2 0x2E98 PUSH1 0x60 DUP4 ADD DUP5 PUSH2 0x2044 JUMP JUMPDEST SWAP6 SWAP5 POP POP POP POP POP JUMP JUMPDEST PUSH0 PUSH1 0x40 DUP3 ADD SWAP1 POP DUP2 DUP2 SUB PUSH0 DUP4 ADD MSTORE PUSH2 0x2EB9 DUP2 DUP6 PUSH2 0x26F8 JUMP JUMPDEST SWAP1 POP DUP2 DUP2 SUB PUSH1 0x20 DUP4 ADD MSTORE PUSH2 0x2ECD DUP2 DUP5 PUSH2 0x26F8 JUMP JUMPDEST SWAP1 POP SWAP4 SWAP3 POP POP POP JUMP INVALID LOG2 PUSH5 0x6970667358 0x22 SLT KECCAK256 PUSH15 0x981728272F3C0E563A277C4D69E97F GASLIMIT BALANCE RETURNDATASIZE 0xB7 0xA6 NOT 0x5C 0xF9 0xA7 0xDC MLOAD DIV SSTORE SGT TIMESTAMP 0x2C PUSH5 0x736F6C6343 STOP ADDMOD EQ STOP CALLER "
				},
				"gasEstimates": {
					"creation": {
						"codeDepositCost": "2408800",
						"executionCost": "infinite",
						"totalCost": "infinite"
					},
					"external": {
						"balanceOf(address,uint256)": "infinite",
						"balanceOfBatch(address[],uint256[])": "infinite",
						"burn(address,uint256,uint256)": "infinite",
						"burnBatch(address,uint256[],uint256[])": "infinite",
						"exists(uint256)": "2890",
						"gameAddress()": "2597",
						"isApprovedForAll(address,address)": "infinite",
						"mint(address,uint256,uint256,bytes)": "infinite",
						"mintBatch(address,uint256[],uint256[],bytes)": "infinite",
						"owner()": "2582",
						"renounceOwnership()": "infinite",
						"safeBatchTransferFrom(address,address,uint256[],uint256[],bytes)": "infinite",
						"safeTransferFrom(address,address,uint256,uint256,bytes)": "infinite",
						"setApprovalForAll(address,bool)": "infinite",
						"setGameAddress(address)": "infinite",
						"supportsInterface(bytes4)": "809",
						"totalSupply()": "2522",
						"totalSupply(uint256)": "infinite",
						"transferOwnership(address)": "infinite",
						"uri(uint256)": "infinite"
					},
					"internal": {
						"_update(address,address,uint256[] memory,uint256[] memory)": "infinite"
					}
				},
				"methodIdentifiers": {
					"balanceOf(address,uint256)": "00fdd58e",
					"balanceOfBatch(address[],uint256[])": "4e1273f4",
					"burn(address,uint256,uint256)": "f5298aca",
					"burnBatch(address,uint256[],uint256[])": "6b20c454",
					"exists(uint256)": "4f558e79",
					"gameAddress()": "a168d873",
					"isApprovedForAll(address,address)": "e985e9c5",
					"mint(address,uint256,uint256,bytes)": "731133e9",
					"mintBatch(address,uint256[],uint256[],bytes)": "1f7fdffa",
					"owner()": "8da5cb5b",
					"renounceOwnership()": "715018a6",
					"safeBatchTransferFrom(address,address,uint256[],uint256[],bytes)": "2eb2c2d6",
					"safeTransferFrom(address,address,uint256,uint256,bytes)": "f242432a",
					"setApprovalForAll(address,bool)": "a22cb465",
					"setGameAddress(address)": "711953ef",
					"supportsInterface(bytes4)": "01ffc9a7",
					"totalSupply()": "18160ddd",
					"totalSupply(uint256)": "bd85b039",
					"transferOwnership(address)": "f2fde38b",
					"uri(uint256)": "0e89341c"
				}
			},
			"storageLayout": {
				"storage": [
					{
						"astId": 326,
						"contract": "contracts/SomTokens/SomTokens.sol:SomTokens",
						"label": "_balances",
						"offset": 0,
						"slot": "0",
						"type": "t_mapping(t_uint256,t_mapping(t_address,t_uint256))"
					},
					{
						"astId": 332,
						"contract": "contracts/SomTokens/SomTokens.sol:SomTokens",
						"label": "_operatorApprovals",
						"offset": 0,
						"slot": "1",
						"type": "t_mapping(t_address,t_mapping(t_address,t_bool))"
					},
					{
						"astId": 334,
						"contract": "contracts/SomTokens/SomTokens.sol:SomTokens",
						"label": "_uri",
						"offset": 0,
						"slot": "2",
						"type": "t_string_storage"
					},
					{
						"astId": 8,
						"contract": "contracts/SomTokens/SomTokens.sol:SomTokens",
						"label": "_owner",
						"offset": 0,
						"slot": "3",
						"type": "t_address"
					},
					{
						"astId": 1591,
						"contract": "contracts/SomTokens/SomTokens.sol:SomTokens",
						"label": "_totalSupply",
						"offset": 0,
						"slot": "4",
						"type": "t_mapping(t_uint256,t_uint256)"
					},
					{
						"astId": 1593,
						"contract": "contracts/SomTokens/SomTokens.sol:SomTokens",
						"label": "_totalSupplyAll",
						"offset": 0,
						"slot": "5",
						"type": "t_uint256"
					},
					{
						"astId": 3190,
						"contract": "contracts/SomTokens/SomTokens.sol:SomTokens",
						"label": "gameAddress",
						"offset": 0,
						"slot": "6",
						"type": "t_address"
					}
				],
				"types": {
					"t_address": {
						"encoding": "inplace",
						"label": "address",
						"numberOfBytes": "20"
					},
					"t_bool": {
						"encoding": "inplace",
						"label": "bool",
						"numberOfBytes": "1"
					},
					"t_mapping(t_address,t_bool)": {
						"encoding": "mapping",
						"key": "t_address",
						"label": "mapping(address => bool)",
						"numberOfBytes": "32",
						"value": "t_bool"
					},
					"t_mapping(t_address,t_mapping(t_address,t_bool))": {
						"encoding": "mapping",
						"key": "t_address",
						"label": "mapping(address => mapping(address => bool))",
						"numberOfBytes": "32",
						"value": "t_mapping(t_address,t_bool)"
					},
					"t_mapping(t_address,t_uint256)": {
						"encoding": "mapping",
						"key": "t_address",
						"label": "mapping(address => uint256)",
						"numberOfBytes": "32",
						"value": "t_uint256"
					},
					"t_mapping(t_uint256,t_mapping(t_address,t_uint256))": {
						"encoding": "mapping",
						"key": "t_uint256",
						"label": "mapping(uint256 => mapping(address => uint256))",
						"numberOfBytes": "32",
						"value": "t_mapping(t_address,t_uint256)"
					},
					"t_mapping(t_uint256,t_uint256)": {
						"encoding": "mapping",
						"key": "t_uint256",
						"label": "mapping(uint256 => uint256)",
						"numberOfBytes": "32",
						"value": "t_uint256"
					},
					"t_string_storage": {
						"encoding": "bytes",
						"label": "string",
						"numberOfBytes": "32"
					},
					"t_uint256": {
						"encoding": "inplace",
						"label": "uint256",
						"numberOfBytes": "32"
					}
				}
			},
			"userdoc": {
				"kind": "user",
				"methods": {},
				"version": 1
			}
		}
	}
}