{
	"data": {
		"bytecode": {
			"linkReferences": {},
			"object": "6101006040523480156200001257600080fd5b50604051620040f8380380620040f883398101604081905262000035916200026d565b620000403362000200565b601280546001600160a01b038086166001600160a01b0319928316811790935560138054868316931692909217909155600f805461ffff191661c35017905585166080526040805163313ce56760e01b8152905163313ce56791600481810192602092909190829003018186803b158015620000bb57600080fd5b505afa158015620000d0573d6000803e3d6000fd5b505050506040513d601f19601f82011682018060405250810190620000f69190620002ca565b60ff1660a05260327f54cdd369e4e8a8515e52ca72ec816c2101831ad1f18bf44102ed171459c9b4f8556101f47f3e5fec24aa4dc4e5aee2e025e51e1392c72a2500577559fae9665c6d52bd6a31556113887f8819ef417987f8ae7a81f42cdfb18815282fe989326fbff903d13cf0e03ace2955600760205260647f6d5257204ebe7d88fd91ae87941cb2dd9d8062b64ae5a2bd2d28ec40b9fbf6df556103e87fb39221ace053465ec3453ce2b36430bd138b997ecea25c1043da0c366812b8285560026000526127107fb7c774451310d1be4108bc180d1b52823cb0ee0274a6c0081bcaf94f115fb96d556001600160a01b0390811660c0529190911660e05250620002f69050565b600080546001600160a01b038381166001600160a01b0319831681178455604051919092169283917f8be0079c531659141344cd1fd0a4f28419497f9722a3daafe3b4186f6b6457e09190a35050565b80516001600160a01b03811681146200026857600080fd5b919050565b600080600080608085870312156200028457600080fd5b6200028f8562000250565b93506200029f6020860162000250565b9250620002af6040860162000250565b9150620002bf6060860162000250565b905092959194509250565b600060208284031215620002dd57600080fd5b815160ff81168114620002ef57600080fd5b9392505050565b60805160a05160c05160e051613d35620003c3600039600081816103390152818161161801528181611826015281816119c501528181611c5c015281816122d7015281816123a901526124130152600081816105f00152818161158d015281816117850152818161190701528181611bc00152818161229c01528181612353015281816123ca015281816123f2015261262701526000818161099401528181610d0801528181610da10152818161266f015261357b015260008181610a770152612b2a0152613d356000f3fe608060405234801561001057600080fd5b506004361061025e5760003560e01c806372da0d8111610146578063ba4c28c3116100c3578063d276290d11610087578063d276290d14610612578063d900f9381461061a578063e2eb41ff1461062d578063ec16b94a146106cd578063f23a6e61146106e0578063f2fde38b146106ff57600080fd5b8063ba4c28c314610522578063bbf5ed7014610542578063bc197c811461054a578063bfb231d214610582578063d21220a7146105eb57600080fd5b80639cd51d251161010a5780639cd51d25146104ce578063a114398d146104d6578063a694fc3a146104e9578063b1411f97146104fc578063b9999efb1461050f57600080fd5b806372da0d81146104715780638da5cb5b146104845780639979c009146104955780639c8f9f23146104a85780639cd441da146104bb57600080fd5b80632ddbd13a116101df57806355a4de2b116101a357806355a4de2b146104295780635a76f25e1461043c5780635c0b9a2b146104455780635d26b8381461044e5780636836247114610456578063715018a61461046957600080fd5b80632ddbd13a1461039e5780632e17de78146103e8578063372500ab146103fb5780633d35453b1461040357806351563f8e1461041657600080fd5b806316f0115b1161022657806316f0115b146102fe57806324bcc96c1461030c57806324ed2a0f1461032157806325be124e146103345780632db2ede51461035b57600080fd5b806301ffc9a7146102635780630902f1ac1461028b5780630e498fce146102a757806315770f92146102c757806315b4cbba146102de575b600080fd5b6102766102713660046135ab565b610712565b60405190151581526020015b60405180910390f35b6014546015545b60408051928352602083019190915201610282565b6013546102ba906001600160a01b031681565b60405161028291906135d5565b6102d060165481565b604051908152602001610282565b6102d06102ec3660046135e9565b60046020526000908152604090205481565b601054601154610292919082565b61031f61031a366004613628565b610749565b005b61031f61032f366004613664565b610850565b6102ba7f000000000000000000000000000000000000000000000000000000000000000081565b6103906103693660046135e9565b6003602052600090815260409020546001600160a01b03811690600160a01b900460ff1682565b60405161028292919061369c565b600b54600c54600d54600e54600f546103bc949392919061ffff1685565b60408051958652602086019490945292840191909152606083015261ffff16608082015260a001610282565b61031f6103f63660046135e9565b610980565b61031f610ac2565b61031f6104113660046135e9565b610b65565b61031f6104243660046135e9565b610bd0565b6012546102ba906001600160a01b031681565b6102d060145481565b6102d060155481565b61031f610cf5565b61031f610464366004613664565b610ea4565b61031f610fa0565b61031f61047f3660046135e9565b610fb4565b6000546001600160a01b03166102ba565b61031f6104a3366004613664565b61113e565b6102926104b63660046135e9565b611512565b6102d06104c9366004613664565b6118ed565b61031f611d1f565b6102d06104e43660046136d7565b612298565b61031f6104f73660046135e9565b61266a565b61031f61050a3660046135e9565b61274d565b6102d061051d366004613701565b612a4f565b6102d0610530366004613736565b60176020526000908152604090205481565b61031f612a8d565b610569610558366004613888565b63bc197c8160e01b95945050505050565b6040516001600160e01b03199091168152602001610282565b6105c16105903660046135e9565b60056020526000908152604090208054600182015460028301546003909301546001600160a01b0390921692909184565b604080516001600160a01b0390951685526020850193909352918301526060820152608001610282565b6102ba7f000000000000000000000000000000000000000000000000000000000000000081565b61031f612c4c565b61031f610628366004613664565b612cdf565b61068a61063b366004613736565b60016020819052600091825260409091208054918101546002820154600383015460048401546005909401549293919290919061ffff81169060ff620100008204811691630100000090041688565b604080519889526020890197909752958701949094526060860192909252608085015261ffff1660a0840152151560c0830152151560e082015261010001610282565b61031f6106db366004613932565b612dd1565b6105696106ee36600461395e565b63f23a6e6160e01b95945050505050565b61031f61070d366004613736565b612f54565b60006001600160e01b03198216630271189760e51b148061074357506301ffc9a760e01b6001600160e01b03198316145b92915050565b610751612fcd565b60008281526003602052604090206103e88310806107715750620f423f83115b1561078f57604051632dff3ce360e11b815260040160405180910390fd5b61079a6002846139d9565b156107b857604051630b93e5dd60e31b815260040160405180910390fd5b80546001600160a01b0316156107e15760405163202a29cd60e21b815260040160405180910390fd5b80546001600160a01b0385166001600160a01b0319821681178355839183916001600160a81b031990911617600160a01b83600281111561082457610824613686565b02179055508260046000610839836001613a03565b815260208101919091526040016000205550505050565b600061086361085e84613027565b613054565b60135460208201519192506001600160a01b03169063f5298aca90339060009086906006908390600281111561089b5761089b613686565b60028111156108ac576108ac613686565b8152602001908152602001600020546108c59190613a1b565b6040518463ffffffff1660e01b81526004016108e393929190613a3a565b600060405180830381600087803b1580156108fd57600080fd5b505af1158015610911573d6000803e3d6000fd5b505060135460405163731133e960e01b81526001600160a01b03909116925063731133e9915061094990339087908790600401613a5b565b600060405180830381600087803b15801561096357600080fd5b505af1158015610977573d6000803e3d6000fd5b50505050505050565b3360009081526001602052604090206109ba7f0000000000000000000000000000000000000000000000000000000000000000600a613b6f565b6109c490836139d9565b156109e257604051630692acc560e51b815260040160405180910390fd5b8054821115610a0457604051632ca2f52b60e11b815260040160405180910390fd5b81600b6000016000828254610a199190613b7b565b9091555050600c8054839190600090610a33908490613a03565b9091555050805482908290600090610a4c908490613b7b565b9250508190555081816001016000828254610a679190613a03565b9091555050336001600160a01b037f0000000000000000000000000000000000000000000000000000000000000000161415610ab257610aa942610258613a03565b60028201555050565b610aa94261012c613a03565b5050565b336000908152600160205260409020600381018054600090915560125460405163a9059cbb60e01b81526001600160a01b039091169063a9059cbb90610b0e9033908590600401613b92565b602060405180830381600087803b158015610b2857600080fd5b505af1158015610b3c573d6000803e3d6000fd5b505050506040513d601f19601f82011682018060405250810190610b609190613bab565b505050565b610b6d612fcd565b600a811080610b7d57506103e781115b15610b9b57604051632dff3ce360e11b815260040160405180910390fd5b600980546001810182556000919091527f6e1540171b6c0c960b71a7020d9f60077f6af931a8bbf590da0223dacf75c7af0155565b600081815260056020526040902080546001600160a01b03163314610c365760405162461bcd60e51b81526020600482015260176024820152762cb7ba9030b932903737ba103a34329039b2b63632b91760491b60448201526064015b60405180910390fd5b6000816002015411610c7e5760405162461bcd60e51b815260206004820152601160248201527020b63932b0b23c9039b7b6321037baba1760791b6044820152606401610c2d565b60028101805460009091556040518381527faaa1d3661f3ab66031e2fb89aed63bd6d1ab6123cf6fe00d14d0305ad3baaa469060200160405180910390a16013546001830154604051637921219560e11b81526001600160a01b039092169163f242432a9161094991309133918790600401613bcd565b610cfd612fcd565b600b54600090610d2e7f0000000000000000000000000000000000000000000000000000000000000000600a613b6f565b601054610d3b9190613a1b565b610d459190613c05565b90506000805b600854811015610e1c57600060088281548110610d6a57610d6a613c19565b60009182526020808320909101546001600160a01b03168083526001909152604090912080549192509015610e0757600085610dc77f0000000000000000000000000000000000000000000000000000000000000000600a613b6f565b8354610dd39190613c05565b610ddd9190613a1b565b905080826003016000828254610df39190613a03565b90915550610e0390508186613a03565b9450505b50508080610e1490613c2f565b915050610d4b565b50601180546000918290556010805491928492610e3a908490613b7b565b9091555050600e8054829190600090610e54908490613a03565b9091555050600d8054839190600090610e6e908490613a03565b9091555050601254604051630852cd8d60e31b8152600481018390526001600160a01b03909116906342966c6890602401610949565b6000610eaf83613054565b601354604051637a94c56560e11b81529192506001600160a01b03169063f5298aca90610ee490339087908790600401613a3a565b600060405180830381600087803b158015610efe57600080fd5b505af1158015610f12573d6000803e3d6000fd5b50505050601360009054906101000a90046001600160a01b03166001600160a01b031663731133e9336000856007600087602001516002811115610f5857610f58613686565b6002811115610f6957610f69613686565b815260200190815260200160002054610f829190613a1b565b6040518463ffffffff1660e01b815260040161094993929190613a5b565b610fa8612fcd565b610fb260006130f1565b565b6000610fbf82613027565b90506000610fcc82613054565b90506000610fe282600001518360200151613141565b6012546040516323b872dd60e01b81529192506001600160a01b0316906323b872dd9061101790339030908690600401613c4a565b602060405180830381600087803b15801561103157600080fd5b505af1158015611045573d6000803e3d6000fd5b505050506040513d601f19601f820116820180604052508101906110699190613bab565b50601354604051637a94c56560e11b81526001600160a01b039091169063f5298aca9061109f9033908890600390600401613a3a565b600060405180830381600087803b1580156110b957600080fd5b505af11580156110cd573d6000803e3d6000fd5b505060135460405163731133e960e01b81526001600160a01b03909116925063731133e991506111069033908790600190600401613a5b565b600060405180830381600087803b15801561112057600080fd5b505af1158015611134573d6000803e3d6000fd5b5050505050505050565b6000828152600560205260409020600281015482111561117157604051632ca2f52b60e11b815260040160405180910390fd5b60008282600301546111839190613a1b565b9050600080600080600a8660010154101580156111a557506103e88660010154105b156111df576111b5606486613c05565b6111c0906002613a1b565b93506111cd606486613c05565b6111d8906001613a1b565b92506112b3565b6103e88660010154101580156111fb5750620186a08660010154105b156112b3576002866001015461121191906139d9565b611238575060018501546000908152600360205260409020546001600160a01b031661126a565b600360006001886001015461124d9190613b7b565b81526020810191909152604001600020546001600160a01b031690505b611275606486613c05565b611280906001613a1b565b935061128d606486613c05565b611298906001613a1b565b92506112a5606486613c05565b6112b0906001613a1b565b91505b600082846112c18789613b7b565b6112cb9190613b7b565b6112d59190613b7b565b9050878760020160008282546112eb9190613b7b565b909155505060118054859190600090611305908490613a03565b90915550506010805486919060009061131f908490613a03565b90915550506001600160a01b0382166000908152600160205260408120600301805485929061134f908490613a03565b9091555050604080518a8152602081018a90527fc2e673eca69e250dcbf52a7d0b0b0dbe3f91c5485bcbaa44245d15cbc3460aba910160405180910390a16012546040516323b872dd60e01b81526001600160a01b03909116906323b872dd906113c190339030908b90600401613c4a565b602060405180830381600087803b1580156113db57600080fd5b505af11580156113ef573d6000803e3d6000fd5b505050506040513d601f19601f820116820180604052508101906114139190613bab565b50601254875460405163a9059cbb60e01b81526001600160a01b039283169263a9059cbb92611449929116908590600401613b92565b602060405180830381600087803b15801561146357600080fd5b505af1158015611477573d6000803e3d6000fd5b505050506040513d601f19601f8201168201806040525081019061149b9190613bab565b506013546001880154604051637921219560e11b81526001600160a01b039092169163f242432a916114d591309133918e90600401613bcd565b600060405180830381600087803b1580156114ef57600080fd5b505af1158015611503573d6000803e3d6000fd5b50505050505050505050505050565b3360009081526017602052604081205481908311156115735760405162461bcd60e51b815260206004820152601d60248201527f496e73756666696369656e74206c6971756964697479207368617265730000006044820152606401610c2d565b6040516370a0823160e01b81526000906001600160a01b037f000000000000000000000000000000000000000000000000000000000000000016906370a08231906115c29030906004016135d5565b60206040518083038186803b1580156115da57600080fd5b505afa1580156115ee573d6000803e3d6000fd5b505050506040513d601f19601f820116820180604052508101906116129190613c6e565b905060007f00000000000000000000000000000000000000000000000000000000000000006001600160a01b03166370a08231306040518263ffffffff1660e01b815260040161166291906135d5565b60206040518083038186803b15801561167a57600080fd5b505afa15801561168e573d6000803e3d6000fd5b505050506040513d601f19601f820116820180604052508101906116b29190613c6e565b601654909150806116c38488613a1b565b6116cd9190613c05565b9450806116da8388613a1b565b6116e49190613c05565b93506000851180156116f65750600084115b6117425760405162461bcd60e51b815260206004820152601d60248201527f496e73756666696369656e74207472616e7366657220616d6f756e74730000006044820152606401610c2d565b61174c3387613278565b61176e6117598685613b7b565b6117638685613b7b565b601491909155601555565b60405163a9059cbb60e01b81526001600160a01b037f0000000000000000000000000000000000000000000000000000000000000000169063a9059cbb906117bc9033908990600401613b92565b602060405180830381600087803b1580156117d657600080fd5b505af11580156117ea573d6000803e3d6000fd5b505050506040513d601f19601f8201168201806040525081019061180e9190613bab565b5060405163a9059cbb60e01b81526001600160a01b037f0000000000000000000000000000000000000000000000000000000000000000169063a9059cbb9061185d9033908890600401613b92565b602060405180830381600087803b15801561187757600080fd5b505af115801561188b573d6000803e3d6000fd5b505050506040513d601f19601f820116820180604052508101906118af9190613bab565b5060405186815233907fcb69be6f06914cd72d42e18a286e6ea41d64fa0e34ba87c4002d28c4c493522a9060200160405180910390a2505050915091565b6040516323b872dd60e01b81526000906001600160a01b037f000000000000000000000000000000000000000000000000000000000000000016906323b872dd9061194090339030908890600401613c4a565b602060405180830381600087803b15801561195a57600080fd5b505af115801561196e573d6000803e3d6000fd5b505050506040513d601f19601f820116820180604052508101906119929190613bab565b6119ae5760405162461bcd60e51b8152600401610c2d90613c87565b6040516323b872dd60e01b81526001600160a01b037f000000000000000000000000000000000000000000000000000000000000000016906323b872dd906119fe90339030908790600401613c4a565b602060405180830381600087803b158015611a1857600080fd5b505af1158015611a2c573d6000803e3d6000fd5b505050506040513d601f19601f82011682018060405250810190611a509190613bab565b611a6c5760405162461bcd60e51b8152600401610c2d90613c87565b600080611a7c6014546015549091565b915091506000821180611a8f5750600081115b15611af557611a9e8285613a1b565b611aa88287613a1b565b14611af55760405162461bcd60e51b815260206004820152601d60248201527f556e62616c616e636564204c69717569646974792050726f76696465640000006044820152606401610c2d565b60165480611b1657611b0f611b0a8688613a1b565b6132c2565b9350611b4b565b611b4883611b248389613a1b565b611b2e9190613c05565b83611b398489613a1b565b611b439190613c05565b613332565b93505b60008411611b9b5760405162461bcd60e51b815260206004820152601a60248201527f4e6f204c697175696469747920536861726573204d696e7465640000000000006044820152606401610c2d565b611ba5338561334a565b6040516370a0823160e01b8152611ce1906001600160a01b037f000000000000000000000000000000000000000000000000000000000000000016906370a0823190611bf59030906004016135d5565b60206040518083038186803b158015611c0d57600080fd5b505afa158015611c21573d6000803e3d6000fd5b505050506040513d601f19601f82011682018060405250810190611c459190613c6e565b6040516370a0823160e01b81526001600160a01b037f000000000000000000000000000000000000000000000000000000000000000016906370a0823190611c919030906004016135d5565b60206040518083038186803b158015611ca957600080fd5b505afa158015611cbd573d6000803e3d6000fd5b505050506040513d601f19601f820116820180604052508101906117639190613c6e565b60405184815233907f9ce434f8c25ca029d1f79dd217b13223ff3c5eddc4bed0a34d004f56a854df7f9060200160405180910390a250505092915050565b33600090815260016020526040902060058101546301000000900460ff1615611d8a5760405162461bcd60e51b815260206004820152601d60248201527f53746172746572207061636b20636c61696d656420616c72656164792e0000006044820152606401610c2d565b611d9533606461338b565b60058101805463ff0000001916630100000017905560135460405163731133e960e01b81526001600160a01b039091169063731133e990611de2903390600090620186a090600401613a5b565b600060405180830381600087803b158015611dfc57600080fd5b505af1158015611e10573d6000803e3d6000fd5b505060135460405163731133e960e01b81526001600160a01b03909116925063731133e99150611e4a903390600a90606490600401613a5b565b600060405180830381600087803b158015611e6457600080fd5b505af1158015611e78573d6000803e3d6000fd5b505060135460405163731133e960e01b81526001600160a01b03909116925063731133e99150611eb2903390600b90606490600401613a5b565b600060405180830381600087803b158015611ecc57600080fd5b505af1158015611ee0573d6000803e3d6000fd5b505060135460405163731133e960e01b81526001600160a01b03909116925063731133e99150611f1b9033906103e990605a90600401613a5b565b600060405180830381600087803b158015611f3557600080fd5b505af1158015611f49573d6000803e3d6000fd5b505060135460405163731133e960e01b81526001600160a01b03909116925063731133e99150611f849033906103eb90605a90600401613a5b565b600060405180830381600087803b158015611f9e57600080fd5b505af1158015611fb2573d6000803e3d6000fd5b505060135460405163731133e960e01b81526001600160a01b03909116925063731133e99150611fed9033906103ed90605a90600401613a5b565b600060405180830381600087803b15801561200757600080fd5b505af115801561201b573d6000803e3d6000fd5b505060135460405163731133e960e01b81526001600160a01b03909116925063731133e991506120569033906103ef90605a90600401613a5b565b600060405180830381600087803b15801561207057600080fd5b505af1158015612084573d6000803e3d6000fd5b505060135460405163731133e960e01b81526001600160a01b03909116925063731133e991506120bf9033906103f190605a90600401613a5b565b600060405180830381600087803b1580156120d957600080fd5b505af11580156120ed573d6000803e3d6000fd5b505060135460405163731133e960e01b81526001600160a01b03909116925063731133e991506121289033906103f390605a90600401613a5b565b600060405180830381600087803b15801561214257600080fd5b505af1158015612156573d6000803e3d6000fd5b505060135460405163731133e960e01b81526001600160a01b03909116925063731133e991506121919033906103f590605a90600401613a5b565b600060405180830381600087803b1580156121ab57600080fd5b505af11580156121bf573d6000803e3d6000fd5b505060135460405163731133e960e01b81526001600160a01b03909116925063731133e991506121fa9033906103f790605a90600401613a5b565b600060405180830381600087803b15801561221457600080fd5b505af1158015612228573d6000803e3d6000fd5b505060135460405163731133e960e01b81526001600160a01b03909116925063731133e991506122639033906103f990605a90600401613a5b565b600060405180830381600087803b15801561227d57600080fd5b505af1158015612291573d6000803e3d6000fd5b5050505050565b60007f00000000000000000000000000000000000000000000000000000000000000006001600160a01b0316836001600160a01b0316148061230b57507f00000000000000000000000000000000000000000000000000000000000000006001600160a01b0316836001600160a01b0316145b61234f5760405162461bcd60e51b8152602060048201526015602482015274496e76616c696420546f6b656e204164647265737360581b6044820152606401610c2d565b60007f00000000000000000000000000000000000000000000000000000000000000006001600160a01b0316846001600160a01b03161490506000806123986014546015549091565b91509150600080600080866123f0577f00000000000000000000000000000000000000000000000000000000000000007f00000000000000000000000000000000000000000000000000000000000000008688612435565b7f00000000000000000000000000000000000000000000000000000000000000007f000000000000000000000000000000000000000000000000000000000000000087875b9350935093509350600089116124835760405162461bcd60e51b8152602060048201526013602482015272125b9cdd59999a58da595b9d08105b5bdd5b9d606a1b6044820152606401610c2d565b6040516323b872dd60e01b81526001600160a01b038516906323b872dd906124b390339030908e90600401613c4a565b602060405180830381600087803b1580156124cd57600080fd5b505af11580156124e1573d6000803e3d6000fd5b505050506040513d601f19601f820116820180604052508101906125059190613bab565b5060006103e86125178b6103e6613a1b565b6125219190613c05565b905061252d8184613a03565b6125378284613a1b565b6125419190613c05565b985081891061258b5760405162461bcd60e51b8152602060048201526016602482015275496e73756666696369656e74204c697175696469747960501b6044820152606401610c2d565b60405163a9059cbb60e01b81526001600160a01b0385169063a9059cbb906125b99033908d90600401613b92565b602060405180830381600087803b1580156125d357600080fd5b505af11580156125e7573d6000803e3d6000fd5b505050506040513d601f19601f8201168201806040525081019061260b9190613bab565b506040516370a0823160e01b815261265c906001600160a01b037f000000000000000000000000000000000000000000000000000000000000000016906370a0823190611bf59030906004016135d5565b505050505050505092915050565b6126957f0000000000000000000000000000000000000000000000000000000000000000600a613b6f565b61269f90826139d9565b156126bd57604051630692acc560e51b815260040160405180910390fd5b6126c7338261346e565b6012546040516323b872dd60e01b81526001600160a01b03909116906323b872dd906126fb90339030908690600401613c4a565b602060405180830381600087803b15801561271557600080fd5b505af1158015612729573d6000803e3d6000fd5b505050506040513d601f19601f82011682018060405250810190610abe9190613bab565b60006127596064613531565b90506000605a82101561276e57506000612790565b605a821015801561277f5750606382105b1561278c57506001612790565b5060025b6000838152600260208190526040822090829084908111156127b4576127b4613686565b60028111156127c5576127c5613686565b815260200190815260200160002080548060200260200160405190810160405280929190818152602001828054801561281d57602002820191906000526020600020905b815481526020019060010190808311612809575b5050505050905060008151116128715760405162461bcd60e51b815260206004820152601960248201527827379039b5b4b7399034b7103a3432903634b9ba103cb2ba1760391b6044820152606401610c2d565b60008161287e8351613531565b8151811061288e5761288e613c19565b6020026020010151905060006128a382613054565b905060006128b982600001518360200151613141565b60405184815290915033907fae33ae7e358b64f7a51ff8f7b5760fc71417704b8fcf2d004cce14b891b4305a9060200160405180910390a26012546040516323b872dd60e01b81526001600160a01b03909116906323b872dd9061292590339030908690600401613c4a565b602060405180830381600087803b15801561293f57600080fd5b505af1158015612953573d6000803e3d6000fd5b505050506040513d601f19601f820116820180604052508101906129779190613bab565b50601354604051637a94c56560e11b81526001600160a01b039091169063f5298aca906129ad9033908b90600190600401613a3a565b600060405180830381600087803b1580156129c757600080fd5b505af11580156129db573d6000803e3d6000fd5b505060135460405163731133e960e01b81526001600160a01b03909116925063731133e99150612a149033908790600190600401613a5b565b600060405180830381600087803b158015612a2e57600080fd5b505af1158015612a42573d6000803e3d6000fd5b5050505050505050505050565b60026020528260005260406000206020528160005260406000208181548110612a7757600080fd5b9060005260206000200160009250925050505481565b3360009081526001602052604090206000612aa96101f4613574565b6005830154612abc919061ffff16613a1b565b90506000612acb6103e8613574565b6005840154612ade919061ffff16613a1b565b90506000612aed6101f4613574565b6005850154612b00919061ffff16613a1b565b9050600081612b0f8486613a03565b612b199190613a03565b9050612b25338461346e565b612b4f7f00000000000000000000000000000000000000000000000000000000000000008361346e565b60058501805461ffff191690556012546040516340c10f1960e01b81526001600160a01b03909116906340c10f1990612b8e9030908590600401613b92565b600060405180830381600087803b158015612ba857600080fd5b505af1158015612bbc573d6000803e3d6000fd5b505060125460405163a9059cbb60e01b81526001600160a01b03909116925063a9059cbb9150612bf29033908890600401613b92565b602060405180830381600087803b158015612c0c57600080fd5b505af1158015612c20573d6000803e3d6000fd5b505050506040513d601f19601f82011682018060405250810190612c449190613bab565b505050505050565b3360009081526001602052604090206002810154421015612c8057604051639225b94160e01b815260040160405180910390fd5b6001810154600c8054829190600090612c9a908490613b7b565b9091555050600060018301819055600283015560125460405163a9059cbb60e01b81526001600160a01b039091169063a9059cbb90610b0e9033908590600401613b92565b612ce7612fcd565b6000828152600360209081526040808320815180830190925280546001600160a01b03811683529192909190830190600160a01b900460ff166002811115612d3157612d31613686565b6002811115612d4257612d42613686565b90525080519091506001600160a01b0316612d70576040516310ff5ebf60e21b815260040160405180910390fd5b6000828152600260208181526040832090840151909291811115612d9657612d96613686565b6002811115612da757612da7613686565b81526020808201929092526040016000908120805460018101825590825291902001929092555050565b6001821015612df357604051632ca2f52b60e11b815260040160405180910390fd5b612dfd6001613574565b811015612e575760405162461bcd60e51b815260206004820152602260248201527f41736b696e672070726963652073686f756c64206265206174206c6561737420604482015261189760f11b6064820152608401610c2d565b6001600a6000828254612e6a9190613a03565b909155505060408051608080820183523380835260208084018881528486018881526060808701898152600a80546000908152600587528a9020985189546001600160a01b0319166001600160a01b039091161789559351600189015591516002880155905160039096019590955554855190815290810188905293840186905291830184905290917fc02ebe2e0167b3ce101ff4be84bbeacf66a81eebb6f8d142ffd02ea3fdfd0b0a910160405180910390a2601354604051637921219560e11b81526001600160a01b039091169063f242432a90610949903390309088908890600401613bcd565b612f5c612fcd565b6001600160a01b038116612fc15760405162461bcd60e51b815260206004820152602660248201527f4f776e61626c653a206e6577206f776e657220697320746865207a65726f206160448201526564647265737360d01b6064820152608401610c2d565b612fca816130f1565b50565b6000546001600160a01b03163314610fb25760405162461bcd60e51b815260206004820181905260248201527f4f776e61626c653a2063616c6c6572206973206e6f7420746865206f776e65726044820152606401610c2d565b60008181526004602052604081205480610743576040516310ff5ebf60e21b815260040160405180910390fd5b60408051808201909152600080825260208201526000828152600360209081526040808320815180830190925280546001600160a01b03811683529192909190830190600160a01b900460ff1660028111156130b2576130b2613686565b60028111156130c3576130c3613686565b90525080519091506001600160a01b0316610743576040516310ff5ebf60e21b815260040160405180910390fd5b600080546001600160a01b038381166001600160a01b0319831681178455604051919092169283917f8be0079c531659141344cd1fd0a4f28419497f9722a3daafe3b4186f6b6457e09190a35050565b600080808084600281111561315857613158613686565b141561317c57613169610320613574565b91506131756064613574565b90506131e2565b600184600281111561319057613190613686565b14156131ae576131a1610258613574565b915061317561012c613574565b60028460028111156131c2576131c2613686565b14156131e2576131d26064613574565b91506131df610320613574565b90505b60006131ee6064613574565b90506000816131fd8486613a03565b6132079190613a03565b9050836010600001600082825461321e9190613a03565b909155505060118054839190600090613238908490613a03565b90915550506001600160a01b03871660009081526001602052604081206003018054859290613268908490613a03565b9091555090979650505050505050565b6001600160a01b038216600090815260176020526040812080548392906132a0908490613b7b565b9250508190555080601660008282546132b99190613b7b565b90915550505050565b6000600382111561332357508060006132dc600283613c05565b6132e7906001613a03565b90505b8181101561331d579050806002816133028186613c05565b61330c9190613a03565b6133169190613c05565b90506132ea565b50919050565b811561332d575060015b919050565b60008183106133415781613343565b825b9392505050565b6001600160a01b03821660009081526017602052604081208054839290613372908490613a03565b9250508190555080601660008282546132b99190613a03565b600f54600161ffff90911610156133a0575050565b600f5461ffff808316911610156133ee57600f80546001600160a01b0384166000908152600160205260409020600501805461ffff1990811661ffff90931692909217905581541690555050565b600f805482919060009061340790849061ffff16613cb6565b82546101009290920a61ffff8181021990931691831602179091556001600160a01b03841660009081526001602052604081206005018054859450909261345091859116613cd9565b92506101000a81548161ffff021916908361ffff1602179055505050565b6001600160a01b0382166000908152600160205260409020600581015462010000900460ff166134f957600880546001810182556000919091527ff3f7a9fe364faab93b216da50a3214154f22a0a2b415b23a84c8169e8b636ee30180546001600160a01b0385166001600160a01b031990911617905560058101805462ff00001916620100001790555b81600b600001600082825461350e9190613a03565b9091555050805482908290600090613527908490613a03565b9091555050505050565b60408051426020820152449181019190915233606082015260009082906080016040516020818303038152906040528051906020012060001c61074391906139d9565b60006135a17f0000000000000000000000000000000000000000000000000000000000000000600a613b6f565b6107439083613a1b565b6000602082840312156135bd57600080fd5b81356001600160e01b03198116811461334357600080fd5b6001600160a01b0391909116815260200190565b6000602082840312156135fb57600080fd5b5035919050565b80356001600160a01b038116811461332d57600080fd5b80356003811061332d57600080fd5b60008060006060848603121561363d57600080fd5b61364684613602565b92506020840135915061365b60408501613619565b90509250925092565b6000806040838503121561367757600080fd5b50508035926020909101359150565b634e487b7160e01b600052602160045260246000fd5b6001600160a01b038316815260408101600383106136ca57634e487b7160e01b600052602160045260246000fd5b8260208301529392505050565b600080604083850312156136ea57600080fd5b6136f383613602565b946020939093013593505050565b60008060006060848603121561371657600080fd5b8335925061372660208501613619565b9150604084013590509250925092565b60006020828403121561374857600080fd5b61334382613602565b634e487b7160e01b600052604160045260246000fd5b604051601f8201601f1916810167ffffffffffffffff8111828210171561379057613790613751565b604052919050565b600082601f8301126137a957600080fd5b8135602067ffffffffffffffff8211156137c5576137c5613751565b8160051b6137d4828201613767565b92835284810182019282810190878511156137ee57600080fd5b83870192505b8483101561380d578235825291830191908301906137f4565b979650505050505050565b600082601f83011261382957600080fd5b813567ffffffffffffffff81111561384357613843613751565b613856601f8201601f1916602001613767565b81815284602083860101111561386b57600080fd5b816020850160208301376000918101602001919091529392505050565b600080600080600060a086880312156138a057600080fd5b6138a986613602565b94506138b760208701613602565b9350604086013567ffffffffffffffff808211156138d457600080fd5b6138e089838a01613798565b945060608801359150808211156138f657600080fd5b61390289838a01613798565b9350608088013591508082111561391857600080fd5b5061392588828901613818565b9150509295509295909350565b60008060006060848603121561394757600080fd5b505081359360208301359350604090920135919050565b600080600080600060a0868803121561397657600080fd5b61397f86613602565b945061398d60208701613602565b93506040860135925060608601359150608086013567ffffffffffffffff8111156139b757600080fd5b61392588828901613818565b634e487b7160e01b600052601260045260246000fd5b6000826139e8576139e86139c3565b500690565b634e487b7160e01b600052601160045260246000fd5b60008219821115613a1657613a166139ed565b500190565b6000816000190483118215151615613a3557613a356139ed565b500290565b6001600160a01b039390931683526020830191909152604082015260600190565b6001600160a01b039390931683526020830191909152604082015260806060820181905260009082015260a00190565b600181815b80851115613ac6578160001904821115613aac57613aac6139ed565b80851615613ab957918102915b93841c9390800290613a90565b509250929050565b600082613add57506001610743565b81613aea57506000610743565b8160018114613b005760028114613b0a57613b26565b6001915050610743565b60ff841115613b1b57613b1b6139ed565b50506001821b610743565b5060208310610133831016604e8410600b8410161715613b49575081810a610743565b613b538383613a8b565b8060001904821115613b6757613b676139ed565b029392505050565b60006133438383613ace565b600082821015613b8d57613b8d6139ed565b500390565b6001600160a01b03929092168252602082015260400190565b600060208284031215613bbd57600080fd5b8151801515811461334357600080fd5b6001600160a01b0394851681529290931660208301526040820152606081019190915260a06080820181905260009082015260c00190565b600082613c1457613c146139c3565b500490565b634e487b7160e01b600052603260045260246000fd5b6000600019821415613c4357613c436139ed565b5060010190565b6001600160a01b039384168152919092166020820152604081019190915260600190565b600060208284031215613c8057600080fd5b5051919050565b602080825260159082015274151bdad95b88151c985b9cd9995c8811985a5b1959605a1b604082015260600190565b600061ffff83811690831681811015613cd157613cd16139ed565b039392505050565b600061ffff808316818516808303821115613cf657613cf66139ed565b0194935050505056fea26469706673582212207f8b6f3360264f3e66c25e426f8f1d45a9dbe0c9c20540f011fd8d417f889da064736f6c63430008090033",
			"opcodes": "PUSH2 0x100 PUSH1 0x40 MSTORE CALLVALUE DUP1 ISZERO PUSH3 0x12 JUMPI PUSH1 0x0 DUP1 REVERT JUMPDEST POP PUSH1 0x40 MLOAD PUSH3 0x40F8 CODESIZE SUB DUP1 PUSH3 0x40F8 DUP4 CODECOPY DUP2 ADD PUSH1 0x40 DUP2 SWAP1 MSTORE PUSH3 0x35 SWAP2 PUSH3 0x26D JUMP JUMPDEST PUSH3 0x40 CALLER PUSH3 0x200 JUMP JUMPDEST PUSH1 0x12 DUP1 SLOAD PUSH1 0x1 PUSH1 0x1 PUSH1 0xA0 SHL SUB DUP1 DUP7 AND PUSH1 0x1 PUSH1 0x1 PUSH1 0xA0 SHL SUB NOT SWAP3 DUP4 AND DUP2 OR SWAP1 SWAP4 SSTORE PUSH1 0x13 DUP1 SLOAD DUP7 DUP4 AND SWAP4 AND SWAP3 SWAP1 SWAP3 OR SWAP1 SWAP2 SSTORE PUSH1 0xF DUP1 SLOAD PUSH2 0xFFFF NOT AND PUSH2 0xC350 OR SWAP1 SSTORE DUP6 AND PUSH1 0x80 MSTORE PUSH1 0x40 DUP1 MLOAD PUSH4 0x313CE567 PUSH1 0xE0 SHL DUP2 MSTORE SWAP1 MLOAD PUSH4 0x313CE567 SWAP2 PUSH1 0x4 DUP2 DUP2 ADD SWAP3 PUSH1 0x20 SWAP3 SWAP1 SWAP2 SWAP1 DUP3 SWAP1 SUB ADD DUP2 DUP7 DUP1 EXTCODESIZE ISZERO DUP1 ISZERO PUSH3 0xBB JUMPI PUSH1 0x0 DUP1 REVERT JUMPDEST POP GAS STATICCALL ISZERO DUP1 ISZERO PUSH3 0xD0 JUMPI RETURNDATASIZE PUSH1 0x0 DUP1 RETURNDATACOPY RETURNDATASIZE PUSH1 0x0 REVERT JUMPDEST POP POP POP POP PUSH1 0x40 MLOAD RETURNDATASIZE PUSH1 0x1F NOT PUSH1 0x1F DUP3 ADD AND DUP3 ADD DUP1 PUSH1 0x40 MSTORE POP DUP2 ADD SWAP1 PUSH3 0xF6 SWAP2 SWAP1 PUSH3 0x2CA JUMP JUMPDEST PUSH1 0xFF AND PUSH1 0xA0 MSTORE PUSH1 0x32 PUSH32 0x54CDD369E4E8A8515E52CA72EC816C2101831AD1F18BF44102ED171459C9B4F8 SSTORE PUSH2 0x1F4 PUSH32 0x3E5FEC24AA4DC4E5AEE2E025E51E1392C72A2500577559FAE9665C6D52BD6A31 SSTORE PUSH2 0x1388 PUSH32 0x8819EF417987F8AE7A81F42CDFB18815282FE989326FBFF903D13CF0E03ACE29 SSTORE PUSH1 0x7 PUSH1 0x20 MSTORE PUSH1 0x64 PUSH32 0x6D5257204EBE7D88FD91AE87941CB2DD9D8062B64AE5A2BD2D28EC40B9FBF6DF SSTORE PUSH2 0x3E8 PUSH32 0xB39221ACE053465EC3453CE2B36430BD138B997ECEA25C1043DA0C366812B828 SSTORE PUSH1 0x2 PUSH1 0x0 MSTORE PUSH2 0x2710 PUSH32 0xB7C774451310D1BE4108BC180D1B52823CB0EE0274A6C0081BCAF94F115FB96D SSTORE PUSH1 0x1 PUSH1 0x1 PUSH1 0xA0 SHL SUB SWAP1 DUP2 AND PUSH1 0xC0 MSTORE SWAP2 SWAP1 SWAP2 AND PUSH1 0xE0 MSTORE POP PUSH3 0x2F6 SWAP1 POP JUMP JUMPDEST PUSH1 0x0 DUP1 SLOAD PUSH1 0x1 PUSH1 0x1 PUSH1 0xA0 SHL SUB DUP4 DUP2 AND PUSH1 0x1 PUSH1 0x1 PUSH1 0xA0 SHL SUB NOT DUP4 AND DUP2 OR DUP5 SSTORE PUSH1 0x40 MLOAD SWAP2 SWAP1 SWAP3 AND SWAP3 DUP4 SWAP2 PUSH32 0x8BE0079C531659141344CD1FD0A4F28419497F9722A3DAAFE3B4186F6B6457E0 SWAP2 SWAP1 LOG3 POP POP JUMP JUMPDEST DUP1 MLOAD PUSH1 0x1 PUSH1 0x1 PUSH1 0xA0 SHL SUB DUP2 AND DUP2 EQ PUSH3 0x268 JUMPI PUSH1 0x0 DUP1 REVERT JUMPDEST SWAP2 SWAP1 POP JUMP JUMPDEST PUSH1 0x0 DUP1 PUSH1 0x0 DUP1 PUSH1 0x80 DUP6 DUP8 SUB SLT ISZERO PUSH3 0x284 JUMPI PUSH1 0x0 DUP1 REVERT JUMPDEST PUSH3 0x28F DUP6 PUSH3 0x250 JUMP JUMPDEST SWAP4 POP PUSH3 0x29F PUSH1 0x20 DUP7 ADD PUSH3 0x250 JUMP JUMPDEST SWAP3 POP PUSH3 0x2AF PUSH1 0x40 DUP7 ADD PUSH3 0x250 JUMP JUMPDEST SWAP2 POP PUSH3 0x2BF PUSH1 0x60 DUP7 ADD PUSH3 0x250 JUMP JUMPDEST SWAP1 POP SWAP3 SWAP6 SWAP2 SWAP5 POP SWAP3 POP JUMP JUMPDEST PUSH1 0x0 PUSH1 0x20 DUP3 DUP5 SUB SLT ISZERO PUSH3 0x2DD JUMPI PUSH1 0x0 DUP1 REVERT JUMPDEST DUP2 MLOAD PUSH1 0xFF DUP2 AND DUP2 EQ PUSH3 0x2EF JUMPI PUSH1 0x0 DUP1 REVERT JUMPDEST SWAP4 SWAP3 POP POP POP JUMP JUMPDEST PUSH1 0x80 MLOAD PUSH1 0xA0 MLOAD PUSH1 0xC0 MLOAD PUSH1 0xE0 MLOAD PUSH2 0x3D35 PUSH3 0x3C3 PUSH1 0x0 CODECOPY PUSH1 0x0 DUP2 DUP2 PUSH2 0x339 ADD MSTORE DUP2 DUP2 PUSH2 0x1618 ADD MSTORE DUP2 DUP2 PUSH2 0x1826 ADD MSTORE DUP2 DUP2 PUSH2 0x19C5 ADD MSTORE DUP2 DUP2 PUSH2 0x1C5C ADD MSTORE DUP2 DUP2 PUSH2 0x22D7 ADD MSTORE DUP2 DUP2 PUSH2 0x23A9 ADD MSTORE PUSH2 0x2413 ADD MSTORE PUSH1 0x0 DUP2 DUP2 PUSH2 0x5F0 ADD MSTORE DUP2 DUP2 PUSH2 0x158D ADD MSTORE DUP2 DUP2 PUSH2 0x1785 ADD MSTORE DUP2 DUP2 PUSH2 0x1907 ADD MSTORE DUP2 DUP2 PUSH2 0x1BC0 ADD MSTORE DUP2 DUP2 PUSH2 0x229C ADD MSTORE DUP2 DUP2 PUSH2 0x2353 ADD MSTORE DUP2 DUP2 PUSH2 0x23CA ADD MSTORE DUP2 DUP2 PUSH2 0x23F2 ADD MSTORE PUSH2 0x2627 ADD MSTORE PUSH1 0x0 DUP2 DUP2 PUSH2 0x994 ADD MSTORE DUP2 DUP2 PUSH2 0xD08 ADD MSTORE DUP2 DUP2 PUSH2 0xDA1 ADD MSTORE DUP2 DUP2 PUSH2 0x266F ADD MSTORE PUSH2 0x357B ADD MSTORE PUSH1 0x0 DUP2 DUP2 PUSH2 0xA77 ADD MSTORE PUSH2 0x2B2A ADD MSTORE PUSH2 0x3D35 PUSH1 0x0 RETURN INVALID PUSH1 0x80 PUSH1 0x40 MSTORE CALLVALUE DUP1 ISZERO PUSH2 0x10 JUMPI PUSH1 0x0 DUP1 REVERT JUMPDEST POP PUSH1 0x4 CALLDATASIZE LT PUSH2 0x25E JUMPI PUSH1 0x0 CALLDATALOAD PUSH1 0xE0 SHR DUP1 PUSH4 0x72DA0D81 GT PUSH2 0x146 JUMPI DUP1 PUSH4 0xBA4C28C3 GT PUSH2 0xC3 JUMPI DUP1 PUSH4 0xD276290D GT PUSH2 0x87 JUMPI DUP1 PUSH4 0xD276290D EQ PUSH2 0x612 JUMPI DUP1 PUSH4 0xD900F938 EQ PUSH2 0x61A JUMPI DUP1 PUSH4 0xE2EB41FF EQ PUSH2 0x62D JUMPI DUP1 PUSH4 0xEC16B94A EQ PUSH2 0x6CD JUMPI DUP1 PUSH4 0xF23A6E61 EQ PUSH2 0x6E0 JUMPI DUP1 PUSH4 0xF2FDE38B EQ PUSH2 0x6FF JUMPI PUSH1 0x0 DUP1 REVERT JUMPDEST DUP1 PUSH4 0xBA4C28C3 EQ PUSH2 0x522 JUMPI DUP1 PUSH4 0xBBF5ED70 EQ PUSH2 0x542 JUMPI DUP1 PUSH4 0xBC197C81 EQ PUSH2 0x54A JUMPI DUP1 PUSH4 0xBFB231D2 EQ PUSH2 0x582 JUMPI DUP1 PUSH4 0xD21220A7 EQ PUSH2 0x5EB JUMPI PUSH1 0x0 DUP1 REVERT JUMPDEST DUP1 PUSH4 0x9CD51D25 GT PUSH2 0x10A JUMPI DUP1 PUSH4 0x9CD51D25 EQ PUSH2 0x4CE JUMPI DUP1 PUSH4 0xA114398D EQ PUSH2 0x4D6 JUMPI DUP1 PUSH4 0xA694FC3A EQ PUSH2 0x4E9 JUMPI DUP1 PUSH4 0xB1411F97 EQ PUSH2 0x4FC JUMPI DUP1 PUSH4 0xB9999EFB EQ PUSH2 0x50F JUMPI PUSH1 0x0 DUP1 REVERT JUMPDEST DUP1 PUSH4 0x72DA0D81 EQ PUSH2 0x471 JUMPI DUP1 PUSH4 0x8DA5CB5B EQ PUSH2 0x484 JUMPI DUP1 PUSH4 0x9979C009 EQ PUSH2 0x495 JUMPI DUP1 PUSH4 0x9C8F9F23 EQ PUSH2 0x4A8 JUMPI DUP1 PUSH4 0x9CD441DA EQ PUSH2 0x4BB JUMPI PUSH1 0x0 DUP1 REVERT JUMPDEST DUP1 PUSH4 0x2DDBD13A GT PUSH2 0x1DF JUMPI DUP1 PUSH4 0x55A4DE2B GT PUSH2 0x1A3 JUMPI DUP1 PUSH4 0x55A4DE2B EQ PUSH2 0x429 JUMPI DUP1 PUSH4 0x5A76F25E EQ PUSH2 0x43C JUMPI DUP1 PUSH4 0x5C0B9A2B EQ PUSH2 0x445 JUMPI DUP1 PUSH4 0x5D26B838 EQ PUSH2 0x44E JUMPI DUP1 PUSH4 0x68362471 EQ PUSH2 0x456 JUMPI DUP1 PUSH4 0x715018A6 EQ PUSH2 0x469 JUMPI PUSH1 0x0 DUP1 REVERT JUMPDEST DUP1 PUSH4 0x2DDBD13A EQ PUSH2 0x39E JUMPI DUP1 PUSH4 0x2E17DE78 EQ PUSH2 0x3E8 JUMPI DUP1 PUSH4 0x372500AB EQ PUSH2 0x3FB JUMPI DUP1 PUSH4 0x3D35453B EQ PUSH2 0x403 JUMPI DUP1 PUSH4 0x51563F8E EQ PUSH2 0x416 JUMPI PUSH1 0x0 DUP1 REVERT JUMPDEST DUP1 PUSH4 0x16F0115B GT PUSH2 0x226 JUMPI DUP1 PUSH4 0x16F0115B EQ PUSH2 0x2FE JUMPI DUP1 PUSH4 0x24BCC96C EQ PUSH2 0x30C JUMPI DUP1 PUSH4 0x24ED2A0F EQ PUSH2 0x321 JUMPI DUP1 PUSH4 0x25BE124E EQ PUSH2 0x334 JUMPI DUP1 PUSH4 0x2DB2EDE5 EQ PUSH2 0x35B JUMPI PUSH1 0x0 DUP1 REVERT JUMPDEST DUP1 PUSH4 0x1FFC9A7 EQ PUSH2 0x263 JUMPI DUP1 PUSH4 0x902F1AC EQ PUSH2 0x28B JUMPI DUP1 PUSH4 0xE498FCE EQ PUSH2 0x2A7 JUMPI DUP1 PUSH4 0x15770F92 EQ PUSH2 0x2C7 JUMPI DUP1 PUSH4 0x15B4CBBA EQ PUSH2 0x2DE JUMPI JUMPDEST PUSH1 0x0 DUP1 REVERT JUMPDEST PUSH2 0x276 PUSH2 0x271 CALLDATASIZE PUSH1 0x4 PUSH2 0x35AB JUMP JUMPDEST PUSH2 0x712 JUMP JUMPDEST PUSH1 0x40 MLOAD SWAP1 ISZERO ISZERO DUP2 MSTORE PUSH1 0x20 ADD JUMPDEST PUSH1 0x40 MLOAD DUP1 SWAP2 SUB SWAP1 RETURN JUMPDEST PUSH1 0x14 SLOAD PUSH1 0x15 SLOAD JUMPDEST PUSH1 0x40 DUP1 MLOAD SWAP3 DUP4 MSTORE PUSH1 0x20 DUP4 ADD SWAP2 SWAP1 SWAP2 MSTORE ADD PUSH2 0x282 JUMP JUMPDEST PUSH1 0x13 SLOAD PUSH2 0x2BA SWAP1 PUSH1 0x1 PUSH1 0x1 PUSH1 0xA0 SHL SUB AND DUP2 JUMP JUMPDEST PUSH1 0x40 MLOAD PUSH2 0x282 SWAP2 SWAP1 PUSH2 0x35D5 JUMP JUMPDEST PUSH2 0x2D0 PUSH1 0x16 SLOAD DUP2 JUMP JUMPDEST PUSH1 0x40 MLOAD SWAP1 DUP2 MSTORE PUSH1 0x20 ADD PUSH2 0x282 JUMP JUMPDEST PUSH2 0x2D0 PUSH2 0x2EC CALLDATASIZE PUSH1 0x4 PUSH2 0x35E9 JUMP JUMPDEST PUSH1 0x4 PUSH1 0x20 MSTORE PUSH1 0x0 SWAP1 DUP2 MSTORE PUSH1 0x40 SWAP1 KECCAK256 SLOAD DUP2 JUMP JUMPDEST PUSH1 0x10 SLOAD PUSH1 0x11 SLOAD PUSH2 0x292 SWAP2 SWAP1 DUP3 JUMP JUMPDEST PUSH2 0x31F PUSH2 0x31A CALLDATASIZE PUSH1 0x4 PUSH2 0x3628 JUMP JUMPDEST PUSH2 0x749 JUMP JUMPDEST STOP JUMPDEST PUSH2 0x31F PUSH2 0x32F CALLDATASIZE PUSH1 0x4 PUSH2 0x3664 JUMP JUMPDEST PUSH2 0x850 JUMP JUMPDEST PUSH2 0x2BA PUSH32 0x0 DUP2 JUMP JUMPDEST PUSH2 0x390 PUSH2 0x369 CALLDATASIZE PUSH1 0x4 PUSH2 0x35E9 JUMP JUMPDEST PUSH1 0x3 PUSH1 0x20 MSTORE PUSH1 0x0 SWAP1 DUP2 MSTORE PUSH1 0x40 SWAP1 KECCAK256 SLOAD PUSH1 0x1 PUSH1 0x1 PUSH1 0xA0 SHL SUB DUP2 AND SWAP1 PUSH1 0x1 PUSH1 0xA0 SHL SWAP1 DIV PUSH1 0xFF AND DUP3 JUMP JUMPDEST PUSH1 0x40 MLOAD PUSH2 0x282 SWAP3 SWAP2 SWAP1 PUSH2 0x369C JUMP JUMPDEST PUSH1 0xB SLOAD PUSH1 0xC SLOAD PUSH1 0xD SLOAD PUSH1 0xE SLOAD PUSH1 0xF SLOAD PUSH2 0x3BC SWAP5 SWAP4 SWAP3 SWAP2 SWAP1 PUSH2 0xFFFF AND DUP6 JUMP JUMPDEST PUSH1 0x40 DUP1 MLOAD SWAP6 DUP7 MSTORE PUSH1 0x20 DUP7 ADD SWAP5 SWAP1 SWAP5 MSTORE SWAP3 DUP5 ADD SWAP2 SWAP1 SWAP2 MSTORE PUSH1 0x60 DUP4 ADD MSTORE PUSH2 0xFFFF AND PUSH1 0x80 DUP3 ADD MSTORE PUSH1 0xA0 ADD PUSH2 0x282 JUMP JUMPDEST PUSH2 0x31F PUSH2 0x3F6 CALLDATASIZE PUSH1 0x4 PUSH2 0x35E9 JUMP JUMPDEST PUSH2 0x980 JUMP JUMPDEST PUSH2 0x31F PUSH2 0xAC2 JUMP JUMPDEST PUSH2 0x31F PUSH2 0x411 CALLDATASIZE PUSH1 0x4 PUSH2 0x35E9 JUMP JUMPDEST PUSH2 0xB65 JUMP JUMPDEST PUSH2 0x31F PUSH2 0x424 CALLDATASIZE PUSH1 0x4 PUSH2 0x35E9 JUMP JUMPDEST PUSH2 0xBD0 JUMP JUMPDEST PUSH1 0x12 SLOAD PUSH2 0x2BA SWAP1 PUSH1 0x1 PUSH1 0x1 PUSH1 0xA0 SHL SUB AND DUP2 JUMP JUMPDEST PUSH2 0x2D0 PUSH1 0x14 SLOAD DUP2 JUMP JUMPDEST PUSH2 0x2D0 PUSH1 0x15 SLOAD DUP2 JUMP JUMPDEST PUSH2 0x31F PUSH2 0xCF5 JUMP JUMPDEST PUSH2 0x31F PUSH2 0x464 CALLDATASIZE PUSH1 0x4 PUSH2 0x3664 JUMP JUMPDEST PUSH2 0xEA4 JUMP JUMPDEST PUSH2 0x31F PUSH2 0xFA0 JUMP JUMPDEST PUSH2 0x31F PUSH2 0x47F CALLDATASIZE PUSH1 0x4 PUSH2 0x35E9 JUMP JUMPDEST PUSH2 0xFB4 JUMP JUMPDEST PUSH1 0x0 SLOAD PUSH1 0x1 PUSH1 0x1 PUSH1 0xA0 SHL SUB AND PUSH2 0x2BA JUMP JUMPDEST PUSH2 0x31F PUSH2 0x4A3 CALLDATASIZE PUSH1 0x4 PUSH2 0x3664 JUMP JUMPDEST PUSH2 0x113E JUMP JUMPDEST PUSH2 0x292 PUSH2 0x4B6 CALLDATASIZE PUSH1 0x4 PUSH2 0x35E9 JUMP JUMPDEST PUSH2 0x1512 JUMP JUMPDEST PUSH2 0x2D0 PUSH2 0x4C9 CALLDATASIZE PUSH1 0x4 PUSH2 0x3664 JUMP JUMPDEST PUSH2 0x18ED JUMP JUMPDEST PUSH2 0x31F PUSH2 0x1D1F JUMP JUMPDEST PUSH2 0x2D0 PUSH2 0x4E4 CALLDATASIZE PUSH1 0x4 PUSH2 0x36D7 JUMP JUMPDEST PUSH2 0x2298 JUMP JUMPDEST PUSH2 0x31F PUSH2 0x4F7 CALLDATASIZE PUSH1 0x4 PUSH2 0x35E9 JUMP JUMPDEST PUSH2 0x266A JUMP JUMPDEST PUSH2 0x31F PUSH2 0x50A CALLDATASIZE PUSH1 0x4 PUSH2 0x35E9 JUMP JUMPDEST PUSH2 0x274D JUMP JUMPDEST PUSH2 0x2D0 PUSH2 0x51D CALLDATASIZE PUSH1 0x4 PUSH2 0x3701 JUMP JUMPDEST PUSH2 0x2A4F JUMP JUMPDEST PUSH2 0x2D0 PUSH2 0x530 CALLDATASIZE PUSH1 0x4 PUSH2 0x3736 JUMP JUMPDEST PUSH1 0x17 PUSH1 0x20 MSTORE PUSH1 0x0 SWAP1 DUP2 MSTORE PUSH1 0x40 SWAP1 KECCAK256 SLOAD DUP2 JUMP JUMPDEST PUSH2 0x31F PUSH2 0x2A8D JUMP JUMPDEST PUSH2 0x569 PUSH2 0x558 CALLDATASIZE PUSH1 0x4 PUSH2 0x3888 JUMP JUMPDEST PUSH4 0xBC197C81 PUSH1 0xE0 SHL SWAP6 SWAP5 POP POP POP POP POP JUMP JUMPDEST PUSH1 0x40 MLOAD PUSH1 0x1 PUSH1 0x1 PUSH1 0xE0 SHL SUB NOT SWAP1 SWAP2 AND DUP2 MSTORE PUSH1 0x20 ADD PUSH2 0x282 JUMP JUMPDEST PUSH2 0x5C1 PUSH2 0x590 CALLDATASIZE PUSH1 0x4 PUSH2 0x35E9 JUMP JUMPDEST PUSH1 0x5 PUSH1 0x20 MSTORE PUSH1 0x0 SWAP1 DUP2 MSTORE PUSH1 0x40 SWAP1 KECCAK256 DUP1 SLOAD PUSH1 0x1 DUP3 ADD SLOAD PUSH1 0x2 DUP4 ADD SLOAD PUSH1 0x3 SWAP1 SWAP4 ADD SLOAD PUSH1 0x1 PUSH1 0x1 PUSH1 0xA0 SHL SUB SWAP1 SWAP3 AND SWAP3 SWAP1 SWAP2 DUP5 JUMP JUMPDEST PUSH1 0x40 DUP1 MLOAD PUSH1 0x1 PUSH1 0x1 PUSH1 0xA0 SHL SUB SWAP1 SWAP6 AND DUP6 MSTORE PUSH1 0x20 DUP6 ADD SWAP4 SWAP1 SWAP4 MSTORE SWAP2 DUP4 ADD MSTORE PUSH1 0x60 DUP3 ADD MSTORE PUSH1 0x80 ADD PUSH2 0x282 JUMP JUMPDEST PUSH2 0x2BA PUSH32 0x0 DUP2 JUMP JUMPDEST PUSH2 0x31F PUSH2 0x2C4C JUMP JUMPDEST PUSH2 0x31F PUSH2 0x628 CALLDATASIZE PUSH1 0x4 PUSH2 0x3664 JUMP JUMPDEST PUSH2 0x2CDF JUMP JUMPDEST PUSH2 0x68A PUSH2 0x63B CALLDATASIZE PUSH1 0x4 PUSH2 0x3736 JUMP JUMPDEST PUSH1 0x1 PUSH1 0x20 DUP2 SWAP1 MSTORE PUSH1 0x0 SWAP2 DUP3 MSTORE PUSH1 0x40 SWAP1 SWAP2 KECCAK256 DUP1 SLOAD SWAP2 DUP2 ADD SLOAD PUSH1 0x2 DUP3 ADD SLOAD PUSH1 0x3 DUP4 ADD SLOAD PUSH1 0x4 DUP5 ADD SLOAD PUSH1 0x5 SWAP1 SWAP5 ADD SLOAD SWAP3 SWAP4 SWAP2 SWAP3 SWAP1 SWAP2 SWAP1 PUSH2 0xFFFF DUP2 AND SWAP1 PUSH1 0xFF PUSH3 0x10000 DUP3 DIV DUP2 AND SWAP2 PUSH4 0x1000000 SWAP1 DIV AND DUP9 JUMP JUMPDEST PUSH1 0x40 DUP1 MLOAD SWAP9 DUP10 MSTORE PUSH1 0x20 DUP10 ADD SWAP8 SWAP1 SWAP8 MSTORE SWAP6 DUP8 ADD SWAP5 SWAP1 SWAP5 MSTORE PUSH1 0x60 DUP7 ADD SWAP3 SWAP1 SWAP3 MSTORE PUSH1 0x80 DUP6 ADD MSTORE PUSH2 0xFFFF AND PUSH1 0xA0 DUP5 ADD MSTORE ISZERO ISZERO PUSH1 0xC0 DUP4 ADD MSTORE ISZERO ISZERO PUSH1 0xE0 DUP3 ADD MSTORE PUSH2 0x100 ADD PUSH2 0x282 JUMP JUMPDEST PUSH2 0x31F PUSH2 0x6DB CALLDATASIZE PUSH1 0x4 PUSH2 0x3932 JUMP JUMPDEST PUSH2 0x2DD1 JUMP JUMPDEST PUSH2 0x569 PUSH2 0x6EE CALLDATASIZE PUSH1 0x4 PUSH2 0x395E JUMP JUMPDEST PUSH4 0xF23A6E61 PUSH1 0xE0 SHL SWAP6 SWAP5 POP POP POP POP POP JUMP JUMPDEST PUSH2 0x31F PUSH2 0x70D CALLDATASIZE PUSH1 0x4 PUSH2 0x3736 JUMP JUMPDEST PUSH2 0x2F54 JUMP JUMPDEST PUSH1 0x0 PUSH1 0x1 PUSH1 0x1 PUSH1 0xE0 SHL SUB NOT DUP3 AND PUSH4 0x2711897 PUSH1 0xE5 SHL EQ DUP1 PUSH2 0x743 JUMPI POP PUSH4 0x1FFC9A7 PUSH1 0xE0 SHL PUSH1 0x1 PUSH1 0x1 PUSH1 0xE0 SHL SUB NOT DUP4 AND EQ JUMPDEST SWAP3 SWAP2 POP POP JUMP JUMPDEST PUSH2 0x751 PUSH2 0x2FCD JUMP JUMPDEST PUSH1 0x0 DUP3 DUP2 MSTORE PUSH1 0x3 PUSH1 0x20 MSTORE PUSH1 0x40 SWAP1 KECCAK256 PUSH2 0x3E8 DUP4 LT DUP1 PUSH2 0x771 JUMPI POP PUSH3 0xF423F DUP4 GT JUMPDEST ISZERO PUSH2 0x78F JUMPI PUSH1 0x40 MLOAD PUSH4 0x2DFF3CE3 PUSH1 0xE1 SHL DUP2 MSTORE PUSH1 0x4 ADD PUSH1 0x40 MLOAD DUP1 SWAP2 SUB SWAP1 REVERT JUMPDEST PUSH2 0x79A PUSH1 0x2 DUP5 PUSH2 0x39D9 JUMP JUMPDEST ISZERO PUSH2 0x7B8 JUMPI PUSH1 0x40 MLOAD PUSH4 0xB93E5DD PUSH1 0xE3 SHL DUP2 MSTORE PUSH1 0x4 ADD PUSH1 0x40 MLOAD DUP1 SWAP2 SUB SWAP1 REVERT JUMPDEST DUP1 SLOAD PUSH1 0x1 PUSH1 0x1 PUSH1 0xA0 SHL SUB AND ISZERO PUSH2 0x7E1 JUMPI PUSH1 0x40 MLOAD PUSH4 0x202A29CD PUSH1 0xE2 SHL DUP2 MSTORE PUSH1 0x4 ADD PUSH1 0x40 MLOAD DUP1 SWAP2 SUB SWAP1 REVERT JUMPDEST DUP1 SLOAD PUSH1 0x1 PUSH1 0x1 PUSH1 0xA0 SHL SUB DUP6 AND PUSH1 0x1 PUSH1 0x1 PUSH1 0xA0 SHL SUB NOT DUP3 AND DUP2 OR DUP4 SSTORE DUP4 SWAP2 DUP4 SWAP2 PUSH1 0x1 PUSH1 0x1 PUSH1 0xA8 SHL SUB NOT SWAP1 SWAP2 AND OR PUSH1 0x1 PUSH1 0xA0 SHL DUP4 PUSH1 0x2 DUP2 GT ISZERO PUSH2 0x824 JUMPI PUSH2 0x824 PUSH2 0x3686 JUMP JUMPDEST MUL OR SWAP1 SSTORE POP DUP3 PUSH1 0x4 PUSH1 0x0 PUSH2 0x839 DUP4 PUSH1 0x1 PUSH2 0x3A03 JUMP JUMPDEST DUP2 MSTORE PUSH1 0x20 DUP2 ADD SWAP2 SWAP1 SWAP2 MSTORE PUSH1 0x40 ADD PUSH1 0x0 KECCAK256 SSTORE POP POP POP POP JUMP JUMPDEST PUSH1 0x0 PUSH2 0x863 PUSH2 0x85E DUP5 PUSH2 0x3027 JUMP JUMPDEST PUSH2 0x3054 JUMP JUMPDEST PUSH1 0x13 SLOAD PUSH1 0x20 DUP3 ADD MLOAD SWAP2 SWAP3 POP PUSH1 0x1 PUSH1 0x1 PUSH1 0xA0 SHL SUB AND SWAP1 PUSH4 0xF5298ACA SWAP1 CALLER SWAP1 PUSH1 0x0 SWAP1 DUP7 SWAP1 PUSH1 0x6 SWAP1 DUP4 SWAP1 PUSH1 0x2 DUP2 GT ISZERO PUSH2 0x89B JUMPI PUSH2 0x89B PUSH2 0x3686 JUMP JUMPDEST PUSH1 0x2 DUP2 GT ISZERO PUSH2 0x8AC JUMPI PUSH2 0x8AC PUSH2 0x3686 JUMP JUMPDEST DUP2 MSTORE PUSH1 0x20 ADD SWAP1 DUP2 MSTORE PUSH1 0x20 ADD PUSH1 0x0 KECCAK256 SLOAD PUSH2 0x8C5 SWAP2 SWAP1 PUSH2 0x3A1B JUMP JUMPDEST PUSH1 0x40 MLOAD DUP5 PUSH4 0xFFFFFFFF AND PUSH1 0xE0 SHL DUP2 MSTORE PUSH1 0x4 ADD PUSH2 0x8E3 SWAP4 SWAP3 SWAP2 SWAP1 PUSH2 0x3A3A JUMP JUMPDEST PUSH1 0x0 PUSH1 0x40 MLOAD DUP1 DUP4 SUB DUP2 PUSH1 0x0 DUP8 DUP1 EXTCODESIZE ISZERO DUP1 ISZERO PUSH2 0x8FD JUMPI PUSH1 0x0 DUP1 REVERT JUMPDEST POP GAS CALL ISZERO DUP1 ISZERO PUSH2 0x911 JUMPI RETURNDATASIZE PUSH1 0x0 DUP1 RETURNDATACOPY RETURNDATASIZE PUSH1 0x0 REVERT JUMPDEST POP POP PUSH1 0x13 SLOAD PUSH1 0x40 MLOAD PUSH4 0x731133E9 PUSH1 0xE0 SHL DUP2 MSTORE PUSH1 0x1 PUSH1 0x1 PUSH1 0xA0 SHL SUB SWAP1 SWAP2 AND SWAP3 POP PUSH4 0x731133E9 SWAP2 POP PUSH2 0x949 SWAP1 CALLER SWAP1 DUP8 SWAP1 DUP8 SWAP1 PUSH1 0x4 ADD PUSH2 0x3A5B JUMP JUMPDEST PUSH1 0x0 PUSH1 0x40 MLOAD DUP1 DUP4 SUB DUP2 PUSH1 0x0 DUP8 DUP1 EXTCODESIZE ISZERO DUP1 ISZERO PUSH2 0x963 JUMPI PUSH1 0x0 DUP1 REVERT JUMPDEST POP GAS CALL ISZERO DUP1 ISZERO PUSH2 0x977 JUMPI RETURNDATASIZE PUSH1 0x0 DUP1 RETURNDATACOPY RETURNDATASIZE PUSH1 0x0 REVERT JUMPDEST POP POP POP POP POP POP POP JUMP JUMPDEST CALLER PUSH1 0x0 SWAP1 DUP2 MSTORE PUSH1 0x1 PUSH1 0x20 MSTORE PUSH1 0x40 SWAP1 KECCAK256 PUSH2 0x9BA PUSH32 0x0 PUSH1 0xA PUSH2 0x3B6F JUMP JUMPDEST PUSH2 0x9C4 SWAP1 DUP4 PUSH2 0x39D9 JUMP JUMPDEST ISZERO PUSH2 0x9E2 JUMPI PUSH1 0x40 MLOAD PUSH4 0x692ACC5 PUSH1 0xE5 SHL DUP2 MSTORE PUSH1 0x4 ADD PUSH1 0x40 MLOAD DUP1 SWAP2 SUB SWAP1 REVERT JUMPDEST DUP1 SLOAD DUP3 GT ISZERO PUSH2 0xA04 JUMPI PUSH1 0x40 MLOAD PUSH4 0x2CA2F52B PUSH1 0xE1 SHL DUP2 MSTORE PUSH1 0x4 ADD PUSH1 0x40 MLOAD DUP1 SWAP2 SUB SWAP1 REVERT JUMPDEST DUP2 PUSH1 0xB PUSH1 0x0 ADD PUSH1 0x0 DUP3 DUP3 SLOAD PUSH2 0xA19 SWAP2 SWAP1 PUSH2 0x3B7B JUMP JUMPDEST SWAP1 SWAP2 SSTORE POP POP PUSH1 0xC DUP1 SLOAD DUP4 SWAP2 SWAP1 PUSH1 0x0 SWAP1 PUSH2 0xA33 SWAP1 DUP5 SWAP1 PUSH2 0x3A03 JUMP JUMPDEST SWAP1 SWAP2 SSTORE POP POP DUP1 SLOAD DUP3 SWAP1 DUP3 SWAP1 PUSH1 0x0 SWAP1 PUSH2 0xA4C SWAP1 DUP5 SWAP1 PUSH2 0x3B7B JUMP JUMPDEST SWAP3 POP POP DUP2 SWAP1 SSTORE POP DUP2 DUP2 PUSH1 0x1 ADD PUSH1 0x0 DUP3 DUP3 SLOAD PUSH2 0xA67 SWAP2 SWAP1 PUSH2 0x3A03 JUMP JUMPDEST SWAP1 SWAP2 SSTORE POP POP CALLER PUSH1 0x1 PUSH1 0x1 PUSH1 0xA0 SHL SUB PUSH32 0x0 AND EQ ISZERO PUSH2 0xAB2 JUMPI PUSH2 0xAA9 TIMESTAMP PUSH2 0x258 PUSH2 0x3A03 JUMP JUMPDEST PUSH1 0x2 DUP3 ADD SSTORE POP POP JUMP JUMPDEST PUSH2 0xAA9 TIMESTAMP PUSH2 0x12C PUSH2 0x3A03 JUMP JUMPDEST POP POP JUMP JUMPDEST CALLER PUSH1 0x0 SWAP1 DUP2 MSTORE PUSH1 0x1 PUSH1 0x20 MSTORE PUSH1 0x40 SWAP1 KECCAK256 PUSH1 0x3 DUP2 ADD DUP1 SLOAD PUSH1 0x0 SWAP1 SWAP2 SSTORE PUSH1 0x12 SLOAD PUSH1 0x40 MLOAD PUSH4 0xA9059CBB PUSH1 0xE0 SHL DUP2 MSTORE PUSH1 0x1 PUSH1 0x1 PUSH1 0xA0 SHL SUB SWAP1 SWAP2 AND SWAP1 PUSH4 0xA9059CBB SWAP1 PUSH2 0xB0E SWAP1 CALLER SWAP1 DUP6 SWAP1 PUSH1 0x4 ADD PUSH2 0x3B92 JUMP JUMPDEST PUSH1 0x20 PUSH1 0x40 MLOAD DUP1 DUP4 SUB DUP2 PUSH1 0x0 DUP8 DUP1 EXTCODESIZE ISZERO DUP1 ISZERO PUSH2 0xB28 JUMPI PUSH1 0x0 DUP1 REVERT JUMPDEST POP GAS CALL ISZERO DUP1 ISZERO PUSH2 0xB3C JUMPI RETURNDATASIZE PUSH1 0x0 DUP1 RETURNDATACOPY RETURNDATASIZE PUSH1 0x0 REVERT JUMPDEST POP POP POP POP PUSH1 0x40 MLOAD RETURNDATASIZE PUSH1 0x1F NOT PUSH1 0x1F DUP3 ADD AND DUP3 ADD DUP1 PUSH1 0x40 MSTORE POP DUP2 ADD SWAP1 PUSH2 0xB60 SWAP2 SWAP1 PUSH2 0x3BAB JUMP JUMPDEST POP POP POP JUMP JUMPDEST PUSH2 0xB6D PUSH2 0x2FCD JUMP JUMPDEST PUSH1 0xA DUP2 LT DUP1 PUSH2 0xB7D JUMPI POP PUSH2 0x3E7 DUP2 GT JUMPDEST ISZERO PUSH2 0xB9B JUMPI PUSH1 0x40 MLOAD PUSH4 0x2DFF3CE3 PUSH1 0xE1 SHL DUP2 MSTORE PUSH1 0x4 ADD PUSH1 0x40 MLOAD DUP1 SWAP2 SUB SWAP1 REVERT JUMPDEST PUSH1 0x9 DUP1 SLOAD PUSH1 0x1 DUP2 ADD DUP3 SSTORE PUSH1 0x0 SWAP2 SWAP1 SWAP2 MSTORE PUSH32 0x6E1540171B6C0C960B71A7020D9F60077F6AF931A8BBF590DA0223DACF75C7AF ADD SSTORE JUMP JUMPDEST PUSH1 0x0 DUP2 DUP2 MSTORE PUSH1 0x5 PUSH1 0x20 MSTORE PUSH1 0x40 SWAP1 KECCAK256 DUP1 SLOAD PUSH1 0x1 PUSH1 0x1 PUSH1 0xA0 SHL SUB AND CALLER EQ PUSH2 0xC36 JUMPI PUSH1 0x40 MLOAD PUSH3 0x461BCD PUSH1 0xE5 SHL DUP2 MSTORE PUSH1 0x20 PUSH1 0x4 DUP3 ADD MSTORE PUSH1 0x17 PUSH1 0x24 DUP3 ADD MSTORE PUSH23 0x2CB7BA9030B932903737BA103A34329039B2B63632B917 PUSH1 0x49 SHL PUSH1 0x44 DUP3 ADD MSTORE PUSH1 0x64 ADD JUMPDEST PUSH1 0x40 MLOAD DUP1 SWAP2 SUB SWAP1 REVERT JUMPDEST PUSH1 0x0 DUP2 PUSH1 0x2 ADD SLOAD GT PUSH2 0xC7E JUMPI PUSH1 0x40 MLOAD PUSH3 0x461BCD PUSH1 0xE5 SHL DUP2 MSTORE PUSH1 0x20 PUSH1 0x4 DUP3 ADD MSTORE PUSH1 0x11 PUSH1 0x24 DUP3 ADD MSTORE PUSH17 0x20B63932B0B23C9039B7B6321037BABA17 PUSH1 0x79 SHL PUSH1 0x44 DUP3 ADD MSTORE PUSH1 0x64 ADD PUSH2 0xC2D JUMP JUMPDEST PUSH1 0x2 DUP2 ADD DUP1 SLOAD PUSH1 0x0 SWAP1 SWAP2 SSTORE PUSH1 0x40 MLOAD DUP4 DUP2 MSTORE PUSH32 0xAAA1D3661F3AB66031E2FB89AED63BD6D1AB6123CF6FE00D14D0305AD3BAAA46 SWAP1 PUSH1 0x20 ADD PUSH1 0x40 MLOAD DUP1 SWAP2 SUB SWAP1 LOG1 PUSH1 0x13 SLOAD PUSH1 0x1 DUP4 ADD SLOAD PUSH1 0x40 MLOAD PUSH4 0x79212195 PUSH1 0xE1 SHL DUP2 MSTORE PUSH1 0x1 PUSH1 0x1 PUSH1 0xA0 SHL SUB SWAP1 SWAP3 AND SWAP2 PUSH4 0xF242432A SWAP2 PUSH2 0x949 SWAP2 ADDRESS SWAP2 CALLER SWAP2 DUP8 SWAP1 PUSH1 0x4 ADD PUSH2 0x3BCD JUMP JUMPDEST PUSH2 0xCFD PUSH2 0x2FCD JUMP JUMPDEST PUSH1 0xB SLOAD PUSH1 0x0 SWAP1 PUSH2 0xD2E PUSH32 0x0 PUSH1 0xA PUSH2 0x3B6F JUMP JUMPDEST PUSH1 0x10 SLOAD PUSH2 0xD3B SWAP2 SWAP1 PUSH2 0x3A1B JUMP JUMPDEST PUSH2 0xD45 SWAP2 SWAP1 PUSH2 0x3C05 JUMP JUMPDEST SWAP1 POP PUSH1 0x0 DUP1 JUMPDEST PUSH1 0x8 SLOAD DUP2 LT ISZERO PUSH2 0xE1C JUMPI PUSH1 0x0 PUSH1 0x8 DUP3 DUP2 SLOAD DUP2 LT PUSH2 0xD6A JUMPI PUSH2 0xD6A PUSH2 0x3C19 JUMP JUMPDEST PUSH1 0x0 SWAP2 DUP3 MSTORE PUSH1 0x20 DUP1 DUP4 KECCAK256 SWAP1 SWAP2 ADD SLOAD PUSH1 0x1 PUSH1 0x1 PUSH1 0xA0 SHL SUB AND DUP1 DUP4 MSTORE PUSH1 0x1 SWAP1 SWAP2 MSTORE PUSH1 0x40 SWAP1 SWAP2 KECCAK256 DUP1 SLOAD SWAP2 SWAP3 POP SWAP1 ISZERO PUSH2 0xE07 JUMPI PUSH1 0x0 DUP6 PUSH2 0xDC7 PUSH32 0x0 PUSH1 0xA PUSH2 0x3B6F JUMP JUMPDEST DUP4 SLOAD PUSH2 0xDD3 SWAP2 SWAP1 PUSH2 0x3C05 JUMP JUMPDEST PUSH2 0xDDD SWAP2 SWAP1 PUSH2 0x3A1B JUMP JUMPDEST SWAP1 POP DUP1 DUP3 PUSH1 0x3 ADD PUSH1 0x0 DUP3 DUP3 SLOAD PUSH2 0xDF3 SWAP2 SWAP1 PUSH2 0x3A03 JUMP JUMPDEST SWAP1 SWAP2 SSTORE POP PUSH2 0xE03 SWAP1 POP DUP2 DUP7 PUSH2 0x3A03 JUMP JUMPDEST SWAP5 POP POP JUMPDEST POP POP DUP1 DUP1 PUSH2 0xE14 SWAP1 PUSH2 0x3C2F JUMP JUMPDEST SWAP2 POP POP PUSH2 0xD4B JUMP JUMPDEST POP PUSH1 0x11 DUP1 SLOAD PUSH1 0x0 SWAP2 DUP3 SWAP1 SSTORE PUSH1 0x10 DUP1 SLOAD SWAP2 SWAP3 DUP5 SWAP3 PUSH2 0xE3A SWAP1 DUP5 SWAP1 PUSH2 0x3B7B JUMP JUMPDEST SWAP1 SWAP2 SSTORE POP POP PUSH1 0xE DUP1 SLOAD DUP3 SWAP2 SWAP1 PUSH1 0x0 SWAP1 PUSH2 0xE54 SWAP1 DUP5 SWAP1 PUSH2 0x3A03 JUMP JUMPDEST SWAP1 SWAP2 SSTORE POP POP PUSH1 0xD DUP1 SLOAD DUP4 SWAP2 SWAP1 PUSH1 0x0 SWAP1 PUSH2 0xE6E SWAP1 DUP5 SWAP1 PUSH2 0x3A03 JUMP JUMPDEST SWAP1 SWAP2 SSTORE POP POP PUSH1 0x12 SLOAD PUSH1 0x40 MLOAD PUSH4 0x852CD8D PUSH1 0xE3 SHL DUP2 MSTORE PUSH1 0x4 DUP2 ADD DUP4 SWAP1 MSTORE PUSH1 0x1 PUSH1 0x1 PUSH1 0xA0 SHL SUB SWAP1 SWAP2 AND SWAP1 PUSH4 0x42966C68 SWAP1 PUSH1 0x24 ADD PUSH2 0x949 JUMP JUMPDEST PUSH1 0x0 PUSH2 0xEAF DUP4 PUSH2 0x3054 JUMP JUMPDEST PUSH1 0x13 SLOAD PUSH1 0x40 MLOAD PUSH4 0x7A94C565 PUSH1 0xE1 SHL DUP2 MSTORE SWAP2 SWAP3 POP PUSH1 0x1 PUSH1 0x1 PUSH1 0xA0 SHL SUB AND SWAP1 PUSH4 0xF5298ACA SWAP1 PUSH2 0xEE4 SWAP1 CALLER SWAP1 DUP8 SWAP1 DUP8 SWAP1 PUSH1 0x4 ADD PUSH2 0x3A3A JUMP JUMPDEST PUSH1 0x0 PUSH1 0x40 MLOAD DUP1 DUP4 SUB DUP2 PUSH1 0x0 DUP8 DUP1 EXTCODESIZE ISZERO DUP1 ISZERO PUSH2 0xEFE JUMPI PUSH1 0x0 DUP1 REVERT JUMPDEST POP GAS CALL ISZERO DUP1 ISZERO PUSH2 0xF12 JUMPI RETURNDATASIZE PUSH1 0x0 DUP1 RETURNDATACOPY RETURNDATASIZE PUSH1 0x0 REVERT JUMPDEST POP POP POP POP PUSH1 0x13 PUSH1 0x0 SWAP1 SLOAD SWAP1 PUSH2 0x100 EXP SWAP1 DIV PUSH1 0x1 PUSH1 0x1 PUSH1 0xA0 SHL SUB AND PUSH1 0x1 PUSH1 0x1 PUSH1 0xA0 SHL SUB AND PUSH4 0x731133E9 CALLER PUSH1 0x0 DUP6 PUSH1 0x7 PUSH1 0x0 DUP8 PUSH1 0x20 ADD MLOAD PUSH1 0x2 DUP2 GT ISZERO PUSH2 0xF58 JUMPI PUSH2 0xF58 PUSH2 0x3686 JUMP JUMPDEST PUSH1 0x2 DUP2 GT ISZERO PUSH2 0xF69 JUMPI PUSH2 0xF69 PUSH2 0x3686 JUMP JUMPDEST DUP2 MSTORE PUSH1 0x20 ADD SWAP1 DUP2 MSTORE PUSH1 0x20 ADD PUSH1 0x0 KECCAK256 SLOAD PUSH2 0xF82 SWAP2 SWAP1 PUSH2 0x3A1B JUMP JUMPDEST PUSH1 0x40 MLOAD DUP5 PUSH4 0xFFFFFFFF AND PUSH1 0xE0 SHL DUP2 MSTORE PUSH1 0x4 ADD PUSH2 0x949 SWAP4 SWAP3 SWAP2 SWAP1 PUSH2 0x3A5B JUMP JUMPDEST PUSH2 0xFA8 PUSH2 0x2FCD JUMP JUMPDEST PUSH2 0xFB2 PUSH1 0x0 PUSH2 0x30F1 JUMP JUMPDEST JUMP JUMPDEST PUSH1 0x0 PUSH2 0xFBF DUP3 PUSH2 0x3027 JUMP JUMPDEST SWAP1 POP PUSH1 0x0 PUSH2 0xFCC DUP3 PUSH2 0x3054 JUMP JUMPDEST SWAP1 POP PUSH1 0x0 PUSH2 0xFE2 DUP3 PUSH1 0x0 ADD MLOAD DUP4 PUSH1 0x20 ADD MLOAD PUSH2 0x3141 JUMP JUMPDEST PUSH1 0x12 SLOAD PUSH1 0x40 MLOAD PUSH4 0x23B872DD PUSH1 0xE0 SHL DUP2 MSTORE SWAP2 SWAP3 POP PUSH1 0x1 PUSH1 0x1 PUSH1 0xA0 SHL SUB AND SWAP1 PUSH4 0x23B872DD SWAP1 PUSH2 0x1017 SWAP1 CALLER SWAP1 ADDRESS SWAP1 DUP7 SWAP1 PUSH1 0x4 ADD PUSH2 0x3C4A JUMP JUMPDEST PUSH1 0x20 PUSH1 0x40 MLOAD DUP1 DUP4 SUB DUP2 PUSH1 0x0 DUP8 DUP1 EXTCODESIZE ISZERO DUP1 ISZERO PUSH2 0x1031 JUMPI PUSH1 0x0 DUP1 REVERT JUMPDEST POP GAS CALL ISZERO DUP1 ISZERO PUSH2 0x1045 JUMPI RETURNDATASIZE PUSH1 0x0 DUP1 RETURNDATACOPY RETURNDATASIZE PUSH1 0x0 REVERT JUMPDEST POP POP POP POP PUSH1 0x40 MLOAD RETURNDATASIZE PUSH1 0x1F NOT PUSH1 0x1F DUP3 ADD AND DUP3 ADD DUP1 PUSH1 0x40 MSTORE POP DUP2 ADD SWAP1 PUSH2 0x1069 SWAP2 SWAP1 PUSH2 0x3BAB JUMP JUMPDEST POP PUSH1 0x13 SLOAD PUSH1 0x40 MLOAD PUSH4 0x7A94C565 PUSH1 0xE1 SHL DUP2 MSTORE PUSH1 0x1 PUSH1 0x1 PUSH1 0xA0 SHL SUB SWAP1 SWAP2 AND SWAP1 PUSH4 0xF5298ACA SWAP1 PUSH2 0x109F SWAP1 CALLER SWAP1 DUP9 SWAP1 PUSH1 0x3 SWAP1 PUSH1 0x4 ADD PUSH2 0x3A3A JUMP JUMPDEST PUSH1 0x0 PUSH1 0x40 MLOAD DUP1 DUP4 SUB DUP2 PUSH1 0x0 DUP8 DUP1 EXTCODESIZE ISZERO DUP1 ISZERO PUSH2 0x10B9 JUMPI PUSH1 0x0 DUP1 REVERT JUMPDEST POP GAS CALL ISZERO DUP1 ISZERO PUSH2 0x10CD JUMPI RETURNDATASIZE PUSH1 0x0 DUP1 RETURNDATACOPY RETURNDATASIZE PUSH1 0x0 REVERT JUMPDEST POP POP PUSH1 0x13 SLOAD PUSH1 0x40 MLOAD PUSH4 0x731133E9 PUSH1 0xE0 SHL DUP2 MSTORE PUSH1 0x1 PUSH1 0x1 PUSH1 0xA0 SHL SUB SWAP1 SWAP2 AND SWAP3 POP PUSH4 0x731133E9 SWAP2 POP PUSH2 0x1106 SWAP1 CALLER SWAP1 DUP8 SWAP1 PUSH1 0x1 SWAP1 PUSH1 0x4 ADD PUSH2 0x3A5B JUMP JUMPDEST PUSH1 0x0 PUSH1 0x40 MLOAD DUP1 DUP4 SUB DUP2 PUSH1 0x0 DUP8 DUP1 EXTCODESIZE ISZERO DUP1 ISZERO PUSH2 0x1120 JUMPI PUSH1 0x0 DUP1 REVERT JUMPDEST POP GAS CALL ISZERO DUP1 ISZERO PUSH2 0x1134 JUMPI RETURNDATASIZE PUSH1 0x0 DUP1 RETURNDATACOPY RETURNDATASIZE PUSH1 0x0 REVERT JUMPDEST POP POP POP POP POP POP POP POP JUMP JUMPDEST PUSH1 0x0 DUP3 DUP2 MSTORE PUSH1 0x5 PUSH1 0x20 MSTORE PUSH1 0x40 SWAP1 KECCAK256 PUSH1 0x2 DUP2 ADD SLOAD DUP3 GT ISZERO PUSH2 0x1171 JUMPI PUSH1 0x40 MLOAD PUSH4 0x2CA2F52B PUSH1 0xE1 SHL DUP2 MSTORE PUSH1 0x4 ADD PUSH1 0x40 MLOAD DUP1 SWAP2 SUB SWAP1 REVERT JUMPDEST PUSH1 0x0 DUP3 DUP3 PUSH1 0x3 ADD SLOAD PUSH2 0x1183 SWAP2 SWAP1 PUSH2 0x3A1B JUMP JUMPDEST SWAP1 POP PUSH1 0x0 DUP1 PUSH1 0x0 DUP1 PUSH1 0xA DUP7 PUSH1 0x1 ADD SLOAD LT ISZERO DUP1 ISZERO PUSH2 0x11A5 JUMPI POP PUSH2 0x3E8 DUP7 PUSH1 0x1 ADD SLOAD LT JUMPDEST ISZERO PUSH2 0x11DF JUMPI PUSH2 0x11B5 PUSH1 0x64 DUP7 PUSH2 0x3C05 JUMP JUMPDEST PUSH2 0x11C0 SWAP1 PUSH1 0x2 PUSH2 0x3A1B JUMP JUMPDEST SWAP4 POP PUSH2 0x11CD PUSH1 0x64 DUP7 PUSH2 0x3C05 JUMP JUMPDEST PUSH2 0x11D8 SWAP1 PUSH1 0x1 PUSH2 0x3A1B JUMP JUMPDEST SWAP3 POP PUSH2 0x12B3 JUMP JUMPDEST PUSH2 0x3E8 DUP7 PUSH1 0x1 ADD SLOAD LT ISZERO DUP1 ISZERO PUSH2 0x11FB JUMPI POP PUSH3 0x186A0 DUP7 PUSH1 0x1 ADD SLOAD LT JUMPDEST ISZERO PUSH2 0x12B3 JUMPI PUSH1 0x2 DUP7 PUSH1 0x1 ADD SLOAD PUSH2 0x1211 SWAP2 SWAP1 PUSH2 0x39D9 JUMP JUMPDEST PUSH2 0x1238 JUMPI POP PUSH1 0x1 DUP6 ADD SLOAD PUSH1 0x0 SWAP1 DUP2 MSTORE PUSH1 0x3 PUSH1 0x20 MSTORE PUSH1 0x40 SWAP1 KECCAK256 SLOAD PUSH1 0x1 PUSH1 0x1 PUSH1 0xA0 SHL SUB AND PUSH2 0x126A JUMP JUMPDEST PUSH1 0x3 PUSH1 0x0 PUSH1 0x1 DUP9 PUSH1 0x1 ADD SLOAD PUSH2 0x124D SWAP2 SWAP1 PUSH2 0x3B7B JUMP JUMPDEST DUP2 MSTORE PUSH1 0x20 DUP2 ADD SWAP2 SWAP1 SWAP2 MSTORE PUSH1 0x40 ADD PUSH1 0x0 KECCAK256 SLOAD PUSH1 0x1 PUSH1 0x1 PUSH1 0xA0 SHL SUB AND SWAP1 POP JUMPDEST PUSH2 0x1275 PUSH1 0x64 DUP7 PUSH2 0x3C05 JUMP JUMPDEST PUSH2 0x1280 SWAP1 PUSH1 0x1 PUSH2 0x3A1B JUMP JUMPDEST SWAP4 POP PUSH2 0x128D PUSH1 0x64 DUP7 PUSH2 0x3C05 JUMP JUMPDEST PUSH2 0x1298 SWAP1 PUSH1 0x1 PUSH2 0x3A1B JUMP JUMPDEST SWAP3 POP PUSH2 0x12A5 PUSH1 0x64 DUP7 PUSH2 0x3C05 JUMP JUMPDEST PUSH2 0x12B0 SWAP1 PUSH1 0x1 PUSH2 0x3A1B JUMP JUMPDEST SWAP2 POP JUMPDEST PUSH1 0x0 DUP3 DUP5 PUSH2 0x12C1 DUP8 DUP10 PUSH2 0x3B7B JUMP JUMPDEST PUSH2 0x12CB SWAP2 SWAP1 PUSH2 0x3B7B JUMP JUMPDEST PUSH2 0x12D5 SWAP2 SWAP1 PUSH2 0x3B7B JUMP JUMPDEST SWAP1 POP DUP8 DUP8 PUSH1 0x2 ADD PUSH1 0x0 DUP3 DUP3 SLOAD PUSH2 0x12EB SWAP2 SWAP1 PUSH2 0x3B7B JUMP JUMPDEST SWAP1 SWAP2 SSTORE POP POP PUSH1 0x11 DUP1 SLOAD DUP6 SWAP2 SWAP1 PUSH1 0x0 SWAP1 PUSH2 0x1305 SWAP1 DUP5 SWAP1 PUSH2 0x3A03 JUMP JUMPDEST SWAP1 SWAP2 SSTORE POP POP PUSH1 0x10 DUP1 SLOAD DUP7 SWAP2 SWAP1 PUSH1 0x0 SWAP1 PUSH2 0x131F SWAP1 DUP5 SWAP1 PUSH2 0x3A03 JUMP JUMPDEST SWAP1 SWAP2 SSTORE POP POP PUSH1 0x1 PUSH1 0x1 PUSH1 0xA0 SHL SUB DUP3 AND PUSH1 0x0 SWAP1 DUP2 MSTORE PUSH1 0x1 PUSH1 0x20 MSTORE PUSH1 0x40 DUP2 KECCAK256 PUSH1 0x3 ADD DUP1 SLOAD DUP6 SWAP3 SWAP1 PUSH2 0x134F SWAP1 DUP5 SWAP1 PUSH2 0x3A03 JUMP JUMPDEST SWAP1 SWAP2 SSTORE POP POP PUSH1 0x40 DUP1 MLOAD DUP11 DUP2 MSTORE PUSH1 0x20 DUP2 ADD DUP11 SWAP1 MSTORE PUSH32 0xC2E673ECA69E250DCBF52A7D0B0B0DBE3F91C5485BCBAA44245D15CBC3460ABA SWAP2 ADD PUSH1 0x40 MLOAD DUP1 SWAP2 SUB SWAP1 LOG1 PUSH1 0x12 SLOAD PUSH1 0x40 MLOAD PUSH4 0x23B872DD PUSH1 0xE0 SHL DUP2 MSTORE PUSH1 0x1 PUSH1 0x1 PUSH1 0xA0 SHL SUB SWAP1 SWAP2 AND SWAP1 PUSH4 0x23B872DD SWAP1 PUSH2 0x13C1 SWAP1 CALLER SWAP1 ADDRESS SWAP1 DUP12 SWAP1 PUSH1 0x4 ADD PUSH2 0x3C4A JUMP JUMPDEST PUSH1 0x20 PUSH1 0x40 MLOAD DUP1 DUP4 SUB DUP2 PUSH1 0x0 DUP8 DUP1 EXTCODESIZE ISZERO DUP1 ISZERO PUSH2 0x13DB JUMPI PUSH1 0x0 DUP1 REVERT JUMPDEST POP GAS CALL ISZERO DUP1 ISZERO PUSH2 0x13EF JUMPI RETURNDATASIZE PUSH1 0x0 DUP1 RETURNDATACOPY RETURNDATASIZE PUSH1 0x0 REVERT JUMPDEST POP POP POP POP PUSH1 0x40 MLOAD RETURNDATASIZE PUSH1 0x1F NOT PUSH1 0x1F DUP3 ADD AND DUP3 ADD DUP1 PUSH1 0x40 MSTORE POP DUP2 ADD SWAP1 PUSH2 0x1413 SWAP2 SWAP1 PUSH2 0x3BAB JUMP JUMPDEST POP PUSH1 0x12 SLOAD DUP8 SLOAD PUSH1 0x40 MLOAD PUSH4 0xA9059CBB PUSH1 0xE0 SHL DUP2 MSTORE PUSH1 0x1 PUSH1 0x1 PUSH1 0xA0 SHL SUB SWAP3 DUP4 AND SWAP3 PUSH4 0xA9059CBB SWAP3 PUSH2 0x1449 SWAP3 SWAP2 AND SWAP1 DUP6 SWAP1 PUSH1 0x4 ADD PUSH2 0x3B92 JUMP JUMPDEST PUSH1 0x20 PUSH1 0x40 MLOAD DUP1 DUP4 SUB DUP2 PUSH1 0x0 DUP8 DUP1 EXTCODESIZE ISZERO DUP1 ISZERO PUSH2 0x1463 JUMPI PUSH1 0x0 DUP1 REVERT JUMPDEST POP GAS CALL ISZERO DUP1 ISZERO PUSH2 0x1477 JUMPI RETURNDATASIZE PUSH1 0x0 DUP1 RETURNDATACOPY RETURNDATASIZE PUSH1 0x0 REVERT JUMPDEST POP POP POP POP PUSH1 0x40 MLOAD RETURNDATASIZE PUSH1 0x1F NOT PUSH1 0x1F DUP3 ADD AND DUP3 ADD DUP1 PUSH1 0x40 MSTORE POP DUP2 ADD SWAP1 PUSH2 0x149B SWAP2 SWAP1 PUSH2 0x3BAB JUMP JUMPDEST POP PUSH1 0x13 SLOAD PUSH1 0x1 DUP9 ADD SLOAD PUSH1 0x40 MLOAD PUSH4 0x79212195 PUSH1 0xE1 SHL DUP2 MSTORE PUSH1 0x1 PUSH1 0x1 PUSH1 0xA0 SHL SUB SWAP1 SWAP3 AND SWAP2 PUSH4 0xF242432A SWAP2 PUSH2 0x14D5 SWAP2 ADDRESS SWAP2 CALLER SWAP2 DUP15 SWAP1 PUSH1 0x4 ADD PUSH2 0x3BCD JUMP JUMPDEST PUSH1 0x0 PUSH1 0x40 MLOAD DUP1 DUP4 SUB DUP2 PUSH1 0x0 DUP8 DUP1 EXTCODESIZE ISZERO DUP1 ISZERO PUSH2 0x14EF JUMPI PUSH1 0x0 DUP1 REVERT JUMPDEST POP GAS CALL ISZERO DUP1 ISZERO PUSH2 0x1503 JUMPI RETURNDATASIZE PUSH1 0x0 DUP1 RETURNDATACOPY RETURNDATASIZE PUSH1 0x0 REVERT JUMPDEST POP POP POP POP POP POP POP POP POP POP POP POP POP JUMP JUMPDEST CALLER PUSH1 0x0 SWAP1 DUP2 MSTORE PUSH1 0x17 PUSH1 0x20 MSTORE PUSH1 0x40 DUP2 KECCAK256 SLOAD DUP2 SWAP1 DUP4 GT ISZERO PUSH2 0x1573 JUMPI PUSH1 0x40 MLOAD PUSH3 0x461BCD PUSH1 0xE5 SHL DUP2 MSTORE PUSH1 0x20 PUSH1 0x4 DUP3 ADD MSTORE PUSH1 0x1D PUSH1 0x24 DUP3 ADD MSTORE PUSH32 0x496E73756666696369656E74206C697175696469747920736861726573000000 PUSH1 0x44 DUP3 ADD MSTORE PUSH1 0x64 ADD PUSH2 0xC2D JUMP JUMPDEST PUSH1 0x40 MLOAD PUSH4 0x70A08231 PUSH1 0xE0 SHL DUP2 MSTORE PUSH1 0x0 SWAP1 PUSH1 0x1 PUSH1 0x1 PUSH1 0xA0 SHL SUB PUSH32 0x0 AND SWAP1 PUSH4 0x70A08231 SWAP1 PUSH2 0x15C2 SWAP1 ADDRESS SWAP1 PUSH1 0x4 ADD PUSH2 0x35D5 JUMP JUMPDEST PUSH1 0x20 PUSH1 0x40 MLOAD DUP1 DUP4 SUB DUP2 DUP7 DUP1 EXTCODESIZE ISZERO DUP1 ISZERO PUSH2 0x15DA JUMPI PUSH1 0x0 DUP1 REVERT JUMPDEST POP GAS STATICCALL ISZERO DUP1 ISZERO PUSH2 0x15EE JUMPI RETURNDATASIZE PUSH1 0x0 DUP1 RETURNDATACOPY RETURNDATASIZE PUSH1 0x0 REVERT JUMPDEST POP POP POP POP PUSH1 0x40 MLOAD RETURNDATASIZE PUSH1 0x1F NOT PUSH1 0x1F DUP3 ADD AND DUP3 ADD DUP1 PUSH1 0x40 MSTORE POP DUP2 ADD SWAP1 PUSH2 0x1612 SWAP2 SWAP1 PUSH2 0x3C6E JUMP JUMPDEST SWAP1 POP PUSH1 0x0 PUSH32 0x0 PUSH1 0x1 PUSH1 0x1 PUSH1 0xA0 SHL SUB AND PUSH4 0x70A08231 ADDRESS PUSH1 0x40 MLOAD DUP3 PUSH4 0xFFFFFFFF AND PUSH1 0xE0 SHL DUP2 MSTORE PUSH1 0x4 ADD PUSH2 0x1662 SWAP2 SWAP1 PUSH2 0x35D5 JUMP JUMPDEST PUSH1 0x20 PUSH1 0x40 MLOAD DUP1 DUP4 SUB DUP2 DUP7 DUP1 EXTCODESIZE ISZERO DUP1 ISZERO PUSH2 0x167A JUMPI PUSH1 0x0 DUP1 REVERT JUMPDEST POP GAS STATICCALL ISZERO DUP1 ISZERO PUSH2 0x168E JUMPI RETURNDATASIZE PUSH1 0x0 DUP1 RETURNDATACOPY RETURNDATASIZE PUSH1 0x0 REVERT JUMPDEST POP POP POP POP PUSH1 0x40 MLOAD RETURNDATASIZE PUSH1 0x1F NOT PUSH1 0x1F DUP3 ADD AND DUP3 ADD DUP1 PUSH1 0x40 MSTORE POP DUP2 ADD SWAP1 PUSH2 0x16B2 SWAP2 SWAP1 PUSH2 0x3C6E JUMP JUMPDEST PUSH1 0x16 SLOAD SWAP1 SWAP2 POP DUP1 PUSH2 0x16C3 DUP5 DUP9 PUSH2 0x3A1B JUMP JUMPDEST PUSH2 0x16CD SWAP2 SWAP1 PUSH2 0x3C05 JUMP JUMPDEST SWAP5 POP DUP1 PUSH2 0x16DA DUP4 DUP9 PUSH2 0x3A1B JUMP JUMPDEST PUSH2 0x16E4 SWAP2 SWAP1 PUSH2 0x3C05 JUMP JUMPDEST SWAP4 POP PUSH1 0x0 DUP6 GT DUP1 ISZERO PUSH2 0x16F6 JUMPI POP PUSH1 0x0 DUP5 GT JUMPDEST PUSH2 0x1742 JUMPI PUSH1 0x40 MLOAD PUSH3 0x461BCD PUSH1 0xE5 SHL DUP2 MSTORE PUSH1 0x20 PUSH1 0x4 DUP3 ADD MSTORE PUSH1 0x1D PUSH1 0x24 DUP3 ADD MSTORE PUSH32 0x496E73756666696369656E74207472616E7366657220616D6F756E7473000000 PUSH1 0x44 DUP3 ADD MSTORE PUSH1 0x64 ADD PUSH2 0xC2D JUMP JUMPDEST PUSH2 0x174C CALLER DUP8 PUSH2 0x3278 JUMP JUMPDEST PUSH2 0x176E PUSH2 0x1759 DUP7 DUP6 PUSH2 0x3B7B JUMP JUMPDEST PUSH2 0x1763 DUP7 DUP6 PUSH2 0x3B7B JUMP JUMPDEST PUSH1 0x14 SWAP2 SWAP1 SWAP2 SSTORE PUSH1 0x15 SSTORE JUMP JUMPDEST PUSH1 0x40 MLOAD PUSH4 0xA9059CBB PUSH1 0xE0 SHL DUP2 MSTORE PUSH1 0x1 PUSH1 0x1 PUSH1 0xA0 SHL SUB PUSH32 0x0 AND SWAP1 PUSH4 0xA9059CBB SWAP1 PUSH2 0x17BC SWAP1 CALLER SWAP1 DUP10 SWAP1 PUSH1 0x4 ADD PUSH2 0x3B92 JUMP JUMPDEST PUSH1 0x20 PUSH1 0x40 MLOAD DUP1 DUP4 SUB DUP2 PUSH1 0x0 DUP8 DUP1 EXTCODESIZE ISZERO DUP1 ISZERO PUSH2 0x17D6 JUMPI PUSH1 0x0 DUP1 REVERT JUMPDEST POP GAS CALL ISZERO DUP1 ISZERO PUSH2 0x17EA JUMPI RETURNDATASIZE PUSH1 0x0 DUP1 RETURNDATACOPY RETURNDATASIZE PUSH1 0x0 REVERT JUMPDEST POP POP POP POP PUSH1 0x40 MLOAD RETURNDATASIZE PUSH1 0x1F NOT PUSH1 0x1F DUP3 ADD AND DUP3 ADD DUP1 PUSH1 0x40 MSTORE POP DUP2 ADD SWAP1 PUSH2 0x180E SWAP2 SWAP1 PUSH2 0x3BAB JUMP JUMPDEST POP PUSH1 0x40 MLOAD PUSH4 0xA9059CBB PUSH1 0xE0 SHL DUP2 MSTORE PUSH1 0x1 PUSH1 0x1 PUSH1 0xA0 SHL SUB PUSH32 0x0 AND SWAP1 PUSH4 0xA9059CBB SWAP1 PUSH2 0x185D SWAP1 CALLER SWAP1 DUP9 SWAP1 PUSH1 0x4 ADD PUSH2 0x3B92 JUMP JUMPDEST PUSH1 0x20 PUSH1 0x40 MLOAD DUP1 DUP4 SUB DUP2 PUSH1 0x0 DUP8 DUP1 EXTCODESIZE ISZERO DUP1 ISZERO PUSH2 0x1877 JUMPI PUSH1 0x0 DUP1 REVERT JUMPDEST POP GAS CALL ISZERO DUP1 ISZERO PUSH2 0x188B JUMPI RETURNDATASIZE PUSH1 0x0 DUP1 RETURNDATACOPY RETURNDATASIZE PUSH1 0x0 REVERT JUMPDEST POP POP POP POP PUSH1 0x40 MLOAD RETURNDATASIZE PUSH1 0x1F NOT PUSH1 0x1F DUP3 ADD AND DUP3 ADD DUP1 PUSH1 0x40 MSTORE POP DUP2 ADD SWAP1 PUSH2 0x18AF SWAP2 SWAP1 PUSH2 0x3BAB JUMP JUMPDEST POP PUSH1 0x40 MLOAD DUP7 DUP2 MSTORE CALLER SWAP1 PUSH32 0xCB69BE6F06914CD72D42E18A286E6EA41D64FA0E34BA87C4002D28C4C493522A SWAP1 PUSH1 0x20 ADD PUSH1 0x40 MLOAD DUP1 SWAP2 SUB SWAP1 LOG2 POP POP POP SWAP2 POP SWAP2 JUMP JUMPDEST PUSH1 0x40 MLOAD PUSH4 0x23B872DD PUSH1 0xE0 SHL DUP2 MSTORE PUSH1 0x0 SWAP1 PUSH1 0x1 PUSH1 0x1 PUSH1 0xA0 SHL SUB PUSH32 0x0 AND SWAP1 PUSH4 0x23B872DD SWAP1 PUSH2 0x1940 SWAP1 CALLER SWAP1 ADDRESS SWAP1 DUP9 SWAP1 PUSH1 0x4 ADD PUSH2 0x3C4A JUMP JUMPDEST PUSH1 0x20 PUSH1 0x40 MLOAD DUP1 DUP4 SUB DUP2 PUSH1 0x0 DUP8 DUP1 EXTCODESIZE ISZERO DUP1 ISZERO PUSH2 0x195A JUMPI PUSH1 0x0 DUP1 REVERT JUMPDEST POP GAS CALL ISZERO DUP1 ISZERO PUSH2 0x196E JUMPI RETURNDATASIZE PUSH1 0x0 DUP1 RETURNDATACOPY RETURNDATASIZE PUSH1 0x0 REVERT JUMPDEST POP POP POP POP PUSH1 0x40 MLOAD RETURNDATASIZE PUSH1 0x1F NOT PUSH1 0x1F DUP3 ADD AND DUP3 ADD DUP1 PUSH1 0x40 MSTORE POP DUP2 ADD SWAP1 PUSH2 0x1992 SWAP2 SWAP1 PUSH2 0x3BAB JUMP JUMPDEST PUSH2 0x19AE JUMPI PUSH1 0x40 MLOAD PUSH3 0x461BCD PUSH1 0xE5 SHL DUP2 MSTORE PUSH1 0x4 ADD PUSH2 0xC2D SWAP1 PUSH2 0x3C87 JUMP JUMPDEST PUSH1 0x40 MLOAD PUSH4 0x23B872DD PUSH1 0xE0 SHL DUP2 MSTORE PUSH1 0x1 PUSH1 0x1 PUSH1 0xA0 SHL SUB PUSH32 0x0 AND SWAP1 PUSH4 0x23B872DD SWAP1 PUSH2 0x19FE SWAP1 CALLER SWAP1 ADDRESS SWAP1 DUP8 SWAP1 PUSH1 0x4 ADD PUSH2 0x3C4A JUMP JUMPDEST PUSH1 0x20 PUSH1 0x40 MLOAD DUP1 DUP4 SUB DUP2 PUSH1 0x0 DUP8 DUP1 EXTCODESIZE ISZERO DUP1 ISZERO PUSH2 0x1A18 JUMPI PUSH1 0x0 DUP1 REVERT JUMPDEST POP GAS CALL ISZERO DUP1 ISZERO PUSH2 0x1A2C JUMPI RETURNDATASIZE PUSH1 0x0 DUP1 RETURNDATACOPY RETURNDATASIZE PUSH1 0x0 REVERT JUMPDEST POP POP POP POP PUSH1 0x40 MLOAD RETURNDATASIZE PUSH1 0x1F NOT PUSH1 0x1F DUP3 ADD AND DUP3 ADD DUP1 PUSH1 0x40 MSTORE POP DUP2 ADD SWAP1 PUSH2 0x1A50 SWAP2 SWAP1 PUSH2 0x3BAB JUMP JUMPDEST PUSH2 0x1A6C JUMPI PUSH1 0x40 MLOAD PUSH3 0x461BCD PUSH1 0xE5 SHL DUP2 MSTORE PUSH1 0x4 ADD PUSH2 0xC2D SWAP1 PUSH2 0x3C87 JUMP JUMPDEST PUSH1 0x0 DUP1 PUSH2 0x1A7C PUSH1 0x14 SLOAD PUSH1 0x15 SLOAD SWAP1 SWAP2 JUMP JUMPDEST SWAP2 POP SWAP2 POP PUSH1 0x0 DUP3 GT DUP1 PUSH2 0x1A8F JUMPI POP PUSH1 0x0 DUP2 GT JUMPDEST ISZERO PUSH2 0x1AF5 JUMPI PUSH2 0x1A9E DUP3 DUP6 PUSH2 0x3A1B JUMP JUMPDEST PUSH2 0x1AA8 DUP3 DUP8 PUSH2 0x3A1B JUMP JUMPDEST EQ PUSH2 0x1AF5 JUMPI PUSH1 0x40 MLOAD PUSH3 0x461BCD PUSH1 0xE5 SHL DUP2 MSTORE PUSH1 0x20 PUSH1 0x4 DUP3 ADD MSTORE PUSH1 0x1D PUSH1 0x24 DUP3 ADD MSTORE PUSH32 0x556E62616C616E636564204C69717569646974792050726F7669646564000000 PUSH1 0x44 DUP3 ADD MSTORE PUSH1 0x64 ADD PUSH2 0xC2D JUMP JUMPDEST PUSH1 0x16 SLOAD DUP1 PUSH2 0x1B16 JUMPI PUSH2 0x1B0F PUSH2 0x1B0A DUP7 DUP9 PUSH2 0x3A1B JUMP JUMPDEST PUSH2 0x32C2 JUMP JUMPDEST SWAP4 POP PUSH2 0x1B4B JUMP JUMPDEST PUSH2 0x1B48 DUP4 PUSH2 0x1B24 DUP4 DUP10 PUSH2 0x3A1B JUMP JUMPDEST PUSH2 0x1B2E SWAP2 SWAP1 PUSH2 0x3C05 JUMP JUMPDEST DUP4 PUSH2 0x1B39 DUP5 DUP10 PUSH2 0x3A1B JUMP JUMPDEST PUSH2 0x1B43 SWAP2 SWAP1 PUSH2 0x3C05 JUMP JUMPDEST PUSH2 0x3332 JUMP JUMPDEST SWAP4 POP JUMPDEST PUSH1 0x0 DUP5 GT PUSH2 0x1B9B JUMPI PUSH1 0x40 MLOAD PUSH3 0x461BCD PUSH1 0xE5 SHL DUP2 MSTORE PUSH1 0x20 PUSH1 0x4 DUP3 ADD MSTORE PUSH1 0x1A PUSH1 0x24 DUP3 ADD MSTORE PUSH32 0x4E6F204C697175696469747920536861726573204D696E746564000000000000 PUSH1 0x44 DUP3 ADD MSTORE PUSH1 0x64 ADD PUSH2 0xC2D JUMP JUMPDEST PUSH2 0x1BA5 CALLER DUP6 PUSH2 0x334A JUMP JUMPDEST PUSH1 0x40 MLOAD PUSH4 0x70A08231 PUSH1 0xE0 SHL DUP2 MSTORE PUSH2 0x1CE1 SWAP1 PUSH1 0x1 PUSH1 0x1 PUSH1 0xA0 SHL SUB PUSH32 0x0 AND SWAP1 PUSH4 0x70A08231 SWAP1 PUSH2 0x1BF5 SWAP1 ADDRESS SWAP1 PUSH1 0x4 ADD PUSH2 0x35D5 JUMP JUMPDEST PUSH1 0x20 PUSH1 0x40 MLOAD DUP1 DUP4 SUB DUP2 DUP7 DUP1 EXTCODESIZE ISZERO DUP1 ISZERO PUSH2 0x1C0D JUMPI PUSH1 0x0 DUP1 REVERT JUMPDEST POP GAS STATICCALL ISZERO DUP1 ISZERO PUSH2 0x1C21 JUMPI RETURNDATASIZE PUSH1 0x0 DUP1 RETURNDATACOPY RETURNDATASIZE PUSH1 0x0 REVERT JUMPDEST POP POP POP POP PUSH1 0x40 MLOAD RETURNDATASIZE PUSH1 0x1F NOT PUSH1 0x1F DUP3 ADD AND DUP3 ADD DUP1 PUSH1 0x40 MSTORE POP DUP2 ADD SWAP1 PUSH2 0x1C45 SWAP2 SWAP1 PUSH2 0x3C6E JUMP JUMPDEST PUSH1 0x40 MLOAD PUSH4 0x70A08231 PUSH1 0xE0 SHL DUP2 MSTORE PUSH1 0x1 PUSH1 0x1 PUSH1 0xA0 SHL SUB PUSH32 0x0 AND SWAP1 PUSH4 0x70A08231 SWAP1 PUSH2 0x1C91 SWAP1 ADDRESS SWAP1 PUSH1 0x4 ADD PUSH2 0x35D5 JUMP JUMPDEST PUSH1 0x20 PUSH1 0x40 MLOAD DUP1 DUP4 SUB DUP2 DUP7 DUP1 EXTCODESIZE ISZERO DUP1 ISZERO PUSH2 0x1CA9 JUMPI PUSH1 0x0 DUP1 REVERT JUMPDEST POP GAS STATICCALL ISZERO DUP1 ISZERO PUSH2 0x1CBD JUMPI RETURNDATASIZE PUSH1 0x0 DUP1 RETURNDATACOPY RETURNDATASIZE PUSH1 0x0 REVERT JUMPDEST POP POP POP POP PUSH1 0x40 MLOAD RETURNDATASIZE PUSH1 0x1F NOT PUSH1 0x1F DUP3 ADD AND DUP3 ADD DUP1 PUSH1 0x40 MSTORE POP DUP2 ADD SWAP1 PUSH2 0x1763 SWAP2 SWAP1 PUSH2 0x3C6E JUMP JUMPDEST PUSH1 0x40 MLOAD DUP5 DUP2 MSTORE CALLER SWAP1 PUSH32 0x9CE434F8C25CA029D1F79DD217B13223FF3C5EDDC4BED0A34D004F56A854DF7F SWAP1 PUSH1 0x20 ADD PUSH1 0x40 MLOAD DUP1 SWAP2 SUB SWAP1 LOG2 POP POP POP SWAP3 SWAP2 POP POP JUMP JUMPDEST CALLER PUSH1 0x0 SWAP1 DUP2 MSTORE PUSH1 0x1 PUSH1 0x20 MSTORE PUSH1 0x40 SWAP1 KECCAK256 PUSH1 0x5 DUP2 ADD SLOAD PUSH4 0x1000000 SWAP1 DIV PUSH1 0xFF AND ISZERO PUSH2 0x1D8A JUMPI PUSH1 0x40 MLOAD PUSH3 0x461BCD PUSH1 0xE5 SHL DUP2 MSTORE PUSH1 0x20 PUSH1 0x4 DUP3 ADD MSTORE PUSH1 0x1D PUSH1 0x24 DUP3 ADD MSTORE PUSH32 0x53746172746572207061636B20636C61696D656420616C72656164792E000000 PUSH1 0x44 DUP3 ADD MSTORE PUSH1 0x64 ADD PUSH2 0xC2D JUMP JUMPDEST PUSH2 0x1D95 CALLER PUSH1 0x64 PUSH2 0x338B JUMP JUMPDEST PUSH1 0x5 DUP2 ADD DUP1 SLOAD PUSH4 0xFF000000 NOT AND PUSH4 0x1000000 OR SWAP1 SSTORE PUSH1 0x13 SLOAD PUSH1 0x40 MLOAD PUSH4 0x731133E9 PUSH1 0xE0 SHL DUP2 MSTORE PUSH1 0x1 PUSH1 0x1 PUSH1 0xA0 SHL SUB SWAP1 SWAP2 AND SWAP1 PUSH4 0x731133E9 SWAP1 PUSH2 0x1DE2 SWAP1 CALLER SWAP1 PUSH1 0x0 SWAP1 PUSH3 0x186A0 SWAP1 PUSH1 0x4 ADD PUSH2 0x3A5B JUMP JUMPDEST PUSH1 0x0 PUSH1 0x40 MLOAD DUP1 DUP4 SUB DUP2 PUSH1 0x0 DUP8 DUP1 EXTCODESIZE ISZERO DUP1 ISZERO PUSH2 0x1DFC JUMPI PUSH1 0x0 DUP1 REVERT JUMPDEST POP GAS CALL ISZERO DUP1 ISZERO PUSH2 0x1E10 JUMPI RETURNDATASIZE PUSH1 0x0 DUP1 RETURNDATACOPY RETURNDATASIZE PUSH1 0x0 REVERT JUMPDEST POP POP PUSH1 0x13 SLOAD PUSH1 0x40 MLOAD PUSH4 0x731133E9 PUSH1 0xE0 SHL DUP2 MSTORE PUSH1 0x1 PUSH1 0x1 PUSH1 0xA0 SHL SUB SWAP1 SWAP2 AND SWAP3 POP PUSH4 0x731133E9 SWAP2 POP PUSH2 0x1E4A SWAP1 CALLER SWAP1 PUSH1 0xA SWAP1 PUSH1 0x64 SWAP1 PUSH1 0x4 ADD PUSH2 0x3A5B JUMP JUMPDEST PUSH1 0x0 PUSH1 0x40 MLOAD DUP1 DUP4 SUB DUP2 PUSH1 0x0 DUP8 DUP1 EXTCODESIZE ISZERO DUP1 ISZERO PUSH2 0x1E64 JUMPI PUSH1 0x0 DUP1 REVERT JUMPDEST POP GAS CALL ISZERO DUP1 ISZERO PUSH2 0x1E78 JUMPI RETURNDATASIZE PUSH1 0x0 DUP1 RETURNDATACOPY RETURNDATASIZE PUSH1 0x0 REVERT JUMPDEST POP POP PUSH1 0x13 SLOAD PUSH1 0x40 MLOAD PUSH4 0x731133E9 PUSH1 0xE0 SHL DUP2 MSTORE PUSH1 0x1 PUSH1 0x1 PUSH1 0xA0 SHL SUB SWAP1 SWAP2 AND SWAP3 POP PUSH4 0x731133E9 SWAP2 POP PUSH2 0x1EB2 SWAP1 CALLER SWAP1 PUSH1 0xB SWAP1 PUSH1 0x64 SWAP1 PUSH1 0x4 ADD PUSH2 0x3A5B JUMP JUMPDEST PUSH1 0x0 PUSH1 0x40 MLOAD DUP1 DUP4 SUB DUP2 PUSH1 0x0 DUP8 DUP1 EXTCODESIZE ISZERO DUP1 ISZERO PUSH2 0x1ECC JUMPI PUSH1 0x0 DUP1 REVERT JUMPDEST POP GAS CALL ISZERO DUP1 ISZERO PUSH2 0x1EE0 JUMPI RETURNDATASIZE PUSH1 0x0 DUP1 RETURNDATACOPY RETURNDATASIZE PUSH1 0x0 REVERT JUMPDEST POP POP PUSH1 0x13 SLOAD PUSH1 0x40 MLOAD PUSH4 0x731133E9 PUSH1 0xE0 SHL DUP2 MSTORE PUSH1 0x1 PUSH1 0x1 PUSH1 0xA0 SHL SUB SWAP1 SWAP2 AND SWAP3 POP PUSH4 0x731133E9 SWAP2 POP PUSH2 0x1F1B SWAP1 CALLER SWAP1 PUSH2 0x3E9 SWAP1 PUSH1 0x5A SWAP1 PUSH1 0x4 ADD PUSH2 0x3A5B JUMP JUMPDEST PUSH1 0x0 PUSH1 0x40 MLOAD DUP1 DUP4 SUB DUP2 PUSH1 0x0 DUP8 DUP1 EXTCODESIZE ISZERO DUP1 ISZERO PUSH2 0x1F35 JUMPI PUSH1 0x0 DUP1 REVERT JUMPDEST POP GAS CALL ISZERO DUP1 ISZERO PUSH2 0x1F49 JUMPI RETURNDATASIZE PUSH1 0x0 DUP1 RETURNDATACOPY RETURNDATASIZE PUSH1 0x0 REVERT JUMPDEST POP POP PUSH1 0x13 SLOAD PUSH1 0x40 MLOAD PUSH4 0x731133E9 PUSH1 0xE0 SHL DUP2 MSTORE PUSH1 0x1 PUSH1 0x1 PUSH1 0xA0 SHL SUB SWAP1 SWAP2 AND SWAP3 POP PUSH4 0x731133E9 SWAP2 POP PUSH2 0x1F84 SWAP1 CALLER SWAP1 PUSH2 0x3EB SWAP1 PUSH1 0x5A SWAP1 PUSH1 0x4 ADD PUSH2 0x3A5B JUMP JUMPDEST PUSH1 0x0 PUSH1 0x40 MLOAD DUP1 DUP4 SUB DUP2 PUSH1 0x0 DUP8 DUP1 EXTCODESIZE ISZERO DUP1 ISZERO PUSH2 0x1F9E JUMPI PUSH1 0x0 DUP1 REVERT JUMPDEST POP GAS CALL ISZERO DUP1 ISZERO PUSH2 0x1FB2 JUMPI RETURNDATASIZE PUSH1 0x0 DUP1 RETURNDATACOPY RETURNDATASIZE PUSH1 0x0 REVERT JUMPDEST POP POP PUSH1 0x13 SLOAD PUSH1 0x40 MLOAD PUSH4 0x731133E9 PUSH1 0xE0 SHL DUP2 MSTORE PUSH1 0x1 PUSH1 0x1 PUSH1 0xA0 SHL SUB SWAP1 SWAP2 AND SWAP3 POP PUSH4 0x731133E9 SWAP2 POP PUSH2 0x1FED SWAP1 CALLER SWAP1 PUSH2 0x3ED SWAP1 PUSH1 0x5A SWAP1 PUSH1 0x4 ADD PUSH2 0x3A5B JUMP JUMPDEST PUSH1 0x0 PUSH1 0x40 MLOAD DUP1 DUP4 SUB DUP2 PUSH1 0x0 DUP8 DUP1 EXTCODESIZE ISZERO DUP1 ISZERO PUSH2 0x2007 JUMPI PUSH1 0x0 DUP1 REVERT JUMPDEST POP GAS CALL ISZERO DUP1 ISZERO PUSH2 0x201B JUMPI RETURNDATASIZE PUSH1 0x0 DUP1 RETURNDATACOPY RETURNDATASIZE PUSH1 0x0 REVERT JUMPDEST POP POP PUSH1 0x13 SLOAD PUSH1 0x40 MLOAD PUSH4 0x731133E9 PUSH1 0xE0 SHL DUP2 MSTORE PUSH1 0x1 PUSH1 0x1 PUSH1 0xA0 SHL SUB SWAP1 SWAP2 AND SWAP3 POP PUSH4 0x731133E9 SWAP2 POP PUSH2 0x2056 SWAP1 CALLER SWAP1 PUSH2 0x3EF SWAP1 PUSH1 0x5A SWAP1 PUSH1 0x4 ADD PUSH2 0x3A5B JUMP JUMPDEST PUSH1 0x0 PUSH1 0x40 MLOAD DUP1 DUP4 SUB DUP2 PUSH1 0x0 DUP8 DUP1 EXTCODESIZE ISZERO DUP1 ISZERO PUSH2 0x2070 JUMPI PUSH1 0x0 DUP1 REVERT JUMPDEST POP GAS CALL ISZERO DUP1 ISZERO PUSH2 0x2084 JUMPI RETURNDATASIZE PUSH1 0x0 DUP1 RETURNDATACOPY RETURNDATASIZE PUSH1 0x0 REVERT JUMPDEST POP POP PUSH1 0x13 SLOAD PUSH1 0x40 MLOAD PUSH4 0x731133E9 PUSH1 0xE0 SHL DUP2 MSTORE PUSH1 0x1 PUSH1 0x1 PUSH1 0xA0 SHL SUB SWAP1 SWAP2 AND SWAP3 POP PUSH4 0x731133E9 SWAP2 POP PUSH2 0x20BF SWAP1 CALLER SWAP1 PUSH2 0x3F1 SWAP1 PUSH1 0x5A SWAP1 PUSH1 0x4 ADD PUSH2 0x3A5B JUMP JUMPDEST PUSH1 0x0 PUSH1 0x40 MLOAD DUP1 DUP4 SUB DUP2 PUSH1 0x0 DUP8 DUP1 EXTCODESIZE ISZERO DUP1 ISZERO PUSH2 0x20D9 JUMPI PUSH1 0x0 DUP1 REVERT JUMPDEST POP GAS CALL ISZERO DUP1 ISZERO PUSH2 0x20ED JUMPI RETURNDATASIZE PUSH1 0x0 DUP1 RETURNDATACOPY RETURNDATASIZE PUSH1 0x0 REVERT JUMPDEST POP POP PUSH1 0x13 SLOAD PUSH1 0x40 MLOAD PUSH4 0x731133E9 PUSH1 0xE0 SHL DUP2 MSTORE PUSH1 0x1 PUSH1 0x1 PUSH1 0xA0 SHL SUB SWAP1 SWAP2 AND SWAP3 POP PUSH4 0x731133E9 SWAP2 POP PUSH2 0x2128 SWAP1 CALLER SWAP1 PUSH2 0x3F3 SWAP1 PUSH1 0x5A SWAP1 PUSH1 0x4 ADD PUSH2 0x3A5B JUMP JUMPDEST PUSH1 0x0 PUSH1 0x40 MLOAD DUP1 DUP4 SUB DUP2 PUSH1 0x0 DUP8 DUP1 EXTCODESIZE ISZERO DUP1 ISZERO PUSH2 0x2142 JUMPI PUSH1 0x0 DUP1 REVERT JUMPDEST POP GAS CALL ISZERO DUP1 ISZERO PUSH2 0x2156 JUMPI RETURNDATASIZE PUSH1 0x0 DUP1 RETURNDATACOPY RETURNDATASIZE PUSH1 0x0 REVERT JUMPDEST POP POP PUSH1 0x13 SLOAD PUSH1 0x40 MLOAD PUSH4 0x731133E9 PUSH1 0xE0 SHL DUP2 MSTORE PUSH1 0x1 PUSH1 0x1 PUSH1 0xA0 SHL SUB SWAP1 SWAP2 AND SWAP3 POP PUSH4 0x731133E9 SWAP2 POP PUSH2 0x2191 SWAP1 CALLER SWAP1 PUSH2 0x3F5 SWAP1 PUSH1 0x5A SWAP1 PUSH1 0x4 ADD PUSH2 0x3A5B JUMP JUMPDEST PUSH1 0x0 PUSH1 0x40 MLOAD DUP1 DUP4 SUB DUP2 PUSH1 0x0 DUP8 DUP1 EXTCODESIZE ISZERO DUP1 ISZERO PUSH2 0x21AB JUMPI PUSH1 0x0 DUP1 REVERT JUMPDEST POP GAS CALL ISZERO DUP1 ISZERO PUSH2 0x21BF JUMPI RETURNDATASIZE PUSH1 0x0 DUP1 RETURNDATACOPY RETURNDATASIZE PUSH1 0x0 REVERT JUMPDEST POP POP PUSH1 0x13 SLOAD PUSH1 0x40 MLOAD PUSH4 0x731133E9 PUSH1 0xE0 SHL DUP2 MSTORE PUSH1 0x1 PUSH1 0x1 PUSH1 0xA0 SHL SUB SWAP1 SWAP2 AND SWAP3 POP PUSH4 0x731133E9 SWAP2 POP PUSH2 0x21FA SWAP1 CALLER SWAP1 PUSH2 0x3F7 SWAP1 PUSH1 0x5A SWAP1 PUSH1 0x4 ADD PUSH2 0x3A5B JUMP JUMPDEST PUSH1 0x0 PUSH1 0x40 MLOAD DUP1 DUP4 SUB DUP2 PUSH1 0x0 DUP8 DUP1 EXTCODESIZE ISZERO DUP1 ISZERO PUSH2 0x2214 JUMPI PUSH1 0x0 DUP1 REVERT JUMPDEST POP GAS CALL ISZERO DUP1 ISZERO PUSH2 0x2228 JUMPI RETURNDATASIZE PUSH1 0x0 DUP1 RETURNDATACOPY RETURNDATASIZE PUSH1 0x0 REVERT JUMPDEST POP POP PUSH1 0x13 SLOAD PUSH1 0x40 MLOAD PUSH4 0x731133E9 PUSH1 0xE0 SHL DUP2 MSTORE PUSH1 0x1 PUSH1 0x1 PUSH1 0xA0 SHL SUB SWAP1 SWAP2 AND SWAP3 POP PUSH4 0x731133E9 SWAP2 POP PUSH2 0x2263 SWAP1 CALLER SWAP1 PUSH2 0x3F9 SWAP1 PUSH1 0x5A SWAP1 PUSH1 0x4 ADD PUSH2 0x3A5B JUMP JUMPDEST PUSH1 0x0 PUSH1 0x40 MLOAD DUP1 DUP4 SUB DUP2 PUSH1 0x0 DUP8 DUP1 EXTCODESIZE ISZERO DUP1 ISZERO PUSH2 0x227D JUMPI PUSH1 0x0 DUP1 REVERT JUMPDEST POP GAS CALL ISZERO DUP1 ISZERO PUSH2 0x2291 JUMPI RETURNDATASIZE PUSH1 0x0 DUP1 RETURNDATACOPY RETURNDATASIZE PUSH1 0x0 REVERT JUMPDEST POP POP POP POP POP JUMP JUMPDEST PUSH1 0x0 PUSH32 0x0 PUSH1 0x1 PUSH1 0x1 PUSH1 0xA0 SHL SUB AND DUP4 PUSH1 0x1 PUSH1 0x1 PUSH1 0xA0 SHL SUB AND EQ DUP1 PUSH2 0x230B JUMPI POP PUSH32 0x0 PUSH1 0x1 PUSH1 0x1 PUSH1 0xA0 SHL SUB AND DUP4 PUSH1 0x1 PUSH1 0x1 PUSH1 0xA0 SHL SUB AND EQ JUMPDEST PUSH2 0x234F JUMPI PUSH1 0x40 MLOAD PUSH3 0x461BCD PUSH1 0xE5 SHL DUP2 MSTORE PUSH1 0x20 PUSH1 0x4 DUP3 ADD MSTORE PUSH1 0x15 PUSH1 0x24 DUP3 ADD MSTORE PUSH21 0x496E76616C696420546F6B656E2041646472657373 PUSH1 0x58 SHL PUSH1 0x44 DUP3 ADD MSTORE PUSH1 0x64 ADD PUSH2 0xC2D JUMP JUMPDEST PUSH1 0x0 PUSH32 0x0 PUSH1 0x1 PUSH1 0x1 PUSH1 0xA0 SHL SUB AND DUP5 PUSH1 0x1 PUSH1 0x1 PUSH1 0xA0 SHL SUB AND EQ SWAP1 POP PUSH1 0x0 DUP1 PUSH2 0x2398 PUSH1 0x14 SLOAD PUSH1 0x15 SLOAD SWAP1 SWAP2 JUMP JUMPDEST SWAP2 POP SWAP2 POP PUSH1 0x0 DUP1 PUSH1 0x0 DUP1 DUP7 PUSH2 0x23F0 JUMPI PUSH32 0x0 PUSH32 0x0 DUP7 DUP9 PUSH2 0x2435 JUMP JUMPDEST PUSH32 0x0 PUSH32 0x0 DUP8 DUP8 JUMPDEST SWAP4 POP SWAP4 POP SWAP4 POP SWAP4 POP PUSH1 0x0 DUP10 GT PUSH2 0x2483 JUMPI PUSH1 0x40 MLOAD PUSH3 0x461BCD PUSH1 0xE5 SHL DUP2 MSTORE PUSH1 0x20 PUSH1 0x4 DUP3 ADD MSTORE PUSH1 0x13 PUSH1 0x24 DUP3 ADD MSTORE PUSH19 0x125B9CDD59999A58DA595B9D08105B5BDD5B9D PUSH1 0x6A SHL PUSH1 0x44 DUP3 ADD MSTORE PUSH1 0x64 ADD PUSH2 0xC2D JUMP JUMPDEST PUSH1 0x40 MLOAD PUSH4 0x23B872DD PUSH1 0xE0 SHL DUP2 MSTORE PUSH1 0x1 PUSH1 0x1 PUSH1 0xA0 SHL SUB DUP6 AND SWAP1 PUSH4 0x23B872DD SWAP1 PUSH2 0x24B3 SWAP1 CALLER SWAP1 ADDRESS SWAP1 DUP15 SWAP1 PUSH1 0x4 ADD PUSH2 0x3C4A JUMP JUMPDEST PUSH1 0x20 PUSH1 0x40 MLOAD DUP1 DUP4 SUB DUP2 PUSH1 0x0 DUP8 DUP1 EXTCODESIZE ISZERO DUP1 ISZERO PUSH2 0x24CD JUMPI PUSH1 0x0 DUP1 REVERT JUMPDEST POP GAS CALL ISZERO DUP1 ISZERO PUSH2 0x24E1 JUMPI RETURNDATASIZE PUSH1 0x0 DUP1 RETURNDATACOPY RETURNDATASIZE PUSH1 0x0 REVERT JUMPDEST POP POP POP POP PUSH1 0x40 MLOAD RETURNDATASIZE PUSH1 0x1F NOT PUSH1 0x1F DUP3 ADD AND DUP3 ADD DUP1 PUSH1 0x40 MSTORE POP DUP2 ADD SWAP1 PUSH2 0x2505 SWAP2 SWAP1 PUSH2 0x3BAB JUMP JUMPDEST POP PUSH1 0x0 PUSH2 0x3E8 PUSH2 0x2517 DUP12 PUSH2 0x3E6 PUSH2 0x3A1B JUMP JUMPDEST PUSH2 0x2521 SWAP2 SWAP1 PUSH2 0x3C05 JUMP JUMPDEST SWAP1 POP PUSH2 0x252D DUP2 DUP5 PUSH2 0x3A03 JUMP JUMPDEST PUSH2 0x2537 DUP3 DUP5 PUSH2 0x3A1B JUMP JUMPDEST PUSH2 0x2541 SWAP2 SWAP1 PUSH2 0x3C05 JUMP JUMPDEST SWAP9 POP DUP2 DUP10 LT PUSH2 0x258B JUMPI PUSH1 0x40 MLOAD PUSH3 0x461BCD PUSH1 0xE5 SHL DUP2 MSTORE PUSH1 0x20 PUSH1 0x4 DUP3 ADD MSTORE PUSH1 0x16 PUSH1 0x24 DUP3 ADD MSTORE PUSH22 0x496E73756666696369656E74204C6971756964697479 PUSH1 0x50 SHL PUSH1 0x44 DUP3 ADD MSTORE PUSH1 0x64 ADD PUSH2 0xC2D JUMP JUMPDEST PUSH1 0x40 MLOAD PUSH4 0xA9059CBB PUSH1 0xE0 SHL DUP2 MSTORE PUSH1 0x1 PUSH1 0x1 PUSH1 0xA0 SHL SUB DUP6 AND SWAP1 PUSH4 0xA9059CBB SWAP1 PUSH2 0x25B9 SWAP1 CALLER SWAP1 DUP14 SWAP1 PUSH1 0x4 ADD PUSH2 0x3B92 JUMP JUMPDEST PUSH1 0x20 PUSH1 0x40 MLOAD DUP1 DUP4 SUB DUP2 PUSH1 0x0 DUP8 DUP1 EXTCODESIZE ISZERO DUP1 ISZERO PUSH2 0x25D3 JUMPI PUSH1 0x0 DUP1 REVERT JUMPDEST POP GAS CALL ISZERO DUP1 ISZERO PUSH2 0x25E7 JUMPI RETURNDATASIZE PUSH1 0x0 DUP1 RETURNDATACOPY RETURNDATASIZE PUSH1 0x0 REVERT JUMPDEST POP POP POP POP PUSH1 0x40 MLOAD RETURNDATASIZE PUSH1 0x1F NOT PUSH1 0x1F DUP3 ADD AND DUP3 ADD DUP1 PUSH1 0x40 MSTORE POP DUP2 ADD SWAP1 PUSH2 0x260B SWAP2 SWAP1 PUSH2 0x3BAB JUMP JUMPDEST POP PUSH1 0x40 MLOAD PUSH4 0x70A08231 PUSH1 0xE0 SHL DUP2 MSTORE PUSH2 0x265C SWAP1 PUSH1 0x1 PUSH1 0x1 PUSH1 0xA0 SHL SUB PUSH32 0x0 AND SWAP1 PUSH4 0x70A08231 SWAP1 PUSH2 0x1BF5 SWAP1 ADDRESS SWAP1 PUSH1 0x4 ADD PUSH2 0x35D5 JUMP JUMPDEST POP POP POP POP POP POP POP POP SWAP3 SWAP2 POP POP JUMP JUMPDEST PUSH2 0x2695 PUSH32 0x0 PUSH1 0xA PUSH2 0x3B6F JUMP JUMPDEST PUSH2 0x269F SWAP1 DUP3 PUSH2 0x39D9 JUMP JUMPDEST ISZERO PUSH2 0x26BD JUMPI PUSH1 0x40 MLOAD PUSH4 0x692ACC5 PUSH1 0xE5 SHL DUP2 MSTORE PUSH1 0x4 ADD PUSH1 0x40 MLOAD DUP1 SWAP2 SUB SWAP1 REVERT JUMPDEST PUSH2 0x26C7 CALLER DUP3 PUSH2 0x346E JUMP JUMPDEST PUSH1 0x12 SLOAD PUSH1 0x40 MLOAD PUSH4 0x23B872DD PUSH1 0xE0 SHL DUP2 MSTORE PUSH1 0x1 PUSH1 0x1 PUSH1 0xA0 SHL SUB SWAP1 SWAP2 AND SWAP1 PUSH4 0x23B872DD SWAP1 PUSH2 0x26FB SWAP1 CALLER SWAP1 ADDRESS SWAP1 DUP7 SWAP1 PUSH1 0x4 ADD PUSH2 0x3C4A JUMP JUMPDEST PUSH1 0x20 PUSH1 0x40 MLOAD DUP1 DUP4 SUB DUP2 PUSH1 0x0 DUP8 DUP1 EXTCODESIZE ISZERO DUP1 ISZERO PUSH2 0x2715 JUMPI PUSH1 0x0 DUP1 REVERT JUMPDEST POP GAS CALL ISZERO DUP1 ISZERO PUSH2 0x2729 JUMPI RETURNDATASIZE PUSH1 0x0 DUP1 RETURNDATACOPY RETURNDATASIZE PUSH1 0x0 REVERT JUMPDEST POP POP POP POP PUSH1 0x40 MLOAD RETURNDATASIZE PUSH1 0x1F NOT PUSH1 0x1F DUP3 ADD AND DUP3 ADD DUP1 PUSH1 0x40 MSTORE POP DUP2 ADD SWAP1 PUSH2 0xABE SWAP2 SWAP1 PUSH2 0x3BAB JUMP JUMPDEST PUSH1 0x0 PUSH2 0x2759 PUSH1 0x64 PUSH2 0x3531 JUMP JUMPDEST SWAP1 POP PUSH1 0x0 PUSH1 0x5A DUP3 LT ISZERO PUSH2 0x276E JUMPI POP PUSH1 0x0 PUSH2 0x2790 JUMP JUMPDEST PUSH1 0x5A DUP3 LT ISZERO DUP1 ISZERO PUSH2 0x277F JUMPI POP PUSH1 0x63 DUP3 LT JUMPDEST ISZERO PUSH2 0x278C JUMPI POP PUSH1 0x1 PUSH2 0x2790 JUMP JUMPDEST POP PUSH1 0x2 JUMPDEST PUSH1 0x0 DUP4 DUP2 MSTORE PUSH1 0x2 PUSH1 0x20 DUP2 SWAP1 MSTORE PUSH1 0x40 DUP3 KECCAK256 SWAP1 DUP3 SWAP1 DUP5 SWAP1 DUP2 GT ISZERO PUSH2 0x27B4 JUMPI PUSH2 0x27B4 PUSH2 0x3686 JUMP JUMPDEST PUSH1 0x2 DUP2 GT ISZERO PUSH2 0x27C5 JUMPI PUSH2 0x27C5 PUSH2 0x3686 JUMP JUMPDEST DUP2 MSTORE PUSH1 0x20 ADD SWAP1 DUP2 MSTORE PUSH1 0x20 ADD PUSH1 0x0 KECCAK256 DUP1 SLOAD DUP1 PUSH1 0x20 MUL PUSH1 0x20 ADD PUSH1 0x40 MLOAD SWAP1 DUP2 ADD PUSH1 0x40 MSTORE DUP1 SWAP3 SWAP2 SWAP1 DUP2 DUP2 MSTORE PUSH1 0x20 ADD DUP3 DUP1 SLOAD DUP1 ISZERO PUSH2 0x281D JUMPI PUSH1 0x20 MUL DUP3 ADD SWAP2 SWAP1 PUSH1 0x0 MSTORE PUSH1 0x20 PUSH1 0x0 KECCAK256 SWAP1 JUMPDEST DUP2 SLOAD DUP2 MSTORE PUSH1 0x20 ADD SWAP1 PUSH1 0x1 ADD SWAP1 DUP1 DUP4 GT PUSH2 0x2809 JUMPI JUMPDEST POP POP POP POP POP SWAP1 POP PUSH1 0x0 DUP2 MLOAD GT PUSH2 0x2871 JUMPI PUSH1 0x40 MLOAD PUSH3 0x461BCD PUSH1 0xE5 SHL DUP2 MSTORE PUSH1 0x20 PUSH1 0x4 DUP3 ADD MSTORE PUSH1 0x19 PUSH1 0x24 DUP3 ADD MSTORE PUSH25 0x27379039B5B4B7399034B7103A3432903634B9BA103CB2BA17 PUSH1 0x39 SHL PUSH1 0x44 DUP3 ADD MSTORE PUSH1 0x64 ADD PUSH2 0xC2D JUMP JUMPDEST PUSH1 0x0 DUP2 PUSH2 0x287E DUP4 MLOAD PUSH2 0x3531 JUMP JUMPDEST DUP2 MLOAD DUP2 LT PUSH2 0x288E JUMPI PUSH2 0x288E PUSH2 0x3C19 JUMP JUMPDEST PUSH1 0x20 MUL PUSH1 0x20 ADD ADD MLOAD SWAP1 POP PUSH1 0x0 PUSH2 0x28A3 DUP3 PUSH2 0x3054 JUMP JUMPDEST SWAP1 POP PUSH1 0x0 PUSH2 0x28B9 DUP3 PUSH1 0x0 ADD MLOAD DUP4 PUSH1 0x20 ADD MLOAD PUSH2 0x3141 JUMP JUMPDEST PUSH1 0x40 MLOAD DUP5 DUP2 MSTORE SWAP1 SWAP2 POP CALLER SWAP1 PUSH32 0xAE33AE7E358B64F7A51FF8F7B5760FC71417704B8FCF2D004CCE14B891B4305A SWAP1 PUSH1 0x20 ADD PUSH1 0x40 MLOAD DUP1 SWAP2 SUB SWAP1 LOG2 PUSH1 0x12 SLOAD PUSH1 0x40 MLOAD PUSH4 0x23B872DD PUSH1 0xE0 SHL DUP2 MSTORE PUSH1 0x1 PUSH1 0x1 PUSH1 0xA0 SHL SUB SWAP1 SWAP2 AND SWAP1 PUSH4 0x23B872DD SWAP1 PUSH2 0x2925 SWAP1 CALLER SWAP1 ADDRESS SWAP1 DUP7 SWAP1 PUSH1 0x4 ADD PUSH2 0x3C4A JUMP JUMPDEST PUSH1 0x20 PUSH1 0x40 MLOAD DUP1 DUP4 SUB DUP2 PUSH1 0x0 DUP8 DUP1 EXTCODESIZE ISZERO DUP1 ISZERO PUSH2 0x293F JUMPI PUSH1 0x0 DUP1 REVERT JUMPDEST POP GAS CALL ISZERO DUP1 ISZERO PUSH2 0x2953 JUMPI RETURNDATASIZE PUSH1 0x0 DUP1 RETURNDATACOPY RETURNDATASIZE PUSH1 0x0 REVERT JUMPDEST POP POP POP POP PUSH1 0x40 MLOAD RETURNDATASIZE PUSH1 0x1F NOT PUSH1 0x1F DUP3 ADD AND DUP3 ADD DUP1 PUSH1 0x40 MSTORE POP DUP2 ADD SWAP1 PUSH2 0x2977 SWAP2 SWAP1 PUSH2 0x3BAB JUMP JUMPDEST POP PUSH1 0x13 SLOAD PUSH1 0x40 MLOAD PUSH4 0x7A94C565 PUSH1 0xE1 SHL DUP2 MSTORE PUSH1 0x1 PUSH1 0x1 PUSH1 0xA0 SHL SUB SWAP1 SWAP2 AND SWAP1 PUSH4 0xF5298ACA SWAP1 PUSH2 0x29AD SWAP1 CALLER SWAP1 DUP12 SWAP1 PUSH1 0x1 SWAP1 PUSH1 0x4 ADD PUSH2 0x3A3A JUMP JUMPDEST PUSH1 0x0 PUSH1 0x40 MLOAD DUP1 DUP4 SUB DUP2 PUSH1 0x0 DUP8 DUP1 EXTCODESIZE ISZERO DUP1 ISZERO PUSH2 0x29C7 JUMPI PUSH1 0x0 DUP1 REVERT JUMPDEST POP GAS CALL ISZERO DUP1 ISZERO PUSH2 0x29DB JUMPI RETURNDATASIZE PUSH1 0x0 DUP1 RETURNDATACOPY RETURNDATASIZE PUSH1 0x0 REVERT JUMPDEST POP POP PUSH1 0x13 SLOAD PUSH1 0x40 MLOAD PUSH4 0x731133E9 PUSH1 0xE0 SHL DUP2 MSTORE PUSH1 0x1 PUSH1 0x1 PUSH1 0xA0 SHL SUB SWAP1 SWAP2 AND SWAP3 POP PUSH4 0x731133E9 SWAP2 POP PUSH2 0x2A14 SWAP1 CALLER SWAP1 DUP8 SWAP1 PUSH1 0x1 SWAP1 PUSH1 0x4 ADD PUSH2 0x3A5B JUMP JUMPDEST PUSH1 0x0 PUSH1 0x40 MLOAD DUP1 DUP4 SUB DUP2 PUSH1 0x0 DUP8 DUP1 EXTCODESIZE ISZERO DUP1 ISZERO PUSH2 0x2A2E JUMPI PUSH1 0x0 DUP1 REVERT JUMPDEST POP GAS CALL ISZERO DUP1 ISZERO PUSH2 0x2A42 JUMPI RETURNDATASIZE PUSH1 0x0 DUP1 RETURNDATACOPY RETURNDATASIZE PUSH1 0x0 REVERT JUMPDEST POP POP POP POP POP POP POP POP POP POP POP JUMP JUMPDEST PUSH1 0x2 PUSH1 0x20 MSTORE DUP3 PUSH1 0x0 MSTORE PUSH1 0x40 PUSH1 0x0 KECCAK256 PUSH1 0x20 MSTORE DUP2 PUSH1 0x0 MSTORE PUSH1 0x40 PUSH1 0x0 KECCAK256 DUP2 DUP2 SLOAD DUP2 LT PUSH2 0x2A77 JUMPI PUSH1 0x0 DUP1 REVERT JUMPDEST SWAP1 PUSH1 0x0 MSTORE PUSH1 0x20 PUSH1 0x0 KECCAK256 ADD PUSH1 0x0 SWAP3 POP SWAP3 POP POP POP SLOAD DUP2 JUMP JUMPDEST CALLER PUSH1 0x0 SWAP1 DUP2 MSTORE PUSH1 0x1 PUSH1 0x20 MSTORE PUSH1 0x40 SWAP1 KECCAK256 PUSH1 0x0 PUSH2 0x2AA9 PUSH2 0x1F4 PUSH2 0x3574 JUMP JUMPDEST PUSH1 0x5 DUP4 ADD SLOAD PUSH2 0x2ABC SWAP2 SWAP1 PUSH2 0xFFFF AND PUSH2 0x3A1B JUMP JUMPDEST SWAP1 POP PUSH1 0x0 PUSH2 0x2ACB PUSH2 0x3E8 PUSH2 0x3574 JUMP JUMPDEST PUSH1 0x5 DUP5 ADD SLOAD PUSH2 0x2ADE SWAP2 SWAP1 PUSH2 0xFFFF AND PUSH2 0x3A1B JUMP JUMPDEST SWAP1 POP PUSH1 0x0 PUSH2 0x2AED PUSH2 0x1F4 PUSH2 0x3574 JUMP JUMPDEST PUSH1 0x5 DUP6 ADD SLOAD PUSH2 0x2B00 SWAP2 SWAP1 PUSH2 0xFFFF AND PUSH2 0x3A1B JUMP JUMPDEST SWAP1 POP PUSH1 0x0 DUP2 PUSH2 0x2B0F DUP5 DUP7 PUSH2 0x3A03 JUMP JUMPDEST PUSH2 0x2B19 SWAP2 SWAP1 PUSH2 0x3A03 JUMP JUMPDEST SWAP1 POP PUSH2 0x2B25 CALLER DUP5 PUSH2 0x346E JUMP JUMPDEST PUSH2 0x2B4F PUSH32 0x0 DUP4 PUSH2 0x346E JUMP JUMPDEST PUSH1 0x5 DUP6 ADD DUP1 SLOAD PUSH2 0xFFFF NOT AND SWAP1 SSTORE PUSH1 0x12 SLOAD PUSH1 0x40 MLOAD PUSH4 0x40C10F19 PUSH1 0xE0 SHL DUP2 MSTORE PUSH1 0x1 PUSH1 0x1 PUSH1 0xA0 SHL SUB SWAP1 SWAP2 AND SWAP1 PUSH4 0x40C10F19 SWAP1 PUSH2 0x2B8E SWAP1 ADDRESS SWAP1 DUP6 SWAP1 PUSH1 0x4 ADD PUSH2 0x3B92 JUMP JUMPDEST PUSH1 0x0 PUSH1 0x40 MLOAD DUP1 DUP4 SUB DUP2 PUSH1 0x0 DUP8 DUP1 EXTCODESIZE ISZERO DUP1 ISZERO PUSH2 0x2BA8 JUMPI PUSH1 0x0 DUP1 REVERT JUMPDEST POP GAS CALL ISZERO DUP1 ISZERO PUSH2 0x2BBC JUMPI RETURNDATASIZE PUSH1 0x0 DUP1 RETURNDATACOPY RETURNDATASIZE PUSH1 0x0 REVERT JUMPDEST POP POP PUSH1 0x12 SLOAD PUSH1 0x40 MLOAD PUSH4 0xA9059CBB PUSH1 0xE0 SHL DUP2 MSTORE PUSH1 0x1 PUSH1 0x1 PUSH1 0xA0 SHL SUB SWAP1 SWAP2 AND SWAP3 POP PUSH4 0xA9059CBB SWAP2 POP PUSH2 0x2BF2 SWAP1 CALLER SWAP1 DUP9 SWAP1 PUSH1 0x4 ADD PUSH2 0x3B92 JUMP JUMPDEST PUSH1 0x20 PUSH1 0x40 MLOAD DUP1 DUP4 SUB DUP2 PUSH1 0x0 DUP8 DUP1 EXTCODESIZE ISZERO DUP1 ISZERO PUSH2 0x2C0C JUMPI PUSH1 0x0 DUP1 REVERT JUMPDEST POP GAS CALL ISZERO DUP1 ISZERO PUSH2 0x2C20 JUMPI RETURNDATASIZE PUSH1 0x0 DUP1 RETURNDATACOPY RETURNDATASIZE PUSH1 0x0 REVERT JUMPDEST POP POP POP POP PUSH1 0x40 MLOAD RETURNDATASIZE PUSH1 0x1F NOT PUSH1 0x1F DUP3 ADD AND DUP3 ADD DUP1 PUSH1 0x40 MSTORE POP DUP2 ADD SWAP1 PUSH2 0x2C44 SWAP2 SWAP1 PUSH2 0x3BAB JUMP JUMPDEST POP POP POP POP POP POP JUMP JUMPDEST CALLER PUSH1 0x0 SWAP1 DUP2 MSTORE PUSH1 0x1 PUSH1 0x20 MSTORE PUSH1 0x40 SWAP1 KECCAK256 PUSH1 0x2 DUP2 ADD SLOAD TIMESTAMP LT ISZERO PUSH2 0x2C80 JUMPI PUSH1 0x40 MLOAD PUSH4 0x9225B941 PUSH1 0xE0 SHL DUP2 MSTORE PUSH1 0x4 ADD PUSH1 0x40 MLOAD DUP1 SWAP2 SUB SWAP1 REVERT JUMPDEST PUSH1 0x1 DUP2 ADD SLOAD PUSH1 0xC DUP1 SLOAD DUP3 SWAP2 SWAP1 PUSH1 0x0 SWAP1 PUSH2 0x2C9A SWAP1 DUP5 SWAP1 PUSH2 0x3B7B JUMP JUMPDEST SWAP1 SWAP2 SSTORE POP POP PUSH1 0x0 PUSH1 0x1 DUP4 ADD DUP2 SWAP1 SSTORE PUSH1 0x2 DUP4 ADD SSTORE PUSH1 0x12 SLOAD PUSH1 0x40 MLOAD PUSH4 0xA9059CBB PUSH1 0xE0 SHL DUP2 MSTORE PUSH1 0x1 PUSH1 0x1 PUSH1 0xA0 SHL SUB SWAP1 SWAP2 AND SWAP1 PUSH4 0xA9059CBB SWAP1 PUSH2 0xB0E SWAP1 CALLER SWAP1 DUP6 SWAP1 PUSH1 0x4 ADD PUSH2 0x3B92 JUMP JUMPDEST PUSH2 0x2CE7 PUSH2 0x2FCD JUMP JUMPDEST PUSH1 0x0 DUP3 DUP2 MSTORE PUSH1 0x3 PUSH1 0x20 SWAP1 DUP2 MSTORE PUSH1 0x40 DUP1 DUP4 KECCAK256 DUP2 MLOAD DUP1 DUP4 ADD SWAP1 SWAP3 MSTORE DUP1 SLOAD PUSH1 0x1 PUSH1 0x1 PUSH1 0xA0 SHL SUB DUP2 AND DUP4 MSTORE SWAP2 SWAP3 SWAP1 SWAP2 SWAP1 DUP4 ADD SWAP1 PUSH1 0x1 PUSH1 0xA0 SHL SWAP1 DIV PUSH1 0xFF AND PUSH1 0x2 DUP2 GT ISZERO PUSH2 0x2D31 JUMPI PUSH2 0x2D31 PUSH2 0x3686 JUMP JUMPDEST PUSH1 0x2 DUP2 GT ISZERO PUSH2 0x2D42 JUMPI PUSH2 0x2D42 PUSH2 0x3686 JUMP JUMPDEST SWAP1 MSTORE POP DUP1 MLOAD SWAP1 SWAP2 POP PUSH1 0x1 PUSH1 0x1 PUSH1 0xA0 SHL SUB AND PUSH2 0x2D70 JUMPI PUSH1 0x40 MLOAD PUSH4 0x10FF5EBF PUSH1 0xE2 SHL DUP2 MSTORE PUSH1 0x4 ADD PUSH1 0x40 MLOAD DUP1 SWAP2 SUB SWAP1 REVERT JUMPDEST PUSH1 0x0 DUP3 DUP2 MSTORE PUSH1 0x2 PUSH1 0x20 DUP2 DUP2 MSTORE PUSH1 0x40 DUP4 KECCAK256 SWAP1 DUP5 ADD MLOAD SWAP1 SWAP3 SWAP2 DUP2 GT ISZERO PUSH2 0x2D96 JUMPI PUSH2 0x2D96 PUSH2 0x3686 JUMP JUMPDEST PUSH1 0x2 DUP2 GT ISZERO PUSH2 0x2DA7 JUMPI PUSH2 0x2DA7 PUSH2 0x3686 JUMP JUMPDEST DUP2 MSTORE PUSH1 0x20 DUP1 DUP3 ADD SWAP3 SWAP1 SWAP3 MSTORE PUSH1 0x40 ADD PUSH1 0x0 SWAP1 DUP2 KECCAK256 DUP1 SLOAD PUSH1 0x1 DUP2 ADD DUP3 SSTORE SWAP1 DUP3 MSTORE SWAP2 SWAP1 KECCAK256 ADD SWAP3 SWAP1 SWAP3 SSTORE POP POP JUMP JUMPDEST PUSH1 0x1 DUP3 LT ISZERO PUSH2 0x2DF3 JUMPI PUSH1 0x40 MLOAD PUSH4 0x2CA2F52B PUSH1 0xE1 SHL DUP2 MSTORE PUSH1 0x4 ADD PUSH1 0x40 MLOAD DUP1 SWAP2 SUB SWAP1 REVERT JUMPDEST PUSH2 0x2DFD PUSH1 0x1 PUSH2 0x3574 JUMP JUMPDEST DUP2 LT ISZERO PUSH2 0x2E57 JUMPI PUSH1 0x40 MLOAD PUSH3 0x461BCD PUSH1 0xE5 SHL DUP2 MSTORE PUSH1 0x20 PUSH1 0x4 DUP3 ADD MSTORE PUSH1 0x22 PUSH1 0x24 DUP3 ADD MSTORE PUSH32 0x41736B696E672070726963652073686F756C64206265206174206C6561737420 PUSH1 0x44 DUP3 ADD MSTORE PUSH2 0x1897 PUSH1 0xF1 SHL PUSH1 0x64 DUP3 ADD MSTORE PUSH1 0x84 ADD PUSH2 0xC2D JUMP JUMPDEST PUSH1 0x1 PUSH1 0xA PUSH1 0x0 DUP3 DUP3 SLOAD PUSH2 0x2E6A SWAP2 SWAP1 PUSH2 0x3A03 JUMP JUMPDEST SWAP1 SWAP2 SSTORE POP POP PUSH1 0x40 DUP1 MLOAD PUSH1 0x80 DUP1 DUP3 ADD DUP4 MSTORE CALLER DUP1 DUP4 MSTORE PUSH1 0x20 DUP1 DUP5 ADD DUP9 DUP2 MSTORE DUP5 DUP7 ADD DUP9 DUP2 MSTORE PUSH1 0x60 DUP1 DUP8 ADD DUP10 DUP2 MSTORE PUSH1 0xA DUP1 SLOAD PUSH1 0x0 SWAP1 DUP2 MSTORE PUSH1 0x5 DUP8 MSTORE DUP11 SWAP1 KECCAK256 SWAP9 MLOAD DUP10 SLOAD PUSH1 0x1 PUSH1 0x1 PUSH1 0xA0 SHL SUB NOT AND PUSH1 0x1 PUSH1 0x1 PUSH1 0xA0 SHL SUB SWAP1 SWAP2 AND OR DUP10 SSTORE SWAP4 MLOAD PUSH1 0x1 DUP10 ADD SSTORE SWAP2 MLOAD PUSH1 0x2 DUP9 ADD SSTORE SWAP1 MLOAD PUSH1 0x3 SWAP1 SWAP7 ADD SWAP6 SWAP1 SWAP6 SSTORE SLOAD DUP6 MLOAD SWAP1 DUP2 MSTORE SWAP1 DUP2 ADD DUP9 SWAP1 MSTORE SWAP4 DUP5 ADD DUP7 SWAP1 MSTORE SWAP2 DUP4 ADD DUP5 SWAP1 MSTORE SWAP1 SWAP2 PUSH32 0xC02EBE2E0167B3CE101FF4BE84BBEACF66A81EEBB6F8D142FFD02EA3FDFD0B0A SWAP2 ADD PUSH1 0x40 MLOAD DUP1 SWAP2 SUB SWAP1 LOG2 PUSH1 0x13 SLOAD PUSH1 0x40 MLOAD PUSH4 0x79212195 PUSH1 0xE1 SHL DUP2 MSTORE PUSH1 0x1 PUSH1 0x1 PUSH1 0xA0 SHL SUB SWAP1 SWAP2 AND SWAP1 PUSH4 0xF242432A SWAP1 PUSH2 0x949 SWAP1 CALLER SWAP1 ADDRESS SWAP1 DUP9 SWAP1 DUP9 SWAP1 PUSH1 0x4 ADD PUSH2 0x3BCD JUMP JUMPDEST PUSH2 0x2F5C PUSH2 0x2FCD JUMP JUMPDEST PUSH1 0x1 PUSH1 0x1 PUSH1 0xA0 SHL SUB DUP2 AND PUSH2 0x2FC1 JUMPI PUSH1 0x40 MLOAD PUSH3 0x461BCD PUSH1 0xE5 SHL DUP2 MSTORE PUSH1 0x20 PUSH1 0x4 DUP3 ADD MSTORE PUSH1 0x26 PUSH1 0x24 DUP3 ADD MSTORE PUSH32 0x4F776E61626C653A206E6577206F776E657220697320746865207A65726F2061 PUSH1 0x44 DUP3 ADD MSTORE PUSH6 0x646472657373 PUSH1 0xD0 SHL PUSH1 0x64 DUP3 ADD MSTORE PUSH1 0x84 ADD PUSH2 0xC2D JUMP JUMPDEST PUSH2 0x2FCA DUP2 PUSH2 0x30F1 JUMP JUMPDEST POP JUMP JUMPDEST PUSH1 0x0 SLOAD PUSH1 0x1 PUSH1 0x1 PUSH1 0xA0 SHL SUB AND CALLER EQ PUSH2 0xFB2 JUMPI PUSH1 0x40 MLOAD PUSH3 0x461BCD PUSH1 0xE5 SHL DUP2 MSTORE PUSH1 0x20 PUSH1 0x4 DUP3 ADD DUP2 SWAP1 MSTORE PUSH1 0x24 DUP3 ADD MSTORE PUSH32 0x4F776E61626C653A2063616C6C6572206973206E6F7420746865206F776E6572 PUSH1 0x44 DUP3 ADD MSTORE PUSH1 0x64 ADD PUSH2 0xC2D JUMP JUMPDEST PUSH1 0x0 DUP2 DUP2 MSTORE PUSH1 0x4 PUSH1 0x20 MSTORE PUSH1 0x40 DUP2 KECCAK256 SLOAD DUP1 PUSH2 0x743 JUMPI PUSH1 0x40 MLOAD PUSH4 0x10FF5EBF PUSH1 0xE2 SHL DUP2 MSTORE PUSH1 0x4 ADD PUSH1 0x40 MLOAD DUP1 SWAP2 SUB SWAP1 REVERT JUMPDEST PUSH1 0x40 DUP1 MLOAD DUP1 DUP3 ADD SWAP1 SWAP2 MSTORE PUSH1 0x0 DUP1 DUP3 MSTORE PUSH1 0x20 DUP3 ADD MSTORE PUSH1 0x0 DUP3 DUP2 MSTORE PUSH1 0x3 PUSH1 0x20 SWAP1 DUP2 MSTORE PUSH1 0x40 DUP1 DUP4 KECCAK256 DUP2 MLOAD DUP1 DUP4 ADD SWAP1 SWAP3 MSTORE DUP1 SLOAD PUSH1 0x1 PUSH1 0x1 PUSH1 0xA0 SHL SUB DUP2 AND DUP4 MSTORE SWAP2 SWAP3 SWAP1 SWAP2 SWAP1 DUP4 ADD SWAP1 PUSH1 0x1 PUSH1 0xA0 SHL SWAP1 DIV PUSH1 0xFF AND PUSH1 0x2 DUP2 GT ISZERO PUSH2 0x30B2 JUMPI PUSH2 0x30B2 PUSH2 0x3686 JUMP JUMPDEST PUSH1 0x2 DUP2 GT ISZERO PUSH2 0x30C3 JUMPI PUSH2 0x30C3 PUSH2 0x3686 JUMP JUMPDEST SWAP1 MSTORE POP DUP1 MLOAD SWAP1 SWAP2 POP PUSH1 0x1 PUSH1 0x1 PUSH1 0xA0 SHL SUB AND PUSH2 0x743 JUMPI PUSH1 0x40 MLOAD PUSH4 0x10FF5EBF PUSH1 0xE2 SHL DUP2 MSTORE PUSH1 0x4 ADD PUSH1 0x40 MLOAD DUP1 SWAP2 SUB SWAP1 REVERT JUMPDEST PUSH1 0x0 DUP1 SLOAD PUSH1 0x1 PUSH1 0x1 PUSH1 0xA0 SHL SUB DUP4 DUP2 AND PUSH1 0x1 PUSH1 0x1 PUSH1 0xA0 SHL SUB NOT DUP4 AND DUP2 OR DUP5 SSTORE PUSH1 0x40 MLOAD SWAP2 SWAP1 SWAP3 AND SWAP3 DUP4 SWAP2 PUSH32 0x8BE0079C531659141344CD1FD0A4F28419497F9722A3DAAFE3B4186F6B6457E0 SWAP2 SWAP1 LOG3 POP POP JUMP JUMPDEST PUSH1 0x0 DUP1 DUP1 DUP1 DUP5 PUSH1 0x2 DUP2 GT ISZERO PUSH2 0x3158 JUMPI PUSH2 0x3158 PUSH2 0x3686 JUMP JUMPDEST EQ ISZERO PUSH2 0x317C JUMPI PUSH2 0x3169 PUSH2 0x320 PUSH2 0x3574 JUMP JUMPDEST SWAP2 POP PUSH2 0x3175 PUSH1 0x64 PUSH2 0x3574 JUMP JUMPDEST SWAP1 POP PUSH2 0x31E2 JUMP JUMPDEST PUSH1 0x1 DUP5 PUSH1 0x2 DUP2 GT ISZERO PUSH2 0x3190 JUMPI PUSH2 0x3190 PUSH2 0x3686 JUMP JUMPDEST EQ ISZERO PUSH2 0x31AE JUMPI PUSH2 0x31A1 PUSH2 0x258 PUSH2 0x3574 JUMP JUMPDEST SWAP2 POP PUSH2 0x3175 PUSH2 0x12C PUSH2 0x3574 JUMP JUMPDEST PUSH1 0x2 DUP5 PUSH1 0x2 DUP2 GT ISZERO PUSH2 0x31C2 JUMPI PUSH2 0x31C2 PUSH2 0x3686 JUMP JUMPDEST EQ ISZERO PUSH2 0x31E2 JUMPI PUSH2 0x31D2 PUSH1 0x64 PUSH2 0x3574 JUMP JUMPDEST SWAP2 POP PUSH2 0x31DF PUSH2 0x320 PUSH2 0x3574 JUMP JUMPDEST SWAP1 POP JUMPDEST PUSH1 0x0 PUSH2 0x31EE PUSH1 0x64 PUSH2 0x3574 JUMP JUMPDEST SWAP1 POP PUSH1 0x0 DUP2 PUSH2 0x31FD DUP5 DUP7 PUSH2 0x3A03 JUMP JUMPDEST PUSH2 0x3207 SWAP2 SWAP1 PUSH2 0x3A03 JUMP JUMPDEST SWAP1 POP DUP4 PUSH1 0x10 PUSH1 0x0 ADD PUSH1 0x0 DUP3 DUP3 SLOAD PUSH2 0x321E SWAP2 SWAP1 PUSH2 0x3A03 JUMP JUMPDEST SWAP1 SWAP2 SSTORE POP POP PUSH1 0x11 DUP1 SLOAD DUP4 SWAP2 SWAP1 PUSH1 0x0 SWAP1 PUSH2 0x3238 SWAP1 DUP5 SWAP1 PUSH2 0x3A03 JUMP JUMPDEST SWAP1 SWAP2 SSTORE POP POP PUSH1 0x1 PUSH1 0x1 PUSH1 0xA0 SHL SUB DUP8 AND PUSH1 0x0 SWAP1 DUP2 MSTORE PUSH1 0x1 PUSH1 0x20 MSTORE PUSH1 0x40 DUP2 KECCAK256 PUSH1 0x3 ADD DUP1 SLOAD DUP6 SWAP3 SWAP1 PUSH2 0x3268 SWAP1 DUP5 SWAP1 PUSH2 0x3A03 JUMP JUMPDEST SWAP1 SWAP2 SSTORE POP SWAP1 SWAP8 SWAP7 POP POP POP POP POP POP POP JUMP JUMPDEST PUSH1 0x1 PUSH1 0x1 PUSH1 0xA0 SHL SUB DUP3 AND PUSH1 0x0 SWAP1 DUP2 MSTORE PUSH1 0x17 PUSH1 0x20 MSTORE PUSH1 0x40 DUP2 KECCAK256 DUP1 SLOAD DUP4 SWAP3 SWAP1 PUSH2 0x32A0 SWAP1 DUP5 SWAP1 PUSH2 0x3B7B JUMP JUMPDEST SWAP3 POP POP DUP2 SWAP1 SSTORE POP DUP1 PUSH1 0x16 PUSH1 0x0 DUP3 DUP3 SLOAD PUSH2 0x32B9 SWAP2 SWAP1 PUSH2 0x3B7B JUMP JUMPDEST SWAP1 SWAP2 SSTORE POP POP POP POP JUMP JUMPDEST PUSH1 0x0 PUSH1 0x3 DUP3 GT ISZERO PUSH2 0x3323 JUMPI POP DUP1 PUSH1 0x0 PUSH2 0x32DC PUSH1 0x2 DUP4 PUSH2 0x3C05 JUMP JUMPDEST PUSH2 0x32E7 SWAP1 PUSH1 0x1 PUSH2 0x3A03 JUMP JUMPDEST SWAP1 POP JUMPDEST DUP2 DUP2 LT ISZERO PUSH2 0x331D JUMPI SWAP1 POP DUP1 PUSH1 0x2 DUP2 PUSH2 0x3302 DUP2 DUP7 PUSH2 0x3C05 JUMP JUMPDEST PUSH2 0x330C SWAP2 SWAP1 PUSH2 0x3A03 JUMP JUMPDEST PUSH2 0x3316 SWAP2 SWAP1 PUSH2 0x3C05 JUMP JUMPDEST SWAP1 POP PUSH2 0x32EA JUMP JUMPDEST POP SWAP2 SWAP1 POP JUMP JUMPDEST DUP2 ISZERO PUSH2 0x332D JUMPI POP PUSH1 0x1 JUMPDEST SWAP2 SWAP1 POP JUMP JUMPDEST PUSH1 0x0 DUP2 DUP4 LT PUSH2 0x3341 JUMPI DUP2 PUSH2 0x3343 JUMP JUMPDEST DUP3 JUMPDEST SWAP4 SWAP3 POP POP POP JUMP JUMPDEST PUSH1 0x1 PUSH1 0x1 PUSH1 0xA0 SHL SUB DUP3 AND PUSH1 0x0 SWAP1 DUP2 MSTORE PUSH1 0x17 PUSH1 0x20 MSTORE PUSH1 0x40 DUP2 KECCAK256 DUP1 SLOAD DUP4 SWAP3 SWAP1 PUSH2 0x3372 SWAP1 DUP5 SWAP1 PUSH2 0x3A03 JUMP JUMPDEST SWAP3 POP POP DUP2 SWAP1 SSTORE POP DUP1 PUSH1 0x16 PUSH1 0x0 DUP3 DUP3 SLOAD PUSH2 0x32B9 SWAP2 SWAP1 PUSH2 0x3A03 JUMP JUMPDEST PUSH1 0xF SLOAD PUSH1 0x1 PUSH2 0xFFFF SWAP1 SWAP2 AND LT ISZERO PUSH2 0x33A0 JUMPI POP POP JUMP JUMPDEST PUSH1 0xF SLOAD PUSH2 0xFFFF DUP1 DUP4 AND SWAP2 AND LT ISZERO PUSH2 0x33EE JUMPI PUSH1 0xF DUP1 SLOAD PUSH1 0x1 PUSH1 0x1 PUSH1 0xA0 SHL SUB DUP5 AND PUSH1 0x0 SWAP1 DUP2 MSTORE PUSH1 0x1 PUSH1 0x20 MSTORE PUSH1 0x40 SWAP1 KECCAK256 PUSH1 0x5 ADD DUP1 SLOAD PUSH2 0xFFFF NOT SWAP1 DUP2 AND PUSH2 0xFFFF SWAP1 SWAP4 AND SWAP3 SWAP1 SWAP3 OR SWAP1 SSTORE DUP2 SLOAD AND SWAP1 SSTORE POP POP JUMP JUMPDEST PUSH1 0xF DUP1 SLOAD DUP3 SWAP2 SWAP1 PUSH1 0x0 SWAP1 PUSH2 0x3407 SWAP1 DUP5 SWAP1 PUSH2 0xFFFF AND PUSH2 0x3CB6 JUMP JUMPDEST DUP3 SLOAD PUSH2 0x100 SWAP3 SWAP1 SWAP3 EXP PUSH2 0xFFFF DUP2 DUP2 MUL NOT SWAP1 SWAP4 AND SWAP2 DUP4 AND MUL OR SWAP1 SWAP2 SSTORE PUSH1 0x1 PUSH1 0x1 PUSH1 0xA0 SHL SUB DUP5 AND PUSH1 0x0 SWAP1 DUP2 MSTORE PUSH1 0x1 PUSH1 0x20 MSTORE PUSH1 0x40 DUP2 KECCAK256 PUSH1 0x5 ADD DUP1 SLOAD DUP6 SWAP5 POP SWAP1 SWAP3 PUSH2 0x3450 SWAP2 DUP6 SWAP2 AND PUSH2 0x3CD9 JUMP JUMPDEST SWAP3 POP PUSH2 0x100 EXP DUP2 SLOAD DUP2 PUSH2 0xFFFF MUL NOT AND SWAP1 DUP4 PUSH2 0xFFFF AND MUL OR SWAP1 SSTORE POP POP POP JUMP JUMPDEST PUSH1 0x1 PUSH1 0x1 PUSH1 0xA0 SHL SUB DUP3 AND PUSH1 0x0 SWAP1 DUP2 MSTORE PUSH1 0x1 PUSH1 0x20 MSTORE PUSH1 0x40 SWAP1 KECCAK256 PUSH1 0x5 DUP2 ADD SLOAD PUSH3 0x10000 SWAP1 DIV PUSH1 0xFF AND PUSH2 0x34F9 JUMPI PUSH1 0x8 DUP1 SLOAD PUSH1 0x1 DUP2 ADD DUP3 SSTORE PUSH1 0x0 SWAP2 SWAP1 SWAP2 MSTORE PUSH32 0xF3F7A9FE364FAAB93B216DA50A3214154F22A0A2B415B23A84C8169E8B636EE3 ADD DUP1 SLOAD PUSH1 0x1 PUSH1 0x1 PUSH1 0xA0 SHL SUB DUP6 AND PUSH1 0x1 PUSH1 0x1 PUSH1 0xA0 SHL SUB NOT SWAP1 SWAP2 AND OR SWAP1 SSTORE PUSH1 0x5 DUP2 ADD DUP1 SLOAD PUSH3 0xFF0000 NOT AND PUSH3 0x10000 OR SWAP1 SSTORE JUMPDEST DUP2 PUSH1 0xB PUSH1 0x0 ADD PUSH1 0x0 DUP3 DUP3 SLOAD PUSH2 0x350E SWAP2 SWAP1 PUSH2 0x3A03 JUMP JUMPDEST SWAP1 SWAP2 SSTORE POP POP DUP1 SLOAD DUP3 SWAP1 DUP3 SWAP1 PUSH1 0x0 SWAP1 PUSH2 0x3527 SWAP1 DUP5 SWAP1 PUSH2 0x3A03 JUMP JUMPDEST SWAP1 SWAP2 SSTORE POP POP POP POP POP JUMP JUMPDEST PUSH1 0x40 DUP1 MLOAD TIMESTAMP PUSH1 0x20 DUP3 ADD MSTORE DIFFICULTY SWAP2 DUP2 ADD SWAP2 SWAP1 SWAP2 MSTORE CALLER PUSH1 0x60 DUP3 ADD MSTORE PUSH1 0x0 SWAP1 DUP3 SWAP1 PUSH1 0x80 ADD PUSH1 0x40 MLOAD PUSH1 0x20 DUP2 DUP4 SUB SUB DUP2 MSTORE SWAP1 PUSH1 0x40 MSTORE DUP1 MLOAD SWAP1 PUSH1 0x20 ADD KECCAK256 PUSH1 0x0 SHR PUSH2 0x743 SWAP2 SWAP1 PUSH2 0x39D9 JUMP JUMPDEST PUSH1 0x0 PUSH2 0x35A1 PUSH32 0x0 PUSH1 0xA PUSH2 0x3B6F JUMP JUMPDEST PUSH2 0x743 SWAP1 DUP4 PUSH2 0x3A1B JUMP JUMPDEST PUSH1 0x0 PUSH1 0x20 DUP3 DUP5 SUB SLT ISZERO PUSH2 0x35BD JUMPI PUSH1 0x0 DUP1 REVERT JUMPDEST DUP2 CALLDATALOAD PUSH1 0x1 PUSH1 0x1 PUSH1 0xE0 SHL SUB NOT DUP2 AND DUP2 EQ PUSH2 0x3343 JUMPI PUSH1 0x0 DUP1 REVERT JUMPDEST PUSH1 0x1 PUSH1 0x1 PUSH1 0xA0 SHL SUB SWAP2 SWAP1 SWAP2 AND DUP2 MSTORE PUSH1 0x20 ADD SWAP1 JUMP JUMPDEST PUSH1 0x0 PUSH1 0x20 DUP3 DUP5 SUB SLT ISZERO PUSH2 0x35FB JUMPI PUSH1 0x0 DUP1 REVERT JUMPDEST POP CALLDATALOAD SWAP2 SWAP1 POP JUMP JUMPDEST DUP1 CALLDATALOAD PUSH1 0x1 PUSH1 0x1 PUSH1 0xA0 SHL SUB DUP2 AND DUP2 EQ PUSH2 0x332D JUMPI PUSH1 0x0 DUP1 REVERT JUMPDEST DUP1 CALLDATALOAD PUSH1 0x3 DUP2 LT PUSH2 0x332D JUMPI PUSH1 0x0 DUP1 REVERT JUMPDEST PUSH1 0x0 DUP1 PUSH1 0x0 PUSH1 0x60 DUP5 DUP7 SUB SLT ISZERO PUSH2 0x363D JUMPI PUSH1 0x0 DUP1 REVERT JUMPDEST PUSH2 0x3646 DUP5 PUSH2 0x3602 JUMP JUMPDEST SWAP3 POP PUSH1 0x20 DUP5 ADD CALLDATALOAD SWAP2 POP PUSH2 0x365B PUSH1 0x40 DUP6 ADD PUSH2 0x3619 JUMP JUMPDEST SWAP1 POP SWAP3 POP SWAP3 POP SWAP3 JUMP JUMPDEST PUSH1 0x0 DUP1 PUSH1 0x40 DUP4 DUP6 SUB SLT ISZERO PUSH2 0x3677 JUMPI PUSH1 0x0 DUP1 REVERT JUMPDEST POP POP DUP1 CALLDATALOAD SWAP3 PUSH1 0x20 SWAP1 SWAP2 ADD CALLDATALOAD SWAP2 POP JUMP JUMPDEST PUSH4 0x4E487B71 PUSH1 0xE0 SHL PUSH1 0x0 MSTORE PUSH1 0x21 PUSH1 0x4 MSTORE PUSH1 0x24 PUSH1 0x0 REVERT JUMPDEST PUSH1 0x1 PUSH1 0x1 PUSH1 0xA0 SHL SUB DUP4 AND DUP2 MSTORE PUSH1 0x40 DUP2 ADD PUSH1 0x3 DUP4 LT PUSH2 0x36CA JUMPI PUSH4 0x4E487B71 PUSH1 0xE0 SHL PUSH1 0x0 MSTORE PUSH1 0x21 PUSH1 0x4 MSTORE PUSH1 0x24 PUSH1 0x0 REVERT JUMPDEST DUP3 PUSH1 0x20 DUP4 ADD MSTORE SWAP4 SWAP3 POP POP POP JUMP JUMPDEST PUSH1 0x0 DUP1 PUSH1 0x40 DUP4 DUP6 SUB SLT ISZERO PUSH2 0x36EA JUMPI PUSH1 0x0 DUP1 REVERT JUMPDEST PUSH2 0x36F3 DUP4 PUSH2 0x3602 JUMP JUMPDEST SWAP5 PUSH1 0x20 SWAP4 SWAP1 SWAP4 ADD CALLDATALOAD SWAP4 POP POP POP JUMP JUMPDEST PUSH1 0x0 DUP1 PUSH1 0x0 PUSH1 0x60 DUP5 DUP7 SUB SLT ISZERO PUSH2 0x3716 JUMPI PUSH1 0x0 DUP1 REVERT JUMPDEST DUP4 CALLDATALOAD SWAP3 POP PUSH2 0x3726 PUSH1 0x20 DUP6 ADD PUSH2 0x3619 JUMP JUMPDEST SWAP2 POP PUSH1 0x40 DUP5 ADD CALLDATALOAD SWAP1 POP SWAP3 POP SWAP3 POP SWAP3 JUMP JUMPDEST PUSH1 0x0 PUSH1 0x20 DUP3 DUP5 SUB SLT ISZERO PUSH2 0x3748 JUMPI PUSH1 0x0 DUP1 REVERT JUMPDEST PUSH2 0x3343 DUP3 PUSH2 0x3602 JUMP JUMPDEST PUSH4 0x4E487B71 PUSH1 0xE0 SHL PUSH1 0x0 MSTORE PUSH1 0x41 PUSH1 0x4 MSTORE PUSH1 0x24 PUSH1 0x0 REVERT JUMPDEST PUSH1 0x40 MLOAD PUSH1 0x1F DUP3 ADD PUSH1 0x1F NOT AND DUP2 ADD PUSH8 0xFFFFFFFFFFFFFFFF DUP2 GT DUP3 DUP3 LT OR ISZERO PUSH2 0x3790 JUMPI PUSH2 0x3790 PUSH2 0x3751 JUMP JUMPDEST PUSH1 0x40 MSTORE SWAP2 SWAP1 POP JUMP JUMPDEST PUSH1 0x0 DUP3 PUSH1 0x1F DUP4 ADD SLT PUSH2 0x37A9 JUMPI PUSH1 0x0 DUP1 REVERT JUMPDEST DUP2 CALLDATALOAD PUSH1 0x20 PUSH8 0xFFFFFFFFFFFFFFFF DUP3 GT ISZERO PUSH2 0x37C5 JUMPI PUSH2 0x37C5 PUSH2 0x3751 JUMP JUMPDEST DUP2 PUSH1 0x5 SHL PUSH2 0x37D4 DUP3 DUP3 ADD PUSH2 0x3767 JUMP JUMPDEST SWAP3 DUP4 MSTORE DUP5 DUP2 ADD DUP3 ADD SWAP3 DUP3 DUP2 ADD SWAP1 DUP8 DUP6 GT ISZERO PUSH2 0x37EE JUMPI PUSH1 0x0 DUP1 REVERT JUMPDEST DUP4 DUP8 ADD SWAP3 POP JUMPDEST DUP5 DUP4 LT ISZERO PUSH2 0x380D JUMPI DUP3 CALLDATALOAD DUP3 MSTORE SWAP2 DUP4 ADD SWAP2 SWAP1 DUP4 ADD SWAP1 PUSH2 0x37F4 JUMP JUMPDEST SWAP8 SWAP7 POP POP POP POP POP POP POP JUMP JUMPDEST PUSH1 0x0 DUP3 PUSH1 0x1F DUP4 ADD SLT PUSH2 0x3829 JUMPI PUSH1 0x0 DUP1 REVERT JUMPDEST DUP2 CALLDATALOAD PUSH8 0xFFFFFFFFFFFFFFFF DUP2 GT ISZERO PUSH2 0x3843 JUMPI PUSH2 0x3843 PUSH2 0x3751 JUMP JUMPDEST PUSH2 0x3856 PUSH1 0x1F DUP3 ADD PUSH1 0x1F NOT AND PUSH1 0x20 ADD PUSH2 0x3767 JUMP JUMPDEST DUP2 DUP2 MSTORE DUP5 PUSH1 0x20 DUP4 DUP7 ADD ADD GT ISZERO PUSH2 0x386B JUMPI PUSH1 0x0 DUP1 REVERT JUMPDEST DUP2 PUSH1 0x20 DUP6 ADD PUSH1 0x20 DUP4 ADD CALLDATACOPY PUSH1 0x0 SWAP2 DUP2 ADD PUSH1 0x20 ADD SWAP2 SWAP1 SWAP2 MSTORE SWAP4 SWAP3 POP POP POP JUMP JUMPDEST PUSH1 0x0 DUP1 PUSH1 0x0 DUP1 PUSH1 0x0 PUSH1 0xA0 DUP7 DUP9 SUB SLT ISZERO PUSH2 0x38A0 JUMPI PUSH1 0x0 DUP1 REVERT JUMPDEST PUSH2 0x38A9 DUP7 PUSH2 0x3602 JUMP JUMPDEST SWAP5 POP PUSH2 0x38B7 PUSH1 0x20 DUP8 ADD PUSH2 0x3602 JUMP JUMPDEST SWAP4 POP PUSH1 0x40 DUP7 ADD CALLDATALOAD PUSH8 0xFFFFFFFFFFFFFFFF DUP1 DUP3 GT ISZERO PUSH2 0x38D4 JUMPI PUSH1 0x0 DUP1 REVERT JUMPDEST PUSH2 0x38E0 DUP10 DUP4 DUP11 ADD PUSH2 0x3798 JUMP JUMPDEST SWAP5 POP PUSH1 0x60 DUP9 ADD CALLDATALOAD SWAP2 POP DUP1 DUP3 GT ISZERO PUSH2 0x38F6 JUMPI PUSH1 0x0 DUP1 REVERT JUMPDEST PUSH2 0x3902 DUP10 DUP4 DUP11 ADD PUSH2 0x3798 JUMP JUMPDEST SWAP4 POP PUSH1 0x80 DUP9 ADD CALLDATALOAD SWAP2 POP DUP1 DUP3 GT ISZERO PUSH2 0x3918 JUMPI PUSH1 0x0 DUP1 REVERT JUMPDEST POP PUSH2 0x3925 DUP9 DUP3 DUP10 ADD PUSH2 0x3818 JUMP JUMPDEST SWAP2 POP POP SWAP3 SWAP6 POP SWAP3 SWAP6 SWAP1 SWAP4 POP JUMP JUMPDEST PUSH1 0x0 DUP1 PUSH1 0x0 PUSH1 0x60 DUP5 DUP7 SUB SLT ISZERO PUSH2 0x3947 JUMPI PUSH1 0x0 DUP1 REVERT JUMPDEST POP POP DUP2 CALLDATALOAD SWAP4 PUSH1 0x20 DUP4 ADD CALLDATALOAD SWAP4 POP PUSH1 0x40 SWAP1 SWAP3 ADD CALLDATALOAD SWAP2 SWAP1 POP JUMP JUMPDEST PUSH1 0x0 DUP1 PUSH1 0x0 DUP1 PUSH1 0x0 PUSH1 0xA0 DUP7 DUP9 SUB SLT ISZERO PUSH2 0x3976 JUMPI PUSH1 0x0 DUP1 REVERT JUMPDEST PUSH2 0x397F DUP7 PUSH2 0x3602 JUMP JUMPDEST SWAP5 POP PUSH2 0x398D PUSH1 0x20 DUP8 ADD PUSH2 0x3602 JUMP JUMPDEST SWAP4 POP PUSH1 0x40 DUP7 ADD CALLDATALOAD SWAP3 POP PUSH1 0x60 DUP7 ADD CALLDATALOAD SWAP2 POP PUSH1 0x80 DUP7 ADD CALLDATALOAD PUSH8 0xFFFFFFFFFFFFFFFF DUP2 GT ISZERO PUSH2 0x39B7 JUMPI PUSH1 0x0 DUP1 REVERT JUMPDEST PUSH2 0x3925 DUP9 DUP3 DUP10 ADD PUSH2 0x3818 JUMP JUMPDEST PUSH4 0x4E487B71 PUSH1 0xE0 SHL PUSH1 0x0 MSTORE PUSH1 0x12 PUSH1 0x4 MSTORE PUSH1 0x24 PUSH1 0x0 REVERT JUMPDEST PUSH1 0x0 DUP3 PUSH2 0x39E8 JUMPI PUSH2 0x39E8 PUSH2 0x39C3 JUMP JUMPDEST POP MOD SWAP1 JUMP JUMPDEST PUSH4 0x4E487B71 PUSH1 0xE0 SHL PUSH1 0x0 MSTORE PUSH1 0x11 PUSH1 0x4 MSTORE PUSH1 0x24 PUSH1 0x0 REVERT JUMPDEST PUSH1 0x0 DUP3 NOT DUP3 GT ISZERO PUSH2 0x3A16 JUMPI PUSH2 0x3A16 PUSH2 0x39ED JUMP JUMPDEST POP ADD SWAP1 JUMP JUMPDEST PUSH1 0x0 DUP2 PUSH1 0x0 NOT DIV DUP4 GT DUP3 ISZERO ISZERO AND ISZERO PUSH2 0x3A35 JUMPI PUSH2 0x3A35 PUSH2 0x39ED JUMP JUMPDEST POP MUL SWAP1 JUMP JUMPDEST PUSH1 0x1 PUSH1 0x1 PUSH1 0xA0 SHL SUB SWAP4 SWAP1 SWAP4 AND DUP4 MSTORE PUSH1 0x20 DUP4 ADD SWAP2 SWAP1 SWAP2 MSTORE PUSH1 0x40 DUP3 ADD MSTORE PUSH1 0x60 ADD SWAP1 JUMP JUMPDEST PUSH1 0x1 PUSH1 0x1 PUSH1 0xA0 SHL SUB SWAP4 SWAP1 SWAP4 AND DUP4 MSTORE PUSH1 0x20 DUP4 ADD SWAP2 SWAP1 SWAP2 MSTORE PUSH1 0x40 DUP3 ADD MSTORE PUSH1 0x80 PUSH1 0x60 DUP3 ADD DUP2 SWAP1 MSTORE PUSH1 0x0 SWAP1 DUP3 ADD MSTORE PUSH1 0xA0 ADD SWAP1 JUMP JUMPDEST PUSH1 0x1 DUP2 DUP2 JUMPDEST DUP1 DUP6 GT ISZERO PUSH2 0x3AC6 JUMPI DUP2 PUSH1 0x0 NOT DIV DUP3 GT ISZERO PUSH2 0x3AAC JUMPI PUSH2 0x3AAC PUSH2 0x39ED JUMP JUMPDEST DUP1 DUP6 AND ISZERO PUSH2 0x3AB9 JUMPI SWAP2 DUP2 MUL SWAP2 JUMPDEST SWAP4 DUP5 SHR SWAP4 SWAP1 DUP1 MUL SWAP1 PUSH2 0x3A90 JUMP JUMPDEST POP SWAP3 POP SWAP3 SWAP1 POP JUMP JUMPDEST PUSH1 0x0 DUP3 PUSH2 0x3ADD JUMPI POP PUSH1 0x1 PUSH2 0x743 JUMP JUMPDEST DUP2 PUSH2 0x3AEA JUMPI POP PUSH1 0x0 PUSH2 0x743 JUMP JUMPDEST DUP2 PUSH1 0x1 DUP2 EQ PUSH2 0x3B00 JUMPI PUSH1 0x2 DUP2 EQ PUSH2 0x3B0A JUMPI PUSH2 0x3B26 JUMP JUMPDEST PUSH1 0x1 SWAP2 POP POP PUSH2 0x743 JUMP JUMPDEST PUSH1 0xFF DUP5 GT ISZERO PUSH2 0x3B1B JUMPI PUSH2 0x3B1B PUSH2 0x39ED JUMP JUMPDEST POP POP PUSH1 0x1 DUP3 SHL PUSH2 0x743 JUMP JUMPDEST POP PUSH1 0x20 DUP4 LT PUSH2 0x133 DUP4 LT AND PUSH1 0x4E DUP5 LT PUSH1 0xB DUP5 LT AND OR ISZERO PUSH2 0x3B49 JUMPI POP DUP2 DUP2 EXP PUSH2 0x743 JUMP JUMPDEST PUSH2 0x3B53 DUP4 DUP4 PUSH2 0x3A8B JUMP JUMPDEST DUP1 PUSH1 0x0 NOT DIV DUP3 GT ISZERO PUSH2 0x3B67 JUMPI PUSH2 0x3B67 PUSH2 0x39ED JUMP JUMPDEST MUL SWAP4 SWAP3 POP POP POP JUMP JUMPDEST PUSH1 0x0 PUSH2 0x3343 DUP4 DUP4 PUSH2 0x3ACE JUMP JUMPDEST PUSH1 0x0 DUP3 DUP3 LT ISZERO PUSH2 0x3B8D JUMPI PUSH2 0x3B8D PUSH2 0x39ED JUMP JUMPDEST POP SUB SWAP1 JUMP JUMPDEST PUSH1 0x1 PUSH1 0x1 PUSH1 0xA0 SHL SUB SWAP3 SWAP1 SWAP3 AND DUP3 MSTORE PUSH1 0x20 DUP3 ADD MSTORE PUSH1 0x40 ADD SWAP1 JUMP JUMPDEST PUSH1 0x0 PUSH1 0x20 DUP3 DUP5 SUB SLT ISZERO PUSH2 0x3BBD JUMPI PUSH1 0x0 DUP1 REVERT JUMPDEST DUP2 MLOAD DUP1 ISZERO ISZERO DUP2 EQ PUSH2 0x3343 JUMPI PUSH1 0x0 DUP1 REVERT JUMPDEST PUSH1 0x1 PUSH1 0x1 PUSH1 0xA0 SHL SUB SWAP5 DUP6 AND DUP2 MSTORE SWAP3 SWAP1 SWAP4 AND PUSH1 0x20 DUP4 ADD MSTORE PUSH1 0x40 DUP3 ADD MSTORE PUSH1 0x60 DUP2 ADD SWAP2 SWAP1 SWAP2 MSTORE PUSH1 0xA0 PUSH1 0x80 DUP3 ADD DUP2 SWAP1 MSTORE PUSH1 0x0 SWAP1 DUP3 ADD MSTORE PUSH1 0xC0 ADD SWAP1 JUMP JUMPDEST PUSH1 0x0 DUP3 PUSH2 0x3C14 JUMPI PUSH2 0x3C14 PUSH2 0x39C3 JUMP JUMPDEST POP DIV SWAP1 JUMP JUMPDEST PUSH4 0x4E487B71 PUSH1 0xE0 SHL PUSH1 0x0 MSTORE PUSH1 0x32 PUSH1 0x4 MSTORE PUSH1 0x24 PUSH1 0x0 REVERT JUMPDEST PUSH1 0x0 PUSH1 0x0 NOT DUP3 EQ ISZERO PUSH2 0x3C43 JUMPI PUSH2 0x3C43 PUSH2 0x39ED JUMP JUMPDEST POP PUSH1 0x1 ADD SWAP1 JUMP JUMPDEST PUSH1 0x1 PUSH1 0x1 PUSH1 0xA0 SHL SUB SWAP4 DUP5 AND DUP2 MSTORE SWAP2 SWAP1 SWAP3 AND PUSH1 0x20 DUP3 ADD MSTORE PUSH1 0x40 DUP2 ADD SWAP2 SWAP1 SWAP2 MSTORE PUSH1 0x60 ADD SWAP1 JUMP JUMPDEST PUSH1 0x0 PUSH1 0x20 DUP3 DUP5 SUB SLT ISZERO PUSH2 0x3C80 JUMPI PUSH1 0x0 DUP1 REVERT JUMPDEST POP MLOAD SWAP2 SWAP1 POP JUMP JUMPDEST PUSH1 0x20 DUP1 DUP3 MSTORE PUSH1 0x15 SWAP1 DUP3 ADD MSTORE PUSH21 0x151BDAD95B88151C985B9CD9995C8811985A5B1959 PUSH1 0x5A SHL PUSH1 0x40 DUP3 ADD MSTORE PUSH1 0x60 ADD SWAP1 JUMP JUMPDEST PUSH1 0x0 PUSH2 0xFFFF DUP4 DUP2 AND SWAP1 DUP4 AND DUP2 DUP2 LT ISZERO PUSH2 0x3CD1 JUMPI PUSH2 0x3CD1 PUSH2 0x39ED JUMP JUMPDEST SUB SWAP4 SWAP3 POP POP POP JUMP JUMPDEST PUSH1 0x0 PUSH2 0xFFFF DUP1 DUP4 AND DUP2 DUP6 AND DUP1 DUP4 SUB DUP3 GT ISZERO PUSH2 0x3CF6 JUMPI PUSH2 0x3CF6 PUSH2 0x39ED JUMP JUMPDEST ADD SWAP5 SWAP4 POP POP POP POP JUMP INVALID LOG2 PUSH5 0x6970667358 0x22 SLT KECCAK256 PUSH32 0x8B6F3360264F3E66C25E426F8F1D45A9DBE0C9C20540F011FD8D417F889DA064 PUSH20 0x6F6C634300080900330000000000000000000000 "
		},
		"gasEstimates": {
			"creation": {
				"codeDepositCost": "3133800",
				"executionCost": "infinite",
				"totalCost": "infinite"
			},
			"external": {
				"addChest(uint256)": "48890",
				"addLiquidity(uint256,uint256)": "infinite",
				"addSkin(address,uint256,uint8)": "infinite",
				"addSkinToChest(uint256,uint256)": "51482",
				"buyItem(uint256,uint256)": "infinite",
				"cancelItem(uint256)": "infinite",
				"chests(uint256,uint8,uint256)": "4949",
				"claimAirdrops()": "infinite",
				"claimRewards()": "infinite",
				"claimStarterPack()": "infinite",
				"claimUnstaked()": "infinite",
				"craftShards(uint256,uint256)": "infinite",
				"disenchantSkins(uint256,uint256)": "infinite",
				"fuseShards(uint256)": "infinite",
				"getReserves()": "4477",
				"giveRewards()": "infinite",
				"items(uint256)": "8993",
				"listItem(uint256,uint256,uint256)": "infinite",
				"onERC1155BatchReceived(address,address,uint256[],uint256[],bytes)": "infinite",
				"onERC1155Received(address,address,uint256,uint256,bytes)": "infinite",
				"owner()": "2423",
				"players(address)": "13390",
				"pool()": "4474",
				"removeLiquidity(uint256)": "infinite",
				"renounceOwnership()": "infinite",
				"reserve1()": "2362",
				"reserve2()": "2384",
				"skinShards(uint256)": "2573",
				"skins(uint256)": "2714",
				"somCurrency()": "2406",
				"somSkins()": "2452",
				"stake(uint256)": "infinite",
				"supportsInterface(bytes4)": "473",
				"swapTokens(address,uint256)": "infinite",
				"token1()": "infinite",
				"token2()": "infinite",
				"total()": "10861",
				"totalLiquidity()": "2408",
				"transferOwnership(address)": "28487",
				"unlockChest(uint256)": "infinite",
				"unstake(uint256)": "infinite",
				"userLiquidity(address)": "2564"
			},
			"internal": {
				"_airdrop(address,uint16)": "57382",
				"_burn(address,uint256)": "infinite",
				"_currency(uint256)": "infinite",
				"_distributePayment(address,enum SomGame.Rarity)": "infinite",
				"_getSkin(uint256)": "infinite",
				"_getSkinId(uint256)": "infinite",
				"_min(uint256,uint256)": "61",
				"_mint(address,uint256)": "infinite",
				"_rng(uint256)": "infinite",
				"_sqrt(uint256)": "infinite",
				"_stake(address,uint256)": "infinite",
				"_update(uint256,uint256)": "infinite"
			}
		},
		"methodIdentifiers": {
			"addChest(uint256)": "3d35453b",
			"addLiquidity(uint256,uint256)": "9cd441da",
			"addSkin(address,uint256,uint8)": "24bcc96c",
			"addSkinToChest(uint256,uint256)": "d900f938",
			"buyItem(uint256,uint256)": "9979c009",
			"cancelItem(uint256)": "51563f8e",
			"chests(uint256,uint8,uint256)": "b9999efb",
			"claimAirdrops()": "bbf5ed70",
			"claimRewards()": "372500ab",
			"claimStarterPack()": "9cd51d25",
			"claimUnstaked()": "d276290d",
			"craftShards(uint256,uint256)": "24ed2a0f",
			"disenchantSkins(uint256,uint256)": "68362471",
			"fuseShards(uint256)": "72da0d81",
			"getReserves()": "0902f1ac",
			"giveRewards()": "5d26b838",
			"items(uint256)": "bfb231d2",
			"listItem(uint256,uint256,uint256)": "ec16b94a",
			"onERC1155BatchReceived(address,address,uint256[],uint256[],bytes)": "bc197c81",
			"onERC1155Received(address,address,uint256,uint256,bytes)": "f23a6e61",
			"owner()": "8da5cb5b",
			"players(address)": "e2eb41ff",
			"pool()": "16f0115b",
			"removeLiquidity(uint256)": "9c8f9f23",
			"renounceOwnership()": "715018a6",
			"reserve1()": "5a76f25e",
			"reserve2()": "5c0b9a2b",
			"skinShards(uint256)": "15b4cbba",
			"skins(uint256)": "2db2ede5",
			"somCurrency()": "55a4de2b",
			"somSkins()": "0e498fce",
			"stake(uint256)": "a694fc3a",
			"supportsInterface(bytes4)": "01ffc9a7",
			"swapTokens(address,uint256)": "a114398d",
			"token1()": "d21220a7",
			"token2()": "25be124e",
			"total()": "2ddbd13a",
			"totalLiquidity()": "15770f92",
			"transferOwnership(address)": "f2fde38b",
			"unlockChest(uint256)": "b1411f97",
			"unstake(uint256)": "2e17de78",
			"userLiquidity(address)": "ba4c28c3"
		}
	},
	"abi": [
		{
			"inputs": [
				{
					"internalType": "address",
					"name": "dev",
					"type": "address"
				},
				{
					"internalType": "address",
					"name": "ECR",
					"type": "address"
				},
				{
					"internalType": "address",
					"name": "erc1155",
					"type": "address"
				},
				{
					"internalType": "address",
					"name": "wTLOS",
					"type": "address"
				}
			],
			"stateMutability": "nonpayable",
			"type": "constructor"
		},
		{
			"inputs": [],
			"name": "IdDoesntExist",
			"type": "error"
		},
		{
			"inputs": [],
			"name": "IdExists",
			"type": "error"
		},
		{
			"inputs": [],
			"name": "IdInvalid",
			"type": "error"
		},
		{
			"inputs": [],
			"name": "IdNotEven",
			"type": "error"
		},
		{
			"inputs": [],
			"name": "InsufficientAmount",
			"type": "error"
		},
		{
			"inputs": [],
			"name": "InvalidDecimals",
			"type": "error"
		},
		{
			"inputs": [],
			"name": "NegativeAmount",
			"type": "error"
		},
		{
			"inputs": [],
			"name": "NotVested",
			"type": "error"
		},
		{
			"anonymous": false,
			"inputs": [
				{
					"indexed": true,
					"internalType": "address",
					"name": "_liquidityProvider",
					"type": "address"
				},
				{
					"indexed": false,
					"internalType": "uint256",
					"name": "_sharesBurned",
					"type": "uint256"
				}
			],
			"name": "BurnLpToken",
			"type": "event"
		},
		{
			"anonymous": false,
			"inputs": [
				{
					"indexed": false,
					"internalType": "uint256",
					"name": "listingId",
					"type": "uint256"
				},
				{
					"indexed": false,
					"internalType": "uint256",
					"name": "amount",
					"type": "uint256"
				}
			],
			"name": "BuyItem",
			"type": "event"
		},
		{
			"anonymous": false,
			"inputs": [
				{
					"indexed": false,
					"internalType": "uint256",
					"name": "listingId",
					"type": "uint256"
				}
			],
			"name": "CancelItem",
			"type": "event"
		},
		{
			"anonymous": false,
			"inputs": [
				{
					"indexed": true,
					"internalType": "address",
					"name": "seller",
					"type": "address"
				},
				{
					"indexed": false,
					"internalType": "uint256",
					"name": "listingId",
					"type": "uint256"
				},
				{
					"indexed": false,
					"internalType": "uint256",
					"name": "skinId",
					"type": "uint256"
				},
				{
					"indexed": false,
					"internalType": "uint256",
					"name": "amount",
					"type": "uint256"
				},
				{
					"indexed": false,
					"internalType": "uint256",
					"name": "price",
					"type": "uint256"
				}
			],
			"name": "ListItem",
			"type": "event"
		},
		{
			"anonymous": false,
			"inputs": [
				{
					"indexed": true,
					"internalType": "address",
					"name": "_liquidityProvider",
					"type": "address"
				},
				{
					"indexed": false,
					"internalType": "uint256",
					"name": "_sharesMinted",
					"type": "uint256"
				}
			],
			"name": "MintLpToken",
			"type": "event"
		},
		{
			"anonymous": false,
			"inputs": [
				{
					"indexed": true,
					"internalType": "address",
					"name": "previousOwner",
					"type": "address"
				},
				{
					"indexed": true,
					"internalType": "address",
					"name": "newOwner",
					"type": "address"
				}
			],
			"name": "OwnershipTransferred",
			"type": "event"
		},
		{
			"anonymous": false,
			"inputs": [
				{
					"indexed": true,
					"internalType": "address",
					"name": "account",
					"type": "address"
				},
				{
					"indexed": false,
					"internalType": "uint256",
					"name": "id",
					"type": "uint256"
				}
			],
			"name": "RandomSkin",
			"type": "event"
		},
		{
			"inputs": [
				{
					"internalType": "uint256",
					"name": "chestId",
					"type": "uint256"
				}
			],
			"name": "addChest",
			"outputs": [],
			"stateMutability": "nonpayable",
			"type": "function"
		},
		{
			"inputs": [
				{
					"internalType": "uint256",
					"name": "_amountToken1",
					"type": "uint256"
				},
				{
					"internalType": "uint256",
					"name": "_amountToken2",
					"type": "uint256"
				}
			],
			"name": "addLiquidity",
			"outputs": [
				{
					"internalType": "uint256",
					"name": "_liquidityShares",
					"type": "uint256"
				}
			],
			"stateMutability": "nonpayable",
			"type": "function"
		},
		{
			"inputs": [
				{
					"internalType": "address",
					"name": "author",
					"type": "address"
				},
				{
					"internalType": "uint256",
					"name": "id",
					"type": "uint256"
				},
				{
					"internalType": "enum SomGame.Rarity",
					"name": "rarity",
					"type": "uint8"
				}
			],
			"name": "addSkin",
			"outputs": [],
			"stateMutability": "nonpayable",
			"type": "function"
		},
		{
			"inputs": [
				{
					"internalType": "uint256",
					"name": "skinId",
					"type": "uint256"
				},
				{
					"internalType": "uint256",
					"name": "chestId",
					"type": "uint256"
				}
			],
			"name": "addSkinToChest",
			"outputs": [],
			"stateMutability": "nonpayable",
			"type": "function"
		},
		{
			"inputs": [
				{
					"internalType": "uint256",
					"name": "listingId",
					"type": "uint256"
				},
				{
					"internalType": "uint256",
					"name": "amount",
					"type": "uint256"
				}
			],
			"name": "buyItem",
			"outputs": [],
			"stateMutability": "nonpayable",
			"type": "function"
		},
		{
			"inputs": [
				{
					"internalType": "uint256",
					"name": "listingId",
					"type": "uint256"
				}
			],
			"name": "cancelItem",
			"outputs": [],
			"stateMutability": "nonpayable",
			"type": "function"
		},
		{
			"inputs": [
				{
					"internalType": "uint256",
					"name": "",
					"type": "uint256"
				},
				{
					"internalType": "enum SomGame.Rarity",
					"name": "",
					"type": "uint8"
				},
				{
					"internalType": "uint256",
					"name": "",
					"type": "uint256"
				}
			],
			"name": "chests",
			"outputs": [
				{
					"internalType": "uint256",
					"name": "",
					"type": "uint256"
				}
			],
			"stateMutability": "view",
			"type": "function"
		},
		{
			"inputs": [],
			"name": "claimAirdrops",
			"outputs": [],
			"stateMutability": "nonpayable",
			"type": "function"
		},
		{
			"inputs": [],
			"name": "claimRewards",
			"outputs": [],
			"stateMutability": "nonpayable",
			"type": "function"
		},
		{
			"inputs": [],
			"name": "claimStarterPack",
			"outputs": [],
			"stateMutability": "nonpayable",
			"type": "function"
		},
		{
			"inputs": [],
			"name": "claimUnstaked",
			"outputs": [],
			"stateMutability": "nonpayable",
			"type": "function"
		},
		{
			"inputs": [
				{
					"internalType": "uint256",
					"name": "shardId",
					"type": "uint256"
				},
				{
					"internalType": "uint256",
					"name": "amount",
					"type": "uint256"
				}
			],
			"name": "craftShards",
			"outputs": [],
			"stateMutability": "nonpayable",
			"type": "function"
		},
		{
			"inputs": [
				{
					"internalType": "uint256",
					"name": "skinId",
					"type": "uint256"
				},
				{
					"internalType": "uint256",
					"name": "amount",
					"type": "uint256"
				}
			],
			"name": "disenchantSkins",
			"outputs": [],
			"stateMutability": "nonpayable",
			"type": "function"
		},
		{
			"inputs": [
				{
					"internalType": "uint256",
					"name": "shardId",
					"type": "uint256"
				}
			],
			"name": "fuseShards",
			"outputs": [],
			"stateMutability": "nonpayable",
			"type": "function"
		},
		{
			"inputs": [],
			"name": "getReserves",
			"outputs": [
				{
					"internalType": "uint256",
					"name": "_reserve1",
					"type": "uint256"
				},
				{
					"internalType": "uint256",
					"name": "_reserve2",
					"type": "uint256"
				}
			],
			"stateMutability": "view",
			"type": "function"
		},
		{
			"inputs": [],
			"name": "giveRewards",
			"outputs": [],
			"stateMutability": "nonpayable",
			"type": "function"
		},
		{
			"inputs": [
				{
					"internalType": "uint256",
					"name": "",
					"type": "uint256"
				}
			],
			"name": "items",
			"outputs": [
				{
					"internalType": "address",
					"name": "seller",
					"type": "address"
				},
				{
					"internalType": "uint256",
					"name": "id",
					"type": "uint256"
				},
				{
					"internalType": "uint256",
					"name": "amount",
					"type": "uint256"
				},
				{
					"internalType": "uint256",
					"name": "price",
					"type": "uint256"
				}
			],
			"stateMutability": "view",
			"type": "function"
		},
		{
			"inputs": [
				{
					"internalType": "uint256",
					"name": "id",
					"type": "uint256"
				},
				{
					"internalType": "uint256",
					"name": "amount",
					"type": "uint256"
				},
				{
					"internalType": "uint256",
					"name": "price",
					"type": "uint256"
				}
			],
			"name": "listItem",
			"outputs": [],
			"stateMutability": "nonpayable",
			"type": "function"
		},
		{
			"inputs": [
				{
					"internalType": "address",
					"name": "",
					"type": "address"
				},
				{
					"internalType": "address",
					"name": "",
					"type": "address"
				},
				{
					"internalType": "uint256[]",
					"name": "",
					"type": "uint256[]"
				},
				{
					"internalType": "uint256[]",
					"name": "",
					"type": "uint256[]"
				},
				{
					"internalType": "bytes",
					"name": "",
					"type": "bytes"
				}
			],
			"name": "onERC1155BatchReceived",
			"outputs": [
				{
					"internalType": "bytes4",
					"name": "",
					"type": "bytes4"
				}
			],
			"stateMutability": "nonpayable",
			"type": "function"
		},
		{
			"inputs": [
				{
					"internalType": "address",
					"name": "",
					"type": "address"
				},
				{
					"internalType": "address",
					"name": "",
					"type": "address"
				},
				{
					"internalType": "uint256",
					"name": "",
					"type": "uint256"
				},
				{
					"internalType": "uint256",
					"name": "",
					"type": "uint256"
				},
				{
					"internalType": "bytes",
					"name": "",
					"type": "bytes"
				}
			],
			"name": "onERC1155Received",
			"outputs": [
				{
					"internalType": "bytes4",
					"name": "",
					"type": "bytes4"
				}
			],
			"stateMutability": "nonpayable",
			"type": "function"
		},
		{
			"inputs": [],
			"name": "owner",
			"outputs": [
				{
					"internalType": "address",
					"name": "",
					"type": "address"
				}
			],
			"stateMutability": "view",
			"type": "function"
		},
		{
			"inputs": [
				{
					"internalType": "address",
					"name": "",
					"type": "address"
				}
			],
			"name": "players",
			"outputs": [
				{
					"internalType": "uint256",
					"name": "staked",
					"type": "uint256"
				},
				{
					"internalType": "uint256",
					"name": "unstaked",
					"type": "uint256"
				},
				{
					"internalType": "uint256",
					"name": "vesting",
					"type": "uint256"
				},
				{
					"internalType": "uint256",
					"name": "rewards",
					"type": "uint256"
				},
				{
					"internalType": "uint256",
					"name": "liquidity",
					"type": "uint256"
				},
				{
					"internalType": "uint16",
					"name": "airdrops",
					"type": "uint16"
				},
				{
					"internalType": "bool",
					"name": "isStaker",
					"type": "bool"
				},
				{
					"internalType": "bool",
					"name": "hasClaimedStarterPack",
					"type": "bool"
				}
			],
			"stateMutability": "view",
			"type": "function"
		},
		{
			"inputs": [],
			"name": "pool",
			"outputs": [
				{
					"internalType": "uint256",
					"name": "toRewards",
					"type": "uint256"
				},
				{
					"internalType": "uint256",
					"name": "toBurned",
					"type": "uint256"
				}
			],
			"stateMutability": "view",
			"type": "function"
		},
		{
			"inputs": [
				{
					"internalType": "uint256",
					"name": "_liquidityShares",
					"type": "uint256"
				}
			],
			"name": "removeLiquidity",
			"outputs": [
				{
					"internalType": "uint256",
					"name": "_amountToken1",
					"type": "uint256"
				},
				{
					"internalType": "uint256",
					"name": "_amountToken2",
					"type": "uint256"
				}
			],
			"stateMutability": "nonpayable",
			"type": "function"
		},
		{
			"inputs": [],
			"name": "renounceOwnership",
			"outputs": [],
			"stateMutability": "nonpayable",
			"type": "function"
		},
		{
			"inputs": [],
			"name": "reserve1",
			"outputs": [
				{
					"internalType": "uint256",
					"name": "",
					"type": "uint256"
				}
			],
			"stateMutability": "view",
			"type": "function"
		},
		{
			"inputs": [],
			"name": "reserve2",
			"outputs": [
				{
					"internalType": "uint256",
					"name": "",
					"type": "uint256"
				}
			],
			"stateMutability": "view",
			"type": "function"
		},
		{
			"inputs": [
				{
					"internalType": "uint256",
					"name": "",
					"type": "uint256"
				}
			],
			"name": "skinShards",
			"outputs": [
				{
					"internalType": "uint256",
					"name": "",
					"type": "uint256"
				}
			],
			"stateMutability": "view",
			"type": "function"
		},
		{
			"inputs": [
				{
					"internalType": "uint256",
					"name": "",
					"type": "uint256"
				}
			],
			"name": "skins",
			"outputs": [
				{
					"internalType": "address",
					"name": "author",
					"type": "address"
				},
				{
					"internalType": "enum SomGame.Rarity",
					"name": "rarity",
					"type": "uint8"
				}
			],
			"stateMutability": "view",
			"type": "function"
		},
		{
			"inputs": [],
			"name": "somCurrency",
			"outputs": [
				{
					"internalType": "contract SomCurrency",
					"name": "",
					"type": "address"
				}
			],
			"stateMutability": "view",
			"type": "function"
		},
		{
			"inputs": [],
			"name": "somSkins",
			"outputs": [
				{
					"internalType": "contract SomSkins",
					"name": "",
					"type": "address"
				}
			],
			"stateMutability": "view",
			"type": "function"
		},
		{
			"inputs": [
				{
					"internalType": "uint256",
					"name": "amount",
					"type": "uint256"
				}
			],
			"name": "stake",
			"outputs": [],
			"stateMutability": "nonpayable",
			"type": "function"
		},
		{
			"inputs": [
				{
					"internalType": "bytes4",
					"name": "interfaceId",
					"type": "bytes4"
				}
			],
			"name": "supportsInterface",
			"outputs": [
				{
					"internalType": "bool",
					"name": "",
					"type": "bool"
				}
			],
			"stateMutability": "view",
			"type": "function"
		},
		{
			"inputs": [
				{
					"internalType": "address",
					"name": "_tokenIn",
					"type": "address"
				},
				{
					"internalType": "uint256",
					"name": "_amountIn",
					"type": "uint256"
				}
			],
			"name": "swapTokens",
			"outputs": [
				{
					"internalType": "uint256",
					"name": "_amountOut",
					"type": "uint256"
				}
			],
			"stateMutability": "nonpayable",
			"type": "function"
		},
		{
			"inputs": [],
			"name": "token1",
			"outputs": [
				{
					"internalType": "contract IERC20",
					"name": "",
					"type": "address"
				}
			],
			"stateMutability": "view",
			"type": "function"
		},
		{
			"inputs": [],
			"name": "token2",
			"outputs": [
				{
					"internalType": "contract IERC20",
					"name": "",
					"type": "address"
				}
			],
			"stateMutability": "view",
			"type": "function"
		},
		{
			"inputs": [],
			"name": "total",
			"outputs": [
				{
					"internalType": "uint256",
					"name": "staked",
					"type": "uint256"
				},
				{
					"internalType": "uint256",
					"name": "unstaked",
					"type": "uint256"
				},
				{
					"internalType": "uint256",
					"name": "rewards",
					"type": "uint256"
				},
				{
					"internalType": "uint256",
					"name": "burned",
					"type": "uint256"
				},
				{
					"internalType": "uint16",
					"name": "airdrops",
					"type": "uint16"
				}
			],
			"stateMutability": "view",
			"type": "function"
		},
		{
			"inputs": [],
			"name": "totalLiquidity",
			"outputs": [
				{
					"internalType": "uint256",
					"name": "",
					"type": "uint256"
				}
			],
			"stateMutability": "view",
			"type": "function"
		},
		{
			"inputs": [
				{
					"internalType": "address",
					"name": "newOwner",
					"type": "address"
				}
			],
			"name": "transferOwnership",
			"outputs": [],
			"stateMutability": "nonpayable",
			"type": "function"
		},
		{
			"inputs": [
				{
					"internalType": "uint256",
					"name": "chestId",
					"type": "uint256"
				}
			],
			"name": "unlockChest",
			"outputs": [],
			"stateMutability": "nonpayable",
			"type": "function"
		},
		{
			"inputs": [
				{
					"internalType": "uint256",
					"name": "amount",
					"type": "uint256"
				}
			],
			"name": "unstake",
			"outputs": [],
			"stateMutability": "nonpayable",
			"type": "function"
		},
		{
			"inputs": [
				{
					"internalType": "address",
					"name": "",
					"type": "address"
				}
			],
			"name": "userLiquidity",
			"outputs": [
				{
					"internalType": "uint256",
					"name": "",
					"type": "uint256"
				}
			],
			"stateMutability": "view",
			"type": "function"
		}
	]
}