{
	"data": {
		"bytecode": {
			"linkReferences": {},
			"object": "60a0604052670de0b6b3a764000060646200001b919062000546565b6005553480156200002a575f80fd5b506040516200233b3803806200233b8339818101604052810190620000509190620005f5565b805f73ffffffffffffffffffffffffffffffffffffffff168173ffffffffffffffffffffffffffffffffffffffff1603620000c4575f6040517f1e4fbdf7000000000000000000000000000000000000000000000000000000008152600401620000bb919062000636565b60405180910390fd5b620000d5816200044f60201b60201c565b50670de0b6b3a76400006064620000ed919062000546565b60015f6001600581111562000107576200010662000651565b5b60058111156200011c576200011b62000651565b5b81526020019081526020015f2081905550670de0b6b3a764000061019062000145919062000546565b60015f600260058111156200015f576200015e62000651565b5b600581111562000174576200017362000651565b5b81526020019081526020015f2081905550670de0b6b3a76400006106406200019d919062000546565b60015f60036005811115620001b757620001b662000651565b5b6005811115620001cc57620001cb62000651565b5b81526020019081526020015f2081905550670de0b6b3a7640000611900620001f5919062000546565b60015f600460058111156200020f576200020e62000651565b5b600581111562000224576200022362000651565b5b81526020019081526020015f2081905550670de0b6b3a76400006164006200024d919062000546565b60015f60058081111562000266576200026562000651565b5b60058111156200027b576200027a62000651565b5b81526020019081526020015f2081905550670de0b6b3a7640000600a620002a3919062000546565b60025f60016005811115620002bd57620002bc62000651565b5b6005811115620002d257620002d162000651565b5b81526020019081526020015f2081905550670de0b6b3a76400006028620002fa919062000546565b60025f6002600581111562000314576200031362000651565b5b600581111562000329576200032862000651565b5b81526020019081526020015f2081905550670de0b6b3a764000060a062000351919062000546565b60025f600360058111156200036b576200036a62000651565b5b600581111562000380576200037f62000651565b5b81526020019081526020015f2081905550670de0b6b3a7640000610280620003a9919062000546565b60025f60046005811115620003c357620003c262000651565b5b6005811115620003d857620003d762000651565b5b81526020019081526020015f2081905550670de0b6b3a7640000610a0062000401919062000546565b60025f6005808111156200041a576200041962000651565b5b60058111156200042f576200042e62000651565b5b81526020019081526020015f20819055504260808181525050506200067e565b5f805f9054906101000a900473ffffffffffffffffffffffffffffffffffffffff169050815f806101000a81548173ffffffffffffffffffffffffffffffffffffffff021916908373ffffffffffffffffffffffffffffffffffffffff1602179055508173ffffffffffffffffffffffffffffffffffffffff168173ffffffffffffffffffffffffffffffffffffffff167f8be0079c531659141344cd1fd0a4f28419497f9722a3daafe3b4186f6b6457e060405160405180910390a35050565b5f819050919050565b7f4e487b71000000000000000000000000000000000000000000000000000000005f52601160045260245ffd5b5f620005528262000510565b91506200055f8362000510565b92508282026200056f8162000510565b9150828204841483151762000589576200058862000519565b5b5092915050565b5f80fd5b5f73ffffffffffffffffffffffffffffffffffffffff82169050919050565b5f620005bf8262000594565b9050919050565b620005d181620005b3565b8114620005dc575f80fd5b50565b5f81519050620005ef81620005c6565b92915050565b5f602082840312156200060d576200060c62000590565b5b5f6200061c84828501620005df565b91505092915050565b6200063081620005b3565b82525050565b5f6020820190506200064b5f83018462000625565b92915050565b7f4e487b71000000000000000000000000000000000000000000000000000000005f52602160045260245ffd5b608051611c9d6200069e5f395f8181610b0201526112c00152611c9d5ff3fe608060405234801561000f575f80fd5b506004361061011f575f3560e01c8063793c0aaa116100ab5780639f02ab381161006f5780639f02ab38146102b9578063bf989b6e146102d7578063c06fad06146102f3578063c6cb066d14610311578063f2fde38b1461032d5761011f565b8063793c0aaa146102155780637ca35209146102455780638168528d146102615780638da5cb5b1461027f57806398da72171461029d5761011f565b806349f6e01c116100f257806349f6e01c1461018357806359501a4c146101a15780635fbbd62b146101d1578063607ad0d7146101ed578063715018a61461020b5761011f565b806324046e5b146101235780632626955e1461013f57806330a66b571461015b57806337afd16714610179575b5f80fd5b61013d60048036038101906101389190611405565b610349565b005b61015960048036038101906101549190611466565b6105b0565b005b61016361064d565b604051610170919061151e565b60405180910390f35b610181610672565b005b61018b61095f565b6040516101989190611546565b60405180910390f35b6101bb60048036038101906101b6919061155f565b610965565b6040516101c89190611546565b60405180910390f35b6101eb60048036038101906101e6919061158a565b61097a565b005b6101f5610b00565b6040516102029190611546565b60405180910390f35b610213610b24565b005b61022f600480360381019061022a919061155f565b610b37565b60405161023c9190611546565b60405180910390f35b61025f600480360381019061025a91906115f0565b610b4c565b005b610269610c6b565b6040516102769190611660565b60405180910390f35b610287610c90565b6040516102949190611688565b60405180910390f35b6102b760048036038101906102b2919061158a565b610cb7565b005b6102c1610e3d565b6040516102ce91906116c1565b60405180910390f35b6102f160048036038101906102ec91906116da565b610e62565b005b6102fb610f70565b604051610308919061175e565b60405180910390f35b61032b60048036038101906103269190611405565b610f95565b005b61034760048036038101906103429190611777565b611152565b005b5f8160055461035891906117cf565b90505f600184036103ac578260015f6001600581111561037b5761037a611810565b5b600581111561038d5761038c611810565b5b81526020019081526020015f20546103a591906117cf565b905061040d565b8260015f60045f8881526020019081526020015f205f9054906101000a900460ff1660058111156103e0576103df611810565b5b60058111156103f2576103f1611810565b5b81526020019081526020015f205461040a91906117cf565b90505b60075f9054906101000a900473ffffffffffffffffffffffffffffffffffffffff1673ffffffffffffffffffffffffffffffffffffffff166379cc679033846040518363ffffffff1660e01b815260040161046992919061183d565b5f604051808303815f87803b158015610480575f80fd5b505af1158015610492573d5f803e3d5ffd5b5050505060065f9054906101000a900473ffffffffffffffffffffffffffffffffffffffff1673ffffffffffffffffffffffffffffffffffffffff166379cc679033836040518363ffffffff1660e01b81526004016104f292919061183d565b5f604051808303815f87803b158015610509575f80fd5b505af115801561051b573d5f803e3d5ffd5b5050505060095f9054906101000a900473ffffffffffffffffffffffffffffffffffffffff1673ffffffffffffffffffffffffffffffffffffffff1663731133e93386866040518463ffffffff1660e01b815260040161057d93929190611897565b5f604051808303815f87803b158015610594575f80fd5b505af11580156105a6573d5f803e3d5ffd5b5050505050505050565b6105b86111d6565b8060045f8481526020019081526020015f205f6101000a81548160ff021916908360058111156105eb576105ea611810565b5b021790555060035f82600581111561060657610605611810565b5b600581111561061857610617611810565b5b81526020019081526020015f2082908060018154018082558091505060019003905f5260205f20015f90919091909150555050565b60085f9054906101000a900473ffffffffffffffffffffffffffffffffffffffff1681565b5f61067e6103e861125d565b90505f61032082101561069457600190506106ff565b61032082101580156106a757506103b682105b156106b557600290506106fe565b6103b782101580156106c857506103d482105b156106d657600390506106fd565b6103d582101580156106e957506103e782105b156106f757600490506106fc565b600590505b5b5b5b5f60035f83600581111561071657610715611810565b5b600581111561072857610727611810565b5b81526020019081526020015f2080548060200260200160405190810160405280929190818152602001828054801561077d57602002820191905f5260205f20905b815481526020019060010190808311610769575b505050505090505f8151116107c7576040517f08c379a00000000000000000000000000000000000000000000000000000000081526004016107be90611939565b60405180910390fd5b5f6107d2825161125d565b90505f8282815181106107e8576107e7611957565b5b602002602001015190503373ffffffffffffffffffffffffffffffffffffffff167fc7e3f67287d9f779e4b7c83f0417ee9d68abb6f3f7ccda7f5a766e65b666e498826040516108389190611546565b60405180910390a260095f9054906101000a900473ffffffffffffffffffffffffffffffffffffffff1673ffffffffffffffffffffffffffffffffffffffff1663f5298aca336001806040518463ffffffff1660e01b815260040161089f939291906119bd565b5f604051808303815f87803b1580156108b6575f80fd5b505af11580156108c8573d5f803e3d5ffd5b5050505060095f9054906101000a900473ffffffffffffffffffffffffffffffffffffffff1673ffffffffffffffffffffffffffffffffffffffff1663731133e9338360016040518463ffffffff1660e01b815260040161092b939291906119f2565b5f604051808303815f87803b158015610942575f80fd5b505af1158015610954573d5f803e3d5ffd5b505050505050505050565b60055481565b6001602052805f5260405f205f915090505481565b5f81116109bc576040517f08c379a00000000000000000000000000000000000000000000000000000000081526004016109b390611a84565b60405180910390fd5b5f6109c561129d565b90505f81670de0b6b3a7640000846109dd91906117cf565b6109e79190611acf565b905060075f9054906101000a900473ffffffffffffffffffffffffffffffffffffffff1673ffffffffffffffffffffffffffffffffffffffff166379cc679033856040518363ffffffff1660e01b8152600401610a4592919061183d565b5f604051808303815f87803b158015610a5c575f80fd5b505af1158015610a6e573d5f803e3d5ffd5b5050505060085f9054906101000a900473ffffffffffffffffffffffffffffffffffffffff1673ffffffffffffffffffffffffffffffffffffffff166340c10f1933836040518363ffffffff1660e01b8152600401610ace92919061183d565b5f604051808303815f87803b158015610ae5575f80fd5b505af1158015610af7573d5f803e3d5ffd5b50505050505050565b7f000000000000000000000000000000000000000000000000000000000000000081565b610b2c6111d6565b610b355f611306565b565b6002602052805f5260405f205f915090505481565b610b546111d6565b60065f9054906101000a900473ffffffffffffffffffffffffffffffffffffffff1673ffffffffffffffffffffffffffffffffffffffff166340c10f1984846040518363ffffffff1660e01b8152600401610bb092919061183d565b5f604051808303815f87803b158015610bc7575f80fd5b505af1158015610bd9573d5f803e3d5ffd5b5050505060075f9054906101000a900473ffffffffffffffffffffffffffffffffffffffff1673ffffffffffffffffffffffffffffffffffffffff166340c10f1984836040518363ffffffff1660e01b8152600401610c3992919061183d565b5f604051808303815f87803b158015610c50575f80fd5b505af1158015610c62573d5f803e3d5ffd5b50505050505050565b60075f9054906101000a900473ffffffffffffffffffffffffffffffffffffffff1681565b5f805f9054906101000a900473ffffffffffffffffffffffffffffffffffffffff16905090565b5f8111610cf9576040517f08c379a0000000000000000000000000000000000000000000000000000000008152600401610cf090611a84565b60405180910390fd5b5f610d0261129d565b90505f670de0b6b3a76400008284610d1a91906117cf565b610d249190611acf565b905060085f9054906101000a900473ffffffffffffffffffffffffffffffffffffffff1673ffffffffffffffffffffffffffffffffffffffff166379cc679033856040518363ffffffff1660e01b8152600401610d8292919061183d565b5f604051808303815f87803b158015610d99575f80fd5b505af1158015610dab573d5f803e3d5ffd5b5050505060075f9054906101000a900473ffffffffffffffffffffffffffffffffffffffff1673ffffffffffffffffffffffffffffffffffffffff166340c10f1933836040518363ffffffff1660e01b8152600401610e0b92919061183d565b5f604051808303815f87803b158015610e22575f80fd5b505af1158015610e34573d5f803e3d5ffd5b50505050505050565b60065f9054906101000a900473ffffffffffffffffffffffffffffffffffffffff1681565b610e6a6111d6565b8360065f6101000a81548173ffffffffffffffffffffffffffffffffffffffff021916908373ffffffffffffffffffffffffffffffffffffffff1602179055508260075f6101000a81548173ffffffffffffffffffffffffffffffffffffffff021916908373ffffffffffffffffffffffffffffffffffffffff1602179055508160085f6101000a81548173ffffffffffffffffffffffffffffffffffffffff021916908373ffffffffffffffffffffffffffffffffffffffff1602179055508060095f6101000a81548173ffffffffffffffffffffffffffffffffffffffff021916908373ffffffffffffffffffffffffffffffffffffffff16021790555050505050565b60095f9054906101000a900473ffffffffffffffffffffffffffffffffffffffff1681565b60018203610fd8576040517f08c379a0000000000000000000000000000000000000000000000000000000008152600401610fcf90611b49565b60405180910390fd5b5f8160025f60045f8781526020019081526020015f205f9054906101000a900460ff16600581111561100d5761100c611810565b5b600581111561101f5761101e611810565b5b81526020019081526020015f205461103791906117cf565b905060065f9054906101000a900473ffffffffffffffffffffffffffffffffffffffff1673ffffffffffffffffffffffffffffffffffffffff166340c10f1933836040518363ffffffff1660e01b815260040161109592919061183d565b5f604051808303815f87803b1580156110ac575f80fd5b505af11580156110be573d5f803e3d5ffd5b5050505060095f9054906101000a900473ffffffffffffffffffffffffffffffffffffffff1673ffffffffffffffffffffffffffffffffffffffff1663f5298aca3385856040518463ffffffff1660e01b815260040161112093929190611b67565b5f604051808303815f87803b158015611137575f80fd5b505af1158015611149573d5f803e3d5ffd5b50505050505050565b61115a6111d6565b5f73ffffffffffffffffffffffffffffffffffffffff168173ffffffffffffffffffffffffffffffffffffffff16036111ca575f6040517f1e4fbdf70000000000000000000000000000000000000000000000000000000081526004016111c19190611688565b60405180910390fd5b6111d381611306565b50565b6111de6113c7565b73ffffffffffffffffffffffffffffffffffffffff166111fc610c90565b73ffffffffffffffffffffffffffffffffffffffff161461125b5761121f6113c7565b6040517f118cdaa70000000000000000000000000000000000000000000000000000000081526004016112529190611688565b60405180910390fd5b565b5f8142443360405160200161127493929190611b9c565b604051602081830303815290604052805190602001205f1c6112969190611bd1565b9050919050565b5f80670de0b6b3a764000060016112b491906117cf565b90505f620f42409050807f0000000000000000000000000000000000000000000000000000000000000000426112ea9190611c01565b6112f491906117cf565b826112ff9190611c34565b9250505090565b5f805f9054906101000a900473ffffffffffffffffffffffffffffffffffffffff169050815f806101000a81548173ffffffffffffffffffffffffffffffffffffffff021916908373ffffffffffffffffffffffffffffffffffffffff1602179055508173ffffffffffffffffffffffffffffffffffffffff168173ffffffffffffffffffffffffffffffffffffffff167f8be0079c531659141344cd1fd0a4f28419497f9722a3daafe3b4186f6b6457e060405160405180910390a35050565b5f33905090565b5f80fd5b5f819050919050565b6113e4816113d2565b81146113ee575f80fd5b50565b5f813590506113ff816113db565b92915050565b5f806040838503121561141b5761141a6113ce565b5b5f611428858286016113f1565b9250506020611439858286016113f1565b9150509250929050565b6006811061144f575f80fd5b50565b5f8135905061146081611443565b92915050565b5f806040838503121561147c5761147b6113ce565b5b5f611489858286016113f1565b925050602061149a85828601611452565b9150509250929050565b5f73ffffffffffffffffffffffffffffffffffffffff82169050919050565b5f819050919050565b5f6114e66114e16114dc846114a4565b6114c3565b6114a4565b9050919050565b5f6114f7826114cc565b9050919050565b5f611508826114ed565b9050919050565b611518816114fe565b82525050565b5f6020820190506115315f83018461150f565b92915050565b611540816113d2565b82525050565b5f6020820190506115595f830184611537565b92915050565b5f60208284031215611574576115736113ce565b5b5f61158184828501611452565b91505092915050565b5f6020828403121561159f5761159e6113ce565b5b5f6115ac848285016113f1565b91505092915050565b5f6115bf826114a4565b9050919050565b6115cf816115b5565b81146115d9575f80fd5b50565b5f813590506115ea816115c6565b92915050565b5f805f60608486031215611607576116066113ce565b5b5f611614868287016115dc565b9350506020611625868287016113f1565b9250506040611636868287016113f1565b9150509250925092565b5f61164a826114ed565b9050919050565b61165a81611640565b82525050565b5f6020820190506116735f830184611651565b92915050565b611682816115b5565b82525050565b5f60208201905061169b5f830184611679565b92915050565b5f6116ab826114ed565b9050919050565b6116bb816116a1565b82525050565b5f6020820190506116d45f8301846116b2565b92915050565b5f805f80608085870312156116f2576116f16113ce565b5b5f6116ff878288016115dc565b9450506020611710878288016115dc565b9350506040611721878288016115dc565b9250506060611732878288016115dc565b91505092959194509250565b5f611748826114ed565b9050919050565b6117588161173e565b82525050565b5f6020820190506117715f83018461174f565b92915050565b5f6020828403121561178c5761178b6113ce565b5b5f611799848285016115dc565b91505092915050565b7f4e487b71000000000000000000000000000000000000000000000000000000005f52601160045260245ffd5b5f6117d9826113d2565b91506117e4836113d2565b92508282026117f2816113d2565b91508282048414831517611809576118086117a2565b5b5092915050565b7f4e487b71000000000000000000000000000000000000000000000000000000005f52602160045260245ffd5b5f6040820190506118505f830185611679565b61185d6020830184611537565b9392505050565b5f82825260208201905092915050565b50565b5f6118825f83611864565b915061188d82611874565b5f82019050919050565b5f6080820190506118aa5f830186611679565b6118b76020830185611537565b6118c46040830184611537565b81810360608301526118d581611877565b9050949350505050565b5f82825260208201905092915050565b7f4e6f206974656d7320696e20746865206c697374207965742e000000000000005f82015250565b5f6119236019836118df565b915061192e826118ef565b602082019050919050565b5f6020820190508181035f83015261195081611917565b9050919050565b7f4e487b71000000000000000000000000000000000000000000000000000000005f52603260045260245ffd5b5f819050919050565b5f6119a76119a261199d84611984565b6114c3565b6113d2565b9050919050565b6119b78161198d565b82525050565b5f6060820190506119d05f830186611679565b6119dd60208301856119ae565b6119ea60408301846119ae565b949350505050565b5f608082019050611a055f830186611679565b611a126020830185611537565b611a1f60408301846119ae565b8181036060830152611a3081611877565b9050949350505050565b7f4d7573742062652067726561746572207468616e20302e0000000000000000005f82015250565b5f611a6e6017836118df565b9150611a7982611a3a565b602082019050919050565b5f6020820190508181035f830152611a9b81611a62565b9050919050565b7f4e487b71000000000000000000000000000000000000000000000000000000005f52601260045260245ffd5b5f611ad9826113d2565b9150611ae4836113d2565b925082611af457611af3611aa2565b5b828204905092915050565b7f4368657374732063616e6e6f7420626520646973656e6368616e7465640000005f82015250565b5f611b33601d836118df565b9150611b3e82611aff565b602082019050919050565b5f6020820190508181035f830152611b6081611b27565b9050919050565b5f606082019050611b7a5f830186611679565b611b876020830185611537565b611b946040830184611537565b949350505050565b5f606082019050611baf5f830186611537565b611bbc6020830185611537565b611bc96040830184611679565b949350505050565b5f611bdb826113d2565b9150611be6836113d2565b925082611bf657611bf5611aa2565b5b828206905092915050565b5f611c0b826113d2565b9150611c16836113d2565b9250828203905081811115611c2e57611c2d6117a2565b5b92915050565b5f611c3e826113d2565b9150611c49836113d2565b9250828201905080821115611c6157611c606117a2565b5b9291505056fea26469706673582212209aaded15007b76cee2fdb99b7bcffb2cb171957e1e73fba91cabcd2a243964f364736f6c63430008140033",
			"opcodes": "PUSH1 0xA0 PUSH1 0x40 MSTORE PUSH8 0xDE0B6B3A7640000 PUSH1 0x64 PUSH3 0x1B SWAP2 SWAP1 PUSH3 0x546 JUMP JUMPDEST PUSH1 0x5 SSTORE CALLVALUE DUP1 ISZERO PUSH3 0x2A JUMPI PUSH0 DUP1 REVERT JUMPDEST POP PUSH1 0x40 MLOAD PUSH3 0x233B CODESIZE SUB DUP1 PUSH3 0x233B DUP4 CODECOPY DUP2 DUP2 ADD PUSH1 0x40 MSTORE DUP2 ADD SWAP1 PUSH3 0x50 SWAP2 SWAP1 PUSH3 0x5F5 JUMP JUMPDEST DUP1 PUSH0 PUSH20 0xFFFFFFFFFFFFFFFFFFFFFFFFFFFFFFFFFFFFFFFF AND DUP2 PUSH20 0xFFFFFFFFFFFFFFFFFFFFFFFFFFFFFFFFFFFFFFFF AND SUB PUSH3 0xC4 JUMPI PUSH0 PUSH1 0x40 MLOAD PUSH32 0x1E4FBDF700000000000000000000000000000000000000000000000000000000 DUP2 MSTORE PUSH1 0x4 ADD PUSH3 0xBB SWAP2 SWAP1 PUSH3 0x636 JUMP JUMPDEST PUSH1 0x40 MLOAD DUP1 SWAP2 SUB SWAP1 REVERT JUMPDEST PUSH3 0xD5 DUP2 PUSH3 0x44F PUSH1 0x20 SHL PUSH1 0x20 SHR JUMP JUMPDEST POP PUSH8 0xDE0B6B3A7640000 PUSH1 0x64 PUSH3 0xED SWAP2 SWAP1 PUSH3 0x546 JUMP JUMPDEST PUSH1 0x1 PUSH0 PUSH1 0x1 PUSH1 0x5 DUP2 GT ISZERO PUSH3 0x107 JUMPI PUSH3 0x106 PUSH3 0x651 JUMP JUMPDEST JUMPDEST PUSH1 0x5 DUP2 GT ISZERO PUSH3 0x11C JUMPI PUSH3 0x11B PUSH3 0x651 JUMP JUMPDEST JUMPDEST DUP2 MSTORE PUSH1 0x20 ADD SWAP1 DUP2 MSTORE PUSH1 0x20 ADD PUSH0 KECCAK256 DUP2 SWAP1 SSTORE POP PUSH8 0xDE0B6B3A7640000 PUSH2 0x190 PUSH3 0x145 SWAP2 SWAP1 PUSH3 0x546 JUMP JUMPDEST PUSH1 0x1 PUSH0 PUSH1 0x2 PUSH1 0x5 DUP2 GT ISZERO PUSH3 0x15F JUMPI PUSH3 0x15E PUSH3 0x651 JUMP JUMPDEST JUMPDEST PUSH1 0x5 DUP2 GT ISZERO PUSH3 0x174 JUMPI PUSH3 0x173 PUSH3 0x651 JUMP JUMPDEST JUMPDEST DUP2 MSTORE PUSH1 0x20 ADD SWAP1 DUP2 MSTORE PUSH1 0x20 ADD PUSH0 KECCAK256 DUP2 SWAP1 SSTORE POP PUSH8 0xDE0B6B3A7640000 PUSH2 0x640 PUSH3 0x19D SWAP2 SWAP1 PUSH3 0x546 JUMP JUMPDEST PUSH1 0x1 PUSH0 PUSH1 0x3 PUSH1 0x5 DUP2 GT ISZERO PUSH3 0x1B7 JUMPI PUSH3 0x1B6 PUSH3 0x651 JUMP JUMPDEST JUMPDEST PUSH1 0x5 DUP2 GT ISZERO PUSH3 0x1CC JUMPI PUSH3 0x1CB PUSH3 0x651 JUMP JUMPDEST JUMPDEST DUP2 MSTORE PUSH1 0x20 ADD SWAP1 DUP2 MSTORE PUSH1 0x20 ADD PUSH0 KECCAK256 DUP2 SWAP1 SSTORE POP PUSH8 0xDE0B6B3A7640000 PUSH2 0x1900 PUSH3 0x1F5 SWAP2 SWAP1 PUSH3 0x546 JUMP JUMPDEST PUSH1 0x1 PUSH0 PUSH1 0x4 PUSH1 0x5 DUP2 GT ISZERO PUSH3 0x20F JUMPI PUSH3 0x20E PUSH3 0x651 JUMP JUMPDEST JUMPDEST PUSH1 0x5 DUP2 GT ISZERO PUSH3 0x224 JUMPI PUSH3 0x223 PUSH3 0x651 JUMP JUMPDEST JUMPDEST DUP2 MSTORE PUSH1 0x20 ADD SWAP1 DUP2 MSTORE PUSH1 0x20 ADD PUSH0 KECCAK256 DUP2 SWAP1 SSTORE POP PUSH8 0xDE0B6B3A7640000 PUSH2 0x6400 PUSH3 0x24D SWAP2 SWAP1 PUSH3 0x546 JUMP JUMPDEST PUSH1 0x1 PUSH0 PUSH1 0x5 DUP1 DUP2 GT ISZERO PUSH3 0x266 JUMPI PUSH3 0x265 PUSH3 0x651 JUMP JUMPDEST JUMPDEST PUSH1 0x5 DUP2 GT ISZERO PUSH3 0x27B JUMPI PUSH3 0x27A PUSH3 0x651 JUMP JUMPDEST JUMPDEST DUP2 MSTORE PUSH1 0x20 ADD SWAP1 DUP2 MSTORE PUSH1 0x20 ADD PUSH0 KECCAK256 DUP2 SWAP1 SSTORE POP PUSH8 0xDE0B6B3A7640000 PUSH1 0xA PUSH3 0x2A3 SWAP2 SWAP1 PUSH3 0x546 JUMP JUMPDEST PUSH1 0x2 PUSH0 PUSH1 0x1 PUSH1 0x5 DUP2 GT ISZERO PUSH3 0x2BD JUMPI PUSH3 0x2BC PUSH3 0x651 JUMP JUMPDEST JUMPDEST PUSH1 0x5 DUP2 GT ISZERO PUSH3 0x2D2 JUMPI PUSH3 0x2D1 PUSH3 0x651 JUMP JUMPDEST JUMPDEST DUP2 MSTORE PUSH1 0x20 ADD SWAP1 DUP2 MSTORE PUSH1 0x20 ADD PUSH0 KECCAK256 DUP2 SWAP1 SSTORE POP PUSH8 0xDE0B6B3A7640000 PUSH1 0x28 PUSH3 0x2FA SWAP2 SWAP1 PUSH3 0x546 JUMP JUMPDEST PUSH1 0x2 PUSH0 PUSH1 0x2 PUSH1 0x5 DUP2 GT ISZERO PUSH3 0x314 JUMPI PUSH3 0x313 PUSH3 0x651 JUMP JUMPDEST JUMPDEST PUSH1 0x5 DUP2 GT ISZERO PUSH3 0x329 JUMPI PUSH3 0x328 PUSH3 0x651 JUMP JUMPDEST JUMPDEST DUP2 MSTORE PUSH1 0x20 ADD SWAP1 DUP2 MSTORE PUSH1 0x20 ADD PUSH0 KECCAK256 DUP2 SWAP1 SSTORE POP PUSH8 0xDE0B6B3A7640000 PUSH1 0xA0 PUSH3 0x351 SWAP2 SWAP1 PUSH3 0x546 JUMP JUMPDEST PUSH1 0x2 PUSH0 PUSH1 0x3 PUSH1 0x5 DUP2 GT ISZERO PUSH3 0x36B JUMPI PUSH3 0x36A PUSH3 0x651 JUMP JUMPDEST JUMPDEST PUSH1 0x5 DUP2 GT ISZERO PUSH3 0x380 JUMPI PUSH3 0x37F PUSH3 0x651 JUMP JUMPDEST JUMPDEST DUP2 MSTORE PUSH1 0x20 ADD SWAP1 DUP2 MSTORE PUSH1 0x20 ADD PUSH0 KECCAK256 DUP2 SWAP1 SSTORE POP PUSH8 0xDE0B6B3A7640000 PUSH2 0x280 PUSH3 0x3A9 SWAP2 SWAP1 PUSH3 0x546 JUMP JUMPDEST PUSH1 0x2 PUSH0 PUSH1 0x4 PUSH1 0x5 DUP2 GT ISZERO PUSH3 0x3C3 JUMPI PUSH3 0x3C2 PUSH3 0x651 JUMP JUMPDEST JUMPDEST PUSH1 0x5 DUP2 GT ISZERO PUSH3 0x3D8 JUMPI PUSH3 0x3D7 PUSH3 0x651 JUMP JUMPDEST JUMPDEST DUP2 MSTORE PUSH1 0x20 ADD SWAP1 DUP2 MSTORE PUSH1 0x20 ADD PUSH0 KECCAK256 DUP2 SWAP1 SSTORE POP PUSH8 0xDE0B6B3A7640000 PUSH2 0xA00 PUSH3 0x401 SWAP2 SWAP1 PUSH3 0x546 JUMP JUMPDEST PUSH1 0x2 PUSH0 PUSH1 0x5 DUP1 DUP2 GT ISZERO PUSH3 0x41A JUMPI PUSH3 0x419 PUSH3 0x651 JUMP JUMPDEST JUMPDEST PUSH1 0x5 DUP2 GT ISZERO PUSH3 0x42F JUMPI PUSH3 0x42E PUSH3 0x651 JUMP JUMPDEST JUMPDEST DUP2 MSTORE PUSH1 0x20 ADD SWAP1 DUP2 MSTORE PUSH1 0x20 ADD PUSH0 KECCAK256 DUP2 SWAP1 SSTORE POP TIMESTAMP PUSH1 0x80 DUP2 DUP2 MSTORE POP POP POP PUSH3 0x67E JUMP JUMPDEST PUSH0 DUP1 PUSH0 SWAP1 SLOAD SWAP1 PUSH2 0x100 EXP SWAP1 DIV PUSH20 0xFFFFFFFFFFFFFFFFFFFFFFFFFFFFFFFFFFFFFFFF AND SWAP1 POP DUP2 PUSH0 DUP1 PUSH2 0x100 EXP DUP2 SLOAD DUP2 PUSH20 0xFFFFFFFFFFFFFFFFFFFFFFFFFFFFFFFFFFFFFFFF MUL NOT AND SWAP1 DUP4 PUSH20 0xFFFFFFFFFFFFFFFFFFFFFFFFFFFFFFFFFFFFFFFF AND MUL OR SWAP1 SSTORE POP DUP2 PUSH20 0xFFFFFFFFFFFFFFFFFFFFFFFFFFFFFFFFFFFFFFFF AND DUP2 PUSH20 0xFFFFFFFFFFFFFFFFFFFFFFFFFFFFFFFFFFFFFFFF AND PUSH32 0x8BE0079C531659141344CD1FD0A4F28419497F9722A3DAAFE3B4186F6B6457E0 PUSH1 0x40 MLOAD PUSH1 0x40 MLOAD DUP1 SWAP2 SUB SWAP1 LOG3 POP POP JUMP JUMPDEST PUSH0 DUP2 SWAP1 POP SWAP2 SWAP1 POP JUMP JUMPDEST PUSH32 0x4E487B7100000000000000000000000000000000000000000000000000000000 PUSH0 MSTORE PUSH1 0x11 PUSH1 0x4 MSTORE PUSH1 0x24 PUSH0 REVERT JUMPDEST PUSH0 PUSH3 0x552 DUP3 PUSH3 0x510 JUMP JUMPDEST SWAP2 POP PUSH3 0x55F DUP4 PUSH3 0x510 JUMP JUMPDEST SWAP3 POP DUP3 DUP3 MUL PUSH3 0x56F DUP2 PUSH3 0x510 JUMP JUMPDEST SWAP2 POP DUP3 DUP3 DIV DUP5 EQ DUP4 ISZERO OR PUSH3 0x589 JUMPI PUSH3 0x588 PUSH3 0x519 JUMP JUMPDEST JUMPDEST POP SWAP3 SWAP2 POP POP JUMP JUMPDEST PUSH0 DUP1 REVERT JUMPDEST PUSH0 PUSH20 0xFFFFFFFFFFFFFFFFFFFFFFFFFFFFFFFFFFFFFFFF DUP3 AND SWAP1 POP SWAP2 SWAP1 POP JUMP JUMPDEST PUSH0 PUSH3 0x5BF DUP3 PUSH3 0x594 JUMP JUMPDEST SWAP1 POP SWAP2 SWAP1 POP JUMP JUMPDEST PUSH3 0x5D1 DUP2 PUSH3 0x5B3 JUMP JUMPDEST DUP2 EQ PUSH3 0x5DC JUMPI PUSH0 DUP1 REVERT JUMPDEST POP JUMP JUMPDEST PUSH0 DUP2 MLOAD SWAP1 POP PUSH3 0x5EF DUP2 PUSH3 0x5C6 JUMP JUMPDEST SWAP3 SWAP2 POP POP JUMP JUMPDEST PUSH0 PUSH1 0x20 DUP3 DUP5 SUB SLT ISZERO PUSH3 0x60D JUMPI PUSH3 0x60C PUSH3 0x590 JUMP JUMPDEST JUMPDEST PUSH0 PUSH3 0x61C DUP5 DUP3 DUP6 ADD PUSH3 0x5DF JUMP JUMPDEST SWAP2 POP POP SWAP3 SWAP2 POP POP JUMP JUMPDEST PUSH3 0x630 DUP2 PUSH3 0x5B3 JUMP JUMPDEST DUP3 MSTORE POP POP JUMP JUMPDEST PUSH0 PUSH1 0x20 DUP3 ADD SWAP1 POP PUSH3 0x64B PUSH0 DUP4 ADD DUP5 PUSH3 0x625 JUMP JUMPDEST SWAP3 SWAP2 POP POP JUMP JUMPDEST PUSH32 0x4E487B7100000000000000000000000000000000000000000000000000000000 PUSH0 MSTORE PUSH1 0x21 PUSH1 0x4 MSTORE PUSH1 0x24 PUSH0 REVERT JUMPDEST PUSH1 0x80 MLOAD PUSH2 0x1C9D PUSH3 0x69E PUSH0 CODECOPY PUSH0 DUP2 DUP2 PUSH2 0xB02 ADD MSTORE PUSH2 0x12C0 ADD MSTORE PUSH2 0x1C9D PUSH0 RETURN INVALID PUSH1 0x80 PUSH1 0x40 MSTORE CALLVALUE DUP1 ISZERO PUSH2 0xF JUMPI PUSH0 DUP1 REVERT JUMPDEST POP PUSH1 0x4 CALLDATASIZE LT PUSH2 0x11F JUMPI PUSH0 CALLDATALOAD PUSH1 0xE0 SHR DUP1 PUSH4 0x793C0AAA GT PUSH2 0xAB JUMPI DUP1 PUSH4 0x9F02AB38 GT PUSH2 0x6F JUMPI DUP1 PUSH4 0x9F02AB38 EQ PUSH2 0x2B9 JUMPI DUP1 PUSH4 0xBF989B6E EQ PUSH2 0x2D7 JUMPI DUP1 PUSH4 0xC06FAD06 EQ PUSH2 0x2F3 JUMPI DUP1 PUSH4 0xC6CB066D EQ PUSH2 0x311 JUMPI DUP1 PUSH4 0xF2FDE38B EQ PUSH2 0x32D JUMPI PUSH2 0x11F JUMP JUMPDEST DUP1 PUSH4 0x793C0AAA EQ PUSH2 0x215 JUMPI DUP1 PUSH4 0x7CA35209 EQ PUSH2 0x245 JUMPI DUP1 PUSH4 0x8168528D EQ PUSH2 0x261 JUMPI DUP1 PUSH4 0x8DA5CB5B EQ PUSH2 0x27F JUMPI DUP1 PUSH4 0x98DA7217 EQ PUSH2 0x29D JUMPI PUSH2 0x11F JUMP JUMPDEST DUP1 PUSH4 0x49F6E01C GT PUSH2 0xF2 JUMPI DUP1 PUSH4 0x49F6E01C EQ PUSH2 0x183 JUMPI DUP1 PUSH4 0x59501A4C EQ PUSH2 0x1A1 JUMPI DUP1 PUSH4 0x5FBBD62B EQ PUSH2 0x1D1 JUMPI DUP1 PUSH4 0x607AD0D7 EQ PUSH2 0x1ED JUMPI DUP1 PUSH4 0x715018A6 EQ PUSH2 0x20B JUMPI PUSH2 0x11F JUMP JUMPDEST DUP1 PUSH4 0x24046E5B EQ PUSH2 0x123 JUMPI DUP1 PUSH4 0x2626955E EQ PUSH2 0x13F JUMPI DUP1 PUSH4 0x30A66B57 EQ PUSH2 0x15B JUMPI DUP1 PUSH4 0x37AFD167 EQ PUSH2 0x179 JUMPI JUMPDEST PUSH0 DUP1 REVERT JUMPDEST PUSH2 0x13D PUSH1 0x4 DUP1 CALLDATASIZE SUB DUP2 ADD SWAP1 PUSH2 0x138 SWAP2 SWAP1 PUSH2 0x1405 JUMP JUMPDEST PUSH2 0x349 JUMP JUMPDEST STOP JUMPDEST PUSH2 0x159 PUSH1 0x4 DUP1 CALLDATASIZE SUB DUP2 ADD SWAP1 PUSH2 0x154 SWAP2 SWAP1 PUSH2 0x1466 JUMP JUMPDEST PUSH2 0x5B0 JUMP JUMPDEST STOP JUMPDEST PUSH2 0x163 PUSH2 0x64D JUMP JUMPDEST PUSH1 0x40 MLOAD PUSH2 0x170 SWAP2 SWAP1 PUSH2 0x151E JUMP JUMPDEST PUSH1 0x40 MLOAD DUP1 SWAP2 SUB SWAP1 RETURN JUMPDEST PUSH2 0x181 PUSH2 0x672 JUMP JUMPDEST STOP JUMPDEST PUSH2 0x18B PUSH2 0x95F JUMP JUMPDEST PUSH1 0x40 MLOAD PUSH2 0x198 SWAP2 SWAP1 PUSH2 0x1546 JUMP JUMPDEST PUSH1 0x40 MLOAD DUP1 SWAP2 SUB SWAP1 RETURN JUMPDEST PUSH2 0x1BB PUSH1 0x4 DUP1 CALLDATASIZE SUB DUP2 ADD SWAP1 PUSH2 0x1B6 SWAP2 SWAP1 PUSH2 0x155F JUMP JUMPDEST PUSH2 0x965 JUMP JUMPDEST PUSH1 0x40 MLOAD PUSH2 0x1C8 SWAP2 SWAP1 PUSH2 0x1546 JUMP JUMPDEST PUSH1 0x40 MLOAD DUP1 SWAP2 SUB SWAP1 RETURN JUMPDEST PUSH2 0x1EB PUSH1 0x4 DUP1 CALLDATASIZE SUB DUP2 ADD SWAP1 PUSH2 0x1E6 SWAP2 SWAP1 PUSH2 0x158A JUMP JUMPDEST PUSH2 0x97A JUMP JUMPDEST STOP JUMPDEST PUSH2 0x1F5 PUSH2 0xB00 JUMP JUMPDEST PUSH1 0x40 MLOAD PUSH2 0x202 SWAP2 SWAP1 PUSH2 0x1546 JUMP JUMPDEST PUSH1 0x40 MLOAD DUP1 SWAP2 SUB SWAP1 RETURN JUMPDEST PUSH2 0x213 PUSH2 0xB24 JUMP JUMPDEST STOP JUMPDEST PUSH2 0x22F PUSH1 0x4 DUP1 CALLDATASIZE SUB DUP2 ADD SWAP1 PUSH2 0x22A SWAP2 SWAP1 PUSH2 0x155F JUMP JUMPDEST PUSH2 0xB37 JUMP JUMPDEST PUSH1 0x40 MLOAD PUSH2 0x23C SWAP2 SWAP1 PUSH2 0x1546 JUMP JUMPDEST PUSH1 0x40 MLOAD DUP1 SWAP2 SUB SWAP1 RETURN JUMPDEST PUSH2 0x25F PUSH1 0x4 DUP1 CALLDATASIZE SUB DUP2 ADD SWAP1 PUSH2 0x25A SWAP2 SWAP1 PUSH2 0x15F0 JUMP JUMPDEST PUSH2 0xB4C JUMP JUMPDEST STOP JUMPDEST PUSH2 0x269 PUSH2 0xC6B JUMP JUMPDEST PUSH1 0x40 MLOAD PUSH2 0x276 SWAP2 SWAP1 PUSH2 0x1660 JUMP JUMPDEST PUSH1 0x40 MLOAD DUP1 SWAP2 SUB SWAP1 RETURN JUMPDEST PUSH2 0x287 PUSH2 0xC90 JUMP JUMPDEST PUSH1 0x40 MLOAD PUSH2 0x294 SWAP2 SWAP1 PUSH2 0x1688 JUMP JUMPDEST PUSH1 0x40 MLOAD DUP1 SWAP2 SUB SWAP1 RETURN JUMPDEST PUSH2 0x2B7 PUSH1 0x4 DUP1 CALLDATASIZE SUB DUP2 ADD SWAP1 PUSH2 0x2B2 SWAP2 SWAP1 PUSH2 0x158A JUMP JUMPDEST PUSH2 0xCB7 JUMP JUMPDEST STOP JUMPDEST PUSH2 0x2C1 PUSH2 0xE3D JUMP JUMPDEST PUSH1 0x40 MLOAD PUSH2 0x2CE SWAP2 SWAP1 PUSH2 0x16C1 JUMP JUMPDEST PUSH1 0x40 MLOAD DUP1 SWAP2 SUB SWAP1 RETURN JUMPDEST PUSH2 0x2F1 PUSH1 0x4 DUP1 CALLDATASIZE SUB DUP2 ADD SWAP1 PUSH2 0x2EC SWAP2 SWAP1 PUSH2 0x16DA JUMP JUMPDEST PUSH2 0xE62 JUMP JUMPDEST STOP JUMPDEST PUSH2 0x2FB PUSH2 0xF70 JUMP JUMPDEST PUSH1 0x40 MLOAD PUSH2 0x308 SWAP2 SWAP1 PUSH2 0x175E JUMP JUMPDEST PUSH1 0x40 MLOAD DUP1 SWAP2 SUB SWAP1 RETURN JUMPDEST PUSH2 0x32B PUSH1 0x4 DUP1 CALLDATASIZE SUB DUP2 ADD SWAP1 PUSH2 0x326 SWAP2 SWAP1 PUSH2 0x1405 JUMP JUMPDEST PUSH2 0xF95 JUMP JUMPDEST STOP JUMPDEST PUSH2 0x347 PUSH1 0x4 DUP1 CALLDATASIZE SUB DUP2 ADD SWAP1 PUSH2 0x342 SWAP2 SWAP1 PUSH2 0x1777 JUMP JUMPDEST PUSH2 0x1152 JUMP JUMPDEST STOP JUMPDEST PUSH0 DUP2 PUSH1 0x5 SLOAD PUSH2 0x358 SWAP2 SWAP1 PUSH2 0x17CF JUMP JUMPDEST SWAP1 POP PUSH0 PUSH1 0x1 DUP5 SUB PUSH2 0x3AC JUMPI DUP3 PUSH1 0x1 PUSH0 PUSH1 0x1 PUSH1 0x5 DUP2 GT ISZERO PUSH2 0x37B JUMPI PUSH2 0x37A PUSH2 0x1810 JUMP JUMPDEST JUMPDEST PUSH1 0x5 DUP2 GT ISZERO PUSH2 0x38D JUMPI PUSH2 0x38C PUSH2 0x1810 JUMP JUMPDEST JUMPDEST DUP2 MSTORE PUSH1 0x20 ADD SWAP1 DUP2 MSTORE PUSH1 0x20 ADD PUSH0 KECCAK256 SLOAD PUSH2 0x3A5 SWAP2 SWAP1 PUSH2 0x17CF JUMP JUMPDEST SWAP1 POP PUSH2 0x40D JUMP JUMPDEST DUP3 PUSH1 0x1 PUSH0 PUSH1 0x4 PUSH0 DUP9 DUP2 MSTORE PUSH1 0x20 ADD SWAP1 DUP2 MSTORE PUSH1 0x20 ADD PUSH0 KECCAK256 PUSH0 SWAP1 SLOAD SWAP1 PUSH2 0x100 EXP SWAP1 DIV PUSH1 0xFF AND PUSH1 0x5 DUP2 GT ISZERO PUSH2 0x3E0 JUMPI PUSH2 0x3DF PUSH2 0x1810 JUMP JUMPDEST JUMPDEST PUSH1 0x5 DUP2 GT ISZERO PUSH2 0x3F2 JUMPI PUSH2 0x3F1 PUSH2 0x1810 JUMP JUMPDEST JUMPDEST DUP2 MSTORE PUSH1 0x20 ADD SWAP1 DUP2 MSTORE PUSH1 0x20 ADD PUSH0 KECCAK256 SLOAD PUSH2 0x40A SWAP2 SWAP1 PUSH2 0x17CF JUMP JUMPDEST SWAP1 POP JUMPDEST PUSH1 0x7 PUSH0 SWAP1 SLOAD SWAP1 PUSH2 0x100 EXP SWAP1 DIV PUSH20 0xFFFFFFFFFFFFFFFFFFFFFFFFFFFFFFFFFFFFFFFF AND PUSH20 0xFFFFFFFFFFFFFFFFFFFFFFFFFFFFFFFFFFFFFFFF AND PUSH4 0x79CC6790 CALLER DUP5 PUSH1 0x40 MLOAD DUP4 PUSH4 0xFFFFFFFF AND PUSH1 0xE0 SHL DUP2 MSTORE PUSH1 0x4 ADD PUSH2 0x469 SWAP3 SWAP2 SWAP1 PUSH2 0x183D JUMP JUMPDEST PUSH0 PUSH1 0x40 MLOAD DUP1 DUP4 SUB DUP2 PUSH0 DUP8 DUP1 EXTCODESIZE ISZERO DUP1 ISZERO PUSH2 0x480 JUMPI PUSH0 DUP1 REVERT JUMPDEST POP GAS CALL ISZERO DUP1 ISZERO PUSH2 0x492 JUMPI RETURNDATASIZE PUSH0 DUP1 RETURNDATACOPY RETURNDATASIZE PUSH0 REVERT JUMPDEST POP POP POP POP PUSH1 0x6 PUSH0 SWAP1 SLOAD SWAP1 PUSH2 0x100 EXP SWAP1 DIV PUSH20 0xFFFFFFFFFFFFFFFFFFFFFFFFFFFFFFFFFFFFFFFF AND PUSH20 0xFFFFFFFFFFFFFFFFFFFFFFFFFFFFFFFFFFFFFFFF AND PUSH4 0x79CC6790 CALLER DUP4 PUSH1 0x40 MLOAD DUP4 PUSH4 0xFFFFFFFF AND PUSH1 0xE0 SHL DUP2 MSTORE PUSH1 0x4 ADD PUSH2 0x4F2 SWAP3 SWAP2 SWAP1 PUSH2 0x183D JUMP JUMPDEST PUSH0 PUSH1 0x40 MLOAD DUP1 DUP4 SUB DUP2 PUSH0 DUP8 DUP1 EXTCODESIZE ISZERO DUP1 ISZERO PUSH2 0x509 JUMPI PUSH0 DUP1 REVERT JUMPDEST POP GAS CALL ISZERO DUP1 ISZERO PUSH2 0x51B JUMPI RETURNDATASIZE PUSH0 DUP1 RETURNDATACOPY RETURNDATASIZE PUSH0 REVERT JUMPDEST POP POP POP POP PUSH1 0x9 PUSH0 SWAP1 SLOAD SWAP1 PUSH2 0x100 EXP SWAP1 DIV PUSH20 0xFFFFFFFFFFFFFFFFFFFFFFFFFFFFFFFFFFFFFFFF AND PUSH20 0xFFFFFFFFFFFFFFFFFFFFFFFFFFFFFFFFFFFFFFFF AND PUSH4 0x731133E9 CALLER DUP7 DUP7 PUSH1 0x40 MLOAD DUP5 PUSH4 0xFFFFFFFF AND PUSH1 0xE0 SHL DUP2 MSTORE PUSH1 0x4 ADD PUSH2 0x57D SWAP4 SWAP3 SWAP2 SWAP1 PUSH2 0x1897 JUMP JUMPDEST PUSH0 PUSH1 0x40 MLOAD DUP1 DUP4 SUB DUP2 PUSH0 DUP8 DUP1 EXTCODESIZE ISZERO DUP1 ISZERO PUSH2 0x594 JUMPI PUSH0 DUP1 REVERT JUMPDEST POP GAS CALL ISZERO DUP1 ISZERO PUSH2 0x5A6 JUMPI RETURNDATASIZE PUSH0 DUP1 RETURNDATACOPY RETURNDATASIZE PUSH0 REVERT JUMPDEST POP POP POP POP POP POP POP POP JUMP JUMPDEST PUSH2 0x5B8 PUSH2 0x11D6 JUMP JUMPDEST DUP1 PUSH1 0x4 PUSH0 DUP5 DUP2 MSTORE PUSH1 0x20 ADD SWAP1 DUP2 MSTORE PUSH1 0x20 ADD PUSH0 KECCAK256 PUSH0 PUSH2 0x100 EXP DUP2 SLOAD DUP2 PUSH1 0xFF MUL NOT AND SWAP1 DUP4 PUSH1 0x5 DUP2 GT ISZERO PUSH2 0x5EB JUMPI PUSH2 0x5EA PUSH2 0x1810 JUMP JUMPDEST JUMPDEST MUL OR SWAP1 SSTORE POP PUSH1 0x3 PUSH0 DUP3 PUSH1 0x5 DUP2 GT ISZERO PUSH2 0x606 JUMPI PUSH2 0x605 PUSH2 0x1810 JUMP JUMPDEST JUMPDEST PUSH1 0x5 DUP2 GT ISZERO PUSH2 0x618 JUMPI PUSH2 0x617 PUSH2 0x1810 JUMP JUMPDEST JUMPDEST DUP2 MSTORE PUSH1 0x20 ADD SWAP1 DUP2 MSTORE PUSH1 0x20 ADD PUSH0 KECCAK256 DUP3 SWAP1 DUP1 PUSH1 0x1 DUP2 SLOAD ADD DUP1 DUP3 SSTORE DUP1 SWAP2 POP POP PUSH1 0x1 SWAP1 SUB SWAP1 PUSH0 MSTORE PUSH1 0x20 PUSH0 KECCAK256 ADD PUSH0 SWAP1 SWAP2 SWAP1 SWAP2 SWAP1 SWAP2 POP SSTORE POP POP JUMP JUMPDEST PUSH1 0x8 PUSH0 SWAP1 SLOAD SWAP1 PUSH2 0x100 EXP SWAP1 DIV PUSH20 0xFFFFFFFFFFFFFFFFFFFFFFFFFFFFFFFFFFFFFFFF AND DUP2 JUMP JUMPDEST PUSH0 PUSH2 0x67E PUSH2 0x3E8 PUSH2 0x125D JUMP JUMPDEST SWAP1 POP PUSH0 PUSH2 0x320 DUP3 LT ISZERO PUSH2 0x694 JUMPI PUSH1 0x1 SWAP1 POP PUSH2 0x6FF JUMP JUMPDEST PUSH2 0x320 DUP3 LT ISZERO DUP1 ISZERO PUSH2 0x6A7 JUMPI POP PUSH2 0x3B6 DUP3 LT JUMPDEST ISZERO PUSH2 0x6B5 JUMPI PUSH1 0x2 SWAP1 POP PUSH2 0x6FE JUMP JUMPDEST PUSH2 0x3B7 DUP3 LT ISZERO DUP1 ISZERO PUSH2 0x6C8 JUMPI POP PUSH2 0x3D4 DUP3 LT JUMPDEST ISZERO PUSH2 0x6D6 JUMPI PUSH1 0x3 SWAP1 POP PUSH2 0x6FD JUMP JUMPDEST PUSH2 0x3D5 DUP3 LT ISZERO DUP1 ISZERO PUSH2 0x6E9 JUMPI POP PUSH2 0x3E7 DUP3 LT JUMPDEST ISZERO PUSH2 0x6F7 JUMPI PUSH1 0x4 SWAP1 POP PUSH2 0x6FC JUMP JUMPDEST PUSH1 0x5 SWAP1 POP JUMPDEST JUMPDEST JUMPDEST JUMPDEST PUSH0 PUSH1 0x3 PUSH0 DUP4 PUSH1 0x5 DUP2 GT ISZERO PUSH2 0x716 JUMPI PUSH2 0x715 PUSH2 0x1810 JUMP JUMPDEST JUMPDEST PUSH1 0x5 DUP2 GT ISZERO PUSH2 0x728 JUMPI PUSH2 0x727 PUSH2 0x1810 JUMP JUMPDEST JUMPDEST DUP2 MSTORE PUSH1 0x20 ADD SWAP1 DUP2 MSTORE PUSH1 0x20 ADD PUSH0 KECCAK256 DUP1 SLOAD DUP1 PUSH1 0x20 MUL PUSH1 0x20 ADD PUSH1 0x40 MLOAD SWAP1 DUP2 ADD PUSH1 0x40 MSTORE DUP1 SWAP3 SWAP2 SWAP1 DUP2 DUP2 MSTORE PUSH1 0x20 ADD DUP3 DUP1 SLOAD DUP1 ISZERO PUSH2 0x77D JUMPI PUSH1 0x20 MUL DUP3 ADD SWAP2 SWAP1 PUSH0 MSTORE PUSH1 0x20 PUSH0 KECCAK256 SWAP1 JUMPDEST DUP2 SLOAD DUP2 MSTORE PUSH1 0x20 ADD SWAP1 PUSH1 0x1 ADD SWAP1 DUP1 DUP4 GT PUSH2 0x769 JUMPI JUMPDEST POP POP POP POP POP SWAP1 POP PUSH0 DUP2 MLOAD GT PUSH2 0x7C7 JUMPI PUSH1 0x40 MLOAD PUSH32 0x8C379A000000000000000000000000000000000000000000000000000000000 DUP2 MSTORE PUSH1 0x4 ADD PUSH2 0x7BE SWAP1 PUSH2 0x1939 JUMP JUMPDEST PUSH1 0x40 MLOAD DUP1 SWAP2 SUB SWAP1 REVERT JUMPDEST PUSH0 PUSH2 0x7D2 DUP3 MLOAD PUSH2 0x125D JUMP JUMPDEST SWAP1 POP PUSH0 DUP3 DUP3 DUP2 MLOAD DUP2 LT PUSH2 0x7E8 JUMPI PUSH2 0x7E7 PUSH2 0x1957 JUMP JUMPDEST JUMPDEST PUSH1 0x20 MUL PUSH1 0x20 ADD ADD MLOAD SWAP1 POP CALLER PUSH20 0xFFFFFFFFFFFFFFFFFFFFFFFFFFFFFFFFFFFFFFFF AND PUSH32 0xC7E3F67287D9F779E4B7C83F0417EE9D68ABB6F3F7CCDA7F5A766E65B666E498 DUP3 PUSH1 0x40 MLOAD PUSH2 0x838 SWAP2 SWAP1 PUSH2 0x1546 JUMP JUMPDEST PUSH1 0x40 MLOAD DUP1 SWAP2 SUB SWAP1 LOG2 PUSH1 0x9 PUSH0 SWAP1 SLOAD SWAP1 PUSH2 0x100 EXP SWAP1 DIV PUSH20 0xFFFFFFFFFFFFFFFFFFFFFFFFFFFFFFFFFFFFFFFF AND PUSH20 0xFFFFFFFFFFFFFFFFFFFFFFFFFFFFFFFFFFFFFFFF AND PUSH4 0xF5298ACA CALLER PUSH1 0x1 DUP1 PUSH1 0x40 MLOAD DUP5 PUSH4 0xFFFFFFFF AND PUSH1 0xE0 SHL DUP2 MSTORE PUSH1 0x4 ADD PUSH2 0x89F SWAP4 SWAP3 SWAP2 SWAP1 PUSH2 0x19BD JUMP JUMPDEST PUSH0 PUSH1 0x40 MLOAD DUP1 DUP4 SUB DUP2 PUSH0 DUP8 DUP1 EXTCODESIZE ISZERO DUP1 ISZERO PUSH2 0x8B6 JUMPI PUSH0 DUP1 REVERT JUMPDEST POP GAS CALL ISZERO DUP1 ISZERO PUSH2 0x8C8 JUMPI RETURNDATASIZE PUSH0 DUP1 RETURNDATACOPY RETURNDATASIZE PUSH0 REVERT JUMPDEST POP POP POP POP PUSH1 0x9 PUSH0 SWAP1 SLOAD SWAP1 PUSH2 0x100 EXP SWAP1 DIV PUSH20 0xFFFFFFFFFFFFFFFFFFFFFFFFFFFFFFFFFFFFFFFF AND PUSH20 0xFFFFFFFFFFFFFFFFFFFFFFFFFFFFFFFFFFFFFFFF AND PUSH4 0x731133E9 CALLER DUP4 PUSH1 0x1 PUSH1 0x40 MLOAD DUP5 PUSH4 0xFFFFFFFF AND PUSH1 0xE0 SHL DUP2 MSTORE PUSH1 0x4 ADD PUSH2 0x92B SWAP4 SWAP3 SWAP2 SWAP1 PUSH2 0x19F2 JUMP JUMPDEST PUSH0 PUSH1 0x40 MLOAD DUP1 DUP4 SUB DUP2 PUSH0 DUP8 DUP1 EXTCODESIZE ISZERO DUP1 ISZERO PUSH2 0x942 JUMPI PUSH0 DUP1 REVERT JUMPDEST POP GAS CALL ISZERO DUP1 ISZERO PUSH2 0x954 JUMPI RETURNDATASIZE PUSH0 DUP1 RETURNDATACOPY RETURNDATASIZE PUSH0 REVERT JUMPDEST POP POP POP POP POP POP POP POP POP JUMP JUMPDEST PUSH1 0x5 SLOAD DUP2 JUMP JUMPDEST PUSH1 0x1 PUSH1 0x20 MSTORE DUP1 PUSH0 MSTORE PUSH1 0x40 PUSH0 KECCAK256 PUSH0 SWAP2 POP SWAP1 POP SLOAD DUP2 JUMP JUMPDEST PUSH0 DUP2 GT PUSH2 0x9BC JUMPI PUSH1 0x40 MLOAD PUSH32 0x8C379A000000000000000000000000000000000000000000000000000000000 DUP2 MSTORE PUSH1 0x4 ADD PUSH2 0x9B3 SWAP1 PUSH2 0x1A84 JUMP JUMPDEST PUSH1 0x40 MLOAD DUP1 SWAP2 SUB SWAP1 REVERT JUMPDEST PUSH0 PUSH2 0x9C5 PUSH2 0x129D JUMP JUMPDEST SWAP1 POP PUSH0 DUP2 PUSH8 0xDE0B6B3A7640000 DUP5 PUSH2 0x9DD SWAP2 SWAP1 PUSH2 0x17CF JUMP JUMPDEST PUSH2 0x9E7 SWAP2 SWAP1 PUSH2 0x1ACF JUMP JUMPDEST SWAP1 POP PUSH1 0x7 PUSH0 SWAP1 SLOAD SWAP1 PUSH2 0x100 EXP SWAP1 DIV PUSH20 0xFFFFFFFFFFFFFFFFFFFFFFFFFFFFFFFFFFFFFFFF AND PUSH20 0xFFFFFFFFFFFFFFFFFFFFFFFFFFFFFFFFFFFFFFFF AND PUSH4 0x79CC6790 CALLER DUP6 PUSH1 0x40 MLOAD DUP4 PUSH4 0xFFFFFFFF AND PUSH1 0xE0 SHL DUP2 MSTORE PUSH1 0x4 ADD PUSH2 0xA45 SWAP3 SWAP2 SWAP1 PUSH2 0x183D JUMP JUMPDEST PUSH0 PUSH1 0x40 MLOAD DUP1 DUP4 SUB DUP2 PUSH0 DUP8 DUP1 EXTCODESIZE ISZERO DUP1 ISZERO PUSH2 0xA5C JUMPI PUSH0 DUP1 REVERT JUMPDEST POP GAS CALL ISZERO DUP1 ISZERO PUSH2 0xA6E JUMPI RETURNDATASIZE PUSH0 DUP1 RETURNDATACOPY RETURNDATASIZE PUSH0 REVERT JUMPDEST POP POP POP POP PUSH1 0x8 PUSH0 SWAP1 SLOAD SWAP1 PUSH2 0x100 EXP SWAP1 DIV PUSH20 0xFFFFFFFFFFFFFFFFFFFFFFFFFFFFFFFFFFFFFFFF AND PUSH20 0xFFFFFFFFFFFFFFFFFFFFFFFFFFFFFFFFFFFFFFFF AND PUSH4 0x40C10F19 CALLER DUP4 PUSH1 0x40 MLOAD DUP4 PUSH4 0xFFFFFFFF AND PUSH1 0xE0 SHL DUP2 MSTORE PUSH1 0x4 ADD PUSH2 0xACE SWAP3 SWAP2 SWAP1 PUSH2 0x183D JUMP JUMPDEST PUSH0 PUSH1 0x40 MLOAD DUP1 DUP4 SUB DUP2 PUSH0 DUP8 DUP1 EXTCODESIZE ISZERO DUP1 ISZERO PUSH2 0xAE5 JUMPI PUSH0 DUP1 REVERT JUMPDEST POP GAS CALL ISZERO DUP1 ISZERO PUSH2 0xAF7 JUMPI RETURNDATASIZE PUSH0 DUP1 RETURNDATACOPY RETURNDATASIZE PUSH0 REVERT JUMPDEST POP POP POP POP POP POP POP JUMP JUMPDEST PUSH32 0x0 DUP2 JUMP JUMPDEST PUSH2 0xB2C PUSH2 0x11D6 JUMP JUMPDEST PUSH2 0xB35 PUSH0 PUSH2 0x1306 JUMP JUMPDEST JUMP JUMPDEST PUSH1 0x2 PUSH1 0x20 MSTORE DUP1 PUSH0 MSTORE PUSH1 0x40 PUSH0 KECCAK256 PUSH0 SWAP2 POP SWAP1 POP SLOAD DUP2 JUMP JUMPDEST PUSH2 0xB54 PUSH2 0x11D6 JUMP JUMPDEST PUSH1 0x6 PUSH0 SWAP1 SLOAD SWAP1 PUSH2 0x100 EXP SWAP1 DIV PUSH20 0xFFFFFFFFFFFFFFFFFFFFFFFFFFFFFFFFFFFFFFFF AND PUSH20 0xFFFFFFFFFFFFFFFFFFFFFFFFFFFFFFFFFFFFFFFF AND PUSH4 0x40C10F19 DUP5 DUP5 PUSH1 0x40 MLOAD DUP4 PUSH4 0xFFFFFFFF AND PUSH1 0xE0 SHL DUP2 MSTORE PUSH1 0x4 ADD PUSH2 0xBB0 SWAP3 SWAP2 SWAP1 PUSH2 0x183D JUMP JUMPDEST PUSH0 PUSH1 0x40 MLOAD DUP1 DUP4 SUB DUP2 PUSH0 DUP8 DUP1 EXTCODESIZE ISZERO DUP1 ISZERO PUSH2 0xBC7 JUMPI PUSH0 DUP1 REVERT JUMPDEST POP GAS CALL ISZERO DUP1 ISZERO PUSH2 0xBD9 JUMPI RETURNDATASIZE PUSH0 DUP1 RETURNDATACOPY RETURNDATASIZE PUSH0 REVERT JUMPDEST POP POP POP POP PUSH1 0x7 PUSH0 SWAP1 SLOAD SWAP1 PUSH2 0x100 EXP SWAP1 DIV PUSH20 0xFFFFFFFFFFFFFFFFFFFFFFFFFFFFFFFFFFFFFFFF AND PUSH20 0xFFFFFFFFFFFFFFFFFFFFFFFFFFFFFFFFFFFFFFFF AND PUSH4 0x40C10F19 DUP5 DUP4 PUSH1 0x40 MLOAD DUP4 PUSH4 0xFFFFFFFF AND PUSH1 0xE0 SHL DUP2 MSTORE PUSH1 0x4 ADD PUSH2 0xC39 SWAP3 SWAP2 SWAP1 PUSH2 0x183D JUMP JUMPDEST PUSH0 PUSH1 0x40 MLOAD DUP1 DUP4 SUB DUP2 PUSH0 DUP8 DUP1 EXTCODESIZE ISZERO DUP1 ISZERO PUSH2 0xC50 JUMPI PUSH0 DUP1 REVERT JUMPDEST POP GAS CALL ISZERO DUP1 ISZERO PUSH2 0xC62 JUMPI RETURNDATASIZE PUSH0 DUP1 RETURNDATACOPY RETURNDATASIZE PUSH0 REVERT JUMPDEST POP POP POP POP POP POP POP JUMP JUMPDEST PUSH1 0x7 PUSH0 SWAP1 SLOAD SWAP1 PUSH2 0x100 EXP SWAP1 DIV PUSH20 0xFFFFFFFFFFFFFFFFFFFFFFFFFFFFFFFFFFFFFFFF AND DUP2 JUMP JUMPDEST PUSH0 DUP1 PUSH0 SWAP1 SLOAD SWAP1 PUSH2 0x100 EXP SWAP1 DIV PUSH20 0xFFFFFFFFFFFFFFFFFFFFFFFFFFFFFFFFFFFFFFFF AND SWAP1 POP SWAP1 JUMP JUMPDEST PUSH0 DUP2 GT PUSH2 0xCF9 JUMPI PUSH1 0x40 MLOAD PUSH32 0x8C379A000000000000000000000000000000000000000000000000000000000 DUP2 MSTORE PUSH1 0x4 ADD PUSH2 0xCF0 SWAP1 PUSH2 0x1A84 JUMP JUMPDEST PUSH1 0x40 MLOAD DUP1 SWAP2 SUB SWAP1 REVERT JUMPDEST PUSH0 PUSH2 0xD02 PUSH2 0x129D JUMP JUMPDEST SWAP1 POP PUSH0 PUSH8 0xDE0B6B3A7640000 DUP3 DUP5 PUSH2 0xD1A SWAP2 SWAP1 PUSH2 0x17CF JUMP JUMPDEST PUSH2 0xD24 SWAP2 SWAP1 PUSH2 0x1ACF JUMP JUMPDEST SWAP1 POP PUSH1 0x8 PUSH0 SWAP1 SLOAD SWAP1 PUSH2 0x100 EXP SWAP1 DIV PUSH20 0xFFFFFFFFFFFFFFFFFFFFFFFFFFFFFFFFFFFFFFFF AND PUSH20 0xFFFFFFFFFFFFFFFFFFFFFFFFFFFFFFFFFFFFFFFF AND PUSH4 0x79CC6790 CALLER DUP6 PUSH1 0x40 MLOAD DUP4 PUSH4 0xFFFFFFFF AND PUSH1 0xE0 SHL DUP2 MSTORE PUSH1 0x4 ADD PUSH2 0xD82 SWAP3 SWAP2 SWAP1 PUSH2 0x183D JUMP JUMPDEST PUSH0 PUSH1 0x40 MLOAD DUP1 DUP4 SUB DUP2 PUSH0 DUP8 DUP1 EXTCODESIZE ISZERO DUP1 ISZERO PUSH2 0xD99 JUMPI PUSH0 DUP1 REVERT JUMPDEST POP GAS CALL ISZERO DUP1 ISZERO PUSH2 0xDAB JUMPI RETURNDATASIZE PUSH0 DUP1 RETURNDATACOPY RETURNDATASIZE PUSH0 REVERT JUMPDEST POP POP POP POP PUSH1 0x7 PUSH0 SWAP1 SLOAD SWAP1 PUSH2 0x100 EXP SWAP1 DIV PUSH20 0xFFFFFFFFFFFFFFFFFFFFFFFFFFFFFFFFFFFFFFFF AND PUSH20 0xFFFFFFFFFFFFFFFFFFFFFFFFFFFFFFFFFFFFFFFF AND PUSH4 0x40C10F19 CALLER DUP4 PUSH1 0x40 MLOAD DUP4 PUSH4 0xFFFFFFFF AND PUSH1 0xE0 SHL DUP2 MSTORE PUSH1 0x4 ADD PUSH2 0xE0B SWAP3 SWAP2 SWAP1 PUSH2 0x183D JUMP JUMPDEST PUSH0 PUSH1 0x40 MLOAD DUP1 DUP4 SUB DUP2 PUSH0 DUP8 DUP1 EXTCODESIZE ISZERO DUP1 ISZERO PUSH2 0xE22 JUMPI PUSH0 DUP1 REVERT JUMPDEST POP GAS CALL ISZERO DUP1 ISZERO PUSH2 0xE34 JUMPI RETURNDATASIZE PUSH0 DUP1 RETURNDATACOPY RETURNDATASIZE PUSH0 REVERT JUMPDEST POP POP POP POP POP POP POP JUMP JUMPDEST PUSH1 0x6 PUSH0 SWAP1 SLOAD SWAP1 PUSH2 0x100 EXP SWAP1 DIV PUSH20 0xFFFFFFFFFFFFFFFFFFFFFFFFFFFFFFFFFFFFFFFF AND DUP2 JUMP JUMPDEST PUSH2 0xE6A PUSH2 0x11D6 JUMP JUMPDEST DUP4 PUSH1 0x6 PUSH0 PUSH2 0x100 EXP DUP2 SLOAD DUP2 PUSH20 0xFFFFFFFFFFFFFFFFFFFFFFFFFFFFFFFFFFFFFFFF MUL NOT AND SWAP1 DUP4 PUSH20 0xFFFFFFFFFFFFFFFFFFFFFFFFFFFFFFFFFFFFFFFF AND MUL OR SWAP1 SSTORE POP DUP3 PUSH1 0x7 PUSH0 PUSH2 0x100 EXP DUP2 SLOAD DUP2 PUSH20 0xFFFFFFFFFFFFFFFFFFFFFFFFFFFFFFFFFFFFFFFF MUL NOT AND SWAP1 DUP4 PUSH20 0xFFFFFFFFFFFFFFFFFFFFFFFFFFFFFFFFFFFFFFFF AND MUL OR SWAP1 SSTORE POP DUP2 PUSH1 0x8 PUSH0 PUSH2 0x100 EXP DUP2 SLOAD DUP2 PUSH20 0xFFFFFFFFFFFFFFFFFFFFFFFFFFFFFFFFFFFFFFFF MUL NOT AND SWAP1 DUP4 PUSH20 0xFFFFFFFFFFFFFFFFFFFFFFFFFFFFFFFFFFFFFFFF AND MUL OR SWAP1 SSTORE POP DUP1 PUSH1 0x9 PUSH0 PUSH2 0x100 EXP DUP2 SLOAD DUP2 PUSH20 0xFFFFFFFFFFFFFFFFFFFFFFFFFFFFFFFFFFFFFFFF MUL NOT AND SWAP1 DUP4 PUSH20 0xFFFFFFFFFFFFFFFFFFFFFFFFFFFFFFFFFFFFFFFF AND MUL OR SWAP1 SSTORE POP POP POP POP POP JUMP JUMPDEST PUSH1 0x9 PUSH0 SWAP1 SLOAD SWAP1 PUSH2 0x100 EXP SWAP1 DIV PUSH20 0xFFFFFFFFFFFFFFFFFFFFFFFFFFFFFFFFFFFFFFFF AND DUP2 JUMP JUMPDEST PUSH1 0x1 DUP3 SUB PUSH2 0xFD8 JUMPI PUSH1 0x40 MLOAD PUSH32 0x8C379A000000000000000000000000000000000000000000000000000000000 DUP2 MSTORE PUSH1 0x4 ADD PUSH2 0xFCF SWAP1 PUSH2 0x1B49 JUMP JUMPDEST PUSH1 0x40 MLOAD DUP1 SWAP2 SUB SWAP1 REVERT JUMPDEST PUSH0 DUP2 PUSH1 0x2 PUSH0 PUSH1 0x4 PUSH0 DUP8 DUP2 MSTORE PUSH1 0x20 ADD SWAP1 DUP2 MSTORE PUSH1 0x20 ADD PUSH0 KECCAK256 PUSH0 SWAP1 SLOAD SWAP1 PUSH2 0x100 EXP SWAP1 DIV PUSH1 0xFF AND PUSH1 0x5 DUP2 GT ISZERO PUSH2 0x100D JUMPI PUSH2 0x100C PUSH2 0x1810 JUMP JUMPDEST JUMPDEST PUSH1 0x5 DUP2 GT ISZERO PUSH2 0x101F JUMPI PUSH2 0x101E PUSH2 0x1810 JUMP JUMPDEST JUMPDEST DUP2 MSTORE PUSH1 0x20 ADD SWAP1 DUP2 MSTORE PUSH1 0x20 ADD PUSH0 KECCAK256 SLOAD PUSH2 0x1037 SWAP2 SWAP1 PUSH2 0x17CF JUMP JUMPDEST SWAP1 POP PUSH1 0x6 PUSH0 SWAP1 SLOAD SWAP1 PUSH2 0x100 EXP SWAP1 DIV PUSH20 0xFFFFFFFFFFFFFFFFFFFFFFFFFFFFFFFFFFFFFFFF AND PUSH20 0xFFFFFFFFFFFFFFFFFFFFFFFFFFFFFFFFFFFFFFFF AND PUSH4 0x40C10F19 CALLER DUP4 PUSH1 0x40 MLOAD DUP4 PUSH4 0xFFFFFFFF AND PUSH1 0xE0 SHL DUP2 MSTORE PUSH1 0x4 ADD PUSH2 0x1095 SWAP3 SWAP2 SWAP1 PUSH2 0x183D JUMP JUMPDEST PUSH0 PUSH1 0x40 MLOAD DUP1 DUP4 SUB DUP2 PUSH0 DUP8 DUP1 EXTCODESIZE ISZERO DUP1 ISZERO PUSH2 0x10AC JUMPI PUSH0 DUP1 REVERT JUMPDEST POP GAS CALL ISZERO DUP1 ISZERO PUSH2 0x10BE JUMPI RETURNDATASIZE PUSH0 DUP1 RETURNDATACOPY RETURNDATASIZE PUSH0 REVERT JUMPDEST POP POP POP POP PUSH1 0x9 PUSH0 SWAP1 SLOAD SWAP1 PUSH2 0x100 EXP SWAP1 DIV PUSH20 0xFFFFFFFFFFFFFFFFFFFFFFFFFFFFFFFFFFFFFFFF AND PUSH20 0xFFFFFFFFFFFFFFFFFFFFFFFFFFFFFFFFFFFFFFFF AND PUSH4 0xF5298ACA CALLER DUP6 DUP6 PUSH1 0x40 MLOAD DUP5 PUSH4 0xFFFFFFFF AND PUSH1 0xE0 SHL DUP2 MSTORE PUSH1 0x4 ADD PUSH2 0x1120 SWAP4 SWAP3 SWAP2 SWAP1 PUSH2 0x1B67 JUMP JUMPDEST PUSH0 PUSH1 0x40 MLOAD DUP1 DUP4 SUB DUP2 PUSH0 DUP8 DUP1 EXTCODESIZE ISZERO DUP1 ISZERO PUSH2 0x1137 JUMPI PUSH0 DUP1 REVERT JUMPDEST POP GAS CALL ISZERO DUP1 ISZERO PUSH2 0x1149 JUMPI RETURNDATASIZE PUSH0 DUP1 RETURNDATACOPY RETURNDATASIZE PUSH0 REVERT JUMPDEST POP POP POP POP POP POP POP JUMP JUMPDEST PUSH2 0x115A PUSH2 0x11D6 JUMP JUMPDEST PUSH0 PUSH20 0xFFFFFFFFFFFFFFFFFFFFFFFFFFFFFFFFFFFFFFFF AND DUP2 PUSH20 0xFFFFFFFFFFFFFFFFFFFFFFFFFFFFFFFFFFFFFFFF AND SUB PUSH2 0x11CA JUMPI PUSH0 PUSH1 0x40 MLOAD PUSH32 0x1E4FBDF700000000000000000000000000000000000000000000000000000000 DUP2 MSTORE PUSH1 0x4 ADD PUSH2 0x11C1 SWAP2 SWAP1 PUSH2 0x1688 JUMP JUMPDEST PUSH1 0x40 MLOAD DUP1 SWAP2 SUB SWAP1 REVERT JUMPDEST PUSH2 0x11D3 DUP2 PUSH2 0x1306 JUMP JUMPDEST POP JUMP JUMPDEST PUSH2 0x11DE PUSH2 0x13C7 JUMP JUMPDEST PUSH20 0xFFFFFFFFFFFFFFFFFFFFFFFFFFFFFFFFFFFFFFFF AND PUSH2 0x11FC PUSH2 0xC90 JUMP JUMPDEST PUSH20 0xFFFFFFFFFFFFFFFFFFFFFFFFFFFFFFFFFFFFFFFF AND EQ PUSH2 0x125B JUMPI PUSH2 0x121F PUSH2 0x13C7 JUMP JUMPDEST PUSH1 0x40 MLOAD PUSH32 0x118CDAA700000000000000000000000000000000000000000000000000000000 DUP2 MSTORE PUSH1 0x4 ADD PUSH2 0x1252 SWAP2 SWAP1 PUSH2 0x1688 JUMP JUMPDEST PUSH1 0x40 MLOAD DUP1 SWAP2 SUB SWAP1 REVERT JUMPDEST JUMP JUMPDEST PUSH0 DUP2 TIMESTAMP PREVRANDAO CALLER PUSH1 0x40 MLOAD PUSH1 0x20 ADD PUSH2 0x1274 SWAP4 SWAP3 SWAP2 SWAP1 PUSH2 0x1B9C JUMP JUMPDEST PUSH1 0x40 MLOAD PUSH1 0x20 DUP2 DUP4 SUB SUB DUP2 MSTORE SWAP1 PUSH1 0x40 MSTORE DUP1 MLOAD SWAP1 PUSH1 0x20 ADD KECCAK256 PUSH0 SHR PUSH2 0x1296 SWAP2 SWAP1 PUSH2 0x1BD1 JUMP JUMPDEST SWAP1 POP SWAP2 SWAP1 POP JUMP JUMPDEST PUSH0 DUP1 PUSH8 0xDE0B6B3A7640000 PUSH1 0x1 PUSH2 0x12B4 SWAP2 SWAP1 PUSH2 0x17CF JUMP JUMPDEST SWAP1 POP PUSH0 PUSH3 0xF4240 SWAP1 POP DUP1 PUSH32 0x0 TIMESTAMP PUSH2 0x12EA SWAP2 SWAP1 PUSH2 0x1C01 JUMP JUMPDEST PUSH2 0x12F4 SWAP2 SWAP1 PUSH2 0x17CF JUMP JUMPDEST DUP3 PUSH2 0x12FF SWAP2 SWAP1 PUSH2 0x1C34 JUMP JUMPDEST SWAP3 POP POP POP SWAP1 JUMP JUMPDEST PUSH0 DUP1 PUSH0 SWAP1 SLOAD SWAP1 PUSH2 0x100 EXP SWAP1 DIV PUSH20 0xFFFFFFFFFFFFFFFFFFFFFFFFFFFFFFFFFFFFFFFF AND SWAP1 POP DUP2 PUSH0 DUP1 PUSH2 0x100 EXP DUP2 SLOAD DUP2 PUSH20 0xFFFFFFFFFFFFFFFFFFFFFFFFFFFFFFFFFFFFFFFF MUL NOT AND SWAP1 DUP4 PUSH20 0xFFFFFFFFFFFFFFFFFFFFFFFFFFFFFFFFFFFFFFFF AND MUL OR SWAP1 SSTORE POP DUP2 PUSH20 0xFFFFFFFFFFFFFFFFFFFFFFFFFFFFFFFFFFFFFFFF AND DUP2 PUSH20 0xFFFFFFFFFFFFFFFFFFFFFFFFFFFFFFFFFFFFFFFF AND PUSH32 0x8BE0079C531659141344CD1FD0A4F28419497F9722A3DAAFE3B4186F6B6457E0 PUSH1 0x40 MLOAD PUSH1 0x40 MLOAD DUP1 SWAP2 SUB SWAP1 LOG3 POP POP JUMP JUMPDEST PUSH0 CALLER SWAP1 POP SWAP1 JUMP JUMPDEST PUSH0 DUP1 REVERT JUMPDEST PUSH0 DUP2 SWAP1 POP SWAP2 SWAP1 POP JUMP JUMPDEST PUSH2 0x13E4 DUP2 PUSH2 0x13D2 JUMP JUMPDEST DUP2 EQ PUSH2 0x13EE JUMPI PUSH0 DUP1 REVERT JUMPDEST POP JUMP JUMPDEST PUSH0 DUP2 CALLDATALOAD SWAP1 POP PUSH2 0x13FF DUP2 PUSH2 0x13DB JUMP JUMPDEST SWAP3 SWAP2 POP POP JUMP JUMPDEST PUSH0 DUP1 PUSH1 0x40 DUP4 DUP6 SUB SLT ISZERO PUSH2 0x141B JUMPI PUSH2 0x141A PUSH2 0x13CE JUMP JUMPDEST JUMPDEST PUSH0 PUSH2 0x1428 DUP6 DUP3 DUP7 ADD PUSH2 0x13F1 JUMP JUMPDEST SWAP3 POP POP PUSH1 0x20 PUSH2 0x1439 DUP6 DUP3 DUP7 ADD PUSH2 0x13F1 JUMP JUMPDEST SWAP2 POP POP SWAP3 POP SWAP3 SWAP1 POP JUMP JUMPDEST PUSH1 0x6 DUP2 LT PUSH2 0x144F JUMPI PUSH0 DUP1 REVERT JUMPDEST POP JUMP JUMPDEST PUSH0 DUP2 CALLDATALOAD SWAP1 POP PUSH2 0x1460 DUP2 PUSH2 0x1443 JUMP JUMPDEST SWAP3 SWAP2 POP POP JUMP JUMPDEST PUSH0 DUP1 PUSH1 0x40 DUP4 DUP6 SUB SLT ISZERO PUSH2 0x147C JUMPI PUSH2 0x147B PUSH2 0x13CE JUMP JUMPDEST JUMPDEST PUSH0 PUSH2 0x1489 DUP6 DUP3 DUP7 ADD PUSH2 0x13F1 JUMP JUMPDEST SWAP3 POP POP PUSH1 0x20 PUSH2 0x149A DUP6 DUP3 DUP7 ADD PUSH2 0x1452 JUMP JUMPDEST SWAP2 POP POP SWAP3 POP SWAP3 SWAP1 POP JUMP JUMPDEST PUSH0 PUSH20 0xFFFFFFFFFFFFFFFFFFFFFFFFFFFFFFFFFFFFFFFF DUP3 AND SWAP1 POP SWAP2 SWAP1 POP JUMP JUMPDEST PUSH0 DUP2 SWAP1 POP SWAP2 SWAP1 POP JUMP JUMPDEST PUSH0 PUSH2 0x14E6 PUSH2 0x14E1 PUSH2 0x14DC DUP5 PUSH2 0x14A4 JUMP JUMPDEST PUSH2 0x14C3 JUMP JUMPDEST PUSH2 0x14A4 JUMP JUMPDEST SWAP1 POP SWAP2 SWAP1 POP JUMP JUMPDEST PUSH0 PUSH2 0x14F7 DUP3 PUSH2 0x14CC JUMP JUMPDEST SWAP1 POP SWAP2 SWAP1 POP JUMP JUMPDEST PUSH0 PUSH2 0x1508 DUP3 PUSH2 0x14ED JUMP JUMPDEST SWAP1 POP SWAP2 SWAP1 POP JUMP JUMPDEST PUSH2 0x1518 DUP2 PUSH2 0x14FE JUMP JUMPDEST DUP3 MSTORE POP POP JUMP JUMPDEST PUSH0 PUSH1 0x20 DUP3 ADD SWAP1 POP PUSH2 0x1531 PUSH0 DUP4 ADD DUP5 PUSH2 0x150F JUMP JUMPDEST SWAP3 SWAP2 POP POP JUMP JUMPDEST PUSH2 0x1540 DUP2 PUSH2 0x13D2 JUMP JUMPDEST DUP3 MSTORE POP POP JUMP JUMPDEST PUSH0 PUSH1 0x20 DUP3 ADD SWAP1 POP PUSH2 0x1559 PUSH0 DUP4 ADD DUP5 PUSH2 0x1537 JUMP JUMPDEST SWAP3 SWAP2 POP POP JUMP JUMPDEST PUSH0 PUSH1 0x20 DUP3 DUP5 SUB SLT ISZERO PUSH2 0x1574 JUMPI PUSH2 0x1573 PUSH2 0x13CE JUMP JUMPDEST JUMPDEST PUSH0 PUSH2 0x1581 DUP5 DUP3 DUP6 ADD PUSH2 0x1452 JUMP JUMPDEST SWAP2 POP POP SWAP3 SWAP2 POP POP JUMP JUMPDEST PUSH0 PUSH1 0x20 DUP3 DUP5 SUB SLT ISZERO PUSH2 0x159F JUMPI PUSH2 0x159E PUSH2 0x13CE JUMP JUMPDEST JUMPDEST PUSH0 PUSH2 0x15AC DUP5 DUP3 DUP6 ADD PUSH2 0x13F1 JUMP JUMPDEST SWAP2 POP POP SWAP3 SWAP2 POP POP JUMP JUMPDEST PUSH0 PUSH2 0x15BF DUP3 PUSH2 0x14A4 JUMP JUMPDEST SWAP1 POP SWAP2 SWAP1 POP JUMP JUMPDEST PUSH2 0x15CF DUP2 PUSH2 0x15B5 JUMP JUMPDEST DUP2 EQ PUSH2 0x15D9 JUMPI PUSH0 DUP1 REVERT JUMPDEST POP JUMP JUMPDEST PUSH0 DUP2 CALLDATALOAD SWAP1 POP PUSH2 0x15EA DUP2 PUSH2 0x15C6 JUMP JUMPDEST SWAP3 SWAP2 POP POP JUMP JUMPDEST PUSH0 DUP1 PUSH0 PUSH1 0x60 DUP5 DUP7 SUB SLT ISZERO PUSH2 0x1607 JUMPI PUSH2 0x1606 PUSH2 0x13CE JUMP JUMPDEST JUMPDEST PUSH0 PUSH2 0x1614 DUP7 DUP3 DUP8 ADD PUSH2 0x15DC JUMP JUMPDEST SWAP4 POP POP PUSH1 0x20 PUSH2 0x1625 DUP7 DUP3 DUP8 ADD PUSH2 0x13F1 JUMP JUMPDEST SWAP3 POP POP PUSH1 0x40 PUSH2 0x1636 DUP7 DUP3 DUP8 ADD PUSH2 0x13F1 JUMP JUMPDEST SWAP2 POP POP SWAP3 POP SWAP3 POP SWAP3 JUMP JUMPDEST PUSH0 PUSH2 0x164A DUP3 PUSH2 0x14ED JUMP JUMPDEST SWAP1 POP SWAP2 SWAP1 POP JUMP JUMPDEST PUSH2 0x165A DUP2 PUSH2 0x1640 JUMP JUMPDEST DUP3 MSTORE POP POP JUMP JUMPDEST PUSH0 PUSH1 0x20 DUP3 ADD SWAP1 POP PUSH2 0x1673 PUSH0 DUP4 ADD DUP5 PUSH2 0x1651 JUMP JUMPDEST SWAP3 SWAP2 POP POP JUMP JUMPDEST PUSH2 0x1682 DUP2 PUSH2 0x15B5 JUMP JUMPDEST DUP3 MSTORE POP POP JUMP JUMPDEST PUSH0 PUSH1 0x20 DUP3 ADD SWAP1 POP PUSH2 0x169B PUSH0 DUP4 ADD DUP5 PUSH2 0x1679 JUMP JUMPDEST SWAP3 SWAP2 POP POP JUMP JUMPDEST PUSH0 PUSH2 0x16AB DUP3 PUSH2 0x14ED JUMP JUMPDEST SWAP1 POP SWAP2 SWAP1 POP JUMP JUMPDEST PUSH2 0x16BB DUP2 PUSH2 0x16A1 JUMP JUMPDEST DUP3 MSTORE POP POP JUMP JUMPDEST PUSH0 PUSH1 0x20 DUP3 ADD SWAP1 POP PUSH2 0x16D4 PUSH0 DUP4 ADD DUP5 PUSH2 0x16B2 JUMP JUMPDEST SWAP3 SWAP2 POP POP JUMP JUMPDEST PUSH0 DUP1 PUSH0 DUP1 PUSH1 0x80 DUP6 DUP8 SUB SLT ISZERO PUSH2 0x16F2 JUMPI PUSH2 0x16F1 PUSH2 0x13CE JUMP JUMPDEST JUMPDEST PUSH0 PUSH2 0x16FF DUP8 DUP3 DUP9 ADD PUSH2 0x15DC JUMP JUMPDEST SWAP5 POP POP PUSH1 0x20 PUSH2 0x1710 DUP8 DUP3 DUP9 ADD PUSH2 0x15DC JUMP JUMPDEST SWAP4 POP POP PUSH1 0x40 PUSH2 0x1721 DUP8 DUP3 DUP9 ADD PUSH2 0x15DC JUMP JUMPDEST SWAP3 POP POP PUSH1 0x60 PUSH2 0x1732 DUP8 DUP3 DUP9 ADD PUSH2 0x15DC JUMP JUMPDEST SWAP2 POP POP SWAP3 SWAP6 SWAP2 SWAP5 POP SWAP3 POP JUMP JUMPDEST PUSH0 PUSH2 0x1748 DUP3 PUSH2 0x14ED JUMP JUMPDEST SWAP1 POP SWAP2 SWAP1 POP JUMP JUMPDEST PUSH2 0x1758 DUP2 PUSH2 0x173E JUMP JUMPDEST DUP3 MSTORE POP POP JUMP JUMPDEST PUSH0 PUSH1 0x20 DUP3 ADD SWAP1 POP PUSH2 0x1771 PUSH0 DUP4 ADD DUP5 PUSH2 0x174F JUMP JUMPDEST SWAP3 SWAP2 POP POP JUMP JUMPDEST PUSH0 PUSH1 0x20 DUP3 DUP5 SUB SLT ISZERO PUSH2 0x178C JUMPI PUSH2 0x178B PUSH2 0x13CE JUMP JUMPDEST JUMPDEST PUSH0 PUSH2 0x1799 DUP5 DUP3 DUP6 ADD PUSH2 0x15DC JUMP JUMPDEST SWAP2 POP POP SWAP3 SWAP2 POP POP JUMP JUMPDEST PUSH32 0x4E487B7100000000000000000000000000000000000000000000000000000000 PUSH0 MSTORE PUSH1 0x11 PUSH1 0x4 MSTORE PUSH1 0x24 PUSH0 REVERT JUMPDEST PUSH0 PUSH2 0x17D9 DUP3 PUSH2 0x13D2 JUMP JUMPDEST SWAP2 POP PUSH2 0x17E4 DUP4 PUSH2 0x13D2 JUMP JUMPDEST SWAP3 POP DUP3 DUP3 MUL PUSH2 0x17F2 DUP2 PUSH2 0x13D2 JUMP JUMPDEST SWAP2 POP DUP3 DUP3 DIV DUP5 EQ DUP4 ISZERO OR PUSH2 0x1809 JUMPI PUSH2 0x1808 PUSH2 0x17A2 JUMP JUMPDEST JUMPDEST POP SWAP3 SWAP2 POP POP JUMP JUMPDEST PUSH32 0x4E487B7100000000000000000000000000000000000000000000000000000000 PUSH0 MSTORE PUSH1 0x21 PUSH1 0x4 MSTORE PUSH1 0x24 PUSH0 REVERT JUMPDEST PUSH0 PUSH1 0x40 DUP3 ADD SWAP1 POP PUSH2 0x1850 PUSH0 DUP4 ADD DUP6 PUSH2 0x1679 JUMP JUMPDEST PUSH2 0x185D PUSH1 0x20 DUP4 ADD DUP5 PUSH2 0x1537 JUMP JUMPDEST SWAP4 SWAP3 POP POP POP JUMP JUMPDEST PUSH0 DUP3 DUP3 MSTORE PUSH1 0x20 DUP3 ADD SWAP1 POP SWAP3 SWAP2 POP POP JUMP JUMPDEST POP JUMP JUMPDEST PUSH0 PUSH2 0x1882 PUSH0 DUP4 PUSH2 0x1864 JUMP JUMPDEST SWAP2 POP PUSH2 0x188D DUP3 PUSH2 0x1874 JUMP JUMPDEST PUSH0 DUP3 ADD SWAP1 POP SWAP2 SWAP1 POP JUMP JUMPDEST PUSH0 PUSH1 0x80 DUP3 ADD SWAP1 POP PUSH2 0x18AA PUSH0 DUP4 ADD DUP7 PUSH2 0x1679 JUMP JUMPDEST PUSH2 0x18B7 PUSH1 0x20 DUP4 ADD DUP6 PUSH2 0x1537 JUMP JUMPDEST PUSH2 0x18C4 PUSH1 0x40 DUP4 ADD DUP5 PUSH2 0x1537 JUMP JUMPDEST DUP2 DUP2 SUB PUSH1 0x60 DUP4 ADD MSTORE PUSH2 0x18D5 DUP2 PUSH2 0x1877 JUMP JUMPDEST SWAP1 POP SWAP5 SWAP4 POP POP POP POP JUMP JUMPDEST PUSH0 DUP3 DUP3 MSTORE PUSH1 0x20 DUP3 ADD SWAP1 POP SWAP3 SWAP2 POP POP JUMP JUMPDEST PUSH32 0x4E6F206974656D7320696E20746865206C697374207965742E00000000000000 PUSH0 DUP3 ADD MSTORE POP JUMP JUMPDEST PUSH0 PUSH2 0x1923 PUSH1 0x19 DUP4 PUSH2 0x18DF JUMP JUMPDEST SWAP2 POP PUSH2 0x192E DUP3 PUSH2 0x18EF JUMP JUMPDEST PUSH1 0x20 DUP3 ADD SWAP1 POP SWAP2 SWAP1 POP JUMP JUMPDEST PUSH0 PUSH1 0x20 DUP3 ADD SWAP1 POP DUP2 DUP2 SUB PUSH0 DUP4 ADD MSTORE PUSH2 0x1950 DUP2 PUSH2 0x1917 JUMP JUMPDEST SWAP1 POP SWAP2 SWAP1 POP JUMP JUMPDEST PUSH32 0x4E487B7100000000000000000000000000000000000000000000000000000000 PUSH0 MSTORE PUSH1 0x32 PUSH1 0x4 MSTORE PUSH1 0x24 PUSH0 REVERT JUMPDEST PUSH0 DUP2 SWAP1 POP SWAP2 SWAP1 POP JUMP JUMPDEST PUSH0 PUSH2 0x19A7 PUSH2 0x19A2 PUSH2 0x199D DUP5 PUSH2 0x1984 JUMP JUMPDEST PUSH2 0x14C3 JUMP JUMPDEST PUSH2 0x13D2 JUMP JUMPDEST SWAP1 POP SWAP2 SWAP1 POP JUMP JUMPDEST PUSH2 0x19B7 DUP2 PUSH2 0x198D JUMP JUMPDEST DUP3 MSTORE POP POP JUMP JUMPDEST PUSH0 PUSH1 0x60 DUP3 ADD SWAP1 POP PUSH2 0x19D0 PUSH0 DUP4 ADD DUP7 PUSH2 0x1679 JUMP JUMPDEST PUSH2 0x19DD PUSH1 0x20 DUP4 ADD DUP6 PUSH2 0x19AE JUMP JUMPDEST PUSH2 0x19EA PUSH1 0x40 DUP4 ADD DUP5 PUSH2 0x19AE JUMP JUMPDEST SWAP5 SWAP4 POP POP POP POP JUMP JUMPDEST PUSH0 PUSH1 0x80 DUP3 ADD SWAP1 POP PUSH2 0x1A05 PUSH0 DUP4 ADD DUP7 PUSH2 0x1679 JUMP JUMPDEST PUSH2 0x1A12 PUSH1 0x20 DUP4 ADD DUP6 PUSH2 0x1537 JUMP JUMPDEST PUSH2 0x1A1F PUSH1 0x40 DUP4 ADD DUP5 PUSH2 0x19AE JUMP JUMPDEST DUP2 DUP2 SUB PUSH1 0x60 DUP4 ADD MSTORE PUSH2 0x1A30 DUP2 PUSH2 0x1877 JUMP JUMPDEST SWAP1 POP SWAP5 SWAP4 POP POP POP POP JUMP JUMPDEST PUSH32 0x4D7573742062652067726561746572207468616E20302E000000000000000000 PUSH0 DUP3 ADD MSTORE POP JUMP JUMPDEST PUSH0 PUSH2 0x1A6E PUSH1 0x17 DUP4 PUSH2 0x18DF JUMP JUMPDEST SWAP2 POP PUSH2 0x1A79 DUP3 PUSH2 0x1A3A JUMP JUMPDEST PUSH1 0x20 DUP3 ADD SWAP1 POP SWAP2 SWAP1 POP JUMP JUMPDEST PUSH0 PUSH1 0x20 DUP3 ADD SWAP1 POP DUP2 DUP2 SUB PUSH0 DUP4 ADD MSTORE PUSH2 0x1A9B DUP2 PUSH2 0x1A62 JUMP JUMPDEST SWAP1 POP SWAP2 SWAP1 POP JUMP JUMPDEST PUSH32 0x4E487B7100000000000000000000000000000000000000000000000000000000 PUSH0 MSTORE PUSH1 0x12 PUSH1 0x4 MSTORE PUSH1 0x24 PUSH0 REVERT JUMPDEST PUSH0 PUSH2 0x1AD9 DUP3 PUSH2 0x13D2 JUMP JUMPDEST SWAP2 POP PUSH2 0x1AE4 DUP4 PUSH2 0x13D2 JUMP JUMPDEST SWAP3 POP DUP3 PUSH2 0x1AF4 JUMPI PUSH2 0x1AF3 PUSH2 0x1AA2 JUMP JUMPDEST JUMPDEST DUP3 DUP3 DIV SWAP1 POP SWAP3 SWAP2 POP POP JUMP JUMPDEST PUSH32 0x4368657374732063616E6E6F7420626520646973656E6368616E746564000000 PUSH0 DUP3 ADD MSTORE POP JUMP JUMPDEST PUSH0 PUSH2 0x1B33 PUSH1 0x1D DUP4 PUSH2 0x18DF JUMP JUMPDEST SWAP2 POP PUSH2 0x1B3E DUP3 PUSH2 0x1AFF JUMP JUMPDEST PUSH1 0x20 DUP3 ADD SWAP1 POP SWAP2 SWAP1 POP JUMP JUMPDEST PUSH0 PUSH1 0x20 DUP3 ADD SWAP1 POP DUP2 DUP2 SUB PUSH0 DUP4 ADD MSTORE PUSH2 0x1B60 DUP2 PUSH2 0x1B27 JUMP JUMPDEST SWAP1 POP SWAP2 SWAP1 POP JUMP JUMPDEST PUSH0 PUSH1 0x60 DUP3 ADD SWAP1 POP PUSH2 0x1B7A PUSH0 DUP4 ADD DUP7 PUSH2 0x1679 JUMP JUMPDEST PUSH2 0x1B87 PUSH1 0x20 DUP4 ADD DUP6 PUSH2 0x1537 JUMP JUMPDEST PUSH2 0x1B94 PUSH1 0x40 DUP4 ADD DUP5 PUSH2 0x1537 JUMP JUMPDEST SWAP5 SWAP4 POP POP POP POP JUMP JUMPDEST PUSH0 PUSH1 0x60 DUP3 ADD SWAP1 POP PUSH2 0x1BAF PUSH0 DUP4 ADD DUP7 PUSH2 0x1537 JUMP JUMPDEST PUSH2 0x1BBC PUSH1 0x20 DUP4 ADD DUP6 PUSH2 0x1537 JUMP JUMPDEST PUSH2 0x1BC9 PUSH1 0x40 DUP4 ADD DUP5 PUSH2 0x1679 JUMP JUMPDEST SWAP5 SWAP4 POP POP POP POP JUMP JUMPDEST PUSH0 PUSH2 0x1BDB DUP3 PUSH2 0x13D2 JUMP JUMPDEST SWAP2 POP PUSH2 0x1BE6 DUP4 PUSH2 0x13D2 JUMP JUMPDEST SWAP3 POP DUP3 PUSH2 0x1BF6 JUMPI PUSH2 0x1BF5 PUSH2 0x1AA2 JUMP JUMPDEST JUMPDEST DUP3 DUP3 MOD SWAP1 POP SWAP3 SWAP2 POP POP JUMP JUMPDEST PUSH0 PUSH2 0x1C0B DUP3 PUSH2 0x13D2 JUMP JUMPDEST SWAP2 POP PUSH2 0x1C16 DUP4 PUSH2 0x13D2 JUMP JUMPDEST SWAP3 POP DUP3 DUP3 SUB SWAP1 POP DUP2 DUP2 GT ISZERO PUSH2 0x1C2E JUMPI PUSH2 0x1C2D PUSH2 0x17A2 JUMP JUMPDEST JUMPDEST SWAP3 SWAP2 POP POP JUMP JUMPDEST PUSH0 PUSH2 0x1C3E DUP3 PUSH2 0x13D2 JUMP JUMPDEST SWAP2 POP PUSH2 0x1C49 DUP4 PUSH2 0x13D2 JUMP JUMPDEST SWAP3 POP DUP3 DUP3 ADD SWAP1 POP DUP1 DUP3 GT ISZERO PUSH2 0x1C61 JUMPI PUSH2 0x1C60 PUSH2 0x17A2 JUMP JUMPDEST JUMPDEST SWAP3 SWAP2 POP POP JUMP INVALID LOG2 PUSH5 0x6970667358 0x22 SLT KECCAK256 SWAP11 0xAD 0xED ISZERO STOP PUSH28 0x76CEE2FDB99B7BCFFB2CB171957E1E73FBA91CABCD2A243964F36473 PUSH16 0x6C634300081400330000000000000000 "
		},
		"gasEstimates": {
			"creation": {
				"codeDepositCost": "1465000",
				"executionCost": "infinite",
				"totalCost": "infinite"
			},
			"external": {
				"addItem(uint256,uint8)": "infinite",
				"claimRewards(address,uint256,uint256)": "infinite",
				"craftEcrPrice()": "2448",
				"craftItem(uint256,uint256)": "infinite",
				"craftPrice(uint8)": "2757",
				"deployTimestamp()": "infinite",
				"disenchantItem(uint256,uint256)": "infinite",
				"disenchantReward(uint8)": "2735",
				"ecrToken()": "infinite",
				"eesToken()": "infinite",
				"energize(uint256)": "infinite",
				"escrToken()": "infinite",
				"items()": "infinite",
				"owner()": "2604",
				"renounceOwnership()": "infinite",
				"setContracts(address,address,address,address)": "infinite",
				"solidify(uint256)": "infinite",
				"transferOwnership(address)": "infinite",
				"unlockChest()": "infinite"
			},
			"internal": {
				"_enrgValue()": "infinite",
				"_randomNumber(uint256)": "infinite"
			}
		},
		"methodIdentifiers": {
			"addItem(uint256,uint8)": "2626955e",
			"claimRewards(address,uint256,uint256)": "7ca35209",
			"craftEcrPrice()": "49f6e01c",
			"craftItem(uint256,uint256)": "24046e5b",
			"craftPrice(uint8)": "59501a4c",
			"deployTimestamp()": "607ad0d7",
			"disenchantItem(uint256,uint256)": "c6cb066d",
			"disenchantReward(uint8)": "793c0aaa",
			"ecrToken()": "8168528d",
			"eesToken()": "9f02ab38",
			"energize(uint256)": "5fbbd62b",
			"escrToken()": "30a66b57",
			"items()": "c06fad06",
			"owner()": "8da5cb5b",
			"renounceOwnership()": "715018a6",
			"setContracts(address,address,address,address)": "bf989b6e",
			"solidify(uint256)": "98da7217",
			"transferOwnership(address)": "f2fde38b",
			"unlockChest()": "37afd167"
		}
	},
	"abi": [
		{
			"inputs": [
				{
					"internalType": "address",
					"name": "initialOwner",
					"type": "address"
				}
			],
			"stateMutability": "nonpayable",
			"type": "constructor"
		},
		{
			"inputs": [
				{
					"internalType": "address",
					"name": "owner",
					"type": "address"
				}
			],
			"name": "OwnableInvalidOwner",
			"type": "error"
		},
		{
			"inputs": [
				{
					"internalType": "address",
					"name": "account",
					"type": "address"
				}
			],
			"name": "OwnableUnauthorizedAccount",
			"type": "error"
		},
		{
			"anonymous": false,
			"inputs": [
				{
					"indexed": true,
					"internalType": "address",
					"name": "previousOwner",
					"type": "address"
				},
				{
					"indexed": true,
					"internalType": "address",
					"name": "newOwner",
					"type": "address"
				}
			],
			"name": "OwnershipTransferred",
			"type": "event"
		},
		{
			"anonymous": false,
			"inputs": [
				{
					"indexed": true,
					"internalType": "address",
					"name": "player",
					"type": "address"
				},
				{
					"indexed": false,
					"internalType": "uint256",
					"name": "id",
					"type": "uint256"
				}
			],
			"name": "RandomItem",
			"type": "event"
		},
		{
			"inputs": [
				{
					"internalType": "uint256",
					"name": "id",
					"type": "uint256"
				},
				{
					"internalType": "enum Game.Rarity",
					"name": "rarity",
					"type": "uint8"
				}
			],
			"name": "addItem",
			"outputs": [],
			"stateMutability": "nonpayable",
			"type": "function"
		},
		{
			"inputs": [
				{
					"internalType": "address",
					"name": "player",
					"type": "address"
				},
				{
					"internalType": "uint256",
					"name": "eesAmount",
					"type": "uint256"
				},
				{
					"internalType": "uint256",
					"name": "ecrAmount",
					"type": "uint256"
				}
			],
			"name": "claimRewards",
			"outputs": [],
			"stateMutability": "nonpayable",
			"type": "function"
		},
		{
			"inputs": [],
			"name": "craftEcrPrice",
			"outputs": [
				{
					"internalType": "uint256",
					"name": "",
					"type": "uint256"
				}
			],
			"stateMutability": "view",
			"type": "function"
		},
		{
			"inputs": [
				{
					"internalType": "uint256",
					"name": "id",
					"type": "uint256"
				},
				{
					"internalType": "uint256",
					"name": "amount",
					"type": "uint256"
				}
			],
			"name": "craftItem",
			"outputs": [],
			"stateMutability": "nonpayable",
			"type": "function"
		},
		{
			"inputs": [
				{
					"internalType": "enum Game.Rarity",
					"name": "",
					"type": "uint8"
				}
			],
			"name": "craftPrice",
			"outputs": [
				{
					"internalType": "uint256",
					"name": "",
					"type": "uint256"
				}
			],
			"stateMutability": "view",
			"type": "function"
		},
		{
			"inputs": [],
			"name": "deployTimestamp",
			"outputs": [
				{
					"internalType": "uint256",
					"name": "",
					"type": "uint256"
				}
			],
			"stateMutability": "view",
			"type": "function"
		},
		{
			"inputs": [
				{
					"internalType": "uint256",
					"name": "id",
					"type": "uint256"
				},
				{
					"internalType": "uint256",
					"name": "amount",
					"type": "uint256"
				}
			],
			"name": "disenchantItem",
			"outputs": [],
			"stateMutability": "nonpayable",
			"type": "function"
		},
		{
			"inputs": [
				{
					"internalType": "enum Game.Rarity",
					"name": "",
					"type": "uint8"
				}
			],
			"name": "disenchantReward",
			"outputs": [
				{
					"internalType": "uint256",
					"name": "",
					"type": "uint256"
				}
			],
			"stateMutability": "view",
			"type": "function"
		},
		{
			"inputs": [],
			"name": "ecrToken",
			"outputs": [
				{
					"internalType": "contract EthericCrystals",
					"name": "",
					"type": "address"
				}
			],
			"stateMutability": "view",
			"type": "function"
		},
		{
			"inputs": [],
			"name": "eesToken",
			"outputs": [
				{
					"internalType": "contract EthericEssence",
					"name": "",
					"type": "address"
				}
			],
			"stateMutability": "view",
			"type": "function"
		},
		{
			"inputs": [
				{
					"internalType": "uint256",
					"name": "ecrAmount",
					"type": "uint256"
				}
			],
			"name": "energize",
			"outputs": [],
			"stateMutability": "nonpayable",
			"type": "function"
		},
		{
			"inputs": [],
			"name": "escrToken",
			"outputs": [
				{
					"internalType": "contract EthericEnergy",
					"name": "",
					"type": "address"
				}
			],
			"stateMutability": "view",
			"type": "function"
		},
		{
			"inputs": [],
			"name": "items",
			"outputs": [
				{
					"internalType": "contract Items",
					"name": "",
					"type": "address"
				}
			],
			"stateMutability": "view",
			"type": "function"
		},
		{
			"inputs": [],
			"name": "owner",
			"outputs": [
				{
					"internalType": "address",
					"name": "",
					"type": "address"
				}
			],
			"stateMutability": "view",
			"type": "function"
		},
		{
			"inputs": [],
			"name": "renounceOwnership",
			"outputs": [],
			"stateMutability": "nonpayable",
			"type": "function"
		},
		{
			"inputs": [
				{
					"internalType": "address",
					"name": "eesAddress",
					"type": "address"
				},
				{
					"internalType": "address",
					"name": "ecrAddress",
					"type": "address"
				},
				{
					"internalType": "address",
					"name": "enrgAddress",
					"type": "address"
				},
				{
					"internalType": "address",
					"name": "itemsAddress",
					"type": "address"
				}
			],
			"name": "setContracts",
			"outputs": [],
			"stateMutability": "nonpayable",
			"type": "function"
		},
		{
			"inputs": [
				{
					"internalType": "uint256",
					"name": "enrgAmount",
					"type": "uint256"
				}
			],
			"name": "solidify",
			"outputs": [],
			"stateMutability": "nonpayable",
			"type": "function"
		},
		{
			"inputs": [
				{
					"internalType": "address",
					"name": "newOwner",
					"type": "address"
				}
			],
			"name": "transferOwnership",
			"outputs": [],
			"stateMutability": "nonpayable",
			"type": "function"
		},
		{
			"inputs": [],
			"name": "unlockChest",
			"outputs": [],
			"stateMutability": "nonpayable",
			"type": "function"
		}
	]
}