{
	"data": {
		"bytecode": {
			"linkReferences": {},
			"object": "6101406040526040518060400160405280670de0b6b3a7640000606462000027919062000776565b8152602001670de0b6b3a7640000606462000043919062000776565b81525060045f820151815f015560208201518160010155505034801562000068575f80fd5b50604051620097203803806200972083398181016040528101906200008e919062000825565b306040516200009d9062000708565b620000a9919062000866565b604051809103905ff080158015620000c3573d5f803e3d5ffd5b5073ffffffffffffffffffffffffffffffffffffffff1660c08173ffffffffffffffffffffffffffffffffffffffff168152505030604051620001069062000716565b62000112919062000866565b604051809103905ff0801580156200012c573d5f803e3d5ffd5b5073ffffffffffffffffffffffffffffffffffffffff1660e08173ffffffffffffffffffffffffffffffffffffffff1681525050306040516200016f9062000724565b6200017b919062000866565b604051809103905ff08015801562000195573d5f803e3d5ffd5b5073ffffffffffffffffffffffffffffffffffffffff166101008173ffffffffffffffffffffffffffffffffffffffff168152505030604051620001d99062000732565b620001e5919062000866565b604051809103905ff080158015620001ff573d5f803e3d5ffd5b5073ffffffffffffffffffffffffffffffffffffffff166101208173ffffffffffffffffffffffffffffffffffffffff16815250506040518060400160405280670de0b6b3a764000060c862000256919062000776565b8152602001670de0b6b3a764000060c862000272919062000776565b8152505f80600160058111156200028e576200028d62000881565b5b6005811115620002a357620002a262000881565b5b81526020019081526020015f205f820151815f0155602082015181600101559050506040518060400160405280670de0b6b3a7640000610320620002e8919062000776565b8152602001670de0b6b3a764000061019062000305919062000776565b8152505f806002600581111562000321576200032062000881565b5b600581111562000336576200033562000881565b5b81526020019081526020015f205f820151815f0155602082015181600101559050506040518060400160405280670de0b6b3a7640000610c806200037b919062000776565b8152602001670de0b6b3a764000061025862000398919062000776565b8152505f8060036005811115620003b457620003b362000881565b5b6005811115620003c957620003c862000881565b5b81526020019081526020015f205f820151815f0155602082015181600101559050506040518060400160405280670de0b6b3a76400006132006200040e919062000776565b8152602001670de0b6b3a76400006103206200042b919062000776565b8152505f806004600581111562000447576200044662000881565b5b60058111156200045c576200045b62000881565b5b81526020019081526020015f205f820151815f0155602082015181600101559050506040518060400160405280670de0b6b3a764000061c800620004a1919062000776565b8152602001670de0b6b3a76400006103e8620004be919062000776565b8152505f80600580811115620004d957620004d862000881565b5b6005811115620004ee57620004ed62000881565b5b81526020019081526020015f205f820151815f015560208201518160010155905050670de0b6b3a7640000601462000527919062000776565b60015f6001600581111562000541576200054062000881565b5b600581111562000556576200055562000881565b5b81526020019081526020015f2081905550670de0b6b3a764000060506200057e919062000776565b60015f6002600581111562000598576200059762000881565b5b6005811115620005ad57620005ac62000881565b5b81526020019081526020015f2081905550670de0b6b3a7640000610140620005d6919062000776565b60015f60036005811115620005f057620005ef62000881565b5b600581111562000605576200060462000881565b5b81526020019081526020015f2081905550670de0b6b3a76400006105006200062e919062000776565b60015f6004600581111562000648576200064762000881565b5b60058111156200065d576200065c62000881565b5b81526020019081526020015f2081905550670de0b6b3a764000061140062000686919062000776565b60015f6005808111156200069f576200069e62000881565b5b6005811115620006b457620006b362000881565b5b81526020019081526020015f20819055508073ffffffffffffffffffffffffffffffffffffffff1660808173ffffffffffffffffffffffffffffffffffffffff16815250504260a0818152505050620008ae565b61151e806200263783390190565b6116e68062003b5583390190565b6116e6806200523b83390190565b612dff806200692183390190565b5f819050919050565b7f4e487b71000000000000000000000000000000000000000000000000000000005f52601160045260245ffd5b5f620007828262000740565b91506200078f8362000740565b92508282026200079f8162000740565b91508282048414831517620007b957620007b862000749565b5b5092915050565b5f80fd5b5f73ffffffffffffffffffffffffffffffffffffffff82169050919050565b5f620007ef82620007c4565b9050919050565b6200080181620007e3565b81146200080c575f80fd5b50565b5f815190506200081f81620007f6565b92915050565b5f602082840312156200083d576200083c620007c0565b5b5f6200084c848285016200080f565b91505092915050565b6200086081620007e3565b82525050565b5f6020820190506200087b5f83018462000855565b92915050565b7f4e487b71000000000000000000000000000000000000000000000000000000005f52602160045260245ffd5b60805160a05160c05160e0516101005161012051611cd86200095f5f395f8181610505015281816108d30152818161095e01528181611033015261118701525f8181610b6801528181610e9d015261100f01525f818161047d01528181610ae001528181610d7d01528181610e0a0152610f2501525f81816103f501528181610cf501528181610feb01526110ff01525f8181610c2e01526112b301525f81816105ed0152610c7e0152611cd85ff3fe608060405234801561000f575f80fd5b50600436106100f3575f3560e01c8063793c0aaa116100955780639f02ab38116100645780639f02ab3814610249578063a6523bba14610267578063c06fad0614610285578063c6cb066d146102a3576100f3565b8063793c0aaa146101c35780637ca35209146101f35780638168528d1461020f57806398da72171461022d576100f3565b80634354ae46116100d15780634354ae461461013957806359501a4c146101585780635fbbd62b14610189578063607ad0d7146101a5576100f3565b806324046e5b146100f75780632626955e1461011357806337afd1671461012f575b5f80fd5b610111600480360381019061010c9190611348565b6102bf565b005b61012d600480360381019061012891906113a9565b6105d4565b005b61013761073a565b005b610141610a3f565b60405161014f9291906113f6565b60405180910390f35b610172600480360381019061016d919061141d565b610a50565b6040516101809291906113f6565b60405180910390f35b6101a3600480360381019061019e9190611448565b610a6f565b005b6101ad610c2c565b6040516101ba9190611473565b60405180910390f35b6101dd60048036038101906101d8919061141d565b610c50565b6040516101ea9190611473565b60405180910390f35b61020d600480360381019061020891906114e6565b610c65565b005b610217610e08565b6040516102249190611591565b60405180910390f35b61024760048036038101906102429190611448565b610e2c565b005b610251610fe9565b60405161025e91906115ca565b60405180910390f35b61026f61100d565b60405161027c9190611603565b60405180910390f35b61028d611031565b60405161029a919061163c565b60405180910390f35b6102bd60048036038101906102b89190611348565b611055565b005b6102c76112f9565b600183036102f65760046040518060400160405290815f82015481526020016001820154815250509050610368565b5f8060035f8681526020019081526020015f205f9054906101000a900460ff16600581111561032857610327611655565b5b600581111561033a57610339611655565b5b81526020019081526020015f206040518060400160405290815f820154815260200160018201548152505090505b5f815f015111801561037d57505f8160200151115b6103bc576040517f08c379a00000000000000000000000000000000000000000000000000000000081526004016103b3906116dc565b60405180910390fd5b5f82825f01516103cc9190611727565b90505f8383602001516103df9190611727565b90505f60405180602001604052805f81525090507f000000000000000000000000000000000000000000000000000000000000000073ffffffffffffffffffffffffffffffffffffffff166379cc679033856040518363ffffffff1660e01b815260040161044e929190611777565b5f604051808303815f87803b158015610465575f80fd5b505af1158015610477573d5f803e3d5ffd5b505050507f000000000000000000000000000000000000000000000000000000000000000073ffffffffffffffffffffffffffffffffffffffff166379cc679033846040518363ffffffff1660e01b81526004016104d6929190611777565b5f604051808303815f87803b1580156104ed575f80fd5b505af11580156104ff573d5f803e3d5ffd5b505050507f000000000000000000000000000000000000000000000000000000000000000073ffffffffffffffffffffffffffffffffffffffff1663731133e9338888856040518563ffffffff1660e01b81526004016105629493929190611828565b5f604051808303815f87803b158015610579575f80fd5b505af115801561058b573d5f803e3d5ffd5b505050507ff9035007e0d5906234d35ff6f44deffcc1c2708147250281b4c63a84638cbbb3838388886040516105c49493929190611872565b60405180910390a1505050505050565b3373ffffffffffffffffffffffffffffffffffffffff167f000000000000000000000000000000000000000000000000000000000000000073ffffffffffffffffffffffffffffffffffffffff1614610662576040517f08c379a0000000000000000000000000000000000000000000000000000000008152600401610659906118ff565b60405180910390fd5b600182036106a5576040517f08c379a000000000000000000000000000000000000000000000000000000000815260040161069c9061198d565b60405180910390fd5b8060035f8481526020019081526020015f205f6101000a81548160ff021916908360058111156106d8576106d7611655565b5b021790555060025f8260058111156106f3576106f2611655565b5b600581111561070557610704611655565b5b81526020019081526020015f2082908060018154018082558091505060019003905f5260205f20015f90919091909150555050565b5f6107466103e8611250565b90505f61032082101561075c57600190506107c7565b610320821015801561076f57506103b682105b1561077d57600290506107c6565b6103b7821015801561079057506103d482105b1561079e57600390506107c5565b6103d582101580156107b157506103e782105b156107bf57600490506107c4565b600590505b5b5b5b5f60025f8360058111156107de576107dd611655565b5b60058111156107f0576107ef611655565b5b81526020019081526020015f2080548060200260200160405190810160405280929190818152602001828054801561084557602002820191905f5260205f20905b815481526020019060010190808311610831575b505050505090505f81511161088f576040517f08c379a0000000000000000000000000000000000000000000000000000000008152600401610886906119f5565b60405180910390fd5b5f61089a8251611250565b90505f8282815181106108b0576108af611a13565b5b602002602001015190505f600190505f60405180602001604052805f81525090507f000000000000000000000000000000000000000000000000000000000000000073ffffffffffffffffffffffffffffffffffffffff1663f5298aca336001856040518463ffffffff1660e01b815260040161092f93929190611a40565b5f604051808303815f87803b158015610946575f80fd5b505af1158015610958573d5f803e3d5ffd5b505050507f000000000000000000000000000000000000000000000000000000000000000073ffffffffffffffffffffffffffffffffffffffff1663731133e9338585856040518563ffffffff1660e01b81526004016109bb9493929190611828565b5f604051808303815f87803b1580156109d2575f80fd5b505af11580156109e4573d5f803e3d5ffd5b505050503373ffffffffffffffffffffffffffffffffffffffff167f1cb3791aae60117d42454d8106a81669241c1c8b0f9118b01aa29b5e8927178784604051610a2e9190611473565b60405180910390a250505050505050565b6004805f0154908060010154905082565b5f602052805f5260405f205f91509050805f0154908060010154905082565b5f8111610ab1576040517f08c379a0000000000000000000000000000000000000000000000000000000008152600401610aa890611abf565b60405180910390fd5b5f610aba611290565b90505f81670de0b6b3a764000084610ad29190611727565b610adc9190611b0a565b90507f000000000000000000000000000000000000000000000000000000000000000073ffffffffffffffffffffffffffffffffffffffff166379cc679033856040518363ffffffff1660e01b8152600401610b39929190611777565b5f604051808303815f87803b158015610b50575f80fd5b505af1158015610b62573d5f803e3d5ffd5b505050507f000000000000000000000000000000000000000000000000000000000000000073ffffffffffffffffffffffffffffffffffffffff166340c10f1933836040518363ffffffff1660e01b8152600401610bc1929190611777565b5f604051808303815f87803b158015610bd8575f80fd5b505af1158015610bea573d5f803e3d5ffd5b505050507f3839a4c768f379a8963d8b71dfe167f7d3f5c547bc26e3e20b553d4112ddf9b58382604051610c1f9291906113f6565b60405180910390a1505050565b7f000000000000000000000000000000000000000000000000000000000000000081565b6001602052805f5260405f205f915090505481565b3373ffffffffffffffffffffffffffffffffffffffff167f000000000000000000000000000000000000000000000000000000000000000073ffffffffffffffffffffffffffffffffffffffff1614610cf3576040517f08c379a0000000000000000000000000000000000000000000000000000000008152600401610cea906118ff565b60405180910390fd5b7f000000000000000000000000000000000000000000000000000000000000000073ffffffffffffffffffffffffffffffffffffffff166340c10f1984846040518363ffffffff1660e01b8152600401610d4e929190611777565b5f604051808303815f87803b158015610d65575f80fd5b505af1158015610d77573d5f803e3d5ffd5b505050507f000000000000000000000000000000000000000000000000000000000000000073ffffffffffffffffffffffffffffffffffffffff166340c10f1984836040518363ffffffff1660e01b8152600401610dd6929190611777565b5f604051808303815f87803b158015610ded575f80fd5b505af1158015610dff573d5f803e3d5ffd5b50505050505050565b7f000000000000000000000000000000000000000000000000000000000000000081565b5f8111610e6e576040517f08c379a0000000000000000000000000000000000000000000000000000000008152600401610e6590611abf565b60405180910390fd5b5f610e77611290565b90505f670de0b6b3a76400008284610e8f9190611727565b610e999190611b0a565b90507f000000000000000000000000000000000000000000000000000000000000000073ffffffffffffffffffffffffffffffffffffffff166379cc679033856040518363ffffffff1660e01b8152600401610ef6929190611777565b5f604051808303815f87803b158015610f0d575f80fd5b505af1158015610f1f573d5f803e3d5ffd5b505050507f000000000000000000000000000000000000000000000000000000000000000073ffffffffffffffffffffffffffffffffffffffff166340c10f1933836040518363ffffffff1660e01b8152600401610f7e929190611777565b5f604051808303815f87803b158015610f95575f80fd5b505af1158015610fa7573d5f803e3d5ffd5b505050507f19eed8663e61d4d2dc91b3550702bc4dbc422303eb3e495b07f0359702488ca38184604051610fdc9291906113f6565b60405180910390a1505050565b7f000000000000000000000000000000000000000000000000000000000000000081565b7f000000000000000000000000000000000000000000000000000000000000000081565b7f000000000000000000000000000000000000000000000000000000000000000081565b60018203611098576040517f08c379a000000000000000000000000000000000000000000000000000000000815260040161108f90611b84565b60405180910390fd5b5f60015f60035f8681526020019081526020015f205f9054906101000a900460ff1660058111156110cc576110cb611655565b5b60058111156110de576110dd611655565b5b81526020019081526020015f205490505f82826110fb9190611727565b90507f000000000000000000000000000000000000000000000000000000000000000073ffffffffffffffffffffffffffffffffffffffff166340c10f1933836040518363ffffffff1660e01b8152600401611158929190611777565b5f604051808303815f87803b15801561116f575f80fd5b505af1158015611181573d5f803e3d5ffd5b505050507f000000000000000000000000000000000000000000000000000000000000000073ffffffffffffffffffffffffffffffffffffffff1663f5298aca3386866040518463ffffffff1660e01b81526004016111e293929190611a40565b5f604051808303815f87803b1580156111f9575f80fd5b505af115801561120b573d5f803e3d5ffd5b505050507f05e4c650e1e385779e0eb91402e8677d509062ca6044d5ee491d9d5bbe7b0ee381858560405161124293929190611ba2565b60405180910390a150505050565b5f8142443360405160200161126793929190611bd7565b604051602081830303815290604052805190602001205f1c6112899190611c0c565b9050919050565b5f80670de0b6b3a764000060016112a79190611727565b90505f620f42409050807f0000000000000000000000000000000000000000000000000000000000000000426112dd9190611c3c565b6112e79190611727565b826112f29190611c6f565b9250505090565b60405180604001604052805f81526020015f81525090565b5f80fd5b5f819050919050565b61132781611315565b8114611331575f80fd5b50565b5f813590506113428161131e565b92915050565b5f806040838503121561135e5761135d611311565b5b5f61136b85828601611334565b925050602061137c85828601611334565b9150509250929050565b60068110611392575f80fd5b50565b5f813590506113a381611386565b92915050565b5f80604083850312156113bf576113be611311565b5b5f6113cc85828601611334565b92505060206113dd85828601611395565b9150509250929050565b6113f081611315565b82525050565b5f6040820190506114095f8301856113e7565b61141660208301846113e7565b9392505050565b5f6020828403121561143257611431611311565b5b5f61143f84828501611395565b91505092915050565b5f6020828403121561145d5761145c611311565b5b5f61146a84828501611334565b91505092915050565b5f6020820190506114865f8301846113e7565b92915050565b5f73ffffffffffffffffffffffffffffffffffffffff82169050919050565b5f6114b58261148c565b9050919050565b6114c5816114ab565b81146114cf575f80fd5b50565b5f813590506114e0816114bc565b92915050565b5f805f606084860312156114fd576114fc611311565b5b5f61150a868287016114d2565b935050602061151b86828701611334565b925050604061152c86828701611334565b9150509250925092565b5f819050919050565b5f61155961155461154f8461148c565b611536565b61148c565b9050919050565b5f61156a8261153f565b9050919050565b5f61157b82611560565b9050919050565b61158b81611571565b82525050565b5f6020820190506115a45f830184611582565b92915050565b5f6115b482611560565b9050919050565b6115c4816115aa565b82525050565b5f6020820190506115dd5f8301846115bb565b92915050565b5f6115ed82611560565b9050919050565b6115fd816115e3565b82525050565b5f6020820190506116165f8301846115f4565b92915050565b5f61162682611560565b9050919050565b6116368161161c565b82525050565b5f60208201905061164f5f83018461162d565b92915050565b7f4e487b71000000000000000000000000000000000000000000000000000000005f52602160045260245ffd5b5f82825260208201905092915050565b7f496e76616c6964206974656d2e000000000000000000000000000000000000005f82015250565b5f6116c6600d83611682565b91506116d182611692565b602082019050919050565b5f6020820190508181035f8301526116f3816116ba565b9050919050565b7f4e487b71000000000000000000000000000000000000000000000000000000005f52601160045260245ffd5b5f61173182611315565b915061173c83611315565b925082820261174a81611315565b91508282048414831517611761576117606116fa565b5b5092915050565b611771816114ab565b82525050565b5f60408201905061178a5f830185611768565b61179760208301846113e7565b9392505050565b5f81519050919050565b5f82825260208201905092915050565b5f5b838110156117d55780820151818401526020810190506117ba565b5f8484015250505050565b5f601f19601f8301169050919050565b5f6117fa8261179e565b61180481856117a8565b93506118148185602086016117b8565b61181d816117e0565b840191505092915050565b5f60808201905061183b5f830187611768565b61184860208301866113e7565b61185560408301856113e7565b818103606083015261186781846117f0565b905095945050505050565b5f6080820190506118855f8301876113e7565b61189260208301866113e7565b61189f60408301856113e7565b6118ac60608301846113e7565b95945050505050565b7f4f6e6c792061646d696e2063616e2063616c6c2e0000000000000000000000005f82015250565b5f6118e9601483611682565b91506118f4826118b5565b602082019050919050565b5f6020820190508181035f830152611916816118dd565b9050919050565b7f4368657374732063616e6e6f7420626520616464656420746f207468652063685f8201527f6573742e00000000000000000000000000000000000000000000000000000000602082015250565b5f611977602483611682565b91506119828261191d565b604082019050919050565b5f6020820190508181035f8301526119a48161196b565b9050919050565b7f4e6f206974656d7320696e20746865206c697374207965742e000000000000005f82015250565b5f6119df601983611682565b91506119ea826119ab565b602082019050919050565b5f6020820190508181035f830152611a0c816119d3565b9050919050565b7f4e487b71000000000000000000000000000000000000000000000000000000005f52603260045260245ffd5b5f606082019050611a535f830186611768565b611a6060208301856113e7565b611a6d60408301846113e7565b949350505050565b7f4d7573742062652067726561746572207468616e20302e0000000000000000005f82015250565b5f611aa9601783611682565b9150611ab482611a75565b602082019050919050565b5f6020820190508181035f830152611ad681611a9d565b9050919050565b7f4e487b71000000000000000000000000000000000000000000000000000000005f52601260045260245ffd5b5f611b1482611315565b9150611b1f83611315565b925082611b2f57611b2e611add565b5b828204905092915050565b7f4368657374732063616e6e6f7420626520646973656e6368616e7465642e00005f82015250565b5f611b6e601e83611682565b9150611b7982611b3a565b602082019050919050565b5f6020820190508181035f830152611b9b81611b62565b9050919050565b5f606082019050611bb55f8301866113e7565b611bc260208301856113e7565b611bcf60408301846113e7565b949350505050565b5f606082019050611bea5f8301866113e7565b611bf760208301856113e7565b611c046040830184611768565b949350505050565b5f611c1682611315565b9150611c2183611315565b925082611c3157611c30611add565b5b828206905092915050565b5f611c4682611315565b9150611c5183611315565b9250828203905081811115611c6957611c686116fa565b5b92915050565b5f611c7982611315565b9150611c8483611315565b9250828201905080821115611c9c57611c9b6116fa565b5b9291505056fea26469706673582212201396e9306bcd96f9cf27c5fdc45220ab0dac5a7e111a0b368efda8d8e1fd7d9264736f6c6343000814003360a060405234801562000010575f80fd5b506040516200151e3803806200151e833981810160405281019062000036919062000168565b6040518060400160405280600f81526020017f4574686572696320457373656e636500000000000000000000000000000000008152506040518060400160405280600381526020017f45455300000000000000000000000000000000000000000000000000000000008152508160039081620000b39190620003fc565b508060049081620000c59190620003fc565b5050508073ffffffffffffffffffffffffffffffffffffffff1660808173ffffffffffffffffffffffffffffffffffffffff168152505050620004e0565b5f80fd5b5f73ffffffffffffffffffffffffffffffffffffffff82169050919050565b5f620001328262000107565b9050919050565b620001448162000126565b81146200014f575f80fd5b50565b5f81519050620001628162000139565b92915050565b5f6020828403121562000180576200017f62000103565b5b5f6200018f8482850162000152565b91505092915050565b5f81519050919050565b7f4e487b71000000000000000000000000000000000000000000000000000000005f52604160045260245ffd5b7f4e487b71000000000000000000000000000000000000000000000000000000005f52602260045260245ffd5b5f60028204905060018216806200021457607f821691505b6020821081036200022a5762000229620001cf565b5b50919050565b5f819050815f5260205f209050919050565b5f6020601f8301049050919050565b5f82821b905092915050565b5f600883026200028e7fffffffffffffffffffffffffffffffffffffffffffffffffffffffffffffffff8262000251565b6200029a868362000251565b95508019841693508086168417925050509392505050565b5f819050919050565b5f819050919050565b5f620002e4620002de620002d884620002b2565b620002bb565b620002b2565b9050919050565b5f819050919050565b620002ff83620002c4565b620003176200030e82620002eb565b8484546200025d565b825550505050565b5f90565b6200032d6200031f565b6200033a818484620002f4565b505050565b5b818110156200036157620003555f8262000323565b60018101905062000340565b5050565b601f821115620003b0576200037a8162000230565b620003858462000242565b8101602085101562000395578190505b620003ad620003a48562000242565b8301826200033f565b50505b505050565b5f82821c905092915050565b5f620003d25f1984600802620003b5565b1980831691505092915050565b5f620003ec8383620003c1565b9150826002028217905092915050565b620004078262000198565b67ffffffffffffffff811115620004235762000422620001a2565b5b6200042f8254620001fc565b6200043c82828562000365565b5f60209050601f83116001811462000472575f84156200045d578287015190505b620004698582620003df565b865550620004d8565b601f198416620004828662000230565b5f5b82811015620004ab5784890151825560018201915060208501945060208101905062000484565b86831015620004cb5784890151620004c7601f891682620003c1565b8355505b6001600288020188555050505b505050505050565b60805161101e620005005f395f81816103430152610427015261101e5ff3fe608060405234801561000f575f80fd5b50600436106100b2575f3560e01c806342966c681161006f57806342966c681461018c57806370a08231146101a857806379cc6790146101d857806395d89b41146101f4578063a9059cbb14610212578063dd62ed3e14610242576100b2565b806306fdde03146100b6578063095ea7b3146100d457806318160ddd1461010457806323b872dd14610122578063313ce5671461015257806340c10f1914610170575b5f80fd5b6100be610272565b6040516100cb9190610c04565b60405180910390f35b6100ee60048036038101906100e99190610cb5565b610302565b6040516100fb9190610d0d565b60405180910390f35b61010c610324565b6040516101199190610d35565b60405180910390f35b61013c60048036038101906101379190610d4e565b61032d565b6040516101499190610d0d565b60405180910390f35b61015a610339565b6040516101679190610db9565b60405180910390f35b61018a60048036038101906101859190610cb5565b610341565b005b6101a660048036038101906101a19190610dd2565b6103dd565b005b6101c260048036038101906101bd9190610dfd565b6103e0565b6040516101cf9190610d35565b60405180910390f35b6101f260048036038101906101ed9190610cb5565b610425565b005b6101fc6104cc565b6040516102099190610c04565b60405180910390f35b61022c60048036038101906102279190610cb5565b61055c565b6040516102399190610d0d565b60405180910390f35b61025c60048036038101906102579190610e28565b610567565b6040516102699190610d35565b60405180910390f35b60606003805461028190610e93565b80601f01602080910402602001604051908101604052809291908181526020018280546102ad90610e93565b80156102f85780601f106102cf576101008083540402835291602001916102f8565b820191905f5260205f20905b8154815290600101906020018083116102db57829003601f168201915b5050505050905090565b5f8061030c6105e9565b90506103198185856105f0565b600191505092915050565b5f600254905090565b5f600190509392505050565b5f6012905090565b7f000000000000000000000000000000000000000000000000000000000000000073ffffffffffffffffffffffffffffffffffffffff163373ffffffffffffffffffffffffffffffffffffffff16146103cf576040517f08c379a00000000000000000000000000000000000000000000000000000000081526004016103c690610f0d565b60405180910390fd5b6103d98282610602565b5050565b50565b5f805f8373ffffffffffffffffffffffffffffffffffffffff1673ffffffffffffffffffffffffffffffffffffffff1681526020019081526020015f20549050919050565b7f000000000000000000000000000000000000000000000000000000000000000073ffffffffffffffffffffffffffffffffffffffff163373ffffffffffffffffffffffffffffffffffffffff16146104b3576040517f08c379a00000000000000000000000000000000000000000000000000000000081526004016104aa90610f0d565b60405180910390fd5b6104be823383610681565b6104c88282610713565b5050565b6060600480546104db90610e93565b80601f016020809104026020016040519081016040528092919081815260200182805461050790610e93565b80156105525780601f1061052957610100808354040283529160200191610552565b820191905f5260205f20905b81548152906001019060200180831161053557829003601f168201915b5050505050905090565b5f6001905092915050565b5f60015f8473ffffffffffffffffffffffffffffffffffffffff1673ffffffffffffffffffffffffffffffffffffffff1681526020019081526020015f205f8373ffffffffffffffffffffffffffffffffffffffff1673ffffffffffffffffffffffffffffffffffffffff1681526020019081526020015f2054905092915050565b5f33905090565b6105fd8383836001610792565b505050565b5f73ffffffffffffffffffffffffffffffffffffffff168273ffffffffffffffffffffffffffffffffffffffff1603610672575f6040517fec442f050000000000000000000000000000000000000000000000000000000081526004016106699190610f3a565b60405180910390fd5b61067d5f8383610961565b5050565b5f61068c8484610567565b90507fffffffffffffffffffffffffffffffffffffffffffffffffffffffffffffffff811461070d57818110156106fe578281836040517ffb8f41b20000000000000000000000000000000000000000000000000000000081526004016106f593929190610f53565b60405180910390fd5b61070c84848484035f610792565b5b50505050565b5f73ffffffffffffffffffffffffffffffffffffffff168273ffffffffffffffffffffffffffffffffffffffff1603610783575f6040517f96c6fd1e00000000000000000000000000000000000000000000000000000000815260040161077a9190610f3a565b60405180910390fd5b61078e825f83610961565b5050565b5f73ffffffffffffffffffffffffffffffffffffffff168473ffffffffffffffffffffffffffffffffffffffff1603610802575f6040517fe602df050000000000000000000000000000000000000000000000000000000081526004016107f99190610f3a565b60405180910390fd5b5f73ffffffffffffffffffffffffffffffffffffffff168373ffffffffffffffffffffffffffffffffffffffff1603610872575f6040517f94280d620000000000000000000000000000000000000000000000000000000081526004016108699190610f3a565b60405180910390fd5b8160015f8673ffffffffffffffffffffffffffffffffffffffff1673ffffffffffffffffffffffffffffffffffffffff1681526020019081526020015f205f8573ffffffffffffffffffffffffffffffffffffffff1673ffffffffffffffffffffffffffffffffffffffff1681526020019081526020015f2081905550801561095b578273ffffffffffffffffffffffffffffffffffffffff168473ffffffffffffffffffffffffffffffffffffffff167f8c5be1e5ebec7d5bd14f71427d1e84f3dd0314c0f7b2291e5b200ac8c7c3b925846040516109529190610d35565b60405180910390a35b50505050565b5f73ffffffffffffffffffffffffffffffffffffffff168373ffffffffffffffffffffffffffffffffffffffff16036109b1578060025f8282546109a59190610fb5565b92505081905550610a7f565b5f805f8573ffffffffffffffffffffffffffffffffffffffff1673ffffffffffffffffffffffffffffffffffffffff1681526020019081526020015f2054905081811015610a3a578381836040517fe450d38c000000000000000000000000000000000000000000000000000000008152600401610a3193929190610f53565b60405180910390fd5b8181035f808673ffffffffffffffffffffffffffffffffffffffff1673ffffffffffffffffffffffffffffffffffffffff1681526020019081526020015f2081905550505b5f73ffffffffffffffffffffffffffffffffffffffff168273ffffffffffffffffffffffffffffffffffffffff1603610ac6578060025f8282540392505081905550610b10565b805f808473ffffffffffffffffffffffffffffffffffffffff1673ffffffffffffffffffffffffffffffffffffffff1681526020019081526020015f205f82825401925050819055505b8173ffffffffffffffffffffffffffffffffffffffff168373ffffffffffffffffffffffffffffffffffffffff167fddf252ad1be2c89b69c2b068fc378daa952ba7f163c4a11628f55a4df523b3ef83604051610b6d9190610d35565b60405180910390a3505050565b5f81519050919050565b5f82825260208201905092915050565b5f5b83811015610bb1578082015181840152602081019050610b96565b5f8484015250505050565b5f601f19601f8301169050919050565b5f610bd682610b7a565b610be08185610b84565b9350610bf0818560208601610b94565b610bf981610bbc565b840191505092915050565b5f6020820190508181035f830152610c1c8184610bcc565b905092915050565b5f80fd5b5f73ffffffffffffffffffffffffffffffffffffffff82169050919050565b5f610c5182610c28565b9050919050565b610c6181610c47565b8114610c6b575f80fd5b50565b5f81359050610c7c81610c58565b92915050565b5f819050919050565b610c9481610c82565b8114610c9e575f80fd5b50565b5f81359050610caf81610c8b565b92915050565b5f8060408385031215610ccb57610cca610c24565b5b5f610cd885828601610c6e565b9250506020610ce985828601610ca1565b9150509250929050565b5f8115159050919050565b610d0781610cf3565b82525050565b5f602082019050610d205f830184610cfe565b92915050565b610d2f81610c82565b82525050565b5f602082019050610d485f830184610d26565b92915050565b5f805f60608486031215610d6557610d64610c24565b5b5f610d7286828701610c6e565b9350506020610d8386828701610c6e565b9250506040610d9486828701610ca1565b9150509250925092565b5f60ff82169050919050565b610db381610d9e565b82525050565b5f602082019050610dcc5f830184610daa565b92915050565b5f60208284031215610de757610de6610c24565b5b5f610df484828501610ca1565b91505092915050565b5f60208284031215610e1257610e11610c24565b5b5f610e1f84828501610c6e565b91505092915050565b5f8060408385031215610e3e57610e3d610c24565b5b5f610e4b85828601610c6e565b9250506020610e5c85828601610c6e565b9150509250929050565b7f4e487b71000000000000000000000000000000000000000000000000000000005f52602260045260245ffd5b5f6002820490506001821680610eaa57607f821691505b602082108103610ebd57610ebc610e66565b5b50919050565b7f4f6e6c792067616d6520636f6e74726163742063616e2063616c6c2e000000005f82015250565b5f610ef7601c83610b84565b9150610f0282610ec3565b602082019050919050565b5f6020820190508181035f830152610f2481610eeb565b9050919050565b610f3481610c47565b82525050565b5f602082019050610f4d5f830184610f2b565b92915050565b5f606082019050610f665f830186610f2b565b610f736020830185610d26565b610f806040830184610d26565b949350505050565b7f4e487b71000000000000000000000000000000000000000000000000000000005f52601160045260245ffd5b5f610fbf82610c82565b9150610fca83610c82565b9250828201905080821115610fe257610fe1610f88565b5b9291505056fea26469706673582212208b011ff1b7e3b469873b15e0a00bfb0b2b2864899b234fb2410fd6887c3b4aca64736f6c6343000814003360a060405234801562000010575f80fd5b50604051620016e6380380620016e6833981810160405281019062000036919062000168565b6040518060400160405280601081526020017f45746865726963204372797374616c73000000000000000000000000000000008152506040518060400160405280600381526020017f45435200000000000000000000000000000000000000000000000000000000008152508160039081620000b39190620003fc565b508060049081620000c59190620003fc565b5050508073ffffffffffffffffffffffffffffffffffffffff1660808173ffffffffffffffffffffffffffffffffffffffff168152505050620004e0565b5f80fd5b5f73ffffffffffffffffffffffffffffffffffffffff82169050919050565b5f620001328262000107565b9050919050565b620001448162000126565b81146200014f575f80fd5b50565b5f81519050620001628162000139565b92915050565b5f6020828403121562000180576200017f62000103565b5b5f6200018f8482850162000152565b91505092915050565b5f81519050919050565b7f4e487b71000000000000000000000000000000000000000000000000000000005f52604160045260245ffd5b7f4e487b71000000000000000000000000000000000000000000000000000000005f52602260045260245ffd5b5f60028204905060018216806200021457607f821691505b6020821081036200022a5762000229620001cf565b5b50919050565b5f819050815f5260205f209050919050565b5f6020601f8301049050919050565b5f82821b905092915050565b5f600883026200028e7fffffffffffffffffffffffffffffffffffffffffffffffffffffffffffffffff8262000251565b6200029a868362000251565b95508019841693508086168417925050509392505050565b5f819050919050565b5f819050919050565b5f620002e4620002de620002d884620002b2565b620002bb565b620002b2565b9050919050565b5f819050919050565b620002ff83620002c4565b620003176200030e82620002eb565b8484546200025d565b825550505050565b5f90565b6200032d6200031f565b6200033a818484620002f4565b505050565b5b818110156200036157620003555f8262000323565b60018101905062000340565b5050565b601f821115620003b0576200037a8162000230565b620003858462000242565b8101602085101562000395578190505b620003ad620003a48562000242565b8301826200033f565b50505b505050565b5f82821c905092915050565b5f620003d25f1984600802620003b5565b1980831691505092915050565b5f620003ec8383620003c1565b9150826002028217905092915050565b620004078262000198565b67ffffffffffffffff811115620004235762000422620001a2565b5b6200042f8254620001fc565b6200043c82828562000365565b5f60209050601f83116001811462000472575f84156200045d578287015190505b620004698582620003df565b865550620004d8565b601f198416620004828662000230565b5f5b82811015620004ab5784890151825560018201915060208501945060208101905062000484565b86831015620004cb5784890151620004c7601f891682620003c1565b8355505b6001600288020188555050505b505050505050565b6080516111df620005075f395f81816103650152818161040101526104e101526111df5ff3fe608060405234801561000f575f80fd5b50600436106100b2575f3560e01c806342966c681161006f57806342966c681461018c57806370a08231146101a857806379cc6790146101d857806395d89b41146101f4578063a9059cbb14610212578063dd62ed3e14610242576100b2565b806306fdde03146100b6578063095ea7b3146100d457806318160ddd1461010457806323b872dd14610122578063313ce5671461015257806340c10f1914610170575b5f80fd5b6100be610272565b6040516100cb9190610dc5565b60405180910390f35b6100ee60048036038101906100e99190610e76565b610302565b6040516100fb9190610ece565b60405180910390f35b61010c610324565b6040516101199190610ef6565b60405180910390f35b61013c60048036038101906101379190610f0f565b61032d565b6040516101499190610ece565b60405180910390f35b61015a61035b565b6040516101679190610f7a565b60405180910390f35b61018a60048036038101906101859190610e76565b610363565b005b6101a660048036038101906101a19190610f93565b6103ff565b005b6101c260048036038101906101bd9190610fbe565b61049a565b6040516101cf9190610ef6565b60405180910390f35b6101f260048036038101906101ed9190610e76565b6104df565b005b6101fc610586565b6040516102099190610dc5565b60405180910390f35b61022c60048036038101906102279190610e76565b610616565b6040516102399190610ece565b60405180910390f35b61025c60048036038101906102579190610fe9565b610638565b6040516102699190610ef6565b60405180910390f35b60606003805461028190611054565b80601f01602080910402602001604051908101604052809291908181526020018280546102ad90611054565b80156102f85780601f106102cf576101008083540402835291602001916102f8565b820191905f5260205f20905b8154815290600101906020018083116102db57829003601f168201915b5050505050905090565b5f8061030c6106ba565b90506103198185856106c1565b600191505092915050565b5f600254905090565b5f806103376106ba565b90506103448582856106d3565b61034f858585610765565b60019150509392505050565b5f6012905090565b7f000000000000000000000000000000000000000000000000000000000000000073ffffffffffffffffffffffffffffffffffffffff163373ffffffffffffffffffffffffffffffffffffffff16146103f1576040517f08c379a00000000000000000000000000000000000000000000000000000000081526004016103e8906110ce565b60405180910390fd5b6103fb8282610855565b5050565b7f000000000000000000000000000000000000000000000000000000000000000073ffffffffffffffffffffffffffffffffffffffff163373ffffffffffffffffffffffffffffffffffffffff161461048d576040517f08c379a0000000000000000000000000000000000000000000000000000000008152600401610484906110ce565b60405180910390fd5b61049733826108d4565b50565b5f805f8373ffffffffffffffffffffffffffffffffffffffff1673ffffffffffffffffffffffffffffffffffffffff1681526020019081526020015f20549050919050565b7f000000000000000000000000000000000000000000000000000000000000000073ffffffffffffffffffffffffffffffffffffffff163373ffffffffffffffffffffffffffffffffffffffff161461056d576040517f08c379a0000000000000000000000000000000000000000000000000000000008152600401610564906110ce565b60405180910390fd5b6105788233836106d3565b61058282826108d4565b5050565b60606004805461059590611054565b80601f01602080910402602001604051908101604052809291908181526020018280546105c190611054565b801561060c5780601f106105e35761010080835404028352916020019161060c565b820191905f5260205f20905b8154815290600101906020018083116105ef57829003601f168201915b5050505050905090565b5f806106206106ba565b905061062d818585610765565b600191505092915050565b5f60015f8473ffffffffffffffffffffffffffffffffffffffff1673ffffffffffffffffffffffffffffffffffffffff1681526020019081526020015f205f8373ffffffffffffffffffffffffffffffffffffffff1673ffffffffffffffffffffffffffffffffffffffff1681526020019081526020015f2054905092915050565b5f33905090565b6106ce8383836001610953565b505050565b5f6106de8484610638565b90507fffffffffffffffffffffffffffffffffffffffffffffffffffffffffffffffff811461075f5781811015610750578281836040517ffb8f41b2000000000000000000000000000000000000000000000000000000008152600401610747939291906110fb565b60405180910390fd5b61075e84848484035f610953565b5b50505050565b5f73ffffffffffffffffffffffffffffffffffffffff168373ffffffffffffffffffffffffffffffffffffffff16036107d5575f6040517f96c6fd1e0000000000000000000000000000000000000000000000000000000081526004016107cc9190611130565b60405180910390fd5b5f73ffffffffffffffffffffffffffffffffffffffff168273ffffffffffffffffffffffffffffffffffffffff1603610845575f6040517fec442f0500000000000000000000000000000000000000000000000000000000815260040161083c9190611130565b60405180910390fd5b610850838383610b22565b505050565b5f73ffffffffffffffffffffffffffffffffffffffff168273ffffffffffffffffffffffffffffffffffffffff16036108c5575f6040517fec442f050000000000000000000000000000000000000000000000000000000081526004016108bc9190611130565b60405180910390fd5b6108d05f8383610b22565b5050565b5f73ffffffffffffffffffffffffffffffffffffffff168273ffffffffffffffffffffffffffffffffffffffff1603610944575f6040517f96c6fd1e00000000000000000000000000000000000000000000000000000000815260040161093b9190611130565b60405180910390fd5b61094f825f83610b22565b5050565b5f73ffffffffffffffffffffffffffffffffffffffff168473ffffffffffffffffffffffffffffffffffffffff16036109c3575f6040517fe602df050000000000000000000000000000000000000000000000000000000081526004016109ba9190611130565b60405180910390fd5b5f73ffffffffffffffffffffffffffffffffffffffff168373ffffffffffffffffffffffffffffffffffffffff1603610a33575f6040517f94280d62000000000000000000000000000000000000000000000000000000008152600401610a2a9190611130565b60405180910390fd5b8160015f8673ffffffffffffffffffffffffffffffffffffffff1673ffffffffffffffffffffffffffffffffffffffff1681526020019081526020015f205f8573ffffffffffffffffffffffffffffffffffffffff1673ffffffffffffffffffffffffffffffffffffffff1681526020019081526020015f20819055508015610b1c578273ffffffffffffffffffffffffffffffffffffffff168473ffffffffffffffffffffffffffffffffffffffff167f8c5be1e5ebec7d5bd14f71427d1e84f3dd0314c0f7b2291e5b200ac8c7c3b92584604051610b139190610ef6565b60405180910390a35b50505050565b5f73ffffffffffffffffffffffffffffffffffffffff168373ffffffffffffffffffffffffffffffffffffffff1603610b72578060025f828254610b669190611176565b92505081905550610c40565b5f805f8573ffffffffffffffffffffffffffffffffffffffff1673ffffffffffffffffffffffffffffffffffffffff1681526020019081526020015f2054905081811015610bfb578381836040517fe450d38c000000000000000000000000000000000000000000000000000000008152600401610bf2939291906110fb565b60405180910390fd5b8181035f808673ffffffffffffffffffffffffffffffffffffffff1673ffffffffffffffffffffffffffffffffffffffff1681526020019081526020015f2081905550505b5f73ffffffffffffffffffffffffffffffffffffffff168273ffffffffffffffffffffffffffffffffffffffff1603610c87578060025f8282540392505081905550610cd1565b805f808473ffffffffffffffffffffffffffffffffffffffff1673ffffffffffffffffffffffffffffffffffffffff1681526020019081526020015f205f82825401925050819055505b8173ffffffffffffffffffffffffffffffffffffffff168373ffffffffffffffffffffffffffffffffffffffff167fddf252ad1be2c89b69c2b068fc378daa952ba7f163c4a11628f55a4df523b3ef83604051610d2e9190610ef6565b60405180910390a3505050565b5f81519050919050565b5f82825260208201905092915050565b5f5b83811015610d72578082015181840152602081019050610d57565b5f8484015250505050565b5f601f19601f8301169050919050565b5f610d9782610d3b565b610da18185610d45565b9350610db1818560208601610d55565b610dba81610d7d565b840191505092915050565b5f6020820190508181035f830152610ddd8184610d8d565b905092915050565b5f80fd5b5f73ffffffffffffffffffffffffffffffffffffffff82169050919050565b5f610e1282610de9565b9050919050565b610e2281610e08565b8114610e2c575f80fd5b50565b5f81359050610e3d81610e19565b92915050565b5f819050919050565b610e5581610e43565b8114610e5f575f80fd5b50565b5f81359050610e7081610e4c565b92915050565b5f8060408385031215610e8c57610e8b610de5565b5b5f610e9985828601610e2f565b9250506020610eaa85828601610e62565b9150509250929050565b5f8115159050919050565b610ec881610eb4565b82525050565b5f602082019050610ee15f830184610ebf565b92915050565b610ef081610e43565b82525050565b5f602082019050610f095f830184610ee7565b92915050565b5f805f60608486031215610f2657610f25610de5565b5b5f610f3386828701610e2f565b9350506020610f4486828701610e2f565b9250506040610f5586828701610e62565b9150509250925092565b5f60ff82169050919050565b610f7481610f5f565b82525050565b5f602082019050610f8d5f830184610f6b565b92915050565b5f60208284031215610fa857610fa7610de5565b5b5f610fb584828501610e62565b91505092915050565b5f60208284031215610fd357610fd2610de5565b5b5f610fe084828501610e2f565b91505092915050565b5f8060408385031215610fff57610ffe610de5565b5b5f61100c85828601610e2f565b925050602061101d85828601610e2f565b9150509250929050565b7f4e487b71000000000000000000000000000000000000000000000000000000005f52602260045260245ffd5b5f600282049050600182168061106b57607f821691505b60208210810361107e5761107d611027565b5b50919050565b7f4f6e6c792067616d6520636f6e74726163742063616e2063616c6c2e000000005f82015250565b5f6110b8601c83610d45565b91506110c382611084565b602082019050919050565b5f6020820190508181035f8301526110e5816110ac565b9050919050565b6110f581610e08565b82525050565b5f60608201905061110e5f8301866110ec565b61111b6020830185610ee7565b6111286040830184610ee7565b949350505050565b5f6020820190506111435f8301846110ec565b92915050565b7f4e487b71000000000000000000000000000000000000000000000000000000005f52601160045260245ffd5b5f61118082610e43565b915061118b83610e43565b92508282019050808211156111a3576111a2611149565b5b9291505056fea2646970667358221220830555033c76d6da25a604f298d0a2391026148e28872ad8778f843ff6b15b4064736f6c6343000814003360a060405234801562000010575f80fd5b50604051620016e6380380620016e6833981810160405281019062000036919062000168565b6040518060400160405280600e81526020017f4574686572696320456e657267790000000000000000000000000000000000008152506040518060400160405280600481526020017f454e5247000000000000000000000000000000000000000000000000000000008152508160039081620000b39190620003fc565b508060049081620000c59190620003fc565b5050508073ffffffffffffffffffffffffffffffffffffffff1660808173ffffffffffffffffffffffffffffffffffffffff168152505050620004e0565b5f80fd5b5f73ffffffffffffffffffffffffffffffffffffffff82169050919050565b5f620001328262000107565b9050919050565b620001448162000126565b81146200014f575f80fd5b50565b5f81519050620001628162000139565b92915050565b5f6020828403121562000180576200017f62000103565b5b5f6200018f8482850162000152565b91505092915050565b5f81519050919050565b7f4e487b71000000000000000000000000000000000000000000000000000000005f52604160045260245ffd5b7f4e487b71000000000000000000000000000000000000000000000000000000005f52602260045260245ffd5b5f60028204905060018216806200021457607f821691505b6020821081036200022a5762000229620001cf565b5b50919050565b5f819050815f5260205f209050919050565b5f6020601f8301049050919050565b5f82821b905092915050565b5f600883026200028e7fffffffffffffffffffffffffffffffffffffffffffffffffffffffffffffffff8262000251565b6200029a868362000251565b95508019841693508086168417925050509392505050565b5f819050919050565b5f819050919050565b5f620002e4620002de620002d884620002b2565b620002bb565b620002b2565b9050919050565b5f819050919050565b620002ff83620002c4565b620003176200030e82620002eb565b8484546200025d565b825550505050565b5f90565b6200032d6200031f565b6200033a818484620002f4565b505050565b5b818110156200036157620003555f8262000323565b60018101905062000340565b5050565b601f821115620003b0576200037a8162000230565b620003858462000242565b8101602085101562000395578190505b620003ad620003a48562000242565b8301826200033f565b50505b505050565b5f82821c905092915050565b5f620003d25f1984600802620003b5565b1980831691505092915050565b5f620003ec8383620003c1565b9150826002028217905092915050565b620004078262000198565b67ffffffffffffffff811115620004235762000422620001a2565b5b6200042f8254620001fc565b6200043c82828562000365565b5f60209050601f83116001811462000472575f84156200045d578287015190505b620004698582620003df565b865550620004d8565b601f198416620004828662000230565b5f5b82811015620004ab5784890151825560018201915060208501945060208101905062000484565b86831015620004cb5784890151620004c7601f891682620003c1565b8355505b6001600288020188555050505b505050505050565b6080516111df620005075f395f81816103650152818161040101526104e101526111df5ff3fe608060405234801561000f575f80fd5b50600436106100b2575f3560e01c806342966c681161006f57806342966c681461018c57806370a08231146101a857806379cc6790146101d857806395d89b41146101f4578063a9059cbb14610212578063dd62ed3e14610242576100b2565b806306fdde03146100b6578063095ea7b3146100d457806318160ddd1461010457806323b872dd14610122578063313ce5671461015257806340c10f1914610170575b5f80fd5b6100be610272565b6040516100cb9190610dc5565b60405180910390f35b6100ee60048036038101906100e99190610e76565b610302565b6040516100fb9190610ece565b60405180910390f35b61010c610324565b6040516101199190610ef6565b60405180910390f35b61013c60048036038101906101379190610f0f565b61032d565b6040516101499190610ece565b60405180910390f35b61015a61035b565b6040516101679190610f7a565b60405180910390f35b61018a60048036038101906101859190610e76565b610363565b005b6101a660048036038101906101a19190610f93565b6103ff565b005b6101c260048036038101906101bd9190610fbe565b61049a565b6040516101cf9190610ef6565b60405180910390f35b6101f260048036038101906101ed9190610e76565b6104df565b005b6101fc610586565b6040516102099190610dc5565b60405180910390f35b61022c60048036038101906102279190610e76565b610616565b6040516102399190610ece565b60405180910390f35b61025c60048036038101906102579190610fe9565b610638565b6040516102699190610ef6565b60405180910390f35b60606003805461028190611054565b80601f01602080910402602001604051908101604052809291908181526020018280546102ad90611054565b80156102f85780601f106102cf576101008083540402835291602001916102f8565b820191905f5260205f20905b8154815290600101906020018083116102db57829003601f168201915b5050505050905090565b5f8061030c6106ba565b90506103198185856106c1565b600191505092915050565b5f600254905090565b5f806103376106ba565b90506103448582856106d3565b61034f858585610765565b60019150509392505050565b5f6012905090565b7f000000000000000000000000000000000000000000000000000000000000000073ffffffffffffffffffffffffffffffffffffffff163373ffffffffffffffffffffffffffffffffffffffff16146103f1576040517f08c379a00000000000000000000000000000000000000000000000000000000081526004016103e8906110ce565b60405180910390fd5b6103fb8282610855565b5050565b7f000000000000000000000000000000000000000000000000000000000000000073ffffffffffffffffffffffffffffffffffffffff163373ffffffffffffffffffffffffffffffffffffffff161461048d576040517f08c379a0000000000000000000000000000000000000000000000000000000008152600401610484906110ce565b60405180910390fd5b61049733826108d4565b50565b5f805f8373ffffffffffffffffffffffffffffffffffffffff1673ffffffffffffffffffffffffffffffffffffffff1681526020019081526020015f20549050919050565b7f000000000000000000000000000000000000000000000000000000000000000073ffffffffffffffffffffffffffffffffffffffff163373ffffffffffffffffffffffffffffffffffffffff161461056d576040517f08c379a0000000000000000000000000000000000000000000000000000000008152600401610564906110ce565b60405180910390fd5b6105788233836106d3565b61058282826108d4565b5050565b60606004805461059590611054565b80601f01602080910402602001604051908101604052809291908181526020018280546105c190611054565b801561060c5780601f106105e35761010080835404028352916020019161060c565b820191905f5260205f20905b8154815290600101906020018083116105ef57829003601f168201915b5050505050905090565b5f806106206106ba565b905061062d818585610765565b600191505092915050565b5f60015f8473ffffffffffffffffffffffffffffffffffffffff1673ffffffffffffffffffffffffffffffffffffffff1681526020019081526020015f205f8373ffffffffffffffffffffffffffffffffffffffff1673ffffffffffffffffffffffffffffffffffffffff1681526020019081526020015f2054905092915050565b5f33905090565b6106ce8383836001610953565b505050565b5f6106de8484610638565b90507fffffffffffffffffffffffffffffffffffffffffffffffffffffffffffffffff811461075f5781811015610750578281836040517ffb8f41b2000000000000000000000000000000000000000000000000000000008152600401610747939291906110fb565b60405180910390fd5b61075e84848484035f610953565b5b50505050565b5f73ffffffffffffffffffffffffffffffffffffffff168373ffffffffffffffffffffffffffffffffffffffff16036107d5575f6040517f96c6fd1e0000000000000000000000000000000000000000000000000000000081526004016107cc9190611130565b60405180910390fd5b5f73ffffffffffffffffffffffffffffffffffffffff168273ffffffffffffffffffffffffffffffffffffffff1603610845575f6040517fec442f0500000000000000000000000000000000000000000000000000000000815260040161083c9190611130565b60405180910390fd5b610850838383610b22565b505050565b5f73ffffffffffffffffffffffffffffffffffffffff168273ffffffffffffffffffffffffffffffffffffffff16036108c5575f6040517fec442f050000000000000000000000000000000000000000000000000000000081526004016108bc9190611130565b60405180910390fd5b6108d05f8383610b22565b5050565b5f73ffffffffffffffffffffffffffffffffffffffff168273ffffffffffffffffffffffffffffffffffffffff1603610944575f6040517f96c6fd1e00000000000000000000000000000000000000000000000000000000815260040161093b9190611130565b60405180910390fd5b61094f825f83610b22565b5050565b5f73ffffffffffffffffffffffffffffffffffffffff168473ffffffffffffffffffffffffffffffffffffffff16036109c3575f6040517fe602df050000000000000000000000000000000000000000000000000000000081526004016109ba9190611130565b60405180910390fd5b5f73ffffffffffffffffffffffffffffffffffffffff168373ffffffffffffffffffffffffffffffffffffffff1603610a33575f6040517f94280d62000000000000000000000000000000000000000000000000000000008152600401610a2a9190611130565b60405180910390fd5b8160015f8673ffffffffffffffffffffffffffffffffffffffff1673ffffffffffffffffffffffffffffffffffffffff1681526020019081526020015f205f8573ffffffffffffffffffffffffffffffffffffffff1673ffffffffffffffffffffffffffffffffffffffff1681526020019081526020015f20819055508015610b1c578273ffffffffffffffffffffffffffffffffffffffff168473ffffffffffffffffffffffffffffffffffffffff167f8c5be1e5ebec7d5bd14f71427d1e84f3dd0314c0f7b2291e5b200ac8c7c3b92584604051610b139190610ef6565b60405180910390a35b50505050565b5f73ffffffffffffffffffffffffffffffffffffffff168373ffffffffffffffffffffffffffffffffffffffff1603610b72578060025f828254610b669190611176565b92505081905550610c40565b5f805f8573ffffffffffffffffffffffffffffffffffffffff1673ffffffffffffffffffffffffffffffffffffffff1681526020019081526020015f2054905081811015610bfb578381836040517fe450d38c000000000000000000000000000000000000000000000000000000008152600401610bf2939291906110fb565b60405180910390fd5b8181035f808673ffffffffffffffffffffffffffffffffffffffff1673ffffffffffffffffffffffffffffffffffffffff1681526020019081526020015f2081905550505b5f73ffffffffffffffffffffffffffffffffffffffff168273ffffffffffffffffffffffffffffffffffffffff1603610c87578060025f8282540392505081905550610cd1565b805f808473ffffffffffffffffffffffffffffffffffffffff1673ffffffffffffffffffffffffffffffffffffffff1681526020019081526020015f205f82825401925050819055505b8173ffffffffffffffffffffffffffffffffffffffff168373ffffffffffffffffffffffffffffffffffffffff167fddf252ad1be2c89b69c2b068fc378daa952ba7f163c4a11628f55a4df523b3ef83604051610d2e9190610ef6565b60405180910390a3505050565b5f81519050919050565b5f82825260208201905092915050565b5f5b83811015610d72578082015181840152602081019050610d57565b5f8484015250505050565b5f601f19601f8301169050919050565b5f610d9782610d3b565b610da18185610d45565b9350610db1818560208601610d55565b610dba81610d7d565b840191505092915050565b5f6020820190508181035f830152610ddd8184610d8d565b905092915050565b5f80fd5b5f73ffffffffffffffffffffffffffffffffffffffff82169050919050565b5f610e1282610de9565b9050919050565b610e2281610e08565b8114610e2c575f80fd5b50565b5f81359050610e3d81610e19565b92915050565b5f819050919050565b610e5581610e43565b8114610e5f575f80fd5b50565b5f81359050610e7081610e4c565b92915050565b5f8060408385031215610e8c57610e8b610de5565b5b5f610e9985828601610e2f565b9250506020610eaa85828601610e62565b9150509250929050565b5f8115159050919050565b610ec881610eb4565b82525050565b5f602082019050610ee15f830184610ebf565b92915050565b610ef081610e43565b82525050565b5f602082019050610f095f830184610ee7565b92915050565b5f805f60608486031215610f2657610f25610de5565b5b5f610f3386828701610e2f565b9350506020610f4486828701610e2f565b9250506040610f5586828701610e62565b9150509250925092565b5f60ff82169050919050565b610f7481610f5f565b82525050565b5f602082019050610f8d5f830184610f6b565b92915050565b5f60208284031215610fa857610fa7610de5565b5b5f610fb584828501610e62565b91505092915050565b5f60208284031215610fd357610fd2610de5565b5b5f610fe084828501610e2f565b91505092915050565b5f8060408385031215610fff57610ffe610de5565b5b5f61100c85828601610e2f565b925050602061101d85828601610e2f565b9150509250929050565b7f4e487b71000000000000000000000000000000000000000000000000000000005f52602260045260245ffd5b5f600282049050600182168061106b57607f821691505b60208210810361107e5761107d611027565b5b50919050565b7f4f6e6c792067616d6520636f6e74726163742063616e2063616c6c2e000000005f82015250565b5f6110b8601c83610d45565b91506110c382611084565b602082019050919050565b5f6020820190508181035f8301526110e5816110ac565b9050919050565b6110f581610e08565b82525050565b5f60608201905061110e5f8301866110ec565b61111b6020830185610ee7565b6111286040830184610ee7565b949350505050565b5f6020820190506111435f8301846110ec565b92915050565b7f4e487b71000000000000000000000000000000000000000000000000000000005f52601160045260245ffd5b5f61118082610e43565b915061118b83610e43565b92508282019050808211156111a3576111a2611149565b5b9291505056fea26469706673582212205f832d7741b4a4b7ef128b0fac7a5dea12b80c47ad36b415acabaeca4551338c64736f6c6343000814003360a060405234801562000010575f80fd5b5060405162002dff38038062002dff833981810160405281019062000036919062000133565b6040518060400160405280602081526020017f68747470733a2f2f736f6d2e657465726e697461732e67616d65732f6a736f6e8152506200007d81620000b960201b60201c565b508073ffffffffffffffffffffffffffffffffffffffff1660808173ffffffffffffffffffffffffffffffffffffffff168152505050620004ab565b8060029081620000ca9190620003c7565b5050565b5f80fd5b5f73ffffffffffffffffffffffffffffffffffffffff82169050919050565b5f620000fd82620000d2565b9050919050565b6200010f81620000f1565b81146200011a575f80fd5b50565b5f815190506200012d8162000104565b92915050565b5f602082840312156200014b576200014a620000ce565b5b5f6200015a848285016200011d565b91505092915050565b5f81519050919050565b7f4e487b71000000000000000000000000000000000000000000000000000000005f52604160045260245ffd5b7f4e487b71000000000000000000000000000000000000000000000000000000005f52602260045260245ffd5b5f6002820490506001821680620001df57607f821691505b602082108103620001f557620001f46200019a565b5b50919050565b5f819050815f5260205f209050919050565b5f6020601f8301049050919050565b5f82821b905092915050565b5f60088302620002597fffffffffffffffffffffffffffffffffffffffffffffffffffffffffffffffff826200021c565b6200026586836200021c565b95508019841693508086168417925050509392505050565b5f819050919050565b5f819050919050565b5f620002af620002a9620002a3846200027d565b62000286565b6200027d565b9050919050565b5f819050919050565b620002ca836200028f565b620002e2620002d982620002b6565b84845462000228565b825550505050565b5f90565b620002f8620002ea565b62000305818484620002bf565b505050565b5b818110156200032c57620003205f82620002ee565b6001810190506200030b565b5050565b601f8211156200037b576200034581620001fb565b62000350846200020d565b8101602085101562000360578190505b620003786200036f856200020d565b8301826200030a565b50505b505050565b5f82821c905092915050565b5f6200039d5f198460080262000380565b1980831691505092915050565b5f620003b783836200038c565b9150826002028217905092915050565b620003d28262000163565b67ffffffffffffffff811115620003ee57620003ed6200016d565b5b620003fa8254620001c7565b6200040782828562000330565b5f60209050601f8311600181146200043d575f841562000428578287015190505b620004348582620003aa565b865550620004a3565b601f1984166200044d86620001fb565b5f5b8281101562000476578489015182556001820191506020850194506020810190506200044f565b8683101562000496578489015162000492601f8916826200038c565b8355505b6001600288020188555050505b505050505050565b608051612934620004cb5f395f81816104fb015261080e01526129345ff3fe608060405234801561000f575f80fd5b50600436106100f2575f3560e01c80634f558e7911610095578063bd85b03911610064578063bd85b03914610290578063e985e9c5146102c0578063f242432a146102f0578063f5298aca1461030c576100f2565b80634f558e791461020c5780636b20c4541461023c578063731133e914610258578063a22cb46514610274576100f2565b806318160ddd116100d157806318160ddd146101865780631f7fdffa146101a45780632eb2c2d6146101c05780634e1273f4146101dc576100f2565b8062fdd58e146100f657806301ffc9a7146101265780630e89341c14610156575b5f80fd5b610110600480360381019061010b9190611b29565b610328565b60405161011d9190611b76565b60405180910390f35b610140600480360381019061013b9190611be4565b61037d565b60405161014d9190611c29565b60405180910390f35b610170600480360381019061016b9190611c42565b61045e565b60405161017d9190611cf7565b60405180910390f35b61018e6104f0565b60405161019b9190611b76565b60405180910390f35b6101be60048036038101906101b99190611f07565b6104f9565b005b6101da60048036038101906101d59190611fbf565b610599565b005b6101f660048036038101906101f1919061214a565b610640565b6040516102039190612277565b60405180910390f35b61022660048036038101906102219190611c42565b61074d565b6040516102339190611c29565b60405180910390f35b61025660048036038101906102519190612297565b610760565b005b610272600480360381019061026d919061231f565b61080c565b005b61028e600480360381019061028991906123c9565b6108ac565b005b6102aa60048036038101906102a59190611c42565b6108c2565b6040516102b79190611b76565b60405180910390f35b6102da60048036038101906102d59190612407565b6108dc565b6040516102e79190611c29565b60405180910390f35b61030a60048036038101906103059190612445565b61096a565b005b610326600480360381019061032191906124d8565b610a11565b005b5f805f8381526020019081526020015f205f8473ffffffffffffffffffffffffffffffffffffffff1673ffffffffffffffffffffffffffffffffffffffff1681526020019081526020015f2054905092915050565b5f7fd9b67a26000000000000000000000000000000000000000000000000000000007bffffffffffffffffffffffffffffffffffffffffffffffffffffffff1916827bffffffffffffffffffffffffffffffffffffffffffffffffffffffff1916148061044757507f0e89341c000000000000000000000000000000000000000000000000000000007bffffffffffffffffffffffffffffffffffffffffffffffffffffffff1916827bffffffffffffffffffffffffffffffffffffffffffffffffffffffff1916145b80610457575061045682610abd565b5b9050919050565b60606002805461046d90612555565b80601f016020809104026020016040519081016040528092919081815260200182805461049990612555565b80156104e45780601f106104bb576101008083540402835291602001916104e4565b820191905f5260205f20905b8154815290600101906020018083116104c757829003601f168201915b50505050509050919050565b5f600454905090565b7f000000000000000000000000000000000000000000000000000000000000000073ffffffffffffffffffffffffffffffffffffffff163373ffffffffffffffffffffffffffffffffffffffff1614610587576040517f08c379a000000000000000000000000000000000000000000000000000000000815260040161057e906125cf565b60405180910390fd5b61059384848484610b26565b50505050565b5f6105a2610ba9565b90508073ffffffffffffffffffffffffffffffffffffffff168673ffffffffffffffffffffffffffffffffffffffff16141580156105e757506105e586826108dc565b155b1561062b5780866040517fe237d9220000000000000000000000000000000000000000000000000000000081526004016106229291906125fc565b60405180910390fd5b6106388686868686610bb0565b505050505050565b6060815183511461068c57815183516040517f5b059991000000000000000000000000000000000000000000000000000000008152600401610683929190612623565b60405180910390fd5b5f835167ffffffffffffffff8111156106a8576106a7611d1b565b5b6040519080825280602002602001820160405280156106d65781602001602082028036833780820191505090505b5090505f5b8451811015610742576107126106fa8287610ca490919063ffffffff16565b61070d8387610cb790919063ffffffff16565b610328565b8282815181106107255761072461264a565b5b6020026020010181815250508061073b906126a4565b90506106db565b508091505092915050565b5f80610758836108c2565b119050919050565b610768610ba9565b73ffffffffffffffffffffffffffffffffffffffff168373ffffffffffffffffffffffffffffffffffffffff16141580156107b157506107af836107aa610ba9565b6108dc565b155b156107fc576107be610ba9565b836040517fe237d9220000000000000000000000000000000000000000000000000000000081526004016107f39291906125fc565b60405180910390fd5b610807838383610cca565b505050565b7f000000000000000000000000000000000000000000000000000000000000000073ffffffffffffffffffffffffffffffffffffffff163373ffffffffffffffffffffffffffffffffffffffff161461089a576040517f08c379a0000000000000000000000000000000000000000000000000000000008152600401610891906125cf565b60405180910390fd5b6108a684848484610d5a565b50505050565b6108be6108b7610ba9565b8383610def565b5050565b5f60035f8381526020019081526020015f20549050919050565b5f60015f8473ffffffffffffffffffffffffffffffffffffffff1673ffffffffffffffffffffffffffffffffffffffff1681526020019081526020015f205f8373ffffffffffffffffffffffffffffffffffffffff1673ffffffffffffffffffffffffffffffffffffffff1681526020019081526020015f205f9054906101000a900460ff16905092915050565b5f610973610ba9565b90508073ffffffffffffffffffffffffffffffffffffffff168673ffffffffffffffffffffffffffffffffffffffff16141580156109b857506109b686826108dc565b155b156109fc5780866040517fe237d9220000000000000000000000000000000000000000000000000000000081526004016109f39291906125fc565b60405180910390fd5b610a098686868686610f58565b505050505050565b610a19610ba9565b73ffffffffffffffffffffffffffffffffffffffff168373ffffffffffffffffffffffffffffffffffffffff1614158015610a625750610a6083610a5b610ba9565b6108dc565b155b15610aad57610a6f610ba9565b836040517fe237d922000000000000000000000000000000000000000000000000000000008152600401610aa49291906125fc565b60405180910390fd5b610ab883838361105e565b505050565b5f7f01ffc9a7000000000000000000000000000000000000000000000000000000007bffffffffffffffffffffffffffffffffffffffffffffffffffffffff1916827bffffffffffffffffffffffffffffffffffffffffffffffffffffffff1916149050919050565b5f73ffffffffffffffffffffffffffffffffffffffff168473ffffffffffffffffffffffffffffffffffffffff1603610b96575f6040517f57f447ce000000000000000000000000000000000000000000000000000000008152600401610b8d91906126eb565b60405180910390fd5b610ba35f85858585611100565b50505050565b5f33905090565b5f73ffffffffffffffffffffffffffffffffffffffff168473ffffffffffffffffffffffffffffffffffffffff1603610c20575f6040517f57f447ce000000000000000000000000000000000000000000000000000000008152600401610c1791906126eb565b60405180910390fd5b5f73ffffffffffffffffffffffffffffffffffffffff168573ffffffffffffffffffffffffffffffffffffffff1603610c90575f6040517f01a83514000000000000000000000000000000000000000000000000000000008152600401610c8791906126eb565b60405180910390fd5b610c9d8585858585611100565b5050505050565b5f60208202602084010151905092915050565b5f60208202602084010151905092915050565b5f73ffffffffffffffffffffffffffffffffffffffff168373ffffffffffffffffffffffffffffffffffffffff1603610d3a575f6040517f01a83514000000000000000000000000000000000000000000000000000000008152600401610d3191906126eb565b60405180910390fd5b610d55835f848460405180602001604052805f815250611100565b505050565b5f73ffffffffffffffffffffffffffffffffffffffff168473ffffffffffffffffffffffffffffffffffffffff1603610dca575f6040517f57f447ce000000000000000000000000000000000000000000000000000000008152600401610dc191906126eb565b60405180910390fd5b5f80610dd685856111ac565b91509150610de75f87848487611100565b505050505050565b5f73ffffffffffffffffffffffffffffffffffffffff168273ffffffffffffffffffffffffffffffffffffffff1603610e5f575f6040517fced3e100000000000000000000000000000000000000000000000000000000008152600401610e5691906126eb565b60405180910390fd5b8060015f8573ffffffffffffffffffffffffffffffffffffffff1673ffffffffffffffffffffffffffffffffffffffff1681526020019081526020015f205f8473ffffffffffffffffffffffffffffffffffffffff1673ffffffffffffffffffffffffffffffffffffffff1681526020019081526020015f205f6101000a81548160ff0219169083151502179055508173ffffffffffffffffffffffffffffffffffffffff168373ffffffffffffffffffffffffffffffffffffffff167f17307eab39ab6107e8899845ad3d59bd9653f200f220920489ca2b5937696c3183604051610f4b9190611c29565b60405180910390a3505050565b5f73ffffffffffffffffffffffffffffffffffffffff168473ffffffffffffffffffffffffffffffffffffffff1603610fc8575f6040517f57f447ce000000000000000000000000000000000000000000000000000000008152600401610fbf91906126eb565b60405180910390fd5b5f73ffffffffffffffffffffffffffffffffffffffff168573ffffffffffffffffffffffffffffffffffffffff1603611038575f6040517f01a8351400000000000000000000000000000000000000000000000000000000815260040161102f91906126eb565b60405180910390fd5b5f8061104485856111ac565b915091506110558787848487611100565b50505050505050565b5f73ffffffffffffffffffffffffffffffffffffffff168373ffffffffffffffffffffffffffffffffffffffff16036110ce575f6040517f01a835140000000000000000000000000000000000000000000000000000000081526004016110c591906126eb565b60405180910390fd5b5f806110da84846111ac565b915091506110f9855f848460405180602001604052805f815250611100565b5050505050565b61110c858585856111dc565b5f73ffffffffffffffffffffffffffffffffffffffff168473ffffffffffffffffffffffffffffffffffffffff16146111a5575f611148610ba9565b90506001845103611194575f6111675f86610cb790919063ffffffff16565b90505f61117d5f86610cb790919063ffffffff16565b905061118d8389898585896111ee565b50506111a3565b6111a281878787878761139d565b5b505b5050505050565b60608060405191506001825283602083015260408201905060018152826020820152604081016040529250929050565b6111e88484848461154c565b50505050565b5f8473ffffffffffffffffffffffffffffffffffffffff163b1115611395578373ffffffffffffffffffffffffffffffffffffffff1663f23a6e6187878686866040518663ffffffff1660e01b815260040161124e959493929190612756565b6020604051808303815f875af192505050801561128957506040513d601f19601f8201168201806040525081019061128691906127c2565b60015b61130a573d805f81146112b7576040519150601f19603f3d011682016040523d82523d5f602084013e6112bc565b606091505b505f81510361130257846040517f57f447ce0000000000000000000000000000000000000000000000000000000081526004016112f991906126eb565b60405180910390fd5b805181602001fd5b63f23a6e6160e01b7bffffffffffffffffffffffffffffffffffffffffffffffffffffffff1916817bffffffffffffffffffffffffffffffffffffffffffffffffffffffff19161461139357846040517f57f447ce00000000000000000000000000000000000000000000000000000000815260040161138a91906126eb565b60405180910390fd5b505b505050505050565b5f8473ffffffffffffffffffffffffffffffffffffffff163b1115611544578373ffffffffffffffffffffffffffffffffffffffff1663bc197c8187878686866040518663ffffffff1660e01b81526004016113fd9594939291906127ed565b6020604051808303815f875af192505050801561143857506040513d601f19601f8201168201806040525081019061143591906127c2565b60015b6114b9573d805f8114611466576040519150601f19603f3d011682016040523d82523d5f602084013e61146b565b606091505b505f8151036114b157846040517f57f447ce0000000000000000000000000000000000000000000000000000000081526004016114a891906126eb565b60405180910390fd5b805181602001fd5b63bc197c8160e01b7bffffffffffffffffffffffffffffffffffffffffffffffffffffffff1916817bffffffffffffffffffffffffffffffffffffffffffffffffffffffff19161461154257846040517f57f447ce00000000000000000000000000000000000000000000000000000000815260040161153991906126eb565b60405180910390fd5b505b505050505050565b611558848484846116f5565b5f73ffffffffffffffffffffffffffffffffffffffff168473ffffffffffffffffffffffffffffffffffffffff1603611631575f805b8351811015611616575f8382815181106115ab576115aa61264a565b5b602002602001015190508060035f8785815181106115cc576115cb61264a565b5b602002602001015181526020019081526020015f205f8282546115ef9190612853565b9250508190555080836116029190612853565b9250508061160f906126a4565b905061158e565b508060045f8282546116289190612853565b92505081905550505b5f73ffffffffffffffffffffffffffffffffffffffff168373ffffffffffffffffffffffffffffffffffffffff16036116ef575f805b83518110156116dd575f8382815181106116845761168361264a565b5b602002602001015190508060035f8785815181106116a5576116a461264a565b5b602002602001015181526020019081526020015f205f8282540392505081905550808301925050806116d6906126a4565b9050611667565b508060045f8282540392505081905550505b50505050565b805182511461173f57815181516040517f5b059991000000000000000000000000000000000000000000000000000000008152600401611736929190612623565b60405180910390fd5b5f611748610ba9565b90505f5b835181101561194a575f6117698286610cb790919063ffffffff16565b90505f61177f8386610cb790919063ffffffff16565b90505f73ffffffffffffffffffffffffffffffffffffffff168873ffffffffffffffffffffffffffffffffffffffff16146118a2575f805f8481526020019081526020015f205f8a73ffffffffffffffffffffffffffffffffffffffff1673ffffffffffffffffffffffffffffffffffffffff1681526020019081526020015f205490508181101561184e57888183856040517f03dee4c50000000000000000000000000000000000000000000000000000000081526004016118459493929190612886565b60405180910390fd5b8181035f808581526020019081526020015f205f8b73ffffffffffffffffffffffffffffffffffffffff1673ffffffffffffffffffffffffffffffffffffffff1681526020019081526020015f2081905550505b5f73ffffffffffffffffffffffffffffffffffffffff168773ffffffffffffffffffffffffffffffffffffffff161461193757805f808481526020019081526020015f205f8973ffffffffffffffffffffffffffffffffffffffff1673ffffffffffffffffffffffffffffffffffffffff1681526020019081526020015f205f82825461192f9190612853565b925050819055505b505080611943906126a4565b905061174c565b506001835103611a05575f6119685f85610cb790919063ffffffff16565b90505f61197e5f85610cb790919063ffffffff16565b90508573ffffffffffffffffffffffffffffffffffffffff168773ffffffffffffffffffffffffffffffffffffffff168473ffffffffffffffffffffffffffffffffffffffff167fc3d58168c5ae7397731d063d5bbf3d657854427343f4c083240f7aacaa2d0f6285856040516119f6929190612623565b60405180910390a45050611a84565b8373ffffffffffffffffffffffffffffffffffffffff168573ffffffffffffffffffffffffffffffffffffffff168273ffffffffffffffffffffffffffffffffffffffff167f4a39dc06d4c0dbc64b70af90fd698a233a518aa5d07e595d983b8c0526c8f7fb8686604051611a7b9291906128c9565b60405180910390a45b5050505050565b5f604051905090565b5f80fd5b5f80fd5b5f73ffffffffffffffffffffffffffffffffffffffff82169050919050565b5f611ac582611a9c565b9050919050565b611ad581611abb565b8114611adf575f80fd5b50565b5f81359050611af081611acc565b92915050565b5f819050919050565b611b0881611af6565b8114611b12575f80fd5b50565b5f81359050611b2381611aff565b92915050565b5f8060408385031215611b3f57611b3e611a94565b5b5f611b4c85828601611ae2565b9250506020611b5d85828601611b15565b9150509250929050565b611b7081611af6565b82525050565b5f602082019050611b895f830184611b67565b92915050565b5f7fffffffff0000000000000000000000000000000000000000000000000000000082169050919050565b611bc381611b8f565b8114611bcd575f80fd5b50565b5f81359050611bde81611bba565b92915050565b5f60208284031215611bf957611bf8611a94565b5b5f611c0684828501611bd0565b91505092915050565b5f8115159050919050565b611c2381611c0f565b82525050565b5f602082019050611c3c5f830184611c1a565b92915050565b5f60208284031215611c5757611c56611a94565b5b5f611c6484828501611b15565b91505092915050565b5f81519050919050565b5f82825260208201905092915050565b5f5b83811015611ca4578082015181840152602081019050611c89565b5f8484015250505050565b5f601f19601f8301169050919050565b5f611cc982611c6d565b611cd38185611c77565b9350611ce3818560208601611c87565b611cec81611caf565b840191505092915050565b5f6020820190508181035f830152611d0f8184611cbf565b905092915050565b5f80fd5b7f4e487b71000000000000000000000000000000000000000000000000000000005f52604160045260245ffd5b611d5182611caf565b810181811067ffffffffffffffff82111715611d7057611d6f611d1b565b5b80604052505050565b5f611d82611a8b565b9050611d8e8282611d48565b919050565b5f67ffffffffffffffff821115611dad57611dac611d1b565b5b602082029050602081019050919050565b5f80fd5b5f611dd4611dcf84611d93565b611d79565b90508083825260208201905060208402830185811115611df757611df6611dbe565b5b835b81811015611e205780611e0c8882611b15565b845260208401935050602081019050611df9565b5050509392505050565b5f82601f830112611e3e57611e3d611d17565b5b8135611e4e848260208601611dc2565b91505092915050565b5f80fd5b5f67ffffffffffffffff821115611e7557611e74611d1b565b5b611e7e82611caf565b9050602081019050919050565b828183375f83830152505050565b5f611eab611ea684611e5b565b611d79565b905082815260208101848484011115611ec757611ec6611e57565b5b611ed2848285611e8b565b509392505050565b5f82601f830112611eee57611eed611d17565b5b8135611efe848260208601611e99565b91505092915050565b5f805f8060808587031215611f1f57611f1e611a94565b5b5f611f2c87828801611ae2565b945050602085013567ffffffffffffffff811115611f4d57611f4c611a98565b5b611f5987828801611e2a565b935050604085013567ffffffffffffffff811115611f7a57611f79611a98565b5b611f8687828801611e2a565b925050606085013567ffffffffffffffff811115611fa757611fa6611a98565b5b611fb387828801611eda565b91505092959194509250565b5f805f805f60a08688031215611fd857611fd7611a94565b5b5f611fe588828901611ae2565b9550506020611ff688828901611ae2565b945050604086013567ffffffffffffffff81111561201757612016611a98565b5b61202388828901611e2a565b935050606086013567ffffffffffffffff81111561204457612043611a98565b5b61205088828901611e2a565b925050608086013567ffffffffffffffff81111561207157612070611a98565b5b61207d88828901611eda565b9150509295509295909350565b5f67ffffffffffffffff8211156120a4576120a3611d1b565b5b602082029050602081019050919050565b5f6120c76120c28461208a565b611d79565b905080838252602082019050602084028301858111156120ea576120e9611dbe565b5b835b8181101561211357806120ff8882611ae2565b8452602084019350506020810190506120ec565b5050509392505050565b5f82601f83011261213157612130611d17565b5b81356121418482602086016120b5565b91505092915050565b5f80604083850312156121605761215f611a94565b5b5f83013567ffffffffffffffff81111561217d5761217c611a98565b5b6121898582860161211d565b925050602083013567ffffffffffffffff8111156121aa576121a9611a98565b5b6121b685828601611e2a565b9150509250929050565b5f81519050919050565b5f82825260208201905092915050565b5f819050602082019050919050565b6121f281611af6565b82525050565b5f61220383836121e9565b60208301905092915050565b5f602082019050919050565b5f612225826121c0565b61222f81856121ca565b935061223a836121da565b805f5b8381101561226a57815161225188826121f8565b975061225c8361220f565b92505060018101905061223d565b5085935050505092915050565b5f6020820190508181035f83015261228f818461221b565b905092915050565b5f805f606084860312156122ae576122ad611a94565b5b5f6122bb86828701611ae2565b935050602084013567ffffffffffffffff8111156122dc576122db611a98565b5b6122e886828701611e2a565b925050604084013567ffffffffffffffff81111561230957612308611a98565b5b61231586828701611e2a565b9150509250925092565b5f805f806080858703121561233757612336611a94565b5b5f61234487828801611ae2565b945050602061235587828801611b15565b935050604061236687828801611b15565b925050606085013567ffffffffffffffff81111561238757612386611a98565b5b61239387828801611eda565b91505092959194509250565b6123a881611c0f565b81146123b2575f80fd5b50565b5f813590506123c38161239f565b92915050565b5f80604083850312156123df576123de611a94565b5b5f6123ec85828601611ae2565b92505060206123fd858286016123b5565b9150509250929050565b5f806040838503121561241d5761241c611a94565b5b5f61242a85828601611ae2565b925050602061243b85828601611ae2565b9150509250929050565b5f805f805f60a0868803121561245e5761245d611a94565b5b5f61246b88828901611ae2565b955050602061247c88828901611ae2565b945050604061248d88828901611b15565b935050606061249e88828901611b15565b925050608086013567ffffffffffffffff8111156124bf576124be611a98565b5b6124cb88828901611eda565b9150509295509295909350565b5f805f606084860312156124ef576124ee611a94565b5b5f6124fc86828701611ae2565b935050602061250d86828701611b15565b925050604061251e86828701611b15565b9150509250925092565b7f4e487b71000000000000000000000000000000000000000000000000000000005f52602260045260245ffd5b5f600282049050600182168061256c57607f821691505b60208210810361257f5761257e612528565b5b50919050565b7f4f6e6c792067616d6520636f6e74726163742063616e2063616c6c2e000000005f82015250565b5f6125b9601c83611c77565b91506125c482612585565b602082019050919050565b5f6020820190508181035f8301526125e6816125ad565b9050919050565b6125f681611abb565b82525050565b5f60408201905061260f5f8301856125ed565b61261c60208301846125ed565b9392505050565b5f6040820190506126365f830185611b67565b6126436020830184611b67565b9392505050565b7f4e487b71000000000000000000000000000000000000000000000000000000005f52603260045260245ffd5b7f4e487b71000000000000000000000000000000000000000000000000000000005f52601160045260245ffd5b5f6126ae82611af6565b91507fffffffffffffffffffffffffffffffffffffffffffffffffffffffffffffffff82036126e0576126df612677565b5b600182019050919050565b5f6020820190506126fe5f8301846125ed565b92915050565b5f81519050919050565b5f82825260208201905092915050565b5f61272882612704565b612732818561270e565b9350612742818560208601611c87565b61274b81611caf565b840191505092915050565b5f60a0820190506127695f8301886125ed565b61277660208301876125ed565b6127836040830186611b67565b6127906060830185611b67565b81810360808301526127a2818461271e565b90509695505050505050565b5f815190506127bc81611bba565b92915050565b5f602082840312156127d7576127d6611a94565b5b5f6127e4848285016127ae565b91505092915050565b5f60a0820190506128005f8301886125ed565b61280d60208301876125ed565b818103604083015261281f818661221b565b90508181036060830152612833818561221b565b90508181036080830152612847818461271e565b90509695505050505050565b5f61285d82611af6565b915061286883611af6565b92508282019050808211156128805761287f612677565b5b92915050565b5f6080820190506128995f8301876125ed565b6128a66020830186611b67565b6128b36040830185611b67565b6128c06060830184611b67565b95945050505050565b5f6040820190508181035f8301526128e1818561221b565b905081810360208301526128f5818461221b565b9050939250505056fea26469706673582212208758f283f5b2a1538ffdd8d6bd6203a646ee510cc9cd8e4aa7ba217de96a48b764736f6c63430008140033",
			"opcodes": "PUSH2 0x140 PUSH1 0x40 MSTORE PUSH1 0x40 MLOAD DUP1 PUSH1 0x40 ADD PUSH1 0x40 MSTORE DUP1 PUSH8 0xDE0B6B3A7640000 PUSH1 0x64 PUSH3 0x27 SWAP2 SWAP1 PUSH3 0x776 JUMP JUMPDEST DUP2 MSTORE PUSH1 0x20 ADD PUSH8 0xDE0B6B3A7640000 PUSH1 0x64 PUSH3 0x43 SWAP2 SWAP1 PUSH3 0x776 JUMP JUMPDEST DUP2 MSTORE POP PUSH1 0x4 PUSH0 DUP3 ADD MLOAD DUP2 PUSH0 ADD SSTORE PUSH1 0x20 DUP3 ADD MLOAD DUP2 PUSH1 0x1 ADD SSTORE POP POP CALLVALUE DUP1 ISZERO PUSH3 0x68 JUMPI PUSH0 DUP1 REVERT JUMPDEST POP PUSH1 0x40 MLOAD PUSH3 0x9720 CODESIZE SUB DUP1 PUSH3 0x9720 DUP4 CODECOPY DUP2 DUP2 ADD PUSH1 0x40 MSTORE DUP2 ADD SWAP1 PUSH3 0x8E SWAP2 SWAP1 PUSH3 0x825 JUMP JUMPDEST ADDRESS PUSH1 0x40 MLOAD PUSH3 0x9D SWAP1 PUSH3 0x708 JUMP JUMPDEST PUSH3 0xA9 SWAP2 SWAP1 PUSH3 0x866 JUMP JUMPDEST PUSH1 0x40 MLOAD DUP1 SWAP2 SUB SWAP1 PUSH0 CREATE DUP1 ISZERO DUP1 ISZERO PUSH3 0xC3 JUMPI RETURNDATASIZE PUSH0 DUP1 RETURNDATACOPY RETURNDATASIZE PUSH0 REVERT JUMPDEST POP PUSH20 0xFFFFFFFFFFFFFFFFFFFFFFFFFFFFFFFFFFFFFFFF AND PUSH1 0xC0 DUP2 PUSH20 0xFFFFFFFFFFFFFFFFFFFFFFFFFFFFFFFFFFFFFFFF AND DUP2 MSTORE POP POP ADDRESS PUSH1 0x40 MLOAD PUSH3 0x106 SWAP1 PUSH3 0x716 JUMP JUMPDEST PUSH3 0x112 SWAP2 SWAP1 PUSH3 0x866 JUMP JUMPDEST PUSH1 0x40 MLOAD DUP1 SWAP2 SUB SWAP1 PUSH0 CREATE DUP1 ISZERO DUP1 ISZERO PUSH3 0x12C JUMPI RETURNDATASIZE PUSH0 DUP1 RETURNDATACOPY RETURNDATASIZE PUSH0 REVERT JUMPDEST POP PUSH20 0xFFFFFFFFFFFFFFFFFFFFFFFFFFFFFFFFFFFFFFFF AND PUSH1 0xE0 DUP2 PUSH20 0xFFFFFFFFFFFFFFFFFFFFFFFFFFFFFFFFFFFFFFFF AND DUP2 MSTORE POP POP ADDRESS PUSH1 0x40 MLOAD PUSH3 0x16F SWAP1 PUSH3 0x724 JUMP JUMPDEST PUSH3 0x17B SWAP2 SWAP1 PUSH3 0x866 JUMP JUMPDEST PUSH1 0x40 MLOAD DUP1 SWAP2 SUB SWAP1 PUSH0 CREATE DUP1 ISZERO DUP1 ISZERO PUSH3 0x195 JUMPI RETURNDATASIZE PUSH0 DUP1 RETURNDATACOPY RETURNDATASIZE PUSH0 REVERT JUMPDEST POP PUSH20 0xFFFFFFFFFFFFFFFFFFFFFFFFFFFFFFFFFFFFFFFF AND PUSH2 0x100 DUP2 PUSH20 0xFFFFFFFFFFFFFFFFFFFFFFFFFFFFFFFFFFFFFFFF AND DUP2 MSTORE POP POP ADDRESS PUSH1 0x40 MLOAD PUSH3 0x1D9 SWAP1 PUSH3 0x732 JUMP JUMPDEST PUSH3 0x1E5 SWAP2 SWAP1 PUSH3 0x866 JUMP JUMPDEST PUSH1 0x40 MLOAD DUP1 SWAP2 SUB SWAP1 PUSH0 CREATE DUP1 ISZERO DUP1 ISZERO PUSH3 0x1FF JUMPI RETURNDATASIZE PUSH0 DUP1 RETURNDATACOPY RETURNDATASIZE PUSH0 REVERT JUMPDEST POP PUSH20 0xFFFFFFFFFFFFFFFFFFFFFFFFFFFFFFFFFFFFFFFF AND PUSH2 0x120 DUP2 PUSH20 0xFFFFFFFFFFFFFFFFFFFFFFFFFFFFFFFFFFFFFFFF AND DUP2 MSTORE POP POP PUSH1 0x40 MLOAD DUP1 PUSH1 0x40 ADD PUSH1 0x40 MSTORE DUP1 PUSH8 0xDE0B6B3A7640000 PUSH1 0xC8 PUSH3 0x256 SWAP2 SWAP1 PUSH3 0x776 JUMP JUMPDEST DUP2 MSTORE PUSH1 0x20 ADD PUSH8 0xDE0B6B3A7640000 PUSH1 0xC8 PUSH3 0x272 SWAP2 SWAP1 PUSH3 0x776 JUMP JUMPDEST DUP2 MSTORE POP PUSH0 DUP1 PUSH1 0x1 PUSH1 0x5 DUP2 GT ISZERO PUSH3 0x28E JUMPI PUSH3 0x28D PUSH3 0x881 JUMP JUMPDEST JUMPDEST PUSH1 0x5 DUP2 GT ISZERO PUSH3 0x2A3 JUMPI PUSH3 0x2A2 PUSH3 0x881 JUMP JUMPDEST JUMPDEST DUP2 MSTORE PUSH1 0x20 ADD SWAP1 DUP2 MSTORE PUSH1 0x20 ADD PUSH0 KECCAK256 PUSH0 DUP3 ADD MLOAD DUP2 PUSH0 ADD SSTORE PUSH1 0x20 DUP3 ADD MLOAD DUP2 PUSH1 0x1 ADD SSTORE SWAP1 POP POP PUSH1 0x40 MLOAD DUP1 PUSH1 0x40 ADD PUSH1 0x40 MSTORE DUP1 PUSH8 0xDE0B6B3A7640000 PUSH2 0x320 PUSH3 0x2E8 SWAP2 SWAP1 PUSH3 0x776 JUMP JUMPDEST DUP2 MSTORE PUSH1 0x20 ADD PUSH8 0xDE0B6B3A7640000 PUSH2 0x190 PUSH3 0x305 SWAP2 SWAP1 PUSH3 0x776 JUMP JUMPDEST DUP2 MSTORE POP PUSH0 DUP1 PUSH1 0x2 PUSH1 0x5 DUP2 GT ISZERO PUSH3 0x321 JUMPI PUSH3 0x320 PUSH3 0x881 JUMP JUMPDEST JUMPDEST PUSH1 0x5 DUP2 GT ISZERO PUSH3 0x336 JUMPI PUSH3 0x335 PUSH3 0x881 JUMP JUMPDEST JUMPDEST DUP2 MSTORE PUSH1 0x20 ADD SWAP1 DUP2 MSTORE PUSH1 0x20 ADD PUSH0 KECCAK256 PUSH0 DUP3 ADD MLOAD DUP2 PUSH0 ADD SSTORE PUSH1 0x20 DUP3 ADD MLOAD DUP2 PUSH1 0x1 ADD SSTORE SWAP1 POP POP PUSH1 0x40 MLOAD DUP1 PUSH1 0x40 ADD PUSH1 0x40 MSTORE DUP1 PUSH8 0xDE0B6B3A7640000 PUSH2 0xC80 PUSH3 0x37B SWAP2 SWAP1 PUSH3 0x776 JUMP JUMPDEST DUP2 MSTORE PUSH1 0x20 ADD PUSH8 0xDE0B6B3A7640000 PUSH2 0x258 PUSH3 0x398 SWAP2 SWAP1 PUSH3 0x776 JUMP JUMPDEST DUP2 MSTORE POP PUSH0 DUP1 PUSH1 0x3 PUSH1 0x5 DUP2 GT ISZERO PUSH3 0x3B4 JUMPI PUSH3 0x3B3 PUSH3 0x881 JUMP JUMPDEST JUMPDEST PUSH1 0x5 DUP2 GT ISZERO PUSH3 0x3C9 JUMPI PUSH3 0x3C8 PUSH3 0x881 JUMP JUMPDEST JUMPDEST DUP2 MSTORE PUSH1 0x20 ADD SWAP1 DUP2 MSTORE PUSH1 0x20 ADD PUSH0 KECCAK256 PUSH0 DUP3 ADD MLOAD DUP2 PUSH0 ADD SSTORE PUSH1 0x20 DUP3 ADD MLOAD DUP2 PUSH1 0x1 ADD SSTORE SWAP1 POP POP PUSH1 0x40 MLOAD DUP1 PUSH1 0x40 ADD PUSH1 0x40 MSTORE DUP1 PUSH8 0xDE0B6B3A7640000 PUSH2 0x3200 PUSH3 0x40E SWAP2 SWAP1 PUSH3 0x776 JUMP JUMPDEST DUP2 MSTORE PUSH1 0x20 ADD PUSH8 0xDE0B6B3A7640000 PUSH2 0x320 PUSH3 0x42B SWAP2 SWAP1 PUSH3 0x776 JUMP JUMPDEST DUP2 MSTORE POP PUSH0 DUP1 PUSH1 0x4 PUSH1 0x5 DUP2 GT ISZERO PUSH3 0x447 JUMPI PUSH3 0x446 PUSH3 0x881 JUMP JUMPDEST JUMPDEST PUSH1 0x5 DUP2 GT ISZERO PUSH3 0x45C JUMPI PUSH3 0x45B PUSH3 0x881 JUMP JUMPDEST JUMPDEST DUP2 MSTORE PUSH1 0x20 ADD SWAP1 DUP2 MSTORE PUSH1 0x20 ADD PUSH0 KECCAK256 PUSH0 DUP3 ADD MLOAD DUP2 PUSH0 ADD SSTORE PUSH1 0x20 DUP3 ADD MLOAD DUP2 PUSH1 0x1 ADD SSTORE SWAP1 POP POP PUSH1 0x40 MLOAD DUP1 PUSH1 0x40 ADD PUSH1 0x40 MSTORE DUP1 PUSH8 0xDE0B6B3A7640000 PUSH2 0xC800 PUSH3 0x4A1 SWAP2 SWAP1 PUSH3 0x776 JUMP JUMPDEST DUP2 MSTORE PUSH1 0x20 ADD PUSH8 0xDE0B6B3A7640000 PUSH2 0x3E8 PUSH3 0x4BE SWAP2 SWAP1 PUSH3 0x776 JUMP JUMPDEST DUP2 MSTORE POP PUSH0 DUP1 PUSH1 0x5 DUP1 DUP2 GT ISZERO PUSH3 0x4D9 JUMPI PUSH3 0x4D8 PUSH3 0x881 JUMP JUMPDEST JUMPDEST PUSH1 0x5 DUP2 GT ISZERO PUSH3 0x4EE JUMPI PUSH3 0x4ED PUSH3 0x881 JUMP JUMPDEST JUMPDEST DUP2 MSTORE PUSH1 0x20 ADD SWAP1 DUP2 MSTORE PUSH1 0x20 ADD PUSH0 KECCAK256 PUSH0 DUP3 ADD MLOAD DUP2 PUSH0 ADD SSTORE PUSH1 0x20 DUP3 ADD MLOAD DUP2 PUSH1 0x1 ADD SSTORE SWAP1 POP POP PUSH8 0xDE0B6B3A7640000 PUSH1 0x14 PUSH3 0x527 SWAP2 SWAP1 PUSH3 0x776 JUMP JUMPDEST PUSH1 0x1 PUSH0 PUSH1 0x1 PUSH1 0x5 DUP2 GT ISZERO PUSH3 0x541 JUMPI PUSH3 0x540 PUSH3 0x881 JUMP JUMPDEST JUMPDEST PUSH1 0x5 DUP2 GT ISZERO PUSH3 0x556 JUMPI PUSH3 0x555 PUSH3 0x881 JUMP JUMPDEST JUMPDEST DUP2 MSTORE PUSH1 0x20 ADD SWAP1 DUP2 MSTORE PUSH1 0x20 ADD PUSH0 KECCAK256 DUP2 SWAP1 SSTORE POP PUSH8 0xDE0B6B3A7640000 PUSH1 0x50 PUSH3 0x57E SWAP2 SWAP1 PUSH3 0x776 JUMP JUMPDEST PUSH1 0x1 PUSH0 PUSH1 0x2 PUSH1 0x5 DUP2 GT ISZERO PUSH3 0x598 JUMPI PUSH3 0x597 PUSH3 0x881 JUMP JUMPDEST JUMPDEST PUSH1 0x5 DUP2 GT ISZERO PUSH3 0x5AD JUMPI PUSH3 0x5AC PUSH3 0x881 JUMP JUMPDEST JUMPDEST DUP2 MSTORE PUSH1 0x20 ADD SWAP1 DUP2 MSTORE PUSH1 0x20 ADD PUSH0 KECCAK256 DUP2 SWAP1 SSTORE POP PUSH8 0xDE0B6B3A7640000 PUSH2 0x140 PUSH3 0x5D6 SWAP2 SWAP1 PUSH3 0x776 JUMP JUMPDEST PUSH1 0x1 PUSH0 PUSH1 0x3 PUSH1 0x5 DUP2 GT ISZERO PUSH3 0x5F0 JUMPI PUSH3 0x5EF PUSH3 0x881 JUMP JUMPDEST JUMPDEST PUSH1 0x5 DUP2 GT ISZERO PUSH3 0x605 JUMPI PUSH3 0x604 PUSH3 0x881 JUMP JUMPDEST JUMPDEST DUP2 MSTORE PUSH1 0x20 ADD SWAP1 DUP2 MSTORE PUSH1 0x20 ADD PUSH0 KECCAK256 DUP2 SWAP1 SSTORE POP PUSH8 0xDE0B6B3A7640000 PUSH2 0x500 PUSH3 0x62E SWAP2 SWAP1 PUSH3 0x776 JUMP JUMPDEST PUSH1 0x1 PUSH0 PUSH1 0x4 PUSH1 0x5 DUP2 GT ISZERO PUSH3 0x648 JUMPI PUSH3 0x647 PUSH3 0x881 JUMP JUMPDEST JUMPDEST PUSH1 0x5 DUP2 GT ISZERO PUSH3 0x65D JUMPI PUSH3 0x65C PUSH3 0x881 JUMP JUMPDEST JUMPDEST DUP2 MSTORE PUSH1 0x20 ADD SWAP1 DUP2 MSTORE PUSH1 0x20 ADD PUSH0 KECCAK256 DUP2 SWAP1 SSTORE POP PUSH8 0xDE0B6B3A7640000 PUSH2 0x1400 PUSH3 0x686 SWAP2 SWAP1 PUSH3 0x776 JUMP JUMPDEST PUSH1 0x1 PUSH0 PUSH1 0x5 DUP1 DUP2 GT ISZERO PUSH3 0x69F JUMPI PUSH3 0x69E PUSH3 0x881 JUMP JUMPDEST JUMPDEST PUSH1 0x5 DUP2 GT ISZERO PUSH3 0x6B4 JUMPI PUSH3 0x6B3 PUSH3 0x881 JUMP JUMPDEST JUMPDEST DUP2 MSTORE PUSH1 0x20 ADD SWAP1 DUP2 MSTORE PUSH1 0x20 ADD PUSH0 KECCAK256 DUP2 SWAP1 SSTORE POP DUP1 PUSH20 0xFFFFFFFFFFFFFFFFFFFFFFFFFFFFFFFFFFFFFFFF AND PUSH1 0x80 DUP2 PUSH20 0xFFFFFFFFFFFFFFFFFFFFFFFFFFFFFFFFFFFFFFFF AND DUP2 MSTORE POP POP TIMESTAMP PUSH1 0xA0 DUP2 DUP2 MSTORE POP POP POP PUSH3 0x8AE JUMP JUMPDEST PUSH2 0x151E DUP1 PUSH3 0x2637 DUP4 CODECOPY ADD SWAP1 JUMP JUMPDEST PUSH2 0x16E6 DUP1 PUSH3 0x3B55 DUP4 CODECOPY ADD SWAP1 JUMP JUMPDEST PUSH2 0x16E6 DUP1 PUSH3 0x523B DUP4 CODECOPY ADD SWAP1 JUMP JUMPDEST PUSH2 0x2DFF DUP1 PUSH3 0x6921 DUP4 CODECOPY ADD SWAP1 JUMP JUMPDEST PUSH0 DUP2 SWAP1 POP SWAP2 SWAP1 POP JUMP JUMPDEST PUSH32 0x4E487B7100000000000000000000000000000000000000000000000000000000 PUSH0 MSTORE PUSH1 0x11 PUSH1 0x4 MSTORE PUSH1 0x24 PUSH0 REVERT JUMPDEST PUSH0 PUSH3 0x782 DUP3 PUSH3 0x740 JUMP JUMPDEST SWAP2 POP PUSH3 0x78F DUP4 PUSH3 0x740 JUMP JUMPDEST SWAP3 POP DUP3 DUP3 MUL PUSH3 0x79F DUP2 PUSH3 0x740 JUMP JUMPDEST SWAP2 POP DUP3 DUP3 DIV DUP5 EQ DUP4 ISZERO OR PUSH3 0x7B9 JUMPI PUSH3 0x7B8 PUSH3 0x749 JUMP JUMPDEST JUMPDEST POP SWAP3 SWAP2 POP POP JUMP JUMPDEST PUSH0 DUP1 REVERT JUMPDEST PUSH0 PUSH20 0xFFFFFFFFFFFFFFFFFFFFFFFFFFFFFFFFFFFFFFFF DUP3 AND SWAP1 POP SWAP2 SWAP1 POP JUMP JUMPDEST PUSH0 PUSH3 0x7EF DUP3 PUSH3 0x7C4 JUMP JUMPDEST SWAP1 POP SWAP2 SWAP1 POP JUMP JUMPDEST PUSH3 0x801 DUP2 PUSH3 0x7E3 JUMP JUMPDEST DUP2 EQ PUSH3 0x80C JUMPI PUSH0 DUP1 REVERT JUMPDEST POP JUMP JUMPDEST PUSH0 DUP2 MLOAD SWAP1 POP PUSH3 0x81F DUP2 PUSH3 0x7F6 JUMP JUMPDEST SWAP3 SWAP2 POP POP JUMP JUMPDEST PUSH0 PUSH1 0x20 DUP3 DUP5 SUB SLT ISZERO PUSH3 0x83D JUMPI PUSH3 0x83C PUSH3 0x7C0 JUMP JUMPDEST JUMPDEST PUSH0 PUSH3 0x84C DUP5 DUP3 DUP6 ADD PUSH3 0x80F JUMP JUMPDEST SWAP2 POP POP SWAP3 SWAP2 POP POP JUMP JUMPDEST PUSH3 0x860 DUP2 PUSH3 0x7E3 JUMP JUMPDEST DUP3 MSTORE POP POP JUMP JUMPDEST PUSH0 PUSH1 0x20 DUP3 ADD SWAP1 POP PUSH3 0x87B PUSH0 DUP4 ADD DUP5 PUSH3 0x855 JUMP JUMPDEST SWAP3 SWAP2 POP POP JUMP JUMPDEST PUSH32 0x4E487B7100000000000000000000000000000000000000000000000000000000 PUSH0 MSTORE PUSH1 0x21 PUSH1 0x4 MSTORE PUSH1 0x24 PUSH0 REVERT JUMPDEST PUSH1 0x80 MLOAD PUSH1 0xA0 MLOAD PUSH1 0xC0 MLOAD PUSH1 0xE0 MLOAD PUSH2 0x100 MLOAD PUSH2 0x120 MLOAD PUSH2 0x1CD8 PUSH3 0x95F PUSH0 CODECOPY PUSH0 DUP2 DUP2 PUSH2 0x505 ADD MSTORE DUP2 DUP2 PUSH2 0x8D3 ADD MSTORE DUP2 DUP2 PUSH2 0x95E ADD MSTORE DUP2 DUP2 PUSH2 0x1033 ADD MSTORE PUSH2 0x1187 ADD MSTORE PUSH0 DUP2 DUP2 PUSH2 0xB68 ADD MSTORE DUP2 DUP2 PUSH2 0xE9D ADD MSTORE PUSH2 0x100F ADD MSTORE PUSH0 DUP2 DUP2 PUSH2 0x47D ADD MSTORE DUP2 DUP2 PUSH2 0xAE0 ADD MSTORE DUP2 DUP2 PUSH2 0xD7D ADD MSTORE DUP2 DUP2 PUSH2 0xE0A ADD MSTORE PUSH2 0xF25 ADD MSTORE PUSH0 DUP2 DUP2 PUSH2 0x3F5 ADD MSTORE DUP2 DUP2 PUSH2 0xCF5 ADD MSTORE DUP2 DUP2 PUSH2 0xFEB ADD MSTORE PUSH2 0x10FF ADD MSTORE PUSH0 DUP2 DUP2 PUSH2 0xC2E ADD MSTORE PUSH2 0x12B3 ADD MSTORE PUSH0 DUP2 DUP2 PUSH2 0x5ED ADD MSTORE PUSH2 0xC7E ADD MSTORE PUSH2 0x1CD8 PUSH0 RETURN INVALID PUSH1 0x80 PUSH1 0x40 MSTORE CALLVALUE DUP1 ISZERO PUSH2 0xF JUMPI PUSH0 DUP1 REVERT JUMPDEST POP PUSH1 0x4 CALLDATASIZE LT PUSH2 0xF3 JUMPI PUSH0 CALLDATALOAD PUSH1 0xE0 SHR DUP1 PUSH4 0x793C0AAA GT PUSH2 0x95 JUMPI DUP1 PUSH4 0x9F02AB38 GT PUSH2 0x64 JUMPI DUP1 PUSH4 0x9F02AB38 EQ PUSH2 0x249 JUMPI DUP1 PUSH4 0xA6523BBA EQ PUSH2 0x267 JUMPI DUP1 PUSH4 0xC06FAD06 EQ PUSH2 0x285 JUMPI DUP1 PUSH4 0xC6CB066D EQ PUSH2 0x2A3 JUMPI PUSH2 0xF3 JUMP JUMPDEST DUP1 PUSH4 0x793C0AAA EQ PUSH2 0x1C3 JUMPI DUP1 PUSH4 0x7CA35209 EQ PUSH2 0x1F3 JUMPI DUP1 PUSH4 0x8168528D EQ PUSH2 0x20F JUMPI DUP1 PUSH4 0x98DA7217 EQ PUSH2 0x22D JUMPI PUSH2 0xF3 JUMP JUMPDEST DUP1 PUSH4 0x4354AE46 GT PUSH2 0xD1 JUMPI DUP1 PUSH4 0x4354AE46 EQ PUSH2 0x139 JUMPI DUP1 PUSH4 0x59501A4C EQ PUSH2 0x158 JUMPI DUP1 PUSH4 0x5FBBD62B EQ PUSH2 0x189 JUMPI DUP1 PUSH4 0x607AD0D7 EQ PUSH2 0x1A5 JUMPI PUSH2 0xF3 JUMP JUMPDEST DUP1 PUSH4 0x24046E5B EQ PUSH2 0xF7 JUMPI DUP1 PUSH4 0x2626955E EQ PUSH2 0x113 JUMPI DUP1 PUSH4 0x37AFD167 EQ PUSH2 0x12F JUMPI JUMPDEST PUSH0 DUP1 REVERT JUMPDEST PUSH2 0x111 PUSH1 0x4 DUP1 CALLDATASIZE SUB DUP2 ADD SWAP1 PUSH2 0x10C SWAP2 SWAP1 PUSH2 0x1348 JUMP JUMPDEST PUSH2 0x2BF JUMP JUMPDEST STOP JUMPDEST PUSH2 0x12D PUSH1 0x4 DUP1 CALLDATASIZE SUB DUP2 ADD SWAP1 PUSH2 0x128 SWAP2 SWAP1 PUSH2 0x13A9 JUMP JUMPDEST PUSH2 0x5D4 JUMP JUMPDEST STOP JUMPDEST PUSH2 0x137 PUSH2 0x73A JUMP JUMPDEST STOP JUMPDEST PUSH2 0x141 PUSH2 0xA3F JUMP JUMPDEST PUSH1 0x40 MLOAD PUSH2 0x14F SWAP3 SWAP2 SWAP1 PUSH2 0x13F6 JUMP JUMPDEST PUSH1 0x40 MLOAD DUP1 SWAP2 SUB SWAP1 RETURN JUMPDEST PUSH2 0x172 PUSH1 0x4 DUP1 CALLDATASIZE SUB DUP2 ADD SWAP1 PUSH2 0x16D SWAP2 SWAP1 PUSH2 0x141D JUMP JUMPDEST PUSH2 0xA50 JUMP JUMPDEST PUSH1 0x40 MLOAD PUSH2 0x180 SWAP3 SWAP2 SWAP1 PUSH2 0x13F6 JUMP JUMPDEST PUSH1 0x40 MLOAD DUP1 SWAP2 SUB SWAP1 RETURN JUMPDEST PUSH2 0x1A3 PUSH1 0x4 DUP1 CALLDATASIZE SUB DUP2 ADD SWAP1 PUSH2 0x19E SWAP2 SWAP1 PUSH2 0x1448 JUMP JUMPDEST PUSH2 0xA6F JUMP JUMPDEST STOP JUMPDEST PUSH2 0x1AD PUSH2 0xC2C JUMP JUMPDEST PUSH1 0x40 MLOAD PUSH2 0x1BA SWAP2 SWAP1 PUSH2 0x1473 JUMP JUMPDEST PUSH1 0x40 MLOAD DUP1 SWAP2 SUB SWAP1 RETURN JUMPDEST PUSH2 0x1DD PUSH1 0x4 DUP1 CALLDATASIZE SUB DUP2 ADD SWAP1 PUSH2 0x1D8 SWAP2 SWAP1 PUSH2 0x141D JUMP JUMPDEST PUSH2 0xC50 JUMP JUMPDEST PUSH1 0x40 MLOAD PUSH2 0x1EA SWAP2 SWAP1 PUSH2 0x1473 JUMP JUMPDEST PUSH1 0x40 MLOAD DUP1 SWAP2 SUB SWAP1 RETURN JUMPDEST PUSH2 0x20D PUSH1 0x4 DUP1 CALLDATASIZE SUB DUP2 ADD SWAP1 PUSH2 0x208 SWAP2 SWAP1 PUSH2 0x14E6 JUMP JUMPDEST PUSH2 0xC65 JUMP JUMPDEST STOP JUMPDEST PUSH2 0x217 PUSH2 0xE08 JUMP JUMPDEST PUSH1 0x40 MLOAD PUSH2 0x224 SWAP2 SWAP1 PUSH2 0x1591 JUMP JUMPDEST PUSH1 0x40 MLOAD DUP1 SWAP2 SUB SWAP1 RETURN JUMPDEST PUSH2 0x247 PUSH1 0x4 DUP1 CALLDATASIZE SUB DUP2 ADD SWAP1 PUSH2 0x242 SWAP2 SWAP1 PUSH2 0x1448 JUMP JUMPDEST PUSH2 0xE2C JUMP JUMPDEST STOP JUMPDEST PUSH2 0x251 PUSH2 0xFE9 JUMP JUMPDEST PUSH1 0x40 MLOAD PUSH2 0x25E SWAP2 SWAP1 PUSH2 0x15CA JUMP JUMPDEST PUSH1 0x40 MLOAD DUP1 SWAP2 SUB SWAP1 RETURN JUMPDEST PUSH2 0x26F PUSH2 0x100D JUMP JUMPDEST PUSH1 0x40 MLOAD PUSH2 0x27C SWAP2 SWAP1 PUSH2 0x1603 JUMP JUMPDEST PUSH1 0x40 MLOAD DUP1 SWAP2 SUB SWAP1 RETURN JUMPDEST PUSH2 0x28D PUSH2 0x1031 JUMP JUMPDEST PUSH1 0x40 MLOAD PUSH2 0x29A SWAP2 SWAP1 PUSH2 0x163C JUMP JUMPDEST PUSH1 0x40 MLOAD DUP1 SWAP2 SUB SWAP1 RETURN JUMPDEST PUSH2 0x2BD PUSH1 0x4 DUP1 CALLDATASIZE SUB DUP2 ADD SWAP1 PUSH2 0x2B8 SWAP2 SWAP1 PUSH2 0x1348 JUMP JUMPDEST PUSH2 0x1055 JUMP JUMPDEST STOP JUMPDEST PUSH2 0x2C7 PUSH2 0x12F9 JUMP JUMPDEST PUSH1 0x1 DUP4 SUB PUSH2 0x2F6 JUMPI PUSH1 0x4 PUSH1 0x40 MLOAD DUP1 PUSH1 0x40 ADD PUSH1 0x40 MSTORE SWAP1 DUP2 PUSH0 DUP3 ADD SLOAD DUP2 MSTORE PUSH1 0x20 ADD PUSH1 0x1 DUP3 ADD SLOAD DUP2 MSTORE POP POP SWAP1 POP PUSH2 0x368 JUMP JUMPDEST PUSH0 DUP1 PUSH1 0x3 PUSH0 DUP7 DUP2 MSTORE PUSH1 0x20 ADD SWAP1 DUP2 MSTORE PUSH1 0x20 ADD PUSH0 KECCAK256 PUSH0 SWAP1 SLOAD SWAP1 PUSH2 0x100 EXP SWAP1 DIV PUSH1 0xFF AND PUSH1 0x5 DUP2 GT ISZERO PUSH2 0x328 JUMPI PUSH2 0x327 PUSH2 0x1655 JUMP JUMPDEST JUMPDEST PUSH1 0x5 DUP2 GT ISZERO PUSH2 0x33A JUMPI PUSH2 0x339 PUSH2 0x1655 JUMP JUMPDEST JUMPDEST DUP2 MSTORE PUSH1 0x20 ADD SWAP1 DUP2 MSTORE PUSH1 0x20 ADD PUSH0 KECCAK256 PUSH1 0x40 MLOAD DUP1 PUSH1 0x40 ADD PUSH1 0x40 MSTORE SWAP1 DUP2 PUSH0 DUP3 ADD SLOAD DUP2 MSTORE PUSH1 0x20 ADD PUSH1 0x1 DUP3 ADD SLOAD DUP2 MSTORE POP POP SWAP1 POP JUMPDEST PUSH0 DUP2 PUSH0 ADD MLOAD GT DUP1 ISZERO PUSH2 0x37D JUMPI POP PUSH0 DUP2 PUSH1 0x20 ADD MLOAD GT JUMPDEST PUSH2 0x3BC JUMPI PUSH1 0x40 MLOAD PUSH32 0x8C379A000000000000000000000000000000000000000000000000000000000 DUP2 MSTORE PUSH1 0x4 ADD PUSH2 0x3B3 SWAP1 PUSH2 0x16DC JUMP JUMPDEST PUSH1 0x40 MLOAD DUP1 SWAP2 SUB SWAP1 REVERT JUMPDEST PUSH0 DUP3 DUP3 PUSH0 ADD MLOAD PUSH2 0x3CC SWAP2 SWAP1 PUSH2 0x1727 JUMP JUMPDEST SWAP1 POP PUSH0 DUP4 DUP4 PUSH1 0x20 ADD MLOAD PUSH2 0x3DF SWAP2 SWAP1 PUSH2 0x1727 JUMP JUMPDEST SWAP1 POP PUSH0 PUSH1 0x40 MLOAD DUP1 PUSH1 0x20 ADD PUSH1 0x40 MSTORE DUP1 PUSH0 DUP2 MSTORE POP SWAP1 POP PUSH32 0x0 PUSH20 0xFFFFFFFFFFFFFFFFFFFFFFFFFFFFFFFFFFFFFFFF AND PUSH4 0x79CC6790 CALLER DUP6 PUSH1 0x40 MLOAD DUP4 PUSH4 0xFFFFFFFF AND PUSH1 0xE0 SHL DUP2 MSTORE PUSH1 0x4 ADD PUSH2 0x44E SWAP3 SWAP2 SWAP1 PUSH2 0x1777 JUMP JUMPDEST PUSH0 PUSH1 0x40 MLOAD DUP1 DUP4 SUB DUP2 PUSH0 DUP8 DUP1 EXTCODESIZE ISZERO DUP1 ISZERO PUSH2 0x465 JUMPI PUSH0 DUP1 REVERT JUMPDEST POP GAS CALL ISZERO DUP1 ISZERO PUSH2 0x477 JUMPI RETURNDATASIZE PUSH0 DUP1 RETURNDATACOPY RETURNDATASIZE PUSH0 REVERT JUMPDEST POP POP POP POP PUSH32 0x0 PUSH20 0xFFFFFFFFFFFFFFFFFFFFFFFFFFFFFFFFFFFFFFFF AND PUSH4 0x79CC6790 CALLER DUP5 PUSH1 0x40 MLOAD DUP4 PUSH4 0xFFFFFFFF AND PUSH1 0xE0 SHL DUP2 MSTORE PUSH1 0x4 ADD PUSH2 0x4D6 SWAP3 SWAP2 SWAP1 PUSH2 0x1777 JUMP JUMPDEST PUSH0 PUSH1 0x40 MLOAD DUP1 DUP4 SUB DUP2 PUSH0 DUP8 DUP1 EXTCODESIZE ISZERO DUP1 ISZERO PUSH2 0x4ED JUMPI PUSH0 DUP1 REVERT JUMPDEST POP GAS CALL ISZERO DUP1 ISZERO PUSH2 0x4FF JUMPI RETURNDATASIZE PUSH0 DUP1 RETURNDATACOPY RETURNDATASIZE PUSH0 REVERT JUMPDEST POP POP POP POP PUSH32 0x0 PUSH20 0xFFFFFFFFFFFFFFFFFFFFFFFFFFFFFFFFFFFFFFFF AND PUSH4 0x731133E9 CALLER DUP9 DUP9 DUP6 PUSH1 0x40 MLOAD DUP6 PUSH4 0xFFFFFFFF AND PUSH1 0xE0 SHL DUP2 MSTORE PUSH1 0x4 ADD PUSH2 0x562 SWAP5 SWAP4 SWAP3 SWAP2 SWAP1 PUSH2 0x1828 JUMP JUMPDEST PUSH0 PUSH1 0x40 MLOAD DUP1 DUP4 SUB DUP2 PUSH0 DUP8 DUP1 EXTCODESIZE ISZERO DUP1 ISZERO PUSH2 0x579 JUMPI PUSH0 DUP1 REVERT JUMPDEST POP GAS CALL ISZERO DUP1 ISZERO PUSH2 0x58B JUMPI RETURNDATASIZE PUSH0 DUP1 RETURNDATACOPY RETURNDATASIZE PUSH0 REVERT JUMPDEST POP POP POP POP PUSH32 0xF9035007E0D5906234D35FF6F44DEFFCC1C2708147250281B4C63A84638CBBB3 DUP4 DUP4 DUP9 DUP9 PUSH1 0x40 MLOAD PUSH2 0x5C4 SWAP5 SWAP4 SWAP3 SWAP2 SWAP1 PUSH2 0x1872 JUMP JUMPDEST PUSH1 0x40 MLOAD DUP1 SWAP2 SUB SWAP1 LOG1 POP POP POP POP POP POP JUMP JUMPDEST CALLER PUSH20 0xFFFFFFFFFFFFFFFFFFFFFFFFFFFFFFFFFFFFFFFF AND PUSH32 0x0 PUSH20 0xFFFFFFFFFFFFFFFFFFFFFFFFFFFFFFFFFFFFFFFF AND EQ PUSH2 0x662 JUMPI PUSH1 0x40 MLOAD PUSH32 0x8C379A000000000000000000000000000000000000000000000000000000000 DUP2 MSTORE PUSH1 0x4 ADD PUSH2 0x659 SWAP1 PUSH2 0x18FF JUMP JUMPDEST PUSH1 0x40 MLOAD DUP1 SWAP2 SUB SWAP1 REVERT JUMPDEST PUSH1 0x1 DUP3 SUB PUSH2 0x6A5 JUMPI PUSH1 0x40 MLOAD PUSH32 0x8C379A000000000000000000000000000000000000000000000000000000000 DUP2 MSTORE PUSH1 0x4 ADD PUSH2 0x69C SWAP1 PUSH2 0x198D JUMP JUMPDEST PUSH1 0x40 MLOAD DUP1 SWAP2 SUB SWAP1 REVERT JUMPDEST DUP1 PUSH1 0x3 PUSH0 DUP5 DUP2 MSTORE PUSH1 0x20 ADD SWAP1 DUP2 MSTORE PUSH1 0x20 ADD PUSH0 KECCAK256 PUSH0 PUSH2 0x100 EXP DUP2 SLOAD DUP2 PUSH1 0xFF MUL NOT AND SWAP1 DUP4 PUSH1 0x5 DUP2 GT ISZERO PUSH2 0x6D8 JUMPI PUSH2 0x6D7 PUSH2 0x1655 JUMP JUMPDEST JUMPDEST MUL OR SWAP1 SSTORE POP PUSH1 0x2 PUSH0 DUP3 PUSH1 0x5 DUP2 GT ISZERO PUSH2 0x6F3 JUMPI PUSH2 0x6F2 PUSH2 0x1655 JUMP JUMPDEST JUMPDEST PUSH1 0x5 DUP2 GT ISZERO PUSH2 0x705 JUMPI PUSH2 0x704 PUSH2 0x1655 JUMP JUMPDEST JUMPDEST DUP2 MSTORE PUSH1 0x20 ADD SWAP1 DUP2 MSTORE PUSH1 0x20 ADD PUSH0 KECCAK256 DUP3 SWAP1 DUP1 PUSH1 0x1 DUP2 SLOAD ADD DUP1 DUP3 SSTORE DUP1 SWAP2 POP POP PUSH1 0x1 SWAP1 SUB SWAP1 PUSH0 MSTORE PUSH1 0x20 PUSH0 KECCAK256 ADD PUSH0 SWAP1 SWAP2 SWAP1 SWAP2 SWAP1 SWAP2 POP SSTORE POP POP JUMP JUMPDEST PUSH0 PUSH2 0x746 PUSH2 0x3E8 PUSH2 0x1250 JUMP JUMPDEST SWAP1 POP PUSH0 PUSH2 0x320 DUP3 LT ISZERO PUSH2 0x75C JUMPI PUSH1 0x1 SWAP1 POP PUSH2 0x7C7 JUMP JUMPDEST PUSH2 0x320 DUP3 LT ISZERO DUP1 ISZERO PUSH2 0x76F JUMPI POP PUSH2 0x3B6 DUP3 LT JUMPDEST ISZERO PUSH2 0x77D JUMPI PUSH1 0x2 SWAP1 POP PUSH2 0x7C6 JUMP JUMPDEST PUSH2 0x3B7 DUP3 LT ISZERO DUP1 ISZERO PUSH2 0x790 JUMPI POP PUSH2 0x3D4 DUP3 LT JUMPDEST ISZERO PUSH2 0x79E JUMPI PUSH1 0x3 SWAP1 POP PUSH2 0x7C5 JUMP JUMPDEST PUSH2 0x3D5 DUP3 LT ISZERO DUP1 ISZERO PUSH2 0x7B1 JUMPI POP PUSH2 0x3E7 DUP3 LT JUMPDEST ISZERO PUSH2 0x7BF JUMPI PUSH1 0x4 SWAP1 POP PUSH2 0x7C4 JUMP JUMPDEST PUSH1 0x5 SWAP1 POP JUMPDEST JUMPDEST JUMPDEST JUMPDEST PUSH0 PUSH1 0x2 PUSH0 DUP4 PUSH1 0x5 DUP2 GT ISZERO PUSH2 0x7DE JUMPI PUSH2 0x7DD PUSH2 0x1655 JUMP JUMPDEST JUMPDEST PUSH1 0x5 DUP2 GT ISZERO PUSH2 0x7F0 JUMPI PUSH2 0x7EF PUSH2 0x1655 JUMP JUMPDEST JUMPDEST DUP2 MSTORE PUSH1 0x20 ADD SWAP1 DUP2 MSTORE PUSH1 0x20 ADD PUSH0 KECCAK256 DUP1 SLOAD DUP1 PUSH1 0x20 MUL PUSH1 0x20 ADD PUSH1 0x40 MLOAD SWAP1 DUP2 ADD PUSH1 0x40 MSTORE DUP1 SWAP3 SWAP2 SWAP1 DUP2 DUP2 MSTORE PUSH1 0x20 ADD DUP3 DUP1 SLOAD DUP1 ISZERO PUSH2 0x845 JUMPI PUSH1 0x20 MUL DUP3 ADD SWAP2 SWAP1 PUSH0 MSTORE PUSH1 0x20 PUSH0 KECCAK256 SWAP1 JUMPDEST DUP2 SLOAD DUP2 MSTORE PUSH1 0x20 ADD SWAP1 PUSH1 0x1 ADD SWAP1 DUP1 DUP4 GT PUSH2 0x831 JUMPI JUMPDEST POP POP POP POP POP SWAP1 POP PUSH0 DUP2 MLOAD GT PUSH2 0x88F JUMPI PUSH1 0x40 MLOAD PUSH32 0x8C379A000000000000000000000000000000000000000000000000000000000 DUP2 MSTORE PUSH1 0x4 ADD PUSH2 0x886 SWAP1 PUSH2 0x19F5 JUMP JUMPDEST PUSH1 0x40 MLOAD DUP1 SWAP2 SUB SWAP1 REVERT JUMPDEST PUSH0 PUSH2 0x89A DUP3 MLOAD PUSH2 0x1250 JUMP JUMPDEST SWAP1 POP PUSH0 DUP3 DUP3 DUP2 MLOAD DUP2 LT PUSH2 0x8B0 JUMPI PUSH2 0x8AF PUSH2 0x1A13 JUMP JUMPDEST JUMPDEST PUSH1 0x20 MUL PUSH1 0x20 ADD ADD MLOAD SWAP1 POP PUSH0 PUSH1 0x1 SWAP1 POP PUSH0 PUSH1 0x40 MLOAD DUP1 PUSH1 0x20 ADD PUSH1 0x40 MSTORE DUP1 PUSH0 DUP2 MSTORE POP SWAP1 POP PUSH32 0x0 PUSH20 0xFFFFFFFFFFFFFFFFFFFFFFFFFFFFFFFFFFFFFFFF AND PUSH4 0xF5298ACA CALLER PUSH1 0x1 DUP6 PUSH1 0x40 MLOAD DUP5 PUSH4 0xFFFFFFFF AND PUSH1 0xE0 SHL DUP2 MSTORE PUSH1 0x4 ADD PUSH2 0x92F SWAP4 SWAP3 SWAP2 SWAP1 PUSH2 0x1A40 JUMP JUMPDEST PUSH0 PUSH1 0x40 MLOAD DUP1 DUP4 SUB DUP2 PUSH0 DUP8 DUP1 EXTCODESIZE ISZERO DUP1 ISZERO PUSH2 0x946 JUMPI PUSH0 DUP1 REVERT JUMPDEST POP GAS CALL ISZERO DUP1 ISZERO PUSH2 0x958 JUMPI RETURNDATASIZE PUSH0 DUP1 RETURNDATACOPY RETURNDATASIZE PUSH0 REVERT JUMPDEST POP POP POP POP PUSH32 0x0 PUSH20 0xFFFFFFFFFFFFFFFFFFFFFFFFFFFFFFFFFFFFFFFF AND PUSH4 0x731133E9 CALLER DUP6 DUP6 DUP6 PUSH1 0x40 MLOAD DUP6 PUSH4 0xFFFFFFFF AND PUSH1 0xE0 SHL DUP2 MSTORE PUSH1 0x4 ADD PUSH2 0x9BB SWAP5 SWAP4 SWAP3 SWAP2 SWAP1 PUSH2 0x1828 JUMP JUMPDEST PUSH0 PUSH1 0x40 MLOAD DUP1 DUP4 SUB DUP2 PUSH0 DUP8 DUP1 EXTCODESIZE ISZERO DUP1 ISZERO PUSH2 0x9D2 JUMPI PUSH0 DUP1 REVERT JUMPDEST POP GAS CALL ISZERO DUP1 ISZERO PUSH2 0x9E4 JUMPI RETURNDATASIZE PUSH0 DUP1 RETURNDATACOPY RETURNDATASIZE PUSH0 REVERT JUMPDEST POP POP POP POP CALLER PUSH20 0xFFFFFFFFFFFFFFFFFFFFFFFFFFFFFFFFFFFFFFFF AND PUSH32 0x1CB3791AAE60117D42454D8106A81669241C1C8B0F9118B01AA29B5E89271787 DUP5 PUSH1 0x40 MLOAD PUSH2 0xA2E SWAP2 SWAP1 PUSH2 0x1473 JUMP JUMPDEST PUSH1 0x40 MLOAD DUP1 SWAP2 SUB SWAP1 LOG2 POP POP POP POP POP POP POP JUMP JUMPDEST PUSH1 0x4 DUP1 PUSH0 ADD SLOAD SWAP1 DUP1 PUSH1 0x1 ADD SLOAD SWAP1 POP DUP3 JUMP JUMPDEST PUSH0 PUSH1 0x20 MSTORE DUP1 PUSH0 MSTORE PUSH1 0x40 PUSH0 KECCAK256 PUSH0 SWAP2 POP SWAP1 POP DUP1 PUSH0 ADD SLOAD SWAP1 DUP1 PUSH1 0x1 ADD SLOAD SWAP1 POP DUP3 JUMP JUMPDEST PUSH0 DUP2 GT PUSH2 0xAB1 JUMPI PUSH1 0x40 MLOAD PUSH32 0x8C379A000000000000000000000000000000000000000000000000000000000 DUP2 MSTORE PUSH1 0x4 ADD PUSH2 0xAA8 SWAP1 PUSH2 0x1ABF JUMP JUMPDEST PUSH1 0x40 MLOAD DUP1 SWAP2 SUB SWAP1 REVERT JUMPDEST PUSH0 PUSH2 0xABA PUSH2 0x1290 JUMP JUMPDEST SWAP1 POP PUSH0 DUP2 PUSH8 0xDE0B6B3A7640000 DUP5 PUSH2 0xAD2 SWAP2 SWAP1 PUSH2 0x1727 JUMP JUMPDEST PUSH2 0xADC SWAP2 SWAP1 PUSH2 0x1B0A JUMP JUMPDEST SWAP1 POP PUSH32 0x0 PUSH20 0xFFFFFFFFFFFFFFFFFFFFFFFFFFFFFFFFFFFFFFFF AND PUSH4 0x79CC6790 CALLER DUP6 PUSH1 0x40 MLOAD DUP4 PUSH4 0xFFFFFFFF AND PUSH1 0xE0 SHL DUP2 MSTORE PUSH1 0x4 ADD PUSH2 0xB39 SWAP3 SWAP2 SWAP1 PUSH2 0x1777 JUMP JUMPDEST PUSH0 PUSH1 0x40 MLOAD DUP1 DUP4 SUB DUP2 PUSH0 DUP8 DUP1 EXTCODESIZE ISZERO DUP1 ISZERO PUSH2 0xB50 JUMPI PUSH0 DUP1 REVERT JUMPDEST POP GAS CALL ISZERO DUP1 ISZERO PUSH2 0xB62 JUMPI RETURNDATASIZE PUSH0 DUP1 RETURNDATACOPY RETURNDATASIZE PUSH0 REVERT JUMPDEST POP POP POP POP PUSH32 0x0 PUSH20 0xFFFFFFFFFFFFFFFFFFFFFFFFFFFFFFFFFFFFFFFF AND PUSH4 0x40C10F19 CALLER DUP4 PUSH1 0x40 MLOAD DUP4 PUSH4 0xFFFFFFFF AND PUSH1 0xE0 SHL DUP2 MSTORE PUSH1 0x4 ADD PUSH2 0xBC1 SWAP3 SWAP2 SWAP1 PUSH2 0x1777 JUMP JUMPDEST PUSH0 PUSH1 0x40 MLOAD DUP1 DUP4 SUB DUP2 PUSH0 DUP8 DUP1 EXTCODESIZE ISZERO DUP1 ISZERO PUSH2 0xBD8 JUMPI PUSH0 DUP1 REVERT JUMPDEST POP GAS CALL ISZERO DUP1 ISZERO PUSH2 0xBEA JUMPI RETURNDATASIZE PUSH0 DUP1 RETURNDATACOPY RETURNDATASIZE PUSH0 REVERT JUMPDEST POP POP POP POP PUSH32 0x3839A4C768F379A8963D8B71DFE167F7D3F5C547BC26E3E20B553D4112DDF9B5 DUP4 DUP3 PUSH1 0x40 MLOAD PUSH2 0xC1F SWAP3 SWAP2 SWAP1 PUSH2 0x13F6 JUMP JUMPDEST PUSH1 0x40 MLOAD DUP1 SWAP2 SUB SWAP1 LOG1 POP POP POP JUMP JUMPDEST PUSH32 0x0 DUP2 JUMP JUMPDEST PUSH1 0x1 PUSH1 0x20 MSTORE DUP1 PUSH0 MSTORE PUSH1 0x40 PUSH0 KECCAK256 PUSH0 SWAP2 POP SWAP1 POP SLOAD DUP2 JUMP JUMPDEST CALLER PUSH20 0xFFFFFFFFFFFFFFFFFFFFFFFFFFFFFFFFFFFFFFFF AND PUSH32 0x0 PUSH20 0xFFFFFFFFFFFFFFFFFFFFFFFFFFFFFFFFFFFFFFFF AND EQ PUSH2 0xCF3 JUMPI PUSH1 0x40 MLOAD PUSH32 0x8C379A000000000000000000000000000000000000000000000000000000000 DUP2 MSTORE PUSH1 0x4 ADD PUSH2 0xCEA SWAP1 PUSH2 0x18FF JUMP JUMPDEST PUSH1 0x40 MLOAD DUP1 SWAP2 SUB SWAP1 REVERT JUMPDEST PUSH32 0x0 PUSH20 0xFFFFFFFFFFFFFFFFFFFFFFFFFFFFFFFFFFFFFFFF AND PUSH4 0x40C10F19 DUP5 DUP5 PUSH1 0x40 MLOAD DUP4 PUSH4 0xFFFFFFFF AND PUSH1 0xE0 SHL DUP2 MSTORE PUSH1 0x4 ADD PUSH2 0xD4E SWAP3 SWAP2 SWAP1 PUSH2 0x1777 JUMP JUMPDEST PUSH0 PUSH1 0x40 MLOAD DUP1 DUP4 SUB DUP2 PUSH0 DUP8 DUP1 EXTCODESIZE ISZERO DUP1 ISZERO PUSH2 0xD65 JUMPI PUSH0 DUP1 REVERT JUMPDEST POP GAS CALL ISZERO DUP1 ISZERO PUSH2 0xD77 JUMPI RETURNDATASIZE PUSH0 DUP1 RETURNDATACOPY RETURNDATASIZE PUSH0 REVERT JUMPDEST POP POP POP POP PUSH32 0x0 PUSH20 0xFFFFFFFFFFFFFFFFFFFFFFFFFFFFFFFFFFFFFFFF AND PUSH4 0x40C10F19 DUP5 DUP4 PUSH1 0x40 MLOAD DUP4 PUSH4 0xFFFFFFFF AND PUSH1 0xE0 SHL DUP2 MSTORE PUSH1 0x4 ADD PUSH2 0xDD6 SWAP3 SWAP2 SWAP1 PUSH2 0x1777 JUMP JUMPDEST PUSH0 PUSH1 0x40 MLOAD DUP1 DUP4 SUB DUP2 PUSH0 DUP8 DUP1 EXTCODESIZE ISZERO DUP1 ISZERO PUSH2 0xDED JUMPI PUSH0 DUP1 REVERT JUMPDEST POP GAS CALL ISZERO DUP1 ISZERO PUSH2 0xDFF JUMPI RETURNDATASIZE PUSH0 DUP1 RETURNDATACOPY RETURNDATASIZE PUSH0 REVERT JUMPDEST POP POP POP POP POP POP POP JUMP JUMPDEST PUSH32 0x0 DUP2 JUMP JUMPDEST PUSH0 DUP2 GT PUSH2 0xE6E JUMPI PUSH1 0x40 MLOAD PUSH32 0x8C379A000000000000000000000000000000000000000000000000000000000 DUP2 MSTORE PUSH1 0x4 ADD PUSH2 0xE65 SWAP1 PUSH2 0x1ABF JUMP JUMPDEST PUSH1 0x40 MLOAD DUP1 SWAP2 SUB SWAP1 REVERT JUMPDEST PUSH0 PUSH2 0xE77 PUSH2 0x1290 JUMP JUMPDEST SWAP1 POP PUSH0 PUSH8 0xDE0B6B3A7640000 DUP3 DUP5 PUSH2 0xE8F SWAP2 SWAP1 PUSH2 0x1727 JUMP JUMPDEST PUSH2 0xE99 SWAP2 SWAP1 PUSH2 0x1B0A JUMP JUMPDEST SWAP1 POP PUSH32 0x0 PUSH20 0xFFFFFFFFFFFFFFFFFFFFFFFFFFFFFFFFFFFFFFFF AND PUSH4 0x79CC6790 CALLER DUP6 PUSH1 0x40 MLOAD DUP4 PUSH4 0xFFFFFFFF AND PUSH1 0xE0 SHL DUP2 MSTORE PUSH1 0x4 ADD PUSH2 0xEF6 SWAP3 SWAP2 SWAP1 PUSH2 0x1777 JUMP JUMPDEST PUSH0 PUSH1 0x40 MLOAD DUP1 DUP4 SUB DUP2 PUSH0 DUP8 DUP1 EXTCODESIZE ISZERO DUP1 ISZERO PUSH2 0xF0D JUMPI PUSH0 DUP1 REVERT JUMPDEST POP GAS CALL ISZERO DUP1 ISZERO PUSH2 0xF1F JUMPI RETURNDATASIZE PUSH0 DUP1 RETURNDATACOPY RETURNDATASIZE PUSH0 REVERT JUMPDEST POP POP POP POP PUSH32 0x0 PUSH20 0xFFFFFFFFFFFFFFFFFFFFFFFFFFFFFFFFFFFFFFFF AND PUSH4 0x40C10F19 CALLER DUP4 PUSH1 0x40 MLOAD DUP4 PUSH4 0xFFFFFFFF AND PUSH1 0xE0 SHL DUP2 MSTORE PUSH1 0x4 ADD PUSH2 0xF7E SWAP3 SWAP2 SWAP1 PUSH2 0x1777 JUMP JUMPDEST PUSH0 PUSH1 0x40 MLOAD DUP1 DUP4 SUB DUP2 PUSH0 DUP8 DUP1 EXTCODESIZE ISZERO DUP1 ISZERO PUSH2 0xF95 JUMPI PUSH0 DUP1 REVERT JUMPDEST POP GAS CALL ISZERO DUP1 ISZERO PUSH2 0xFA7 JUMPI RETURNDATASIZE PUSH0 DUP1 RETURNDATACOPY RETURNDATASIZE PUSH0 REVERT JUMPDEST POP POP POP POP PUSH32 0x19EED8663E61D4D2DC91B3550702BC4DBC422303EB3E495B07F0359702488CA3 DUP2 DUP5 PUSH1 0x40 MLOAD PUSH2 0xFDC SWAP3 SWAP2 SWAP1 PUSH2 0x13F6 JUMP JUMPDEST PUSH1 0x40 MLOAD DUP1 SWAP2 SUB SWAP1 LOG1 POP POP POP JUMP JUMPDEST PUSH32 0x0 DUP2 JUMP JUMPDEST PUSH32 0x0 DUP2 JUMP JUMPDEST PUSH32 0x0 DUP2 JUMP JUMPDEST PUSH1 0x1 DUP3 SUB PUSH2 0x1098 JUMPI PUSH1 0x40 MLOAD PUSH32 0x8C379A000000000000000000000000000000000000000000000000000000000 DUP2 MSTORE PUSH1 0x4 ADD PUSH2 0x108F SWAP1 PUSH2 0x1B84 JUMP JUMPDEST PUSH1 0x40 MLOAD DUP1 SWAP2 SUB SWAP1 REVERT JUMPDEST PUSH0 PUSH1 0x1 PUSH0 PUSH1 0x3 PUSH0 DUP7 DUP2 MSTORE PUSH1 0x20 ADD SWAP1 DUP2 MSTORE PUSH1 0x20 ADD PUSH0 KECCAK256 PUSH0 SWAP1 SLOAD SWAP1 PUSH2 0x100 EXP SWAP1 DIV PUSH1 0xFF AND PUSH1 0x5 DUP2 GT ISZERO PUSH2 0x10CC JUMPI PUSH2 0x10CB PUSH2 0x1655 JUMP JUMPDEST JUMPDEST PUSH1 0x5 DUP2 GT ISZERO PUSH2 0x10DE JUMPI PUSH2 0x10DD PUSH2 0x1655 JUMP JUMPDEST JUMPDEST DUP2 MSTORE PUSH1 0x20 ADD SWAP1 DUP2 MSTORE PUSH1 0x20 ADD PUSH0 KECCAK256 SLOAD SWAP1 POP PUSH0 DUP3 DUP3 PUSH2 0x10FB SWAP2 SWAP1 PUSH2 0x1727 JUMP JUMPDEST SWAP1 POP PUSH32 0x0 PUSH20 0xFFFFFFFFFFFFFFFFFFFFFFFFFFFFFFFFFFFFFFFF AND PUSH4 0x40C10F19 CALLER DUP4 PUSH1 0x40 MLOAD DUP4 PUSH4 0xFFFFFFFF AND PUSH1 0xE0 SHL DUP2 MSTORE PUSH1 0x4 ADD PUSH2 0x1158 SWAP3 SWAP2 SWAP1 PUSH2 0x1777 JUMP JUMPDEST PUSH0 PUSH1 0x40 MLOAD DUP1 DUP4 SUB DUP2 PUSH0 DUP8 DUP1 EXTCODESIZE ISZERO DUP1 ISZERO PUSH2 0x116F JUMPI PUSH0 DUP1 REVERT JUMPDEST POP GAS CALL ISZERO DUP1 ISZERO PUSH2 0x1181 JUMPI RETURNDATASIZE PUSH0 DUP1 RETURNDATACOPY RETURNDATASIZE PUSH0 REVERT JUMPDEST POP POP POP POP PUSH32 0x0 PUSH20 0xFFFFFFFFFFFFFFFFFFFFFFFFFFFFFFFFFFFFFFFF AND PUSH4 0xF5298ACA CALLER DUP7 DUP7 PUSH1 0x40 MLOAD DUP5 PUSH4 0xFFFFFFFF AND PUSH1 0xE0 SHL DUP2 MSTORE PUSH1 0x4 ADD PUSH2 0x11E2 SWAP4 SWAP3 SWAP2 SWAP1 PUSH2 0x1A40 JUMP JUMPDEST PUSH0 PUSH1 0x40 MLOAD DUP1 DUP4 SUB DUP2 PUSH0 DUP8 DUP1 EXTCODESIZE ISZERO DUP1 ISZERO PUSH2 0x11F9 JUMPI PUSH0 DUP1 REVERT JUMPDEST POP GAS CALL ISZERO DUP1 ISZERO PUSH2 0x120B JUMPI RETURNDATASIZE PUSH0 DUP1 RETURNDATACOPY RETURNDATASIZE PUSH0 REVERT JUMPDEST POP POP POP POP PUSH32 0x5E4C650E1E385779E0EB91402E8677D509062CA6044D5EE491D9D5BBE7B0EE3 DUP2 DUP6 DUP6 PUSH1 0x40 MLOAD PUSH2 0x1242 SWAP4 SWAP3 SWAP2 SWAP1 PUSH2 0x1BA2 JUMP JUMPDEST PUSH1 0x40 MLOAD DUP1 SWAP2 SUB SWAP1 LOG1 POP POP POP POP JUMP JUMPDEST PUSH0 DUP2 TIMESTAMP PREVRANDAO CALLER PUSH1 0x40 MLOAD PUSH1 0x20 ADD PUSH2 0x1267 SWAP4 SWAP3 SWAP2 SWAP1 PUSH2 0x1BD7 JUMP JUMPDEST PUSH1 0x40 MLOAD PUSH1 0x20 DUP2 DUP4 SUB SUB DUP2 MSTORE SWAP1 PUSH1 0x40 MSTORE DUP1 MLOAD SWAP1 PUSH1 0x20 ADD KECCAK256 PUSH0 SHR PUSH2 0x1289 SWAP2 SWAP1 PUSH2 0x1C0C JUMP JUMPDEST SWAP1 POP SWAP2 SWAP1 POP JUMP JUMPDEST PUSH0 DUP1 PUSH8 0xDE0B6B3A7640000 PUSH1 0x1 PUSH2 0x12A7 SWAP2 SWAP1 PUSH2 0x1727 JUMP JUMPDEST SWAP1 POP PUSH0 PUSH3 0xF4240 SWAP1 POP DUP1 PUSH32 0x0 TIMESTAMP PUSH2 0x12DD SWAP2 SWAP1 PUSH2 0x1C3C JUMP JUMPDEST PUSH2 0x12E7 SWAP2 SWAP1 PUSH2 0x1727 JUMP JUMPDEST DUP3 PUSH2 0x12F2 SWAP2 SWAP1 PUSH2 0x1C6F JUMP JUMPDEST SWAP3 POP POP POP SWAP1 JUMP JUMPDEST PUSH1 0x40 MLOAD DUP1 PUSH1 0x40 ADD PUSH1 0x40 MSTORE DUP1 PUSH0 DUP2 MSTORE PUSH1 0x20 ADD PUSH0 DUP2 MSTORE POP SWAP1 JUMP JUMPDEST PUSH0 DUP1 REVERT JUMPDEST PUSH0 DUP2 SWAP1 POP SWAP2 SWAP1 POP JUMP JUMPDEST PUSH2 0x1327 DUP2 PUSH2 0x1315 JUMP JUMPDEST DUP2 EQ PUSH2 0x1331 JUMPI PUSH0 DUP1 REVERT JUMPDEST POP JUMP JUMPDEST PUSH0 DUP2 CALLDATALOAD SWAP1 POP PUSH2 0x1342 DUP2 PUSH2 0x131E JUMP JUMPDEST SWAP3 SWAP2 POP POP JUMP JUMPDEST PUSH0 DUP1 PUSH1 0x40 DUP4 DUP6 SUB SLT ISZERO PUSH2 0x135E JUMPI PUSH2 0x135D PUSH2 0x1311 JUMP JUMPDEST JUMPDEST PUSH0 PUSH2 0x136B DUP6 DUP3 DUP7 ADD PUSH2 0x1334 JUMP JUMPDEST SWAP3 POP POP PUSH1 0x20 PUSH2 0x137C DUP6 DUP3 DUP7 ADD PUSH2 0x1334 JUMP JUMPDEST SWAP2 POP POP SWAP3 POP SWAP3 SWAP1 POP JUMP JUMPDEST PUSH1 0x6 DUP2 LT PUSH2 0x1392 JUMPI PUSH0 DUP1 REVERT JUMPDEST POP JUMP JUMPDEST PUSH0 DUP2 CALLDATALOAD SWAP1 POP PUSH2 0x13A3 DUP2 PUSH2 0x1386 JUMP JUMPDEST SWAP3 SWAP2 POP POP JUMP JUMPDEST PUSH0 DUP1 PUSH1 0x40 DUP4 DUP6 SUB SLT ISZERO PUSH2 0x13BF JUMPI PUSH2 0x13BE PUSH2 0x1311 JUMP JUMPDEST JUMPDEST PUSH0 PUSH2 0x13CC DUP6 DUP3 DUP7 ADD PUSH2 0x1334 JUMP JUMPDEST SWAP3 POP POP PUSH1 0x20 PUSH2 0x13DD DUP6 DUP3 DUP7 ADD PUSH2 0x1395 JUMP JUMPDEST SWAP2 POP POP SWAP3 POP SWAP3 SWAP1 POP JUMP JUMPDEST PUSH2 0x13F0 DUP2 PUSH2 0x1315 JUMP JUMPDEST DUP3 MSTORE POP POP JUMP JUMPDEST PUSH0 PUSH1 0x40 DUP3 ADD SWAP1 POP PUSH2 0x1409 PUSH0 DUP4 ADD DUP6 PUSH2 0x13E7 JUMP JUMPDEST PUSH2 0x1416 PUSH1 0x20 DUP4 ADD DUP5 PUSH2 0x13E7 JUMP JUMPDEST SWAP4 SWAP3 POP POP POP JUMP JUMPDEST PUSH0 PUSH1 0x20 DUP3 DUP5 SUB SLT ISZERO PUSH2 0x1432 JUMPI PUSH2 0x1431 PUSH2 0x1311 JUMP JUMPDEST JUMPDEST PUSH0 PUSH2 0x143F DUP5 DUP3 DUP6 ADD PUSH2 0x1395 JUMP JUMPDEST SWAP2 POP POP SWAP3 SWAP2 POP POP JUMP JUMPDEST PUSH0 PUSH1 0x20 DUP3 DUP5 SUB SLT ISZERO PUSH2 0x145D JUMPI PUSH2 0x145C PUSH2 0x1311 JUMP JUMPDEST JUMPDEST PUSH0 PUSH2 0x146A DUP5 DUP3 DUP6 ADD PUSH2 0x1334 JUMP JUMPDEST SWAP2 POP POP SWAP3 SWAP2 POP POP JUMP JUMPDEST PUSH0 PUSH1 0x20 DUP3 ADD SWAP1 POP PUSH2 0x1486 PUSH0 DUP4 ADD DUP5 PUSH2 0x13E7 JUMP JUMPDEST SWAP3 SWAP2 POP POP JUMP JUMPDEST PUSH0 PUSH20 0xFFFFFFFFFFFFFFFFFFFFFFFFFFFFFFFFFFFFFFFF DUP3 AND SWAP1 POP SWAP2 SWAP1 POP JUMP JUMPDEST PUSH0 PUSH2 0x14B5 DUP3 PUSH2 0x148C JUMP JUMPDEST SWAP1 POP SWAP2 SWAP1 POP JUMP JUMPDEST PUSH2 0x14C5 DUP2 PUSH2 0x14AB JUMP JUMPDEST DUP2 EQ PUSH2 0x14CF JUMPI PUSH0 DUP1 REVERT JUMPDEST POP JUMP JUMPDEST PUSH0 DUP2 CALLDATALOAD SWAP1 POP PUSH2 0x14E0 DUP2 PUSH2 0x14BC JUMP JUMPDEST SWAP3 SWAP2 POP POP JUMP JUMPDEST PUSH0 DUP1 PUSH0 PUSH1 0x60 DUP5 DUP7 SUB SLT ISZERO PUSH2 0x14FD JUMPI PUSH2 0x14FC PUSH2 0x1311 JUMP JUMPDEST JUMPDEST PUSH0 PUSH2 0x150A DUP7 DUP3 DUP8 ADD PUSH2 0x14D2 JUMP JUMPDEST SWAP4 POP POP PUSH1 0x20 PUSH2 0x151B DUP7 DUP3 DUP8 ADD PUSH2 0x1334 JUMP JUMPDEST SWAP3 POP POP PUSH1 0x40 PUSH2 0x152C DUP7 DUP3 DUP8 ADD PUSH2 0x1334 JUMP JUMPDEST SWAP2 POP POP SWAP3 POP SWAP3 POP SWAP3 JUMP JUMPDEST PUSH0 DUP2 SWAP1 POP SWAP2 SWAP1 POP JUMP JUMPDEST PUSH0 PUSH2 0x1559 PUSH2 0x1554 PUSH2 0x154F DUP5 PUSH2 0x148C JUMP JUMPDEST PUSH2 0x1536 JUMP JUMPDEST PUSH2 0x148C JUMP JUMPDEST SWAP1 POP SWAP2 SWAP1 POP JUMP JUMPDEST PUSH0 PUSH2 0x156A DUP3 PUSH2 0x153F JUMP JUMPDEST SWAP1 POP SWAP2 SWAP1 POP JUMP JUMPDEST PUSH0 PUSH2 0x157B DUP3 PUSH2 0x1560 JUMP JUMPDEST SWAP1 POP SWAP2 SWAP1 POP JUMP JUMPDEST PUSH2 0x158B DUP2 PUSH2 0x1571 JUMP JUMPDEST DUP3 MSTORE POP POP JUMP JUMPDEST PUSH0 PUSH1 0x20 DUP3 ADD SWAP1 POP PUSH2 0x15A4 PUSH0 DUP4 ADD DUP5 PUSH2 0x1582 JUMP JUMPDEST SWAP3 SWAP2 POP POP JUMP JUMPDEST PUSH0 PUSH2 0x15B4 DUP3 PUSH2 0x1560 JUMP JUMPDEST SWAP1 POP SWAP2 SWAP1 POP JUMP JUMPDEST PUSH2 0x15C4 DUP2 PUSH2 0x15AA JUMP JUMPDEST DUP3 MSTORE POP POP JUMP JUMPDEST PUSH0 PUSH1 0x20 DUP3 ADD SWAP1 POP PUSH2 0x15DD PUSH0 DUP4 ADD DUP5 PUSH2 0x15BB JUMP JUMPDEST SWAP3 SWAP2 POP POP JUMP JUMPDEST PUSH0 PUSH2 0x15ED DUP3 PUSH2 0x1560 JUMP JUMPDEST SWAP1 POP SWAP2 SWAP1 POP JUMP JUMPDEST PUSH2 0x15FD DUP2 PUSH2 0x15E3 JUMP JUMPDEST DUP3 MSTORE POP POP JUMP JUMPDEST PUSH0 PUSH1 0x20 DUP3 ADD SWAP1 POP PUSH2 0x1616 PUSH0 DUP4 ADD DUP5 PUSH2 0x15F4 JUMP JUMPDEST SWAP3 SWAP2 POP POP JUMP JUMPDEST PUSH0 PUSH2 0x1626 DUP3 PUSH2 0x1560 JUMP JUMPDEST SWAP1 POP SWAP2 SWAP1 POP JUMP JUMPDEST PUSH2 0x1636 DUP2 PUSH2 0x161C JUMP JUMPDEST DUP3 MSTORE POP POP JUMP JUMPDEST PUSH0 PUSH1 0x20 DUP3 ADD SWAP1 POP PUSH2 0x164F PUSH0 DUP4 ADD DUP5 PUSH2 0x162D JUMP JUMPDEST SWAP3 SWAP2 POP POP JUMP JUMPDEST PUSH32 0x4E487B7100000000000000000000000000000000000000000000000000000000 PUSH0 MSTORE PUSH1 0x21 PUSH1 0x4 MSTORE PUSH1 0x24 PUSH0 REVERT JUMPDEST PUSH0 DUP3 DUP3 MSTORE PUSH1 0x20 DUP3 ADD SWAP1 POP SWAP3 SWAP2 POP POP JUMP JUMPDEST PUSH32 0x496E76616C6964206974656D2E00000000000000000000000000000000000000 PUSH0 DUP3 ADD MSTORE POP JUMP JUMPDEST PUSH0 PUSH2 0x16C6 PUSH1 0xD DUP4 PUSH2 0x1682 JUMP JUMPDEST SWAP2 POP PUSH2 0x16D1 DUP3 PUSH2 0x1692 JUMP JUMPDEST PUSH1 0x20 DUP3 ADD SWAP1 POP SWAP2 SWAP1 POP JUMP JUMPDEST PUSH0 PUSH1 0x20 DUP3 ADD SWAP1 POP DUP2 DUP2 SUB PUSH0 DUP4 ADD MSTORE PUSH2 0x16F3 DUP2 PUSH2 0x16BA JUMP JUMPDEST SWAP1 POP SWAP2 SWAP1 POP JUMP JUMPDEST PUSH32 0x4E487B7100000000000000000000000000000000000000000000000000000000 PUSH0 MSTORE PUSH1 0x11 PUSH1 0x4 MSTORE PUSH1 0x24 PUSH0 REVERT JUMPDEST PUSH0 PUSH2 0x1731 DUP3 PUSH2 0x1315 JUMP JUMPDEST SWAP2 POP PUSH2 0x173C DUP4 PUSH2 0x1315 JUMP JUMPDEST SWAP3 POP DUP3 DUP3 MUL PUSH2 0x174A DUP2 PUSH2 0x1315 JUMP JUMPDEST SWAP2 POP DUP3 DUP3 DIV DUP5 EQ DUP4 ISZERO OR PUSH2 0x1761 JUMPI PUSH2 0x1760 PUSH2 0x16FA JUMP JUMPDEST JUMPDEST POP SWAP3 SWAP2 POP POP JUMP JUMPDEST PUSH2 0x1771 DUP2 PUSH2 0x14AB JUMP JUMPDEST DUP3 MSTORE POP POP JUMP JUMPDEST PUSH0 PUSH1 0x40 DUP3 ADD SWAP1 POP PUSH2 0x178A PUSH0 DUP4 ADD DUP6 PUSH2 0x1768 JUMP JUMPDEST PUSH2 0x1797 PUSH1 0x20 DUP4 ADD DUP5 PUSH2 0x13E7 JUMP JUMPDEST SWAP4 SWAP3 POP POP POP JUMP JUMPDEST PUSH0 DUP2 MLOAD SWAP1 POP SWAP2 SWAP1 POP JUMP JUMPDEST PUSH0 DUP3 DUP3 MSTORE PUSH1 0x20 DUP3 ADD SWAP1 POP SWAP3 SWAP2 POP POP JUMP JUMPDEST PUSH0 JUMPDEST DUP4 DUP2 LT ISZERO PUSH2 0x17D5 JUMPI DUP1 DUP3 ADD MLOAD DUP2 DUP5 ADD MSTORE PUSH1 0x20 DUP2 ADD SWAP1 POP PUSH2 0x17BA JUMP JUMPDEST PUSH0 DUP5 DUP5 ADD MSTORE POP POP POP POP JUMP JUMPDEST PUSH0 PUSH1 0x1F NOT PUSH1 0x1F DUP4 ADD AND SWAP1 POP SWAP2 SWAP1 POP JUMP JUMPDEST PUSH0 PUSH2 0x17FA DUP3 PUSH2 0x179E JUMP JUMPDEST PUSH2 0x1804 DUP2 DUP6 PUSH2 0x17A8 JUMP JUMPDEST SWAP4 POP PUSH2 0x1814 DUP2 DUP6 PUSH1 0x20 DUP7 ADD PUSH2 0x17B8 JUMP JUMPDEST PUSH2 0x181D DUP2 PUSH2 0x17E0 JUMP JUMPDEST DUP5 ADD SWAP2 POP POP SWAP3 SWAP2 POP POP JUMP JUMPDEST PUSH0 PUSH1 0x80 DUP3 ADD SWAP1 POP PUSH2 0x183B PUSH0 DUP4 ADD DUP8 PUSH2 0x1768 JUMP JUMPDEST PUSH2 0x1848 PUSH1 0x20 DUP4 ADD DUP7 PUSH2 0x13E7 JUMP JUMPDEST PUSH2 0x1855 PUSH1 0x40 DUP4 ADD DUP6 PUSH2 0x13E7 JUMP JUMPDEST DUP2 DUP2 SUB PUSH1 0x60 DUP4 ADD MSTORE PUSH2 0x1867 DUP2 DUP5 PUSH2 0x17F0 JUMP JUMPDEST SWAP1 POP SWAP6 SWAP5 POP POP POP POP POP JUMP JUMPDEST PUSH0 PUSH1 0x80 DUP3 ADD SWAP1 POP PUSH2 0x1885 PUSH0 DUP4 ADD DUP8 PUSH2 0x13E7 JUMP JUMPDEST PUSH2 0x1892 PUSH1 0x20 DUP4 ADD DUP7 PUSH2 0x13E7 JUMP JUMPDEST PUSH2 0x189F PUSH1 0x40 DUP4 ADD DUP6 PUSH2 0x13E7 JUMP JUMPDEST PUSH2 0x18AC PUSH1 0x60 DUP4 ADD DUP5 PUSH2 0x13E7 JUMP JUMPDEST SWAP6 SWAP5 POP POP POP POP POP JUMP JUMPDEST PUSH32 0x4F6E6C792061646D696E2063616E2063616C6C2E000000000000000000000000 PUSH0 DUP3 ADD MSTORE POP JUMP JUMPDEST PUSH0 PUSH2 0x18E9 PUSH1 0x14 DUP4 PUSH2 0x1682 JUMP JUMPDEST SWAP2 POP PUSH2 0x18F4 DUP3 PUSH2 0x18B5 JUMP JUMPDEST PUSH1 0x20 DUP3 ADD SWAP1 POP SWAP2 SWAP1 POP JUMP JUMPDEST PUSH0 PUSH1 0x20 DUP3 ADD SWAP1 POP DUP2 DUP2 SUB PUSH0 DUP4 ADD MSTORE PUSH2 0x1916 DUP2 PUSH2 0x18DD JUMP JUMPDEST SWAP1 POP SWAP2 SWAP1 POP JUMP JUMPDEST PUSH32 0x4368657374732063616E6E6F7420626520616464656420746F20746865206368 PUSH0 DUP3 ADD MSTORE PUSH32 0x6573742E00000000000000000000000000000000000000000000000000000000 PUSH1 0x20 DUP3 ADD MSTORE POP JUMP JUMPDEST PUSH0 PUSH2 0x1977 PUSH1 0x24 DUP4 PUSH2 0x1682 JUMP JUMPDEST SWAP2 POP PUSH2 0x1982 DUP3 PUSH2 0x191D JUMP JUMPDEST PUSH1 0x40 DUP3 ADD SWAP1 POP SWAP2 SWAP1 POP JUMP JUMPDEST PUSH0 PUSH1 0x20 DUP3 ADD SWAP1 POP DUP2 DUP2 SUB PUSH0 DUP4 ADD MSTORE PUSH2 0x19A4 DUP2 PUSH2 0x196B JUMP JUMPDEST SWAP1 POP SWAP2 SWAP1 POP JUMP JUMPDEST PUSH32 0x4E6F206974656D7320696E20746865206C697374207965742E00000000000000 PUSH0 DUP3 ADD MSTORE POP JUMP JUMPDEST PUSH0 PUSH2 0x19DF PUSH1 0x19 DUP4 PUSH2 0x1682 JUMP JUMPDEST SWAP2 POP PUSH2 0x19EA DUP3 PUSH2 0x19AB JUMP JUMPDEST PUSH1 0x20 DUP3 ADD SWAP1 POP SWAP2 SWAP1 POP JUMP JUMPDEST PUSH0 PUSH1 0x20 DUP3 ADD SWAP1 POP DUP2 DUP2 SUB PUSH0 DUP4 ADD MSTORE PUSH2 0x1A0C DUP2 PUSH2 0x19D3 JUMP JUMPDEST SWAP1 POP SWAP2 SWAP1 POP JUMP JUMPDEST PUSH32 0x4E487B7100000000000000000000000000000000000000000000000000000000 PUSH0 MSTORE PUSH1 0x32 PUSH1 0x4 MSTORE PUSH1 0x24 PUSH0 REVERT JUMPDEST PUSH0 PUSH1 0x60 DUP3 ADD SWAP1 POP PUSH2 0x1A53 PUSH0 DUP4 ADD DUP7 PUSH2 0x1768 JUMP JUMPDEST PUSH2 0x1A60 PUSH1 0x20 DUP4 ADD DUP6 PUSH2 0x13E7 JUMP JUMPDEST PUSH2 0x1A6D PUSH1 0x40 DUP4 ADD DUP5 PUSH2 0x13E7 JUMP JUMPDEST SWAP5 SWAP4 POP POP POP POP JUMP JUMPDEST PUSH32 0x4D7573742062652067726561746572207468616E20302E000000000000000000 PUSH0 DUP3 ADD MSTORE POP JUMP JUMPDEST PUSH0 PUSH2 0x1AA9 PUSH1 0x17 DUP4 PUSH2 0x1682 JUMP JUMPDEST SWAP2 POP PUSH2 0x1AB4 DUP3 PUSH2 0x1A75 JUMP JUMPDEST PUSH1 0x20 DUP3 ADD SWAP1 POP SWAP2 SWAP1 POP JUMP JUMPDEST PUSH0 PUSH1 0x20 DUP3 ADD SWAP1 POP DUP2 DUP2 SUB PUSH0 DUP4 ADD MSTORE PUSH2 0x1AD6 DUP2 PUSH2 0x1A9D JUMP JUMPDEST SWAP1 POP SWAP2 SWAP1 POP JUMP JUMPDEST PUSH32 0x4E487B7100000000000000000000000000000000000000000000000000000000 PUSH0 MSTORE PUSH1 0x12 PUSH1 0x4 MSTORE PUSH1 0x24 PUSH0 REVERT JUMPDEST PUSH0 PUSH2 0x1B14 DUP3 PUSH2 0x1315 JUMP JUMPDEST SWAP2 POP PUSH2 0x1B1F DUP4 PUSH2 0x1315 JUMP JUMPDEST SWAP3 POP DUP3 PUSH2 0x1B2F JUMPI PUSH2 0x1B2E PUSH2 0x1ADD JUMP JUMPDEST JUMPDEST DUP3 DUP3 DIV SWAP1 POP SWAP3 SWAP2 POP POP JUMP JUMPDEST PUSH32 0x4368657374732063616E6E6F7420626520646973656E6368616E7465642E0000 PUSH0 DUP3 ADD MSTORE POP JUMP JUMPDEST PUSH0 PUSH2 0x1B6E PUSH1 0x1E DUP4 PUSH2 0x1682 JUMP JUMPDEST SWAP2 POP PUSH2 0x1B79 DUP3 PUSH2 0x1B3A JUMP JUMPDEST PUSH1 0x20 DUP3 ADD SWAP1 POP SWAP2 SWAP1 POP JUMP JUMPDEST PUSH0 PUSH1 0x20 DUP3 ADD SWAP1 POP DUP2 DUP2 SUB PUSH0 DUP4 ADD MSTORE PUSH2 0x1B9B DUP2 PUSH2 0x1B62 JUMP JUMPDEST SWAP1 POP SWAP2 SWAP1 POP JUMP JUMPDEST PUSH0 PUSH1 0x60 DUP3 ADD SWAP1 POP PUSH2 0x1BB5 PUSH0 DUP4 ADD DUP7 PUSH2 0x13E7 JUMP JUMPDEST PUSH2 0x1BC2 PUSH1 0x20 DUP4 ADD DUP6 PUSH2 0x13E7 JUMP JUMPDEST PUSH2 0x1BCF PUSH1 0x40 DUP4 ADD DUP5 PUSH2 0x13E7 JUMP JUMPDEST SWAP5 SWAP4 POP POP POP POP JUMP JUMPDEST PUSH0 PUSH1 0x60 DUP3 ADD SWAP1 POP PUSH2 0x1BEA PUSH0 DUP4 ADD DUP7 PUSH2 0x13E7 JUMP JUMPDEST PUSH2 0x1BF7 PUSH1 0x20 DUP4 ADD DUP6 PUSH2 0x13E7 JUMP JUMPDEST PUSH2 0x1C04 PUSH1 0x40 DUP4 ADD DUP5 PUSH2 0x1768 JUMP JUMPDEST SWAP5 SWAP4 POP POP POP POP JUMP JUMPDEST PUSH0 PUSH2 0x1C16 DUP3 PUSH2 0x1315 JUMP JUMPDEST SWAP2 POP PUSH2 0x1C21 DUP4 PUSH2 0x1315 JUMP JUMPDEST SWAP3 POP DUP3 PUSH2 0x1C31 JUMPI PUSH2 0x1C30 PUSH2 0x1ADD JUMP JUMPDEST JUMPDEST DUP3 DUP3 MOD SWAP1 POP SWAP3 SWAP2 POP POP JUMP JUMPDEST PUSH0 PUSH2 0x1C46 DUP3 PUSH2 0x1315 JUMP JUMPDEST SWAP2 POP PUSH2 0x1C51 DUP4 PUSH2 0x1315 JUMP JUMPDEST SWAP3 POP DUP3 DUP3 SUB SWAP1 POP DUP2 DUP2 GT ISZERO PUSH2 0x1C69 JUMPI PUSH2 0x1C68 PUSH2 0x16FA JUMP JUMPDEST JUMPDEST SWAP3 SWAP2 POP POP JUMP JUMPDEST PUSH0 PUSH2 0x1C79 DUP3 PUSH2 0x1315 JUMP JUMPDEST SWAP2 POP PUSH2 0x1C84 DUP4 PUSH2 0x1315 JUMP JUMPDEST SWAP3 POP DUP3 DUP3 ADD SWAP1 POP DUP1 DUP3 GT ISZERO PUSH2 0x1C9C JUMPI PUSH2 0x1C9B PUSH2 0x16FA JUMP JUMPDEST JUMPDEST SWAP3 SWAP2 POP POP JUMP INVALID LOG2 PUSH5 0x6970667358 0x22 SLT KECCAK256 SGT SWAP7 0xE9 ADDRESS PUSH12 0xCD96F9CF27C5FDC45220AB0D 0xAC GAS PUSH31 0x111A0B368EFDA8D8E1FD7D9264736F6C6343000814003360A0604052348015 PUSH3 0x10 JUMPI PUSH0 DUP1 REVERT JUMPDEST POP PUSH1 0x40 MLOAD PUSH3 0x151E CODESIZE SUB DUP1 PUSH3 0x151E DUP4 CODECOPY DUP2 DUP2 ADD PUSH1 0x40 MSTORE DUP2 ADD SWAP1 PUSH3 0x36 SWAP2 SWAP1 PUSH3 0x168 JUMP JUMPDEST PUSH1 0x40 MLOAD DUP1 PUSH1 0x40 ADD PUSH1 0x40 MSTORE DUP1 PUSH1 0xF DUP2 MSTORE PUSH1 0x20 ADD PUSH32 0x4574686572696320457373656E63650000000000000000000000000000000000 DUP2 MSTORE POP PUSH1 0x40 MLOAD DUP1 PUSH1 0x40 ADD PUSH1 0x40 MSTORE DUP1 PUSH1 0x3 DUP2 MSTORE PUSH1 0x20 ADD PUSH32 0x4545530000000000000000000000000000000000000000000000000000000000 DUP2 MSTORE POP DUP2 PUSH1 0x3 SWAP1 DUP2 PUSH3 0xB3 SWAP2 SWAP1 PUSH3 0x3FC JUMP JUMPDEST POP DUP1 PUSH1 0x4 SWAP1 DUP2 PUSH3 0xC5 SWAP2 SWAP1 PUSH3 0x3FC JUMP JUMPDEST POP POP POP DUP1 PUSH20 0xFFFFFFFFFFFFFFFFFFFFFFFFFFFFFFFFFFFFFFFF AND PUSH1 0x80 DUP2 PUSH20 0xFFFFFFFFFFFFFFFFFFFFFFFFFFFFFFFFFFFFFFFF AND DUP2 MSTORE POP POP POP PUSH3 0x4E0 JUMP JUMPDEST PUSH0 DUP1 REVERT JUMPDEST PUSH0 PUSH20 0xFFFFFFFFFFFFFFFFFFFFFFFFFFFFFFFFFFFFFFFF DUP3 AND SWAP1 POP SWAP2 SWAP1 POP JUMP JUMPDEST PUSH0 PUSH3 0x132 DUP3 PUSH3 0x107 JUMP JUMPDEST SWAP1 POP SWAP2 SWAP1 POP JUMP JUMPDEST PUSH3 0x144 DUP2 PUSH3 0x126 JUMP JUMPDEST DUP2 EQ PUSH3 0x14F JUMPI PUSH0 DUP1 REVERT JUMPDEST POP JUMP JUMPDEST PUSH0 DUP2 MLOAD SWAP1 POP PUSH3 0x162 DUP2 PUSH3 0x139 JUMP JUMPDEST SWAP3 SWAP2 POP POP JUMP JUMPDEST PUSH0 PUSH1 0x20 DUP3 DUP5 SUB SLT ISZERO PUSH3 0x180 JUMPI PUSH3 0x17F PUSH3 0x103 JUMP JUMPDEST JUMPDEST PUSH0 PUSH3 0x18F DUP5 DUP3 DUP6 ADD PUSH3 0x152 JUMP JUMPDEST SWAP2 POP POP SWAP3 SWAP2 POP POP JUMP JUMPDEST PUSH0 DUP2 MLOAD SWAP1 POP SWAP2 SWAP1 POP JUMP JUMPDEST PUSH32 0x4E487B7100000000000000000000000000000000000000000000000000000000 PUSH0 MSTORE PUSH1 0x41 PUSH1 0x4 MSTORE PUSH1 0x24 PUSH0 REVERT JUMPDEST PUSH32 0x4E487B7100000000000000000000000000000000000000000000000000000000 PUSH0 MSTORE PUSH1 0x22 PUSH1 0x4 MSTORE PUSH1 0x24 PUSH0 REVERT JUMPDEST PUSH0 PUSH1 0x2 DUP3 DIV SWAP1 POP PUSH1 0x1 DUP3 AND DUP1 PUSH3 0x214 JUMPI PUSH1 0x7F DUP3 AND SWAP2 POP JUMPDEST PUSH1 0x20 DUP3 LT DUP2 SUB PUSH3 0x22A JUMPI PUSH3 0x229 PUSH3 0x1CF JUMP JUMPDEST JUMPDEST POP SWAP2 SWAP1 POP JUMP JUMPDEST PUSH0 DUP2 SWAP1 POP DUP2 PUSH0 MSTORE PUSH1 0x20 PUSH0 KECCAK256 SWAP1 POP SWAP2 SWAP1 POP JUMP JUMPDEST PUSH0 PUSH1 0x20 PUSH1 0x1F DUP4 ADD DIV SWAP1 POP SWAP2 SWAP1 POP JUMP JUMPDEST PUSH0 DUP3 DUP3 SHL SWAP1 POP SWAP3 SWAP2 POP POP JUMP JUMPDEST PUSH0 PUSH1 0x8 DUP4 MUL PUSH3 0x28E PUSH32 0xFFFFFFFFFFFFFFFFFFFFFFFFFFFFFFFFFFFFFFFFFFFFFFFFFFFFFFFFFFFFFFFF DUP3 PUSH3 0x251 JUMP JUMPDEST PUSH3 0x29A DUP7 DUP4 PUSH3 0x251 JUMP JUMPDEST SWAP6 POP DUP1 NOT DUP5 AND SWAP4 POP DUP1 DUP7 AND DUP5 OR SWAP3 POP POP POP SWAP4 SWAP3 POP POP POP JUMP JUMPDEST PUSH0 DUP2 SWAP1 POP SWAP2 SWAP1 POP JUMP JUMPDEST PUSH0 DUP2 SWAP1 POP SWAP2 SWAP1 POP JUMP JUMPDEST PUSH0 PUSH3 0x2E4 PUSH3 0x2DE PUSH3 0x2D8 DUP5 PUSH3 0x2B2 JUMP JUMPDEST PUSH3 0x2BB JUMP JUMPDEST PUSH3 0x2B2 JUMP JUMPDEST SWAP1 POP SWAP2 SWAP1 POP JUMP JUMPDEST PUSH0 DUP2 SWAP1 POP SWAP2 SWAP1 POP JUMP JUMPDEST PUSH3 0x2FF DUP4 PUSH3 0x2C4 JUMP JUMPDEST PUSH3 0x317 PUSH3 0x30E DUP3 PUSH3 0x2EB JUMP JUMPDEST DUP5 DUP5 SLOAD PUSH3 0x25D JUMP JUMPDEST DUP3 SSTORE POP POP POP POP JUMP JUMPDEST PUSH0 SWAP1 JUMP JUMPDEST PUSH3 0x32D PUSH3 0x31F JUMP JUMPDEST PUSH3 0x33A DUP2 DUP5 DUP5 PUSH3 0x2F4 JUMP JUMPDEST POP POP POP JUMP JUMPDEST JUMPDEST DUP2 DUP2 LT ISZERO PUSH3 0x361 JUMPI PUSH3 0x355 PUSH0 DUP3 PUSH3 0x323 JUMP JUMPDEST PUSH1 0x1 DUP2 ADD SWAP1 POP PUSH3 0x340 JUMP JUMPDEST POP POP JUMP JUMPDEST PUSH1 0x1F DUP3 GT ISZERO PUSH3 0x3B0 JUMPI PUSH3 0x37A DUP2 PUSH3 0x230 JUMP JUMPDEST PUSH3 0x385 DUP5 PUSH3 0x242 JUMP JUMPDEST DUP2 ADD PUSH1 0x20 DUP6 LT ISZERO PUSH3 0x395 JUMPI DUP2 SWAP1 POP JUMPDEST PUSH3 0x3AD PUSH3 0x3A4 DUP6 PUSH3 0x242 JUMP JUMPDEST DUP4 ADD DUP3 PUSH3 0x33F JUMP JUMPDEST POP POP JUMPDEST POP POP POP JUMP JUMPDEST PUSH0 DUP3 DUP3 SHR SWAP1 POP SWAP3 SWAP2 POP POP JUMP JUMPDEST PUSH0 PUSH3 0x3D2 PUSH0 NOT DUP5 PUSH1 0x8 MUL PUSH3 0x3B5 JUMP JUMPDEST NOT DUP1 DUP4 AND SWAP2 POP POP SWAP3 SWAP2 POP POP JUMP JUMPDEST PUSH0 PUSH3 0x3EC DUP4 DUP4 PUSH3 0x3C1 JUMP JUMPDEST SWAP2 POP DUP3 PUSH1 0x2 MUL DUP3 OR SWAP1 POP SWAP3 SWAP2 POP POP JUMP JUMPDEST PUSH3 0x407 DUP3 PUSH3 0x198 JUMP JUMPDEST PUSH8 0xFFFFFFFFFFFFFFFF DUP2 GT ISZERO PUSH3 0x423 JUMPI PUSH3 0x422 PUSH3 0x1A2 JUMP JUMPDEST JUMPDEST PUSH3 0x42F DUP3 SLOAD PUSH3 0x1FC JUMP JUMPDEST PUSH3 0x43C DUP3 DUP3 DUP6 PUSH3 0x365 JUMP JUMPDEST PUSH0 PUSH1 0x20 SWAP1 POP PUSH1 0x1F DUP4 GT PUSH1 0x1 DUP2 EQ PUSH3 0x472 JUMPI PUSH0 DUP5 ISZERO PUSH3 0x45D JUMPI DUP3 DUP8 ADD MLOAD SWAP1 POP JUMPDEST PUSH3 0x469 DUP6 DUP3 PUSH3 0x3DF JUMP JUMPDEST DUP7 SSTORE POP PUSH3 0x4D8 JUMP JUMPDEST PUSH1 0x1F NOT DUP5 AND PUSH3 0x482 DUP7 PUSH3 0x230 JUMP JUMPDEST PUSH0 JUMPDEST DUP3 DUP2 LT ISZERO PUSH3 0x4AB JUMPI DUP5 DUP10 ADD MLOAD DUP3 SSTORE PUSH1 0x1 DUP3 ADD SWAP2 POP PUSH1 0x20 DUP6 ADD SWAP5 POP PUSH1 0x20 DUP2 ADD SWAP1 POP PUSH3 0x484 JUMP JUMPDEST DUP7 DUP4 LT ISZERO PUSH3 0x4CB JUMPI DUP5 DUP10 ADD MLOAD PUSH3 0x4C7 PUSH1 0x1F DUP10 AND DUP3 PUSH3 0x3C1 JUMP JUMPDEST DUP4 SSTORE POP JUMPDEST PUSH1 0x1 PUSH1 0x2 DUP9 MUL ADD DUP9 SSTORE POP POP POP JUMPDEST POP POP POP POP POP POP JUMP JUMPDEST PUSH1 0x80 MLOAD PUSH2 0x101E PUSH3 0x500 PUSH0 CODECOPY PUSH0 DUP2 DUP2 PUSH2 0x343 ADD MSTORE PUSH2 0x427 ADD MSTORE PUSH2 0x101E PUSH0 RETURN INVALID PUSH1 0x80 PUSH1 0x40 MSTORE CALLVALUE DUP1 ISZERO PUSH2 0xF JUMPI PUSH0 DUP1 REVERT JUMPDEST POP PUSH1 0x4 CALLDATASIZE LT PUSH2 0xB2 JUMPI PUSH0 CALLDATALOAD PUSH1 0xE0 SHR DUP1 PUSH4 0x42966C68 GT PUSH2 0x6F JUMPI DUP1 PUSH4 0x42966C68 EQ PUSH2 0x18C JUMPI DUP1 PUSH4 0x70A08231 EQ PUSH2 0x1A8 JUMPI DUP1 PUSH4 0x79CC6790 EQ PUSH2 0x1D8 JUMPI DUP1 PUSH4 0x95D89B41 EQ PUSH2 0x1F4 JUMPI DUP1 PUSH4 0xA9059CBB EQ PUSH2 0x212 JUMPI DUP1 PUSH4 0xDD62ED3E EQ PUSH2 0x242 JUMPI PUSH2 0xB2 JUMP JUMPDEST DUP1 PUSH4 0x6FDDE03 EQ PUSH2 0xB6 JUMPI DUP1 PUSH4 0x95EA7B3 EQ PUSH2 0xD4 JUMPI DUP1 PUSH4 0x18160DDD EQ PUSH2 0x104 JUMPI DUP1 PUSH4 0x23B872DD EQ PUSH2 0x122 JUMPI DUP1 PUSH4 0x313CE567 EQ PUSH2 0x152 JUMPI DUP1 PUSH4 0x40C10F19 EQ PUSH2 0x170 JUMPI JUMPDEST PUSH0 DUP1 REVERT JUMPDEST PUSH2 0xBE PUSH2 0x272 JUMP JUMPDEST PUSH1 0x40 MLOAD PUSH2 0xCB SWAP2 SWAP1 PUSH2 0xC04 JUMP JUMPDEST PUSH1 0x40 MLOAD DUP1 SWAP2 SUB SWAP1 RETURN JUMPDEST PUSH2 0xEE PUSH1 0x4 DUP1 CALLDATASIZE SUB DUP2 ADD SWAP1 PUSH2 0xE9 SWAP2 SWAP1 PUSH2 0xCB5 JUMP JUMPDEST PUSH2 0x302 JUMP JUMPDEST PUSH1 0x40 MLOAD PUSH2 0xFB SWAP2 SWAP1 PUSH2 0xD0D JUMP JUMPDEST PUSH1 0x40 MLOAD DUP1 SWAP2 SUB SWAP1 RETURN JUMPDEST PUSH2 0x10C PUSH2 0x324 JUMP JUMPDEST PUSH1 0x40 MLOAD PUSH2 0x119 SWAP2 SWAP1 PUSH2 0xD35 JUMP JUMPDEST PUSH1 0x40 MLOAD DUP1 SWAP2 SUB SWAP1 RETURN JUMPDEST PUSH2 0x13C PUSH1 0x4 DUP1 CALLDATASIZE SUB DUP2 ADD SWAP1 PUSH2 0x137 SWAP2 SWAP1 PUSH2 0xD4E JUMP JUMPDEST PUSH2 0x32D JUMP JUMPDEST PUSH1 0x40 MLOAD PUSH2 0x149 SWAP2 SWAP1 PUSH2 0xD0D JUMP JUMPDEST PUSH1 0x40 MLOAD DUP1 SWAP2 SUB SWAP1 RETURN JUMPDEST PUSH2 0x15A PUSH2 0x339 JUMP JUMPDEST PUSH1 0x40 MLOAD PUSH2 0x167 SWAP2 SWAP1 PUSH2 0xDB9 JUMP JUMPDEST PUSH1 0x40 MLOAD DUP1 SWAP2 SUB SWAP1 RETURN JUMPDEST PUSH2 0x18A PUSH1 0x4 DUP1 CALLDATASIZE SUB DUP2 ADD SWAP1 PUSH2 0x185 SWAP2 SWAP1 PUSH2 0xCB5 JUMP JUMPDEST PUSH2 0x341 JUMP JUMPDEST STOP JUMPDEST PUSH2 0x1A6 PUSH1 0x4 DUP1 CALLDATASIZE SUB DUP2 ADD SWAP1 PUSH2 0x1A1 SWAP2 SWAP1 PUSH2 0xDD2 JUMP JUMPDEST PUSH2 0x3DD JUMP JUMPDEST STOP JUMPDEST PUSH2 0x1C2 PUSH1 0x4 DUP1 CALLDATASIZE SUB DUP2 ADD SWAP1 PUSH2 0x1BD SWAP2 SWAP1 PUSH2 0xDFD JUMP JUMPDEST PUSH2 0x3E0 JUMP JUMPDEST PUSH1 0x40 MLOAD PUSH2 0x1CF SWAP2 SWAP1 PUSH2 0xD35 JUMP JUMPDEST PUSH1 0x40 MLOAD DUP1 SWAP2 SUB SWAP1 RETURN JUMPDEST PUSH2 0x1F2 PUSH1 0x4 DUP1 CALLDATASIZE SUB DUP2 ADD SWAP1 PUSH2 0x1ED SWAP2 SWAP1 PUSH2 0xCB5 JUMP JUMPDEST PUSH2 0x425 JUMP JUMPDEST STOP JUMPDEST PUSH2 0x1FC PUSH2 0x4CC JUMP JUMPDEST PUSH1 0x40 MLOAD PUSH2 0x209 SWAP2 SWAP1 PUSH2 0xC04 JUMP JUMPDEST PUSH1 0x40 MLOAD DUP1 SWAP2 SUB SWAP1 RETURN JUMPDEST PUSH2 0x22C PUSH1 0x4 DUP1 CALLDATASIZE SUB DUP2 ADD SWAP1 PUSH2 0x227 SWAP2 SWAP1 PUSH2 0xCB5 JUMP JUMPDEST PUSH2 0x55C JUMP JUMPDEST PUSH1 0x40 MLOAD PUSH2 0x239 SWAP2 SWAP1 PUSH2 0xD0D JUMP JUMPDEST PUSH1 0x40 MLOAD DUP1 SWAP2 SUB SWAP1 RETURN JUMPDEST PUSH2 0x25C PUSH1 0x4 DUP1 CALLDATASIZE SUB DUP2 ADD SWAP1 PUSH2 0x257 SWAP2 SWAP1 PUSH2 0xE28 JUMP JUMPDEST PUSH2 0x567 JUMP JUMPDEST PUSH1 0x40 MLOAD PUSH2 0x269 SWAP2 SWAP1 PUSH2 0xD35 JUMP JUMPDEST PUSH1 0x40 MLOAD DUP1 SWAP2 SUB SWAP1 RETURN JUMPDEST PUSH1 0x60 PUSH1 0x3 DUP1 SLOAD PUSH2 0x281 SWAP1 PUSH2 0xE93 JUMP JUMPDEST DUP1 PUSH1 0x1F ADD PUSH1 0x20 DUP1 SWAP2 DIV MUL PUSH1 0x20 ADD PUSH1 0x40 MLOAD SWAP1 DUP2 ADD PUSH1 0x40 MSTORE DUP1 SWAP3 SWAP2 SWAP1 DUP2 DUP2 MSTORE PUSH1 0x20 ADD DUP3 DUP1 SLOAD PUSH2 0x2AD SWAP1 PUSH2 0xE93 JUMP JUMPDEST DUP1 ISZERO PUSH2 0x2F8 JUMPI DUP1 PUSH1 0x1F LT PUSH2 0x2CF JUMPI PUSH2 0x100 DUP1 DUP4 SLOAD DIV MUL DUP4 MSTORE SWAP2 PUSH1 0x20 ADD SWAP2 PUSH2 0x2F8 JUMP JUMPDEST DUP3 ADD SWAP2 SWAP1 PUSH0 MSTORE PUSH1 0x20 PUSH0 KECCAK256 SWAP1 JUMPDEST DUP2 SLOAD DUP2 MSTORE SWAP1 PUSH1 0x1 ADD SWAP1 PUSH1 0x20 ADD DUP1 DUP4 GT PUSH2 0x2DB JUMPI DUP3 SWAP1 SUB PUSH1 0x1F AND DUP3 ADD SWAP2 JUMPDEST POP POP POP POP POP SWAP1 POP SWAP1 JUMP JUMPDEST PUSH0 DUP1 PUSH2 0x30C PUSH2 0x5E9 JUMP JUMPDEST SWAP1 POP PUSH2 0x319 DUP2 DUP6 DUP6 PUSH2 0x5F0 JUMP JUMPDEST PUSH1 0x1 SWAP2 POP POP SWAP3 SWAP2 POP POP JUMP JUMPDEST PUSH0 PUSH1 0x2 SLOAD SWAP1 POP SWAP1 JUMP JUMPDEST PUSH0 PUSH1 0x1 SWAP1 POP SWAP4 SWAP3 POP POP POP JUMP JUMPDEST PUSH0 PUSH1 0x12 SWAP1 POP SWAP1 JUMP JUMPDEST PUSH32 0x0 PUSH20 0xFFFFFFFFFFFFFFFFFFFFFFFFFFFFFFFFFFFFFFFF AND CALLER PUSH20 0xFFFFFFFFFFFFFFFFFFFFFFFFFFFFFFFFFFFFFFFF AND EQ PUSH2 0x3CF JUMPI PUSH1 0x40 MLOAD PUSH32 0x8C379A000000000000000000000000000000000000000000000000000000000 DUP2 MSTORE PUSH1 0x4 ADD PUSH2 0x3C6 SWAP1 PUSH2 0xF0D JUMP JUMPDEST PUSH1 0x40 MLOAD DUP1 SWAP2 SUB SWAP1 REVERT JUMPDEST PUSH2 0x3D9 DUP3 DUP3 PUSH2 0x602 JUMP JUMPDEST POP POP JUMP JUMPDEST POP JUMP JUMPDEST PUSH0 DUP1 PUSH0 DUP4 PUSH20 0xFFFFFFFFFFFFFFFFFFFFFFFFFFFFFFFFFFFFFFFF AND PUSH20 0xFFFFFFFFFFFFFFFFFFFFFFFFFFFFFFFFFFFFFFFF AND DUP2 MSTORE PUSH1 0x20 ADD SWAP1 DUP2 MSTORE PUSH1 0x20 ADD PUSH0 KECCAK256 SLOAD SWAP1 POP SWAP2 SWAP1 POP JUMP JUMPDEST PUSH32 0x0 PUSH20 0xFFFFFFFFFFFFFFFFFFFFFFFFFFFFFFFFFFFFFFFF AND CALLER PUSH20 0xFFFFFFFFFFFFFFFFFFFFFFFFFFFFFFFFFFFFFFFF AND EQ PUSH2 0x4B3 JUMPI PUSH1 0x40 MLOAD PUSH32 0x8C379A000000000000000000000000000000000000000000000000000000000 DUP2 MSTORE PUSH1 0x4 ADD PUSH2 0x4AA SWAP1 PUSH2 0xF0D JUMP JUMPDEST PUSH1 0x40 MLOAD DUP1 SWAP2 SUB SWAP1 REVERT JUMPDEST PUSH2 0x4BE DUP3 CALLER DUP4 PUSH2 0x681 JUMP JUMPDEST PUSH2 0x4C8 DUP3 DUP3 PUSH2 0x713 JUMP JUMPDEST POP POP JUMP JUMPDEST PUSH1 0x60 PUSH1 0x4 DUP1 SLOAD PUSH2 0x4DB SWAP1 PUSH2 0xE93 JUMP JUMPDEST DUP1 PUSH1 0x1F ADD PUSH1 0x20 DUP1 SWAP2 DIV MUL PUSH1 0x20 ADD PUSH1 0x40 MLOAD SWAP1 DUP2 ADD PUSH1 0x40 MSTORE DUP1 SWAP3 SWAP2 SWAP1 DUP2 DUP2 MSTORE PUSH1 0x20 ADD DUP3 DUP1 SLOAD PUSH2 0x507 SWAP1 PUSH2 0xE93 JUMP JUMPDEST DUP1 ISZERO PUSH2 0x552 JUMPI DUP1 PUSH1 0x1F LT PUSH2 0x529 JUMPI PUSH2 0x100 DUP1 DUP4 SLOAD DIV MUL DUP4 MSTORE SWAP2 PUSH1 0x20 ADD SWAP2 PUSH2 0x552 JUMP JUMPDEST DUP3 ADD SWAP2 SWAP1 PUSH0 MSTORE PUSH1 0x20 PUSH0 KECCAK256 SWAP1 JUMPDEST DUP2 SLOAD DUP2 MSTORE SWAP1 PUSH1 0x1 ADD SWAP1 PUSH1 0x20 ADD DUP1 DUP4 GT PUSH2 0x535 JUMPI DUP3 SWAP1 SUB PUSH1 0x1F AND DUP3 ADD SWAP2 JUMPDEST POP POP POP POP POP SWAP1 POP SWAP1 JUMP JUMPDEST PUSH0 PUSH1 0x1 SWAP1 POP SWAP3 SWAP2 POP POP JUMP JUMPDEST PUSH0 PUSH1 0x1 PUSH0 DUP5 PUSH20 0xFFFFFFFFFFFFFFFFFFFFFFFFFFFFFFFFFFFFFFFF AND PUSH20 0xFFFFFFFFFFFFFFFFFFFFFFFFFFFFFFFFFFFFFFFF AND DUP2 MSTORE PUSH1 0x20 ADD SWAP1 DUP2 MSTORE PUSH1 0x20 ADD PUSH0 KECCAK256 PUSH0 DUP4 PUSH20 0xFFFFFFFFFFFFFFFFFFFFFFFFFFFFFFFFFFFFFFFF AND PUSH20 0xFFFFFFFFFFFFFFFFFFFFFFFFFFFFFFFFFFFFFFFF AND DUP2 MSTORE PUSH1 0x20 ADD SWAP1 DUP2 MSTORE PUSH1 0x20 ADD PUSH0 KECCAK256 SLOAD SWAP1 POP SWAP3 SWAP2 POP POP JUMP JUMPDEST PUSH0 CALLER SWAP1 POP SWAP1 JUMP JUMPDEST PUSH2 0x5FD DUP4 DUP4 DUP4 PUSH1 0x1 PUSH2 0x792 JUMP JUMPDEST POP POP POP JUMP JUMPDEST PUSH0 PUSH20 0xFFFFFFFFFFFFFFFFFFFFFFFFFFFFFFFFFFFFFFFF AND DUP3 PUSH20 0xFFFFFFFFFFFFFFFFFFFFFFFFFFFFFFFFFFFFFFFF AND SUB PUSH2 0x672 JUMPI PUSH0 PUSH1 0x40 MLOAD PUSH32 0xEC442F0500000000000000000000000000000000000000000000000000000000 DUP2 MSTORE PUSH1 0x4 ADD PUSH2 0x669 SWAP2 SWAP1 PUSH2 0xF3A JUMP JUMPDEST PUSH1 0x40 MLOAD DUP1 SWAP2 SUB SWAP1 REVERT JUMPDEST PUSH2 0x67D PUSH0 DUP4 DUP4 PUSH2 0x961 JUMP JUMPDEST POP POP JUMP JUMPDEST PUSH0 PUSH2 0x68C DUP5 DUP5 PUSH2 0x567 JUMP JUMPDEST SWAP1 POP PUSH32 0xFFFFFFFFFFFFFFFFFFFFFFFFFFFFFFFFFFFFFFFFFFFFFFFFFFFFFFFFFFFFFFFF DUP2 EQ PUSH2 0x70D JUMPI DUP2 DUP2 LT ISZERO PUSH2 0x6FE JUMPI DUP3 DUP2 DUP4 PUSH1 0x40 MLOAD PUSH32 0xFB8F41B200000000000000000000000000000000000000000000000000000000 DUP2 MSTORE PUSH1 0x4 ADD PUSH2 0x6F5 SWAP4 SWAP3 SWAP2 SWAP1 PUSH2 0xF53 JUMP JUMPDEST PUSH1 0x40 MLOAD DUP1 SWAP2 SUB SWAP1 REVERT JUMPDEST PUSH2 0x70C DUP5 DUP5 DUP5 DUP5 SUB PUSH0 PUSH2 0x792 JUMP JUMPDEST JUMPDEST POP POP POP POP JUMP JUMPDEST PUSH0 PUSH20 0xFFFFFFFFFFFFFFFFFFFFFFFFFFFFFFFFFFFFFFFF AND DUP3 PUSH20 0xFFFFFFFFFFFFFFFFFFFFFFFFFFFFFFFFFFFFFFFF AND SUB PUSH2 0x783 JUMPI PUSH0 PUSH1 0x40 MLOAD PUSH32 0x96C6FD1E00000000000000000000000000000000000000000000000000000000 DUP2 MSTORE PUSH1 0x4 ADD PUSH2 0x77A SWAP2 SWAP1 PUSH2 0xF3A JUMP JUMPDEST PUSH1 0x40 MLOAD DUP1 SWAP2 SUB SWAP1 REVERT JUMPDEST PUSH2 0x78E DUP3 PUSH0 DUP4 PUSH2 0x961 JUMP JUMPDEST POP POP JUMP JUMPDEST PUSH0 PUSH20 0xFFFFFFFFFFFFFFFFFFFFFFFFFFFFFFFFFFFFFFFF AND DUP5 PUSH20 0xFFFFFFFFFFFFFFFFFFFFFFFFFFFFFFFFFFFFFFFF AND SUB PUSH2 0x802 JUMPI PUSH0 PUSH1 0x40 MLOAD PUSH32 0xE602DF0500000000000000000000000000000000000000000000000000000000 DUP2 MSTORE PUSH1 0x4 ADD PUSH2 0x7F9 SWAP2 SWAP1 PUSH2 0xF3A JUMP JUMPDEST PUSH1 0x40 MLOAD DUP1 SWAP2 SUB SWAP1 REVERT JUMPDEST PUSH0 PUSH20 0xFFFFFFFFFFFFFFFFFFFFFFFFFFFFFFFFFFFFFFFF AND DUP4 PUSH20 0xFFFFFFFFFFFFFFFFFFFFFFFFFFFFFFFFFFFFFFFF AND SUB PUSH2 0x872 JUMPI PUSH0 PUSH1 0x40 MLOAD PUSH32 0x94280D6200000000000000000000000000000000000000000000000000000000 DUP2 MSTORE PUSH1 0x4 ADD PUSH2 0x869 SWAP2 SWAP1 PUSH2 0xF3A JUMP JUMPDEST PUSH1 0x40 MLOAD DUP1 SWAP2 SUB SWAP1 REVERT JUMPDEST DUP2 PUSH1 0x1 PUSH0 DUP7 PUSH20 0xFFFFFFFFFFFFFFFFFFFFFFFFFFFFFFFFFFFFFFFF AND PUSH20 0xFFFFFFFFFFFFFFFFFFFFFFFFFFFFFFFFFFFFFFFF AND DUP2 MSTORE PUSH1 0x20 ADD SWAP1 DUP2 MSTORE PUSH1 0x20 ADD PUSH0 KECCAK256 PUSH0 DUP6 PUSH20 0xFFFFFFFFFFFFFFFFFFFFFFFFFFFFFFFFFFFFFFFF AND PUSH20 0xFFFFFFFFFFFFFFFFFFFFFFFFFFFFFFFFFFFFFFFF AND DUP2 MSTORE PUSH1 0x20 ADD SWAP1 DUP2 MSTORE PUSH1 0x20 ADD PUSH0 KECCAK256 DUP2 SWAP1 SSTORE POP DUP1 ISZERO PUSH2 0x95B JUMPI DUP3 PUSH20 0xFFFFFFFFFFFFFFFFFFFFFFFFFFFFFFFFFFFFFFFF AND DUP5 PUSH20 0xFFFFFFFFFFFFFFFFFFFFFFFFFFFFFFFFFFFFFFFF AND PUSH32 0x8C5BE1E5EBEC7D5BD14F71427D1E84F3DD0314C0F7B2291E5B200AC8C7C3B925 DUP5 PUSH1 0x40 MLOAD PUSH2 0x952 SWAP2 SWAP1 PUSH2 0xD35 JUMP JUMPDEST PUSH1 0x40 MLOAD DUP1 SWAP2 SUB SWAP1 LOG3 JUMPDEST POP POP POP POP JUMP JUMPDEST PUSH0 PUSH20 0xFFFFFFFFFFFFFFFFFFFFFFFFFFFFFFFFFFFFFFFF AND DUP4 PUSH20 0xFFFFFFFFFFFFFFFFFFFFFFFFFFFFFFFFFFFFFFFF AND SUB PUSH2 0x9B1 JUMPI DUP1 PUSH1 0x2 PUSH0 DUP3 DUP3 SLOAD PUSH2 0x9A5 SWAP2 SWAP1 PUSH2 0xFB5 JUMP JUMPDEST SWAP3 POP POP DUP2 SWAP1 SSTORE POP PUSH2 0xA7F JUMP JUMPDEST PUSH0 DUP1 PUSH0 DUP6 PUSH20 0xFFFFFFFFFFFFFFFFFFFFFFFFFFFFFFFFFFFFFFFF AND PUSH20 0xFFFFFFFFFFFFFFFFFFFFFFFFFFFFFFFFFFFFFFFF AND DUP2 MSTORE PUSH1 0x20 ADD SWAP1 DUP2 MSTORE PUSH1 0x20 ADD PUSH0 KECCAK256 SLOAD SWAP1 POP DUP2 DUP2 LT ISZERO PUSH2 0xA3A JUMPI DUP4 DUP2 DUP4 PUSH1 0x40 MLOAD PUSH32 0xE450D38C00000000000000000000000000000000000000000000000000000000 DUP2 MSTORE PUSH1 0x4 ADD PUSH2 0xA31 SWAP4 SWAP3 SWAP2 SWAP1 PUSH2 0xF53 JUMP JUMPDEST PUSH1 0x40 MLOAD DUP1 SWAP2 SUB SWAP1 REVERT JUMPDEST DUP2 DUP2 SUB PUSH0 DUP1 DUP7 PUSH20 0xFFFFFFFFFFFFFFFFFFFFFFFFFFFFFFFFFFFFFFFF AND PUSH20 0xFFFFFFFFFFFFFFFFFFFFFFFFFFFFFFFFFFFFFFFF AND DUP2 MSTORE PUSH1 0x20 ADD SWAP1 DUP2 MSTORE PUSH1 0x20 ADD PUSH0 KECCAK256 DUP2 SWAP1 SSTORE POP POP JUMPDEST PUSH0 PUSH20 0xFFFFFFFFFFFFFFFFFFFFFFFFFFFFFFFFFFFFFFFF AND DUP3 PUSH20 0xFFFFFFFFFFFFFFFFFFFFFFFFFFFFFFFFFFFFFFFF AND SUB PUSH2 0xAC6 JUMPI DUP1 PUSH1 0x2 PUSH0 DUP3 DUP3 SLOAD SUB SWAP3 POP POP DUP2 SWAP1 SSTORE POP PUSH2 0xB10 JUMP JUMPDEST DUP1 PUSH0 DUP1 DUP5 PUSH20 0xFFFFFFFFFFFFFFFFFFFFFFFFFFFFFFFFFFFFFFFF AND PUSH20 0xFFFFFFFFFFFFFFFFFFFFFFFFFFFFFFFFFFFFFFFF AND DUP2 MSTORE PUSH1 0x20 ADD SWAP1 DUP2 MSTORE PUSH1 0x20 ADD PUSH0 KECCAK256 PUSH0 DUP3 DUP3 SLOAD ADD SWAP3 POP POP DUP2 SWAP1 SSTORE POP JUMPDEST DUP2 PUSH20 0xFFFFFFFFFFFFFFFFFFFFFFFFFFFFFFFFFFFFFFFF AND DUP4 PUSH20 0xFFFFFFFFFFFFFFFFFFFFFFFFFFFFFFFFFFFFFFFF AND PUSH32 0xDDF252AD1BE2C89B69C2B068FC378DAA952BA7F163C4A11628F55A4DF523B3EF DUP4 PUSH1 0x40 MLOAD PUSH2 0xB6D SWAP2 SWAP1 PUSH2 0xD35 JUMP JUMPDEST PUSH1 0x40 MLOAD DUP1 SWAP2 SUB SWAP1 LOG3 POP POP POP JUMP JUMPDEST PUSH0 DUP2 MLOAD SWAP1 POP SWAP2 SWAP1 POP JUMP JUMPDEST PUSH0 DUP3 DUP3 MSTORE PUSH1 0x20 DUP3 ADD SWAP1 POP SWAP3 SWAP2 POP POP JUMP JUMPDEST PUSH0 JUMPDEST DUP4 DUP2 LT ISZERO PUSH2 0xBB1 JUMPI DUP1 DUP3 ADD MLOAD DUP2 DUP5 ADD MSTORE PUSH1 0x20 DUP2 ADD SWAP1 POP PUSH2 0xB96 JUMP JUMPDEST PUSH0 DUP5 DUP5 ADD MSTORE POP POP POP POP JUMP JUMPDEST PUSH0 PUSH1 0x1F NOT PUSH1 0x1F DUP4 ADD AND SWAP1 POP SWAP2 SWAP1 POP JUMP JUMPDEST PUSH0 PUSH2 0xBD6 DUP3 PUSH2 0xB7A JUMP JUMPDEST PUSH2 0xBE0 DUP2 DUP6 PUSH2 0xB84 JUMP JUMPDEST SWAP4 POP PUSH2 0xBF0 DUP2 DUP6 PUSH1 0x20 DUP7 ADD PUSH2 0xB94 JUMP JUMPDEST PUSH2 0xBF9 DUP2 PUSH2 0xBBC JUMP JUMPDEST DUP5 ADD SWAP2 POP POP SWAP3 SWAP2 POP POP JUMP JUMPDEST PUSH0 PUSH1 0x20 DUP3 ADD SWAP1 POP DUP2 DUP2 SUB PUSH0 DUP4 ADD MSTORE PUSH2 0xC1C DUP2 DUP5 PUSH2 0xBCC JUMP JUMPDEST SWAP1 POP SWAP3 SWAP2 POP POP JUMP JUMPDEST PUSH0 DUP1 REVERT JUMPDEST PUSH0 PUSH20 0xFFFFFFFFFFFFFFFFFFFFFFFFFFFFFFFFFFFFFFFF DUP3 AND SWAP1 POP SWAP2 SWAP1 POP JUMP JUMPDEST PUSH0 PUSH2 0xC51 DUP3 PUSH2 0xC28 JUMP JUMPDEST SWAP1 POP SWAP2 SWAP1 POP JUMP JUMPDEST PUSH2 0xC61 DUP2 PUSH2 0xC47 JUMP JUMPDEST DUP2 EQ PUSH2 0xC6B JUMPI PUSH0 DUP1 REVERT JUMPDEST POP JUMP JUMPDEST PUSH0 DUP2 CALLDATALOAD SWAP1 POP PUSH2 0xC7C DUP2 PUSH2 0xC58 JUMP JUMPDEST SWAP3 SWAP2 POP POP JUMP JUMPDEST PUSH0 DUP2 SWAP1 POP SWAP2 SWAP1 POP JUMP JUMPDEST PUSH2 0xC94 DUP2 PUSH2 0xC82 JUMP JUMPDEST DUP2 EQ PUSH2 0xC9E JUMPI PUSH0 DUP1 REVERT JUMPDEST POP JUMP JUMPDEST PUSH0 DUP2 CALLDATALOAD SWAP1 POP PUSH2 0xCAF DUP2 PUSH2 0xC8B JUMP JUMPDEST SWAP3 SWAP2 POP POP JUMP JUMPDEST PUSH0 DUP1 PUSH1 0x40 DUP4 DUP6 SUB SLT ISZERO PUSH2 0xCCB JUMPI PUSH2 0xCCA PUSH2 0xC24 JUMP JUMPDEST JUMPDEST PUSH0 PUSH2 0xCD8 DUP6 DUP3 DUP7 ADD PUSH2 0xC6E JUMP JUMPDEST SWAP3 POP POP PUSH1 0x20 PUSH2 0xCE9 DUP6 DUP3 DUP7 ADD PUSH2 0xCA1 JUMP JUMPDEST SWAP2 POP POP SWAP3 POP SWAP3 SWAP1 POP JUMP JUMPDEST PUSH0 DUP2 ISZERO ISZERO SWAP1 POP SWAP2 SWAP1 POP JUMP JUMPDEST PUSH2 0xD07 DUP2 PUSH2 0xCF3 JUMP JUMPDEST DUP3 MSTORE POP POP JUMP JUMPDEST PUSH0 PUSH1 0x20 DUP3 ADD SWAP1 POP PUSH2 0xD20 PUSH0 DUP4 ADD DUP5 PUSH2 0xCFE JUMP JUMPDEST SWAP3 SWAP2 POP POP JUMP JUMPDEST PUSH2 0xD2F DUP2 PUSH2 0xC82 JUMP JUMPDEST DUP3 MSTORE POP POP JUMP JUMPDEST PUSH0 PUSH1 0x20 DUP3 ADD SWAP1 POP PUSH2 0xD48 PUSH0 DUP4 ADD DUP5 PUSH2 0xD26 JUMP JUMPDEST SWAP3 SWAP2 POP POP JUMP JUMPDEST PUSH0 DUP1 PUSH0 PUSH1 0x60 DUP5 DUP7 SUB SLT ISZERO PUSH2 0xD65 JUMPI PUSH2 0xD64 PUSH2 0xC24 JUMP JUMPDEST JUMPDEST PUSH0 PUSH2 0xD72 DUP7 DUP3 DUP8 ADD PUSH2 0xC6E JUMP JUMPDEST SWAP4 POP POP PUSH1 0x20 PUSH2 0xD83 DUP7 DUP3 DUP8 ADD PUSH2 0xC6E JUMP JUMPDEST SWAP3 POP POP PUSH1 0x40 PUSH2 0xD94 DUP7 DUP3 DUP8 ADD PUSH2 0xCA1 JUMP JUMPDEST SWAP2 POP POP SWAP3 POP SWAP3 POP SWAP3 JUMP JUMPDEST PUSH0 PUSH1 0xFF DUP3 AND SWAP1 POP SWAP2 SWAP1 POP JUMP JUMPDEST PUSH2 0xDB3 DUP2 PUSH2 0xD9E JUMP JUMPDEST DUP3 MSTORE POP POP JUMP JUMPDEST PUSH0 PUSH1 0x20 DUP3 ADD SWAP1 POP PUSH2 0xDCC PUSH0 DUP4 ADD DUP5 PUSH2 0xDAA JUMP JUMPDEST SWAP3 SWAP2 POP POP JUMP JUMPDEST PUSH0 PUSH1 0x20 DUP3 DUP5 SUB SLT ISZERO PUSH2 0xDE7 JUMPI PUSH2 0xDE6 PUSH2 0xC24 JUMP JUMPDEST JUMPDEST PUSH0 PUSH2 0xDF4 DUP5 DUP3 DUP6 ADD PUSH2 0xCA1 JUMP JUMPDEST SWAP2 POP POP SWAP3 SWAP2 POP POP JUMP JUMPDEST PUSH0 PUSH1 0x20 DUP3 DUP5 SUB SLT ISZERO PUSH2 0xE12 JUMPI PUSH2 0xE11 PUSH2 0xC24 JUMP JUMPDEST JUMPDEST PUSH0 PUSH2 0xE1F DUP5 DUP3 DUP6 ADD PUSH2 0xC6E JUMP JUMPDEST SWAP2 POP POP SWAP3 SWAP2 POP POP JUMP JUMPDEST PUSH0 DUP1 PUSH1 0x40 DUP4 DUP6 SUB SLT ISZERO PUSH2 0xE3E JUMPI PUSH2 0xE3D PUSH2 0xC24 JUMP JUMPDEST JUMPDEST PUSH0 PUSH2 0xE4B DUP6 DUP3 DUP7 ADD PUSH2 0xC6E JUMP JUMPDEST SWAP3 POP POP PUSH1 0x20 PUSH2 0xE5C DUP6 DUP3 DUP7 ADD PUSH2 0xC6E JUMP JUMPDEST SWAP2 POP POP SWAP3 POP SWAP3 SWAP1 POP JUMP JUMPDEST PUSH32 0x4E487B7100000000000000000000000000000000000000000000000000000000 PUSH0 MSTORE PUSH1 0x22 PUSH1 0x4 MSTORE PUSH1 0x24 PUSH0 REVERT JUMPDEST PUSH0 PUSH1 0x2 DUP3 DIV SWAP1 POP PUSH1 0x1 DUP3 AND DUP1 PUSH2 0xEAA JUMPI PUSH1 0x7F DUP3 AND SWAP2 POP JUMPDEST PUSH1 0x20 DUP3 LT DUP2 SUB PUSH2 0xEBD JUMPI PUSH2 0xEBC PUSH2 0xE66 JUMP JUMPDEST JUMPDEST POP SWAP2 SWAP1 POP JUMP JUMPDEST PUSH32 0x4F6E6C792067616D6520636F6E74726163742063616E2063616C6C2E00000000 PUSH0 DUP3 ADD MSTORE POP JUMP JUMPDEST PUSH0 PUSH2 0xEF7 PUSH1 0x1C DUP4 PUSH2 0xB84 JUMP JUMPDEST SWAP2 POP PUSH2 0xF02 DUP3 PUSH2 0xEC3 JUMP JUMPDEST PUSH1 0x20 DUP3 ADD SWAP1 POP SWAP2 SWAP1 POP JUMP JUMPDEST PUSH0 PUSH1 0x20 DUP3 ADD SWAP1 POP DUP2 DUP2 SUB PUSH0 DUP4 ADD MSTORE PUSH2 0xF24 DUP2 PUSH2 0xEEB JUMP JUMPDEST SWAP1 POP SWAP2 SWAP1 POP JUMP JUMPDEST PUSH2 0xF34 DUP2 PUSH2 0xC47 JUMP JUMPDEST DUP3 MSTORE POP POP JUMP JUMPDEST PUSH0 PUSH1 0x20 DUP3 ADD SWAP1 POP PUSH2 0xF4D PUSH0 DUP4 ADD DUP5 PUSH2 0xF2B JUMP JUMPDEST SWAP3 SWAP2 POP POP JUMP JUMPDEST PUSH0 PUSH1 0x60 DUP3 ADD SWAP1 POP PUSH2 0xF66 PUSH0 DUP4 ADD DUP7 PUSH2 0xF2B JUMP JUMPDEST PUSH2 0xF73 PUSH1 0x20 DUP4 ADD DUP6 PUSH2 0xD26 JUMP JUMPDEST PUSH2 0xF80 PUSH1 0x40 DUP4 ADD DUP5 PUSH2 0xD26 JUMP JUMPDEST SWAP5 SWAP4 POP POP POP POP JUMP JUMPDEST PUSH32 0x4E487B7100000000000000000000000000000000000000000000000000000000 PUSH0 MSTORE PUSH1 0x11 PUSH1 0x4 MSTORE PUSH1 0x24 PUSH0 REVERT JUMPDEST PUSH0 PUSH2 0xFBF DUP3 PUSH2 0xC82 JUMP JUMPDEST SWAP2 POP PUSH2 0xFCA DUP4 PUSH2 0xC82 JUMP JUMPDEST SWAP3 POP DUP3 DUP3 ADD SWAP1 POP DUP1 DUP3 GT ISZERO PUSH2 0xFE2 JUMPI PUSH2 0xFE1 PUSH2 0xF88 JUMP JUMPDEST JUMPDEST SWAP3 SWAP2 POP POP JUMP INVALID LOG2 PUSH5 0x6970667358 0x22 SLT KECCAK256 DUP12 ADD 0x1F CALL 0xB7 0xE3 0xB4 PUSH10 0x873B15E0A00BFB0B2B28 PUSH5 0x899B234FB2 COINBASE 0xF 0xD6 DUP9 PUSH29 0x3B4ACA64736F6C6343000814003360A060405234801562000010575F80 REVERT JUMPDEST POP PUSH1 0x40 MLOAD PUSH3 0x16E6 CODESIZE SUB DUP1 PUSH3 0x16E6 DUP4 CODECOPY DUP2 DUP2 ADD PUSH1 0x40 MSTORE DUP2 ADD SWAP1 PUSH3 0x36 SWAP2 SWAP1 PUSH3 0x168 JUMP JUMPDEST PUSH1 0x40 MLOAD DUP1 PUSH1 0x40 ADD PUSH1 0x40 MSTORE DUP1 PUSH1 0x10 DUP2 MSTORE PUSH1 0x20 ADD PUSH32 0x45746865726963204372797374616C7300000000000000000000000000000000 DUP2 MSTORE POP PUSH1 0x40 MLOAD DUP1 PUSH1 0x40 ADD PUSH1 0x40 MSTORE DUP1 PUSH1 0x3 DUP2 MSTORE PUSH1 0x20 ADD PUSH32 0x4543520000000000000000000000000000000000000000000000000000000000 DUP2 MSTORE POP DUP2 PUSH1 0x3 SWAP1 DUP2 PUSH3 0xB3 SWAP2 SWAP1 PUSH3 0x3FC JUMP JUMPDEST POP DUP1 PUSH1 0x4 SWAP1 DUP2 PUSH3 0xC5 SWAP2 SWAP1 PUSH3 0x3FC JUMP JUMPDEST POP POP POP DUP1 PUSH20 0xFFFFFFFFFFFFFFFFFFFFFFFFFFFFFFFFFFFFFFFF AND PUSH1 0x80 DUP2 PUSH20 0xFFFFFFFFFFFFFFFFFFFFFFFFFFFFFFFFFFFFFFFF AND DUP2 MSTORE POP POP POP PUSH3 0x4E0 JUMP JUMPDEST PUSH0 DUP1 REVERT JUMPDEST PUSH0 PUSH20 0xFFFFFFFFFFFFFFFFFFFFFFFFFFFFFFFFFFFFFFFF DUP3 AND SWAP1 POP SWAP2 SWAP1 POP JUMP JUMPDEST PUSH0 PUSH3 0x132 DUP3 PUSH3 0x107 JUMP JUMPDEST SWAP1 POP SWAP2 SWAP1 POP JUMP JUMPDEST PUSH3 0x144 DUP2 PUSH3 0x126 JUMP JUMPDEST DUP2 EQ PUSH3 0x14F JUMPI PUSH0 DUP1 REVERT JUMPDEST POP JUMP JUMPDEST PUSH0 DUP2 MLOAD SWAP1 POP PUSH3 0x162 DUP2 PUSH3 0x139 JUMP JUMPDEST SWAP3 SWAP2 POP POP JUMP JUMPDEST PUSH0 PUSH1 0x20 DUP3 DUP5 SUB SLT ISZERO PUSH3 0x180 JUMPI PUSH3 0x17F PUSH3 0x103 JUMP JUMPDEST JUMPDEST PUSH0 PUSH3 0x18F DUP5 DUP3 DUP6 ADD PUSH3 0x152 JUMP JUMPDEST SWAP2 POP POP SWAP3 SWAP2 POP POP JUMP JUMPDEST PUSH0 DUP2 MLOAD SWAP1 POP SWAP2 SWAP1 POP JUMP JUMPDEST PUSH32 0x4E487B7100000000000000000000000000000000000000000000000000000000 PUSH0 MSTORE PUSH1 0x41 PUSH1 0x4 MSTORE PUSH1 0x24 PUSH0 REVERT JUMPDEST PUSH32 0x4E487B7100000000000000000000000000000000000000000000000000000000 PUSH0 MSTORE PUSH1 0x22 PUSH1 0x4 MSTORE PUSH1 0x24 PUSH0 REVERT JUMPDEST PUSH0 PUSH1 0x2 DUP3 DIV SWAP1 POP PUSH1 0x1 DUP3 AND DUP1 PUSH3 0x214 JUMPI PUSH1 0x7F DUP3 AND SWAP2 POP JUMPDEST PUSH1 0x20 DUP3 LT DUP2 SUB PUSH3 0x22A JUMPI PUSH3 0x229 PUSH3 0x1CF JUMP JUMPDEST JUMPDEST POP SWAP2 SWAP1 POP JUMP JUMPDEST PUSH0 DUP2 SWAP1 POP DUP2 PUSH0 MSTORE PUSH1 0x20 PUSH0 KECCAK256 SWAP1 POP SWAP2 SWAP1 POP JUMP JUMPDEST PUSH0 PUSH1 0x20 PUSH1 0x1F DUP4 ADD DIV SWAP1 POP SWAP2 SWAP1 POP JUMP JUMPDEST PUSH0 DUP3 DUP3 SHL SWAP1 POP SWAP3 SWAP2 POP POP JUMP JUMPDEST PUSH0 PUSH1 0x8 DUP4 MUL PUSH3 0x28E PUSH32 0xFFFFFFFFFFFFFFFFFFFFFFFFFFFFFFFFFFFFFFFFFFFFFFFFFFFFFFFFFFFFFFFF DUP3 PUSH3 0x251 JUMP JUMPDEST PUSH3 0x29A DUP7 DUP4 PUSH3 0x251 JUMP JUMPDEST SWAP6 POP DUP1 NOT DUP5 AND SWAP4 POP DUP1 DUP7 AND DUP5 OR SWAP3 POP POP POP SWAP4 SWAP3 POP POP POP JUMP JUMPDEST PUSH0 DUP2 SWAP1 POP SWAP2 SWAP1 POP JUMP JUMPDEST PUSH0 DUP2 SWAP1 POP SWAP2 SWAP1 POP JUMP JUMPDEST PUSH0 PUSH3 0x2E4 PUSH3 0x2DE PUSH3 0x2D8 DUP5 PUSH3 0x2B2 JUMP JUMPDEST PUSH3 0x2BB JUMP JUMPDEST PUSH3 0x2B2 JUMP JUMPDEST SWAP1 POP SWAP2 SWAP1 POP JUMP JUMPDEST PUSH0 DUP2 SWAP1 POP SWAP2 SWAP1 POP JUMP JUMPDEST PUSH3 0x2FF DUP4 PUSH3 0x2C4 JUMP JUMPDEST PUSH3 0x317 PUSH3 0x30E DUP3 PUSH3 0x2EB JUMP JUMPDEST DUP5 DUP5 SLOAD PUSH3 0x25D JUMP JUMPDEST DUP3 SSTORE POP POP POP POP JUMP JUMPDEST PUSH0 SWAP1 JUMP JUMPDEST PUSH3 0x32D PUSH3 0x31F JUMP JUMPDEST PUSH3 0x33A DUP2 DUP5 DUP5 PUSH3 0x2F4 JUMP JUMPDEST POP POP POP JUMP JUMPDEST JUMPDEST DUP2 DUP2 LT ISZERO PUSH3 0x361 JUMPI PUSH3 0x355 PUSH0 DUP3 PUSH3 0x323 JUMP JUMPDEST PUSH1 0x1 DUP2 ADD SWAP1 POP PUSH3 0x340 JUMP JUMPDEST POP POP JUMP JUMPDEST PUSH1 0x1F DUP3 GT ISZERO PUSH3 0x3B0 JUMPI PUSH3 0x37A DUP2 PUSH3 0x230 JUMP JUMPDEST PUSH3 0x385 DUP5 PUSH3 0x242 JUMP JUMPDEST DUP2 ADD PUSH1 0x20 DUP6 LT ISZERO PUSH3 0x395 JUMPI DUP2 SWAP1 POP JUMPDEST PUSH3 0x3AD PUSH3 0x3A4 DUP6 PUSH3 0x242 JUMP JUMPDEST DUP4 ADD DUP3 PUSH3 0x33F JUMP JUMPDEST POP POP JUMPDEST POP POP POP JUMP JUMPDEST PUSH0 DUP3 DUP3 SHR SWAP1 POP SWAP3 SWAP2 POP POP JUMP JUMPDEST PUSH0 PUSH3 0x3D2 PUSH0 NOT DUP5 PUSH1 0x8 MUL PUSH3 0x3B5 JUMP JUMPDEST NOT DUP1 DUP4 AND SWAP2 POP POP SWAP3 SWAP2 POP POP JUMP JUMPDEST PUSH0 PUSH3 0x3EC DUP4 DUP4 PUSH3 0x3C1 JUMP JUMPDEST SWAP2 POP DUP3 PUSH1 0x2 MUL DUP3 OR SWAP1 POP SWAP3 SWAP2 POP POP JUMP JUMPDEST PUSH3 0x407 DUP3 PUSH3 0x198 JUMP JUMPDEST PUSH8 0xFFFFFFFFFFFFFFFF DUP2 GT ISZERO PUSH3 0x423 JUMPI PUSH3 0x422 PUSH3 0x1A2 JUMP JUMPDEST JUMPDEST PUSH3 0x42F DUP3 SLOAD PUSH3 0x1FC JUMP JUMPDEST PUSH3 0x43C DUP3 DUP3 DUP6 PUSH3 0x365 JUMP JUMPDEST PUSH0 PUSH1 0x20 SWAP1 POP PUSH1 0x1F DUP4 GT PUSH1 0x1 DUP2 EQ PUSH3 0x472 JUMPI PUSH0 DUP5 ISZERO PUSH3 0x45D JUMPI DUP3 DUP8 ADD MLOAD SWAP1 POP JUMPDEST PUSH3 0x469 DUP6 DUP3 PUSH3 0x3DF JUMP JUMPDEST DUP7 SSTORE POP PUSH3 0x4D8 JUMP JUMPDEST PUSH1 0x1F NOT DUP5 AND PUSH3 0x482 DUP7 PUSH3 0x230 JUMP JUMPDEST PUSH0 JUMPDEST DUP3 DUP2 LT ISZERO PUSH3 0x4AB JUMPI DUP5 DUP10 ADD MLOAD DUP3 SSTORE PUSH1 0x1 DUP3 ADD SWAP2 POP PUSH1 0x20 DUP6 ADD SWAP5 POP PUSH1 0x20 DUP2 ADD SWAP1 POP PUSH3 0x484 JUMP JUMPDEST DUP7 DUP4 LT ISZERO PUSH3 0x4CB JUMPI DUP5 DUP10 ADD MLOAD PUSH3 0x4C7 PUSH1 0x1F DUP10 AND DUP3 PUSH3 0x3C1 JUMP JUMPDEST DUP4 SSTORE POP JUMPDEST PUSH1 0x1 PUSH1 0x2 DUP9 MUL ADD DUP9 SSTORE POP POP POP JUMPDEST POP POP POP POP POP POP JUMP JUMPDEST PUSH1 0x80 MLOAD PUSH2 0x11DF PUSH3 0x507 PUSH0 CODECOPY PUSH0 DUP2 DUP2 PUSH2 0x365 ADD MSTORE DUP2 DUP2 PUSH2 0x401 ADD MSTORE PUSH2 0x4E1 ADD MSTORE PUSH2 0x11DF PUSH0 RETURN INVALID PUSH1 0x80 PUSH1 0x40 MSTORE CALLVALUE DUP1 ISZERO PUSH2 0xF JUMPI PUSH0 DUP1 REVERT JUMPDEST POP PUSH1 0x4 CALLDATASIZE LT PUSH2 0xB2 JUMPI PUSH0 CALLDATALOAD PUSH1 0xE0 SHR DUP1 PUSH4 0x42966C68 GT PUSH2 0x6F JUMPI DUP1 PUSH4 0x42966C68 EQ PUSH2 0x18C JUMPI DUP1 PUSH4 0x70A08231 EQ PUSH2 0x1A8 JUMPI DUP1 PUSH4 0x79CC6790 EQ PUSH2 0x1D8 JUMPI DUP1 PUSH4 0x95D89B41 EQ PUSH2 0x1F4 JUMPI DUP1 PUSH4 0xA9059CBB EQ PUSH2 0x212 JUMPI DUP1 PUSH4 0xDD62ED3E EQ PUSH2 0x242 JUMPI PUSH2 0xB2 JUMP JUMPDEST DUP1 PUSH4 0x6FDDE03 EQ PUSH2 0xB6 JUMPI DUP1 PUSH4 0x95EA7B3 EQ PUSH2 0xD4 JUMPI DUP1 PUSH4 0x18160DDD EQ PUSH2 0x104 JUMPI DUP1 PUSH4 0x23B872DD EQ PUSH2 0x122 JUMPI DUP1 PUSH4 0x313CE567 EQ PUSH2 0x152 JUMPI DUP1 PUSH4 0x40C10F19 EQ PUSH2 0x170 JUMPI JUMPDEST PUSH0 DUP1 REVERT JUMPDEST PUSH2 0xBE PUSH2 0x272 JUMP JUMPDEST PUSH1 0x40 MLOAD PUSH2 0xCB SWAP2 SWAP1 PUSH2 0xDC5 JUMP JUMPDEST PUSH1 0x40 MLOAD DUP1 SWAP2 SUB SWAP1 RETURN JUMPDEST PUSH2 0xEE PUSH1 0x4 DUP1 CALLDATASIZE SUB DUP2 ADD SWAP1 PUSH2 0xE9 SWAP2 SWAP1 PUSH2 0xE76 JUMP JUMPDEST PUSH2 0x302 JUMP JUMPDEST PUSH1 0x40 MLOAD PUSH2 0xFB SWAP2 SWAP1 PUSH2 0xECE JUMP JUMPDEST PUSH1 0x40 MLOAD DUP1 SWAP2 SUB SWAP1 RETURN JUMPDEST PUSH2 0x10C PUSH2 0x324 JUMP JUMPDEST PUSH1 0x40 MLOAD PUSH2 0x119 SWAP2 SWAP1 PUSH2 0xEF6 JUMP JUMPDEST PUSH1 0x40 MLOAD DUP1 SWAP2 SUB SWAP1 RETURN JUMPDEST PUSH2 0x13C PUSH1 0x4 DUP1 CALLDATASIZE SUB DUP2 ADD SWAP1 PUSH2 0x137 SWAP2 SWAP1 PUSH2 0xF0F JUMP JUMPDEST PUSH2 0x32D JUMP JUMPDEST PUSH1 0x40 MLOAD PUSH2 0x149 SWAP2 SWAP1 PUSH2 0xECE JUMP JUMPDEST PUSH1 0x40 MLOAD DUP1 SWAP2 SUB SWAP1 RETURN JUMPDEST PUSH2 0x15A PUSH2 0x35B JUMP JUMPDEST PUSH1 0x40 MLOAD PUSH2 0x167 SWAP2 SWAP1 PUSH2 0xF7A JUMP JUMPDEST PUSH1 0x40 MLOAD DUP1 SWAP2 SUB SWAP1 RETURN JUMPDEST PUSH2 0x18A PUSH1 0x4 DUP1 CALLDATASIZE SUB DUP2 ADD SWAP1 PUSH2 0x185 SWAP2 SWAP1 PUSH2 0xE76 JUMP JUMPDEST PUSH2 0x363 JUMP JUMPDEST STOP JUMPDEST PUSH2 0x1A6 PUSH1 0x4 DUP1 CALLDATASIZE SUB DUP2 ADD SWAP1 PUSH2 0x1A1 SWAP2 SWAP1 PUSH2 0xF93 JUMP JUMPDEST PUSH2 0x3FF JUMP JUMPDEST STOP JUMPDEST PUSH2 0x1C2 PUSH1 0x4 DUP1 CALLDATASIZE SUB DUP2 ADD SWAP1 PUSH2 0x1BD SWAP2 SWAP1 PUSH2 0xFBE JUMP JUMPDEST PUSH2 0x49A JUMP JUMPDEST PUSH1 0x40 MLOAD PUSH2 0x1CF SWAP2 SWAP1 PUSH2 0xEF6 JUMP JUMPDEST PUSH1 0x40 MLOAD DUP1 SWAP2 SUB SWAP1 RETURN JUMPDEST PUSH2 0x1F2 PUSH1 0x4 DUP1 CALLDATASIZE SUB DUP2 ADD SWAP1 PUSH2 0x1ED SWAP2 SWAP1 PUSH2 0xE76 JUMP JUMPDEST PUSH2 0x4DF JUMP JUMPDEST STOP JUMPDEST PUSH2 0x1FC PUSH2 0x586 JUMP JUMPDEST PUSH1 0x40 MLOAD PUSH2 0x209 SWAP2 SWAP1 PUSH2 0xDC5 JUMP JUMPDEST PUSH1 0x40 MLOAD DUP1 SWAP2 SUB SWAP1 RETURN JUMPDEST PUSH2 0x22C PUSH1 0x4 DUP1 CALLDATASIZE SUB DUP2 ADD SWAP1 PUSH2 0x227 SWAP2 SWAP1 PUSH2 0xE76 JUMP JUMPDEST PUSH2 0x616 JUMP JUMPDEST PUSH1 0x40 MLOAD PUSH2 0x239 SWAP2 SWAP1 PUSH2 0xECE JUMP JUMPDEST PUSH1 0x40 MLOAD DUP1 SWAP2 SUB SWAP1 RETURN JUMPDEST PUSH2 0x25C PUSH1 0x4 DUP1 CALLDATASIZE SUB DUP2 ADD SWAP1 PUSH2 0x257 SWAP2 SWAP1 PUSH2 0xFE9 JUMP JUMPDEST PUSH2 0x638 JUMP JUMPDEST PUSH1 0x40 MLOAD PUSH2 0x269 SWAP2 SWAP1 PUSH2 0xEF6 JUMP JUMPDEST PUSH1 0x40 MLOAD DUP1 SWAP2 SUB SWAP1 RETURN JUMPDEST PUSH1 0x60 PUSH1 0x3 DUP1 SLOAD PUSH2 0x281 SWAP1 PUSH2 0x1054 JUMP JUMPDEST DUP1 PUSH1 0x1F ADD PUSH1 0x20 DUP1 SWAP2 DIV MUL PUSH1 0x20 ADD PUSH1 0x40 MLOAD SWAP1 DUP2 ADD PUSH1 0x40 MSTORE DUP1 SWAP3 SWAP2 SWAP1 DUP2 DUP2 MSTORE PUSH1 0x20 ADD DUP3 DUP1 SLOAD PUSH2 0x2AD SWAP1 PUSH2 0x1054 JUMP JUMPDEST DUP1 ISZERO PUSH2 0x2F8 JUMPI DUP1 PUSH1 0x1F LT PUSH2 0x2CF JUMPI PUSH2 0x100 DUP1 DUP4 SLOAD DIV MUL DUP4 MSTORE SWAP2 PUSH1 0x20 ADD SWAP2 PUSH2 0x2F8 JUMP JUMPDEST DUP3 ADD SWAP2 SWAP1 PUSH0 MSTORE PUSH1 0x20 PUSH0 KECCAK256 SWAP1 JUMPDEST DUP2 SLOAD DUP2 MSTORE SWAP1 PUSH1 0x1 ADD SWAP1 PUSH1 0x20 ADD DUP1 DUP4 GT PUSH2 0x2DB JUMPI DUP3 SWAP1 SUB PUSH1 0x1F AND DUP3 ADD SWAP2 JUMPDEST POP POP POP POP POP SWAP1 POP SWAP1 JUMP JUMPDEST PUSH0 DUP1 PUSH2 0x30C PUSH2 0x6BA JUMP JUMPDEST SWAP1 POP PUSH2 0x319 DUP2 DUP6 DUP6 PUSH2 0x6C1 JUMP JUMPDEST PUSH1 0x1 SWAP2 POP POP SWAP3 SWAP2 POP POP JUMP JUMPDEST PUSH0 PUSH1 0x2 SLOAD SWAP1 POP SWAP1 JUMP JUMPDEST PUSH0 DUP1 PUSH2 0x337 PUSH2 0x6BA JUMP JUMPDEST SWAP1 POP PUSH2 0x344 DUP6 DUP3 DUP6 PUSH2 0x6D3 JUMP JUMPDEST PUSH2 0x34F DUP6 DUP6 DUP6 PUSH2 0x765 JUMP JUMPDEST PUSH1 0x1 SWAP2 POP POP SWAP4 SWAP3 POP POP POP JUMP JUMPDEST PUSH0 PUSH1 0x12 SWAP1 POP SWAP1 JUMP JUMPDEST PUSH32 0x0 PUSH20 0xFFFFFFFFFFFFFFFFFFFFFFFFFFFFFFFFFFFFFFFF AND CALLER PUSH20 0xFFFFFFFFFFFFFFFFFFFFFFFFFFFFFFFFFFFFFFFF AND EQ PUSH2 0x3F1 JUMPI PUSH1 0x40 MLOAD PUSH32 0x8C379A000000000000000000000000000000000000000000000000000000000 DUP2 MSTORE PUSH1 0x4 ADD PUSH2 0x3E8 SWAP1 PUSH2 0x10CE JUMP JUMPDEST PUSH1 0x40 MLOAD DUP1 SWAP2 SUB SWAP1 REVERT JUMPDEST PUSH2 0x3FB DUP3 DUP3 PUSH2 0x855 JUMP JUMPDEST POP POP JUMP JUMPDEST PUSH32 0x0 PUSH20 0xFFFFFFFFFFFFFFFFFFFFFFFFFFFFFFFFFFFFFFFF AND CALLER PUSH20 0xFFFFFFFFFFFFFFFFFFFFFFFFFFFFFFFFFFFFFFFF AND EQ PUSH2 0x48D JUMPI PUSH1 0x40 MLOAD PUSH32 0x8C379A000000000000000000000000000000000000000000000000000000000 DUP2 MSTORE PUSH1 0x4 ADD PUSH2 0x484 SWAP1 PUSH2 0x10CE JUMP JUMPDEST PUSH1 0x40 MLOAD DUP1 SWAP2 SUB SWAP1 REVERT JUMPDEST PUSH2 0x497 CALLER DUP3 PUSH2 0x8D4 JUMP JUMPDEST POP JUMP JUMPDEST PUSH0 DUP1 PUSH0 DUP4 PUSH20 0xFFFFFFFFFFFFFFFFFFFFFFFFFFFFFFFFFFFFFFFF AND PUSH20 0xFFFFFFFFFFFFFFFFFFFFFFFFFFFFFFFFFFFFFFFF AND DUP2 MSTORE PUSH1 0x20 ADD SWAP1 DUP2 MSTORE PUSH1 0x20 ADD PUSH0 KECCAK256 SLOAD SWAP1 POP SWAP2 SWAP1 POP JUMP JUMPDEST PUSH32 0x0 PUSH20 0xFFFFFFFFFFFFFFFFFFFFFFFFFFFFFFFFFFFFFFFF AND CALLER PUSH20 0xFFFFFFFFFFFFFFFFFFFFFFFFFFFFFFFFFFFFFFFF AND EQ PUSH2 0x56D JUMPI PUSH1 0x40 MLOAD PUSH32 0x8C379A000000000000000000000000000000000000000000000000000000000 DUP2 MSTORE PUSH1 0x4 ADD PUSH2 0x564 SWAP1 PUSH2 0x10CE JUMP JUMPDEST PUSH1 0x40 MLOAD DUP1 SWAP2 SUB SWAP1 REVERT JUMPDEST PUSH2 0x578 DUP3 CALLER DUP4 PUSH2 0x6D3 JUMP JUMPDEST PUSH2 0x582 DUP3 DUP3 PUSH2 0x8D4 JUMP JUMPDEST POP POP JUMP JUMPDEST PUSH1 0x60 PUSH1 0x4 DUP1 SLOAD PUSH2 0x595 SWAP1 PUSH2 0x1054 JUMP JUMPDEST DUP1 PUSH1 0x1F ADD PUSH1 0x20 DUP1 SWAP2 DIV MUL PUSH1 0x20 ADD PUSH1 0x40 MLOAD SWAP1 DUP2 ADD PUSH1 0x40 MSTORE DUP1 SWAP3 SWAP2 SWAP1 DUP2 DUP2 MSTORE PUSH1 0x20 ADD DUP3 DUP1 SLOAD PUSH2 0x5C1 SWAP1 PUSH2 0x1054 JUMP JUMPDEST DUP1 ISZERO PUSH2 0x60C JUMPI DUP1 PUSH1 0x1F LT PUSH2 0x5E3 JUMPI PUSH2 0x100 DUP1 DUP4 SLOAD DIV MUL DUP4 MSTORE SWAP2 PUSH1 0x20 ADD SWAP2 PUSH2 0x60C JUMP JUMPDEST DUP3 ADD SWAP2 SWAP1 PUSH0 MSTORE PUSH1 0x20 PUSH0 KECCAK256 SWAP1 JUMPDEST DUP2 SLOAD DUP2 MSTORE SWAP1 PUSH1 0x1 ADD SWAP1 PUSH1 0x20 ADD DUP1 DUP4 GT PUSH2 0x5EF JUMPI DUP3 SWAP1 SUB PUSH1 0x1F AND DUP3 ADD SWAP2 JUMPDEST POP POP POP POP POP SWAP1 POP SWAP1 JUMP JUMPDEST PUSH0 DUP1 PUSH2 0x620 PUSH2 0x6BA JUMP JUMPDEST SWAP1 POP PUSH2 0x62D DUP2 DUP6 DUP6 PUSH2 0x765 JUMP JUMPDEST PUSH1 0x1 SWAP2 POP POP SWAP3 SWAP2 POP POP JUMP JUMPDEST PUSH0 PUSH1 0x1 PUSH0 DUP5 PUSH20 0xFFFFFFFFFFFFFFFFFFFFFFFFFFFFFFFFFFFFFFFF AND PUSH20 0xFFFFFFFFFFFFFFFFFFFFFFFFFFFFFFFFFFFFFFFF AND DUP2 MSTORE PUSH1 0x20 ADD SWAP1 DUP2 MSTORE PUSH1 0x20 ADD PUSH0 KECCAK256 PUSH0 DUP4 PUSH20 0xFFFFFFFFFFFFFFFFFFFFFFFFFFFFFFFFFFFFFFFF AND PUSH20 0xFFFFFFFFFFFFFFFFFFFFFFFFFFFFFFFFFFFFFFFF AND DUP2 MSTORE PUSH1 0x20 ADD SWAP1 DUP2 MSTORE PUSH1 0x20 ADD PUSH0 KECCAK256 SLOAD SWAP1 POP SWAP3 SWAP2 POP POP JUMP JUMPDEST PUSH0 CALLER SWAP1 POP SWAP1 JUMP JUMPDEST PUSH2 0x6CE DUP4 DUP4 DUP4 PUSH1 0x1 PUSH2 0x953 JUMP JUMPDEST POP POP POP JUMP JUMPDEST PUSH0 PUSH2 0x6DE DUP5 DUP5 PUSH2 0x638 JUMP JUMPDEST SWAP1 POP PUSH32 0xFFFFFFFFFFFFFFFFFFFFFFFFFFFFFFFFFFFFFFFFFFFFFFFFFFFFFFFFFFFFFFFF DUP2 EQ PUSH2 0x75F JUMPI DUP2 DUP2 LT ISZERO PUSH2 0x750 JUMPI DUP3 DUP2 DUP4 PUSH1 0x40 MLOAD PUSH32 0xFB8F41B200000000000000000000000000000000000000000000000000000000 DUP2 MSTORE PUSH1 0x4 ADD PUSH2 0x747 SWAP4 SWAP3 SWAP2 SWAP1 PUSH2 0x10FB JUMP JUMPDEST PUSH1 0x40 MLOAD DUP1 SWAP2 SUB SWAP1 REVERT JUMPDEST PUSH2 0x75E DUP5 DUP5 DUP5 DUP5 SUB PUSH0 PUSH2 0x953 JUMP JUMPDEST JUMPDEST POP POP POP POP JUMP JUMPDEST PUSH0 PUSH20 0xFFFFFFFFFFFFFFFFFFFFFFFFFFFFFFFFFFFFFFFF AND DUP4 PUSH20 0xFFFFFFFFFFFFFFFFFFFFFFFFFFFFFFFFFFFFFFFF AND SUB PUSH2 0x7D5 JUMPI PUSH0 PUSH1 0x40 MLOAD PUSH32 0x96C6FD1E00000000000000000000000000000000000000000000000000000000 DUP2 MSTORE PUSH1 0x4 ADD PUSH2 0x7CC SWAP2 SWAP1 PUSH2 0x1130 JUMP JUMPDEST PUSH1 0x40 MLOAD DUP1 SWAP2 SUB SWAP1 REVERT JUMPDEST PUSH0 PUSH20 0xFFFFFFFFFFFFFFFFFFFFFFFFFFFFFFFFFFFFFFFF AND DUP3 PUSH20 0xFFFFFFFFFFFFFFFFFFFFFFFFFFFFFFFFFFFFFFFF AND SUB PUSH2 0x845 JUMPI PUSH0 PUSH1 0x40 MLOAD PUSH32 0xEC442F0500000000000000000000000000000000000000000000000000000000 DUP2 MSTORE PUSH1 0x4 ADD PUSH2 0x83C SWAP2 SWAP1 PUSH2 0x1130 JUMP JUMPDEST PUSH1 0x40 MLOAD DUP1 SWAP2 SUB SWAP1 REVERT JUMPDEST PUSH2 0x850 DUP4 DUP4 DUP4 PUSH2 0xB22 JUMP JUMPDEST POP POP POP JUMP JUMPDEST PUSH0 PUSH20 0xFFFFFFFFFFFFFFFFFFFFFFFFFFFFFFFFFFFFFFFF AND DUP3 PUSH20 0xFFFFFFFFFFFFFFFFFFFFFFFFFFFFFFFFFFFFFFFF AND SUB PUSH2 0x8C5 JUMPI PUSH0 PUSH1 0x40 MLOAD PUSH32 0xEC442F0500000000000000000000000000000000000000000000000000000000 DUP2 MSTORE PUSH1 0x4 ADD PUSH2 0x8BC SWAP2 SWAP1 PUSH2 0x1130 JUMP JUMPDEST PUSH1 0x40 MLOAD DUP1 SWAP2 SUB SWAP1 REVERT JUMPDEST PUSH2 0x8D0 PUSH0 DUP4 DUP4 PUSH2 0xB22 JUMP JUMPDEST POP POP JUMP JUMPDEST PUSH0 PUSH20 0xFFFFFFFFFFFFFFFFFFFFFFFFFFFFFFFFFFFFFFFF AND DUP3 PUSH20 0xFFFFFFFFFFFFFFFFFFFFFFFFFFFFFFFFFFFFFFFF AND SUB PUSH2 0x944 JUMPI PUSH0 PUSH1 0x40 MLOAD PUSH32 0x96C6FD1E00000000000000000000000000000000000000000000000000000000 DUP2 MSTORE PUSH1 0x4 ADD PUSH2 0x93B SWAP2 SWAP1 PUSH2 0x1130 JUMP JUMPDEST PUSH1 0x40 MLOAD DUP1 SWAP2 SUB SWAP1 REVERT JUMPDEST PUSH2 0x94F DUP3 PUSH0 DUP4 PUSH2 0xB22 JUMP JUMPDEST POP POP JUMP JUMPDEST PUSH0 PUSH20 0xFFFFFFFFFFFFFFFFFFFFFFFFFFFFFFFFFFFFFFFF AND DUP5 PUSH20 0xFFFFFFFFFFFFFFFFFFFFFFFFFFFFFFFFFFFFFFFF AND SUB PUSH2 0x9C3 JUMPI PUSH0 PUSH1 0x40 MLOAD PUSH32 0xE602DF0500000000000000000000000000000000000000000000000000000000 DUP2 MSTORE PUSH1 0x4 ADD PUSH2 0x9BA SWAP2 SWAP1 PUSH2 0x1130 JUMP JUMPDEST PUSH1 0x40 MLOAD DUP1 SWAP2 SUB SWAP1 REVERT JUMPDEST PUSH0 PUSH20 0xFFFFFFFFFFFFFFFFFFFFFFFFFFFFFFFFFFFFFFFF AND DUP4 PUSH20 0xFFFFFFFFFFFFFFFFFFFFFFFFFFFFFFFFFFFFFFFF AND SUB PUSH2 0xA33 JUMPI PUSH0 PUSH1 0x40 MLOAD PUSH32 0x94280D6200000000000000000000000000000000000000000000000000000000 DUP2 MSTORE PUSH1 0x4 ADD PUSH2 0xA2A SWAP2 SWAP1 PUSH2 0x1130 JUMP JUMPDEST PUSH1 0x40 MLOAD DUP1 SWAP2 SUB SWAP1 REVERT JUMPDEST DUP2 PUSH1 0x1 PUSH0 DUP7 PUSH20 0xFFFFFFFFFFFFFFFFFFFFFFFFFFFFFFFFFFFFFFFF AND PUSH20 0xFFFFFFFFFFFFFFFFFFFFFFFFFFFFFFFFFFFFFFFF AND DUP2 MSTORE PUSH1 0x20 ADD SWAP1 DUP2 MSTORE PUSH1 0x20 ADD PUSH0 KECCAK256 PUSH0 DUP6 PUSH20 0xFFFFFFFFFFFFFFFFFFFFFFFFFFFFFFFFFFFFFFFF AND PUSH20 0xFFFFFFFFFFFFFFFFFFFFFFFFFFFFFFFFFFFFFFFF AND DUP2 MSTORE PUSH1 0x20 ADD SWAP1 DUP2 MSTORE PUSH1 0x20 ADD PUSH0 KECCAK256 DUP2 SWAP1 SSTORE POP DUP1 ISZERO PUSH2 0xB1C JUMPI DUP3 PUSH20 0xFFFFFFFFFFFFFFFFFFFFFFFFFFFFFFFFFFFFFFFF AND DUP5 PUSH20 0xFFFFFFFFFFFFFFFFFFFFFFFFFFFFFFFFFFFFFFFF AND PUSH32 0x8C5BE1E5EBEC7D5BD14F71427D1E84F3DD0314C0F7B2291E5B200AC8C7C3B925 DUP5 PUSH1 0x40 MLOAD PUSH2 0xB13 SWAP2 SWAP1 PUSH2 0xEF6 JUMP JUMPDEST PUSH1 0x40 MLOAD DUP1 SWAP2 SUB SWAP1 LOG3 JUMPDEST POP POP POP POP JUMP JUMPDEST PUSH0 PUSH20 0xFFFFFFFFFFFFFFFFFFFFFFFFFFFFFFFFFFFFFFFF AND DUP4 PUSH20 0xFFFFFFFFFFFFFFFFFFFFFFFFFFFFFFFFFFFFFFFF AND SUB PUSH2 0xB72 JUMPI DUP1 PUSH1 0x2 PUSH0 DUP3 DUP3 SLOAD PUSH2 0xB66 SWAP2 SWAP1 PUSH2 0x1176 JUMP JUMPDEST SWAP3 POP POP DUP2 SWAP1 SSTORE POP PUSH2 0xC40 JUMP JUMPDEST PUSH0 DUP1 PUSH0 DUP6 PUSH20 0xFFFFFFFFFFFFFFFFFFFFFFFFFFFFFFFFFFFFFFFF AND PUSH20 0xFFFFFFFFFFFFFFFFFFFFFFFFFFFFFFFFFFFFFFFF AND DUP2 MSTORE PUSH1 0x20 ADD SWAP1 DUP2 MSTORE PUSH1 0x20 ADD PUSH0 KECCAK256 SLOAD SWAP1 POP DUP2 DUP2 LT ISZERO PUSH2 0xBFB JUMPI DUP4 DUP2 DUP4 PUSH1 0x40 MLOAD PUSH32 0xE450D38C00000000000000000000000000000000000000000000000000000000 DUP2 MSTORE PUSH1 0x4 ADD PUSH2 0xBF2 SWAP4 SWAP3 SWAP2 SWAP1 PUSH2 0x10FB JUMP JUMPDEST PUSH1 0x40 MLOAD DUP1 SWAP2 SUB SWAP1 REVERT JUMPDEST DUP2 DUP2 SUB PUSH0 DUP1 DUP7 PUSH20 0xFFFFFFFFFFFFFFFFFFFFFFFFFFFFFFFFFFFFFFFF AND PUSH20 0xFFFFFFFFFFFFFFFFFFFFFFFFFFFFFFFFFFFFFFFF AND DUP2 MSTORE PUSH1 0x20 ADD SWAP1 DUP2 MSTORE PUSH1 0x20 ADD PUSH0 KECCAK256 DUP2 SWAP1 SSTORE POP POP JUMPDEST PUSH0 PUSH20 0xFFFFFFFFFFFFFFFFFFFFFFFFFFFFFFFFFFFFFFFF AND DUP3 PUSH20 0xFFFFFFFFFFFFFFFFFFFFFFFFFFFFFFFFFFFFFFFF AND SUB PUSH2 0xC87 JUMPI DUP1 PUSH1 0x2 PUSH0 DUP3 DUP3 SLOAD SUB SWAP3 POP POP DUP2 SWAP1 SSTORE POP PUSH2 0xCD1 JUMP JUMPDEST DUP1 PUSH0 DUP1 DUP5 PUSH20 0xFFFFFFFFFFFFFFFFFFFFFFFFFFFFFFFFFFFFFFFF AND PUSH20 0xFFFFFFFFFFFFFFFFFFFFFFFFFFFFFFFFFFFFFFFF AND DUP2 MSTORE PUSH1 0x20 ADD SWAP1 DUP2 MSTORE PUSH1 0x20 ADD PUSH0 KECCAK256 PUSH0 DUP3 DUP3 SLOAD ADD SWAP3 POP POP DUP2 SWAP1 SSTORE POP JUMPDEST DUP2 PUSH20 0xFFFFFFFFFFFFFFFFFFFFFFFFFFFFFFFFFFFFFFFF AND DUP4 PUSH20 0xFFFFFFFFFFFFFFFFFFFFFFFFFFFFFFFFFFFFFFFF AND PUSH32 0xDDF252AD1BE2C89B69C2B068FC378DAA952BA7F163C4A11628F55A4DF523B3EF DUP4 PUSH1 0x40 MLOAD PUSH2 0xD2E SWAP2 SWAP1 PUSH2 0xEF6 JUMP JUMPDEST PUSH1 0x40 MLOAD DUP1 SWAP2 SUB SWAP1 LOG3 POP POP POP JUMP JUMPDEST PUSH0 DUP2 MLOAD SWAP1 POP SWAP2 SWAP1 POP JUMP JUMPDEST PUSH0 DUP3 DUP3 MSTORE PUSH1 0x20 DUP3 ADD SWAP1 POP SWAP3 SWAP2 POP POP JUMP JUMPDEST PUSH0 JUMPDEST DUP4 DUP2 LT ISZERO PUSH2 0xD72 JUMPI DUP1 DUP3 ADD MLOAD DUP2 DUP5 ADD MSTORE PUSH1 0x20 DUP2 ADD SWAP1 POP PUSH2 0xD57 JUMP JUMPDEST PUSH0 DUP5 DUP5 ADD MSTORE POP POP POP POP JUMP JUMPDEST PUSH0 PUSH1 0x1F NOT PUSH1 0x1F DUP4 ADD AND SWAP1 POP SWAP2 SWAP1 POP JUMP JUMPDEST PUSH0 PUSH2 0xD97 DUP3 PUSH2 0xD3B JUMP JUMPDEST PUSH2 0xDA1 DUP2 DUP6 PUSH2 0xD45 JUMP JUMPDEST SWAP4 POP PUSH2 0xDB1 DUP2 DUP6 PUSH1 0x20 DUP7 ADD PUSH2 0xD55 JUMP JUMPDEST PUSH2 0xDBA DUP2 PUSH2 0xD7D JUMP JUMPDEST DUP5 ADD SWAP2 POP POP SWAP3 SWAP2 POP POP JUMP JUMPDEST PUSH0 PUSH1 0x20 DUP3 ADD SWAP1 POP DUP2 DUP2 SUB PUSH0 DUP4 ADD MSTORE PUSH2 0xDDD DUP2 DUP5 PUSH2 0xD8D JUMP JUMPDEST SWAP1 POP SWAP3 SWAP2 POP POP JUMP JUMPDEST PUSH0 DUP1 REVERT JUMPDEST PUSH0 PUSH20 0xFFFFFFFFFFFFFFFFFFFFFFFFFFFFFFFFFFFFFFFF DUP3 AND SWAP1 POP SWAP2 SWAP1 POP JUMP JUMPDEST PUSH0 PUSH2 0xE12 DUP3 PUSH2 0xDE9 JUMP JUMPDEST SWAP1 POP SWAP2 SWAP1 POP JUMP JUMPDEST PUSH2 0xE22 DUP2 PUSH2 0xE08 JUMP JUMPDEST DUP2 EQ PUSH2 0xE2C JUMPI PUSH0 DUP1 REVERT JUMPDEST POP JUMP JUMPDEST PUSH0 DUP2 CALLDATALOAD SWAP1 POP PUSH2 0xE3D DUP2 PUSH2 0xE19 JUMP JUMPDEST SWAP3 SWAP2 POP POP JUMP JUMPDEST PUSH0 DUP2 SWAP1 POP SWAP2 SWAP1 POP JUMP JUMPDEST PUSH2 0xE55 DUP2 PUSH2 0xE43 JUMP JUMPDEST DUP2 EQ PUSH2 0xE5F JUMPI PUSH0 DUP1 REVERT JUMPDEST POP JUMP JUMPDEST PUSH0 DUP2 CALLDATALOAD SWAP1 POP PUSH2 0xE70 DUP2 PUSH2 0xE4C JUMP JUMPDEST SWAP3 SWAP2 POP POP JUMP JUMPDEST PUSH0 DUP1 PUSH1 0x40 DUP4 DUP6 SUB SLT ISZERO PUSH2 0xE8C JUMPI PUSH2 0xE8B PUSH2 0xDE5 JUMP JUMPDEST JUMPDEST PUSH0 PUSH2 0xE99 DUP6 DUP3 DUP7 ADD PUSH2 0xE2F JUMP JUMPDEST SWAP3 POP POP PUSH1 0x20 PUSH2 0xEAA DUP6 DUP3 DUP7 ADD PUSH2 0xE62 JUMP JUMPDEST SWAP2 POP POP SWAP3 POP SWAP3 SWAP1 POP JUMP JUMPDEST PUSH0 DUP2 ISZERO ISZERO SWAP1 POP SWAP2 SWAP1 POP JUMP JUMPDEST PUSH2 0xEC8 DUP2 PUSH2 0xEB4 JUMP JUMPDEST DUP3 MSTORE POP POP JUMP JUMPDEST PUSH0 PUSH1 0x20 DUP3 ADD SWAP1 POP PUSH2 0xEE1 PUSH0 DUP4 ADD DUP5 PUSH2 0xEBF JUMP JUMPDEST SWAP3 SWAP2 POP POP JUMP JUMPDEST PUSH2 0xEF0 DUP2 PUSH2 0xE43 JUMP JUMPDEST DUP3 MSTORE POP POP JUMP JUMPDEST PUSH0 PUSH1 0x20 DUP3 ADD SWAP1 POP PUSH2 0xF09 PUSH0 DUP4 ADD DUP5 PUSH2 0xEE7 JUMP JUMPDEST SWAP3 SWAP2 POP POP JUMP JUMPDEST PUSH0 DUP1 PUSH0 PUSH1 0x60 DUP5 DUP7 SUB SLT ISZERO PUSH2 0xF26 JUMPI PUSH2 0xF25 PUSH2 0xDE5 JUMP JUMPDEST JUMPDEST PUSH0 PUSH2 0xF33 DUP7 DUP3 DUP8 ADD PUSH2 0xE2F JUMP JUMPDEST SWAP4 POP POP PUSH1 0x20 PUSH2 0xF44 DUP7 DUP3 DUP8 ADD PUSH2 0xE2F JUMP JUMPDEST SWAP3 POP POP PUSH1 0x40 PUSH2 0xF55 DUP7 DUP3 DUP8 ADD PUSH2 0xE62 JUMP JUMPDEST SWAP2 POP POP SWAP3 POP SWAP3 POP SWAP3 JUMP JUMPDEST PUSH0 PUSH1 0xFF DUP3 AND SWAP1 POP SWAP2 SWAP1 POP JUMP JUMPDEST PUSH2 0xF74 DUP2 PUSH2 0xF5F JUMP JUMPDEST DUP3 MSTORE POP POP JUMP JUMPDEST PUSH0 PUSH1 0x20 DUP3 ADD SWAP1 POP PUSH2 0xF8D PUSH0 DUP4 ADD DUP5 PUSH2 0xF6B JUMP JUMPDEST SWAP3 SWAP2 POP POP JUMP JUMPDEST PUSH0 PUSH1 0x20 DUP3 DUP5 SUB SLT ISZERO PUSH2 0xFA8 JUMPI PUSH2 0xFA7 PUSH2 0xDE5 JUMP JUMPDEST JUMPDEST PUSH0 PUSH2 0xFB5 DUP5 DUP3 DUP6 ADD PUSH2 0xE62 JUMP JUMPDEST SWAP2 POP POP SWAP3 SWAP2 POP POP JUMP JUMPDEST PUSH0 PUSH1 0x20 DUP3 DUP5 SUB SLT ISZERO PUSH2 0xFD3 JUMPI PUSH2 0xFD2 PUSH2 0xDE5 JUMP JUMPDEST JUMPDEST PUSH0 PUSH2 0xFE0 DUP5 DUP3 DUP6 ADD PUSH2 0xE2F JUMP JUMPDEST SWAP2 POP POP SWAP3 SWAP2 POP POP JUMP JUMPDEST PUSH0 DUP1 PUSH1 0x40 DUP4 DUP6 SUB SLT ISZERO PUSH2 0xFFF JUMPI PUSH2 0xFFE PUSH2 0xDE5 JUMP JUMPDEST JUMPDEST PUSH0 PUSH2 0x100C DUP6 DUP3 DUP7 ADD PUSH2 0xE2F JUMP JUMPDEST SWAP3 POP POP PUSH1 0x20 PUSH2 0x101D DUP6 DUP3 DUP7 ADD PUSH2 0xE2F JUMP JUMPDEST SWAP2 POP POP SWAP3 POP SWAP3 SWAP1 POP JUMP JUMPDEST PUSH32 0x4E487B7100000000000000000000000000000000000000000000000000000000 PUSH0 MSTORE PUSH1 0x22 PUSH1 0x4 MSTORE PUSH1 0x24 PUSH0 REVERT JUMPDEST PUSH0 PUSH1 0x2 DUP3 DIV SWAP1 POP PUSH1 0x1 DUP3 AND DUP1 PUSH2 0x106B JUMPI PUSH1 0x7F DUP3 AND SWAP2 POP JUMPDEST PUSH1 0x20 DUP3 LT DUP2 SUB PUSH2 0x107E JUMPI PUSH2 0x107D PUSH2 0x1027 JUMP JUMPDEST JUMPDEST POP SWAP2 SWAP1 POP JUMP JUMPDEST PUSH32 0x4F6E6C792067616D6520636F6E74726163742063616E2063616C6C2E00000000 PUSH0 DUP3 ADD MSTORE POP JUMP JUMPDEST PUSH0 PUSH2 0x10B8 PUSH1 0x1C DUP4 PUSH2 0xD45 JUMP JUMPDEST SWAP2 POP PUSH2 0x10C3 DUP3 PUSH2 0x1084 JUMP JUMPDEST PUSH1 0x20 DUP3 ADD SWAP1 POP SWAP2 SWAP1 POP JUMP JUMPDEST PUSH0 PUSH1 0x20 DUP3 ADD SWAP1 POP DUP2 DUP2 SUB PUSH0 DUP4 ADD MSTORE PUSH2 0x10E5 DUP2 PUSH2 0x10AC JUMP JUMPDEST SWAP1 POP SWAP2 SWAP1 POP JUMP JUMPDEST PUSH2 0x10F5 DUP2 PUSH2 0xE08 JUMP JUMPDEST DUP3 MSTORE POP POP JUMP JUMPDEST PUSH0 PUSH1 0x60 DUP3 ADD SWAP1 POP PUSH2 0x110E PUSH0 DUP4 ADD DUP7 PUSH2 0x10EC JUMP JUMPDEST PUSH2 0x111B PUSH1 0x20 DUP4 ADD DUP6 PUSH2 0xEE7 JUMP JUMPDEST PUSH2 0x1128 PUSH1 0x40 DUP4 ADD DUP5 PUSH2 0xEE7 JUMP JUMPDEST SWAP5 SWAP4 POP POP POP POP JUMP JUMPDEST PUSH0 PUSH1 0x20 DUP3 ADD SWAP1 POP PUSH2 0x1143 PUSH0 DUP4 ADD DUP5 PUSH2 0x10EC JUMP JUMPDEST SWAP3 SWAP2 POP POP JUMP JUMPDEST PUSH32 0x4E487B7100000000000000000000000000000000000000000000000000000000 PUSH0 MSTORE PUSH1 0x11 PUSH1 0x4 MSTORE PUSH1 0x24 PUSH0 REVERT JUMPDEST PUSH0 PUSH2 0x1180 DUP3 PUSH2 0xE43 JUMP JUMPDEST SWAP2 POP PUSH2 0x118B DUP4 PUSH2 0xE43 JUMP JUMPDEST SWAP3 POP DUP3 DUP3 ADD SWAP1 POP DUP1 DUP3 GT ISZERO PUSH2 0x11A3 JUMPI PUSH2 0x11A2 PUSH2 0x1149 JUMP JUMPDEST JUMPDEST SWAP3 SWAP2 POP POP JUMP INVALID LOG2 PUSH5 0x6970667358 0x22 SLT KECCAK256 DUP4 SDIV SSTORE SUB EXTCODECOPY PUSH23 0xD6DA25A604F298D0A2391026148E28872AD8778F843FF6 0xB1 JUMPDEST BLOCKHASH PUSH5 0x736F6C6343 STOP ADDMOD EQ STOP CALLER PUSH1 0xA0 PUSH1 0x40 MSTORE CALLVALUE DUP1 ISZERO PUSH3 0x10 JUMPI PUSH0 DUP1 REVERT JUMPDEST POP PUSH1 0x40 MLOAD PUSH3 0x16E6 CODESIZE SUB DUP1 PUSH3 0x16E6 DUP4 CODECOPY DUP2 DUP2 ADD PUSH1 0x40 MSTORE DUP2 ADD SWAP1 PUSH3 0x36 SWAP2 SWAP1 PUSH3 0x168 JUMP JUMPDEST PUSH1 0x40 MLOAD DUP1 PUSH1 0x40 ADD PUSH1 0x40 MSTORE DUP1 PUSH1 0xE DUP2 MSTORE PUSH1 0x20 ADD PUSH32 0x4574686572696320456E65726779000000000000000000000000000000000000 DUP2 MSTORE POP PUSH1 0x40 MLOAD DUP1 PUSH1 0x40 ADD PUSH1 0x40 MSTORE DUP1 PUSH1 0x4 DUP2 MSTORE PUSH1 0x20 ADD PUSH32 0x454E524700000000000000000000000000000000000000000000000000000000 DUP2 MSTORE POP DUP2 PUSH1 0x3 SWAP1 DUP2 PUSH3 0xB3 SWAP2 SWAP1 PUSH3 0x3FC JUMP JUMPDEST POP DUP1 PUSH1 0x4 SWAP1 DUP2 PUSH3 0xC5 SWAP2 SWAP1 PUSH3 0x3FC JUMP JUMPDEST POP POP POP DUP1 PUSH20 0xFFFFFFFFFFFFFFFFFFFFFFFFFFFFFFFFFFFFFFFF AND PUSH1 0x80 DUP2 PUSH20 0xFFFFFFFFFFFFFFFFFFFFFFFFFFFFFFFFFFFFFFFF AND DUP2 MSTORE POP POP POP PUSH3 0x4E0 JUMP JUMPDEST PUSH0 DUP1 REVERT JUMPDEST PUSH0 PUSH20 0xFFFFFFFFFFFFFFFFFFFFFFFFFFFFFFFFFFFFFFFF DUP3 AND SWAP1 POP SWAP2 SWAP1 POP JUMP JUMPDEST PUSH0 PUSH3 0x132 DUP3 PUSH3 0x107 JUMP JUMPDEST SWAP1 POP SWAP2 SWAP1 POP JUMP JUMPDEST PUSH3 0x144 DUP2 PUSH3 0x126 JUMP JUMPDEST DUP2 EQ PUSH3 0x14F JUMPI PUSH0 DUP1 REVERT JUMPDEST POP JUMP JUMPDEST PUSH0 DUP2 MLOAD SWAP1 POP PUSH3 0x162 DUP2 PUSH3 0x139 JUMP JUMPDEST SWAP3 SWAP2 POP POP JUMP JUMPDEST PUSH0 PUSH1 0x20 DUP3 DUP5 SUB SLT ISZERO PUSH3 0x180 JUMPI PUSH3 0x17F PUSH3 0x103 JUMP JUMPDEST JUMPDEST PUSH0 PUSH3 0x18F DUP5 DUP3 DUP6 ADD PUSH3 0x152 JUMP JUMPDEST SWAP2 POP POP SWAP3 SWAP2 POP POP JUMP JUMPDEST PUSH0 DUP2 MLOAD SWAP1 POP SWAP2 SWAP1 POP JUMP JUMPDEST PUSH32 0x4E487B7100000000000000000000000000000000000000000000000000000000 PUSH0 MSTORE PUSH1 0x41 PUSH1 0x4 MSTORE PUSH1 0x24 PUSH0 REVERT JUMPDEST PUSH32 0x4E487B7100000000000000000000000000000000000000000000000000000000 PUSH0 MSTORE PUSH1 0x22 PUSH1 0x4 MSTORE PUSH1 0x24 PUSH0 REVERT JUMPDEST PUSH0 PUSH1 0x2 DUP3 DIV SWAP1 POP PUSH1 0x1 DUP3 AND DUP1 PUSH3 0x214 JUMPI PUSH1 0x7F DUP3 AND SWAP2 POP JUMPDEST PUSH1 0x20 DUP3 LT DUP2 SUB PUSH3 0x22A JUMPI PUSH3 0x229 PUSH3 0x1CF JUMP JUMPDEST JUMPDEST POP SWAP2 SWAP1 POP JUMP JUMPDEST PUSH0 DUP2 SWAP1 POP DUP2 PUSH0 MSTORE PUSH1 0x20 PUSH0 KECCAK256 SWAP1 POP SWAP2 SWAP1 POP JUMP JUMPDEST PUSH0 PUSH1 0x20 PUSH1 0x1F DUP4 ADD DIV SWAP1 POP SWAP2 SWAP1 POP JUMP JUMPDEST PUSH0 DUP3 DUP3 SHL SWAP1 POP SWAP3 SWAP2 POP POP JUMP JUMPDEST PUSH0 PUSH1 0x8 DUP4 MUL PUSH3 0x28E PUSH32 0xFFFFFFFFFFFFFFFFFFFFFFFFFFFFFFFFFFFFFFFFFFFFFFFFFFFFFFFFFFFFFFFF DUP3 PUSH3 0x251 JUMP JUMPDEST PUSH3 0x29A DUP7 DUP4 PUSH3 0x251 JUMP JUMPDEST SWAP6 POP DUP1 NOT DUP5 AND SWAP4 POP DUP1 DUP7 AND DUP5 OR SWAP3 POP POP POP SWAP4 SWAP3 POP POP POP JUMP JUMPDEST PUSH0 DUP2 SWAP1 POP SWAP2 SWAP1 POP JUMP JUMPDEST PUSH0 DUP2 SWAP1 POP SWAP2 SWAP1 POP JUMP JUMPDEST PUSH0 PUSH3 0x2E4 PUSH3 0x2DE PUSH3 0x2D8 DUP5 PUSH3 0x2B2 JUMP JUMPDEST PUSH3 0x2BB JUMP JUMPDEST PUSH3 0x2B2 JUMP JUMPDEST SWAP1 POP SWAP2 SWAP1 POP JUMP JUMPDEST PUSH0 DUP2 SWAP1 POP SWAP2 SWAP1 POP JUMP JUMPDEST PUSH3 0x2FF DUP4 PUSH3 0x2C4 JUMP JUMPDEST PUSH3 0x317 PUSH3 0x30E DUP3 PUSH3 0x2EB JUMP JUMPDEST DUP5 DUP5 SLOAD PUSH3 0x25D JUMP JUMPDEST DUP3 SSTORE POP POP POP POP JUMP JUMPDEST PUSH0 SWAP1 JUMP JUMPDEST PUSH3 0x32D PUSH3 0x31F JUMP JUMPDEST PUSH3 0x33A DUP2 DUP5 DUP5 PUSH3 0x2F4 JUMP JUMPDEST POP POP POP JUMP JUMPDEST JUMPDEST DUP2 DUP2 LT ISZERO PUSH3 0x361 JUMPI PUSH3 0x355 PUSH0 DUP3 PUSH3 0x323 JUMP JUMPDEST PUSH1 0x1 DUP2 ADD SWAP1 POP PUSH3 0x340 JUMP JUMPDEST POP POP JUMP JUMPDEST PUSH1 0x1F DUP3 GT ISZERO PUSH3 0x3B0 JUMPI PUSH3 0x37A DUP2 PUSH3 0x230 JUMP JUMPDEST PUSH3 0x385 DUP5 PUSH3 0x242 JUMP JUMPDEST DUP2 ADD PUSH1 0x20 DUP6 LT ISZERO PUSH3 0x395 JUMPI DUP2 SWAP1 POP JUMPDEST PUSH3 0x3AD PUSH3 0x3A4 DUP6 PUSH3 0x242 JUMP JUMPDEST DUP4 ADD DUP3 PUSH3 0x33F JUMP JUMPDEST POP POP JUMPDEST POP POP POP JUMP JUMPDEST PUSH0 DUP3 DUP3 SHR SWAP1 POP SWAP3 SWAP2 POP POP JUMP JUMPDEST PUSH0 PUSH3 0x3D2 PUSH0 NOT DUP5 PUSH1 0x8 MUL PUSH3 0x3B5 JUMP JUMPDEST NOT DUP1 DUP4 AND SWAP2 POP POP SWAP3 SWAP2 POP POP JUMP JUMPDEST PUSH0 PUSH3 0x3EC DUP4 DUP4 PUSH3 0x3C1 JUMP JUMPDEST SWAP2 POP DUP3 PUSH1 0x2 MUL DUP3 OR SWAP1 POP SWAP3 SWAP2 POP POP JUMP JUMPDEST PUSH3 0x407 DUP3 PUSH3 0x198 JUMP JUMPDEST PUSH8 0xFFFFFFFFFFFFFFFF DUP2 GT ISZERO PUSH3 0x423 JUMPI PUSH3 0x422 PUSH3 0x1A2 JUMP JUMPDEST JUMPDEST PUSH3 0x42F DUP3 SLOAD PUSH3 0x1FC JUMP JUMPDEST PUSH3 0x43C DUP3 DUP3 DUP6 PUSH3 0x365 JUMP JUMPDEST PUSH0 PUSH1 0x20 SWAP1 POP PUSH1 0x1F DUP4 GT PUSH1 0x1 DUP2 EQ PUSH3 0x472 JUMPI PUSH0 DUP5 ISZERO PUSH3 0x45D JUMPI DUP3 DUP8 ADD MLOAD SWAP1 POP JUMPDEST PUSH3 0x469 DUP6 DUP3 PUSH3 0x3DF JUMP JUMPDEST DUP7 SSTORE POP PUSH3 0x4D8 JUMP JUMPDEST PUSH1 0x1F NOT DUP5 AND PUSH3 0x482 DUP7 PUSH3 0x230 JUMP JUMPDEST PUSH0 JUMPDEST DUP3 DUP2 LT ISZERO PUSH3 0x4AB JUMPI DUP5 DUP10 ADD MLOAD DUP3 SSTORE PUSH1 0x1 DUP3 ADD SWAP2 POP PUSH1 0x20 DUP6 ADD SWAP5 POP PUSH1 0x20 DUP2 ADD SWAP1 POP PUSH3 0x484 JUMP JUMPDEST DUP7 DUP4 LT ISZERO PUSH3 0x4CB JUMPI DUP5 DUP10 ADD MLOAD PUSH3 0x4C7 PUSH1 0x1F DUP10 AND DUP3 PUSH3 0x3C1 JUMP JUMPDEST DUP4 SSTORE POP JUMPDEST PUSH1 0x1 PUSH1 0x2 DUP9 MUL ADD DUP9 SSTORE POP POP POP JUMPDEST POP POP POP POP POP POP JUMP JUMPDEST PUSH1 0x80 MLOAD PUSH2 0x11DF PUSH3 0x507 PUSH0 CODECOPY PUSH0 DUP2 DUP2 PUSH2 0x365 ADD MSTORE DUP2 DUP2 PUSH2 0x401 ADD MSTORE PUSH2 0x4E1 ADD MSTORE PUSH2 0x11DF PUSH0 RETURN INVALID PUSH1 0x80 PUSH1 0x40 MSTORE CALLVALUE DUP1 ISZERO PUSH2 0xF JUMPI PUSH0 DUP1 REVERT JUMPDEST POP PUSH1 0x4 CALLDATASIZE LT PUSH2 0xB2 JUMPI PUSH0 CALLDATALOAD PUSH1 0xE0 SHR DUP1 PUSH4 0x42966C68 GT PUSH2 0x6F JUMPI DUP1 PUSH4 0x42966C68 EQ PUSH2 0x18C JUMPI DUP1 PUSH4 0x70A08231 EQ PUSH2 0x1A8 JUMPI DUP1 PUSH4 0x79CC6790 EQ PUSH2 0x1D8 JUMPI DUP1 PUSH4 0x95D89B41 EQ PUSH2 0x1F4 JUMPI DUP1 PUSH4 0xA9059CBB EQ PUSH2 0x212 JUMPI DUP1 PUSH4 0xDD62ED3E EQ PUSH2 0x242 JUMPI PUSH2 0xB2 JUMP JUMPDEST DUP1 PUSH4 0x6FDDE03 EQ PUSH2 0xB6 JUMPI DUP1 PUSH4 0x95EA7B3 EQ PUSH2 0xD4 JUMPI DUP1 PUSH4 0x18160DDD EQ PUSH2 0x104 JUMPI DUP1 PUSH4 0x23B872DD EQ PUSH2 0x122 JUMPI DUP1 PUSH4 0x313CE567 EQ PUSH2 0x152 JUMPI DUP1 PUSH4 0x40C10F19 EQ PUSH2 0x170 JUMPI JUMPDEST PUSH0 DUP1 REVERT JUMPDEST PUSH2 0xBE PUSH2 0x272 JUMP JUMPDEST PUSH1 0x40 MLOAD PUSH2 0xCB SWAP2 SWAP1 PUSH2 0xDC5 JUMP JUMPDEST PUSH1 0x40 MLOAD DUP1 SWAP2 SUB SWAP1 RETURN JUMPDEST PUSH2 0xEE PUSH1 0x4 DUP1 CALLDATASIZE SUB DUP2 ADD SWAP1 PUSH2 0xE9 SWAP2 SWAP1 PUSH2 0xE76 JUMP JUMPDEST PUSH2 0x302 JUMP JUMPDEST PUSH1 0x40 MLOAD PUSH2 0xFB SWAP2 SWAP1 PUSH2 0xECE JUMP JUMPDEST PUSH1 0x40 MLOAD DUP1 SWAP2 SUB SWAP1 RETURN JUMPDEST PUSH2 0x10C PUSH2 0x324 JUMP JUMPDEST PUSH1 0x40 MLOAD PUSH2 0x119 SWAP2 SWAP1 PUSH2 0xEF6 JUMP JUMPDEST PUSH1 0x40 MLOAD DUP1 SWAP2 SUB SWAP1 RETURN JUMPDEST PUSH2 0x13C PUSH1 0x4 DUP1 CALLDATASIZE SUB DUP2 ADD SWAP1 PUSH2 0x137 SWAP2 SWAP1 PUSH2 0xF0F JUMP JUMPDEST PUSH2 0x32D JUMP JUMPDEST PUSH1 0x40 MLOAD PUSH2 0x149 SWAP2 SWAP1 PUSH2 0xECE JUMP JUMPDEST PUSH1 0x40 MLOAD DUP1 SWAP2 SUB SWAP1 RETURN JUMPDEST PUSH2 0x15A PUSH2 0x35B JUMP JUMPDEST PUSH1 0x40 MLOAD PUSH2 0x167 SWAP2 SWAP1 PUSH2 0xF7A JUMP JUMPDEST PUSH1 0x40 MLOAD DUP1 SWAP2 SUB SWAP1 RETURN JUMPDEST PUSH2 0x18A PUSH1 0x4 DUP1 CALLDATASIZE SUB DUP2 ADD SWAP1 PUSH2 0x185 SWAP2 SWAP1 PUSH2 0xE76 JUMP JUMPDEST PUSH2 0x363 JUMP JUMPDEST STOP JUMPDEST PUSH2 0x1A6 PUSH1 0x4 DUP1 CALLDATASIZE SUB DUP2 ADD SWAP1 PUSH2 0x1A1 SWAP2 SWAP1 PUSH2 0xF93 JUMP JUMPDEST PUSH2 0x3FF JUMP JUMPDEST STOP JUMPDEST PUSH2 0x1C2 PUSH1 0x4 DUP1 CALLDATASIZE SUB DUP2 ADD SWAP1 PUSH2 0x1BD SWAP2 SWAP1 PUSH2 0xFBE JUMP JUMPDEST PUSH2 0x49A JUMP JUMPDEST PUSH1 0x40 MLOAD PUSH2 0x1CF SWAP2 SWAP1 PUSH2 0xEF6 JUMP JUMPDEST PUSH1 0x40 MLOAD DUP1 SWAP2 SUB SWAP1 RETURN JUMPDEST PUSH2 0x1F2 PUSH1 0x4 DUP1 CALLDATASIZE SUB DUP2 ADD SWAP1 PUSH2 0x1ED SWAP2 SWAP1 PUSH2 0xE76 JUMP JUMPDEST PUSH2 0x4DF JUMP JUMPDEST STOP JUMPDEST PUSH2 0x1FC PUSH2 0x586 JUMP JUMPDEST PUSH1 0x40 MLOAD PUSH2 0x209 SWAP2 SWAP1 PUSH2 0xDC5 JUMP JUMPDEST PUSH1 0x40 MLOAD DUP1 SWAP2 SUB SWAP1 RETURN JUMPDEST PUSH2 0x22C PUSH1 0x4 DUP1 CALLDATASIZE SUB DUP2 ADD SWAP1 PUSH2 0x227 SWAP2 SWAP1 PUSH2 0xE76 JUMP JUMPDEST PUSH2 0x616 JUMP JUMPDEST PUSH1 0x40 MLOAD PUSH2 0x239 SWAP2 SWAP1 PUSH2 0xECE JUMP JUMPDEST PUSH1 0x40 MLOAD DUP1 SWAP2 SUB SWAP1 RETURN JUMPDEST PUSH2 0x25C PUSH1 0x4 DUP1 CALLDATASIZE SUB DUP2 ADD SWAP1 PUSH2 0x257 SWAP2 SWAP1 PUSH2 0xFE9 JUMP JUMPDEST PUSH2 0x638 JUMP JUMPDEST PUSH1 0x40 MLOAD PUSH2 0x269 SWAP2 SWAP1 PUSH2 0xEF6 JUMP JUMPDEST PUSH1 0x40 MLOAD DUP1 SWAP2 SUB SWAP1 RETURN JUMPDEST PUSH1 0x60 PUSH1 0x3 DUP1 SLOAD PUSH2 0x281 SWAP1 PUSH2 0x1054 JUMP JUMPDEST DUP1 PUSH1 0x1F ADD PUSH1 0x20 DUP1 SWAP2 DIV MUL PUSH1 0x20 ADD PUSH1 0x40 MLOAD SWAP1 DUP2 ADD PUSH1 0x40 MSTORE DUP1 SWAP3 SWAP2 SWAP1 DUP2 DUP2 MSTORE PUSH1 0x20 ADD DUP3 DUP1 SLOAD PUSH2 0x2AD SWAP1 PUSH2 0x1054 JUMP JUMPDEST DUP1 ISZERO PUSH2 0x2F8 JUMPI DUP1 PUSH1 0x1F LT PUSH2 0x2CF JUMPI PUSH2 0x100 DUP1 DUP4 SLOAD DIV MUL DUP4 MSTORE SWAP2 PUSH1 0x20 ADD SWAP2 PUSH2 0x2F8 JUMP JUMPDEST DUP3 ADD SWAP2 SWAP1 PUSH0 MSTORE PUSH1 0x20 PUSH0 KECCAK256 SWAP1 JUMPDEST DUP2 SLOAD DUP2 MSTORE SWAP1 PUSH1 0x1 ADD SWAP1 PUSH1 0x20 ADD DUP1 DUP4 GT PUSH2 0x2DB JUMPI DUP3 SWAP1 SUB PUSH1 0x1F AND DUP3 ADD SWAP2 JUMPDEST POP POP POP POP POP SWAP1 POP SWAP1 JUMP JUMPDEST PUSH0 DUP1 PUSH2 0x30C PUSH2 0x6BA JUMP JUMPDEST SWAP1 POP PUSH2 0x319 DUP2 DUP6 DUP6 PUSH2 0x6C1 JUMP JUMPDEST PUSH1 0x1 SWAP2 POP POP SWAP3 SWAP2 POP POP JUMP JUMPDEST PUSH0 PUSH1 0x2 SLOAD SWAP1 POP SWAP1 JUMP JUMPDEST PUSH0 DUP1 PUSH2 0x337 PUSH2 0x6BA JUMP JUMPDEST SWAP1 POP PUSH2 0x344 DUP6 DUP3 DUP6 PUSH2 0x6D3 JUMP JUMPDEST PUSH2 0x34F DUP6 DUP6 DUP6 PUSH2 0x765 JUMP JUMPDEST PUSH1 0x1 SWAP2 POP POP SWAP4 SWAP3 POP POP POP JUMP JUMPDEST PUSH0 PUSH1 0x12 SWAP1 POP SWAP1 JUMP JUMPDEST PUSH32 0x0 PUSH20 0xFFFFFFFFFFFFFFFFFFFFFFFFFFFFFFFFFFFFFFFF AND CALLER PUSH20 0xFFFFFFFFFFFFFFFFFFFFFFFFFFFFFFFFFFFFFFFF AND EQ PUSH2 0x3F1 JUMPI PUSH1 0x40 MLOAD PUSH32 0x8C379A000000000000000000000000000000000000000000000000000000000 DUP2 MSTORE PUSH1 0x4 ADD PUSH2 0x3E8 SWAP1 PUSH2 0x10CE JUMP JUMPDEST PUSH1 0x40 MLOAD DUP1 SWAP2 SUB SWAP1 REVERT JUMPDEST PUSH2 0x3FB DUP3 DUP3 PUSH2 0x855 JUMP JUMPDEST POP POP JUMP JUMPDEST PUSH32 0x0 PUSH20 0xFFFFFFFFFFFFFFFFFFFFFFFFFFFFFFFFFFFFFFFF AND CALLER PUSH20 0xFFFFFFFFFFFFFFFFFFFFFFFFFFFFFFFFFFFFFFFF AND EQ PUSH2 0x48D JUMPI PUSH1 0x40 MLOAD PUSH32 0x8C379A000000000000000000000000000000000000000000000000000000000 DUP2 MSTORE PUSH1 0x4 ADD PUSH2 0x484 SWAP1 PUSH2 0x10CE JUMP JUMPDEST PUSH1 0x40 MLOAD DUP1 SWAP2 SUB SWAP1 REVERT JUMPDEST PUSH2 0x497 CALLER DUP3 PUSH2 0x8D4 JUMP JUMPDEST POP JUMP JUMPDEST PUSH0 DUP1 PUSH0 DUP4 PUSH20 0xFFFFFFFFFFFFFFFFFFFFFFFFFFFFFFFFFFFFFFFF AND PUSH20 0xFFFFFFFFFFFFFFFFFFFFFFFFFFFFFFFFFFFFFFFF AND DUP2 MSTORE PUSH1 0x20 ADD SWAP1 DUP2 MSTORE PUSH1 0x20 ADD PUSH0 KECCAK256 SLOAD SWAP1 POP SWAP2 SWAP1 POP JUMP JUMPDEST PUSH32 0x0 PUSH20 0xFFFFFFFFFFFFFFFFFFFFFFFFFFFFFFFFFFFFFFFF AND CALLER PUSH20 0xFFFFFFFFFFFFFFFFFFFFFFFFFFFFFFFFFFFFFFFF AND EQ PUSH2 0x56D JUMPI PUSH1 0x40 MLOAD PUSH32 0x8C379A000000000000000000000000000000000000000000000000000000000 DUP2 MSTORE PUSH1 0x4 ADD PUSH2 0x564 SWAP1 PUSH2 0x10CE JUMP JUMPDEST PUSH1 0x40 MLOAD DUP1 SWAP2 SUB SWAP1 REVERT JUMPDEST PUSH2 0x578 DUP3 CALLER DUP4 PUSH2 0x6D3 JUMP JUMPDEST PUSH2 0x582 DUP3 DUP3 PUSH2 0x8D4 JUMP JUMPDEST POP POP JUMP JUMPDEST PUSH1 0x60 PUSH1 0x4 DUP1 SLOAD PUSH2 0x595 SWAP1 PUSH2 0x1054 JUMP JUMPDEST DUP1 PUSH1 0x1F ADD PUSH1 0x20 DUP1 SWAP2 DIV MUL PUSH1 0x20 ADD PUSH1 0x40 MLOAD SWAP1 DUP2 ADD PUSH1 0x40 MSTORE DUP1 SWAP3 SWAP2 SWAP1 DUP2 DUP2 MSTORE PUSH1 0x20 ADD DUP3 DUP1 SLOAD PUSH2 0x5C1 SWAP1 PUSH2 0x1054 JUMP JUMPDEST DUP1 ISZERO PUSH2 0x60C JUMPI DUP1 PUSH1 0x1F LT PUSH2 0x5E3 JUMPI PUSH2 0x100 DUP1 DUP4 SLOAD DIV MUL DUP4 MSTORE SWAP2 PUSH1 0x20 ADD SWAP2 PUSH2 0x60C JUMP JUMPDEST DUP3 ADD SWAP2 SWAP1 PUSH0 MSTORE PUSH1 0x20 PUSH0 KECCAK256 SWAP1 JUMPDEST DUP2 SLOAD DUP2 MSTORE SWAP1 PUSH1 0x1 ADD SWAP1 PUSH1 0x20 ADD DUP1 DUP4 GT PUSH2 0x5EF JUMPI DUP3 SWAP1 SUB PUSH1 0x1F AND DUP3 ADD SWAP2 JUMPDEST POP POP POP POP POP SWAP1 POP SWAP1 JUMP JUMPDEST PUSH0 DUP1 PUSH2 0x620 PUSH2 0x6BA JUMP JUMPDEST SWAP1 POP PUSH2 0x62D DUP2 DUP6 DUP6 PUSH2 0x765 JUMP JUMPDEST PUSH1 0x1 SWAP2 POP POP SWAP3 SWAP2 POP POP JUMP JUMPDEST PUSH0 PUSH1 0x1 PUSH0 DUP5 PUSH20 0xFFFFFFFFFFFFFFFFFFFFFFFFFFFFFFFFFFFFFFFF AND PUSH20 0xFFFFFFFFFFFFFFFFFFFFFFFFFFFFFFFFFFFFFFFF AND DUP2 MSTORE PUSH1 0x20 ADD SWAP1 DUP2 MSTORE PUSH1 0x20 ADD PUSH0 KECCAK256 PUSH0 DUP4 PUSH20 0xFFFFFFFFFFFFFFFFFFFFFFFFFFFFFFFFFFFFFFFF AND PUSH20 0xFFFFFFFFFFFFFFFFFFFFFFFFFFFFFFFFFFFFFFFF AND DUP2 MSTORE PUSH1 0x20 ADD SWAP1 DUP2 MSTORE PUSH1 0x20 ADD PUSH0 KECCAK256 SLOAD SWAP1 POP SWAP3 SWAP2 POP POP JUMP JUMPDEST PUSH0 CALLER SWAP1 POP SWAP1 JUMP JUMPDEST PUSH2 0x6CE DUP4 DUP4 DUP4 PUSH1 0x1 PUSH2 0x953 JUMP JUMPDEST POP POP POP JUMP JUMPDEST PUSH0 PUSH2 0x6DE DUP5 DUP5 PUSH2 0x638 JUMP JUMPDEST SWAP1 POP PUSH32 0xFFFFFFFFFFFFFFFFFFFFFFFFFFFFFFFFFFFFFFFFFFFFFFFFFFFFFFFFFFFFFFFF DUP2 EQ PUSH2 0x75F JUMPI DUP2 DUP2 LT ISZERO PUSH2 0x750 JUMPI DUP3 DUP2 DUP4 PUSH1 0x40 MLOAD PUSH32 0xFB8F41B200000000000000000000000000000000000000000000000000000000 DUP2 MSTORE PUSH1 0x4 ADD PUSH2 0x747 SWAP4 SWAP3 SWAP2 SWAP1 PUSH2 0x10FB JUMP JUMPDEST PUSH1 0x40 MLOAD DUP1 SWAP2 SUB SWAP1 REVERT JUMPDEST PUSH2 0x75E DUP5 DUP5 DUP5 DUP5 SUB PUSH0 PUSH2 0x953 JUMP JUMPDEST JUMPDEST POP POP POP POP JUMP JUMPDEST PUSH0 PUSH20 0xFFFFFFFFFFFFFFFFFFFFFFFFFFFFFFFFFFFFFFFF AND DUP4 PUSH20 0xFFFFFFFFFFFFFFFFFFFFFFFFFFFFFFFFFFFFFFFF AND SUB PUSH2 0x7D5 JUMPI PUSH0 PUSH1 0x40 MLOAD PUSH32 0x96C6FD1E00000000000000000000000000000000000000000000000000000000 DUP2 MSTORE PUSH1 0x4 ADD PUSH2 0x7CC SWAP2 SWAP1 PUSH2 0x1130 JUMP JUMPDEST PUSH1 0x40 MLOAD DUP1 SWAP2 SUB SWAP1 REVERT JUMPDEST PUSH0 PUSH20 0xFFFFFFFFFFFFFFFFFFFFFFFFFFFFFFFFFFFFFFFF AND DUP3 PUSH20 0xFFFFFFFFFFFFFFFFFFFFFFFFFFFFFFFFFFFFFFFF AND SUB PUSH2 0x845 JUMPI PUSH0 PUSH1 0x40 MLOAD PUSH32 0xEC442F0500000000000000000000000000000000000000000000000000000000 DUP2 MSTORE PUSH1 0x4 ADD PUSH2 0x83C SWAP2 SWAP1 PUSH2 0x1130 JUMP JUMPDEST PUSH1 0x40 MLOAD DUP1 SWAP2 SUB SWAP1 REVERT JUMPDEST PUSH2 0x850 DUP4 DUP4 DUP4 PUSH2 0xB22 JUMP JUMPDEST POP POP POP JUMP JUMPDEST PUSH0 PUSH20 0xFFFFFFFFFFFFFFFFFFFFFFFFFFFFFFFFFFFFFFFF AND DUP3 PUSH20 0xFFFFFFFFFFFFFFFFFFFFFFFFFFFFFFFFFFFFFFFF AND SUB PUSH2 0x8C5 JUMPI PUSH0 PUSH1 0x40 MLOAD PUSH32 0xEC442F0500000000000000000000000000000000000000000000000000000000 DUP2 MSTORE PUSH1 0x4 ADD PUSH2 0x8BC SWAP2 SWAP1 PUSH2 0x1130 JUMP JUMPDEST PUSH1 0x40 MLOAD DUP1 SWAP2 SUB SWAP1 REVERT JUMPDEST PUSH2 0x8D0 PUSH0 DUP4 DUP4 PUSH2 0xB22 JUMP JUMPDEST POP POP JUMP JUMPDEST PUSH0 PUSH20 0xFFFFFFFFFFFFFFFFFFFFFFFFFFFFFFFFFFFFFFFF AND DUP3 PUSH20 0xFFFFFFFFFFFFFFFFFFFFFFFFFFFFFFFFFFFFFFFF AND SUB PUSH2 0x944 JUMPI PUSH0 PUSH1 0x40 MLOAD PUSH32 0x96C6FD1E00000000000000000000000000000000000000000000000000000000 DUP2 MSTORE PUSH1 0x4 ADD PUSH2 0x93B SWAP2 SWAP1 PUSH2 0x1130 JUMP JUMPDEST PUSH1 0x40 MLOAD DUP1 SWAP2 SUB SWAP1 REVERT JUMPDEST PUSH2 0x94F DUP3 PUSH0 DUP4 PUSH2 0xB22 JUMP JUMPDEST POP POP JUMP JUMPDEST PUSH0 PUSH20 0xFFFFFFFFFFFFFFFFFFFFFFFFFFFFFFFFFFFFFFFF AND DUP5 PUSH20 0xFFFFFFFFFFFFFFFFFFFFFFFFFFFFFFFFFFFFFFFF AND SUB PUSH2 0x9C3 JUMPI PUSH0 PUSH1 0x40 MLOAD PUSH32 0xE602DF0500000000000000000000000000000000000000000000000000000000 DUP2 MSTORE PUSH1 0x4 ADD PUSH2 0x9BA SWAP2 SWAP1 PUSH2 0x1130 JUMP JUMPDEST PUSH1 0x40 MLOAD DUP1 SWAP2 SUB SWAP1 REVERT JUMPDEST PUSH0 PUSH20 0xFFFFFFFFFFFFFFFFFFFFFFFFFFFFFFFFFFFFFFFF AND DUP4 PUSH20 0xFFFFFFFFFFFFFFFFFFFFFFFFFFFFFFFFFFFFFFFF AND SUB PUSH2 0xA33 JUMPI PUSH0 PUSH1 0x40 MLOAD PUSH32 0x94280D6200000000000000000000000000000000000000000000000000000000 DUP2 MSTORE PUSH1 0x4 ADD PUSH2 0xA2A SWAP2 SWAP1 PUSH2 0x1130 JUMP JUMPDEST PUSH1 0x40 MLOAD DUP1 SWAP2 SUB SWAP1 REVERT JUMPDEST DUP2 PUSH1 0x1 PUSH0 DUP7 PUSH20 0xFFFFFFFFFFFFFFFFFFFFFFFFFFFFFFFFFFFFFFFF AND PUSH20 0xFFFFFFFFFFFFFFFFFFFFFFFFFFFFFFFFFFFFFFFF AND DUP2 MSTORE PUSH1 0x20 ADD SWAP1 DUP2 MSTORE PUSH1 0x20 ADD PUSH0 KECCAK256 PUSH0 DUP6 PUSH20 0xFFFFFFFFFFFFFFFFFFFFFFFFFFFFFFFFFFFFFFFF AND PUSH20 0xFFFFFFFFFFFFFFFFFFFFFFFFFFFFFFFFFFFFFFFF AND DUP2 MSTORE PUSH1 0x20 ADD SWAP1 DUP2 MSTORE PUSH1 0x20 ADD PUSH0 KECCAK256 DUP2 SWAP1 SSTORE POP DUP1 ISZERO PUSH2 0xB1C JUMPI DUP3 PUSH20 0xFFFFFFFFFFFFFFFFFFFFFFFFFFFFFFFFFFFFFFFF AND DUP5 PUSH20 0xFFFFFFFFFFFFFFFFFFFFFFFFFFFFFFFFFFFFFFFF AND PUSH32 0x8C5BE1E5EBEC7D5BD14F71427D1E84F3DD0314C0F7B2291E5B200AC8C7C3B925 DUP5 PUSH1 0x40 MLOAD PUSH2 0xB13 SWAP2 SWAP1 PUSH2 0xEF6 JUMP JUMPDEST PUSH1 0x40 MLOAD DUP1 SWAP2 SUB SWAP1 LOG3 JUMPDEST POP POP POP POP JUMP JUMPDEST PUSH0 PUSH20 0xFFFFFFFFFFFFFFFFFFFFFFFFFFFFFFFFFFFFFFFF AND DUP4 PUSH20 0xFFFFFFFFFFFFFFFFFFFFFFFFFFFFFFFFFFFFFFFF AND SUB PUSH2 0xB72 JUMPI DUP1 PUSH1 0x2 PUSH0 DUP3 DUP3 SLOAD PUSH2 0xB66 SWAP2 SWAP1 PUSH2 0x1176 JUMP JUMPDEST SWAP3 POP POP DUP2 SWAP1 SSTORE POP PUSH2 0xC40 JUMP JUMPDEST PUSH0 DUP1 PUSH0 DUP6 PUSH20 0xFFFFFFFFFFFFFFFFFFFFFFFFFFFFFFFFFFFFFFFF AND PUSH20 0xFFFFFFFFFFFFFFFFFFFFFFFFFFFFFFFFFFFFFFFF AND DUP2 MSTORE PUSH1 0x20 ADD SWAP1 DUP2 MSTORE PUSH1 0x20 ADD PUSH0 KECCAK256 SLOAD SWAP1 POP DUP2 DUP2 LT ISZERO PUSH2 0xBFB JUMPI DUP4 DUP2 DUP4 PUSH1 0x40 MLOAD PUSH32 0xE450D38C00000000000000000000000000000000000000000000000000000000 DUP2 MSTORE PUSH1 0x4 ADD PUSH2 0xBF2 SWAP4 SWAP3 SWAP2 SWAP1 PUSH2 0x10FB JUMP JUMPDEST PUSH1 0x40 MLOAD DUP1 SWAP2 SUB SWAP1 REVERT JUMPDEST DUP2 DUP2 SUB PUSH0 DUP1 DUP7 PUSH20 0xFFFFFFFFFFFFFFFFFFFFFFFFFFFFFFFFFFFFFFFF AND PUSH20 0xFFFFFFFFFFFFFFFFFFFFFFFFFFFFFFFFFFFFFFFF AND DUP2 MSTORE PUSH1 0x20 ADD SWAP1 DUP2 MSTORE PUSH1 0x20 ADD PUSH0 KECCAK256 DUP2 SWAP1 SSTORE POP POP JUMPDEST PUSH0 PUSH20 0xFFFFFFFFFFFFFFFFFFFFFFFFFFFFFFFFFFFFFFFF AND DUP3 PUSH20 0xFFFFFFFFFFFFFFFFFFFFFFFFFFFFFFFFFFFFFFFF AND SUB PUSH2 0xC87 JUMPI DUP1 PUSH1 0x2 PUSH0 DUP3 DUP3 SLOAD SUB SWAP3 POP POP DUP2 SWAP1 SSTORE POP PUSH2 0xCD1 JUMP JUMPDEST DUP1 PUSH0 DUP1 DUP5 PUSH20 0xFFFFFFFFFFFFFFFFFFFFFFFFFFFFFFFFFFFFFFFF AND PUSH20 0xFFFFFFFFFFFFFFFFFFFFFFFFFFFFFFFFFFFFFFFF AND DUP2 MSTORE PUSH1 0x20 ADD SWAP1 DUP2 MSTORE PUSH1 0x20 ADD PUSH0 KECCAK256 PUSH0 DUP3 DUP3 SLOAD ADD SWAP3 POP POP DUP2 SWAP1 SSTORE POP JUMPDEST DUP2 PUSH20 0xFFFFFFFFFFFFFFFFFFFFFFFFFFFFFFFFFFFFFFFF AND DUP4 PUSH20 0xFFFFFFFFFFFFFFFFFFFFFFFFFFFFFFFFFFFFFFFF AND PUSH32 0xDDF252AD1BE2C89B69C2B068FC378DAA952BA7F163C4A11628F55A4DF523B3EF DUP4 PUSH1 0x40 MLOAD PUSH2 0xD2E SWAP2 SWAP1 PUSH2 0xEF6 JUMP JUMPDEST PUSH1 0x40 MLOAD DUP1 SWAP2 SUB SWAP1 LOG3 POP POP POP JUMP JUMPDEST PUSH0 DUP2 MLOAD SWAP1 POP SWAP2 SWAP1 POP JUMP JUMPDEST PUSH0 DUP3 DUP3 MSTORE PUSH1 0x20 DUP3 ADD SWAP1 POP SWAP3 SWAP2 POP POP JUMP JUMPDEST PUSH0 JUMPDEST DUP4 DUP2 LT ISZERO PUSH2 0xD72 JUMPI DUP1 DUP3 ADD MLOAD DUP2 DUP5 ADD MSTORE PUSH1 0x20 DUP2 ADD SWAP1 POP PUSH2 0xD57 JUMP JUMPDEST PUSH0 DUP5 DUP5 ADD MSTORE POP POP POP POP JUMP JUMPDEST PUSH0 PUSH1 0x1F NOT PUSH1 0x1F DUP4 ADD AND SWAP1 POP SWAP2 SWAP1 POP JUMP JUMPDEST PUSH0 PUSH2 0xD97 DUP3 PUSH2 0xD3B JUMP JUMPDEST PUSH2 0xDA1 DUP2 DUP6 PUSH2 0xD45 JUMP JUMPDEST SWAP4 POP PUSH2 0xDB1 DUP2 DUP6 PUSH1 0x20 DUP7 ADD PUSH2 0xD55 JUMP JUMPDEST PUSH2 0xDBA DUP2 PUSH2 0xD7D JUMP JUMPDEST DUP5 ADD SWAP2 POP POP SWAP3 SWAP2 POP POP JUMP JUMPDEST PUSH0 PUSH1 0x20 DUP3 ADD SWAP1 POP DUP2 DUP2 SUB PUSH0 DUP4 ADD MSTORE PUSH2 0xDDD DUP2 DUP5 PUSH2 0xD8D JUMP JUMPDEST SWAP1 POP SWAP3 SWAP2 POP POP JUMP JUMPDEST PUSH0 DUP1 REVERT JUMPDEST PUSH0 PUSH20 0xFFFFFFFFFFFFFFFFFFFFFFFFFFFFFFFFFFFFFFFF DUP3 AND SWAP1 POP SWAP2 SWAP1 POP JUMP JUMPDEST PUSH0 PUSH2 0xE12 DUP3 PUSH2 0xDE9 JUMP JUMPDEST SWAP1 POP SWAP2 SWAP1 POP JUMP JUMPDEST PUSH2 0xE22 DUP2 PUSH2 0xE08 JUMP JUMPDEST DUP2 EQ PUSH2 0xE2C JUMPI PUSH0 DUP1 REVERT JUMPDEST POP JUMP JUMPDEST PUSH0 DUP2 CALLDATALOAD SWAP1 POP PUSH2 0xE3D DUP2 PUSH2 0xE19 JUMP JUMPDEST SWAP3 SWAP2 POP POP JUMP JUMPDEST PUSH0 DUP2 SWAP1 POP SWAP2 SWAP1 POP JUMP JUMPDEST PUSH2 0xE55 DUP2 PUSH2 0xE43 JUMP JUMPDEST DUP2 EQ PUSH2 0xE5F JUMPI PUSH0 DUP1 REVERT JUMPDEST POP JUMP JUMPDEST PUSH0 DUP2 CALLDATALOAD SWAP1 POP PUSH2 0xE70 DUP2 PUSH2 0xE4C JUMP JUMPDEST SWAP3 SWAP2 POP POP JUMP JUMPDEST PUSH0 DUP1 PUSH1 0x40 DUP4 DUP6 SUB SLT ISZERO PUSH2 0xE8C JUMPI PUSH2 0xE8B PUSH2 0xDE5 JUMP JUMPDEST JUMPDEST PUSH0 PUSH2 0xE99 DUP6 DUP3 DUP7 ADD PUSH2 0xE2F JUMP JUMPDEST SWAP3 POP POP PUSH1 0x20 PUSH2 0xEAA DUP6 DUP3 DUP7 ADD PUSH2 0xE62 JUMP JUMPDEST SWAP2 POP POP SWAP3 POP SWAP3 SWAP1 POP JUMP JUMPDEST PUSH0 DUP2 ISZERO ISZERO SWAP1 POP SWAP2 SWAP1 POP JUMP JUMPDEST PUSH2 0xEC8 DUP2 PUSH2 0xEB4 JUMP JUMPDEST DUP3 MSTORE POP POP JUMP JUMPDEST PUSH0 PUSH1 0x20 DUP3 ADD SWAP1 POP PUSH2 0xEE1 PUSH0 DUP4 ADD DUP5 PUSH2 0xEBF JUMP JUMPDEST SWAP3 SWAP2 POP POP JUMP JUMPDEST PUSH2 0xEF0 DUP2 PUSH2 0xE43 JUMP JUMPDEST DUP3 MSTORE POP POP JUMP JUMPDEST PUSH0 PUSH1 0x20 DUP3 ADD SWAP1 POP PUSH2 0xF09 PUSH0 DUP4 ADD DUP5 PUSH2 0xEE7 JUMP JUMPDEST SWAP3 SWAP2 POP POP JUMP JUMPDEST PUSH0 DUP1 PUSH0 PUSH1 0x60 DUP5 DUP7 SUB SLT ISZERO PUSH2 0xF26 JUMPI PUSH2 0xF25 PUSH2 0xDE5 JUMP JUMPDEST JUMPDEST PUSH0 PUSH2 0xF33 DUP7 DUP3 DUP8 ADD PUSH2 0xE2F JUMP JUMPDEST SWAP4 POP POP PUSH1 0x20 PUSH2 0xF44 DUP7 DUP3 DUP8 ADD PUSH2 0xE2F JUMP JUMPDEST SWAP3 POP POP PUSH1 0x40 PUSH2 0xF55 DUP7 DUP3 DUP8 ADD PUSH2 0xE62 JUMP JUMPDEST SWAP2 POP POP SWAP3 POP SWAP3 POP SWAP3 JUMP JUMPDEST PUSH0 PUSH1 0xFF DUP3 AND SWAP1 POP SWAP2 SWAP1 POP JUMP JUMPDEST PUSH2 0xF74 DUP2 PUSH2 0xF5F JUMP JUMPDEST DUP3 MSTORE POP POP JUMP JUMPDEST PUSH0 PUSH1 0x20 DUP3 ADD SWAP1 POP PUSH2 0xF8D PUSH0 DUP4 ADD DUP5 PUSH2 0xF6B JUMP JUMPDEST SWAP3 SWAP2 POP POP JUMP JUMPDEST PUSH0 PUSH1 0x20 DUP3 DUP5 SUB SLT ISZERO PUSH2 0xFA8 JUMPI PUSH2 0xFA7 PUSH2 0xDE5 JUMP JUMPDEST JUMPDEST PUSH0 PUSH2 0xFB5 DUP5 DUP3 DUP6 ADD PUSH2 0xE62 JUMP JUMPDEST SWAP2 POP POP SWAP3 SWAP2 POP POP JUMP JUMPDEST PUSH0 PUSH1 0x20 DUP3 DUP5 SUB SLT ISZERO PUSH2 0xFD3 JUMPI PUSH2 0xFD2 PUSH2 0xDE5 JUMP JUMPDEST JUMPDEST PUSH0 PUSH2 0xFE0 DUP5 DUP3 DUP6 ADD PUSH2 0xE2F JUMP JUMPDEST SWAP2 POP POP SWAP3 SWAP2 POP POP JUMP JUMPDEST PUSH0 DUP1 PUSH1 0x40 DUP4 DUP6 SUB SLT ISZERO PUSH2 0xFFF JUMPI PUSH2 0xFFE PUSH2 0xDE5 JUMP JUMPDEST JUMPDEST PUSH0 PUSH2 0x100C DUP6 DUP3 DUP7 ADD PUSH2 0xE2F JUMP JUMPDEST SWAP3 POP POP PUSH1 0x20 PUSH2 0x101D DUP6 DUP3 DUP7 ADD PUSH2 0xE2F JUMP JUMPDEST SWAP2 POP POP SWAP3 POP SWAP3 SWAP1 POP JUMP JUMPDEST PUSH32 0x4E487B7100000000000000000000000000000000000000000000000000000000 PUSH0 MSTORE PUSH1 0x22 PUSH1 0x4 MSTORE PUSH1 0x24 PUSH0 REVERT JUMPDEST PUSH0 PUSH1 0x2 DUP3 DIV SWAP1 POP PUSH1 0x1 DUP3 AND DUP1 PUSH2 0x106B JUMPI PUSH1 0x7F DUP3 AND SWAP2 POP JUMPDEST PUSH1 0x20 DUP3 LT DUP2 SUB PUSH2 0x107E JUMPI PUSH2 0x107D PUSH2 0x1027 JUMP JUMPDEST JUMPDEST POP SWAP2 SWAP1 POP JUMP JUMPDEST PUSH32 0x4F6E6C792067616D6520636F6E74726163742063616E2063616C6C2E00000000 PUSH0 DUP3 ADD MSTORE POP JUMP JUMPDEST PUSH0 PUSH2 0x10B8 PUSH1 0x1C DUP4 PUSH2 0xD45 JUMP JUMPDEST SWAP2 POP PUSH2 0x10C3 DUP3 PUSH2 0x1084 JUMP JUMPDEST PUSH1 0x20 DUP3 ADD SWAP1 POP SWAP2 SWAP1 POP JUMP JUMPDEST PUSH0 PUSH1 0x20 DUP3 ADD SWAP1 POP DUP2 DUP2 SUB PUSH0 DUP4 ADD MSTORE PUSH2 0x10E5 DUP2 PUSH2 0x10AC JUMP JUMPDEST SWAP1 POP SWAP2 SWAP1 POP JUMP JUMPDEST PUSH2 0x10F5 DUP2 PUSH2 0xE08 JUMP JUMPDEST DUP3 MSTORE POP POP JUMP JUMPDEST PUSH0 PUSH1 0x60 DUP3 ADD SWAP1 POP PUSH2 0x110E PUSH0 DUP4 ADD DUP7 PUSH2 0x10EC JUMP JUMPDEST PUSH2 0x111B PUSH1 0x20 DUP4 ADD DUP6 PUSH2 0xEE7 JUMP JUMPDEST PUSH2 0x1128 PUSH1 0x40 DUP4 ADD DUP5 PUSH2 0xEE7 JUMP JUMPDEST SWAP5 SWAP4 POP POP POP POP JUMP JUMPDEST PUSH0 PUSH1 0x20 DUP3 ADD SWAP1 POP PUSH2 0x1143 PUSH0 DUP4 ADD DUP5 PUSH2 0x10EC JUMP JUMPDEST SWAP3 SWAP2 POP POP JUMP JUMPDEST PUSH32 0x4E487B7100000000000000000000000000000000000000000000000000000000 PUSH0 MSTORE PUSH1 0x11 PUSH1 0x4 MSTORE PUSH1 0x24 PUSH0 REVERT JUMPDEST PUSH0 PUSH2 0x1180 DUP3 PUSH2 0xE43 JUMP JUMPDEST SWAP2 POP PUSH2 0x118B DUP4 PUSH2 0xE43 JUMP JUMPDEST SWAP3 POP DUP3 DUP3 ADD SWAP1 POP DUP1 DUP3 GT ISZERO PUSH2 0x11A3 JUMPI PUSH2 0x11A2 PUSH2 0x1149 JUMP JUMPDEST JUMPDEST SWAP3 SWAP2 POP POP JUMP INVALID LOG2 PUSH5 0x6970667358 0x22 SLT KECCAK256 PUSH0 DUP4 0x2D PUSH24 0x41B4A4B7EF128B0FAC7A5DEA12B80C47AD36B415ACABAECA GASLIMIT MLOAD CALLER DUP13 PUSH5 0x736F6C6343 STOP ADDMOD EQ STOP CALLER PUSH1 0xA0 PUSH1 0x40 MSTORE CALLVALUE DUP1 ISZERO PUSH3 0x10 JUMPI PUSH0 DUP1 REVERT JUMPDEST POP PUSH1 0x40 MLOAD PUSH3 0x2DFF CODESIZE SUB DUP1 PUSH3 0x2DFF DUP4 CODECOPY DUP2 DUP2 ADD PUSH1 0x40 MSTORE DUP2 ADD SWAP1 PUSH3 0x36 SWAP2 SWAP1 PUSH3 0x133 JUMP JUMPDEST PUSH1 0x40 MLOAD DUP1 PUSH1 0x40 ADD PUSH1 0x40 MSTORE DUP1 PUSH1 0x20 DUP2 MSTORE PUSH1 0x20 ADD PUSH32 0x68747470733A2F2F736F6D2E657465726E697461732E67616D65732F6A736F6E DUP2 MSTORE POP PUSH3 0x7D DUP2 PUSH3 0xB9 PUSH1 0x20 SHL PUSH1 0x20 SHR JUMP JUMPDEST POP DUP1 PUSH20 0xFFFFFFFFFFFFFFFFFFFFFFFFFFFFFFFFFFFFFFFF AND PUSH1 0x80 DUP2 PUSH20 0xFFFFFFFFFFFFFFFFFFFFFFFFFFFFFFFFFFFFFFFF AND DUP2 MSTORE POP POP POP PUSH3 0x4AB JUMP JUMPDEST DUP1 PUSH1 0x2 SWAP1 DUP2 PUSH3 0xCA SWAP2 SWAP1 PUSH3 0x3C7 JUMP JUMPDEST POP POP JUMP JUMPDEST PUSH0 DUP1 REVERT JUMPDEST PUSH0 PUSH20 0xFFFFFFFFFFFFFFFFFFFFFFFFFFFFFFFFFFFFFFFF DUP3 AND SWAP1 POP SWAP2 SWAP1 POP JUMP JUMPDEST PUSH0 PUSH3 0xFD DUP3 PUSH3 0xD2 JUMP JUMPDEST SWAP1 POP SWAP2 SWAP1 POP JUMP JUMPDEST PUSH3 0x10F DUP2 PUSH3 0xF1 JUMP JUMPDEST DUP2 EQ PUSH3 0x11A JUMPI PUSH0 DUP1 REVERT JUMPDEST POP JUMP JUMPDEST PUSH0 DUP2 MLOAD SWAP1 POP PUSH3 0x12D DUP2 PUSH3 0x104 JUMP JUMPDEST SWAP3 SWAP2 POP POP JUMP JUMPDEST PUSH0 PUSH1 0x20 DUP3 DUP5 SUB SLT ISZERO PUSH3 0x14B JUMPI PUSH3 0x14A PUSH3 0xCE JUMP JUMPDEST JUMPDEST PUSH0 PUSH3 0x15A DUP5 DUP3 DUP6 ADD PUSH3 0x11D JUMP JUMPDEST SWAP2 POP POP SWAP3 SWAP2 POP POP JUMP JUMPDEST PUSH0 DUP2 MLOAD SWAP1 POP SWAP2 SWAP1 POP JUMP JUMPDEST PUSH32 0x4E487B7100000000000000000000000000000000000000000000000000000000 PUSH0 MSTORE PUSH1 0x41 PUSH1 0x4 MSTORE PUSH1 0x24 PUSH0 REVERT JUMPDEST PUSH32 0x4E487B7100000000000000000000000000000000000000000000000000000000 PUSH0 MSTORE PUSH1 0x22 PUSH1 0x4 MSTORE PUSH1 0x24 PUSH0 REVERT JUMPDEST PUSH0 PUSH1 0x2 DUP3 DIV SWAP1 POP PUSH1 0x1 DUP3 AND DUP1 PUSH3 0x1DF JUMPI PUSH1 0x7F DUP3 AND SWAP2 POP JUMPDEST PUSH1 0x20 DUP3 LT DUP2 SUB PUSH3 0x1F5 JUMPI PUSH3 0x1F4 PUSH3 0x19A JUMP JUMPDEST JUMPDEST POP SWAP2 SWAP1 POP JUMP JUMPDEST PUSH0 DUP2 SWAP1 POP DUP2 PUSH0 MSTORE PUSH1 0x20 PUSH0 KECCAK256 SWAP1 POP SWAP2 SWAP1 POP JUMP JUMPDEST PUSH0 PUSH1 0x20 PUSH1 0x1F DUP4 ADD DIV SWAP1 POP SWAP2 SWAP1 POP JUMP JUMPDEST PUSH0 DUP3 DUP3 SHL SWAP1 POP SWAP3 SWAP2 POP POP JUMP JUMPDEST PUSH0 PUSH1 0x8 DUP4 MUL PUSH3 0x259 PUSH32 0xFFFFFFFFFFFFFFFFFFFFFFFFFFFFFFFFFFFFFFFFFFFFFFFFFFFFFFFFFFFFFFFF DUP3 PUSH3 0x21C JUMP JUMPDEST PUSH3 0x265 DUP7 DUP4 PUSH3 0x21C JUMP JUMPDEST SWAP6 POP DUP1 NOT DUP5 AND SWAP4 POP DUP1 DUP7 AND DUP5 OR SWAP3 POP POP POP SWAP4 SWAP3 POP POP POP JUMP JUMPDEST PUSH0 DUP2 SWAP1 POP SWAP2 SWAP1 POP JUMP JUMPDEST PUSH0 DUP2 SWAP1 POP SWAP2 SWAP1 POP JUMP JUMPDEST PUSH0 PUSH3 0x2AF PUSH3 0x2A9 PUSH3 0x2A3 DUP5 PUSH3 0x27D JUMP JUMPDEST PUSH3 0x286 JUMP JUMPDEST PUSH3 0x27D JUMP JUMPDEST SWAP1 POP SWAP2 SWAP1 POP JUMP JUMPDEST PUSH0 DUP2 SWAP1 POP SWAP2 SWAP1 POP JUMP JUMPDEST PUSH3 0x2CA DUP4 PUSH3 0x28F JUMP JUMPDEST PUSH3 0x2E2 PUSH3 0x2D9 DUP3 PUSH3 0x2B6 JUMP JUMPDEST DUP5 DUP5 SLOAD PUSH3 0x228 JUMP JUMPDEST DUP3 SSTORE POP POP POP POP JUMP JUMPDEST PUSH0 SWAP1 JUMP JUMPDEST PUSH3 0x2F8 PUSH3 0x2EA JUMP JUMPDEST PUSH3 0x305 DUP2 DUP5 DUP5 PUSH3 0x2BF JUMP JUMPDEST POP POP POP JUMP JUMPDEST JUMPDEST DUP2 DUP2 LT ISZERO PUSH3 0x32C JUMPI PUSH3 0x320 PUSH0 DUP3 PUSH3 0x2EE JUMP JUMPDEST PUSH1 0x1 DUP2 ADD SWAP1 POP PUSH3 0x30B JUMP JUMPDEST POP POP JUMP JUMPDEST PUSH1 0x1F DUP3 GT ISZERO PUSH3 0x37B JUMPI PUSH3 0x345 DUP2 PUSH3 0x1FB JUMP JUMPDEST PUSH3 0x350 DUP5 PUSH3 0x20D JUMP JUMPDEST DUP2 ADD PUSH1 0x20 DUP6 LT ISZERO PUSH3 0x360 JUMPI DUP2 SWAP1 POP JUMPDEST PUSH3 0x378 PUSH3 0x36F DUP6 PUSH3 0x20D JUMP JUMPDEST DUP4 ADD DUP3 PUSH3 0x30A JUMP JUMPDEST POP POP JUMPDEST POP POP POP JUMP JUMPDEST PUSH0 DUP3 DUP3 SHR SWAP1 POP SWAP3 SWAP2 POP POP JUMP JUMPDEST PUSH0 PUSH3 0x39D PUSH0 NOT DUP5 PUSH1 0x8 MUL PUSH3 0x380 JUMP JUMPDEST NOT DUP1 DUP4 AND SWAP2 POP POP SWAP3 SWAP2 POP POP JUMP JUMPDEST PUSH0 PUSH3 0x3B7 DUP4 DUP4 PUSH3 0x38C JUMP JUMPDEST SWAP2 POP DUP3 PUSH1 0x2 MUL DUP3 OR SWAP1 POP SWAP3 SWAP2 POP POP JUMP JUMPDEST PUSH3 0x3D2 DUP3 PUSH3 0x163 JUMP JUMPDEST PUSH8 0xFFFFFFFFFFFFFFFF DUP2 GT ISZERO PUSH3 0x3EE JUMPI PUSH3 0x3ED PUSH3 0x16D JUMP JUMPDEST JUMPDEST PUSH3 0x3FA DUP3 SLOAD PUSH3 0x1C7 JUMP JUMPDEST PUSH3 0x407 DUP3 DUP3 DUP6 PUSH3 0x330 JUMP JUMPDEST PUSH0 PUSH1 0x20 SWAP1 POP PUSH1 0x1F DUP4 GT PUSH1 0x1 DUP2 EQ PUSH3 0x43D JUMPI PUSH0 DUP5 ISZERO PUSH3 0x428 JUMPI DUP3 DUP8 ADD MLOAD SWAP1 POP JUMPDEST PUSH3 0x434 DUP6 DUP3 PUSH3 0x3AA JUMP JUMPDEST DUP7 SSTORE POP PUSH3 0x4A3 JUMP JUMPDEST PUSH1 0x1F NOT DUP5 AND PUSH3 0x44D DUP7 PUSH3 0x1FB JUMP JUMPDEST PUSH0 JUMPDEST DUP3 DUP2 LT ISZERO PUSH3 0x476 JUMPI DUP5 DUP10 ADD MLOAD DUP3 SSTORE PUSH1 0x1 DUP3 ADD SWAP2 POP PUSH1 0x20 DUP6 ADD SWAP5 POP PUSH1 0x20 DUP2 ADD SWAP1 POP PUSH3 0x44F JUMP JUMPDEST DUP7 DUP4 LT ISZERO PUSH3 0x496 JUMPI DUP5 DUP10 ADD MLOAD PUSH3 0x492 PUSH1 0x1F DUP10 AND DUP3 PUSH3 0x38C JUMP JUMPDEST DUP4 SSTORE POP JUMPDEST PUSH1 0x1 PUSH1 0x2 DUP9 MUL ADD DUP9 SSTORE POP POP POP JUMPDEST POP POP POP POP POP POP JUMP JUMPDEST PUSH1 0x80 MLOAD PUSH2 0x2934 PUSH3 0x4CB PUSH0 CODECOPY PUSH0 DUP2 DUP2 PUSH2 0x4FB ADD MSTORE PUSH2 0x80E ADD MSTORE PUSH2 0x2934 PUSH0 RETURN INVALID PUSH1 0x80 PUSH1 0x40 MSTORE CALLVALUE DUP1 ISZERO PUSH2 0xF JUMPI PUSH0 DUP1 REVERT JUMPDEST POP PUSH1 0x4 CALLDATASIZE LT PUSH2 0xF2 JUMPI PUSH0 CALLDATALOAD PUSH1 0xE0 SHR DUP1 PUSH4 0x4F558E79 GT PUSH2 0x95 JUMPI DUP1 PUSH4 0xBD85B039 GT PUSH2 0x64 JUMPI DUP1 PUSH4 0xBD85B039 EQ PUSH2 0x290 JUMPI DUP1 PUSH4 0xE985E9C5 EQ PUSH2 0x2C0 JUMPI DUP1 PUSH4 0xF242432A EQ PUSH2 0x2F0 JUMPI DUP1 PUSH4 0xF5298ACA EQ PUSH2 0x30C JUMPI PUSH2 0xF2 JUMP JUMPDEST DUP1 PUSH4 0x4F558E79 EQ PUSH2 0x20C JUMPI DUP1 PUSH4 0x6B20C454 EQ PUSH2 0x23C JUMPI DUP1 PUSH4 0x731133E9 EQ PUSH2 0x258 JUMPI DUP1 PUSH4 0xA22CB465 EQ PUSH2 0x274 JUMPI PUSH2 0xF2 JUMP JUMPDEST DUP1 PUSH4 0x18160DDD GT PUSH2 0xD1 JUMPI DUP1 PUSH4 0x18160DDD EQ PUSH2 0x186 JUMPI DUP1 PUSH4 0x1F7FDFFA EQ PUSH2 0x1A4 JUMPI DUP1 PUSH4 0x2EB2C2D6 EQ PUSH2 0x1C0 JUMPI DUP1 PUSH4 0x4E1273F4 EQ PUSH2 0x1DC JUMPI PUSH2 0xF2 JUMP JUMPDEST DUP1 PUSH3 0xFDD58E EQ PUSH2 0xF6 JUMPI DUP1 PUSH4 0x1FFC9A7 EQ PUSH2 0x126 JUMPI DUP1 PUSH4 0xE89341C EQ PUSH2 0x156 JUMPI JUMPDEST PUSH0 DUP1 REVERT JUMPDEST PUSH2 0x110 PUSH1 0x4 DUP1 CALLDATASIZE SUB DUP2 ADD SWAP1 PUSH2 0x10B SWAP2 SWAP1 PUSH2 0x1B29 JUMP JUMPDEST PUSH2 0x328 JUMP JUMPDEST PUSH1 0x40 MLOAD PUSH2 0x11D SWAP2 SWAP1 PUSH2 0x1B76 JUMP JUMPDEST PUSH1 0x40 MLOAD DUP1 SWAP2 SUB SWAP1 RETURN JUMPDEST PUSH2 0x140 PUSH1 0x4 DUP1 CALLDATASIZE SUB DUP2 ADD SWAP1 PUSH2 0x13B SWAP2 SWAP1 PUSH2 0x1BE4 JUMP JUMPDEST PUSH2 0x37D JUMP JUMPDEST PUSH1 0x40 MLOAD PUSH2 0x14D SWAP2 SWAP1 PUSH2 0x1C29 JUMP JUMPDEST PUSH1 0x40 MLOAD DUP1 SWAP2 SUB SWAP1 RETURN JUMPDEST PUSH2 0x170 PUSH1 0x4 DUP1 CALLDATASIZE SUB DUP2 ADD SWAP1 PUSH2 0x16B SWAP2 SWAP1 PUSH2 0x1C42 JUMP JUMPDEST PUSH2 0x45E JUMP JUMPDEST PUSH1 0x40 MLOAD PUSH2 0x17D SWAP2 SWAP1 PUSH2 0x1CF7 JUMP JUMPDEST PUSH1 0x40 MLOAD DUP1 SWAP2 SUB SWAP1 RETURN JUMPDEST PUSH2 0x18E PUSH2 0x4F0 JUMP JUMPDEST PUSH1 0x40 MLOAD PUSH2 0x19B SWAP2 SWAP1 PUSH2 0x1B76 JUMP JUMPDEST PUSH1 0x40 MLOAD DUP1 SWAP2 SUB SWAP1 RETURN JUMPDEST PUSH2 0x1BE PUSH1 0x4 DUP1 CALLDATASIZE SUB DUP2 ADD SWAP1 PUSH2 0x1B9 SWAP2 SWAP1 PUSH2 0x1F07 JUMP JUMPDEST PUSH2 0x4F9 JUMP JUMPDEST STOP JUMPDEST PUSH2 0x1DA PUSH1 0x4 DUP1 CALLDATASIZE SUB DUP2 ADD SWAP1 PUSH2 0x1D5 SWAP2 SWAP1 PUSH2 0x1FBF JUMP JUMPDEST PUSH2 0x599 JUMP JUMPDEST STOP JUMPDEST PUSH2 0x1F6 PUSH1 0x4 DUP1 CALLDATASIZE SUB DUP2 ADD SWAP1 PUSH2 0x1F1 SWAP2 SWAP1 PUSH2 0x214A JUMP JUMPDEST PUSH2 0x640 JUMP JUMPDEST PUSH1 0x40 MLOAD PUSH2 0x203 SWAP2 SWAP1 PUSH2 0x2277 JUMP JUMPDEST PUSH1 0x40 MLOAD DUP1 SWAP2 SUB SWAP1 RETURN JUMPDEST PUSH2 0x226 PUSH1 0x4 DUP1 CALLDATASIZE SUB DUP2 ADD SWAP1 PUSH2 0x221 SWAP2 SWAP1 PUSH2 0x1C42 JUMP JUMPDEST PUSH2 0x74D JUMP JUMPDEST PUSH1 0x40 MLOAD PUSH2 0x233 SWAP2 SWAP1 PUSH2 0x1C29 JUMP JUMPDEST PUSH1 0x40 MLOAD DUP1 SWAP2 SUB SWAP1 RETURN JUMPDEST PUSH2 0x256 PUSH1 0x4 DUP1 CALLDATASIZE SUB DUP2 ADD SWAP1 PUSH2 0x251 SWAP2 SWAP1 PUSH2 0x2297 JUMP JUMPDEST PUSH2 0x760 JUMP JUMPDEST STOP JUMPDEST PUSH2 0x272 PUSH1 0x4 DUP1 CALLDATASIZE SUB DUP2 ADD SWAP1 PUSH2 0x26D SWAP2 SWAP1 PUSH2 0x231F JUMP JUMPDEST PUSH2 0x80C JUMP JUMPDEST STOP JUMPDEST PUSH2 0x28E PUSH1 0x4 DUP1 CALLDATASIZE SUB DUP2 ADD SWAP1 PUSH2 0x289 SWAP2 SWAP1 PUSH2 0x23C9 JUMP JUMPDEST PUSH2 0x8AC JUMP JUMPDEST STOP JUMPDEST PUSH2 0x2AA PUSH1 0x4 DUP1 CALLDATASIZE SUB DUP2 ADD SWAP1 PUSH2 0x2A5 SWAP2 SWAP1 PUSH2 0x1C42 JUMP JUMPDEST PUSH2 0x8C2 JUMP JUMPDEST PUSH1 0x40 MLOAD PUSH2 0x2B7 SWAP2 SWAP1 PUSH2 0x1B76 JUMP JUMPDEST PUSH1 0x40 MLOAD DUP1 SWAP2 SUB SWAP1 RETURN JUMPDEST PUSH2 0x2DA PUSH1 0x4 DUP1 CALLDATASIZE SUB DUP2 ADD SWAP1 PUSH2 0x2D5 SWAP2 SWAP1 PUSH2 0x2407 JUMP JUMPDEST PUSH2 0x8DC JUMP JUMPDEST PUSH1 0x40 MLOAD PUSH2 0x2E7 SWAP2 SWAP1 PUSH2 0x1C29 JUMP JUMPDEST PUSH1 0x40 MLOAD DUP1 SWAP2 SUB SWAP1 RETURN JUMPDEST PUSH2 0x30A PUSH1 0x4 DUP1 CALLDATASIZE SUB DUP2 ADD SWAP1 PUSH2 0x305 SWAP2 SWAP1 PUSH2 0x2445 JUMP JUMPDEST PUSH2 0x96A JUMP JUMPDEST STOP JUMPDEST PUSH2 0x326 PUSH1 0x4 DUP1 CALLDATASIZE SUB DUP2 ADD SWAP1 PUSH2 0x321 SWAP2 SWAP1 PUSH2 0x24D8 JUMP JUMPDEST PUSH2 0xA11 JUMP JUMPDEST STOP JUMPDEST PUSH0 DUP1 PUSH0 DUP4 DUP2 MSTORE PUSH1 0x20 ADD SWAP1 DUP2 MSTORE PUSH1 0x20 ADD PUSH0 KECCAK256 PUSH0 DUP5 PUSH20 0xFFFFFFFFFFFFFFFFFFFFFFFFFFFFFFFFFFFFFFFF AND PUSH20 0xFFFFFFFFFFFFFFFFFFFFFFFFFFFFFFFFFFFFFFFF AND DUP2 MSTORE PUSH1 0x20 ADD SWAP1 DUP2 MSTORE PUSH1 0x20 ADD PUSH0 KECCAK256 SLOAD SWAP1 POP SWAP3 SWAP2 POP POP JUMP JUMPDEST PUSH0 PUSH32 0xD9B67A2600000000000000000000000000000000000000000000000000000000 PUSH28 0xFFFFFFFFFFFFFFFFFFFFFFFFFFFFFFFFFFFFFFFFFFFFFFFFFFFFFFFF NOT AND DUP3 PUSH28 0xFFFFFFFFFFFFFFFFFFFFFFFFFFFFFFFFFFFFFFFFFFFFFFFFFFFFFFFF NOT AND EQ DUP1 PUSH2 0x447 JUMPI POP PUSH32 0xE89341C00000000000000000000000000000000000000000000000000000000 PUSH28 0xFFFFFFFFFFFFFFFFFFFFFFFFFFFFFFFFFFFFFFFFFFFFFFFFFFFFFFFF NOT AND DUP3 PUSH28 0xFFFFFFFFFFFFFFFFFFFFFFFFFFFFFFFFFFFFFFFFFFFFFFFFFFFFFFFF NOT AND EQ JUMPDEST DUP1 PUSH2 0x457 JUMPI POP PUSH2 0x456 DUP3 PUSH2 0xABD JUMP JUMPDEST JUMPDEST SWAP1 POP SWAP2 SWAP1 POP JUMP JUMPDEST PUSH1 0x60 PUSH1 0x2 DUP1 SLOAD PUSH2 0x46D SWAP1 PUSH2 0x2555 JUMP JUMPDEST DUP1 PUSH1 0x1F ADD PUSH1 0x20 DUP1 SWAP2 DIV MUL PUSH1 0x20 ADD PUSH1 0x40 MLOAD SWAP1 DUP2 ADD PUSH1 0x40 MSTORE DUP1 SWAP3 SWAP2 SWAP1 DUP2 DUP2 MSTORE PUSH1 0x20 ADD DUP3 DUP1 SLOAD PUSH2 0x499 SWAP1 PUSH2 0x2555 JUMP JUMPDEST DUP1 ISZERO PUSH2 0x4E4 JUMPI DUP1 PUSH1 0x1F LT PUSH2 0x4BB JUMPI PUSH2 0x100 DUP1 DUP4 SLOAD DIV MUL DUP4 MSTORE SWAP2 PUSH1 0x20 ADD SWAP2 PUSH2 0x4E4 JUMP JUMPDEST DUP3 ADD SWAP2 SWAP1 PUSH0 MSTORE PUSH1 0x20 PUSH0 KECCAK256 SWAP1 JUMPDEST DUP2 SLOAD DUP2 MSTORE SWAP1 PUSH1 0x1 ADD SWAP1 PUSH1 0x20 ADD DUP1 DUP4 GT PUSH2 0x4C7 JUMPI DUP3 SWAP1 SUB PUSH1 0x1F AND DUP3 ADD SWAP2 JUMPDEST POP POP POP POP POP SWAP1 POP SWAP2 SWAP1 POP JUMP JUMPDEST PUSH0 PUSH1 0x4 SLOAD SWAP1 POP SWAP1 JUMP JUMPDEST PUSH32 0x0 PUSH20 0xFFFFFFFFFFFFFFFFFFFFFFFFFFFFFFFFFFFFFFFF AND CALLER PUSH20 0xFFFFFFFFFFFFFFFFFFFFFFFFFFFFFFFFFFFFFFFF AND EQ PUSH2 0x587 JUMPI PUSH1 0x40 MLOAD PUSH32 0x8C379A000000000000000000000000000000000000000000000000000000000 DUP2 MSTORE PUSH1 0x4 ADD PUSH2 0x57E SWAP1 PUSH2 0x25CF JUMP JUMPDEST PUSH1 0x40 MLOAD DUP1 SWAP2 SUB SWAP1 REVERT JUMPDEST PUSH2 0x593 DUP5 DUP5 DUP5 DUP5 PUSH2 0xB26 JUMP JUMPDEST POP POP POP POP JUMP JUMPDEST PUSH0 PUSH2 0x5A2 PUSH2 0xBA9 JUMP JUMPDEST SWAP1 POP DUP1 PUSH20 0xFFFFFFFFFFFFFFFFFFFFFFFFFFFFFFFFFFFFFFFF AND DUP7 PUSH20 0xFFFFFFFFFFFFFFFFFFFFFFFFFFFFFFFFFFFFFFFF AND EQ ISZERO DUP1 ISZERO PUSH2 0x5E7 JUMPI POP PUSH2 0x5E5 DUP7 DUP3 PUSH2 0x8DC JUMP JUMPDEST ISZERO JUMPDEST ISZERO PUSH2 0x62B JUMPI DUP1 DUP7 PUSH1 0x40 MLOAD PUSH32 0xE237D92200000000000000000000000000000000000000000000000000000000 DUP2 MSTORE PUSH1 0x4 ADD PUSH2 0x622 SWAP3 SWAP2 SWAP1 PUSH2 0x25FC JUMP JUMPDEST PUSH1 0x40 MLOAD DUP1 SWAP2 SUB SWAP1 REVERT JUMPDEST PUSH2 0x638 DUP7 DUP7 DUP7 DUP7 DUP7 PUSH2 0xBB0 JUMP JUMPDEST POP POP POP POP POP POP JUMP JUMPDEST PUSH1 0x60 DUP2 MLOAD DUP4 MLOAD EQ PUSH2 0x68C JUMPI DUP2 MLOAD DUP4 MLOAD PUSH1 0x40 MLOAD PUSH32 0x5B05999100000000000000000000000000000000000000000000000000000000 DUP2 MSTORE PUSH1 0x4 ADD PUSH2 0x683 SWAP3 SWAP2 SWAP1 PUSH2 0x2623 JUMP JUMPDEST PUSH1 0x40 MLOAD DUP1 SWAP2 SUB SWAP1 REVERT JUMPDEST PUSH0 DUP4 MLOAD PUSH8 0xFFFFFFFFFFFFFFFF DUP2 GT ISZERO PUSH2 0x6A8 JUMPI PUSH2 0x6A7 PUSH2 0x1D1B JUMP JUMPDEST JUMPDEST PUSH1 0x40 MLOAD SWAP1 DUP1 DUP3 MSTORE DUP1 PUSH1 0x20 MUL PUSH1 0x20 ADD DUP3 ADD PUSH1 0x40 MSTORE DUP1 ISZERO PUSH2 0x6D6 JUMPI DUP2 PUSH1 0x20 ADD PUSH1 0x20 DUP3 MUL DUP1 CALLDATASIZE DUP4 CALLDATACOPY DUP1 DUP3 ADD SWAP2 POP POP SWAP1 POP JUMPDEST POP SWAP1 POP PUSH0 JUMPDEST DUP5 MLOAD DUP2 LT ISZERO PUSH2 0x742 JUMPI PUSH2 0x712 PUSH2 0x6FA DUP3 DUP8 PUSH2 0xCA4 SWAP1 SWAP2 SWAP1 PUSH4 0xFFFFFFFF AND JUMP JUMPDEST PUSH2 0x70D DUP4 DUP8 PUSH2 0xCB7 SWAP1 SWAP2 SWAP1 PUSH4 0xFFFFFFFF AND JUMP JUMPDEST PUSH2 0x328 JUMP JUMPDEST DUP3 DUP3 DUP2 MLOAD DUP2 LT PUSH2 0x725 JUMPI PUSH2 0x724 PUSH2 0x264A JUMP JUMPDEST JUMPDEST PUSH1 0x20 MUL PUSH1 0x20 ADD ADD DUP2 DUP2 MSTORE POP POP DUP1 PUSH2 0x73B SWAP1 PUSH2 0x26A4 JUMP JUMPDEST SWAP1 POP PUSH2 0x6DB JUMP JUMPDEST POP DUP1 SWAP2 POP POP SWAP3 SWAP2 POP POP JUMP JUMPDEST PUSH0 DUP1 PUSH2 0x758 DUP4 PUSH2 0x8C2 JUMP JUMPDEST GT SWAP1 POP SWAP2 SWAP1 POP JUMP JUMPDEST PUSH2 0x768 PUSH2 0xBA9 JUMP JUMPDEST PUSH20 0xFFFFFFFFFFFFFFFFFFFFFFFFFFFFFFFFFFFFFFFF AND DUP4 PUSH20 0xFFFFFFFFFFFFFFFFFFFFFFFFFFFFFFFFFFFFFFFF AND EQ ISZERO DUP1 ISZERO PUSH2 0x7B1 JUMPI POP PUSH2 0x7AF DUP4 PUSH2 0x7AA PUSH2 0xBA9 JUMP JUMPDEST PUSH2 0x8DC JUMP JUMPDEST ISZERO JUMPDEST ISZERO PUSH2 0x7FC JUMPI PUSH2 0x7BE PUSH2 0xBA9 JUMP JUMPDEST DUP4 PUSH1 0x40 MLOAD PUSH32 0xE237D92200000000000000000000000000000000000000000000000000000000 DUP2 MSTORE PUSH1 0x4 ADD PUSH2 0x7F3 SWAP3 SWAP2 SWAP1 PUSH2 0x25FC JUMP JUMPDEST PUSH1 0x40 MLOAD DUP1 SWAP2 SUB SWAP1 REVERT JUMPDEST PUSH2 0x807 DUP4 DUP4 DUP4 PUSH2 0xCCA JUMP JUMPDEST POP POP POP JUMP JUMPDEST PUSH32 0x0 PUSH20 0xFFFFFFFFFFFFFFFFFFFFFFFFFFFFFFFFFFFFFFFF AND CALLER PUSH20 0xFFFFFFFFFFFFFFFFFFFFFFFFFFFFFFFFFFFFFFFF AND EQ PUSH2 0x89A JUMPI PUSH1 0x40 MLOAD PUSH32 0x8C379A000000000000000000000000000000000000000000000000000000000 DUP2 MSTORE PUSH1 0x4 ADD PUSH2 0x891 SWAP1 PUSH2 0x25CF JUMP JUMPDEST PUSH1 0x40 MLOAD DUP1 SWAP2 SUB SWAP1 REVERT JUMPDEST PUSH2 0x8A6 DUP5 DUP5 DUP5 DUP5 PUSH2 0xD5A JUMP JUMPDEST POP POP POP POP JUMP JUMPDEST PUSH2 0x8BE PUSH2 0x8B7 PUSH2 0xBA9 JUMP JUMPDEST DUP4 DUP4 PUSH2 0xDEF JUMP JUMPDEST POP POP JUMP JUMPDEST PUSH0 PUSH1 0x3 PUSH0 DUP4 DUP2 MSTORE PUSH1 0x20 ADD SWAP1 DUP2 MSTORE PUSH1 0x20 ADD PUSH0 KECCAK256 SLOAD SWAP1 POP SWAP2 SWAP1 POP JUMP JUMPDEST PUSH0 PUSH1 0x1 PUSH0 DUP5 PUSH20 0xFFFFFFFFFFFFFFFFFFFFFFFFFFFFFFFFFFFFFFFF AND PUSH20 0xFFFFFFFFFFFFFFFFFFFFFFFFFFFFFFFFFFFFFFFF AND DUP2 MSTORE PUSH1 0x20 ADD SWAP1 DUP2 MSTORE PUSH1 0x20 ADD PUSH0 KECCAK256 PUSH0 DUP4 PUSH20 0xFFFFFFFFFFFFFFFFFFFFFFFFFFFFFFFFFFFFFFFF AND PUSH20 0xFFFFFFFFFFFFFFFFFFFFFFFFFFFFFFFFFFFFFFFF AND DUP2 MSTORE PUSH1 0x20 ADD SWAP1 DUP2 MSTORE PUSH1 0x20 ADD PUSH0 KECCAK256 PUSH0 SWAP1 SLOAD SWAP1 PUSH2 0x100 EXP SWAP1 DIV PUSH1 0xFF AND SWAP1 POP SWAP3 SWAP2 POP POP JUMP JUMPDEST PUSH0 PUSH2 0x973 PUSH2 0xBA9 JUMP JUMPDEST SWAP1 POP DUP1 PUSH20 0xFFFFFFFFFFFFFFFFFFFFFFFFFFFFFFFFFFFFFFFF AND DUP7 PUSH20 0xFFFFFFFFFFFFFFFFFFFFFFFFFFFFFFFFFFFFFFFF AND EQ ISZERO DUP1 ISZERO PUSH2 0x9B8 JUMPI POP PUSH2 0x9B6 DUP7 DUP3 PUSH2 0x8DC JUMP JUMPDEST ISZERO JUMPDEST ISZERO PUSH2 0x9FC JUMPI DUP1 DUP7 PUSH1 0x40 MLOAD PUSH32 0xE237D92200000000000000000000000000000000000000000000000000000000 DUP2 MSTORE PUSH1 0x4 ADD PUSH2 0x9F3 SWAP3 SWAP2 SWAP1 PUSH2 0x25FC JUMP JUMPDEST PUSH1 0x40 MLOAD DUP1 SWAP2 SUB SWAP1 REVERT JUMPDEST PUSH2 0xA09 DUP7 DUP7 DUP7 DUP7 DUP7 PUSH2 0xF58 JUMP JUMPDEST POP POP POP POP POP POP JUMP JUMPDEST PUSH2 0xA19 PUSH2 0xBA9 JUMP JUMPDEST PUSH20 0xFFFFFFFFFFFFFFFFFFFFFFFFFFFFFFFFFFFFFFFF AND DUP4 PUSH20 0xFFFFFFFFFFFFFFFFFFFFFFFFFFFFFFFFFFFFFFFF AND EQ ISZERO DUP1 ISZERO PUSH2 0xA62 JUMPI POP PUSH2 0xA60 DUP4 PUSH2 0xA5B PUSH2 0xBA9 JUMP JUMPDEST PUSH2 0x8DC JUMP JUMPDEST ISZERO JUMPDEST ISZERO PUSH2 0xAAD JUMPI PUSH2 0xA6F PUSH2 0xBA9 JUMP JUMPDEST DUP4 PUSH1 0x40 MLOAD PUSH32 0xE237D92200000000000000000000000000000000000000000000000000000000 DUP2 MSTORE PUSH1 0x4 ADD PUSH2 0xAA4 SWAP3 SWAP2 SWAP1 PUSH2 0x25FC JUMP JUMPDEST PUSH1 0x40 MLOAD DUP1 SWAP2 SUB SWAP1 REVERT JUMPDEST PUSH2 0xAB8 DUP4 DUP4 DUP4 PUSH2 0x105E JUMP JUMPDEST POP POP POP JUMP JUMPDEST PUSH0 PUSH32 0x1FFC9A700000000000000000000000000000000000000000000000000000000 PUSH28 0xFFFFFFFFFFFFFFFFFFFFFFFFFFFFFFFFFFFFFFFFFFFFFFFFFFFFFFFF NOT AND DUP3 PUSH28 0xFFFFFFFFFFFFFFFFFFFFFFFFFFFFFFFFFFFFFFFFFFFFFFFFFFFFFFFF NOT AND EQ SWAP1 POP SWAP2 SWAP1 POP JUMP JUMPDEST PUSH0 PUSH20 0xFFFFFFFFFFFFFFFFFFFFFFFFFFFFFFFFFFFFFFFF AND DUP5 PUSH20 0xFFFFFFFFFFFFFFFFFFFFFFFFFFFFFFFFFFFFFFFF AND SUB PUSH2 0xB96 JUMPI PUSH0 PUSH1 0x40 MLOAD PUSH32 0x57F447CE00000000000000000000000000000000000000000000000000000000 DUP2 MSTORE PUSH1 0x4 ADD PUSH2 0xB8D SWAP2 SWAP1 PUSH2 0x26EB JUMP JUMPDEST PUSH1 0x40 MLOAD DUP1 SWAP2 SUB SWAP1 REVERT JUMPDEST PUSH2 0xBA3 PUSH0 DUP6 DUP6 DUP6 DUP6 PUSH2 0x1100 JUMP JUMPDEST POP POP POP POP JUMP JUMPDEST PUSH0 CALLER SWAP1 POP SWAP1 JUMP JUMPDEST PUSH0 PUSH20 0xFFFFFFFFFFFFFFFFFFFFFFFFFFFFFFFFFFFFFFFF AND DUP5 PUSH20 0xFFFFFFFFFFFFFFFFFFFFFFFFFFFFFFFFFFFFFFFF AND SUB PUSH2 0xC20 JUMPI PUSH0 PUSH1 0x40 MLOAD PUSH32 0x57F447CE00000000000000000000000000000000000000000000000000000000 DUP2 MSTORE PUSH1 0x4 ADD PUSH2 0xC17 SWAP2 SWAP1 PUSH2 0x26EB JUMP JUMPDEST PUSH1 0x40 MLOAD DUP1 SWAP2 SUB SWAP1 REVERT JUMPDEST PUSH0 PUSH20 0xFFFFFFFFFFFFFFFFFFFFFFFFFFFFFFFFFFFFFFFF AND DUP6 PUSH20 0xFFFFFFFFFFFFFFFFFFFFFFFFFFFFFFFFFFFFFFFF AND SUB PUSH2 0xC90 JUMPI PUSH0 PUSH1 0x40 MLOAD PUSH32 0x1A8351400000000000000000000000000000000000000000000000000000000 DUP2 MSTORE PUSH1 0x4 ADD PUSH2 0xC87 SWAP2 SWAP1 PUSH2 0x26EB JUMP JUMPDEST PUSH1 0x40 MLOAD DUP1 SWAP2 SUB SWAP1 REVERT JUMPDEST PUSH2 0xC9D DUP6 DUP6 DUP6 DUP6 DUP6 PUSH2 0x1100 JUMP JUMPDEST POP POP POP POP POP JUMP JUMPDEST PUSH0 PUSH1 0x20 DUP3 MUL PUSH1 0x20 DUP5 ADD ADD MLOAD SWAP1 POP SWAP3 SWAP2 POP POP JUMP JUMPDEST PUSH0 PUSH1 0x20 DUP3 MUL PUSH1 0x20 DUP5 ADD ADD MLOAD SWAP1 POP SWAP3 SWAP2 POP POP JUMP JUMPDEST PUSH0 PUSH20 0xFFFFFFFFFFFFFFFFFFFFFFFFFFFFFFFFFFFFFFFF AND DUP4 PUSH20 0xFFFFFFFFFFFFFFFFFFFFFFFFFFFFFFFFFFFFFFFF AND SUB PUSH2 0xD3A JUMPI PUSH0 PUSH1 0x40 MLOAD PUSH32 0x1A8351400000000000000000000000000000000000000000000000000000000 DUP2 MSTORE PUSH1 0x4 ADD PUSH2 0xD31 SWAP2 SWAP1 PUSH2 0x26EB JUMP JUMPDEST PUSH1 0x40 MLOAD DUP1 SWAP2 SUB SWAP1 REVERT JUMPDEST PUSH2 0xD55 DUP4 PUSH0 DUP5 DUP5 PUSH1 0x40 MLOAD DUP1 PUSH1 0x20 ADD PUSH1 0x40 MSTORE DUP1 PUSH0 DUP2 MSTORE POP PUSH2 0x1100 JUMP JUMPDEST POP POP POP JUMP JUMPDEST PUSH0 PUSH20 0xFFFFFFFFFFFFFFFFFFFFFFFFFFFFFFFFFFFFFFFF AND DUP5 PUSH20 0xFFFFFFFFFFFFFFFFFFFFFFFFFFFFFFFFFFFFFFFF AND SUB PUSH2 0xDCA JUMPI PUSH0 PUSH1 0x40 MLOAD PUSH32 0x57F447CE00000000000000000000000000000000000000000000000000000000 DUP2 MSTORE PUSH1 0x4 ADD PUSH2 0xDC1 SWAP2 SWAP1 PUSH2 0x26EB JUMP JUMPDEST PUSH1 0x40 MLOAD DUP1 SWAP2 SUB SWAP1 REVERT JUMPDEST PUSH0 DUP1 PUSH2 0xDD6 DUP6 DUP6 PUSH2 0x11AC JUMP JUMPDEST SWAP2 POP SWAP2 POP PUSH2 0xDE7 PUSH0 DUP8 DUP5 DUP5 DUP8 PUSH2 0x1100 JUMP JUMPDEST POP POP POP POP POP POP JUMP JUMPDEST PUSH0 PUSH20 0xFFFFFFFFFFFFFFFFFFFFFFFFFFFFFFFFFFFFFFFF AND DUP3 PUSH20 0xFFFFFFFFFFFFFFFFFFFFFFFFFFFFFFFFFFFFFFFF AND SUB PUSH2 0xE5F JUMPI PUSH0 PUSH1 0x40 MLOAD PUSH32 0xCED3E10000000000000000000000000000000000000000000000000000000000 DUP2 MSTORE PUSH1 0x4 ADD PUSH2 0xE56 SWAP2 SWAP1 PUSH2 0x26EB JUMP JUMPDEST PUSH1 0x40 MLOAD DUP1 SWAP2 SUB SWAP1 REVERT JUMPDEST DUP1 PUSH1 0x1 PUSH0 DUP6 PUSH20 0xFFFFFFFFFFFFFFFFFFFFFFFFFFFFFFFFFFFFFFFF AND PUSH20 0xFFFFFFFFFFFFFFFFFFFFFFFFFFFFFFFFFFFFFFFF AND DUP2 MSTORE PUSH1 0x20 ADD SWAP1 DUP2 MSTORE PUSH1 0x20 ADD PUSH0 KECCAK256 PUSH0 DUP5 PUSH20 0xFFFFFFFFFFFFFFFFFFFFFFFFFFFFFFFFFFFFFFFF AND PUSH20 0xFFFFFFFFFFFFFFFFFFFFFFFFFFFFFFFFFFFFFFFF AND DUP2 MSTORE PUSH1 0x20 ADD SWAP1 DUP2 MSTORE PUSH1 0x20 ADD PUSH0 KECCAK256 PUSH0 PUSH2 0x100 EXP DUP2 SLOAD DUP2 PUSH1 0xFF MUL NOT AND SWAP1 DUP4 ISZERO ISZERO MUL OR SWAP1 SSTORE POP DUP2 PUSH20 0xFFFFFFFFFFFFFFFFFFFFFFFFFFFFFFFFFFFFFFFF AND DUP4 PUSH20 0xFFFFFFFFFFFFFFFFFFFFFFFFFFFFFFFFFFFFFFFF AND PUSH32 0x17307EAB39AB6107E8899845AD3D59BD9653F200F220920489CA2B5937696C31 DUP4 PUSH1 0x40 MLOAD PUSH2 0xF4B SWAP2 SWAP1 PUSH2 0x1C29 JUMP JUMPDEST PUSH1 0x40 MLOAD DUP1 SWAP2 SUB SWAP1 LOG3 POP POP POP JUMP JUMPDEST PUSH0 PUSH20 0xFFFFFFFFFFFFFFFFFFFFFFFFFFFFFFFFFFFFFFFF AND DUP5 PUSH20 0xFFFFFFFFFFFFFFFFFFFFFFFFFFFFFFFFFFFFFFFF AND SUB PUSH2 0xFC8 JUMPI PUSH0 PUSH1 0x40 MLOAD PUSH32 0x57F447CE00000000000000000000000000000000000000000000000000000000 DUP2 MSTORE PUSH1 0x4 ADD PUSH2 0xFBF SWAP2 SWAP1 PUSH2 0x26EB JUMP JUMPDEST PUSH1 0x40 MLOAD DUP1 SWAP2 SUB SWAP1 REVERT JUMPDEST PUSH0 PUSH20 0xFFFFFFFFFFFFFFFFFFFFFFFFFFFFFFFFFFFFFFFF AND DUP6 PUSH20 0xFFFFFFFFFFFFFFFFFFFFFFFFFFFFFFFFFFFFFFFF AND SUB PUSH2 0x1038 JUMPI PUSH0 PUSH1 0x40 MLOAD PUSH32 0x1A8351400000000000000000000000000000000000000000000000000000000 DUP2 MSTORE PUSH1 0x4 ADD PUSH2 0x102F SWAP2 SWAP1 PUSH2 0x26EB JUMP JUMPDEST PUSH1 0x40 MLOAD DUP1 SWAP2 SUB SWAP1 REVERT JUMPDEST PUSH0 DUP1 PUSH2 0x1044 DUP6 DUP6 PUSH2 0x11AC JUMP JUMPDEST SWAP2 POP SWAP2 POP PUSH2 0x1055 DUP8 DUP8 DUP5 DUP5 DUP8 PUSH2 0x1100 JUMP JUMPDEST POP POP POP POP POP POP POP JUMP JUMPDEST PUSH0 PUSH20 0xFFFFFFFFFFFFFFFFFFFFFFFFFFFFFFFFFFFFFFFF AND DUP4 PUSH20 0xFFFFFFFFFFFFFFFFFFFFFFFFFFFFFFFFFFFFFFFF AND SUB PUSH2 0x10CE JUMPI PUSH0 PUSH1 0x40 MLOAD PUSH32 0x1A8351400000000000000000000000000000000000000000000000000000000 DUP2 MSTORE PUSH1 0x4 ADD PUSH2 0x10C5 SWAP2 SWAP1 PUSH2 0x26EB JUMP JUMPDEST PUSH1 0x40 MLOAD DUP1 SWAP2 SUB SWAP1 REVERT JUMPDEST PUSH0 DUP1 PUSH2 0x10DA DUP5 DUP5 PUSH2 0x11AC JUMP JUMPDEST SWAP2 POP SWAP2 POP PUSH2 0x10F9 DUP6 PUSH0 DUP5 DUP5 PUSH1 0x40 MLOAD DUP1 PUSH1 0x20 ADD PUSH1 0x40 MSTORE DUP1 PUSH0 DUP2 MSTORE POP PUSH2 0x1100 JUMP JUMPDEST POP POP POP POP POP JUMP JUMPDEST PUSH2 0x110C DUP6 DUP6 DUP6 DUP6 PUSH2 0x11DC JUMP JUMPDEST PUSH0 PUSH20 0xFFFFFFFFFFFFFFFFFFFFFFFFFFFFFFFFFFFFFFFF AND DUP5 PUSH20 0xFFFFFFFFFFFFFFFFFFFFFFFFFFFFFFFFFFFFFFFF AND EQ PUSH2 0x11A5 JUMPI PUSH0 PUSH2 0x1148 PUSH2 0xBA9 JUMP JUMPDEST SWAP1 POP PUSH1 0x1 DUP5 MLOAD SUB PUSH2 0x1194 JUMPI PUSH0 PUSH2 0x1167 PUSH0 DUP7 PUSH2 0xCB7 SWAP1 SWAP2 SWAP1 PUSH4 0xFFFFFFFF AND JUMP JUMPDEST SWAP1 POP PUSH0 PUSH2 0x117D PUSH0 DUP7 PUSH2 0xCB7 SWAP1 SWAP2 SWAP1 PUSH4 0xFFFFFFFF AND JUMP JUMPDEST SWAP1 POP PUSH2 0x118D DUP4 DUP10 DUP10 DUP6 DUP6 DUP10 PUSH2 0x11EE JUMP JUMPDEST POP POP PUSH2 0x11A3 JUMP JUMPDEST PUSH2 0x11A2 DUP2 DUP8 DUP8 DUP8 DUP8 DUP8 PUSH2 0x139D JUMP JUMPDEST JUMPDEST POP JUMPDEST POP POP POP POP POP JUMP JUMPDEST PUSH1 0x60 DUP1 PUSH1 0x40 MLOAD SWAP2 POP PUSH1 0x1 DUP3 MSTORE DUP4 PUSH1 0x20 DUP4 ADD MSTORE PUSH1 0x40 DUP3 ADD SWAP1 POP PUSH1 0x1 DUP2 MSTORE DUP3 PUSH1 0x20 DUP3 ADD MSTORE PUSH1 0x40 DUP2 ADD PUSH1 0x40 MSTORE SWAP3 POP SWAP3 SWAP1 POP JUMP JUMPDEST PUSH2 0x11E8 DUP5 DUP5 DUP5 DUP5 PUSH2 0x154C JUMP JUMPDEST POP POP POP POP JUMP JUMPDEST PUSH0 DUP5 PUSH20 0xFFFFFFFFFFFFFFFFFFFFFFFFFFFFFFFFFFFFFFFF AND EXTCODESIZE GT ISZERO PUSH2 0x1395 JUMPI DUP4 PUSH20 0xFFFFFFFFFFFFFFFFFFFFFFFFFFFFFFFFFFFFFFFF AND PUSH4 0xF23A6E61 DUP8 DUP8 DUP7 DUP7 DUP7 PUSH1 0x40 MLOAD DUP7 PUSH4 0xFFFFFFFF AND PUSH1 0xE0 SHL DUP2 MSTORE PUSH1 0x4 ADD PUSH2 0x124E SWAP6 SWAP5 SWAP4 SWAP3 SWAP2 SWAP1 PUSH2 0x2756 JUMP JUMPDEST PUSH1 0x20 PUSH1 0x40 MLOAD DUP1 DUP4 SUB DUP2 PUSH0 DUP8 GAS CALL SWAP3 POP POP POP DUP1 ISZERO PUSH2 0x1289 JUMPI POP PUSH1 0x40 MLOAD RETURNDATASIZE PUSH1 0x1F NOT PUSH1 0x1F DUP3 ADD AND DUP3 ADD DUP1 PUSH1 0x40 MSTORE POP DUP2 ADD SWAP1 PUSH2 0x1286 SWAP2 SWAP1 PUSH2 0x27C2 JUMP JUMPDEST PUSH1 0x1 JUMPDEST PUSH2 0x130A JUMPI RETURNDATASIZE DUP1 PUSH0 DUP2 EQ PUSH2 0x12B7 JUMPI PUSH1 0x40 MLOAD SWAP2 POP PUSH1 0x1F NOT PUSH1 0x3F RETURNDATASIZE ADD AND DUP3 ADD PUSH1 0x40 MSTORE RETURNDATASIZE DUP3 MSTORE RETURNDATASIZE PUSH0 PUSH1 0x20 DUP5 ADD RETURNDATACOPY PUSH2 0x12BC JUMP JUMPDEST PUSH1 0x60 SWAP2 POP JUMPDEST POP PUSH0 DUP2 MLOAD SUB PUSH2 0x1302 JUMPI DUP5 PUSH1 0x40 MLOAD PUSH32 0x57F447CE00000000000000000000000000000000000000000000000000000000 DUP2 MSTORE PUSH1 0x4 ADD PUSH2 0x12F9 SWAP2 SWAP1 PUSH2 0x26EB JUMP JUMPDEST PUSH1 0x40 MLOAD DUP1 SWAP2 SUB SWAP1 REVERT JUMPDEST DUP1 MLOAD DUP2 PUSH1 0x20 ADD REVERT JUMPDEST PUSH4 0xF23A6E61 PUSH1 0xE0 SHL PUSH28 0xFFFFFFFFFFFFFFFFFFFFFFFFFFFFFFFFFFFFFFFFFFFFFFFFFFFFFFFF NOT AND DUP2 PUSH28 0xFFFFFFFFFFFFFFFFFFFFFFFFFFFFFFFFFFFFFFFFFFFFFFFFFFFFFFFF NOT AND EQ PUSH2 0x1393 JUMPI DUP5 PUSH1 0x40 MLOAD PUSH32 0x57F447CE00000000000000000000000000000000000000000000000000000000 DUP2 MSTORE PUSH1 0x4 ADD PUSH2 0x138A SWAP2 SWAP1 PUSH2 0x26EB JUMP JUMPDEST PUSH1 0x40 MLOAD DUP1 SWAP2 SUB SWAP1 REVERT JUMPDEST POP JUMPDEST POP POP POP POP POP POP JUMP JUMPDEST PUSH0 DUP5 PUSH20 0xFFFFFFFFFFFFFFFFFFFFFFFFFFFFFFFFFFFFFFFF AND EXTCODESIZE GT ISZERO PUSH2 0x1544 JUMPI DUP4 PUSH20 0xFFFFFFFFFFFFFFFFFFFFFFFFFFFFFFFFFFFFFFFF AND PUSH4 0xBC197C81 DUP8 DUP8 DUP7 DUP7 DUP7 PUSH1 0x40 MLOAD DUP7 PUSH4 0xFFFFFFFF AND PUSH1 0xE0 SHL DUP2 MSTORE PUSH1 0x4 ADD PUSH2 0x13FD SWAP6 SWAP5 SWAP4 SWAP3 SWAP2 SWAP1 PUSH2 0x27ED JUMP JUMPDEST PUSH1 0x20 PUSH1 0x40 MLOAD DUP1 DUP4 SUB DUP2 PUSH0 DUP8 GAS CALL SWAP3 POP POP POP DUP1 ISZERO PUSH2 0x1438 JUMPI POP PUSH1 0x40 MLOAD RETURNDATASIZE PUSH1 0x1F NOT PUSH1 0x1F DUP3 ADD AND DUP3 ADD DUP1 PUSH1 0x40 MSTORE POP DUP2 ADD SWAP1 PUSH2 0x1435 SWAP2 SWAP1 PUSH2 0x27C2 JUMP JUMPDEST PUSH1 0x1 JUMPDEST PUSH2 0x14B9 JUMPI RETURNDATASIZE DUP1 PUSH0 DUP2 EQ PUSH2 0x1466 JUMPI PUSH1 0x40 MLOAD SWAP2 POP PUSH1 0x1F NOT PUSH1 0x3F RETURNDATASIZE ADD AND DUP3 ADD PUSH1 0x40 MSTORE RETURNDATASIZE DUP3 MSTORE RETURNDATASIZE PUSH0 PUSH1 0x20 DUP5 ADD RETURNDATACOPY PUSH2 0x146B JUMP JUMPDEST PUSH1 0x60 SWAP2 POP JUMPDEST POP PUSH0 DUP2 MLOAD SUB PUSH2 0x14B1 JUMPI DUP5 PUSH1 0x40 MLOAD PUSH32 0x57F447CE00000000000000000000000000000000000000000000000000000000 DUP2 MSTORE PUSH1 0x4 ADD PUSH2 0x14A8 SWAP2 SWAP1 PUSH2 0x26EB JUMP JUMPDEST PUSH1 0x40 MLOAD DUP1 SWAP2 SUB SWAP1 REVERT JUMPDEST DUP1 MLOAD DUP2 PUSH1 0x20 ADD REVERT JUMPDEST PUSH4 0xBC197C81 PUSH1 0xE0 SHL PUSH28 0xFFFFFFFFFFFFFFFFFFFFFFFFFFFFFFFFFFFFFFFFFFFFFFFFFFFFFFFF NOT AND DUP2 PUSH28 0xFFFFFFFFFFFFFFFFFFFFFFFFFFFFFFFFFFFFFFFFFFFFFFFFFFFFFFFF NOT AND EQ PUSH2 0x1542 JUMPI DUP5 PUSH1 0x40 MLOAD PUSH32 0x57F447CE00000000000000000000000000000000000000000000000000000000 DUP2 MSTORE PUSH1 0x4 ADD PUSH2 0x1539 SWAP2 SWAP1 PUSH2 0x26EB JUMP JUMPDEST PUSH1 0x40 MLOAD DUP1 SWAP2 SUB SWAP1 REVERT JUMPDEST POP JUMPDEST POP POP POP POP POP POP JUMP JUMPDEST PUSH2 0x1558 DUP5 DUP5 DUP5 DUP5 PUSH2 0x16F5 JUMP JUMPDEST PUSH0 PUSH20 0xFFFFFFFFFFFFFFFFFFFFFFFFFFFFFFFFFFFFFFFF AND DUP5 PUSH20 0xFFFFFFFFFFFFFFFFFFFFFFFFFFFFFFFFFFFFFFFF AND SUB PUSH2 0x1631 JUMPI PUSH0 DUP1 JUMPDEST DUP4 MLOAD DUP2 LT ISZERO PUSH2 0x1616 JUMPI PUSH0 DUP4 DUP3 DUP2 MLOAD DUP2 LT PUSH2 0x15AB JUMPI PUSH2 0x15AA PUSH2 0x264A JUMP JUMPDEST JUMPDEST PUSH1 0x20 MUL PUSH1 0x20 ADD ADD MLOAD SWAP1 POP DUP1 PUSH1 0x3 PUSH0 DUP8 DUP6 DUP2 MLOAD DUP2 LT PUSH2 0x15CC JUMPI PUSH2 0x15CB PUSH2 0x264A JUMP JUMPDEST JUMPDEST PUSH1 0x20 MUL PUSH1 0x20 ADD ADD MLOAD DUP2 MSTORE PUSH1 0x20 ADD SWAP1 DUP2 MSTORE PUSH1 0x20 ADD PUSH0 KECCAK256 PUSH0 DUP3 DUP3 SLOAD PUSH2 0x15EF SWAP2 SWAP1 PUSH2 0x2853 JUMP JUMPDEST SWAP3 POP POP DUP2 SWAP1 SSTORE POP DUP1 DUP4 PUSH2 0x1602 SWAP2 SWAP1 PUSH2 0x2853 JUMP JUMPDEST SWAP3 POP POP DUP1 PUSH2 0x160F SWAP1 PUSH2 0x26A4 JUMP JUMPDEST SWAP1 POP PUSH2 0x158E JUMP JUMPDEST POP DUP1 PUSH1 0x4 PUSH0 DUP3 DUP3 SLOAD PUSH2 0x1628 SWAP2 SWAP1 PUSH2 0x2853 JUMP JUMPDEST SWAP3 POP POP DUP2 SWAP1 SSTORE POP POP JUMPDEST PUSH0 PUSH20 0xFFFFFFFFFFFFFFFFFFFFFFFFFFFFFFFFFFFFFFFF AND DUP4 PUSH20 0xFFFFFFFFFFFFFFFFFFFFFFFFFFFFFFFFFFFFFFFF AND SUB PUSH2 0x16EF JUMPI PUSH0 DUP1 JUMPDEST DUP4 MLOAD DUP2 LT ISZERO PUSH2 0x16DD JUMPI PUSH0 DUP4 DUP3 DUP2 MLOAD DUP2 LT PUSH2 0x1684 JUMPI PUSH2 0x1683 PUSH2 0x264A JUMP JUMPDEST JUMPDEST PUSH1 0x20 MUL PUSH1 0x20 ADD ADD MLOAD SWAP1 POP DUP1 PUSH1 0x3 PUSH0 DUP8 DUP6 DUP2 MLOAD DUP2 LT PUSH2 0x16A5 JUMPI PUSH2 0x16A4 PUSH2 0x264A JUMP JUMPDEST JUMPDEST PUSH1 0x20 MUL PUSH1 0x20 ADD ADD MLOAD DUP2 MSTORE PUSH1 0x20 ADD SWAP1 DUP2 MSTORE PUSH1 0x20 ADD PUSH0 KECCAK256 PUSH0 DUP3 DUP3 SLOAD SUB SWAP3 POP POP DUP2 SWAP1 SSTORE POP DUP1 DUP4 ADD SWAP3 POP POP DUP1 PUSH2 0x16D6 SWAP1 PUSH2 0x26A4 JUMP JUMPDEST SWAP1 POP PUSH2 0x1667 JUMP JUMPDEST POP DUP1 PUSH1 0x4 PUSH0 DUP3 DUP3 SLOAD SUB SWAP3 POP POP DUP2 SWAP1 SSTORE POP POP JUMPDEST POP POP POP POP JUMP JUMPDEST DUP1 MLOAD DUP3 MLOAD EQ PUSH2 0x173F JUMPI DUP2 MLOAD DUP2 MLOAD PUSH1 0x40 MLOAD PUSH32 0x5B05999100000000000000000000000000000000000000000000000000000000 DUP2 MSTORE PUSH1 0x4 ADD PUSH2 0x1736 SWAP3 SWAP2 SWAP1 PUSH2 0x2623 JUMP JUMPDEST PUSH1 0x40 MLOAD DUP1 SWAP2 SUB SWAP1 REVERT JUMPDEST PUSH0 PUSH2 0x1748 PUSH2 0xBA9 JUMP JUMPDEST SWAP1 POP PUSH0 JUMPDEST DUP4 MLOAD DUP2 LT ISZERO PUSH2 0x194A JUMPI PUSH0 PUSH2 0x1769 DUP3 DUP7 PUSH2 0xCB7 SWAP1 SWAP2 SWAP1 PUSH4 0xFFFFFFFF AND JUMP JUMPDEST SWAP1 POP PUSH0 PUSH2 0x177F DUP4 DUP7 PUSH2 0xCB7 SWAP1 SWAP2 SWAP1 PUSH4 0xFFFFFFFF AND JUMP JUMPDEST SWAP1 POP PUSH0 PUSH20 0xFFFFFFFFFFFFFFFFFFFFFFFFFFFFFFFFFFFFFFFF AND DUP9 PUSH20 0xFFFFFFFFFFFFFFFFFFFFFFFFFFFFFFFFFFFFFFFF AND EQ PUSH2 0x18A2 JUMPI PUSH0 DUP1 PUSH0 DUP5 DUP2 MSTORE PUSH1 0x20 ADD SWAP1 DUP2 MSTORE PUSH1 0x20 ADD PUSH0 KECCAK256 PUSH0 DUP11 PUSH20 0xFFFFFFFFFFFFFFFFFFFFFFFFFFFFFFFFFFFFFFFF AND PUSH20 0xFFFFFFFFFFFFFFFFFFFFFFFFFFFFFFFFFFFFFFFF AND DUP2 MSTORE PUSH1 0x20 ADD SWAP1 DUP2 MSTORE PUSH1 0x20 ADD PUSH0 KECCAK256 SLOAD SWAP1 POP DUP2 DUP2 LT ISZERO PUSH2 0x184E JUMPI DUP9 DUP2 DUP4 DUP6 PUSH1 0x40 MLOAD PUSH32 0x3DEE4C500000000000000000000000000000000000000000000000000000000 DUP2 MSTORE PUSH1 0x4 ADD PUSH2 0x1845 SWAP5 SWAP4 SWAP3 SWAP2 SWAP1 PUSH2 0x2886 JUMP JUMPDEST PUSH1 0x40 MLOAD DUP1 SWAP2 SUB SWAP1 REVERT JUMPDEST DUP2 DUP2 SUB PUSH0 DUP1 DUP6 DUP2 MSTORE PUSH1 0x20 ADD SWAP1 DUP2 MSTORE PUSH1 0x20 ADD PUSH0 KECCAK256 PUSH0 DUP12 PUSH20 0xFFFFFFFFFFFFFFFFFFFFFFFFFFFFFFFFFFFFFFFF AND PUSH20 0xFFFFFFFFFFFFFFFFFFFFFFFFFFFFFFFFFFFFFFFF AND DUP2 MSTORE PUSH1 0x20 ADD SWAP1 DUP2 MSTORE PUSH1 0x20 ADD PUSH0 KECCAK256 DUP2 SWAP1 SSTORE POP POP JUMPDEST PUSH0 PUSH20 0xFFFFFFFFFFFFFFFFFFFFFFFFFFFFFFFFFFFFFFFF AND DUP8 PUSH20 0xFFFFFFFFFFFFFFFFFFFFFFFFFFFFFFFFFFFFFFFF AND EQ PUSH2 0x1937 JUMPI DUP1 PUSH0 DUP1 DUP5 DUP2 MSTORE PUSH1 0x20 ADD SWAP1 DUP2 MSTORE PUSH1 0x20 ADD PUSH0 KECCAK256 PUSH0 DUP10 PUSH20 0xFFFFFFFFFFFFFFFFFFFFFFFFFFFFFFFFFFFFFFFF AND PUSH20 0xFFFFFFFFFFFFFFFFFFFFFFFFFFFFFFFFFFFFFFFF AND DUP2 MSTORE PUSH1 0x20 ADD SWAP1 DUP2 MSTORE PUSH1 0x20 ADD PUSH0 KECCAK256 PUSH0 DUP3 DUP3 SLOAD PUSH2 0x192F SWAP2 SWAP1 PUSH2 0x2853 JUMP JUMPDEST SWAP3 POP POP DUP2 SWAP1 SSTORE POP JUMPDEST POP POP DUP1 PUSH2 0x1943 SWAP1 PUSH2 0x26A4 JUMP JUMPDEST SWAP1 POP PUSH2 0x174C JUMP JUMPDEST POP PUSH1 0x1 DUP4 MLOAD SUB PUSH2 0x1A05 JUMPI PUSH0 PUSH2 0x1968 PUSH0 DUP6 PUSH2 0xCB7 SWAP1 SWAP2 SWAP1 PUSH4 0xFFFFFFFF AND JUMP JUMPDEST SWAP1 POP PUSH0 PUSH2 0x197E PUSH0 DUP6 PUSH2 0xCB7 SWAP1 SWAP2 SWAP1 PUSH4 0xFFFFFFFF AND JUMP JUMPDEST SWAP1 POP DUP6 PUSH20 0xFFFFFFFFFFFFFFFFFFFFFFFFFFFFFFFFFFFFFFFF AND DUP8 PUSH20 0xFFFFFFFFFFFFFFFFFFFFFFFFFFFFFFFFFFFFFFFF AND DUP5 PUSH20 0xFFFFFFFFFFFFFFFFFFFFFFFFFFFFFFFFFFFFFFFF AND PUSH32 0xC3D58168C5AE7397731D063D5BBF3D657854427343F4C083240F7AACAA2D0F62 DUP6 DUP6 PUSH1 0x40 MLOAD PUSH2 0x19F6 SWAP3 SWAP2 SWAP1 PUSH2 0x2623 JUMP JUMPDEST PUSH1 0x40 MLOAD DUP1 SWAP2 SUB SWAP1 LOG4 POP POP PUSH2 0x1A84 JUMP JUMPDEST DUP4 PUSH20 0xFFFFFFFFFFFFFFFFFFFFFFFFFFFFFFFFFFFFFFFF AND DUP6 PUSH20 0xFFFFFFFFFFFFFFFFFFFFFFFFFFFFFFFFFFFFFFFF AND DUP3 PUSH20 0xFFFFFFFFFFFFFFFFFFFFFFFFFFFFFFFFFFFFFFFF AND PUSH32 0x4A39DC06D4C0DBC64B70AF90FD698A233A518AA5D07E595D983B8C0526C8F7FB DUP7 DUP7 PUSH1 0x40 MLOAD PUSH2 0x1A7B SWAP3 SWAP2 SWAP1 PUSH2 0x28C9 JUMP JUMPDEST PUSH1 0x40 MLOAD DUP1 SWAP2 SUB SWAP1 LOG4 JUMPDEST POP POP POP POP POP JUMP JUMPDEST PUSH0 PUSH1 0x40 MLOAD SWAP1 POP SWAP1 JUMP JUMPDEST PUSH0 DUP1 REVERT JUMPDEST PUSH0 DUP1 REVERT JUMPDEST PUSH0 PUSH20 0xFFFFFFFFFFFFFFFFFFFFFFFFFFFFFFFFFFFFFFFF DUP3 AND SWAP1 POP SWAP2 SWAP1 POP JUMP JUMPDEST PUSH0 PUSH2 0x1AC5 DUP3 PUSH2 0x1A9C JUMP JUMPDEST SWAP1 POP SWAP2 SWAP1 POP JUMP JUMPDEST PUSH2 0x1AD5 DUP2 PUSH2 0x1ABB JUMP JUMPDEST DUP2 EQ PUSH2 0x1ADF JUMPI PUSH0 DUP1 REVERT JUMPDEST POP JUMP JUMPDEST PUSH0 DUP2 CALLDATALOAD SWAP1 POP PUSH2 0x1AF0 DUP2 PUSH2 0x1ACC JUMP JUMPDEST SWAP3 SWAP2 POP POP JUMP JUMPDEST PUSH0 DUP2 SWAP1 POP SWAP2 SWAP1 POP JUMP JUMPDEST PUSH2 0x1B08 DUP2 PUSH2 0x1AF6 JUMP JUMPDEST DUP2 EQ PUSH2 0x1B12 JUMPI PUSH0 DUP1 REVERT JUMPDEST POP JUMP JUMPDEST PUSH0 DUP2 CALLDATALOAD SWAP1 POP PUSH2 0x1B23 DUP2 PUSH2 0x1AFF JUMP JUMPDEST SWAP3 SWAP2 POP POP JUMP JUMPDEST PUSH0 DUP1 PUSH1 0x40 DUP4 DUP6 SUB SLT ISZERO PUSH2 0x1B3F JUMPI PUSH2 0x1B3E PUSH2 0x1A94 JUMP JUMPDEST JUMPDEST PUSH0 PUSH2 0x1B4C DUP6 DUP3 DUP7 ADD PUSH2 0x1AE2 JUMP JUMPDEST SWAP3 POP POP PUSH1 0x20 PUSH2 0x1B5D DUP6 DUP3 DUP7 ADD PUSH2 0x1B15 JUMP JUMPDEST SWAP2 POP POP SWAP3 POP SWAP3 SWAP1 POP JUMP JUMPDEST PUSH2 0x1B70 DUP2 PUSH2 0x1AF6 JUMP JUMPDEST DUP3 MSTORE POP POP JUMP JUMPDEST PUSH0 PUSH1 0x20 DUP3 ADD SWAP1 POP PUSH2 0x1B89 PUSH0 DUP4 ADD DUP5 PUSH2 0x1B67 JUMP JUMPDEST SWAP3 SWAP2 POP POP JUMP JUMPDEST PUSH0 PUSH32 0xFFFFFFFF00000000000000000000000000000000000000000000000000000000 DUP3 AND SWAP1 POP SWAP2 SWAP1 POP JUMP JUMPDEST PUSH2 0x1BC3 DUP2 PUSH2 0x1B8F JUMP JUMPDEST DUP2 EQ PUSH2 0x1BCD JUMPI PUSH0 DUP1 REVERT JUMPDEST POP JUMP JUMPDEST PUSH0 DUP2 CALLDATALOAD SWAP1 POP PUSH2 0x1BDE DUP2 PUSH2 0x1BBA JUMP JUMPDEST SWAP3 SWAP2 POP POP JUMP JUMPDEST PUSH0 PUSH1 0x20 DUP3 DUP5 SUB SLT ISZERO PUSH2 0x1BF9 JUMPI PUSH2 0x1BF8 PUSH2 0x1A94 JUMP JUMPDEST JUMPDEST PUSH0 PUSH2 0x1C06 DUP5 DUP3 DUP6 ADD PUSH2 0x1BD0 JUMP JUMPDEST SWAP2 POP POP SWAP3 SWAP2 POP POP JUMP JUMPDEST PUSH0 DUP2 ISZERO ISZERO SWAP1 POP SWAP2 SWAP1 POP JUMP JUMPDEST PUSH2 0x1C23 DUP2 PUSH2 0x1C0F JUMP JUMPDEST DUP3 MSTORE POP POP JUMP JUMPDEST PUSH0 PUSH1 0x20 DUP3 ADD SWAP1 POP PUSH2 0x1C3C PUSH0 DUP4 ADD DUP5 PUSH2 0x1C1A JUMP JUMPDEST SWAP3 SWAP2 POP POP JUMP JUMPDEST PUSH0 PUSH1 0x20 DUP3 DUP5 SUB SLT ISZERO PUSH2 0x1C57 JUMPI PUSH2 0x1C56 PUSH2 0x1A94 JUMP JUMPDEST JUMPDEST PUSH0 PUSH2 0x1C64 DUP5 DUP3 DUP6 ADD PUSH2 0x1B15 JUMP JUMPDEST SWAP2 POP POP SWAP3 SWAP2 POP POP JUMP JUMPDEST PUSH0 DUP2 MLOAD SWAP1 POP SWAP2 SWAP1 POP JUMP JUMPDEST PUSH0 DUP3 DUP3 MSTORE PUSH1 0x20 DUP3 ADD SWAP1 POP SWAP3 SWAP2 POP POP JUMP JUMPDEST PUSH0 JUMPDEST DUP4 DUP2 LT ISZERO PUSH2 0x1CA4 JUMPI DUP1 DUP3 ADD MLOAD DUP2 DUP5 ADD MSTORE PUSH1 0x20 DUP2 ADD SWAP1 POP PUSH2 0x1C89 JUMP JUMPDEST PUSH0 DUP5 DUP5 ADD MSTORE POP POP POP POP JUMP JUMPDEST PUSH0 PUSH1 0x1F NOT PUSH1 0x1F DUP4 ADD AND SWAP1 POP SWAP2 SWAP1 POP JUMP JUMPDEST PUSH0 PUSH2 0x1CC9 DUP3 PUSH2 0x1C6D JUMP JUMPDEST PUSH2 0x1CD3 DUP2 DUP6 PUSH2 0x1C77 JUMP JUMPDEST SWAP4 POP PUSH2 0x1CE3 DUP2 DUP6 PUSH1 0x20 DUP7 ADD PUSH2 0x1C87 JUMP JUMPDEST PUSH2 0x1CEC DUP2 PUSH2 0x1CAF JUMP JUMPDEST DUP5 ADD SWAP2 POP POP SWAP3 SWAP2 POP POP JUMP JUMPDEST PUSH0 PUSH1 0x20 DUP3 ADD SWAP1 POP DUP2 DUP2 SUB PUSH0 DUP4 ADD MSTORE PUSH2 0x1D0F DUP2 DUP5 PUSH2 0x1CBF JUMP JUMPDEST SWAP1 POP SWAP3 SWAP2 POP POP JUMP JUMPDEST PUSH0 DUP1 REVERT JUMPDEST PUSH32 0x4E487B7100000000000000000000000000000000000000000000000000000000 PUSH0 MSTORE PUSH1 0x41 PUSH1 0x4 MSTORE PUSH1 0x24 PUSH0 REVERT JUMPDEST PUSH2 0x1D51 DUP3 PUSH2 0x1CAF JUMP JUMPDEST DUP2 ADD DUP2 DUP2 LT PUSH8 0xFFFFFFFFFFFFFFFF DUP3 GT OR ISZERO PUSH2 0x1D70 JUMPI PUSH2 0x1D6F PUSH2 0x1D1B JUMP JUMPDEST JUMPDEST DUP1 PUSH1 0x40 MSTORE POP POP POP JUMP JUMPDEST PUSH0 PUSH2 0x1D82 PUSH2 0x1A8B JUMP JUMPDEST SWAP1 POP PUSH2 0x1D8E DUP3 DUP3 PUSH2 0x1D48 JUMP JUMPDEST SWAP2 SWAP1 POP JUMP JUMPDEST PUSH0 PUSH8 0xFFFFFFFFFFFFFFFF DUP3 GT ISZERO PUSH2 0x1DAD JUMPI PUSH2 0x1DAC PUSH2 0x1D1B JUMP JUMPDEST JUMPDEST PUSH1 0x20 DUP3 MUL SWAP1 POP PUSH1 0x20 DUP2 ADD SWAP1 POP SWAP2 SWAP1 POP JUMP JUMPDEST PUSH0 DUP1 REVERT JUMPDEST PUSH0 PUSH2 0x1DD4 PUSH2 0x1DCF DUP5 PUSH2 0x1D93 JUMP JUMPDEST PUSH2 0x1D79 JUMP JUMPDEST SWAP1 POP DUP1 DUP4 DUP3 MSTORE PUSH1 0x20 DUP3 ADD SWAP1 POP PUSH1 0x20 DUP5 MUL DUP4 ADD DUP6 DUP2 GT ISZERO PUSH2 0x1DF7 JUMPI PUSH2 0x1DF6 PUSH2 0x1DBE JUMP JUMPDEST JUMPDEST DUP4 JUMPDEST DUP2 DUP2 LT ISZERO PUSH2 0x1E20 JUMPI DUP1 PUSH2 0x1E0C DUP9 DUP3 PUSH2 0x1B15 JUMP JUMPDEST DUP5 MSTORE PUSH1 0x20 DUP5 ADD SWAP4 POP POP PUSH1 0x20 DUP2 ADD SWAP1 POP PUSH2 0x1DF9 JUMP JUMPDEST POP POP POP SWAP4 SWAP3 POP POP POP JUMP JUMPDEST PUSH0 DUP3 PUSH1 0x1F DUP4 ADD SLT PUSH2 0x1E3E JUMPI PUSH2 0x1E3D PUSH2 0x1D17 JUMP JUMPDEST JUMPDEST DUP2 CALLDATALOAD PUSH2 0x1E4E DUP5 DUP3 PUSH1 0x20 DUP7 ADD PUSH2 0x1DC2 JUMP JUMPDEST SWAP2 POP POP SWAP3 SWAP2 POP POP JUMP JUMPDEST PUSH0 DUP1 REVERT JUMPDEST PUSH0 PUSH8 0xFFFFFFFFFFFFFFFF DUP3 GT ISZERO PUSH2 0x1E75 JUMPI PUSH2 0x1E74 PUSH2 0x1D1B JUMP JUMPDEST JUMPDEST PUSH2 0x1E7E DUP3 PUSH2 0x1CAF JUMP JUMPDEST SWAP1 POP PUSH1 0x20 DUP2 ADD SWAP1 POP SWAP2 SWAP1 POP JUMP JUMPDEST DUP3 DUP2 DUP4 CALLDATACOPY PUSH0 DUP4 DUP4 ADD MSTORE POP POP POP JUMP JUMPDEST PUSH0 PUSH2 0x1EAB PUSH2 0x1EA6 DUP5 PUSH2 0x1E5B JUMP JUMPDEST PUSH2 0x1D79 JUMP JUMPDEST SWAP1 POP DUP3 DUP2 MSTORE PUSH1 0x20 DUP2 ADD DUP5 DUP5 DUP5 ADD GT ISZERO PUSH2 0x1EC7 JUMPI PUSH2 0x1EC6 PUSH2 0x1E57 JUMP JUMPDEST JUMPDEST PUSH2 0x1ED2 DUP5 DUP3 DUP6 PUSH2 0x1E8B JUMP JUMPDEST POP SWAP4 SWAP3 POP POP POP JUMP JUMPDEST PUSH0 DUP3 PUSH1 0x1F DUP4 ADD SLT PUSH2 0x1EEE JUMPI PUSH2 0x1EED PUSH2 0x1D17 JUMP JUMPDEST JUMPDEST DUP2 CALLDATALOAD PUSH2 0x1EFE DUP5 DUP3 PUSH1 0x20 DUP7 ADD PUSH2 0x1E99 JUMP JUMPDEST SWAP2 POP POP SWAP3 SWAP2 POP POP JUMP JUMPDEST PUSH0 DUP1 PUSH0 DUP1 PUSH1 0x80 DUP6 DUP8 SUB SLT ISZERO PUSH2 0x1F1F JUMPI PUSH2 0x1F1E PUSH2 0x1A94 JUMP JUMPDEST JUMPDEST PUSH0 PUSH2 0x1F2C DUP8 DUP3 DUP9 ADD PUSH2 0x1AE2 JUMP JUMPDEST SWAP5 POP POP PUSH1 0x20 DUP6 ADD CALLDATALOAD PUSH8 0xFFFFFFFFFFFFFFFF DUP2 GT ISZERO PUSH2 0x1F4D JUMPI PUSH2 0x1F4C PUSH2 0x1A98 JUMP JUMPDEST JUMPDEST PUSH2 0x1F59 DUP8 DUP3 DUP9 ADD PUSH2 0x1E2A JUMP JUMPDEST SWAP4 POP POP PUSH1 0x40 DUP6 ADD CALLDATALOAD PUSH8 0xFFFFFFFFFFFFFFFF DUP2 GT ISZERO PUSH2 0x1F7A JUMPI PUSH2 0x1F79 PUSH2 0x1A98 JUMP JUMPDEST JUMPDEST PUSH2 0x1F86 DUP8 DUP3 DUP9 ADD PUSH2 0x1E2A JUMP JUMPDEST SWAP3 POP POP PUSH1 0x60 DUP6 ADD CALLDATALOAD PUSH8 0xFFFFFFFFFFFFFFFF DUP2 GT ISZERO PUSH2 0x1FA7 JUMPI PUSH2 0x1FA6 PUSH2 0x1A98 JUMP JUMPDEST JUMPDEST PUSH2 0x1FB3 DUP8 DUP3 DUP9 ADD PUSH2 0x1EDA JUMP JUMPDEST SWAP2 POP POP SWAP3 SWAP6 SWAP2 SWAP5 POP SWAP3 POP JUMP JUMPDEST PUSH0 DUP1 PUSH0 DUP1 PUSH0 PUSH1 0xA0 DUP7 DUP9 SUB SLT ISZERO PUSH2 0x1FD8 JUMPI PUSH2 0x1FD7 PUSH2 0x1A94 JUMP JUMPDEST JUMPDEST PUSH0 PUSH2 0x1FE5 DUP9 DUP3 DUP10 ADD PUSH2 0x1AE2 JUMP JUMPDEST SWAP6 POP POP PUSH1 0x20 PUSH2 0x1FF6 DUP9 DUP3 DUP10 ADD PUSH2 0x1AE2 JUMP JUMPDEST SWAP5 POP POP PUSH1 0x40 DUP7 ADD CALLDATALOAD PUSH8 0xFFFFFFFFFFFFFFFF DUP2 GT ISZERO PUSH2 0x2017 JUMPI PUSH2 0x2016 PUSH2 0x1A98 JUMP JUMPDEST JUMPDEST PUSH2 0x2023 DUP9 DUP3 DUP10 ADD PUSH2 0x1E2A JUMP JUMPDEST SWAP4 POP POP PUSH1 0x60 DUP7 ADD CALLDATALOAD PUSH8 0xFFFFFFFFFFFFFFFF DUP2 GT ISZERO PUSH2 0x2044 JUMPI PUSH2 0x2043 PUSH2 0x1A98 JUMP JUMPDEST JUMPDEST PUSH2 0x2050 DUP9 DUP3 DUP10 ADD PUSH2 0x1E2A JUMP JUMPDEST SWAP3 POP POP PUSH1 0x80 DUP7 ADD CALLDATALOAD PUSH8 0xFFFFFFFFFFFFFFFF DUP2 GT ISZERO PUSH2 0x2071 JUMPI PUSH2 0x2070 PUSH2 0x1A98 JUMP JUMPDEST JUMPDEST PUSH2 0x207D DUP9 DUP3 DUP10 ADD PUSH2 0x1EDA JUMP JUMPDEST SWAP2 POP POP SWAP3 SWAP6 POP SWAP3 SWAP6 SWAP1 SWAP4 POP JUMP JUMPDEST PUSH0 PUSH8 0xFFFFFFFFFFFFFFFF DUP3 GT ISZERO PUSH2 0x20A4 JUMPI PUSH2 0x20A3 PUSH2 0x1D1B JUMP JUMPDEST JUMPDEST PUSH1 0x20 DUP3 MUL SWAP1 POP PUSH1 0x20 DUP2 ADD SWAP1 POP SWAP2 SWAP1 POP JUMP JUMPDEST PUSH0 PUSH2 0x20C7 PUSH2 0x20C2 DUP5 PUSH2 0x208A JUMP JUMPDEST PUSH2 0x1D79 JUMP JUMPDEST SWAP1 POP DUP1 DUP4 DUP3 MSTORE PUSH1 0x20 DUP3 ADD SWAP1 POP PUSH1 0x20 DUP5 MUL DUP4 ADD DUP6 DUP2 GT ISZERO PUSH2 0x20EA JUMPI PUSH2 0x20E9 PUSH2 0x1DBE JUMP JUMPDEST JUMPDEST DUP4 JUMPDEST DUP2 DUP2 LT ISZERO PUSH2 0x2113 JUMPI DUP1 PUSH2 0x20FF DUP9 DUP3 PUSH2 0x1AE2 JUMP JUMPDEST DUP5 MSTORE PUSH1 0x20 DUP5 ADD SWAP4 POP POP PUSH1 0x20 DUP2 ADD SWAP1 POP PUSH2 0x20EC JUMP JUMPDEST POP POP POP SWAP4 SWAP3 POP POP POP JUMP JUMPDEST PUSH0 DUP3 PUSH1 0x1F DUP4 ADD SLT PUSH2 0x2131 JUMPI PUSH2 0x2130 PUSH2 0x1D17 JUMP JUMPDEST JUMPDEST DUP2 CALLDATALOAD PUSH2 0x2141 DUP5 DUP3 PUSH1 0x20 DUP7 ADD PUSH2 0x20B5 JUMP JUMPDEST SWAP2 POP POP SWAP3 SWAP2 POP POP JUMP JUMPDEST PUSH0 DUP1 PUSH1 0x40 DUP4 DUP6 SUB SLT ISZERO PUSH2 0x2160 JUMPI PUSH2 0x215F PUSH2 0x1A94 JUMP JUMPDEST JUMPDEST PUSH0 DUP4 ADD CALLDATALOAD PUSH8 0xFFFFFFFFFFFFFFFF DUP2 GT ISZERO PUSH2 0x217D JUMPI PUSH2 0x217C PUSH2 0x1A98 JUMP JUMPDEST JUMPDEST PUSH2 0x2189 DUP6 DUP3 DUP7 ADD PUSH2 0x211D JUMP JUMPDEST SWAP3 POP POP PUSH1 0x20 DUP4 ADD CALLDATALOAD PUSH8 0xFFFFFFFFFFFFFFFF DUP2 GT ISZERO PUSH2 0x21AA JUMPI PUSH2 0x21A9 PUSH2 0x1A98 JUMP JUMPDEST JUMPDEST PUSH2 0x21B6 DUP6 DUP3 DUP7 ADD PUSH2 0x1E2A JUMP JUMPDEST SWAP2 POP POP SWAP3 POP SWAP3 SWAP1 POP JUMP JUMPDEST PUSH0 DUP2 MLOAD SWAP1 POP SWAP2 SWAP1 POP JUMP JUMPDEST PUSH0 DUP3 DUP3 MSTORE PUSH1 0x20 DUP3 ADD SWAP1 POP SWAP3 SWAP2 POP POP JUMP JUMPDEST PUSH0 DUP2 SWAP1 POP PUSH1 0x20 DUP3 ADD SWAP1 POP SWAP2 SWAP1 POP JUMP JUMPDEST PUSH2 0x21F2 DUP2 PUSH2 0x1AF6 JUMP JUMPDEST DUP3 MSTORE POP POP JUMP JUMPDEST PUSH0 PUSH2 0x2203 DUP4 DUP4 PUSH2 0x21E9 JUMP JUMPDEST PUSH1 0x20 DUP4 ADD SWAP1 POP SWAP3 SWAP2 POP POP JUMP JUMPDEST PUSH0 PUSH1 0x20 DUP3 ADD SWAP1 POP SWAP2 SWAP1 POP JUMP JUMPDEST PUSH0 PUSH2 0x2225 DUP3 PUSH2 0x21C0 JUMP JUMPDEST PUSH2 0x222F DUP2 DUP6 PUSH2 0x21CA JUMP JUMPDEST SWAP4 POP PUSH2 0x223A DUP4 PUSH2 0x21DA JUMP JUMPDEST DUP1 PUSH0 JUMPDEST DUP4 DUP2 LT ISZERO PUSH2 0x226A JUMPI DUP2 MLOAD PUSH2 0x2251 DUP9 DUP3 PUSH2 0x21F8 JUMP JUMPDEST SWAP8 POP PUSH2 0x225C DUP4 PUSH2 0x220F JUMP JUMPDEST SWAP3 POP POP PUSH1 0x1 DUP2 ADD SWAP1 POP PUSH2 0x223D JUMP JUMPDEST POP DUP6 SWAP4 POP POP POP POP SWAP3 SWAP2 POP POP JUMP JUMPDEST PUSH0 PUSH1 0x20 DUP3 ADD SWAP1 POP DUP2 DUP2 SUB PUSH0 DUP4 ADD MSTORE PUSH2 0x228F DUP2 DUP5 PUSH2 0x221B JUMP JUMPDEST SWAP1 POP SWAP3 SWAP2 POP POP JUMP JUMPDEST PUSH0 DUP1 PUSH0 PUSH1 0x60 DUP5 DUP7 SUB SLT ISZERO PUSH2 0x22AE JUMPI PUSH2 0x22AD PUSH2 0x1A94 JUMP JUMPDEST JUMPDEST PUSH0 PUSH2 0x22BB DUP7 DUP3 DUP8 ADD PUSH2 0x1AE2 JUMP JUMPDEST SWAP4 POP POP PUSH1 0x20 DUP5 ADD CALLDATALOAD PUSH8 0xFFFFFFFFFFFFFFFF DUP2 GT ISZERO PUSH2 0x22DC JUMPI PUSH2 0x22DB PUSH2 0x1A98 JUMP JUMPDEST JUMPDEST PUSH2 0x22E8 DUP7 DUP3 DUP8 ADD PUSH2 0x1E2A JUMP JUMPDEST SWAP3 POP POP PUSH1 0x40 DUP5 ADD CALLDATALOAD PUSH8 0xFFFFFFFFFFFFFFFF DUP2 GT ISZERO PUSH2 0x2309 JUMPI PUSH2 0x2308 PUSH2 0x1A98 JUMP JUMPDEST JUMPDEST PUSH2 0x2315 DUP7 DUP3 DUP8 ADD PUSH2 0x1E2A JUMP JUMPDEST SWAP2 POP POP SWAP3 POP SWAP3 POP SWAP3 JUMP JUMPDEST PUSH0 DUP1 PUSH0 DUP1 PUSH1 0x80 DUP6 DUP8 SUB SLT ISZERO PUSH2 0x2337 JUMPI PUSH2 0x2336 PUSH2 0x1A94 JUMP JUMPDEST JUMPDEST PUSH0 PUSH2 0x2344 DUP8 DUP3 DUP9 ADD PUSH2 0x1AE2 JUMP JUMPDEST SWAP5 POP POP PUSH1 0x20 PUSH2 0x2355 DUP8 DUP3 DUP9 ADD PUSH2 0x1B15 JUMP JUMPDEST SWAP4 POP POP PUSH1 0x40 PUSH2 0x2366 DUP8 DUP3 DUP9 ADD PUSH2 0x1B15 JUMP JUMPDEST SWAP3 POP POP PUSH1 0x60 DUP6 ADD CALLDATALOAD PUSH8 0xFFFFFFFFFFFFFFFF DUP2 GT ISZERO PUSH2 0x2387 JUMPI PUSH2 0x2386 PUSH2 0x1A98 JUMP JUMPDEST JUMPDEST PUSH2 0x2393 DUP8 DUP3 DUP9 ADD PUSH2 0x1EDA JUMP JUMPDEST SWAP2 POP POP SWAP3 SWAP6 SWAP2 SWAP5 POP SWAP3 POP JUMP JUMPDEST PUSH2 0x23A8 DUP2 PUSH2 0x1C0F JUMP JUMPDEST DUP2 EQ PUSH2 0x23B2 JUMPI PUSH0 DUP1 REVERT JUMPDEST POP JUMP JUMPDEST PUSH0 DUP2 CALLDATALOAD SWAP1 POP PUSH2 0x23C3 DUP2 PUSH2 0x239F JUMP JUMPDEST SWAP3 SWAP2 POP POP JUMP JUMPDEST PUSH0 DUP1 PUSH1 0x40 DUP4 DUP6 SUB SLT ISZERO PUSH2 0x23DF JUMPI PUSH2 0x23DE PUSH2 0x1A94 JUMP JUMPDEST JUMPDEST PUSH0 PUSH2 0x23EC DUP6 DUP3 DUP7 ADD PUSH2 0x1AE2 JUMP JUMPDEST SWAP3 POP POP PUSH1 0x20 PUSH2 0x23FD DUP6 DUP3 DUP7 ADD PUSH2 0x23B5 JUMP JUMPDEST SWAP2 POP POP SWAP3 POP SWAP3 SWAP1 POP JUMP JUMPDEST PUSH0 DUP1 PUSH1 0x40 DUP4 DUP6 SUB SLT ISZERO PUSH2 0x241D JUMPI PUSH2 0x241C PUSH2 0x1A94 JUMP JUMPDEST JUMPDEST PUSH0 PUSH2 0x242A DUP6 DUP3 DUP7 ADD PUSH2 0x1AE2 JUMP JUMPDEST SWAP3 POP POP PUSH1 0x20 PUSH2 0x243B DUP6 DUP3 DUP7 ADD PUSH2 0x1AE2 JUMP JUMPDEST SWAP2 POP POP SWAP3 POP SWAP3 SWAP1 POP JUMP JUMPDEST PUSH0 DUP1 PUSH0 DUP1 PUSH0 PUSH1 0xA0 DUP7 DUP9 SUB SLT ISZERO PUSH2 0x245E JUMPI PUSH2 0x245D PUSH2 0x1A94 JUMP JUMPDEST JUMPDEST PUSH0 PUSH2 0x246B DUP9 DUP3 DUP10 ADD PUSH2 0x1AE2 JUMP JUMPDEST SWAP6 POP POP PUSH1 0x20 PUSH2 0x247C DUP9 DUP3 DUP10 ADD PUSH2 0x1AE2 JUMP JUMPDEST SWAP5 POP POP PUSH1 0x40 PUSH2 0x248D DUP9 DUP3 DUP10 ADD PUSH2 0x1B15 JUMP JUMPDEST SWAP4 POP POP PUSH1 0x60 PUSH2 0x249E DUP9 DUP3 DUP10 ADD PUSH2 0x1B15 JUMP JUMPDEST SWAP3 POP POP PUSH1 0x80 DUP7 ADD CALLDATALOAD PUSH8 0xFFFFFFFFFFFFFFFF DUP2 GT ISZERO PUSH2 0x24BF JUMPI PUSH2 0x24BE PUSH2 0x1A98 JUMP JUMPDEST JUMPDEST PUSH2 0x24CB DUP9 DUP3 DUP10 ADD PUSH2 0x1EDA JUMP JUMPDEST SWAP2 POP POP SWAP3 SWAP6 POP SWAP3 SWAP6 SWAP1 SWAP4 POP JUMP JUMPDEST PUSH0 DUP1 PUSH0 PUSH1 0x60 DUP5 DUP7 SUB SLT ISZERO PUSH2 0x24EF JUMPI PUSH2 0x24EE PUSH2 0x1A94 JUMP JUMPDEST JUMPDEST PUSH0 PUSH2 0x24FC DUP7 DUP3 DUP8 ADD PUSH2 0x1AE2 JUMP JUMPDEST SWAP4 POP POP PUSH1 0x20 PUSH2 0x250D DUP7 DUP3 DUP8 ADD PUSH2 0x1B15 JUMP JUMPDEST SWAP3 POP POP PUSH1 0x40 PUSH2 0x251E DUP7 DUP3 DUP8 ADD PUSH2 0x1B15 JUMP JUMPDEST SWAP2 POP POP SWAP3 POP SWAP3 POP SWAP3 JUMP JUMPDEST PUSH32 0x4E487B7100000000000000000000000000000000000000000000000000000000 PUSH0 MSTORE PUSH1 0x22 PUSH1 0x4 MSTORE PUSH1 0x24 PUSH0 REVERT JUMPDEST PUSH0 PUSH1 0x2 DUP3 DIV SWAP1 POP PUSH1 0x1 DUP3 AND DUP1 PUSH2 0x256C JUMPI PUSH1 0x7F DUP3 AND SWAP2 POP JUMPDEST PUSH1 0x20 DUP3 LT DUP2 SUB PUSH2 0x257F JUMPI PUSH2 0x257E PUSH2 0x2528 JUMP JUMPDEST JUMPDEST POP SWAP2 SWAP1 POP JUMP JUMPDEST PUSH32 0x4F6E6C792067616D6520636F6E74726163742063616E2063616C6C2E00000000 PUSH0 DUP3 ADD MSTORE POP JUMP JUMPDEST PUSH0 PUSH2 0x25B9 PUSH1 0x1C DUP4 PUSH2 0x1C77 JUMP JUMPDEST SWAP2 POP PUSH2 0x25C4 DUP3 PUSH2 0x2585 JUMP JUMPDEST PUSH1 0x20 DUP3 ADD SWAP1 POP SWAP2 SWAP1 POP JUMP JUMPDEST PUSH0 PUSH1 0x20 DUP3 ADD SWAP1 POP DUP2 DUP2 SUB PUSH0 DUP4 ADD MSTORE PUSH2 0x25E6 DUP2 PUSH2 0x25AD JUMP JUMPDEST SWAP1 POP SWAP2 SWAP1 POP JUMP JUMPDEST PUSH2 0x25F6 DUP2 PUSH2 0x1ABB JUMP JUMPDEST DUP3 MSTORE POP POP JUMP JUMPDEST PUSH0 PUSH1 0x40 DUP3 ADD SWAP1 POP PUSH2 0x260F PUSH0 DUP4 ADD DUP6 PUSH2 0x25ED JUMP JUMPDEST PUSH2 0x261C PUSH1 0x20 DUP4 ADD DUP5 PUSH2 0x25ED JUMP JUMPDEST SWAP4 SWAP3 POP POP POP JUMP JUMPDEST PUSH0 PUSH1 0x40 DUP3 ADD SWAP1 POP PUSH2 0x2636 PUSH0 DUP4 ADD DUP6 PUSH2 0x1B67 JUMP JUMPDEST PUSH2 0x2643 PUSH1 0x20 DUP4 ADD DUP5 PUSH2 0x1B67 JUMP JUMPDEST SWAP4 SWAP3 POP POP POP JUMP JUMPDEST PUSH32 0x4E487B7100000000000000000000000000000000000000000000000000000000 PUSH0 MSTORE PUSH1 0x32 PUSH1 0x4 MSTORE PUSH1 0x24 PUSH0 REVERT JUMPDEST PUSH32 0x4E487B7100000000000000000000000000000000000000000000000000000000 PUSH0 MSTORE PUSH1 0x11 PUSH1 0x4 MSTORE PUSH1 0x24 PUSH0 REVERT JUMPDEST PUSH0 PUSH2 0x26AE DUP3 PUSH2 0x1AF6 JUMP JUMPDEST SWAP2 POP PUSH32 0xFFFFFFFFFFFFFFFFFFFFFFFFFFFFFFFFFFFFFFFFFFFFFFFFFFFFFFFFFFFFFFFF DUP3 SUB PUSH2 0x26E0 JUMPI PUSH2 0x26DF PUSH2 0x2677 JUMP JUMPDEST JUMPDEST PUSH1 0x1 DUP3 ADD SWAP1 POP SWAP2 SWAP1 POP JUMP JUMPDEST PUSH0 PUSH1 0x20 DUP3 ADD SWAP1 POP PUSH2 0x26FE PUSH0 DUP4 ADD DUP5 PUSH2 0x25ED JUMP JUMPDEST SWAP3 SWAP2 POP POP JUMP JUMPDEST PUSH0 DUP2 MLOAD SWAP1 POP SWAP2 SWAP1 POP JUMP JUMPDEST PUSH0 DUP3 DUP3 MSTORE PUSH1 0x20 DUP3 ADD SWAP1 POP SWAP3 SWAP2 POP POP JUMP JUMPDEST PUSH0 PUSH2 0x2728 DUP3 PUSH2 0x2704 JUMP JUMPDEST PUSH2 0x2732 DUP2 DUP6 PUSH2 0x270E JUMP JUMPDEST SWAP4 POP PUSH2 0x2742 DUP2 DUP6 PUSH1 0x20 DUP7 ADD PUSH2 0x1C87 JUMP JUMPDEST PUSH2 0x274B DUP2 PUSH2 0x1CAF JUMP JUMPDEST DUP5 ADD SWAP2 POP POP SWAP3 SWAP2 POP POP JUMP JUMPDEST PUSH0 PUSH1 0xA0 DUP3 ADD SWAP1 POP PUSH2 0x2769 PUSH0 DUP4 ADD DUP9 PUSH2 0x25ED JUMP JUMPDEST PUSH2 0x2776 PUSH1 0x20 DUP4 ADD DUP8 PUSH2 0x25ED JUMP JUMPDEST PUSH2 0x2783 PUSH1 0x40 DUP4 ADD DUP7 PUSH2 0x1B67 JUMP JUMPDEST PUSH2 0x2790 PUSH1 0x60 DUP4 ADD DUP6 PUSH2 0x1B67 JUMP JUMPDEST DUP2 DUP2 SUB PUSH1 0x80 DUP4 ADD MSTORE PUSH2 0x27A2 DUP2 DUP5 PUSH2 0x271E JUMP JUMPDEST SWAP1 POP SWAP7 SWAP6 POP POP POP POP POP POP JUMP JUMPDEST PUSH0 DUP2 MLOAD SWAP1 POP PUSH2 0x27BC DUP2 PUSH2 0x1BBA JUMP JUMPDEST SWAP3 SWAP2 POP POP JUMP JUMPDEST PUSH0 PUSH1 0x20 DUP3 DUP5 SUB SLT ISZERO PUSH2 0x27D7 JUMPI PUSH2 0x27D6 PUSH2 0x1A94 JUMP JUMPDEST JUMPDEST PUSH0 PUSH2 0x27E4 DUP5 DUP3 DUP6 ADD PUSH2 0x27AE JUMP JUMPDEST SWAP2 POP POP SWAP3 SWAP2 POP POP JUMP JUMPDEST PUSH0 PUSH1 0xA0 DUP3 ADD SWAP1 POP PUSH2 0x2800 PUSH0 DUP4 ADD DUP9 PUSH2 0x25ED JUMP JUMPDEST PUSH2 0x280D PUSH1 0x20 DUP4 ADD DUP8 PUSH2 0x25ED JUMP JUMPDEST DUP2 DUP2 SUB PUSH1 0x40 DUP4 ADD MSTORE PUSH2 0x281F DUP2 DUP7 PUSH2 0x221B JUMP JUMPDEST SWAP1 POP DUP2 DUP2 SUB PUSH1 0x60 DUP4 ADD MSTORE PUSH2 0x2833 DUP2 DUP6 PUSH2 0x221B JUMP JUMPDEST SWAP1 POP DUP2 DUP2 SUB PUSH1 0x80 DUP4 ADD MSTORE PUSH2 0x2847 DUP2 DUP5 PUSH2 0x271E JUMP JUMPDEST SWAP1 POP SWAP7 SWAP6 POP POP POP POP POP POP JUMP JUMPDEST PUSH0 PUSH2 0x285D DUP3 PUSH2 0x1AF6 JUMP JUMPDEST SWAP2 POP PUSH2 0x2868 DUP4 PUSH2 0x1AF6 JUMP JUMPDEST SWAP3 POP DUP3 DUP3 ADD SWAP1 POP DUP1 DUP3 GT ISZERO PUSH2 0x2880 JUMPI PUSH2 0x287F PUSH2 0x2677 JUMP JUMPDEST JUMPDEST SWAP3 SWAP2 POP POP JUMP JUMPDEST PUSH0 PUSH1 0x80 DUP3 ADD SWAP1 POP PUSH2 0x2899 PUSH0 DUP4 ADD DUP8 PUSH2 0x25ED JUMP JUMPDEST PUSH2 0x28A6 PUSH1 0x20 DUP4 ADD DUP7 PUSH2 0x1B67 JUMP JUMPDEST PUSH2 0x28B3 PUSH1 0x40 DUP4 ADD DUP6 PUSH2 0x1B67 JUMP JUMPDEST PUSH2 0x28C0 PUSH1 0x60 DUP4 ADD DUP5 PUSH2 0x1B67 JUMP JUMPDEST SWAP6 SWAP5 POP POP POP POP POP JUMP JUMPDEST PUSH0 PUSH1 0x40 DUP3 ADD SWAP1 POP DUP2 DUP2 SUB PUSH0 DUP4 ADD MSTORE PUSH2 0x28E1 DUP2 DUP6 PUSH2 0x221B JUMP JUMPDEST SWAP1 POP DUP2 DUP2 SUB PUSH1 0x20 DUP4 ADD MSTORE PUSH2 0x28F5 DUP2 DUP5 PUSH2 0x221B JUMP JUMPDEST SWAP1 POP SWAP4 SWAP3 POP POP POP JUMP INVALID LOG2 PUSH5 0x6970667358 0x22 SLT KECCAK256 DUP8 PC CALLCODE DUP4 CREATE2 0xB2 LOG1 MSTORE8 DUP16 REVERT 0xD8 0xD6 0xBD PUSH3 0x3A646 0xEE MLOAD 0xC 0xC9 0xCD DUP15 0x4A 0xA7 0xBA 0x21 PUSH30 0xE96A48B764736F6C63430008140033000000000000000000000000000000 "
		},
		"gasEstimates": {
			"creation": {
				"codeDepositCost": "1476800",
				"executionCost": "infinite",
				"totalCost": "infinite"
			},
			"external": {
				"addItem(uint256,uint8)": "infinite",
				"claimRewards(address,uint256,uint256)": "infinite",
				"craftChestPrice()": "infinite",
				"craftItem(uint256,uint256)": "infinite",
				"craftPrice(uint8)": "infinite",
				"deployTimestamp()": "infinite",
				"disenchantItem(uint256,uint256)": "infinite",
				"disenchantReward(uint8)": "2735",
				"ecrToken()": "infinite",
				"eesToken()": "infinite",
				"energize(uint256)": "infinite",
				"enrgToken()": "infinite",
				"items()": "infinite",
				"solidify(uint256)": "infinite",
				"unlockChest()": "infinite"
			},
			"internal": {
				"_enrgValue()": "infinite",
				"_randomNumber(uint256)": "infinite"
			}
		},
		"methodIdentifiers": {
			"addItem(uint256,uint8)": "2626955e",
			"claimRewards(address,uint256,uint256)": "7ca35209",
			"craftChestPrice()": "4354ae46",
			"craftItem(uint256,uint256)": "24046e5b",
			"craftPrice(uint8)": "59501a4c",
			"deployTimestamp()": "607ad0d7",
			"disenchantItem(uint256,uint256)": "c6cb066d",
			"disenchantReward(uint8)": "793c0aaa",
			"ecrToken()": "8168528d",
			"eesToken()": "9f02ab38",
			"energize(uint256)": "5fbbd62b",
			"enrgToken()": "a6523bba",
			"items()": "c06fad06",
			"solidify(uint256)": "98da7217",
			"unlockChest()": "37afd167"
		}
	},
	"abi": [
		{
			"inputs": [
				{
					"internalType": "address",
					"name": "adminAddress",
					"type": "address"
				}
			],
			"stateMutability": "nonpayable",
			"type": "constructor"
		},
		{
			"anonymous": false,
			"inputs": [
				{
					"indexed": false,
					"internalType": "uint256",
					"name": "totalEes",
					"type": "uint256"
				},
				{
					"indexed": false,
					"internalType": "uint256",
					"name": "totalEcr",
					"type": "uint256"
				},
				{
					"indexed": false,
					"internalType": "uint256",
					"name": "id",
					"type": "uint256"
				},
				{
					"indexed": false,
					"internalType": "uint256",
					"name": "amount",
					"type": "uint256"
				}
			],
			"name": "CraftItem",
			"type": "event"
		},
		{
			"anonymous": false,
			"inputs": [
				{
					"indexed": false,
					"internalType": "uint256",
					"name": "totalEes",
					"type": "uint256"
				},
				{
					"indexed": false,
					"internalType": "uint256",
					"name": "id",
					"type": "uint256"
				},
				{
					"indexed": false,
					"internalType": "uint256",
					"name": "amount",
					"type": "uint256"
				}
			],
			"name": "DisenchantItem",
			"type": "event"
		},
		{
			"anonymous": false,
			"inputs": [
				{
					"indexed": false,
					"internalType": "uint256",
					"name": "ecrAmount",
					"type": "uint256"
				},
				{
					"indexed": false,
					"internalType": "uint256",
					"name": "enrgAmount",
					"type": "uint256"
				}
			],
			"name": "Energize",
			"type": "event"
		},
		{
			"anonymous": false,
			"inputs": [
				{
					"indexed": false,
					"internalType": "uint256",
					"name": "ecrAmount",
					"type": "uint256"
				},
				{
					"indexed": false,
					"internalType": "uint256",
					"name": "enrgAmount",
					"type": "uint256"
				}
			],
			"name": "Solidify",
			"type": "event"
		},
		{
			"anonymous": false,
			"inputs": [
				{
					"indexed": true,
					"internalType": "address",
					"name": "player",
					"type": "address"
				},
				{
					"indexed": false,
					"internalType": "uint256",
					"name": "id",
					"type": "uint256"
				}
			],
			"name": "UnlockChest",
			"type": "event"
		},
		{
			"inputs": [
				{
					"internalType": "uint256",
					"name": "id",
					"type": "uint256"
				},
				{
					"internalType": "enum Game.Rarity",
					"name": "rarity",
					"type": "uint8"
				}
			],
			"name": "addItem",
			"outputs": [],
			"stateMutability": "nonpayable",
			"type": "function"
		},
		{
			"inputs": [
				{
					"internalType": "address",
					"name": "player",
					"type": "address"
				},
				{
					"internalType": "uint256",
					"name": "eesAmount",
					"type": "uint256"
				},
				{
					"internalType": "uint256",
					"name": "ecrAmount",
					"type": "uint256"
				}
			],
			"name": "claimRewards",
			"outputs": [],
			"stateMutability": "nonpayable",
			"type": "function"
		},
		{
			"inputs": [],
			"name": "craftChestPrice",
			"outputs": [
				{
					"internalType": "uint256",
					"name": "ees",
					"type": "uint256"
				},
				{
					"internalType": "uint256",
					"name": "ecr",
					"type": "uint256"
				}
			],
			"stateMutability": "view",
			"type": "function"
		},
		{
			"inputs": [
				{
					"internalType": "uint256",
					"name": "id",
					"type": "uint256"
				},
				{
					"internalType": "uint256",
					"name": "amount",
					"type": "uint256"
				}
			],
			"name": "craftItem",
			"outputs": [],
			"stateMutability": "nonpayable",
			"type": "function"
		},
		{
			"inputs": [
				{
					"internalType": "enum Game.Rarity",
					"name": "",
					"type": "uint8"
				}
			],
			"name": "craftPrice",
			"outputs": [
				{
					"internalType": "uint256",
					"name": "ees",
					"type": "uint256"
				},
				{
					"internalType": "uint256",
					"name": "ecr",
					"type": "uint256"
				}
			],
			"stateMutability": "view",
			"type": "function"
		},
		{
			"inputs": [],
			"name": "deployTimestamp",
			"outputs": [
				{
					"internalType": "uint256",
					"name": "",
					"type": "uint256"
				}
			],
			"stateMutability": "view",
			"type": "function"
		},
		{
			"inputs": [
				{
					"internalType": "uint256",
					"name": "id",
					"type": "uint256"
				},
				{
					"internalType": "uint256",
					"name": "amount",
					"type": "uint256"
				}
			],
			"name": "disenchantItem",
			"outputs": [],
			"stateMutability": "nonpayable",
			"type": "function"
		},
		{
			"inputs": [
				{
					"internalType": "enum Game.Rarity",
					"name": "",
					"type": "uint8"
				}
			],
			"name": "disenchantReward",
			"outputs": [
				{
					"internalType": "uint256",
					"name": "",
					"type": "uint256"
				}
			],
			"stateMutability": "view",
			"type": "function"
		},
		{
			"inputs": [],
			"name": "ecrToken",
			"outputs": [
				{
					"internalType": "contract EthericCrystals",
					"name": "",
					"type": "address"
				}
			],
			"stateMutability": "view",
			"type": "function"
		},
		{
			"inputs": [],
			"name": "eesToken",
			"outputs": [
				{
					"internalType": "contract EthericEssence",
					"name": "",
					"type": "address"
				}
			],
			"stateMutability": "view",
			"type": "function"
		},
		{
			"inputs": [
				{
					"internalType": "uint256",
					"name": "ecrAmount",
					"type": "uint256"
				}
			],
			"name": "energize",
			"outputs": [],
			"stateMutability": "nonpayable",
			"type": "function"
		},
		{
			"inputs": [],
			"name": "enrgToken",
			"outputs": [
				{
					"internalType": "contract EthericEnergy",
					"name": "",
					"type": "address"
				}
			],
			"stateMutability": "view",
			"type": "function"
		},
		{
			"inputs": [],
			"name": "items",
			"outputs": [
				{
					"internalType": "contract Items",
					"name": "",
					"type": "address"
				}
			],
			"stateMutability": "view",
			"type": "function"
		},
		{
			"inputs": [
				{
					"internalType": "uint256",
					"name": "enrgAmount",
					"type": "uint256"
				}
			],
			"name": "solidify",
			"outputs": [],
			"stateMutability": "nonpayable",
			"type": "function"
		},
		{
			"inputs": [],
			"name": "unlockChest",
			"outputs": [],
			"stateMutability": "nonpayable",
			"type": "function"
		}
	]
}