{
	"data": {
		"bytecode": {
			"linkReferences": {},
			"object": "60a0604052683635c9adc5dea00000600a553480156200001d575f80fd5b5060405162005b6138038062005b6183398181016040528101906200004391906200041e565b805f73ffffffffffffffffffffffffffffffffffffffff168173ffffffffffffffffffffffffffffffffffffffff1603620000b7575f6040517f1e4fbdf7000000000000000000000000000000000000000000000000000000008152600401620000ae919062000488565b60405180910390fd5b620000c881620002f860201b60201c565b508160155f6101000a81548173ffffffffffffffffffffffffffffffffffffffff021916908373ffffffffffffffffffffffffffffffffffffffff160217905550620186a0600f5f0160046101000a81548163ffffffff021916908363ffffffff1602179055508273ffffffffffffffffffffffffffffffffffffffff1660808173ffffffffffffffffffffffffffffffffffffffff1681525050603260085f8060028111156200017e576200017d620004a3565b5b6002811115620001935762000192620004a3565b5b81526020019081526020015f20819055506101f460085f60016002811115620001c157620001c0620004a3565b5b6002811115620001d657620001d5620004a3565b5b81526020019081526020015f208190555061138860085f600280811115620002035762000202620004a3565b5b6002811115620002185762000217620004a3565b5b81526020019081526020015f2081905550606460095f806002811115620002445762000243620004a3565b5b6002811115620002595762000258620004a3565b5b81526020019081526020015f20819055506103e860095f60016002811115620002875762000286620004a3565b5b60028111156200029c576200029b620004a3565b5b81526020019081526020015f208190555061271060095f600280811115620002c957620002c8620004a3565b5b6002811115620002de57620002dd620004a3565b5b81526020019081526020015f2081905550505050620004d0565b5f805f9054906101000a900473ffffffffffffffffffffffffffffffffffffffff169050815f806101000a81548173ffffffffffffffffffffffffffffffffffffffff021916908373ffffffffffffffffffffffffffffffffffffffff1602179055508173ffffffffffffffffffffffffffffffffffffffff168173ffffffffffffffffffffffffffffffffffffffff167f8be0079c531659141344cd1fd0a4f28419497f9722a3daafe3b4186f6b6457e060405160405180910390a35050565b5f80fd5b5f73ffffffffffffffffffffffffffffffffffffffff82169050919050565b5f620003e882620003bd565b9050919050565b620003fa81620003dc565b811462000405575f80fd5b50565b5f815190506200041881620003ef565b92915050565b5f805f60608486031215620004385762000437620003b9565b5b5f620004478682870162000408565b93505060206200045a8682870162000408565b92505060406200046d8682870162000408565b9150509250925092565b6200048281620003dc565b82525050565b5f6020820190506200049d5f83018462000477565b92915050565b7f4e487b71000000000000000000000000000000000000000000000000000000005f52602160045260245ffd5b608051615671620004f05f395f8181612da3015261330001526156715ff3fe608060405260043610610250575f3560e01c80639cd441da11610138578063c391ea40116100b5578063de0e9a3e11610079578063de0e9a3e14610830578063e2eb41ff14610858578063ec16b94a14610899578063f23a6e61146108c1578063f2fde38b146108fd578063feed7c3b1461092557610250565b8063c391ea401461076d578063c3fe3e28146107ab578063d46eb119146107d6578063d900f938146107e0578063d96073cf1461080857610250565b8063b4a200cd116100fc578063b4a200cd14610676578063b9999efb146106a0578063bbf5ed70146106dc578063bc197c81146106f2578063bfb231d21461072e57610250565b80639cd441da146105c05780639cd51d25146105e85780639e2c8a5b146105fe578063b1275f9a14610626578063b1411f971461064e57610250565b80635e7897e9116101d15780637e75cb43116101955780637e75cb43146104ca5780638da5cb5b146104f257806396fd171b1461051c5780639979c009146105485780639af40f0c146105705780639c8f9f231461059857610250565b80635e7897e914610414578063683624711461043c578063715018a61461046457806372da0d811461047a5780637b0472f0146104a257610250565b8063372500ab11610218578063372500ab1461035b5780633d35453b14610371578063402822521461039957806351563f8e146103d65780635d26b838146103fe57610250565b806301ffc9a71461025457806315b4cbba146102905780631a686502146102cc57806324ed2a0f146102f75780632db2ede51461031f575b5f80fd5b34801561025f575f80fd5b5061027a6004803603810190610275919061411e565b61094d565b6040516102879190614163565b60405180910390f35b34801561029b575f80fd5b506102b660048036038101906102b191906141af565b6109c6565b6040516102c391906141e9565b60405180910390f35b3480156102d7575f80fd5b506102e06109db565b6040516102ee929190614202565b60405180910390f35b348015610302575f80fd5b5061031d60048036038101906103189190614229565b6109ec565b005b34801561032a575f80fd5b50610345600480360381019061034091906141af565b610b79565b60405161035291906142da565b60405180910390f35b348015610366575f80fd5b5061036f610b96565b005b34801561037c575f80fd5b50610397600480360381019061039291906141af565b610cb5565b005b3480156103a4575f80fd5b506103bf60048036038101906103ba91906141af565b610d2c565b6040516103cd929190614202565b60405180910390f35b3480156103e1575f80fd5b506103fc60048036038101906103f791906141af565b610d4c565b005b348015610409575f80fd5b50610412610f02565b005b34801561041f575f80fd5b5061043a60048036038101906104359190614384565b6114ff565b005b348015610447575f80fd5b50610462600480360381019061045d9190614229565b611730565b005b34801561046f575f80fd5b506104786118ac565b005b348015610485575f80fd5b506104a0600480360381019061049b91906141af565b6118bf565b005b3480156104ad575f80fd5b506104c860048036038101906104c39190614229565b611a9c565b005b3480156104d5575f80fd5b506104f060048036038101906104eb91906143c2565b611c3e565b005b3480156104fd575f80fd5b50610506611dc3565b60405161051391906143fc565b60405180910390f35b348015610527575f80fd5b50610530611dea565b60405161053f93929190614415565b60405180910390f35b348015610553575f80fd5b5061056e60048036038101906105699190614229565b611e01565b005b34801561057b575f80fd5b50610596600480360381019061059191906141af565b61203b565b005b3480156105a3575f80fd5b506105be60048036038101906105b991906141af565b61219e565b005b3480156105cb575f80fd5b506105e660048036038101906105e19190614229565b61257b565b005b3480156105f3575f80fd5b506105fc612999565b005b348015610609575f80fd5b50610624600480360381019061061f9190614229565b612cc5565b005b348015610631575f80fd5b5061064c600480360381019061064791906143c2565b612e87565b005b348015610659575f80fd5b50610674600480360381019061066f91906141af565b612ef2565b005b348015610681575f80fd5b5061068a613114565b60405161069791906144a5565b60405180910390f35b3480156106ab575f80fd5b506106c660048036038101906106c191906144e1565b613139565b6040516106d391906141e9565b60405180910390f35b3480156106e7575f80fd5b506106f061316f565b005b3480156106fd575f80fd5b5061071860048036038101906107139190614731565b61345d565b604051610725919061480b565b60405180910390f35b348015610739575f80fd5b50610754600480360381019061074f91906141af565b613471565b6040516107649493929190614824565b60405180910390f35b348015610778575f80fd5b50610793600480360381019061078e9190614867565b6134bc565b6040516107a293929190614415565b60405180910390f35b3480156107b6575f80fd5b506107bf6134ed565b6040516107cd9291906148c3565b60405180910390f35b6107de61351c565b005b3480156107eb575f80fd5b5061080660048036038101906108019190614229565b6135aa565b005b348015610813575f80fd5b5061082e60048036038101906108299190614229565b61363b565b005b34801561083b575f80fd5b50610856600480360381019061085191906141af565b61390d565b005b348015610863575f80fd5b5061087e600480360381019061087991906143c2565b6139e0565b604051610890969594939291906148ea565b60405180910390f35b3480156108a4575f80fd5b506108bf60048036038101906108ba9190614949565b613a5b565b005b3480156108cc575f80fd5b506108e760048036038101906108e29190614999565b613bea565b6040516108f4919061480b565b60405180910390f35b348015610908575f80fd5b50610923600480360381019061091e91906143c2565b613bfe565b005b348015610930575f80fd5b5061094b60048036038101906109469190614a2c565b613c82565b005b5f7f4e2312e0000000000000000000000000000000000000000000000000000000007bffffffffffffffffffffffffffffffffffffffffffffffffffffffff1916827bffffffffffffffffffffffffffffffffffffffffffffffffffffffff191614806109bf57506109be82613d76565b5b9050919050565b6006602052805f5260405f205f915090505481565b6010805f0154908060010154905082565b5f60055f60065f8681526020019081526020015f205481526020019081526020015f205f9054906101000a900460ff16905060155f9054906101000a900473ffffffffffffffffffffffffffffffffffffffff1673ffffffffffffffffffffffffffffffffffffffff1663f5298aca335f8560085f876002811115610a7457610a73614267565b5b6002811115610a8657610a85614267565b5b81526020019081526020015f2054610a9e9190614a97565b6040518463ffffffff1660e01b8152600401610abc93929190614ad8565b5f604051808303815f87803b158015610ad3575f80fd5b505af1158015610ae5573d5f803e3d5ffd5b5050505060155f9054906101000a900473ffffffffffffffffffffffffffffffffffffffff1673ffffffffffffffffffffffffffffffffffffffff1663731133e93385856040518463ffffffff1660e01b8152600401610b4793929190614b40565b5f604051808303815f87803b158015610b5e575f80fd5b505af1158015610b70573d5f803e3d5ffd5b50505050505050565b6005602052805f5260405f205f915054906101000a900460ff1681565b5f60015f3373ffffffffffffffffffffffffffffffffffffffff1673ffffffffffffffffffffffffffffffffffffffff1681526020019081526020015f2090506001815f01541015610c14576040517f2c5211c600000000000000000000000000000000000000000000000000000000815260040160405180910390fd5b5f815f015490505f825f018190555060155f9054906101000a900473ffffffffffffffffffffffffffffffffffffffff1673ffffffffffffffffffffffffffffffffffffffff1663f242432a30336001856040518563ffffffff1660e01b8152600401610c849493929190614b88565b5f604051808303815f87803b158015610c9b575f80fd5b505af1158015610cad573d5f803e3d5ffd5b505050505050565b610cbd613ddf565b600a811080610ccc5750606381115b15610d03576040517f5bfe79c600000000000000000000000000000000000000000000000000000000815260040160405180910390fd5b600d81908060018154018082558091505060019003905f5260205f20015f909190919091505550565b6003602052805f5260405f205f91509050805f0154908060010154905082565b5f60075f8381526020019081526020015f209050806003015f9054906101000a900473ffffffffffffffffffffffffffffffffffffffff1673ffffffffffffffffffffffffffffffffffffffff163373ffffffffffffffffffffffffffffffffffffffff1614610de8576040517f2c5211c600000000000000000000000000000000000000000000000000000000815260040160405180910390fd5b5f816001015411610e25576040517f2c5211c600000000000000000000000000000000000000000000000000000000815260040160405180910390fd5b5f816001015490505f82600101819055507faaa1d3661f3ab66031e2fb89aed63bd6d1ab6123cf6fe00d14d0305ad3baaa4683604051610e6591906141e9565b60405180910390a160155f9054906101000a900473ffffffffffffffffffffffffffffffffffffffff1673ffffffffffffffffffffffffffffffffffffffff1663f242432a3033855f0154856040518563ffffffff1660e01b8152600401610ed09493929190614b88565b5f604051808303815f87803b158015610ee7575f80fd5b505af1158015610ef9573d5f803e3d5ffd5b50505050505050565b610f0a613ddf565b600160035f600181526020019081526020015f205f0154108015610f425750600160035f600381526020019081526020015f205f0154105b15610f79576040517f5945ea5600000000000000000000000000000000000000000000000000000000815260040160405180910390fd5b600160125f01541015610fb8576040517f5945ea5600000000000000000000000000000000000000000000000000000000815260040160405180910390fd5b5f600260125f0154610fca9190614c0b565b90505f60035f600181526020019081526020015f205f01546012600a610ff09190614d6a565b600460125f01546110019190614c0b565b61100b9190614a97565b6110159190614c0b565b90505f60035f600381526020019081526020015f205f01546012600a61103b9190614d6a565b600460125f015461104c9190614c0b565b6110569190614a97565b6110609190614c0b565b90505f600f5f015f9054906101000a900463ffffffff1663ffffffff166012600a61108b9190614d6a565b620186a06110999190614a97565b6110a39190614c0b565b90505f805f90505b600c80549050811015611385575f600c82815481106110cd576110cc614db4565b5b905f5260205f20015f9054906101000a900473ffffffffffffffffffffffffffffffffffffffff1690505f60015f8373ffffffffffffffffffffffffffffffffffffffff1673ffffffffffffffffffffffffffffffffffffffff1681526020019081526020015f2090505f60025f8473ffffffffffffffffffffffffffffffffffffffff1673ffffffffffffffffffffffffffffffffffffffff1681526020019081526020015f205f600181526020019081526020015f205f0154111561122d575f876012600a61119e9190614d6a565b60025f8673ffffffffffffffffffffffffffffffffffffffff1673ffffffffffffffffffffffffffffffffffffffff1681526020019081526020015f205f600181526020019081526020015f205f01546111f89190614c0b565b6112029190614a97565b905080825f015f8282546112169190614de1565b9250508190555080856112299190614de1565b9450505b5f60025f8473ffffffffffffffffffffffffffffffffffffffff1673ffffffffffffffffffffffffffffffffffffffff1681526020019081526020015f205f600381526020019081526020015f205f01541115611323575f866012600a6112949190614d6a565b60025f8673ffffffffffffffffffffffffffffffffffffffff1673ffffffffffffffffffffffffffffffffffffffff1681526020019081526020015f205f600381526020019081526020015f205f01546112ee9190614c0b565b6112f89190614a97565b905080825f015f82825461130c9190614de1565b92505081905550808561131f9190614de1565b9450505b8060010160079054906101000a900460ff16156113705784815f015f82825461134c9190614de1565b925050819055505f8160010160076101000a81548160ff0219169083151502179055505b5050808061137d90614e14565b9150506110ab565b508460126002015f82825461139a9190614de1565b925050819055508060126001015f8282546113b59190614de1565b925050819055508060125f015f8282546113cf9190614e5b565b9250508190555060155f9054906101000a900473ffffffffffffffffffffffffffffffffffffffff1673ffffffffffffffffffffffffffffffffffffffff1663f5298aca306001886040518463ffffffff1660e01b815260040161143593929190614ad8565b5f604051808303815f87803b15801561144c575f80fd5b505af115801561145e573d5f803e3d5ffd5b5050505060155f9054906101000a900473ffffffffffffffffffffffffffffffffffffffff1673ffffffffffffffffffffffffffffffffffffffff1663731133e930600169152d02c7e14af68000006040518463ffffffff1660e01b81526004016114cb93929190614ec7565b5f604051808303815f87803b1580156114e2575f80fd5b505af11580156114f4573d5f803e3d5ffd5b505050505050505050565b611507613ddf565b6060805f825f8151811061151e5761151d614db4565b5b6020026020010181815250505f6001846115389190614f0f565b61ffff1603611572576001815f8151811061155657611555614db4565b5b6020026020010181815161156a9190614de1565b915081815250505b5f600a846115809190614f0f565b61ffff160361160a57611597600d80549050613e66565b826001815181106115ab576115aa614db4565b5b602002602001018181525050601e815f815181106115cc576115cb614db4565b5b602002602001018181516115e09190614de1565b915081815250506001816001815181106115fd576115fc614db4565b5b6020026020010181815250505b5f6064846116189190614f0f565b61ffff160361169f5761162b600a613ea6565b8260028151811061163f5761163e614db4565b5b602002602001018181525050610258815f8151811061166157611660614db4565b5b602002602001018181516116759190614de1565b9150818152505060018160028151811061169257611691614db4565b5b6020026020010181815250505b60155f9054906101000a900473ffffffffffffffffffffffffffffffffffffffff1673ffffffffffffffffffffffffffffffffffffffff16631f7fdffa8584846040518463ffffffff1660e01b81526004016116fd93929190614ff6565b5f604051808303815f87803b158015611714575f80fd5b505af1158015611726573d5f803e3d5ffd5b5050505050505050565b5f60055f8481526020019081526020015f205f9054906101000a900460ff16905060155f9054906101000a900473ffffffffffffffffffffffffffffffffffffffff1673ffffffffffffffffffffffffffffffffffffffff1663f5298aca3385856040518463ffffffff1660e01b81526004016117af93929190614ad8565b5f604051808303815f87803b1580156117c6575f80fd5b505af11580156117d8573d5f803e3d5ffd5b5050505060155f9054906101000a900473ffffffffffffffffffffffffffffffffffffffff1673ffffffffffffffffffffffffffffffffffffffff1663731133e9335f8560095f87600281111561183257611831614267565b5b600281111561184457611843614267565b5b81526020019081526020015f205461185c9190614a97565b6040518463ffffffff1660e01b815260040161187a93929190614b40565b5f604051808303815f87803b158015611891575f80fd5b505af11580156118a3573d5f803e3d5ffd5b50505050505050565b6118b4613ddf565b6118bd5f613ff0565b565b5f60065f8381526020019081526020015f20549050600a5460125f015f8282546118e99190614de1565b9250508190555060155f9054906101000a900473ffffffffffffffffffffffffffffffffffffffff1673ffffffffffffffffffffffffffffffffffffffff1663f242432a33306001600a546040518563ffffffff1660e01b81526004016119539493929190614b88565b5f604051808303815f87803b15801561196a575f80fd5b505af115801561197c573d5f803e3d5ffd5b5050505060155f9054906101000a900473ffffffffffffffffffffffffffffffffffffffff1673ffffffffffffffffffffffffffffffffffffffff1663f5298aca338460036040518463ffffffff1660e01b81526004016119df93929190615085565b5f604051808303815f87803b1580156119f6575f80fd5b505af1158015611a08573d5f803e3d5ffd5b5050505060155f9054906101000a900473ffffffffffffffffffffffffffffffffffffffff1673ffffffffffffffffffffffffffffffffffffffff1663731133e9338360016040518463ffffffff1660e01b8152600401611a6b939291906150f3565b5f604051808303815f87803b158015611a82575f80fd5b505af1158015611a94573d5f803e3d5ffd5b505050505050565b60018214158015611aae575060038214155b15611ae5576040517fc1ab6dc100000000000000000000000000000000000000000000000000000000815260040160405180910390fd5b6001811015611b20576040517f2c5211c600000000000000000000000000000000000000000000000000000000815260040160405180910390fd5b8060035f8481526020019081526020015f205f015f828254611b429190614de1565b925050819055508060025f3373ffffffffffffffffffffffffffffffffffffffff1673ffffffffffffffffffffffffffffffffffffffff1681526020019081526020015f205f8481526020019081526020015f205f015f828254611ba69190614de1565b9250508190555060155f9054906101000a900473ffffffffffffffffffffffffffffffffffffffff1673ffffffffffffffffffffffffffffffffffffffff1663f242432a333085856040518563ffffffff1660e01b8152600401611c0d9493929190614b88565b5f604051808303815f87803b158015611c24575f80fd5b505af1158015611c36573d5f803e3d5ffd5b505050505050565b611c46613ddf565b6001600f5f0160049054906101000a900463ffffffff1663ffffffff1610611d27576001805f8373ffffffffffffffffffffffffffffffffffffffff1673ffffffffffffffffffffffffffffffffffffffff1681526020019081526020015f206001015f8282829054906101000a900463ffffffff16611cc6919061513b565b92506101000a81548163ffffffff021916908363ffffffff1602179055506001600f5f0160048282829054906101000a900463ffffffff16611d089190615172565b92506101000a81548163ffffffff021916908363ffffffff1602179055505b6001805f8373ffffffffffffffffffffffffffffffffffffffff1673ffffffffffffffffffffffffffffffffffffffff1681526020019081526020015f2060010160076101000a81548160ff0219169083151502179055506001600f5f015f8282829054906101000a900463ffffffff16611da2919061513b565b92506101000a81548163ffffffff021916908363ffffffff16021790555050565b5f805f9054906101000a900473ffffffffffffffffffffffffffffffffffffffff16905090565b6012805f0154908060010154908060020154905083565b5f60075f8481526020019081526020015f2090508181600101541015611e53576040517f5945ea5600000000000000000000000000000000000000000000000000000000815260040160405180910390fd5b5f828260020154611e649190614a97565b90505f606482611e749190614c0b565b90505f8183611e839190614e5b565b905084846001015f828254611e989190614e5b565b925050819055508160125f015f828254611eb29190614de1565b925050819055507fc2e673eca69e250dcbf52a7d0b0b0dbe3f91c5485bcbaa44245d15cbc3460aba8686604051611eea929190614202565b60405180910390a160155f9054906101000a900473ffffffffffffffffffffffffffffffffffffffff1673ffffffffffffffffffffffffffffffffffffffff1663f242432a33866003015f9054906101000a900473ffffffffffffffffffffffffffffffffffffffff166001856040518563ffffffff1660e01b8152600401611f769493929190614b88565b5f604051808303815f87803b158015611f8d575f80fd5b505af1158015611f9f573d5f803e3d5ffd5b5050505060155f9054906101000a900473ffffffffffffffffffffffffffffffffffffffff1673ffffffffffffffffffffffffffffffffffffffff1663f242432a3033875f0154896040518563ffffffff1660e01b81526004016120069493929190614b88565b5f604051808303815f87803b15801561201d575f80fd5b505af115801561202f573d5f803e3d5ffd5b50505050505050505050565b5f60025f3373ffffffffffffffffffffffffffffffffffffffff1673ffffffffffffffffffffffffffffffffffffffff1681526020019081526020015f205f8381526020019081526020015f20905042816002015411156120c8576040517f9225b94100000000000000000000000000000000000000000000000000000000815260040160405180910390fd5b5f816001015490508060035f8581526020019081526020015f206001015f8282546120f39190614e5b565b925050819055505f82600101819055505f826002018190555060155f9054906101000a900473ffffffffffffffffffffffffffffffffffffffff1673ffffffffffffffffffffffffffffffffffffffff1663f242432a303386856040518563ffffffff1660e01b815260040161216c9493929190614b88565b5f604051808303815f87803b158015612183575f80fd5b505af1158015612195573d5f803e3d5ffd5b50505050505050565b5f60155f9054906101000a900473ffffffffffffffffffffffffffffffffffffffff1673ffffffffffffffffffffffffffffffffffffffff1662fdd58e3360036040518363ffffffff1660e01b81526004016121fb9291906151a9565b602060405180830381865afa158015612216573d5f803e3d5ffd5b505050506040513d601f19601f8201168201806040525081019061223a91906151e4565b905081811015612276576040517f5945ea5600000000000000000000000000000000000000000000000000000000815260040160405180910390fd5b5f60155f9054906101000a900473ffffffffffffffffffffffffffffffffffffffff1673ffffffffffffffffffffffffffffffffffffffff1663bd85b03960036040518263ffffffff1660e01b81526004016122d291906141e9565b602060405180830381865afa1580156122ed573d5f803e3d5ffd5b505050506040513d601f19601f8201168201806040525081019061231191906151e4565b90505f8160105f0154856123259190614a97565b61232f9190614c0b565b90505f82601060010154866123449190614a97565b61234e9190614c0b565b90506001821080156123605750600181105b15612397576040517f5945ea5600000000000000000000000000000000000000000000000000000000815260040160405180910390fd5b8160105f015f8282546123aa9190614e5b565b925050819055508060106001015f8282546123c59190614e5b565b9250508190555060155f9054906101000a900473ffffffffffffffffffffffffffffffffffffffff1673ffffffffffffffffffffffffffffffffffffffff1663f5298aca336003886040518463ffffffff1660e01b815260040161242b93929190614ad8565b5f604051808303815f87803b158015612442575f80fd5b505af1158015612454573d5f803e3d5ffd5b5050505060155f9054906101000a900473ffffffffffffffffffffffffffffffffffffffff1673ffffffffffffffffffffffffffffffffffffffff1663f242432a30336001866040518563ffffffff1660e01b81526004016124b99493929190614b88565b5f604051808303815f87803b1580156124d0575f80fd5b505af11580156124e2573d5f803e3d5ffd5b5050505060155f9054906101000a900473ffffffffffffffffffffffffffffffffffffffff1673ffffffffffffffffffffffffffffffffffffffff1663f242432a30336002856040518563ffffffff1660e01b81526004016125479493929190614b88565b5f604051808303815f87803b15801561255e575f80fd5b505af1158015612570573d5f803e3d5ffd5b505050505050505050565b5f60105f0154118061259157505f601060010154115b156125f85760105f0154816125a69190614a97565b601060010154836125b79190614a97565b146125f7576040517f08c379a00000000000000000000000000000000000000000000000000000000081526004016125ee90615269565b60405180910390fd5b5b5f8060155f9054906101000a900473ffffffffffffffffffffffffffffffffffffffff1673ffffffffffffffffffffffffffffffffffffffff1663bd85b03960036040518263ffffffff1660e01b815260040161265591906141e9565b602060405180830381865afa158015612670573d5f803e3d5ffd5b505050506040513d601f19601f8201168201806040525081019061269491906151e4565b90505f8103612723575f83856126aa9190614a97565b90506003811115612710578092505f60016002836126c89190614c0b565b6126d29190614de1565b90505b8381101561270a5780935060028182846126ef9190614c0b565b6126f99190614de1565b6127039190614c0b565b90506126d5565b5061271d565b5f811461271c57600192505b5b50612774565b5f60105f015482866127359190614a97565b61273f9190614c0b565b90505f60106001015483866127549190614a97565b61275e9190614c0b565b905080821061276d578061276f565b815b935050505b5f82116127b6576040517f08c379a00000000000000000000000000000000000000000000000000000000081526004016127ad906152d1565b60405180910390fd5b8360105f015f8282546127c99190614de1565b925050819055508260106001015f8282546127e49190614de1565b9250508190555060155f9054906101000a900473ffffffffffffffffffffffffffffffffffffffff1673ffffffffffffffffffffffffffffffffffffffff1663731133e9336003856040518463ffffffff1660e01b815260040161284a93929190614b40565b5f604051808303815f87803b158015612861575f80fd5b505af1158015612873573d5f803e3d5ffd5b5050505060155f9054906101000a900473ffffffffffffffffffffffffffffffffffffffff1673ffffffffffffffffffffffffffffffffffffffff1663f242432a33306001886040518563ffffffff1660e01b81526004016128d89493929190614b88565b5f604051808303815f87803b1580156128ef575f80fd5b505af1158015612901573d5f803e3d5ffd5b5050505060155f9054906101000a900473ffffffffffffffffffffffffffffffffffffffff1673ffffffffffffffffffffffffffffffffffffffff1663f242432a33306002876040518563ffffffff1660e01b81526004016129669493929190614b88565b5f604051808303815f87803b15801561297d575f80fd5b505af115801561298f573d5f803e3d5ffd5b5050505050505050565b5f60015f3373ffffffffffffffffffffffffffffffffffffffff1673ffffffffffffffffffffffffffffffffffffffff1681526020019081526020015f2090508060010160069054906101000a900460ff1615612a22576040517f646cf55800000000000000000000000000000000000000000000000000000000815260040160405180910390fd5b60018160010160066101000a81548160ff02191690831515021790555060155f9054906101000a900473ffffffffffffffffffffffffffffffffffffffff1673ffffffffffffffffffffffffffffffffffffffff1663731133e9335f620f42406040518463ffffffff1660e01b8152600401612aa093929190615361565b5f604051808303815f87803b158015612ab7575f80fd5b505af1158015612ac9573d5f803e3d5ffd5b5050505060155f9054906101000a900473ffffffffffffffffffffffffffffffffffffffff1673ffffffffffffffffffffffffffffffffffffffff1663731133e93360016012600a612b1b9190614d6a565b620f4240612b299190614a97565b6040518463ffffffff1660e01b8152600401612b47939291906153a9565b5f604051808303815f87803b158015612b5e575f80fd5b505af1158015612b70573d5f803e3d5ffd5b5050505060155f9054906101000a900473ffffffffffffffffffffffffffffffffffffffff1673ffffffffffffffffffffffffffffffffffffffff1663731133e93360026012600a612bc29190614d6a565b620f4240612bd09190614a97565b6040518463ffffffff1660e01b8152600401612bee9392919061542a565b5f604051808303815f87803b158015612c05575f80fd5b505af1158015612c17573d5f803e3d5ffd5b5050505060155f9054906101000a900473ffffffffffffffffffffffffffffffffffffffff1673ffffffffffffffffffffffffffffffffffffffff1663731133e93360036012600a612c699190614d6a565b620f4240612c779190614a97565b6040518463ffffffff1660e01b8152600401612c9593929190615472565b5f604051808303815f87803b158015612cac575f80fd5b505af1158015612cbe573d5f803e3d5ffd5b5050505050565b6001811015612d00576040517f2c5211c600000000000000000000000000000000000000000000000000000000815260040160405180910390fd5b5f60025f3373ffffffffffffffffffffffffffffffffffffffff1673ffffffffffffffffffffffffffffffffffffffff1681526020019081526020015f205f8481526020019081526020015f209050805f0154821115612d8c576040517f2c5211c600000000000000000000000000000000000000000000000000000000815260040160405180910390fd5b5f60035f8581526020019081526020015f2090505f7f000000000000000000000000000000000000000000000000000000000000000073ffffffffffffffffffffffffffffffffffffffff163373ffffffffffffffffffffffffffffffffffffffff1614905083825f015f828254612e049190614e5b565b9250508190555083826001015f828254612e1e9190614de1565b9250508190555083835f015f828254612e379190614e5b565b9250508190555083836001015f828254612e519190614de1565b9250508190555080612e655761012c612e69565b6102585b61ffff1642612e789190614de1565b83600201819055505050505050565b612e8f613ddf565b600c81908060018154018082558091505060019003905f5260205f20015f9091909190916101000a81548173ffffffffffffffffffffffffffffffffffffffff021916908373ffffffffffffffffffffffffffffffffffffffff16021790555050565b5f612efc82613ea6565b9050600a5460125f015f828254612f139190614de1565b925050819055503373ffffffffffffffffffffffffffffffffffffffff167fae33ae7e358b64f7a51ff8f7b5760fc71417704b8fcf2d004cce14b891b4305a82604051612f6091906141e9565b60405180910390a260155f9054906101000a900473ffffffffffffffffffffffffffffffffffffffff1673ffffffffffffffffffffffffffffffffffffffff1663f242432a33306001600a546040518563ffffffff1660e01b8152600401612fcb9493929190614b88565b5f604051808303815f87803b158015612fe2575f80fd5b505af1158015612ff4573d5f803e3d5ffd5b5050505060155f9054906101000a900473ffffffffffffffffffffffffffffffffffffffff1673ffffffffffffffffffffffffffffffffffffffff1663f5298aca338460016040518463ffffffff1660e01b8152600401613057939291906154ba565b5f604051808303815f87803b15801561306e575f80fd5b505af1158015613080573d5f803e3d5ffd5b5050505060155f9054906101000a900473ffffffffffffffffffffffffffffffffffffffff1673ffffffffffffffffffffffffffffffffffffffff1663731133e9338360016040518463ffffffff1660e01b81526004016130e3939291906150f3565b5f604051808303815f87803b1580156130fa575f80fd5b505af115801561310c573d5f803e3d5ffd5b505050505050565b60155f9054906101000a900473ffffffffffffffffffffffffffffffffffffffff1681565b6004602052825f5260405f20602052815f5260405f20818154811061315c575f80fd5b905f5260205f20015f9250925050505481565b5f60015f3373ffffffffffffffffffffffffffffffffffffffff1673ffffffffffffffffffffffffffffffffffffffff1681526020019081526020015f2090506001816001015f9054906101000a900463ffffffff1663ffffffff161015613203576040517f2c5211c600000000000000000000000000000000000000000000000000000000815260040160405180910390fd5b5f6012600a6132129190614d6a565b6102ee836001015f9054906101000a900463ffffffff1661323391906154ef565b63ffffffff166132439190614a97565b90505f6012600a6132549190614d6a565b60fa846001015f9054906101000a900463ffffffff1661327491906154ef565b63ffffffff166132849190614a97565b90505f81836132939190614de1565b90508260025f3373ffffffffffffffffffffffffffffffffffffffff1673ffffffffffffffffffffffffffffffffffffffff1681526020019081526020015f205f600181526020019081526020015f205f015f8282546132f39190614de1565b925050819055508160025f7f000000000000000000000000000000000000000000000000000000000000000073ffffffffffffffffffffffffffffffffffffffff1673ffffffffffffffffffffffffffffffffffffffff1681526020019081526020015f205f600181526020019081526020015f205f015f8282546133789190614de1565b925050819055508060035f600181526020019081526020015f205f015f8282546133a29190614de1565b925050819055505f846001015f6101000a81548163ffffffff021916908363ffffffff16021790555060155f9054906101000a900473ffffffffffffffffffffffffffffffffffffffff1673ffffffffffffffffffffffffffffffffffffffff1663731133e9306001846040518463ffffffff1660e01b815260040161342a93929190614b40565b5f604051808303815f87803b158015613441575f80fd5b505af1158015613453573d5f803e3d5ffd5b5050505050505050565b5f63bc197c8160e01b905095945050505050565b6007602052805f5260405f205f91509050805f015490806001015490806002015490806003015f9054906101000a900473ffffffffffffffffffffffffffffffffffffffff16905084565b6002602052815f5260405f20602052805f5260405f205f9150915050805f0154908060010154908060020154905083565b600f805f015f9054906101000a900463ffffffff1690805f0160049054906101000a900463ffffffff16905082565b60155f9054906101000a900473ffffffffffffffffffffffffffffffffffffffff1673ffffffffffffffffffffffffffffffffffffffff1663731133e9336002346040518463ffffffff1660e01b815260040161357b93929190614b40565b5f604051808303815f87803b158015613592575f80fd5b505af11580156135a4573d5f803e3d5ffd5b50505050565b6135b2613ddf565b60045f8281526020019081526020015f205f60055f8581526020019081526020015f205f9054906101000a900460ff1660028111156135f4576135f3614267565b5b600281111561360657613605614267565b5b81526020019081526020015f2082908060018154018082558091505060019003905f5260205f20015f90919091909150555050565b60018214158061364c575060028214155b15613683576040517fc1ab6dc100000000000000000000000000000000000000000000000000000000815260040160405180910390fd5b60018110156136be576040517f2c5211c600000000000000000000000000000000000000000000000000000000815260040160405180910390fd5b5f805f80600186146136de576002600160106001015460105f01546136ee565b6001600260105f01546010600101545b93509350935093505f60646063876137069190614a97565b6137109190614c0b565b90505f818461371f9190614de1565b828461372b9190614a97565b6137359190614c0b565b905082811115613771576040517f5945ea5600000000000000000000000000000000000000000000000000000000815260040160405180910390fd5b600188036137b3578660105f015f82825461378c9190614de1565b925050819055508060106001015f8282546137a79190614e5b565b925050819055506137e9565b8060105f015f8282546137c69190614e5b565b925050819055508660106001015f8282546137e19190614de1565b925050819055505b60155f9054906101000a900473ffffffffffffffffffffffffffffffffffffffff1673ffffffffffffffffffffffffffffffffffffffff1663f242432a3330898b6040518563ffffffff1660e01b81526004016138499493929190614b88565b5f604051808303815f87803b158015613860575f80fd5b505af1158015613872573d5f803e3d5ffd5b5050505060155f9054906101000a900473ffffffffffffffffffffffffffffffffffffffff1673ffffffffffffffffffffffffffffffffffffffff1663f242432a303388856040518563ffffffff1660e01b81526004016138d69493929190614b88565b5f604051808303815f87803b1580156138ed575f80fd5b505af11580156138ff573d5f803e3d5ffd5b505050505050505050505050565b3373ffffffffffffffffffffffffffffffffffffffff166108fc8290811502906040515f60405180830381858888f19350505050158015613950573d5f803e3d5ffd5b5060155f9054906101000a900473ffffffffffffffffffffffffffffffffffffffff1673ffffffffffffffffffffffffffffffffffffffff1663f5298aca336002846040518463ffffffff1660e01b81526004016139b093929190614ad8565b5f604051808303815f87803b1580156139c7575f80fd5b505af11580156139d9573d5f803e3d5ffd5b5050505050565b6001602052805f5260405f205f91509050805f015490806001015f9054906101000a900463ffffffff16908060010160049054906101000a900460ff16908060010160059054906101000a900460ff16908060010160069054906101000a900460ff16908060010160079054906101000a900460ff16905086565b6001821015613a96576040517f2c5211c600000000000000000000000000000000000000000000000000000000815260040160405180910390fd5b6012600a613aa49190614d6a565b6001613ab09190614a97565b811015613ae9576040517f2c5211c600000000000000000000000000000000000000000000000000000000815260040160405180910390fd5b6001600e5f828254613afb9190614de1565b925050819055503373ffffffffffffffffffffffffffffffffffffffff167fc02ebe2e0167b3ce101ff4be84bbeacf66a81eebb6f8d142ffd02ea3fdfd0b0a600e54858585604051613b50949392919061552b565b60405180910390a260155f9054906101000a900473ffffffffffffffffffffffffffffffffffffffff1673ffffffffffffffffffffffffffffffffffffffff1663f242432a333086866040518563ffffffff1660e01b8152600401613bb89493929190614b88565b5f604051808303815f87803b158015613bcf575f80fd5b505af1158015613be1573d5f803e3d5ffd5b50505050505050565b5f63f23a6e6160e01b905095945050505050565b613c06613ddf565b5f73ffffffffffffffffffffffffffffffffffffffff168173ffffffffffffffffffffffffffffffffffffffff1603613c76575f6040517f1e4fbdf7000000000000000000000000000000000000000000000000000000008152600401613c6d91906143fc565b60405180910390fd5b613c7f81613ff0565b50565b613c8a613ddf565b6103e8821080613c9c5750620f423f82115b15613cd3576040517f5bfe79c600000000000000000000000000000000000000000000000000000000815260040160405180910390fd5b5f600283613ce1919061556e565b14613d18576040517f5c9f2ee800000000000000000000000000000000000000000000000000000000815260040160405180910390fd5b8060055f8481526020019081526020015f205f6101000a81548160ff02191690836002811115613d4b57613d4a614267565b5b02179055508160065f600185613d619190614de1565b81526020019081526020015f20819055505050565b5f7f01ffc9a7000000000000000000000000000000000000000000000000000000007bffffffffffffffffffffffffffffffffffffffffffffffffffffffff1916827bffffffffffffffffffffffffffffffffffffffffffffffffffffffff1916149050919050565b613de76140b1565b73ffffffffffffffffffffffffffffffffffffffff16613e05611dc3565b73ffffffffffffffffffffffffffffffffffffffff1614613e6457613e286140b1565b6040517f118cdaa7000000000000000000000000000000000000000000000000000000008152600401613e5b91906143fc565b60405180910390fd5b565b5f81424433604051602001613e7d9392919061559e565b604051602081830303815290604052805190602001205f1c613e9f919061556e565b9050919050565b5f80613eb26064613e66565b90505f605a821015613ec6575f9050613eeb565b605a8210158015613ed75750606382105b15613ee55760019050613eea565b600290505b5b5f60045f8681526020019081526020015f205f836002811115613f1157613f10614267565b5b6002811115613f2357613f22614267565b5b81526020019081526020015f20805480602002602001604051908101604052809291908181526020018280548015613f7857602002820191905f5260205f20905b815481526020019060010190808311613f64575b505050505090505f815111613fc2576040517f08c379a0000000000000000000000000000000000000000000000000000000008152600401613fb99061561d565b60405180910390fd5b80613fcd8251613e66565b81518110613fde57613fdd614db4565b5b60200260200101519350505050919050565b5f805f9054906101000a900473ffffffffffffffffffffffffffffffffffffffff169050815f806101000a81548173ffffffffffffffffffffffffffffffffffffffff021916908373ffffffffffffffffffffffffffffffffffffffff1602179055508173ffffffffffffffffffffffffffffffffffffffff168173ffffffffffffffffffffffffffffffffffffffff167f8be0079c531659141344cd1fd0a4f28419497f9722a3daafe3b4186f6b6457e060405160405180910390a35050565b5f33905090565b5f604051905090565b5f80fd5b5f80fd5b5f7fffffffff0000000000000000000000000000000000000000000000000000000082169050919050565b6140fd816140c9565b8114614107575f80fd5b50565b5f81359050614118816140f4565b92915050565b5f60208284031215614133576141326140c1565b5b5f6141408482850161410a565b91505092915050565b5f8115159050919050565b61415d81614149565b82525050565b5f6020820190506141765f830184614154565b92915050565b5f819050919050565b61418e8161417c565b8114614198575f80fd5b50565b5f813590506141a981614185565b92915050565b5f602082840312156141c4576141c36140c1565b5b5f6141d18482850161419b565b91505092915050565b6141e38161417c565b82525050565b5f6020820190506141fc5f8301846141da565b92915050565b5f6040820190506142155f8301856141da565b61422260208301846141da565b9392505050565b5f806040838503121561423f5761423e6140c1565b5b5f61424c8582860161419b565b925050602061425d8582860161419b565b9150509250929050565b7f4e487b71000000000000000000000000000000000000000000000000000000005f52602160045260245ffd5b600381106142a5576142a4614267565b5b50565b5f8190506142b582614294565b919050565b5f6142c4826142a8565b9050919050565b6142d4816142ba565b82525050565b5f6020820190506142ed5f8301846142cb565b92915050565b5f73ffffffffffffffffffffffffffffffffffffffff82169050919050565b5f61431c826142f3565b9050919050565b61432c81614312565b8114614336575f80fd5b50565b5f8135905061434781614323565b92915050565b5f61ffff82169050919050565b6143638161434d565b811461436d575f80fd5b50565b5f8135905061437e8161435a565b92915050565b5f806040838503121561439a576143996140c1565b5b5f6143a785828601614339565b92505060206143b885828601614370565b9150509250929050565b5f602082840312156143d7576143d66140c1565b5b5f6143e484828501614339565b91505092915050565b6143f681614312565b82525050565b5f60208201905061440f5f8301846143ed565b92915050565b5f6060820190506144285f8301866141da565b61443560208301856141da565b61444260408301846141da565b949350505050565b5f819050919050565b5f61446d614468614463846142f3565b61444a565b6142f3565b9050919050565b5f61447e82614453565b9050919050565b5f61448f82614474565b9050919050565b61449f81614485565b82525050565b5f6020820190506144b85f830184614496565b92915050565b600381106144ca575f80fd5b50565b5f813590506144db816144be565b92915050565b5f805f606084860312156144f8576144f76140c1565b5b5f6145058682870161419b565b9350506020614516868287016144cd565b92505060406145278682870161419b565b9150509250925092565b5f80fd5b5f601f19601f8301169050919050565b7f4e487b71000000000000000000000000000000000000000000000000000000005f52604160045260245ffd5b61457b82614535565b810181811067ffffffffffffffff8211171561459a57614599614545565b5b80604052505050565b5f6145ac6140b8565b90506145b88282614572565b919050565b5f67ffffffffffffffff8211156145d7576145d6614545565b5b602082029050602081019050919050565b5f80fd5b5f6145fe6145f9846145bd565b6145a3565b90508083825260208201905060208402830185811115614621576146206145e8565b5b835b8181101561464a5780614636888261419b565b845260208401935050602081019050614623565b5050509392505050565b5f82601f83011261466857614667614531565b5b81356146788482602086016145ec565b91505092915050565b5f80fd5b5f67ffffffffffffffff82111561469f5761469e614545565b5b6146a882614535565b9050602081019050919050565b828183375f83830152505050565b5f6146d56146d084614685565b6145a3565b9050828152602081018484840111156146f1576146f0614681565b5b6146fc8482856146b5565b509392505050565b5f82601f83011261471857614717614531565b5b81356147288482602086016146c3565b91505092915050565b5f805f805f60a0868803121561474a576147496140c1565b5b5f61475788828901614339565b955050602061476888828901614339565b945050604086013567ffffffffffffffff811115614789576147886140c5565b5b61479588828901614654565b935050606086013567ffffffffffffffff8111156147b6576147b56140c5565b5b6147c288828901614654565b925050608086013567ffffffffffffffff8111156147e3576147e26140c5565b5b6147ef88828901614704565b9150509295509295909350565b614805816140c9565b82525050565b5f60208201905061481e5f8301846147fc565b92915050565b5f6080820190506148375f8301876141da565b61484460208301866141da565b61485160408301856141da565b61485e60608301846143ed565b95945050505050565b5f806040838503121561487d5761487c6140c1565b5b5f61488a85828601614339565b925050602061489b8582860161419b565b9150509250929050565b5f63ffffffff82169050919050565b6148bd816148a5565b82525050565b5f6040820190506148d65f8301856148b4565b6148e360208301846148b4565b9392505050565b5f60c0820190506148fd5f8301896141da565b61490a60208301886148b4565b6149176040830187614154565b6149246060830186614154565b6149316080830185614154565b61493e60a0830184614154565b979650505050505050565b5f805f606084860312156149605761495f6140c1565b5b5f61496d8682870161419b565b935050602061497e8682870161419b565b925050604061498f8682870161419b565b9150509250925092565b5f805f805f60a086880312156149b2576149b16140c1565b5b5f6149bf88828901614339565b95505060206149d088828901614339565b94505060406149e18882890161419b565b93505060606149f28882890161419b565b925050608086013567ffffffffffffffff811115614a1357614a126140c5565b5b614a1f88828901614704565b9150509295509295909350565b5f8060408385031215614a4257614a416140c1565b5b5f614a4f8582860161419b565b9250506020614a60858286016144cd565b9150509250929050565b7f4e487b71000000000000000000000000000000000000000000000000000000005f52601160045260245ffd5b5f614aa18261417c565b9150614aac8361417c565b9250828202614aba8161417c565b91508282048414831517614ad157614ad0614a6a565b5b5092915050565b5f606082019050614aeb5f8301866143ed565b614af860208301856141da565b614b0560408301846141da565b949350505050565b5f82825260208201905092915050565b50565b5f614b2b5f83614b0d565b9150614b3682614b1d565b5f82019050919050565b5f608082019050614b535f8301866143ed565b614b6060208301856141da565b614b6d60408301846141da565b8181036060830152614b7e81614b20565b9050949350505050565b5f60a082019050614b9b5f8301876143ed565b614ba860208301866143ed565b614bb560408301856141da565b614bc260608301846141da565b8181036080830152614bd381614b20565b905095945050505050565b7f4e487b71000000000000000000000000000000000000000000000000000000005f52601260045260245ffd5b5f614c158261417c565b9150614c208361417c565b925082614c3057614c2f614bde565b5b828204905092915050565b5f8160011c9050919050565b5f808291508390505b6001851115614c9057808604811115614c6c57614c6b614a6a565b5b6001851615614c7b5780820291505b8081029050614c8985614c3b565b9450614c50565b94509492505050565b5f82614ca85760019050614d63565b81614cb5575f9050614d63565b8160018114614ccb5760028114614cd557614d04565b6001915050614d63565b60ff841115614ce757614ce6614a6a565b5b8360020a915084821115614cfe57614cfd614a6a565b5b50614d63565b5060208310610133831016604e8410600b8410161715614d395782820a905083811115614d3457614d33614a6a565b5b614d63565b614d468484846001614c47565b92509050818404811115614d5d57614d5c614a6a565b5b81810290505b9392505050565b5f614d748261417c565b9150614d7f8361417c565b9250614dac7fffffffffffffffffffffffffffffffffffffffffffffffffffffffffffffffff8484614c99565b905092915050565b7f4e487b71000000000000000000000000000000000000000000000000000000005f52603260045260245ffd5b5f614deb8261417c565b9150614df68361417c565b9250828201905080821115614e0e57614e0d614a6a565b5b92915050565b5f614e1e8261417c565b91507fffffffffffffffffffffffffffffffffffffffffffffffffffffffffffffffff8203614e5057614e4f614a6a565b5b600182019050919050565b5f614e658261417c565b9150614e708361417c565b9250828203905081811115614e8857614e87614a6a565b5b92915050565b5f819050919050565b5f614eb1614eac614ea784614e8e565b61444a565b61417c565b9050919050565b614ec181614e97565b82525050565b5f608082019050614eda5f8301866143ed565b614ee760208301856141da565b614ef46040830184614eb8565b8181036060830152614f0581614b20565b9050949350505050565b5f614f198261434d565b9150614f248361434d565b925082614f3457614f33614bde565b5b828206905092915050565b5f81519050919050565b5f82825260208201905092915050565b5f819050602082019050919050565b614f718161417c565b82525050565b5f614f828383614f68565b60208301905092915050565b5f602082019050919050565b5f614fa482614f3f565b614fae8185614f49565b9350614fb983614f59565b805f5b83811015614fe9578151614fd08882614f77565b9750614fdb83614f8e565b925050600181019050614fbc565b5085935050505092915050565b5f6080820190506150095f8301866143ed565b818103602083015261501b8185614f9a565b9050818103604083015261502f8184614f9a565b9050818103606083015261504281614b20565b9050949350505050565b5f819050919050565b5f61506f61506a6150658461504c565b61444a565b61417c565b9050919050565b61507f81615055565b82525050565b5f6060820190506150985f8301866143ed565b6150a560208301856141da565b6150b26040830184615076565b949350505050565b5f819050919050565b5f6150dd6150d86150d3846150ba565b61444a565b61417c565b9050919050565b6150ed816150c3565b82525050565b5f6080820190506151065f8301866143ed565b61511360208301856141da565b61512060408301846150e4565b818103606083015261513181614b20565b9050949350505050565b5f615145826148a5565b9150615150836148a5565b9250828201905063ffffffff81111561516c5761516b614a6a565b5b92915050565b5f61517c826148a5565b9150615187836148a5565b9250828203905063ffffffff8111156151a3576151a2614a6a565b5b92915050565b5f6040820190506151bc5f8301856143ed565b6151c960208301846141da565b9392505050565b5f815190506151de81614185565b92915050565b5f602082840312156151f9576151f86140c1565b5b5f615206848285016151d0565b91505092915050565b5f82825260208201905092915050565b7f556e62616c616e636564204c69717569646974792050726f76696465640000005f82015250565b5f615253601d8361520f565b915061525e8261521f565b602082019050919050565b5f6020820190508181035f83015261528081615247565b9050919050565b7f4e6f206c697175696469747920736861726573206d696e7465642e00000000005f82015250565b5f6152bb601b8361520f565b91506152c682615287565b602082019050919050565b5f6020820190508181035f8301526152e8816152af565b9050919050565b5f819050919050565b5f61531261530d615308846152ef565b61444a565b61417c565b9050919050565b615322816152f8565b82525050565b5f819050919050565b5f61534b61534661534184615328565b61444a565b61417c565b9050919050565b61535b81615331565b82525050565b5f6080820190506153745f8301866143ed565b6153816020830185615319565b61538e6040830184615352565b818103606083015261539f81614b20565b9050949350505050565b5f6080820190506153bc5f8301866143ed565b6153c960208301856150e4565b6153d660408301846141da565b81810360608301526153e781614b20565b9050949350505050565b5f819050919050565b5f61541461540f61540a846153f1565b61444a565b61417c565b9050919050565b615424816153fa565b82525050565b5f60808201905061543d5f8301866143ed565b61544a602083018561541b565b61545760408301846141da565b818103606083015261546881614b20565b9050949350505050565b5f6080820190506154855f8301866143ed565b6154926020830185615076565b61549f60408301846141da565b81810360608301526154b081614b20565b9050949350505050565b5f6060820190506154cd5f8301866143ed565b6154da60208301856141da565b6154e760408301846150e4565b949350505050565b5f6154f9826148a5565b9150615504836148a5565b9250828202615512816148a5565b915080821461552457615523614a6a565b5b5092915050565b5f60808201905061553e5f8301876141da565b61554b60208301866141da565b61555860408301856141da565b61556560608301846141da565b95945050505050565b5f6155788261417c565b91506155838361417c565b92508261559357615592614bde565b5b828206905092915050565b5f6060820190506155b15f8301866141da565b6155be60208301856141da565b6155cb60408301846143ed565b949350505050565b7f4e6f20736b696e7320696e20746865206c697374207965742e000000000000005f82015250565b5f61560760198361520f565b9150615612826155d3565b602082019050919050565b5f6020820190508181035f830152615634816155fb565b905091905056fea26469706673582212209aca03625297b0ec6f9055bf2097c559d6c3ccb9945da1934ffb64231ddb600364736f6c63430008140033",
			"opcodes": "PUSH1 0xA0 PUSH1 0x40 MSTORE PUSH9 0x3635C9ADC5DEA00000 PUSH1 0xA SSTORE CALLVALUE DUP1 ISZERO PUSH3 0x1D JUMPI PUSH0 DUP1 REVERT JUMPDEST POP PUSH1 0x40 MLOAD PUSH3 0x5B61 CODESIZE SUB DUP1 PUSH3 0x5B61 DUP4 CODECOPY DUP2 DUP2 ADD PUSH1 0x40 MSTORE DUP2 ADD SWAP1 PUSH3 0x43 SWAP2 SWAP1 PUSH3 0x41E JUMP JUMPDEST DUP1 PUSH0 PUSH20 0xFFFFFFFFFFFFFFFFFFFFFFFFFFFFFFFFFFFFFFFF AND DUP2 PUSH20 0xFFFFFFFFFFFFFFFFFFFFFFFFFFFFFFFFFFFFFFFF AND SUB PUSH3 0xB7 JUMPI PUSH0 PUSH1 0x40 MLOAD PUSH32 0x1E4FBDF700000000000000000000000000000000000000000000000000000000 DUP2 MSTORE PUSH1 0x4 ADD PUSH3 0xAE SWAP2 SWAP1 PUSH3 0x488 JUMP JUMPDEST PUSH1 0x40 MLOAD DUP1 SWAP2 SUB SWAP1 REVERT JUMPDEST PUSH3 0xC8 DUP2 PUSH3 0x2F8 PUSH1 0x20 SHL PUSH1 0x20 SHR JUMP JUMPDEST POP DUP2 PUSH1 0x15 PUSH0 PUSH2 0x100 EXP DUP2 SLOAD DUP2 PUSH20 0xFFFFFFFFFFFFFFFFFFFFFFFFFFFFFFFFFFFFFFFF MUL NOT AND SWAP1 DUP4 PUSH20 0xFFFFFFFFFFFFFFFFFFFFFFFFFFFFFFFFFFFFFFFF AND MUL OR SWAP1 SSTORE POP PUSH3 0x186A0 PUSH1 0xF PUSH0 ADD PUSH1 0x4 PUSH2 0x100 EXP DUP2 SLOAD DUP2 PUSH4 0xFFFFFFFF MUL NOT AND SWAP1 DUP4 PUSH4 0xFFFFFFFF AND MUL OR SWAP1 SSTORE POP DUP3 PUSH20 0xFFFFFFFFFFFFFFFFFFFFFFFFFFFFFFFFFFFFFFFF AND PUSH1 0x80 DUP2 PUSH20 0xFFFFFFFFFFFFFFFFFFFFFFFFFFFFFFFFFFFFFFFF AND DUP2 MSTORE POP POP PUSH1 0x32 PUSH1 0x8 PUSH0 DUP1 PUSH1 0x2 DUP2 GT ISZERO PUSH3 0x17E JUMPI PUSH3 0x17D PUSH3 0x4A3 JUMP JUMPDEST JUMPDEST PUSH1 0x2 DUP2 GT ISZERO PUSH3 0x193 JUMPI PUSH3 0x192 PUSH3 0x4A3 JUMP JUMPDEST JUMPDEST DUP2 MSTORE PUSH1 0x20 ADD SWAP1 DUP2 MSTORE PUSH1 0x20 ADD PUSH0 KECCAK256 DUP2 SWAP1 SSTORE POP PUSH2 0x1F4 PUSH1 0x8 PUSH0 PUSH1 0x1 PUSH1 0x2 DUP2 GT ISZERO PUSH3 0x1C1 JUMPI PUSH3 0x1C0 PUSH3 0x4A3 JUMP JUMPDEST JUMPDEST PUSH1 0x2 DUP2 GT ISZERO PUSH3 0x1D6 JUMPI PUSH3 0x1D5 PUSH3 0x4A3 JUMP JUMPDEST JUMPDEST DUP2 MSTORE PUSH1 0x20 ADD SWAP1 DUP2 MSTORE PUSH1 0x20 ADD PUSH0 KECCAK256 DUP2 SWAP1 SSTORE POP PUSH2 0x1388 PUSH1 0x8 PUSH0 PUSH1 0x2 DUP1 DUP2 GT ISZERO PUSH3 0x203 JUMPI PUSH3 0x202 PUSH3 0x4A3 JUMP JUMPDEST JUMPDEST PUSH1 0x2 DUP2 GT ISZERO PUSH3 0x218 JUMPI PUSH3 0x217 PUSH3 0x4A3 JUMP JUMPDEST JUMPDEST DUP2 MSTORE PUSH1 0x20 ADD SWAP1 DUP2 MSTORE PUSH1 0x20 ADD PUSH0 KECCAK256 DUP2 SWAP1 SSTORE POP PUSH1 0x64 PUSH1 0x9 PUSH0 DUP1 PUSH1 0x2 DUP2 GT ISZERO PUSH3 0x244 JUMPI PUSH3 0x243 PUSH3 0x4A3 JUMP JUMPDEST JUMPDEST PUSH1 0x2 DUP2 GT ISZERO PUSH3 0x259 JUMPI PUSH3 0x258 PUSH3 0x4A3 JUMP JUMPDEST JUMPDEST DUP2 MSTORE PUSH1 0x20 ADD SWAP1 DUP2 MSTORE PUSH1 0x20 ADD PUSH0 KECCAK256 DUP2 SWAP1 SSTORE POP PUSH2 0x3E8 PUSH1 0x9 PUSH0 PUSH1 0x1 PUSH1 0x2 DUP2 GT ISZERO PUSH3 0x287 JUMPI PUSH3 0x286 PUSH3 0x4A3 JUMP JUMPDEST JUMPDEST PUSH1 0x2 DUP2 GT ISZERO PUSH3 0x29C JUMPI PUSH3 0x29B PUSH3 0x4A3 JUMP JUMPDEST JUMPDEST DUP2 MSTORE PUSH1 0x20 ADD SWAP1 DUP2 MSTORE PUSH1 0x20 ADD PUSH0 KECCAK256 DUP2 SWAP1 SSTORE POP PUSH2 0x2710 PUSH1 0x9 PUSH0 PUSH1 0x2 DUP1 DUP2 GT ISZERO PUSH3 0x2C9 JUMPI PUSH3 0x2C8 PUSH3 0x4A3 JUMP JUMPDEST JUMPDEST PUSH1 0x2 DUP2 GT ISZERO PUSH3 0x2DE JUMPI PUSH3 0x2DD PUSH3 0x4A3 JUMP JUMPDEST JUMPDEST DUP2 MSTORE PUSH1 0x20 ADD SWAP1 DUP2 MSTORE PUSH1 0x20 ADD PUSH0 KECCAK256 DUP2 SWAP1 SSTORE POP POP POP POP PUSH3 0x4D0 JUMP JUMPDEST PUSH0 DUP1 PUSH0 SWAP1 SLOAD SWAP1 PUSH2 0x100 EXP SWAP1 DIV PUSH20 0xFFFFFFFFFFFFFFFFFFFFFFFFFFFFFFFFFFFFFFFF AND SWAP1 POP DUP2 PUSH0 DUP1 PUSH2 0x100 EXP DUP2 SLOAD DUP2 PUSH20 0xFFFFFFFFFFFFFFFFFFFFFFFFFFFFFFFFFFFFFFFF MUL NOT AND SWAP1 DUP4 PUSH20 0xFFFFFFFFFFFFFFFFFFFFFFFFFFFFFFFFFFFFFFFF AND MUL OR SWAP1 SSTORE POP DUP2 PUSH20 0xFFFFFFFFFFFFFFFFFFFFFFFFFFFFFFFFFFFFFFFF AND DUP2 PUSH20 0xFFFFFFFFFFFFFFFFFFFFFFFFFFFFFFFFFFFFFFFF AND PUSH32 0x8BE0079C531659141344CD1FD0A4F28419497F9722A3DAAFE3B4186F6B6457E0 PUSH1 0x40 MLOAD PUSH1 0x40 MLOAD DUP1 SWAP2 SUB SWAP1 LOG3 POP POP JUMP JUMPDEST PUSH0 DUP1 REVERT JUMPDEST PUSH0 PUSH20 0xFFFFFFFFFFFFFFFFFFFFFFFFFFFFFFFFFFFFFFFF DUP3 AND SWAP1 POP SWAP2 SWAP1 POP JUMP JUMPDEST PUSH0 PUSH3 0x3E8 DUP3 PUSH3 0x3BD JUMP JUMPDEST SWAP1 POP SWAP2 SWAP1 POP JUMP JUMPDEST PUSH3 0x3FA DUP2 PUSH3 0x3DC JUMP JUMPDEST DUP2 EQ PUSH3 0x405 JUMPI PUSH0 DUP1 REVERT JUMPDEST POP JUMP JUMPDEST PUSH0 DUP2 MLOAD SWAP1 POP PUSH3 0x418 DUP2 PUSH3 0x3EF JUMP JUMPDEST SWAP3 SWAP2 POP POP JUMP JUMPDEST PUSH0 DUP1 PUSH0 PUSH1 0x60 DUP5 DUP7 SUB SLT ISZERO PUSH3 0x438 JUMPI PUSH3 0x437 PUSH3 0x3B9 JUMP JUMPDEST JUMPDEST PUSH0 PUSH3 0x447 DUP7 DUP3 DUP8 ADD PUSH3 0x408 JUMP JUMPDEST SWAP4 POP POP PUSH1 0x20 PUSH3 0x45A DUP7 DUP3 DUP8 ADD PUSH3 0x408 JUMP JUMPDEST SWAP3 POP POP PUSH1 0x40 PUSH3 0x46D DUP7 DUP3 DUP8 ADD PUSH3 0x408 JUMP JUMPDEST SWAP2 POP POP SWAP3 POP SWAP3 POP SWAP3 JUMP JUMPDEST PUSH3 0x482 DUP2 PUSH3 0x3DC JUMP JUMPDEST DUP3 MSTORE POP POP JUMP JUMPDEST PUSH0 PUSH1 0x20 DUP3 ADD SWAP1 POP PUSH3 0x49D PUSH0 DUP4 ADD DUP5 PUSH3 0x477 JUMP JUMPDEST SWAP3 SWAP2 POP POP JUMP JUMPDEST PUSH32 0x4E487B7100000000000000000000000000000000000000000000000000000000 PUSH0 MSTORE PUSH1 0x21 PUSH1 0x4 MSTORE PUSH1 0x24 PUSH0 REVERT JUMPDEST PUSH1 0x80 MLOAD PUSH2 0x5671 PUSH3 0x4F0 PUSH0 CODECOPY PUSH0 DUP2 DUP2 PUSH2 0x2DA3 ADD MSTORE PUSH2 0x3300 ADD MSTORE PUSH2 0x5671 PUSH0 RETURN INVALID PUSH1 0x80 PUSH1 0x40 MSTORE PUSH1 0x4 CALLDATASIZE LT PUSH2 0x250 JUMPI PUSH0 CALLDATALOAD PUSH1 0xE0 SHR DUP1 PUSH4 0x9CD441DA GT PUSH2 0x138 JUMPI DUP1 PUSH4 0xC391EA40 GT PUSH2 0xB5 JUMPI DUP1 PUSH4 0xDE0E9A3E GT PUSH2 0x79 JUMPI DUP1 PUSH4 0xDE0E9A3E EQ PUSH2 0x830 JUMPI DUP1 PUSH4 0xE2EB41FF EQ PUSH2 0x858 JUMPI DUP1 PUSH4 0xEC16B94A EQ PUSH2 0x899 JUMPI DUP1 PUSH4 0xF23A6E61 EQ PUSH2 0x8C1 JUMPI DUP1 PUSH4 0xF2FDE38B EQ PUSH2 0x8FD JUMPI DUP1 PUSH4 0xFEED7C3B EQ PUSH2 0x925 JUMPI PUSH2 0x250 JUMP JUMPDEST DUP1 PUSH4 0xC391EA40 EQ PUSH2 0x76D JUMPI DUP1 PUSH4 0xC3FE3E28 EQ PUSH2 0x7AB JUMPI DUP1 PUSH4 0xD46EB119 EQ PUSH2 0x7D6 JUMPI DUP1 PUSH4 0xD900F938 EQ PUSH2 0x7E0 JUMPI DUP1 PUSH4 0xD96073CF EQ PUSH2 0x808 JUMPI PUSH2 0x250 JUMP JUMPDEST DUP1 PUSH4 0xB4A200CD GT PUSH2 0xFC JUMPI DUP1 PUSH4 0xB4A200CD EQ PUSH2 0x676 JUMPI DUP1 PUSH4 0xB9999EFB EQ PUSH2 0x6A0 JUMPI DUP1 PUSH4 0xBBF5ED70 EQ PUSH2 0x6DC JUMPI DUP1 PUSH4 0xBC197C81 EQ PUSH2 0x6F2 JUMPI DUP1 PUSH4 0xBFB231D2 EQ PUSH2 0x72E JUMPI PUSH2 0x250 JUMP JUMPDEST DUP1 PUSH4 0x9CD441DA EQ PUSH2 0x5C0 JUMPI DUP1 PUSH4 0x9CD51D25 EQ PUSH2 0x5E8 JUMPI DUP1 PUSH4 0x9E2C8A5B EQ PUSH2 0x5FE JUMPI DUP1 PUSH4 0xB1275F9A EQ PUSH2 0x626 JUMPI DUP1 PUSH4 0xB1411F97 EQ PUSH2 0x64E JUMPI PUSH2 0x250 JUMP JUMPDEST DUP1 PUSH4 0x5E7897E9 GT PUSH2 0x1D1 JUMPI DUP1 PUSH4 0x7E75CB43 GT PUSH2 0x195 JUMPI DUP1 PUSH4 0x7E75CB43 EQ PUSH2 0x4CA JUMPI DUP1 PUSH4 0x8DA5CB5B EQ PUSH2 0x4F2 JUMPI DUP1 PUSH4 0x96FD171B EQ PUSH2 0x51C JUMPI DUP1 PUSH4 0x9979C009 EQ PUSH2 0x548 JUMPI DUP1 PUSH4 0x9AF40F0C EQ PUSH2 0x570 JUMPI DUP1 PUSH4 0x9C8F9F23 EQ PUSH2 0x598 JUMPI PUSH2 0x250 JUMP JUMPDEST DUP1 PUSH4 0x5E7897E9 EQ PUSH2 0x414 JUMPI DUP1 PUSH4 0x68362471 EQ PUSH2 0x43C JUMPI DUP1 PUSH4 0x715018A6 EQ PUSH2 0x464 JUMPI DUP1 PUSH4 0x72DA0D81 EQ PUSH2 0x47A JUMPI DUP1 PUSH4 0x7B0472F0 EQ PUSH2 0x4A2 JUMPI PUSH2 0x250 JUMP JUMPDEST DUP1 PUSH4 0x372500AB GT PUSH2 0x218 JUMPI DUP1 PUSH4 0x372500AB EQ PUSH2 0x35B JUMPI DUP1 PUSH4 0x3D35453B EQ PUSH2 0x371 JUMPI DUP1 PUSH4 0x40282252 EQ PUSH2 0x399 JUMPI DUP1 PUSH4 0x51563F8E EQ PUSH2 0x3D6 JUMPI DUP1 PUSH4 0x5D26B838 EQ PUSH2 0x3FE JUMPI PUSH2 0x250 JUMP JUMPDEST DUP1 PUSH4 0x1FFC9A7 EQ PUSH2 0x254 JUMPI DUP1 PUSH4 0x15B4CBBA EQ PUSH2 0x290 JUMPI DUP1 PUSH4 0x1A686502 EQ PUSH2 0x2CC JUMPI DUP1 PUSH4 0x24ED2A0F EQ PUSH2 0x2F7 JUMPI DUP1 PUSH4 0x2DB2EDE5 EQ PUSH2 0x31F JUMPI JUMPDEST PUSH0 DUP1 REVERT JUMPDEST CALLVALUE DUP1 ISZERO PUSH2 0x25F JUMPI PUSH0 DUP1 REVERT JUMPDEST POP PUSH2 0x27A PUSH1 0x4 DUP1 CALLDATASIZE SUB DUP2 ADD SWAP1 PUSH2 0x275 SWAP2 SWAP1 PUSH2 0x411E JUMP JUMPDEST PUSH2 0x94D JUMP JUMPDEST PUSH1 0x40 MLOAD PUSH2 0x287 SWAP2 SWAP1 PUSH2 0x4163 JUMP JUMPDEST PUSH1 0x40 MLOAD DUP1 SWAP2 SUB SWAP1 RETURN JUMPDEST CALLVALUE DUP1 ISZERO PUSH2 0x29B JUMPI PUSH0 DUP1 REVERT JUMPDEST POP PUSH2 0x2B6 PUSH1 0x4 DUP1 CALLDATASIZE SUB DUP2 ADD SWAP1 PUSH2 0x2B1 SWAP2 SWAP1 PUSH2 0x41AF JUMP JUMPDEST PUSH2 0x9C6 JUMP JUMPDEST PUSH1 0x40 MLOAD PUSH2 0x2C3 SWAP2 SWAP1 PUSH2 0x41E9 JUMP JUMPDEST PUSH1 0x40 MLOAD DUP1 SWAP2 SUB SWAP1 RETURN JUMPDEST CALLVALUE DUP1 ISZERO PUSH2 0x2D7 JUMPI PUSH0 DUP1 REVERT JUMPDEST POP PUSH2 0x2E0 PUSH2 0x9DB JUMP JUMPDEST PUSH1 0x40 MLOAD PUSH2 0x2EE SWAP3 SWAP2 SWAP1 PUSH2 0x4202 JUMP JUMPDEST PUSH1 0x40 MLOAD DUP1 SWAP2 SUB SWAP1 RETURN JUMPDEST CALLVALUE DUP1 ISZERO PUSH2 0x302 JUMPI PUSH0 DUP1 REVERT JUMPDEST POP PUSH2 0x31D PUSH1 0x4 DUP1 CALLDATASIZE SUB DUP2 ADD SWAP1 PUSH2 0x318 SWAP2 SWAP1 PUSH2 0x4229 JUMP JUMPDEST PUSH2 0x9EC JUMP JUMPDEST STOP JUMPDEST CALLVALUE DUP1 ISZERO PUSH2 0x32A JUMPI PUSH0 DUP1 REVERT JUMPDEST POP PUSH2 0x345 PUSH1 0x4 DUP1 CALLDATASIZE SUB DUP2 ADD SWAP1 PUSH2 0x340 SWAP2 SWAP1 PUSH2 0x41AF JUMP JUMPDEST PUSH2 0xB79 JUMP JUMPDEST PUSH1 0x40 MLOAD PUSH2 0x352 SWAP2 SWAP1 PUSH2 0x42DA JUMP JUMPDEST PUSH1 0x40 MLOAD DUP1 SWAP2 SUB SWAP1 RETURN JUMPDEST CALLVALUE DUP1 ISZERO PUSH2 0x366 JUMPI PUSH0 DUP1 REVERT JUMPDEST POP PUSH2 0x36F PUSH2 0xB96 JUMP JUMPDEST STOP JUMPDEST CALLVALUE DUP1 ISZERO PUSH2 0x37C JUMPI PUSH0 DUP1 REVERT JUMPDEST POP PUSH2 0x397 PUSH1 0x4 DUP1 CALLDATASIZE SUB DUP2 ADD SWAP1 PUSH2 0x392 SWAP2 SWAP1 PUSH2 0x41AF JUMP JUMPDEST PUSH2 0xCB5 JUMP JUMPDEST STOP JUMPDEST CALLVALUE DUP1 ISZERO PUSH2 0x3A4 JUMPI PUSH0 DUP1 REVERT JUMPDEST POP PUSH2 0x3BF PUSH1 0x4 DUP1 CALLDATASIZE SUB DUP2 ADD SWAP1 PUSH2 0x3BA SWAP2 SWAP1 PUSH2 0x41AF JUMP JUMPDEST PUSH2 0xD2C JUMP JUMPDEST PUSH1 0x40 MLOAD PUSH2 0x3CD SWAP3 SWAP2 SWAP1 PUSH2 0x4202 JUMP JUMPDEST PUSH1 0x40 MLOAD DUP1 SWAP2 SUB SWAP1 RETURN JUMPDEST CALLVALUE DUP1 ISZERO PUSH2 0x3E1 JUMPI PUSH0 DUP1 REVERT JUMPDEST POP PUSH2 0x3FC PUSH1 0x4 DUP1 CALLDATASIZE SUB DUP2 ADD SWAP1 PUSH2 0x3F7 SWAP2 SWAP1 PUSH2 0x41AF JUMP JUMPDEST PUSH2 0xD4C JUMP JUMPDEST STOP JUMPDEST CALLVALUE DUP1 ISZERO PUSH2 0x409 JUMPI PUSH0 DUP1 REVERT JUMPDEST POP PUSH2 0x412 PUSH2 0xF02 JUMP JUMPDEST STOP JUMPDEST CALLVALUE DUP1 ISZERO PUSH2 0x41F JUMPI PUSH0 DUP1 REVERT JUMPDEST POP PUSH2 0x43A PUSH1 0x4 DUP1 CALLDATASIZE SUB DUP2 ADD SWAP1 PUSH2 0x435 SWAP2 SWAP1 PUSH2 0x4384 JUMP JUMPDEST PUSH2 0x14FF JUMP JUMPDEST STOP JUMPDEST CALLVALUE DUP1 ISZERO PUSH2 0x447 JUMPI PUSH0 DUP1 REVERT JUMPDEST POP PUSH2 0x462 PUSH1 0x4 DUP1 CALLDATASIZE SUB DUP2 ADD SWAP1 PUSH2 0x45D SWAP2 SWAP1 PUSH2 0x4229 JUMP JUMPDEST PUSH2 0x1730 JUMP JUMPDEST STOP JUMPDEST CALLVALUE DUP1 ISZERO PUSH2 0x46F JUMPI PUSH0 DUP1 REVERT JUMPDEST POP PUSH2 0x478 PUSH2 0x18AC JUMP JUMPDEST STOP JUMPDEST CALLVALUE DUP1 ISZERO PUSH2 0x485 JUMPI PUSH0 DUP1 REVERT JUMPDEST POP PUSH2 0x4A0 PUSH1 0x4 DUP1 CALLDATASIZE SUB DUP2 ADD SWAP1 PUSH2 0x49B SWAP2 SWAP1 PUSH2 0x41AF JUMP JUMPDEST PUSH2 0x18BF JUMP JUMPDEST STOP JUMPDEST CALLVALUE DUP1 ISZERO PUSH2 0x4AD JUMPI PUSH0 DUP1 REVERT JUMPDEST POP PUSH2 0x4C8 PUSH1 0x4 DUP1 CALLDATASIZE SUB DUP2 ADD SWAP1 PUSH2 0x4C3 SWAP2 SWAP1 PUSH2 0x4229 JUMP JUMPDEST PUSH2 0x1A9C JUMP JUMPDEST STOP JUMPDEST CALLVALUE DUP1 ISZERO PUSH2 0x4D5 JUMPI PUSH0 DUP1 REVERT JUMPDEST POP PUSH2 0x4F0 PUSH1 0x4 DUP1 CALLDATASIZE SUB DUP2 ADD SWAP1 PUSH2 0x4EB SWAP2 SWAP1 PUSH2 0x43C2 JUMP JUMPDEST PUSH2 0x1C3E JUMP JUMPDEST STOP JUMPDEST CALLVALUE DUP1 ISZERO PUSH2 0x4FD JUMPI PUSH0 DUP1 REVERT JUMPDEST POP PUSH2 0x506 PUSH2 0x1DC3 JUMP JUMPDEST PUSH1 0x40 MLOAD PUSH2 0x513 SWAP2 SWAP1 PUSH2 0x43FC JUMP JUMPDEST PUSH1 0x40 MLOAD DUP1 SWAP2 SUB SWAP1 RETURN JUMPDEST CALLVALUE DUP1 ISZERO PUSH2 0x527 JUMPI PUSH0 DUP1 REVERT JUMPDEST POP PUSH2 0x530 PUSH2 0x1DEA JUMP JUMPDEST PUSH1 0x40 MLOAD PUSH2 0x53F SWAP4 SWAP3 SWAP2 SWAP1 PUSH2 0x4415 JUMP JUMPDEST PUSH1 0x40 MLOAD DUP1 SWAP2 SUB SWAP1 RETURN JUMPDEST CALLVALUE DUP1 ISZERO PUSH2 0x553 JUMPI PUSH0 DUP1 REVERT JUMPDEST POP PUSH2 0x56E PUSH1 0x4 DUP1 CALLDATASIZE SUB DUP2 ADD SWAP1 PUSH2 0x569 SWAP2 SWAP1 PUSH2 0x4229 JUMP JUMPDEST PUSH2 0x1E01 JUMP JUMPDEST STOP JUMPDEST CALLVALUE DUP1 ISZERO PUSH2 0x57B JUMPI PUSH0 DUP1 REVERT JUMPDEST POP PUSH2 0x596 PUSH1 0x4 DUP1 CALLDATASIZE SUB DUP2 ADD SWAP1 PUSH2 0x591 SWAP2 SWAP1 PUSH2 0x41AF JUMP JUMPDEST PUSH2 0x203B JUMP JUMPDEST STOP JUMPDEST CALLVALUE DUP1 ISZERO PUSH2 0x5A3 JUMPI PUSH0 DUP1 REVERT JUMPDEST POP PUSH2 0x5BE PUSH1 0x4 DUP1 CALLDATASIZE SUB DUP2 ADD SWAP1 PUSH2 0x5B9 SWAP2 SWAP1 PUSH2 0x41AF JUMP JUMPDEST PUSH2 0x219E JUMP JUMPDEST STOP JUMPDEST CALLVALUE DUP1 ISZERO PUSH2 0x5CB JUMPI PUSH0 DUP1 REVERT JUMPDEST POP PUSH2 0x5E6 PUSH1 0x4 DUP1 CALLDATASIZE SUB DUP2 ADD SWAP1 PUSH2 0x5E1 SWAP2 SWAP1 PUSH2 0x4229 JUMP JUMPDEST PUSH2 0x257B JUMP JUMPDEST STOP JUMPDEST CALLVALUE DUP1 ISZERO PUSH2 0x5F3 JUMPI PUSH0 DUP1 REVERT JUMPDEST POP PUSH2 0x5FC PUSH2 0x2999 JUMP JUMPDEST STOP JUMPDEST CALLVALUE DUP1 ISZERO PUSH2 0x609 JUMPI PUSH0 DUP1 REVERT JUMPDEST POP PUSH2 0x624 PUSH1 0x4 DUP1 CALLDATASIZE SUB DUP2 ADD SWAP1 PUSH2 0x61F SWAP2 SWAP1 PUSH2 0x4229 JUMP JUMPDEST PUSH2 0x2CC5 JUMP JUMPDEST STOP JUMPDEST CALLVALUE DUP1 ISZERO PUSH2 0x631 JUMPI PUSH0 DUP1 REVERT JUMPDEST POP PUSH2 0x64C PUSH1 0x4 DUP1 CALLDATASIZE SUB DUP2 ADD SWAP1 PUSH2 0x647 SWAP2 SWAP1 PUSH2 0x43C2 JUMP JUMPDEST PUSH2 0x2E87 JUMP JUMPDEST STOP JUMPDEST CALLVALUE DUP1 ISZERO PUSH2 0x659 JUMPI PUSH0 DUP1 REVERT JUMPDEST POP PUSH2 0x674 PUSH1 0x4 DUP1 CALLDATASIZE SUB DUP2 ADD SWAP1 PUSH2 0x66F SWAP2 SWAP1 PUSH2 0x41AF JUMP JUMPDEST PUSH2 0x2EF2 JUMP JUMPDEST STOP JUMPDEST CALLVALUE DUP1 ISZERO PUSH2 0x681 JUMPI PUSH0 DUP1 REVERT JUMPDEST POP PUSH2 0x68A PUSH2 0x3114 JUMP JUMPDEST PUSH1 0x40 MLOAD PUSH2 0x697 SWAP2 SWAP1 PUSH2 0x44A5 JUMP JUMPDEST PUSH1 0x40 MLOAD DUP1 SWAP2 SUB SWAP1 RETURN JUMPDEST CALLVALUE DUP1 ISZERO PUSH2 0x6AB JUMPI PUSH0 DUP1 REVERT JUMPDEST POP PUSH2 0x6C6 PUSH1 0x4 DUP1 CALLDATASIZE SUB DUP2 ADD SWAP1 PUSH2 0x6C1 SWAP2 SWAP1 PUSH2 0x44E1 JUMP JUMPDEST PUSH2 0x3139 JUMP JUMPDEST PUSH1 0x40 MLOAD PUSH2 0x6D3 SWAP2 SWAP1 PUSH2 0x41E9 JUMP JUMPDEST PUSH1 0x40 MLOAD DUP1 SWAP2 SUB SWAP1 RETURN JUMPDEST CALLVALUE DUP1 ISZERO PUSH2 0x6E7 JUMPI PUSH0 DUP1 REVERT JUMPDEST POP PUSH2 0x6F0 PUSH2 0x316F JUMP JUMPDEST STOP JUMPDEST CALLVALUE DUP1 ISZERO PUSH2 0x6FD JUMPI PUSH0 DUP1 REVERT JUMPDEST POP PUSH2 0x718 PUSH1 0x4 DUP1 CALLDATASIZE SUB DUP2 ADD SWAP1 PUSH2 0x713 SWAP2 SWAP1 PUSH2 0x4731 JUMP JUMPDEST PUSH2 0x345D JUMP JUMPDEST PUSH1 0x40 MLOAD PUSH2 0x725 SWAP2 SWAP1 PUSH2 0x480B JUMP JUMPDEST PUSH1 0x40 MLOAD DUP1 SWAP2 SUB SWAP1 RETURN JUMPDEST CALLVALUE DUP1 ISZERO PUSH2 0x739 JUMPI PUSH0 DUP1 REVERT JUMPDEST POP PUSH2 0x754 PUSH1 0x4 DUP1 CALLDATASIZE SUB DUP2 ADD SWAP1 PUSH2 0x74F SWAP2 SWAP1 PUSH2 0x41AF JUMP JUMPDEST PUSH2 0x3471 JUMP JUMPDEST PUSH1 0x40 MLOAD PUSH2 0x764 SWAP5 SWAP4 SWAP3 SWAP2 SWAP1 PUSH2 0x4824 JUMP JUMPDEST PUSH1 0x40 MLOAD DUP1 SWAP2 SUB SWAP1 RETURN JUMPDEST CALLVALUE DUP1 ISZERO PUSH2 0x778 JUMPI PUSH0 DUP1 REVERT JUMPDEST POP PUSH2 0x793 PUSH1 0x4 DUP1 CALLDATASIZE SUB DUP2 ADD SWAP1 PUSH2 0x78E SWAP2 SWAP1 PUSH2 0x4867 JUMP JUMPDEST PUSH2 0x34BC JUMP JUMPDEST PUSH1 0x40 MLOAD PUSH2 0x7A2 SWAP4 SWAP3 SWAP2 SWAP1 PUSH2 0x4415 JUMP JUMPDEST PUSH1 0x40 MLOAD DUP1 SWAP2 SUB SWAP1 RETURN JUMPDEST CALLVALUE DUP1 ISZERO PUSH2 0x7B6 JUMPI PUSH0 DUP1 REVERT JUMPDEST POP PUSH2 0x7BF PUSH2 0x34ED JUMP JUMPDEST PUSH1 0x40 MLOAD PUSH2 0x7CD SWAP3 SWAP2 SWAP1 PUSH2 0x48C3 JUMP JUMPDEST PUSH1 0x40 MLOAD DUP1 SWAP2 SUB SWAP1 RETURN JUMPDEST PUSH2 0x7DE PUSH2 0x351C JUMP JUMPDEST STOP JUMPDEST CALLVALUE DUP1 ISZERO PUSH2 0x7EB JUMPI PUSH0 DUP1 REVERT JUMPDEST POP PUSH2 0x806 PUSH1 0x4 DUP1 CALLDATASIZE SUB DUP2 ADD SWAP1 PUSH2 0x801 SWAP2 SWAP1 PUSH2 0x4229 JUMP JUMPDEST PUSH2 0x35AA JUMP JUMPDEST STOP JUMPDEST CALLVALUE DUP1 ISZERO PUSH2 0x813 JUMPI PUSH0 DUP1 REVERT JUMPDEST POP PUSH2 0x82E PUSH1 0x4 DUP1 CALLDATASIZE SUB DUP2 ADD SWAP1 PUSH2 0x829 SWAP2 SWAP1 PUSH2 0x4229 JUMP JUMPDEST PUSH2 0x363B JUMP JUMPDEST STOP JUMPDEST CALLVALUE DUP1 ISZERO PUSH2 0x83B JUMPI PUSH0 DUP1 REVERT JUMPDEST POP PUSH2 0x856 PUSH1 0x4 DUP1 CALLDATASIZE SUB DUP2 ADD SWAP1 PUSH2 0x851 SWAP2 SWAP1 PUSH2 0x41AF JUMP JUMPDEST PUSH2 0x390D JUMP JUMPDEST STOP JUMPDEST CALLVALUE DUP1 ISZERO PUSH2 0x863 JUMPI PUSH0 DUP1 REVERT JUMPDEST POP PUSH2 0x87E PUSH1 0x4 DUP1 CALLDATASIZE SUB DUP2 ADD SWAP1 PUSH2 0x879 SWAP2 SWAP1 PUSH2 0x43C2 JUMP JUMPDEST PUSH2 0x39E0 JUMP JUMPDEST PUSH1 0x40 MLOAD PUSH2 0x890 SWAP7 SWAP6 SWAP5 SWAP4 SWAP3 SWAP2 SWAP1 PUSH2 0x48EA JUMP JUMPDEST PUSH1 0x40 MLOAD DUP1 SWAP2 SUB SWAP1 RETURN JUMPDEST CALLVALUE DUP1 ISZERO PUSH2 0x8A4 JUMPI PUSH0 DUP1 REVERT JUMPDEST POP PUSH2 0x8BF PUSH1 0x4 DUP1 CALLDATASIZE SUB DUP2 ADD SWAP1 PUSH2 0x8BA SWAP2 SWAP1 PUSH2 0x4949 JUMP JUMPDEST PUSH2 0x3A5B JUMP JUMPDEST STOP JUMPDEST CALLVALUE DUP1 ISZERO PUSH2 0x8CC JUMPI PUSH0 DUP1 REVERT JUMPDEST POP PUSH2 0x8E7 PUSH1 0x4 DUP1 CALLDATASIZE SUB DUP2 ADD SWAP1 PUSH2 0x8E2 SWAP2 SWAP1 PUSH2 0x4999 JUMP JUMPDEST PUSH2 0x3BEA JUMP JUMPDEST PUSH1 0x40 MLOAD PUSH2 0x8F4 SWAP2 SWAP1 PUSH2 0x480B JUMP JUMPDEST PUSH1 0x40 MLOAD DUP1 SWAP2 SUB SWAP1 RETURN JUMPDEST CALLVALUE DUP1 ISZERO PUSH2 0x908 JUMPI PUSH0 DUP1 REVERT JUMPDEST POP PUSH2 0x923 PUSH1 0x4 DUP1 CALLDATASIZE SUB DUP2 ADD SWAP1 PUSH2 0x91E SWAP2 SWAP1 PUSH2 0x43C2 JUMP JUMPDEST PUSH2 0x3BFE JUMP JUMPDEST STOP JUMPDEST CALLVALUE DUP1 ISZERO PUSH2 0x930 JUMPI PUSH0 DUP1 REVERT JUMPDEST POP PUSH2 0x94B PUSH1 0x4 DUP1 CALLDATASIZE SUB DUP2 ADD SWAP1 PUSH2 0x946 SWAP2 SWAP1 PUSH2 0x4A2C JUMP JUMPDEST PUSH2 0x3C82 JUMP JUMPDEST STOP JUMPDEST PUSH0 PUSH32 0x4E2312E000000000000000000000000000000000000000000000000000000000 PUSH28 0xFFFFFFFFFFFFFFFFFFFFFFFFFFFFFFFFFFFFFFFFFFFFFFFFFFFFFFFF NOT AND DUP3 PUSH28 0xFFFFFFFFFFFFFFFFFFFFFFFFFFFFFFFFFFFFFFFFFFFFFFFFFFFFFFFF NOT AND EQ DUP1 PUSH2 0x9BF JUMPI POP PUSH2 0x9BE DUP3 PUSH2 0x3D76 JUMP JUMPDEST JUMPDEST SWAP1 POP SWAP2 SWAP1 POP JUMP JUMPDEST PUSH1 0x6 PUSH1 0x20 MSTORE DUP1 PUSH0 MSTORE PUSH1 0x40 PUSH0 KECCAK256 PUSH0 SWAP2 POP SWAP1 POP SLOAD DUP2 JUMP JUMPDEST PUSH1 0x10 DUP1 PUSH0 ADD SLOAD SWAP1 DUP1 PUSH1 0x1 ADD SLOAD SWAP1 POP DUP3 JUMP JUMPDEST PUSH0 PUSH1 0x5 PUSH0 PUSH1 0x6 PUSH0 DUP7 DUP2 MSTORE PUSH1 0x20 ADD SWAP1 DUP2 MSTORE PUSH1 0x20 ADD PUSH0 KECCAK256 SLOAD DUP2 MSTORE PUSH1 0x20 ADD SWAP1 DUP2 MSTORE PUSH1 0x20 ADD PUSH0 KECCAK256 PUSH0 SWAP1 SLOAD SWAP1 PUSH2 0x100 EXP SWAP1 DIV PUSH1 0xFF AND SWAP1 POP PUSH1 0x15 PUSH0 SWAP1 SLOAD SWAP1 PUSH2 0x100 EXP SWAP1 DIV PUSH20 0xFFFFFFFFFFFFFFFFFFFFFFFFFFFFFFFFFFFFFFFF AND PUSH20 0xFFFFFFFFFFFFFFFFFFFFFFFFFFFFFFFFFFFFFFFF AND PUSH4 0xF5298ACA CALLER PUSH0 DUP6 PUSH1 0x8 PUSH0 DUP8 PUSH1 0x2 DUP2 GT ISZERO PUSH2 0xA74 JUMPI PUSH2 0xA73 PUSH2 0x4267 JUMP JUMPDEST JUMPDEST PUSH1 0x2 DUP2 GT ISZERO PUSH2 0xA86 JUMPI PUSH2 0xA85 PUSH2 0x4267 JUMP JUMPDEST JUMPDEST DUP2 MSTORE PUSH1 0x20 ADD SWAP1 DUP2 MSTORE PUSH1 0x20 ADD PUSH0 KECCAK256 SLOAD PUSH2 0xA9E SWAP2 SWAP1 PUSH2 0x4A97 JUMP JUMPDEST PUSH1 0x40 MLOAD DUP5 PUSH4 0xFFFFFFFF AND PUSH1 0xE0 SHL DUP2 MSTORE PUSH1 0x4 ADD PUSH2 0xABC SWAP4 SWAP3 SWAP2 SWAP1 PUSH2 0x4AD8 JUMP JUMPDEST PUSH0 PUSH1 0x40 MLOAD DUP1 DUP4 SUB DUP2 PUSH0 DUP8 DUP1 EXTCODESIZE ISZERO DUP1 ISZERO PUSH2 0xAD3 JUMPI PUSH0 DUP1 REVERT JUMPDEST POP GAS CALL ISZERO DUP1 ISZERO PUSH2 0xAE5 JUMPI RETURNDATASIZE PUSH0 DUP1 RETURNDATACOPY RETURNDATASIZE PUSH0 REVERT JUMPDEST POP POP POP POP PUSH1 0x15 PUSH0 SWAP1 SLOAD SWAP1 PUSH2 0x100 EXP SWAP1 DIV PUSH20 0xFFFFFFFFFFFFFFFFFFFFFFFFFFFFFFFFFFFFFFFF AND PUSH20 0xFFFFFFFFFFFFFFFFFFFFFFFFFFFFFFFFFFFFFFFF AND PUSH4 0x731133E9 CALLER DUP6 DUP6 PUSH1 0x40 MLOAD DUP5 PUSH4 0xFFFFFFFF AND PUSH1 0xE0 SHL DUP2 MSTORE PUSH1 0x4 ADD PUSH2 0xB47 SWAP4 SWAP3 SWAP2 SWAP1 PUSH2 0x4B40 JUMP JUMPDEST PUSH0 PUSH1 0x40 MLOAD DUP1 DUP4 SUB DUP2 PUSH0 DUP8 DUP1 EXTCODESIZE ISZERO DUP1 ISZERO PUSH2 0xB5E JUMPI PUSH0 DUP1 REVERT JUMPDEST POP GAS CALL ISZERO DUP1 ISZERO PUSH2 0xB70 JUMPI RETURNDATASIZE PUSH0 DUP1 RETURNDATACOPY RETURNDATASIZE PUSH0 REVERT JUMPDEST POP POP POP POP POP POP POP JUMP JUMPDEST PUSH1 0x5 PUSH1 0x20 MSTORE DUP1 PUSH0 MSTORE PUSH1 0x40 PUSH0 KECCAK256 PUSH0 SWAP2 POP SLOAD SWAP1 PUSH2 0x100 EXP SWAP1 DIV PUSH1 0xFF AND DUP2 JUMP JUMPDEST PUSH0 PUSH1 0x1 PUSH0 CALLER PUSH20 0xFFFFFFFFFFFFFFFFFFFFFFFFFFFFFFFFFFFFFFFF AND PUSH20 0xFFFFFFFFFFFFFFFFFFFFFFFFFFFFFFFFFFFFFFFF AND DUP2 MSTORE PUSH1 0x20 ADD SWAP1 DUP2 MSTORE PUSH1 0x20 ADD PUSH0 KECCAK256 SWAP1 POP PUSH1 0x1 DUP2 PUSH0 ADD SLOAD LT ISZERO PUSH2 0xC14 JUMPI PUSH1 0x40 MLOAD PUSH32 0x2C5211C600000000000000000000000000000000000000000000000000000000 DUP2 MSTORE PUSH1 0x4 ADD PUSH1 0x40 MLOAD DUP1 SWAP2 SUB SWAP1 REVERT JUMPDEST PUSH0 DUP2 PUSH0 ADD SLOAD SWAP1 POP PUSH0 DUP3 PUSH0 ADD DUP2 SWAP1 SSTORE POP PUSH1 0x15 PUSH0 SWAP1 SLOAD SWAP1 PUSH2 0x100 EXP SWAP1 DIV PUSH20 0xFFFFFFFFFFFFFFFFFFFFFFFFFFFFFFFFFFFFFFFF AND PUSH20 0xFFFFFFFFFFFFFFFFFFFFFFFFFFFFFFFFFFFFFFFF AND PUSH4 0xF242432A ADDRESS CALLER PUSH1 0x1 DUP6 PUSH1 0x40 MLOAD DUP6 PUSH4 0xFFFFFFFF AND PUSH1 0xE0 SHL DUP2 MSTORE PUSH1 0x4 ADD PUSH2 0xC84 SWAP5 SWAP4 SWAP3 SWAP2 SWAP1 PUSH2 0x4B88 JUMP JUMPDEST PUSH0 PUSH1 0x40 MLOAD DUP1 DUP4 SUB DUP2 PUSH0 DUP8 DUP1 EXTCODESIZE ISZERO DUP1 ISZERO PUSH2 0xC9B JUMPI PUSH0 DUP1 REVERT JUMPDEST POP GAS CALL ISZERO DUP1 ISZERO PUSH2 0xCAD JUMPI RETURNDATASIZE PUSH0 DUP1 RETURNDATACOPY RETURNDATASIZE PUSH0 REVERT JUMPDEST POP POP POP POP POP POP JUMP JUMPDEST PUSH2 0xCBD PUSH2 0x3DDF JUMP JUMPDEST PUSH1 0xA DUP2 LT DUP1 PUSH2 0xCCC JUMPI POP PUSH1 0x63 DUP2 GT JUMPDEST ISZERO PUSH2 0xD03 JUMPI PUSH1 0x40 MLOAD PUSH32 0x5BFE79C600000000000000000000000000000000000000000000000000000000 DUP2 MSTORE PUSH1 0x4 ADD PUSH1 0x40 MLOAD DUP1 SWAP2 SUB SWAP1 REVERT JUMPDEST PUSH1 0xD DUP2 SWAP1 DUP1 PUSH1 0x1 DUP2 SLOAD ADD DUP1 DUP3 SSTORE DUP1 SWAP2 POP POP PUSH1 0x1 SWAP1 SUB SWAP1 PUSH0 MSTORE PUSH1 0x20 PUSH0 KECCAK256 ADD PUSH0 SWAP1 SWAP2 SWAP1 SWAP2 SWAP1 SWAP2 POP SSTORE POP JUMP JUMPDEST PUSH1 0x3 PUSH1 0x20 MSTORE DUP1 PUSH0 MSTORE PUSH1 0x40 PUSH0 KECCAK256 PUSH0 SWAP2 POP SWAP1 POP DUP1 PUSH0 ADD SLOAD SWAP1 DUP1 PUSH1 0x1 ADD SLOAD SWAP1 POP DUP3 JUMP JUMPDEST PUSH0 PUSH1 0x7 PUSH0 DUP4 DUP2 MSTORE PUSH1 0x20 ADD SWAP1 DUP2 MSTORE PUSH1 0x20 ADD PUSH0 KECCAK256 SWAP1 POP DUP1 PUSH1 0x3 ADD PUSH0 SWAP1 SLOAD SWAP1 PUSH2 0x100 EXP SWAP1 DIV PUSH20 0xFFFFFFFFFFFFFFFFFFFFFFFFFFFFFFFFFFFFFFFF AND PUSH20 0xFFFFFFFFFFFFFFFFFFFFFFFFFFFFFFFFFFFFFFFF AND CALLER PUSH20 0xFFFFFFFFFFFFFFFFFFFFFFFFFFFFFFFFFFFFFFFF AND EQ PUSH2 0xDE8 JUMPI PUSH1 0x40 MLOAD PUSH32 0x2C5211C600000000000000000000000000000000000000000000000000000000 DUP2 MSTORE PUSH1 0x4 ADD PUSH1 0x40 MLOAD DUP1 SWAP2 SUB SWAP1 REVERT JUMPDEST PUSH0 DUP2 PUSH1 0x1 ADD SLOAD GT PUSH2 0xE25 JUMPI PUSH1 0x40 MLOAD PUSH32 0x2C5211C600000000000000000000000000000000000000000000000000000000 DUP2 MSTORE PUSH1 0x4 ADD PUSH1 0x40 MLOAD DUP1 SWAP2 SUB SWAP1 REVERT JUMPDEST PUSH0 DUP2 PUSH1 0x1 ADD SLOAD SWAP1 POP PUSH0 DUP3 PUSH1 0x1 ADD DUP2 SWAP1 SSTORE POP PUSH32 0xAAA1D3661F3AB66031E2FB89AED63BD6D1AB6123CF6FE00D14D0305AD3BAAA46 DUP4 PUSH1 0x40 MLOAD PUSH2 0xE65 SWAP2 SWAP1 PUSH2 0x41E9 JUMP JUMPDEST PUSH1 0x40 MLOAD DUP1 SWAP2 SUB SWAP1 LOG1 PUSH1 0x15 PUSH0 SWAP1 SLOAD SWAP1 PUSH2 0x100 EXP SWAP1 DIV PUSH20 0xFFFFFFFFFFFFFFFFFFFFFFFFFFFFFFFFFFFFFFFF AND PUSH20 0xFFFFFFFFFFFFFFFFFFFFFFFFFFFFFFFFFFFFFFFF AND PUSH4 0xF242432A ADDRESS CALLER DUP6 PUSH0 ADD SLOAD DUP6 PUSH1 0x40 MLOAD DUP6 PUSH4 0xFFFFFFFF AND PUSH1 0xE0 SHL DUP2 MSTORE PUSH1 0x4 ADD PUSH2 0xED0 SWAP5 SWAP4 SWAP3 SWAP2 SWAP1 PUSH2 0x4B88 JUMP JUMPDEST PUSH0 PUSH1 0x40 MLOAD DUP1 DUP4 SUB DUP2 PUSH0 DUP8 DUP1 EXTCODESIZE ISZERO DUP1 ISZERO PUSH2 0xEE7 JUMPI PUSH0 DUP1 REVERT JUMPDEST POP GAS CALL ISZERO DUP1 ISZERO PUSH2 0xEF9 JUMPI RETURNDATASIZE PUSH0 DUP1 RETURNDATACOPY RETURNDATASIZE PUSH0 REVERT JUMPDEST POP POP POP POP POP POP POP JUMP JUMPDEST PUSH2 0xF0A PUSH2 0x3DDF JUMP JUMPDEST PUSH1 0x1 PUSH1 0x3 PUSH0 PUSH1 0x1 DUP2 MSTORE PUSH1 0x20 ADD SWAP1 DUP2 MSTORE PUSH1 0x20 ADD PUSH0 KECCAK256 PUSH0 ADD SLOAD LT DUP1 ISZERO PUSH2 0xF42 JUMPI POP PUSH1 0x1 PUSH1 0x3 PUSH0 PUSH1 0x3 DUP2 MSTORE PUSH1 0x20 ADD SWAP1 DUP2 MSTORE PUSH1 0x20 ADD PUSH0 KECCAK256 PUSH0 ADD SLOAD LT JUMPDEST ISZERO PUSH2 0xF79 JUMPI PUSH1 0x40 MLOAD PUSH32 0x5945EA5600000000000000000000000000000000000000000000000000000000 DUP2 MSTORE PUSH1 0x4 ADD PUSH1 0x40 MLOAD DUP1 SWAP2 SUB SWAP1 REVERT JUMPDEST PUSH1 0x1 PUSH1 0x12 PUSH0 ADD SLOAD LT ISZERO PUSH2 0xFB8 JUMPI PUSH1 0x40 MLOAD PUSH32 0x5945EA5600000000000000000000000000000000000000000000000000000000 DUP2 MSTORE PUSH1 0x4 ADD PUSH1 0x40 MLOAD DUP1 SWAP2 SUB SWAP1 REVERT JUMPDEST PUSH0 PUSH1 0x2 PUSH1 0x12 PUSH0 ADD SLOAD PUSH2 0xFCA SWAP2 SWAP1 PUSH2 0x4C0B JUMP JUMPDEST SWAP1 POP PUSH0 PUSH1 0x3 PUSH0 PUSH1 0x1 DUP2 MSTORE PUSH1 0x20 ADD SWAP1 DUP2 MSTORE PUSH1 0x20 ADD PUSH0 KECCAK256 PUSH0 ADD SLOAD PUSH1 0x12 PUSH1 0xA PUSH2 0xFF0 SWAP2 SWAP1 PUSH2 0x4D6A JUMP JUMPDEST PUSH1 0x4 PUSH1 0x12 PUSH0 ADD SLOAD PUSH2 0x1001 SWAP2 SWAP1 PUSH2 0x4C0B JUMP JUMPDEST PUSH2 0x100B SWAP2 SWAP1 PUSH2 0x4A97 JUMP JUMPDEST PUSH2 0x1015 SWAP2 SWAP1 PUSH2 0x4C0B JUMP JUMPDEST SWAP1 POP PUSH0 PUSH1 0x3 PUSH0 PUSH1 0x3 DUP2 MSTORE PUSH1 0x20 ADD SWAP1 DUP2 MSTORE PUSH1 0x20 ADD PUSH0 KECCAK256 PUSH0 ADD SLOAD PUSH1 0x12 PUSH1 0xA PUSH2 0x103B SWAP2 SWAP1 PUSH2 0x4D6A JUMP JUMPDEST PUSH1 0x4 PUSH1 0x12 PUSH0 ADD SLOAD PUSH2 0x104C SWAP2 SWAP1 PUSH2 0x4C0B JUMP JUMPDEST PUSH2 0x1056 SWAP2 SWAP1 PUSH2 0x4A97 JUMP JUMPDEST PUSH2 0x1060 SWAP2 SWAP1 PUSH2 0x4C0B JUMP JUMPDEST SWAP1 POP PUSH0 PUSH1 0xF PUSH0 ADD PUSH0 SWAP1 SLOAD SWAP1 PUSH2 0x100 EXP SWAP1 DIV PUSH4 0xFFFFFFFF AND PUSH4 0xFFFFFFFF AND PUSH1 0x12 PUSH1 0xA PUSH2 0x108B SWAP2 SWAP1 PUSH2 0x4D6A JUMP JUMPDEST PUSH3 0x186A0 PUSH2 0x1099 SWAP2 SWAP1 PUSH2 0x4A97 JUMP JUMPDEST PUSH2 0x10A3 SWAP2 SWAP1 PUSH2 0x4C0B JUMP JUMPDEST SWAP1 POP PUSH0 DUP1 PUSH0 SWAP1 POP JUMPDEST PUSH1 0xC DUP1 SLOAD SWAP1 POP DUP2 LT ISZERO PUSH2 0x1385 JUMPI PUSH0 PUSH1 0xC DUP3 DUP2 SLOAD DUP2 LT PUSH2 0x10CD JUMPI PUSH2 0x10CC PUSH2 0x4DB4 JUMP JUMPDEST JUMPDEST SWAP1 PUSH0 MSTORE PUSH1 0x20 PUSH0 KECCAK256 ADD PUSH0 SWAP1 SLOAD SWAP1 PUSH2 0x100 EXP SWAP1 DIV PUSH20 0xFFFFFFFFFFFFFFFFFFFFFFFFFFFFFFFFFFFFFFFF AND SWAP1 POP PUSH0 PUSH1 0x1 PUSH0 DUP4 PUSH20 0xFFFFFFFFFFFFFFFFFFFFFFFFFFFFFFFFFFFFFFFF AND PUSH20 0xFFFFFFFFFFFFFFFFFFFFFFFFFFFFFFFFFFFFFFFF AND DUP2 MSTORE PUSH1 0x20 ADD SWAP1 DUP2 MSTORE PUSH1 0x20 ADD PUSH0 KECCAK256 SWAP1 POP PUSH0 PUSH1 0x2 PUSH0 DUP5 PUSH20 0xFFFFFFFFFFFFFFFFFFFFFFFFFFFFFFFFFFFFFFFF AND PUSH20 0xFFFFFFFFFFFFFFFFFFFFFFFFFFFFFFFFFFFFFFFF AND DUP2 MSTORE PUSH1 0x20 ADD SWAP1 DUP2 MSTORE PUSH1 0x20 ADD PUSH0 KECCAK256 PUSH0 PUSH1 0x1 DUP2 MSTORE PUSH1 0x20 ADD SWAP1 DUP2 MSTORE PUSH1 0x20 ADD PUSH0 KECCAK256 PUSH0 ADD SLOAD GT ISZERO PUSH2 0x122D JUMPI PUSH0 DUP8 PUSH1 0x12 PUSH1 0xA PUSH2 0x119E SWAP2 SWAP1 PUSH2 0x4D6A JUMP JUMPDEST PUSH1 0x2 PUSH0 DUP7 PUSH20 0xFFFFFFFFFFFFFFFFFFFFFFFFFFFFFFFFFFFFFFFF AND PUSH20 0xFFFFFFFFFFFFFFFFFFFFFFFFFFFFFFFFFFFFFFFF AND DUP2 MSTORE PUSH1 0x20 ADD SWAP1 DUP2 MSTORE PUSH1 0x20 ADD PUSH0 KECCAK256 PUSH0 PUSH1 0x1 DUP2 MSTORE PUSH1 0x20 ADD SWAP1 DUP2 MSTORE PUSH1 0x20 ADD PUSH0 KECCAK256 PUSH0 ADD SLOAD PUSH2 0x11F8 SWAP2 SWAP1 PUSH2 0x4C0B JUMP JUMPDEST PUSH2 0x1202 SWAP2 SWAP1 PUSH2 0x4A97 JUMP JUMPDEST SWAP1 POP DUP1 DUP3 PUSH0 ADD PUSH0 DUP3 DUP3 SLOAD PUSH2 0x1216 SWAP2 SWAP1 PUSH2 0x4DE1 JUMP JUMPDEST SWAP3 POP POP DUP2 SWAP1 SSTORE POP DUP1 DUP6 PUSH2 0x1229 SWAP2 SWAP1 PUSH2 0x4DE1 JUMP JUMPDEST SWAP5 POP POP JUMPDEST PUSH0 PUSH1 0x2 PUSH0 DUP5 PUSH20 0xFFFFFFFFFFFFFFFFFFFFFFFFFFFFFFFFFFFFFFFF AND PUSH20 0xFFFFFFFFFFFFFFFFFFFFFFFFFFFFFFFFFFFFFFFF AND DUP2 MSTORE PUSH1 0x20 ADD SWAP1 DUP2 MSTORE PUSH1 0x20 ADD PUSH0 KECCAK256 PUSH0 PUSH1 0x3 DUP2 MSTORE PUSH1 0x20 ADD SWAP1 DUP2 MSTORE PUSH1 0x20 ADD PUSH0 KECCAK256 PUSH0 ADD SLOAD GT ISZERO PUSH2 0x1323 JUMPI PUSH0 DUP7 PUSH1 0x12 PUSH1 0xA PUSH2 0x1294 SWAP2 SWAP1 PUSH2 0x4D6A JUMP JUMPDEST PUSH1 0x2 PUSH0 DUP7 PUSH20 0xFFFFFFFFFFFFFFFFFFFFFFFFFFFFFFFFFFFFFFFF AND PUSH20 0xFFFFFFFFFFFFFFFFFFFFFFFFFFFFFFFFFFFFFFFF AND DUP2 MSTORE PUSH1 0x20 ADD SWAP1 DUP2 MSTORE PUSH1 0x20 ADD PUSH0 KECCAK256 PUSH0 PUSH1 0x3 DUP2 MSTORE PUSH1 0x20 ADD SWAP1 DUP2 MSTORE PUSH1 0x20 ADD PUSH0 KECCAK256 PUSH0 ADD SLOAD PUSH2 0x12EE SWAP2 SWAP1 PUSH2 0x4C0B JUMP JUMPDEST PUSH2 0x12F8 SWAP2 SWAP1 PUSH2 0x4A97 JUMP JUMPDEST SWAP1 POP DUP1 DUP3 PUSH0 ADD PUSH0 DUP3 DUP3 SLOAD PUSH2 0x130C SWAP2 SWAP1 PUSH2 0x4DE1 JUMP JUMPDEST SWAP3 POP POP DUP2 SWAP1 SSTORE POP DUP1 DUP6 PUSH2 0x131F SWAP2 SWAP1 PUSH2 0x4DE1 JUMP JUMPDEST SWAP5 POP POP JUMPDEST DUP1 PUSH1 0x1 ADD PUSH1 0x7 SWAP1 SLOAD SWAP1 PUSH2 0x100 EXP SWAP1 DIV PUSH1 0xFF AND ISZERO PUSH2 0x1370 JUMPI DUP5 DUP2 PUSH0 ADD PUSH0 DUP3 DUP3 SLOAD PUSH2 0x134C SWAP2 SWAP1 PUSH2 0x4DE1 JUMP JUMPDEST SWAP3 POP POP DUP2 SWAP1 SSTORE POP PUSH0 DUP2 PUSH1 0x1 ADD PUSH1 0x7 PUSH2 0x100 EXP DUP2 SLOAD DUP2 PUSH1 0xFF MUL NOT AND SWAP1 DUP4 ISZERO ISZERO MUL OR SWAP1 SSTORE POP JUMPDEST POP POP DUP1 DUP1 PUSH2 0x137D SWAP1 PUSH2 0x4E14 JUMP JUMPDEST SWAP2 POP POP PUSH2 0x10AB JUMP JUMPDEST POP DUP5 PUSH1 0x12 PUSH1 0x2 ADD PUSH0 DUP3 DUP3 SLOAD PUSH2 0x139A SWAP2 SWAP1 PUSH2 0x4DE1 JUMP JUMPDEST SWAP3 POP POP DUP2 SWAP1 SSTORE POP DUP1 PUSH1 0x12 PUSH1 0x1 ADD PUSH0 DUP3 DUP3 SLOAD PUSH2 0x13B5 SWAP2 SWAP1 PUSH2 0x4DE1 JUMP JUMPDEST SWAP3 POP POP DUP2 SWAP1 SSTORE POP DUP1 PUSH1 0x12 PUSH0 ADD PUSH0 DUP3 DUP3 SLOAD PUSH2 0x13CF SWAP2 SWAP1 PUSH2 0x4E5B JUMP JUMPDEST SWAP3 POP POP DUP2 SWAP1 SSTORE POP PUSH1 0x15 PUSH0 SWAP1 SLOAD SWAP1 PUSH2 0x100 EXP SWAP1 DIV PUSH20 0xFFFFFFFFFFFFFFFFFFFFFFFFFFFFFFFFFFFFFFFF AND PUSH20 0xFFFFFFFFFFFFFFFFFFFFFFFFFFFFFFFFFFFFFFFF AND PUSH4 0xF5298ACA ADDRESS PUSH1 0x1 DUP9 PUSH1 0x40 MLOAD DUP5 PUSH4 0xFFFFFFFF AND PUSH1 0xE0 SHL DUP2 MSTORE PUSH1 0x4 ADD PUSH2 0x1435 SWAP4 SWAP3 SWAP2 SWAP1 PUSH2 0x4AD8 JUMP JUMPDEST PUSH0 PUSH1 0x40 MLOAD DUP1 DUP4 SUB DUP2 PUSH0 DUP8 DUP1 EXTCODESIZE ISZERO DUP1 ISZERO PUSH2 0x144C JUMPI PUSH0 DUP1 REVERT JUMPDEST POP GAS CALL ISZERO DUP1 ISZERO PUSH2 0x145E JUMPI RETURNDATASIZE PUSH0 DUP1 RETURNDATACOPY RETURNDATASIZE PUSH0 REVERT JUMPDEST POP POP POP POP PUSH1 0x15 PUSH0 SWAP1 SLOAD SWAP1 PUSH2 0x100 EXP SWAP1 DIV PUSH20 0xFFFFFFFFFFFFFFFFFFFFFFFFFFFFFFFFFFFFFFFF AND PUSH20 0xFFFFFFFFFFFFFFFFFFFFFFFFFFFFFFFFFFFFFFFF AND PUSH4 0x731133E9 ADDRESS PUSH1 0x1 PUSH10 0x152D02C7E14AF6800000 PUSH1 0x40 MLOAD DUP5 PUSH4 0xFFFFFFFF AND PUSH1 0xE0 SHL DUP2 MSTORE PUSH1 0x4 ADD PUSH2 0x14CB SWAP4 SWAP3 SWAP2 SWAP1 PUSH2 0x4EC7 JUMP JUMPDEST PUSH0 PUSH1 0x40 MLOAD DUP1 DUP4 SUB DUP2 PUSH0 DUP8 DUP1 EXTCODESIZE ISZERO DUP1 ISZERO PUSH2 0x14E2 JUMPI PUSH0 DUP1 REVERT JUMPDEST POP GAS CALL ISZERO DUP1 ISZERO PUSH2 0x14F4 JUMPI RETURNDATASIZE PUSH0 DUP1 RETURNDATACOPY RETURNDATASIZE PUSH0 REVERT JUMPDEST POP POP POP POP POP POP POP POP POP JUMP JUMPDEST PUSH2 0x1507 PUSH2 0x3DDF JUMP JUMPDEST PUSH1 0x60 DUP1 PUSH0 DUP3 PUSH0 DUP2 MLOAD DUP2 LT PUSH2 0x151E JUMPI PUSH2 0x151D PUSH2 0x4DB4 JUMP JUMPDEST JUMPDEST PUSH1 0x20 MUL PUSH1 0x20 ADD ADD DUP2 DUP2 MSTORE POP POP PUSH0 PUSH1 0x1 DUP5 PUSH2 0x1538 SWAP2 SWAP1 PUSH2 0x4F0F JUMP JUMPDEST PUSH2 0xFFFF AND SUB PUSH2 0x1572 JUMPI PUSH1 0x1 DUP2 PUSH0 DUP2 MLOAD DUP2 LT PUSH2 0x1556 JUMPI PUSH2 0x1555 PUSH2 0x4DB4 JUMP JUMPDEST JUMPDEST PUSH1 0x20 MUL PUSH1 0x20 ADD ADD DUP2 DUP2 MLOAD PUSH2 0x156A SWAP2 SWAP1 PUSH2 0x4DE1 JUMP JUMPDEST SWAP2 POP DUP2 DUP2 MSTORE POP POP JUMPDEST PUSH0 PUSH1 0xA DUP5 PUSH2 0x1580 SWAP2 SWAP1 PUSH2 0x4F0F JUMP JUMPDEST PUSH2 0xFFFF AND SUB PUSH2 0x160A JUMPI PUSH2 0x1597 PUSH1 0xD DUP1 SLOAD SWAP1 POP PUSH2 0x3E66 JUMP JUMPDEST DUP3 PUSH1 0x1 DUP2 MLOAD DUP2 LT PUSH2 0x15AB JUMPI PUSH2 0x15AA PUSH2 0x4DB4 JUMP JUMPDEST JUMPDEST PUSH1 0x20 MUL PUSH1 0x20 ADD ADD DUP2 DUP2 MSTORE POP POP PUSH1 0x1E DUP2 PUSH0 DUP2 MLOAD DUP2 LT PUSH2 0x15CC JUMPI PUSH2 0x15CB PUSH2 0x4DB4 JUMP JUMPDEST JUMPDEST PUSH1 0x20 MUL PUSH1 0x20 ADD ADD DUP2 DUP2 MLOAD PUSH2 0x15E0 SWAP2 SWAP1 PUSH2 0x4DE1 JUMP JUMPDEST SWAP2 POP DUP2 DUP2 MSTORE POP POP PUSH1 0x1 DUP2 PUSH1 0x1 DUP2 MLOAD DUP2 LT PUSH2 0x15FD JUMPI PUSH2 0x15FC PUSH2 0x4DB4 JUMP JUMPDEST JUMPDEST PUSH1 0x20 MUL PUSH1 0x20 ADD ADD DUP2 DUP2 MSTORE POP POP JUMPDEST PUSH0 PUSH1 0x64 DUP5 PUSH2 0x1618 SWAP2 SWAP1 PUSH2 0x4F0F JUMP JUMPDEST PUSH2 0xFFFF AND SUB PUSH2 0x169F JUMPI PUSH2 0x162B PUSH1 0xA PUSH2 0x3EA6 JUMP JUMPDEST DUP3 PUSH1 0x2 DUP2 MLOAD DUP2 LT PUSH2 0x163F JUMPI PUSH2 0x163E PUSH2 0x4DB4 JUMP JUMPDEST JUMPDEST PUSH1 0x20 MUL PUSH1 0x20 ADD ADD DUP2 DUP2 MSTORE POP POP PUSH2 0x258 DUP2 PUSH0 DUP2 MLOAD DUP2 LT PUSH2 0x1661 JUMPI PUSH2 0x1660 PUSH2 0x4DB4 JUMP JUMPDEST JUMPDEST PUSH1 0x20 MUL PUSH1 0x20 ADD ADD DUP2 DUP2 MLOAD PUSH2 0x1675 SWAP2 SWAP1 PUSH2 0x4DE1 JUMP JUMPDEST SWAP2 POP DUP2 DUP2 MSTORE POP POP PUSH1 0x1 DUP2 PUSH1 0x2 DUP2 MLOAD DUP2 LT PUSH2 0x1692 JUMPI PUSH2 0x1691 PUSH2 0x4DB4 JUMP JUMPDEST JUMPDEST PUSH1 0x20 MUL PUSH1 0x20 ADD ADD DUP2 DUP2 MSTORE POP POP JUMPDEST PUSH1 0x15 PUSH0 SWAP1 SLOAD SWAP1 PUSH2 0x100 EXP SWAP1 DIV PUSH20 0xFFFFFFFFFFFFFFFFFFFFFFFFFFFFFFFFFFFFFFFF AND PUSH20 0xFFFFFFFFFFFFFFFFFFFFFFFFFFFFFFFFFFFFFFFF AND PUSH4 0x1F7FDFFA DUP6 DUP5 DUP5 PUSH1 0x40 MLOAD DUP5 PUSH4 0xFFFFFFFF AND PUSH1 0xE0 SHL DUP2 MSTORE PUSH1 0x4 ADD PUSH2 0x16FD SWAP4 SWAP3 SWAP2 SWAP1 PUSH2 0x4FF6 JUMP JUMPDEST PUSH0 PUSH1 0x40 MLOAD DUP1 DUP4 SUB DUP2 PUSH0 DUP8 DUP1 EXTCODESIZE ISZERO DUP1 ISZERO PUSH2 0x1714 JUMPI PUSH0 DUP1 REVERT JUMPDEST POP GAS CALL ISZERO DUP1 ISZERO PUSH2 0x1726 JUMPI RETURNDATASIZE PUSH0 DUP1 RETURNDATACOPY RETURNDATASIZE PUSH0 REVERT JUMPDEST POP POP POP POP POP POP POP POP JUMP JUMPDEST PUSH0 PUSH1 0x5 PUSH0 DUP5 DUP2 MSTORE PUSH1 0x20 ADD SWAP1 DUP2 MSTORE PUSH1 0x20 ADD PUSH0 KECCAK256 PUSH0 SWAP1 SLOAD SWAP1 PUSH2 0x100 EXP SWAP1 DIV PUSH1 0xFF AND SWAP1 POP PUSH1 0x15 PUSH0 SWAP1 SLOAD SWAP1 PUSH2 0x100 EXP SWAP1 DIV PUSH20 0xFFFFFFFFFFFFFFFFFFFFFFFFFFFFFFFFFFFFFFFF AND PUSH20 0xFFFFFFFFFFFFFFFFFFFFFFFFFFFFFFFFFFFFFFFF AND PUSH4 0xF5298ACA CALLER DUP6 DUP6 PUSH1 0x40 MLOAD DUP5 PUSH4 0xFFFFFFFF AND PUSH1 0xE0 SHL DUP2 MSTORE PUSH1 0x4 ADD PUSH2 0x17AF SWAP4 SWAP3 SWAP2 SWAP1 PUSH2 0x4AD8 JUMP JUMPDEST PUSH0 PUSH1 0x40 MLOAD DUP1 DUP4 SUB DUP2 PUSH0 DUP8 DUP1 EXTCODESIZE ISZERO DUP1 ISZERO PUSH2 0x17C6 JUMPI PUSH0 DUP1 REVERT JUMPDEST POP GAS CALL ISZERO DUP1 ISZERO PUSH2 0x17D8 JUMPI RETURNDATASIZE PUSH0 DUP1 RETURNDATACOPY RETURNDATASIZE PUSH0 REVERT JUMPDEST POP POP POP POP PUSH1 0x15 PUSH0 SWAP1 SLOAD SWAP1 PUSH2 0x100 EXP SWAP1 DIV PUSH20 0xFFFFFFFFFFFFFFFFFFFFFFFFFFFFFFFFFFFFFFFF AND PUSH20 0xFFFFFFFFFFFFFFFFFFFFFFFFFFFFFFFFFFFFFFFF AND PUSH4 0x731133E9 CALLER PUSH0 DUP6 PUSH1 0x9 PUSH0 DUP8 PUSH1 0x2 DUP2 GT ISZERO PUSH2 0x1832 JUMPI PUSH2 0x1831 PUSH2 0x4267 JUMP JUMPDEST JUMPDEST PUSH1 0x2 DUP2 GT ISZERO PUSH2 0x1844 JUMPI PUSH2 0x1843 PUSH2 0x4267 JUMP JUMPDEST JUMPDEST DUP2 MSTORE PUSH1 0x20 ADD SWAP1 DUP2 MSTORE PUSH1 0x20 ADD PUSH0 KECCAK256 SLOAD PUSH2 0x185C SWAP2 SWAP1 PUSH2 0x4A97 JUMP JUMPDEST PUSH1 0x40 MLOAD DUP5 PUSH4 0xFFFFFFFF AND PUSH1 0xE0 SHL DUP2 MSTORE PUSH1 0x4 ADD PUSH2 0x187A SWAP4 SWAP3 SWAP2 SWAP1 PUSH2 0x4B40 JUMP JUMPDEST PUSH0 PUSH1 0x40 MLOAD DUP1 DUP4 SUB DUP2 PUSH0 DUP8 DUP1 EXTCODESIZE ISZERO DUP1 ISZERO PUSH2 0x1891 JUMPI PUSH0 DUP1 REVERT JUMPDEST POP GAS CALL ISZERO DUP1 ISZERO PUSH2 0x18A3 JUMPI RETURNDATASIZE PUSH0 DUP1 RETURNDATACOPY RETURNDATASIZE PUSH0 REVERT JUMPDEST POP POP POP POP POP POP POP JUMP JUMPDEST PUSH2 0x18B4 PUSH2 0x3DDF JUMP JUMPDEST PUSH2 0x18BD PUSH0 PUSH2 0x3FF0 JUMP JUMPDEST JUMP JUMPDEST PUSH0 PUSH1 0x6 PUSH0 DUP4 DUP2 MSTORE PUSH1 0x20 ADD SWAP1 DUP2 MSTORE PUSH1 0x20 ADD PUSH0 KECCAK256 SLOAD SWAP1 POP PUSH1 0xA SLOAD PUSH1 0x12 PUSH0 ADD PUSH0 DUP3 DUP3 SLOAD PUSH2 0x18E9 SWAP2 SWAP1 PUSH2 0x4DE1 JUMP JUMPDEST SWAP3 POP POP DUP2 SWAP1 SSTORE POP PUSH1 0x15 PUSH0 SWAP1 SLOAD SWAP1 PUSH2 0x100 EXP SWAP1 DIV PUSH20 0xFFFFFFFFFFFFFFFFFFFFFFFFFFFFFFFFFFFFFFFF AND PUSH20 0xFFFFFFFFFFFFFFFFFFFFFFFFFFFFFFFFFFFFFFFF AND PUSH4 0xF242432A CALLER ADDRESS PUSH1 0x1 PUSH1 0xA SLOAD PUSH1 0x40 MLOAD DUP6 PUSH4 0xFFFFFFFF AND PUSH1 0xE0 SHL DUP2 MSTORE PUSH1 0x4 ADD PUSH2 0x1953 SWAP5 SWAP4 SWAP3 SWAP2 SWAP1 PUSH2 0x4B88 JUMP JUMPDEST PUSH0 PUSH1 0x40 MLOAD DUP1 DUP4 SUB DUP2 PUSH0 DUP8 DUP1 EXTCODESIZE ISZERO DUP1 ISZERO PUSH2 0x196A JUMPI PUSH0 DUP1 REVERT JUMPDEST POP GAS CALL ISZERO DUP1 ISZERO PUSH2 0x197C JUMPI RETURNDATASIZE PUSH0 DUP1 RETURNDATACOPY RETURNDATASIZE PUSH0 REVERT JUMPDEST POP POP POP POP PUSH1 0x15 PUSH0 SWAP1 SLOAD SWAP1 PUSH2 0x100 EXP SWAP1 DIV PUSH20 0xFFFFFFFFFFFFFFFFFFFFFFFFFFFFFFFFFFFFFFFF AND PUSH20 0xFFFFFFFFFFFFFFFFFFFFFFFFFFFFFFFFFFFFFFFF AND PUSH4 0xF5298ACA CALLER DUP5 PUSH1 0x3 PUSH1 0x40 MLOAD DUP5 PUSH4 0xFFFFFFFF AND PUSH1 0xE0 SHL DUP2 MSTORE PUSH1 0x4 ADD PUSH2 0x19DF SWAP4 SWAP3 SWAP2 SWAP1 PUSH2 0x5085 JUMP JUMPDEST PUSH0 PUSH1 0x40 MLOAD DUP1 DUP4 SUB DUP2 PUSH0 DUP8 DUP1 EXTCODESIZE ISZERO DUP1 ISZERO PUSH2 0x19F6 JUMPI PUSH0 DUP1 REVERT JUMPDEST POP GAS CALL ISZERO DUP1 ISZERO PUSH2 0x1A08 JUMPI RETURNDATASIZE PUSH0 DUP1 RETURNDATACOPY RETURNDATASIZE PUSH0 REVERT JUMPDEST POP POP POP POP PUSH1 0x15 PUSH0 SWAP1 SLOAD SWAP1 PUSH2 0x100 EXP SWAP1 DIV PUSH20 0xFFFFFFFFFFFFFFFFFFFFFFFFFFFFFFFFFFFFFFFF AND PUSH20 0xFFFFFFFFFFFFFFFFFFFFFFFFFFFFFFFFFFFFFFFF AND PUSH4 0x731133E9 CALLER DUP4 PUSH1 0x1 PUSH1 0x40 MLOAD DUP5 PUSH4 0xFFFFFFFF AND PUSH1 0xE0 SHL DUP2 MSTORE PUSH1 0x4 ADD PUSH2 0x1A6B SWAP4 SWAP3 SWAP2 SWAP1 PUSH2 0x50F3 JUMP JUMPDEST PUSH0 PUSH1 0x40 MLOAD DUP1 DUP4 SUB DUP2 PUSH0 DUP8 DUP1 EXTCODESIZE ISZERO DUP1 ISZERO PUSH2 0x1A82 JUMPI PUSH0 DUP1 REVERT JUMPDEST POP GAS CALL ISZERO DUP1 ISZERO PUSH2 0x1A94 JUMPI RETURNDATASIZE PUSH0 DUP1 RETURNDATACOPY RETURNDATASIZE PUSH0 REVERT JUMPDEST POP POP POP POP POP POP JUMP JUMPDEST PUSH1 0x1 DUP3 EQ ISZERO DUP1 ISZERO PUSH2 0x1AAE JUMPI POP PUSH1 0x3 DUP3 EQ ISZERO JUMPDEST ISZERO PUSH2 0x1AE5 JUMPI PUSH1 0x40 MLOAD PUSH32 0xC1AB6DC100000000000000000000000000000000000000000000000000000000 DUP2 MSTORE PUSH1 0x4 ADD PUSH1 0x40 MLOAD DUP1 SWAP2 SUB SWAP1 REVERT JUMPDEST PUSH1 0x1 DUP2 LT ISZERO PUSH2 0x1B20 JUMPI PUSH1 0x40 MLOAD PUSH32 0x2C5211C600000000000000000000000000000000000000000000000000000000 DUP2 MSTORE PUSH1 0x4 ADD PUSH1 0x40 MLOAD DUP1 SWAP2 SUB SWAP1 REVERT JUMPDEST DUP1 PUSH1 0x3 PUSH0 DUP5 DUP2 MSTORE PUSH1 0x20 ADD SWAP1 DUP2 MSTORE PUSH1 0x20 ADD PUSH0 KECCAK256 PUSH0 ADD PUSH0 DUP3 DUP3 SLOAD PUSH2 0x1B42 SWAP2 SWAP1 PUSH2 0x4DE1 JUMP JUMPDEST SWAP3 POP POP DUP2 SWAP1 SSTORE POP DUP1 PUSH1 0x2 PUSH0 CALLER PUSH20 0xFFFFFFFFFFFFFFFFFFFFFFFFFFFFFFFFFFFFFFFF AND PUSH20 0xFFFFFFFFFFFFFFFFFFFFFFFFFFFFFFFFFFFFFFFF AND DUP2 MSTORE PUSH1 0x20 ADD SWAP1 DUP2 MSTORE PUSH1 0x20 ADD PUSH0 KECCAK256 PUSH0 DUP5 DUP2 MSTORE PUSH1 0x20 ADD SWAP1 DUP2 MSTORE PUSH1 0x20 ADD PUSH0 KECCAK256 PUSH0 ADD PUSH0 DUP3 DUP3 SLOAD PUSH2 0x1BA6 SWAP2 SWAP1 PUSH2 0x4DE1 JUMP JUMPDEST SWAP3 POP POP DUP2 SWAP1 SSTORE POP PUSH1 0x15 PUSH0 SWAP1 SLOAD SWAP1 PUSH2 0x100 EXP SWAP1 DIV PUSH20 0xFFFFFFFFFFFFFFFFFFFFFFFFFFFFFFFFFFFFFFFF AND PUSH20 0xFFFFFFFFFFFFFFFFFFFFFFFFFFFFFFFFFFFFFFFF AND PUSH4 0xF242432A CALLER ADDRESS DUP6 DUP6 PUSH1 0x40 MLOAD DUP6 PUSH4 0xFFFFFFFF AND PUSH1 0xE0 SHL DUP2 MSTORE PUSH1 0x4 ADD PUSH2 0x1C0D SWAP5 SWAP4 SWAP3 SWAP2 SWAP1 PUSH2 0x4B88 JUMP JUMPDEST PUSH0 PUSH1 0x40 MLOAD DUP1 DUP4 SUB DUP2 PUSH0 DUP8 DUP1 EXTCODESIZE ISZERO DUP1 ISZERO PUSH2 0x1C24 JUMPI PUSH0 DUP1 REVERT JUMPDEST POP GAS CALL ISZERO DUP1 ISZERO PUSH2 0x1C36 JUMPI RETURNDATASIZE PUSH0 DUP1 RETURNDATACOPY RETURNDATASIZE PUSH0 REVERT JUMPDEST POP POP POP POP POP POP JUMP JUMPDEST PUSH2 0x1C46 PUSH2 0x3DDF JUMP JUMPDEST PUSH1 0x1 PUSH1 0xF PUSH0 ADD PUSH1 0x4 SWAP1 SLOAD SWAP1 PUSH2 0x100 EXP SWAP1 DIV PUSH4 0xFFFFFFFF AND PUSH4 0xFFFFFFFF AND LT PUSH2 0x1D27 JUMPI PUSH1 0x1 DUP1 PUSH0 DUP4 PUSH20 0xFFFFFFFFFFFFFFFFFFFFFFFFFFFFFFFFFFFFFFFF AND PUSH20 0xFFFFFFFFFFFFFFFFFFFFFFFFFFFFFFFFFFFFFFFF AND DUP2 MSTORE PUSH1 0x20 ADD SWAP1 DUP2 MSTORE PUSH1 0x20 ADD PUSH0 KECCAK256 PUSH1 0x1 ADD PUSH0 DUP3 DUP3 DUP3 SWAP1 SLOAD SWAP1 PUSH2 0x100 EXP SWAP1 DIV PUSH4 0xFFFFFFFF AND PUSH2 0x1CC6 SWAP2 SWAP1 PUSH2 0x513B JUMP JUMPDEST SWAP3 POP PUSH2 0x100 EXP DUP2 SLOAD DUP2 PUSH4 0xFFFFFFFF MUL NOT AND SWAP1 DUP4 PUSH4 0xFFFFFFFF AND MUL OR SWAP1 SSTORE POP PUSH1 0x1 PUSH1 0xF PUSH0 ADD PUSH1 0x4 DUP3 DUP3 DUP3 SWAP1 SLOAD SWAP1 PUSH2 0x100 EXP SWAP1 DIV PUSH4 0xFFFFFFFF AND PUSH2 0x1D08 SWAP2 SWAP1 PUSH2 0x5172 JUMP JUMPDEST SWAP3 POP PUSH2 0x100 EXP DUP2 SLOAD DUP2 PUSH4 0xFFFFFFFF MUL NOT AND SWAP1 DUP4 PUSH4 0xFFFFFFFF AND MUL OR SWAP1 SSTORE POP JUMPDEST PUSH1 0x1 DUP1 PUSH0 DUP4 PUSH20 0xFFFFFFFFFFFFFFFFFFFFFFFFFFFFFFFFFFFFFFFF AND PUSH20 0xFFFFFFFFFFFFFFFFFFFFFFFFFFFFFFFFFFFFFFFF AND DUP2 MSTORE PUSH1 0x20 ADD SWAP1 DUP2 MSTORE PUSH1 0x20 ADD PUSH0 KECCAK256 PUSH1 0x1 ADD PUSH1 0x7 PUSH2 0x100 EXP DUP2 SLOAD DUP2 PUSH1 0xFF MUL NOT AND SWAP1 DUP4 ISZERO ISZERO MUL OR SWAP1 SSTORE POP PUSH1 0x1 PUSH1 0xF PUSH0 ADD PUSH0 DUP3 DUP3 DUP3 SWAP1 SLOAD SWAP1 PUSH2 0x100 EXP SWAP1 DIV PUSH4 0xFFFFFFFF AND PUSH2 0x1DA2 SWAP2 SWAP1 PUSH2 0x513B JUMP JUMPDEST SWAP3 POP PUSH2 0x100 EXP DUP2 SLOAD DUP2 PUSH4 0xFFFFFFFF MUL NOT AND SWAP1 DUP4 PUSH4 0xFFFFFFFF AND MUL OR SWAP1 SSTORE POP POP JUMP JUMPDEST PUSH0 DUP1 PUSH0 SWAP1 SLOAD SWAP1 PUSH2 0x100 EXP SWAP1 DIV PUSH20 0xFFFFFFFFFFFFFFFFFFFFFFFFFFFFFFFFFFFFFFFF AND SWAP1 POP SWAP1 JUMP JUMPDEST PUSH1 0x12 DUP1 PUSH0 ADD SLOAD SWAP1 DUP1 PUSH1 0x1 ADD SLOAD SWAP1 DUP1 PUSH1 0x2 ADD SLOAD SWAP1 POP DUP4 JUMP JUMPDEST PUSH0 PUSH1 0x7 PUSH0 DUP5 DUP2 MSTORE PUSH1 0x20 ADD SWAP1 DUP2 MSTORE PUSH1 0x20 ADD PUSH0 KECCAK256 SWAP1 POP DUP2 DUP2 PUSH1 0x1 ADD SLOAD LT ISZERO PUSH2 0x1E53 JUMPI PUSH1 0x40 MLOAD PUSH32 0x5945EA5600000000000000000000000000000000000000000000000000000000 DUP2 MSTORE PUSH1 0x4 ADD PUSH1 0x40 MLOAD DUP1 SWAP2 SUB SWAP1 REVERT JUMPDEST PUSH0 DUP3 DUP3 PUSH1 0x2 ADD SLOAD PUSH2 0x1E64 SWAP2 SWAP1 PUSH2 0x4A97 JUMP JUMPDEST SWAP1 POP PUSH0 PUSH1 0x64 DUP3 PUSH2 0x1E74 SWAP2 SWAP1 PUSH2 0x4C0B JUMP JUMPDEST SWAP1 POP PUSH0 DUP2 DUP4 PUSH2 0x1E83 SWAP2 SWAP1 PUSH2 0x4E5B JUMP JUMPDEST SWAP1 POP DUP5 DUP5 PUSH1 0x1 ADD PUSH0 DUP3 DUP3 SLOAD PUSH2 0x1E98 SWAP2 SWAP1 PUSH2 0x4E5B JUMP JUMPDEST SWAP3 POP POP DUP2 SWAP1 SSTORE POP DUP2 PUSH1 0x12 PUSH0 ADD PUSH0 DUP3 DUP3 SLOAD PUSH2 0x1EB2 SWAP2 SWAP1 PUSH2 0x4DE1 JUMP JUMPDEST SWAP3 POP POP DUP2 SWAP1 SSTORE POP PUSH32 0xC2E673ECA69E250DCBF52A7D0B0B0DBE3F91C5485BCBAA44245D15CBC3460ABA DUP7 DUP7 PUSH1 0x40 MLOAD PUSH2 0x1EEA SWAP3 SWAP2 SWAP1 PUSH2 0x4202 JUMP JUMPDEST PUSH1 0x40 MLOAD DUP1 SWAP2 SUB SWAP1 LOG1 PUSH1 0x15 PUSH0 SWAP1 SLOAD SWAP1 PUSH2 0x100 EXP SWAP1 DIV PUSH20 0xFFFFFFFFFFFFFFFFFFFFFFFFFFFFFFFFFFFFFFFF AND PUSH20 0xFFFFFFFFFFFFFFFFFFFFFFFFFFFFFFFFFFFFFFFF AND PUSH4 0xF242432A CALLER DUP7 PUSH1 0x3 ADD PUSH0 SWAP1 SLOAD SWAP1 PUSH2 0x100 EXP SWAP1 DIV PUSH20 0xFFFFFFFFFFFFFFFFFFFFFFFFFFFFFFFFFFFFFFFF AND PUSH1 0x1 DUP6 PUSH1 0x40 MLOAD DUP6 PUSH4 0xFFFFFFFF AND PUSH1 0xE0 SHL DUP2 MSTORE PUSH1 0x4 ADD PUSH2 0x1F76 SWAP5 SWAP4 SWAP3 SWAP2 SWAP1 PUSH2 0x4B88 JUMP JUMPDEST PUSH0 PUSH1 0x40 MLOAD DUP1 DUP4 SUB DUP2 PUSH0 DUP8 DUP1 EXTCODESIZE ISZERO DUP1 ISZERO PUSH2 0x1F8D JUMPI PUSH0 DUP1 REVERT JUMPDEST POP GAS CALL ISZERO DUP1 ISZERO PUSH2 0x1F9F JUMPI RETURNDATASIZE PUSH0 DUP1 RETURNDATACOPY RETURNDATASIZE PUSH0 REVERT JUMPDEST POP POP POP POP PUSH1 0x15 PUSH0 SWAP1 SLOAD SWAP1 PUSH2 0x100 EXP SWAP1 DIV PUSH20 0xFFFFFFFFFFFFFFFFFFFFFFFFFFFFFFFFFFFFFFFF AND PUSH20 0xFFFFFFFFFFFFFFFFFFFFFFFFFFFFFFFFFFFFFFFF AND PUSH4 0xF242432A ADDRESS CALLER DUP8 PUSH0 ADD SLOAD DUP10 PUSH1 0x40 MLOAD DUP6 PUSH4 0xFFFFFFFF AND PUSH1 0xE0 SHL DUP2 MSTORE PUSH1 0x4 ADD PUSH2 0x2006 SWAP5 SWAP4 SWAP3 SWAP2 SWAP1 PUSH2 0x4B88 JUMP JUMPDEST PUSH0 PUSH1 0x40 MLOAD DUP1 DUP4 SUB DUP2 PUSH0 DUP8 DUP1 EXTCODESIZE ISZERO DUP1 ISZERO PUSH2 0x201D JUMPI PUSH0 DUP1 REVERT JUMPDEST POP GAS CALL ISZERO DUP1 ISZERO PUSH2 0x202F JUMPI RETURNDATASIZE PUSH0 DUP1 RETURNDATACOPY RETURNDATASIZE PUSH0 REVERT JUMPDEST POP POP POP POP POP POP POP POP POP POP JUMP JUMPDEST PUSH0 PUSH1 0x2 PUSH0 CALLER PUSH20 0xFFFFFFFFFFFFFFFFFFFFFFFFFFFFFFFFFFFFFFFF AND PUSH20 0xFFFFFFFFFFFFFFFFFFFFFFFFFFFFFFFFFFFFFFFF AND DUP2 MSTORE PUSH1 0x20 ADD SWAP1 DUP2 MSTORE PUSH1 0x20 ADD PUSH0 KECCAK256 PUSH0 DUP4 DUP2 MSTORE PUSH1 0x20 ADD SWAP1 DUP2 MSTORE PUSH1 0x20 ADD PUSH0 KECCAK256 SWAP1 POP TIMESTAMP DUP2 PUSH1 0x2 ADD SLOAD GT ISZERO PUSH2 0x20C8 JUMPI PUSH1 0x40 MLOAD PUSH32 0x9225B94100000000000000000000000000000000000000000000000000000000 DUP2 MSTORE PUSH1 0x4 ADD PUSH1 0x40 MLOAD DUP1 SWAP2 SUB SWAP1 REVERT JUMPDEST PUSH0 DUP2 PUSH1 0x1 ADD SLOAD SWAP1 POP DUP1 PUSH1 0x3 PUSH0 DUP6 DUP2 MSTORE PUSH1 0x20 ADD SWAP1 DUP2 MSTORE PUSH1 0x20 ADD PUSH0 KECCAK256 PUSH1 0x1 ADD PUSH0 DUP3 DUP3 SLOAD PUSH2 0x20F3 SWAP2 SWAP1 PUSH2 0x4E5B JUMP JUMPDEST SWAP3 POP POP DUP2 SWAP1 SSTORE POP PUSH0 DUP3 PUSH1 0x1 ADD DUP2 SWAP1 SSTORE POP PUSH0 DUP3 PUSH1 0x2 ADD DUP2 SWAP1 SSTORE POP PUSH1 0x15 PUSH0 SWAP1 SLOAD SWAP1 PUSH2 0x100 EXP SWAP1 DIV PUSH20 0xFFFFFFFFFFFFFFFFFFFFFFFFFFFFFFFFFFFFFFFF AND PUSH20 0xFFFFFFFFFFFFFFFFFFFFFFFFFFFFFFFFFFFFFFFF AND PUSH4 0xF242432A ADDRESS CALLER DUP7 DUP6 PUSH1 0x40 MLOAD DUP6 PUSH4 0xFFFFFFFF AND PUSH1 0xE0 SHL DUP2 MSTORE PUSH1 0x4 ADD PUSH2 0x216C SWAP5 SWAP4 SWAP3 SWAP2 SWAP1 PUSH2 0x4B88 JUMP JUMPDEST PUSH0 PUSH1 0x40 MLOAD DUP1 DUP4 SUB DUP2 PUSH0 DUP8 DUP1 EXTCODESIZE ISZERO DUP1 ISZERO PUSH2 0x2183 JUMPI PUSH0 DUP1 REVERT JUMPDEST POP GAS CALL ISZERO DUP1 ISZERO PUSH2 0x2195 JUMPI RETURNDATASIZE PUSH0 DUP1 RETURNDATACOPY RETURNDATASIZE PUSH0 REVERT JUMPDEST POP POP POP POP POP POP POP JUMP JUMPDEST PUSH0 PUSH1 0x15 PUSH0 SWAP1 SLOAD SWAP1 PUSH2 0x100 EXP SWAP1 DIV PUSH20 0xFFFFFFFFFFFFFFFFFFFFFFFFFFFFFFFFFFFFFFFF AND PUSH20 0xFFFFFFFFFFFFFFFFFFFFFFFFFFFFFFFFFFFFFFFF AND PUSH3 0xFDD58E CALLER PUSH1 0x3 PUSH1 0x40 MLOAD DUP4 PUSH4 0xFFFFFFFF AND PUSH1 0xE0 SHL DUP2 MSTORE PUSH1 0x4 ADD PUSH2 0x21FB SWAP3 SWAP2 SWAP1 PUSH2 0x51A9 JUMP JUMPDEST PUSH1 0x20 PUSH1 0x40 MLOAD DUP1 DUP4 SUB DUP2 DUP7 GAS STATICCALL ISZERO DUP1 ISZERO PUSH2 0x2216 JUMPI RETURNDATASIZE PUSH0 DUP1 RETURNDATACOPY RETURNDATASIZE PUSH0 REVERT JUMPDEST POP POP POP POP PUSH1 0x40 MLOAD RETURNDATASIZE PUSH1 0x1F NOT PUSH1 0x1F DUP3 ADD AND DUP3 ADD DUP1 PUSH1 0x40 MSTORE POP DUP2 ADD SWAP1 PUSH2 0x223A SWAP2 SWAP1 PUSH2 0x51E4 JUMP JUMPDEST SWAP1 POP DUP2 DUP2 LT ISZERO PUSH2 0x2276 JUMPI PUSH1 0x40 MLOAD PUSH32 0x5945EA5600000000000000000000000000000000000000000000000000000000 DUP2 MSTORE PUSH1 0x4 ADD PUSH1 0x40 MLOAD DUP1 SWAP2 SUB SWAP1 REVERT JUMPDEST PUSH0 PUSH1 0x15 PUSH0 SWAP1 SLOAD SWAP1 PUSH2 0x100 EXP SWAP1 DIV PUSH20 0xFFFFFFFFFFFFFFFFFFFFFFFFFFFFFFFFFFFFFFFF AND PUSH20 0xFFFFFFFFFFFFFFFFFFFFFFFFFFFFFFFFFFFFFFFF AND PUSH4 0xBD85B039 PUSH1 0x3 PUSH1 0x40 MLOAD DUP3 PUSH4 0xFFFFFFFF AND PUSH1 0xE0 SHL DUP2 MSTORE PUSH1 0x4 ADD PUSH2 0x22D2 SWAP2 SWAP1 PUSH2 0x41E9 JUMP JUMPDEST PUSH1 0x20 PUSH1 0x40 MLOAD DUP1 DUP4 SUB DUP2 DUP7 GAS STATICCALL ISZERO DUP1 ISZERO PUSH2 0x22ED JUMPI RETURNDATASIZE PUSH0 DUP1 RETURNDATACOPY RETURNDATASIZE PUSH0 REVERT JUMPDEST POP POP POP POP PUSH1 0x40 MLOAD RETURNDATASIZE PUSH1 0x1F NOT PUSH1 0x1F DUP3 ADD AND DUP3 ADD DUP1 PUSH1 0x40 MSTORE POP DUP2 ADD SWAP1 PUSH2 0x2311 SWAP2 SWAP1 PUSH2 0x51E4 JUMP JUMPDEST SWAP1 POP PUSH0 DUP2 PUSH1 0x10 PUSH0 ADD SLOAD DUP6 PUSH2 0x2325 SWAP2 SWAP1 PUSH2 0x4A97 JUMP JUMPDEST PUSH2 0x232F SWAP2 SWAP1 PUSH2 0x4C0B JUMP JUMPDEST SWAP1 POP PUSH0 DUP3 PUSH1 0x10 PUSH1 0x1 ADD SLOAD DUP7 PUSH2 0x2344 SWAP2 SWAP1 PUSH2 0x4A97 JUMP JUMPDEST PUSH2 0x234E SWAP2 SWAP1 PUSH2 0x4C0B JUMP JUMPDEST SWAP1 POP PUSH1 0x1 DUP3 LT DUP1 ISZERO PUSH2 0x2360 JUMPI POP PUSH1 0x1 DUP2 LT JUMPDEST ISZERO PUSH2 0x2397 JUMPI PUSH1 0x40 MLOAD PUSH32 0x5945EA5600000000000000000000000000000000000000000000000000000000 DUP2 MSTORE PUSH1 0x4 ADD PUSH1 0x40 MLOAD DUP1 SWAP2 SUB SWAP1 REVERT JUMPDEST DUP2 PUSH1 0x10 PUSH0 ADD PUSH0 DUP3 DUP3 SLOAD PUSH2 0x23AA SWAP2 SWAP1 PUSH2 0x4E5B JUMP JUMPDEST SWAP3 POP POP DUP2 SWAP1 SSTORE POP DUP1 PUSH1 0x10 PUSH1 0x1 ADD PUSH0 DUP3 DUP3 SLOAD PUSH2 0x23C5 SWAP2 SWAP1 PUSH2 0x4E5B JUMP JUMPDEST SWAP3 POP POP DUP2 SWAP1 SSTORE POP PUSH1 0x15 PUSH0 SWAP1 SLOAD SWAP1 PUSH2 0x100 EXP SWAP1 DIV PUSH20 0xFFFFFFFFFFFFFFFFFFFFFFFFFFFFFFFFFFFFFFFF AND PUSH20 0xFFFFFFFFFFFFFFFFFFFFFFFFFFFFFFFFFFFFFFFF AND PUSH4 0xF5298ACA CALLER PUSH1 0x3 DUP9 PUSH1 0x40 MLOAD DUP5 PUSH4 0xFFFFFFFF AND PUSH1 0xE0 SHL DUP2 MSTORE PUSH1 0x4 ADD PUSH2 0x242B SWAP4 SWAP3 SWAP2 SWAP1 PUSH2 0x4AD8 JUMP JUMPDEST PUSH0 PUSH1 0x40 MLOAD DUP1 DUP4 SUB DUP2 PUSH0 DUP8 DUP1 EXTCODESIZE ISZERO DUP1 ISZERO PUSH2 0x2442 JUMPI PUSH0 DUP1 REVERT JUMPDEST POP GAS CALL ISZERO DUP1 ISZERO PUSH2 0x2454 JUMPI RETURNDATASIZE PUSH0 DUP1 RETURNDATACOPY RETURNDATASIZE PUSH0 REVERT JUMPDEST POP POP POP POP PUSH1 0x15 PUSH0 SWAP1 SLOAD SWAP1 PUSH2 0x100 EXP SWAP1 DIV PUSH20 0xFFFFFFFFFFFFFFFFFFFFFFFFFFFFFFFFFFFFFFFF AND PUSH20 0xFFFFFFFFFFFFFFFFFFFFFFFFFFFFFFFFFFFFFFFF AND PUSH4 0xF242432A ADDRESS CALLER PUSH1 0x1 DUP7 PUSH1 0x40 MLOAD DUP6 PUSH4 0xFFFFFFFF AND PUSH1 0xE0 SHL DUP2 MSTORE PUSH1 0x4 ADD PUSH2 0x24B9 SWAP5 SWAP4 SWAP3 SWAP2 SWAP1 PUSH2 0x4B88 JUMP JUMPDEST PUSH0 PUSH1 0x40 MLOAD DUP1 DUP4 SUB DUP2 PUSH0 DUP8 DUP1 EXTCODESIZE ISZERO DUP1 ISZERO PUSH2 0x24D0 JUMPI PUSH0 DUP1 REVERT JUMPDEST POP GAS CALL ISZERO DUP1 ISZERO PUSH2 0x24E2 JUMPI RETURNDATASIZE PUSH0 DUP1 RETURNDATACOPY RETURNDATASIZE PUSH0 REVERT JUMPDEST POP POP POP POP PUSH1 0x15 PUSH0 SWAP1 SLOAD SWAP1 PUSH2 0x100 EXP SWAP1 DIV PUSH20 0xFFFFFFFFFFFFFFFFFFFFFFFFFFFFFFFFFFFFFFFF AND PUSH20 0xFFFFFFFFFFFFFFFFFFFFFFFFFFFFFFFFFFFFFFFF AND PUSH4 0xF242432A ADDRESS CALLER PUSH1 0x2 DUP6 PUSH1 0x40 MLOAD DUP6 PUSH4 0xFFFFFFFF AND PUSH1 0xE0 SHL DUP2 MSTORE PUSH1 0x4 ADD PUSH2 0x2547 SWAP5 SWAP4 SWAP3 SWAP2 SWAP1 PUSH2 0x4B88 JUMP JUMPDEST PUSH0 PUSH1 0x40 MLOAD DUP1 DUP4 SUB DUP2 PUSH0 DUP8 DUP1 EXTCODESIZE ISZERO DUP1 ISZERO PUSH2 0x255E JUMPI PUSH0 DUP1 REVERT JUMPDEST POP GAS CALL ISZERO DUP1 ISZERO PUSH2 0x2570 JUMPI RETURNDATASIZE PUSH0 DUP1 RETURNDATACOPY RETURNDATASIZE PUSH0 REVERT JUMPDEST POP POP POP POP POP POP POP POP POP JUMP JUMPDEST PUSH0 PUSH1 0x10 PUSH0 ADD SLOAD GT DUP1 PUSH2 0x2591 JUMPI POP PUSH0 PUSH1 0x10 PUSH1 0x1 ADD SLOAD GT JUMPDEST ISZERO PUSH2 0x25F8 JUMPI PUSH1 0x10 PUSH0 ADD SLOAD DUP2 PUSH2 0x25A6 SWAP2 SWAP1 PUSH2 0x4A97 JUMP JUMPDEST PUSH1 0x10 PUSH1 0x1 ADD SLOAD DUP4 PUSH2 0x25B7 SWAP2 SWAP1 PUSH2 0x4A97 JUMP JUMPDEST EQ PUSH2 0x25F7 JUMPI PUSH1 0x40 MLOAD PUSH32 0x8C379A000000000000000000000000000000000000000000000000000000000 DUP2 MSTORE PUSH1 0x4 ADD PUSH2 0x25EE SWAP1 PUSH2 0x5269 JUMP JUMPDEST PUSH1 0x40 MLOAD DUP1 SWAP2 SUB SWAP1 REVERT JUMPDEST JUMPDEST PUSH0 DUP1 PUSH1 0x15 PUSH0 SWAP1 SLOAD SWAP1 PUSH2 0x100 EXP SWAP1 DIV PUSH20 0xFFFFFFFFFFFFFFFFFFFFFFFFFFFFFFFFFFFFFFFF AND PUSH20 0xFFFFFFFFFFFFFFFFFFFFFFFFFFFFFFFFFFFFFFFF AND PUSH4 0xBD85B039 PUSH1 0x3 PUSH1 0x40 MLOAD DUP3 PUSH4 0xFFFFFFFF AND PUSH1 0xE0 SHL DUP2 MSTORE PUSH1 0x4 ADD PUSH2 0x2655 SWAP2 SWAP1 PUSH2 0x41E9 JUMP JUMPDEST PUSH1 0x20 PUSH1 0x40 MLOAD DUP1 DUP4 SUB DUP2 DUP7 GAS STATICCALL ISZERO DUP1 ISZERO PUSH2 0x2670 JUMPI RETURNDATASIZE PUSH0 DUP1 RETURNDATACOPY RETURNDATASIZE PUSH0 REVERT JUMPDEST POP POP POP POP PUSH1 0x40 MLOAD RETURNDATASIZE PUSH1 0x1F NOT PUSH1 0x1F DUP3 ADD AND DUP3 ADD DUP1 PUSH1 0x40 MSTORE POP DUP2 ADD SWAP1 PUSH2 0x2694 SWAP2 SWAP1 PUSH2 0x51E4 JUMP JUMPDEST SWAP1 POP PUSH0 DUP2 SUB PUSH2 0x2723 JUMPI PUSH0 DUP4 DUP6 PUSH2 0x26AA SWAP2 SWAP1 PUSH2 0x4A97 JUMP JUMPDEST SWAP1 POP PUSH1 0x3 DUP2 GT ISZERO PUSH2 0x2710 JUMPI DUP1 SWAP3 POP PUSH0 PUSH1 0x1 PUSH1 0x2 DUP4 PUSH2 0x26C8 SWAP2 SWAP1 PUSH2 0x4C0B JUMP JUMPDEST PUSH2 0x26D2 SWAP2 SWAP1 PUSH2 0x4DE1 JUMP JUMPDEST SWAP1 POP JUMPDEST DUP4 DUP2 LT ISZERO PUSH2 0x270A JUMPI DUP1 SWAP4 POP PUSH1 0x2 DUP2 DUP3 DUP5 PUSH2 0x26EF SWAP2 SWAP1 PUSH2 0x4C0B JUMP JUMPDEST PUSH2 0x26F9 SWAP2 SWAP1 PUSH2 0x4DE1 JUMP JUMPDEST PUSH2 0x2703 SWAP2 SWAP1 PUSH2 0x4C0B JUMP JUMPDEST SWAP1 POP PUSH2 0x26D5 JUMP JUMPDEST POP PUSH2 0x271D JUMP JUMPDEST PUSH0 DUP2 EQ PUSH2 0x271C JUMPI PUSH1 0x1 SWAP3 POP JUMPDEST JUMPDEST POP PUSH2 0x2774 JUMP JUMPDEST PUSH0 PUSH1 0x10 PUSH0 ADD SLOAD DUP3 DUP7 PUSH2 0x2735 SWAP2 SWAP1 PUSH2 0x4A97 JUMP JUMPDEST PUSH2 0x273F SWAP2 SWAP1 PUSH2 0x4C0B JUMP JUMPDEST SWAP1 POP PUSH0 PUSH1 0x10 PUSH1 0x1 ADD SLOAD DUP4 DUP7 PUSH2 0x2754 SWAP2 SWAP1 PUSH2 0x4A97 JUMP JUMPDEST PUSH2 0x275E SWAP2 SWAP1 PUSH2 0x4C0B JUMP JUMPDEST SWAP1 POP DUP1 DUP3 LT PUSH2 0x276D JUMPI DUP1 PUSH2 0x276F JUMP JUMPDEST DUP2 JUMPDEST SWAP4 POP POP POP JUMPDEST PUSH0 DUP3 GT PUSH2 0x27B6 JUMPI PUSH1 0x40 MLOAD PUSH32 0x8C379A000000000000000000000000000000000000000000000000000000000 DUP2 MSTORE PUSH1 0x4 ADD PUSH2 0x27AD SWAP1 PUSH2 0x52D1 JUMP JUMPDEST PUSH1 0x40 MLOAD DUP1 SWAP2 SUB SWAP1 REVERT JUMPDEST DUP4 PUSH1 0x10 PUSH0 ADD PUSH0 DUP3 DUP3 SLOAD PUSH2 0x27C9 SWAP2 SWAP1 PUSH2 0x4DE1 JUMP JUMPDEST SWAP3 POP POP DUP2 SWAP1 SSTORE POP DUP3 PUSH1 0x10 PUSH1 0x1 ADD PUSH0 DUP3 DUP3 SLOAD PUSH2 0x27E4 SWAP2 SWAP1 PUSH2 0x4DE1 JUMP JUMPDEST SWAP3 POP POP DUP2 SWAP1 SSTORE POP PUSH1 0x15 PUSH0 SWAP1 SLOAD SWAP1 PUSH2 0x100 EXP SWAP1 DIV PUSH20 0xFFFFFFFFFFFFFFFFFFFFFFFFFFFFFFFFFFFFFFFF AND PUSH20 0xFFFFFFFFFFFFFFFFFFFFFFFFFFFFFFFFFFFFFFFF AND PUSH4 0x731133E9 CALLER PUSH1 0x3 DUP6 PUSH1 0x40 MLOAD DUP5 PUSH4 0xFFFFFFFF AND PUSH1 0xE0 SHL DUP2 MSTORE PUSH1 0x4 ADD PUSH2 0x284A SWAP4 SWAP3 SWAP2 SWAP1 PUSH2 0x4B40 JUMP JUMPDEST PUSH0 PUSH1 0x40 MLOAD DUP1 DUP4 SUB DUP2 PUSH0 DUP8 DUP1 EXTCODESIZE ISZERO DUP1 ISZERO PUSH2 0x2861 JUMPI PUSH0 DUP1 REVERT JUMPDEST POP GAS CALL ISZERO DUP1 ISZERO PUSH2 0x2873 JUMPI RETURNDATASIZE PUSH0 DUP1 RETURNDATACOPY RETURNDATASIZE PUSH0 REVERT JUMPDEST POP POP POP POP PUSH1 0x15 PUSH0 SWAP1 SLOAD SWAP1 PUSH2 0x100 EXP SWAP1 DIV PUSH20 0xFFFFFFFFFFFFFFFFFFFFFFFFFFFFFFFFFFFFFFFF AND PUSH20 0xFFFFFFFFFFFFFFFFFFFFFFFFFFFFFFFFFFFFFFFF AND PUSH4 0xF242432A CALLER ADDRESS PUSH1 0x1 DUP9 PUSH1 0x40 MLOAD DUP6 PUSH4 0xFFFFFFFF AND PUSH1 0xE0 SHL DUP2 MSTORE PUSH1 0x4 ADD PUSH2 0x28D8 SWAP5 SWAP4 SWAP3 SWAP2 SWAP1 PUSH2 0x4B88 JUMP JUMPDEST PUSH0 PUSH1 0x40 MLOAD DUP1 DUP4 SUB DUP2 PUSH0 DUP8 DUP1 EXTCODESIZE ISZERO DUP1 ISZERO PUSH2 0x28EF JUMPI PUSH0 DUP1 REVERT JUMPDEST POP GAS CALL ISZERO DUP1 ISZERO PUSH2 0x2901 JUMPI RETURNDATASIZE PUSH0 DUP1 RETURNDATACOPY RETURNDATASIZE PUSH0 REVERT JUMPDEST POP POP POP POP PUSH1 0x15 PUSH0 SWAP1 SLOAD SWAP1 PUSH2 0x100 EXP SWAP1 DIV PUSH20 0xFFFFFFFFFFFFFFFFFFFFFFFFFFFFFFFFFFFFFFFF AND PUSH20 0xFFFFFFFFFFFFFFFFFFFFFFFFFFFFFFFFFFFFFFFF AND PUSH4 0xF242432A CALLER ADDRESS PUSH1 0x2 DUP8 PUSH1 0x40 MLOAD DUP6 PUSH4 0xFFFFFFFF AND PUSH1 0xE0 SHL DUP2 MSTORE PUSH1 0x4 ADD PUSH2 0x2966 SWAP5 SWAP4 SWAP3 SWAP2 SWAP1 PUSH2 0x4B88 JUMP JUMPDEST PUSH0 PUSH1 0x40 MLOAD DUP1 DUP4 SUB DUP2 PUSH0 DUP8 DUP1 EXTCODESIZE ISZERO DUP1 ISZERO PUSH2 0x297D JUMPI PUSH0 DUP1 REVERT JUMPDEST POP GAS CALL ISZERO DUP1 ISZERO PUSH2 0x298F JUMPI RETURNDATASIZE PUSH0 DUP1 RETURNDATACOPY RETURNDATASIZE PUSH0 REVERT JUMPDEST POP POP POP POP POP POP POP POP JUMP JUMPDEST PUSH0 PUSH1 0x1 PUSH0 CALLER PUSH20 0xFFFFFFFFFFFFFFFFFFFFFFFFFFFFFFFFFFFFFFFF AND PUSH20 0xFFFFFFFFFFFFFFFFFFFFFFFFFFFFFFFFFFFFFFFF AND DUP2 MSTORE PUSH1 0x20 ADD SWAP1 DUP2 MSTORE PUSH1 0x20 ADD PUSH0 KECCAK256 SWAP1 POP DUP1 PUSH1 0x1 ADD PUSH1 0x6 SWAP1 SLOAD SWAP1 PUSH2 0x100 EXP SWAP1 DIV PUSH1 0xFF AND ISZERO PUSH2 0x2A22 JUMPI PUSH1 0x40 MLOAD PUSH32 0x646CF55800000000000000000000000000000000000000000000000000000000 DUP2 MSTORE PUSH1 0x4 ADD PUSH1 0x40 MLOAD DUP1 SWAP2 SUB SWAP1 REVERT JUMPDEST PUSH1 0x1 DUP2 PUSH1 0x1 ADD PUSH1 0x6 PUSH2 0x100 EXP DUP2 SLOAD DUP2 PUSH1 0xFF MUL NOT AND SWAP1 DUP4 ISZERO ISZERO MUL OR SWAP1 SSTORE POP PUSH1 0x15 PUSH0 SWAP1 SLOAD SWAP1 PUSH2 0x100 EXP SWAP1 DIV PUSH20 0xFFFFFFFFFFFFFFFFFFFFFFFFFFFFFFFFFFFFFFFF AND PUSH20 0xFFFFFFFFFFFFFFFFFFFFFFFFFFFFFFFFFFFFFFFF AND PUSH4 0x731133E9 CALLER PUSH0 PUSH3 0xF4240 PUSH1 0x40 MLOAD DUP5 PUSH4 0xFFFFFFFF AND PUSH1 0xE0 SHL DUP2 MSTORE PUSH1 0x4 ADD PUSH2 0x2AA0 SWAP4 SWAP3 SWAP2 SWAP1 PUSH2 0x5361 JUMP JUMPDEST PUSH0 PUSH1 0x40 MLOAD DUP1 DUP4 SUB DUP2 PUSH0 DUP8 DUP1 EXTCODESIZE ISZERO DUP1 ISZERO PUSH2 0x2AB7 JUMPI PUSH0 DUP1 REVERT JUMPDEST POP GAS CALL ISZERO DUP1 ISZERO PUSH2 0x2AC9 JUMPI RETURNDATASIZE PUSH0 DUP1 RETURNDATACOPY RETURNDATASIZE PUSH0 REVERT JUMPDEST POP POP POP POP PUSH1 0x15 PUSH0 SWAP1 SLOAD SWAP1 PUSH2 0x100 EXP SWAP1 DIV PUSH20 0xFFFFFFFFFFFFFFFFFFFFFFFFFFFFFFFFFFFFFFFF AND PUSH20 0xFFFFFFFFFFFFFFFFFFFFFFFFFFFFFFFFFFFFFFFF AND PUSH4 0x731133E9 CALLER PUSH1 0x1 PUSH1 0x12 PUSH1 0xA PUSH2 0x2B1B SWAP2 SWAP1 PUSH2 0x4D6A JUMP JUMPDEST PUSH3 0xF4240 PUSH2 0x2B29 SWAP2 SWAP1 PUSH2 0x4A97 JUMP JUMPDEST PUSH1 0x40 MLOAD DUP5 PUSH4 0xFFFFFFFF AND PUSH1 0xE0 SHL DUP2 MSTORE PUSH1 0x4 ADD PUSH2 0x2B47 SWAP4 SWAP3 SWAP2 SWAP1 PUSH2 0x53A9 JUMP JUMPDEST PUSH0 PUSH1 0x40 MLOAD DUP1 DUP4 SUB DUP2 PUSH0 DUP8 DUP1 EXTCODESIZE ISZERO DUP1 ISZERO PUSH2 0x2B5E JUMPI PUSH0 DUP1 REVERT JUMPDEST POP GAS CALL ISZERO DUP1 ISZERO PUSH2 0x2B70 JUMPI RETURNDATASIZE PUSH0 DUP1 RETURNDATACOPY RETURNDATASIZE PUSH0 REVERT JUMPDEST POP POP POP POP PUSH1 0x15 PUSH0 SWAP1 SLOAD SWAP1 PUSH2 0x100 EXP SWAP1 DIV PUSH20 0xFFFFFFFFFFFFFFFFFFFFFFFFFFFFFFFFFFFFFFFF AND PUSH20 0xFFFFFFFFFFFFFFFFFFFFFFFFFFFFFFFFFFFFFFFF AND PUSH4 0x731133E9 CALLER PUSH1 0x2 PUSH1 0x12 PUSH1 0xA PUSH2 0x2BC2 SWAP2 SWAP1 PUSH2 0x4D6A JUMP JUMPDEST PUSH3 0xF4240 PUSH2 0x2BD0 SWAP2 SWAP1 PUSH2 0x4A97 JUMP JUMPDEST PUSH1 0x40 MLOAD DUP5 PUSH4 0xFFFFFFFF AND PUSH1 0xE0 SHL DUP2 MSTORE PUSH1 0x4 ADD PUSH2 0x2BEE SWAP4 SWAP3 SWAP2 SWAP1 PUSH2 0x542A JUMP JUMPDEST PUSH0 PUSH1 0x40 MLOAD DUP1 DUP4 SUB DUP2 PUSH0 DUP8 DUP1 EXTCODESIZE ISZERO DUP1 ISZERO PUSH2 0x2C05 JUMPI PUSH0 DUP1 REVERT JUMPDEST POP GAS CALL ISZERO DUP1 ISZERO PUSH2 0x2C17 JUMPI RETURNDATASIZE PUSH0 DUP1 RETURNDATACOPY RETURNDATASIZE PUSH0 REVERT JUMPDEST POP POP POP POP PUSH1 0x15 PUSH0 SWAP1 SLOAD SWAP1 PUSH2 0x100 EXP SWAP1 DIV PUSH20 0xFFFFFFFFFFFFFFFFFFFFFFFFFFFFFFFFFFFFFFFF AND PUSH20 0xFFFFFFFFFFFFFFFFFFFFFFFFFFFFFFFFFFFFFFFF AND PUSH4 0x731133E9 CALLER PUSH1 0x3 PUSH1 0x12 PUSH1 0xA PUSH2 0x2C69 SWAP2 SWAP1 PUSH2 0x4D6A JUMP JUMPDEST PUSH3 0xF4240 PUSH2 0x2C77 SWAP2 SWAP1 PUSH2 0x4A97 JUMP JUMPDEST PUSH1 0x40 MLOAD DUP5 PUSH4 0xFFFFFFFF AND PUSH1 0xE0 SHL DUP2 MSTORE PUSH1 0x4 ADD PUSH2 0x2C95 SWAP4 SWAP3 SWAP2 SWAP1 PUSH2 0x5472 JUMP JUMPDEST PUSH0 PUSH1 0x40 MLOAD DUP1 DUP4 SUB DUP2 PUSH0 DUP8 DUP1 EXTCODESIZE ISZERO DUP1 ISZERO PUSH2 0x2CAC JUMPI PUSH0 DUP1 REVERT JUMPDEST POP GAS CALL ISZERO DUP1 ISZERO PUSH2 0x2CBE JUMPI RETURNDATASIZE PUSH0 DUP1 RETURNDATACOPY RETURNDATASIZE PUSH0 REVERT JUMPDEST POP POP POP POP POP JUMP JUMPDEST PUSH1 0x1 DUP2 LT ISZERO PUSH2 0x2D00 JUMPI PUSH1 0x40 MLOAD PUSH32 0x2C5211C600000000000000000000000000000000000000000000000000000000 DUP2 MSTORE PUSH1 0x4 ADD PUSH1 0x40 MLOAD DUP1 SWAP2 SUB SWAP1 REVERT JUMPDEST PUSH0 PUSH1 0x2 PUSH0 CALLER PUSH20 0xFFFFFFFFFFFFFFFFFFFFFFFFFFFFFFFFFFFFFFFF AND PUSH20 0xFFFFFFFFFFFFFFFFFFFFFFFFFFFFFFFFFFFFFFFF AND DUP2 MSTORE PUSH1 0x20 ADD SWAP1 DUP2 MSTORE PUSH1 0x20 ADD PUSH0 KECCAK256 PUSH0 DUP5 DUP2 MSTORE PUSH1 0x20 ADD SWAP1 DUP2 MSTORE PUSH1 0x20 ADD PUSH0 KECCAK256 SWAP1 POP DUP1 PUSH0 ADD SLOAD DUP3 GT ISZERO PUSH2 0x2D8C JUMPI PUSH1 0x40 MLOAD PUSH32 0x2C5211C600000000000000000000000000000000000000000000000000000000 DUP2 MSTORE PUSH1 0x4 ADD PUSH1 0x40 MLOAD DUP1 SWAP2 SUB SWAP1 REVERT JUMPDEST PUSH0 PUSH1 0x3 PUSH0 DUP6 DUP2 MSTORE PUSH1 0x20 ADD SWAP1 DUP2 MSTORE PUSH1 0x20 ADD PUSH0 KECCAK256 SWAP1 POP PUSH0 PUSH32 0x0 PUSH20 0xFFFFFFFFFFFFFFFFFFFFFFFFFFFFFFFFFFFFFFFF AND CALLER PUSH20 0xFFFFFFFFFFFFFFFFFFFFFFFFFFFFFFFFFFFFFFFF AND EQ SWAP1 POP DUP4 DUP3 PUSH0 ADD PUSH0 DUP3 DUP3 SLOAD PUSH2 0x2E04 SWAP2 SWAP1 PUSH2 0x4E5B JUMP JUMPDEST SWAP3 POP POP DUP2 SWAP1 SSTORE POP DUP4 DUP3 PUSH1 0x1 ADD PUSH0 DUP3 DUP3 SLOAD PUSH2 0x2E1E SWAP2 SWAP1 PUSH2 0x4DE1 JUMP JUMPDEST SWAP3 POP POP DUP2 SWAP1 SSTORE POP DUP4 DUP4 PUSH0 ADD PUSH0 DUP3 DUP3 SLOAD PUSH2 0x2E37 SWAP2 SWAP1 PUSH2 0x4E5B JUMP JUMPDEST SWAP3 POP POP DUP2 SWAP1 SSTORE POP DUP4 DUP4 PUSH1 0x1 ADD PUSH0 DUP3 DUP3 SLOAD PUSH2 0x2E51 SWAP2 SWAP1 PUSH2 0x4DE1 JUMP JUMPDEST SWAP3 POP POP DUP2 SWAP1 SSTORE POP DUP1 PUSH2 0x2E65 JUMPI PUSH2 0x12C PUSH2 0x2E69 JUMP JUMPDEST PUSH2 0x258 JUMPDEST PUSH2 0xFFFF AND TIMESTAMP PUSH2 0x2E78 SWAP2 SWAP1 PUSH2 0x4DE1 JUMP JUMPDEST DUP4 PUSH1 0x2 ADD DUP2 SWAP1 SSTORE POP POP POP POP POP POP JUMP JUMPDEST PUSH2 0x2E8F PUSH2 0x3DDF JUMP JUMPDEST PUSH1 0xC DUP2 SWAP1 DUP1 PUSH1 0x1 DUP2 SLOAD ADD DUP1 DUP3 SSTORE DUP1 SWAP2 POP POP PUSH1 0x1 SWAP1 SUB SWAP1 PUSH0 MSTORE PUSH1 0x20 PUSH0 KECCAK256 ADD PUSH0 SWAP1 SWAP2 SWAP1 SWAP2 SWAP1 SWAP2 PUSH2 0x100 EXP DUP2 SLOAD DUP2 PUSH20 0xFFFFFFFFFFFFFFFFFFFFFFFFFFFFFFFFFFFFFFFF MUL NOT AND SWAP1 DUP4 PUSH20 0xFFFFFFFFFFFFFFFFFFFFFFFFFFFFFFFFFFFFFFFF AND MUL OR SWAP1 SSTORE POP POP JUMP JUMPDEST PUSH0 PUSH2 0x2EFC DUP3 PUSH2 0x3EA6 JUMP JUMPDEST SWAP1 POP PUSH1 0xA SLOAD PUSH1 0x12 PUSH0 ADD PUSH0 DUP3 DUP3 SLOAD PUSH2 0x2F13 SWAP2 SWAP1 PUSH2 0x4DE1 JUMP JUMPDEST SWAP3 POP POP DUP2 SWAP1 SSTORE POP CALLER PUSH20 0xFFFFFFFFFFFFFFFFFFFFFFFFFFFFFFFFFFFFFFFF AND PUSH32 0xAE33AE7E358B64F7A51FF8F7B5760FC71417704B8FCF2D004CCE14B891B4305A DUP3 PUSH1 0x40 MLOAD PUSH2 0x2F60 SWAP2 SWAP1 PUSH2 0x41E9 JUMP JUMPDEST PUSH1 0x40 MLOAD DUP1 SWAP2 SUB SWAP1 LOG2 PUSH1 0x15 PUSH0 SWAP1 SLOAD SWAP1 PUSH2 0x100 EXP SWAP1 DIV PUSH20 0xFFFFFFFFFFFFFFFFFFFFFFFFFFFFFFFFFFFFFFFF AND PUSH20 0xFFFFFFFFFFFFFFFFFFFFFFFFFFFFFFFFFFFFFFFF AND PUSH4 0xF242432A CALLER ADDRESS PUSH1 0x1 PUSH1 0xA SLOAD PUSH1 0x40 MLOAD DUP6 PUSH4 0xFFFFFFFF AND PUSH1 0xE0 SHL DUP2 MSTORE PUSH1 0x4 ADD PUSH2 0x2FCB SWAP5 SWAP4 SWAP3 SWAP2 SWAP1 PUSH2 0x4B88 JUMP JUMPDEST PUSH0 PUSH1 0x40 MLOAD DUP1 DUP4 SUB DUP2 PUSH0 DUP8 DUP1 EXTCODESIZE ISZERO DUP1 ISZERO PUSH2 0x2FE2 JUMPI PUSH0 DUP1 REVERT JUMPDEST POP GAS CALL ISZERO DUP1 ISZERO PUSH2 0x2FF4 JUMPI RETURNDATASIZE PUSH0 DUP1 RETURNDATACOPY RETURNDATASIZE PUSH0 REVERT JUMPDEST POP POP POP POP PUSH1 0x15 PUSH0 SWAP1 SLOAD SWAP1 PUSH2 0x100 EXP SWAP1 DIV PUSH20 0xFFFFFFFFFFFFFFFFFFFFFFFFFFFFFFFFFFFFFFFF AND PUSH20 0xFFFFFFFFFFFFFFFFFFFFFFFFFFFFFFFFFFFFFFFF AND PUSH4 0xF5298ACA CALLER DUP5 PUSH1 0x1 PUSH1 0x40 MLOAD DUP5 PUSH4 0xFFFFFFFF AND PUSH1 0xE0 SHL DUP2 MSTORE PUSH1 0x4 ADD PUSH2 0x3057 SWAP4 SWAP3 SWAP2 SWAP1 PUSH2 0x54BA JUMP JUMPDEST PUSH0 PUSH1 0x40 MLOAD DUP1 DUP4 SUB DUP2 PUSH0 DUP8 DUP1 EXTCODESIZE ISZERO DUP1 ISZERO PUSH2 0x306E JUMPI PUSH0 DUP1 REVERT JUMPDEST POP GAS CALL ISZERO DUP1 ISZERO PUSH2 0x3080 JUMPI RETURNDATASIZE PUSH0 DUP1 RETURNDATACOPY RETURNDATASIZE PUSH0 REVERT JUMPDEST POP POP POP POP PUSH1 0x15 PUSH0 SWAP1 SLOAD SWAP1 PUSH2 0x100 EXP SWAP1 DIV PUSH20 0xFFFFFFFFFFFFFFFFFFFFFFFFFFFFFFFFFFFFFFFF AND PUSH20 0xFFFFFFFFFFFFFFFFFFFFFFFFFFFFFFFFFFFFFFFF AND PUSH4 0x731133E9 CALLER DUP4 PUSH1 0x1 PUSH1 0x40 MLOAD DUP5 PUSH4 0xFFFFFFFF AND PUSH1 0xE0 SHL DUP2 MSTORE PUSH1 0x4 ADD PUSH2 0x30E3 SWAP4 SWAP3 SWAP2 SWAP1 PUSH2 0x50F3 JUMP JUMPDEST PUSH0 PUSH1 0x40 MLOAD DUP1 DUP4 SUB DUP2 PUSH0 DUP8 DUP1 EXTCODESIZE ISZERO DUP1 ISZERO PUSH2 0x30FA JUMPI PUSH0 DUP1 REVERT JUMPDEST POP GAS CALL ISZERO DUP1 ISZERO PUSH2 0x310C JUMPI RETURNDATASIZE PUSH0 DUP1 RETURNDATACOPY RETURNDATASIZE PUSH0 REVERT JUMPDEST POP POP POP POP POP POP JUMP JUMPDEST PUSH1 0x15 PUSH0 SWAP1 SLOAD SWAP1 PUSH2 0x100 EXP SWAP1 DIV PUSH20 0xFFFFFFFFFFFFFFFFFFFFFFFFFFFFFFFFFFFFFFFF AND DUP2 JUMP JUMPDEST PUSH1 0x4 PUSH1 0x20 MSTORE DUP3 PUSH0 MSTORE PUSH1 0x40 PUSH0 KECCAK256 PUSH1 0x20 MSTORE DUP2 PUSH0 MSTORE PUSH1 0x40 PUSH0 KECCAK256 DUP2 DUP2 SLOAD DUP2 LT PUSH2 0x315C JUMPI PUSH0 DUP1 REVERT JUMPDEST SWAP1 PUSH0 MSTORE PUSH1 0x20 PUSH0 KECCAK256 ADD PUSH0 SWAP3 POP SWAP3 POP POP POP SLOAD DUP2 JUMP JUMPDEST PUSH0 PUSH1 0x1 PUSH0 CALLER PUSH20 0xFFFFFFFFFFFFFFFFFFFFFFFFFFFFFFFFFFFFFFFF AND PUSH20 0xFFFFFFFFFFFFFFFFFFFFFFFFFFFFFFFFFFFFFFFF AND DUP2 MSTORE PUSH1 0x20 ADD SWAP1 DUP2 MSTORE PUSH1 0x20 ADD PUSH0 KECCAK256 SWAP1 POP PUSH1 0x1 DUP2 PUSH1 0x1 ADD PUSH0 SWAP1 SLOAD SWAP1 PUSH2 0x100 EXP SWAP1 DIV PUSH4 0xFFFFFFFF AND PUSH4 0xFFFFFFFF AND LT ISZERO PUSH2 0x3203 JUMPI PUSH1 0x40 MLOAD PUSH32 0x2C5211C600000000000000000000000000000000000000000000000000000000 DUP2 MSTORE PUSH1 0x4 ADD PUSH1 0x40 MLOAD DUP1 SWAP2 SUB SWAP1 REVERT JUMPDEST PUSH0 PUSH1 0x12 PUSH1 0xA PUSH2 0x3212 SWAP2 SWAP1 PUSH2 0x4D6A JUMP JUMPDEST PUSH2 0x2EE DUP4 PUSH1 0x1 ADD PUSH0 SWAP1 SLOAD SWAP1 PUSH2 0x100 EXP SWAP1 DIV PUSH4 0xFFFFFFFF AND PUSH2 0x3233 SWAP2 SWAP1 PUSH2 0x54EF JUMP JUMPDEST PUSH4 0xFFFFFFFF AND PUSH2 0x3243 SWAP2 SWAP1 PUSH2 0x4A97 JUMP JUMPDEST SWAP1 POP PUSH0 PUSH1 0x12 PUSH1 0xA PUSH2 0x3254 SWAP2 SWAP1 PUSH2 0x4D6A JUMP JUMPDEST PUSH1 0xFA DUP5 PUSH1 0x1 ADD PUSH0 SWAP1 SLOAD SWAP1 PUSH2 0x100 EXP SWAP1 DIV PUSH4 0xFFFFFFFF AND PUSH2 0x3274 SWAP2 SWAP1 PUSH2 0x54EF JUMP JUMPDEST PUSH4 0xFFFFFFFF AND PUSH2 0x3284 SWAP2 SWAP1 PUSH2 0x4A97 JUMP JUMPDEST SWAP1 POP PUSH0 DUP2 DUP4 PUSH2 0x3293 SWAP2 SWAP1 PUSH2 0x4DE1 JUMP JUMPDEST SWAP1 POP DUP3 PUSH1 0x2 PUSH0 CALLER PUSH20 0xFFFFFFFFFFFFFFFFFFFFFFFFFFFFFFFFFFFFFFFF AND PUSH20 0xFFFFFFFFFFFFFFFFFFFFFFFFFFFFFFFFFFFFFFFF AND DUP2 MSTORE PUSH1 0x20 ADD SWAP1 DUP2 MSTORE PUSH1 0x20 ADD PUSH0 KECCAK256 PUSH0 PUSH1 0x1 DUP2 MSTORE PUSH1 0x20 ADD SWAP1 DUP2 MSTORE PUSH1 0x20 ADD PUSH0 KECCAK256 PUSH0 ADD PUSH0 DUP3 DUP3 SLOAD PUSH2 0x32F3 SWAP2 SWAP1 PUSH2 0x4DE1 JUMP JUMPDEST SWAP3 POP POP DUP2 SWAP1 SSTORE POP DUP2 PUSH1 0x2 PUSH0 PUSH32 0x0 PUSH20 0xFFFFFFFFFFFFFFFFFFFFFFFFFFFFFFFFFFFFFFFF AND PUSH20 0xFFFFFFFFFFFFFFFFFFFFFFFFFFFFFFFFFFFFFFFF AND DUP2 MSTORE PUSH1 0x20 ADD SWAP1 DUP2 MSTORE PUSH1 0x20 ADD PUSH0 KECCAK256 PUSH0 PUSH1 0x1 DUP2 MSTORE PUSH1 0x20 ADD SWAP1 DUP2 MSTORE PUSH1 0x20 ADD PUSH0 KECCAK256 PUSH0 ADD PUSH0 DUP3 DUP3 SLOAD PUSH2 0x3378 SWAP2 SWAP1 PUSH2 0x4DE1 JUMP JUMPDEST SWAP3 POP POP DUP2 SWAP1 SSTORE POP DUP1 PUSH1 0x3 PUSH0 PUSH1 0x1 DUP2 MSTORE PUSH1 0x20 ADD SWAP1 DUP2 MSTORE PUSH1 0x20 ADD PUSH0 KECCAK256 PUSH0 ADD PUSH0 DUP3 DUP3 SLOAD PUSH2 0x33A2 SWAP2 SWAP1 PUSH2 0x4DE1 JUMP JUMPDEST SWAP3 POP POP DUP2 SWAP1 SSTORE POP PUSH0 DUP5 PUSH1 0x1 ADD PUSH0 PUSH2 0x100 EXP DUP2 SLOAD DUP2 PUSH4 0xFFFFFFFF MUL NOT AND SWAP1 DUP4 PUSH4 0xFFFFFFFF AND MUL OR SWAP1 SSTORE POP PUSH1 0x15 PUSH0 SWAP1 SLOAD SWAP1 PUSH2 0x100 EXP SWAP1 DIV PUSH20 0xFFFFFFFFFFFFFFFFFFFFFFFFFFFFFFFFFFFFFFFF AND PUSH20 0xFFFFFFFFFFFFFFFFFFFFFFFFFFFFFFFFFFFFFFFF AND PUSH4 0x731133E9 ADDRESS PUSH1 0x1 DUP5 PUSH1 0x40 MLOAD DUP5 PUSH4 0xFFFFFFFF AND PUSH1 0xE0 SHL DUP2 MSTORE PUSH1 0x4 ADD PUSH2 0x342A SWAP4 SWAP3 SWAP2 SWAP1 PUSH2 0x4B40 JUMP JUMPDEST PUSH0 PUSH1 0x40 MLOAD DUP1 DUP4 SUB DUP2 PUSH0 DUP8 DUP1 EXTCODESIZE ISZERO DUP1 ISZERO PUSH2 0x3441 JUMPI PUSH0 DUP1 REVERT JUMPDEST POP GAS CALL ISZERO DUP1 ISZERO PUSH2 0x3453 JUMPI RETURNDATASIZE PUSH0 DUP1 RETURNDATACOPY RETURNDATASIZE PUSH0 REVERT JUMPDEST POP POP POP POP POP POP POP POP JUMP JUMPDEST PUSH0 PUSH4 0xBC197C81 PUSH1 0xE0 SHL SWAP1 POP SWAP6 SWAP5 POP POP POP POP POP JUMP JUMPDEST PUSH1 0x7 PUSH1 0x20 MSTORE DUP1 PUSH0 MSTORE PUSH1 0x40 PUSH0 KECCAK256 PUSH0 SWAP2 POP SWAP1 POP DUP1 PUSH0 ADD SLOAD SWAP1 DUP1 PUSH1 0x1 ADD SLOAD SWAP1 DUP1 PUSH1 0x2 ADD SLOAD SWAP1 DUP1 PUSH1 0x3 ADD PUSH0 SWAP1 SLOAD SWAP1 PUSH2 0x100 EXP SWAP1 DIV PUSH20 0xFFFFFFFFFFFFFFFFFFFFFFFFFFFFFFFFFFFFFFFF AND SWAP1 POP DUP5 JUMP JUMPDEST PUSH1 0x2 PUSH1 0x20 MSTORE DUP2 PUSH0 MSTORE PUSH1 0x40 PUSH0 KECCAK256 PUSH1 0x20 MSTORE DUP1 PUSH0 MSTORE PUSH1 0x40 PUSH0 KECCAK256 PUSH0 SWAP2 POP SWAP2 POP POP DUP1 PUSH0 ADD SLOAD SWAP1 DUP1 PUSH1 0x1 ADD SLOAD SWAP1 DUP1 PUSH1 0x2 ADD SLOAD SWAP1 POP DUP4 JUMP JUMPDEST PUSH1 0xF DUP1 PUSH0 ADD PUSH0 SWAP1 SLOAD SWAP1 PUSH2 0x100 EXP SWAP1 DIV PUSH4 0xFFFFFFFF AND SWAP1 DUP1 PUSH0 ADD PUSH1 0x4 SWAP1 SLOAD SWAP1 PUSH2 0x100 EXP SWAP1 DIV PUSH4 0xFFFFFFFF AND SWAP1 POP DUP3 JUMP JUMPDEST PUSH1 0x15 PUSH0 SWAP1 SLOAD SWAP1 PUSH2 0x100 EXP SWAP1 DIV PUSH20 0xFFFFFFFFFFFFFFFFFFFFFFFFFFFFFFFFFFFFFFFF AND PUSH20 0xFFFFFFFFFFFFFFFFFFFFFFFFFFFFFFFFFFFFFFFF AND PUSH4 0x731133E9 CALLER PUSH1 0x2 CALLVALUE PUSH1 0x40 MLOAD DUP5 PUSH4 0xFFFFFFFF AND PUSH1 0xE0 SHL DUP2 MSTORE PUSH1 0x4 ADD PUSH2 0x357B SWAP4 SWAP3 SWAP2 SWAP1 PUSH2 0x4B40 JUMP JUMPDEST PUSH0 PUSH1 0x40 MLOAD DUP1 DUP4 SUB DUP2 PUSH0 DUP8 DUP1 EXTCODESIZE ISZERO DUP1 ISZERO PUSH2 0x3592 JUMPI PUSH0 DUP1 REVERT JUMPDEST POP GAS CALL ISZERO DUP1 ISZERO PUSH2 0x35A4 JUMPI RETURNDATASIZE PUSH0 DUP1 RETURNDATACOPY RETURNDATASIZE PUSH0 REVERT JUMPDEST POP POP POP POP JUMP JUMPDEST PUSH2 0x35B2 PUSH2 0x3DDF JUMP JUMPDEST PUSH1 0x4 PUSH0 DUP3 DUP2 MSTORE PUSH1 0x20 ADD SWAP1 DUP2 MSTORE PUSH1 0x20 ADD PUSH0 KECCAK256 PUSH0 PUSH1 0x5 PUSH0 DUP6 DUP2 MSTORE PUSH1 0x20 ADD SWAP1 DUP2 MSTORE PUSH1 0x20 ADD PUSH0 KECCAK256 PUSH0 SWAP1 SLOAD SWAP1 PUSH2 0x100 EXP SWAP1 DIV PUSH1 0xFF AND PUSH1 0x2 DUP2 GT ISZERO PUSH2 0x35F4 JUMPI PUSH2 0x35F3 PUSH2 0x4267 JUMP JUMPDEST JUMPDEST PUSH1 0x2 DUP2 GT ISZERO PUSH2 0x3606 JUMPI PUSH2 0x3605 PUSH2 0x4267 JUMP JUMPDEST JUMPDEST DUP2 MSTORE PUSH1 0x20 ADD SWAP1 DUP2 MSTORE PUSH1 0x20 ADD PUSH0 KECCAK256 DUP3 SWAP1 DUP1 PUSH1 0x1 DUP2 SLOAD ADD DUP1 DUP3 SSTORE DUP1 SWAP2 POP POP PUSH1 0x1 SWAP1 SUB SWAP1 PUSH0 MSTORE PUSH1 0x20 PUSH0 KECCAK256 ADD PUSH0 SWAP1 SWAP2 SWAP1 SWAP2 SWAP1 SWAP2 POP SSTORE POP POP JUMP JUMPDEST PUSH1 0x1 DUP3 EQ ISZERO DUP1 PUSH2 0x364C JUMPI POP PUSH1 0x2 DUP3 EQ ISZERO JUMPDEST ISZERO PUSH2 0x3683 JUMPI PUSH1 0x40 MLOAD PUSH32 0xC1AB6DC100000000000000000000000000000000000000000000000000000000 DUP2 MSTORE PUSH1 0x4 ADD PUSH1 0x40 MLOAD DUP1 SWAP2 SUB SWAP1 REVERT JUMPDEST PUSH1 0x1 DUP2 LT ISZERO PUSH2 0x36BE JUMPI PUSH1 0x40 MLOAD PUSH32 0x2C5211C600000000000000000000000000000000000000000000000000000000 DUP2 MSTORE PUSH1 0x4 ADD PUSH1 0x40 MLOAD DUP1 SWAP2 SUB SWAP1 REVERT JUMPDEST PUSH0 DUP1 PUSH0 DUP1 PUSH1 0x1 DUP7 EQ PUSH2 0x36DE JUMPI PUSH1 0x2 PUSH1 0x1 PUSH1 0x10 PUSH1 0x1 ADD SLOAD PUSH1 0x10 PUSH0 ADD SLOAD PUSH2 0x36EE JUMP JUMPDEST PUSH1 0x1 PUSH1 0x2 PUSH1 0x10 PUSH0 ADD SLOAD PUSH1 0x10 PUSH1 0x1 ADD SLOAD JUMPDEST SWAP4 POP SWAP4 POP SWAP4 POP SWAP4 POP PUSH0 PUSH1 0x64 PUSH1 0x63 DUP8 PUSH2 0x3706 SWAP2 SWAP1 PUSH2 0x4A97 JUMP JUMPDEST PUSH2 0x3710 SWAP2 SWAP1 PUSH2 0x4C0B JUMP JUMPDEST SWAP1 POP PUSH0 DUP2 DUP5 PUSH2 0x371F SWAP2 SWAP1 PUSH2 0x4DE1 JUMP JUMPDEST DUP3 DUP5 PUSH2 0x372B SWAP2 SWAP1 PUSH2 0x4A97 JUMP JUMPDEST PUSH2 0x3735 SWAP2 SWAP1 PUSH2 0x4C0B JUMP JUMPDEST SWAP1 POP DUP3 DUP2 GT ISZERO PUSH2 0x3771 JUMPI PUSH1 0x40 MLOAD PUSH32 0x5945EA5600000000000000000000000000000000000000000000000000000000 DUP2 MSTORE PUSH1 0x4 ADD PUSH1 0x40 MLOAD DUP1 SWAP2 SUB SWAP1 REVERT JUMPDEST PUSH1 0x1 DUP9 SUB PUSH2 0x37B3 JUMPI DUP7 PUSH1 0x10 PUSH0 ADD PUSH0 DUP3 DUP3 SLOAD PUSH2 0x378C SWAP2 SWAP1 PUSH2 0x4DE1 JUMP JUMPDEST SWAP3 POP POP DUP2 SWAP1 SSTORE POP DUP1 PUSH1 0x10 PUSH1 0x1 ADD PUSH0 DUP3 DUP3 SLOAD PUSH2 0x37A7 SWAP2 SWAP1 PUSH2 0x4E5B JUMP JUMPDEST SWAP3 POP POP DUP2 SWAP1 SSTORE POP PUSH2 0x37E9 JUMP JUMPDEST DUP1 PUSH1 0x10 PUSH0 ADD PUSH0 DUP3 DUP3 SLOAD PUSH2 0x37C6 SWAP2 SWAP1 PUSH2 0x4E5B JUMP JUMPDEST SWAP3 POP POP DUP2 SWAP1 SSTORE POP DUP7 PUSH1 0x10 PUSH1 0x1 ADD PUSH0 DUP3 DUP3 SLOAD PUSH2 0x37E1 SWAP2 SWAP1 PUSH2 0x4DE1 JUMP JUMPDEST SWAP3 POP POP DUP2 SWAP1 SSTORE POP JUMPDEST PUSH1 0x15 PUSH0 SWAP1 SLOAD SWAP1 PUSH2 0x100 EXP SWAP1 DIV PUSH20 0xFFFFFFFFFFFFFFFFFFFFFFFFFFFFFFFFFFFFFFFF AND PUSH20 0xFFFFFFFFFFFFFFFFFFFFFFFFFFFFFFFFFFFFFFFF AND PUSH4 0xF242432A CALLER ADDRESS DUP10 DUP12 PUSH1 0x40 MLOAD DUP6 PUSH4 0xFFFFFFFF AND PUSH1 0xE0 SHL DUP2 MSTORE PUSH1 0x4 ADD PUSH2 0x3849 SWAP5 SWAP4 SWAP3 SWAP2 SWAP1 PUSH2 0x4B88 JUMP JUMPDEST PUSH0 PUSH1 0x40 MLOAD DUP1 DUP4 SUB DUP2 PUSH0 DUP8 DUP1 EXTCODESIZE ISZERO DUP1 ISZERO PUSH2 0x3860 JUMPI PUSH0 DUP1 REVERT JUMPDEST POP GAS CALL ISZERO DUP1 ISZERO PUSH2 0x3872 JUMPI RETURNDATASIZE PUSH0 DUP1 RETURNDATACOPY RETURNDATASIZE PUSH0 REVERT JUMPDEST POP POP POP POP PUSH1 0x15 PUSH0 SWAP1 SLOAD SWAP1 PUSH2 0x100 EXP SWAP1 DIV PUSH20 0xFFFFFFFFFFFFFFFFFFFFFFFFFFFFFFFFFFFFFFFF AND PUSH20 0xFFFFFFFFFFFFFFFFFFFFFFFFFFFFFFFFFFFFFFFF AND PUSH4 0xF242432A ADDRESS CALLER DUP9 DUP6 PUSH1 0x40 MLOAD DUP6 PUSH4 0xFFFFFFFF AND PUSH1 0xE0 SHL DUP2 MSTORE PUSH1 0x4 ADD PUSH2 0x38D6 SWAP5 SWAP4 SWAP3 SWAP2 SWAP1 PUSH2 0x4B88 JUMP JUMPDEST PUSH0 PUSH1 0x40 MLOAD DUP1 DUP4 SUB DUP2 PUSH0 DUP8 DUP1 EXTCODESIZE ISZERO DUP1 ISZERO PUSH2 0x38ED JUMPI PUSH0 DUP1 REVERT JUMPDEST POP GAS CALL ISZERO DUP1 ISZERO PUSH2 0x38FF JUMPI RETURNDATASIZE PUSH0 DUP1 RETURNDATACOPY RETURNDATASIZE PUSH0 REVERT JUMPDEST POP POP POP POP POP POP POP POP POP POP POP POP JUMP JUMPDEST CALLER PUSH20 0xFFFFFFFFFFFFFFFFFFFFFFFFFFFFFFFFFFFFFFFF AND PUSH2 0x8FC DUP3 SWAP1 DUP2 ISZERO MUL SWAP1 PUSH1 0x40 MLOAD PUSH0 PUSH1 0x40 MLOAD DUP1 DUP4 SUB DUP2 DUP6 DUP9 DUP9 CALL SWAP4 POP POP POP POP ISZERO DUP1 ISZERO PUSH2 0x3950 JUMPI RETURNDATASIZE PUSH0 DUP1 RETURNDATACOPY RETURNDATASIZE PUSH0 REVERT JUMPDEST POP PUSH1 0x15 PUSH0 SWAP1 SLOAD SWAP1 PUSH2 0x100 EXP SWAP1 DIV PUSH20 0xFFFFFFFFFFFFFFFFFFFFFFFFFFFFFFFFFFFFFFFF AND PUSH20 0xFFFFFFFFFFFFFFFFFFFFFFFFFFFFFFFFFFFFFFFF AND PUSH4 0xF5298ACA CALLER PUSH1 0x2 DUP5 PUSH1 0x40 MLOAD DUP5 PUSH4 0xFFFFFFFF AND PUSH1 0xE0 SHL DUP2 MSTORE PUSH1 0x4 ADD PUSH2 0x39B0 SWAP4 SWAP3 SWAP2 SWAP1 PUSH2 0x4AD8 JUMP JUMPDEST PUSH0 PUSH1 0x40 MLOAD DUP1 DUP4 SUB DUP2 PUSH0 DUP8 DUP1 EXTCODESIZE ISZERO DUP1 ISZERO PUSH2 0x39C7 JUMPI PUSH0 DUP1 REVERT JUMPDEST POP GAS CALL ISZERO DUP1 ISZERO PUSH2 0x39D9 JUMPI RETURNDATASIZE PUSH0 DUP1 RETURNDATACOPY RETURNDATASIZE PUSH0 REVERT JUMPDEST POP POP POP POP POP JUMP JUMPDEST PUSH1 0x1 PUSH1 0x20 MSTORE DUP1 PUSH0 MSTORE PUSH1 0x40 PUSH0 KECCAK256 PUSH0 SWAP2 POP SWAP1 POP DUP1 PUSH0 ADD SLOAD SWAP1 DUP1 PUSH1 0x1 ADD PUSH0 SWAP1 SLOAD SWAP1 PUSH2 0x100 EXP SWAP1 DIV PUSH4 0xFFFFFFFF AND SWAP1 DUP1 PUSH1 0x1 ADD PUSH1 0x4 SWAP1 SLOAD SWAP1 PUSH2 0x100 EXP SWAP1 DIV PUSH1 0xFF AND SWAP1 DUP1 PUSH1 0x1 ADD PUSH1 0x5 SWAP1 SLOAD SWAP1 PUSH2 0x100 EXP SWAP1 DIV PUSH1 0xFF AND SWAP1 DUP1 PUSH1 0x1 ADD PUSH1 0x6 SWAP1 SLOAD SWAP1 PUSH2 0x100 EXP SWAP1 DIV PUSH1 0xFF AND SWAP1 DUP1 PUSH1 0x1 ADD PUSH1 0x7 SWAP1 SLOAD SWAP1 PUSH2 0x100 EXP SWAP1 DIV PUSH1 0xFF AND SWAP1 POP DUP7 JUMP JUMPDEST PUSH1 0x1 DUP3 LT ISZERO PUSH2 0x3A96 JUMPI PUSH1 0x40 MLOAD PUSH32 0x2C5211C600000000000000000000000000000000000000000000000000000000 DUP2 MSTORE PUSH1 0x4 ADD PUSH1 0x40 MLOAD DUP1 SWAP2 SUB SWAP1 REVERT JUMPDEST PUSH1 0x12 PUSH1 0xA PUSH2 0x3AA4 SWAP2 SWAP1 PUSH2 0x4D6A JUMP JUMPDEST PUSH1 0x1 PUSH2 0x3AB0 SWAP2 SWAP1 PUSH2 0x4A97 JUMP JUMPDEST DUP2 LT ISZERO PUSH2 0x3AE9 JUMPI PUSH1 0x40 MLOAD PUSH32 0x2C5211C600000000000000000000000000000000000000000000000000000000 DUP2 MSTORE PUSH1 0x4 ADD PUSH1 0x40 MLOAD DUP1 SWAP2 SUB SWAP1 REVERT JUMPDEST PUSH1 0x1 PUSH1 0xE PUSH0 DUP3 DUP3 SLOAD PUSH2 0x3AFB SWAP2 SWAP1 PUSH2 0x4DE1 JUMP JUMPDEST SWAP3 POP POP DUP2 SWAP1 SSTORE POP CALLER PUSH20 0xFFFFFFFFFFFFFFFFFFFFFFFFFFFFFFFFFFFFFFFF AND PUSH32 0xC02EBE2E0167B3CE101FF4BE84BBEACF66A81EEBB6F8D142FFD02EA3FDFD0B0A PUSH1 0xE SLOAD DUP6 DUP6 DUP6 PUSH1 0x40 MLOAD PUSH2 0x3B50 SWAP5 SWAP4 SWAP3 SWAP2 SWAP1 PUSH2 0x552B JUMP JUMPDEST PUSH1 0x40 MLOAD DUP1 SWAP2 SUB SWAP1 LOG2 PUSH1 0x15 PUSH0 SWAP1 SLOAD SWAP1 PUSH2 0x100 EXP SWAP1 DIV PUSH20 0xFFFFFFFFFFFFFFFFFFFFFFFFFFFFFFFFFFFFFFFF AND PUSH20 0xFFFFFFFFFFFFFFFFFFFFFFFFFFFFFFFFFFFFFFFF AND PUSH4 0xF242432A CALLER ADDRESS DUP7 DUP7 PUSH1 0x40 MLOAD DUP6 PUSH4 0xFFFFFFFF AND PUSH1 0xE0 SHL DUP2 MSTORE PUSH1 0x4 ADD PUSH2 0x3BB8 SWAP5 SWAP4 SWAP3 SWAP2 SWAP1 PUSH2 0x4B88 JUMP JUMPDEST PUSH0 PUSH1 0x40 MLOAD DUP1 DUP4 SUB DUP2 PUSH0 DUP8 DUP1 EXTCODESIZE ISZERO DUP1 ISZERO PUSH2 0x3BCF JUMPI PUSH0 DUP1 REVERT JUMPDEST POP GAS CALL ISZERO DUP1 ISZERO PUSH2 0x3BE1 JUMPI RETURNDATASIZE PUSH0 DUP1 RETURNDATACOPY RETURNDATASIZE PUSH0 REVERT JUMPDEST POP POP POP POP POP POP POP JUMP JUMPDEST PUSH0 PUSH4 0xF23A6E61 PUSH1 0xE0 SHL SWAP1 POP SWAP6 SWAP5 POP POP POP POP POP JUMP JUMPDEST PUSH2 0x3C06 PUSH2 0x3DDF JUMP JUMPDEST PUSH0 PUSH20 0xFFFFFFFFFFFFFFFFFFFFFFFFFFFFFFFFFFFFFFFF AND DUP2 PUSH20 0xFFFFFFFFFFFFFFFFFFFFFFFFFFFFFFFFFFFFFFFF AND SUB PUSH2 0x3C76 JUMPI PUSH0 PUSH1 0x40 MLOAD PUSH32 0x1E4FBDF700000000000000000000000000000000000000000000000000000000 DUP2 MSTORE PUSH1 0x4 ADD PUSH2 0x3C6D SWAP2 SWAP1 PUSH2 0x43FC JUMP JUMPDEST PUSH1 0x40 MLOAD DUP1 SWAP2 SUB SWAP1 REVERT JUMPDEST PUSH2 0x3C7F DUP2 PUSH2 0x3FF0 JUMP JUMPDEST POP JUMP JUMPDEST PUSH2 0x3C8A PUSH2 0x3DDF JUMP JUMPDEST PUSH2 0x3E8 DUP3 LT DUP1 PUSH2 0x3C9C JUMPI POP PUSH3 0xF423F DUP3 GT JUMPDEST ISZERO PUSH2 0x3CD3 JUMPI PUSH1 0x40 MLOAD PUSH32 0x5BFE79C600000000000000000000000000000000000000000000000000000000 DUP2 MSTORE PUSH1 0x4 ADD PUSH1 0x40 MLOAD DUP1 SWAP2 SUB SWAP1 REVERT JUMPDEST PUSH0 PUSH1 0x2 DUP4 PUSH2 0x3CE1 SWAP2 SWAP1 PUSH2 0x556E JUMP JUMPDEST EQ PUSH2 0x3D18 JUMPI PUSH1 0x40 MLOAD PUSH32 0x5C9F2EE800000000000000000000000000000000000000000000000000000000 DUP2 MSTORE PUSH1 0x4 ADD PUSH1 0x40 MLOAD DUP1 SWAP2 SUB SWAP1 REVERT JUMPDEST DUP1 PUSH1 0x5 PUSH0 DUP5 DUP2 MSTORE PUSH1 0x20 ADD SWAP1 DUP2 MSTORE PUSH1 0x20 ADD PUSH0 KECCAK256 PUSH0 PUSH2 0x100 EXP DUP2 SLOAD DUP2 PUSH1 0xFF MUL NOT AND SWAP1 DUP4 PUSH1 0x2 DUP2 GT ISZERO PUSH2 0x3D4B JUMPI PUSH2 0x3D4A PUSH2 0x4267 JUMP JUMPDEST JUMPDEST MUL OR SWAP1 SSTORE POP DUP2 PUSH1 0x6 PUSH0 PUSH1 0x1 DUP6 PUSH2 0x3D61 SWAP2 SWAP1 PUSH2 0x4DE1 JUMP JUMPDEST DUP2 MSTORE PUSH1 0x20 ADD SWAP1 DUP2 MSTORE PUSH1 0x20 ADD PUSH0 KECCAK256 DUP2 SWAP1 SSTORE POP POP POP JUMP JUMPDEST PUSH0 PUSH32 0x1FFC9A700000000000000000000000000000000000000000000000000000000 PUSH28 0xFFFFFFFFFFFFFFFFFFFFFFFFFFFFFFFFFFFFFFFFFFFFFFFFFFFFFFFF NOT AND DUP3 PUSH28 0xFFFFFFFFFFFFFFFFFFFFFFFFFFFFFFFFFFFFFFFFFFFFFFFFFFFFFFFF NOT AND EQ SWAP1 POP SWAP2 SWAP1 POP JUMP JUMPDEST PUSH2 0x3DE7 PUSH2 0x40B1 JUMP JUMPDEST PUSH20 0xFFFFFFFFFFFFFFFFFFFFFFFFFFFFFFFFFFFFFFFF AND PUSH2 0x3E05 PUSH2 0x1DC3 JUMP JUMPDEST PUSH20 0xFFFFFFFFFFFFFFFFFFFFFFFFFFFFFFFFFFFFFFFF AND EQ PUSH2 0x3E64 JUMPI PUSH2 0x3E28 PUSH2 0x40B1 JUMP JUMPDEST PUSH1 0x40 MLOAD PUSH32 0x118CDAA700000000000000000000000000000000000000000000000000000000 DUP2 MSTORE PUSH1 0x4 ADD PUSH2 0x3E5B SWAP2 SWAP1 PUSH2 0x43FC JUMP JUMPDEST PUSH1 0x40 MLOAD DUP1 SWAP2 SUB SWAP1 REVERT JUMPDEST JUMP JUMPDEST PUSH0 DUP2 TIMESTAMP PREVRANDAO CALLER PUSH1 0x40 MLOAD PUSH1 0x20 ADD PUSH2 0x3E7D SWAP4 SWAP3 SWAP2 SWAP1 PUSH2 0x559E JUMP JUMPDEST PUSH1 0x40 MLOAD PUSH1 0x20 DUP2 DUP4 SUB SUB DUP2 MSTORE SWAP1 PUSH1 0x40 MSTORE DUP1 MLOAD SWAP1 PUSH1 0x20 ADD KECCAK256 PUSH0 SHR PUSH2 0x3E9F SWAP2 SWAP1 PUSH2 0x556E JUMP JUMPDEST SWAP1 POP SWAP2 SWAP1 POP JUMP JUMPDEST PUSH0 DUP1 PUSH2 0x3EB2 PUSH1 0x64 PUSH2 0x3E66 JUMP JUMPDEST SWAP1 POP PUSH0 PUSH1 0x5A DUP3 LT ISZERO PUSH2 0x3EC6 JUMPI PUSH0 SWAP1 POP PUSH2 0x3EEB JUMP JUMPDEST PUSH1 0x5A DUP3 LT ISZERO DUP1 ISZERO PUSH2 0x3ED7 JUMPI POP PUSH1 0x63 DUP3 LT JUMPDEST ISZERO PUSH2 0x3EE5 JUMPI PUSH1 0x1 SWAP1 POP PUSH2 0x3EEA JUMP JUMPDEST PUSH1 0x2 SWAP1 POP JUMPDEST JUMPDEST PUSH0 PUSH1 0x4 PUSH0 DUP7 DUP2 MSTORE PUSH1 0x20 ADD SWAP1 DUP2 MSTORE PUSH1 0x20 ADD PUSH0 KECCAK256 PUSH0 DUP4 PUSH1 0x2 DUP2 GT ISZERO PUSH2 0x3F11 JUMPI PUSH2 0x3F10 PUSH2 0x4267 JUMP JUMPDEST JUMPDEST PUSH1 0x2 DUP2 GT ISZERO PUSH2 0x3F23 JUMPI PUSH2 0x3F22 PUSH2 0x4267 JUMP JUMPDEST JUMPDEST DUP2 MSTORE PUSH1 0x20 ADD SWAP1 DUP2 MSTORE PUSH1 0x20 ADD PUSH0 KECCAK256 DUP1 SLOAD DUP1 PUSH1 0x20 MUL PUSH1 0x20 ADD PUSH1 0x40 MLOAD SWAP1 DUP2 ADD PUSH1 0x40 MSTORE DUP1 SWAP3 SWAP2 SWAP1 DUP2 DUP2 MSTORE PUSH1 0x20 ADD DUP3 DUP1 SLOAD DUP1 ISZERO PUSH2 0x3F78 JUMPI PUSH1 0x20 MUL DUP3 ADD SWAP2 SWAP1 PUSH0 MSTORE PUSH1 0x20 PUSH0 KECCAK256 SWAP1 JUMPDEST DUP2 SLOAD DUP2 MSTORE PUSH1 0x20 ADD SWAP1 PUSH1 0x1 ADD SWAP1 DUP1 DUP4 GT PUSH2 0x3F64 JUMPI JUMPDEST POP POP POP POP POP SWAP1 POP PUSH0 DUP2 MLOAD GT PUSH2 0x3FC2 JUMPI PUSH1 0x40 MLOAD PUSH32 0x8C379A000000000000000000000000000000000000000000000000000000000 DUP2 MSTORE PUSH1 0x4 ADD PUSH2 0x3FB9 SWAP1 PUSH2 0x561D JUMP JUMPDEST PUSH1 0x40 MLOAD DUP1 SWAP2 SUB SWAP1 REVERT JUMPDEST DUP1 PUSH2 0x3FCD DUP3 MLOAD PUSH2 0x3E66 JUMP JUMPDEST DUP2 MLOAD DUP2 LT PUSH2 0x3FDE JUMPI PUSH2 0x3FDD PUSH2 0x4DB4 JUMP JUMPDEST JUMPDEST PUSH1 0x20 MUL PUSH1 0x20 ADD ADD MLOAD SWAP4 POP POP POP POP SWAP2 SWAP1 POP JUMP JUMPDEST PUSH0 DUP1 PUSH0 SWAP1 SLOAD SWAP1 PUSH2 0x100 EXP SWAP1 DIV PUSH20 0xFFFFFFFFFFFFFFFFFFFFFFFFFFFFFFFFFFFFFFFF AND SWAP1 POP DUP2 PUSH0 DUP1 PUSH2 0x100 EXP DUP2 SLOAD DUP2 PUSH20 0xFFFFFFFFFFFFFFFFFFFFFFFFFFFFFFFFFFFFFFFF MUL NOT AND SWAP1 DUP4 PUSH20 0xFFFFFFFFFFFFFFFFFFFFFFFFFFFFFFFFFFFFFFFF AND MUL OR SWAP1 SSTORE POP DUP2 PUSH20 0xFFFFFFFFFFFFFFFFFFFFFFFFFFFFFFFFFFFFFFFF AND DUP2 PUSH20 0xFFFFFFFFFFFFFFFFFFFFFFFFFFFFFFFFFFFFFFFF AND PUSH32 0x8BE0079C531659141344CD1FD0A4F28419497F9722A3DAAFE3B4186F6B6457E0 PUSH1 0x40 MLOAD PUSH1 0x40 MLOAD DUP1 SWAP2 SUB SWAP1 LOG3 POP POP JUMP JUMPDEST PUSH0 CALLER SWAP1 POP SWAP1 JUMP JUMPDEST PUSH0 PUSH1 0x40 MLOAD SWAP1 POP SWAP1 JUMP JUMPDEST PUSH0 DUP1 REVERT JUMPDEST PUSH0 DUP1 REVERT JUMPDEST PUSH0 PUSH32 0xFFFFFFFF00000000000000000000000000000000000000000000000000000000 DUP3 AND SWAP1 POP SWAP2 SWAP1 POP JUMP JUMPDEST PUSH2 0x40FD DUP2 PUSH2 0x40C9 JUMP JUMPDEST DUP2 EQ PUSH2 0x4107 JUMPI PUSH0 DUP1 REVERT JUMPDEST POP JUMP JUMPDEST PUSH0 DUP2 CALLDATALOAD SWAP1 POP PUSH2 0x4118 DUP2 PUSH2 0x40F4 JUMP JUMPDEST SWAP3 SWAP2 POP POP JUMP JUMPDEST PUSH0 PUSH1 0x20 DUP3 DUP5 SUB SLT ISZERO PUSH2 0x4133 JUMPI PUSH2 0x4132 PUSH2 0x40C1 JUMP JUMPDEST JUMPDEST PUSH0 PUSH2 0x4140 DUP5 DUP3 DUP6 ADD PUSH2 0x410A JUMP JUMPDEST SWAP2 POP POP SWAP3 SWAP2 POP POP JUMP JUMPDEST PUSH0 DUP2 ISZERO ISZERO SWAP1 POP SWAP2 SWAP1 POP JUMP JUMPDEST PUSH2 0x415D DUP2 PUSH2 0x4149 JUMP JUMPDEST DUP3 MSTORE POP POP JUMP JUMPDEST PUSH0 PUSH1 0x20 DUP3 ADD SWAP1 POP PUSH2 0x4176 PUSH0 DUP4 ADD DUP5 PUSH2 0x4154 JUMP JUMPDEST SWAP3 SWAP2 POP POP JUMP JUMPDEST PUSH0 DUP2 SWAP1 POP SWAP2 SWAP1 POP JUMP JUMPDEST PUSH2 0x418E DUP2 PUSH2 0x417C JUMP JUMPDEST DUP2 EQ PUSH2 0x4198 JUMPI PUSH0 DUP1 REVERT JUMPDEST POP JUMP JUMPDEST PUSH0 DUP2 CALLDATALOAD SWAP1 POP PUSH2 0x41A9 DUP2 PUSH2 0x4185 JUMP JUMPDEST SWAP3 SWAP2 POP POP JUMP JUMPDEST PUSH0 PUSH1 0x20 DUP3 DUP5 SUB SLT ISZERO PUSH2 0x41C4 JUMPI PUSH2 0x41C3 PUSH2 0x40C1 JUMP JUMPDEST JUMPDEST PUSH0 PUSH2 0x41D1 DUP5 DUP3 DUP6 ADD PUSH2 0x419B JUMP JUMPDEST SWAP2 POP POP SWAP3 SWAP2 POP POP JUMP JUMPDEST PUSH2 0x41E3 DUP2 PUSH2 0x417C JUMP JUMPDEST DUP3 MSTORE POP POP JUMP JUMPDEST PUSH0 PUSH1 0x20 DUP3 ADD SWAP1 POP PUSH2 0x41FC PUSH0 DUP4 ADD DUP5 PUSH2 0x41DA JUMP JUMPDEST SWAP3 SWAP2 POP POP JUMP JUMPDEST PUSH0 PUSH1 0x40 DUP3 ADD SWAP1 POP PUSH2 0x4215 PUSH0 DUP4 ADD DUP6 PUSH2 0x41DA JUMP JUMPDEST PUSH2 0x4222 PUSH1 0x20 DUP4 ADD DUP5 PUSH2 0x41DA JUMP JUMPDEST SWAP4 SWAP3 POP POP POP JUMP JUMPDEST PUSH0 DUP1 PUSH1 0x40 DUP4 DUP6 SUB SLT ISZERO PUSH2 0x423F JUMPI PUSH2 0x423E PUSH2 0x40C1 JUMP JUMPDEST JUMPDEST PUSH0 PUSH2 0x424C DUP6 DUP3 DUP7 ADD PUSH2 0x419B JUMP JUMPDEST SWAP3 POP POP PUSH1 0x20 PUSH2 0x425D DUP6 DUP3 DUP7 ADD PUSH2 0x419B JUMP JUMPDEST SWAP2 POP POP SWAP3 POP SWAP3 SWAP1 POP JUMP JUMPDEST PUSH32 0x4E487B7100000000000000000000000000000000000000000000000000000000 PUSH0 MSTORE PUSH1 0x21 PUSH1 0x4 MSTORE PUSH1 0x24 PUSH0 REVERT JUMPDEST PUSH1 0x3 DUP2 LT PUSH2 0x42A5 JUMPI PUSH2 0x42A4 PUSH2 0x4267 JUMP JUMPDEST JUMPDEST POP JUMP JUMPDEST PUSH0 DUP2 SWAP1 POP PUSH2 0x42B5 DUP3 PUSH2 0x4294 JUMP JUMPDEST SWAP2 SWAP1 POP JUMP JUMPDEST PUSH0 PUSH2 0x42C4 DUP3 PUSH2 0x42A8 JUMP JUMPDEST SWAP1 POP SWAP2 SWAP1 POP JUMP JUMPDEST PUSH2 0x42D4 DUP2 PUSH2 0x42BA JUMP JUMPDEST DUP3 MSTORE POP POP JUMP JUMPDEST PUSH0 PUSH1 0x20 DUP3 ADD SWAP1 POP PUSH2 0x42ED PUSH0 DUP4 ADD DUP5 PUSH2 0x42CB JUMP JUMPDEST SWAP3 SWAP2 POP POP JUMP JUMPDEST PUSH0 PUSH20 0xFFFFFFFFFFFFFFFFFFFFFFFFFFFFFFFFFFFFFFFF DUP3 AND SWAP1 POP SWAP2 SWAP1 POP JUMP JUMPDEST PUSH0 PUSH2 0x431C DUP3 PUSH2 0x42F3 JUMP JUMPDEST SWAP1 POP SWAP2 SWAP1 POP JUMP JUMPDEST PUSH2 0x432C DUP2 PUSH2 0x4312 JUMP JUMPDEST DUP2 EQ PUSH2 0x4336 JUMPI PUSH0 DUP1 REVERT JUMPDEST POP JUMP JUMPDEST PUSH0 DUP2 CALLDATALOAD SWAP1 POP PUSH2 0x4347 DUP2 PUSH2 0x4323 JUMP JUMPDEST SWAP3 SWAP2 POP POP JUMP JUMPDEST PUSH0 PUSH2 0xFFFF DUP3 AND SWAP1 POP SWAP2 SWAP1 POP JUMP JUMPDEST PUSH2 0x4363 DUP2 PUSH2 0x434D JUMP JUMPDEST DUP2 EQ PUSH2 0x436D JUMPI PUSH0 DUP1 REVERT JUMPDEST POP JUMP JUMPDEST PUSH0 DUP2 CALLDATALOAD SWAP1 POP PUSH2 0x437E DUP2 PUSH2 0x435A JUMP JUMPDEST SWAP3 SWAP2 POP POP JUMP JUMPDEST PUSH0 DUP1 PUSH1 0x40 DUP4 DUP6 SUB SLT ISZERO PUSH2 0x439A JUMPI PUSH2 0x4399 PUSH2 0x40C1 JUMP JUMPDEST JUMPDEST PUSH0 PUSH2 0x43A7 DUP6 DUP3 DUP7 ADD PUSH2 0x4339 JUMP JUMPDEST SWAP3 POP POP PUSH1 0x20 PUSH2 0x43B8 DUP6 DUP3 DUP7 ADD PUSH2 0x4370 JUMP JUMPDEST SWAP2 POP POP SWAP3 POP SWAP3 SWAP1 POP JUMP JUMPDEST PUSH0 PUSH1 0x20 DUP3 DUP5 SUB SLT ISZERO PUSH2 0x43D7 JUMPI PUSH2 0x43D6 PUSH2 0x40C1 JUMP JUMPDEST JUMPDEST PUSH0 PUSH2 0x43E4 DUP5 DUP3 DUP6 ADD PUSH2 0x4339 JUMP JUMPDEST SWAP2 POP POP SWAP3 SWAP2 POP POP JUMP JUMPDEST PUSH2 0x43F6 DUP2 PUSH2 0x4312 JUMP JUMPDEST DUP3 MSTORE POP POP JUMP JUMPDEST PUSH0 PUSH1 0x20 DUP3 ADD SWAP1 POP PUSH2 0x440F PUSH0 DUP4 ADD DUP5 PUSH2 0x43ED JUMP JUMPDEST SWAP3 SWAP2 POP POP JUMP JUMPDEST PUSH0 PUSH1 0x60 DUP3 ADD SWAP1 POP PUSH2 0x4428 PUSH0 DUP4 ADD DUP7 PUSH2 0x41DA JUMP JUMPDEST PUSH2 0x4435 PUSH1 0x20 DUP4 ADD DUP6 PUSH2 0x41DA JUMP JUMPDEST PUSH2 0x4442 PUSH1 0x40 DUP4 ADD DUP5 PUSH2 0x41DA JUMP JUMPDEST SWAP5 SWAP4 POP POP POP POP JUMP JUMPDEST PUSH0 DUP2 SWAP1 POP SWAP2 SWAP1 POP JUMP JUMPDEST PUSH0 PUSH2 0x446D PUSH2 0x4468 PUSH2 0x4463 DUP5 PUSH2 0x42F3 JUMP JUMPDEST PUSH2 0x444A JUMP JUMPDEST PUSH2 0x42F3 JUMP JUMPDEST SWAP1 POP SWAP2 SWAP1 POP JUMP JUMPDEST PUSH0 PUSH2 0x447E DUP3 PUSH2 0x4453 JUMP JUMPDEST SWAP1 POP SWAP2 SWAP1 POP JUMP JUMPDEST PUSH0 PUSH2 0x448F DUP3 PUSH2 0x4474 JUMP JUMPDEST SWAP1 POP SWAP2 SWAP1 POP JUMP JUMPDEST PUSH2 0x449F DUP2 PUSH2 0x4485 JUMP JUMPDEST DUP3 MSTORE POP POP JUMP JUMPDEST PUSH0 PUSH1 0x20 DUP3 ADD SWAP1 POP PUSH2 0x44B8 PUSH0 DUP4 ADD DUP5 PUSH2 0x4496 JUMP JUMPDEST SWAP3 SWAP2 POP POP JUMP JUMPDEST PUSH1 0x3 DUP2 LT PUSH2 0x44CA JUMPI PUSH0 DUP1 REVERT JUMPDEST POP JUMP JUMPDEST PUSH0 DUP2 CALLDATALOAD SWAP1 POP PUSH2 0x44DB DUP2 PUSH2 0x44BE JUMP JUMPDEST SWAP3 SWAP2 POP POP JUMP JUMPDEST PUSH0 DUP1 PUSH0 PUSH1 0x60 DUP5 DUP7 SUB SLT ISZERO PUSH2 0x44F8 JUMPI PUSH2 0x44F7 PUSH2 0x40C1 JUMP JUMPDEST JUMPDEST PUSH0 PUSH2 0x4505 DUP7 DUP3 DUP8 ADD PUSH2 0x419B JUMP JUMPDEST SWAP4 POP POP PUSH1 0x20 PUSH2 0x4516 DUP7 DUP3 DUP8 ADD PUSH2 0x44CD JUMP JUMPDEST SWAP3 POP POP PUSH1 0x40 PUSH2 0x4527 DUP7 DUP3 DUP8 ADD PUSH2 0x419B JUMP JUMPDEST SWAP2 POP POP SWAP3 POP SWAP3 POP SWAP3 JUMP JUMPDEST PUSH0 DUP1 REVERT JUMPDEST PUSH0 PUSH1 0x1F NOT PUSH1 0x1F DUP4 ADD AND SWAP1 POP SWAP2 SWAP1 POP JUMP JUMPDEST PUSH32 0x4E487B7100000000000000000000000000000000000000000000000000000000 PUSH0 MSTORE PUSH1 0x41 PUSH1 0x4 MSTORE PUSH1 0x24 PUSH0 REVERT JUMPDEST PUSH2 0x457B DUP3 PUSH2 0x4535 JUMP JUMPDEST DUP2 ADD DUP2 DUP2 LT PUSH8 0xFFFFFFFFFFFFFFFF DUP3 GT OR ISZERO PUSH2 0x459A JUMPI PUSH2 0x4599 PUSH2 0x4545 JUMP JUMPDEST JUMPDEST DUP1 PUSH1 0x40 MSTORE POP POP POP JUMP JUMPDEST PUSH0 PUSH2 0x45AC PUSH2 0x40B8 JUMP JUMPDEST SWAP1 POP PUSH2 0x45B8 DUP3 DUP3 PUSH2 0x4572 JUMP JUMPDEST SWAP2 SWAP1 POP JUMP JUMPDEST PUSH0 PUSH8 0xFFFFFFFFFFFFFFFF DUP3 GT ISZERO PUSH2 0x45D7 JUMPI PUSH2 0x45D6 PUSH2 0x4545 JUMP JUMPDEST JUMPDEST PUSH1 0x20 DUP3 MUL SWAP1 POP PUSH1 0x20 DUP2 ADD SWAP1 POP SWAP2 SWAP1 POP JUMP JUMPDEST PUSH0 DUP1 REVERT JUMPDEST PUSH0 PUSH2 0x45FE PUSH2 0x45F9 DUP5 PUSH2 0x45BD JUMP JUMPDEST PUSH2 0x45A3 JUMP JUMPDEST SWAP1 POP DUP1 DUP4 DUP3 MSTORE PUSH1 0x20 DUP3 ADD SWAP1 POP PUSH1 0x20 DUP5 MUL DUP4 ADD DUP6 DUP2 GT ISZERO PUSH2 0x4621 JUMPI PUSH2 0x4620 PUSH2 0x45E8 JUMP JUMPDEST JUMPDEST DUP4 JUMPDEST DUP2 DUP2 LT ISZERO PUSH2 0x464A JUMPI DUP1 PUSH2 0x4636 DUP9 DUP3 PUSH2 0x419B JUMP JUMPDEST DUP5 MSTORE PUSH1 0x20 DUP5 ADD SWAP4 POP POP PUSH1 0x20 DUP2 ADD SWAP1 POP PUSH2 0x4623 JUMP JUMPDEST POP POP POP SWAP4 SWAP3 POP POP POP JUMP JUMPDEST PUSH0 DUP3 PUSH1 0x1F DUP4 ADD SLT PUSH2 0x4668 JUMPI PUSH2 0x4667 PUSH2 0x4531 JUMP JUMPDEST JUMPDEST DUP2 CALLDATALOAD PUSH2 0x4678 DUP5 DUP3 PUSH1 0x20 DUP7 ADD PUSH2 0x45EC JUMP JUMPDEST SWAP2 POP POP SWAP3 SWAP2 POP POP JUMP JUMPDEST PUSH0 DUP1 REVERT JUMPDEST PUSH0 PUSH8 0xFFFFFFFFFFFFFFFF DUP3 GT ISZERO PUSH2 0x469F JUMPI PUSH2 0x469E PUSH2 0x4545 JUMP JUMPDEST JUMPDEST PUSH2 0x46A8 DUP3 PUSH2 0x4535 JUMP JUMPDEST SWAP1 POP PUSH1 0x20 DUP2 ADD SWAP1 POP SWAP2 SWAP1 POP JUMP JUMPDEST DUP3 DUP2 DUP4 CALLDATACOPY PUSH0 DUP4 DUP4 ADD MSTORE POP POP POP JUMP JUMPDEST PUSH0 PUSH2 0x46D5 PUSH2 0x46D0 DUP5 PUSH2 0x4685 JUMP JUMPDEST PUSH2 0x45A3 JUMP JUMPDEST SWAP1 POP DUP3 DUP2 MSTORE PUSH1 0x20 DUP2 ADD DUP5 DUP5 DUP5 ADD GT ISZERO PUSH2 0x46F1 JUMPI PUSH2 0x46F0 PUSH2 0x4681 JUMP JUMPDEST JUMPDEST PUSH2 0x46FC DUP5 DUP3 DUP6 PUSH2 0x46B5 JUMP JUMPDEST POP SWAP4 SWAP3 POP POP POP JUMP JUMPDEST PUSH0 DUP3 PUSH1 0x1F DUP4 ADD SLT PUSH2 0x4718 JUMPI PUSH2 0x4717 PUSH2 0x4531 JUMP JUMPDEST JUMPDEST DUP2 CALLDATALOAD PUSH2 0x4728 DUP5 DUP3 PUSH1 0x20 DUP7 ADD PUSH2 0x46C3 JUMP JUMPDEST SWAP2 POP POP SWAP3 SWAP2 POP POP JUMP JUMPDEST PUSH0 DUP1 PUSH0 DUP1 PUSH0 PUSH1 0xA0 DUP7 DUP9 SUB SLT ISZERO PUSH2 0x474A JUMPI PUSH2 0x4749 PUSH2 0x40C1 JUMP JUMPDEST JUMPDEST PUSH0 PUSH2 0x4757 DUP9 DUP3 DUP10 ADD PUSH2 0x4339 JUMP JUMPDEST SWAP6 POP POP PUSH1 0x20 PUSH2 0x4768 DUP9 DUP3 DUP10 ADD PUSH2 0x4339 JUMP JUMPDEST SWAP5 POP POP PUSH1 0x40 DUP7 ADD CALLDATALOAD PUSH8 0xFFFFFFFFFFFFFFFF DUP2 GT ISZERO PUSH2 0x4789 JUMPI PUSH2 0x4788 PUSH2 0x40C5 JUMP JUMPDEST JUMPDEST PUSH2 0x4795 DUP9 DUP3 DUP10 ADD PUSH2 0x4654 JUMP JUMPDEST SWAP4 POP POP PUSH1 0x60 DUP7 ADD CALLDATALOAD PUSH8 0xFFFFFFFFFFFFFFFF DUP2 GT ISZERO PUSH2 0x47B6 JUMPI PUSH2 0x47B5 PUSH2 0x40C5 JUMP JUMPDEST JUMPDEST PUSH2 0x47C2 DUP9 DUP3 DUP10 ADD PUSH2 0x4654 JUMP JUMPDEST SWAP3 POP POP PUSH1 0x80 DUP7 ADD CALLDATALOAD PUSH8 0xFFFFFFFFFFFFFFFF DUP2 GT ISZERO PUSH2 0x47E3 JUMPI PUSH2 0x47E2 PUSH2 0x40C5 JUMP JUMPDEST JUMPDEST PUSH2 0x47EF DUP9 DUP3 DUP10 ADD PUSH2 0x4704 JUMP JUMPDEST SWAP2 POP POP SWAP3 SWAP6 POP SWAP3 SWAP6 SWAP1 SWAP4 POP JUMP JUMPDEST PUSH2 0x4805 DUP2 PUSH2 0x40C9 JUMP JUMPDEST DUP3 MSTORE POP POP JUMP JUMPDEST PUSH0 PUSH1 0x20 DUP3 ADD SWAP1 POP PUSH2 0x481E PUSH0 DUP4 ADD DUP5 PUSH2 0x47FC JUMP JUMPDEST SWAP3 SWAP2 POP POP JUMP JUMPDEST PUSH0 PUSH1 0x80 DUP3 ADD SWAP1 POP PUSH2 0x4837 PUSH0 DUP4 ADD DUP8 PUSH2 0x41DA JUMP JUMPDEST PUSH2 0x4844 PUSH1 0x20 DUP4 ADD DUP7 PUSH2 0x41DA JUMP JUMPDEST PUSH2 0x4851 PUSH1 0x40 DUP4 ADD DUP6 PUSH2 0x41DA JUMP JUMPDEST PUSH2 0x485E PUSH1 0x60 DUP4 ADD DUP5 PUSH2 0x43ED JUMP JUMPDEST SWAP6 SWAP5 POP POP POP POP POP JUMP JUMPDEST PUSH0 DUP1 PUSH1 0x40 DUP4 DUP6 SUB SLT ISZERO PUSH2 0x487D JUMPI PUSH2 0x487C PUSH2 0x40C1 JUMP JUMPDEST JUMPDEST PUSH0 PUSH2 0x488A DUP6 DUP3 DUP7 ADD PUSH2 0x4339 JUMP JUMPDEST SWAP3 POP POP PUSH1 0x20 PUSH2 0x489B DUP6 DUP3 DUP7 ADD PUSH2 0x419B JUMP JUMPDEST SWAP2 POP POP SWAP3 POP SWAP3 SWAP1 POP JUMP JUMPDEST PUSH0 PUSH4 0xFFFFFFFF DUP3 AND SWAP1 POP SWAP2 SWAP1 POP JUMP JUMPDEST PUSH2 0x48BD DUP2 PUSH2 0x48A5 JUMP JUMPDEST DUP3 MSTORE POP POP JUMP JUMPDEST PUSH0 PUSH1 0x40 DUP3 ADD SWAP1 POP PUSH2 0x48D6 PUSH0 DUP4 ADD DUP6 PUSH2 0x48B4 JUMP JUMPDEST PUSH2 0x48E3 PUSH1 0x20 DUP4 ADD DUP5 PUSH2 0x48B4 JUMP JUMPDEST SWAP4 SWAP3 POP POP POP JUMP JUMPDEST PUSH0 PUSH1 0xC0 DUP3 ADD SWAP1 POP PUSH2 0x48FD PUSH0 DUP4 ADD DUP10 PUSH2 0x41DA JUMP JUMPDEST PUSH2 0x490A PUSH1 0x20 DUP4 ADD DUP9 PUSH2 0x48B4 JUMP JUMPDEST PUSH2 0x4917 PUSH1 0x40 DUP4 ADD DUP8 PUSH2 0x4154 JUMP JUMPDEST PUSH2 0x4924 PUSH1 0x60 DUP4 ADD DUP7 PUSH2 0x4154 JUMP JUMPDEST PUSH2 0x4931 PUSH1 0x80 DUP4 ADD DUP6 PUSH2 0x4154 JUMP JUMPDEST PUSH2 0x493E PUSH1 0xA0 DUP4 ADD DUP5 PUSH2 0x4154 JUMP JUMPDEST SWAP8 SWAP7 POP POP POP POP POP POP POP JUMP JUMPDEST PUSH0 DUP1 PUSH0 PUSH1 0x60 DUP5 DUP7 SUB SLT ISZERO PUSH2 0x4960 JUMPI PUSH2 0x495F PUSH2 0x40C1 JUMP JUMPDEST JUMPDEST PUSH0 PUSH2 0x496D DUP7 DUP3 DUP8 ADD PUSH2 0x419B JUMP JUMPDEST SWAP4 POP POP PUSH1 0x20 PUSH2 0x497E DUP7 DUP3 DUP8 ADD PUSH2 0x419B JUMP JUMPDEST SWAP3 POP POP PUSH1 0x40 PUSH2 0x498F DUP7 DUP3 DUP8 ADD PUSH2 0x419B JUMP JUMPDEST SWAP2 POP POP SWAP3 POP SWAP3 POP SWAP3 JUMP JUMPDEST PUSH0 DUP1 PUSH0 DUP1 PUSH0 PUSH1 0xA0 DUP7 DUP9 SUB SLT ISZERO PUSH2 0x49B2 JUMPI PUSH2 0x49B1 PUSH2 0x40C1 JUMP JUMPDEST JUMPDEST PUSH0 PUSH2 0x49BF DUP9 DUP3 DUP10 ADD PUSH2 0x4339 JUMP JUMPDEST SWAP6 POP POP PUSH1 0x20 PUSH2 0x49D0 DUP9 DUP3 DUP10 ADD PUSH2 0x4339 JUMP JUMPDEST SWAP5 POP POP PUSH1 0x40 PUSH2 0x49E1 DUP9 DUP3 DUP10 ADD PUSH2 0x419B JUMP JUMPDEST SWAP4 POP POP PUSH1 0x60 PUSH2 0x49F2 DUP9 DUP3 DUP10 ADD PUSH2 0x419B JUMP JUMPDEST SWAP3 POP POP PUSH1 0x80 DUP7 ADD CALLDATALOAD PUSH8 0xFFFFFFFFFFFFFFFF DUP2 GT ISZERO PUSH2 0x4A13 JUMPI PUSH2 0x4A12 PUSH2 0x40C5 JUMP JUMPDEST JUMPDEST PUSH2 0x4A1F DUP9 DUP3 DUP10 ADD PUSH2 0x4704 JUMP JUMPDEST SWAP2 POP POP SWAP3 SWAP6 POP SWAP3 SWAP6 SWAP1 SWAP4 POP JUMP JUMPDEST PUSH0 DUP1 PUSH1 0x40 DUP4 DUP6 SUB SLT ISZERO PUSH2 0x4A42 JUMPI PUSH2 0x4A41 PUSH2 0x40C1 JUMP JUMPDEST JUMPDEST PUSH0 PUSH2 0x4A4F DUP6 DUP3 DUP7 ADD PUSH2 0x419B JUMP JUMPDEST SWAP3 POP POP PUSH1 0x20 PUSH2 0x4A60 DUP6 DUP3 DUP7 ADD PUSH2 0x44CD JUMP JUMPDEST SWAP2 POP POP SWAP3 POP SWAP3 SWAP1 POP JUMP JUMPDEST PUSH32 0x4E487B7100000000000000000000000000000000000000000000000000000000 PUSH0 MSTORE PUSH1 0x11 PUSH1 0x4 MSTORE PUSH1 0x24 PUSH0 REVERT JUMPDEST PUSH0 PUSH2 0x4AA1 DUP3 PUSH2 0x417C JUMP JUMPDEST SWAP2 POP PUSH2 0x4AAC DUP4 PUSH2 0x417C JUMP JUMPDEST SWAP3 POP DUP3 DUP3 MUL PUSH2 0x4ABA DUP2 PUSH2 0x417C JUMP JUMPDEST SWAP2 POP DUP3 DUP3 DIV DUP5 EQ DUP4 ISZERO OR PUSH2 0x4AD1 JUMPI PUSH2 0x4AD0 PUSH2 0x4A6A JUMP JUMPDEST JUMPDEST POP SWAP3 SWAP2 POP POP JUMP JUMPDEST PUSH0 PUSH1 0x60 DUP3 ADD SWAP1 POP PUSH2 0x4AEB PUSH0 DUP4 ADD DUP7 PUSH2 0x43ED JUMP JUMPDEST PUSH2 0x4AF8 PUSH1 0x20 DUP4 ADD DUP6 PUSH2 0x41DA JUMP JUMPDEST PUSH2 0x4B05 PUSH1 0x40 DUP4 ADD DUP5 PUSH2 0x41DA JUMP JUMPDEST SWAP5 SWAP4 POP POP POP POP JUMP JUMPDEST PUSH0 DUP3 DUP3 MSTORE PUSH1 0x20 DUP3 ADD SWAP1 POP SWAP3 SWAP2 POP POP JUMP JUMPDEST POP JUMP JUMPDEST PUSH0 PUSH2 0x4B2B PUSH0 DUP4 PUSH2 0x4B0D JUMP JUMPDEST SWAP2 POP PUSH2 0x4B36 DUP3 PUSH2 0x4B1D JUMP JUMPDEST PUSH0 DUP3 ADD SWAP1 POP SWAP2 SWAP1 POP JUMP JUMPDEST PUSH0 PUSH1 0x80 DUP3 ADD SWAP1 POP PUSH2 0x4B53 PUSH0 DUP4 ADD DUP7 PUSH2 0x43ED JUMP JUMPDEST PUSH2 0x4B60 PUSH1 0x20 DUP4 ADD DUP6 PUSH2 0x41DA JUMP JUMPDEST PUSH2 0x4B6D PUSH1 0x40 DUP4 ADD DUP5 PUSH2 0x41DA JUMP JUMPDEST DUP2 DUP2 SUB PUSH1 0x60 DUP4 ADD MSTORE PUSH2 0x4B7E DUP2 PUSH2 0x4B20 JUMP JUMPDEST SWAP1 POP SWAP5 SWAP4 POP POP POP POP JUMP JUMPDEST PUSH0 PUSH1 0xA0 DUP3 ADD SWAP1 POP PUSH2 0x4B9B PUSH0 DUP4 ADD DUP8 PUSH2 0x43ED JUMP JUMPDEST PUSH2 0x4BA8 PUSH1 0x20 DUP4 ADD DUP7 PUSH2 0x43ED JUMP JUMPDEST PUSH2 0x4BB5 PUSH1 0x40 DUP4 ADD DUP6 PUSH2 0x41DA JUMP JUMPDEST PUSH2 0x4BC2 PUSH1 0x60 DUP4 ADD DUP5 PUSH2 0x41DA JUMP JUMPDEST DUP2 DUP2 SUB PUSH1 0x80 DUP4 ADD MSTORE PUSH2 0x4BD3 DUP2 PUSH2 0x4B20 JUMP JUMPDEST SWAP1 POP SWAP6 SWAP5 POP POP POP POP POP JUMP JUMPDEST PUSH32 0x4E487B7100000000000000000000000000000000000000000000000000000000 PUSH0 MSTORE PUSH1 0x12 PUSH1 0x4 MSTORE PUSH1 0x24 PUSH0 REVERT JUMPDEST PUSH0 PUSH2 0x4C15 DUP3 PUSH2 0x417C JUMP JUMPDEST SWAP2 POP PUSH2 0x4C20 DUP4 PUSH2 0x417C JUMP JUMPDEST SWAP3 POP DUP3 PUSH2 0x4C30 JUMPI PUSH2 0x4C2F PUSH2 0x4BDE JUMP JUMPDEST JUMPDEST DUP3 DUP3 DIV SWAP1 POP SWAP3 SWAP2 POP POP JUMP JUMPDEST PUSH0 DUP2 PUSH1 0x1 SHR SWAP1 POP SWAP2 SWAP1 POP JUMP JUMPDEST PUSH0 DUP1 DUP3 SWAP2 POP DUP4 SWAP1 POP JUMPDEST PUSH1 0x1 DUP6 GT ISZERO PUSH2 0x4C90 JUMPI DUP1 DUP7 DIV DUP2 GT ISZERO PUSH2 0x4C6C JUMPI PUSH2 0x4C6B PUSH2 0x4A6A JUMP JUMPDEST JUMPDEST PUSH1 0x1 DUP6 AND ISZERO PUSH2 0x4C7B JUMPI DUP1 DUP3 MUL SWAP2 POP JUMPDEST DUP1 DUP2 MUL SWAP1 POP PUSH2 0x4C89 DUP6 PUSH2 0x4C3B JUMP JUMPDEST SWAP5 POP PUSH2 0x4C50 JUMP JUMPDEST SWAP5 POP SWAP5 SWAP3 POP POP POP JUMP JUMPDEST PUSH0 DUP3 PUSH2 0x4CA8 JUMPI PUSH1 0x1 SWAP1 POP PUSH2 0x4D63 JUMP JUMPDEST DUP2 PUSH2 0x4CB5 JUMPI PUSH0 SWAP1 POP PUSH2 0x4D63 JUMP JUMPDEST DUP2 PUSH1 0x1 DUP2 EQ PUSH2 0x4CCB JUMPI PUSH1 0x2 DUP2 EQ PUSH2 0x4CD5 JUMPI PUSH2 0x4D04 JUMP JUMPDEST PUSH1 0x1 SWAP2 POP POP PUSH2 0x4D63 JUMP JUMPDEST PUSH1 0xFF DUP5 GT ISZERO PUSH2 0x4CE7 JUMPI PUSH2 0x4CE6 PUSH2 0x4A6A JUMP JUMPDEST JUMPDEST DUP4 PUSH1 0x2 EXP SWAP2 POP DUP5 DUP3 GT ISZERO PUSH2 0x4CFE JUMPI PUSH2 0x4CFD PUSH2 0x4A6A JUMP JUMPDEST JUMPDEST POP PUSH2 0x4D63 JUMP JUMPDEST POP PUSH1 0x20 DUP4 LT PUSH2 0x133 DUP4 LT AND PUSH1 0x4E DUP5 LT PUSH1 0xB DUP5 LT AND OR ISZERO PUSH2 0x4D39 JUMPI DUP3 DUP3 EXP SWAP1 POP DUP4 DUP2 GT ISZERO PUSH2 0x4D34 JUMPI PUSH2 0x4D33 PUSH2 0x4A6A JUMP JUMPDEST JUMPDEST PUSH2 0x4D63 JUMP JUMPDEST PUSH2 0x4D46 DUP5 DUP5 DUP5 PUSH1 0x1 PUSH2 0x4C47 JUMP JUMPDEST SWAP3 POP SWAP1 POP DUP2 DUP5 DIV DUP2 GT ISZERO PUSH2 0x4D5D JUMPI PUSH2 0x4D5C PUSH2 0x4A6A JUMP JUMPDEST JUMPDEST DUP2 DUP2 MUL SWAP1 POP JUMPDEST SWAP4 SWAP3 POP POP POP JUMP JUMPDEST PUSH0 PUSH2 0x4D74 DUP3 PUSH2 0x417C JUMP JUMPDEST SWAP2 POP PUSH2 0x4D7F DUP4 PUSH2 0x417C JUMP JUMPDEST SWAP3 POP PUSH2 0x4DAC PUSH32 0xFFFFFFFFFFFFFFFFFFFFFFFFFFFFFFFFFFFFFFFFFFFFFFFFFFFFFFFFFFFFFFFF DUP5 DUP5 PUSH2 0x4C99 JUMP JUMPDEST SWAP1 POP SWAP3 SWAP2 POP POP JUMP JUMPDEST PUSH32 0x4E487B7100000000000000000000000000000000000000000000000000000000 PUSH0 MSTORE PUSH1 0x32 PUSH1 0x4 MSTORE PUSH1 0x24 PUSH0 REVERT JUMPDEST PUSH0 PUSH2 0x4DEB DUP3 PUSH2 0x417C JUMP JUMPDEST SWAP2 POP PUSH2 0x4DF6 DUP4 PUSH2 0x417C JUMP JUMPDEST SWAP3 POP DUP3 DUP3 ADD SWAP1 POP DUP1 DUP3 GT ISZERO PUSH2 0x4E0E JUMPI PUSH2 0x4E0D PUSH2 0x4A6A JUMP JUMPDEST JUMPDEST SWAP3 SWAP2 POP POP JUMP JUMPDEST PUSH0 PUSH2 0x4E1E DUP3 PUSH2 0x417C JUMP JUMPDEST SWAP2 POP PUSH32 0xFFFFFFFFFFFFFFFFFFFFFFFFFFFFFFFFFFFFFFFFFFFFFFFFFFFFFFFFFFFFFFFF DUP3 SUB PUSH2 0x4E50 JUMPI PUSH2 0x4E4F PUSH2 0x4A6A JUMP JUMPDEST JUMPDEST PUSH1 0x1 DUP3 ADD SWAP1 POP SWAP2 SWAP1 POP JUMP JUMPDEST PUSH0 PUSH2 0x4E65 DUP3 PUSH2 0x417C JUMP JUMPDEST SWAP2 POP PUSH2 0x4E70 DUP4 PUSH2 0x417C JUMP JUMPDEST SWAP3 POP DUP3 DUP3 SUB SWAP1 POP DUP2 DUP2 GT ISZERO PUSH2 0x4E88 JUMPI PUSH2 0x4E87 PUSH2 0x4A6A JUMP JUMPDEST JUMPDEST SWAP3 SWAP2 POP POP JUMP JUMPDEST PUSH0 DUP2 SWAP1 POP SWAP2 SWAP1 POP JUMP JUMPDEST PUSH0 PUSH2 0x4EB1 PUSH2 0x4EAC PUSH2 0x4EA7 DUP5 PUSH2 0x4E8E JUMP JUMPDEST PUSH2 0x444A JUMP JUMPDEST PUSH2 0x417C JUMP JUMPDEST SWAP1 POP SWAP2 SWAP1 POP JUMP JUMPDEST PUSH2 0x4EC1 DUP2 PUSH2 0x4E97 JUMP JUMPDEST DUP3 MSTORE POP POP JUMP JUMPDEST PUSH0 PUSH1 0x80 DUP3 ADD SWAP1 POP PUSH2 0x4EDA PUSH0 DUP4 ADD DUP7 PUSH2 0x43ED JUMP JUMPDEST PUSH2 0x4EE7 PUSH1 0x20 DUP4 ADD DUP6 PUSH2 0x41DA JUMP JUMPDEST PUSH2 0x4EF4 PUSH1 0x40 DUP4 ADD DUP5 PUSH2 0x4EB8 JUMP JUMPDEST DUP2 DUP2 SUB PUSH1 0x60 DUP4 ADD MSTORE PUSH2 0x4F05 DUP2 PUSH2 0x4B20 JUMP JUMPDEST SWAP1 POP SWAP5 SWAP4 POP POP POP POP JUMP JUMPDEST PUSH0 PUSH2 0x4F19 DUP3 PUSH2 0x434D JUMP JUMPDEST SWAP2 POP PUSH2 0x4F24 DUP4 PUSH2 0x434D JUMP JUMPDEST SWAP3 POP DUP3 PUSH2 0x4F34 JUMPI PUSH2 0x4F33 PUSH2 0x4BDE JUMP JUMPDEST JUMPDEST DUP3 DUP3 MOD SWAP1 POP SWAP3 SWAP2 POP POP JUMP JUMPDEST PUSH0 DUP2 MLOAD SWAP1 POP SWAP2 SWAP1 POP JUMP JUMPDEST PUSH0 DUP3 DUP3 MSTORE PUSH1 0x20 DUP3 ADD SWAP1 POP SWAP3 SWAP2 POP POP JUMP JUMPDEST PUSH0 DUP2 SWAP1 POP PUSH1 0x20 DUP3 ADD SWAP1 POP SWAP2 SWAP1 POP JUMP JUMPDEST PUSH2 0x4F71 DUP2 PUSH2 0x417C JUMP JUMPDEST DUP3 MSTORE POP POP JUMP JUMPDEST PUSH0 PUSH2 0x4F82 DUP4 DUP4 PUSH2 0x4F68 JUMP JUMPDEST PUSH1 0x20 DUP4 ADD SWAP1 POP SWAP3 SWAP2 POP POP JUMP JUMPDEST PUSH0 PUSH1 0x20 DUP3 ADD SWAP1 POP SWAP2 SWAP1 POP JUMP JUMPDEST PUSH0 PUSH2 0x4FA4 DUP3 PUSH2 0x4F3F JUMP JUMPDEST PUSH2 0x4FAE DUP2 DUP6 PUSH2 0x4F49 JUMP JUMPDEST SWAP4 POP PUSH2 0x4FB9 DUP4 PUSH2 0x4F59 JUMP JUMPDEST DUP1 PUSH0 JUMPDEST DUP4 DUP2 LT ISZERO PUSH2 0x4FE9 JUMPI DUP2 MLOAD PUSH2 0x4FD0 DUP9 DUP3 PUSH2 0x4F77 JUMP JUMPDEST SWAP8 POP PUSH2 0x4FDB DUP4 PUSH2 0x4F8E JUMP JUMPDEST SWAP3 POP POP PUSH1 0x1 DUP2 ADD SWAP1 POP PUSH2 0x4FBC JUMP JUMPDEST POP DUP6 SWAP4 POP POP POP POP SWAP3 SWAP2 POP POP JUMP JUMPDEST PUSH0 PUSH1 0x80 DUP3 ADD SWAP1 POP PUSH2 0x5009 PUSH0 DUP4 ADD DUP7 PUSH2 0x43ED JUMP JUMPDEST DUP2 DUP2 SUB PUSH1 0x20 DUP4 ADD MSTORE PUSH2 0x501B DUP2 DUP6 PUSH2 0x4F9A JUMP JUMPDEST SWAP1 POP DUP2 DUP2 SUB PUSH1 0x40 DUP4 ADD MSTORE PUSH2 0x502F DUP2 DUP5 PUSH2 0x4F9A JUMP JUMPDEST SWAP1 POP DUP2 DUP2 SUB PUSH1 0x60 DUP4 ADD MSTORE PUSH2 0x5042 DUP2 PUSH2 0x4B20 JUMP JUMPDEST SWAP1 POP SWAP5 SWAP4 POP POP POP POP JUMP JUMPDEST PUSH0 DUP2 SWAP1 POP SWAP2 SWAP1 POP JUMP JUMPDEST PUSH0 PUSH2 0x506F PUSH2 0x506A PUSH2 0x5065 DUP5 PUSH2 0x504C JUMP JUMPDEST PUSH2 0x444A JUMP JUMPDEST PUSH2 0x417C JUMP JUMPDEST SWAP1 POP SWAP2 SWAP1 POP JUMP JUMPDEST PUSH2 0x507F DUP2 PUSH2 0x5055 JUMP JUMPDEST DUP3 MSTORE POP POP JUMP JUMPDEST PUSH0 PUSH1 0x60 DUP3 ADD SWAP1 POP PUSH2 0x5098 PUSH0 DUP4 ADD DUP7 PUSH2 0x43ED JUMP JUMPDEST PUSH2 0x50A5 PUSH1 0x20 DUP4 ADD DUP6 PUSH2 0x41DA JUMP JUMPDEST PUSH2 0x50B2 PUSH1 0x40 DUP4 ADD DUP5 PUSH2 0x5076 JUMP JUMPDEST SWAP5 SWAP4 POP POP POP POP JUMP JUMPDEST PUSH0 DUP2 SWAP1 POP SWAP2 SWAP1 POP JUMP JUMPDEST PUSH0 PUSH2 0x50DD PUSH2 0x50D8 PUSH2 0x50D3 DUP5 PUSH2 0x50BA JUMP JUMPDEST PUSH2 0x444A JUMP JUMPDEST PUSH2 0x417C JUMP JUMPDEST SWAP1 POP SWAP2 SWAP1 POP JUMP JUMPDEST PUSH2 0x50ED DUP2 PUSH2 0x50C3 JUMP JUMPDEST DUP3 MSTORE POP POP JUMP JUMPDEST PUSH0 PUSH1 0x80 DUP3 ADD SWAP1 POP PUSH2 0x5106 PUSH0 DUP4 ADD DUP7 PUSH2 0x43ED JUMP JUMPDEST PUSH2 0x5113 PUSH1 0x20 DUP4 ADD DUP6 PUSH2 0x41DA JUMP JUMPDEST PUSH2 0x5120 PUSH1 0x40 DUP4 ADD DUP5 PUSH2 0x50E4 JUMP JUMPDEST DUP2 DUP2 SUB PUSH1 0x60 DUP4 ADD MSTORE PUSH2 0x5131 DUP2 PUSH2 0x4B20 JUMP JUMPDEST SWAP1 POP SWAP5 SWAP4 POP POP POP POP JUMP JUMPDEST PUSH0 PUSH2 0x5145 DUP3 PUSH2 0x48A5 JUMP JUMPDEST SWAP2 POP PUSH2 0x5150 DUP4 PUSH2 0x48A5 JUMP JUMPDEST SWAP3 POP DUP3 DUP3 ADD SWAP1 POP PUSH4 0xFFFFFFFF DUP2 GT ISZERO PUSH2 0x516C JUMPI PUSH2 0x516B PUSH2 0x4A6A JUMP JUMPDEST JUMPDEST SWAP3 SWAP2 POP POP JUMP JUMPDEST PUSH0 PUSH2 0x517C DUP3 PUSH2 0x48A5 JUMP JUMPDEST SWAP2 POP PUSH2 0x5187 DUP4 PUSH2 0x48A5 JUMP JUMPDEST SWAP3 POP DUP3 DUP3 SUB SWAP1 POP PUSH4 0xFFFFFFFF DUP2 GT ISZERO PUSH2 0x51A3 JUMPI PUSH2 0x51A2 PUSH2 0x4A6A JUMP JUMPDEST JUMPDEST SWAP3 SWAP2 POP POP JUMP JUMPDEST PUSH0 PUSH1 0x40 DUP3 ADD SWAP1 POP PUSH2 0x51BC PUSH0 DUP4 ADD DUP6 PUSH2 0x43ED JUMP JUMPDEST PUSH2 0x51C9 PUSH1 0x20 DUP4 ADD DUP5 PUSH2 0x41DA JUMP JUMPDEST SWAP4 SWAP3 POP POP POP JUMP JUMPDEST PUSH0 DUP2 MLOAD SWAP1 POP PUSH2 0x51DE DUP2 PUSH2 0x4185 JUMP JUMPDEST SWAP3 SWAP2 POP POP JUMP JUMPDEST PUSH0 PUSH1 0x20 DUP3 DUP5 SUB SLT ISZERO PUSH2 0x51F9 JUMPI PUSH2 0x51F8 PUSH2 0x40C1 JUMP JUMPDEST JUMPDEST PUSH0 PUSH2 0x5206 DUP5 DUP3 DUP6 ADD PUSH2 0x51D0 JUMP JUMPDEST SWAP2 POP POP SWAP3 SWAP2 POP POP JUMP JUMPDEST PUSH0 DUP3 DUP3 MSTORE PUSH1 0x20 DUP3 ADD SWAP1 POP SWAP3 SWAP2 POP POP JUMP JUMPDEST PUSH32 0x556E62616C616E636564204C69717569646974792050726F7669646564000000 PUSH0 DUP3 ADD MSTORE POP JUMP JUMPDEST PUSH0 PUSH2 0x5253 PUSH1 0x1D DUP4 PUSH2 0x520F JUMP JUMPDEST SWAP2 POP PUSH2 0x525E DUP3 PUSH2 0x521F JUMP JUMPDEST PUSH1 0x20 DUP3 ADD SWAP1 POP SWAP2 SWAP1 POP JUMP JUMPDEST PUSH0 PUSH1 0x20 DUP3 ADD SWAP1 POP DUP2 DUP2 SUB PUSH0 DUP4 ADD MSTORE PUSH2 0x5280 DUP2 PUSH2 0x5247 JUMP JUMPDEST SWAP1 POP SWAP2 SWAP1 POP JUMP JUMPDEST PUSH32 0x4E6F206C697175696469747920736861726573206D696E7465642E0000000000 PUSH0 DUP3 ADD MSTORE POP JUMP JUMPDEST PUSH0 PUSH2 0x52BB PUSH1 0x1B DUP4 PUSH2 0x520F JUMP JUMPDEST SWAP2 POP PUSH2 0x52C6 DUP3 PUSH2 0x5287 JUMP JUMPDEST PUSH1 0x20 DUP3 ADD SWAP1 POP SWAP2 SWAP1 POP JUMP JUMPDEST PUSH0 PUSH1 0x20 DUP3 ADD SWAP1 POP DUP2 DUP2 SUB PUSH0 DUP4 ADD MSTORE PUSH2 0x52E8 DUP2 PUSH2 0x52AF JUMP JUMPDEST SWAP1 POP SWAP2 SWAP1 POP JUMP JUMPDEST PUSH0 DUP2 SWAP1 POP SWAP2 SWAP1 POP JUMP JUMPDEST PUSH0 PUSH2 0x5312 PUSH2 0x530D PUSH2 0x5308 DUP5 PUSH2 0x52EF JUMP JUMPDEST PUSH2 0x444A JUMP JUMPDEST PUSH2 0x417C JUMP JUMPDEST SWAP1 POP SWAP2 SWAP1 POP JUMP JUMPDEST PUSH2 0x5322 DUP2 PUSH2 0x52F8 JUMP JUMPDEST DUP3 MSTORE POP POP JUMP JUMPDEST PUSH0 DUP2 SWAP1 POP SWAP2 SWAP1 POP JUMP JUMPDEST PUSH0 PUSH2 0x534B PUSH2 0x5346 PUSH2 0x5341 DUP5 PUSH2 0x5328 JUMP JUMPDEST PUSH2 0x444A JUMP JUMPDEST PUSH2 0x417C JUMP JUMPDEST SWAP1 POP SWAP2 SWAP1 POP JUMP JUMPDEST PUSH2 0x535B DUP2 PUSH2 0x5331 JUMP JUMPDEST DUP3 MSTORE POP POP JUMP JUMPDEST PUSH0 PUSH1 0x80 DUP3 ADD SWAP1 POP PUSH2 0x5374 PUSH0 DUP4 ADD DUP7 PUSH2 0x43ED JUMP JUMPDEST PUSH2 0x5381 PUSH1 0x20 DUP4 ADD DUP6 PUSH2 0x5319 JUMP JUMPDEST PUSH2 0x538E PUSH1 0x40 DUP4 ADD DUP5 PUSH2 0x5352 JUMP JUMPDEST DUP2 DUP2 SUB PUSH1 0x60 DUP4 ADD MSTORE PUSH2 0x539F DUP2 PUSH2 0x4B20 JUMP JUMPDEST SWAP1 POP SWAP5 SWAP4 POP POP POP POP JUMP JUMPDEST PUSH0 PUSH1 0x80 DUP3 ADD SWAP1 POP PUSH2 0x53BC PUSH0 DUP4 ADD DUP7 PUSH2 0x43ED JUMP JUMPDEST PUSH2 0x53C9 PUSH1 0x20 DUP4 ADD DUP6 PUSH2 0x50E4 JUMP JUMPDEST PUSH2 0x53D6 PUSH1 0x40 DUP4 ADD DUP5 PUSH2 0x41DA JUMP JUMPDEST DUP2 DUP2 SUB PUSH1 0x60 DUP4 ADD MSTORE PUSH2 0x53E7 DUP2 PUSH2 0x4B20 JUMP JUMPDEST SWAP1 POP SWAP5 SWAP4 POP POP POP POP JUMP JUMPDEST PUSH0 DUP2 SWAP1 POP SWAP2 SWAP1 POP JUMP JUMPDEST PUSH0 PUSH2 0x5414 PUSH2 0x540F PUSH2 0x540A DUP5 PUSH2 0x53F1 JUMP JUMPDEST PUSH2 0x444A JUMP JUMPDEST PUSH2 0x417C JUMP JUMPDEST SWAP1 POP SWAP2 SWAP1 POP JUMP JUMPDEST PUSH2 0x5424 DUP2 PUSH2 0x53FA JUMP JUMPDEST DUP3 MSTORE POP POP JUMP JUMPDEST PUSH0 PUSH1 0x80 DUP3 ADD SWAP1 POP PUSH2 0x543D PUSH0 DUP4 ADD DUP7 PUSH2 0x43ED JUMP JUMPDEST PUSH2 0x544A PUSH1 0x20 DUP4 ADD DUP6 PUSH2 0x541B JUMP JUMPDEST PUSH2 0x5457 PUSH1 0x40 DUP4 ADD DUP5 PUSH2 0x41DA JUMP JUMPDEST DUP2 DUP2 SUB PUSH1 0x60 DUP4 ADD MSTORE PUSH2 0x5468 DUP2 PUSH2 0x4B20 JUMP JUMPDEST SWAP1 POP SWAP5 SWAP4 POP POP POP POP JUMP JUMPDEST PUSH0 PUSH1 0x80 DUP3 ADD SWAP1 POP PUSH2 0x5485 PUSH0 DUP4 ADD DUP7 PUSH2 0x43ED JUMP JUMPDEST PUSH2 0x5492 PUSH1 0x20 DUP4 ADD DUP6 PUSH2 0x5076 JUMP JUMPDEST PUSH2 0x549F PUSH1 0x40 DUP4 ADD DUP5 PUSH2 0x41DA JUMP JUMPDEST DUP2 DUP2 SUB PUSH1 0x60 DUP4 ADD MSTORE PUSH2 0x54B0 DUP2 PUSH2 0x4B20 JUMP JUMPDEST SWAP1 POP SWAP5 SWAP4 POP POP POP POP JUMP JUMPDEST PUSH0 PUSH1 0x60 DUP3 ADD SWAP1 POP PUSH2 0x54CD PUSH0 DUP4 ADD DUP7 PUSH2 0x43ED JUMP JUMPDEST PUSH2 0x54DA PUSH1 0x20 DUP4 ADD DUP6 PUSH2 0x41DA JUMP JUMPDEST PUSH2 0x54E7 PUSH1 0x40 DUP4 ADD DUP5 PUSH2 0x50E4 JUMP JUMPDEST SWAP5 SWAP4 POP POP POP POP JUMP JUMPDEST PUSH0 PUSH2 0x54F9 DUP3 PUSH2 0x48A5 JUMP JUMPDEST SWAP2 POP PUSH2 0x5504 DUP4 PUSH2 0x48A5 JUMP JUMPDEST SWAP3 POP DUP3 DUP3 MUL PUSH2 0x5512 DUP2 PUSH2 0x48A5 JUMP JUMPDEST SWAP2 POP DUP1 DUP3 EQ PUSH2 0x5524 JUMPI PUSH2 0x5523 PUSH2 0x4A6A JUMP JUMPDEST JUMPDEST POP SWAP3 SWAP2 POP POP JUMP JUMPDEST PUSH0 PUSH1 0x80 DUP3 ADD SWAP1 POP PUSH2 0x553E PUSH0 DUP4 ADD DUP8 PUSH2 0x41DA JUMP JUMPDEST PUSH2 0x554B PUSH1 0x20 DUP4 ADD DUP7 PUSH2 0x41DA JUMP JUMPDEST PUSH2 0x5558 PUSH1 0x40 DUP4 ADD DUP6 PUSH2 0x41DA JUMP JUMPDEST PUSH2 0x5565 PUSH1 0x60 DUP4 ADD DUP5 PUSH2 0x41DA JUMP JUMPDEST SWAP6 SWAP5 POP POP POP POP POP JUMP JUMPDEST PUSH0 PUSH2 0x5578 DUP3 PUSH2 0x417C JUMP JUMPDEST SWAP2 POP PUSH2 0x5583 DUP4 PUSH2 0x417C JUMP JUMPDEST SWAP3 POP DUP3 PUSH2 0x5593 JUMPI PUSH2 0x5592 PUSH2 0x4BDE JUMP JUMPDEST JUMPDEST DUP3 DUP3 MOD SWAP1 POP SWAP3 SWAP2 POP POP JUMP JUMPDEST PUSH0 PUSH1 0x60 DUP3 ADD SWAP1 POP PUSH2 0x55B1 PUSH0 DUP4 ADD DUP7 PUSH2 0x41DA JUMP JUMPDEST PUSH2 0x55BE PUSH1 0x20 DUP4 ADD DUP6 PUSH2 0x41DA JUMP JUMPDEST PUSH2 0x55CB PUSH1 0x40 DUP4 ADD DUP5 PUSH2 0x43ED JUMP JUMPDEST SWAP5 SWAP4 POP POP POP POP JUMP JUMPDEST PUSH32 0x4E6F20736B696E7320696E20746865206C697374207965742E00000000000000 PUSH0 DUP3 ADD MSTORE POP JUMP JUMPDEST PUSH0 PUSH2 0x5607 PUSH1 0x19 DUP4 PUSH2 0x520F JUMP JUMPDEST SWAP2 POP PUSH2 0x5612 DUP3 PUSH2 0x55D3 JUMP JUMPDEST PUSH1 0x20 DUP3 ADD SWAP1 POP SWAP2 SWAP1 POP JUMP JUMPDEST PUSH0 PUSH1 0x20 DUP3 ADD SWAP1 POP DUP2 DUP2 SUB PUSH0 DUP4 ADD MSTORE PUSH2 0x5634 DUP2 PUSH2 0x55FB JUMP JUMPDEST SWAP1 POP SWAP2 SWAP1 POP JUMP INVALID LOG2 PUSH5 0x6970667358 0x22 SLT KECCAK256 SWAP11 0xCA SUB PUSH3 0x5297B0 0xEC PUSH16 0x9055BF2097C559D6C3CCB9945DA1934F 0xFB PUSH5 0x231DDB6003 PUSH5 0x736F6C6343 STOP ADDMOD EQ STOP CALLER "
		},
		"gasEstimates": {
			"creation": {
				"codeDepositCost": "4425800",
				"executionCost": "infinite",
				"totalCost": "infinite"
			},
			"external": {
				"addChest(uint256)": "infinite",
				"addLiquidity(uint256,uint256)": "infinite",
				"addPlayer(address)": "infinite",
				"addSkin(uint256,uint8)": "infinite",
				"addSkinToChest(uint256,uint256)": "infinite",
				"buyItem(uint256,uint256)": "infinite",
				"cancelItem(uint256)": "infinite",
				"chests(uint256,uint8,uint256)": "infinite",
				"claimAirdrops()": "infinite",
				"claimRewards()": "infinite",
				"claimStarterPack()": "infinite",
				"claimUnstaked(uint256)": "infinite",
				"craftShards(uint256,uint256)": "infinite",
				"disenchantSkins(uint256,uint256)": "infinite",
				"ecrRewards()": "infinite",
				"firstDailyWin(address)": "infinite",
				"fuseShards(uint256)": "infinite",
				"game()": "infinite",
				"giveRewards()": "infinite",
				"items(uint256)": "infinite",
				"levelUp(address,uint16)": "infinite",
				"liquidity()": "infinite",
				"listItem(uint256,uint256,uint256)": "infinite",
				"onERC1155BatchReceived(address,address,uint256[],uint256[],bytes)": "infinite",
				"onERC1155Received(address,address,uint256,uint256,bytes)": "infinite",
				"owner()": "2582",
				"playerStakes(address,uint256)": "infinite",
				"players(address)": "infinite",
				"removeLiquidity(uint256)": "infinite",
				"renounceOwnership()": "infinite",
				"skinShards(uint256)": "infinite",
				"skins(uint256)": "3008",
				"somTokens()": "infinite",
				"stake(uint256,uint256)": "infinite",
				"supportsInterface(bytes4)": "764",
				"swap(uint256,uint256)": "infinite",
				"totalStakes(uint256)": "infinite",
				"transferOwnership(address)": "infinite",
				"unlockChest(uint256)": "infinite",
				"unstake(uint256,uint256)": "infinite",
				"unwrap(uint256)": "infinite",
				"wrap()": "infinite"
			},
			"internal": {
				"_randomSkin(uint256)": "infinite",
				"_rng(uint256)": "infinite"
			}
		},
		"methodIdentifiers": {
			"addChest(uint256)": "3d35453b",
			"addLiquidity(uint256,uint256)": "9cd441da",
			"addPlayer(address)": "b1275f9a",
			"addSkin(uint256,uint8)": "feed7c3b",
			"addSkinToChest(uint256,uint256)": "d900f938",
			"buyItem(uint256,uint256)": "9979c009",
			"cancelItem(uint256)": "51563f8e",
			"chests(uint256,uint8,uint256)": "b9999efb",
			"claimAirdrops()": "bbf5ed70",
			"claimRewards()": "372500ab",
			"claimStarterPack()": "9cd51d25",
			"claimUnstaked(uint256)": "9af40f0c",
			"craftShards(uint256,uint256)": "24ed2a0f",
			"disenchantSkins(uint256,uint256)": "68362471",
			"ecrRewards()": "96fd171b",
			"firstDailyWin(address)": "7e75cb43",
			"fuseShards(uint256)": "72da0d81",
			"game()": "c3fe3e28",
			"giveRewards()": "5d26b838",
			"items(uint256)": "bfb231d2",
			"levelUp(address,uint16)": "5e7897e9",
			"liquidity()": "1a686502",
			"listItem(uint256,uint256,uint256)": "ec16b94a",
			"onERC1155BatchReceived(address,address,uint256[],uint256[],bytes)": "bc197c81",
			"onERC1155Received(address,address,uint256,uint256,bytes)": "f23a6e61",
			"owner()": "8da5cb5b",
			"playerStakes(address,uint256)": "c391ea40",
			"players(address)": "e2eb41ff",
			"removeLiquidity(uint256)": "9c8f9f23",
			"renounceOwnership()": "715018a6",
			"skinShards(uint256)": "15b4cbba",
			"skins(uint256)": "2db2ede5",
			"somTokens()": "b4a200cd",
			"stake(uint256,uint256)": "7b0472f0",
			"supportsInterface(bytes4)": "01ffc9a7",
			"swap(uint256,uint256)": "d96073cf",
			"totalStakes(uint256)": "40282252",
			"transferOwnership(address)": "f2fde38b",
			"unlockChest(uint256)": "b1411f97",
			"unstake(uint256,uint256)": "9e2c8a5b",
			"unwrap(uint256)": "de0e9a3e",
			"wrap()": "d46eb119"
		}
	},
	"abi": [
		{
			"inputs": [
				{
					"internalType": "address",
					"name": "dev",
					"type": "address"
				},
				{
					"internalType": "address",
					"name": "erc1155",
					"type": "address"
				},
				{
					"internalType": "address",
					"name": "initialOwner",
					"type": "address"
				}
			],
			"stateMutability": "nonpayable",
			"type": "constructor"
		},
		{
			"inputs": [],
			"name": "AlreadyClaimed",
			"type": "error"
		},
		{
			"inputs": [],
			"name": "IdDoesntExist",
			"type": "error"
		},
		{
			"inputs": [],
			"name": "IdExists",
			"type": "error"
		},
		{
			"inputs": [],
			"name": "IdInvalid",
			"type": "error"
		},
		{
			"inputs": [],
			"name": "IdNotEven",
			"type": "error"
		},
		{
			"inputs": [],
			"name": "InsufficientAmount",
			"type": "error"
		},
		{
			"inputs": [],
			"name": "InvalidAmount",
			"type": "error"
		},
		{
			"inputs": [],
			"name": "InvalidDecimals",
			"type": "error"
		},
		{
			"inputs": [],
			"name": "InvalidToken",
			"type": "error"
		},
		{
			"inputs": [],
			"name": "NegativeAmount",
			"type": "error"
		},
		{
			"inputs": [],
			"name": "NotVested",
			"type": "error"
		},
		{
			"inputs": [
				{
					"internalType": "address",
					"name": "owner",
					"type": "address"
				}
			],
			"name": "OwnableInvalidOwner",
			"type": "error"
		},
		{
			"inputs": [
				{
					"internalType": "address",
					"name": "account",
					"type": "address"
				}
			],
			"name": "OwnableUnauthorizedAccount",
			"type": "error"
		},
		{
			"anonymous": false,
			"inputs": [
				{
					"indexed": false,
					"internalType": "uint256",
					"name": "listingId",
					"type": "uint256"
				},
				{
					"indexed": false,
					"internalType": "uint256",
					"name": "amount",
					"type": "uint256"
				}
			],
			"name": "BuyItem",
			"type": "event"
		},
		{
			"anonymous": false,
			"inputs": [
				{
					"indexed": false,
					"internalType": "uint256",
					"name": "listingId",
					"type": "uint256"
				}
			],
			"name": "CancelItem",
			"type": "event"
		},
		{
			"anonymous": false,
			"inputs": [
				{
					"indexed": true,
					"internalType": "address",
					"name": "seller",
					"type": "address"
				},
				{
					"indexed": false,
					"internalType": "uint256",
					"name": "listingId",
					"type": "uint256"
				},
				{
					"indexed": false,
					"internalType": "uint256",
					"name": "skinId",
					"type": "uint256"
				},
				{
					"indexed": false,
					"internalType": "uint256",
					"name": "amount",
					"type": "uint256"
				},
				{
					"indexed": false,
					"internalType": "uint256",
					"name": "price",
					"type": "uint256"
				}
			],
			"name": "ListItem",
			"type": "event"
		},
		{
			"anonymous": false,
			"inputs": [
				{
					"indexed": true,
					"internalType": "address",
					"name": "previousOwner",
					"type": "address"
				},
				{
					"indexed": true,
					"internalType": "address",
					"name": "newOwner",
					"type": "address"
				}
			],
			"name": "OwnershipTransferred",
			"type": "event"
		},
		{
			"anonymous": false,
			"inputs": [
				{
					"indexed": true,
					"internalType": "address",
					"name": "account",
					"type": "address"
				},
				{
					"indexed": false,
					"internalType": "uint256",
					"name": "id",
					"type": "uint256"
				}
			],
			"name": "RandomSkin",
			"type": "event"
		},
		{
			"inputs": [
				{
					"internalType": "uint256",
					"name": "id",
					"type": "uint256"
				}
			],
			"name": "addChest",
			"outputs": [],
			"stateMutability": "nonpayable",
			"type": "function"
		},
		{
			"inputs": [
				{
					"internalType": "uint256",
					"name": "ecr",
					"type": "uint256"
				},
				{
					"internalType": "uint256",
					"name": "etlos",
					"type": "uint256"
				}
			],
			"name": "addLiquidity",
			"outputs": [],
			"stateMutability": "nonpayable",
			"type": "function"
		},
		{
			"inputs": [
				{
					"internalType": "address",
					"name": "account",
					"type": "address"
				}
			],
			"name": "addPlayer",
			"outputs": [],
			"stateMutability": "nonpayable",
			"type": "function"
		},
		{
			"inputs": [
				{
					"internalType": "uint256",
					"name": "id",
					"type": "uint256"
				},
				{
					"internalType": "enum SomGame.Rarity",
					"name": "rarity",
					"type": "uint8"
				}
			],
			"name": "addSkin",
			"outputs": [],
			"stateMutability": "nonpayable",
			"type": "function"
		},
		{
			"inputs": [
				{
					"internalType": "uint256",
					"name": "skinId",
					"type": "uint256"
				},
				{
					"internalType": "uint256",
					"name": "chestId",
					"type": "uint256"
				}
			],
			"name": "addSkinToChest",
			"outputs": [],
			"stateMutability": "nonpayable",
			"type": "function"
		},
		{
			"inputs": [
				{
					"internalType": "uint256",
					"name": "listingId",
					"type": "uint256"
				},
				{
					"internalType": "uint256",
					"name": "amount",
					"type": "uint256"
				}
			],
			"name": "buyItem",
			"outputs": [],
			"stateMutability": "nonpayable",
			"type": "function"
		},
		{
			"inputs": [
				{
					"internalType": "uint256",
					"name": "id",
					"type": "uint256"
				}
			],
			"name": "cancelItem",
			"outputs": [],
			"stateMutability": "nonpayable",
			"type": "function"
		},
		{
			"inputs": [
				{
					"internalType": "uint256",
					"name": "",
					"type": "uint256"
				},
				{
					"internalType": "enum SomGame.Rarity",
					"name": "",
					"type": "uint8"
				},
				{
					"internalType": "uint256",
					"name": "",
					"type": "uint256"
				}
			],
			"name": "chests",
			"outputs": [
				{
					"internalType": "uint256",
					"name": "",
					"type": "uint256"
				}
			],
			"stateMutability": "view",
			"type": "function"
		},
		{
			"inputs": [],
			"name": "claimAirdrops",
			"outputs": [],
			"stateMutability": "nonpayable",
			"type": "function"
		},
		{
			"inputs": [],
			"name": "claimRewards",
			"outputs": [],
			"stateMutability": "nonpayable",
			"type": "function"
		},
		{
			"inputs": [],
			"name": "claimStarterPack",
			"outputs": [],
			"stateMutability": "nonpayable",
			"type": "function"
		},
		{
			"inputs": [
				{
					"internalType": "uint256",
					"name": "id",
					"type": "uint256"
				}
			],
			"name": "claimUnstaked",
			"outputs": [],
			"stateMutability": "nonpayable",
			"type": "function"
		},
		{
			"inputs": [
				{
					"internalType": "uint256",
					"name": "shardId",
					"type": "uint256"
				},
				{
					"internalType": "uint256",
					"name": "amount",
					"type": "uint256"
				}
			],
			"name": "craftShards",
			"outputs": [],
			"stateMutability": "nonpayable",
			"type": "function"
		},
		{
			"inputs": [
				{
					"internalType": "uint256",
					"name": "skinId",
					"type": "uint256"
				},
				{
					"internalType": "uint256",
					"name": "amount",
					"type": "uint256"
				}
			],
			"name": "disenchantSkins",
			"outputs": [],
			"stateMutability": "nonpayable",
			"type": "function"
		},
		{
			"inputs": [],
			"name": "ecrRewards",
			"outputs": [
				{
					"internalType": "uint256",
					"name": "pool",
					"type": "uint256"
				},
				{
					"internalType": "uint256",
					"name": "issued",
					"type": "uint256"
				},
				{
					"internalType": "uint256",
					"name": "burned",
					"type": "uint256"
				}
			],
			"stateMutability": "view",
			"type": "function"
		},
		{
			"inputs": [
				{
					"internalType": "address",
					"name": "account",
					"type": "address"
				}
			],
			"name": "firstDailyWin",
			"outputs": [],
			"stateMutability": "nonpayable",
			"type": "function"
		},
		{
			"inputs": [
				{
					"internalType": "uint256",
					"name": "shardId",
					"type": "uint256"
				}
			],
			"name": "fuseShards",
			"outputs": [],
			"stateMutability": "nonpayable",
			"type": "function"
		},
		{
			"inputs": [],
			"name": "game",
			"outputs": [
				{
					"internalType": "uint32",
					"name": "firstDailyWins",
					"type": "uint32"
				},
				{
					"internalType": "uint32",
					"name": "airdrops",
					"type": "uint32"
				}
			],
			"stateMutability": "view",
			"type": "function"
		},
		{
			"inputs": [],
			"name": "giveRewards",
			"outputs": [],
			"stateMutability": "nonpayable",
			"type": "function"
		},
		{
			"inputs": [
				{
					"internalType": "uint256",
					"name": "",
					"type": "uint256"
				}
			],
			"name": "items",
			"outputs": [
				{
					"internalType": "uint256",
					"name": "id",
					"type": "uint256"
				},
				{
					"internalType": "uint256",
					"name": "amount",
					"type": "uint256"
				},
				{
					"internalType": "uint256",
					"name": "price",
					"type": "uint256"
				},
				{
					"internalType": "address",
					"name": "seller",
					"type": "address"
				}
			],
			"stateMutability": "view",
			"type": "function"
		},
		{
			"inputs": [
				{
					"internalType": "address",
					"name": "account",
					"type": "address"
				},
				{
					"internalType": "uint16",
					"name": "level",
					"type": "uint16"
				}
			],
			"name": "levelUp",
			"outputs": [],
			"stateMutability": "nonpayable",
			"type": "function"
		},
		{
			"inputs": [],
			"name": "liquidity",
			"outputs": [
				{
					"internalType": "uint256",
					"name": "ecr",
					"type": "uint256"
				},
				{
					"internalType": "uint256",
					"name": "etlos",
					"type": "uint256"
				}
			],
			"stateMutability": "view",
			"type": "function"
		},
		{
			"inputs": [
				{
					"internalType": "uint256",
					"name": "id",
					"type": "uint256"
				},
				{
					"internalType": "uint256",
					"name": "amount",
					"type": "uint256"
				},
				{
					"internalType": "uint256",
					"name": "price",
					"type": "uint256"
				}
			],
			"name": "listItem",
			"outputs": [],
			"stateMutability": "nonpayable",
			"type": "function"
		},
		{
			"inputs": [
				{
					"internalType": "address",
					"name": "",
					"type": "address"
				},
				{
					"internalType": "address",
					"name": "",
					"type": "address"
				},
				{
					"internalType": "uint256[]",
					"name": "",
					"type": "uint256[]"
				},
				{
					"internalType": "uint256[]",
					"name": "",
					"type": "uint256[]"
				},
				{
					"internalType": "bytes",
					"name": "",
					"type": "bytes"
				}
			],
			"name": "onERC1155BatchReceived",
			"outputs": [
				{
					"internalType": "bytes4",
					"name": "",
					"type": "bytes4"
				}
			],
			"stateMutability": "nonpayable",
			"type": "function"
		},
		{
			"inputs": [
				{
					"internalType": "address",
					"name": "",
					"type": "address"
				},
				{
					"internalType": "address",
					"name": "",
					"type": "address"
				},
				{
					"internalType": "uint256",
					"name": "",
					"type": "uint256"
				},
				{
					"internalType": "uint256",
					"name": "",
					"type": "uint256"
				},
				{
					"internalType": "bytes",
					"name": "",
					"type": "bytes"
				}
			],
			"name": "onERC1155Received",
			"outputs": [
				{
					"internalType": "bytes4",
					"name": "",
					"type": "bytes4"
				}
			],
			"stateMutability": "nonpayable",
			"type": "function"
		},
		{
			"inputs": [],
			"name": "owner",
			"outputs": [
				{
					"internalType": "address",
					"name": "",
					"type": "address"
				}
			],
			"stateMutability": "view",
			"type": "function"
		},
		{
			"inputs": [
				{
					"internalType": "address",
					"name": "",
					"type": "address"
				},
				{
					"internalType": "uint256",
					"name": "",
					"type": "uint256"
				}
			],
			"name": "playerStakes",
			"outputs": [
				{
					"internalType": "uint256",
					"name": "staked",
					"type": "uint256"
				},
				{
					"internalType": "uint256",
					"name": "unstaked",
					"type": "uint256"
				},
				{
					"internalType": "uint256",
					"name": "vesting",
					"type": "uint256"
				}
			],
			"stateMutability": "view",
			"type": "function"
		},
		{
			"inputs": [
				{
					"internalType": "address",
					"name": "",
					"type": "address"
				}
			],
			"name": "players",
			"outputs": [
				{
					"internalType": "uint256",
					"name": "rewards",
					"type": "uint256"
				},
				{
					"internalType": "uint32",
					"name": "airdrops",
					"type": "uint32"
				},
				{
					"internalType": "bool",
					"name": "isStaker",
					"type": "bool"
				},
				{
					"internalType": "bool",
					"name": "isRegistered",
					"type": "bool"
				},
				{
					"internalType": "bool",
					"name": "hasClaimedStarterPack",
					"type": "bool"
				},
				{
					"internalType": "bool",
					"name": "firstDailyWin",
					"type": "bool"
				}
			],
			"stateMutability": "view",
			"type": "function"
		},
		{
			"inputs": [
				{
					"internalType": "uint256",
					"name": "amount",
					"type": "uint256"
				}
			],
			"name": "removeLiquidity",
			"outputs": [],
			"stateMutability": "nonpayable",
			"type": "function"
		},
		{
			"inputs": [],
			"name": "renounceOwnership",
			"outputs": [],
			"stateMutability": "nonpayable",
			"type": "function"
		},
		{
			"inputs": [
				{
					"internalType": "uint256",
					"name": "",
					"type": "uint256"
				}
			],
			"name": "skinShards",
			"outputs": [
				{
					"internalType": "uint256",
					"name": "",
					"type": "uint256"
				}
			],
			"stateMutability": "view",
			"type": "function"
		},
		{
			"inputs": [
				{
					"internalType": "uint256",
					"name": "",
					"type": "uint256"
				}
			],
			"name": "skins",
			"outputs": [
				{
					"internalType": "enum SomGame.Rarity",
					"name": "",
					"type": "uint8"
				}
			],
			"stateMutability": "view",
			"type": "function"
		},
		{
			"inputs": [],
			"name": "somTokens",
			"outputs": [
				{
					"internalType": "contract SomTokens",
					"name": "",
					"type": "address"
				}
			],
			"stateMutability": "view",
			"type": "function"
		},
		{
			"inputs": [
				{
					"internalType": "uint256",
					"name": "id",
					"type": "uint256"
				},
				{
					"internalType": "uint256",
					"name": "amount",
					"type": "uint256"
				}
			],
			"name": "stake",
			"outputs": [],
			"stateMutability": "nonpayable",
			"type": "function"
		},
		{
			"inputs": [
				{
					"internalType": "bytes4",
					"name": "interfaceId",
					"type": "bytes4"
				}
			],
			"name": "supportsInterface",
			"outputs": [
				{
					"internalType": "bool",
					"name": "",
					"type": "bool"
				}
			],
			"stateMutability": "view",
			"type": "function"
		},
		{
			"inputs": [
				{
					"internalType": "uint256",
					"name": "id",
					"type": "uint256"
				},
				{
					"internalType": "uint256",
					"name": "amountIn",
					"type": "uint256"
				}
			],
			"name": "swap",
			"outputs": [],
			"stateMutability": "nonpayable",
			"type": "function"
		},
		{
			"inputs": [
				{
					"internalType": "uint256",
					"name": "",
					"type": "uint256"
				}
			],
			"name": "totalStakes",
			"outputs": [
				{
					"internalType": "uint256",
					"name": "staked",
					"type": "uint256"
				},
				{
					"internalType": "uint256",
					"name": "unstaked",
					"type": "uint256"
				}
			],
			"stateMutability": "view",
			"type": "function"
		},
		{
			"inputs": [
				{
					"internalType": "address",
					"name": "newOwner",
					"type": "address"
				}
			],
			"name": "transferOwnership",
			"outputs": [],
			"stateMutability": "nonpayable",
			"type": "function"
		},
		{
			"inputs": [
				{
					"internalType": "uint256",
					"name": "chestId",
					"type": "uint256"
				}
			],
			"name": "unlockChest",
			"outputs": [],
			"stateMutability": "nonpayable",
			"type": "function"
		},
		{
			"inputs": [
				{
					"internalType": "uint256",
					"name": "id",
					"type": "uint256"
				},
				{
					"internalType": "uint256",
					"name": "amount",
					"type": "uint256"
				}
			],
			"name": "unstake",
			"outputs": [],
			"stateMutability": "nonpayable",
			"type": "function"
		},
		{
			"inputs": [
				{
					"internalType": "uint256",
					"name": "amount",
					"type": "uint256"
				}
			],
			"name": "unwrap",
			"outputs": [],
			"stateMutability": "nonpayable",
			"type": "function"
		},
		{
			"inputs": [],
			"name": "wrap",
			"outputs": [],
			"stateMutability": "payable",
			"type": "function"
		}
	]
}